{
    "contractName": "poolAddress",
    "abi": [
        {
            "inputs": [
                {
                    "internalType": "address",
                    "name": "_poolRegistry",
                    "type": "address"
                },
                {
                    "internalType": "address",
                    "name": "_AconomyFeeAddress",
                    "type": "address"
                }
            ],
            "stateMutability": "nonpayable",
            "type": "constructor"
        },
        {
            "anonymous": false,
            "inputs": [
                {
                    "indexed": true,
                    "internalType": "uint256",
                    "name": "loanId",
                    "type": "uint256"
                },
                {
                    "indexed": true,
                    "internalType": "string",
                    "name": "feeType",
                    "type": "string"
                },
                {
                    "indexed": true,
                    "internalType": "uint256",
                    "name": "amount",
                    "type": "uint256"
                }
            ],
            "name": "AcceptedLoanDetail",
            "type": "event"
        },
        {
            "anonymous": false,
            "inputs": [
                {
                    "indexed": true,
                    "internalType": "uint256",
                    "name": "loanId",
                    "type": "uint256"
                },
                {
                    "indexed": false,
                    "internalType": "uint256",
                    "name": "Amount",
                    "type": "uint256"
                }
            ],
            "name": "LoanRepaid",
            "type": "event"
        },
        {
            "anonymous": false,
            "inputs": [
                {
                    "indexed": true,
                    "internalType": "uint256",
                    "name": "loanId",
                    "type": "uint256"
                },
                {
                    "indexed": false,
                    "internalType": "uint256",
                    "name": "Amount",
                    "type": "uint256"
                }
            ],
            "name": "LoanRepayment",
            "type": "event"
        },
        {
            "anonymous": false,
            "inputs": [
                {
                    "indexed": true,
                    "internalType": "uint256",
                    "name": "loanId",
                    "type": "uint256"
                },
                {
                    "indexed": true,
                    "internalType": "address",
                    "name": "borrower",
                    "type": "address"
                },
                {
                    "indexed": false,
                    "internalType": "address",
                    "name": "receiver",
                    "type": "address"
                },
                {
                    "indexed": false,
                    "internalType": "uint256",
                    "name": "paymentCycleAmount",
                    "type": "uint256"
                }
            ],
            "name": "SubmittedLoan",
            "type": "event"
        },
        {
            "anonymous": false,
            "inputs": [
                {
                    "indexed": true,
                    "internalType": "uint256",
                    "name": "loanId",
                    "type": "uint256"
                },
                {
                    "indexed": true,
                    "internalType": "address",
                    "name": "lender",
                    "type": "address"
                }
            ],
            "name": "loanAccepted",
            "type": "event"
        },
        {
            "anonymous": false,
            "inputs": [
                {
                    "indexed": false,
                    "internalType": "uint256",
                    "name": "owedPrincipal",
                    "type": "uint256"
                },
                {
                    "indexed": false,
                    "internalType": "uint256",
                    "name": "duePrincipal",
                    "type": "uint256"
                },
                {
                    "indexed": false,
                    "internalType": "uint256",
                    "name": "interest",
                    "type": "uint256"
                }
            ],
            "name": "repaidAmounts",
            "type": "event"
        },
        {
            "inputs": [
                {
                    "internalType": "uint256",
                    "name": "_loanId",
                    "type": "uint256"
                }
            ],
            "name": "AcceptLoan",
            "outputs": [
                {
                    "internalType": "uint256",
                    "name": "amountToAconomy",
                    "type": "uint256"
                },
                {
                    "internalType": "uint256",
                    "name": "amountToPool",
                    "type": "uint256"
                },
                {
                    "internalType": "uint256",
                    "name": "amountToBorrower",
                    "type": "uint256"
                }
            ],
            "stateMutability": "nonpayable",
            "type": "function"
        },
        {
            "inputs": [
                {
                    "internalType": "address",
                    "name": "",
                    "type": "address"
                },
                {
                    "internalType": "uint256",
                    "name": "",
                    "type": "uint256"
                }
            ],
            "name": "borrowerLoans",
            "outputs": [
                {
                    "internalType": "uint256",
                    "name": "",
                    "type": "uint256"
                }
            ],
            "stateMutability": "view",
            "type": "function"
        },
        {
            "inputs": [
                {
                    "internalType": "uint256",
                    "name": "_loanId",
                    "type": "uint256"
                }
            ],
            "name": "calculateNextDueDate",
            "outputs": [
                {
                    "internalType": "uint32",
                    "name": "dueDate_",
                    "type": "uint32"
                }
            ],
            "stateMutability": "view",
            "type": "function"
        },
        {
            "inputs": [
                {
                    "internalType": "uint256",
                    "name": "_loanId",
                    "type": "uint256"
                }
            ],
            "name": "isLoanDefaulted",
            "outputs": [
                {
                    "internalType": "bool",
                    "name": "",
                    "type": "bool"
                }
            ],
            "stateMutability": "view",
            "type": "function"
        },
        {
            "inputs": [
                {
                    "internalType": "uint256",
                    "name": "_loanId",
                    "type": "uint256"
                }
            ],
            "name": "isLoanExpired",
            "outputs": [
                {
                    "internalType": "bool",
                    "name": "",
                    "type": "bool"
                }
            ],
            "stateMutability": "view",
            "type": "function"
        },
        {
            "inputs": [
                {
                    "internalType": "uint256",
                    "name": "_loanId",
                    "type": "uint256"
                }
            ],
            "name": "isPaymentLate",
            "outputs": [
                {
                    "internalType": "bool",
                    "name": "",
                    "type": "bool"
                }
            ],
            "stateMutability": "view",
            "type": "function"
        },
        {
            "inputs": [
                {
                    "internalType": "uint256",
                    "name": "_loanId",
                    "type": "uint256"
                }
            ],
            "name": "lastRepaidTimestamp",
            "outputs": [
                {
                    "internalType": "uint32",
                    "name": "",
                    "type": "uint32"
                }
            ],
            "stateMutability": "view",
            "type": "function"
        },
        {
            "inputs": [
                {
                    "internalType": "address",
                    "name": "",
                    "type": "address"
                },
                {
                    "internalType": "address",
                    "name": "",
                    "type": "address"
                }
            ],
            "name": "lenderLendAmount",
            "outputs": [
                {
                    "internalType": "uint256",
                    "name": "",
                    "type": "uint256"
                }
            ],
            "stateMutability": "view",
            "type": "function"
        },
        {
            "inputs": [
                {
                    "internalType": "uint256",
                    "name": "",
                    "type": "uint256"
                }
            ],
            "name": "loanDefaultDuration",
            "outputs": [
                {
                    "internalType": "uint32",
                    "name": "",
                    "type": "uint32"
                }
            ],
            "stateMutability": "view",
            "type": "function"
        },
        {
            "inputs": [
                {
                    "internalType": "uint256",
                    "name": "",
                    "type": "uint256"
                }
            ],
            "name": "loanExpirationTime",
            "outputs": [
                {
                    "internalType": "uint32",
                    "name": "",
                    "type": "uint32"
                }
            ],
            "stateMutability": "view",
            "type": "function"
        },
        {
            "inputs": [],
            "name": "loanId",
            "outputs": [
                {
                    "internalType": "uint256",
                    "name": "",
                    "type": "uint256"
                }
            ],
            "stateMutability": "view",
            "type": "function"
        },
        {
            "inputs": [
                {
                    "internalType": "address",
                    "name": "_lendingToken",
                    "type": "address"
                },
                {
                    "internalType": "uint256",
                    "name": "_poolId",
                    "type": "uint256"
                },
                {
                    "internalType": "uint256",
                    "name": "_principal",
                    "type": "uint256"
                },
                {
                    "internalType": "uint32",
                    "name": "_duration",
                    "type": "uint32"
                },
                {
                    "internalType": "uint16",
                    "name": "_APR",
                    "type": "uint16"
                },
                {
                    "internalType": "address",
                    "name": "_receiver",
                    "type": "address"
                }
            ],
            "name": "loanRequest",
            "outputs": [
                {
                    "internalType": "uint256",
                    "name": "loanId_",
                    "type": "uint256"
                }
            ],
            "stateMutability": "nonpayable",
            "type": "function"
        },
        {
            "inputs": [
                {
                    "internalType": "uint256",
                    "name": "",
                    "type": "uint256"
                }
            ],
            "name": "loans",
            "outputs": [
                {
                    "internalType": "address",
                    "name": "borrower",
                    "type": "address"
                },
                {
                    "internalType": "address",
                    "name": "receiver",
                    "type": "address"
                },
                {
                    "internalType": "address",
                    "name": "lender",
                    "type": "address"
                },
                {
                    "internalType": "uint256",
                    "name": "poolId",
                    "type": "uint256"
                },
                {
                    "components": [
                        {
                            "internalType": "contract ERC20",
                            "name": "lendingToken",
                            "type": "address"
                        },
                        {
                            "internalType": "uint256",
                            "name": "principal",
                            "type": "uint256"
                        },
                        {
                            "components": [
                                {
                                    "internalType": "uint256",
                                    "name": "principal",
                                    "type": "uint256"
                                },
                                {
                                    "internalType": "uint256",
                                    "name": "interest",
                                    "type": "uint256"
                                }
                            ],
                            "internalType": "struct poolStorage.Payment",
                            "name": "totalRepaid",
                            "type": "tuple"
                        },
                        {
                            "internalType": "uint32",
                            "name": "timestamp",
                            "type": "uint32"
                        },
                        {
                            "internalType": "uint32",
                            "name": "acceptedTimestamp",
                            "type": "uint32"
                        },
                        {
                            "internalType": "uint32",
                            "name": "lastRepaidTimestamp",
                            "type": "uint32"
                        },
                        {
                            "internalType": "uint32",
                            "name": "loanDuration",
                            "type": "uint32"
                        }
                    ],
                    "internalType": "struct poolStorage.LoanDetails",
                    "name": "loanDetails",
                    "type": "tuple"
                },
                {
                    "components": [
                        {
                            "internalType": "uint256",
                            "name": "paymentCycleAmount",
                            "type": "uint256"
                        },
                        {
                            "internalType": "uint32",
                            "name": "paymentCycle",
                            "type": "uint32"
                        },
                        {
                            "internalType": "uint16",
                            "name": "APR",
                            "type": "uint16"
                        }
                    ],
                    "internalType": "struct poolStorage.Terms",
                    "name": "terms",
                    "type": "tuple"
                },
                {
                    "internalType": "enum poolStorage.LoanState",
                    "name": "state",
                    "type": "uint8"
                }
            ],
            "stateMutability": "view",
            "type": "function"
        },
        {
            "inputs": [
                {
                    "internalType": "uint256",
                    "name": "",
                    "type": "uint256"
                }
            ],
            "name": "poolLoans",
            "outputs": [
                {
                    "internalType": "uint256",
                    "name": "",
                    "type": "uint256"
                }
            ],
            "stateMutability": "view",
            "type": "function"
        },
        {
            "inputs": [
                {
                    "internalType": "uint256",
                    "name": "_loanId",
                    "type": "uint256"
                }
            ],
            "name": "repayFullLoan",
            "outputs": [],
            "stateMutability": "nonpayable",
            "type": "function"
        },
        {
            "inputs": [
                {
                    "internalType": "uint256",
                    "name": "_loanId",
                    "type": "uint256"
                }
            ],
            "name": "repayYourLoan",
            "outputs": [],
            "stateMutability": "nonpayable",
            "type": "function"
        },
        {
            "inputs": [
                {
                    "internalType": "address",
                    "name": "",
                    "type": "address"
                }
            ],
            "name": "totalERC20Amount",
            "outputs": [
                {
                    "internalType": "uint256",
                    "name": "",
                    "type": "uint256"
                }
            ],
            "stateMutability": "view",
            "type": "function"
        },
        {
            "inputs": [
                {
                    "internalType": "uint256",
                    "name": "_loanId",
                    "type": "uint256"
                }
            ],
            "name": "viewFullRepayAmount",
            "outputs": [
                {
                    "internalType": "uint256",
                    "name": "",
                    "type": "uint256"
                }
            ],
            "stateMutability": "view",
            "type": "function"
        },
        {
            "inputs": [
                {
                    "internalType": "uint256",
                    "name": "_loanId",
                    "type": "uint256"
                }
            ],
            "name": "viewInstallmentAmount",
            "outputs": [
                {
                    "internalType": "uint256",
                    "name": "",
                    "type": "uint256"
                }
            ],
            "stateMutability": "view",
            "type": "function"
        }
    ],
    "bytecode": "6080604052600080553480156200001557600080fd5b50604051620026f7380380620026f783398101604081905262000038916200008c565b6001600955600a80546001600160a01b039384166001600160a01b031991821617909155600b8054929093169116179055620000c4565b80516001600160a01b03811681146200008757600080fd5b919050565b60008060408385031215620000a057600080fd5b620000ab836200006f565b9150620000bb602084016200006f565b90509250929050565b61262380620000d46000396000f3fe608060405234801561001057600080fd5b50600436106101215760003560e01c806360c661e6116100ad578063e1ec3c6811610071578063e1ec3c68146102a0578063e3ed1902146103a8578063e766a88f146103bb578063e8cbab09146103e9578063fee870e9146103fc57600080fd5b806360c661e614610238578063706a43c31461024b5780638cda45711461025e578063a51e2bad14610284578063c95669a51461029757600080fd5b80631e042d1f116100f45780631e042d1f1461019757806330f2670c146101aa578063376e4988146101ca5780633a31f337146101ea578063561e79461461022557600080fd5b806302117df314610126578063093f56171461014c578063106182231461016f5780631c5c1fc714610182575b600080fd5b610139610134366004611fe6565b610427565b6040519081526020015b60405180910390f35b61015f61015a366004611fe6565b6104b0565b6040519015158152602001610143565b61015f61017d366004611fe6565b610505565b610195610190366004611fe6565b61059c565b005b6101956101a5366004611fe6565b61065b565b6101396101b8366004612017565b60046020526000908152604090205481565b6101396101d8366004611fe6565b60026020526000908152604090205481565b6102106101f8366004611fe6565b60076020526000908152604090205463ffffffff1681565b60405163ffffffff9091168152602001610143565b610139610233366004611fe6565b61075a565b610139610246366004612056565b6107d0565b610210610259366004611fe6565b610d05565b61021061026c366004611fe6565b60066020526000908152604090205463ffffffff1681565b610210610292366004611fe6565b610e47565b61013960005481565b6103956102ae366004611fe6565b60016020818152600092835260409283902080549281015460028201546003830154865160e08101885260048501546001600160a01b0390811682526005860154828801528851808a018a5260068701548152600787015481890152828a0152600886015463ffffffff808216606080860191909152600160201b80840483166080870152600160401b8404831660a0870152600160601b909304821660c08601528b519081018c5260098901548152600a890154918216998101999099520461ffff1698870198909852600b909401549587169692831695929091169390929160ff1687565b60405161014397969594939291906120fe565b6101396103b63660046121db565b610e64565b6103ce6103c9366004611fe6565b610e95565b60408051938452602084019290925290820152606001610143565b61015f6103f7366004611fe6565b611914565b61013961040a366004612207565b600860209081526000928352604080842090915290825290205481565b600060026000838152600160205260409020600b015460ff166003811115610451576104516120c6565b146104775760405162461bcd60e51b815260040161046e90612240565b60405180910390fd5b60008281526001602052604081208190819061049390426119a5565b9194509250905060006104a68285612285565b9695505050505050565b600060026000838152600160205260409020600b015460ff1660038111156104da576104da6120c6565b146104e757506000919050565b6104f082610d05565b63ffffffff164263ffffffff16119050919050565b600081815260016020526040812081600b82015460ff16600381111561052d5761052d6120c6565b1461053b5750600092915050565b60008381526007602052604081205463ffffffff16900361055f5750600092915050565b60008381526007602052604090205460088201546105869163ffffffff9081169116612298565b63ffffffff164263ffffffff1611915050919050565b6002600954036105be5760405162461bcd60e51b815260040161046e906122b5565b600260098190556000828152600160205260409020600b015460ff1660038111156105eb576105eb6120c6565b146106085760405162461bcd60e51b815260040161046e90612240565b6000818152600160205260408120819061062290426119a5565b925050915061065183604051806040016040528085815260200184815250838561064c9190612285565b611a14565b5050600160095550565b60026009540361067d5760405162461bcd60e51b815260040161046e906122b5565b600260098190556000828152600160205260409020600b015460ff1660038111156106aa576106aa6120c6565b146106c75760405162461bcd60e51b815260040161046e90612240565b6000818152600160205260408120819081906106e390426119a5565b92509250925061070e84604051806040016040528085815260200184815250838661064c9190612285565b60408051848152602081018490529081018290527f193d98b28f4db3258b9a6bc3f7270c0ea85e0a520b3dc0daad9acc7136703d0f9060600160405180910390a1505060016009555050565b600060026000838152600160205260409020600b015460ff166003811115610784576107846120c6565b146107a15760405162461bcd60e51b815260040161046e90612240565b6000828152600160205260408120819081906107bd90426119a5565b9194509250905060006104a68284612285565b600a546040516348c6acf560e11b81526004810187905233602482015260009182916001600160a01b039091169063918d59ea906044016040805180830381865afa158015610823573d6000803e3d6000fd5b505050506040513d601f19601f820116820180604052508101906108479190612301565b5090508061088f5760405162461bcd60e51b81526020600482015260156024820152742737ba103b32b934b334b2b2103137b93937bbb2b960591b604482015260640161046e565b600a5460405163a8380df160e01b8152600481018990526001600160a01b039091169063a8380df190602401602060405180830381865afa1580156108d8573d6000803e3d6000fd5b505050506040513d601f19601f820116820180604052508101906108fc919061232d565b1561093a5760405162461bcd60e51b815260206004820152600e60248201526d141bdbdb081a5cc818db1bdcd95960921b604482015260640161046e565b60008054888252600260209081526040808420839055828452600190915290912080546001600160a01b031916331781559092506001600160a01b03841661098c5780546001600160a01b031661098e565b835b6001820180546001600160a01b03199081166001600160a01b0393841617909155600383018a9055600480840180549092168c841617909155600583018990556008830180546fffffffff0000000000000000ffffffff1916600160601b63ffffffff8b81169190910263ffffffff1916919091174291909116179055600a5460405163805deb5360e01b81529182018b90529091169063805deb5390602401602060405180830381865afa158015610a4b573d6000803e3d6000fd5b505050506040513d601f19601f82011682018060405250810190610a6f9190612348565b600a828101805463ffffffff9390931665ffffffffffff1990931692909217600160201b61ffff89160217909155546040516311bed5bb60e01b8152600481018a90526001600160a01b03909116906311bed5bb90602401602060405180830381865afa158015610ae4573d6000803e3d6000fd5b505050506040513d601f19601f82011682018060405250810190610b089190612348565b6000805481526006602052604090819020805463ffffffff191663ffffffff9390931692909217909155600a54905163c28ba8eb60e01b8152600481018a90526001600160a01b039091169063c28ba8eb90602401602060405180830381865afa158015610b7a573d6000803e3d6000fd5b505050506040513d601f19601f82011682018060405250810190610b9e9190612348565b6000805481526007602052604090819020805463ffffffff191663ffffffff938416179055600a8301549051632872a88760e01b8152600481018a905288831660248201529116604482015261ffff8616606482015273__$a9ac857e05f59b61c2ba7387f47401b218$__90632872a88790608401602060405180830381865af4158015610c30573d6000803e3d6000fd5b505050506040513d601f19601f82011682018060405250810190610c549190612365565b60098201819055600b8201805460ff1916905581546000546001840154604080516001600160a01b039283168152602081019590955292169290917f20669ac1da79ef826aa0f4e5e5b00ae0f2ed6e7c6eceb274c6fb43976204217e910160405180910390a380546001600160a01b03166000908152600560209081526040822082548154600181018355918452918320015580549080610cf48361237e565b919050555050509695505050505050565b6000818152600160205260408120600b81015460029060ff166003811115610d2f57610d2f6120c6565b14610d3a5750919050565b600a8101546008820154610d5e9163ffffffff90811691600160201b900416612298565b6008820154909250600090600160201b900463ffffffff16610d7f85610e47565b610d899190612397565b905063ffffffff811615610de057600a820154600090610daf9063ffffffff16836123ca565b610dba906001612298565b600a840154909150610dd29063ffffffff16826123ed565b610ddc9085612298565b9350505b6008820154610e059063ffffffff600160601b8204811691600160201b900416612298565b63ffffffff168363ffffffff161115610e40576008820154610e3d9063ffffffff600160601b8204811691600160201b900416612298565b92505b5050919050565b6000818152600160205260408120610e5e90611cfb565b92915050565b60056020528160005260406000208181548110610e8057600080fd5b90600052602060002001600091509150505481565b6000808083816000828152600160205260409020600b015460ff166003811115610ec157610ec16120c6565b14610f055760405162461bcd60e51b81526020600482015260146024820152734c6f616e206d7573742062652070656e64696e6760601b604482015260640161046e565b600260095403610f275760405162461bcd60e51b815260040161046e906122b5565b6002600955600085815260016020526040808220600a546003820154925163067b29c960e51b815260048101939093523360248401529092916001600160a01b039091169063cf653920906044016040805180830381865afa158015610f91573d6000803e3d6000fd5b505050506040513d601f19601f82011682018060405250810190610fb59190612301565b50905080610ffb5760405162461bcd60e51b81526020600482015260136024820152722737ba103b32b934b334b2b2103632b73232b960691b604482015260640161046e565b600a54600383015460405163a8380df160e01b81526001600160a01b039092169163a8380df1916110329160040190815260200190565b602060405180830381865afa15801561104f573d6000803e3d6000fd5b505050506040513d601f19601f82011682018060405250810190611073919061232d565b156110b15760405162461bcd60e51b815260206004820152600e60248201526d141bdbdb081a5cc818db1bdcd95960921b604482015260640161046e565b6110ba87610505565b156110fa5760405162461bcd60e51b815260206004820152601060248201526f131bd85b881a185cc8195e1c1a5c995960821b604482015260640161046e565b6008820180546bffffffffffffffff000000001916600160201b4263ffffffff1690810263ffffffff60401b191691909117600160401b91909102179055600b820180546002919060ff191660018302179055506002820180546001600160a01b031916331790556005820154600b54604080516358710f4560e11b8152905173__$a9ac857e05f59b61c2ba7387f47401b218$__93633fb340039390926001600160a01b03919091169163b0e21e8a916004818101926020929091908290030181865afa1580156111d0573d6000803e3d6000fd5b505050506040513d601f19601f820116820180604052508101906111f49190612415565b6040516001600160e01b031960e085901b168152600481019290925261ffff166024820152604401602060405180830381865af4158015611239573d6000803e3d6000fd5b505050506040513d601f19601f8201168201806040525081019061125d9190612365565b6005830154600a54600385015460405163635f1e4d60e01b8152600481019190915292985073__$a9ac857e05f59b61c2ba7387f47401b218$__92633fb3400392916001600160a01b03169063635f1e4d90602401602060405180830381865afa1580156112cf573d6000803e3d6000fd5b505050506040513d601f19601f820116820180604052508101906112f39190612415565b6040516001600160e01b031960e085901b168152600481019290925261ffff166024820152604401602060405180830381865af4158015611338573d6000803e3d6000fd5b505050506040513d601f19601f8201168201806040525081019061135c9190612365565b9450848683600401600101546113729190612432565b61137c9190612432565b935085156114cc576004808301546002840154600b5460408051634dd9ccb160e01b815290516000956001600160a01b03958616956323b872dd958116941692634dd9ccb192818301926020928290030181865afa1580156113e2573d6000803e3d6000fd5b505050506040513d601f19601f820116820180604052508101906114069190612445565b8a6040518463ffffffff1660e01b815260040161142593929190612462565b6020604051808303816000875af1158015611444573d6000803e3d6000fd5b505050506040513d601f19601f82011682018060405250810190611468919061232d565b9050806114ca5760405162461bcd60e51b815260206004820152602a60248201527f4e6f742061626c6520746f2074616e7366657220746f2061636f6e6f6d7920666044820152696565206164647265737360b01b606482015260840161046e565b505b8415611617576004828101546002840154600a546003860154604051631b8d2d3960e21b8152948501526000936001600160a01b03938416936323b872dd938116921690636e34b4e490602401602060405180830381865afa158015611536573d6000803e3d6000fd5b505050506040513d601f19601f8201168201806040525081019061155a9190612445565b896040518463ffffffff1660e01b815260040161157993929190612462565b6020604051808303816000875af1158015611598573d6000803e3d6000fd5b505050506040513d601f19601f820116820180604052508101906115bc919061232d565b9050806116155760405162461bcd60e51b815260206004820152602160248201527f4e6f742061626c6520746f2074616e7366657220746f20706f6f6c206f776e656044820152603960f91b606482015260840161046e565b505b600480830154600284015484546040516323b872dd60e01b81526000946001600160a01b03948516946323b872dd9461165994908216939116918b9101612462565b6020604051808303816000875af1158015611678573d6000803e3d6000fd5b505050506040513d601f19601f8201168201806040525081019061169c919061232d565b9050806116eb5760405162461bcd60e51b815260206004820152601f60248201527f4e6f742061626c6520746f2074616e7366657220746f20626f72726f77657200604482015260640161046e565b600583015460048401546001600160a01b039081166000908152600860209081526040808320600289015490941683529290529081208054909190611731908490612285565b909155505060058301546004808501546001600160a01b03166000908152602091909152604081208054909190611769908490612285565b909155505082546001600160a01b031660009081526003602052604090206117919089611d41565b6117f35760405162461bcd60e51b815260206004820152602d60248201527f616363657074206c6f616e206661696c65642c2061646420746f20626f72727760448201526c65726163746976656c6f616e7360981b606482015260840161046e565b60028301546040516001600160a01b039091169089907fc175daba6d0afff1f048fc218620bf5012c03afa26af397bacbf30f7341d343090600090a3604051671c1c9bdd1bd8dbdb60c21b81528790600801604051908190038120908a907f9d2e18d1e551e6728496dd39a969d9fe809fe60c0c8c9cabfda8be718e5387cf90600090a460405163141bdbdb60e21b81528690600401604051908190038120908a907f9d2e18d1e551e6728496dd39a969d9fe809fe60c0c8c9cabfda8be718e5387cf90600090a4604051672137b93937bbb2b960c11b81528590600801604051908190038120908a907f9d2e18d1e551e6728496dd39a969d9fe809fe60c0c8c9cabfda8be718e5387cf90600090a4505060016009555092949193509150565b60008181526001602052604081206002600b82015460ff16600381111561193d5761193d6120c6565b1461194b5750600092915050565b60008381526006602052604081205463ffffffff16900361196f5750600092915050565b60008381526006602052604090205463ffffffff1661198d84610e47565b6119979042612397565b63ffffffff16119392505050565b60058201546006830154600a840154600985015460009384938493611a079361ffff600160201b8304169163ffffffff166119df8b611cfb565b60088c015463ffffffff918216918c91600160201b8104821691600160601b90910416611d54565b9250925092509250925092565b60008381526001602090815260408220908401518451919291611a379190612285565b6003830154600a5460405162a5ae2160e01b81526004810183905292935090916000916001600160a01b03169062a5ae2190602401602060405180830381865afa158015611a89573d6000803e3d6000fd5b505050506040513d601f19601f82011682018060405250810190611aad9190612445565b9050848310611b8a57600b8401805460ff1916600390811790915584546001600160a01b0316600090815260209190915260409020859350611aef9088611e2a565b611b4b5760405162461bcd60e51b815260206004820152602760248201527f6e6f742061626c6520746f2072657061792c2072656d6f7665206c6f616e49646044820152660819985a5b195960ca1b606482015260840161046e565b867f040cee90ee4799897c30ca04e5feb6fa43dbba9b6d084b4b257cdafd84ba013e84604051611b7d91815260200190565b60405180910390a2611bc5565b867f74eb6e59df678ce3b4afd511fde3df47cbedd7c742096db39757074577499a9c84604051611bbc91815260200190565b60405180910390a25b60048085015460028601546040516323b872dd60e01b81526000936001600160a01b03938416936323b872dd93611c0593339391909216918a9101612462565b6020604051808303816000875af1158015611c24573d6000803e3d6000fd5b505050506040513d601f19601f82011682018060405250810190611c48919061232d565b905080611c975760405162461bcd60e51b815260206004820152601c60248201527f756e61626c6520746f207472616e7366657220746f206c656e64657200000000604482015260640161046e565b8651600686018054600090611cad908490612285565b90915550506020870151600786018054600090611ccb908490612285565b90915550505050600892909201805463ffffffff60401b1916600160401b4263ffffffff16021790555050505050565b6008810154600090600160401b900463ffffffff1615611d2c576008820154600160401b900463ffffffff16610e5e565b5060080154600160201b900463ffffffff1690565b6000611d4d8383611e36565b9392505050565b60008080611d628b8d612432565b92506000611d70848c611e85565b90506000611d7e8989612432565b90506301e13380611d8f8284612486565b611d99919061249d565b92506000611da7888a6124b1565b611db190886124b1565b905060008b821280611dcc57508c611dc98689612285565b11155b9050600081611ddb578d611de5565b611de58689612285565b905060008d611df48684612486565b611dfe919061249d565b9050611e13611e0d8883612432565b8a611e97565b975050505050505099509950999650505050505050565b6000611d4d8383611ead565b6000818152600183016020526040812054611e7d57508154600181810184556000848152602080822090930184905584548482528286019093526040902091909155610e5e565b506000610e5e565b6000611d4d838361ffff166002611fa7565b6000818310611ea65781611d4d565b5090919050565b60008181526001830160205260408120548015611f96576000611ed1600183612432565b8554909150600090611ee590600190612432565b9050818114611f4a576000866000018281548110611f0557611f056124d1565b9060005260206000200154905080876000018481548110611f2857611f286124d1565b6000918252602080832090910192909255918252600188019052604090208390555b8554869080611f5b57611f5b6124e7565b600190038181906000526020600020016000905590558560010160008681526020019081526020016000206000905560019350505050610e5e565b6000915050610e5e565b5092915050565b6000611fb282611fce565b611fbc8486612486565b611fc6919061249d565b949350505050565b6000611fdb82600a6125e1565b610e5e906064612486565b600060208284031215611ff857600080fd5b5035919050565b6001600160a01b038116811461201457600080fd5b50565b60006020828403121561202957600080fd5b8135611d4d81611fff565b63ffffffff8116811461201457600080fd5b61ffff8116811461201457600080fd5b60008060008060008060c0878903121561206f57600080fd5b863561207a81611fff565b95506020870135945060408701359350606087013561209881612034565b925060808701356120a881612046565b915060a08701356120b881611fff565b809150509295509295509295565b634e487b7160e01b600052602160045260246000fd5b600481106120fa57634e487b7160e01b600052602160045260246000fd5b9052565b60006102008201905060018060a01b03808a1683528089166020840152808816604084015286606084015280865116608084015250602085015160a08301526040850151805160c0840152602081015160e08401525063ffffffff606086015116610100830152608085015161217d61012084018263ffffffff169052565b5060a085015163ffffffff90811661014084015260c0860151811661016084015284516101808401526020850151166101a0830152604084015161ffff166101c08301526121cf6101e08301846120dc565b98975050505050505050565b600080604083850312156121ee57600080fd5b82356121f981611fff565b946020939093013593505050565b6000806040838503121561221a57600080fd5b823561222581611fff565b9150602083013561223581611fff565b809150509250929050565b602080825260159082015274131bd85b881b5d5cdd081899481858d8d95c1d1959605a1b604082015260600190565b634e487b7160e01b600052601160045260246000fd5b80820180821115610e5e57610e5e61226f565b63ffffffff818116838216019080821115611fa057611fa061226f565b6020808252601f908201527f5265656e7472616e637947756172643a207265656e7472616e742063616c6c00604082015260600190565b805180151581146122fc57600080fd5b919050565b6000806040838503121561231457600080fd5b61231d836122ec565b9150602083015190509250929050565b60006020828403121561233f57600080fd5b611d4d826122ec565b60006020828403121561235a57600080fd5b8151611d4d81612034565b60006020828403121561237757600080fd5b5051919050565b6000600182016123905761239061226f565b5060010190565b63ffffffff828116828216039080821115611fa057611fa061226f565b634e487b7160e01b600052601260045260246000fd5b600063ffffffff808416806123e1576123e16123b4565b92169190910492915050565b63ffffffff81811683821602808216919082811461240d5761240d61226f565b505092915050565b60006020828403121561242757600080fd5b8151611d4d81612046565b81810381811115610e5e57610e5e61226f565b60006020828403121561245757600080fd5b8151611d4d81611fff565b6001600160a01b039384168152919092166020820152604081019190915260600190565b8082028115828204841417610e5e57610e5e61226f565b6000826124ac576124ac6123b4565b500490565b8181036000831280158383131683831282161715611fa057611fa061226f565b634e487b7160e01b600052603260045260246000fd5b634e487b7160e01b600052603160045260246000fd5b600181815b8085111561253857816000190482111561251e5761251e61226f565b8085161561252b57918102915b93841c9390800290612502565b509250929050565b60008261254f57506001610e5e565b8161255c57506000610e5e565b8160018114612572576002811461257c57612598565b6001915050610e5e565b60ff84111561258d5761258d61226f565b50506001821b610e5e565b5060208310610133831016604e8410600b84101617156125bb575081810a610e5e565b6125c583836124fd565b80600019048211156125d9576125d961226f565b029392505050565b6000611d4d838361254056fea2646970667358221220b800238cdf17a868e120829ece82667550a047fd1b719a310d628a1ddd606a2c64736f6c63430008130033",
    "sourcePath": "/home/adya/Aconomy foundry/aconomy-contract/contracts/poolAddress.sol",
    "compiler": {
        "name": "solc",
        "version": "0.8.19+commit.7dd6d404"
    },
    "functionHashes": {
        "AcceptLoan(uint256)": "e766a88f",
        "borrowerLoans(address,uint256)": "e3ed1902",
        "calculateNextDueDate(uint256)": "706a43c3",
        "isLoanDefaulted(uint256)": "e8cbab09",
        "isLoanExpired(uint256)": "10618223",
        "isPaymentLate(uint256)": "093f5617",
        "lastRepaidTimestamp(uint256)": "a51e2bad",
        "lenderLendAmount(address,address)": "fee870e9",
        "loanDefaultDuration(uint256)": "8cda4571",
        "loanExpirationTime(uint256)": "3a31f337",
        "loanId()": "c95669a5",
        "loanRequest(address,uint256,uint256,uint32,uint16,address)": "60c661e6",
        "loans(uint256)": "e1ec3c68",
        "poolLoans(uint256)": "376e4988",
        "repayFullLoan(uint256)": "1c5c1fc7",
        "repayYourLoan(uint256)": "1e042d1f",
        "totalERC20Amount(address)": "30f2670c",
        "viewFullRepayAmount(uint256)": "02117df3",
        "viewInstallmentAmount(uint256)": "561e7946"
    },
    "gasEstimates": {
        "creation": {
            "codeDepositCost": "1952600",
            "executionCost": "infinite",
            "totalCost": "infinite"
        },
        "external": {
            "AcceptLoan(uint256)": "infinite",
            "borrowerLoans(address,uint256)": "4771",
            "calculateNextDueDate(uint256)": "infinite",
            "isLoanDefaulted(uint256)": "11509",
            "isLoanExpired(uint256)": "9197",
            "isPaymentLate(uint256)": "infinite",
            "lastRepaidTimestamp(uint256)": "4771",
            "lenderLendAmount(address,address)": "infinite",
            "loanDefaultDuration(uint256)": "2520",
            "loanExpirationTime(uint256)": "2542",
            "loanId()": "2395",
            "loanRequest(address,uint256,uint256,uint32,uint16,address)": "infinite",
            "loans(uint256)": "26703",
            "poolLoans(uint256)": "2494",
            "repayFullLoan(uint256)": "infinite",
            "repayYourLoan(uint256)": "infinite",
            "totalERC20Amount(address)": "2547",
            "viewFullRepayAmount(uint256)": "infinite",
            "viewInstallmentAmount(uint256)": "infinite"
        },
        "internal": {
            "_repayLoan(uint256,struct poolStorage.Payment memory,uint256)": "infinite"
        }
    }
}