{
  "abi": [
    {
      "inputs": [
        {
          "internalType": "string",
          "name": "_name",
          "type": "string"
        },
        {
          "internalType": "string",
          "name": "_symbol",
          "type": "string"
        }
      ],
      "stateMutability": "nonpayable",
      "type": "constructor"
    },
    {
      "anonymous": false,
      "inputs": [
        {
          "indexed": true,
          "internalType": "address",
          "name": "owner",
          "type": "address"
        },
        {
          "indexed": true,
          "internalType": "address",
          "name": "approved",
          "type": "address"
        },
        {
          "indexed": true,
          "internalType": "uint256",
          "name": "tokenId",
          "type": "uint256"
        }
      ],
      "name": "Approval",
      "type": "event"
    },
    {
      "anonymous": false,
      "inputs": [
        {
          "indexed": true,
          "internalType": "address",
          "name": "owner",
          "type": "address"
        },
        {
          "indexed": true,
          "internalType": "address",
          "name": "operator",
          "type": "address"
        },
        {
          "indexed": false,
          "internalType": "bool",
          "name": "approved",
          "type": "bool"
        }
      ],
      "name": "ApprovalForAll",
      "type": "event"
    },
    {
      "anonymous": false,
      "inputs": [
        {
          "indexed": true,
          "internalType": "address",
          "name": "_from",
          "type": "address"
        },
        {
          "indexed": true,
          "internalType": "uint256",
          "name": "_tokenId",
          "type": "uint256"
        },
        {
          "indexed": true,
          "internalType": "address",
          "name": "_erc20Contract",
          "type": "address"
        },
        {
          "indexed": false,
          "internalType": "uint256",
          "name": "_value",
          "type": "uint256"
        }
      ],
      "name": "ReceivedERC20",
      "type": "event"
    },
    {
      "anonymous": false,
      "inputs": [
        {
          "indexed": true,
          "internalType": "uint256",
          "name": "tokenId",
          "type": "uint256"
        },
        {
          "components": [
            {
              "internalType": "address payable",
              "name": "account",
              "type": "address"
            },
            {
              "internalType": "uint96",
              "name": "value",
              "type": "uint96"
            }
          ],
          "indexed": true,
          "internalType": "struct LibShare.Share[]",
          "name": "royalties",
          "type": "tuple[]"
        }
      ],
      "name": "RoyaltiesSetForTokenId",
      "type": "event"
    },
    {
      "anonymous": false,
      "inputs": [
        {
          "indexed": true,
          "internalType": "address",
          "name": "from",
          "type": "address"
        },
        {
          "indexed": true,
          "internalType": "address",
          "name": "to",
          "type": "address"
        },
        {
          "indexed": true,
          "internalType": "uint256",
          "name": "tokenId",
          "type": "uint256"
        }
      ],
      "name": "Transfer",
      "type": "event"
    },
    {
      "anonymous": false,
      "inputs": [
        {
          "indexed": true,
          "internalType": "uint256",
          "name": "_tokenId",
          "type": "uint256"
        },
        {
          "indexed": true,
          "internalType": "address",
          "name": "_to",
          "type": "address"
        },
        {
          "indexed": true,
          "internalType": "address",
          "name": "_erc20Contract",
          "type": "address"
        },
        {
          "indexed": false,
          "internalType": "uint256",
          "name": "_value",
          "type": "uint256"
        }
      ],
      "name": "TransferERC20",
      "type": "event"
    },
    {
      "inputs": [
        {
          "internalType": "address",
          "name": "_from",
          "type": "address"
        },
        {
          "internalType": "uint256",
          "name": "_tokenId",
          "type": "uint256"
        },
        {
          "internalType": "address",
          "name": "_erc20Contract",
          "type": "address"
        },
        {
          "internalType": "uint256",
          "name": "_value",
          "type": "uint256"
        }
      ],
      "name": "addERC20",
      "outputs": [],
      "stateMutability": "nonpayable",
      "type": "function"
    },
    {
      "inputs": [
        {
          "internalType": "address",
          "name": "to",
          "type": "address"
        },
        {
          "internalType": "uint256",
          "name": "tokenId",
          "type": "uint256"
        }
      ],
      "name": "approve",
      "outputs": [],
      "stateMutability": "nonpayable",
      "type": "function"
    },
    {
      "inputs": [
        {
          "internalType": "address",
          "name": "owner",
          "type": "address"
        }
      ],
      "name": "balanceOf",
      "outputs": [
        {
          "internalType": "uint256",
          "name": "",
          "type": "uint256"
        }
      ],
      "stateMutability": "view",
      "type": "function"
    },
    {
      "inputs": [
        {
          "internalType": "uint256",
          "name": "tokenId",
          "type": "uint256"
        }
      ],
      "name": "getApproved",
      "outputs": [
        {
          "internalType": "address",
          "name": "",
          "type": "address"
        }
      ],
      "stateMutability": "view",
      "type": "function"
    },
    {
      "inputs": [
        {
          "internalType": "uint256",
          "name": "_tokenId",
          "type": "uint256"
        }
      ],
      "name": "getRoyalties",
      "outputs": [
        {
          "components": [
            {
              "internalType": "address payable",
              "name": "account",
              "type": "address"
            },
            {
              "internalType": "uint96",
              "name": "value",
              "type": "uint96"
            }
          ],
          "internalType": "struct LibShare.Share[]",
          "name": "",
          "type": "tuple[]"
        }
      ],
      "stateMutability": "view",
      "type": "function"
    },
    {
      "inputs": [
        {
          "internalType": "address",
          "name": "owner",
          "type": "address"
        },
        {
          "internalType": "address",
          "name": "operator",
          "type": "address"
        }
      ],
      "name": "isApprovedForAll",
      "outputs": [
        {
          "internalType": "bool",
          "name": "",
          "type": "bool"
        }
      ],
      "stateMutability": "view",
      "type": "function"
    },
    {
      "inputs": [
        {
          "internalType": "address",
          "name": "_to",
          "type": "address"
        },
        {
          "internalType": "string",
          "name": "_uri",
          "type": "string"
        },
        {
          "components": [
            {
              "internalType": "address payable",
              "name": "account",
              "type": "address"
            },
            {
              "internalType": "uint96",
              "name": "value",
              "type": "uint96"
            }
          ],
          "internalType": "struct LibShare.Share[]",
          "name": "royalties",
          "type": "tuple[]"
        }
      ],
      "name": "mintNFT",
      "outputs": [
        {
          "internalType": "uint256",
          "name": "",
          "type": "uint256"
        }
      ],
      "stateMutability": "nonpayable",
      "type": "function"
    },
    {
      "inputs": [],
      "name": "name",
      "outputs": [
        {
          "internalType": "string",
          "name": "",
          "type": "string"
        }
      ],
      "stateMutability": "view",
      "type": "function"
    },
    {
      "inputs": [
        {
          "internalType": "uint256",
          "name": "tokenId",
          "type": "uint256"
        }
      ],
      "name": "ownerOf",
      "outputs": [
        {
          "internalType": "address",
          "name": "",
          "type": "address"
        }
      ],
      "stateMutability": "view",
      "type": "function"
    },
    {
      "inputs": [
        {
          "internalType": "uint256",
          "name": "",
          "type": "uint256"
        },
        {
          "internalType": "uint256",
          "name": "",
          "type": "uint256"
        }
      ],
      "name": "royaltiesByTokenId",
      "outputs": [
        {
          "internalType": "address payable",
          "name": "account",
          "type": "address"
        },
        {
          "internalType": "uint96",
          "name": "value",
          "type": "uint96"
        }
      ],
      "stateMutability": "view",
      "type": "function"
    },
    {
      "inputs": [
        {
          "internalType": "address",
          "name": "from",
          "type": "address"
        },
        {
          "internalType": "address",
          "name": "to",
          "type": "address"
        },
        {
          "internalType": "uint256",
          "name": "tokenId",
          "type": "uint256"
        }
      ],
      "name": "safeTransferFrom",
      "outputs": [],
      "stateMutability": "nonpayable",
      "type": "function"
    },
    {
      "inputs": [
        {
          "internalType": "address",
          "name": "from",
          "type": "address"
        },
        {
          "internalType": "address",
          "name": "to",
          "type": "address"
        },
        {
          "internalType": "uint256",
          "name": "tokenId",
          "type": "uint256"
        },
        {
          "internalType": "bytes",
          "name": "data",
          "type": "bytes"
        }
      ],
      "name": "safeTransferFrom",
      "outputs": [],
      "stateMutability": "nonpayable",
      "type": "function"
    },
    {
      "inputs": [
        {
          "internalType": "address",
          "name": "operator",
          "type": "address"
        },
        {
          "internalType": "bool",
          "name": "approved",
          "type": "bool"
        }
      ],
      "name": "setApprovalForAll",
      "outputs": [],
      "stateMutability": "nonpayable",
      "type": "function"
    },
    {
      "inputs": [
        {
          "internalType": "bytes4",
          "name": "interfaceId",
          "type": "bytes4"
        }
      ],
      "name": "supportsInterface",
      "outputs": [
        {
          "internalType": "bool",
          "name": "",
          "type": "bool"
        }
      ],
      "stateMutability": "view",
      "type": "function"
    },
    {
      "inputs": [],
      "name": "symbol",
      "outputs": [
        {
          "internalType": "string",
          "name": "",
          "type": "string"
        }
      ],
      "stateMutability": "view",
      "type": "function"
    },
    {
      "inputs": [
        {
          "internalType": "uint256",
          "name": "tokenId",
          "type": "uint256"
        }
      ],
      "name": "tokenURI",
      "outputs": [
        {
          "internalType": "string",
          "name": "",
          "type": "string"
        }
      ],
      "stateMutability": "view",
      "type": "function"
    },
    {
      "inputs": [
        {
          "internalType": "uint256",
          "name": "_tokenId",
          "type": "uint256"
        },
        {
          "internalType": "address",
          "name": "_to",
          "type": "address"
        },
        {
          "internalType": "address",
          "name": "_erc20Contract",
          "type": "address"
        },
        {
          "internalType": "uint256",
          "name": "_value",
          "type": "uint256"
        }
      ],
      "name": "transferERC20",
      "outputs": [],
      "stateMutability": "nonpayable",
      "type": "function"
    },
    {
      "inputs": [
        {
          "internalType": "address",
          "name": "from",
          "type": "address"
        },
        {
          "internalType": "address",
          "name": "to",
          "type": "address"
        },
        {
          "internalType": "uint256",
          "name": "tokenId",
          "type": "uint256"
        }
      ],
      "name": "transferFrom",
      "outputs": [],
      "stateMutability": "nonpayable",
      "type": "function"
    },
    {
      "inputs": [
        {
          "internalType": "uint256",
          "name": "_tokenId",
          "type": "uint256"
        },
        {
          "internalType": "address",
          "name": "_erc20Address",
          "type": "address"
        }
      ],
      "name": "viewBalance",
      "outputs": [
        {
          "internalType": "uint256",
          "name": "",
          "type": "uint256"
        }
      ],
      "stateMutability": "view",
      "type": "function"
    }
  ],
  "bytecode": {
    "object": "0x60806040523480156200001157600080fd5b506040516200274f3803806200274f83398101604081905262000034916200012b565b8181600062000044838262000224565b50600162000053828262000224565b5050505050620002f0565b634e487b7160e01b600052604160045260246000fd5b600082601f8301126200008657600080fd5b81516001600160401b0380821115620000a357620000a36200005e565b604051601f8301601f19908116603f01168101908282118183101715620000ce57620000ce6200005e565b81604052838152602092508683858801011115620000eb57600080fd5b600091505b838210156200010f5785820183015181830184015290820190620000f0565b83821115620001215760008385830101525b9695505050505050565b600080604083850312156200013f57600080fd5b82516001600160401b03808211156200015757600080fd5b620001658683870162000074565b935060208501519150808211156200017c57600080fd5b506200018b8582860162000074565b9150509250929050565b600181811c90821680620001aa57607f821691505b602082108103620001cb57634e487b7160e01b600052602260045260246000fd5b50919050565b601f8211156200021f57600081815260208120601f850160051c81016020861015620001fa5750805b601f850160051c820191505b818110156200021b5782815560010162000206565b5050505b505050565b81516001600160401b038111156200024057620002406200005e565b620002588162000251845462000195565b84620001d1565b602080601f831160018114620002905760008415620002775750858301515b600019600386901b1c1916600185901b1785556200021b565b600085815260208120601f198616915b82811015620002c157888601518255948401946001909101908401620002a0565b5085821015620002e05787850151600019600388901b60f8161c191681555b5050505050600190811b01905550565b61244f80620003006000396000f3fe608060405234801561001057600080fd5b50600436106101215760003560e01c8063830ef41b116100ad578063c87b56dd11610071578063c87b56dd14610271578063d51f299d14610284578063e985e9c5146102ba578063ee53b6a9146102f6578063fb2ef4a31461030957600080fd5b8063830ef41b1461021057806395d89b4114610223578063a22cb4651461022b578063b88d4fde1461023e578063bb3bafd61461025157600080fd5b806323b872dd116100f457806323b872dd146101a35780632b32c03b146101b657806342842e0e146101c95780636352211e146101dc57806370a08231146101ef57600080fd5b806301ffc9a71461012657806306fdde031461014e578063081812fc14610163578063095ea7b31461018e575b600080fd5b610139610134366004611b14565b610343565b60405190151581526020015b60405180910390f35b610156610395565b6040516101459190611b89565b610176610171366004611b9c565b610427565b6040516001600160a01b039091168152602001610145565b6101a161019c366004611bca565b61044e565b005b6101a16101b1366004611bf6565b610568565b6101a16101c4366004611c37565b610599565b6101a16101d7366004611bf6565b6106c1565b6101766101ea366004611b9c565b6106dc565b6102026101fd366004611c7f565b61073c565b604051908152602001610145565b6101a161021e366004611c9c565b6107c2565b610156610995565b6101a1610239366004611ce2565b6109a4565b6101a161024c366004611de3565b6109b3565b61026461025f366004611b9c565b6109e5565b6040516101459190611e63565b61015661027f366004611b9c565b610a74565b610202610292366004611ec4565b60009182526008602090815260408084206001600160a01b0393909316845291905290205490565b6101396102c8366004611ee9565b6001600160a01b03918216600090815260056020908152604080832093909416825291909152205460ff1690565b610202610304366004611f17565b610b84565b61031c61031736600461204e565b610bbe565b604080516001600160a01b0390931683526001600160601b03909116602083015201610145565b60006001600160e01b031982166380ac58cd60e01b148061037457506001600160e01b03198216635b5e139f60e01b145b8061038f57506301ffc9a760e01b6001600160e01b03198316145b92915050565b6060600080546103a490612070565b80601f01602080910402602001604051908101604052809291908181526020018280546103d090612070565b801561041d5780601f106103f25761010080835404028352916020019161041d565b820191906000526020600020905b81548152906001019060200180831161040057829003601f168201915b5050505050905090565b600061043282610c07565b506000908152600460205260409020546001600160a01b031690565b6000610459826106dc565b9050806001600160a01b0316836001600160a01b0316036104cb5760405162461bcd60e51b815260206004820152602160248201527f4552433732313a20617070726f76616c20746f2063757272656e74206f776e656044820152603960f91b60648201526084015b60405180910390fd5b336001600160a01b03821614806104e757506104e781336102c8565b6105595760405162461bcd60e51b815260206004820152603e60248201527f4552433732313a20617070726f76652063616c6c6572206973206e6f7420746f60448201527f6b656e206f776e6572206e6f7220617070726f76656420666f7220616c6c000060648201526084016104c2565b6105638383610c69565b505050565b6105723382610cd7565b61058e5760405162461bcd60e51b81526004016104c2906120aa565b610563838383610d55565b6001600160a01b03841633146105f15760405162461bcd60e51b815260206004820152601860248201527f6e6f7420616c6c6f77656420746f20616464204552433230000000000000000060448201526064016104c2565b6105fd84848484610f00565b6040516323b872dd60e01b81526001600160a01b038581166004830152306024830152604482018390528316906323b872dd906064016020604051808303816000875af1158015610652573d6000803e3d6000fd5b505050506040513d601f19601f8201168201806040525081019061067691906120f8565b6106bb5760405162461bcd60e51b815260206004820152601660248201527522a9219918103a3930b739b332b9103330b4b632b21760511b60448201526064016104c2565b50505050565b610563838383604051806020016040528060008152506109b3565b6000818152600260205260408120546001600160a01b03168061038f5760405162461bcd60e51b8152602060048201526018602482015277115490cdcc8c4e881a5b9d985b1a59081d1bdad95b88125160421b60448201526064016104c2565b60006001600160a01b0382166107a65760405162461bcd60e51b815260206004820152602960248201527f4552433732313a2061646472657373207a65726f206973206e6f7420612076616044820152683634b21037bbb732b960b91b60648201526084016104c2565b506001600160a01b031660009081526003602052604090205490565b6001600160a01b0383166108185760405162461bcd60e51b815260206004820152601b60248201527f63616e6e6f742073656e6420746f207a65726f2061646472657373000000000060448201526064016104c2565b6000610823856106dc565b90506001600160a01b038116331461087d5760405162461bcd60e51b815260206004820152601760248201527f6f6e6c79206f776e65722063616e207472616e7366657200000000000000000060448201526064016104c2565b610888858484611061565b60405163a9059cbb60e01b81526001600160a01b0385811660048301526024820184905284169063a9059cbb906044016020604051808303816000875af11580156108d7573d6000803e3d6000fd5b505050506040513d601f19601f820116820180604052508101906108fb91906120f8565b6109405760405162461bcd60e51b815260206004820152601660248201527522a9219918103a3930b739b332b9103330b4b632b21760511b60448201526064016104c2565b826001600160a01b0316846001600160a01b0316867fa8352277873fc0d2b233b8127433da351a4164fa701ed6ff79655694222932c48560405161098691815260200190565b60405180910390a45050505050565b6060600180546103a490612070565b6109af338383611279565b5050565b6109bd3383610cd7565b6109d95760405162461bcd60e51b81526004016104c2906120aa565b6106bb84848484611347565b6060600a6000838152602001908152602001600020805480602002602001604051908101604052809291908181526020016000905b82821015610a6957600084815260209081902060408051808201909152908401546001600160a01b0381168252600160a01b90046001600160601b031681830152825260019092019101610a1a565b505050509050919050565b6060610a7f82610c07565b60008281526006602052604081208054610a9890612070565b80601f0160208091040260200160405190810160405280929190818152602001828054610ac490612070565b8015610b115780601f10610ae657610100808354040283529160200191610b11565b820191906000526020600020905b815481529060010190602001808311610af457829003601f168201915b505050505090506000610b2f60408051602081019091526000815290565b90508051600003610b41575092915050565b815115610b73578082604051602001610b5b929190612115565b60405160208183030381529060405292505050919050565b610b7c8461137a565b949350505050565b600080610b9060075490565b9050610b9c81846113ee565b610ba685826116a8565b610bb081856116c2565b610b7c600780546001019055565b600a6020528160005260406000208181548110610bda57600080fd5b6000918252602090912001546001600160a01b0381169250600160a01b90046001600160601b0316905082565b6000818152600260205260409020546001600160a01b0316610c665760405162461bcd60e51b8152602060048201526018602482015277115490cdcc8c4e881a5b9d985b1a59081d1bdad95b88125160421b60448201526064016104c2565b50565b600081815260046020526040902080546001600160a01b0319166001600160a01b0384169081179091558190610c9e826106dc565b6001600160a01b03167f8c5be1e5ebec7d5bd14f71427d1e84f3dd0314c0f7b2291e5b200ac8c7c3b92560405160405180910390a45050565b600080610ce3836106dc565b9050806001600160a01b0316846001600160a01b03161480610d2a57506001600160a01b0380821660009081526005602090815260408083209388168352929052205460ff165b80610b7c5750836001600160a01b0316610d4384610427565b6001600160a01b031614949350505050565b826001600160a01b0316610d68826106dc565b6001600160a01b031614610dcc5760405162461bcd60e51b815260206004820152602560248201527f4552433732313a207472616e736665722066726f6d20696e636f72726563742060448201526437bbb732b960d91b60648201526084016104c2565b6001600160a01b038216610e2e5760405162461bcd60e51b8152602060048201526024808201527f4552433732313a207472616e7366657220746f20746865207a65726f206164646044820152637265737360e01b60648201526084016104c2565b600081815260046020908152604080832080546001600160a01b03191690556001600160a01b038616835260039091528120805460019290610e7190849061215a565b90915550506001600160a01b0382166000908152600360205260408120805460019290610e9f908490612171565b909155505060008181526002602052604080822080546001600160a01b0319166001600160a01b0386811691821790925591518493918716917fddf252ad1be2c89b69c2b068fc378daa952ba7f163c4a11628f55a4df523b3ef91a4505050565b6000610f0b846106dc565b6001600160a01b031603610f615760405162461bcd60e51b815260206004820152601860248201527f5f746f6b656e496420646f6573206e6f742065786973742e000000000000000060448201526064016104c2565b80156106bb5760008381526008602090815260408083206001600160a01b038616845290915281205490819003610fe25760008481526009602081815260408084208054600b84528286206001600160a01b038a16808852908552928620819055938352600184018155845292200180546001600160a01b03191690911790555b60008481526008602090815260408083206001600160a01b038716845290915281208054849290611014908490612171565b92505081905550826001600160a01b031684866001600160a01b03167f684ce28ace37552c6bfb98b7cceda8ed55327078eafb5dfb31218e08563827638560405161098691815260200190565b8060000361106e57505050565b60008381526008602090815260408083206001600160a01b0386168452909152902054818110156110f15760405162461bcd60e51b815260206004820152602760248201527f4e6f7420656e6f75676820746f6b656e20617661696c61626c6520746f20747260448201526630b739b332b91760c91b60648201526084016104c2565b60006110fd838361215a565b60008681526008602090815260408083206001600160a01b03891684529091528120829055909150819003611272576000858152600960205260408120546111479060019061215a565b6000878152600960205260408120805492935090918390811061116c5761116c612189565b6000918252602090912001546001600160a01b0390811691508616811461120f576000878152600b602090815260408083206001600160a01b038a1684528252808320548a845260099092529091208054839190839081106111d0576111d0612189565b600091825260208083209190910180546001600160a01b0319166001600160a01b039485161790558a8252600b81526040808320938616835292905220555b6000878152600b602090815260408083206001600160a01b038a16845282528083208390558983526009909152902080548061124d5761124d61219f565b600082815260209020810160001990810180546001600160a01b031916905501905550505b5050505050565b816001600160a01b0316836001600160a01b0316036112da5760405162461bcd60e51b815260206004820152601960248201527f4552433732313a20617070726f766520746f2063616c6c65720000000000000060448201526064016104c2565b6001600160a01b03838116600081815260056020908152604080832094871680845294825291829020805460ff191686151590811790915591519182527f17307eab39ab6107e8899845ad3d59bd9653f200f220920489ca2b5937696c31910160405180910390a3505050565b611352848484610d55565b61135e84848484611755565b6106bb5760405162461bcd60e51b81526004016104c2906121b5565b606061138582610c07565b600061139c60408051602081019091526000815290565b905060008151116113bc57604051806020016040528060008152506113e7565b806113c684611856565b6040516020016113d7929190612115565b6040516020818303038152906040525b9392505050565b600a815111156114405760405162461bcd60e51b815260206004820181905260248201527f41746d6f737420313020726f79616c746965732063616e20626520616464656460448201526064016104c2565b6000828152600a6020526040812061145791611acc565b6000805b82518110156116115760006001600160a01b031683828151811061148157611481612189565b6020026020010151600001516001600160a01b0316036114ef5760405162461bcd60e51b815260206004820152602360248201527f526f79616c747920726563697069656e742073686f756c642062652070726573604482015262195b9d60ea1b60648201526084016104c2565b82818151811061150157611501612189565b6020026020010151602001516001600160601b03166000036115655760405162461bcd60e51b815260206004820152601b60248201527f526f79616c74792076616c75652073686f756c64206265203e2030000000000060448201526064016104c2565b6000848152600a60205260409020835184908390811061158757611587612189565b6020908102919091018101518254600181018455600093845292829020815191909201516001600160601b0316600160a01b026001600160a01b039091161791015582518390829081106115dd576115dd612189565b6020026020010151602001516001600160601b0316826115fd9190612171565b91508061160981612207565b91505061145b565b5061271081106116635760405162461bcd60e51b815260206004820152601760248201527f53756d206f6620526f79616c74696573203e203130302500000000000000000060448201526064016104c2565b816040516116719190612220565b6040519081900381209084907fe23425cf56a81561c420f592eb54f21107c562f26c8c78c4a20d26920d244e6690600090a3505050565b6109af828260405180602001604052806000815250611957565b6000828152600260205260409020546001600160a01b031661173d5760405162461bcd60e51b815260206004820152602e60248201527f45524337323155524953746f726167653a2055524920736574206f66206e6f6e60448201526d32bc34b9ba32b73a103a37b5b2b760911b60648201526084016104c2565b600082815260066020526040902061056382826122c1565b60006001600160a01b0384163b1561184b57604051630a85bd0160e11b81526001600160a01b0385169063150b7a0290611799903390899088908890600401612381565b6020604051808303816000875af19250505080156117d4575060408051601f3d908101601f191682019092526117d1918101906123be565b60015b611831573d808015611802576040519150601f19603f3d011682016040523d82523d6000602084013e611807565b606091505b5080516000036118295760405162461bcd60e51b81526004016104c2906121b5565b805181602001fd5b6001600160e01b031916630a85bd0160e11b149050610b7c565b506001949350505050565b60608160000361187d5750506040805180820190915260018152600360fc1b602082015290565b8160005b81156118a7578061189181612207565b91506118a09050600a836123f1565b9150611881565b60008167ffffffffffffffff8111156118c2576118c2611d1b565b6040519080825280601f01601f1916602001820160405280156118ec576020820181803683370190505b5090505b8415610b7c5761190160018361215a565b915061190e600a86612405565b611919906030612171565b60f81b81838151811061192e5761192e612189565b60200101906001600160f81b031916908160001a905350611950600a866123f1565b94506118f0565b611961838361198a565b61196e6000848484611755565b6105635760405162461bcd60e51b81526004016104c2906121b5565b6001600160a01b0382166119e05760405162461bcd60e51b815260206004820181905260248201527f4552433732313a206d696e7420746f20746865207a65726f206164647265737360448201526064016104c2565b6000818152600260205260409020546001600160a01b031615611a455760405162461bcd60e51b815260206004820152601c60248201527f4552433732313a20746f6b656e20616c7265616479206d696e7465640000000060448201526064016104c2565b6001600160a01b0382166000908152600360205260408120805460019290611a6e908490612171565b909155505060008181526002602052604080822080546001600160a01b0319166001600160a01b03861690811790915590518392907fddf252ad1be2c89b69c2b068fc378daa952ba7f163c4a11628f55a4df523b3ef908290a45050565b5080546000825590600052602060002090810190610c6691905b80821115611afa5760008155600101611ae6565b5090565b6001600160e01b031981168114610c6657600080fd5b600060208284031215611b2657600080fd5b81356113e781611afe565b60005b83811015611b4c578181015183820152602001611b34565b838111156106bb5750506000910152565b60008151808452611b75816020860160208601611b31565b601f01601f19169290920160200192915050565b6020815260006113e76020830184611b5d565b600060208284031215611bae57600080fd5b5035919050565b6001600160a01b0381168114610c6657600080fd5b60008060408385031215611bdd57600080fd5b8235611be881611bb5565b946020939093013593505050565b600080600060608486031215611c0b57600080fd5b8335611c1681611bb5565b92506020840135611c2681611bb5565b929592945050506040919091013590565b60008060008060808587031215611c4d57600080fd5b8435611c5881611bb5565b9350602085013592506040850135611c6f81611bb5565b9396929550929360600135925050565b600060208284031215611c9157600080fd5b81356113e781611bb5565b60008060008060808587031215611cb257600080fd5b843593506020850135611cc481611bb5565b92506040850135611c6f81611bb5565b8015158114610c6657600080fd5b60008060408385031215611cf557600080fd5b8235611d0081611bb5565b91506020830135611d1081611cd4565b809150509250929050565b634e487b7160e01b600052604160045260246000fd5b6040805190810167ffffffffffffffff81118282101715611d5457611d54611d1b565b60405290565b604051601f8201601f1916810167ffffffffffffffff81118282101715611d8357611d83611d1b565b604052919050565b600067ffffffffffffffff831115611da557611da5611d1b565b611db8601f8401601f1916602001611d5a565b9050828152838383011115611dcc57600080fd5b828260208301376000602084830101529392505050565b60008060008060808587031215611df957600080fd5b8435611e0481611bb5565b93506020850135611e1481611bb5565b925060408501359150606085013567ffffffffffffffff811115611e3757600080fd5b8501601f81018713611e4857600080fd5b611e5787823560208401611d8b565b91505092959194509250565b602080825282518282018190526000919060409081850190868401855b82811015611eb757815180516001600160a01b031685528601516001600160601b0316868501529284019290850190600101611e80565b5091979650505050505050565b60008060408385031215611ed757600080fd5b823591506020830135611d1081611bb5565b60008060408385031215611efc57600080fd5b8235611f0781611bb5565b91506020830135611d1081611bb5565b600080600060608486031215611f2c57600080fd5b8335611f3781611bb5565b925060208481013567ffffffffffffffff80821115611f5557600080fd5b818701915087601f830112611f6957600080fd5b611f77888335858501611d8b565b9450604091508187013581811115611f8e57600080fd5b8701601f81018913611f9f57600080fd5b803582811115611fb157611fb1611d1b565b611fbf858260051b01611d5a565b818152858101935060069190911b82018501908a821115611fdf57600080fd5b918501915b8183101561203e5784838c031215611ffc5760008081fd5b612004611d31565b833561200f81611bb5565b8152838701356001600160601b038116811461202b5760008081fd5b8188015284529285019291840191611fe4565b8096505050505050509250925092565b6000806040838503121561206157600080fd5b50508035926020909101359150565b600181811c9082168061208457607f821691505b6020821081036120a457634e487b7160e01b600052602260045260246000fd5b50919050565b6020808252602e908201527f4552433732313a2063616c6c6572206973206e6f7420746f6b656e206f776e6560408201526d1c881b9bdc88185c1c1c9bdd995960921b606082015260800190565b60006020828403121561210a57600080fd5b81516113e781611cd4565b60008351612127818460208801611b31565b83519083019061213b818360208801611b31565b01949350505050565b634e487b7160e01b600052601160045260246000fd5b60008282101561216c5761216c612144565b500390565b6000821982111561218457612184612144565b500190565b634e487b7160e01b600052603260045260246000fd5b634e487b7160e01b600052603160045260246000fd5b60208082526032908201527f4552433732313a207472616e7366657220746f206e6f6e20455243373231526560408201527131b2b4bb32b91034b6b83632b6b2b73a32b960711b606082015260800190565b60006001820161221957612219612144565b5060010190565b815160009082906020808601845b8381101561226757815180516001600160a01b031686528301516001600160601b0316838601526040909401939082019060010161222e565b50929695505050505050565b601f82111561056357600081815260208120601f850160051c8101602086101561229a5750805b601f850160051c820191505b818110156122b9578281556001016122a6565b505050505050565b815167ffffffffffffffff8111156122db576122db611d1b565b6122ef816122e98454612070565b84612273565b602080601f831160018114612324576000841561230c5750858301515b600019600386901b1c1916600185901b1785556122b9565b600085815260208120601f198616915b8281101561235357888601518255948401946001909101908401612334565b50858210156123715787850151600019600388901b60f8161c191681555b5050505050600190811b01905550565b6001600160a01b03858116825284166020820152604081018390526080606082018190526000906123b490830184611b5d565b9695505050505050565b6000602082840312156123d057600080fd5b81516113e781611afe565b634e487b7160e01b600052601260045260246000fd5b600082612400576124006123db565b500490565b600082612414576124146123db565b50069056fea2646970667358221220ad030b90713833bba1167b3600bb67ef35c9de5ad75514ac8b8d5b292a5cc8e364736f6c634300080f0033",
    "linkReferences": {}
  },
  "methodIdentifiers": {
    "addERC20(address,uint256,address,uint256)": "2b32c03b",
    "approve(address,uint256)": "095ea7b3",
    "balanceOf(address)": "70a08231",
    "getApproved(uint256)": "081812fc",
    "getRoyalties(uint256)": "bb3bafd6",
    "isApprovedForAll(address,address)": "e985e9c5",
    "mintNFT(address,string,(address,uint96)[])": "ee53b6a9",
    "name()": "06fdde03",
    "ownerOf(uint256)": "6352211e",
    "royaltiesByTokenId(uint256,uint256)": "fb2ef4a3",
    "safeTransferFrom(address,address,uint256)": "42842e0e",
    "safeTransferFrom(address,address,uint256,bytes)": "b88d4fde",
    "setApprovalForAll(address,bool)": "a22cb465",
    "supportsInterface(bytes4)": "01ffc9a7",
    "symbol()": "95d89b41",
    "tokenURI(uint256)": "c87b56dd",
    "transferERC20(uint256,address,address,uint256)": "830ef41b",
    "transferFrom(address,address,uint256)": "23b872dd",
    "viewBalance(uint256,address)": "d51f299d"
  },
  "id": 2
}