{
  "abi": [
    {
      "inputs": [
        {
          "internalType": "address",
          "name": "_feeAddress",
          "type": "address"
        }
      ],
      "stateMutability": "nonpayable",
      "type": "constructor"
    },
    {
      "anonymous": false,
      "inputs": [
        {
          "indexed": false,
          "internalType": "uint256",
          "name": "price",
          "type": "uint256"
        }
      ],
      "name": "BidExecuted",
      "type": "event"
    },
    {
      "anonymous": false,
      "inputs": [
        {
          "components": [
            {
              "internalType": "uint256",
              "name": "bidId",
              "type": "uint256"
            },
            {
              "internalType": "uint256",
              "name": "saleId",
              "type": "uint256"
            },
            {
              "internalType": "address",
              "name": "sellerAddress",
              "type": "address"
            },
            {
              "internalType": "address",
              "name": "buyerAddress",
              "type": "address"
            },
            {
              "internalType": "uint256",
              "name": "price",
              "type": "uint256"
            },
            {
              "internalType": "bool",
              "name": "withdrawn",
              "type": "bool"
            }
          ],
          "indexed": false,
          "internalType": "struct piMarket.BidOrder",
          "name": "bid",
          "type": "tuple"
        }
      ],
      "name": "BidOrderReturn",
      "type": "event"
    },
    {
      "anonymous": false,
      "inputs": [
        {
          "components": [
            {
              "internalType": "uint256",
              "name": "saleId",
              "type": "uint256"
            },
            {
              "internalType": "address",
              "name": "tokenContractAddress",
              "type": "address"
            },
            {
              "internalType": "uint256",
              "name": "tokenId",
              "type": "uint256"
            },
            {
              "internalType": "uint256",
              "name": "price",
              "type": "uint256"
            },
            {
              "internalType": "bool",
              "name": "directSale",
              "type": "bool"
            },
            {
              "internalType": "bool",
              "name": "bidSale",
              "type": "bool"
            },
            {
              "internalType": "bool",
              "name": "status",
              "type": "bool"
            },
            {
              "internalType": "uint256",
              "name": "bidStartTime",
              "type": "uint256"
            },
            {
              "internalType": "uint256",
              "name": "bidEndTime",
              "type": "uint256"
            },
            {
              "internalType": "address",
              "name": "currentOwner",
              "type": "address"
            }
          ],
          "indexed": false,
          "internalType": "struct piMarket.TokenMeta",
          "name": "data",
          "type": "tuple"
        },
        {
          "indexed": false,
          "internalType": "uint256",
          "name": "id",
          "type": "uint256"
        }
      ],
      "name": "TokenMetaReturn",
      "type": "event"
    },
    {
      "inputs": [
        {
          "internalType": "uint256",
          "name": "_saleId",
          "type": "uint256"
        }
      ],
      "name": "Bid",
      "outputs": [],
      "stateMutability": "payable",
      "type": "function"
    },
    {
      "inputs": [
        {
          "internalType": "uint256",
          "name": "",
          "type": "uint256"
        },
        {
          "internalType": "uint256",
          "name": "",
          "type": "uint256"
        }
      ],
      "name": "Bids",
      "outputs": [
        {
          "internalType": "uint256",
          "name": "bidId",
          "type": "uint256"
        },
        {
          "internalType": "uint256",
          "name": "saleId",
          "type": "uint256"
        },
        {
          "internalType": "address",
          "name": "sellerAddress",
          "type": "address"
        },
        {
          "internalType": "address",
          "name": "buyerAddress",
          "type": "address"
        },
        {
          "internalType": "uint256",
          "name": "price",
          "type": "uint256"
        },
        {
          "internalType": "bool",
          "name": "withdrawn",
          "type": "bool"
        }
      ],
      "stateMutability": "view",
      "type": "function"
    },
    {
      "inputs": [
        {
          "internalType": "uint256",
          "name": "_saleId",
          "type": "uint256"
        }
      ],
      "name": "BuyNFT",
      "outputs": [],
      "stateMutability": "payable",
      "type": "function"
    },
    {
      "inputs": [
        {
          "internalType": "address",
          "name": "_piNFTAddress",
          "type": "address"
        },
        {
          "internalType": "uint256",
          "name": "_tokenId",
          "type": "uint256"
        },
        {
          "internalType": "uint256",
          "name": "_price",
          "type": "uint256"
        },
        {
          "internalType": "uint256",
          "name": "_bidTime",
          "type": "uint256"
        }
      ],
      "name": "SellNFT_byBid",
      "outputs": [],
      "stateMutability": "nonpayable",
      "type": "function"
    },
    {
      "inputs": [
        {
          "internalType": "uint256",
          "name": "",
          "type": "uint256"
        }
      ],
      "name": "_tokenMeta",
      "outputs": [
        {
          "internalType": "uint256",
          "name": "saleId",
          "type": "uint256"
        },
        {
          "internalType": "address",
          "name": "tokenContractAddress",
          "type": "address"
        },
        {
          "internalType": "uint256",
          "name": "tokenId",
          "type": "uint256"
        },
        {
          "internalType": "uint256",
          "name": "price",
          "type": "uint256"
        },
        {
          "internalType": "bool",
          "name": "directSale",
          "type": "bool"
        },
        {
          "internalType": "bool",
          "name": "bidSale",
          "type": "bool"
        },
        {
          "internalType": "bool",
          "name": "status",
          "type": "bool"
        },
        {
          "internalType": "uint256",
          "name": "bidStartTime",
          "type": "uint256"
        },
        {
          "internalType": "uint256",
          "name": "bidEndTime",
          "type": "uint256"
        },
        {
          "internalType": "address",
          "name": "currentOwner",
          "type": "address"
        }
      ],
      "stateMutability": "view",
      "type": "function"
    },
    {
      "inputs": [
        {
          "internalType": "uint256",
          "name": "_saleId",
          "type": "uint256"
        }
      ],
      "name": "cancelSale",
      "outputs": [],
      "stateMutability": "nonpayable",
      "type": "function"
    },
    {
      "inputs": [
        {
          "internalType": "uint256",
          "name": "_saleId",
          "type": "uint256"
        },
        {
          "internalType": "uint256",
          "name": "_bidOrderID",
          "type": "uint256"
        }
      ],
      "name": "executeBidOrder",
      "outputs": [],
      "stateMutability": "nonpayable",
      "type": "function"
    },
    {
      "inputs": [
        {
          "internalType": "address",
          "name": "",
          "type": "address"
        },
        {
          "internalType": "address",
          "name": "",
          "type": "address"
        },
        {
          "internalType": "uint256",
          "name": "",
          "type": "uint256"
        },
        {
          "internalType": "bytes",
          "name": "",
          "type": "bytes"
        }
      ],
      "name": "onERC721Received",
      "outputs": [
        {
          "internalType": "bytes4",
          "name": "",
          "type": "bytes4"
        }
      ],
      "stateMutability": "nonpayable",
      "type": "function"
    },
    {
      "inputs": [
        {
          "internalType": "address",
          "name": "_contractAddress",
          "type": "address"
        },
        {
          "internalType": "uint256",
          "name": "_tokenId",
          "type": "uint256"
        }
      ],
      "name": "retrieveRoyalty",
      "outputs": [
        {
          "components": [
            {
              "internalType": "address payable",
              "name": "account",
              "type": "address"
            },
            {
              "internalType": "uint96",
              "name": "value",
              "type": "uint96"
            }
          ],
          "internalType": "struct LibShare.Share[]",
          "name": "",
          "type": "tuple[]"
        }
      ],
      "stateMutability": "view",
      "type": "function"
    },
    {
      "inputs": [
        {
          "internalType": "address",
          "name": "_piNFTAddress",
          "type": "address"
        },
        {
          "internalType": "uint256",
          "name": "_tokenId",
          "type": "uint256"
        },
        {
          "internalType": "uint256",
          "name": "_price",
          "type": "uint256"
        }
      ],
      "name": "sellNFT",
      "outputs": [],
      "stateMutability": "nonpayable",
      "type": "function"
    },
    {
      "inputs": [
        {
          "internalType": "uint256",
          "name": "_saleId",
          "type": "uint256"
        },
        {
          "internalType": "uint256",
          "name": "_bidId",
          "type": "uint256"
        }
      ],
      "name": "withdrawBidMoney",
      "outputs": [],
      "stateMutability": "nonpayable",
      "type": "function"
    }
  ],
  "bytecode": {
    "object": "0x608060405234801561001057600080fd5b5060405162001ff938038062001ff9833981016040819052610031916100b5565b60016000556001600160a01b0381166100905760405162461bcd60e51b815260206004820152601a60248201527f46656520616464726573732063616e6e6f74206265207a65726f000000000000604482015260640160405180910390fd5b600280546001600160a01b0319166001600160a01b03929092169190911790556100e5565b6000602082840312156100c757600080fd5b81516001600160a01b03811681146100de57600080fd5b9392505050565b611f0480620000f56000396000f3fe60806040526004361061009c5760003560e01c806396faba9d1161006457806396faba9d14610217578063a37365e014610244578063a7f323da14610257578063bd94b005146102b3578063f436682a146102d3578063f779a193146102f357600080fd5b8063150b7a02146100a15780632bd87c4f146100ea57806376cb66471461010c5780637a183e841461012c5780638e57ff161461013f575b600080fd5b3480156100ad57600080fd5b506100cc6100bc366004611a0f565b630a85bd0160e11b949350505050565b6040516001600160e01b031990911681526020015b60405180910390f35b3480156100f657600080fd5b5061010a610105366004611ad3565b610313565b005b34801561011857600080fd5b5061010a610127366004611ad3565b6104f3565b61010a61013a366004611af5565b6109b8565b34801561014b57600080fd5b506101c061015a366004611af5565b60036020819052600091825260409091208054600182015460028301549383015460048401546005850154600686015460079096015494966001600160a01b03948516969095939460ff808516956101008604821695620100009004909116939291168a565b604080519a8b526001600160a01b03998a1660208c01528a01979097526060890195909552921515608088015290151560a0870152151560c086015260e085015261010084015216610120820152610140016100e1565b34801561022357600080fd5b50610237610232366004611b0e565b610c4f565b6040516100e19190611b3a565b61010a610252366004611af5565b610cc6565b34801561026357600080fd5b50610277610272366004611ad3565b6111bc565b6040805196875260208701959095526001600160a01b0393841694860194909452911660608401526080830152151560a082015260c0016100e1565b3480156102bf57600080fd5b5061010a6102ce366004611af5565b61121f565b3480156102df57600080fd5b5061010a6102ee366004611b9b565b6113a1565b3480156102ff57600080fd5b5061010a61030e366004611bd6565b61169e565b60026000540361033e5760405162461bcd60e51b815260040161033590611c0b565b60405180910390fd5b60026000908155828152600360205260409020600701546001600160a01b0316330361036957600080fd5b600082815260046020526040812080548390811061038957610389611c42565b60009182526020918290206040805160c08101825260069093029091018054835260018101549383019390935260028301546001600160a01b0390811691830191909152600383015416606082018190526004830154608083015260059092015460ff16151560a08201529150331461040157600080fd5b8060a001511561041057600080fd5b608081015160405160009133918381818185875af1925050503d8060008114610455576040519150601f19603f3d011682016040523d82523d6000602084013e61045a565b606091505b5050905080156104af5760008481526004602052604090208054600191908590811061048857610488611c42565b60009182526020909120600690910201600501805460ff19169115159190911790556104e8565b60405162461bcd60e51b815260206004820152600e60248201526d4e6f204d6f6e6579206c6566742160901b6044820152606401610335565b505060016000555050565b6002600054036105155760405162461bcd60e51b815260040161033590611c0b565b6002600090815582815260046020526040812080548390811061053a5761053a611c42565b600091825260208083206040805160c08101825260069094029091018054845260018101548484015260028101546001600160a01b0390811685840152600380830154821660608701526004830154608087015260059092015460ff16151560a0860152888652925290922060070154909250339116146105ba57600080fd5b8060a00151156105c957600080fd5b60008381526003602052604090206004015462010000900460ff166105ed57600080fd5b60008381526003602052604081206001810154600290910154610619916001600160a01b031690610c4f565b60008581526003602090815260408083206004908101805462ff000019169055909152902080549192506001918590811061065657610656611c42565b60009182526020808320600692909202909101600501805460ff1916931515939093179092558581526003909152604090819020600181015460608501516002909201549251632142170760e11b81526001600160a01b03909116926342842e0e926106c792309290600401611c58565b600060405180830381600087803b1580156106e157600080fd5b505af11580156106f5573d6000803e3d6000fd5b505050506080820151600061070b606483611c92565b905060005b8351811015610841576000612710866080015186848151811061073557610735611c42565b6020026020010151602001516001600160601b03166107549190611cb4565b61075e9190611c92565b9050600085838151811061077457610774611c42565b6020026020010151600001516001600160a01b03168260405160006040518083038185875af1925050503d80600081146107ca576040519150601f19603f3d011682016040523d82523d6000602084013e6107cf565b606091505b50509050806108205760405162461bcd60e51b815260206004820152601760248201527f526f79616c7479207472616e73666572206661696c65640000000000000000006044820152606401610335565b61082a8286611cd3565b94505050808061083990611cea565b915050610710565b5060003361084f8385611cd3565b604051600081818185875af1925050503d806000811461088b576040519150601f19603f3d011682016040523d82523d6000602084013e610890565b606091505b50509050806108d35760405162461bcd60e51b815260206004820152600f60248201526e151c985b9cd9995c8819985a5b1959608a1b6044820152606401610335565b6002546040516000916001600160a01b03169084908381818185875af1925050503d8060008114610920576040519150601f19603f3d011682016040523d82523d6000602084013e610925565b606091505b505090508061096c5760405162461bcd60e51b815260206004820152601360248201527211995948151c985b9cd9995c8819985a5b1959606a1b6044820152606401610335565b7fc1a33fc6bb7dd982480f7d209db0c9ee0afb428b5f804be0268c066863032e4c86608001516040516109a191815260200190565b60405180910390a150506001600055505050505050565b600081815260036020526040902060070154336001600160a01b03909116036109e057600080fd5b60008181526003602052604090206004015462010000900460ff16610a0457600080fd5b600081815260036020526040902060040154610100900460ff16610a2757600080fd5b600081815260036020526040902060060154421115610a4557600080fd5b600081815260036020819052604090912001543490606490610a68906005611cb4565b610a729190611c92565b60008381526003602081905260409091200154610a8f9190611d03565b1115610aef5760405162461bcd60e51b815260206004820152602960248201527f4269642073686f756c64206265206d6f7265207468616e203525206f662063756044820152681c9c995b9d08189a5960ba1b6064820152608401610335565b6040805160c0810182526000838152600460208181528483208054808652828601888152888652600380855288872060078101546001600160a01b039081168a8c019081523360608c019081523460808d0181815260a08e018d81528c8c526001808b018c559a8e528b8e208f516006909b0201998a5597519989019990995591516002880180549185166001600160a01b0319928316179055905187860180549190941691161790915594519684019690965590516005909201805492151560ff1990931692909217909155938790529083905291015590517f6dfa77b86c3d87864e5b10df6b47557084e5534674ca734ebe53741276ce52d190610c4390839081518152602080830151908201526040808301516001600160a01b0390811691830191909152606080840151909116908201526080808301519082015260a09182015115159181019190915260c00190565b60405180910390a15050565b604051635d9dd7eb60e11b8152600481018290526060906001600160a01b0384169063bb3bafd690602401600060405180830381865afa158015610c97573d6000803e3d6000fd5b505050506040513d6000823e601f3d908101601f19168201604052610cbf9190810190611d1b565b9392505050565b600260005403610ce85760405162461bcd60e51b815260040161033590611c0b565b600260008181558281526003602081815260408084208151610140810183528154815260018201546001600160a01b0390811694820185905296820154928101839052938101546060850152600481015460ff808216151560808701526101008083048216151560a08801526201000090920416151560c0860152600582015460e0860152600682015490850152600701549094166101208301529092610d8f9190610c4f565b90508160c00151610dda5760405162461bcd60e51b8152602060048201526015602482015274746f6b656e206d757374206265206f6e2073616c6560581b6044820152606401610335565b3315801590610e0057508161012001516001600160a01b0316336001600160a01b031614155b610e3e5760405162461bcd60e51b815260206004820152600f60248201526e696e76616c6964206164647265737360881b6044820152606401610335565b8160a0015115610e4d57600080fd5b8160600151341015610e995760405162461bcd60e51b815260206004820152601560248201527476616c7565206c657373207468616e20707269636560581b6044820152606401610335565b60008381526003602052604090206007810180546001600160a01b03191633179055600401805462ffffff1916905534806000610ed7606483611c92565b905060005b845181101561100957600061271084878481518110610efd57610efd611c42565b6020026020010151602001516001600160601b0316610f1c9190611cb4565b610f269190611c92565b90506000868381518110610f3c57610f3c611c42565b6020026020010151600001516001600160a01b03168260405160006040518083038185875af1925050503d8060008114610f92576040519150601f19603f3d011682016040523d82523d6000602084013e610f97565b606091505b5050905080610fe85760405162461bcd60e51b815260206004820152601760248201527f526f79616c7479205472616e73666572206661696c65640000000000000000006044820152606401610335565b610ff28287611cd3565b95505050808061100190611cea565b915050610edc565b506101208501516000906001600160a01b03166110268386611cd3565b604051600081818185875af1925050503d8060008114611062576040519150601f19603f3d011682016040523d82523d6000602084013e611067565b606091505b50509050806110aa5760405162461bcd60e51b815260206004820152600f60248201526e151c985b9cd9995c8819985a5b1959608a1b6044820152606401610335565b6002546040516000916001600160a01b03169084908381818185875af1925050503d80600081146110f7576040519150601f19603f3d011682016040523d82523d6000602084013e6110fc565b606091505b50509050806111435760405162461bcd60e51b815260206004820152601360248201527211995948151c985b9cd9995c8819985a5b1959606a1b6044820152606401610335565b86602001516001600160a01b03166342842e0e30338a604001516040518463ffffffff1660e01b815260040161117b93929190611c58565b600060405180830381600087803b15801561119557600080fd5b505af11580156111a9573d6000803e3d6000fd5b5050600160005550505050505050505050565b600460205281600052604060002081815481106111d857600080fd5b60009182526020909120600690910201805460018201546002830154600384015460048501546005909501549396509194506001600160a01b039081169391169160ff1686565b6002600054036112415760405162461bcd60e51b815260040161033590611c0b565b60026000908155818152600360205260409020600701546001600160a01b031633146112af5760405162461bcd60e51b815260206004820152601a60248201527f4f6e6c79206f776e65722063616e2063616e63656c2073616c650000000000006044820152606401610335565b60008181526003602052604090206004015462010000900460ff1661130a5760405162461bcd60e51b8152602060048201526011602482015270546f6b656e206e6f74206f6e2073616c6560781b6044820152606401610335565b600081815260036020526040908190206004808201805462ff000019169055600182015460078301546002909301549351632142170760e11b81526001600160a01b03918216946342842e0e946113679430949091169201611c58565b600060405180830381600087803b15801561138157600080fd5b505af1158015611395573d6000803e3d6000fd5b50506001600055505050565b6040516331a9108f60e11b815260048101849052849084906001600160a01b03831690636352211e90602401602060405180830381865afa1580156113ea573d6000803e3d6000fd5b505050506040513d601f19601f8201168201806040525081019061140e9190611e08565b6001600160a01b0316336001600160a01b03161461146e5760405162461bcd60e51b815260206004820181905260248201527f4f6e6c7920746f6b656e206f776e65722063616e20707574206f6e2073616c656044820152606401610335565b6002600054036114905760405162461bcd60e51b815260040161033590611c0b565b60026000556001600160a01b0386166114a857600080fd5b6114b6600180546001019055565b604051632142170760e11b81526001600160a01b038716906342842e0e906114e690339030908a90600401611c58565b600060405180830381600087803b15801561150057600080fd5b505af1158015611514573d6000803e3d6000fd5b50505050600060405180610140016040528061152f60015490565b8152602001886001600160a01b03168152602001878152602001868152602001600015158152602001600115158152602001600115158152602001428152602001854261157c9190611d03565b8152336020909101529050806003600061159560015490565b815260208082019290925260409081016000208351815591830151600180840180546001600160a01b03199081166001600160a01b039485161790915592850151600285015560608501516003850155608085015160048501805460a088015160c089015161ffff1990921693151561ff0019169390931761010093151584021762ff00001916620100009115159190910217905560e08601516005860155850151600685015561012090940151600790930180549092169216919091179055547f2c28b1a4996f07ef4457782603fcee3454f1790eedb957cf72f54c35e12cb0b2908290604051611688929190611e25565b60405180910390a1505060016000555050505050565b6040516331a9108f60e11b815260048101839052839083906001600160a01b03831690636352211e90602401602060405180830381865afa1580156116e7573d6000803e3d6000fd5b505050506040513d601f19601f8201168201806040525081019061170b9190611e08565b6001600160a01b0316336001600160a01b03161461176b5760405162461bcd60e51b815260206004820181905260248201527f4f6e6c7920746f6b656e206f776e65722063616e20707574206f6e2073616c656044820152606401610335565b60026000540361178d5760405162461bcd60e51b815260040161033590611c0b565b60026000556117a0600180546001019055565b604051632142170760e11b81526001600160a01b038616906342842e0e906117d090339030908990600401611c58565b600060405180830381600087803b1580156117ea57600080fd5b505af11580156117fe573d6000803e3d6000fd5b50505050600060405180610140016040528061181960015490565b8152602001876001600160a01b031681526020018681526020018581526020016001151581526020016000151581526020016001151581526020016000815260200160008152602001336001600160a01b03168152509050806003600061187f60015490565b815260208082019290925260409081016000208351815591830151600180840180546001600160a01b03199081166001600160a01b039485161790915592850151600285015560608501516003850155608085015160048501805460a088015160c089015161ffff1990921693151561ff0019169390931761010093151584021762ff00001916620100009115159190910217905560e08601516005860155850151600685015561012090940151600790930180549092169216919091179055547f2c28b1a4996f07ef4457782603fcee3454f1790eedb957cf72f54c35e12cb0b2908290604051611972929190611e25565b60405180910390a15050600160005550505050565b6001600160a01b038116811461199c57600080fd5b50565b634e487b7160e01b600052604160045260246000fd5b6040805190810167ffffffffffffffff811182821017156119d8576119d861199f565b60405290565b604051601f8201601f1916810167ffffffffffffffff81118282101715611a0757611a0761199f565b604052919050565b60008060008060808587031215611a2557600080fd5b8435611a3081611987565b9350602085810135611a4181611987565b935060408601359250606086013567ffffffffffffffff80821115611a6557600080fd5b818801915088601f830112611a7957600080fd5b813581811115611a8b57611a8b61199f565b611a9d601f8201601f191685016119de565b91508082528984828501011115611ab357600080fd5b808484018584013760008482840101525080935050505092959194509250565b60008060408385031215611ae657600080fd5b50508035926020909101359150565b600060208284031215611b0757600080fd5b5035919050565b60008060408385031215611b2157600080fd5b8235611b2c81611987565b946020939093013593505050565b602080825282518282018190526000919060409081850190868401855b82811015611b8e57815180516001600160a01b031685528601516001600160601b0316868501529284019290850190600101611b57565b5091979650505050505050565b60008060008060808587031215611bb157600080fd5b8435611bbc81611987565b966020860135965060408601359560600135945092505050565b600080600060608486031215611beb57600080fd5b8335611bf681611987565b95602085013595506040909401359392505050565b6020808252601f908201527f5265656e7472616e637947756172643a207265656e7472616e742063616c6c00604082015260600190565b634e487b7160e01b600052603260045260246000fd5b6001600160a01b039384168152919092166020820152604081019190915260600190565b634e487b7160e01b600052601160045260246000fd5b600082611caf57634e487b7160e01b600052601260045260246000fd5b500490565b6000816000190483118215151615611cce57611cce611c7c565b500290565b600082821015611ce557611ce5611c7c565b500390565b600060018201611cfc57611cfc611c7c565b5060010190565b60008219821115611d1657611d16611c7c565b500190565b60006020808385031215611d2e57600080fd5b825167ffffffffffffffff80821115611d4657600080fd5b818501915085601f830112611d5a57600080fd5b815181811115611d6c57611d6c61199f565b611d7a848260051b016119de565b818152848101925060069190911b830184019087821115611d9a57600080fd5b928401925b81841015611dfd5760408489031215611db85760008081fd5b611dc06119b5565b8451611dcb81611987565b8152848601516001600160601b0381168114611de75760008081fd5b8187015283526040939093019291840191611d9f565b979650505050505050565b600060208284031215611e1a57600080fd5b8151610cbf81611987565b82518152602080840151610160830191611e49908401826001600160a01b03169052565b5060408401516040830152606084015160608301526080840151611e71608084018215159052565b5060a0840151611e8560a084018215159052565b5060c0840151611e9960c084018215159052565b5060e084810151908301526101008085015190830152610120938401516001600160a01b03169382019390935261014001529056fea264697066735822122090a2c7e980632b3954ad9dc2b67fe91a5966dc6d4f820060fdc0017b1a6268cc64736f6c634300080f0033",
    "linkReferences": {}
  },
  "methodIdentifiers": {
    "Bid(uint256)": "7a183e84",
    "Bids(uint256,uint256)": "a7f323da",
    "BuyNFT(uint256)": "a37365e0",
    "SellNFT_byBid(address,uint256,uint256,uint256)": "f436682a",
    "_tokenMeta(uint256)": "8e57ff16",
    "cancelSale(uint256)": "bd94b005",
    "executeBidOrder(uint256,uint256)": "76cb6647",
    "onERC721Received(address,address,uint256,bytes)": "150b7a02",
    "retrieveRoyalty(address,uint256)": "96faba9d",
    "sellNFT(address,uint256,uint256)": "f779a193",
    "withdrawBidMoney(uint256,uint256)": "2bd87c4f"
  },
  "id": 1
}