{
  "contractName": "AconomyERC2771Context",
  "abi": [
    {
      "anonymous": false,
      "inputs": [
        {
          "indexed": false,
          "internalType": "uint8",
          "name": "version",
          "type": "uint8"
        }
      ],
      "name": "Initialized",
      "type": "event"
    },
    {
      "anonymous": false,
      "inputs": [
        {
          "indexed": true,
          "internalType": "address",
          "name": "previousOwner",
          "type": "address"
        },
        {
          "indexed": true,
          "internalType": "address",
          "name": "newOwner",
          "type": "address"
        }
      ],
      "name": "OwnershipTransferred",
      "type": "event"
    },
    {
      "inputs": [],
      "name": "owner",
      "outputs": [
        {
          "internalType": "address",
          "name": "",
          "type": "address"
        }
      ],
      "stateMutability": "view",
      "type": "function"
    },
    {
      "inputs": [],
      "name": "renounceOwnership",
      "outputs": [],
      "stateMutability": "nonpayable",
      "type": "function"
    },
    {
      "inputs": [
        {
          "internalType": "address",
          "name": "newOwner",
          "type": "address"
        }
      ],
      "name": "transferOwnership",
      "outputs": [],
      "stateMutability": "nonpayable",
      "type": "function"
    },
    {
      "inputs": [
        {
          "internalType": "address",
          "name": "",
          "type": "address"
        }
      ],
      "name": "trustedForwarders",
      "outputs": [
        {
          "internalType": "bool",
          "name": "",
          "type": "bool"
        }
      ],
      "stateMutability": "view",
      "type": "function"
    },
    {
      "inputs": [
        {
          "internalType": "address",
          "name": "forwarder",
          "type": "address"
        }
      ],
      "name": "isTrustedForwarder",
      "outputs": [
        {
          "internalType": "bool",
          "name": "",
          "type": "bool"
        }
      ],
      "stateMutability": "view",
      "type": "function"
    },
    {
      "inputs": [
        {
          "internalType": "address",
          "name": "_tf",
          "type": "address"
        }
      ],
      "name": "addTrustedForwarder",
      "outputs": [],
      "stateMutability": "nonpayable",
      "type": "function"
    },
    {
      "inputs": [
        {
          "internalType": "address",
          "name": "_tf",
          "type": "address"
        }
      ],
      "name": "removeTrustedForwarder",
      "outputs": [],
      "stateMutability": "nonpayable",
      "type": "function"
    }
  ],
  "bytecode": "0x608060405234801561001057600080fd5b5061070f806100206000396000f3fe608060405234801561001057600080fd5b506004361061007d5760003560e01c8063572b6c051161005b578063572b6c05146100ea578063715018a61461011a5780638da5cb5b14610124578063f2fde38b146101425761007d565b806326d00668146100825780633751d89c1461009e57806354776bb9146100ba575b600080fd5b61009c6004803603810190610097919061053d565b61015e565b005b6100b860048036038101906100b3919061053d565b6101c1565b005b6100d460048036038101906100cf919061053d565b610224565b6040516100e19190610585565b60405180910390f35b61010460048036038101906100ff919061053d565b610244565b6040516101119190610585565b60405180910390f35b61012261029a565b005b61012c6102ae565b60405161013991906105af565b60405180910390f35b61015c6004803603810190610157919061053d565b6102d8565b005b61016661035c565b6001606560008373ffffffffffffffffffffffffffffffffffffffff1673ffffffffffffffffffffffffffffffffffffffff16815260200190815260200160002060006101000a81548160ff02191690831515021790555050565b6101c961035c565b6000606560008373ffffffffffffffffffffffffffffffffffffffff1673ffffffffffffffffffffffffffffffffffffffff16815260200190815260200160002060006101000a81548160ff02191690831515021790555050565b60656020528060005260406000206000915054906101000a900460ff1681565b6000606560008373ffffffffffffffffffffffffffffffffffffffff1673ffffffffffffffffffffffffffffffffffffffff16815260200190815260200160002060009054906101000a900460ff169050919050565b6102a261035c565b6102ac60006103da565b565b6000603360009054906101000a900473ffffffffffffffffffffffffffffffffffffffff16905090565b6102e061035c565b600073ffffffffffffffffffffffffffffffffffffffff168173ffffffffffffffffffffffffffffffffffffffff161415610350576040517f08c379a00000000000000000000000000000000000000000000000000000000081526004016103479061064d565b60405180910390fd5b610359816103da565b50565b6103646104a0565b73ffffffffffffffffffffffffffffffffffffffff166103826102ae565b73ffffffffffffffffffffffffffffffffffffffff16146103d8576040517f08c379a00000000000000000000000000000000000000000000000000000000081526004016103cf906106b9565b60405180910390fd5b565b6000603360009054906101000a900473ffffffffffffffffffffffffffffffffffffffff16905081603360006101000a81548173ffffffffffffffffffffffffffffffffffffffff021916908373ffffffffffffffffffffffffffffffffffffffff1602179055508173ffffffffffffffffffffffffffffffffffffffff168173ffffffffffffffffffffffffffffffffffffffff167f8be0079c531659141344cd1fd0a4f28419497f9722a3daafe3b4186f6b6457e060405160405180910390a35050565b60006104ab33610244565b156104bf57601436033560601c90506104ce565b6104c76104d2565b90506104cf565b5b90565b600033905090565b600080fd5b600073ffffffffffffffffffffffffffffffffffffffff82169050919050565b600061050a826104df565b9050919050565b61051a816104ff565b811461052557600080fd5b50565b60008135905061053781610511565b92915050565b600060208284031215610553576105526104da565b5b600061056184828501610528565b91505092915050565b60008115159050919050565b61057f8161056a565b82525050565b600060208201905061059a6000830184610576565b92915050565b6105a9816104ff565b82525050565b60006020820190506105c460008301846105a0565b92915050565b600082825260208201905092915050565b7f4f776e61626c653a206e6577206f776e657220697320746865207a65726f206160008201527f6464726573730000000000000000000000000000000000000000000000000000602082015250565b60006106376026836105ca565b9150610642826105db565b604082019050919050565b600060208201905081810360008301526106668161062a565b9050919050565b7f4f776e61626c653a2063616c6c6572206973206e6f7420746865206f776e6572600082015250565b60006106a36020836105ca565b91506106ae8261066d565b602082019050919050565b600060208201905081810360008301526106d281610696565b905091905056fea2646970667358221220cda96679cb28d1526e05e2053168671d9a496299c5c9fc85ba2b93f89f29cdb364736f6c634300080b0033",
  "immutableReferences": {},
  "source": "// SPDX-License-Identifier: MIT\n// OpenZeppelin Contracts (last updated v4.7.0) (metatx/ERC2771Context.sol)\n\npragma solidity 0.8.11;\n\nimport \"@openzeppelin/contracts-upgradeable/access/OwnableUpgradeable.sol\";\n\n/**\n * @dev Context variant with ERC2771 support.\n */\n// copied from https://github.com/OpenZeppelin/openzeppelin-contracts/blob/master/contracts/metatx/ERC2771Context.sol\ncontract AconomyERC2771Context is OwnableUpgradeable {\n    mapping(address => bool) public trustedForwarders;\n\n    function AconomyERC2771Context_init(address tfGelato) internal onlyInitializing{\n        trustedForwarders[tfGelato] = true;\n        __Ownable_init();\n    }\n\n    function isTrustedForwarder(address forwarder)\n        public\n        view\n        virtual\n        returns (bool)\n    {\n        return trustedForwarders[forwarder];\n    }\n\n    function _msgSender()\n        internal\n        view\n        virtual\n        override\n        returns (address sender)\n    {\n        if (isTrustedForwarder(msg.sender)) {\n            // The assembly code is more direct than the Solidity version using `abi.decode`.\n            /// @solidity memory-safe-assembly\n            assembly {\n                sender := shr(96, calldataload(sub(calldatasize(), 20)))\n            }\n        } else {\n            return super._msgSender();\n        }\n    }\n\n    function _msgData()\n        internal\n        view\n        virtual\n        override\n        returns (bytes calldata)\n    {\n        if (isTrustedForwarder(msg.sender)) {\n            return msg.data[:msg.data.length - 20];\n        } else {\n            return super._msgData();\n        }\n    }\n\n    function addTrustedForwarder(address _tf) external onlyOwner {\n        trustedForwarders[_tf] = true;\n    }\n\n    function removeTrustedForwarder(address _tf) external onlyOwner {\n        trustedForwarders[_tf] = false;\n    }\n\n}",
  "sourcePath": "/media/dell/17f09f70-0626-4927-a787-2813ab7ed2c0/dell/Pandora/pooolAddress Pandora Git/aconomy-contract/contracts/AconomyERC2771Context.sol",
  "compiler": {
    "name": "solc",
    "version": "0.8.11+commit.d7f03943.Emscripten.clang"
  },
  "schemaVersion": "3.4.10",
  "updatedAt": "2023-09-20T09:26:37.631Z",
  "devdoc": {
    "details": "Context variant with ERC2771 support.",
    "kind": "dev",
    "methods": {
      "owner()": {
        "details": "Returns the address of the current owner."
      },
      "renounceOwnership()": {
        "details": "Leaves the contract without owner. It will not be possible to call `onlyOwner` functions anymore. Can only be called by the current owner. NOTE: Renouncing ownership will leave the contract without an owner, thereby removing any functionality that is only available to the owner."
      },
      "transferOwnership(address)": {
        "details": "Transfers ownership of the contract to a new account (`newOwner`). Can only be called by the current owner."
      }
    },
    "version": 1
  },
  "userdoc": {
    "kind": "user",
    "methods": {},
    "version": 1
  }
}