{
  "contractName": "AconomyFee",
  "abi": [
    {
      "anonymous": false,
      "inputs": [
        {
          "indexed": true,
          "internalType": "address",
          "name": "previousOwner",
          "type": "address"
        },
        {
          "indexed": true,
          "internalType": "address",
          "name": "newOwner",
          "type": "address"
        }
      ],
      "name": "OwnershipTransferred",
      "type": "event"
    },
    {
      "anonymous": false,
      "inputs": [
        {
          "indexed": false,
          "internalType": "uint16",
          "name": "newFee",
          "type": "uint16"
        },
        {
          "indexed": false,
          "internalType": "uint16",
          "name": "oldFee",
          "type": "uint16"
        }
      ],
      "name": "SetAconomyFee",
      "type": "event"
    },
    {
      "inputs": [],
      "name": "_AconomyFee",
      "outputs": [
        {
          "internalType": "uint16",
          "name": "",
          "type": "uint16"
        }
      ],
      "stateMutability": "view",
      "type": "function"
    },
    {
      "inputs": [],
      "name": "owner",
      "outputs": [
        {
          "internalType": "address",
          "name": "",
          "type": "address"
        }
      ],
      "stateMutability": "view",
      "type": "function"
    },
    {
      "inputs": [],
      "name": "renounceOwnership",
      "outputs": [],
      "stateMutability": "nonpayable",
      "type": "function"
    },
    {
      "inputs": [
        {
          "internalType": "address",
          "name": "newOwner",
          "type": "address"
        }
      ],
      "name": "transferOwnership",
      "outputs": [],
      "stateMutability": "nonpayable",
      "type": "function"
    },
    {
      "inputs": [],
      "name": "protocolFee",
      "outputs": [
        {
          "internalType": "uint16",
          "name": "",
          "type": "uint16"
        }
      ],
      "stateMutability": "view",
      "type": "function"
    },
    {
      "inputs": [],
      "name": "getAconomyOwnerAddress",
      "outputs": [
        {
          "internalType": "address",
          "name": "",
          "type": "address"
        }
      ],
      "stateMutability": "view",
      "type": "function"
    },
    {
      "inputs": [
        {
          "internalType": "uint16",
          "name": "newFee",
          "type": "uint16"
        }
      ],
      "name": "setProtocolFee",
      "outputs": [],
      "stateMutability": "nonpayable",
      "type": "function"
    }
  ],
  "bytecode": "0x608060405234801561001057600080fd5b5061002d61002261003260201b60201c565b61003a60201b60201c565b6100fe565b600033905090565b60008060009054906101000a900473ffffffffffffffffffffffffffffffffffffffff169050816000806101000a81548173ffffffffffffffffffffffffffffffffffffffff021916908373ffffffffffffffffffffffffffffffffffffffff1602179055508173ffffffffffffffffffffffffffffffffffffffff168173ffffffffffffffffffffffffffffffffffffffff167f8be0079c531659141344cd1fd0a4f28419497f9722a3daafe3b4186f6b6457e060405160405180910390a35050565b6106d68061010d6000396000f3fe608060405234801561001057600080fd5b506004361061007d5760003560e01c80639a3d4ae61161005b5780639a3d4ae6146100c8578063b0e21e8a146100e6578063e4467f3514610104578063f2fde38b146101205761007d565b80634dd9ccb114610082578063715018a6146100a05780638da5cb5b146100aa575b600080fd5b61008a61013c565b604051610097919061045e565b60405180910390f35b6100a861014b565b005b6100b261015f565b6040516100bf919061045e565b60405180910390f35b6100d0610188565b6040516100dd9190610496565b60405180910390f35b6100ee61019c565b6040516100fb9190610496565b60405180910390f35b61011e600480360381019061011991906104e2565b6101b3565b005b61013a6004803603810190610135919061053b565b61024f565b005b600061014661015f565b905090565b6101536102d3565b61015d6000610351565b565b60008060009054906101000a900473ffffffffffffffffffffffffffffffffffffffff16905090565b600060149054906101000a900461ffff1681565b60008060149054906101000a900461ffff16905090565b6101bb6102d3565b600060149054906101000a900461ffff1661ffff168161ffff1614156101e05761024c565b60008060149054906101000a900461ffff16905081600060146101000a81548161ffff021916908361ffff1602179055507f42844807f1f2d558d424268b6755d861b25ada531856444ccd87f17e2c4273f78282604051610242929190610568565b60405180910390a1505b50565b6102576102d3565b600073ffffffffffffffffffffffffffffffffffffffff168173ffffffffffffffffffffffffffffffffffffffff1614156102c7576040517f08c379a00000000000000000000000000000000000000000000000000000000081526004016102be90610614565b60405180910390fd5b6102d081610351565b50565b6102db610415565b73ffffffffffffffffffffffffffffffffffffffff166102f961015f565b73ffffffffffffffffffffffffffffffffffffffff161461034f576040517f08c379a000000000000000000000000000000000000000000000000000000000815260040161034690610680565b60405180910390fd5b565b60008060009054906101000a900473ffffffffffffffffffffffffffffffffffffffff169050816000806101000a81548173ffffffffffffffffffffffffffffffffffffffff021916908373ffffffffffffffffffffffffffffffffffffffff1602179055508173ffffffffffffffffffffffffffffffffffffffff168173ffffffffffffffffffffffffffffffffffffffff167f8be0079c531659141344cd1fd0a4f28419497f9722a3daafe3b4186f6b6457e060405160405180910390a35050565b600033905090565b600073ffffffffffffffffffffffffffffffffffffffff82169050919050565b60006104488261041d565b9050919050565b6104588161043d565b82525050565b6000602082019050610473600083018461044f565b92915050565b600061ffff82169050919050565b61049081610479565b82525050565b60006020820190506104ab6000830184610487565b92915050565b600080fd5b6104bf81610479565b81146104ca57600080fd5b50565b6000813590506104dc816104b6565b92915050565b6000602082840312156104f8576104f76104b1565b5b6000610506848285016104cd565b91505092915050565b6105188161043d565b811461052357600080fd5b50565b6000813590506105358161050f565b92915050565b600060208284031215610551576105506104b1565b5b600061055f84828501610526565b91505092915050565b600060408201905061057d6000830185610487565b61058a6020830184610487565b9392505050565b600082825260208201905092915050565b7f4f776e61626c653a206e6577206f776e657220697320746865207a65726f206160008201527f6464726573730000000000000000000000000000000000000000000000000000602082015250565b60006105fe602683610591565b9150610609826105a2565b604082019050919050565b6000602082019050818103600083015261062d816105f1565b9050919050565b7f4f776e61626c653a2063616c6c6572206973206e6f7420746865206f776e6572600082015250565b600061066a602083610591565b915061067582610634565b602082019050919050565b600060208201905081810360008301526106998161065d565b905091905056fea26469706673582212205d675d777271fc9865459e2eac46de7892e576e09e44d84d890069041f7350d764736f6c634300080b0033",
  "immutableReferences": {},
  "source": "pragma solidity >=0.8.0 <0.9.0;\n// SPDX-License-Identifier: MIT\n\nimport \"@openzeppelin/contracts/access/Ownable.sol\";\n\ncontract AconomyFee is Ownable {\n    uint16 public _AconomyFee;\n\n    event SetAconomyFee(uint16 newFee, uint16 oldFee);\n\n    function protocolFee() public view virtual returns (uint16) {\n        return _AconomyFee;\n    }\n\n    function getAconomyOwnerAddress() public view virtual returns (address) {\n        return owner();\n    }\n\n    // Set Aconomy Fee in percent\n    function setProtocolFee(uint16 newFee) public virtual onlyOwner {\n        \n        if (newFee == _AconomyFee) return;\n\n        uint16 oldFee = _AconomyFee;\n        _AconomyFee = newFee;\n        emit SetAconomyFee(newFee, oldFee);\n    }\n}\n",
  "sourcePath": "/media/dell/17f09f70-0626-4927-a787-2813ab7ed2c0/dell/Pandora/pooolAddress Pandora Git/aconomy-contract/contracts/AconomyFee.sol",
  "compiler": {
    "name": "solc",
    "version": "0.8.11+commit.d7f03943.Emscripten.clang"
  },
  "schemaVersion": "3.4.10",
  "updatedAt": "2023-03-22T05:36:13.767Z",
  "devdoc": {
    "kind": "dev",
    "methods": {
      "owner()": {
        "details": "Returns the address of the current owner."
      },
      "renounceOwnership()": {
        "details": "Leaves the contract without owner. It will not be possible to call `onlyOwner` functions anymore. Can only be called by the current owner. NOTE: Renouncing ownership will leave the contract without an owner, thereby removing any functionality that is only available to the owner."
      },
      "transferOwnership(address)": {
        "details": "Transfers ownership of the contract to a new account (`newOwner`). Can only be called by the current owner."
      }
    },
    "version": 1
  },
  "userdoc": {
    "kind": "user",
    "methods": {},
    "version": 1
  }
}