{
  "contractName": "AconomyFee",
  "abi": [
    {
      "anonymous": false,
      "inputs": [
        {
          "indexed": true,
          "internalType": "address",
          "name": "previousOwner",
          "type": "address"
        },
        {
          "indexed": true,
          "internalType": "address",
          "name": "newOwner",
          "type": "address"
        }
      ],
      "name": "OwnershipTransferred",
      "type": "event"
    },
    {
      "anonymous": false,
      "inputs": [
        {
          "indexed": false,
          "internalType": "uint16",
          "name": "newFee",
          "type": "uint16"
        },
        {
          "indexed": false,
          "internalType": "uint16",
          "name": "oldFee",
          "type": "uint16"
        }
      ],
      "name": "SetAconomyNFTLendBorrowFee",
      "type": "event"
    },
    {
      "anonymous": false,
      "inputs": [
        {
          "indexed": false,
          "internalType": "uint16",
          "name": "newFee",
          "type": "uint16"
        },
        {
          "indexed": false,
          "internalType": "uint16",
          "name": "oldFee",
          "type": "uint16"
        }
      ],
      "name": "SetAconomyPiMarketFee",
      "type": "event"
    },
    {
      "anonymous": false,
      "inputs": [
        {
          "indexed": false,
          "internalType": "uint16",
          "name": "newFee",
          "type": "uint16"
        },
        {
          "indexed": false,
          "internalType": "uint16",
          "name": "oldFee",
          "type": "uint16"
        }
      ],
      "name": "SetAconomyPoolFee",
      "type": "event"
    },
    {
      "inputs": [],
      "name": "_AconomyNFTLendBorrowFee",
      "outputs": [
        {
          "internalType": "uint16",
          "name": "",
          "type": "uint16"
        }
      ],
      "stateMutability": "view",
      "type": "function"
    },
    {
      "inputs": [],
      "name": "_AconomyPiMarketFee",
      "outputs": [
        {
          "internalType": "uint16",
          "name": "",
          "type": "uint16"
        }
      ],
      "stateMutability": "view",
      "type": "function"
    },
    {
      "inputs": [],
      "name": "_AconomyPoolFee",
      "outputs": [
        {
          "internalType": "uint16",
          "name": "",
          "type": "uint16"
        }
      ],
      "stateMutability": "view",
      "type": "function"
    },
    {
      "inputs": [],
      "name": "owner",
      "outputs": [
        {
          "internalType": "address",
          "name": "",
          "type": "address"
        }
      ],
      "stateMutability": "view",
      "type": "function"
    },
    {
      "inputs": [],
      "name": "renounceOwnership",
      "outputs": [],
      "stateMutability": "nonpayable",
      "type": "function"
    },
    {
      "inputs": [
        {
          "internalType": "address",
          "name": "newOwner",
          "type": "address"
        }
      ],
      "name": "transferOwnership",
      "outputs": [],
      "stateMutability": "nonpayable",
      "type": "function"
    },
    {
      "inputs": [],
      "name": "AconomyPoolFee",
      "outputs": [
        {
          "internalType": "uint16",
          "name": "",
          "type": "uint16"
        }
      ],
      "stateMutability": "view",
      "type": "function"
    },
    {
      "inputs": [],
      "name": "AconomyPiMarketFee",
      "outputs": [
        {
          "internalType": "uint16",
          "name": "",
          "type": "uint16"
        }
      ],
      "stateMutability": "view",
      "type": "function"
    },
    {
      "inputs": [],
      "name": "AconomyNFTLendBorrowFee",
      "outputs": [
        {
          "internalType": "uint16",
          "name": "",
          "type": "uint16"
        }
      ],
      "stateMutability": "view",
      "type": "function"
    },
    {
      "inputs": [],
      "name": "getAconomyOwnerAddress",
      "outputs": [
        {
          "internalType": "address",
          "name": "",
          "type": "address"
        }
      ],
      "stateMutability": "view",
      "type": "function"
    },
    {
      "inputs": [
        {
          "internalType": "uint16",
          "name": "newFee",
          "type": "uint16"
        }
      ],
      "name": "setAconomyPoolFee",
      "outputs": [],
      "stateMutability": "nonpayable",
      "type": "function"
    },
    {
      "inputs": [
        {
          "internalType": "uint16",
          "name": "newFee",
          "type": "uint16"
        }
      ],
      "name": "setAconomyPiMarketFee",
      "outputs": [],
      "stateMutability": "nonpayable",
      "type": "function"
    },
    {
      "inputs": [
        {
          "internalType": "uint16",
          "name": "newFee",
          "type": "uint16"
        }
      ],
      "name": "setAconomyNFTLendBorrowFee",
      "outputs": [],
      "stateMutability": "nonpayable",
      "type": "function"
    }
  ],
  "bytecode": "0x608060405234801561001057600080fd5b5061002d61002261003260201b60201c565b61003a60201b60201c565b6100fe565b600033905090565b60008060009054906101000a900473ffffffffffffffffffffffffffffffffffffffff169050816000806101000a81548173ffffffffffffffffffffffffffffffffffffffff021916908373ffffffffffffffffffffffffffffffffffffffff1602179055508173ffffffffffffffffffffffffffffffffffffffff168173ffffffffffffffffffffffffffffffffffffffff167f8be0079c531659141344cd1fd0a4f28419497f9722a3daafe3b4186f6b6457e060405160405180910390a35050565b6109668061010d6000396000f3fe608060405234801561001057600080fd5b50600436106100cf5760003560e01c8063a236b1ef1161008c578063d6aa3abd11610066578063d6aa3abd146101ca578063e9d011cb146101e6578063f2fde38b14610204578063fa31eb4914610220576100cf565b8063a236b1ef14610172578063b104056714610190578063c9980349146101ac576100cf565b8063054cdf7f146100d457806340756a10146100f05780634dd9ccb11461010e578063715018a61461012c5780638bb98519146101365780638da5cb5b14610154575b600080fd5b6100ee60048036038101906100e991906106ec565b61023e565b005b6100f86102da565b6040516101059190610728565b60405180910390f35b6101166102ee565b6040516101239190610784565b60405180910390f35b6101346102fd565b005b61013e610311565b60405161014b9190610728565b60405180910390f35b61015c610325565b6040516101699190610784565b60405180910390f35b61017a61034e565b6040516101879190610728565b60405180910390f35b6101aa60048036038101906101a591906106ec565b610365565b005b6101b4610401565b6040516101c19190610728565b60405180910390f35b6101e460048036038101906101df91906106ec565b610415565b005b6101ee6104b1565b6040516101fb9190610728565b60405180910390f35b61021e600480360381019061021991906107cb565b6104c8565b005b61022861054c565b6040516102359190610728565b60405180910390f35b610246610563565b600060189054906101000a900461ffff1661ffff168161ffff16141561026b576102d7565b60008060189054906101000a900461ffff16905081600060186101000a81548161ffff021916908361ffff1602179055507fdcc7874944cd56ecfce03f4fd7beee380520c0514026b37adae22a33b25449d782826040516102cd9291906107f8565b60405180910390a1505b50565b600060169054906101000a900461ffff1681565b60006102f8610325565b905090565b610305610563565b61030f60006105e1565b565b600060189054906101000a900461ffff1681565b60008060009054906101000a900473ffffffffffffffffffffffffffffffffffffffff16905090565b60008060169054906101000a900461ffff16905090565b61036d610563565b600060149054906101000a900461ffff1661ffff168161ffff161415610392576103fe565b60008060149054906101000a900461ffff16905081600060146101000a81548161ffff021916908361ffff1602179055507fd945a988eead48371e717ffc056fe0a2f83a034baf41bf33d832c449bb8f78bb82826040516103f49291906107f8565b60405180910390a1505b50565b600060149054906101000a900461ffff1681565b61041d610563565b600060169054906101000a900461ffff1661ffff168161ffff161415610442576104ae565b60008060169054906101000a900461ffff16905081600060166101000a81548161ffff021916908361ffff1602179055507f7d87a8acafadf8ed4ef9e4badd1611cfc8be9ab19a53423e9f57dce825377b2382826040516104a49291906107f8565b60405180910390a1505b50565b60008060189054906101000a900461ffff16905090565b6104d0610563565b600073ffffffffffffffffffffffffffffffffffffffff168173ffffffffffffffffffffffffffffffffffffffff161415610540576040517f08c379a0000000000000000000000000000000000000000000000000000000008152600401610537906108a4565b60405180910390fd5b610549816105e1565b50565b60008060149054906101000a900461ffff16905090565b61056b6106a5565b73ffffffffffffffffffffffffffffffffffffffff16610589610325565b73ffffffffffffffffffffffffffffffffffffffff16146105df576040517f08c379a00000000000000000000000000000000000000000000000000000000081526004016105d690610910565b60405180910390fd5b565b60008060009054906101000a900473ffffffffffffffffffffffffffffffffffffffff169050816000806101000a81548173ffffffffffffffffffffffffffffffffffffffff021916908373ffffffffffffffffffffffffffffffffffffffff1602179055508173ffffffffffffffffffffffffffffffffffffffff168173ffffffffffffffffffffffffffffffffffffffff167f8be0079c531659141344cd1fd0a4f28419497f9722a3daafe3b4186f6b6457e060405160405180910390a35050565b600033905090565b600080fd5b600061ffff82169050919050565b6106c9816106b2565b81146106d457600080fd5b50565b6000813590506106e6816106c0565b92915050565b600060208284031215610702576107016106ad565b5b6000610710848285016106d7565b91505092915050565b610722816106b2565b82525050565b600060208201905061073d6000830184610719565b92915050565b600073ffffffffffffffffffffffffffffffffffffffff82169050919050565b600061076e82610743565b9050919050565b61077e81610763565b82525050565b60006020820190506107996000830184610775565b92915050565b6107a881610763565b81146107b357600080fd5b50565b6000813590506107c58161079f565b92915050565b6000602082840312156107e1576107e06106ad565b5b60006107ef848285016107b6565b91505092915050565b600060408201905061080d6000830185610719565b61081a6020830184610719565b9392505050565b600082825260208201905092915050565b7f4f776e61626c653a206e6577206f776e657220697320746865207a65726f206160008201527f6464726573730000000000000000000000000000000000000000000000000000602082015250565b600061088e602683610821565b915061089982610832565b604082019050919050565b600060208201905081810360008301526108bd81610881565b9050919050565b7f4f776e61626c653a2063616c6c6572206973206e6f7420746865206f776e6572600082015250565b60006108fa602083610821565b9150610905826108c4565b602082019050919050565b60006020820190508181036000830152610929816108ed565b905091905056fea2646970667358221220003922b6c92439ac875cf54cf8bacb368c6deb9a27dfa5e33d16a704857ccc5364736f6c634300080b0033",
  "immutableReferences": {},
  "source": "pragma solidity 0.8.11;\n// SPDX-License-Identifier: MIT\n\nimport \"@openzeppelin/contracts/access/Ownable.sol\";\n\ncontract AconomyFee is Ownable {\n    uint16 public _AconomyPoolFee;\n    uint16 public _AconomyPiMarketFee;\n    uint16 public _AconomyNFTLendBorrowFee;\n\n    event SetAconomyPoolFee(uint16 newFee, uint16 oldFee);\n    event SetAconomyPiMarketFee(uint16 newFee, uint16 oldFee);\n    event SetAconomyNFTLendBorrowFee(uint16 newFee, uint16 oldFee);\n\n    function AconomyPoolFee() public view returns (uint16) {\n        return _AconomyPoolFee;\n    }\n\n    function AconomyPiMarketFee() public view returns (uint16) {\n        return _AconomyPiMarketFee;\n    }\n\n    function AconomyNFTLendBorrowFee() public view returns (uint16) {\n        return _AconomyNFTLendBorrowFee;\n    }\n\n    function getAconomyOwnerAddress() public view returns (address) {\n        return owner();\n    }\n\n    /**\n     * @notice Sets the protocol fee.\n     * @param newFee The value of the new fee percentage in bps.\n     */\n    function setAconomyPoolFee(uint16 newFee) public onlyOwner {\n        if (newFee == _AconomyPoolFee) return;\n\n        uint16 oldFee = _AconomyPoolFee;\n        _AconomyPoolFee = newFee;\n        emit SetAconomyPoolFee(newFee, oldFee);\n    }\n\n    function setAconomyPiMarketFee(uint16 newFee) public onlyOwner {\n        if (newFee == _AconomyPiMarketFee) return;\n\n        uint16 oldFee = _AconomyPiMarketFee;\n        _AconomyPiMarketFee = newFee;\n        emit SetAconomyPiMarketFee(newFee, oldFee);\n    }\n\n    function setAconomyNFTLendBorrowFee(uint16 newFee) public onlyOwner {\n        if (newFee == _AconomyNFTLendBorrowFee) return;\n\n        uint16 oldFee = _AconomyNFTLendBorrowFee;\n        _AconomyNFTLendBorrowFee = newFee;\n        emit SetAconomyNFTLendBorrowFee(newFee, oldFee);\n    }\n}\n",
  "sourcePath": "/media/dell/17f09f70-0626-4927-a787-2813ab7ed2c0/dell/Pandora/pooolAddress Pandora Git/aconomy-contract/contracts/AconomyFee.sol",
  "compiler": {
    "name": "solc",
    "version": "0.8.11+commit.d7f03943.Emscripten.clang"
  },
  "schemaVersion": "3.4.10",
  "updatedAt": "2023-09-20T09:28:19.170Z",
  "networkType": "ethereum",
  "devdoc": {
    "kind": "dev",
    "methods": {
      "owner()": {
        "details": "Returns the address of the current owner."
      },
      "renounceOwnership()": {
        "details": "Leaves the contract without owner. It will not be possible to call `onlyOwner` functions anymore. Can only be called by the current owner. NOTE: Renouncing ownership will leave the contract without an owner, thereby removing any functionality that is only available to the owner."
      },
      "setAconomyPoolFee(uint16)": {
        "params": {
          "newFee": "The value of the new fee percentage in bps."
        }
      },
      "transferOwnership(address)": {
        "details": "Transfers ownership of the contract to a new account (`newOwner`). Can only be called by the current owner."
      }
    },
    "version": 1
  },
  "userdoc": {
    "kind": "user",
    "methods": {
      "setAconomyPoolFee(uint16)": {
        "notice": "Sets the protocol fee."
      }
    },
    "version": 1
  }
}