{
  "contractName": "AttestationRegistry",
  "abi": [
    {
      "anonymous": false,
      "inputs": [
        {
          "indexed": true,
          "internalType": "bytes32",
          "name": "uuid",
          "type": "bytes32"
        },
        {
          "indexed": true,
          "internalType": "uint256",
          "name": "index",
          "type": "uint256"
        },
        {
          "indexed": false,
          "internalType": "bytes",
          "name": "schema",
          "type": "bytes"
        },
        {
          "indexed": false,
          "internalType": "address",
          "name": "attester",
          "type": "address"
        }
      ],
      "name": "Registered",
      "type": "event"
    },
    {
      "inputs": [
        {
          "internalType": "bytes32",
          "name": "",
          "type": "bytes32"
        }
      ],
      "name": "_registry",
      "outputs": [
        {
          "internalType": "bytes32",
          "name": "uuid",
          "type": "bytes32"
        },
        {
          "internalType": "uint256",
          "name": "index",
          "type": "uint256"
        },
        {
          "internalType": "bytes",
          "name": "schema",
          "type": "bytes"
        }
      ],
      "stateMutability": "view",
      "type": "function"
    },
    {
      "inputs": [
        {
          "internalType": "bytes",
          "name": "schema",
          "type": "bytes"
        }
      ],
      "name": "register",
      "outputs": [
        {
          "internalType": "bytes32",
          "name": "",
          "type": "bytes32"
        }
      ],
      "stateMutability": "nonpayable",
      "type": "function"
    },
    {
      "inputs": [
        {
          "internalType": "bytes32",
          "name": "uuid",
          "type": "bytes32"
        }
      ],
      "name": "getAS",
      "outputs": [
        {
          "components": [
            {
              "internalType": "bytes32",
              "name": "uuid",
              "type": "bytes32"
            },
            {
              "internalType": "uint256",
              "name": "index",
              "type": "uint256"
            },
            {
              "internalType": "bytes",
              "name": "schema",
              "type": "bytes"
            }
          ],
          "internalType": "struct IAttestationRegistry.ASRecord",
          "name": "",
          "type": "tuple"
        }
      ],
      "stateMutability": "view",
      "type": "function"
    }
  ],
  "bytecode": "0x608060405234801561001057600080fd5b50610a62806100206000396000f3fe608060405234801561001057600080fd5b50600436106100415760003560e01c806372487d521461004657806382fbdc9c14610076578063fa6f1dc3146100a6575b600080fd5b610060600480360381019061005b919061050b565b6100d8565b60405161006d9190610649565b60405180910390f35b610090600480360381019061008b91906106d0565b6101aa565b60405161009d919061072c565b60405180910390f35b6100c060048036038101906100bb919061050b565b61031f565b6040516100cf939291906107a0565b60405180910390f35b6100e0610404565b60008083815260200190815260200160002060405180606001604052908160008201548152602001600182015481526020016002820180546101219061080d565b80601f016020809104026020016040519081016040528092919081815260200182805461014d9061080d565b801561019a5780601f1061016f5761010080835404028352916020019161019a565b820191906000526020600020905b81548152906001019060200180831161017d57829003601f168201915b5050505050815250509050919050565b6000806001600081546101bc9061086e565b919050819055905060006101d085856103d1565b90506000801b600080838152602001908152602001600020600001541461022c576040517f08c379a000000000000000000000000000000000000000000000000000000000815260040161022390610914565b60405180910390fd5b6000604051806060016040528083815260200184815260200187878080601f016020809104026020016040519081016040528093929190818152602001838380828437600081840152601f19601f82011690508083019250505050505050815250905080600080848152602001908152602001600020600082015181600001556020820151816001015560408201518160020190805190602001906102d2929190610428565b5090505082827fbf98b1465a8e9be3ba9c4c4961cade00b8ee16522d23f19068efa38f2769f14188883360405161030b939291906109b1565b60405180910390a381935050505092915050565b600060205280600052604060002060009150905080600001549080600101549080600201805461034e9061080d565b80601f016020809104026020016040519081016040528092919081815260200182805461037a9061080d565b80156103c75780601f1061039c576101008083540402835291602001916103c7565b820191906000526020600020905b8154815290600101906020018083116103aa57829003601f168201915b5050505050905083565b600082826040516020016103e6929190610a13565b60405160208183030381529060405280519060200120905092915050565b60405180606001604052806000801916815260200160008152602001606081525090565b8280546104349061080d565b90600052602060002090601f016020900481019282610456576000855561049d565b82601f1061046f57805160ff191683800117855561049d565b8280016001018555821561049d579182015b8281111561049c578251825591602001919060010190610481565b5b5090506104aa91906104ae565b5090565b5b808211156104c75760008160009055506001016104af565b5090565b600080fd5b600080fd5b6000819050919050565b6104e8816104d5565b81146104f357600080fd5b50565b600081359050610505816104df565b92915050565b600060208284031215610521576105206104cb565b5b600061052f848285016104f6565b91505092915050565b610541816104d5565b82525050565b6000819050919050565b61055a81610547565b82525050565b600081519050919050565b600082825260208201905092915050565b60005b8381101561059a57808201518184015260208101905061057f565b838111156105a9576000848401525b50505050565b6000601f19601f8301169050919050565b60006105cb82610560565b6105d5818561056b565b93506105e581856020860161057c565b6105ee816105af565b840191505092915050565b60006060830160008301516106116000860182610538565b5060208301516106246020860182610551565b506040830151848203604086015261063c82826105c0565b9150508091505092915050565b6000602082019050818103600083015261066381846105f9565b905092915050565b600080fd5b600080fd5b600080fd5b60008083601f8401126106905761068f61066b565b5b8235905067ffffffffffffffff8111156106ad576106ac610670565b5b6020830191508360018202830111156106c9576106c8610675565b5b9250929050565b600080602083850312156106e7576106e66104cb565b5b600083013567ffffffffffffffff811115610705576107046104d0565b5b6107118582860161067a565b92509250509250929050565b610726816104d5565b82525050565b6000602082019050610741600083018461071d565b92915050565b61075081610547565b82525050565b600082825260208201905092915050565b600061077282610560565b61077c8185610756565b935061078c81856020860161057c565b610795816105af565b840191505092915050565b60006060820190506107b5600083018661071d565b6107c26020830185610747565b81810360408301526107d48184610767565b9050949350505050565b7f4e487b7100000000000000000000000000000000000000000000000000000000600052602260045260246000fd5b6000600282049050600182168061082557607f821691505b60208210811415610839576108386107de565b5b50919050565b7f4e487b7100000000000000000000000000000000000000000000000000000000600052601160045260246000fd5b600061087982610547565b91507fffffffffffffffffffffffffffffffffffffffffffffffffffffffffffffffff8214156108ac576108ab61083f565b5b600182019050919050565b600082825260208201905092915050565b7f416c726561647945786973747300000000000000000000000000000000000000600082015250565b60006108fe600d836108b7565b9150610909826108c8565b602082019050919050565b6000602082019050818103600083015261092d816108f1565b9050919050565b82818337600083830152505050565b600061094f8385610756565b935061095c838584610934565b610965836105af565b840190509392505050565b600073ffffffffffffffffffffffffffffffffffffffff82169050919050565b600061099b82610970565b9050919050565b6109ab81610990565b82525050565b600060408201905081810360008301526109cc818587610943565b90506109db60208301846109a2565b949350505050565b600081905092915050565b60006109fa83856109e3565b9350610a07838584610934565b82840190509392505050565b6000610a208284866109ee565b9150819050939250505056fea2646970667358221220827c7e5df35505c6ab575459f62e1cca098a258ffe4cb5a07a732022b6c0b10e64736f6c634300080b0033",
  "immutableReferences": {},
  "source": "// SPDX-License-Identifier: MIT\npragma solidity >=0.4.22 <0.9.0;\n\nimport \"./interfaces/IAttestationServices.sol\";\nimport \"./interfaces/IAttestationRegistry.sol\";\n\ncontract AttestationRegistry is IAttestationRegistry {\n    mapping(bytes32 => ASRecord) public _registry;\n    bytes32 private constant EMPTY_UUID = 0;\n    event Registered(\n        bytes32 indexed uuid,\n        uint256 indexed index,\n        bytes schema,\n        address attester\n    );\n\n    uint256 private _asCount;\n\n    function register(bytes calldata schema)\n        external\n        override\n        returns (bytes32)\n    {\n        uint256 index = ++_asCount;\n        bytes32 uuid = _getUUID(schema);\n        if (_registry[uuid].uuid != EMPTY_UUID) {\n            revert(\"AlreadyExists\");\n        }\n\n        ASRecord memory asRecord = ASRecord({\n            uuid: uuid,\n            index: index,\n            schema: schema\n        });\n\n        _registry[uuid] = asRecord;\n\n        emit Registered(uuid, index, schema, msg.sender);\n\n        return uuid;\n    }\n\n    function _getUUID(bytes calldata schema) private pure returns (bytes32) {\n        return keccak256(abi.encodePacked(schema));\n    }\n\n    function getAS(bytes32 uuid)\n        external\n        view\n        override\n        returns (ASRecord memory)\n    {\n        return _registry[uuid];\n    }\n}\n",
  "sourcePath": "/home/sheeshco/code/truffle/aconomy-contract/contracts/AttestationRegistry.sol",
  "compiler": {
    "name": "solc",
    "version": "0.8.11+commit.d7f03943.Emscripten.clang"
  },
  "schemaVersion": "3.4.10",
  "updatedAt": "2023-03-22T06:48:23.779Z",
  "devdoc": {
    "kind": "dev",
    "methods": {},
    "version": 1
  },
  "userdoc": {
    "kind": "user",
    "methods": {},
    "version": 1
  }
}