{
  "contractName": "AttestationServices",
  "abi": [
    {
      "inputs": [
        {
          "internalType": "contract IAttestationRegistry",
          "name": "registry",
          "type": "address"
        }
      ],
      "stateMutability": "nonpayable",
      "type": "constructor"
    },
    {
      "anonymous": false,
      "inputs": [
        {
          "indexed": true,
          "internalType": "address",
          "name": "recipient",
          "type": "address"
        },
        {
          "indexed": true,
          "internalType": "address",
          "name": "attester",
          "type": "address"
        },
        {
          "indexed": false,
          "internalType": "bytes32",
          "name": "uuid",
          "type": "bytes32"
        },
        {
          "indexed": true,
          "internalType": "bytes32",
          "name": "schema",
          "type": "bytes32"
        }
      ],
      "name": "Attested",
      "type": "event"
    },
    {
      "inputs": [],
      "name": "getASRegistry",
      "outputs": [
        {
          "internalType": "contract IAttestationRegistry",
          "name": "",
          "type": "address"
        }
      ],
      "stateMutability": "view",
      "type": "function",
      "constant": true
    },
    {
      "inputs": [
        {
          "internalType": "address",
          "name": "recipient",
          "type": "address"
        },
        {
          "internalType": "bytes32",
          "name": "schema",
          "type": "bytes32"
        },
        {
          "internalType": "uint256",
          "name": "expirationTime",
          "type": "uint256"
        },
        {
          "internalType": "bytes32",
          "name": "refUUID",
          "type": "bytes32"
        },
        {
          "internalType": "bytes",
          "name": "data",
          "type": "bytes"
        }
      ],
      "name": "attest",
      "outputs": [
        {
          "internalType": "bytes32",
          "name": "",
          "type": "bytes32"
        }
      ],
      "stateMutability": "payable",
      "type": "function",
      "payable": true
    },
    {
      "inputs": [
        {
          "internalType": "bytes32",
          "name": "uuid",
          "type": "bytes32"
        }
      ],
      "name": "isAddressActive",
      "outputs": [
        {
          "internalType": "bool",
          "name": "",
          "type": "bool"
        }
      ],
      "stateMutability": "view",
      "type": "function",
      "constant": true
    },
    {
      "inputs": [
        {
          "internalType": "bytes32",
          "name": "uuid",
          "type": "bytes32"
        }
      ],
      "name": "isAddressValid",
      "outputs": [
        {
          "internalType": "bool",
          "name": "",
          "type": "bool"
        }
      ],
      "stateMutability": "view",
      "type": "function",
      "constant": true
    }
  ],
  "bytecode": "0x60a06040523480156200001157600080fd5b506040516200113238038062001132833981810160405281019062000037919062000163565b600073ffffffffffffffffffffffffffffffffffffffff168173ffffffffffffffffffffffffffffffffffffffff161415620000aa576040517f08c379a0000000000000000000000000000000000000000000000000000000008152600401620000a190620001f6565b60405180910390fd5b8073ffffffffffffffffffffffffffffffffffffffff1660808173ffffffffffffffffffffffffffffffffffffffff16815250505062000218565b600080fd5b600073ffffffffffffffffffffffffffffffffffffffff82169050919050565b60006200011782620000ea565b9050919050565b60006200012b826200010a565b9050919050565b6200013d816200011e565b81146200014957600080fd5b50565b6000815190506200015d8162000132565b92915050565b6000602082840312156200017c576200017b620000e5565b5b60006200018c848285016200014c565b91505092915050565b600082825260208201905092915050565b7f496e76616c696452656769737472790000000000000000000000000000000000600082015250565b6000620001de600f8362000195565b9150620001eb82620001a6565b602082019050919050565b600060208201905081810360008301526200021181620001cf565b9050919050565b608051610ef76200023b6000396000818161016001526102220152610ef76000f3fe60806040526004361061003f5760003560e01c806309a954cd1461004457806319db53ef1461007457806381fa6cd3146100b1578063e56d679b146100dc575b600080fd5b61005e600480360381019061005991906107ae565b610119565b60405161006b9190610857565b60405180910390f35b34801561008057600080fd5b5061009b60048036038101906100969190610872565b610136565b6040516100a891906108ba565b60405180910390f35b3480156100bd57600080fd5b506100c661015c565b6040516100d39190610934565b60405180910390f35b3480156100e857600080fd5b5061010360048036038101906100fe9190610872565b610184565b60405161011091906108ba565b60405180910390f35b600061012a878787878787336101da565b90509695505050505050565b60008060001b600360008481526020019081526020016000206000015414159050919050565b60007f0000000000000000000000000000000000000000000000000000000000000000905090565b600061018f82610136565b80156101b1575042600360008481526020019081526020016000206005015410155b80156101d3575060006003600084815260200190815260200160002060060154145b9050919050565b600042861161021e576040517f08c379a0000000000000000000000000000000000000000000000000000000008152600401610215906109ac565b60405180910390fd5b60007f000000000000000000000000000000000000000000000000000000000000000073ffffffffffffffffffffffffffffffffffffffff166372487d52896040518263ffffffff1660e01b81526004016102799190610857565b600060405180830381865afa158015610296573d6000803e3d6000fd5b505050506040513d6000823e3d601f19601f820116820180604052508101906102bf9190610be5565b90506000801b8160000151141561030b576040517f08c379a000000000000000000000000000000000000000000000000000000000815260040161030290610c7a565b60405180910390fd5b60006040518061012001604052806000801b81526020018a81526020018b73ffffffffffffffffffffffffffffffffffffffff1681526020018573ffffffffffffffffffffffffffffffffffffffff1681526020014281526020018981526020016000815260200188815260200187878080601f016020809104026020016040519081016040528093929190818152602001838380828437600081840152601f19601f8201169050808301925050505050505081525090506103cc81610571565b60018190555060015481600001818152505080600360006001548152602001908152602001600020600082015181600001556020820151816001015560408201518160020160006101000a81548173ffffffffffffffffffffffffffffffffffffffff021916908373ffffffffffffffffffffffffffffffffffffffff16021790555060608201518160030160006101000a81548173ffffffffffffffffffffffffffffffffffffffff021916908373ffffffffffffffffffffffffffffffffffffffff1602179055506080820151816004015560a0820151816005015560c0820151816006015560e082015181600701556101008201518160080190805190602001906104db9291906105c8565b50905050600260008154809291906104f290610cc9565b9190505550888473ffffffffffffffffffffffffffffffffffffffff168b73ffffffffffffffffffffffffffffffffffffffff167f8bf46bf4cfd674fa735a3d63ec1c9ad4153f033c290341f3a588b75685141b356001546040516105579190610857565b60405180910390a460015492505050979650505050505050565b600081602001518260400151836060015184608001518560a001518661010001516002546040516020016105ab9796959493929190610de3565b604051602081830303815290604052805190602001209050919050565b8280546105d490610e8f565b90600052602060002090601f0160209004810192826105f6576000855561063d565b82601f1061060f57805160ff191683800117855561063d565b8280016001018555821561063d579182015b8281111561063c578251825591602001919060010190610621565b5b50905061064a919061064e565b5090565b5b8082111561066757600081600090555060010161064f565b5090565b6000604051905090565b600080fd5b600080fd5b600073ffffffffffffffffffffffffffffffffffffffff82169050919050565b60006106aa8261067f565b9050919050565b6106ba8161069f565b81146106c557600080fd5b50565b6000813590506106d7816106b1565b92915050565b6000819050919050565b6106f0816106dd565b81146106fb57600080fd5b50565b60008135905061070d816106e7565b92915050565b6000819050919050565b61072681610713565b811461073157600080fd5b50565b6000813590506107438161071d565b92915050565b600080fd5b600080fd5b600080fd5b60008083601f84011261076e5761076d610749565b5b8235905067ffffffffffffffff81111561078b5761078a61074e565b5b6020830191508360018202830111156107a7576107a6610753565b5b9250929050565b60008060008060008060a087890312156107cb576107ca610675565b5b60006107d989828a016106c8565b96505060206107ea89828a016106fe565b95505060406107fb89828a01610734565b945050606061080c89828a016106fe565b935050608087013567ffffffffffffffff81111561082d5761082c61067a565b5b61083989828a01610758565b92509250509295509295509295565b610851816106dd565b82525050565b600060208201905061086c6000830184610848565b92915050565b60006020828403121561088857610887610675565b5b6000610896848285016106fe565b91505092915050565b60008115159050919050565b6108b48161089f565b82525050565b60006020820190506108cf60008301846108ab565b92915050565b6000819050919050565b60006108fa6108f56108f08461067f565b6108d5565b61067f565b9050919050565b600061090c826108df565b9050919050565b600061091e82610901565b9050919050565b61092e81610913565b82525050565b60006020820190506109496000830184610925565b92915050565b600082825260208201905092915050565b7f496e76616c696445787069726174696f6e54696d650000000000000000000000600082015250565b600061099660158361094f565b91506109a182610960565b602082019050919050565b600060208201905081810360008301526109c581610989565b9050919050565b600080fd5b6000601f19601f8301169050919050565b7f4e487b7100000000000000000000000000000000000000000000000000000000600052604160045260246000fd5b610a1a826109d1565b810181811067ffffffffffffffff82111715610a3957610a386109e2565b5b80604052505050565b6000610a4c61066b565b9050610a588282610a11565b919050565b600080fd5b600081519050610a71816106e7565b92915050565b600081519050610a868161071d565b92915050565b600080fd5b600067ffffffffffffffff821115610aac57610aab6109e2565b5b610ab5826109d1565b9050602081019050919050565b60005b83811015610ae0578082015181840152602081019050610ac5565b83811115610aef576000848401525b50505050565b6000610b08610b0384610a91565b610a42565b905082815260208101848484011115610b2457610b23610a8c565b5b610b2f848285610ac2565b509392505050565b600082601f830112610b4c57610b4b610749565b5b8151610b5c848260208601610af5565b91505092915050565b600060608284031215610b7b57610b7a6109cc565b5b610b856060610a42565b90506000610b9584828501610a62565b6000830152506020610ba984828501610a77565b602083015250604082015167ffffffffffffffff811115610bcd57610bcc610a5d565b5b610bd984828501610b37565b60408301525092915050565b600060208284031215610bfb57610bfa610675565b5b600082015167ffffffffffffffff811115610c1957610c1861067a565b5b610c2584828501610b65565b91505092915050565b7f496e76616c6964536368656d6100000000000000000000000000000000000000600082015250565b6000610c64600d8361094f565b9150610c6f82610c2e565b602082019050919050565b60006020820190508181036000830152610c9381610c57565b9050919050565b7f4e487b7100000000000000000000000000000000000000000000000000000000600052601160045260246000fd5b6000610cd482610713565b91507fffffffffffffffffffffffffffffffffffffffffffffffffffffffffffffffff821415610d0757610d06610c9a565b5b600182019050919050565b6000819050919050565b610d2d610d28826106dd565b610d12565b82525050565b60008160601b9050919050565b6000610d4b82610d33565b9050919050565b6000610d5d82610d40565b9050919050565b610d75610d708261069f565b610d52565b82525050565b6000819050919050565b610d96610d9182610713565b610d7b565b82525050565b600081519050919050565b600081905092915050565b6000610dbd82610d9c565b610dc78185610da7565b9350610dd7818560208601610ac2565b80840191505092915050565b6000610def828a610d1c565b602082019150610dff8289610d64565b601482019150610e0f8288610d64565b601482019150610e1f8287610d85565b602082019150610e2f8286610d85565b602082019150610e3f8285610db2565b9150610e4b8284610d85565b60208201915081905098975050505050505050565b7f4e487b7100000000000000000000000000000000000000000000000000000000600052602260045260246000fd5b60006002820490506001821680610ea757607f821691505b60208210811415610ebb57610eba610e60565b5b5091905056fea2646970667358221220becdb71592b96db301c5e75835a05e5f6136482cfc83acd7f493ea513ff1ddc664736f6c634300080b0033",
  "immutableReferences": {
    "6590": [
      {
        "length": 32,
        "start": 352
      },
      {
        "length": 32,
        "start": 546
      }
    ]
  },
  "source": "// SPDX-License-Identifier: MIT\npragma solidity >=0.4.22 <0.9.0;\n\nimport \"./Constants.sol\";\nimport \"./AttestationRegistry.sol\";\nimport \"./interfaces/IAttestationServices.sol\";\nimport \"./interfaces/IAttestationRegistry.sol\";\n\ncontract AttestationServices {\n    // The AS global registry.\n    IAttestationRegistry private immutable _asRegistry;\n    address AttestationRegistryAddress;\n\n    constructor(IAttestationRegistry registry) {\n        if (address(registry) == address(0x0)) {\n            revert(\"InvalidRegistry\");\n        }\n        _asRegistry = registry;\n        // AttestationRegistryAddress=_asRegistry;\n    }\n\n    struct Attestation {\n        // A unique identifier of the attestation.\n        bytes32 uuid;\n        // A unique identifier of the AS.\n        bytes32 schema;\n        // The recipient of the attestation.\n        address recipient;\n        // The attester/sender of the attestation.\n        address attester;\n        // The time when the attestation was created (Unix timestamp).\n        uint256 time;\n        // The time when the attestation expires (Unix timestamp).\n        uint256 expirationTime;\n        // The time when the attestation was revoked (Unix timestamp).\n        uint256 revocationTime;\n        // The UUID of the related attestation.\n        bytes32 refUUID;\n        // Custom attestation data.\n        bytes data;\n    }\n\n    bytes32 private _lastUUID;\n    // The global counter for the total number of attestations.\n    uint256 private _attestationsCount;\n\n    // The global mapping between attestations and their UUIDs.\n    mapping(bytes32 => Attestation) private _db;\n\n    /**\n     *  Triggered when an attestation has been made.\n     ~recipient The recipient of the attestation.\n     ~attester The attesting account.\n     ~uuid The UUID the revoked attestation.\n     ~schema The UUID of the AS.\n     */\n    event Attested(\n        address indexed recipient,\n        address indexed attester,\n        bytes32 uuid,\n        bytes32 indexed schema\n    );\n\n    function getASRegistry() external view returns (IAttestationRegistry) {\n        return _asRegistry;\n    }\n\n    function attest(\n        address recipient,\n        bytes32 schema,\n        uint256 expirationTime,\n        bytes32 refUUID,\n        bytes calldata data\n    ) public payable virtual returns (bytes32) {\n        return\n            _attest(\n                recipient,\n                schema,\n                expirationTime,\n                refUUID,\n                data,\n                msg.sender\n            );\n    }\n\n    function _attest(\n        address recipient,\n        bytes32 schema,\n        uint256 expirationTime,\n        bytes32 refUUID,\n        bytes calldata data,\n        address attester\n    ) private returns (bytes32) {\n        if (expirationTime <= block.timestamp) {\n            revert(\"InvalidExpirationTime\");\n        }\n\n        IAttestationRegistry.ASRecord memory asRecord = _asRegistry.getAS(\n            schema\n        );\n        if (asRecord.uuid == EMPTY_UUID) {\n            revert(\"InvalidSchema\");\n        }\n\n        Attestation memory attestation = Attestation({\n            uuid: EMPTY_UUID,\n            schema: schema,\n            recipient: recipient,\n            attester: attester,\n            time: block.timestamp,\n            expirationTime: expirationTime,\n            revocationTime: 0,\n            refUUID: refUUID,\n            data: data\n        });\n\n        _lastUUID = _getUUID(attestation);\n        attestation.uuid = _lastUUID;\n\n        _db[_lastUUID] = attestation;\n        _attestationsCount++;\n\n        emit Attested(recipient, attester, _lastUUID, schema);\n\n        return _lastUUID;\n    }\n\n    function _getUUID(Attestation memory attestation)\n        private\n        view\n        returns (bytes32)\n    {\n        return\n            keccak256(\n                abi.encodePacked(\n                    attestation.schema,\n                    attestation.recipient,\n                    attestation.attester,\n                    attestation.time,\n                    attestation.expirationTime,\n                    attestation.data,\n                    _attestationsCount\n                )\n            );\n    }\n\n    function isAddressActive(bytes32 uuid) public view returns (bool) {\n        return\n            isAddressValid(uuid) &&\n            _db[uuid].expirationTime >= block.timestamp &&\n            _db[uuid].revocationTime == 0;\n    }\n\n    function isAddressValid(bytes32 uuid) public view returns (bool) {\n        return _db[uuid].uuid != 0;\n    }\n}\n\n// 2= 0x64AC4bFDcB0304928be139710F653042AdF4534e\n// 0xD7ACd2a9FD159E69Bb102A1ca21C9a3e3A5F771B\n",
  "sourcePath": "/Users/sanskarkhare/Desktop/Pandora/aconomy-pool-v1/contracts/AttestationServices.sol",
  "compiler": {
    "name": "solc",
    "version": "0.8.11+commit.d7f03943.Emscripten.clang"
  },
  "schemaVersion": "3.4.4",
  "updatedAt": "2023-01-29T17:54:35.741Z",
  "networkType": "ethereum",
  "devdoc": {
    "kind": "dev",
    "methods": {},
    "version": 1
  },
  "userdoc": {
    "events": {
      "Attested(address,address,bytes32,bytes32)": {
        "notice": "Triggered when an attestation has been made. ~recipient The recipient of the attestation. ~attester The attesting account. ~uuid The UUID the revoked attestation. ~schema The UUID of the AS."
      }
    },
    "kind": "user",
    "methods": {},
    "version": 1
  }
}