{
  "contractName": "AttestationRegistry",
  "abi": [
    {
      "anonymous": false,
      "inputs": [
        {
          "indexed": true,
          "internalType": "bytes32",
          "name": "uuid",
          "type": "bytes32"
        },
        {
          "indexed": true,
          "internalType": "uint256",
          "name": "index",
          "type": "uint256"
        },
        {
          "indexed": false,
          "internalType": "bytes",
          "name": "schema",
          "type": "bytes"
        },
        {
          "indexed": false,
          "internalType": "address",
          "name": "attester",
          "type": "address"
        }
      ],
      "name": "Registered",
      "type": "event"
    },
    {
      "inputs": [
        {
          "internalType": "bytes32",
          "name": "",
          "type": "bytes32"
        }
      ],
      "name": "_registry",
      "outputs": [
        {
          "internalType": "bytes32",
          "name": "uuid",
          "type": "bytes32"
        },
        {
          "internalType": "uint256",
          "name": "index",
          "type": "uint256"
        },
        {
          "internalType": "bytes",
          "name": "schema",
          "type": "bytes"
        }
      ],
      "stateMutability": "view",
      "type": "function",
      "constant": true
    },
    {
      "inputs": [
        {
          "internalType": "bytes",
          "name": "schema",
          "type": "bytes"
        }
      ],
      "name": "register",
      "outputs": [
        {
          "internalType": "bytes32",
          "name": "",
          "type": "bytes32"
        }
      ],
      "stateMutability": "nonpayable",
      "type": "function"
    },
    {
      "inputs": [
        {
          "internalType": "bytes32",
          "name": "uuid",
          "type": "bytes32"
        }
      ],
      "name": "getAS",
      "outputs": [
        {
          "components": [
            {
              "internalType": "bytes32",
              "name": "uuid",
              "type": "bytes32"
            },
            {
              "internalType": "uint256",
              "name": "index",
              "type": "uint256"
            },
            {
              "internalType": "bytes",
              "name": "schema",
              "type": "bytes"
            }
          ],
          "internalType": "struct IAttestationRegistry.ASRecord",
          "name": "",
          "type": "tuple"
        }
      ],
      "stateMutability": "view",
      "type": "function",
      "constant": true
    }
  ],
  "bytecode": "0x608060405234801561001057600080fd5b50610a79806100206000396000f3fe608060405234801561001057600080fd5b50600436106100415760003560e01c806372487d521461004657806382fbdc9c14610076578063fa6f1dc3146100a6575b600080fd5b610060600480360381019061005b9190610518565b6100d8565b60405161006d9190610656565b60405180910390f35b610090600480360381019061008b91906106dd565b6101aa565b60405161009d9190610739565b60405180910390f35b6100c060048036038101906100bb9190610518565b61032b565b6040516100cf939291906107ad565b60405180910390f35b6100e0610411565b60008083815260200190815260200160002060405180606001604052908160008201548152602001600182015481526020016002820180546101219061081a565b80601f016020809104026020016040519081016040528092919081815260200182805461014d9061081a565b801561019a5780601f1061016f5761010080835404028352916020019161019a565b820191906000526020600020905b81548152906001019060200180831161017d57829003601f168201915b5050505050815250509050919050565b6000806001600081546101bc9061087b565b9190508190559050600060405180606001604052806000801b815260200183815260200186868080601f016020809104026020016040519081016040528093929190818152602001838380828437600081840152601f19601f8201169050808301925050505050505081525090506000610235826103dd565b90506000801b6000808381526020019081526020016000206000015414610291576040517f08c379a000000000000000000000000000000000000000000000000000000000815260040161028890610921565b60405180910390fd5b8082600001818152505081600080838152602001908152602001600020600082015181600001556020820151816001015560408201518160020190805190602001906102de929190610435565b5090505082817fbf98b1465a8e9be3ba9c4c4961cade00b8ee16522d23f19068efa38f2769f141888833604051610317939291906109be565b60405180910390a380935050505092915050565b600060205280600052604060002060009150905080600001549080600101549080600201805461035a9061081a565b80601f01602080910402602001604051908101604052809291908181526020018280546103869061081a565b80156103d35780601f106103a8576101008083540402835291602001916103d3565b820191906000526020600020905b8154815290600101906020018083116103b657829003601f168201915b5050505050905083565b600081604001516040516020016103f49190610a2c565b604051602081830303815290604052805190602001209050919050565b60405180606001604052806000801916815260200160008152602001606081525090565b8280546104419061081a565b90600052602060002090601f01602090048101928261046357600085556104aa565b82601f1061047c57805160ff19168380011785556104aa565b828001600101855582156104aa579182015b828111156104a957825182559160200191906001019061048e565b5b5090506104b791906104bb565b5090565b5b808211156104d45760008160009055506001016104bc565b5090565b600080fd5b600080fd5b6000819050919050565b6104f5816104e2565b811461050057600080fd5b50565b600081359050610512816104ec565b92915050565b60006020828403121561052e5761052d6104d8565b5b600061053c84828501610503565b91505092915050565b61054e816104e2565b82525050565b6000819050919050565b61056781610554565b82525050565b600081519050919050565b600082825260208201905092915050565b60005b838110156105a757808201518184015260208101905061058c565b838111156105b6576000848401525b50505050565b6000601f19601f8301169050919050565b60006105d88261056d565b6105e28185610578565b93506105f2818560208601610589565b6105fb816105bc565b840191505092915050565b600060608301600083015161061e6000860182610545565b506020830151610631602086018261055e565b506040830151848203604086015261064982826105cd565b9150508091505092915050565b600060208201905081810360008301526106708184610606565b905092915050565b600080fd5b600080fd5b600080fd5b60008083601f84011261069d5761069c610678565b5b8235905067ffffffffffffffff8111156106ba576106b961067d565b5b6020830191508360018202830111156106d6576106d5610682565b5b9250929050565b600080602083850312156106f4576106f36104d8565b5b600083013567ffffffffffffffff811115610712576107116104dd565b5b61071e85828601610687565b92509250509250929050565b610733816104e2565b82525050565b600060208201905061074e600083018461072a565b92915050565b61075d81610554565b82525050565b600082825260208201905092915050565b600061077f8261056d565b6107898185610763565b9350610799818560208601610589565b6107a2816105bc565b840191505092915050565b60006060820190506107c2600083018661072a565b6107cf6020830185610754565b81810360408301526107e18184610774565b9050949350505050565b7f4e487b7100000000000000000000000000000000000000000000000000000000600052602260045260246000fd5b6000600282049050600182168061083257607f821691505b60208210811415610846576108456107eb565b5b50919050565b7f4e487b7100000000000000000000000000000000000000000000000000000000600052601160045260246000fd5b600061088682610554565b91507fffffffffffffffffffffffffffffffffffffffffffffffffffffffffffffffff8214156108b9576108b861084c565b5b600182019050919050565b600082825260208201905092915050565b7f416c726561647945786973747300000000000000000000000000000000000000600082015250565b600061090b600d836108c4565b9150610916826108d5565b602082019050919050565b6000602082019050818103600083015261093a816108fe565b9050919050565b82818337600083830152505050565b600061095c8385610763565b9350610969838584610941565b610972836105bc565b840190509392505050565b600073ffffffffffffffffffffffffffffffffffffffff82169050919050565b60006109a88261097d565b9050919050565b6109b88161099d565b82525050565b600060408201905081810360008301526109d9818587610950565b90506109e860208301846109af565b949350505050565b600081905092915050565b6000610a068261056d565b610a1081856109f0565b9350610a20818560208601610589565b80840191505092915050565b6000610a3882846109fb565b91508190509291505056fea2646970667358221220ee824fed0ab576dcacc098e582cad2ee67ea3351bad1088579b651a18844eb1664736f6c634300080b0033",
  "immutableReferences": {},
  "source": "// SPDX-License-Identifier: MIT\npragma solidity >=0.4.22 <0.9.0;\n\nimport \"./Constants.sol\";\nimport \"./interfaces/IAttestationServices.sol\";\nimport \"./interfaces/IAttestationRegistry.sol\";\n\ncontract AttestationRegistry is IAttestationRegistry {\n    // The global mapping between AS records and their IDs.\n    // mapping(bytes32 => ASRecord) private _registry;\n    mapping(bytes32 => ASRecord) public _registry;\n    event Registered(\n        bytes32 indexed uuid,\n        uint256 indexed index,\n        bytes schema,\n        address attester\n    );\n\n    uint256 private _asCount;\n\n    function register(bytes calldata schema)\n        external\n        override\n        returns (bytes32)\n    {\n        uint256 index = ++_asCount;\n\n        ASRecord memory asRecord = ASRecord({\n            uuid: EMPTY_UUID,\n            index: index,\n            schema: schema\n        });\n\n        bytes32 uuid = _getUUID(asRecord);\n        if (_registry[uuid].uuid != EMPTY_UUID) {\n            revert(\"AlreadyExists\");\n        }\n\n        asRecord.uuid = uuid;\n        _registry[uuid] = asRecord;\n\n        emit Registered(uuid, index, schema, msg.sender);\n\n        return uuid;\n    }\n\n    function _getUUID(ASRecord memory asRecord) private pure returns (bytes32) {\n        return keccak256(abi.encodePacked(asRecord.schema));\n    }\n\n    function getAS(bytes32 uuid)\n        external\n        view\n        override\n        returns (ASRecord memory)\n    {\n        return _registry[uuid];\n    }\n}\n\n// 1 = 0x905Ea6c3F2a570477C028a201c037c3ba24D0cd6\n",
  "sourcePath": "/Users/sanskarkhare/Desktop/Pandora/aconomy-pool-v1/contracts/AttestationRegistry.sol",
  "compiler": {
    "name": "solc",
    "version": "0.8.11+commit.d7f03943.Emscripten.clang"
  },
  "schemaVersion": "3.4.4",
  "updatedAt": "2023-01-25T11:57:05.679Z",
  "networkType": "ethereum",
  "devdoc": {
    "kind": "dev",
    "methods": {},
    "version": 1
  },
  "userdoc": {
    "kind": "user",
    "methods": {},
    "version": 1
  }
}