{
  "contractName": "AttestationServices",
  "abi": [
    {
      "inputs": [
        {
          "internalType": "contract IAttestationRegistry",
          "name": "registry",
          "type": "address"
        }
      ],
      "stateMutability": "nonpayable",
      "type": "constructor"
    },
    {
      "anonymous": false,
      "inputs": [
        {
          "indexed": true,
          "internalType": "address",
          "name": "recipient",
          "type": "address"
        },
        {
          "indexed": true,
          "internalType": "address",
          "name": "attester",
          "type": "address"
        },
        {
          "indexed": false,
          "internalType": "bytes32",
          "name": "uuid",
          "type": "bytes32"
        },
        {
          "indexed": true,
          "internalType": "bytes32",
          "name": "schema",
          "type": "bytes32"
        }
      ],
      "name": "Attested",
      "type": "event"
    },
    {
      "inputs": [],
      "name": "getASRegistry",
      "outputs": [
        {
          "internalType": "contract IAttestationRegistry",
          "name": "",
          "type": "address"
        }
      ],
      "stateMutability": "view",
      "type": "function"
    },
    {
      "inputs": [
        {
          "internalType": "address",
          "name": "recipient",
          "type": "address"
        },
        {
          "internalType": "bytes32",
          "name": "schema",
          "type": "bytes32"
        },
        {
          "internalType": "uint256",
          "name": "expirationTime",
          "type": "uint256"
        },
        {
          "internalType": "bytes",
          "name": "data",
          "type": "bytes"
        }
      ],
      "name": "attest",
      "outputs": [
        {
          "internalType": "bytes32",
          "name": "",
          "type": "bytes32"
        }
      ],
      "stateMutability": "nonpayable",
      "type": "function"
    },
    {
      "inputs": [
        {
          "internalType": "bytes32",
          "name": "uuid",
          "type": "bytes32"
        }
      ],
      "name": "isAddressActive",
      "outputs": [
        {
          "internalType": "bool",
          "name": "",
          "type": "bool"
        }
      ],
      "stateMutability": "view",
      "type": "function"
    },
    {
      "inputs": [
        {
          "internalType": "bytes32",
          "name": "uuid",
          "type": "bytes32"
        }
      ],
      "name": "isAddressValid",
      "outputs": [
        {
          "internalType": "bool",
          "name": "",
          "type": "bool"
        }
      ],
      "stateMutability": "view",
      "type": "function"
    }
  ],
  "bytecode": "0x60a06040523480156200001157600080fd5b50604051620010e8380380620010e8833981810160405281019062000037919062000163565b600073ffffffffffffffffffffffffffffffffffffffff168173ffffffffffffffffffffffffffffffffffffffff161415620000aa576040517f08c379a0000000000000000000000000000000000000000000000000000000008152600401620000a190620001f6565b60405180910390fd5b8073ffffffffffffffffffffffffffffffffffffffff1660808173ffffffffffffffffffffffffffffffffffffffff16815250505062000218565b600080fd5b600073ffffffffffffffffffffffffffffffffffffffff82169050919050565b60006200011782620000ea565b9050919050565b60006200012b826200010a565b9050919050565b6200013d816200011e565b81146200014957600080fd5b50565b6000815190506200015d8162000132565b92915050565b6000602082840312156200017c576200017b620000e5565b5b60006200018c848285016200014c565b91505092915050565b600082825260208201905092915050565b7f496e76616c696452656769737472790000000000000000000000000000000000600082015250565b6000620001de600f8362000195565b9150620001eb82620001a6565b602082019050919050565b600060208201905081810360008301526200021181620001cf565b9050919050565b608051610ead6200023b6000396000818161014401526102060152610ead6000f3fe608060405234801561001057600080fd5b506004361061004c5760003560e01c806319db53ef146100515780631e892bf31461008157806381fa6cd3146100b1578063e56d679b146100cf575b600080fd5b61006b6004803603810190610066919061067d565b6100ff565b60405161007891906106c5565b60405180910390f35b61009b600480360381019061009691906107d9565b610125565b6040516100a89190610870565b60405180910390f35b6100b9610140565b6040516100c691906108ea565b60405180910390f35b6100e960048036038101906100e4919061067d565b610168565b6040516100f691906106c5565b60405180910390f35b60008060001b600260008481526020019081526020016000206000015414159050919050565b60006101358686868686336101be565b905095945050505050565b60007f0000000000000000000000000000000000000000000000000000000000000000905090565b6000610173826100ff565b8015610195575042600260008481526020019081526020016000206005015410155b80156101b7575060006002600084815260200190815260200160002060060154145b9050919050565b6000428511610202576040517f08c379a00000000000000000000000000000000000000000000000000000000081526004016101f990610962565b60405180910390fd5b60007f000000000000000000000000000000000000000000000000000000000000000073ffffffffffffffffffffffffffffffffffffffff166372487d52886040518263ffffffff1660e01b815260040161025d9190610870565b600060405180830381865afa15801561027a573d6000803e3d6000fd5b505050506040513d6000823e3d601f19601f820116820180604052508101906102a39190610b9b565b90506000801b816000015114156102ef576040517f08c379a00000000000000000000000000000000000000000000000000000000081526004016102e690610c30565b60405180910390fd5b60006040518061010001604052806000801b81526020018981526020018a73ffffffffffffffffffffffffffffffffffffffff1681526020018573ffffffffffffffffffffffffffffffffffffffff1681526020014281526020018881526020016000815260200187878080601f016020809104026020016040519081016040528093929190818152602001838380828437600081840152601f19601f82011690508083019250505050505050815250905060006103ac8261053a565b9050808260000181815250508160026000838152602001908152602001600020600082015181600001556020820151816001015560408201518160020160006101000a81548173ffffffffffffffffffffffffffffffffffffffff021916908373ffffffffffffffffffffffffffffffffffffffff16021790555060608201518160030160006101000a81548173ffffffffffffffffffffffffffffffffffffffff021916908373ffffffffffffffffffffffffffffffffffffffff1602179055506080820151816004015560a0820151816005015560c0820151816006015560e08201518160070190805190602001906104a8929190610590565b50905050600160008154809291906104bf90610c7f565b9190505550888573ffffffffffffffffffffffffffffffffffffffff168b73ffffffffffffffffffffffffffffffffffffffff167f8bf46bf4cfd674fa735a3d63ec1c9ad4153f033c290341f3a588b75685141b35846040516105229190610870565b60405180910390a48093505050509695505050505050565b600081602001518260400151836060015184608001518560a001518660e001516001546040516020016105739796959493929190610d99565b604051602081830303815290604052805190602001209050919050565b82805461059c90610e45565b90600052602060002090601f0160209004810192826105be5760008555610605565b82601f106105d757805160ff1916838001178555610605565b82800160010185558215610605579182015b828111156106045782518255916020019190600101906105e9565b5b5090506106129190610616565b5090565b5b8082111561062f576000816000905550600101610617565b5090565b6000604051905090565b600080fd5b600080fd5b6000819050919050565b61065a81610647565b811461066557600080fd5b50565b60008135905061067781610651565b92915050565b6000602082840312156106935761069261063d565b5b60006106a184828501610668565b91505092915050565b60008115159050919050565b6106bf816106aa565b82525050565b60006020820190506106da60008301846106b6565b92915050565b600073ffffffffffffffffffffffffffffffffffffffff82169050919050565b600061070b826106e0565b9050919050565b61071b81610700565b811461072657600080fd5b50565b60008135905061073881610712565b92915050565b6000819050919050565b6107518161073e565b811461075c57600080fd5b50565b60008135905061076e81610748565b92915050565b600080fd5b600080fd5b600080fd5b60008083601f84011261079957610798610774565b5b8235905067ffffffffffffffff8111156107b6576107b5610779565b5b6020830191508360018202830111156107d2576107d161077e565b5b9250929050565b6000806000806000608086880312156107f5576107f461063d565b5b600061080388828901610729565b955050602061081488828901610668565b94505060406108258882890161075f565b935050606086013567ffffffffffffffff81111561084657610845610642565b5b61085288828901610783565b92509250509295509295909350565b61086a81610647565b82525050565b60006020820190506108856000830184610861565b92915050565b6000819050919050565b60006108b06108ab6108a6846106e0565b61088b565b6106e0565b9050919050565b60006108c282610895565b9050919050565b60006108d4826108b7565b9050919050565b6108e4816108c9565b82525050565b60006020820190506108ff60008301846108db565b92915050565b600082825260208201905092915050565b7f496e76616c696445787069726174696f6e54696d650000000000000000000000600082015250565b600061094c601583610905565b915061095782610916565b602082019050919050565b6000602082019050818103600083015261097b8161093f565b9050919050565b600080fd5b6000601f19601f8301169050919050565b7f4e487b7100000000000000000000000000000000000000000000000000000000600052604160045260246000fd5b6109d082610987565b810181811067ffffffffffffffff821117156109ef576109ee610998565b5b80604052505050565b6000610a02610633565b9050610a0e82826109c7565b919050565b600080fd5b600081519050610a2781610651565b92915050565b600081519050610a3c81610748565b92915050565b600080fd5b600067ffffffffffffffff821115610a6257610a61610998565b5b610a6b82610987565b9050602081019050919050565b60005b83811015610a96578082015181840152602081019050610a7b565b83811115610aa5576000848401525b50505050565b6000610abe610ab984610a47565b6109f8565b905082815260208101848484011115610ada57610ad9610a42565b5b610ae5848285610a78565b509392505050565b600082601f830112610b0257610b01610774565b5b8151610b12848260208601610aab565b91505092915050565b600060608284031215610b3157610b30610982565b5b610b3b60606109f8565b90506000610b4b84828501610a18565b6000830152506020610b5f84828501610a2d565b602083015250604082015167ffffffffffffffff811115610b8357610b82610a13565b5b610b8f84828501610aed565b60408301525092915050565b600060208284031215610bb157610bb061063d565b5b600082015167ffffffffffffffff811115610bcf57610bce610642565b5b610bdb84828501610b1b565b91505092915050565b7f496e76616c6964536368656d6100000000000000000000000000000000000000600082015250565b6000610c1a600d83610905565b9150610c2582610be4565b602082019050919050565b60006020820190508181036000830152610c4981610c0d565b9050919050565b7f4e487b7100000000000000000000000000000000000000000000000000000000600052601160045260246000fd5b6000610c8a8261073e565b91507fffffffffffffffffffffffffffffffffffffffffffffffffffffffffffffffff821415610cbd57610cbc610c50565b5b600182019050919050565b6000819050919050565b610ce3610cde82610647565b610cc8565b82525050565b60008160601b9050919050565b6000610d0182610ce9565b9050919050565b6000610d1382610cf6565b9050919050565b610d2b610d2682610700565b610d08565b82525050565b6000819050919050565b610d4c610d478261073e565b610d31565b82525050565b600081519050919050565b600081905092915050565b6000610d7382610d52565b610d7d8185610d5d565b9350610d8d818560208601610a78565b80840191505092915050565b6000610da5828a610cd2565b602082019150610db58289610d1a565b601482019150610dc58288610d1a565b601482019150610dd58287610d3b565b602082019150610de58286610d3b565b602082019150610df58285610d68565b9150610e018284610d3b565b60208201915081905098975050505050505050565b7f4e487b7100000000000000000000000000000000000000000000000000000000600052602260045260246000fd5b60006002820490506001821680610e5d57607f821691505b60208210811415610e7157610e70610e16565b5b5091905056fea2646970667358221220363b2d0e88dba1f1c430e2802f9431a7a29939c193adc566c8799e7370bfe66c64736f6c634300080b0033",
  "immutableReferences": {
    "9579": [
      {
        "length": 32,
        "start": 324
      },
      {
        "length": 32,
        "start": 518
      }
    ]
  },
  "source": "// SPDX-License-Identifier: MIT\npragma solidity >=0.4.22 <0.9.0;\n\nimport \"./AttestationRegistry.sol\";\nimport \"./interfaces/IAttestationServices.sol\";\nimport \"./interfaces/IAttestationRegistry.sol\";\n\ncontract AttestationServices {\n    // The AS global registry.\n    IAttestationRegistry private immutable _asRegistry;\n    address AttestationRegistryAddress;\n\n    constructor(IAttestationRegistry registry) {\n        if (address(registry) == address(0x0)) {\n            revert(\"InvalidRegistry\");\n        }\n        _asRegistry = registry;\n        // AttestationRegistryAddress=_asRegistry;\n    }\n\n    struct Attestation {\n        // A unique identifier of the attestation.\n        bytes32 uuid;\n        // A unique identifier of the AS.\n        bytes32 schema;\n        // The recipient of the attestation.\n        address recipient;\n        // The attester/sender of the attestation.\n        address attester;\n        // The time when the attestation was created (Unix timestamp).\n        uint256 time;\n        // The time when the attestation expires (Unix timestamp).\n        uint256 expirationTime;\n        // The time when the attestation was revoked (Unix timestamp).\n        uint256 revocationTime;\n        // Custom attestation data.\n        bytes data;\n    }\n\n    // The global counter for the total number of attestations.\n    uint256 private _attestationsCount;\n\n    bytes32 private constant EMPTY_UUID = 0;\n\n    // The global mapping between attestations and their UUIDs.\n    mapping(bytes32 => Attestation) private _db;\n\n    /**\n     *  Triggered when an attestation has been made.\n     ~recipient The recipient of the attestation.\n     ~attester The attesting account.\n     ~uuid The UUID the revoked attestation.\n     ~schema The UUID of the AS.\n     */\n    event Attested(\n        address indexed recipient,\n        address indexed attester,\n        bytes32 uuid,\n        bytes32 indexed schema\n    );\n\n    function getASRegistry() external view returns (IAttestationRegistry) {\n        return _asRegistry;\n    }\n\n    function attest(\n        address recipient,\n        bytes32 schema,\n        uint256 expirationTime,\n        bytes calldata data\n    ) public virtual returns (bytes32) {\n        return _attest(recipient, schema, expirationTime, data, msg.sender);\n    }\n\n    function _attest(\n        address recipient,\n        bytes32 schema,\n        uint256 expirationTime,\n        bytes calldata data,\n        address attester\n    ) private returns (bytes32) {\n        if (expirationTime <= block.timestamp) {\n            revert(\"InvalidExpirationTime\");\n        }\n\n        IAttestationRegistry.ASRecord memory asRecord = _asRegistry.getAS(\n            schema\n        );\n        if (asRecord.uuid == EMPTY_UUID) {\n            revert(\"InvalidSchema\");\n        }\n\n        Attestation memory attestation = Attestation({\n            uuid: EMPTY_UUID,\n            schema: schema,\n            recipient: recipient,\n            attester: attester,\n            time: block.timestamp,\n            expirationTime: expirationTime,\n            revocationTime: 0,\n            data: data\n        });\n\n        bytes32 _lastUUID;\n        _lastUUID = _getUUID(attestation);\n        attestation.uuid = _lastUUID;\n\n        _db[_lastUUID] = attestation;\n        _attestationsCount++;\n\n        emit Attested(recipient, attester, _lastUUID, schema);\n\n        return _lastUUID;\n    }\n\n    function _getUUID(Attestation memory attestation)\n        private\n        view\n        returns (bytes32)\n    {\n        return\n            keccak256(\n                abi.encodePacked(\n                    attestation.schema,\n                    attestation.recipient,\n                    attestation.attester,\n                    attestation.time,\n                    attestation.expirationTime,\n                    attestation.data,\n                    _attestationsCount\n                )\n            );\n    }\n\n    function isAddressActive(bytes32 uuid) public view returns (bool) {\n        return\n            isAddressValid(uuid) &&\n            _db[uuid].expirationTime >= block.timestamp &&\n            _db[uuid].revocationTime == 0;\n    }\n\n    function isAddressValid(bytes32 uuid) public view returns (bool) {\n        return _db[uuid].uuid != 0;\n    }\n}\n",
  "sourcePath": "/home/sheeshco/code/truffle/aconomy-contract/contracts/AttestationServices.sol",
  "compiler": {
    "name": "solc",
    "version": "0.8.11+commit.d7f03943.Emscripten.clang"
  },
  "schemaVersion": "3.4.10",
  "updatedAt": "2023-03-21T07:02:45.380Z",
  "devdoc": {
    "kind": "dev",
    "methods": {},
    "version": 1
  },
  "userdoc": {
    "events": {
      "Attested(address,address,bytes32,bytes32)": {
        "notice": "Triggered when an attestation has been made. ~recipient The recipient of the attestation. ~attester The attesting account. ~uuid The UUID the revoked attestation. ~schema The UUID of the AS."
      }
    },
    "kind": "user",
    "methods": {},
    "version": 1
  }
}