{
  "contractName": "AttestationServices",
  "abi": [
    {
      "inputs": [
        {
          "internalType": "contract IAttestationRegistry",
          "name": "registry",
          "type": "address"
        }
      ],
      "stateMutability": "nonpayable",
      "type": "constructor"
    },
    {
      "anonymous": false,
      "inputs": [
        {
          "indexed": true,
          "internalType": "address",
          "name": "recipient",
          "type": "address"
        },
        {
          "indexed": true,
          "internalType": "address",
          "name": "attester",
          "type": "address"
        },
        {
          "indexed": false,
          "internalType": "bytes32",
          "name": "uuid",
          "type": "bytes32"
        },
        {
          "indexed": true,
          "internalType": "bytes32",
          "name": "schema",
          "type": "bytes32"
        }
      ],
      "name": "Attested",
      "type": "event"
    },
    {
      "anonymous": false,
      "inputs": [
        {
          "indexed": true,
          "internalType": "address",
          "name": "recipient",
          "type": "address"
        },
        {
          "indexed": true,
          "internalType": "address",
          "name": "attester",
          "type": "address"
        },
        {
          "indexed": false,
          "internalType": "bytes32",
          "name": "uuid",
          "type": "bytes32"
        },
        {
          "indexed": true,
          "internalType": "bytes32",
          "name": "schema",
          "type": "bytes32"
        }
      ],
      "name": "Revoked",
      "type": "event"
    },
    {
      "inputs": [],
      "name": "getASRegistry",
      "outputs": [
        {
          "internalType": "contract IAttestationRegistry",
          "name": "",
          "type": "address"
        }
      ],
      "stateMutability": "view",
      "type": "function"
    },
    {
      "inputs": [
        {
          "internalType": "address",
          "name": "recipient",
          "type": "address"
        },
        {
          "internalType": "bytes32",
          "name": "schema",
          "type": "bytes32"
        },
        {
          "internalType": "bytes",
          "name": "data",
          "type": "bytes"
        }
      ],
      "name": "attest",
      "outputs": [
        {
          "internalType": "bytes32",
          "name": "",
          "type": "bytes32"
        }
      ],
      "stateMutability": "nonpayable",
      "type": "function"
    },
    {
      "inputs": [
        {
          "internalType": "bytes32",
          "name": "uuid",
          "type": "bytes32"
        }
      ],
      "name": "revoke",
      "outputs": [],
      "stateMutability": "nonpayable",
      "type": "function"
    },
    {
      "inputs": [
        {
          "internalType": "bytes32",
          "name": "uuid",
          "type": "bytes32"
        }
      ],
      "name": "isAddressActive",
      "outputs": [
        {
          "internalType": "bool",
          "name": "",
          "type": "bool"
        }
      ],
      "stateMutability": "view",
      "type": "function"
    },
    {
      "inputs": [
        {
          "internalType": "bytes32",
          "name": "uuid",
          "type": "bytes32"
        }
      ],
      "name": "isAddressValid",
      "outputs": [
        {
          "internalType": "bool",
          "name": "",
          "type": "bool"
        }
      ],
      "stateMutability": "view",
      "type": "function"
    }
  ],
  "bytecode": "0x60a06040523480156200001157600080fd5b506040516200131138038062001311833981810160405281019062000037919062000163565b600073ffffffffffffffffffffffffffffffffffffffff168173ffffffffffffffffffffffffffffffffffffffff161415620000aa576040517f08c379a0000000000000000000000000000000000000000000000000000000008152600401620000a190620001f6565b60405180910390fd5b8073ffffffffffffffffffffffffffffffffffffffff1660808173ffffffffffffffffffffffffffffffffffffffff16815250505062000218565b600080fd5b600073ffffffffffffffffffffffffffffffffffffffff82169050919050565b60006200011782620000ea565b9050919050565b60006200012b826200010a565b9050919050565b6200013d816200011e565b81146200014957600080fd5b50565b6000815190506200015d8162000132565b92915050565b6000602082840312156200017c576200017b620000e5565b5b60006200018c848285016200014c565b91505092915050565b600082825260208201905092915050565b7f496e76616c696452656769737472790000000000000000000000000000000000600082015250565b6000620001de600f8362000195565b9150620001eb82620001a6565b602082019050919050565b600060208201905081810360008301526200021181620001cf565b9050919050565b6080516110d66200023b6000396000818161016901526101d301526110d66000f3fe608060405234801561001057600080fd5b50600436106100575760003560e01c806319db53ef1461005c578063702b9dee1461008c57806381fa6cd3146100bc578063b75c7dc6146100da578063e56d679b146100f6575b600080fd5b61007660048036038101906100719190610808565b610126565b6040516100839190610850565b60405180910390f35b6100a660048036038101906100a1919061092e565b61014c565b6040516100b391906109b1565b60405180910390f35b6100c4610165565b6040516100d19190610a2b565b60405180910390f35b6100f460048036038101906100ef9190610808565b61018d565b005b610110600480360381019061010b9190610808565b61019a565b60405161011d9190610850565b60405180910390f35b60008060001b600260008481526020019081526020016000206000015414159050919050565b600061015b85858585336101ce565b9050949350505050565b60007f0000000000000000000000000000000000000000000000000000000000000000905090565b61019781336104f5565b50565b60006101a582610126565b80156101c7575060006002600084815260200190815260200160002060050154145b9050919050565b6000807f000000000000000000000000000000000000000000000000000000000000000073ffffffffffffffffffffffffffffffffffffffff166372487d52876040518263ffffffff1660e01b815260040161022a91906109b1565b600060405180830381865afa158015610247573d6000803e3d6000fd5b505050506040513d6000823e3d601f19601f820116820180604052508101906102709190610c80565b90506000801b816000015114156102bc576040517f08c379a00000000000000000000000000000000000000000000000000000000081526004016102b390610d26565b60405180910390fd5b60006040518060e001604052806000801b81526020018881526020018973ffffffffffffffffffffffffffffffffffffffff1681526020018573ffffffffffffffffffffffffffffffffffffffff1681526020014281526020016000815260200187878080601f016020809104026020016040519081016040528093929190818152602001838380828437600081840152601f19601f8201169050808301925050505050505081525090506000610372826106cb565b9050808260000181815250508160026000838152602001908152602001600020600082015181600001556020820151816001015560408201518160020160006101000a81548173ffffffffffffffffffffffffffffffffffffffff021916908373ffffffffffffffffffffffffffffffffffffffff16021790555060608201518160030160006101000a81548173ffffffffffffffffffffffffffffffffffffffff021916908373ffffffffffffffffffffffffffffffffffffffff1602179055506080820151816004015560a0820151816005015560c082015181600601908051906020019061046492919061071b565b509050506001600081548092919061047b90610d75565b9190505550878573ffffffffffffffffffffffffffffffffffffffff168a73ffffffffffffffffffffffffffffffffffffffff167f8bf46bf4cfd674fa735a3d63ec1c9ad4153f033c290341f3a588b75685141b35846040516104de91906109b1565b60405180910390a480935050505095945050505050565b60006002600084815260200190815260200160002090506000801b81600001541415610556576040517f08c379a000000000000000000000000000000000000000000000000000000000815260040161054d90610e0a565b60405180910390fd5b8173ffffffffffffffffffffffffffffffffffffffff168160030160009054906101000a900473ffffffffffffffffffffffffffffffffffffffff1673ffffffffffffffffffffffffffffffffffffffff16146105e8576040517f08c379a00000000000000000000000000000000000000000000000000000000081526004016105df90610e76565b60405180910390fd5b600081600501541461062f576040517f08c379a000000000000000000000000000000000000000000000000000000000815260040161062690610ee2565b60405180910390fd5b42816005018190555080600101548273ffffffffffffffffffffffffffffffffffffffff168260020160009054906101000a900473ffffffffffffffffffffffffffffffffffffffff1673ffffffffffffffffffffffffffffffffffffffff167ff930a6e2523c9cc298691873087a740550b8fc85a0680830414c148ed927f615866040516106be91906109b1565b60405180910390a4505050565b600081602001518260400151836060015184608001518560c001516001546040516020016106fe96959493929190610fd3565b604051602081830303815290604052805190602001209050919050565b8280546107279061106e565b90600052602060002090601f0160209004810192826107495760008555610790565b82601f1061076257805160ff1916838001178555610790565b82800160010185558215610790579182015b8281111561078f578251825591602001919060010190610774565b5b50905061079d91906107a1565b5090565b5b808211156107ba5760008160009055506001016107a2565b5090565b6000604051905090565b600080fd5b600080fd5b6000819050919050565b6107e5816107d2565b81146107f057600080fd5b50565b600081359050610802816107dc565b92915050565b60006020828403121561081e5761081d6107c8565b5b600061082c848285016107f3565b91505092915050565b60008115159050919050565b61084a81610835565b82525050565b60006020820190506108656000830184610841565b92915050565b600073ffffffffffffffffffffffffffffffffffffffff82169050919050565b60006108968261086b565b9050919050565b6108a68161088b565b81146108b157600080fd5b50565b6000813590506108c38161089d565b92915050565b600080fd5b600080fd5b600080fd5b60008083601f8401126108ee576108ed6108c9565b5b8235905067ffffffffffffffff81111561090b5761090a6108ce565b5b602083019150836001820283011115610927576109266108d3565b5b9250929050565b60008060008060608587031215610948576109476107c8565b5b6000610956878288016108b4565b9450506020610967878288016107f3565b935050604085013567ffffffffffffffff811115610988576109876107cd565b5b610994878288016108d8565b925092505092959194509250565b6109ab816107d2565b82525050565b60006020820190506109c660008301846109a2565b92915050565b6000819050919050565b60006109f16109ec6109e78461086b565b6109cc565b61086b565b9050919050565b6000610a03826109d6565b9050919050565b6000610a15826109f8565b9050919050565b610a2581610a0a565b82525050565b6000602082019050610a406000830184610a1c565b92915050565b600080fd5b6000601f19601f8301169050919050565b7f4e487b7100000000000000000000000000000000000000000000000000000000600052604160045260246000fd5b610a9482610a4b565b810181811067ffffffffffffffff82111715610ab357610ab2610a5c565b5b80604052505050565b6000610ac66107be565b9050610ad28282610a8b565b919050565b600080fd5b600081519050610aeb816107dc565b92915050565b6000819050919050565b610b0481610af1565b8114610b0f57600080fd5b50565b600081519050610b2181610afb565b92915050565b600080fd5b600067ffffffffffffffff821115610b4757610b46610a5c565b5b610b5082610a4b565b9050602081019050919050565b60005b83811015610b7b578082015181840152602081019050610b60565b83811115610b8a576000848401525b50505050565b6000610ba3610b9e84610b2c565b610abc565b905082815260208101848484011115610bbf57610bbe610b27565b5b610bca848285610b5d565b509392505050565b600082601f830112610be757610be66108c9565b5b8151610bf7848260208601610b90565b91505092915050565b600060608284031215610c1657610c15610a46565b5b610c206060610abc565b90506000610c3084828501610adc565b6000830152506020610c4484828501610b12565b602083015250604082015167ffffffffffffffff811115610c6857610c67610ad7565b5b610c7484828501610bd2565b60408301525092915050565b600060208284031215610c9657610c956107c8565b5b600082015167ffffffffffffffff811115610cb457610cb36107cd565b5b610cc084828501610c00565b91505092915050565b600082825260208201905092915050565b7f496e76616c6964536368656d6100000000000000000000000000000000000000600082015250565b6000610d10600d83610cc9565b9150610d1b82610cda565b602082019050919050565b60006020820190508181036000830152610d3f81610d03565b9050919050565b7f4e487b7100000000000000000000000000000000000000000000000000000000600052601160045260246000fd5b6000610d8082610af1565b91507fffffffffffffffffffffffffffffffffffffffffffffffffffffffffffffffff821415610db357610db2610d46565b5b600182019050919050565b7f4e6f7420666f756e640000000000000000000000000000000000000000000000600082015250565b6000610df4600983610cc9565b9150610dff82610dbe565b602082019050919050565b60006020820190508181036000830152610e2381610de7565b9050919050565b7f4163636573732064656e69656400000000000000000000000000000000000000600082015250565b6000610e60600d83610cc9565b9150610e6b82610e2a565b602082019050919050565b60006020820190508181036000830152610e8f81610e53565b9050919050565b7f416c7265616479205265766f6b65640000000000000000000000000000000000600082015250565b6000610ecc600f83610cc9565b9150610ed782610e96565b602082019050919050565b60006020820190508181036000830152610efb81610ebf565b9050919050565b6000819050919050565b610f1d610f18826107d2565b610f02565b82525050565b60008160601b9050919050565b6000610f3b82610f23565b9050919050565b6000610f4d82610f30565b9050919050565b610f65610f608261088b565b610f42565b82525050565b6000819050919050565b610f86610f8182610af1565b610f6b565b82525050565b600081519050919050565b600081905092915050565b6000610fad82610f8c565b610fb78185610f97565b9350610fc7818560208601610b5d565b80840191505092915050565b6000610fdf8289610f0c565b602082019150610fef8288610f54565b601482019150610fff8287610f54565b60148201915061100f8286610f75565b60208201915061101f8285610fa2565b915061102b8284610f75565b602082019150819050979650505050505050565b7f4e487b7100000000000000000000000000000000000000000000000000000000600052602260045260246000fd5b6000600282049050600182168061108657607f821691505b6020821081141561109a5761109961103f565b5b5091905056fea2646970667358221220adf211c154544029d0f974863a8a5fd5cb919354838c22bb5709ff9364b3355864736f6c634300080b0033",
  "immutableReferences": {
    "11045": [
      {
        "length": 32,
        "start": 361
      },
      {
        "length": 32,
        "start": 467
      }
    ]
  },
  "source": "// SPDX-License-Identifier: MIT\npragma solidity 0.8.11;\n\nimport \"./AttestationRegistry.sol\";\nimport \"./interfaces/IAttestationServices.sol\";\nimport \"./interfaces/IAttestationRegistry.sol\";\n\ncontract AttestationServices {\n    // The AS global registry.\n    IAttestationRegistry private immutable _asRegistry;\n    address AttestationRegistryAddress;\n\n    constructor(IAttestationRegistry registry) {\n        if (address(registry) == address(0x0)) {\n            revert(\"InvalidRegistry\");\n        }\n        _asRegistry = registry;\n        // AttestationRegistryAddress=_asRegistry;\n    }\n\n    struct Attestation {\n        // A unique identifier of the attestation.\n        bytes32 uuid;\n        // A unique identifier of the AS.\n        bytes32 schema;\n        // The recipient of the attestation.\n        address recipient;\n        // The attester/sender of the attestation.\n        address attester;\n        // The time when the attestation was created (Unix timestamp).\n        uint256 time;\n        // The time when the attestation was revoked (Unix timestamp).\n        uint256 revocationTime;\n        // Custom attestation data.\n        bytes data;\n    }\n\n    // The global counter for the total number of attestations.\n    uint256 private _attestationsCount;\n\n    bytes32 private constant EMPTY_UUID = 0;\n\n    // The global mapping between attestations and their UUIDs.\n    mapping(bytes32 => Attestation) private _db;\n\n    /**\n     *  Triggered when an attestation has been made.\n     ~recipient The recipient of the attestation.\n     ~attester The attesting account.\n     ~uuid The UUID the revoked attestation.\n     ~schema The UUID of the AS.\n     */\n    event Attested(\n        address indexed recipient,\n        address indexed attester,\n        bytes32 uuid,\n        bytes32 indexed schema\n    );\n\n    event Revoked(\n        address indexed recipient,\n        address indexed attester,\n        bytes32 uuid,\n        bytes32 indexed schema\n    );\n\n    function getASRegistry() external view returns (IAttestationRegistry) {\n        return _asRegistry;\n    }\n\n     /**\n     * @dev Attests to a specific AS.\n     *\n     * @param recipient The recipient of the attestation.\n     * @param schema The UUID of the AS.\n     *\n     * @return The UUID of the new attestation.\n     */\n    function attest(\n        address recipient,\n        bytes32 schema,\n        bytes calldata data\n    ) public virtual returns (bytes32) {\n        return _attest(recipient, schema, data, msg.sender);\n    }\n\n     /**\n     * @dev Revokes an existing attestation to a specific AS.\n     *\n     * @param uuid The UUID of the attestation to revoke.\n     */\n    function revoke(bytes32 uuid) public virtual {\n        _revoke(uuid, msg.sender);\n    }\n\n    function _attest(\n        address recipient,\n        bytes32 schema,\n        bytes calldata data,\n        address attester\n    ) private returns (bytes32) {\n\n        IAttestationRegistry.ASRecord memory asRecord = _asRegistry.getAS(\n            schema\n        );\n        if (asRecord.uuid == EMPTY_UUID) {\n            revert(\"InvalidSchema\");\n        }\n\n        Attestation memory attestation = Attestation({\n            uuid: EMPTY_UUID,\n            schema: schema,\n            recipient: recipient,\n            attester: attester,\n            time: block.timestamp,\n            revocationTime: 0,\n            data: data\n        });\n\n        bytes32 _lastUUID;\n        _lastUUID = _getUUID(attestation);\n        attestation.uuid = _lastUUID;\n\n        _db[_lastUUID] = attestation;\n        _attestationsCount++;\n\n        emit Attested(recipient, attester, _lastUUID, schema);\n\n        return _lastUUID;\n    }\n\n    function _revoke(bytes32 uuid, address attester) private {\n        Attestation storage attestation = _db[uuid];\n        if (attestation.uuid == EMPTY_UUID) {\n            revert(\"Not found\");\n        }\n\n        if (attestation.attester != attester) {\n            revert(\"Access denied\");\n        }\n\n        if (attestation.revocationTime != 0) {\n            revert (\"Already Revoked\");\n        }\n\n        attestation.revocationTime = block.timestamp;\n\n        emit Revoked(attestation.recipient, attester, uuid, attestation.schema);\n    }\n\n    function _getUUID(Attestation memory attestation)\n        private\n        view\n        returns (bytes32)\n    {\n        return\n            keccak256(\n                abi.encodePacked(\n                    attestation.schema,\n                    attestation.recipient,\n                    attestation.attester,\n                    attestation.time,\n                    attestation.data,\n                    _attestationsCount\n                )\n            );\n    }\n\n    /**\n     * @dev Checks whether an attestation is active.\n     *\n     * @param uuid The UUID of the attestation to retrieve.\n     *\n     * @return Whether an attestation is active.\n     */\n    function isAddressActive(bytes32 uuid) public view returns (bool) {\n        return\n            isAddressValid(uuid) &&\n            _db[uuid].revocationTime == 0;\n    }\n\n     /**\n     * @dev Checks whether an attestation exists.\n     *\n     * @param uuid The UUID of the attestation to retrieve.\n     *\n     * @return Whether an attestation exists.\n     */\n    function isAddressValid(bytes32 uuid) public view returns (bool) {\n        return _db[uuid].uuid != 0;\n    }\n}\n",
  "sourcePath": "/media/dell/17f09f70-0626-4927-a787-2813ab7ed2c0/dell/Pandora/pooolAddress Pandora Git/aconomy-contract/contracts/AttestationServices.sol",
  "compiler": {
    "name": "solc",
    "version": "0.8.11+commit.d7f03943.Emscripten.clang"
  },
  "schemaVersion": "3.4.10",
  "updatedAt": "2023-09-20T09:28:14.766Z",
  "networkType": "ethereum",
  "devdoc": {
    "kind": "dev",
    "methods": {
      "attest(address,bytes32,bytes)": {
        "details": "Attests to a specific AS.",
        "params": {
          "recipient": "The recipient of the attestation.",
          "schema": "The UUID of the AS."
        },
        "returns": {
          "_0": "The UUID of the new attestation."
        }
      },
      "isAddressActive(bytes32)": {
        "details": "Checks whether an attestation is active.",
        "params": {
          "uuid": "The UUID of the attestation to retrieve."
        },
        "returns": {
          "_0": "Whether an attestation is active."
        }
      },
      "isAddressValid(bytes32)": {
        "details": "Checks whether an attestation exists.",
        "params": {
          "uuid": "The UUID of the attestation to retrieve."
        },
        "returns": {
          "_0": "Whether an attestation exists."
        }
      },
      "revoke(bytes32)": {
        "details": "Revokes an existing attestation to a specific AS.",
        "params": {
          "uuid": "The UUID of the attestation to revoke."
        }
      }
    },
    "version": 1
  },
  "userdoc": {
    "events": {
      "Attested(address,address,bytes32,bytes32)": {
        "notice": "Triggered when an attestation has been made. ~recipient The recipient of the attestation. ~attester The attesting account. ~uuid The UUID the revoked attestation. ~schema The UUID of the AS."
      }
    },
    "kind": "user",
    "methods": {},
    "version": 1
  }
}