{
  "contractName": "CollectionMethods",
  "abi": [
    {
      "anonymous": false,
      "inputs": [
        {
          "indexed": true,
          "internalType": "address",
          "name": "owner",
          "type": "address"
        },
        {
          "indexed": true,
          "internalType": "address",
          "name": "approved",
          "type": "address"
        },
        {
          "indexed": true,
          "internalType": "uint256",
          "name": "tokenId",
          "type": "uint256"
        }
      ],
      "name": "Approval",
      "type": "event"
    },
    {
      "anonymous": false,
      "inputs": [
        {
          "indexed": true,
          "internalType": "address",
          "name": "owner",
          "type": "address"
        },
        {
          "indexed": true,
          "internalType": "address",
          "name": "operator",
          "type": "address"
        },
        {
          "indexed": false,
          "internalType": "bool",
          "name": "approved",
          "type": "bool"
        }
      ],
      "name": "ApprovalForAll",
      "type": "event"
    },
    {
      "anonymous": false,
      "inputs": [
        {
          "indexed": true,
          "internalType": "address",
          "name": "_from",
          "type": "address"
        },
        {
          "indexed": true,
          "internalType": "uint256",
          "name": "_tokenId",
          "type": "uint256"
        },
        {
          "indexed": true,
          "internalType": "address",
          "name": "_erc20Contract",
          "type": "address"
        },
        {
          "indexed": false,
          "internalType": "uint256",
          "name": "_value",
          "type": "uint256"
        }
      ],
      "name": "ERC20Added",
      "type": "event"
    },
    {
      "anonymous": false,
      "inputs": [
        {
          "indexed": true,
          "internalType": "uint256",
          "name": "_tokenId",
          "type": "uint256"
        },
        {
          "indexed": true,
          "internalType": "address",
          "name": "_to",
          "type": "address"
        },
        {
          "indexed": true,
          "internalType": "address",
          "name": "_erc20Contract",
          "type": "address"
        },
        {
          "indexed": false,
          "internalType": "uint256",
          "name": "_value",
          "type": "uint256"
        }
      ],
      "name": "ERC20Transferred",
      "type": "event"
    },
    {
      "anonymous": false,
      "inputs": [
        {
          "indexed": false,
          "internalType": "uint8",
          "name": "version",
          "type": "uint8"
        }
      ],
      "name": "Initialized",
      "type": "event"
    },
    {
      "anonymous": false,
      "inputs": [
        {
          "indexed": false,
          "internalType": "uint256",
          "name": "tokenId",
          "type": "uint256"
        },
        {
          "indexed": false,
          "internalType": "address",
          "name": "nftReciever",
          "type": "address"
        },
        {
          "indexed": false,
          "internalType": "address",
          "name": "erc20Receiver",
          "type": "address"
        },
        {
          "indexed": false,
          "internalType": "address",
          "name": "erc20Contract",
          "type": "address"
        },
        {
          "indexed": false,
          "internalType": "uint256",
          "name": "value",
          "type": "uint256"
        }
      ],
      "name": "PiNFTBurnt",
      "type": "event"
    },
    {
      "anonymous": false,
      "inputs": [
        {
          "indexed": false,
          "internalType": "uint256",
          "name": "tokenId",
          "type": "uint256"
        },
        {
          "indexed": false,
          "internalType": "address",
          "name": "nftReciever",
          "type": "address"
        },
        {
          "indexed": false,
          "internalType": "address",
          "name": "validatorAddress",
          "type": "address"
        },
        {
          "indexed": false,
          "internalType": "address",
          "name": "erc20Contract",
          "type": "address"
        },
        {
          "indexed": false,
          "internalType": "uint256",
          "name": "value",
          "type": "uint256"
        }
      ],
      "name": "PiNFTRedeemed",
      "type": "event"
    },
    {
      "anonymous": false,
      "inputs": [
        {
          "indexed": true,
          "internalType": "uint256",
          "name": "tokenId",
          "type": "uint256"
        },
        {
          "components": [
            {
              "internalType": "address payable",
              "name": "account",
              "type": "address"
            },
            {
              "internalType": "uint96",
              "name": "value",
              "type": "uint96"
            }
          ],
          "indexed": true,
          "internalType": "struct LibShare.Share[]",
          "name": "royalties",
          "type": "tuple[]"
        }
      ],
      "name": "RoyaltiesSet",
      "type": "event"
    },
    {
      "anonymous": false,
      "inputs": [
        {
          "indexed": false,
          "internalType": "uint256",
          "name": "tokenId",
          "type": "uint256"
        },
        {
          "indexed": false,
          "internalType": "address",
          "name": "to",
          "type": "address"
        }
      ],
      "name": "TokenMinted",
      "type": "event"
    },
    {
      "anonymous": false,
      "inputs": [
        {
          "indexed": true,
          "internalType": "address",
          "name": "from",
          "type": "address"
        },
        {
          "indexed": true,
          "internalType": "address",
          "name": "to",
          "type": "address"
        },
        {
          "indexed": true,
          "internalType": "uint256",
          "name": "tokenId",
          "type": "uint256"
        }
      ],
      "name": "Transfer",
      "type": "event"
    },
    {
      "anonymous": false,
      "inputs": [
        {
          "indexed": false,
          "internalType": "uint256",
          "name": "tokenId",
          "type": "uint256"
        },
        {
          "indexed": false,
          "internalType": "address",
          "name": "validator",
          "type": "address"
        }
      ],
      "name": "ValidatorAdded",
      "type": "event"
    },
    {
      "anonymous": false,
      "inputs": [
        {
          "indexed": false,
          "internalType": "address",
          "name": "repayer",
          "type": "address"
        },
        {
          "indexed": false,
          "internalType": "uint256",
          "name": "tokenId",
          "type": "uint256"
        },
        {
          "indexed": false,
          "internalType": "address",
          "name": "erc20Contract",
          "type": "address"
        },
        {
          "indexed": false,
          "internalType": "uint256",
          "name": "amount",
          "type": "uint256"
        }
      ],
      "name": "ValidatorFundsRepayed",
      "type": "event"
    },
    {
      "anonymous": false,
      "inputs": [
        {
          "indexed": false,
          "internalType": "address",
          "name": "withdrawer",
          "type": "address"
        },
        {
          "indexed": false,
          "internalType": "uint256",
          "name": "tokenId",
          "type": "uint256"
        },
        {
          "indexed": false,
          "internalType": "address",
          "name": "erc20Contract",
          "type": "address"
        },
        {
          "indexed": false,
          "internalType": "uint256",
          "name": "amount",
          "type": "uint256"
        }
      ],
      "name": "ValidatorFundsWithdrawn",
      "type": "event"
    },
    {
      "inputs": [
        {
          "internalType": "uint256",
          "name": "",
          "type": "uint256"
        },
        {
          "internalType": "uint256",
          "name": "",
          "type": "uint256"
        }
      ],
      "name": "RoyaltiesForValidator",
      "outputs": [
        {
          "internalType": "address payable",
          "name": "account",
          "type": "address"
        },
        {
          "internalType": "uint96",
          "name": "value",
          "type": "uint96"
        }
      ],
      "stateMutability": "view",
      "type": "function"
    },
    {
      "inputs": [
        {
          "internalType": "address",
          "name": "to",
          "type": "address"
        },
        {
          "internalType": "uint256",
          "name": "tokenId",
          "type": "uint256"
        }
      ],
      "name": "approve",
      "outputs": [],
      "stateMutability": "nonpayable",
      "type": "function"
    },
    {
      "inputs": [
        {
          "internalType": "uint256",
          "name": "",
          "type": "uint256"
        }
      ],
      "name": "approvedValidator",
      "outputs": [
        {
          "internalType": "address",
          "name": "",
          "type": "address"
        }
      ],
      "stateMutability": "view",
      "type": "function"
    },
    {
      "inputs": [
        {
          "internalType": "address",
          "name": "owner",
          "type": "address"
        }
      ],
      "name": "balanceOf",
      "outputs": [
        {
          "internalType": "uint256",
          "name": "",
          "type": "uint256"
        }
      ],
      "stateMutability": "view",
      "type": "function"
    },
    {
      "inputs": [],
      "name": "collectionOwner",
      "outputs": [
        {
          "internalType": "address",
          "name": "",
          "type": "address"
        }
      ],
      "stateMutability": "view",
      "type": "function"
    },
    {
      "inputs": [
        {
          "internalType": "uint256",
          "name": "tokenId",
          "type": "uint256"
        }
      ],
      "name": "getApproved",
      "outputs": [
        {
          "internalType": "address",
          "name": "",
          "type": "address"
        }
      ],
      "stateMutability": "view",
      "type": "function"
    },
    {
      "inputs": [
        {
          "internalType": "address",
          "name": "owner",
          "type": "address"
        },
        {
          "internalType": "address",
          "name": "operator",
          "type": "address"
        }
      ],
      "name": "isApprovedForAll",
      "outputs": [
        {
          "internalType": "bool",
          "name": "",
          "type": "bool"
        }
      ],
      "stateMutability": "view",
      "type": "function"
    },
    {
      "inputs": [],
      "name": "name",
      "outputs": [
        {
          "internalType": "string",
          "name": "",
          "type": "string"
        }
      ],
      "stateMutability": "view",
      "type": "function"
    },
    {
      "inputs": [
        {
          "internalType": "uint256",
          "name": "tokenId",
          "type": "uint256"
        }
      ],
      "name": "ownerOf",
      "outputs": [
        {
          "internalType": "address",
          "name": "",
          "type": "address"
        }
      ],
      "stateMutability": "view",
      "type": "function"
    },
    {
      "inputs": [],
      "name": "piNFTAddress",
      "outputs": [
        {
          "internalType": "address",
          "name": "",
          "type": "address"
        }
      ],
      "stateMutability": "view",
      "type": "function"
    },
    {
      "inputs": [
        {
          "internalType": "address",
          "name": "from",
          "type": "address"
        },
        {
          "internalType": "address",
          "name": "to",
          "type": "address"
        },
        {
          "internalType": "uint256",
          "name": "tokenId",
          "type": "uint256"
        }
      ],
      "name": "safeTransferFrom",
      "outputs": [],
      "stateMutability": "nonpayable",
      "type": "function"
    },
    {
      "inputs": [
        {
          "internalType": "address",
          "name": "from",
          "type": "address"
        },
        {
          "internalType": "address",
          "name": "to",
          "type": "address"
        },
        {
          "internalType": "uint256",
          "name": "tokenId",
          "type": "uint256"
        },
        {
          "internalType": "bytes",
          "name": "data",
          "type": "bytes"
        }
      ],
      "name": "safeTransferFrom",
      "outputs": [],
      "stateMutability": "nonpayable",
      "type": "function"
    },
    {
      "inputs": [
        {
          "internalType": "address",
          "name": "operator",
          "type": "address"
        },
        {
          "internalType": "bool",
          "name": "approved",
          "type": "bool"
        }
      ],
      "name": "setApprovalForAll",
      "outputs": [],
      "stateMutability": "nonpayable",
      "type": "function"
    },
    {
      "inputs": [
        {
          "internalType": "bytes4",
          "name": "interfaceId",
          "type": "bytes4"
        }
      ],
      "name": "supportsInterface",
      "outputs": [
        {
          "internalType": "bool",
          "name": "",
          "type": "bool"
        }
      ],
      "stateMutability": "view",
      "type": "function"
    },
    {
      "inputs": [],
      "name": "symbol",
      "outputs": [
        {
          "internalType": "string",
          "name": "",
          "type": "string"
        }
      ],
      "stateMutability": "view",
      "type": "function"
    },
    {
      "inputs": [
        {
          "internalType": "uint256",
          "name": "tokenId",
          "type": "uint256"
        }
      ],
      "name": "tokenURI",
      "outputs": [
        {
          "internalType": "string",
          "name": "",
          "type": "string"
        }
      ],
      "stateMutability": "view",
      "type": "function"
    },
    {
      "inputs": [
        {
          "internalType": "address",
          "name": "from",
          "type": "address"
        },
        {
          "internalType": "address",
          "name": "to",
          "type": "address"
        },
        {
          "internalType": "uint256",
          "name": "tokenId",
          "type": "uint256"
        }
      ],
      "name": "transferFrom",
      "outputs": [],
      "stateMutability": "nonpayable",
      "type": "function"
    },
    {
      "inputs": [
        {
          "internalType": "uint256",
          "name": "",
          "type": "uint256"
        }
      ],
      "name": "withdrawnAmount",
      "outputs": [
        {
          "internalType": "uint256",
          "name": "",
          "type": "uint256"
        }
      ],
      "stateMutability": "view",
      "type": "function"
    },
    {
      "inputs": [
        {
          "internalType": "address",
          "name": "_collectionOwner",
          "type": "address"
        },
        {
          "internalType": "address",
          "name": "_piNFTAddress",
          "type": "address"
        },
        {
          "internalType": "string",
          "name": "_name",
          "type": "string"
        },
        {
          "internalType": "string",
          "name": "_symbol",
          "type": "string"
        }
      ],
      "name": "initialize",
      "outputs": [],
      "stateMutability": "nonpayable",
      "type": "function"
    },
    {
      "inputs": [
        {
          "internalType": "address",
          "name": "_to",
          "type": "address"
        },
        {
          "internalType": "string",
          "name": "_uri",
          "type": "string"
        }
      ],
      "name": "mintNFT",
      "outputs": [],
      "stateMutability": "nonpayable",
      "type": "function"
    },
    {
      "inputs": [
        {
          "internalType": "uint256",
          "name": "_tokenId",
          "type": "uint256"
        },
        {
          "internalType": "address",
          "name": "_validator",
          "type": "address"
        }
      ],
      "name": "addValidator",
      "outputs": [],
      "stateMutability": "nonpayable",
      "type": "function"
    },
    {
      "inputs": [
        {
          "internalType": "uint256",
          "name": "_tokenId",
          "type": "uint256"
        },
        {
          "internalType": "address",
          "name": "_erc20Contract",
          "type": "address"
        },
        {
          "internalType": "uint256",
          "name": "_value",
          "type": "uint256"
        },
        {
          "components": [
            {
              "internalType": "address payable",
              "name": "account",
              "type": "address"
            },
            {
              "internalType": "uint96",
              "name": "value",
              "type": "uint96"
            }
          ],
          "internalType": "struct LibShare.Share[]",
          "name": "royalties",
          "type": "tuple[]"
        }
      ],
      "name": "addERC20",
      "outputs": [],
      "stateMutability": "nonpayable",
      "type": "function"
    },
    {
      "inputs": [
        {
          "internalType": "uint256",
          "name": "_tokenId",
          "type": "uint256"
        },
        {
          "internalType": "address",
          "name": "_nftReciever",
          "type": "address"
        },
        {
          "internalType": "address",
          "name": "_validatorAddress",
          "type": "address"
        },
        {
          "internalType": "address",
          "name": "_erc20Contract",
          "type": "address"
        },
        {
          "internalType": "uint256",
          "name": "_value",
          "type": "uint256"
        }
      ],
      "name": "redeemPiNFT",
      "outputs": [],
      "stateMutability": "nonpayable",
      "type": "function"
    },
    {
      "inputs": [
        {
          "internalType": "uint256",
          "name": "_tokenId",
          "type": "uint256"
        },
        {
          "internalType": "address",
          "name": "_nftReciever",
          "type": "address"
        },
        {
          "internalType": "address",
          "name": "_erc20Reciever",
          "type": "address"
        },
        {
          "internalType": "address",
          "name": "_erc20Contract",
          "type": "address"
        },
        {
          "internalType": "uint256",
          "name": "_value",
          "type": "uint256"
        }
      ],
      "name": "burnPiNFT",
      "outputs": [],
      "stateMutability": "nonpayable",
      "type": "function"
    },
    {
      "inputs": [
        {
          "internalType": "uint256",
          "name": "_tokenId",
          "type": "uint256"
        },
        {
          "internalType": "address",
          "name": "_erc20Address",
          "type": "address"
        }
      ],
      "name": "viewBalance",
      "outputs": [
        {
          "internalType": "uint256",
          "name": "",
          "type": "uint256"
        }
      ],
      "stateMutability": "view",
      "type": "function"
    },
    {
      "inputs": [
        {
          "internalType": "uint256",
          "name": "_tokenId",
          "type": "uint256"
        }
      ],
      "name": "getValidatorRoyalties",
      "outputs": [
        {
          "components": [
            {
              "internalType": "address payable",
              "name": "account",
              "type": "address"
            },
            {
              "internalType": "uint96",
              "name": "value",
              "type": "uint96"
            }
          ],
          "internalType": "struct LibShare.Share[]",
          "name": "",
          "type": "tuple[]"
        }
      ],
      "stateMutability": "view",
      "type": "function"
    },
    {
      "inputs": [
        {
          "internalType": "uint256",
          "name": "_tokenId",
          "type": "uint256"
        },
        {
          "internalType": "address",
          "name": "_erc20Contract",
          "type": "address"
        },
        {
          "internalType": "uint256",
          "name": "_amount",
          "type": "uint256"
        }
      ],
      "name": "withdraw",
      "outputs": [],
      "stateMutability": "nonpayable",
      "type": "function"
    },
    {
      "inputs": [
        {
          "internalType": "uint256",
          "name": "_tokenId",
          "type": "uint256"
        },
        {
          "internalType": "address",
          "name": "_erc20Contract",
          "type": "address"
        },
        {
          "internalType": "uint256",
          "name": "_amount",
          "type": "uint256"
        }
      ],
      "name": "Repay",
      "outputs": [],
      "stateMutability": "nonpayable",
      "type": "function"
    },
    {
      "inputs": [
        {
          "internalType": "address",
          "name": "",
          "type": "address"
        },
        {
          "internalType": "address",
          "name": "",
          "type": "address"
        },
        {
          "internalType": "uint256",
          "name": "",
          "type": "uint256"
        },
        {
          "internalType": "bytes",
          "name": "",
          "type": "bytes"
        }
      ],
      "name": "onERC721Received",
      "outputs": [
        {
          "internalType": "bytes4",
          "name": "",
          "type": "bytes4"
        }
      ],
      "stateMutability": "nonpayable",
      "type": "function"
    }
  ],
  "bytecode": "0x608060405234801561001057600080fd5b50615fda80620000216000396000f3fe608060405234801561001057600080fd5b50600436106101cf5760003560e01c806370a0823111610104578063c030da26116100a2578063e63697c811610071578063e63697c814610560578063e985e9c51461057c578063eacabe14146105ac578063fbd4a680146105c8576101cf565b8063c030da26146104c6578063c87b56dd146104e2578063d51f299d14610512578063df727d3b14610542576101cf565b8063a22cb465116100de578063a22cb46514610442578063b439fd2c1461045e578063b88d4fde1461047a578063b95bd3b114610496576101cf565b806370a08231146103d8578063726bb4cb1461040857806395d89b4114610424576101cf565b8063150b7a021161017157806342842e0e1161014b57806342842e0e146103405780634b5617531461035c5780635e7701b5146103785780636352211e146103a8576101cf565b8063150b7a02146102d85780632016a0d21461030857806323b872dd14610324576101cf565b8063081812fc116101ad578063081812fc14610252578063095ea7b31461028257806309d4470c1461029e578063139710e2146102ba576101cf565b806301ffc9a7146101d457806302b421411461020457806306fdde0314610234575b600080fd5b6101ee60048036038101906101e99190614050565b6105f9565b6040516101fb9190614098565b60405180910390f35b61021e600480360381019061021991906140e9565b6106db565b60405161022b919061425c565b60405180910390f35b61023c6107dd565b6040516102499190614317565b60405180910390f35b61026c600480360381019061026791906140e9565b61086f565b604051610279919061435a565b60405180910390f35b61029c600480360381019061029791906143a1565b6108b5565b005b6102b860048036038101906102b391906143e1565b6109cd565b005b6102c2610d60565b6040516102cf919061435a565b60405180910390f35b6102f260048036038101906102ed9190614591565b610d86565b6040516102ff9190614623565b60405180910390f35b610322600480360381019061031d91906146df565b610d9a565b005b61033e6004803603810190610339919061477e565b610f68565b005b61035a6004803603810190610355919061477e565b610fc8565b005b610376600480360381019061037191906147d1565b610fe8565b005b610392600480360381019061038d91906140e9565b6110f0565b60405161039f9190614820565b60405180910390f35b6103c260048036038101906103bd91906140e9565b611109565b6040516103cf919061435a565b60405180910390f35b6103f260048036038101906103ed919061483b565b611190565b6040516103ff9190614820565b60405180910390f35b610422600480360381019061041d91906143e1565b611248565b005b61042c61160f565b6040516104399190614317565b60405180910390f35b61045c60048036038101906104579190614894565b6116a1565b005b61047860048036038101906104739190614a49565b6116b7565b005b610494600480360381019061048f9190614591565b611960565b005b6104b060048036038101906104ab91906140e9565b6119c2565b6040516104bd919061435a565b60405180910390f35b6104e060048036038101906104db9190614acc565b6119f6565b005b6104fc60048036038101906104f791906140e9565b611ce9565b6040516105099190614317565b60405180910390f35b61052c600480360381019061052791906147d1565b611dfc565b6040516105399190614820565b60405180910390f35b61054a611e57565b604051610557919061435a565b60405180910390f35b61057a60048036038101906105759190614acc565b611e7d565b005b61059660048036038101906105919190614b1f565b61215c565b6040516105a39190614098565b60405180910390f35b6105c660048036038101906105c19190614b5f565b6121f0565b005b6105e260048036038101906105dd9190614bbb565b61235a565b6040516105f0929190614c19565b60405180910390f35b60007f80ac58cd000000000000000000000000000000000000000000000000000000007bffffffffffffffffffffffffffffffffffffffffffffffffffffffff1916827bffffffffffffffffffffffffffffffffffffffffffffffffffffffff191614806106c457507f5b5e139f000000000000000000000000000000000000000000000000000000007bffffffffffffffffffffffffffffffffffffffffffffffffffffffff1916827bffffffffffffffffffffffffffffffffffffffffffffffffffffffff1916145b806106d457506106d3826123cf565b5b9050919050565b606060fe6000838152602001908152602001600020805480602002602001604051908101604052809291908181526020016000905b828210156107d2578382906000526020600020016040518060400160405290816000820160009054906101000a900473ffffffffffffffffffffffffffffffffffffffff1673ffffffffffffffffffffffffffffffffffffffff1673ffffffffffffffffffffffffffffffffffffffff1681526020016000820160149054906101000a90046bffffffffffffffffffffffff166bffffffffffffffffffffffff166bffffffffffffffffffffffff168152505081526020019060010190610710565b505050509050919050565b6060606580546107ec90614c71565b80601f016020809104026020016040519081016040528092919081815260200182805461081890614c71565b80156108655780601f1061083a57610100808354040283529160200191610865565b820191906000526020600020905b81548152906001019060200180831161084857829003601f168201915b5050505050905090565b600061087a82612439565b6069600083815260200190815260200160002060009054906101000a900473ffffffffffffffffffffffffffffffffffffffff169050919050565b60006108c082611109565b90508073ffffffffffffffffffffffffffffffffffffffff168373ffffffffffffffffffffffffffffffffffffffff161415610931576040517f08c379a000000000000000000000000000000000000000000000000000000000815260040161092890614d15565b60405180910390fd5b8073ffffffffffffffffffffffffffffffffffffffff16610950612484565b73ffffffffffffffffffffffffffffffffffffffff16148061097f575061097e81610979612484565b61215c565b5b6109be576040517f08c379a00000000000000000000000000000000000000000000000000000000081526004016109b590614da7565b60405180910390fd5b6109c8838361248c565b505050565b846109d781611109565b73ffffffffffffffffffffffffffffffffffffffff163373ffffffffffffffffffffffffffffffffffffffff1614610a44576040517f08c379a0000000000000000000000000000000000000000000000000000000008152600401610a3b90614e13565b60405180910390fd5b610a4c612545565b600073ffffffffffffffffffffffffffffffffffffffff168573ffffffffffffffffffffffffffffffffffffffff161415610abc576040517f08c379a0000000000000000000000000000000000000000000000000000000008152600401610ab390614e7f565b60405180910390fd5b610104600087815260200190815260200160002060009054906101000a900473ffffffffffffffffffffffffffffffffffffffff1673ffffffffffffffffffffffffffffffffffffffff168573ffffffffffffffffffffffffffffffffffffffff1614610b2857600080fd5b600073ffffffffffffffffffffffffffffffffffffffff168373ffffffffffffffffffffffffffffffffffffffff161415610b98576040517f08c379a0000000000000000000000000000000000000000000000000000000008152600401610b8f90614eeb565b60405180910390fd5b600060ff600088815260200190815260200160002060008573ffffffffffffffffffffffffffffffffffffffff1673ffffffffffffffffffffffffffffffffffffffff168152602001908152602001600020541415610bf657600080fd5b8160ff600088815260200190815260200160002060008573ffffffffffffffffffffffffffffffffffffffff1673ffffffffffffffffffffffffffffffffffffffff1681526020019081526020016000205414610c5257600080fd5b6000610104600088815260200190815260200160002060006101000a81548173ffffffffffffffffffffffffffffffffffffffff021916908373ffffffffffffffffffffffffffffffffffffffff1602179055506000610102600088815260200190815260200160002060006101000a81548173ffffffffffffffffffffffffffffffffffffffff021916908373ffffffffffffffffffffffffffffffffffffffff160217905550610d0686858585612595565b610d11338688610fc8565b7fb74e38228fa42e9a77949ba790a29e0543f9fc8f580a6c223b6f6a824ab7de4e8686868686604051610d48959493929190614f0b565b60405180910390a1610d58612739565b505050505050565b60fd60009054906101000a900473ffffffffffffffffffffffffffffffffffffffff1681565b600063150b7a0260e01b9050949350505050565b60008060019054906101000a900460ff16159050808015610dcb5750600160008054906101000a900460ff1660ff16105b80610df85750610dda30612743565b158015610df75750600160008054906101000a900460ff1660ff16145b5b610e37576040517f08c379a0000000000000000000000000000000000000000000000000000000008152600401610e2e90614fd0565b60405180910390fd5b60016000806101000a81548160ff021916908360ff1602179055508015610e74576001600060016101000a81548160ff0219169083151502179055505b610e7e8383612766565b610e866127c3565b8460fc60006101000a81548173ffffffffffffffffffffffffffffffffffffffff021916908373ffffffffffffffffffffffffffffffffffffffff1602179055508360fd60006101000a81548173ffffffffffffffffffffffffffffffffffffffff021916908373ffffffffffffffffffffffffffffffffffffffff1602179055508015610f615760008060016101000a81548160ff0219169083151502179055507f7f26b83ff96e1f2b6a682f133852f6798a09c465da95921460cefb38474024986001604051610f589190615042565b60405180910390a15b5050505050565b610f79610f73612484565b82612814565b610fb8576040517f08c379a0000000000000000000000000000000000000000000000000000000008152600401610faf906150cf565b60405180910390fd5b610fc38383836128a9565b505050565b610fe383838360405180602001604052806000815250611960565b505050565b81610ff281611109565b73ffffffffffffffffffffffffffffffffffffffff163373ffffffffffffffffffffffffffffffffffffffff161461105f576040517f08c379a000000000000000000000000000000000000000000000000000000000815260040161105690614e13565b60405180910390fd5b81610104600085815260200190815260200160002060006101000a81548173ffffffffffffffffffffffffffffffffffffffff021916908373ffffffffffffffffffffffffffffffffffffffff1602179055507f7429a06e9412e469f0d64f9d222640b0af359f556b709e2913588c227851b88d83836040516110e39291906150ef565b60405180910390a1505050565b6101036020528060005260406000206000915090505481565b60008061111583612ba3565b9050600073ffffffffffffffffffffffffffffffffffffffff168173ffffffffffffffffffffffffffffffffffffffff161415611187576040517f08c379a000000000000000000000000000000000000000000000000000000000815260040161117e90615164565b60405180910390fd5b80915050919050565b60008073ffffffffffffffffffffffffffffffffffffffff168273ffffffffffffffffffffffffffffffffffffffff161415611201576040517f08c379a00000000000000000000000000000000000000000000000000000000081526004016111f8906151f6565b60405180910390fd5b606860008373ffffffffffffffffffffffffffffffffffffffff1673ffffffffffffffffffffffffffffffffffffffff168152602001908152602001600020549050919050565b8461125281611109565b73ffffffffffffffffffffffffffffffffffffffff163373ffffffffffffffffffffffffffffffffffffffff16146112bf576040517f08c379a00000000000000000000000000000000000000000000000000000000081526004016112b690614e13565b60405180910390fd5b6112c7612545565b610104600087815260200190815260200160002060009054906101000a900473ffffffffffffffffffffffffffffffffffffffff1673ffffffffffffffffffffffffffffffffffffffff168473ffffffffffffffffffffffffffffffffffffffff161461133357600080fd5b600073ffffffffffffffffffffffffffffffffffffffff168573ffffffffffffffffffffffffffffffffffffffff1614156113a3576040517f08c379a000000000000000000000000000000000000000000000000000000000815260040161139a90614e7f565b60405180910390fd5b600073ffffffffffffffffffffffffffffffffffffffff168373ffffffffffffffffffffffffffffffffffffffff161415611413576040517f08c379a000000000000000000000000000000000000000000000000000000000815260040161140a90614eeb565b60405180910390fd5b600060ff600088815260200190815260200160002060008573ffffffffffffffffffffffffffffffffffffffff1673ffffffffffffffffffffffffffffffffffffffff16815260200190815260200160002054141561147157600080fd5b8160ff600088815260200190815260200160002060008573ffffffffffffffffffffffffffffffffffffffff1673ffffffffffffffffffffffffffffffffffffffff16815260200190815260200160002054146114cd57600080fd5b6000610104600088815260200190815260200160002060006101000a81548173ffffffffffffffffffffffffffffffffffffffff021916908373ffffffffffffffffffffffffffffffffffffffff1602179055506000610102600088815260200190815260200160002060006101000a81548173ffffffffffffffffffffffffffffffffffffffff021916908373ffffffffffffffffffffffffffffffffffffffff16021790555061158186858585612595565b8473ffffffffffffffffffffffffffffffffffffffff163373ffffffffffffffffffffffffffffffffffffffff16146115c0576115bf338688610fc8565b5b7f2058865d55d828509b5fe7c94f4db419055cb3a955b5de66eb6eaac40a6229e286868686866040516115f7959493929190614f0b565b60405180910390a1611607612739565b505050505050565b60606066805461161e90614c71565b80601f016020809104026020016040519081016040528092919081815260200182805461164a90614c71565b80156116975780601f1061166c57610100808354040283529160200191611697565b820191906000526020600020905b81548152906001019060200180831161167a57829003601f168201915b5050505050905090565b6116b36116ac612484565b8383612be0565b5050565b610104600085815260200190815260200160002060009054906101000a900473ffffffffffffffffffffffffffffffffffffffff1673ffffffffffffffffffffffffffffffffffffffff163373ffffffffffffffffffffffffffffffffffffffff161461172357600080fd5b600073ffffffffffffffffffffffffffffffffffffffff168373ffffffffffffffffffffffffffffffffffffffff161415611793576040517f08c379a000000000000000000000000000000000000000000000000000000000815260040161178a90615262565b60405180910390fd5b60008214156117a157600080fd5b6001610100600086815260200190815260200160002080549050106117c557600080fd5b6117ce84611109565b610102600086815260200190815260200160002060006101000a81548173ffffffffffffffffffffffffffffffffffffffff021916908373ffffffffffffffffffffffffffffffffffffffff16021790555061182b848484612d4d565b6118358482612f82565b8273ffffffffffffffffffffffffffffffffffffffff166323b872dd3330856040518463ffffffff1660e01b815260040161187293929190615282565b6020604051808303816000875af1158015611891573d6000803e3d6000fd5b505050506040513d601f19601f820116820180604052508101906118b591906152ce565b6118f4576040517f08c379a00000000000000000000000000000000000000000000000000000000081526004016118eb90615347565b60405180910390fd5b8273ffffffffffffffffffffffffffffffffffffffff16843373ffffffffffffffffffffffffffffffffffffffff167f2d26c4b3092c22e3e65b16783ba6c105f58fd10b1bb90ef68bb36037d75f7e01856040516119529190614820565b60405180910390a450505050565b61197161196b612484565b83612814565b6119b0576040517f08c379a00000000000000000000000000000000000000000000000000000000081526004016119a7906150cf565b60405180910390fd5b6119bc8484848461329e565b50505050565b6101046020528060005260406000206000915054906101000a900473ffffffffffffffffffffffffffffffffffffffff1681565b6119fe612545565b3373ffffffffffffffffffffffffffffffffffffffff16610102600085815260200190815260200160002060009054906101000a900473ffffffffffffffffffffffffffffffffffffffff1673ffffffffffffffffffffffffffffffffffffffff1614611aa0576040517f08c379a0000000000000000000000000000000000000000000000000000000008152600401611a97906153b3565b60405180910390fd5b600060ff600085815260200190815260200160002060008473ffffffffffffffffffffffffffffffffffffffff1673ffffffffffffffffffffffffffffffffffffffff168152602001908152602001600020541415611afe57600080fd5b610103600084815260200190815260200160002054811115611b1f57600080fd5b8173ffffffffffffffffffffffffffffffffffffffff166323b872dd3330846040518463ffffffff1660e01b8152600401611b5c93929190615282565b6020604051808303816000875af1158015611b7b573d6000803e3d6000fd5b505050506040513d601f19601f82011682018060405250810190611b9f91906152ce565b611bde576040517f08c379a0000000000000000000000000000000000000000000000000000000008152600401611bd59061541f565b60405180910390fd5b8061010360008581526020019081526020016000206000828254611c02919061546e565b9250508190555060006101036000858152602001908152602001600020541415611c9f573073ffffffffffffffffffffffffffffffffffffffff1663095ea7b333856040518363ffffffff1660e01b8152600401611c619291906154a2565b600060405180830381600087803b158015611c7b57600080fd5b505af1158015611c8f573d6000803e3d6000fd5b50505050611c9e303385610fc8565b5b7fb3b7a8bfc5508739ed035396eacfec00168bfc5b0fa6bcc619ccbb42eaab61a133848484604051611cd494939291906154cb565b60405180910390a1611ce4612739565b505050565b6060611cf482612439565b6000609760008481526020019081526020016000208054611d1490614c71565b80601f0160208091040260200160405190810160405280929190818152602001828054611d4090614c71565b8015611d8d5780601f10611d6257610100808354040283529160200191611d8d565b820191906000526020600020905b815481529060010190602001808311611d7057829003601f168201915b505050505090506000611d9e6132fa565b9050600081511415611db4578192505050611df7565b600082511115611de9578082604051602001611dd192919061554c565b60405160208183030381529060405292505050611df7565b611df284613311565b925050505b919050565b600060ff600084815260200190815260200160002060008373ffffffffffffffffffffffffffffffffffffffff1673ffffffffffffffffffffffffffffffffffffffff16815260200190815260200160002054905092915050565b60fc60009054906101000a900473ffffffffffffffffffffffffffffffffffffffff1681565b611e85612545565b3373ffffffffffffffffffffffffffffffffffffffff16610102600085815260200190815260200160002060009054906101000a900473ffffffffffffffffffffffffffffffffffffffff1673ffffffffffffffffffffffffffffffffffffffff1614611f27576040517f08c379a0000000000000000000000000000000000000000000000000000000008152600401611f1e906153b3565b60405180910390fd5b600060ff600085815260200190815260200160002060008473ffffffffffffffffffffffffffffffffffffffff1673ffffffffffffffffffffffffffffffffffffffff168152602001908152602001600020541415611f8557600080fd5b60ff600084815260200190815260200160002060008373ffffffffffffffffffffffffffffffffffffffff1673ffffffffffffffffffffffffffffffffffffffff1681526020019081526020016000205481610103600086815260200190815260200160002054611ff69190615570565b111561200157600080fd5b8173ffffffffffffffffffffffffffffffffffffffff1663a9059cbb33836040518363ffffffff1660e01b815260040161203c9291906154a2565b6020604051808303816000875af115801561205b573d6000803e3d6000fd5b505050506040513d601f19601f8201168201806040525081019061207f91906152ce565b6120be576040517f08c379a00000000000000000000000000000000000000000000000000000000081526004016120b59061541f565b60405180910390fd5b600061010360008581526020019081526020016000205414156120e7576120e6333085610fc8565b5b806101036000858152602001908152602001600020600082825461210b9190615570565b925050819055507f6462fd54117e7bef3061a028c22b78ce207900b757cc2612ca600e35060e33a23384848460405161214794939291906154cb565b60405180910390a1612157612739565b505050565b6000606a60008473ffffffffffffffffffffffffffffffffffffffff1673ffffffffffffffffffffffffffffffffffffffff16815260200190815260200160002060008373ffffffffffffffffffffffffffffffffffffffff1673ffffffffffffffffffffffffffffffffffffffff16815260200190815260200160002060009054906101000a900460ff16905092915050565b60fc60009054906101000a900473ffffffffffffffffffffffffffffffffffffffff1673ffffffffffffffffffffffffffffffffffffffff163373ffffffffffffffffffffffffffffffffffffffff1614612280576040517f08c379a000000000000000000000000000000000000000000000000000000000815260040161227790615612565b60405180910390fd5b600073ffffffffffffffffffffffffffffffffffffffff168273ffffffffffffffffffffffffffffffffffffffff1614156122f0576040517f08c379a00000000000000000000000000000000000000000000000000000000081526004016122e790614e7f565b60405180910390fd5b60006122fc60fb613379565b90506123088382613387565b61231281836133a5565b61231c60fb613419565b7f3a5398bda6f1f57d6c96834fa9bf02b5517bdc847d14312015a917ba421c31c9818460405161234d9291906150ef565b60405180910390a1505050565b60fe602052816000526040600020818154811061237657600080fd5b90600052602060002001600091509150508060000160009054906101000a900473ffffffffffffffffffffffffffffffffffffffff16908060000160149054906101000a90046bffffffffffffffffffffffff16905082565b60007f01ffc9a7000000000000000000000000000000000000000000000000000000007bffffffffffffffffffffffffffffffffffffffffffffffffffffffff1916827bffffffffffffffffffffffffffffffffffffffffffffffffffffffff1916149050919050565b6124428161342f565b612481576040517f08c379a000000000000000000000000000000000000000000000000000000000815260040161247890615164565b60405180910390fd5b50565b600033905090565b816069600083815260200190815260200160002060006101000a81548173ffffffffffffffffffffffffffffffffffffffff021916908373ffffffffffffffffffffffffffffffffffffffff160217905550808273ffffffffffffffffffffffffffffffffffffffff166124ff83611109565b73ffffffffffffffffffffffffffffffffffffffff167f8c5be1e5ebec7d5bd14f71427d1e84f3dd0314c0f7b2291e5b200ac8c7c3b92560405160405180910390a45050565b600260c954141561258b576040517f08c379a00000000000000000000000000000000000000000000000000000000081526004016125829061567e565b60405180910390fd5b600260c981905550565b600073ffffffffffffffffffffffffffffffffffffffff168373ffffffffffffffffffffffffffffffffffffffff161415612605576040517f08c379a00000000000000000000000000000000000000000000000000000000081526004016125fc90614e7f565b60405180910390fd5b612610848383613470565b8173ffffffffffffffffffffffffffffffffffffffff1663a9059cbb84836040518363ffffffff1660e01b815260040161264b9291906154a2565b6020604051808303816000875af115801561266a573d6000803e3d6000fd5b505050506040513d601f19601f8201168201806040525081019061268e91906152ce565b6126cd576040517f08c379a00000000000000000000000000000000000000000000000000000000081526004016126c490615347565b60405180910390fd5b8173ffffffffffffffffffffffffffffffffffffffff168373ffffffffffffffffffffffffffffffffffffffff16857f416f6e1e4e9196c181ec8150c9c6b6d1bbbddfe946258dbd8f1a62153e5776198460405161272b9190614820565b60405180910390a450505050565b600160c981905550565b6000808273ffffffffffffffffffffffffffffffffffffffff163b119050919050565b600060019054906101000a900460ff166127b5576040517f08c379a00000000000000000000000000000000000000000000000000000000081526004016127ac90615710565b60405180910390fd5b6127bf828261380a565b5050565b600060019054906101000a900460ff16612812576040517f08c379a000000000000000000000000000000000000000000000000000000000815260040161280990615710565b60405180910390fd5b565b60008061282083611109565b90508073ffffffffffffffffffffffffffffffffffffffff168473ffffffffffffffffffffffffffffffffffffffff1614806128625750612861818561215c565b5b806128a057508373ffffffffffffffffffffffffffffffffffffffff166128888461086f565b73ffffffffffffffffffffffffffffffffffffffff16145b91505092915050565b8273ffffffffffffffffffffffffffffffffffffffff166128c982611109565b73ffffffffffffffffffffffffffffffffffffffff161461291f576040517f08c379a0000000000000000000000000000000000000000000000000000000008152600401612916906157a2565b60405180910390fd5b600073ffffffffffffffffffffffffffffffffffffffff168273ffffffffffffffffffffffffffffffffffffffff16141561298f576040517f08c379a000000000000000000000000000000000000000000000000000000000815260040161298690615834565b60405180910390fd5b61299c838383600161388b565b8273ffffffffffffffffffffffffffffffffffffffff166129bc82611109565b73ffffffffffffffffffffffffffffffffffffffff1614612a12576040517f08c379a0000000000000000000000000000000000000000000000000000000008152600401612a09906157a2565b60405180910390fd5b6069600082815260200190815260200160002060006101000a81549073ffffffffffffffffffffffffffffffffffffffff02191690556001606860008573ffffffffffffffffffffffffffffffffffffffff1673ffffffffffffffffffffffffffffffffffffffff168152602001908152602001600020600082825403925050819055506001606860008473ffffffffffffffffffffffffffffffffffffffff1673ffffffffffffffffffffffffffffffffffffffff16815260200190815260200160002060008282540192505081905550816067600083815260200190815260200160002060006101000a81548173ffffffffffffffffffffffffffffffffffffffff021916908373ffffffffffffffffffffffffffffffffffffffff160217905550808273ffffffffffffffffffffffffffffffffffffffff168473ffffffffffffffffffffffffffffffffffffffff167fddf252ad1be2c89b69c2b068fc378daa952ba7f163c4a11628f55a4df523b3ef60405160405180910390a4612b9e8383836001613891565b505050565b60006067600083815260200190815260200160002060009054906101000a900473ffffffffffffffffffffffffffffffffffffffff169050919050565b8173ffffffffffffffffffffffffffffffffffffffff168373ffffffffffffffffffffffffffffffffffffffff161415612c4f576040517f08c379a0000000000000000000000000000000000000000000000000000000008152600401612c46906158a0565b60405180910390fd5b80606a60008573ffffffffffffffffffffffffffffffffffffffff1673ffffffffffffffffffffffffffffffffffffffff16815260200190815260200160002060008473ffffffffffffffffffffffffffffffffffffffff1673ffffffffffffffffffffffffffffffffffffffff16815260200190815260200160002060006101000a81548160ff0219169083151502179055508173ffffffffffffffffffffffffffffffffffffffff168373ffffffffffffffffffffffffffffffffffffffff167f17307eab39ab6107e8899845ad3d59bd9653f200f220920489ca2b5937696c3183604051612d409190614098565b60405180910390a3505050565b600073ffffffffffffffffffffffffffffffffffffffff16612d6e84611109565b73ffffffffffffffffffffffffffffffffffffffff161415612dc5576040517f08c379a0000000000000000000000000000000000000000000000000000000008152600401612dbc9061590c565b60405180910390fd5b6000811415612dd357612f7d565b600060ff600085815260200190815260200160002060008473ffffffffffffffffffffffffffffffffffffffff1673ffffffffffffffffffffffffffffffffffffffff1681526020019081526020016000205490506000811415612f1457610100600085815260200190815260200160002080549050610101600086815260200190815260200160002060008573ffffffffffffffffffffffffffffffffffffffff1673ffffffffffffffffffffffffffffffffffffffff168152602001908152602001600020819055506101006000858152602001908152602001600020839080600181540180825580915050600190039060005260206000200160009091909190916101000a81548173ffffffffffffffffffffffffffffffffffffffff021916908373ffffffffffffffffffffffffffffffffffffffff1602179055505b8160ff600086815260200190815260200160002060008573ffffffffffffffffffffffffffffffffffffffff1673ffffffffffffffffffffffffffffffffffffffff1681526020019081526020016000206000828254612f749190615570565b92505081905550505b505050565b600a81511115612fc7576040517f08c379a0000000000000000000000000000000000000000000000000000000008152600401612fbe90615978565b60405180910390fd5b60fe60008381526020019081526020016000206000612fe69190613ec3565b6000805b825181101561321157600073ffffffffffffffffffffffffffffffffffffffff1683828151811061301e5761301d615998565b5b60200260200101516000015173ffffffffffffffffffffffffffffffffffffffff161415613081576040517f08c379a000000000000000000000000000000000000000000000000000000000815260040161307890614e7f565b60405180910390fd5b600083828151811061309657613095615998565b5b6020026020010151602001516bffffffffffffffffffffffff1614156130f1576040517f08c379a00000000000000000000000000000000000000000000000000000000081526004016130e890615a13565b60405180910390fd5b60fe600085815260200190815260200160002083828151811061311757613116615998565b5b60200260200101519080600181540180825580915050600190039060005260206000200160009091909190915060008201518160000160006101000a81548173ffffffffffffffffffffffffffffffffffffffff021916908373ffffffffffffffffffffffffffffffffffffffff16021790555060208201518160000160146101000a8154816bffffffffffffffffffffffff02191690836bffffffffffffffffffffffff16021790555050508281815181106131d7576131d6615998565b5b6020026020010151602001516bffffffffffffffffffffffff16826131fc9190615570565b9150808061320990615a33565b915050612fea565b506127108110613256576040517f08c379a000000000000000000000000000000000000000000000000000000000815260040161324d90615ac8565b60405180910390fd5b816040516132649190615be4565b6040518091039020837f3fa96d7b6bcbfe71ef171666d84db3cf52fa2d1c8afdb1cc8e486177f208b7df60405160405180910390a3505050565b6132a98484846128a9565b6132b584848484613897565b6132f4576040517f08c379a00000000000000000000000000000000000000000000000000000000081526004016132eb90615c6d565b60405180910390fd5b50505050565b606060405180602001604052806000815250905090565b606061331c82612439565b60006133266132fa565b905060008151116133465760405180602001604052806000815250613371565b8061335084613a1f565b60405160200161336192919061554c565b6040516020818303038152906040525b915050919050565b600081600001549050919050565b6133a1828260405180602001604052806000815250613af7565b5050565b6133ae8261342f565b6133ed576040517f08c379a00000000000000000000000000000000000000000000000000000000081526004016133e490615cff565b60405180910390fd5b80609760008481526020019081526020016000209080519060200190613414929190613ee4565b505050565b6001816000016000828254019250508190555050565b60008073ffffffffffffffffffffffffffffffffffffffff1661345183612ba3565b73ffffffffffffffffffffffffffffffffffffffff1614159050919050565b600081141561347e57613805565b600060ff600085815260200190815260200160002060008473ffffffffffffffffffffffffffffffffffffffff1673ffffffffffffffffffffffffffffffffffffffff16815260200190815260200160002054905081811015613516576040517f08c379a000000000000000000000000000000000000000000000000000000000815260040161350d90615d6b565b60405180910390fd5b60008282613524919061546e565b90508060ff600087815260200190815260200160002060008673ffffffffffffffffffffffffffffffffffffffff1673ffffffffffffffffffffffffffffffffffffffff16815260200190815260200160002081905550600081141561380257600060016101006000888152602001908152602001600020805490506135aa919061546e565b90506000610100600088815260200190815260200160002082815481106135d4576135d3615998565b5b9060005260206000200160009054906101000a900473ffffffffffffffffffffffffffffffffffffffff1690508073ffffffffffffffffffffffffffffffffffffffff168673ffffffffffffffffffffffffffffffffffffffff1614613751576000610101600089815260200190815260200160002060008873ffffffffffffffffffffffffffffffffffffffff1673ffffffffffffffffffffffffffffffffffffffff1681526020019081526020016000205490508161010060008a815260200190815260200160002082815481106136b1576136b0615998565b5b9060005260206000200160006101000a81548173ffffffffffffffffffffffffffffffffffffffff021916908373ffffffffffffffffffffffffffffffffffffffff1602179055508061010160008a815260200190815260200160002060008473ffffffffffffffffffffffffffffffffffffffff1673ffffffffffffffffffffffffffffffffffffffff16815260200190815260200160002081905550505b610101600088815260200190815260200160002060008773ffffffffffffffffffffffffffffffffffffffff1673ffffffffffffffffffffffffffffffffffffffff1681526020019081526020016000206000905561010060008881526020019081526020016000208054806137ca576137c9615d8b565b5b6001900381819060005260206000200160006101000a81549073ffffffffffffffffffffffffffffffffffffffff0219169055905550505b50505b505050565b600060019054906101000a900460ff16613859576040517f08c379a000000000000000000000000000000000000000000000000000000000815260040161385090615710565b60405180910390fd5b816065908051906020019061386f929190613ee4565b508060669080519060200190613886929190613ee4565b505050565b50505050565b50505050565b60006138b88473ffffffffffffffffffffffffffffffffffffffff16612743565b15613a12578373ffffffffffffffffffffffffffffffffffffffff1663150b7a026138e1612484565b8786866040518563ffffffff1660e01b81526004016139039493929190615e0f565b6020604051808303816000875af192505050801561393f57506040513d601f19601f8201168201806040525081019061393c9190615e70565b60015b6139c2573d806000811461396f576040519150601f19603f3d011682016040523d82523d6000602084013e613974565b606091505b506000815114156139ba576040517f08c379a00000000000000000000000000000000000000000000000000000000081526004016139b190615c6d565b60405180910390fd5b805181602001fd5b63150b7a0260e01b7bffffffffffffffffffffffffffffffffffffffffffffffffffffffff1916817bffffffffffffffffffffffffffffffffffffffffffffffffffffffff191614915050613a17565b600190505b949350505050565b606060006001613a2e84613b52565b01905060008167ffffffffffffffff811115613a4d57613a4c614466565b5b6040519080825280601f01601f191660200182016040528015613a7f5781602001600182028036833780820191505090505b509050600082602001820190505b600115613aec578080600190039150507f3031323334353637383961626364656600000000000000000000000000000000600a86061a8153600a8581613ad657613ad5615e9d565b5b0494506000851415613ae757613aec565b613a8d565b819350505050919050565b613b018383613ca5565b613b0e6000848484613897565b613b4d576040517f08c379a0000000000000000000000000000000000000000000000000000000008152600401613b4490615c6d565b60405180910390fd5b505050565b600080600090507a184f03e93ff9f4daa797ed6e38ed64bf6a1f0100000000000000008310613bb0577a184f03e93ff9f4daa797ed6e38ed64bf6a1f0100000000000000008381613ba657613ba5615e9d565b5b0492506040810190505b6d04ee2d6d415b85acef81000000008310613bed576d04ee2d6d415b85acef81000000008381613be357613be2615e9d565b5b0492506020810190505b662386f26fc100008310613c1c57662386f26fc100008381613c1257613c11615e9d565b5b0492506010810190505b6305f5e1008310613c45576305f5e1008381613c3b57613c3a615e9d565b5b0492506008810190505b6127108310613c6a576127108381613c6057613c5f615e9d565b5b0492506004810190505b60648310613c8d5760648381613c8357613c82615e9d565b5b0492506002810190505b600a8310613c9c576001810190505b80915050919050565b600073ffffffffffffffffffffffffffffffffffffffff168273ffffffffffffffffffffffffffffffffffffffff161415613d15576040517f08c379a0000000000000000000000000000000000000000000000000000000008152600401613d0c90615f18565b60405180910390fd5b613d1e8161342f565b15613d5e576040517f08c379a0000000000000000000000000000000000000000000000000000000008152600401613d5590615f84565b60405180910390fd5b613d6c60008383600161388b565b613d758161342f565b15613db5576040517f08c379a0000000000000000000000000000000000000000000000000000000008152600401613dac90615f84565b60405180910390fd5b6001606860008473ffffffffffffffffffffffffffffffffffffffff1673ffffffffffffffffffffffffffffffffffffffff16815260200190815260200160002060008282540192505081905550816067600083815260200190815260200160002060006101000a81548173ffffffffffffffffffffffffffffffffffffffff021916908373ffffffffffffffffffffffffffffffffffffffff160217905550808273ffffffffffffffffffffffffffffffffffffffff16600073ffffffffffffffffffffffffffffffffffffffff167fddf252ad1be2c89b69c2b068fc378daa952ba7f163c4a11628f55a4df523b3ef60405160405180910390a4613ebf600083836001613891565b5050565b5080546000825590600052602060002090810190613ee19190613f6a565b50565b828054613ef090614c71565b90600052602060002090601f016020900481019282613f125760008555613f59565b82601f10613f2b57805160ff1916838001178555613f59565b82800160010185558215613f59579182015b82811115613f58578251825591602001919060010190613f3d565b5b509050613f669190613fc7565b5090565b5b80821115613fc357600080820160006101000a81549073ffffffffffffffffffffffffffffffffffffffff02191690556000820160146101000a8154906bffffffffffffffffffffffff021916905550600101613f6b565b5090565b5b80821115613fe0576000816000905550600101613fc8565b5090565b6000604051905090565b600080fd5b600080fd5b60007fffffffff0000000000000000000000000000000000000000000000000000000082169050919050565b61402d81613ff8565b811461403857600080fd5b50565b60008135905061404a81614024565b92915050565b60006020828403121561406657614065613fee565b5b60006140748482850161403b565b91505092915050565b60008115159050919050565b6140928161407d565b82525050565b60006020820190506140ad6000830184614089565b92915050565b6000819050919050565b6140c6816140b3565b81146140d157600080fd5b50565b6000813590506140e3816140bd565b92915050565b6000602082840312156140ff576140fe613fee565b5b600061410d848285016140d4565b91505092915050565b600081519050919050565b600082825260208201905092915050565b6000819050602082019050919050565b600073ffffffffffffffffffffffffffffffffffffffff82169050919050565b600061416d82614142565b9050919050565b61417d81614162565b82525050565b60006bffffffffffffffffffffffff82169050919050565b6141a481614183565b82525050565b6040820160008201516141c06000850182614174565b5060208201516141d3602085018261419b565b50505050565b60006141e583836141aa565b60408301905092915050565b6000602082019050919050565b600061420982614116565b6142138185614121565b935061421e83614132565b8060005b8381101561424f57815161423688826141d9565b9750614241836141f1565b925050600181019050614222565b5085935050505092915050565b6000602082019050818103600083015261427681846141fe565b905092915050565b600081519050919050565b600082825260208201905092915050565b60005b838110156142b857808201518184015260208101905061429d565b838111156142c7576000848401525b50505050565b6000601f19601f8301169050919050565b60006142e98261427e565b6142f38185614289565b935061430381856020860161429a565b61430c816142cd565b840191505092915050565b6000602082019050818103600083015261433181846142de565b905092915050565b600061434482614142565b9050919050565b61435481614339565b82525050565b600060208201905061436f600083018461434b565b92915050565b61437e81614339565b811461438957600080fd5b50565b60008135905061439b81614375565b92915050565b600080604083850312156143b8576143b7613fee565b5b60006143c68582860161438c565b92505060206143d7858286016140d4565b9150509250929050565b600080600080600060a086880312156143fd576143fc613fee565b5b600061440b888289016140d4565b955050602061441c8882890161438c565b945050604061442d8882890161438c565b935050606061443e8882890161438c565b925050608061444f888289016140d4565b9150509295509295909350565b600080fd5b600080fd5b7f4e487b7100000000000000000000000000000000000000000000000000000000600052604160045260246000fd5b61449e826142cd565b810181811067ffffffffffffffff821117156144bd576144bc614466565b5b80604052505050565b60006144d0613fe4565b90506144dc8282614495565b919050565b600067ffffffffffffffff8211156144fc576144fb614466565b5b614505826142cd565b9050602081019050919050565b82818337600083830152505050565b600061453461452f846144e1565b6144c6565b9050828152602081018484840111156145505761454f614461565b5b61455b848285614512565b509392505050565b600082601f8301126145785761457761445c565b5b8135614588848260208601614521565b91505092915050565b600080600080608085870312156145ab576145aa613fee565b5b60006145b98782880161438c565b94505060206145ca8782880161438c565b93505060406145db878288016140d4565b925050606085013567ffffffffffffffff8111156145fc576145fb613ff3565b5b61460887828801614563565b91505092959194509250565b61461d81613ff8565b82525050565b60006020820190506146386000830184614614565b92915050565b600067ffffffffffffffff82111561465957614658614466565b5b614662826142cd565b9050602081019050919050565b600061468261467d8461463e565b6144c6565b90508281526020810184848401111561469e5761469d614461565b5b6146a9848285614512565b509392505050565b600082601f8301126146c6576146c561445c565b5b81356146d684826020860161466f565b91505092915050565b600080600080608085870312156146f9576146f8613fee565b5b60006147078782880161438c565b94505060206147188782880161438c565b935050604085013567ffffffffffffffff81111561473957614738613ff3565b5b614745878288016146b1565b925050606085013567ffffffffffffffff81111561476657614765613ff3565b5b614772878288016146b1565b91505092959194509250565b60008060006060848603121561479757614796613fee565b5b60006147a58682870161438c565b93505060206147b68682870161438c565b92505060406147c7868287016140d4565b9150509250925092565b600080604083850312156147e8576147e7613fee565b5b60006147f6858286016140d4565b92505060206148078582860161438c565b9150509250929050565b61481a816140b3565b82525050565b60006020820190506148356000830184614811565b92915050565b60006020828403121561485157614850613fee565b5b600061485f8482850161438c565b91505092915050565b6148718161407d565b811461487c57600080fd5b50565b60008135905061488e81614868565b92915050565b600080604083850312156148ab576148aa613fee565b5b60006148b98582860161438c565b92505060206148ca8582860161487f565b9150509250929050565b600067ffffffffffffffff8211156148ef576148ee614466565b5b602082029050602081019050919050565b600080fd5b600080fd5b61491381614162565b811461491e57600080fd5b50565b6000813590506149308161490a565b92915050565b61493f81614183565b811461494a57600080fd5b50565b60008135905061495c81614936565b92915050565b60006040828403121561497857614977614905565b5b61498260406144c6565b9050600061499284828501614921565b60008301525060206149a68482850161494d565b60208301525092915050565b60006149c56149c0846148d4565b6144c6565b905080838252602082019050604084028301858111156149e8576149e7614900565b5b835b81811015614a1157806149fd8882614962565b8452602084019350506040810190506149ea565b5050509392505050565b600082601f830112614a3057614a2f61445c565b5b8135614a408482602086016149b2565b91505092915050565b60008060008060808587031215614a6357614a62613fee565b5b6000614a71878288016140d4565b9450506020614a828782880161438c565b9350506040614a93878288016140d4565b925050606085013567ffffffffffffffff811115614ab457614ab3613ff3565b5b614ac087828801614a1b565b91505092959194509250565b600080600060608486031215614ae557614ae4613fee565b5b6000614af3868287016140d4565b9350506020614b048682870161438c565b9250506040614b15868287016140d4565b9150509250925092565b60008060408385031215614b3657614b35613fee565b5b6000614b448582860161438c565b9250506020614b558582860161438c565b9150509250929050565b60008060408385031215614b7657614b75613fee565b5b6000614b848582860161438c565b925050602083013567ffffffffffffffff811115614ba557614ba4613ff3565b5b614bb1858286016146b1565b9150509250929050565b60008060408385031215614bd257614bd1613fee565b5b6000614be0858286016140d4565b9250506020614bf1858286016140d4565b9150509250929050565b614c0481614162565b82525050565b614c1381614183565b82525050565b6000604082019050614c2e6000830185614bfb565b614c3b6020830184614c0a565b9392505050565b7f4e487b7100000000000000000000000000000000000000000000000000000000600052602260045260246000fd5b60006002820490506001821680614c8957607f821691505b60208210811415614c9d57614c9c614c42565b5b50919050565b7f4552433732313a20617070726f76616c20746f2063757272656e74206f776e6560008201527f7200000000000000000000000000000000000000000000000000000000000000602082015250565b6000614cff602183614289565b9150614d0a82614ca3565b604082019050919050565b60006020820190508181036000830152614d2e81614cf2565b9050919050565b7f4552433732313a20617070726f76652063616c6c6572206973206e6f7420746f60008201527f6b656e206f776e6572206f7220617070726f76656420666f7220616c6c000000602082015250565b6000614d91603d83614289565b9150614d9c82614d35565b604082019050919050565b60006020820190508181036000830152614dc081614d84565b9050919050565b7f4e6f7420746f6b656e204f776e65720000000000000000000000000000000000600082015250565b6000614dfd600f83614289565b9150614e0882614dc7565b602082019050919050565b60006020820190508181036000830152614e2c81614df0565b9050919050565b7f30206164647265737320676976656e0000000000000000000000000000000000600082015250565b6000614e69600f83614289565b9150614e7482614e33565b602082019050919050565b60006020820190508181036000830152614e9881614e5c565b9050919050565b7f30206164647265737320636f6e74726163740000000000000000000000000000600082015250565b6000614ed5601283614289565b9150614ee082614e9f565b602082019050919050565b60006020820190508181036000830152614f0481614ec8565b9050919050565b600060a082019050614f206000830188614811565b614f2d602083018761434b565b614f3a604083018661434b565b614f47606083018561434b565b614f546080830184614811565b9695505050505050565b7f496e697469616c697a61626c653a20636f6e747261637420697320616c72656160008201527f647920696e697469616c697a6564000000000000000000000000000000000000602082015250565b6000614fba602e83614289565b9150614fc582614f5e565b604082019050919050565b60006020820190508181036000830152614fe981614fad565b9050919050565b6000819050919050565b600060ff82169050919050565b6000819050919050565b600061502c61502761502284614ff0565b615007565b614ffa565b9050919050565b61503c81615011565b82525050565b60006020820190506150576000830184615033565b92915050565b7f4552433732313a2063616c6c6572206973206e6f7420746f6b656e206f776e6560008201527f72206f7220617070726f76656400000000000000000000000000000000000000602082015250565b60006150b9602d83614289565b91506150c48261505d565b604082019050919050565b600060208201905081810360008301526150e8816150ac565b9050919050565b60006040820190506151046000830185614811565b615111602083018461434b565b9392505050565b7f4552433732313a20696e76616c696420746f6b656e2049440000000000000000600082015250565b600061514e601883614289565b915061515982615118565b602082019050919050565b6000602082019050818103600083015261517d81615141565b9050919050565b7f4552433732313a2061646472657373207a65726f206973206e6f74206120766160008201527f6c6964206f776e65720000000000000000000000000000000000000000000000602082015250565b60006151e0602983614289565b91506151eb82615184565b604082019050919050565b6000602082019050818103600083015261520f816151d3565b9050919050565b7f7a65726f206164647265737320636f6e74726163740000000000000000000000600082015250565b600061524c601583614289565b915061525782615216565b602082019050919050565b6000602082019050818103600083015261527b8161523f565b9050919050565b6000606082019050615297600083018661434b565b6152a4602083018561434b565b6152b16040830184614811565b949350505050565b6000815190506152c881614868565b92915050565b6000602082840312156152e4576152e3613fee565b5b60006152f2848285016152b9565b91505092915050565b7f7472616e73666572206661696c65642e00000000000000000000000000000000600082015250565b6000615331601083614289565b915061533c826152fb565b602082019050919050565b6000602082019050818103600083015261536081615324565b9050919050565b7f6e6f74206f776e65720000000000000000000000000000000000000000000000600082015250565b600061539d600983614289565b91506153a882615367565b602082019050919050565b600060208201905081810360008301526153cc81615390565b9050919050565b7f7472616e73666572206661696c65640000000000000000000000000000000000600082015250565b6000615409600f83614289565b9150615414826153d3565b602082019050919050565b60006020820190508181036000830152615438816153fc565b9050919050565b7f4e487b7100000000000000000000000000000000000000000000000000000000600052601160045260246000fd5b6000615479826140b3565b9150615484836140b3565b9250828210156154975761549661543f565b5b828203905092915050565b60006040820190506154b7600083018561434b565b6154c46020830184614811565b9392505050565b60006080820190506154e0600083018761434b565b6154ed6020830186614811565b6154fa604083018561434b565b6155076060830184614811565b95945050505050565b600081905092915050565b60006155268261427e565b6155308185615510565b935061554081856020860161429a565b80840191505092915050565b6000615558828561551b565b9150615564828461551b565b91508190509392505050565b600061557b826140b3565b9150615586836140b3565b9250827fffffffffffffffffffffffffffffffffffffffffffffffffffffffffffffffff038211156155bb576155ba61543f565b5b828201905092915050565b7f4e6f74204f776e65720000000000000000000000000000000000000000000000600082015250565b60006155fc600983614289565b9150615607826155c6565b602082019050919050565b6000602082019050818103600083015261562b816155ef565b9050919050565b7f5265656e7472616e637947756172643a207265656e7472616e742063616c6c00600082015250565b6000615668601f83614289565b915061567382615632565b602082019050919050565b600060208201905081810360008301526156978161565b565b9050919050565b7f496e697469616c697a61626c653a20636f6e7472616374206973206e6f74206960008201527f6e697469616c697a696e67000000000000000000000000000000000000000000602082015250565b60006156fa602b83614289565b91506157058261569e565b604082019050919050565b60006020820190508181036000830152615729816156ed565b9050919050565b7f4552433732313a207472616e736665722066726f6d20696e636f72726563742060008201527f6f776e6572000000000000000000000000000000000000000000000000000000602082015250565b600061578c602583614289565b915061579782615730565b604082019050919050565b600060208201905081810360008301526157bb8161577f565b9050919050565b7f4552433732313a207472616e7366657220746f20746865207a65726f2061646460008201527f7265737300000000000000000000000000000000000000000000000000000000602082015250565b600061581e602483614289565b9150615829826157c2565b604082019050919050565b6000602082019050818103600083015261584d81615811565b9050919050565b7f4552433732313a20617070726f766520746f2063616c6c657200000000000000600082015250565b600061588a601983614289565b915061589582615854565b602082019050919050565b600060208201905081810360008301526158b98161587d565b9050919050565b7f5f746f6b656e496420646f6573206e6f742065786973742e0000000000000000600082015250565b60006158f6601883614289565b9150615901826158c0565b602082019050919050565b60006020820190508181036000830152615925816158e9565b9050919050565b7f313020526f79616c7479206c696d697400000000000000000000000000000000600082015250565b6000615962601083614289565b915061596d8261592c565b602082019050919050565b6000602082019050818103600083015261599181615955565b9050919050565b7f4e487b7100000000000000000000000000000000000000000000000000000000600052603260045260246000fd5b7f526f79616c7479203d2030000000000000000000000000000000000000000000600082015250565b60006159fd600b83614289565b9150615a08826159c7565b602082019050919050565b60006020820190508181036000830152615a2c816159f0565b9050919050565b6000615a3e826140b3565b91507fffffffffffffffffffffffffffffffffffffffffffffffffffffffffffffffff821415615a7157615a7061543f565b5b600182019050919050565b7f526f79616c74696573206f766572666c6f770000000000000000000000000000600082015250565b6000615ab2601283614289565b9150615abd82615a7c565b602082019050919050565b60006020820190508181036000830152615ae181615aa5565b9050919050565b600081905092915050565b615afc81614162565b82525050565b6000615b0e8383615af3565b60208301905092915050565b615b2381614183565b82525050565b6000615b358383615b1a565b60208301905092915050565b600082016000820151615b548482615b02565b9350506020820151615b668482615b29565b935050505050565b6000615b7a8383615b41565b60408301905092915050565b6000615b9182614116565b615b9b8185615ae8565b9350615ba683614132565b8060005b83811015615bd7578151615bbe8882615b6e565b9750615bc9836141f1565b925050600181019050615baa565b5085935050505092915050565b6000615bf08284615b86565b915081905092915050565b7f4552433732313a207472616e7366657220746f206e6f6e20455243373231526560008201527f63656976657220696d706c656d656e7465720000000000000000000000000000602082015250565b6000615c57603283614289565b9150615c6282615bfb565b604082019050919050565b60006020820190508181036000830152615c8681615c4a565b9050919050565b7f45524337323155524953746f726167653a2055524920736574206f66206e6f6e60008201527f6578697374656e7420746f6b656e000000000000000000000000000000000000602082015250565b6000615ce9602e83614289565b9150615cf482615c8d565b604082019050919050565b60006020820190508181036000830152615d1881615cdc565b9050919050565b7f617661696c61626c652062616c616e6365206c6f770000000000000000000000600082015250565b6000615d55601583614289565b9150615d6082615d1f565b602082019050919050565b60006020820190508181036000830152615d8481615d48565b9050919050565b7f4e487b7100000000000000000000000000000000000000000000000000000000600052603160045260246000fd5b600081519050919050565b600082825260208201905092915050565b6000615de182615dba565b615deb8185615dc5565b9350615dfb81856020860161429a565b615e04816142cd565b840191505092915050565b6000608082019050615e24600083018761434b565b615e31602083018661434b565b615e3e6040830185614811565b8181036060830152615e508184615dd6565b905095945050505050565b600081519050615e6a81614024565b92915050565b600060208284031215615e8657615e85613fee565b5b6000615e9484828501615e5b565b91505092915050565b7f4e487b7100000000000000000000000000000000000000000000000000000000600052601260045260246000fd5b7f4552433732313a206d696e7420746f20746865207a65726f2061646472657373600082015250565b6000615f02602083614289565b9150615f0d82615ecc565b602082019050919050565b60006020820190508181036000830152615f3181615ef5565b9050919050565b7f4552433732313a20746f6b656e20616c7265616479206d696e74656400000000600082015250565b6000615f6e601c83614289565b9150615f7982615f38565b602082019050919050565b60006020820190508181036000830152615f9d81615f61565b905091905056fea2646970667358221220a9fa5b5ba2f87a24954a6abb2b146e4265ac57ba53461425fb08fd0c139eb5ac64736f6c634300080b0033",
  "immutableReferences": {},
  "source": "// SPDX-License-Identifier: MIT\npragma solidity >=0.4.22 <0.9.0;\n\nimport \"@openzeppelin/contracts/token/ERC20/IERC20.sol\";\nimport \"@openzeppelin/contracts/token/ERC721/ERC721.sol\";\nimport \"@openzeppelin/contracts/utils/Counters.sol\";\nimport \"@openzeppelin/contracts-upgradeable/token/ERC721/extensions/ERC721URIStorageUpgradeable.sol\";\nimport \"@openzeppelin/contracts-upgradeable/security/ReentrancyGuardUpgradeable.sol\";\nimport \"@openzeppelin/contracts-upgradeable/proxy/utils/Initializable.sol\";\nimport \"@openzeppelin/contracts-upgradeable/token/ERC721/IERC721ReceiverUpgradeable.sol\";\nimport \"./Libraries/LibCollection.sol\";\nimport \"./utils/LibShare.sol\";\n\ncontract CollectionMethods is\n    Initializable,\n    ERC721URIStorageUpgradeable,\n    IERC721ReceiverUpgradeable,\n    ReentrancyGuardUpgradeable\n{\n    using Counters for Counters.Counter;\n    Counters.Counter private _tokenIdCounter;\n    address public collectionOwner;\n    address public piNFTAddress;\n\n    // tokenId => collection royalties\n    mapping(uint256 => LibShare.Share[]) public RoyaltiesForValidator;\n\n    // tokenId => (token contract => balance)\n    mapping(uint256 => mapping(address => uint256)) erc20Balances;\n\n    // tokenId => token contract\n    mapping(uint256 => address[]) erc20Contracts;\n\n    // tokenId => (token contract => token contract index)\n    mapping(uint256 => mapping(address => uint256)) erc20ContractIndex;\n\n    // TokenId => Owner Address\n    mapping(uint256 => address) NFTowner;\n\n    // TokenId => Amount\n    mapping(uint256 => uint256) public withdrawnAmount;\n\n    mapping(uint256 => address) public approvedValidator;\n\n    event ERC20Added(\n        address indexed _from,\n        uint256 indexed _tokenId,\n        address indexed _erc20Contract,\n        uint256 _value\n    );\n    event ERC20Transferred(\n        uint256 indexed _tokenId,\n        address indexed _to,\n        address indexed _erc20Contract,\n        uint256 _value\n    );\n\n    event RoyaltiesSet(\n        uint256 indexed tokenId,\n        LibShare.Share[] indexed royalties\n    );\n\n    event PiNFTRedeemed(\n        uint256 tokenId,\n        address nftReciever,\n        address validatorAddress,\n        address erc20Contract,\n        uint256 value\n    );\n\n    event PiNFTBurnt(\n        uint256 tokenId,\n        address nftReciever,\n        address erc20Receiver,\n        address erc20Contract,\n        uint256 value\n    );\n\n    event ValidatorFundsWithdrawn(\n        address withdrawer,\n        uint256 tokenId,\n        address erc20Contract,\n        uint256 amount\n    );\n\n    event ValidatorFundsRepayed(\n        address repayer,\n        uint256 tokenId,\n        address erc20Contract,\n        uint256 amount\n    );\n\n    event ValidatorAdded(uint256 tokenId, address validator);\n\n    event TokenMinted(uint256 tokenId, address to);\n\n    function initialize(\n        address _collectionOwner,\n        address _piNFTAddress,\n        string memory _name,\n        string memory _symbol\n    ) external initializer {\n        __ERC721_init(_name, _symbol);\n        __ERC721URIStorage_init();\n        collectionOwner = _collectionOwner;\n        piNFTAddress = _piNFTAddress;\n    }\n\n    modifier onlyOwnerOfToken(uint256 _tokenId) {\n        require(\n            msg.sender == ERC721Upgradeable.ownerOf(_tokenId),\n            \"Not token Owner\"\n        );\n        _;\n    }\n\n    // mints an ERC721 token to _to with _uri as token uri\n    function mintNFT(address _to, string memory _uri) public {\n        require(msg.sender == collectionOwner, \"Not Owner\");\n        require(_to != address(0), \"0 address given\");\n        uint256 tokenId_ = _tokenIdCounter.current();\n        _safeMint(_to, tokenId_);\n        _setTokenURI(tokenId_, _uri);\n        _tokenIdCounter.increment();\n        emit TokenMinted(tokenId_, _to);\n    }\n\n    function addValidator(\n        uint256 _tokenId,\n        address _validator\n    ) external onlyOwnerOfToken(_tokenId) {\n        approvedValidator[_tokenId] = _validator;\n        emit ValidatorAdded(_tokenId, _validator);\n    }\n\n    // this function requires approval of tokens by _erc20Contract\n    // adds ERC20 tokens to the token with _tokenId(basically trasnfer ERC20 to this contract)\n    function addERC20(\n        uint256 _tokenId,\n        address _erc20Contract,\n        uint256 _value,\n        LibShare.Share[] memory royalties\n    ) public {\n        require(msg.sender == approvedValidator[_tokenId]);\n        require(_erc20Contract != address(0), \"zero address contract\");\n        require(_value != 0);\n        require(erc20Contracts[_tokenId].length < 1);\n        NFTowner[_tokenId] = ERC721Upgradeable.ownerOf(_tokenId);\n        updateERC20(_tokenId, _erc20Contract, _value);\n        setRoyaltiesForValidator(_tokenId, royalties);\n        require(\n            IERC20(_erc20Contract).transferFrom(\n                msg.sender,\n                address(this),\n                _value\n            ),\n            \"transfer failed.\"\n        );\n        emit ERC20Added(msg.sender, _tokenId, _erc20Contract, _value);\n    }\n\n    // update the mappings for a token on recieving ERC20 tokens\n    function updateERC20(\n        uint256 _tokenId,\n        address _erc20Contract,\n        uint256 _value\n    ) private {\n        require(\n            ERC721Upgradeable.ownerOf(_tokenId) != address(0),\n            \"_tokenId does not exist.\"\n        );\n        if (_value == 0) {\n            return;\n        }\n        uint256 erc20Balance = erc20Balances[_tokenId][_erc20Contract];\n        if (erc20Balance == 0) {\n            erc20ContractIndex[_tokenId][_erc20Contract] = erc20Contracts[\n                _tokenId\n            ].length;\n            erc20Contracts[_tokenId].push(_erc20Contract);\n        }\n        erc20Balances[_tokenId][_erc20Contract] += _value;\n    }\n\n    //Set Royalties for Validator\n    function setRoyaltiesForValidator(\n        uint256 _tokenId,\n        LibShare.Share[] memory royalties\n    ) internal {\n        require(royalties.length <= 10, \"10 Royalty limit\");\n        delete RoyaltiesForValidator[_tokenId];\n        uint256 sumRoyalties = 0;\n        for (uint256 i = 0; i < royalties.length; i++) {\n            require(royalties[i].account != address(0x0), \"0 address given\");\n            require(royalties[i].value != 0, \"Royalty = 0\");\n            RoyaltiesForValidator[_tokenId].push(royalties[i]);\n            sumRoyalties += royalties[i].value;\n        }\n        require(sumRoyalties < 10000, \"Royalties overflow\");\n\n        emit RoyaltiesSet(_tokenId, royalties);\n    }\n\n    function redeemPiNFT(\n        uint256 _tokenId,\n        address _nftReciever,\n        address _validatorAddress,\n        address _erc20Contract,\n        uint256 _value\n    ) external onlyOwnerOfToken(_tokenId) nonReentrant {\n        require(_validatorAddress == approvedValidator[_tokenId]);\n        require(_nftReciever != address(0), \"0 address given\");\n        require(_erc20Contract != address(0), \"0 address contract\");\n        require(erc20Balances[_tokenId][_erc20Contract] != 0);\n        require(erc20Balances[_tokenId][_erc20Contract] == _value);\n        approvedValidator[_tokenId] = address(0);\n        NFTowner[_tokenId] = address(0);\n        _transferERC20(_tokenId, _validatorAddress, _erc20Contract, _value);\n        if (msg.sender != _nftReciever) {\n            ERC721Upgradeable.safeTransferFrom(\n                msg.sender,\n                _nftReciever,\n                _tokenId\n            );\n        }\n        emit PiNFTRedeemed(\n            _tokenId,\n            _nftReciever,\n            _validatorAddress,\n            _erc20Contract,\n            _value\n        );\n    }\n\n    function burnPiNFT(\n        uint256 _tokenId,\n        address _nftReciever,\n        address _erc20Reciever,\n        address _erc20Contract,\n        uint256 _value\n    ) external onlyOwnerOfToken(_tokenId) nonReentrant {\n        require(_nftReciever != address(0), \"0 address given\");\n        require(_nftReciever == approvedValidator[_tokenId]);\n        require(_erc20Contract != address(0), \"0 address contract\");\n        require(erc20Balances[_tokenId][_erc20Contract] != 0);\n        require(erc20Balances[_tokenId][_erc20Contract] == _value);\n        approvedValidator[_tokenId] = address(0);\n        NFTowner[_tokenId] = address(0);\n        _transferERC20(_tokenId, _erc20Reciever, _erc20Contract, _value);\n        ERC721Upgradeable.safeTransferFrom(msg.sender, _nftReciever, _tokenId);\n        emit PiNFTBurnt(\n            _tokenId,\n            _nftReciever,\n            _erc20Reciever,\n            _erc20Contract,\n            _value\n        );\n    }\n\n    // transfers the ERC 20 tokens from _tokenId(this contract) to _to address\n    function _transferERC20(\n        uint256 _tokenId,\n        address _to,\n        address _erc20Contract,\n        uint256 _value\n    ) private {\n        require(_to != address(0), \"0 address given\");\n        removeERC20(_tokenId, _erc20Contract, _value);\n        require(\n            IERC20(_erc20Contract).transfer(_to, _value),\n            \"transfer failed.\"\n        );\n        emit ERC20Transferred(_tokenId, _to, _erc20Contract, _value);\n    }\n\n    // update the mappings for a token when ERC20 tokens gets removed\n    function removeERC20(\n        uint256 _tokenId,\n        address _erc20Contract,\n        uint256 _value\n    ) private {\n        if (_value == 0) {\n            return;\n        }\n        uint256 erc20Balance = erc20Balances[_tokenId][_erc20Contract];\n        require(erc20Balance >= _value, \"available balance low\");\n        uint256 newERC20Balance = erc20Balance - _value;\n        erc20Balances[_tokenId][_erc20Contract] = newERC20Balance;\n        if (newERC20Balance == 0) {\n            uint256 lastContractIndex = erc20Contracts[_tokenId].length - 1;\n            address lastContract = erc20Contracts[_tokenId][lastContractIndex];\n            if (_erc20Contract != lastContract) {\n                uint256 contractIndex = erc20ContractIndex[_tokenId][\n                    _erc20Contract\n                ];\n                erc20Contracts[_tokenId][contractIndex] = lastContract;\n                erc20ContractIndex[_tokenId][lastContract] = contractIndex;\n            }\n            delete erc20ContractIndex[_tokenId][_erc20Contract];\n            erc20Contracts[_tokenId].pop();\n        }\n    }\n\n    // view ERC 20 token balance of a token\n    function viewBalance(\n        uint256 _tokenId,\n        address _erc20Address\n    ) public view returns (uint256) {\n        return erc20Balances[_tokenId][_erc20Address];\n    }\n\n    function getValidatorRoyalties(\n        uint256 _tokenId\n    ) external view returns (LibShare.Share[] memory) {\n        return RoyaltiesForValidator[_tokenId];\n    }\n\n    function withdraw(\n        uint256 _tokenId,\n        address _erc20Contract,\n        uint256 _amount\n    ) external nonReentrant {\n        require(NFTowner[_tokenId] == msg.sender, \"not owner\");\n        require(erc20Balances[_tokenId][_erc20Contract] != 0);\n        require(\n            withdrawnAmount[_tokenId] + _amount <=\n                erc20Balances[_tokenId][_erc20Contract]\n        );\n        require(\n            IERC20(_erc20Contract).transfer(msg.sender, _amount),\n            \"transfer failed\"\n        );\n\n        //needs approval on frontend\n        // transferring NFT to this address\n        if (withdrawnAmount[_tokenId] == 0) {\n            ERC721Upgradeable.safeTransferFrom(\n                msg.sender,\n                address(this),\n                _tokenId\n            );\n        }\n\n        withdrawnAmount[_tokenId] += _amount;\n        emit ValidatorFundsWithdrawn(\n            msg.sender,\n            _tokenId,\n            _erc20Contract,\n            _amount\n        );\n    }\n\n    function Repay(\n        uint256 _tokenId,\n        address _erc20Contract,\n        uint256 _amount\n    ) external nonReentrant {\n        require(NFTowner[_tokenId] == msg.sender, \"not owner\");\n        require(erc20Balances[_tokenId][_erc20Contract] != 0);\n        require(_amount <= withdrawnAmount[_tokenId]);\n        // Send payment to the Pool\n        require(\n            IERC20(_erc20Contract).transferFrom(\n                msg.sender,\n                address(this),\n                _amount\n            ),\n            \"transfer failed\"\n        );\n        withdrawnAmount[_tokenId] -= _amount;\n\n        if (withdrawnAmount[_tokenId] == 0) {\n            ERC721Upgradeable(address(this)).approve(msg.sender, _tokenId);\n            ERC721Upgradeable.safeTransferFrom(\n                address(this),\n                msg.sender,\n                _tokenId\n            );\n        }\n        emit ValidatorFundsRepayed(\n            msg.sender,\n            _tokenId,\n            _erc20Contract,\n            _amount\n        );\n    }\n\n    function onERC721Received(\n        address,\n        address,\n        uint256,\n        bytes memory\n    ) public virtual override returns (bytes4) {\n        return this.onERC721Received.selector;\n    }\n}\n",
  "sourcePath": "/home/sheeshco/code/truffle/aconomy-contract/contracts/CollectionMethods.sol",
  "compiler": {
    "name": "solc",
    "version": "0.8.11+commit.d7f03943.Emscripten.clang"
  },
  "schemaVersion": "3.4.10",
  "updatedAt": "2023-03-21T07:02:45.389Z",
  "devdoc": {
    "kind": "dev",
    "methods": {
      "approve(address,uint256)": {
        "details": "See {IERC721-approve}."
      },
      "balanceOf(address)": {
        "details": "See {IERC721-balanceOf}."
      },
      "getApproved(uint256)": {
        "details": "See {IERC721-getApproved}."
      },
      "isApprovedForAll(address,address)": {
        "details": "See {IERC721-isApprovedForAll}."
      },
      "name()": {
        "details": "See {IERC721Metadata-name}."
      },
      "ownerOf(uint256)": {
        "details": "See {IERC721-ownerOf}."
      },
      "safeTransferFrom(address,address,uint256)": {
        "details": "See {IERC721-safeTransferFrom}."
      },
      "safeTransferFrom(address,address,uint256,bytes)": {
        "details": "See {IERC721-safeTransferFrom}."
      },
      "setApprovalForAll(address,bool)": {
        "details": "See {IERC721-setApprovalForAll}."
      },
      "supportsInterface(bytes4)": {
        "details": "See {IERC165-supportsInterface}."
      },
      "symbol()": {
        "details": "See {IERC721Metadata-symbol}."
      },
      "tokenURI(uint256)": {
        "details": "See {IERC721Metadata-tokenURI}."
      },
      "transferFrom(address,address,uint256)": {
        "details": "See {IERC721-transferFrom}."
      }
    },
    "version": 1
  },
  "userdoc": {
    "kind": "user",
    "methods": {},
    "version": 1
  }
}