{
  "contractName": "CollectionMethods",
  "abi": [
    {
      "anonymous": false,
      "inputs": [
        {
          "indexed": true,
          "internalType": "address",
          "name": "owner",
          "type": "address"
        },
        {
          "indexed": true,
          "internalType": "address",
          "name": "approved",
          "type": "address"
        },
        {
          "indexed": true,
          "internalType": "uint256",
          "name": "tokenId",
          "type": "uint256"
        }
      ],
      "name": "Approval",
      "type": "event"
    },
    {
      "anonymous": false,
      "inputs": [
        {
          "indexed": true,
          "internalType": "address",
          "name": "owner",
          "type": "address"
        },
        {
          "indexed": true,
          "internalType": "address",
          "name": "operator",
          "type": "address"
        },
        {
          "indexed": false,
          "internalType": "bool",
          "name": "approved",
          "type": "bool"
        }
      ],
      "name": "ApprovalForAll",
      "type": "event"
    },
    {
      "anonymous": false,
      "inputs": [
        {
          "indexed": false,
          "internalType": "uint8",
          "name": "version",
          "type": "uint8"
        }
      ],
      "name": "Initialized",
      "type": "event"
    },
    {
      "anonymous": false,
      "inputs": [
        {
          "indexed": true,
          "internalType": "uint256",
          "name": "tokenId",
          "type": "uint256"
        },
        {
          "components": [
            {
              "internalType": "address payable",
              "name": "account",
              "type": "address"
            },
            {
              "internalType": "uint96",
              "name": "value",
              "type": "uint96"
            }
          ],
          "indexed": false,
          "internalType": "struct LibShare.Share[]",
          "name": "royalties",
          "type": "tuple[]"
        }
      ],
      "name": "RoyaltiesSet",
      "type": "event"
    },
    {
      "anonymous": false,
      "inputs": [
        {
          "indexed": false,
          "internalType": "uint256",
          "name": "tokenId",
          "type": "uint256"
        },
        {
          "indexed": false,
          "internalType": "address",
          "name": "to",
          "type": "address"
        }
      ],
      "name": "TokenMinted",
      "type": "event"
    },
    {
      "anonymous": false,
      "inputs": [
        {
          "indexed": true,
          "internalType": "address",
          "name": "from",
          "type": "address"
        },
        {
          "indexed": true,
          "internalType": "address",
          "name": "to",
          "type": "address"
        },
        {
          "indexed": true,
          "internalType": "uint256",
          "name": "tokenId",
          "type": "uint256"
        }
      ],
      "name": "Transfer",
      "type": "event"
    },
    {
      "inputs": [
        {
          "internalType": "uint256",
          "name": "",
          "type": "uint256"
        },
        {
          "internalType": "uint256",
          "name": "",
          "type": "uint256"
        }
      ],
      "name": "RoyaltiesForValidator",
      "outputs": [
        {
          "internalType": "address payable",
          "name": "account",
          "type": "address"
        },
        {
          "internalType": "uint96",
          "name": "value",
          "type": "uint96"
        }
      ],
      "stateMutability": "view",
      "type": "function"
    },
    {
      "inputs": [
        {
          "internalType": "address",
          "name": "to",
          "type": "address"
        },
        {
          "internalType": "uint256",
          "name": "tokenId",
          "type": "uint256"
        }
      ],
      "name": "approve",
      "outputs": [],
      "stateMutability": "nonpayable",
      "type": "function"
    },
    {
      "inputs": [
        {
          "internalType": "address",
          "name": "owner",
          "type": "address"
        }
      ],
      "name": "balanceOf",
      "outputs": [
        {
          "internalType": "uint256",
          "name": "",
          "type": "uint256"
        }
      ],
      "stateMutability": "view",
      "type": "function"
    },
    {
      "inputs": [],
      "name": "collectionFactoryAddress",
      "outputs": [
        {
          "internalType": "address",
          "name": "",
          "type": "address"
        }
      ],
      "stateMutability": "view",
      "type": "function"
    },
    {
      "inputs": [],
      "name": "collectionOwner",
      "outputs": [
        {
          "internalType": "address",
          "name": "",
          "type": "address"
        }
      ],
      "stateMutability": "view",
      "type": "function"
    },
    {
      "inputs": [
        {
          "internalType": "uint256",
          "name": "tokenId",
          "type": "uint256"
        }
      ],
      "name": "getApproved",
      "outputs": [
        {
          "internalType": "address",
          "name": "",
          "type": "address"
        }
      ],
      "stateMutability": "view",
      "type": "function"
    },
    {
      "inputs": [
        {
          "internalType": "address",
          "name": "owner",
          "type": "address"
        },
        {
          "internalType": "address",
          "name": "operator",
          "type": "address"
        }
      ],
      "name": "isApprovedForAll",
      "outputs": [
        {
          "internalType": "bool",
          "name": "",
          "type": "bool"
        }
      ],
      "stateMutability": "view",
      "type": "function"
    },
    {
      "inputs": [],
      "name": "name",
      "outputs": [
        {
          "internalType": "string",
          "name": "",
          "type": "string"
        }
      ],
      "stateMutability": "view",
      "type": "function"
    },
    {
      "inputs": [
        {
          "internalType": "uint256",
          "name": "tokenId",
          "type": "uint256"
        }
      ],
      "name": "ownerOf",
      "outputs": [
        {
          "internalType": "address",
          "name": "",
          "type": "address"
        }
      ],
      "stateMutability": "view",
      "type": "function"
    },
    {
      "inputs": [
        {
          "internalType": "address",
          "name": "from",
          "type": "address"
        },
        {
          "internalType": "address",
          "name": "to",
          "type": "address"
        },
        {
          "internalType": "uint256",
          "name": "tokenId",
          "type": "uint256"
        }
      ],
      "name": "safeTransferFrom",
      "outputs": [],
      "stateMutability": "nonpayable",
      "type": "function"
    },
    {
      "inputs": [
        {
          "internalType": "address",
          "name": "from",
          "type": "address"
        },
        {
          "internalType": "address",
          "name": "to",
          "type": "address"
        },
        {
          "internalType": "uint256",
          "name": "tokenId",
          "type": "uint256"
        },
        {
          "internalType": "bytes",
          "name": "data",
          "type": "bytes"
        }
      ],
      "name": "safeTransferFrom",
      "outputs": [],
      "stateMutability": "nonpayable",
      "type": "function"
    },
    {
      "inputs": [
        {
          "internalType": "address",
          "name": "operator",
          "type": "address"
        },
        {
          "internalType": "bool",
          "name": "approved",
          "type": "bool"
        }
      ],
      "name": "setApprovalForAll",
      "outputs": [],
      "stateMutability": "nonpayable",
      "type": "function"
    },
    {
      "inputs": [
        {
          "internalType": "bytes4",
          "name": "interfaceId",
          "type": "bytes4"
        }
      ],
      "name": "supportsInterface",
      "outputs": [
        {
          "internalType": "bool",
          "name": "",
          "type": "bool"
        }
      ],
      "stateMutability": "view",
      "type": "function"
    },
    {
      "inputs": [],
      "name": "symbol",
      "outputs": [
        {
          "internalType": "string",
          "name": "",
          "type": "string"
        }
      ],
      "stateMutability": "view",
      "type": "function"
    },
    {
      "inputs": [
        {
          "internalType": "uint256",
          "name": "tokenId",
          "type": "uint256"
        }
      ],
      "name": "tokenURI",
      "outputs": [
        {
          "internalType": "string",
          "name": "",
          "type": "string"
        }
      ],
      "stateMutability": "view",
      "type": "function"
    },
    {
      "inputs": [
        {
          "internalType": "address",
          "name": "from",
          "type": "address"
        },
        {
          "internalType": "address",
          "name": "to",
          "type": "address"
        },
        {
          "internalType": "uint256",
          "name": "tokenId",
          "type": "uint256"
        }
      ],
      "name": "transferFrom",
      "outputs": [],
      "stateMutability": "nonpayable",
      "type": "function"
    },
    {
      "inputs": [
        {
          "internalType": "address",
          "name": "_collectionOwner",
          "type": "address"
        },
        {
          "internalType": "address",
          "name": "_collectionFactoryAddress",
          "type": "address"
        },
        {
          "internalType": "string",
          "name": "_name",
          "type": "string"
        },
        {
          "internalType": "string",
          "name": "_symbol",
          "type": "string"
        }
      ],
      "name": "initialize",
      "outputs": [],
      "stateMutability": "nonpayable",
      "type": "function"
    },
    {
      "inputs": [
        {
          "internalType": "address",
          "name": "_to",
          "type": "address"
        },
        {
          "internalType": "string",
          "name": "_uri",
          "type": "string"
        }
      ],
      "name": "mintNFT",
      "outputs": [],
      "stateMutability": "nonpayable",
      "type": "function"
    },
    {
      "inputs": [
        {
          "internalType": "uint256",
          "name": "_tokenId",
          "type": "uint256"
        },
        {
          "internalType": "uint256",
          "name": "_commission",
          "type": "uint256"
        },
        {
          "components": [
            {
              "internalType": "address payable",
              "name": "account",
              "type": "address"
            },
            {
              "internalType": "uint96",
              "name": "value",
              "type": "uint96"
            }
          ],
          "internalType": "struct LibShare.Share[]",
          "name": "royalties",
          "type": "tuple[]"
        }
      ],
      "name": "setRoyaltiesForValidator",
      "outputs": [],
      "stateMutability": "nonpayable",
      "type": "function"
    },
    {
      "inputs": [
        {
          "internalType": "uint256",
          "name": "_tokenId",
          "type": "uint256"
        }
      ],
      "name": "deleteValidatorRoyalties",
      "outputs": [],
      "stateMutability": "nonpayable",
      "type": "function"
    },
    {
      "inputs": [
        {
          "internalType": "uint256",
          "name": "_tokenId",
          "type": "uint256"
        }
      ],
      "name": "deleteNFT",
      "outputs": [],
      "stateMutability": "nonpayable",
      "type": "function"
    },
    {
      "inputs": [
        {
          "internalType": "uint256",
          "name": "_tokenId",
          "type": "uint256"
        }
      ],
      "name": "exists",
      "outputs": [
        {
          "internalType": "bool",
          "name": "",
          "type": "bool"
        }
      ],
      "stateMutability": "view",
      "type": "function"
    },
    {
      "inputs": [
        {
          "internalType": "uint256",
          "name": "_tokenId",
          "type": "uint256"
        }
      ],
      "name": "getValidatorRoyalties",
      "outputs": [
        {
          "components": [
            {
              "internalType": "address payable",
              "name": "account",
              "type": "address"
            },
            {
              "internalType": "uint96",
              "name": "value",
              "type": "uint96"
            }
          ],
          "internalType": "struct LibShare.Share[]",
          "name": "",
          "type": "tuple[]"
        }
      ],
      "stateMutability": "view",
      "type": "function"
    }
  ],
  "bytecode": "0x608060405234801561001057600080fd5b506142b4806100206000396000f3fe608060405234801561001057600080fd5b506004361061014d5760003560e01c80634f558e79116100c3578063c87b56dd1161007c578063c87b56dd146103ac578063df727d3b146103dc578063e985e9c5146103fa578063eacabe141461042a578063f687ed5714610446578063fbd4a680146104625761014d565b80634f558e79146102c65780636352211e146102f657806370a082311461032657806395d89b4114610356578063a22cb46514610374578063b88d4fde146103905761014d565b80632016a0d2116101155780632016a0d21461021c57806323b872dd14610238578063391601dc14610254578063401f8c7a1461027057806342842e0e1461028e57806345913fe9146102aa5761014d565b806301ffc9a71461015257806302b421411461018257806306fdde03146101b2578063081812fc146101d0578063095ea7b314610200575b600080fd5b61016c60048036038101906101679190612abf565b610493565b6040516101799190612b07565b60405180910390f35b61019c60048036038101906101979190612b58565b610575565b6040516101a99190612ccb565b60405180910390f35b6101ba610677565b6040516101c79190612d86565b60405180910390f35b6101ea60048036038101906101e59190612b58565b610709565b6040516101f79190612dc9565b60405180910390f35b61021a60048036038101906102159190612e10565b61074f565b005b61023660048036038101906102319190612f85565b610867565b005b610252600480360381019061024d9190613024565b610a35565b005b61026e60048036038101906102699190612b58565b610a95565b005b610278610bb5565b6040516102859190612dc9565b60405180910390f35b6102a860048036038101906102a39190613024565b610bdb565b005b6102c460048036038101906102bf91906131ec565b610bfb565b005b6102e060048036038101906102db9190612b58565b610fab565b6040516102ed9190612b07565b60405180910390f35b610310600480360381019061030b9190612b58565b610fbd565b60405161031d9190612dc9565b60405180910390f35b610340600480360381019061033b919061325b565b611044565b60405161034d9190613297565b60405180910390f35b61035e6110fc565b60405161036b9190612d86565b60405180910390f35b61038e600480360381019061038991906132de565b61118e565b005b6103aa60048036038101906103a591906133bf565b6111a4565b005b6103c660048036038101906103c19190612b58565b611206565b6040516103d39190612d86565b60405180910390f35b6103e4611319565b6040516103f19190612dc9565b60405180910390f35b610414600480360381019061040f9190613442565b61133f565b6040516104219190612b07565b60405180910390f35b610444600480360381019061043f9190613482565b6113d3565b005b610460600480360381019061045b9190612b58565b6114d1565b005b61047c600480360381019061047791906134de565b611677565b60405161048a92919061353c565b60405180910390f35b60007f80ac58cd000000000000000000000000000000000000000000000000000000007bffffffffffffffffffffffffffffffffffffffffffffffffffffffff1916827bffffffffffffffffffffffffffffffffffffffffffffffffffffffff1916148061055e57507f5b5e139f000000000000000000000000000000000000000000000000000000007bffffffffffffffffffffffffffffffffffffffffffffffffffffffff1916827bffffffffffffffffffffffffffffffffffffffffffffffffffffffff1916145b8061056e575061056d826116ec565b5b9050919050565b606060fe6000838152602001908152602001600020805480602002602001604051908101604052809291908181526020016000905b8282101561066c578382906000526020600020016040518060400160405290816000820160009054906101000a900473ffffffffffffffffffffffffffffffffffffffff1673ffffffffffffffffffffffffffffffffffffffff1673ffffffffffffffffffffffffffffffffffffffff1681526020016000820160149054906101000a90046bffffffffffffffffffffffff166bffffffffffffffffffffffff166bffffffffffffffffffffffff1681525050815260200190600101906105aa565b505050509050919050565b60606065805461068690613594565b80601f01602080910402602001604051908101604052809291908181526020018280546106b290613594565b80156106ff5780601f106106d4576101008083540402835291602001916106ff565b820191906000526020600020905b8154815290600101906020018083116106e257829003601f168201915b5050505050905090565b600061071482611756565b6069600083815260200190815260200160002060009054906101000a900473ffffffffffffffffffffffffffffffffffffffff169050919050565b600061075a82610fbd565b90508073ffffffffffffffffffffffffffffffffffffffff168373ffffffffffffffffffffffffffffffffffffffff1614156107cb576040517f08c379a00000000000000000000000000000000000000000000000000000000081526004016107c290613638565b60405180910390fd5b8073ffffffffffffffffffffffffffffffffffffffff166107ea6117a1565b73ffffffffffffffffffffffffffffffffffffffff1614806108195750610818816108136117a1565b61133f565b5b610858576040517f08c379a000000000000000000000000000000000000000000000000000000000815260040161084f906136ca565b60405180910390fd5b61086283836117a9565b505050565b60008060019054906101000a900460ff161590508080156108985750600160008054906101000a900460ff1660ff16105b806108c557506108a730611862565b1580156108c45750600160008054906101000a900460ff1660ff16145b5b610904576040517f08c379a00000000000000000000000000000000000000000000000000000000081526004016108fb9061375c565b60405180910390fd5b60016000806101000a81548160ff021916908360ff1602179055508015610941576001600060016101000a81548160ff0219169083151502179055505b61094b8383611885565b6109536118e2565b8460fc60006101000a81548173ffffffffffffffffffffffffffffffffffffffff021916908373ffffffffffffffffffffffffffffffffffffffff1602179055508360fd60006101000a81548173ffffffffffffffffffffffffffffffffffffffff021916908373ffffffffffffffffffffffffffffffffffffffff1602179055508015610a2e5760008060016101000a81548160ff0219169083151502179055507f7f26b83ff96e1f2b6a682f133852f6798a09c465da95921460cefb38474024986001604051610a2591906137ce565b60405180910390a15b5050505050565b610a46610a406117a1565b82611933565b610a85576040517f08c379a0000000000000000000000000000000000000000000000000000000008152600401610a7c9061385b565b60405180910390fd5b610a908383836119c8565b505050565b60fd60009054906101000a900473ffffffffffffffffffffffffffffffffffffffff1673ffffffffffffffffffffffffffffffffffffffff1663e01779346040518163ffffffff1660e01b8152600401602060405180830381865afa158015610b02573d6000803e3d6000fd5b505050506040513d601f19601f82011682018060405250810190610b269190613890565b73ffffffffffffffffffffffffffffffffffffffff163373ffffffffffffffffffffffffffffffffffffffff1614610b93576040517f08c379a0000000000000000000000000000000000000000000000000000000008152600401610b8a90613909565b60405180910390fd5b60fe60008281526020019081526020016000206000610bb291906128f2565b50565b60fd60009054906101000a900473ffffffffffffffffffffffffffffffffffffffff1681565b610bf6838383604051806020016040528060008152506111a4565b505050565b60fd60009054906101000a900473ffffffffffffffffffffffffffffffffffffffff1673ffffffffffffffffffffffffffffffffffffffff1663e01779346040518163ffffffff1660e01b8152600401602060405180830381865afa158015610c68573d6000803e3d6000fd5b505050506040513d601f19601f82011682018060405250810190610c8c9190613890565b73ffffffffffffffffffffffffffffffffffffffff163373ffffffffffffffffffffffffffffffffffffffff1614610cf9576040517f08c379a0000000000000000000000000000000000000000000000000000000008152600401610cf090613909565b60405180910390fd5b600a81511115610d0857600080fd5b60fe60008481526020019081526020016000206000610d2791906128f2565b6000805b8251811015610f1c57600073ffffffffffffffffffffffffffffffffffffffff16838281518110610d5f57610d5e613929565b5b60200260200101516000015173ffffffffffffffffffffffffffffffffffffffff161415610d8c57600080fd5b6000838281518110610da157610da0613929565b5b6020026020010151602001516bffffffffffffffffffffffff161415610dfc576040517f08c379a0000000000000000000000000000000000000000000000000000000008152600401610df3906139a4565b60405180910390fd5b60fe6000868152602001908152602001600020838281518110610e2257610e21613929565b5b60200260200101519080600181540180825580915050600190039060005260206000200160009091909190915060008201518160000160006101000a81548173ffffffffffffffffffffffffffffffffffffffff021916908373ffffffffffffffffffffffffffffffffffffffff16021790555060208201518160000160146101000a8154816bffffffffffffffffffffffff02191690836bffffffffffffffffffffffff1602179055505050828181518110610ee257610ee1613929565b5b6020026020010151602001516bffffffffffffffffffffffff1682610f0791906139f3565b91508080610f1490613a49565b915050610d2b565b5082611324610f2b9190613a92565b811115610f6d576040517f08c379a0000000000000000000000000000000000000000000000000000000008152600401610f6490613b12565b60405180910390fd5b837f3fa96d7b6bcbfe71ef171666d84db3cf52fa2d1c8afdb1cc8e486177f208b7df83604051610f9d9190612ccb565b60405180910390a250505050565b6000610fb682611cc2565b9050919050565b600080610fc983611d03565b9050600073ffffffffffffffffffffffffffffffffffffffff168173ffffffffffffffffffffffffffffffffffffffff16141561103b576040517f08c379a000000000000000000000000000000000000000000000000000000000815260040161103290613b7e565b60405180910390fd5b80915050919050565b60008073ffffffffffffffffffffffffffffffffffffffff168273ffffffffffffffffffffffffffffffffffffffff1614156110b5576040517f08c379a00000000000000000000000000000000000000000000000000000000081526004016110ac90613c10565b60405180910390fd5b606860008373ffffffffffffffffffffffffffffffffffffffff1673ffffffffffffffffffffffffffffffffffffffff168152602001908152602001600020549050919050565b60606066805461110b90613594565b80601f016020809104026020016040519081016040528092919081815260200182805461113790613594565b80156111845780601f1061115957610100808354040283529160200191611184565b820191906000526020600020905b81548152906001019060200180831161116757829003601f168201915b5050505050905090565b6111a06111996117a1565b8383611d40565b5050565b6111b56111af6117a1565b83611933565b6111f4576040517f08c379a00000000000000000000000000000000000000000000000000000000081526004016111eb9061385b565b60405180910390fd5b61120084848484611ead565b50505050565b606061121182611756565b600060976000848152602001908152602001600020805461123190613594565b80601f016020809104026020016040519081016040528092919081815260200182805461125d90613594565b80156112aa5780601f1061127f576101008083540402835291602001916112aa565b820191906000526020600020905b81548152906001019060200180831161128d57829003601f168201915b5050505050905060006112bb611f09565b90506000815114156112d1578192505050611314565b6000825111156113065780826040516020016112ee929190613c6c565b60405160208183030381529060405292505050611314565b61130f84611f20565b925050505b919050565b60fc60009054906101000a900473ffffffffffffffffffffffffffffffffffffffff1681565b6000606a60008473ffffffffffffffffffffffffffffffffffffffff1673ffffffffffffffffffffffffffffffffffffffff16815260200190815260200160002060008373ffffffffffffffffffffffffffffffffffffffff1673ffffffffffffffffffffffffffffffffffffffff16815260200190815260200160002060009054906101000a900460ff16905092915050565b60fc60009054906101000a900473ffffffffffffffffffffffffffffffffffffffff1673ffffffffffffffffffffffffffffffffffffffff163373ffffffffffffffffffffffffffffffffffffffff161461142d57600080fd5b600073ffffffffffffffffffffffffffffffffffffffff168273ffffffffffffffffffffffffffffffffffffffff16141561146757600080fd5b600061147360fb611f88565b905061147f8382611f96565b6114898183611fb4565b61149360fb612028565b7f3a5398bda6f1f57d6c96834fa9bf02b5517bdc847d14312015a917ba421c31c981846040516114c4929190613c90565b60405180910390a1505050565b6114d961203e565b600060fd60009054906101000a900473ffffffffffffffffffffffffffffffffffffffff1673ffffffffffffffffffffffffffffffffffffffff1663e01779346040518163ffffffff1660e01b8152600401602060405180830381865afa158015611548573d6000803e3d6000fd5b505050506040513d601f19601f8201168201806040525081019061156c9190613890565b9050600073ffffffffffffffffffffffffffffffffffffffff168173ffffffffffffffffffffffffffffffffffffffff1663a7aed60530856040518363ffffffff1660e01b81526004016115c1929190613cb9565b602060405180830381865afa1580156115de573d6000803e3d6000fd5b505050506040513d601f19601f820116820180604052508101906116029190613890565b73ffffffffffffffffffffffffffffffffffffffff161461162257600080fd5b3373ffffffffffffffffffffffffffffffffffffffff1661164283610fbd565b73ffffffffffffffffffffffffffffffffffffffff161461166257600080fd5b61166b8261208e565b506116746120e1565b50565b60fe602052816000526040600020818154811061169357600080fd5b90600052602060002001600091509150508060000160009054906101000a900473ffffffffffffffffffffffffffffffffffffffff16908060000160149054906101000a90046bffffffffffffffffffffffff16905082565b60007f01ffc9a7000000000000000000000000000000000000000000000000000000007bffffffffffffffffffffffffffffffffffffffffffffffffffffffff1916827bffffffffffffffffffffffffffffffffffffffffffffffffffffffff1916149050919050565b61175f81611cc2565b61179e576040517f08c379a000000000000000000000000000000000000000000000000000000000815260040161179590613b7e565b60405180910390fd5b50565b600033905090565b816069600083815260200190815260200160002060006101000a81548173ffffffffffffffffffffffffffffffffffffffff021916908373ffffffffffffffffffffffffffffffffffffffff160217905550808273ffffffffffffffffffffffffffffffffffffffff1661181c83610fbd565b73ffffffffffffffffffffffffffffffffffffffff167f8c5be1e5ebec7d5bd14f71427d1e84f3dd0314c0f7b2291e5b200ac8c7c3b92560405160405180910390a45050565b6000808273ffffffffffffffffffffffffffffffffffffffff163b119050919050565b600060019054906101000a900460ff166118d4576040517f08c379a00000000000000000000000000000000000000000000000000000000081526004016118cb90613d54565b60405180910390fd5b6118de82826120eb565b5050565b600060019054906101000a900460ff16611931576040517f08c379a000000000000000000000000000000000000000000000000000000000815260040161192890613d54565b60405180910390fd5b565b60008061193f83610fbd565b90508073ffffffffffffffffffffffffffffffffffffffff168473ffffffffffffffffffffffffffffffffffffffff1614806119815750611980818561133f565b5b806119bf57508373ffffffffffffffffffffffffffffffffffffffff166119a784610709565b73ffffffffffffffffffffffffffffffffffffffff16145b91505092915050565b8273ffffffffffffffffffffffffffffffffffffffff166119e882610fbd565b73ffffffffffffffffffffffffffffffffffffffff1614611a3e576040517f08c379a0000000000000000000000000000000000000000000000000000000008152600401611a3590613de6565b60405180910390fd5b600073ffffffffffffffffffffffffffffffffffffffff168273ffffffffffffffffffffffffffffffffffffffff161415611aae576040517f08c379a0000000000000000000000000000000000000000000000000000000008152600401611aa590613e78565b60405180910390fd5b611abb838383600161216c565b8273ffffffffffffffffffffffffffffffffffffffff16611adb82610fbd565b73ffffffffffffffffffffffffffffffffffffffff1614611b31576040517f08c379a0000000000000000000000000000000000000000000000000000000008152600401611b2890613de6565b60405180910390fd5b6069600082815260200190815260200160002060006101000a81549073ffffffffffffffffffffffffffffffffffffffff02191690556001606860008573ffffffffffffffffffffffffffffffffffffffff1673ffffffffffffffffffffffffffffffffffffffff168152602001908152602001600020600082825403925050819055506001606860008473ffffffffffffffffffffffffffffffffffffffff1673ffffffffffffffffffffffffffffffffffffffff16815260200190815260200160002060008282540192505081905550816067600083815260200190815260200160002060006101000a81548173ffffffffffffffffffffffffffffffffffffffff021916908373ffffffffffffffffffffffffffffffffffffffff160217905550808273ffffffffffffffffffffffffffffffffffffffff168473ffffffffffffffffffffffffffffffffffffffff167fddf252ad1be2c89b69c2b068fc378daa952ba7f163c4a11628f55a4df523b3ef60405160405180910390a4611cbd8383836001612172565b505050565b60008073ffffffffffffffffffffffffffffffffffffffff16611ce483611d03565b73ffffffffffffffffffffffffffffffffffffffff1614159050919050565b60006067600083815260200190815260200160002060009054906101000a900473ffffffffffffffffffffffffffffffffffffffff169050919050565b8173ffffffffffffffffffffffffffffffffffffffff168373ffffffffffffffffffffffffffffffffffffffff161415611daf576040517f08c379a0000000000000000000000000000000000000000000000000000000008152600401611da690613ee4565b60405180910390fd5b80606a60008573ffffffffffffffffffffffffffffffffffffffff1673ffffffffffffffffffffffffffffffffffffffff16815260200190815260200160002060008473ffffffffffffffffffffffffffffffffffffffff1673ffffffffffffffffffffffffffffffffffffffff16815260200190815260200160002060006101000a81548160ff0219169083151502179055508173ffffffffffffffffffffffffffffffffffffffff168373ffffffffffffffffffffffffffffffffffffffff167f17307eab39ab6107e8899845ad3d59bd9653f200f220920489ca2b5937696c3183604051611ea09190612b07565b60405180910390a3505050565b611eb88484846119c8565b611ec484848484612178565b611f03576040517f08c379a0000000000000000000000000000000000000000000000000000000008152600401611efa90613f76565b60405180910390fd5b50505050565b606060405180602001604052806000815250905090565b6060611f2b82611756565b6000611f35611f09565b90506000815111611f555760405180602001604052806000815250611f80565b80611f5f84612300565b604051602001611f70929190613c6c565b6040516020818303038152906040525b915050919050565b600081600001549050919050565b611fb08282604051806020016040528060008152506123d8565b5050565b611fbd82611cc2565b611ffc576040517f08c379a0000000000000000000000000000000000000000000000000000000008152600401611ff390614008565b60405180910390fd5b80609760008481526020019081526020016000209080519060200190612023929190612913565b505050565b6001816000016000828254019250508190555050565b600260c9541415612084576040517f08c379a000000000000000000000000000000000000000000000000000000000815260040161207b90614074565b60405180910390fd5b600260c981905550565b61209781612433565b60006097600083815260200190815260200160002080546120b790613594565b9050146120de576097600082815260200190815260200160002060006120dd9190612999565b5b50565b600160c981905550565b600060019054906101000a900460ff1661213a576040517f08c379a000000000000000000000000000000000000000000000000000000000815260040161213190613d54565b60405180910390fd5b8160659080519060200190612150929190612913565b508060669080519060200190612167929190612913565b505050565b50505050565b50505050565b60006121998473ffffffffffffffffffffffffffffffffffffffff16611862565b156122f3578373ffffffffffffffffffffffffffffffffffffffff1663150b7a026121c26117a1565b8786866040518563ffffffff1660e01b81526004016121e494939291906140e9565b6020604051808303816000875af192505050801561222057506040513d601f19601f8201168201806040525081019061221d919061414a565b60015b6122a3573d8060008114612250576040519150601f19603f3d011682016040523d82523d6000602084013e612255565b606091505b5060008151141561229b576040517f08c379a000000000000000000000000000000000000000000000000000000000815260040161229290613f76565b60405180910390fd5b805181602001fd5b63150b7a0260e01b7bffffffffffffffffffffffffffffffffffffffffffffffffffffffff1916817bffffffffffffffffffffffffffffffffffffffffffffffffffffffff1916149150506122f8565b600190505b949350505050565b60606000600161230f84612581565b01905060008167ffffffffffffffff81111561232e5761232d612e5a565b5b6040519080825280601f01601f1916602001820160405280156123605781602001600182028036833780820191505090505b509050600082602001820190505b6001156123cd578080600190039150507f3031323334353637383961626364656600000000000000000000000000000000600a86061a8153600a85816123b7576123b6614177565b5b04945060008514156123c8576123cd565b61236e565b819350505050919050565b6123e283836126d4565b6123ef6000848484612178565b61242e576040517f08c379a000000000000000000000000000000000000000000000000000000000815260040161242590613f76565b60405180910390fd5b505050565b600061243e82610fbd565b905061244e81600084600161216c565b61245782610fbd565b90506069600083815260200190815260200160002060006101000a81549073ffffffffffffffffffffffffffffffffffffffff02191690556001606860008373ffffffffffffffffffffffffffffffffffffffff1673ffffffffffffffffffffffffffffffffffffffff168152602001908152602001600020600082825403925050819055506067600083815260200190815260200160002060006101000a81549073ffffffffffffffffffffffffffffffffffffffff021916905581600073ffffffffffffffffffffffffffffffffffffffff168273ffffffffffffffffffffffffffffffffffffffff167fddf252ad1be2c89b69c2b068fc378daa952ba7f163c4a11628f55a4df523b3ef60405160405180910390a461257d816000846001612172565b5050565b600080600090507a184f03e93ff9f4daa797ed6e38ed64bf6a1f01000000000000000083106125df577a184f03e93ff9f4daa797ed6e38ed64bf6a1f01000000000000000083816125d5576125d4614177565b5b0492506040810190505b6d04ee2d6d415b85acef8100000000831061261c576d04ee2d6d415b85acef8100000000838161261257612611614177565b5b0492506020810190505b662386f26fc10000831061264b57662386f26fc10000838161264157612640614177565b5b0492506010810190505b6305f5e1008310612674576305f5e100838161266a57612669614177565b5b0492506008810190505b612710831061269957612710838161268f5761268e614177565b5b0492506004810190505b606483106126bc57606483816126b2576126b1614177565b5b0492506002810190505b600a83106126cb576001810190505b80915050919050565b600073ffffffffffffffffffffffffffffffffffffffff168273ffffffffffffffffffffffffffffffffffffffff161415612744576040517f08c379a000000000000000000000000000000000000000000000000000000000815260040161273b906141f2565b60405180910390fd5b61274d81611cc2565b1561278d576040517f08c379a00000000000000000000000000000000000000000000000000000000081526004016127849061425e565b60405180910390fd5b61279b60008383600161216c565b6127a481611cc2565b156127e4576040517f08c379a00000000000000000000000000000000000000000000000000000000081526004016127db9061425e565b60405180910390fd5b6001606860008473ffffffffffffffffffffffffffffffffffffffff1673ffffffffffffffffffffffffffffffffffffffff16815260200190815260200160002060008282540192505081905550816067600083815260200190815260200160002060006101000a81548173ffffffffffffffffffffffffffffffffffffffff021916908373ffffffffffffffffffffffffffffffffffffffff160217905550808273ffffffffffffffffffffffffffffffffffffffff16600073ffffffffffffffffffffffffffffffffffffffff167fddf252ad1be2c89b69c2b068fc378daa952ba7f163c4a11628f55a4df523b3ef60405160405180910390a46128ee600083836001612172565b5050565b508054600082559060005260206000209081019061291091906129d9565b50565b82805461291f90613594565b90600052602060002090601f0160209004810192826129415760008555612988565b82601f1061295a57805160ff1916838001178555612988565b82800160010185558215612988579182015b8281111561298757825182559160200191906001019061296c565b5b5090506129959190612a36565b5090565b5080546129a590613594565b6000825580601f106129b757506129d6565b601f0160209004906000526020600020908101906129d59190612a36565b5b50565b5b80821115612a3257600080820160006101000a81549073ffffffffffffffffffffffffffffffffffffffff02191690556000820160146101000a8154906bffffffffffffffffffffffff0219169055506001016129da565b5090565b5b80821115612a4f576000816000905550600101612a37565b5090565b6000604051905090565b600080fd5b600080fd5b60007fffffffff0000000000000000000000000000000000000000000000000000000082169050919050565b612a9c81612a67565b8114612aa757600080fd5b50565b600081359050612ab981612a93565b92915050565b600060208284031215612ad557612ad4612a5d565b5b6000612ae384828501612aaa565b91505092915050565b60008115159050919050565b612b0181612aec565b82525050565b6000602082019050612b1c6000830184612af8565b92915050565b6000819050919050565b612b3581612b22565b8114612b4057600080fd5b50565b600081359050612b5281612b2c565b92915050565b600060208284031215612b6e57612b6d612a5d565b5b6000612b7c84828501612b43565b91505092915050565b600081519050919050565b600082825260208201905092915050565b6000819050602082019050919050565b600073ffffffffffffffffffffffffffffffffffffffff82169050919050565b6000612bdc82612bb1565b9050919050565b612bec81612bd1565b82525050565b60006bffffffffffffffffffffffff82169050919050565b612c1381612bf2565b82525050565b604082016000820151612c2f6000850182612be3565b506020820151612c426020850182612c0a565b50505050565b6000612c548383612c19565b60408301905092915050565b6000602082019050919050565b6000612c7882612b85565b612c828185612b90565b9350612c8d83612ba1565b8060005b83811015612cbe578151612ca58882612c48565b9750612cb083612c60565b925050600181019050612c91565b5085935050505092915050565b60006020820190508181036000830152612ce58184612c6d565b905092915050565b600081519050919050565b600082825260208201905092915050565b60005b83811015612d27578082015181840152602081019050612d0c565b83811115612d36576000848401525b50505050565b6000601f19601f8301169050919050565b6000612d5882612ced565b612d628185612cf8565b9350612d72818560208601612d09565b612d7b81612d3c565b840191505092915050565b60006020820190508181036000830152612da08184612d4d565b905092915050565b6000612db382612bb1565b9050919050565b612dc381612da8565b82525050565b6000602082019050612dde6000830184612dba565b92915050565b612ded81612da8565b8114612df857600080fd5b50565b600081359050612e0a81612de4565b92915050565b60008060408385031215612e2757612e26612a5d565b5b6000612e3585828601612dfb565b9250506020612e4685828601612b43565b9150509250929050565b600080fd5b600080fd5b7f4e487b7100000000000000000000000000000000000000000000000000000000600052604160045260246000fd5b612e9282612d3c565b810181811067ffffffffffffffff82111715612eb157612eb0612e5a565b5b80604052505050565b6000612ec4612a53565b9050612ed08282612e89565b919050565b600067ffffffffffffffff821115612ef057612eef612e5a565b5b612ef982612d3c565b9050602081019050919050565b82818337600083830152505050565b6000612f28612f2384612ed5565b612eba565b905082815260208101848484011115612f4457612f43612e55565b5b612f4f848285612f06565b509392505050565b600082601f830112612f6c57612f6b612e50565b5b8135612f7c848260208601612f15565b91505092915050565b60008060008060808587031215612f9f57612f9e612a5d565b5b6000612fad87828801612dfb565b9450506020612fbe87828801612dfb565b935050604085013567ffffffffffffffff811115612fdf57612fde612a62565b5b612feb87828801612f57565b925050606085013567ffffffffffffffff81111561300c5761300b612a62565b5b61301887828801612f57565b91505092959194509250565b60008060006060848603121561303d5761303c612a5d565b5b600061304b86828701612dfb565b935050602061305c86828701612dfb565b925050604061306d86828701612b43565b9150509250925092565b600067ffffffffffffffff82111561309257613091612e5a565b5b602082029050602081019050919050565b600080fd5b600080fd5b6130b681612bd1565b81146130c157600080fd5b50565b6000813590506130d3816130ad565b92915050565b6130e281612bf2565b81146130ed57600080fd5b50565b6000813590506130ff816130d9565b92915050565b60006040828403121561311b5761311a6130a8565b5b6131256040612eba565b90506000613135848285016130c4565b6000830152506020613149848285016130f0565b60208301525092915050565b600061316861316384613077565b612eba565b9050808382526020820190506040840283018581111561318b5761318a6130a3565b5b835b818110156131b457806131a08882613105565b84526020840193505060408101905061318d565b5050509392505050565b600082601f8301126131d3576131d2612e50565b5b81356131e3848260208601613155565b91505092915050565b60008060006060848603121561320557613204612a5d565b5b600061321386828701612b43565b935050602061322486828701612b43565b925050604084013567ffffffffffffffff81111561324557613244612a62565b5b613251868287016131be565b9150509250925092565b60006020828403121561327157613270612a5d565b5b600061327f84828501612dfb565b91505092915050565b61329181612b22565b82525050565b60006020820190506132ac6000830184613288565b92915050565b6132bb81612aec565b81146132c657600080fd5b50565b6000813590506132d8816132b2565b92915050565b600080604083850312156132f5576132f4612a5d565b5b600061330385828601612dfb565b9250506020613314858286016132c9565b9150509250929050565b600067ffffffffffffffff82111561333957613338612e5a565b5b61334282612d3c565b9050602081019050919050565b600061336261335d8461331e565b612eba565b90508281526020810184848401111561337e5761337d612e55565b5b613389848285612f06565b509392505050565b600082601f8301126133a6576133a5612e50565b5b81356133b684826020860161334f565b91505092915050565b600080600080608085870312156133d9576133d8612a5d565b5b60006133e787828801612dfb565b94505060206133f887828801612dfb565b935050604061340987828801612b43565b925050606085013567ffffffffffffffff81111561342a57613429612a62565b5b61343687828801613391565b91505092959194509250565b6000806040838503121561345957613458612a5d565b5b600061346785828601612dfb565b925050602061347885828601612dfb565b9150509250929050565b6000806040838503121561349957613498612a5d565b5b60006134a785828601612dfb565b925050602083013567ffffffffffffffff8111156134c8576134c7612a62565b5b6134d485828601612f57565b9150509250929050565b600080604083850312156134f5576134f4612a5d565b5b600061350385828601612b43565b925050602061351485828601612b43565b9150509250929050565b61352781612bd1565b82525050565b61353681612bf2565b82525050565b6000604082019050613551600083018561351e565b61355e602083018461352d565b9392505050565b7f4e487b7100000000000000000000000000000000000000000000000000000000600052602260045260246000fd5b600060028204905060018216806135ac57607f821691505b602082108114156135c0576135bf613565565b5b50919050565b7f4552433732313a20617070726f76616c20746f2063757272656e74206f776e6560008201527f7200000000000000000000000000000000000000000000000000000000000000602082015250565b6000613622602183612cf8565b915061362d826135c6565b604082019050919050565b6000602082019050818103600083015261365181613615565b9050919050565b7f4552433732313a20617070726f76652063616c6c6572206973206e6f7420746f60008201527f6b656e206f776e6572206f7220617070726f76656420666f7220616c6c000000602082015250565b60006136b4603d83612cf8565b91506136bf82613658565b604082019050919050565b600060208201905081810360008301526136e3816136a7565b9050919050565b7f496e697469616c697a61626c653a20636f6e747261637420697320616c72656160008201527f647920696e697469616c697a6564000000000000000000000000000000000000602082015250565b6000613746602e83612cf8565b9150613751826136ea565b604082019050919050565b6000602082019050818103600083015261377581613739565b9050919050565b6000819050919050565b600060ff82169050919050565b6000819050919050565b60006137b86137b36137ae8461377c565b613793565b613786565b9050919050565b6137c88161379d565b82525050565b60006020820190506137e360008301846137bf565b92915050565b7f4552433732313a2063616c6c6572206973206e6f7420746f6b656e206f776e6560008201527f72206f7220617070726f76656400000000000000000000000000000000000000602082015250565b6000613845602d83612cf8565b9150613850826137e9565b604082019050919050565b6000602082019050818103600083015261387481613838565b9050919050565b60008151905061388a81612de4565b92915050565b6000602082840312156138a6576138a5612a5d565b5b60006138b48482850161387b565b91505092915050565b7f6d6574686f647300000000000000000000000000000000000000000000000000600082015250565b60006138f3600783612cf8565b91506138fe826138bd565b602082019050919050565b60006020820190508181036000830152613922816138e6565b9050919050565b7f4e487b7100000000000000000000000000000000000000000000000000000000600052603260045260246000fd5b7f526f79616c747920300000000000000000000000000000000000000000000000600082015250565b600061398e600983612cf8565b915061399982613958565b602082019050919050565b600060208201905081810360008301526139bd81613981565b9050919050565b7f4e487b7100000000000000000000000000000000000000000000000000000000600052601160045260246000fd5b60006139fe82612b22565b9150613a0983612b22565b9250827fffffffffffffffffffffffffffffffffffffffffffffffffffffffffffffffff03821115613a3e57613a3d6139c4565b5b828201905092915050565b6000613a5482612b22565b91507fffffffffffffffffffffffffffffffffffffffffffffffffffffffffffffffff821415613a8757613a866139c4565b5b600182019050919050565b6000613a9d82612b22565b9150613aa883612b22565b925082821015613abb57613aba6139c4565b5b828203905092915050565b7f6f766572666c6f77000000000000000000000000000000000000000000000000600082015250565b6000613afc600883612cf8565b9150613b0782613ac6565b602082019050919050565b60006020820190508181036000830152613b2b81613aef565b9050919050565b7f4552433732313a20696e76616c696420746f6b656e2049440000000000000000600082015250565b6000613b68601883612cf8565b9150613b7382613b32565b602082019050919050565b60006020820190508181036000830152613b9781613b5b565b9050919050565b7f4552433732313a2061646472657373207a65726f206973206e6f74206120766160008201527f6c6964206f776e65720000000000000000000000000000000000000000000000602082015250565b6000613bfa602983612cf8565b9150613c0582613b9e565b604082019050919050565b60006020820190508181036000830152613c2981613bed565b9050919050565b600081905092915050565b6000613c4682612ced565b613c508185613c30565b9350613c60818560208601612d09565b80840191505092915050565b6000613c788285613c3b565b9150613c848284613c3b565b91508190509392505050565b6000604082019050613ca56000830185613288565b613cb26020830184612dba565b9392505050565b6000604082019050613cce6000830185612dba565b613cdb6020830184613288565b9392505050565b7f496e697469616c697a61626c653a20636f6e7472616374206973206e6f74206960008201527f6e697469616c697a696e67000000000000000000000000000000000000000000602082015250565b6000613d3e602b83612cf8565b9150613d4982613ce2565b604082019050919050565b60006020820190508181036000830152613d6d81613d31565b9050919050565b7f4552433732313a207472616e736665722066726f6d20696e636f72726563742060008201527f6f776e6572000000000000000000000000000000000000000000000000000000602082015250565b6000613dd0602583612cf8565b9150613ddb82613d74565b604082019050919050565b60006020820190508181036000830152613dff81613dc3565b9050919050565b7f4552433732313a207472616e7366657220746f20746865207a65726f2061646460008201527f7265737300000000000000000000000000000000000000000000000000000000602082015250565b6000613e62602483612cf8565b9150613e6d82613e06565b604082019050919050565b60006020820190508181036000830152613e9181613e55565b9050919050565b7f4552433732313a20617070726f766520746f2063616c6c657200000000000000600082015250565b6000613ece601983612cf8565b9150613ed982613e98565b602082019050919050565b60006020820190508181036000830152613efd81613ec1565b9050919050565b7f4552433732313a207472616e7366657220746f206e6f6e20455243373231526560008201527f63656976657220696d706c656d656e7465720000000000000000000000000000602082015250565b6000613f60603283612cf8565b9150613f6b82613f04565b604082019050919050565b60006020820190508181036000830152613f8f81613f53565b9050919050565b7f45524337323155524953746f726167653a2055524920736574206f66206e6f6e60008201527f6578697374656e7420746f6b656e000000000000000000000000000000000000602082015250565b6000613ff2602e83612cf8565b9150613ffd82613f96565b604082019050919050565b6000602082019050818103600083015261402181613fe5565b9050919050565b7f5265656e7472616e637947756172643a207265656e7472616e742063616c6c00600082015250565b600061405e601f83612cf8565b915061406982614028565b602082019050919050565b6000602082019050818103600083015261408d81614051565b9050919050565b600081519050919050565b600082825260208201905092915050565b60006140bb82614094565b6140c5818561409f565b93506140d5818560208601612d09565b6140de81612d3c565b840191505092915050565b60006080820190506140fe6000830187612dba565b61410b6020830186612dba565b6141186040830185613288565b818103606083015261412a81846140b0565b905095945050505050565b60008151905061414481612a93565b92915050565b6000602082840312156141605761415f612a5d565b5b600061416e84828501614135565b91505092915050565b7f4e487b7100000000000000000000000000000000000000000000000000000000600052601260045260246000fd5b7f4552433732313a206d696e7420746f20746865207a65726f2061646472657373600082015250565b60006141dc602083612cf8565b91506141e7826141a6565b602082019050919050565b6000602082019050818103600083015261420b816141cf565b9050919050565b7f4552433732313a20746f6b656e20616c7265616479206d696e74656400000000600082015250565b6000614248601c83612cf8565b915061425382614212565b602082019050919050565b600060208201905081810360008301526142778161423b565b905091905056fea2646970667358221220106ab7aa328688718e43ab6cc45018064804987b165b6ad5f91984a814df2f0664736f6c634300080b0033",
  "immutableReferences": {},
  "source": "// SPDX-License-Identifier: MIT\npragma solidity 0.8.11;\n\nimport \"@openzeppelin/contracts/token/ERC20/IERC20.sol\";\nimport \"@openzeppelin/contracts/token/ERC721/ERC721.sol\";\nimport \"@openzeppelin/contracts/utils/Counters.sol\";\nimport \"@openzeppelin/contracts-upgradeable/token/ERC721/extensions/ERC721URIStorageUpgradeable.sol\";\nimport \"@openzeppelin/contracts-upgradeable/security/ReentrancyGuardUpgradeable.sol\";\nimport \"@openzeppelin/contracts-upgradeable/proxy/utils/Initializable.sol\";\nimport \"./Libraries/LibCollection.sol\";\nimport \"./utils/LibShare.sol\";\nimport \"./CollectionFactory.sol\";\nimport \"./piNFTMethods.sol\";\n\ncontract CollectionMethods is\n    Initializable,\n    ERC721URIStorageUpgradeable,\n    ReentrancyGuardUpgradeable\n{\n    using Counters for Counters.Counter;\n    Counters.Counter private _tokenIdCounter;\n    address public collectionOwner;\n    address public collectionFactoryAddress;\n\n    // tokenId => collection royalties\n    mapping(uint256 => LibShare.Share[]) public RoyaltiesForValidator;\n\n    event RoyaltiesSet(uint256 indexed tokenId, LibShare.Share[] royalties);\n\n    event TokenMinted(uint256 tokenId, address to);\n\n    /**\n     * @notice Modifier enabling only the piNFTMethods contract to call.\n     */\n    modifier onlyMethods {\n        require(\n            msg.sender ==\n                CollectionFactory(collectionFactoryAddress)\n                    .piNFTMethodsAddress()\n        ,\"methods\");\n        _;\n    }\n\n    /**\n     * @notice Contract initializer.\n     * @param _collectionOwner The address set to own the collection.\n     * @param _collectionFactoryAddress The address of the CollectionFactory contract.\n     * @param _name the name of the collection being created.\n     * @param _symbol the symbol of the collection being created.\n     */\n    function initialize(\n        address _collectionOwner,\n        address _collectionFactoryAddress,\n        string memory _name,\n        string memory _symbol\n    ) external initializer {\n        __ERC721_init(_name, _symbol);\n        __ERC721URIStorage_init();\n        collectionOwner = _collectionOwner;\n        collectionFactoryAddress = _collectionFactoryAddress;\n    }\n\n    modifier onlyOwnerOfToken(uint256 _tokenId) {\n        require(msg.sender == ERC721Upgradeable.ownerOf(_tokenId), \"Not Owner\");\n        _;\n    }\n\n    /**\n     * @notice Mints an nft to a specified address.\n     * @param _to address to mint the piNFT to.\n     * @param _uri The uri of the piNFT.\n     */\n    function mintNFT(address _to, string memory _uri) public {\n        require(msg.sender == collectionOwner);\n        require(_to != address(0));\n        uint256 tokenId_ = _tokenIdCounter.current();\n        _safeMint(_to, tokenId_);\n        _setTokenURI(tokenId_, _uri);\n        _tokenIdCounter.increment();\n        emit TokenMinted(tokenId_, _to);\n    }\n\n    /**\n     * @notice Checks and sets validator royalties.\n     * @param _tokenId The Id of the token.\n     * @param royalties The royalties to be set.\n     */\n    function setRoyaltiesForValidator(\n        uint256 _tokenId,\n        uint256 _commission,\n        LibShare.Share[] memory royalties\n    ) external onlyMethods{\n        require(royalties.length <= 10);\n        delete RoyaltiesForValidator[_tokenId];\n        uint256 sumRoyalties = 0;\n        for (uint256 i = 0; i < royalties.length; i++) {\n            require(royalties[i].account != address(0x0));\n            require(royalties[i].value != 0, \"Royalty 0\");\n            RoyaltiesForValidator[_tokenId].push(royalties[i]);\n            sumRoyalties += royalties[i].value;\n        }\n        require(sumRoyalties <= 4900 - _commission, \"overflow\");\n\n        emit RoyaltiesSet(_tokenId, royalties);\n    }\n\n    function deleteValidatorRoyalties(uint256 _tokenId) external onlyMethods{\n        delete RoyaltiesForValidator[_tokenId];\n    }\n\n    /**\n     * @notice deletes the nft.\n     * @param _tokenId The Id of the token.\n     */\n    function deleteNFT(uint256 _tokenId) external nonReentrant {\n        address piNFTMethodsAddress = CollectionFactory(\n            collectionFactoryAddress\n        ).piNFTMethodsAddress();\n        require(\n            piNFTMethods(piNFTMethodsAddress).NFTowner(\n                address(this),\n                _tokenId\n            ) == address(0)\n        );\n        require(ownerOf(_tokenId) == msg.sender);\n        _burn(_tokenId);\n    }\n\n    function exists(uint256 _tokenId) external view returns(bool){\n        return _exists(_tokenId);\n    }\n\n    /**\n     * @notice Fetches the validator royalties.\n     * @dev Returns a LibShare.Share[] array.\n     * @param _tokenId The id of the token.\n     * @return A LibShare.Share[] struct array of royalties.\n     */\n    function getValidatorRoyalties(\n        uint256 _tokenId\n    ) external view returns (LibShare.Share[] memory) {\n        return RoyaltiesForValidator[_tokenId];\n    }\n}\n",
  "sourcePath": "/media/dell/17f09f70-0626-4927-a787-2813ab7ed2c0/dell/Pandora/pooolAddress Pandora Git/aconomy-contract/contracts/CollectionMethods.sol",
  "compiler": {
    "name": "solc",
    "version": "0.8.11+commit.d7f03943.Emscripten.clang"
  },
  "schemaVersion": "3.4.10",
  "updatedAt": "2023-09-20T09:28:19.230Z",
  "networkType": "ethereum",
  "devdoc": {
    "kind": "dev",
    "methods": {
      "approve(address,uint256)": {
        "details": "See {IERC721-approve}."
      },
      "balanceOf(address)": {
        "details": "See {IERC721-balanceOf}."
      },
      "deleteNFT(uint256)": {
        "params": {
          "_tokenId": "The Id of the token."
        }
      },
      "getApproved(uint256)": {
        "details": "See {IERC721-getApproved}."
      },
      "getValidatorRoyalties(uint256)": {
        "details": "Returns a LibShare.Share[] array.",
        "params": {
          "_tokenId": "The id of the token."
        },
        "returns": {
          "_0": "A LibShare.Share[] struct array of royalties."
        }
      },
      "initialize(address,address,string,string)": {
        "params": {
          "_collectionFactoryAddress": "The address of the CollectionFactory contract.",
          "_collectionOwner": "The address set to own the collection.",
          "_name": "the name of the collection being created.",
          "_symbol": "the symbol of the collection being created."
        }
      },
      "isApprovedForAll(address,address)": {
        "details": "See {IERC721-isApprovedForAll}."
      },
      "mintNFT(address,string)": {
        "params": {
          "_to": "address to mint the piNFT to.",
          "_uri": "The uri of the piNFT."
        }
      },
      "name()": {
        "details": "See {IERC721Metadata-name}."
      },
      "ownerOf(uint256)": {
        "details": "See {IERC721-ownerOf}."
      },
      "safeTransferFrom(address,address,uint256)": {
        "details": "See {IERC721-safeTransferFrom}."
      },
      "safeTransferFrom(address,address,uint256,bytes)": {
        "details": "See {IERC721-safeTransferFrom}."
      },
      "setApprovalForAll(address,bool)": {
        "details": "See {IERC721-setApprovalForAll}."
      },
      "setRoyaltiesForValidator(uint256,uint256,(address,uint96)[])": {
        "params": {
          "_tokenId": "The Id of the token.",
          "royalties": "The royalties to be set."
        }
      },
      "supportsInterface(bytes4)": {
        "details": "See {IERC165-supportsInterface}."
      },
      "symbol()": {
        "details": "See {IERC721Metadata-symbol}."
      },
      "tokenURI(uint256)": {
        "details": "See {IERC721Metadata-tokenURI}."
      },
      "transferFrom(address,address,uint256)": {
        "details": "See {IERC721-transferFrom}."
      }
    },
    "version": 1
  },
  "userdoc": {
    "kind": "user",
    "methods": {
      "deleteNFT(uint256)": {
        "notice": "deletes the nft."
      },
      "getValidatorRoyalties(uint256)": {
        "notice": "Fetches the validator royalties."
      },
      "initialize(address,address,string,string)": {
        "notice": "Contract initializer."
      },
      "mintNFT(address,string)": {
        "notice": "Mints an nft to a specified address."
      },
      "setRoyaltiesForValidator(uint256,uint256,(address,uint96)[])": {
        "notice": "Checks and sets validator royalties."
      }
    },
    "version": 1
  }
}