{
  "contractName": "CollectionFactory",
  "abi": [
    {
      "inputs": [],
      "stateMutability": "nonpayable",
      "type": "constructor"
    },
    {
      "anonymous": false,
      "inputs": [
        {
          "indexed": false,
          "internalType": "address",
          "name": "previousAdmin",
          "type": "address"
        },
        {
          "indexed": false,
          "internalType": "address",
          "name": "newAdmin",
          "type": "address"
        }
      ],
      "name": "AdminChanged",
      "type": "event"
    },
    {
      "anonymous": false,
      "inputs": [
        {
          "indexed": true,
          "internalType": "address",
          "name": "beacon",
          "type": "address"
        }
      ],
      "name": "BeaconUpgraded",
      "type": "event"
    },
    {
      "anonymous": false,
      "inputs": [
        {
          "indexed": false,
          "internalType": "uint256",
          "name": "collectionId",
          "type": "uint256"
        },
        {
          "indexed": false,
          "internalType": "address",
          "name": "CollectionAddress",
          "type": "address"
        }
      ],
      "name": "CollectionCreated",
      "type": "event"
    },
    {
      "anonymous": false,
      "inputs": [
        {
          "indexed": false,
          "internalType": "uint256",
          "name": "collectionId",
          "type": "uint256"
        },
        {
          "indexed": false,
          "internalType": "string",
          "name": "Description",
          "type": "string"
        }
      ],
      "name": "CollectionDescriptionSet",
      "type": "event"
    },
    {
      "anonymous": false,
      "inputs": [
        {
          "indexed": false,
          "internalType": "uint256",
          "name": "collectionId",
          "type": "uint256"
        },
        {
          "indexed": false,
          "internalType": "string",
          "name": "name",
          "type": "string"
        }
      ],
      "name": "CollectionNameSet",
      "type": "event"
    },
    {
      "anonymous": false,
      "inputs": [
        {
          "indexed": true,
          "internalType": "uint256",
          "name": "collectionId",
          "type": "uint256"
        },
        {
          "components": [
            {
              "internalType": "address payable",
              "name": "account",
              "type": "address"
            },
            {
              "internalType": "uint96",
              "name": "value",
              "type": "uint96"
            }
          ],
          "indexed": false,
          "internalType": "struct LibShare.Share[]",
          "name": "royalties",
          "type": "tuple[]"
        }
      ],
      "name": "CollectionRoyaltiesSet",
      "type": "event"
    },
    {
      "anonymous": false,
      "inputs": [
        {
          "indexed": false,
          "internalType": "uint256",
          "name": "collectionId",
          "type": "uint256"
        },
        {
          "indexed": false,
          "internalType": "string",
          "name": "Symbol",
          "type": "string"
        }
      ],
      "name": "CollectionSymbolSet",
      "type": "event"
    },
    {
      "anonymous": false,
      "inputs": [
        {
          "indexed": false,
          "internalType": "uint256",
          "name": "collectionId",
          "type": "uint256"
        },
        {
          "indexed": false,
          "internalType": "string",
          "name": "uri",
          "type": "string"
        }
      ],
      "name": "CollectionURISet",
      "type": "event"
    },
    {
      "anonymous": false,
      "inputs": [
        {
          "indexed": false,
          "internalType": "uint8",
          "name": "version",
          "type": "uint8"
        }
      ],
      "name": "Initialized",
      "type": "event"
    },
    {
      "anonymous": false,
      "inputs": [
        {
          "indexed": true,
          "internalType": "address",
          "name": "previousOwner",
          "type": "address"
        },
        {
          "indexed": true,
          "internalType": "address",
          "name": "newOwner",
          "type": "address"
        }
      ],
      "name": "OwnershipTransferred",
      "type": "event"
    },
    {
      "anonymous": false,
      "inputs": [
        {
          "indexed": false,
          "internalType": "address",
          "name": "account",
          "type": "address"
        }
      ],
      "name": "Paused",
      "type": "event"
    },
    {
      "anonymous": false,
      "inputs": [
        {
          "indexed": false,
          "internalType": "address",
          "name": "account",
          "type": "address"
        }
      ],
      "name": "Unpaused",
      "type": "event"
    },
    {
      "anonymous": false,
      "inputs": [
        {
          "indexed": true,
          "internalType": "address",
          "name": "implementation",
          "type": "address"
        }
      ],
      "name": "Upgraded",
      "type": "event"
    },
    {
      "inputs": [
        {
          "internalType": "address",
          "name": "",
          "type": "address"
        }
      ],
      "name": "addressToCollectionId",
      "outputs": [
        {
          "internalType": "uint256",
          "name": "",
          "type": "uint256"
        }
      ],
      "stateMutability": "view",
      "type": "function"
    },
    {
      "inputs": [],
      "name": "collectionId",
      "outputs": [
        {
          "internalType": "uint256",
          "name": "",
          "type": "uint256"
        }
      ],
      "stateMutability": "view",
      "type": "function"
    },
    {
      "inputs": [
        {
          "internalType": "uint256",
          "name": "",
          "type": "uint256"
        }
      ],
      "name": "collections",
      "outputs": [
        {
          "internalType": "string",
          "name": "name",
          "type": "string"
        },
        {
          "internalType": "string",
          "name": "symbol",
          "type": "string"
        },
        {
          "internalType": "string",
          "name": "URI",
          "type": "string"
        },
        {
          "internalType": "address",
          "name": "contractAddress",
          "type": "address"
        },
        {
          "internalType": "address",
          "name": "owner",
          "type": "address"
        },
        {
          "internalType": "string",
          "name": "description",
          "type": "string"
        }
      ],
      "stateMutability": "view",
      "type": "function"
    },
    {
      "inputs": [],
      "name": "owner",
      "outputs": [
        {
          "internalType": "address",
          "name": "",
          "type": "address"
        }
      ],
      "stateMutability": "view",
      "type": "function"
    },
    {
      "inputs": [],
      "name": "paused",
      "outputs": [
        {
          "internalType": "bool",
          "name": "",
          "type": "bool"
        }
      ],
      "stateMutability": "view",
      "type": "function"
    },
    {
      "inputs": [],
      "name": "piNFTMethodsAddress",
      "outputs": [
        {
          "internalType": "address",
          "name": "",
          "type": "address"
        }
      ],
      "stateMutability": "view",
      "type": "function"
    },
    {
      "inputs": [],
      "name": "proxiableUUID",
      "outputs": [
        {
          "internalType": "bytes32",
          "name": "",
          "type": "bytes32"
        }
      ],
      "stateMutability": "view",
      "type": "function"
    },
    {
      "inputs": [],
      "name": "renounceOwnership",
      "outputs": [],
      "stateMutability": "nonpayable",
      "type": "function"
    },
    {
      "inputs": [
        {
          "internalType": "uint256",
          "name": "",
          "type": "uint256"
        },
        {
          "internalType": "uint256",
          "name": "",
          "type": "uint256"
        }
      ],
      "name": "royaltiesForCollection",
      "outputs": [
        {
          "internalType": "address payable",
          "name": "account",
          "type": "address"
        },
        {
          "internalType": "uint96",
          "name": "value",
          "type": "uint96"
        }
      ],
      "stateMutability": "view",
      "type": "function"
    },
    {
      "inputs": [
        {
          "internalType": "address",
          "name": "newOwner",
          "type": "address"
        }
      ],
      "name": "transferOwnership",
      "outputs": [],
      "stateMutability": "nonpayable",
      "type": "function"
    },
    {
      "inputs": [
        {
          "internalType": "address",
          "name": "newImplementation",
          "type": "address"
        }
      ],
      "name": "upgradeTo",
      "outputs": [],
      "stateMutability": "nonpayable",
      "type": "function"
    },
    {
      "inputs": [
        {
          "internalType": "address",
          "name": "newImplementation",
          "type": "address"
        },
        {
          "internalType": "bytes",
          "name": "data",
          "type": "bytes"
        }
      ],
      "name": "upgradeToAndCall",
      "outputs": [],
      "stateMutability": "payable",
      "type": "function"
    },
    {
      "inputs": [
        {
          "internalType": "address",
          "name": "_collectionMethodAddress",
          "type": "address"
        },
        {
          "internalType": "address",
          "name": "_piNFTMethodsAddress",
          "type": "address"
        }
      ],
      "name": "initialize",
      "outputs": [],
      "stateMutability": "nonpayable",
      "type": "function"
    },
    {
      "inputs": [],
      "name": "pause",
      "outputs": [],
      "stateMutability": "nonpayable",
      "type": "function"
    },
    {
      "inputs": [],
      "name": "unpause",
      "outputs": [],
      "stateMutability": "nonpayable",
      "type": "function"
    },
    {
      "inputs": [
        {
          "internalType": "address",
          "name": "newCollectionMethods",
          "type": "address"
        }
      ],
      "name": "changeCollectionMethodImplementation",
      "outputs": [],
      "stateMutability": "nonpayable",
      "type": "function"
    },
    {
      "inputs": [
        {
          "internalType": "string",
          "name": "_name",
          "type": "string"
        },
        {
          "internalType": "string",
          "name": "_symbol",
          "type": "string"
        },
        {
          "internalType": "string",
          "name": "_uri",
          "type": "string"
        },
        {
          "internalType": "string",
          "name": "_description",
          "type": "string"
        },
        {
          "components": [
            {
              "internalType": "address payable",
              "name": "account",
              "type": "address"
            },
            {
              "internalType": "uint96",
              "name": "value",
              "type": "uint96"
            }
          ],
          "internalType": "struct LibShare.Share[]",
          "name": "royalties",
          "type": "tuple[]"
        }
      ],
      "name": "createCollection",
      "outputs": [
        {
          "internalType": "uint256",
          "name": "collectionId_",
          "type": "uint256"
        }
      ],
      "stateMutability": "nonpayable",
      "type": "function"
    },
    {
      "inputs": [
        {
          "internalType": "uint256",
          "name": "_collectionId",
          "type": "uint256"
        },
        {
          "components": [
            {
              "internalType": "address payable",
              "name": "account",
              "type": "address"
            },
            {
              "internalType": "uint96",
              "name": "value",
              "type": "uint96"
            }
          ],
          "internalType": "struct LibShare.Share[]",
          "name": "royalties",
          "type": "tuple[]"
        }
      ],
      "name": "setRoyaltiesForCollection",
      "outputs": [],
      "stateMutability": "nonpayable",
      "type": "function"
    },
    {
      "inputs": [
        {
          "internalType": "uint256",
          "name": "_collectionId",
          "type": "uint256"
        },
        {
          "internalType": "string",
          "name": "_uri",
          "type": "string"
        }
      ],
      "name": "setCollectionURI",
      "outputs": [],
      "stateMutability": "nonpayable",
      "type": "function"
    },
    {
      "inputs": [
        {
          "internalType": "uint256",
          "name": "_collectionId",
          "type": "uint256"
        },
        {
          "internalType": "string",
          "name": "_name",
          "type": "string"
        }
      ],
      "name": "setCollectionName",
      "outputs": [],
      "stateMutability": "nonpayable",
      "type": "function"
    },
    {
      "inputs": [
        {
          "internalType": "uint256",
          "name": "_collectionId",
          "type": "uint256"
        },
        {
          "internalType": "string",
          "name": "_symbol",
          "type": "string"
        }
      ],
      "name": "setCollectionSymbol",
      "outputs": [],
      "stateMutability": "nonpayable",
      "type": "function"
    },
    {
      "inputs": [
        {
          "internalType": "uint256",
          "name": "_collectionId",
          "type": "uint256"
        },
        {
          "internalType": "string",
          "name": "_description",
          "type": "string"
        }
      ],
      "name": "setCollectionDescription",
      "outputs": [],
      "stateMutability": "nonpayable",
      "type": "function"
    },
    {
      "inputs": [
        {
          "internalType": "uint256",
          "name": "_collectionId",
          "type": "uint256"
        }
      ],
      "name": "getCollectionRoyalties",
      "outputs": [
        {
          "components": [
            {
              "internalType": "address payable",
              "name": "account",
              "type": "address"
            },
            {
              "internalType": "uint96",
              "name": "value",
              "type": "uint96"
            }
          ],
          "internalType": "struct LibShare.Share[]",
          "name": "",
          "type": "tuple[]"
        }
      ],
      "stateMutability": "view",
      "type": "function"
    }
  ],
  "bytecode": "0x60a06040523073ffffffffffffffffffffffffffffffffffffffff1660809073ffffffffffffffffffffffffffffffffffffffff168152503480156200004457600080fd5b50620000556200005b60201b60201c565b62000206565b600060019054906101000a900460ff1615620000ae576040517f08c379a0000000000000000000000000000000000000000000000000000000008152600401620000a590620001a9565b60405180910390fd5b60ff801660008054906101000a900460ff1660ff161015620001205760ff6000806101000a81548160ff021916908360ff1602179055507f7f26b83ff96e1f2b6a682f133852f6798a09c465da95921460cefb384740249860ff604051620001179190620001e9565b60405180910390a15b565b600082825260208201905092915050565b7f496e697469616c697a61626c653a20636f6e747261637420697320696e69746960008201527f616c697a696e6700000000000000000000000000000000000000000000000000602082015250565b60006200019160278362000122565b91506200019e8262000133565b604082019050919050565b60006020820190508181036000830152620001c48162000182565b9050919050565b600060ff82169050919050565b620001e381620001cb565b82525050565b6000602082019050620002006000830184620001d8565b92915050565b6080516140fc6200023e600039600081816106a60152818161073501528181610a1201528181610aa10152610b5101526140fc6000f3fe6080604052600436106101405760003560e01c80638456cb59116100b6578063cd4e8ae31161006f578063cd4e8ae3146103eb578063e017793414610414578063e1e9fce81461043f578063e65d64561461047c578063f2fde38b146104ba578063fdbda0ec146104e357610140565b80638456cb591461030557806388da36351461031c5780638da5cb5b1461034557806390abfd4b14610370578063c3c3219d14610399578063c755379f146103c257610140565b80634f1ef286116101085780634f1ef2861461020257806352d1902d1461021e57806358f70c22146102495780635c975abb14610286578063715018a6146102b15780637788bff5146102c857610140565b806327f054aa146101455780633659cfe61461016e5780633d26bb67146101975780633f4ba83a146101c2578063485cc955146101d9575b600080fd5b34801561015157600080fd5b5061016c60048036038101906101679190612777565b610525565b005b34801561017a57600080fd5b5061019560048036038101906101909190612835565b6106a4565b005b3480156101a357600080fd5b506101ac61082d565b6040516101b99190612871565b60405180910390f35b3480156101ce57600080fd5b506101d7610833565b005b3480156101e557600080fd5b5061020060048036038101906101fb919061288c565b610845565b005b61021c60048036038101906102179190612a0d565b610a10565b005b34801561022a57600080fd5b50610233610b4d565b6040516102409190612a82565b60405180910390f35b34801561025557600080fd5b50610270600480360381019061026b9190612cd8565b610c06565b60405161027d9190612871565b60405180910390f35b34801561029257600080fd5b5061029b610f1a565b6040516102a89190612dfd565b60405180910390f35b3480156102bd57600080fd5b506102c6610f31565b005b3480156102d457600080fd5b506102ef60048036038101906102ea9190612835565b610f45565b6040516102fc9190612871565b60405180910390f35b34801561031157600080fd5b5061031a610f5d565b005b34801561032857600080fd5b50610343600480360381019061033e9190612e18565b610f6f565b005b34801561035157600080fd5b5061035a61132f565b6040516103679190612e83565b60405180910390f35b34801561037c57600080fd5b5061039760048036038101906103929190612835565b611359565b005b3480156103a557600080fd5b506103c060048036038101906103bb9190612e9e565b6113a5565b005b3480156103ce57600080fd5b506103e960048036038101906103e49190612e9e565b611524565b005b3480156103f757600080fd5b50610412600480360381019061040d9190612e9e565b6116a3565b005b34801561042057600080fd5b50610429611822565b6040516104369190612e83565b60405180910390f35b34801561044b57600080fd5b5061046660048036038101906104619190612efa565b611849565b6040516104739190613023565b60405180910390f35b34801561048857600080fd5b506104a3600480360381019061049e9190613045565b61194b565b6040516104b19291906130a3565b60405180910390f35b3480156104c657600080fd5b506104e160048036038101906104dc9190612835565b6119c0565b005b3480156104ef57600080fd5b5061050a60048036038101906105059190612efa565b611a44565b60405161051c96959493929190613154565b60405180910390f35b61052d611ce0565b823373ffffffffffffffffffffffffffffffffffffffff1660fb600083815260200190815260200160002060040160009054906101000a900473ffffffffffffffffffffffffffffffffffffffff1673ffffffffffffffffffffffffffffffffffffffff16146105d2576040517f08c379a00000000000000000000000000000000000000000000000000000000081526004016105c99061321d565b60405180910390fd5b60fb60008581526020019081526020016000206002016040516020016105f8919061333d565b604051602081830303815290604052805190602001208383604051602001610621929190613379565b604051602081830303815290604052805190602001201461069e57828260fb60008781526020019081526020016000206002019190610661929190612521565b507f1e7a348533f0080dc51cd7ce31024dc099e434e0d9f1019b594f99ecf9289e0a848484604051610695939291906133bf565b60405180910390a15b50505050565b7f000000000000000000000000000000000000000000000000000000000000000073ffffffffffffffffffffffffffffffffffffffff163073ffffffffffffffffffffffffffffffffffffffff161415610733576040517f08c379a000000000000000000000000000000000000000000000000000000000815260040161072a90613463565b60405180910390fd5b7f000000000000000000000000000000000000000000000000000000000000000073ffffffffffffffffffffffffffffffffffffffff16610772611d2a565b73ffffffffffffffffffffffffffffffffffffffff16146107c8576040517f08c379a00000000000000000000000000000000000000000000000000000000081526004016107bf906134f5565b60405180910390fd5b6107d181611d81565b61082a81600067ffffffffffffffff8111156107f0576107ef6128e2565b5b6040519080825280601f01601f1916602001820160405280156108225781602001600182028036833780820191505090505b506000611d8c565b50565b60fe5481565b61083b611efa565b610843611f78565b565b60008060019054906101000a900460ff161590508080156108765750600160008054906101000a900460ff1660ff16105b806108a3575061088530611fdb565b1580156108a25750600160008054906101000a900460ff1660ff16145b5b6108e2576040517f08c379a00000000000000000000000000000000000000000000000000000000081526004016108d990613587565b60405180910390fd5b60016000806101000a81548160ff021916908360ff160217905550801561091f576001600060016101000a81548160ff0219169083151502179055505b610927611ffe565b61092f612057565b8260ff60006101000a81548173ffffffffffffffffffffffffffffffffffffffff021916908373ffffffffffffffffffffffffffffffffffffffff1602179055508161010060006101000a81548173ffffffffffffffffffffffffffffffffffffffff021916908373ffffffffffffffffffffffffffffffffffffffff1602179055508015610a0b5760008060016101000a81548160ff0219169083151502179055507f7f26b83ff96e1f2b6a682f133852f6798a09c465da95921460cefb38474024986001604051610a0291906135f9565b60405180910390a15b505050565b7f000000000000000000000000000000000000000000000000000000000000000073ffffffffffffffffffffffffffffffffffffffff163073ffffffffffffffffffffffffffffffffffffffff161415610a9f576040517f08c379a0000000000000000000000000000000000000000000000000000000008152600401610a9690613463565b60405180910390fd5b7f000000000000000000000000000000000000000000000000000000000000000073ffffffffffffffffffffffffffffffffffffffff16610ade611d2a565b73ffffffffffffffffffffffffffffffffffffffff1614610b34576040517f08c379a0000000000000000000000000000000000000000000000000000000008152600401610b2b906134f5565b60405180910390fd5b610b3d82611d81565b610b4982826001611d8c565b5050565b60007f000000000000000000000000000000000000000000000000000000000000000073ffffffffffffffffffffffffffffffffffffffff163073ffffffffffffffffffffffffffffffffffffffff1614610bdd576040517f08c379a0000000000000000000000000000000000000000000000000000000008152600401610bd490613686565b60405180910390fd5b7f360894a13ba1a3210667c828492db98dca3e2076cc3735a920a3ca505d382bbc60001b905090565b6000610c10611ce0565b60fe60008154610c1f906136d5565b9190508190559050600073__LibCollection_________________________63d7d5c6f433308b8b60ff60009054906101000a900473ffffffffffffffffffffffffffffffffffffffff166040518663ffffffff1660e01b8152600401610c8a959493929190613777565b602060405180830381865af4158015610ca7573d6000803e3d6000fd5b505050506040513d601f19601f82011682018060405250810190610ccb91906137ed565b905060006040518060c001604052808a815260200189815260200188888080601f016020809104026020016040519081016040528093929190818152602001838380828437600081840152601f19601f8201169050808301925050505050505081526020018373ffffffffffffffffffffffffffffffffffffffff1681526020013373ffffffffffffffffffffffffffffffffffffffff1681526020018681525090508060fb60008581526020019081526020016000206000820151816000019080519060200190610d9e9291906125a7565b506020820151816001019080519060200190610dbb9291906125a7565b506040820151816002019080519060200190610dd89291906125a7565b5060608201518160030160006101000a81548173ffffffffffffffffffffffffffffffffffffffff021916908373ffffffffffffffffffffffffffffffffffffffff16021790555060808201518160040160006101000a81548173ffffffffffffffffffffffffffffffffffffffff021916908373ffffffffffffffffffffffffffffffffffffffff16021790555060a0820151816005019080519060200190610e839291906125a7565b509050508260fc60008473ffffffffffffffffffffffffffffffffffffffff1673ffffffffffffffffffffffffffffffffffffffff16815260200190815260200160002081905550610ed58385610f6f565b7f18c1b1c8856053698af995ce4384c0f661562c52a65d6dd29b910849d5e1bfca8383604051610f0692919061381a565b60405180910390a150509695505050505050565b6000606560009054906101000a900460ff16905090565b610f39611efa565b610f4360006120a8565b565b60fc6020528060005260406000206000915090505481565b610f65611efa565b610f6d61216e565b565b610f77611ce0565b813373ffffffffffffffffffffffffffffffffffffffff1660fb600083815260200190815260200160002060040160009054906101000a900473ffffffffffffffffffffffffffffffffffffffff1673ffffffffffffffffffffffffffffffffffffffff161461101c576040517f08c379a00000000000000000000000000000000000000000000000000000000081526004016110139061321d565b60405180910390fd5b600a82511115611061576040517f08c379a00000000000000000000000000000000000000000000000000000000081526004016110589061388f565b60405180910390fd5b60fd60008481526020019081526020016000206000611080919061262d565b6000805b83518110156112ab57600073ffffffffffffffffffffffffffffffffffffffff168482815181106110b8576110b76138af565b5b60200260200101516000015173ffffffffffffffffffffffffffffffffffffffff16141561111b576040517f08c379a000000000000000000000000000000000000000000000000000000000815260040161111290613950565b60405180910390fd5b60008482815181106111305761112f6138af565b5b6020026020010151602001516bffffffffffffffffffffffff16141561118b576040517f08c379a0000000000000000000000000000000000000000000000000000000008152600401611182906139bc565b60405180910390fd5b60fd60008681526020019081526020016000208482815181106111b1576111b06138af565b5b60200260200101519080600181540180825580915050600190039060005260206000200160009091909190915060008201518160000160006101000a81548173ffffffffffffffffffffffffffffffffffffffff021916908373ffffffffffffffffffffffffffffffffffffffff16021790555060208201518160000160146101000a8154816bffffffffffffffffffffffff02191690836bffffffffffffffffffffffff1602179055505050838181518110611271576112706138af565b5b6020026020010151602001516bffffffffffffffffffffffff168261129691906139dc565b915080806112a3906136d5565b915050611084565b506113248111156112f1576040517f08c379a00000000000000000000000000000000000000000000000000000000081526004016112e890613a7e565b60405180910390fd5b837f7bab2fcc3e58a877ef95c248717265feca4faf342b0d25e060a591b2d67fc5bb846040516113219190613023565b60405180910390a250505050565b6000603360009054906101000a900473ffffffffffffffffffffffffffffffffffffffff16905090565b611361611efa565b8060ff60006101000a81548173ffffffffffffffffffffffffffffffffffffffff021916908373ffffffffffffffffffffffffffffffffffffffff16021790555050565b6113ad611ce0565b813373ffffffffffffffffffffffffffffffffffffffff1660fb600083815260200190815260200160002060040160009054906101000a900473ffffffffffffffffffffffffffffffffffffffff1673ffffffffffffffffffffffffffffffffffffffff1614611452576040517f08c379a00000000000000000000000000000000000000000000000000000000081526004016114499061321d565b60405180910390fd5b60fb6000848152602001908152602001600020600101604051602001611478919061333d565b604051602081830303815290604052805190602001208260405160200161149f9190613acf565b604051602081830303815290604052805190602001201461151f578160fb600085815260200190815260200160002060010190805190602001906114e49291906125a7565b507f532245a529e5e3ad856e316ec6aff407ed6f081c15e3a0f296a2e7c809b928ad8383604051611516929190613ae6565b60405180910390a15b505050565b61152c611ce0565b813373ffffffffffffffffffffffffffffffffffffffff1660fb600083815260200190815260200160002060040160009054906101000a900473ffffffffffffffffffffffffffffffffffffffff1673ffffffffffffffffffffffffffffffffffffffff16146115d1576040517f08c379a00000000000000000000000000000000000000000000000000000000081526004016115c89061321d565b60405180910390fd5b60fb60008481526020019081526020016000206000016040516020016115f7919061333d565b604051602081830303815290604052805190602001208260405160200161161e9190613acf565b604051602081830303815290604052805190602001201461169e578160fb600085815260200190815260200160002060000190805190602001906116639291906125a7565b507f8ccbae9e1ad475ea58990cd573fe41127da4082c99f43ebb69c1c134f51f1ff58383604051611695929190613ae6565b60405180910390a15b505050565b6116ab611ce0565b813373ffffffffffffffffffffffffffffffffffffffff1660fb600083815260200190815260200160002060040160009054906101000a900473ffffffffffffffffffffffffffffffffffffffff1673ffffffffffffffffffffffffffffffffffffffff1614611750576040517f08c379a00000000000000000000000000000000000000000000000000000000081526004016117479061321d565b60405180910390fd5b60fb6000848152602001908152602001600020600501604051602001611776919061333d565b604051602081830303815290604052805190602001208260405160200161179d9190613acf565b604051602081830303815290604052805190602001201461181d578160fb600085815260200190815260200160002060050190805190602001906117e29291906125a7565b507ff6b14ad7ac41b7fb268432ff9325dec3d00b47cc932a71964fec300206c577528383604051611814929190613ae6565b60405180910390a15b505050565b61010060009054906101000a900473ffffffffffffffffffffffffffffffffffffffff1681565b606060fd6000838152602001908152602001600020805480602002602001604051908101604052809291908181526020016000905b82821015611940578382906000526020600020016040518060400160405290816000820160009054906101000a900473ffffffffffffffffffffffffffffffffffffffff1673ffffffffffffffffffffffffffffffffffffffff1673ffffffffffffffffffffffffffffffffffffffff1681526020016000820160149054906101000a90046bffffffffffffffffffffffff166bffffffffffffffffffffffff166bffffffffffffffffffffffff16815250508152602001906001019061187e565b505050509050919050565b60fd602052816000526040600020818154811061196757600080fd5b90600052602060002001600091509150508060000160009054906101000a900473ffffffffffffffffffffffffffffffffffffffff16908060000160149054906101000a90046bffffffffffffffffffffffff16905082565b6119c8611efa565b600073ffffffffffffffffffffffffffffffffffffffff168173ffffffffffffffffffffffffffffffffffffffff161415611a38576040517f08c379a0000000000000000000000000000000000000000000000000000000008152600401611a2f90613b88565b60405180910390fd5b611a41816120a8565b50565b60fb602052806000526040600020600091509050806000018054611a679061326c565b80601f0160208091040260200160405190810160405280929190818152602001828054611a939061326c565b8015611ae05780601f10611ab557610100808354040283529160200191611ae0565b820191906000526020600020905b815481529060010190602001808311611ac357829003601f168201915b505050505090806001018054611af59061326c565b80601f0160208091040260200160405190810160405280929190818152602001828054611b219061326c565b8015611b6e5780601f10611b4357610100808354040283529160200191611b6e565b820191906000526020600020905b815481529060010190602001808311611b5157829003601f168201915b505050505090806002018054611b839061326c565b80601f0160208091040260200160405190810160405280929190818152602001828054611baf9061326c565b8015611bfc5780601f10611bd157610100808354040283529160200191611bfc565b820191906000526020600020905b815481529060010190602001808311611bdf57829003601f168201915b5050505050908060030160009054906101000a900473ffffffffffffffffffffffffffffffffffffffff16908060040160009054906101000a900473ffffffffffffffffffffffffffffffffffffffff1690806005018054611c5d9061326c565b80601f0160208091040260200160405190810160405280929190818152602001828054611c899061326c565b8015611cd65780601f10611cab57610100808354040283529160200191611cd6565b820191906000526020600020905b815481529060010190602001808311611cb957829003601f168201915b5050505050905086565b611ce8610f1a565b15611d28576040517f08c379a0000000000000000000000000000000000000000000000000000000008152600401611d1f90613bf4565b60405180910390fd5b565b6000611d587f360894a13ba1a3210667c828492db98dca3e2076cc3735a920a3ca505d382bbc60001b6121d1565b60000160009054906101000a900473ffffffffffffffffffffffffffffffffffffffff16905090565b611d89611efa565b50565b611db87f4910fdfa16fed3260ed0e7147f7cc6da11a60208b5b9406d12a635614ffd914360001b6121db565b60000160009054906101000a900460ff1615611ddc57611dd7836121e5565b611ef5565b8273ffffffffffffffffffffffffffffffffffffffff166352d1902d6040518163ffffffff1660e01b8152600401602060405180830381865afa925050508015611e4457506040513d601f19601f82011682018060405250810190611e419190613c40565b60015b611e83576040517f08c379a0000000000000000000000000000000000000000000000000000000008152600401611e7a90613cdf565b60405180910390fd5b7f360894a13ba1a3210667c828492db98dca3e2076cc3735a920a3ca505d382bbc60001b8114611ee8576040517f08c379a0000000000000000000000000000000000000000000000000000000008152600401611edf90613d71565b60405180910390fd5b50611ef483838361229e565b5b505050565b611f026122ca565b73ffffffffffffffffffffffffffffffffffffffff16611f2061132f565b73ffffffffffffffffffffffffffffffffffffffff1614611f76576040517f08c379a0000000000000000000000000000000000000000000000000000000008152600401611f6d90613ddd565b60405180910390fd5b565b611f806122d2565b6000606560006101000a81548160ff0219169083151502179055507f5db9ee0a495bf2e6ff9c91a7834c1ba4fdd244a5e8aa4e537bd38aeae4b073aa611fc46122ca565b604051611fd19190612e83565b60405180910390a1565b6000808273ffffffffffffffffffffffffffffffffffffffff163b119050919050565b600060019054906101000a900460ff1661204d576040517f08c379a000000000000000000000000000000000000000000000000000000000815260040161204490613e6f565b60405180910390fd5b61205561231b565b565b600060019054906101000a900460ff166120a6576040517f08c379a000000000000000000000000000000000000000000000000000000000815260040161209d90613e6f565b60405180910390fd5b565b6000603360009054906101000a900473ffffffffffffffffffffffffffffffffffffffff16905081603360006101000a81548173ffffffffffffffffffffffffffffffffffffffff021916908373ffffffffffffffffffffffffffffffffffffffff1602179055508173ffffffffffffffffffffffffffffffffffffffff168173ffffffffffffffffffffffffffffffffffffffff167f8be0079c531659141344cd1fd0a4f28419497f9722a3daafe3b4186f6b6457e060405160405180910390a35050565b612176611ce0565b6001606560006101000a81548160ff0219169083151502179055507f62e78cea01bee320cd4e420270b5ea74000d11b0c9f74754ebdbfc544b05a2586121ba6122ca565b6040516121c79190612e83565b60405180910390a1565b6000819050919050565b6000819050919050565b6121ee81611fdb565b61222d576040517f08c379a000000000000000000000000000000000000000000000000000000000815260040161222490613f01565b60405180910390fd5b8061225a7f360894a13ba1a3210667c828492db98dca3e2076cc3735a920a3ca505d382bbc60001b6121d1565b60000160006101000a81548173ffffffffffffffffffffffffffffffffffffffff021916908373ffffffffffffffffffffffffffffffffffffffff16021790555050565b6122a78361237c565b6000825111806122b45750805b156122c5576122c383836123cb565b505b505050565b600033905090565b6122da610f1a565b612319576040517f08c379a000000000000000000000000000000000000000000000000000000000815260040161231090613f6d565b60405180910390fd5b565b600060019054906101000a900460ff1661236a576040517f08c379a000000000000000000000000000000000000000000000000000000000815260040161236190613e6f565b60405180910390fd5b61237a6123756122ca565b6120a8565b565b612385816121e5565b8073ffffffffffffffffffffffffffffffffffffffff167fbc7cd75a20ee27fd9adebab32041f755214dbc6bffa90cc0225b39da2e5c2d3b60405160405180910390a250565b60606123d683611fdb565b612415576040517f08c379a000000000000000000000000000000000000000000000000000000000815260040161240c90613fff565b60405180910390fd5b6000808473ffffffffffffffffffffffffffffffffffffffff168460405161243d9190614066565b600060405180830381855af49150503d8060008114612478576040519150601f19603f3d011682016040523d82523d6000602084013e61247d565b606091505b50915091506124a582826040518060600160405280602781526020016140a0602791396124af565b9250505092915050565b606083156124bf578290506124ca565b6124c983836124d1565b5b9392505050565b6000825111156124e45781518083602001fd5b806040517f08c379a0000000000000000000000000000000000000000000000000000000008152600401612518919061407d565b60405180910390fd5b82805461252d9061326c565b90600052602060002090601f01602090048101928261254f5760008555612596565b82601f1061256857803560ff1916838001178555612596565b82800160010185558215612596579182015b8281111561259557823582559160200191906001019061257a565b5b5090506125a3919061264e565b5090565b8280546125b39061326c565b90600052602060002090601f0160209004810192826125d5576000855561261c565b82601f106125ee57805160ff191683800117855561261c565b8280016001018555821561261c579182015b8281111561261b578251825591602001919060010190612600565b5b509050612629919061264e565b5090565b508054600082559060005260206000209081019061264b919061266b565b50565b5b8082111561266757600081600090555060010161264f565b5090565b5b808211156126c457600080820160006101000a81549073ffffffffffffffffffffffffffffffffffffffff02191690556000820160146101000a8154906bffffffffffffffffffffffff02191690555060010161266c565b5090565b6000604051905090565b600080fd5b600080fd5b6000819050919050565b6126ef816126dc565b81146126fa57600080fd5b50565b60008135905061270c816126e6565b92915050565b600080fd5b600080fd5b600080fd5b60008083601f84011261273757612736612712565b5b8235905067ffffffffffffffff81111561275457612753612717565b5b6020830191508360018202830111156127705761276f61271c565b5b9250929050565b6000806000604084860312156127905761278f6126d2565b5b600061279e868287016126fd565b935050602084013567ffffffffffffffff8111156127bf576127be6126d7565b5b6127cb86828701612721565b92509250509250925092565b600073ffffffffffffffffffffffffffffffffffffffff82169050919050565b6000612802826127d7565b9050919050565b612812816127f7565b811461281d57600080fd5b50565b60008135905061282f81612809565b92915050565b60006020828403121561284b5761284a6126d2565b5b600061285984828501612820565b91505092915050565b61286b816126dc565b82525050565b60006020820190506128866000830184612862565b92915050565b600080604083850312156128a3576128a26126d2565b5b60006128b185828601612820565b92505060206128c285828601612820565b9150509250929050565b600080fd5b6000601f19601f8301169050919050565b7f4e487b7100000000000000000000000000000000000000000000000000000000600052604160045260246000fd5b61291a826128d1565b810181811067ffffffffffffffff82111715612939576129386128e2565b5b80604052505050565b600061294c6126c8565b90506129588282612911565b919050565b600067ffffffffffffffff821115612978576129776128e2565b5b612981826128d1565b9050602081019050919050565b82818337600083830152505050565b60006129b06129ab8461295d565b612942565b9050828152602081018484840111156129cc576129cb6128cc565b5b6129d784828561298e565b509392505050565b600082601f8301126129f4576129f3612712565b5b8135612a0484826020860161299d565b91505092915050565b60008060408385031215612a2457612a236126d2565b5b6000612a3285828601612820565b925050602083013567ffffffffffffffff811115612a5357612a526126d7565b5b612a5f858286016129df565b9150509250929050565b6000819050919050565b612a7c81612a69565b82525050565b6000602082019050612a976000830184612a73565b92915050565b600067ffffffffffffffff821115612ab857612ab76128e2565b5b612ac1826128d1565b9050602081019050919050565b6000612ae1612adc84612a9d565b612942565b905082815260208101848484011115612afd57612afc6128cc565b5b612b0884828561298e565b509392505050565b600082601f830112612b2557612b24612712565b5b8135612b35848260208601612ace565b91505092915050565b600067ffffffffffffffff821115612b5957612b586128e2565b5b602082029050602081019050919050565b600080fd5b6000612b7a826127d7565b9050919050565b612b8a81612b6f565b8114612b9557600080fd5b50565b600081359050612ba781612b81565b92915050565b60006bffffffffffffffffffffffff82169050919050565b612bce81612bad565b8114612bd957600080fd5b50565b600081359050612beb81612bc5565b92915050565b600060408284031215612c0757612c06612b6a565b5b612c116040612942565b90506000612c2184828501612b98565b6000830152506020612c3584828501612bdc565b60208301525092915050565b6000612c54612c4f84612b3e565b612942565b90508083825260208201905060408402830185811115612c7757612c7661271c565b5b835b81811015612ca05780612c8c8882612bf1565b845260208401935050604081019050612c79565b5050509392505050565b600082601f830112612cbf57612cbe612712565b5b8135612ccf848260208601612c41565b91505092915050565b60008060008060008060a08789031215612cf557612cf46126d2565b5b600087013567ffffffffffffffff811115612d1357612d126126d7565b5b612d1f89828a01612b10565b965050602087013567ffffffffffffffff811115612d4057612d3f6126d7565b5b612d4c89828a01612b10565b955050604087013567ffffffffffffffff811115612d6d57612d6c6126d7565b5b612d7989828a01612721565b9450945050606087013567ffffffffffffffff811115612d9c57612d9b6126d7565b5b612da889828a01612b10565b925050608087013567ffffffffffffffff811115612dc957612dc86126d7565b5b612dd589828a01612caa565b9150509295509295509295565b60008115159050919050565b612df781612de2565b82525050565b6000602082019050612e126000830184612dee565b92915050565b60008060408385031215612e2f57612e2e6126d2565b5b6000612e3d858286016126fd565b925050602083013567ffffffffffffffff811115612e5e57612e5d6126d7565b5b612e6a85828601612caa565b9150509250929050565b612e7d816127f7565b82525050565b6000602082019050612e986000830184612e74565b92915050565b60008060408385031215612eb557612eb46126d2565b5b6000612ec3858286016126fd565b925050602083013567ffffffffffffffff811115612ee457612ee36126d7565b5b612ef085828601612b10565b9150509250929050565b600060208284031215612f1057612f0f6126d2565b5b6000612f1e848285016126fd565b91505092915050565b600081519050919050565b600082825260208201905092915050565b6000819050602082019050919050565b612f5c81612b6f565b82525050565b612f6b81612bad565b82525050565b604082016000820151612f876000850182612f53565b506020820151612f9a6020850182612f62565b50505050565b6000612fac8383612f71565b60408301905092915050565b6000602082019050919050565b6000612fd082612f27565b612fda8185612f32565b9350612fe583612f43565b8060005b83811015613016578151612ffd8882612fa0565b975061300883612fb8565b925050600181019050612fe9565b5085935050505092915050565b6000602082019050818103600083015261303d8184612fc5565b905092915050565b6000806040838503121561305c5761305b6126d2565b5b600061306a858286016126fd565b925050602061307b858286016126fd565b9150509250929050565b61308e81612b6f565b82525050565b61309d81612bad565b82525050565b60006040820190506130b86000830185613085565b6130c56020830184613094565b9392505050565b600081519050919050565b600082825260208201905092915050565b60005b838110156131065780820151818401526020810190506130eb565b83811115613115576000848401525b50505050565b6000613126826130cc565b61313081856130d7565b93506131408185602086016130e8565b613149816128d1565b840191505092915050565b600060c082019050818103600083015261316e818961311b565b90508181036020830152613182818861311b565b90508181036040830152613196818761311b565b90506131a56060830186612e74565b6131b26080830185612e74565b81810360a08301526131c4818461311b565b9050979650505050505050565b7f4e6f7420746865206f776e657200000000000000000000000000000000000000600082015250565b6000613207600d836130d7565b9150613212826131d1565b602082019050919050565b60006020820190508181036000830152613236816131fa565b9050919050565b7f4e487b7100000000000000000000000000000000000000000000000000000000600052602260045260246000fd5b6000600282049050600182168061328457607f821691505b602082108114156132985761329761323d565b5b50919050565b600081905092915050565b60008190508160005260206000209050919050565b600081546132cb8161326c565b6132d5818661329e565b945060018216600081146132f0576001811461330157613334565b60ff19831686528186019350613334565b61330a856132a9565b60005b8381101561332c5781548189015260018201915060208101905061330d565b838801955050505b50505092915050565b600061334982846132be565b915081905092915050565b6000613360838561329e565b935061336d83858461298e565b82840190509392505050565b6000613386828486613354565b91508190509392505050565b600061339e83856130d7565b93506133ab83858461298e565b6133b4836128d1565b840190509392505050565b60006040820190506133d46000830186612862565b81810360208301526133e7818486613392565b9050949350505050565b7f46756e6374696f6e206d7573742062652063616c6c6564207468726f7567682060008201527f64656c656761746563616c6c0000000000000000000000000000000000000000602082015250565b600061344d602c836130d7565b9150613458826133f1565b604082019050919050565b6000602082019050818103600083015261347c81613440565b9050919050565b7f46756e6374696f6e206d7573742062652063616c6c6564207468726f7567682060008201527f6163746976652070726f78790000000000000000000000000000000000000000602082015250565b60006134df602c836130d7565b91506134ea82613483565b604082019050919050565b6000602082019050818103600083015261350e816134d2565b9050919050565b7f496e697469616c697a61626c653a20636f6e747261637420697320616c72656160008201527f647920696e697469616c697a6564000000000000000000000000000000000000602082015250565b6000613571602e836130d7565b915061357c82613515565b604082019050919050565b600060208201905081810360008301526135a081613564565b9050919050565b6000819050919050565b600060ff82169050919050565b6000819050919050565b60006135e36135de6135d9846135a7565b6135be565b6135b1565b9050919050565b6135f3816135c8565b82525050565b600060208201905061360e60008301846135ea565b92915050565b7f555550535570677261646561626c653a206d757374206e6f742062652063616c60008201527f6c6564207468726f7567682064656c656761746563616c6c0000000000000000602082015250565b60006136706038836130d7565b915061367b82613614565b604082019050919050565b6000602082019050818103600083015261369f81613663565b9050919050565b7f4e487b7100000000000000000000000000000000000000000000000000000000600052601160045260246000fd5b60006136e0826126dc565b91507fffffffffffffffffffffffffffffffffffffffffffffffffffffffffffffffff821415613713576137126136a6565b5b600182019050919050565b613727816127f7565b82525050565b600082825260208201905092915050565b6000613749826130cc565b613753818561372d565b93506137638185602086016130e8565b61376c816128d1565b840191505092915050565b600060a08201905061378c600083018861371e565b613799602083018761371e565b81810360408301526137ab818661373e565b905081810360608301526137bf818561373e565b90506137ce608083018461371e565b9695505050505050565b6000815190506137e781612809565b92915050565b600060208284031215613803576138026126d2565b5b6000613811848285016137d8565b91505092915050565b600060408201905061382f6000830185612862565b61383c6020830184612e74565b9392505050565b7f41746d6f737420313020726f79616c746965732063616e206265206164646564600082015250565b60006138796020836130d7565b915061388482613843565b602082019050919050565b600060208201905081810360008301526138a88161386c565b9050919050565b7f4e487b7100000000000000000000000000000000000000000000000000000000600052603260045260246000fd5b7f526f79616c747920726563697069656e742073686f756c64206265207072657360008201527f656e740000000000000000000000000000000000000000000000000000000000602082015250565b600061393a6023836130d7565b9150613945826138de565b604082019050919050565b600060208201905081810360008301526139698161392d565b9050919050565b7f526f79616c74792076616c75652073686f756c64206265203e20300000000000600082015250565b60006139a6601b836130d7565b91506139b182613970565b602082019050919050565b600060208201905081810360008301526139d581613999565b9050919050565b60006139e7826126dc565b91506139f2836126dc565b9250827fffffffffffffffffffffffffffffffffffffffffffffffffffffffffffffffff03821115613a2757613a266136a6565b5b828201905092915050565b7f53756d206f6620526f79616c74696573203e2034392500000000000000000000600082015250565b6000613a686016836130d7565b9150613a7382613a32565b602082019050919050565b60006020820190508181036000830152613a9781613a5b565b9050919050565b6000613aa9826130cc565b613ab3818561329e565b9350613ac38185602086016130e8565b80840191505092915050565b6000613adb8284613a9e565b915081905092915050565b6000604082019050613afb6000830185612862565b8181036020830152613b0d818461311b565b90509392505050565b7f4f776e61626c653a206e6577206f776e657220697320746865207a65726f206160008201527f6464726573730000000000000000000000000000000000000000000000000000602082015250565b6000613b726026836130d7565b9150613b7d82613b16565b604082019050919050565b60006020820190508181036000830152613ba181613b65565b9050919050565b7f5061757361626c653a2070617573656400000000000000000000000000000000600082015250565b6000613bde6010836130d7565b9150613be982613ba8565b602082019050919050565b60006020820190508181036000830152613c0d81613bd1565b9050919050565b613c1d81612a69565b8114613c2857600080fd5b50565b600081519050613c3a81613c14565b92915050565b600060208284031215613c5657613c556126d2565b5b6000613c6484828501613c2b565b91505092915050565b7f45524331393637557067726164653a206e657720696d706c656d656e7461746960008201527f6f6e206973206e6f742055555053000000000000000000000000000000000000602082015250565b6000613cc9602e836130d7565b9150613cd482613c6d565b604082019050919050565b60006020820190508181036000830152613cf881613cbc565b9050919050565b7f45524331393637557067726164653a20756e737570706f727465642070726f7860008201527f6961626c65555549440000000000000000000000000000000000000000000000602082015250565b6000613d5b6029836130d7565b9150613d6682613cff565b604082019050919050565b60006020820190508181036000830152613d8a81613d4e565b9050919050565b7f4f776e61626c653a2063616c6c6572206973206e6f7420746865206f776e6572600082015250565b6000613dc76020836130d7565b9150613dd282613d91565b602082019050919050565b60006020820190508181036000830152613df681613dba565b9050919050565b7f496e697469616c697a61626c653a20636f6e7472616374206973206e6f74206960008201527f6e697469616c697a696e67000000000000000000000000000000000000000000602082015250565b6000613e59602b836130d7565b9150613e6482613dfd565b604082019050919050565b60006020820190508181036000830152613e8881613e4c565b9050919050565b7f455243313936373a206e657720696d706c656d656e746174696f6e206973206e60008201527f6f74206120636f6e747261637400000000000000000000000000000000000000602082015250565b6000613eeb602d836130d7565b9150613ef682613e8f565b604082019050919050565b60006020820190508181036000830152613f1a81613ede565b9050919050565b7f5061757361626c653a206e6f7420706175736564000000000000000000000000600082015250565b6000613f576014836130d7565b9150613f6282613f21565b602082019050919050565b60006020820190508181036000830152613f8681613f4a565b9050919050565b7f416464726573733a2064656c65676174652063616c6c20746f206e6f6e2d636f60008201527f6e74726163740000000000000000000000000000000000000000000000000000602082015250565b6000613fe96026836130d7565b9150613ff482613f8d565b604082019050919050565b6000602082019050818103600083015261401881613fdc565b9050919050565b600081519050919050565b600081905092915050565b60006140408261401f565b61404a818561402a565b935061405a8185602086016130e8565b80840191505092915050565b60006140728284614035565b915081905092915050565b60006020820190508181036000830152614097818461311b565b90509291505056fe416464726573733a206c6f772d6c6576656c2064656c65676174652063616c6c206661696c6564a26469706673582212205028edfb6c21b3ff3976b5a9105b302f57f50eaba3669303eeb163343638cf3464736f6c634300080b0033",
  "immutableReferences": {
    "720": [
      {
        "length": 32,
        "start": 1702
      },
      {
        "length": 32,
        "start": 1845
      },
      {
        "length": 32,
        "start": 2578
      },
      {
        "length": 32,
        "start": 2721
      },
      {
        "length": 32,
        "start": 2897
      }
    ]
  },
  "source": "// SPDX-License-Identifier: MIT\npragma solidity 0.8.11;\n\nimport \"@openzeppelin/contracts/token/ERC20/IERC20.sol\";\nimport \"@openzeppelin/contracts/token/ERC721/extensions/ERC721URIStorage.sol\";\nimport \"@openzeppelin/contracts-upgradeable/access/OwnableUpgradeable.sol\";\nimport \"@openzeppelin/contracts-upgradeable/proxy/utils/UUPSUpgradeable.sol\";\nimport \"@openzeppelin/contracts-upgradeable/security/PausableUpgradeable.sol\";\nimport \"@openzeppelin/contracts/utils/Counters.sol\";\nimport \"./utils/LibShare.sol\";\nimport \"./Libraries/LibCollection.sol\";\n\ncontract CollectionFactory is\n    OwnableUpgradeable,\n    PausableUpgradeable,\n    UUPSUpgradeable\n{\n    using Counters for Counters.Counter;\n\n    //STORAGE START -------------------------------------------------------------------------------------\n\n    /**\n     * @notice Deatils for a collection.\n     * @param name The name of the collection.\n     * @param symbol The symbol of a collection.\n     * @param URI The collection uri.\n     * @param contractAddress the address of the deployed collection.\n     * @param owner The collection owner.\n     * @param description The collection description\n     */\n    struct CollectionMeta {\n        string name;\n        string symbol;\n        string URI;\n        address contractAddress;\n        address owner;\n        string description;\n    }\n\n    // collectionId => collwctionMeta\n    mapping(uint256 => CollectionMeta) public collections;\n\n    mapping(address => uint256) public addressToCollectionId;\n\n    // collectionId => royalties\n    mapping(uint256 => LibShare.Share[]) public royaltiesForCollection;\n\n    uint256 public collectionId;\n    address collectionMethodAddress;\n    address public piNFTMethodsAddress;\n\n    //STORAGE END ------------------------------------------------------------------------------------------\n\n    event CollectionURISet(uint256 collectionId, string uri);\n\n    event CollectionNameSet(uint256 collectionId, string name);\n\n    event CollectionDescriptionSet(uint256 collectionId, string Description);\n\n    event CollectionSymbolSet(uint256 collectionId, string Symbol);\n\n    event CollectionCreated(uint256 collectionId, address CollectionAddress);\n\n    event CollectionRoyaltiesSet(\n        uint256 indexed collectionId,\n        LibShare.Share[] royalties\n    );\n\n    /// @custom:oz-upgrades-unsafe-allow constructor\n    constructor() {\n        _disableInitializers();\n    }\n\n    function initialize(\n        address _collectionMethodAddress,\n        address _piNFTMethodsAddress\n    ) public initializer {\n        __Ownable_init();\n        __UUPSUpgradeable_init();\n        collectionMethodAddress = _collectionMethodAddress;\n        piNFTMethodsAddress = _piNFTMethodsAddress;\n    }\n\n    function pause() external onlyOwner {\n        _pause();\n    }\n\n    function unpause() external onlyOwner {\n        _unpause();\n    }\n\n    modifier collectionOwner(uint256 _collectionId) {\n        require(\n            collections[_collectionId].owner == msg.sender,\n            \"Not the owner\"\n        );\n        _;\n    }\n\n    function changeCollectionMethodImplementation(\n        address newCollectionMethods\n    ) external onlyOwner {\n        collectionMethodAddress = newCollectionMethods;\n    }\n\n    /**\n     * @notice Creates and deploys a collection and returns the collection Id.\n     * @dev Returned value is type uint256.\n     * @param _name The name of the collection.\n     * @param _symbol The symbol of the collection.\n     * @param _uri The collection uri.\n     * @param _description The collection description.\n     * @param royalties The collection royalties.\n     * @return collectionId_ .\n     */\n    function createCollection(\n        string memory _name,\n        string memory _symbol,\n        string calldata _uri,\n        string memory _description,\n        LibShare.Share[] memory royalties\n    ) public whenNotPaused returns (uint256 collectionId_) {\n        collectionId_ = ++collectionId;\n\n        //Deploy collection Address\n        address collectionAddress = LibCollection.deployCollectionAddress(\n            msg.sender,\n            address(this),\n            _name,\n            _symbol,\n            collectionMethodAddress\n        );\n\n        CollectionMeta memory details = CollectionMeta(\n            _name,\n            _symbol,\n            _uri,\n            collectionAddress,\n            msg.sender,\n            _description\n        );\n\n        collections[collectionId_] = details;\n        addressToCollectionId[collectionAddress] = collectionId_;\n        setRoyaltiesForCollection(collectionId_, royalties);\n\n        emit CollectionCreated(collectionId_, collectionAddress);\n    }\n\n    /**\n     * @notice Sets the collection royalties.\n     * @param _collectionId The id of the collection.\n     * @param royalties The royalties to be set for the collection.\n     */\n    function setRoyaltiesForCollection(\n        uint256 _collectionId,\n        LibShare.Share[] memory royalties\n    ) public whenNotPaused collectionOwner(_collectionId) {\n        require(royalties.length <= 10, \"Atmost 10 royalties can be added\");\n        delete royaltiesForCollection[_collectionId];\n        uint256 sumRoyalties = 0;\n        for (uint256 i = 0; i < royalties.length; i++) {\n            require(\n                royalties[i].account != address(0x0),\n                \"Royalty recipient should be present\"\n            );\n            require(royalties[i].value != 0, \"Royalty value should be > 0\");\n            royaltiesForCollection[_collectionId].push(royalties[i]);\n            sumRoyalties += royalties[i].value;\n        }\n        require(sumRoyalties <= 4900, \"Sum of Royalties > 49%\");\n\n        emit CollectionRoyaltiesSet(_collectionId, royalties);\n    }\n\n    /**\n     * @notice Sets the collection uri.\n     * @param _collectionId The id of the collection.\n     * @param _uri The uri to be set.\n     */\n    function setCollectionURI(\n        uint256 _collectionId,\n        string calldata _uri\n    ) public whenNotPaused collectionOwner(_collectionId) {\n        if (\n            keccak256(abi.encodePacked(_uri)) !=\n            keccak256(abi.encodePacked(collections[_collectionId].URI))\n        ) {\n            collections[_collectionId].URI = _uri;\n\n            emit CollectionURISet(_collectionId, _uri);\n        }\n    }\n\n    /**\n     * @notice Sets the collection name.\n     * @param _collectionId The id of the collection.\n     * @param _name The name to be set.\n     */\n    function setCollectionName(\n        uint256 _collectionId,\n        string memory _name\n    ) public whenNotPaused collectionOwner(_collectionId) {\n        if (\n            keccak256(abi.encodePacked(_name)) !=\n            keccak256(abi.encodePacked(collections[_collectionId].name))\n        ) {\n            collections[_collectionId].name = _name;\n\n            emit CollectionNameSet(_collectionId, _name);\n        }\n    }\n\n    /**\n     * @notice Sets the collection symbol.\n     * @param _collectionId The id of the collection.\n     * @param _symbol The collection symbol to be set.\n     */\n    function setCollectionSymbol(\n        uint256 _collectionId,\n        string memory _symbol\n    ) public whenNotPaused collectionOwner(_collectionId) {\n        if (\n            keccak256(abi.encodePacked(_symbol)) !=\n            keccak256(abi.encodePacked(collections[_collectionId].symbol))\n        ) {\n            collections[_collectionId].symbol = _symbol;\n\n            emit CollectionSymbolSet(_collectionId, _symbol);\n        }\n    }\n\n    /**\n     * @notice Sets the collection description.\n     * @param _collectionId The id of the collection.\n     * @param _description The collection description to be set.\n     */\n    function setCollectionDescription(\n        uint256 _collectionId,\n        string memory _description\n    ) public whenNotPaused collectionOwner(_collectionId) {\n        if (\n            keccak256(abi.encodePacked(_description)) !=\n            keccak256(abi.encodePacked(collections[_collectionId].description))\n        ) {\n            collections[_collectionId].description = _description;\n\n            emit CollectionDescriptionSet(_collectionId, _description);\n        }\n    }\n\n    /**\n     * @notice Fetches the collection royalties.\n     * @dev Returns a LibShare.Share[] array.\n     * @param _collectionId The id of the collection.\n     * @return A LibShare.Share[] struct array of royalties.\n     */\n    function getCollectionRoyalties(\n        uint256 _collectionId\n    ) external view returns (LibShare.Share[] memory) {\n        return royaltiesForCollection[_collectionId];\n    }\n\n    function _authorizeUpgrade(address) internal override onlyOwner {}\n}\n",
  "sourcePath": "/media/dell/17f09f70-0626-4927-a787-2813ab7ed2c0/dell/Pandora/pooolAddress Pandora Git/aconomy-contract/contracts/CollectionFactory.sol",
  "compiler": {
    "name": "solc",
    "version": "0.8.11+commit.d7f03943.Emscripten.clang"
  },
  "schemaVersion": "3.4.10",
  "updatedAt": "2023-09-20T09:28:19.211Z",
  "networkType": "ethereum",
  "devdoc": {
    "kind": "dev",
    "methods": {
      "constructor": {
        "custom:oz-upgrades-unsafe-allow": "constructor"
      },
      "createCollection(string,string,string,string,(address,uint96)[])": {
        "details": "Returned value is type uint256.",
        "params": {
          "_description": "The collection description.",
          "_name": "The name of the collection.",
          "_symbol": "The symbol of the collection.",
          "_uri": "The collection uri.",
          "royalties": "The collection royalties."
        },
        "returns": {
          "collectionId_": "."
        }
      },
      "getCollectionRoyalties(uint256)": {
        "details": "Returns a LibShare.Share[] array.",
        "params": {
          "_collectionId": "The id of the collection."
        },
        "returns": {
          "_0": "A LibShare.Share[] struct array of royalties."
        }
      },
      "owner()": {
        "details": "Returns the address of the current owner."
      },
      "paused()": {
        "details": "Returns true if the contract is paused, and false otherwise."
      },
      "proxiableUUID()": {
        "details": "Implementation of the ERC1822 {proxiableUUID} function. This returns the storage slot used by the implementation. It is used to validate the implementation's compatibility when performing an upgrade. IMPORTANT: A proxy pointing at a proxiable contract should not be considered proxiable itself, because this risks bricking a proxy that upgrades to it, by delegating to itself until out of gas. Thus it is critical that this function revert if invoked through a proxy. This is guaranteed by the `notDelegated` modifier."
      },
      "renounceOwnership()": {
        "details": "Leaves the contract without owner. It will not be possible to call `onlyOwner` functions anymore. Can only be called by the current owner. NOTE: Renouncing ownership will leave the contract without an owner, thereby removing any functionality that is only available to the owner."
      },
      "setCollectionDescription(uint256,string)": {
        "params": {
          "_collectionId": "The id of the collection.",
          "_description": "The collection description to be set."
        }
      },
      "setCollectionName(uint256,string)": {
        "params": {
          "_collectionId": "The id of the collection.",
          "_name": "The name to be set."
        }
      },
      "setCollectionSymbol(uint256,string)": {
        "params": {
          "_collectionId": "The id of the collection.",
          "_symbol": "The collection symbol to be set."
        }
      },
      "setCollectionURI(uint256,string)": {
        "params": {
          "_collectionId": "The id of the collection.",
          "_uri": "The uri to be set."
        }
      },
      "setRoyaltiesForCollection(uint256,(address,uint96)[])": {
        "params": {
          "_collectionId": "The id of the collection.",
          "royalties": "The royalties to be set for the collection."
        }
      },
      "transferOwnership(address)": {
        "details": "Transfers ownership of the contract to a new account (`newOwner`). Can only be called by the current owner."
      },
      "upgradeTo(address)": {
        "details": "Upgrade the implementation of the proxy to `newImplementation`. Calls {_authorizeUpgrade}. Emits an {Upgraded} event."
      },
      "upgradeToAndCall(address,bytes)": {
        "details": "Upgrade the implementation of the proxy to `newImplementation`, and subsequently execute the function call encoded in `data`. Calls {_authorizeUpgrade}. Emits an {Upgraded} event."
      }
    },
    "version": 1
  },
  "userdoc": {
    "kind": "user",
    "methods": {
      "createCollection(string,string,string,string,(address,uint96)[])": {
        "notice": "Creates and deploys a collection and returns the collection Id."
      },
      "getCollectionRoyalties(uint256)": {
        "notice": "Fetches the collection royalties."
      },
      "setCollectionDescription(uint256,string)": {
        "notice": "Sets the collection description."
      },
      "setCollectionName(uint256,string)": {
        "notice": "Sets the collection name."
      },
      "setCollectionSymbol(uint256,string)": {
        "notice": "Sets the collection symbol."
      },
      "setCollectionURI(uint256,string)": {
        "notice": "Sets the collection uri."
      },
      "setRoyaltiesForCollection(uint256,(address,uint96)[])": {
        "notice": "Sets the collection royalties."
      }
    },
    "version": 1
  }
}