{
  "contractName": "FundingPool",
  "abi": [
    {
      "anonymous": false,
      "inputs": [
        {
          "indexed": false,
          "internalType": "address",
          "name": "lender",
          "type": "address"
        },
        {
          "indexed": false,
          "internalType": "address",
          "name": "reciever",
          "type": "address"
        },
        {
          "indexed": false,
          "internalType": "uint256",
          "name": "BidId",
          "type": "uint256"
        },
        {
          "indexed": false,
          "internalType": "uint256",
          "name": "PoolId",
          "type": "uint256"
        },
        {
          "indexed": false,
          "internalType": "uint256",
          "name": "Amount",
          "type": "uint256"
        },
        {
          "indexed": false,
          "internalType": "uint256",
          "name": "paymentCycleAmount",
          "type": "uint256"
        }
      ],
      "name": "BidAccepted",
      "type": "event"
    },
    {
      "anonymous": false,
      "inputs": [
        {
          "indexed": false,
          "internalType": "address",
          "name": "lender",
          "type": "address"
        },
        {
          "indexed": false,
          "internalType": "uint256",
          "name": "BidId",
          "type": "uint256"
        },
        {
          "indexed": false,
          "internalType": "uint256",
          "name": "PoolId",
          "type": "uint256"
        },
        {
          "indexed": false,
          "internalType": "uint256",
          "name": "Amount",
          "type": "uint256"
        }
      ],
      "name": "BidRejected",
      "type": "event"
    },
    {
      "anonymous": false,
      "inputs": [
        {
          "indexed": true,
          "internalType": "uint256",
          "name": "bidId",
          "type": "uint256"
        },
        {
          "indexed": false,
          "internalType": "uint256",
          "name": "PaidAmount",
          "type": "uint256"
        }
      ],
      "name": "BidRepaid",
      "type": "event"
    },
    {
      "anonymous": false,
      "inputs": [
        {
          "indexed": true,
          "internalType": "uint256",
          "name": "bidId",
          "type": "uint256"
        },
        {
          "indexed": false,
          "internalType": "uint256",
          "name": "PaidAmount",
          "type": "uint256"
        }
      ],
      "name": "BidRepayment",
      "type": "event"
    },
    {
      "anonymous": false,
      "inputs": [
        {
          "indexed": false,
          "internalType": "uint256",
          "name": "poolId",
          "type": "uint256"
        },
        {
          "indexed": false,
          "internalType": "uint256",
          "name": "bidId",
          "type": "uint256"
        },
        {
          "indexed": false,
          "internalType": "uint256",
          "name": "Amount",
          "type": "uint256"
        },
        {
          "indexed": false,
          "internalType": "uint256",
          "name": "interest",
          "type": "uint256"
        }
      ],
      "name": "FullAmountRepaid",
      "type": "event"
    },
    {
      "anonymous": false,
      "inputs": [
        {
          "indexed": false,
          "internalType": "uint8",
          "name": "version",
          "type": "uint8"
        }
      ],
      "name": "Initialized",
      "type": "event"
    },
    {
      "anonymous": false,
      "inputs": [
        {
          "indexed": false,
          "internalType": "uint256",
          "name": "poolId",
          "type": "uint256"
        },
        {
          "indexed": false,
          "internalType": "uint256",
          "name": "bidId",
          "type": "uint256"
        },
        {
          "indexed": false,
          "internalType": "uint256",
          "name": "owedAmount",
          "type": "uint256"
        },
        {
          "indexed": false,
          "internalType": "uint256",
          "name": "dueAmount",
          "type": "uint256"
        },
        {
          "indexed": false,
          "internalType": "uint256",
          "name": "interest",
          "type": "uint256"
        }
      ],
      "name": "InstallmentRepaid",
      "type": "event"
    },
    {
      "anonymous": false,
      "inputs": [
        {
          "indexed": true,
          "internalType": "address",
          "name": "lender",
          "type": "address"
        },
        {
          "indexed": true,
          "internalType": "uint256",
          "name": "poolId",
          "type": "uint256"
        },
        {
          "indexed": false,
          "internalType": "uint256",
          "name": "BidId",
          "type": "uint256"
        },
        {
          "indexed": true,
          "internalType": "address",
          "name": "ERC20Token",
          "type": "address"
        },
        {
          "indexed": false,
          "internalType": "uint256",
          "name": "tokenAmount",
          "type": "uint256"
        }
      ],
      "name": "SuppliedToPool",
      "type": "event"
    },
    {
      "anonymous": false,
      "inputs": [
        {
          "indexed": false,
          "internalType": "address",
          "name": "reciever",
          "type": "address"
        },
        {
          "indexed": false,
          "internalType": "uint256",
          "name": "BidId",
          "type": "uint256"
        },
        {
          "indexed": false,
          "internalType": "uint256",
          "name": "PoolId",
          "type": "uint256"
        },
        {
          "indexed": false,
          "internalType": "uint256",
          "name": "Amount",
          "type": "uint256"
        }
      ],
      "name": "Withdrawn",
      "type": "event"
    },
    {
      "inputs": [],
      "name": "bidId",
      "outputs": [
        {
          "internalType": "uint256",
          "name": "",
          "type": "uint256"
        }
      ],
      "stateMutability": "view",
      "type": "function"
    },
    {
      "inputs": [
        {
          "internalType": "address",
          "name": "",
          "type": "address"
        },
        {
          "internalType": "uint256",
          "name": "",
          "type": "uint256"
        },
        {
          "internalType": "address",
          "name": "",
          "type": "address"
        },
        {
          "internalType": "uint256",
          "name": "",
          "type": "uint256"
        }
      ],
      "name": "lenderPoolFundDetails",
      "outputs": [
        {
          "internalType": "uint256",
          "name": "amount",
          "type": "uint256"
        },
        {
          "internalType": "uint256",
          "name": "expiration",
          "type": "uint256"
        },
        {
          "internalType": "uint32",
          "name": "maxDuration",
          "type": "uint32"
        },
        {
          "internalType": "uint16",
          "name": "interestRate",
          "type": "uint16"
        },
        {
          "internalType": "enum FundingPool.BidState",
          "name": "state",
          "type": "uint8"
        },
        {
          "internalType": "uint32",
          "name": "bidTimestamp",
          "type": "uint32"
        },
        {
          "internalType": "uint32",
          "name": "acceptBidTimestamp",
          "type": "uint32"
        },
        {
          "internalType": "uint256",
          "name": "paymentCycleAmount",
          "type": "uint256"
        },
        {
          "internalType": "uint256",
          "name": "totalRepaidPrincipal",
          "type": "uint256"
        },
        {
          "internalType": "uint32",
          "name": "lastRepaidTimestamp",
          "type": "uint32"
        },
        {
          "components": [
            {
              "internalType": "uint256",
              "name": "monthlyCycleInterest",
              "type": "uint256"
            },
            {
              "internalType": "uint32",
              "name": "installments",
              "type": "uint32"
            },
            {
              "internalType": "uint32",
              "name": "installmentsPaid",
              "type": "uint32"
            },
            {
              "internalType": "uint32",
              "name": "defaultDuration",
              "type": "uint32"
            },
            {
              "internalType": "uint16",
              "name": "protocolFee",
              "type": "uint16"
            }
          ],
          "internalType": "struct FundingPool.Installments",
          "name": "installment",
          "type": "tuple"
        },
        {
          "components": [
            {
              "internalType": "uint256",
              "name": "amount",
              "type": "uint256"
            },
            {
              "internalType": "uint256",
              "name": "interest",
              "type": "uint256"
            }
          ],
          "internalType": "struct FundingPool.RePayment",
          "name": "Repaid",
          "type": "tuple"
        }
      ],
      "stateMutability": "view",
      "type": "function"
    },
    {
      "inputs": [],
      "name": "poolOwner",
      "outputs": [
        {
          "internalType": "address",
          "name": "",
          "type": "address"
        }
      ],
      "stateMutability": "view",
      "type": "function"
    },
    {
      "inputs": [],
      "name": "poolRegistryAddress",
      "outputs": [
        {
          "internalType": "address",
          "name": "",
          "type": "address"
        }
      ],
      "stateMutability": "view",
      "type": "function"
    },
    {
      "inputs": [
        {
          "internalType": "address",
          "name": "_poolOwner",
          "type": "address"
        },
        {
          "internalType": "address",
          "name": "_poolRegistry",
          "type": "address"
        }
      ],
      "name": "initialize",
      "outputs": [],
      "stateMutability": "nonpayable",
      "type": "function"
    },
    {
      "inputs": [
        {
          "internalType": "uint256",
          "name": "_poolId",
          "type": "uint256"
        },
        {
          "internalType": "address",
          "name": "_ERC20Address",
          "type": "address"
        },
        {
          "internalType": "uint256",
          "name": "_amount",
          "type": "uint256"
        },
        {
          "internalType": "uint32",
          "name": "_maxLoanDuration",
          "type": "uint32"
        },
        {
          "internalType": "uint256",
          "name": "_expiration",
          "type": "uint256"
        },
        {
          "internalType": "uint16",
          "name": "_APR",
          "type": "uint16"
        }
      ],
      "name": "supplyToPool",
      "outputs": [],
      "stateMutability": "nonpayable",
      "type": "function"
    },
    {
      "inputs": [
        {
          "internalType": "uint256",
          "name": "_poolId",
          "type": "uint256"
        },
        {
          "internalType": "address",
          "name": "_ERC20Address",
          "type": "address"
        },
        {
          "internalType": "uint256",
          "name": "_bidId",
          "type": "uint256"
        },
        {
          "internalType": "address",
          "name": "_lender",
          "type": "address"
        },
        {
          "internalType": "address",
          "name": "_receiver",
          "type": "address"
        }
      ],
      "name": "AcceptBid",
      "outputs": [],
      "stateMutability": "nonpayable",
      "type": "function"
    },
    {
      "inputs": [
        {
          "internalType": "uint256",
          "name": "_poolId",
          "type": "uint256"
        },
        {
          "internalType": "address",
          "name": "_ERC20Address",
          "type": "address"
        },
        {
          "internalType": "uint256",
          "name": "_bidId",
          "type": "uint256"
        },
        {
          "internalType": "address",
          "name": "_lender",
          "type": "address"
        }
      ],
      "name": "RejectBid",
      "outputs": [],
      "stateMutability": "nonpayable",
      "type": "function"
    },
    {
      "inputs": [
        {
          "internalType": "uint256",
          "name": "_poolId",
          "type": "uint256"
        },
        {
          "internalType": "address",
          "name": "_ERC20Address",
          "type": "address"
        },
        {
          "internalType": "uint256",
          "name": "_bidId",
          "type": "uint256"
        },
        {
          "internalType": "address",
          "name": "_lender",
          "type": "address"
        }
      ],
      "name": "isBidExpired",
      "outputs": [
        {
          "internalType": "bool",
          "name": "",
          "type": "bool"
        }
      ],
      "stateMutability": "view",
      "type": "function"
    },
    {
      "inputs": [
        {
          "internalType": "uint256",
          "name": "_poolId",
          "type": "uint256"
        },
        {
          "internalType": "address",
          "name": "_ERC20Address",
          "type": "address"
        },
        {
          "internalType": "uint256",
          "name": "_bidId",
          "type": "uint256"
        },
        {
          "internalType": "address",
          "name": "_lender",
          "type": "address"
        }
      ],
      "name": "isLoanDefaulted",
      "outputs": [
        {
          "internalType": "bool",
          "name": "",
          "type": "bool"
        }
      ],
      "stateMutability": "view",
      "type": "function"
    },
    {
      "inputs": [
        {
          "internalType": "uint256",
          "name": "_poolId",
          "type": "uint256"
        },
        {
          "internalType": "address",
          "name": "_ERC20Address",
          "type": "address"
        },
        {
          "internalType": "uint256",
          "name": "_bidId",
          "type": "uint256"
        },
        {
          "internalType": "address",
          "name": "_lender",
          "type": "address"
        }
      ],
      "name": "isPaymentLate",
      "outputs": [
        {
          "internalType": "bool",
          "name": "",
          "type": "bool"
        }
      ],
      "stateMutability": "view",
      "type": "function"
    },
    {
      "inputs": [
        {
          "internalType": "uint256",
          "name": "_poolId",
          "type": "uint256"
        },
        {
          "internalType": "address",
          "name": "_ERC20Address",
          "type": "address"
        },
        {
          "internalType": "uint256",
          "name": "_bidId",
          "type": "uint256"
        },
        {
          "internalType": "address",
          "name": "_lender",
          "type": "address"
        }
      ],
      "name": "calculateNextDueDate",
      "outputs": [
        {
          "internalType": "uint256",
          "name": "dueDate_",
          "type": "uint256"
        }
      ],
      "stateMutability": "view",
      "type": "function"
    },
    {
      "inputs": [
        {
          "internalType": "uint256",
          "name": "_poolId",
          "type": "uint256"
        },
        {
          "internalType": "address",
          "name": "_ERC20Address",
          "type": "address"
        },
        {
          "internalType": "uint256",
          "name": "_bidId",
          "type": "uint256"
        },
        {
          "internalType": "address",
          "name": "_lender",
          "type": "address"
        }
      ],
      "name": "viewInstallmentAmount",
      "outputs": [
        {
          "internalType": "uint256",
          "name": "",
          "type": "uint256"
        }
      ],
      "stateMutability": "view",
      "type": "function"
    },
    {
      "inputs": [
        {
          "internalType": "uint256",
          "name": "_poolId",
          "type": "uint256"
        },
        {
          "internalType": "address",
          "name": "_ERC20Address",
          "type": "address"
        },
        {
          "internalType": "uint256",
          "name": "_bidId",
          "type": "uint256"
        },
        {
          "internalType": "address",
          "name": "_lender",
          "type": "address"
        }
      ],
      "name": "repayMonthlyInstallment",
      "outputs": [],
      "stateMutability": "nonpayable",
      "type": "function"
    },
    {
      "inputs": [
        {
          "internalType": "uint256",
          "name": "_poolId",
          "type": "uint256"
        },
        {
          "internalType": "address",
          "name": "_ERC20Address",
          "type": "address"
        },
        {
          "internalType": "uint256",
          "name": "_bidId",
          "type": "uint256"
        },
        {
          "internalType": "address",
          "name": "_lender",
          "type": "address"
        }
      ],
      "name": "viewFullRepayAmount",
      "outputs": [
        {
          "internalType": "uint256",
          "name": "",
          "type": "uint256"
        }
      ],
      "stateMutability": "view",
      "type": "function"
    },
    {
      "inputs": [
        {
          "internalType": "uint256",
          "name": "_poolId",
          "type": "uint256"
        },
        {
          "internalType": "address",
          "name": "_ERC20Address",
          "type": "address"
        },
        {
          "internalType": "uint256",
          "name": "_bidId",
          "type": "uint256"
        },
        {
          "internalType": "address",
          "name": "_lender",
          "type": "address"
        }
      ],
      "name": "RepayFullAmount",
      "outputs": [],
      "stateMutability": "nonpayable",
      "type": "function"
    },
    {
      "inputs": [
        {
          "internalType": "uint256",
          "name": "_poolId",
          "type": "uint256"
        },
        {
          "internalType": "address",
          "name": "_ERC20Address",
          "type": "address"
        },
        {
          "internalType": "uint256",
          "name": "_bidId",
          "type": "uint256"
        },
        {
          "internalType": "address",
          "name": "_lender",
          "type": "address"
        }
      ],
      "name": "Withdraw",
      "outputs": [],
      "stateMutability": "nonpayable",
      "type": "function"
    }
  ],
  "bytecode": "0x6080604052600060355534801561001557600080fd5b506156da80620000266000396000f3fe608060405234801561001057600080fd5b506004361061010b5760003560e01c80635645483b116100a25780638e5535d8116100715780638e5535d8146102b45780639080e562146102e4578063b74e67331461031f578063bd0ea7f51461033b578063cf0b22701461036b5761010b565b80635645483b14610240578063598901c61461025c5780635bf503fc1461027a5780638ac47319146102965761010b565b8063465d00b1116100de578063465d00b114610194578063485cc955146101c457806348f37280146101e057806355ddb0c0146102105761010b565b8063055602d41461011057806315c76d0914610140578063297d7cb41461015c5780633a02241b14610178575b600080fd5b61012a60048036038101906101259190613bf3565b610389565b6040516101379190613c75565b60405180910390f35b61015a60048036038101906101559190613bf3565b6104a3565b005b61017660048036038101906101719190613bf3565b6109b7565b005b610192600480360381019061018d9190613bf3565b610cfa565b005b6101ae60048036038101906101a99190613bf3565b6110c6565b6040516101bb9190613c9f565b60405180910390f35b6101de60048036038101906101d99190613cba565b611266565b005b6101fa60048036038101906101f59190613bf3565b611420565b6040516102079190613c9f565b60405180910390f35b61022a60048036038101906102259190613bf3565b6116d6565b6040516102379190613c75565b60405180910390f35b61025a60048036038101906102559190613cfa565b6117ee565b005b610264611e53565b6040516102719190613d84565b60405180910390f35b610294600480360381019061028f9190613e15565b611e79565b005b61029e61284f565b6040516102ab9190613c9f565b60405180910390f35b6102ce60048036038101906102c99190613bf3565b612855565b6040516102db9190613c75565b60405180910390f35b6102fe60048036038101906102f99190613ea2565b6129d9565b6040516103169c9b9a99989796959493929190614062565b60405180910390f35b61033960048036038101906103349190613bf3565b612b7f565b005b61035560048036038101906103509190613bf3565b612e99565b6040516103629190613c9f565b60405180910390f35b61037361311b565b6040516103809190613d84565b60405180910390f35b600080603660008473ffffffffffffffffffffffffffffffffffffffff1673ffffffffffffffffffffffffffffffffffffffff168152602001908152602001600020600087815260200190815260200160002060008673ffffffffffffffffffffffffffffffffffffffff1673ffffffffffffffffffffffffffffffffffffffff16815260200190815260200160002060008581526020019081526020016000209050600060048111156104405761043f613f27565b5b8160020160069054906101000a900460ff16600481111561046457610463613f27565b5b1461047357600091505061049b565b60008160010154141561048a57600091505061049b565b80600101544263ffffffff16119150505b949350505050565b6104ab613141565b3373ffffffffffffffffffffffffffffffffffffffff16603360009054906101000a900473ffffffffffffffffffffffffffffffffffffffff1673ffffffffffffffffffffffffffffffffffffffff161461053b576040517f08c379a000000000000000000000000000000000000000000000000000000000815260040161053290614179565b60405180910390fd5b6000603660008373ffffffffffffffffffffffffffffffffffffffff1673ffffffffffffffffffffffffffffffffffffffff168152602001908152602001600020600086815260200190815260200160002060008573ffffffffffffffffffffffffffffffffffffffff1673ffffffffffffffffffffffffffffffffffffffff16815260200190815260200160002060008481526020019081526020016000209050620f42408160060160010160009054906101000a900463ffffffff1663ffffffff16826000015461060e91906141f7565b101561064f576040517f08c379a000000000000000000000000000000000000000000000000000000000815260040161064690614274565b60405180910390fd5b6001600481111561066357610662613f27565b5b8160020160069054906101000a900460ff16600481111561068757610686613f27565b5b146106c7576040517f08c379a00000000000000000000000000000000000000000000000000000000081526004016106be906142e0565b60405180910390fd5b8060060160010160009054906101000a900463ffffffff1663ffffffff1660018260060160010160049054906101000a900463ffffffff166107099190614300565b63ffffffff16111561071a57600080fd5b61072685858585611420565b421161073157600080fd5b6000603460009054906101000a900473ffffffffffffffffffffffffffffffffffffffff1673ffffffffffffffffffffffffffffffffffffffff1663805deb53876040518263ffffffff1660e01b815260040161078e9190613c9f565b602060405180830381865afa1580156107ab573d6000803e3d6000fd5b505050506040513d601f19601f820116820180604052508101906107cf919061434f565b90508160060160010160009054906101000a900463ffffffff1663ffffffff1660018360060160010160049054906101000a900463ffffffff166108139190614300565b63ffffffff1614156108305761082b86868686613191565b6109a7565b60008260060160000154905060008360030154905060008282610853919061437c565b90506000806108d8876000015488600801600001548960020160049054906101000a900461ffff168a600301548a63ffffffff168c60050160009054906101000a900463ffffffff16428e600201600b9054906101000a900463ffffffff1663ffffffff168f60020160009054906101000a900463ffffffff1663ffffffff166134c4565b925050915086600601600101600481819054906101000a900463ffffffff1680929190610904906143b0565b91906101000a81548163ffffffff021916908363ffffffff1602179055505061093d8b8b8b8b878a878961093891906143dd565b6134f5565b858760060160010160049054906101000a900463ffffffff166109609190614433565b87600201600b9054906101000a900463ffffffff1661097f9190614300565b8760050160006101000a81548163ffffffff021916908363ffffffff16021790555050505050505b50506109b161377d565b50505050565b6109bf613141565b3373ffffffffffffffffffffffffffffffffffffffff16603360009054906101000a900473ffffffffffffffffffffffffffffffffffffffff1673ffffffffffffffffffffffffffffffffffffffff1614610a4f576040517f08c379a0000000000000000000000000000000000000000000000000000000008152600401610a4690614179565b60405180910390fd5b6000603660008373ffffffffffffffffffffffffffffffffffffffff1673ffffffffffffffffffffffffffffffffffffffff168152602001908152602001600020600086815260200190815260200160002060008573ffffffffffffffffffffffffffffffffffffffff1673ffffffffffffffffffffffffffffffffffffffff1681526020019081526020016000206000848152602001908152602001600020905060016004811115610b0557610b04613f27565b5b8160020160069054906101000a900460ff166004811115610b2957610b28613f27565b5b14610b69576040517f08c379a0000000000000000000000000000000000000000000000000000000008152600401610b60906144bd565b60405180910390fd5b6000603460009054906101000a900473ffffffffffffffffffffffffffffffffffffffff1673ffffffffffffffffffffffffffffffffffffffff1663805deb53876040518263ffffffff1660e01b8152600401610bc69190613c9f565b602060405180830381865afa158015610be3573d6000803e3d6000fd5b505050506040513d601f19601f82011682018060405250810190610c07919061434f565b9050600080610c8c846000015485600801600001548660020160049054906101000a900461ffff1687600301548763ffffffff168960050160009054906101000a900463ffffffff16428b600201600b9054906101000a900463ffffffff1663ffffffff168c60020160009054906101000a900463ffffffff1663ffffffff166134c4565b9250509150610cab8888888886868789610ca691906143dd565b6134f5565b7ff5a9ec8b3fd0f8ce05cf49ad0c5e37890b60cf5397c95f2d330dce6300f2cfed88878484604051610ce094939291906144dd565b60405180910390a150505050610cf461377d565b50505050565b610d02613141565b3373ffffffffffffffffffffffffffffffffffffffff16603360009054906101000a900473ffffffffffffffffffffffffffffffffffffffff1673ffffffffffffffffffffffffffffffffffffffff1614610d92576040517f08c379a0000000000000000000000000000000000000000000000000000000008152600401610d8990614179565b60405180910390fd5b603460009054906101000a900473ffffffffffffffffffffffffffffffffffffffff1673ffffffffffffffffffffffffffffffffffffffff1663a8380df1856040518263ffffffff1660e01b8152600401610ded9190613c9f565b602060405180830381865afa158015610e0a573d6000803e3d6000fd5b505050506040513d601f19601f82011682018060405250810190610e2e919061454e565b15610e6e576040517f08c379a0000000000000000000000000000000000000000000000000000000008152600401610e65906145c7565b60405180910390fd5b6000603660008373ffffffffffffffffffffffffffffffffffffffff1673ffffffffffffffffffffffffffffffffffffffff168152602001908152602001600020600086815260200190815260200160002060008573ffffffffffffffffffffffffffffffffffffffff1673ffffffffffffffffffffffffffffffffffffffff1681526020019081526020016000206000848152602001908152602001600020905060006004811115610f2457610f23613f27565b5b8160020160069054906101000a900460ff166004811115610f4857610f47613f27565b5b14610f88576040517f08c379a0000000000000000000000000000000000000000000000000000000008152600401610f7f90614633565b60405180910390fd5b60048160020160066101000a81548160ff02191690836004811115610fb057610faf613f27565b5b02179055508373ffffffffffffffffffffffffffffffffffffffff1663a9059cbb8383600001546040518363ffffffff1660e01b8152600401610ff4929190614653565b6020604051808303816000875af1158015611013573d6000803e3d6000fd5b505050506040513d601f19601f82011682018060405250810190611037919061454e565b611076576040517f08c379a000000000000000000000000000000000000000000000000000000000815260040161106d906146c8565b60405180910390fd5b7f1fbcf669b8dea19d2455104720bd43634fd37e6ef749b42758f5653c8bad743582848784600001546040516110af94939291906146e8565b60405180910390a1506110c061377d565b50505050565b600080603660008473ffffffffffffffffffffffffffffffffffffffff1673ffffffffffffffffffffffffffffffffffffffff168152602001908152602001600020600087815260200190815260200160002060008673ffffffffffffffffffffffffffffffffffffffff1673ffffffffffffffffffffffffffffffffffffffff1681526020019081526020016000206000858152602001908152602001600020905060008160050160009054906101000a900463ffffffff16905060006111ae83600201600b9054906101000a900463ffffffff1663ffffffff168363ffffffff16613786565b905060006111d684600201600b9054906101000a900463ffffffff1663ffffffff1642613786565b90508360060160010160009054906101000a900463ffffffff1663ffffffff1660018560060160010160049054906101000a900463ffffffff1661121a9190614300565b63ffffffff16141561123d5761123289898989612e99565b94505050505061125e565b8181111561125557836003015494505050505061125e565b60009450505050505b949350505050565b60008060019054906101000a900460ff161590508080156112975750600160008054906101000a900460ff1660ff16105b806112c457506112a630613819565b1580156112c35750600160008054906101000a900460ff1660ff16145b5b611303576040517f08c379a00000000000000000000000000000000000000000000000000000000081526004016112fa9061479f565b60405180910390fd5b60016000806101000a81548160ff021916908360ff1602179055508015611340576001600060016101000a81548160ff0219169083151502179055505b82603360006101000a81548173ffffffffffffffffffffffffffffffffffffffff021916908373ffffffffffffffffffffffffffffffffffffffff16021790555081603460006101000a81548173ffffffffffffffffffffffffffffffffffffffff021916908373ffffffffffffffffffffffffffffffffffffffff160217905550801561141b5760008060016101000a81548160ff0219169083151502179055507f7f26b83ff96e1f2b6a682f133852f6798a09c465da95921460cefb384740249860016040516114129190614811565b60405180910390a15b505050565b600080603660008473ffffffffffffffffffffffffffffffffffffffff1673ffffffffffffffffffffffffffffffffffffffff168152602001908152602001600020600087815260200190815260200160002060008673ffffffffffffffffffffffffffffffffffffffff1673ffffffffffffffffffffffffffffffffffffffff16815260200190815260200160002060008581526020019081526020016000209050600160048111156114d7576114d6613f27565b5b8160020160069054906101000a900460ff1660048111156114fb576114fa613f27565b5b1461150657506116ce565b6000603460009054906101000a900473ffffffffffffffffffffffffffffffffffffffff1673ffffffffffffffffffffffffffffffffffffffff1663805deb53886040518263ffffffff1660e01b81526004016115639190613c9f565b602060405180830381865afa158015611580573d6000803e3d6000fd5b505050506040513d601f19601f820116820180604052508101906115a4919061434f565b63ffffffff1690508082600201600b9054906101000a900463ffffffff1663ffffffff166115d291906143dd565b9250600082600201600b9054906101000a900463ffffffff168360050160009054906101000a900463ffffffff1661160a919061482c565b905060008163ffffffff16111561164c576000828263ffffffff1661162f91906141f7565b9050828161163d9190614860565b8561164891906143dd565b9450505b8260020160009054906101000a900463ffffffff1683600201600b9054906101000a900463ffffffff166116809190614300565b63ffffffff168411156116ca578260020160009054906101000a900463ffffffff1683600201600b9054906101000a900463ffffffff166116c19190614300565b63ffffffff1693505b5050505b949350505050565b600080603660008473ffffffffffffffffffffffffffffffffffffffff1673ffffffffffffffffffffffffffffffffffffffff168152602001908152602001600020600087815260200190815260200160002060008673ffffffffffffffffffffffffffffffffffffffff1673ffffffffffffffffffffffffffffffffffffffff168152602001908152602001600020600085815260200190815260200160002090506001600481111561178d5761178c613f27565b5b8160020160069054906101000a900460ff1660048111156117b1576117b0613f27565b5b146117c05760009150506117e6565b62093a806117d087878787611420565b6117da91906143dd565b4263ffffffff16119150505b949350505050565b6117f6613141565b3373ffffffffffffffffffffffffffffffffffffffff16603360009054906101000a900473ffffffffffffffffffffffffffffffffffffffff1673ffffffffffffffffffffffffffffffffffffffff1614611886576040517f08c379a000000000000000000000000000000000000000000000000000000000815260040161187d90614179565b60405180910390fd5b603460009054906101000a900473ffffffffffffffffffffffffffffffffffffffff1673ffffffffffffffffffffffffffffffffffffffff1663a8380df1866040518263ffffffff1660e01b81526004016118e19190613c9f565b602060405180830381865afa1580156118fe573d6000803e3d6000fd5b505050506040513d601f19601f82011682018060405250810190611922919061454e565b15611962576040517f08c379a0000000000000000000000000000000000000000000000000000000008152600401611959906145c7565b60405180910390fd5b6000603660008473ffffffffffffffffffffffffffffffffffffffff1673ffffffffffffffffffffffffffffffffffffffff168152602001908152602001600020600087815260200190815260200160002060008673ffffffffffffffffffffffffffffffffffffffff1673ffffffffffffffffffffffffffffffffffffffff1681526020019081526020016000206000858152602001908152602001600020905060006004811115611a1857611a17613f27565b5b8160020160069054906101000a900460ff166004811115611a3c57611a3b613f27565b5b14611a7c576040517f08c379a0000000000000000000000000000000000000000000000000000000008152600401611a7390614633565b60405180910390fd5b4263ffffffff1681600101541015611ac9576040517f08c379a0000000000000000000000000000000000000000000000000000000008152600401611ac090614906565b60405180910390fd5b4281600201600b6101000a81548163ffffffff021916908363ffffffff160217905550428160050160006101000a81548163ffffffff021916908363ffffffff16021790555060008160000154905060018260020160066101000a81548160ff02191690836004811115611b4057611b3f613f27565b5b02179055506000603460009054906101000a900473ffffffffffffffffffffffffffffffffffffffff1673ffffffffffffffffffffffffffffffffffffffff1663fa9fe9166040518163ffffffff1660e01b8152600401602060405180830381865afa158015611bb4573d6000803e3d6000fd5b505050506040513d601f19601f82011682018060405250810190611bd8919061493b565b9050600073__LibCalculations_______________________633fb340038486600601600101600c9054906101000a900461ffff166040518363ffffffff1660e01b8152600401611c2a929190614986565b602060405180830381865af4158015611c47573d6000803e3d6000fd5b505050506040513d601f19601f82011682018060405250810190611c6b91906149c4565b90508773ffffffffffffffffffffffffffffffffffffffff1663a9059cbb868386611c96919061437c565b6040518363ffffffff1660e01b8152600401611cb3929190614653565b6020604051808303816000875af1158015611cd2573d6000803e3d6000fd5b505050506040513d601f19601f82011682018060405250810190611cf6919061454e565b611d35576040517f08c379a0000000000000000000000000000000000000000000000000000000008152600401611d2c906146c8565b60405180910390fd5b60008114611dfb578773ffffffffffffffffffffffffffffffffffffffff1663a9059cbb83836040518363ffffffff1660e01b8152600401611d78929190614653565b6020604051808303816000875af1158015611d97573d6000803e3d6000fd5b505050506040513d601f19601f82011682018060405250810190611dbb919061454e565b611dfa576040517f08c379a0000000000000000000000000000000000000000000000000000000008152600401611df190614a63565b60405180910390fd5b5b7f63ab63b6dade522b278971b21a2e05cf82c74fd32a9d8ceab8ada745d636fce08686898c878960030154604051611e3896959493929190614a83565b60405180910390a150505050611e4c61377d565b5050505050565b603460009054906101000a900473ffffffffffffffffffffffffffffffffffffffff1681565b611e81613141565b603460009054906101000a900473ffffffffffffffffffffffffffffffffffffffff1673ffffffffffffffffffffffffffffffffffffffff1663a8380df1876040518263ffffffff1660e01b8152600401611edc9190613c9f565b602060405180830381865afa158015611ef9573d6000803e3d6000fd5b505050506040513d601f19601f82011682018060405250810190611f1d919061454e565b15611f5d576040517f08c379a0000000000000000000000000000000000000000000000000000000008152600401611f54906145c7565b60405180910390fd5b6000603460009054906101000a900473ffffffffffffffffffffffffffffffffffffffff1673ffffffffffffffffffffffffffffffffffffffff1663da5de1a288336040518363ffffffff1660e01b8152600401611fbc929190614ae4565b6040805180830381865afa158015611fd8573d6000803e3d6000fd5b505050506040513d601f19601f82011682018060405250810190611ffc9190614b43565b5090508061203f576040517f08c379a000000000000000000000000000000000000000000000000000000000815260040161203690614bcf565b60405180910390fd5b600073ffffffffffffffffffffffffffffffffffffffff168673ffffffffffffffffffffffffffffffffffffffff1614156120af576040517f08c379a00000000000000000000000000000000000000000000000000000000081526004016120a690614c61565b60405180910390fd5b600062278d00856120c09190614c81565b63ffffffff16146120d057600080fd5b60648261ffff161015612118576040517f08c379a000000000000000000000000000000000000000000000000000000000815260040161210f90614cfe565b60405180910390fd5b620f424085101561215e576040517f08c379a000000000000000000000000000000000000000000000000000000000815260040161215590614d6a565b60405180910390fd5b6000603460009054906101000a900473ffffffffffffffffffffffffffffffffffffffff1673ffffffffffffffffffffffffffffffffffffffff1663911347156040518163ffffffff1660e01b8152600401602060405180830381865afa1580156121cd573d6000803e3d6000fd5b505050506040513d601f19601f820116820180604052508101906121f19190614d9f565b90504263ffffffff16841161223b576040517f08c379a000000000000000000000000000000000000000000000000000000000815260040161223290614e18565b60405180910390fd5b600060355490506000603660003373ffffffffffffffffffffffffffffffffffffffff1673ffffffffffffffffffffffffffffffffffffffff16815260200190815260200160002060008b815260200190815260200160002060008a73ffffffffffffffffffffffffffffffffffffffff1673ffffffffffffffffffffffffffffffffffffffff16815260200190815260200160002060008381526020019081526020016000209050878160000181905550858160010181905550868160020160006101000a81548163ffffffff021916908363ffffffff160217905550848160020160046101000a81548161ffff021916908361ffff160217905550428160020160076101000a81548163ffffffff021916908363ffffffff16021790555060008160020160066101000a81548160ff0219169083600481111561238357612382613f27565b5b021790555062278d00876123979190614e38565b8160060160010160006101000a81548163ffffffff021916908363ffffffff16021790555060008160060160010160046101000a81548163ffffffff021916908363ffffffff1602179055508281600601600101600c6101000a81548161ffff021916908361ffff1602179055506000603460009054906101000a900473ffffffffffffffffffffffffffffffffffffffff1673ffffffffffffffffffffffffffffffffffffffff1663805deb538c6040518263ffffffff1660e01b81526004016124629190613c9f565b602060405180830381865afa15801561247f573d6000803e3d6000fd5b505050506040513d601f19601f820116820180604052508101906124a3919061434f565b905073__LibCalculations_______________________632872a8878a8460020160009054906101000a900463ffffffff16848660020160049054906101000a900461ffff166040518563ffffffff1660e01b81526004016125089493929190614e78565b602060405180830381865af4158015612525573d6000803e3d6000fd5b505050506040513d601f19601f8201168201806040525081019061254991906149c4565b826003018190555060008260060160010160009054906101000a900463ffffffff1663ffffffff168a61257c91906141f7565b905080836003015461258e919061437c565b8360060160000181905550603460009054906101000a900473ffffffffffffffffffffffffffffffffffffffff1673ffffffffffffffffffffffffffffffffffffffff166311bed5bb8d6040518263ffffffff1660e01b81526004016125f49190613c9f565b602060405180830381865afa158015612611573d6000803e3d6000fd5b505050506040513d601f19601f82011682018060405250810190612635919061434f565b8360060160010160086101000a81548163ffffffff021916908363ffffffff1602179055506000603460009054906101000a900473ffffffffffffffffffffffffffffffffffffffff1673ffffffffffffffffffffffffffffffffffffffff1662a5ae218e6040518263ffffffff1660e01b81526004016126b69190613c9f565b602060405180830381865afa1580156126d3573d6000803e3d6000fd5b505050506040513d601f19601f820116820180604052508101906126f7919061493b565b90506035600081548092919061270c90614ebd565b91905055508b73ffffffffffffffffffffffffffffffffffffffff166323b872dd33838e6040518463ffffffff1660e01b815260040161274e93929190614f06565b6020604051808303816000875af115801561276d573d6000803e3d6000fd5b505050506040513d601f19601f82011682018060405250810190612791919061454e565b6127d0576040517f08c379a00000000000000000000000000000000000000000000000000000000081526004016127c790614f89565b60405180910390fd5b8b73ffffffffffffffffffffffffffffffffffffffff168d3373ffffffffffffffffffffffffffffffffffffffff167fca1a65c6e44368f649482154a26df2e509bcade5831a095555a4272599b5afc5888f604051612830929190614fa9565b60405180910390a45050505050505061284761377d565b505050505050565b60355481565b600080603660008473ffffffffffffffffffffffffffffffffffffffff1673ffffffffffffffffffffffffffffffffffffffff168152602001908152602001600020600087815260200190815260200160002060008673ffffffffffffffffffffffffffffffffffffffff1673ffffffffffffffffffffffffffffffffffffffff168152602001908152602001600020600085815260200190815260200160002090506001600481111561290c5761290b613f27565b5b8160020160069054906101000a900460ff1660048111156129305761292f613f27565b5b1461293f5760009150506129d1565b60008160060160010160089054906101000a900463ffffffff1663ffffffff16141561296f5760009150506129d1565b8060060160010160089054906101000a900463ffffffff1660030b8160020160009054906101000a900463ffffffff1682600201600b9054906101000a900463ffffffff166129be9190614300565b426129c99190614fdf565b60030b139150505b949350505050565b60366020528360005260406000206020528260005260406000206020528160005260406000206020528060005260406000206000935093505050508060000154908060010154908060020160009054906101000a900463ffffffff16908060020160049054906101000a900461ffff16908060020160069054906101000a900460ff16908060020160079054906101000a900463ffffffff169080600201600b9054906101000a900463ffffffff16908060030154908060040154908060050160009054906101000a900463ffffffff1690806006016040518060a0016040529081600082015481526020016001820160009054906101000a900463ffffffff1663ffffffff1663ffffffff1681526020016001820160049054906101000a900463ffffffff1663ffffffff1663ffffffff1681526020016001820160089054906101000a900463ffffffff1663ffffffff1663ffffffff16815260200160018201600c9054906101000a900461ffff1661ffff1661ffff168152505090806008016040518060400160405290816000820154815260200160018201548152505090508c565b612b87613141565b6000603660008373ffffffffffffffffffffffffffffffffffffffff1673ffffffffffffffffffffffffffffffffffffffff168152602001908152602001600020600086815260200190815260200160002060008573ffffffffffffffffffffffffffffffffffffffff1673ffffffffffffffffffffffffffffffffffffffff1681526020019081526020016000206000848152602001908152602001600020905060006004811115612c3d57612c3c613f27565b5b8160020160069054906101000a900460ff166004811115612c6157612c60613f27565b5b14612ca1576040517f08c379a0000000000000000000000000000000000000000000000000000000008152600401612c9890614633565b60405180910390fd5b3373ffffffffffffffffffffffffffffffffffffffff168273ffffffffffffffffffffffffffffffffffffffff1614612d0f576040517f08c379a0000000000000000000000000000000000000000000000000000000008152600401612d06906150a3565b60405180910390fd5b4263ffffffff16816001015410612d5b576040517f08c379a0000000000000000000000000000000000000000000000000000000008152600401612d529061510f565b60405180910390fd5b60038160020160066101000a81548160ff02191690836004811115612d8357612d82613f27565b5b02179055508373ffffffffffffffffffffffffffffffffffffffff1663a9059cbb8383600001546040518363ffffffff1660e01b8152600401612dc7929190614653565b6020604051808303816000875af1158015612de6573d6000803e3d6000fd5b505050506040513d601f19601f82011682018060405250810190612e0a919061454e565b612e49576040517f08c379a0000000000000000000000000000000000000000000000000000000008152600401612e409061517b565b60405180910390fd5b7f75e161b3e824b114fc1a33274bd7091918dd4e639cede50b78b15a4eea956a218284878460000154604051612e8294939291906146e8565b60405180910390a150612e9361377d565b50505050565b600080603660008473ffffffffffffffffffffffffffffffffffffffff1673ffffffffffffffffffffffffffffffffffffffff168152602001908152602001600020600087815260200190815260200160002060008673ffffffffffffffffffffffffffffffffffffffff1673ffffffffffffffffffffffffffffffffffffffff1681526020019081526020016000206000858152602001908152602001600020905060016004811115612f5057612f4f613f27565b5b8160020160069054906101000a900460ff166004811115612f7457612f73613f27565b5b141580612fb6575060026004811115612f9057612f8f613f27565b5b8160020160069054906101000a900460ff166004811115612fb457612fb3613f27565b5b145b15612fc5576000915050613113565b6000603460009054906101000a900473ffffffffffffffffffffffffffffffffffffffff1673ffffffffffffffffffffffffffffffffffffffff1663805deb53886040518263ffffffff1660e01b81526004016130229190613c9f565b602060405180830381865afa15801561303f573d6000803e3d6000fd5b505050506040513d601f19601f82011682018060405250810190613063919061434f565b90506000806130f5846000015485600801600001548660020160049054906101000a900461ffff1687600301548763ffffffff168960050160009054906101000a900463ffffffff16610258426130ba91906143dd565b8b600201600b9054906101000a900463ffffffff1663ffffffff168c60020160009054906101000a900463ffffffff1663ffffffff166134c4565b92505091506000818361310891906143dd565b905080955050505050505b949350505050565b603360009054906101000a900473ffffffffffffffffffffffffffffffffffffffff1681565b60026001541415613187576040517f08c379a000000000000000000000000000000000000000000000000000000000815260040161317e906151e7565b60405180910390fd5b6002600181905550565b3373ffffffffffffffffffffffffffffffffffffffff16603360009054906101000a900473ffffffffffffffffffffffffffffffffffffffff1673ffffffffffffffffffffffffffffffffffffffff1614613221576040517f08c379a000000000000000000000000000000000000000000000000000000000815260040161321890614179565b60405180910390fd5b6000603660008373ffffffffffffffffffffffffffffffffffffffff1673ffffffffffffffffffffffffffffffffffffffff168152602001908152602001600020600086815260200190815260200160002060008573ffffffffffffffffffffffffffffffffffffffff1673ffffffffffffffffffffffffffffffffffffffff16815260200190815260200160002060008481526020019081526020016000209050600160048111156132d7576132d6613f27565b5b8160020160069054906101000a900460ff1660048111156132fb576132fa613f27565b5b1461333b576040517f08c379a0000000000000000000000000000000000000000000000000000000008152600401613332906144bd565b60405180910390fd5b6000603460009054906101000a900473ffffffffffffffffffffffffffffffffffffffff1673ffffffffffffffffffffffffffffffffffffffff1663805deb53876040518263ffffffff1660e01b81526004016133989190613c9f565b602060405180830381865afa1580156133b5573d6000803e3d6000fd5b505050506040513d601f19601f820116820180604052508101906133d9919061434f565b905060008061345e846000015485600801600001548660020160049054906101000a900461ffff1687600301548763ffffffff168960050160009054906101000a900463ffffffff16428b600201600b9054906101000a900463ffffffff1663ffffffff168c60020160009054906101000a900463ffffffff1663ffffffff166134c4565b925050915061347d888888888686878961347891906143dd565b6134f5565b7ff5a9ec8b3fd0f8ce05cf49ad0c5e37890b60cf5397c95f2d330dce6300f2cfed888784846040516134b294939291906144dd565b60405180910390a15050505050505050565b60008060006134e08c8c8c8c8c8c63ffffffff168c8c8c61383c565b92509250925099509950999650505050505050565b6000603660008673ffffffffffffffffffffffffffffffffffffffff1673ffffffffffffffffffffffffffffffffffffffff168152602001908152602001600020600089815260200190815260200160002060008873ffffffffffffffffffffffffffffffffffffffff1673ffffffffffffffffffffffffffffffffffffffff16815260200190815260200160002060008781526020019081526020016000209050600083856135a591906143dd565b905082811061361b5782905060028260020160066101000a81548160ff021916908360048111156135d9576135d8613f27565b5b0217905550867f044e4ffaa963a008234a0fb6594c50a05f7b446bfe5b006fc943d89a21a9d3cc8260405161360e9190613c9f565b60405180910390a2613654565b867f5cbcbe20d8ea4a0298a26fcffbb0f0b5ad3b5d8544bf621810bea582e40b539d8260405161364b9190613c9f565b60405180910390a25b8482600801600001600082825461366b91906143dd565b925050819055508382600801600101600082825461368991906143dd565b92505081905550428260050160006101000a81548163ffffffff021916908363ffffffff1602179055508773ffffffffffffffffffffffffffffffffffffffff166323b872dd3388846040518463ffffffff1660e01b81526004016136f093929190614f06565b6020604051808303816000875af115801561370f573d6000803e3d6000fd5b505050506040513d601f19601f82011682018060405250810190613733919061454e565b613772576040517f08c379a000000000000000000000000000000000000000000000000000000000815260040161376990615253565b60405180910390fd5b505050505050505050565b60018081905550565b60008183111561379557600080fd5b6000806137af62015180866137aa91906141f7565b61393c565b50915091506000806137ce62015180876137c991906141f7565b61393c565b509150915082600c856137e19190614860565b82600c856137ef9190614860565b6137f991906143dd565b613803919061437c565b61380d919061437c565b94505050505092915050565b6000808273ffffffffffffffffffffffffffffffffffffffff163b119050919050565b60008060008a8c61384d919061437c565b9250600061385b848c613adb565b90506000888861386b919061437c565b90506000610e108261387d91906141f7565b905060006121c090508082856138939190614860565b61389d91906141f7565b94506000898b6138ad919061527d565b896138b8919061527d565b905060008d8212806138d557508e878a6138d291906143dd565b11155b90506000816138e4578f6138f1565b878a6138f091906143dd565b5b905060008f87836139029190614860565b61390c91906141f7565b9050613923898261391d919061437c565b8c613af5565b9950505050505050505099509950999650505050505050565b600080600080849050600062253d8c62010bd98361395a9190615311565b6139649190615311565b9050600062023ab182600461397991906153a5565b61398391906154bc565b9050600460038262023ab161399891906153a5565b6139a29190615311565b6139ac91906154bc565b826139b7919061527d565b9150600062164b096001846139cc9190615311565b610fa06139d991906153a5565b6139e391906154bc565b9050601f6004826105b56139f791906153a5565b613a0191906154bc565b84613a0c919061527d565b613a169190615311565b9250600061098f846050613a2a91906153a5565b613a3491906154bc565b9050600060508261098f613a4891906153a5565b613a5291906154bc565b85613a5d919061527d565b9050600b82613a6c91906154bc565b945084600c613a7b91906153a5565b600283613a889190615311565b613a92919061527d565b91508483603186613aa3919061527d565b6064613aaf91906153a5565b613ab99190615311565b613ac39190615311565b92508298508197508096505050505050509193909250565b6000613aed838361ffff166002613b0e565b905092915050565b6000818310613b045781613b06565b825b905092915050565b6000613b1982613b38565b8385613b259190614860565b613b2f91906141f7565b90509392505050565b600081600a613b479190615659565b6064613b539190614860565b9050919050565b600080fd5b6000819050919050565b613b7281613b5f565b8114613b7d57600080fd5b50565b600081359050613b8f81613b69565b92915050565b600073ffffffffffffffffffffffffffffffffffffffff82169050919050565b6000613bc082613b95565b9050919050565b613bd081613bb5565b8114613bdb57600080fd5b50565b600081359050613bed81613bc7565b92915050565b60008060008060808587031215613c0d57613c0c613b5a565b5b6000613c1b87828801613b80565b9450506020613c2c87828801613bde565b9350506040613c3d87828801613b80565b9250506060613c4e87828801613bde565b91505092959194509250565b60008115159050919050565b613c6f81613c5a565b82525050565b6000602082019050613c8a6000830184613c66565b92915050565b613c9981613b5f565b82525050565b6000602082019050613cb46000830184613c90565b92915050565b60008060408385031215613cd157613cd0613b5a565b5b6000613cdf85828601613bde565b9250506020613cf085828601613bde565b9150509250929050565b600080600080600060a08688031215613d1657613d15613b5a565b5b6000613d2488828901613b80565b9550506020613d3588828901613bde565b9450506040613d4688828901613b80565b9350506060613d5788828901613bde565b9250506080613d6888828901613bde565b9150509295509295909350565b613d7e81613bb5565b82525050565b6000602082019050613d996000830184613d75565b92915050565b600063ffffffff82169050919050565b613db881613d9f565b8114613dc357600080fd5b50565b600081359050613dd581613daf565b92915050565b600061ffff82169050919050565b613df281613ddb565b8114613dfd57600080fd5b50565b600081359050613e0f81613de9565b92915050565b60008060008060008060c08789031215613e3257613e31613b5a565b5b6000613e4089828a01613b80565b9650506020613e5189828a01613bde565b9550506040613e6289828a01613b80565b9450506060613e7389828a01613dc6565b9350506080613e8489828a01613b80565b92505060a0613e9589828a01613e00565b9150509295509295509295565b60008060008060808587031215613ebc57613ebb613b5a565b5b6000613eca87828801613bde565b9450506020613edb87828801613b80565b9350506040613eec87828801613bde565b9250506060613efd87828801613b80565b91505092959194509250565b613f1281613d9f565b82525050565b613f2181613ddb565b82525050565b7f4e487b7100000000000000000000000000000000000000000000000000000000600052602160045260246000fd5b60058110613f6757613f66613f27565b5b50565b6000819050613f7882613f56565b919050565b6000613f8882613f6a565b9050919050565b613f9881613f7d565b82525050565b613fa781613b5f565b82525050565b613fb681613d9f565b82525050565b613fc581613ddb565b82525050565b60a082016000820151613fe16000850182613f9e565b506020820151613ff46020850182613fad565b5060408201516140076040850182613fad565b50606082015161401a6060850182613fad565b50608082015161402d6080850182613fbc565b50505050565b6040820160008201516140496000850182613f9e565b50602082015161405c6020850182613f9e565b50505050565b600061022082019050614078600083018f613c90565b614085602083018e613c90565b614092604083018d613f09565b61409f606083018c613f18565b6140ac608083018b613f8f565b6140b960a083018a613f09565b6140c660c0830189613f09565b6140d360e0830188613c90565b6140e1610100830187613c90565b6140ef610120830186613f09565b6140fd610140830185613fcb565b61410b6101e0830184614033565b9d9c50505050505050505050505050565b600082825260208201905092915050565b7f596f7520617265206e6f742074686520506f6f6c204f776e6572000000000000600082015250565b6000614163601a8361411c565b915061416e8261412d565b602082019050919050565b6000602082019050818103600083015261419281614156565b9050919050565b7f4e487b7100000000000000000000000000000000000000000000000000000000600052601260045260246000fd5b7f4e487b7100000000000000000000000000000000000000000000000000000000600052601160045260246000fd5b600061420282613b5f565b915061420d83613b5f565b92508261421d5761421c614199565b5b828204905092915050565b7f6c6f770000000000000000000000000000000000000000000000000000000000600082015250565b600061425e60038361411c565b915061426982614228565b602082019050919050565b6000602082019050818103600083015261428d81614251565b9050919050565b7f4c6f616e206d7573742062652061636365707465640000000000000000000000600082015250565b60006142ca60158361411c565b91506142d582614294565b602082019050919050565b600060208201905081810360008301526142f9816142bd565b9050919050565b600061430b82613d9f565b915061431683613d9f565b92508263ffffffff0382111561432f5761432e6141c8565b5b828201905092915050565b60008151905061434981613daf565b92915050565b60006020828403121561436557614364613b5a565b5b60006143738482850161433a565b91505092915050565b600061438782613b5f565b915061439283613b5f565b9250828210156143a5576143a46141c8565b5b828203905092915050565b60006143bb82613d9f565b915063ffffffff8214156143d2576143d16141c8565b5b600182019050919050565b60006143e882613b5f565b91506143f383613b5f565b9250827fffffffffffffffffffffffffffffffffffffffffffffffffffffffffffffffff03821115614428576144276141c8565b5b828201905092915050565b600061443e82613d9f565b915061444983613d9f565b92508163ffffffff0483118215151615614466576144656141c8565b5b828202905092915050565b7f426964206d757374206265206163636570746564000000000000000000000000600082015250565b60006144a760148361411c565b91506144b282614471565b602082019050919050565b600060208201905081810360008301526144d68161449a565b9050919050565b60006080820190506144f26000830187613c90565b6144ff6020830186613c90565b61450c6040830185613c90565b6145196060830184613c90565b95945050505050565b61452b81613c5a565b811461453657600080fd5b50565b60008151905061454881614522565b92915050565b60006020828403121561456457614563613b5a565b5b600061457284828501614539565b91505092915050565b7f706f6f6c20636c6f736564000000000000000000000000000000000000000000600082015250565b60006145b1600b8361411c565b91506145bc8261457b565b602082019050919050565b600060208201905081810360008301526145e0816145a4565b9050919050565b7f426964206d7573742062652070656e64696e6700000000000000000000000000600082015250565b600061461d60138361411c565b9150614628826145e7565b602082019050919050565b6000602082019050818103600083015261464c81614610565b9050919050565b60006040820190506146686000830185613d75565b6146756020830184613c90565b9392505050565b7f756e61626c6520746f207472616e7366657220746f2072656365697665720000600082015250565b60006146b2601e8361411c565b91506146bd8261467c565b602082019050919050565b600060208201905081810360008301526146e1816146a5565b9050919050565b60006080820190506146fd6000830187613d75565b61470a6020830186613c90565b6147176040830185613c90565b6147246060830184613c90565b95945050505050565b7f496e697469616c697a61626c653a20636f6e747261637420697320616c72656160008201527f647920696e697469616c697a6564000000000000000000000000000000000000602082015250565b6000614789602e8361411c565b91506147948261472d565b604082019050919050565b600060208201905081810360008301526147b88161477c565b9050919050565b6000819050919050565b600060ff82169050919050565b6000819050919050565b60006147fb6147f66147f1846147bf565b6147d6565b6147c9565b9050919050565b61480b816147e0565b82525050565b60006020820190506148266000830184614802565b92915050565b600061483782613d9f565b915061484283613d9f565b925082821015614855576148546141c8565b5b828203905092915050565b600061486b82613b5f565b915061487683613b5f565b9250817fffffffffffffffffffffffffffffffffffffffffffffffffffffffffffffffff04831182151516156148af576148ae6141c8565b5b828202905092915050565b7f6269642065787069726564000000000000000000000000000000000000000000600082015250565b60006148f0600b8361411c565b91506148fb826148ba565b602082019050919050565b6000602082019050818103600083015261491f816148e3565b9050919050565b60008151905061493581613bc7565b92915050565b60006020828403121561495157614950613b5a565b5b600061495f84828501614926565b91505092915050565b61497181613b5f565b82525050565b61498081613ddb565b82525050565b600060408201905061499b6000830185614968565b6149a86020830184614977565b9392505050565b6000815190506149be81613b69565b92915050565b6000602082840312156149da576149d9613b5a565b5b60006149e8848285016149af565b91505092915050565b7f556e61626c6520746f207472616e7366657220746f2041636f6e6f6d794f776e60008201527f6572000000000000000000000000000000000000000000000000000000000000602082015250565b6000614a4d60228361411c565b9150614a58826149f1565b604082019050919050565b60006020820190508181036000830152614a7c81614a40565b9050919050565b600060c082019050614a986000830189613d75565b614aa56020830188613d75565b614ab26040830187613c90565b614abf6060830186613c90565b614acc6080830185613c90565b614ad960a0830184613c90565b979650505050505050565b6000604082019050614af96000830185613c90565b614b066020830184613d75565b9392505050565b6000819050919050565b614b2081614b0d565b8114614b2b57600080fd5b50565b600081519050614b3d81614b17565b92915050565b60008060408385031215614b5a57614b59613b5a565b5b6000614b6885828601614539565b9250506020614b7985828601614b2e565b9150509250929050565b7f4e6f74207665726966696564206c656e64657200000000000000000000000000600082015250565b6000614bb960138361411c565b9150614bc482614b83565b602082019050919050565b60006020820190508181036000830152614be881614bac565b9050919050565b7f796f752063616e277420646f20746869732077697468207a65726f206164647260008201527f6573730000000000000000000000000000000000000000000000000000000000602082015250565b6000614c4b60238361411c565b9150614c5682614bef565b604082019050919050565b60006020820190508181036000830152614c7a81614c3e565b9050919050565b6000614c8c82613d9f565b9150614c9783613d9f565b925082614ca757614ca6614199565b5b828206905092915050565b7f61707220746f6f206c6f77000000000000000000000000000000000000000000600082015250565b6000614ce8600b8361411c565b9150614cf382614cb2565b602082019050919050565b60006020820190508181036000830152614d1781614cdb565b9050919050565b7f616d6f756e7420746f6f206c6f77000000000000000000000000000000000000600082015250565b6000614d54600e8361411c565b9150614d5f82614d1e565b602082019050919050565b60006020820190508181036000830152614d8381614d47565b9050919050565b600081519050614d9981613de9565b92915050565b600060208284031215614db557614db4613b5a565b5b6000614dc384828501614d8a565b91505092915050565b7f77726f6e672074696d657374616d700000000000000000000000000000000000600082015250565b6000614e02600f8361411c565b9150614e0d82614dcc565b602082019050919050565b60006020820190508181036000830152614e3181614df5565b9050919050565b6000614e4382613d9f565b9150614e4e83613d9f565b925082614e5e57614e5d614199565b5b828204905092915050565b614e7281613d9f565b82525050565b6000608082019050614e8d6000830187614968565b614e9a6020830186614e69565b614ea76040830185614e69565b614eb46060830184614977565b95945050505050565b6000614ec882613b5f565b91507fffffffffffffffffffffffffffffffffffffffffffffffffffffffffffffffff821415614efb57614efa6141c8565b5b600182019050919050565b6000606082019050614f1b6000830186613d75565b614f286020830185613d75565b614f356040830184613c90565b949350505050565b7f556e61626c6520746f2074616e7366657220746f20706f6f6c41646472657373600082015250565b6000614f7360208361411c565b9150614f7e82614f3d565b602082019050919050565b60006020820190508181036000830152614fa281614f66565b9050919050565b6000604082019050614fbe6000830185613c90565b614fcb6020830184613c90565b9392505050565b60008160030b9050919050565b6000614fea82614fd2565b9150614ff583614fd2565b9250827fffffffffffffffffffffffffffffffffffffffffffffffffffffffff80000000018212600084121516156150305761502f6141c8565b5b82637fffffff01821360008412161561504c5761504b6141c8565b5b828203905092915050565b7f596f7520617265206e6f742061204c656e646572000000000000000000000000600082015250565b600061508d60148361411c565b915061509882615057565b602082019050919050565b600060208201905081810360008301526150bc81615080565b9050919050565b7f596f752063616e27742057697468647261770000000000000000000000000000600082015250565b60006150f960128361411c565b9150615104826150c3565b602082019050919050565b60006020820190508181036000830152615128816150ec565b9050919050565b7f556e61626c6520746f207472616e7366657220746f206c656e64657200000000600082015250565b6000615165601c8361411c565b91506151708261512f565b602082019050919050565b6000602082019050818103600083015261519481615158565b9050919050565b7f5265656e7472616e637947756172643a207265656e7472616e742063616c6c00600082015250565b60006151d1601f8361411c565b91506151dc8261519b565b602082019050919050565b60006020820190508181036000830152615200816151c4565b9050919050565b7f756e61626c6520746f207472616e7366657220746f206c656e64657200000000600082015250565b600061523d601c8361411c565b915061524882615207565b602082019050919050565b6000602082019050818103600083015261526c81615230565b9050919050565b6000819050919050565b600061528882615273565b915061529383615273565b9250827f8000000000000000000000000000000000000000000000000000000000000000018212600084121516156152ce576152cd6141c8565b5b827f7fffffffffffffffffffffffffffffffffffffffffffffffffffffffffffffff018213600084121615615306576153056141c8565b5b828203905092915050565b600061531c82615273565b915061532783615273565b9250817f7fffffffffffffffffffffffffffffffffffffffffffffffffffffffffffffff03831360008312151615615362576153616141c8565b5b817f800000000000000000000000000000000000000000000000000000000000000003831260008312161561539a576153996141c8565b5b828201905092915050565b60006153b082615273565b91506153bb83615273565b9250827f7fffffffffffffffffffffffffffffffffffffffffffffffffffffffffffffff04821160008413600084131616156153fa576153f96141c8565b5b817f80000000000000000000000000000000000000000000000000000000000000000583126000841260008413161615615437576154366141c8565b5b827f80000000000000000000000000000000000000000000000000000000000000000582126000841360008412161615615474576154736141c8565b5b827f7fffffffffffffffffffffffffffffffffffffffffffffffffffffffffffffff05821260008412600084121616156154b1576154b06141c8565b5b828202905092915050565b60006154c782615273565b91506154d283615273565b9250826154e2576154e1614199565b5b600160000383147f80000000000000000000000000000000000000000000000000000000000000008314161561551b5761551a6141c8565b5b828205905092915050565b60008160011c9050919050565b6000808291508390505b600185111561557d57808604811115615559576155586141c8565b5b60018516156155685780820291505b808102905061557685615526565b945061553d565b94509492505050565b6000826155965760019050615652565b816155a45760009050615652565b81600181146155ba57600281146155c4576155f3565b6001915050615652565b60ff8411156155d6576155d56141c8565b5b8360020a9150848211156155ed576155ec6141c8565b5b50615652565b5060208310610133831016604e8410600b84101617156156285782820a905083811115615623576156226141c8565b5b615652565b6156358484846001615533565b9250905081840481111561564c5761564b6141c8565b5b81810290505b9392505050565b600061566482613b5f565b915061566f83613b5f565b925061569c7fffffffffffffffffffffffffffffffffffffffffffffffffffffffffffffffff8484615586565b90509291505056fea2646970667358221220b3323900d8791fe267756be9ffbcf5c554e2752f06a99fdaf8ac076b6f33877d64736f6c634300080b0033",
  "immutableReferences": {},
  "source": "// SPDX-License-Identifier: MIT\npragma solidity 0.8.11;\n\nimport \"./Libraries/LibPool.sol\";\n\nimport \"@openzeppelin/contracts-upgradeable/proxy/utils/Initializable.sol\";\nimport \"@openzeppelin/contracts/token/ERC20/IERC20.sol\";\nimport \"@openzeppelin/contracts-upgradeable/security/ReentrancyGuardUpgradeable.sol\";\nimport \"./Libraries/LibCalculations.sol\";\nimport \"./poolRegistry.sol\";\nimport {BokkyPooBahsDateTimeLibrary as BPBDTL} from \"./Libraries/DateTimeLib.sol\";\n\ncontract FundingPool is Initializable, ReentrancyGuardUpgradeable {\n    address public poolOwner;\n    address public poolRegistryAddress;\n\n    /**\n     * @notice Initializer function.\n     * @param _poolOwner The pool owner's address.\n     * @param _poolRegistry The address of the poolRegistry contract.\n     */\n    function initialize(\n        address _poolOwner,\n        address _poolRegistry\n    ) external initializer {\n        poolOwner = _poolOwner;\n        poolRegistryAddress = _poolRegistry;\n    }\n\n    uint256 public bidId = 0;\n\n    event BidRepaid(uint256 indexed bidId, uint256 PaidAmount);\n    event BidRepayment(uint256 indexed bidId, uint256 PaidAmount);\n\n    event BidAccepted(\n        address lender,\n        address reciever,\n        uint256 BidId,\n        uint256 PoolId,\n        uint256 Amount,\n        uint256 paymentCycleAmount\n    );\n\n    event BidRejected(\n        address lender,\n        uint256 BidId,\n        uint256 PoolId,\n        uint256 Amount\n    );\n\n    event Withdrawn(\n        address reciever,\n        uint256 BidId,\n        uint256 PoolId,\n        uint256 Amount\n    );\n\n    event SuppliedToPool(\n        address indexed lender,\n        uint256 indexed poolId,\n        uint256 BidId,\n        address indexed ERC20Token,\n        uint256 tokenAmount\n    );\n\n    event InstallmentRepaid(\n        uint256 poolId,\n        uint256 bidId,\n        uint256 owedAmount,\n        uint256 dueAmount,\n        uint256 interest\n    );\n\n    event FullAmountRepaid(\n        uint256 poolId,\n        uint256 bidId,\n        uint256 Amount,\n        uint256 interest\n    );\n\n    /**\n     * @notice Deatils for the installments.\n     * @param monthlyCycleInterest The interest to be paid every cycle.\n     * @param installments The total installments to be paid.\n     * @param installmentsPaid The total installments paid.\n     * @param defaultDuration The duration after which loan is defaulted\n     * @param protocolFee The protocol fee when creating the bid.\n     */\n    struct Installments {\n        uint256 monthlyCycleInterest;\n        uint32 installments;\n        uint32 installmentsPaid;\n        uint32 defaultDuration;\n        uint16 protocolFee;\n    }\n\n    /**\n     * @notice Deatils for a fund supply.\n     * @param amount The amount being funded.\n     * @param expiration The timestamp within which the fund bid should be accepted.\n     * @param maxDuration The bid loan duration.\n     * @param interestRate The interest rate in bps.\n     * @param state The state of the bid.\n     * @param bidTimestamp The timestamp the bid was created.\n     * @param acceptBidTimestamp The timestamp the bid was accepted.\n     * @param paymentCycleAmount The amount to be paid every cycle.\n     * @param totalRepaidPrincipal The total principal repaid.\n     * @param lastRepaidTimestamp The timestamp of the last repayment.\n     * @param installment The installment details.\n     * @param repaid The amount repaid.\n     */\n    struct FundDetail {\n        uint256 amount;\n        uint256 expiration; //After expiration time, if owner dose not accept bid then lender can withdraw the fund\n        uint32 maxDuration; //Bid Duration\n        uint16 interestRate;\n        BidState state;\n        uint32 bidTimestamp;\n        uint32 acceptBidTimestamp;\n        uint256 paymentCycleAmount;\n        uint256 totalRepaidPrincipal;\n        uint32 lastRepaidTimestamp;\n        Installments installment;\n        RePayment Repaid;\n    }\n\n    /**\n     * @notice Deatils for payment.\n     * @param amount The principal amount involved.\n     * @param interest The interest amount involved.\n     */\n    struct RePayment {\n        uint256 amount;\n        uint256 interest;\n    }\n\n    enum BidState {\n        PENDING,\n        ACCEPTED,\n        PAID,\n        WITHDRAWN,\n        REJECTED\n    }\n\n    // Mapping of lender address => poolId => ERC20 token => BidId => FundDetail\n    mapping(address => mapping(uint256 => mapping(address => mapping(uint256 => FundDetail))))\n        public lenderPoolFundDetails;\n\n    /**\n     * @notice Allows a lender to supply funds to the pool owner.\n     * @param _poolId The Id of the pool.\n     * @param _ERC20Address The address of the funds being supplied.\n     * @param _amount The amount of funds being supplied.\n     * @param _maxLoanDuration The duration of the loan after being accepted.\n     * @param _expiration The time stamp within which the loan has to be accepted.\n     * @param _APR The annual interest in bps\n     */\n    function supplyToPool(\n        uint256 _poolId,\n        address _ERC20Address,\n        uint256 _amount,\n        uint32 _maxLoanDuration,\n        uint256 _expiration,\n        uint16 _APR\n    ) external nonReentrant {\n        require(\n            !poolRegistry(poolRegistryAddress).ClosedPool(_poolId),\n            \"pool closed\"\n        );\n        (bool isVerified, ) = poolRegistry(poolRegistryAddress)\n            .lenderVerification(_poolId, msg.sender);\n\n        require(isVerified, \"Not verified lender\");\n\n        require(\n            _ERC20Address != address(0),\n            \"you can't do this with zero address\"\n        );\n\n        require(_maxLoanDuration % 30 days == 0);\n        require(_APR >= 100, \"apr too low\");\n        require(_amount >= 1000000, \"amount too low\");\n\n        uint16 fee = poolRegistry(poolRegistryAddress).getAconomyFee();\n\n        require(_expiration > uint32(block.timestamp), \"wrong timestamp\");\n        uint256 _bidId = bidId;\n        FundDetail storage fundDetail = lenderPoolFundDetails[msg.sender][\n            _poolId\n        ][_ERC20Address][_bidId];\n        fundDetail.amount = _amount;\n        fundDetail.expiration = _expiration;\n        fundDetail.maxDuration = _maxLoanDuration;\n        fundDetail.interestRate = _APR;\n        fundDetail.bidTimestamp = uint32(block.timestamp);\n\n        fundDetail.state = BidState.PENDING;\n        fundDetail.installment.installments = _maxLoanDuration / 30 days;\n        fundDetail.installment.installmentsPaid = 0;\n        fundDetail.installment.protocolFee = fee;\n\n        uint32 paymentCycle = poolRegistry(poolRegistryAddress)\n            .getPaymentCycleDuration(_poolId);\n\n        fundDetail.paymentCycleAmount = LibCalculations.payment(\n            _amount,\n            fundDetail.maxDuration,\n            paymentCycle,\n            fundDetail.interestRate\n        );\n\n        uint256 monthlyPrincipal = _amount /\n            fundDetail.installment.installments;\n\n        fundDetail.installment.monthlyCycleInterest =\n            fundDetail.paymentCycleAmount -\n            monthlyPrincipal;\n\n        fundDetail.installment.defaultDuration = poolRegistry(\n            poolRegistryAddress\n        ).getPaymentDefaultDuration(_poolId);\n\n        address _poolAddress = poolRegistry(poolRegistryAddress).getPoolAddress(\n            _poolId\n        );\n\n        bidId++;\n\n        // Send payment to the Pool\n        require(\n            IERC20(_ERC20Address).transferFrom(\n                msg.sender,\n                _poolAddress,\n                _amount\n            ),\n            \"Unable to tansfer to poolAddress\"\n        );\n\n        emit SuppliedToPool(\n            msg.sender,\n            _poolId,\n            _bidId,\n            _ERC20Address,\n            _amount\n        );\n    }\n\n    /**\n     * @notice Accepts the specified bid to supply to the pool.\n     * @param _poolId The Id of the pool.\n     * @param _ERC20Address The address of the bid funds being accepted.\n     * @param _bidId The Id of the bid.\n     * @param _lender The address of the lender.\n     * @param _receiver The address of the funds receiver.\n     */\n    function AcceptBid(\n        uint256 _poolId,\n        address _ERC20Address,\n        uint256 _bidId,\n        address _lender,\n        address _receiver\n    ) external nonReentrant {\n        require(poolOwner == msg.sender, \"You are not the Pool Owner\");\n        require(\n            !poolRegistry(poolRegistryAddress).ClosedPool(_poolId),\n            \"pool closed\"\n        );\n        FundDetail storage fundDetail = lenderPoolFundDetails[_lender][_poolId][\n            _ERC20Address\n        ][_bidId];\n        if (fundDetail.state != BidState.PENDING) {\n            revert(\"Bid must be pending\");\n        }\n        require(\n            fundDetail.expiration >= uint32(block.timestamp),\n            \"bid expired\"\n        );\n        fundDetail.acceptBidTimestamp = uint32(block.timestamp);\n        fundDetail.lastRepaidTimestamp = uint32(block.timestamp);\n        uint256 amount = fundDetail.amount;\n        fundDetail.state = BidState.ACCEPTED;\n\n        address AconomyOwner = poolRegistry(poolRegistryAddress)\n            .getAconomyOwner();\n\n        //Aconomy Fee\n        uint256 amountToAconomy = LibCalculations.percent(\n            amount,\n            fundDetail.installment.protocolFee\n        );\n\n        // transfering Amount to Owner\n        require(\n            IERC20(_ERC20Address).transfer(_receiver, amount - amountToAconomy),\n            \"unable to transfer to receiver\"\n        );\n\n        // transfering Amount to Protocol Owner\n        if (amountToAconomy != 0) {\n            require(\n                IERC20(_ERC20Address).transfer(AconomyOwner, amountToAconomy),\n                \"Unable to transfer to AconomyOwner\"\n            );\n        }\n\n        emit BidAccepted(\n            _lender,\n            _receiver,\n            _bidId,\n            _poolId,\n            amount,\n            fundDetail.paymentCycleAmount\n        );\n    }\n\n    /**\n     * @notice Rejects the bid to supply to the pool.\n     * @param _poolId The Id of the pool.\n     * @param _ERC20Address The address of the funds contract.\n     * @param _bidId The Id of the bid.\n     * @param _lender The address of the lender.\n     */\n    function RejectBid(\n        uint256 _poolId,\n        address _ERC20Address,\n        uint256 _bidId,\n        address _lender\n    ) external nonReentrant {\n        require(poolOwner == msg.sender, \"You are not the Pool Owner\");\n        require(\n            !poolRegistry(poolRegistryAddress).ClosedPool(_poolId),\n            \"pool closed\"\n        );\n        FundDetail storage fundDetail = lenderPoolFundDetails[_lender][_poolId][\n            _ERC20Address\n        ][_bidId];\n        if (fundDetail.state != BidState.PENDING) {\n            revert(\"Bid must be pending\");\n        }\n        fundDetail.state = BidState.REJECTED;\n        // transfering Amount to Lender\n        require(\n            IERC20(_ERC20Address).transfer(_lender, fundDetail.amount),\n            \"unable to transfer to receiver\"\n        );\n        emit BidRejected(_lender, _bidId, _poolId, fundDetail.amount);\n    }\n\n    /**\n     * @notice Checks if bid has expired.\n     * @param _poolId The Id of the pool.\n     * @param _ERC20Address The address of the funds contract.\n     * @param _bidId The Id of the bid.\n     * @param _lender The address of the lender.\n     */\n    function isBidExpired(\n        uint256 _poolId,\n        address _ERC20Address,\n        uint256 _bidId,\n        address _lender\n    ) public view returns (bool) {\n        FundDetail storage fundDetail = lenderPoolFundDetails[_lender][_poolId][\n            _ERC20Address\n        ][_bidId];\n\n        if (fundDetail.state != BidState.PENDING) return false;\n        if (fundDetail.expiration == 0) return false;\n\n        return (uint32(block.timestamp) > fundDetail.expiration);\n    }\n\n    /**\n     * @notice Checks if loan is defaulted.\n     * @param _poolId The Id of the pool.\n     * @param _ERC20Address The address of the funds contract.\n     * @param _bidId The Id of the bid.\n     * @param _lender The address of the lender.\n     */\n    function isLoanDefaulted(\n        uint256 _poolId,\n        address _ERC20Address,\n        uint256 _bidId,\n        address _lender\n    ) public view returns (bool) {\n        FundDetail storage fundDetail = lenderPoolFundDetails[_lender][_poolId][\n            _ERC20Address\n        ][_bidId];\n\n        // Make sure loan cannot be liquidated if it is not active\n        if (fundDetail.state != BidState.ACCEPTED) return false;\n\n        if (fundDetail.installment.defaultDuration == 0) return false;\n\n        return ((int32(uint32(block.timestamp)) -\n            int32(fundDetail.acceptBidTimestamp + fundDetail.maxDuration)) >\n            int32(fundDetail.installment.defaultDuration));\n    }\n\n    /**\n     * @notice Checks if loan repayment is late.\n     * @dev Returned value is type boolean.\n     * @param _poolId The Id of the pool.\n     * @param _ERC20Address The address of the erc20 funds.\n     * @param _bidId The Id of the bid.\n     * @param _lender The lender address.\n     * @return boolean of late payment.\n     */\n    function isPaymentLate(\n        uint256 _poolId,\n        address _ERC20Address,\n        uint256 _bidId,\n        address _lender\n    ) public view returns (bool) {\n        FundDetail storage fundDetail = lenderPoolFundDetails[_lender][_poolId][\n            _ERC20Address\n        ][_bidId];\n        if (fundDetail.state != BidState.ACCEPTED) return false;\n        return\n            uint32(block.timestamp) >\n            calculateNextDueDate(_poolId, _ERC20Address, _bidId, _lender) +\n                7 days;\n    }\n\n    /**\n     * @notice Calculates and returns the next due date.\n     * @dev Returned value is type uint256.\n     * @param _poolId The Id of the pool.\n     * @param _ERC20Address The address of the erc20 funds.\n     * @param _bidId The Id of the bid.\n     * @param _lender The lender address.\n     * @return dueDate_ unix time of due date in uint256.\n     */\n    function calculateNextDueDate(\n        uint256 _poolId,\n        address _ERC20Address,\n        uint256 _bidId,\n        address _lender\n    ) public view returns (uint256 dueDate_) {\n        FundDetail storage fundDetail = lenderPoolFundDetails[_lender][_poolId][\n            _ERC20Address\n        ][_bidId];\n        if (fundDetail.state != BidState.ACCEPTED) return dueDate_;\n\n        uint256 paymentCycle = poolRegistry(poolRegistryAddress)\n            .getPaymentCycleDuration(_poolId);\n\n        // Start with the original due date being 1 payment cycle since loan was accepted\n        dueDate_ = fundDetail.acceptBidTimestamp + paymentCycle;\n\n        // Calculate the cycle number the last repayment was made\n        uint32 delta = fundDetail.lastRepaidTimestamp -\n            fundDetail.acceptBidTimestamp;\n        if (delta > 0) {\n            uint256 repaymentCycle = (delta / paymentCycle);\n            dueDate_ += (repaymentCycle * paymentCycle);\n        }\n\n        //if we are in the last payment cycle, the next due date is the end of loan duration\n        if (dueDate_ > fundDetail.acceptBidTimestamp + fundDetail.maxDuration) {\n            dueDate_ = fundDetail.acceptBidTimestamp + fundDetail.maxDuration;\n        }\n    }\n\n    /**\n     * @notice Returns the installment amount to be paid at the called timestamp.\n     * @dev Returned value is type uint256.\n     * @param _poolId The Id of the pool.\n     * @param _ERC20Address The address of the erc20 funds.\n     * @param _bidId The Id of the bid.\n     * @param _lender The lender address.\n     * @return installment amount in uint256.\n     */\n    function viewInstallmentAmount(\n        uint256 _poolId,\n        address _ERC20Address,\n        uint256 _bidId,\n        address _lender\n    ) external view returns (uint256) {\n        FundDetail storage fundDetail = lenderPoolFundDetails[_lender][_poolId][\n            _ERC20Address\n        ][_bidId];\n        uint32 LastRepaidTimestamp = fundDetail.lastRepaidTimestamp;\n        uint256 lastPaymentCycle = BPBDTL.diffMonths(\n            fundDetail.acceptBidTimestamp,\n            LastRepaidTimestamp\n        );\n        uint256 monthsSinceStart = BPBDTL.diffMonths(\n            fundDetail.acceptBidTimestamp,\n            block.timestamp\n        );\n\n        if (\n            fundDetail.installment.installmentsPaid + 1 ==\n            fundDetail.installment.installments\n        ) {\n            return viewFullRepayAmount(_poolId, _ERC20Address, _bidId, _lender);\n        }\n\n        if (monthsSinceStart > lastPaymentCycle) {\n            return fundDetail.paymentCycleAmount;\n        } else {\n            return 0;\n        }\n    }\n\n    /**\n     * @notice Repays the monthly installment.\n     * @param _poolId The Id of the pool.\n     * @param _ERC20Address The address of the erc20 funds.\n     * @param _bidId The Id of the bid.\n     * @param _lender The lender address.\n     */\n    function repayMonthlyInstallment(\n        uint256 _poolId,\n        address _ERC20Address,\n        uint256 _bidId,\n        address _lender\n    ) external nonReentrant {\n        require(poolOwner == msg.sender, \"You are not the Pool Owner\");\n        FundDetail storage fundDetail = lenderPoolFundDetails[_lender][_poolId][\n            _ERC20Address\n        ][_bidId];\n        require(fundDetail.amount / fundDetail.installment.installments >= 1000000, \"low\");\n        if (fundDetail.state != BidState.ACCEPTED) {\n            revert(\"Loan must be accepted\");\n        }\n        require(\n            fundDetail.installment.installmentsPaid + 1 <=\n                fundDetail.installment.installments\n        );\n        require(\n            block.timestamp >\n                calculateNextDueDate(_poolId, _ERC20Address, _bidId, _lender)\n        );\n\n        uint32 paymentCycle = poolRegistry(poolRegistryAddress)\n            .getPaymentCycleDuration(_poolId);\n\n        if (\n            fundDetail.installment.installmentsPaid + 1 ==\n            fundDetail.installment.installments\n        ) {\n            _repayFullAmount(_poolId, _ERC20Address, _bidId, _lender);\n        } else {\n            uint256 monthlyInterest = fundDetail\n                .installment\n                .monthlyCycleInterest;\n            uint256 monthlyDue = fundDetail.paymentCycleAmount;\n            uint256 due = monthlyDue - monthlyInterest;\n\n            (uint256 owedAmount, , uint256 interest) = LibCalculations\n                .calculateInstallmentAmount(\n                    fundDetail.amount,\n                    fundDetail.Repaid.amount,\n                    fundDetail.interestRate,\n                    fundDetail.paymentCycleAmount,\n                    paymentCycle,\n                    fundDetail.lastRepaidTimestamp,\n                    block.timestamp,\n                    fundDetail.acceptBidTimestamp,\n                    fundDetail.maxDuration\n                );\n\n            fundDetail.installment.installmentsPaid++;\n\n            _repayBid(\n                _poolId,\n                _ERC20Address,\n                _bidId,\n                _lender,\n                due,\n                monthlyInterest,\n                owedAmount + interest\n            );\n\n            fundDetail.lastRepaidTimestamp =\n                fundDetail.acceptBidTimestamp +\n                (fundDetail.installment.installmentsPaid * paymentCycle);\n        }\n    }\n\n    /**\n     * @notice Returns the full amount to be repaid.\n     * @dev Returned value is type uint256.\n     * @param _poolId The Id of the pool.\n     * @param _ERC20Address The address of the erc20 funds.\n     * @param _bidId The Id of the bid.\n     * @param _lender The lender address.\n     * @return Full amount to be paid in uint256.\n     */\n    function viewFullRepayAmount(\n        uint256 _poolId,\n        address _ERC20Address,\n        uint256 _bidId,\n        address _lender\n    ) public view returns (uint256) {\n        FundDetail storage fundDetail = lenderPoolFundDetails[_lender][_poolId][\n            _ERC20Address\n        ][_bidId];\n        if (\n            fundDetail.state != BidState.ACCEPTED ||\n            fundDetail.state == BidState.PAID\n        ) {\n            return 0;\n        }\n        uint32 paymentCycle = poolRegistry(poolRegistryAddress)\n            .getPaymentCycleDuration(_poolId);\n\n        (uint256 owedAmount, , uint256 interest) = LibCalculations\n            .calculateInstallmentAmount(\n                fundDetail.amount,\n                fundDetail.Repaid.amount,\n                fundDetail.interestRate,\n                fundDetail.paymentCycleAmount,\n                paymentCycle,\n                fundDetail.lastRepaidTimestamp,\n                block.timestamp + 10 minutes,\n                fundDetail.acceptBidTimestamp,\n                fundDetail.maxDuration\n            );\n        uint256 paymentAmount = owedAmount + interest;\n        return paymentAmount;\n    }\n\n    /**\n     * @notice Repays the full amount for the loan.\n     * @param _poolId The Id of the pool.\n     * @param _ERC20Address The address of the erc20 funds.\n     * @param _bidId The Id of the bid.\n     * @param _lender The lender address.\n     */\n    function _repayFullAmount(\n        uint256 _poolId,\n        address _ERC20Address,\n        uint256 _bidId,\n        address _lender\n    ) private {\n        require(poolOwner == msg.sender, \"You are not the Pool Owner\");\n        FundDetail storage fundDetail = lenderPoolFundDetails[_lender][_poolId][\n            _ERC20Address\n        ][_bidId];\n        if (fundDetail.state != BidState.ACCEPTED) {\n            revert(\"Bid must be accepted\");\n        }\n\n        uint32 paymentCycle = poolRegistry(poolRegistryAddress)\n            .getPaymentCycleDuration(_poolId);\n\n        (uint256 owedAmount, , uint256 interest) = LibCalculations\n            .calculateInstallmentAmount(\n                fundDetail.amount,\n                fundDetail.Repaid.amount,\n                fundDetail.interestRate,\n                fundDetail.paymentCycleAmount,\n                paymentCycle,\n                fundDetail.lastRepaidTimestamp,\n                block.timestamp,\n                fundDetail.acceptBidTimestamp,\n                fundDetail.maxDuration\n            );\n        _repayBid(\n            _poolId,\n            _ERC20Address,\n            _bidId,\n            _lender,\n            owedAmount,\n            interest,\n            owedAmount + interest\n        );\n\n        emit FullAmountRepaid(_poolId, _bidId, owedAmount, interest);\n    }\n\n    /**\n     * @notice Repays the full amount for the loan.\n     * @param _poolId The Id of the pool.\n     * @param _ERC20Address The address of the erc20 funds.\n     * @param _bidId The Id of the bid.\n     * @param _lender The lender address.\n     */\n    function RepayFullAmount(\n        uint256 _poolId,\n        address _ERC20Address,\n        uint256 _bidId,\n        address _lender\n    ) external nonReentrant {\n        require(poolOwner == msg.sender, \"You are not the Pool Owner\");\n        FundDetail storage fundDetail = lenderPoolFundDetails[_lender][_poolId][\n            _ERC20Address\n        ][_bidId];\n        if (fundDetail.state != BidState.ACCEPTED) {\n            revert(\"Bid must be accepted\");\n        }\n\n        uint32 paymentCycle = poolRegistry(poolRegistryAddress)\n            .getPaymentCycleDuration(_poolId);\n\n        (uint256 owedAmount, , uint256 interest) = LibCalculations\n            .calculateInstallmentAmount(\n                fundDetail.amount,\n                fundDetail.Repaid.amount,\n                fundDetail.interestRate,\n                fundDetail.paymentCycleAmount,\n                paymentCycle,\n                fundDetail.lastRepaidTimestamp,\n                block.timestamp,\n                fundDetail.acceptBidTimestamp,\n                fundDetail.maxDuration\n            );\n        _repayBid(\n            _poolId,\n            _ERC20Address,\n            _bidId,\n            _lender,\n            owedAmount,\n            interest,\n            owedAmount + interest\n        );\n\n        emit FullAmountRepaid(_poolId, _bidId, owedAmount, interest);\n    }\n\n    /**\n     * @notice Repays the specified amount for the loan.\n     * @param _poolId The Id of the pool.\n     * @param _ERC20Address The address of the erc20 funds.\n     * @param _bidId The Id of the bid.\n     * @param _lender The lender address.\n     * @param _amount The amount being repaid.\n     * @param _interest The interest being repaid.\n     * @param _owedAmount The total owed amount at the called timestamp.\n     */\n    function _repayBid(\n        uint256 _poolId,\n        address _ERC20Address,\n        uint256 _bidId,\n        address _lender,\n        uint256 _amount,\n        uint256 _interest,\n        uint256 _owedAmount\n    ) internal {\n        FundDetail storage fundDetail = lenderPoolFundDetails[_lender][_poolId][\n            _ERC20Address\n        ][_bidId];\n\n        uint256 paymentAmount = _amount + _interest;\n\n        // Check if we are sending a payment or amount remaining\n        if (paymentAmount >= _owedAmount) {\n            paymentAmount = _owedAmount;\n\n            fundDetail.state = BidState.PAID;\n            emit BidRepaid(_bidId, paymentAmount);\n        } else {\n            emit BidRepayment(_bidId, paymentAmount);\n        }\n\n        fundDetail.Repaid.amount += _amount;\n        fundDetail.Repaid.interest += _interest;\n        fundDetail.lastRepaidTimestamp = uint32(block.timestamp);\n\n        // Send payment to the lender\n        require(\n            IERC20(_ERC20Address).transferFrom(\n                msg.sender,\n                _lender,\n                paymentAmount\n            ),\n            \"unable to transfer to lender\"\n        );\n    }\n\n    /**\n     * @notice Allows the lender to withdraw the loan bid if it is still pending.\n     * @param _poolId The Id of the pool.\n     * @param _ERC20Address The address of the erc20 funds.\n     * @param _bidId The Id of the bid.\n     * @param _lender The lender address.\n     */\n    function Withdraw(\n        uint256 _poolId,\n        address _ERC20Address,\n        uint256 _bidId,\n        address _lender\n    ) external nonReentrant {\n        FundDetail storage fundDetail = lenderPoolFundDetails[_lender][_poolId][\n            _ERC20Address\n        ][_bidId];\n\n        if (fundDetail.state != BidState.PENDING) {\n            revert(\"Bid must be pending\");\n        }\n\n        // Check is lender the calling the function\n        if (_lender != msg.sender) {\n            revert(\"You are not a Lender\");\n        }\n\n        require(\n            fundDetail.expiration < uint32(block.timestamp),\n            \"You can't Withdraw\"\n        );\n\n        fundDetail.state = BidState.WITHDRAWN;\n\n        // Transfering the amount to the lender\n        require(\n            IERC20(_ERC20Address).transfer(_lender, fundDetail.amount),\n            \"Unable to transfer to lender\"\n        );\n\n        emit Withdrawn(_lender, _bidId, _poolId, fundDetail.amount);\n    }\n}\n",
  "sourcePath": "/media/dell/17f09f70-0626-4927-a787-2813ab7ed2c0/dell/Pandora/pooolAddress Pandora Git/aconomy-contract/contracts/FundingPool.sol",
  "compiler": {
    "name": "solc",
    "version": "0.8.11+commit.d7f03943.Emscripten.clang"
  },
  "schemaVersion": "3.4.10",
  "updatedAt": "2023-09-20T09:28:14.821Z",
  "networkType": "ethereum",
  "devdoc": {
    "kind": "dev",
    "methods": {
      "AcceptBid(uint256,address,uint256,address,address)": {
        "params": {
          "_ERC20Address": "The address of the bid funds being accepted.",
          "_bidId": "The Id of the bid.",
          "_lender": "The address of the lender.",
          "_poolId": "The Id of the pool.",
          "_receiver": "The address of the funds receiver."
        }
      },
      "RejectBid(uint256,address,uint256,address)": {
        "params": {
          "_ERC20Address": "The address of the funds contract.",
          "_bidId": "The Id of the bid.",
          "_lender": "The address of the lender.",
          "_poolId": "The Id of the pool."
        }
      },
      "RepayFullAmount(uint256,address,uint256,address)": {
        "params": {
          "_ERC20Address": "The address of the erc20 funds.",
          "_bidId": "The Id of the bid.",
          "_lender": "The lender address.",
          "_poolId": "The Id of the pool."
        }
      },
      "Withdraw(uint256,address,uint256,address)": {
        "params": {
          "_ERC20Address": "The address of the erc20 funds.",
          "_bidId": "The Id of the bid.",
          "_lender": "The lender address.",
          "_poolId": "The Id of the pool."
        }
      },
      "calculateNextDueDate(uint256,address,uint256,address)": {
        "details": "Returned value is type uint256.",
        "params": {
          "_ERC20Address": "The address of the erc20 funds.",
          "_bidId": "The Id of the bid.",
          "_lender": "The lender address.",
          "_poolId": "The Id of the pool."
        },
        "returns": {
          "dueDate_": "unix time of due date in uint256."
        }
      },
      "initialize(address,address)": {
        "params": {
          "_poolOwner": "The pool owner's address.",
          "_poolRegistry": "The address of the poolRegistry contract."
        }
      },
      "isBidExpired(uint256,address,uint256,address)": {
        "params": {
          "_ERC20Address": "The address of the funds contract.",
          "_bidId": "The Id of the bid.",
          "_lender": "The address of the lender.",
          "_poolId": "The Id of the pool."
        }
      },
      "isLoanDefaulted(uint256,address,uint256,address)": {
        "params": {
          "_ERC20Address": "The address of the funds contract.",
          "_bidId": "The Id of the bid.",
          "_lender": "The address of the lender.",
          "_poolId": "The Id of the pool."
        }
      },
      "isPaymentLate(uint256,address,uint256,address)": {
        "details": "Returned value is type boolean.",
        "params": {
          "_ERC20Address": "The address of the erc20 funds.",
          "_bidId": "The Id of the bid.",
          "_lender": "The lender address.",
          "_poolId": "The Id of the pool."
        },
        "returns": {
          "_0": "boolean of late payment."
        }
      },
      "repayMonthlyInstallment(uint256,address,uint256,address)": {
        "params": {
          "_ERC20Address": "The address of the erc20 funds.",
          "_bidId": "The Id of the bid.",
          "_lender": "The lender address.",
          "_poolId": "The Id of the pool."
        }
      },
      "supplyToPool(uint256,address,uint256,uint32,uint256,uint16)": {
        "params": {
          "_APR": "The annual interest in bps",
          "_ERC20Address": "The address of the funds being supplied.",
          "_amount": "The amount of funds being supplied.",
          "_expiration": "The time stamp within which the loan has to be accepted.",
          "_maxLoanDuration": "The duration of the loan after being accepted.",
          "_poolId": "The Id of the pool."
        }
      },
      "viewFullRepayAmount(uint256,address,uint256,address)": {
        "details": "Returned value is type uint256.",
        "params": {
          "_ERC20Address": "The address of the erc20 funds.",
          "_bidId": "The Id of the bid.",
          "_lender": "The lender address.",
          "_poolId": "The Id of the pool."
        },
        "returns": {
          "_0": "Full amount to be paid in uint256."
        }
      },
      "viewInstallmentAmount(uint256,address,uint256,address)": {
        "details": "Returned value is type uint256.",
        "params": {
          "_ERC20Address": "The address of the erc20 funds.",
          "_bidId": "The Id of the bid.",
          "_lender": "The lender address.",
          "_poolId": "The Id of the pool."
        },
        "returns": {
          "_0": "installment amount in uint256."
        }
      }
    },
    "version": 1
  },
  "userdoc": {
    "kind": "user",
    "methods": {
      "AcceptBid(uint256,address,uint256,address,address)": {
        "notice": "Accepts the specified bid to supply to the pool."
      },
      "RejectBid(uint256,address,uint256,address)": {
        "notice": "Rejects the bid to supply to the pool."
      },
      "RepayFullAmount(uint256,address,uint256,address)": {
        "notice": "Repays the full amount for the loan."
      },
      "Withdraw(uint256,address,uint256,address)": {
        "notice": "Allows the lender to withdraw the loan bid if it is still pending."
      },
      "calculateNextDueDate(uint256,address,uint256,address)": {
        "notice": "Calculates and returns the next due date."
      },
      "initialize(address,address)": {
        "notice": "Initializer function."
      },
      "isBidExpired(uint256,address,uint256,address)": {
        "notice": "Checks if bid has expired."
      },
      "isLoanDefaulted(uint256,address,uint256,address)": {
        "notice": "Checks if loan is defaulted."
      },
      "isPaymentLate(uint256,address,uint256,address)": {
        "notice": "Checks if loan repayment is late."
      },
      "repayMonthlyInstallment(uint256,address,uint256,address)": {
        "notice": "Repays the monthly installment."
      },
      "supplyToPool(uint256,address,uint256,uint32,uint256,uint16)": {
        "notice": "Allows a lender to supply funds to the pool owner."
      },
      "viewFullRepayAmount(uint256,address,uint256,address)": {
        "notice": "Returns the full amount to be repaid."
      },
      "viewInstallmentAmount(uint256,address,uint256,address)": {
        "notice": "Returns the installment amount to be paid at the called timestamp."
      }
    },
    "version": 1
  }
}