{
  "contractName": "FundingPool",
  "abi": [
    {
      "anonymous": false,
      "inputs": [
        {
          "indexed": false,
          "internalType": "address",
          "name": "lender",
          "type": "address"
        },
        {
          "indexed": false,
          "internalType": "address",
          "name": "reciever",
          "type": "address"
        },
        {
          "indexed": false,
          "internalType": "uint256",
          "name": "BidId",
          "type": "uint256"
        },
        {
          "indexed": false,
          "internalType": "uint256",
          "name": "PoolId",
          "type": "uint256"
        },
        {
          "indexed": false,
          "internalType": "uint256",
          "name": "Amount",
          "type": "uint256"
        },
        {
          "indexed": false,
          "internalType": "uint256",
          "name": "paymentCycleAmount",
          "type": "uint256"
        }
      ],
      "name": "BidAccepted",
      "type": "event"
    },
    {
      "anonymous": false,
      "inputs": [
        {
          "indexed": true,
          "internalType": "uint256",
          "name": "bidId",
          "type": "uint256"
        },
        {
          "indexed": false,
          "internalType": "uint256",
          "name": "PaidAmount",
          "type": "uint256"
        }
      ],
      "name": "BidRepaid",
      "type": "event"
    },
    {
      "anonymous": false,
      "inputs": [
        {
          "indexed": true,
          "internalType": "uint256",
          "name": "bidId",
          "type": "uint256"
        },
        {
          "indexed": false,
          "internalType": "uint256",
          "name": "PaidAmount",
          "type": "uint256"
        }
      ],
      "name": "BidRepayment",
      "type": "event"
    },
    {
      "anonymous": false,
      "inputs": [
        {
          "indexed": false,
          "internalType": "uint256",
          "name": "poolId",
          "type": "uint256"
        },
        {
          "indexed": false,
          "internalType": "uint256",
          "name": "bidId",
          "type": "uint256"
        },
        {
          "indexed": false,
          "internalType": "uint256",
          "name": "Amount",
          "type": "uint256"
        },
        {
          "indexed": false,
          "internalType": "uint256",
          "name": "interest",
          "type": "uint256"
        }
      ],
      "name": "FullAmountRepaid",
      "type": "event"
    },
    {
      "anonymous": false,
      "inputs": [
        {
          "indexed": false,
          "internalType": "uint8",
          "name": "version",
          "type": "uint8"
        }
      ],
      "name": "Initialized",
      "type": "event"
    },
    {
      "anonymous": false,
      "inputs": [
        {
          "indexed": false,
          "internalType": "uint256",
          "name": "poolId",
          "type": "uint256"
        },
        {
          "indexed": false,
          "internalType": "uint256",
          "name": "bidId",
          "type": "uint256"
        },
        {
          "indexed": false,
          "internalType": "uint256",
          "name": "owedAmount",
          "type": "uint256"
        },
        {
          "indexed": false,
          "internalType": "uint256",
          "name": "dueAmount",
          "type": "uint256"
        },
        {
          "indexed": false,
          "internalType": "uint256",
          "name": "interest",
          "type": "uint256"
        }
      ],
      "name": "InstallmentRepaid",
      "type": "event"
    },
    {
      "anonymous": false,
      "inputs": [
        {
          "indexed": true,
          "internalType": "address",
          "name": "lender",
          "type": "address"
        },
        {
          "indexed": true,
          "internalType": "uint256",
          "name": "poolId",
          "type": "uint256"
        },
        {
          "indexed": false,
          "internalType": "uint256",
          "name": "BidId",
          "type": "uint256"
        },
        {
          "indexed": true,
          "internalType": "address",
          "name": "ERC20Token",
          "type": "address"
        },
        {
          "indexed": false,
          "internalType": "uint256",
          "name": "tokenAmount",
          "type": "uint256"
        }
      ],
      "name": "SuppliedToPool",
      "type": "event"
    },
    {
      "anonymous": false,
      "inputs": [
        {
          "indexed": false,
          "internalType": "address",
          "name": "reciever",
          "type": "address"
        },
        {
          "indexed": false,
          "internalType": "uint256",
          "name": "BidId",
          "type": "uint256"
        },
        {
          "indexed": false,
          "internalType": "uint256",
          "name": "PoolId",
          "type": "uint256"
        },
        {
          "indexed": false,
          "internalType": "uint256",
          "name": "Amount",
          "type": "uint256"
        }
      ],
      "name": "Withdrawn",
      "type": "event"
    },
    {
      "inputs": [],
      "name": "bidId",
      "outputs": [
        {
          "internalType": "uint256",
          "name": "",
          "type": "uint256"
        }
      ],
      "stateMutability": "view",
      "type": "function"
    },
    {
      "inputs": [
        {
          "internalType": "address",
          "name": "",
          "type": "address"
        },
        {
          "internalType": "uint256",
          "name": "",
          "type": "uint256"
        },
        {
          "internalType": "address",
          "name": "",
          "type": "address"
        },
        {
          "internalType": "uint256",
          "name": "",
          "type": "uint256"
        }
      ],
      "name": "lenderPoolFundDetails",
      "outputs": [
        {
          "internalType": "uint256",
          "name": "amount",
          "type": "uint256"
        },
        {
          "internalType": "uint256",
          "name": "expiration",
          "type": "uint256"
        },
        {
          "internalType": "uint32",
          "name": "maxDuration",
          "type": "uint32"
        },
        {
          "internalType": "uint16",
          "name": "interestRate",
          "type": "uint16"
        },
        {
          "internalType": "enum FundingPool.BidState",
          "name": "state",
          "type": "uint8"
        },
        {
          "internalType": "uint32",
          "name": "bidTimestamp",
          "type": "uint32"
        },
        {
          "internalType": "uint32",
          "name": "acceptBidTimestamp",
          "type": "uint32"
        },
        {
          "internalType": "uint256",
          "name": "paymentCycleAmount",
          "type": "uint256"
        },
        {
          "internalType": "uint256",
          "name": "totalRepaidPrincipal",
          "type": "uint256"
        },
        {
          "internalType": "uint32",
          "name": "lastRepaidTimestamp",
          "type": "uint32"
        },
        {
          "components": [
            {
              "internalType": "uint256",
              "name": "amount",
              "type": "uint256"
            },
            {
              "internalType": "uint256",
              "name": "interest",
              "type": "uint256"
            }
          ],
          "internalType": "struct FundingPool.RePayment",
          "name": "Repaid",
          "type": "tuple"
        }
      ],
      "stateMutability": "view",
      "type": "function"
    },
    {
      "inputs": [],
      "name": "poolOwner",
      "outputs": [
        {
          "internalType": "address",
          "name": "",
          "type": "address"
        }
      ],
      "stateMutability": "view",
      "type": "function"
    },
    {
      "inputs": [],
      "name": "poolRegistryAddress",
      "outputs": [
        {
          "internalType": "address",
          "name": "",
          "type": "address"
        }
      ],
      "stateMutability": "view",
      "type": "function"
    },
    {
      "inputs": [
        {
          "internalType": "address",
          "name": "_poolOwner",
          "type": "address"
        },
        {
          "internalType": "address",
          "name": "_poolRegistry",
          "type": "address"
        }
      ],
      "name": "initialize",
      "outputs": [],
      "stateMutability": "nonpayable",
      "type": "function"
    },
    {
      "inputs": [
        {
          "internalType": "uint256",
          "name": "_poolId",
          "type": "uint256"
        },
        {
          "internalType": "address",
          "name": "_ERC20Address",
          "type": "address"
        },
        {
          "internalType": "uint256",
          "name": "_amount",
          "type": "uint256"
        },
        {
          "internalType": "uint32",
          "name": "_maxLoanDuration",
          "type": "uint32"
        },
        {
          "internalType": "uint256",
          "name": "_expiration",
          "type": "uint256"
        }
      ],
      "name": "supplyToPool",
      "outputs": [],
      "stateMutability": "nonpayable",
      "type": "function"
    },
    {
      "inputs": [
        {
          "internalType": "uint256",
          "name": "_poolId",
          "type": "uint256"
        },
        {
          "internalType": "address",
          "name": "_ERC20Address",
          "type": "address"
        },
        {
          "internalType": "uint256",
          "name": "_bidId",
          "type": "uint256"
        },
        {
          "internalType": "address",
          "name": "_lender",
          "type": "address"
        },
        {
          "internalType": "address",
          "name": "_receiver",
          "type": "address"
        }
      ],
      "name": "AcceptBid",
      "outputs": [],
      "stateMutability": "nonpayable",
      "type": "function"
    },
    {
      "inputs": [
        {
          "internalType": "uint256",
          "name": "_poolId",
          "type": "uint256"
        },
        {
          "internalType": "address",
          "name": "_ERC20Address",
          "type": "address"
        },
        {
          "internalType": "uint256",
          "name": "_bidId",
          "type": "uint256"
        },
        {
          "internalType": "address",
          "name": "_lender",
          "type": "address"
        }
      ],
      "name": "RepayInstallment",
      "outputs": [],
      "stateMutability": "nonpayable",
      "type": "function"
    },
    {
      "inputs": [
        {
          "internalType": "uint256",
          "name": "_poolId",
          "type": "uint256"
        },
        {
          "internalType": "address",
          "name": "_ERC20Address",
          "type": "address"
        },
        {
          "internalType": "uint256",
          "name": "_bidId",
          "type": "uint256"
        },
        {
          "internalType": "address",
          "name": "_lender",
          "type": "address"
        }
      ],
      "name": "viewInstallmentAmount",
      "outputs": [
        {
          "internalType": "uint256",
          "name": "",
          "type": "uint256"
        }
      ],
      "stateMutability": "view",
      "type": "function"
    },
    {
      "inputs": [
        {
          "internalType": "uint256",
          "name": "_poolId",
          "type": "uint256"
        },
        {
          "internalType": "address",
          "name": "_ERC20Address",
          "type": "address"
        },
        {
          "internalType": "uint256",
          "name": "_bidId",
          "type": "uint256"
        },
        {
          "internalType": "address",
          "name": "_lender",
          "type": "address"
        }
      ],
      "name": "viewFullRepayAmount",
      "outputs": [
        {
          "internalType": "uint256",
          "name": "",
          "type": "uint256"
        }
      ],
      "stateMutability": "view",
      "type": "function"
    },
    {
      "inputs": [
        {
          "internalType": "uint256",
          "name": "_poolId",
          "type": "uint256"
        },
        {
          "internalType": "address",
          "name": "_ERC20Address",
          "type": "address"
        },
        {
          "internalType": "uint256",
          "name": "_bidId",
          "type": "uint256"
        },
        {
          "internalType": "address",
          "name": "_lender",
          "type": "address"
        }
      ],
      "name": "RepayFullAmount",
      "outputs": [],
      "stateMutability": "nonpayable",
      "type": "function"
    },
    {
      "inputs": [
        {
          "internalType": "uint256",
          "name": "_poolId",
          "type": "uint256"
        },
        {
          "internalType": "address",
          "name": "_ERC20Address",
          "type": "address"
        },
        {
          "internalType": "uint256",
          "name": "_bidId",
          "type": "uint256"
        },
        {
          "internalType": "address",
          "name": "_lender",
          "type": "address"
        }
      ],
      "name": "Withdraw",
      "outputs": [],
      "stateMutability": "nonpayable",
      "type": "function"
    }
  ],
  "bytecode": "0x6080604052600060355534801561001557600080fd5b50613a30806100256000396000f3fe608060405234801561001057600080fd5b50600436106100b45760003560e01c80638ac47319116100715780638ac47319146101775780639080e56214610195578063b74e6733146101cf578063bd0ea7f5146101eb578063c89bc3341461021b578063cf0b227014610237576100b4565b8063297d7cb4146100b9578063465d00b1146100d5578063485cc955146101055780635645483b14610121578063598901c61461013d5780637c24977e1461015b575b600080fd5b6100d360048036038101906100ce91906125a7565b610255565b005b6100ef60048036038101906100ea91906125a7565b610598565b6040516100fc919061261d565b60405180910390f35b61011f600480360381019061011a9190612638565b6107fb565b005b61013b60048036038101906101369190612678565b6109b5565b005b61014561109a565b6040516101529190612702565b60405180910390f35b610175600480360381019061017091906125a7565b6110c0565b005b61017f611409565b60405161018c919061261d565b60405180910390f35b6101af60048036038101906101aa919061271d565b61140f565b6040516101c69b9a99989796959493929190612875565b60405180910390f35b6101e960048036038101906101e491906125a7565b611509565b005b610205600480360381019061020091906125a7565b611823565b604051610212919061261d565b60405180910390f35b6102356004803603810190610230919061294c565b611a86565b005b61023f61204b565b60405161024c9190612702565b60405180910390f35b61025d612071565b3373ffffffffffffffffffffffffffffffffffffffff16603360009054906101000a900473ffffffffffffffffffffffffffffffffffffffff1673ffffffffffffffffffffffffffffffffffffffff16146102ed576040517f08c379a00000000000000000000000000000000000000000000000000000000081526004016102e490612a24565b60405180910390fd5b6000603660008373ffffffffffffffffffffffffffffffffffffffff1673ffffffffffffffffffffffffffffffffffffffff168152602001908152602001600020600086815260200190815260200160002060008573ffffffffffffffffffffffffffffffffffffffff1673ffffffffffffffffffffffffffffffffffffffff16815260200190815260200160002060008481526020019081526020016000209050600260048111156103a3576103a26127c0565b5b8160020160069054906101000a900460ff1660048111156103c7576103c66127c0565b5b14610407576040517f08c379a00000000000000000000000000000000000000000000000000000000081526004016103fe90612a90565b60405180910390fd5b6000603460009054906101000a900473ffffffffffffffffffffffffffffffffffffffff1673ffffffffffffffffffffffffffffffffffffffff1663805deb53876040518263ffffffff1660e01b8152600401610464919061261d565b602060405180830381865afa158015610481573d6000803e3d6000fd5b505050506040513d601f19601f820116820180604052508101906104a59190612ac5565b905060008061052a846000015485600601600001548660020160049054906101000a900461ffff1687600301548763ffffffff168960050160009054906101000a900463ffffffff16428b600201600b9054906101000a900463ffffffff1663ffffffff168c60020160009054906101000a900463ffffffff1663ffffffff166120c1565b925050915061054988888888868687896105449190612b21565b6120f2565b7ff5a9ec8b3fd0f8ce05cf49ad0c5e37890b60cf5397c95f2d330dce6300f2cfed8887848460405161057e9493929190612b77565b60405180910390a15050505061059261237a565b50505050565b600080603660008473ffffffffffffffffffffffffffffffffffffffff1673ffffffffffffffffffffffffffffffffffffffff168152602001908152602001600020600087815260200190815260200160002060008673ffffffffffffffffffffffffffffffffffffffff1673ffffffffffffffffffffffffffffffffffffffff168152602001908152602001600020600085815260200190815260200160002090506002600481111561064f5761064e6127c0565b5b8160020160069054906101000a900460ff166004811115610673576106726127c0565b5b146106b3576040517f08c379a00000000000000000000000000000000000000000000000000000000081526004016106aa90612c08565b60405180910390fd5b6000603460009054906101000a900473ffffffffffffffffffffffffffffffffffffffff1673ffffffffffffffffffffffffffffffffffffffff1663805deb53886040518263ffffffff1660e01b8152600401610710919061261d565b602060405180830381865afa15801561072d573d6000803e3d6000fd5b505050506040513d601f19601f820116820180604052508101906107519190612ac5565b90506000806107d6846000015485600601600001548660020160049054906101000a900461ffff1687600301548763ffffffff168960050160009054906101000a900463ffffffff16428b600201600b9054906101000a900463ffffffff1663ffffffff168c60020160009054906101000a900463ffffffff1663ffffffff166120c1565b9250925050600081836107e99190612b21565b90508095505050505050949350505050565b60008060019054906101000a900460ff1615905080801561082c5750600160008054906101000a900460ff1660ff16105b80610859575061083b30612383565b1580156108585750600160008054906101000a900460ff1660ff16145b5b610898576040517f08c379a000000000000000000000000000000000000000000000000000000000815260040161088f90612c9a565b60405180910390fd5b60016000806101000a81548160ff021916908360ff16021790555080156108d5576001600060016101000a81548160ff0219169083151502179055505b82603360006101000a81548173ffffffffffffffffffffffffffffffffffffffff021916908373ffffffffffffffffffffffffffffffffffffffff16021790555081603460006101000a81548173ffffffffffffffffffffffffffffffffffffffff021916908373ffffffffffffffffffffffffffffffffffffffff16021790555080156109b05760008060016101000a81548160ff0219169083151502179055507f7f26b83ff96e1f2b6a682f133852f6798a09c465da95921460cefb384740249860016040516109a79190612d0c565b60405180910390a15b505050565b6109bd612071565b3373ffffffffffffffffffffffffffffffffffffffff16603360009054906101000a900473ffffffffffffffffffffffffffffffffffffffff1673ffffffffffffffffffffffffffffffffffffffff1614610a4d576040517f08c379a0000000000000000000000000000000000000000000000000000000008152600401610a4490612a24565b60405180910390fd5b6000603660008473ffffffffffffffffffffffffffffffffffffffff1673ffffffffffffffffffffffffffffffffffffffff168152602001908152602001600020600087815260200190815260200160002060008673ffffffffffffffffffffffffffffffffffffffff1673ffffffffffffffffffffffffffffffffffffffff1681526020019081526020016000206000858152602001908152602001600020905060006004811115610b0357610b026127c0565b5b8160020160069054906101000a900460ff166004811115610b2757610b266127c0565b5b14610b67576040517f08c379a0000000000000000000000000000000000000000000000000000000008152600401610b5e90612a90565b60405180910390fd5b4281600201600b6101000a81548163ffffffff021916908363ffffffff16021790555060008160000154905060028260020160066101000a81548160ff02191690836004811115610bbb57610bba6127c0565b5b02179055506000603460009054906101000a900473ffffffffffffffffffffffffffffffffffffffff1673ffffffffffffffffffffffffffffffffffffffff1663805deb53896040518263ffffffff1660e01b8152600401610c1d919061261d565b602060405180830381865afa158015610c3a573d6000803e3d6000fd5b505050506040513d601f19601f82011682018060405250810190610c5e9190612ac5565b905073__LibCalculations_______________________632872a887838560020160009054906101000a900463ffffffff16848760020160049054906101000a900461ffff166040518563ffffffff1660e01b8152600401610cc39493929190612d54565b602060405180830381865af4158015610ce0573d6000803e3d6000fd5b505050506040513d601f19601f82011682018060405250810190610d049190612dae565b83600301819055506000603460009054906101000a900473ffffffffffffffffffffffffffffffffffffffff1673ffffffffffffffffffffffffffffffffffffffff1663fa9fe9166040518163ffffffff1660e01b8152600401602060405180830381865afa158015610d7b573d6000803e3d6000fd5b505050506040513d601f19601f82011682018060405250810190610d9f9190612df0565b9050600073__LibCalculations_______________________633fb340038660000154603460009054906101000a900473ffffffffffffffffffffffffffffffffffffffff1673ffffffffffffffffffffffffffffffffffffffff1663911347156040518163ffffffff1660e01b8152600401602060405180830381865afa158015610e2f573d6000803e3d6000fd5b505050506040513d601f19601f82011682018060405250810190610e539190612e49565b6040518363ffffffff1660e01b8152600401610e70929190612e76565b602060405180830381865af4158015610e8d573d6000803e3d6000fd5b505050506040513d601f19601f82011682018060405250810190610eb19190612dae565b90508873ffffffffffffffffffffffffffffffffffffffff1663a9059cbb878387610edc9190612e9f565b6040518363ffffffff1660e01b8152600401610ef9929190612ed3565b6020604051808303816000875af1158015610f18573d6000803e3d6000fd5b505050506040513d601f19601f82011682018060405250810190610f3c9190612f34565b610f7b576040517f08c379a0000000000000000000000000000000000000000000000000000000008152600401610f7290612fad565b60405180910390fd5b60008114611041578873ffffffffffffffffffffffffffffffffffffffff1663a9059cbb83836040518363ffffffff1660e01b8152600401610fbe929190612ed3565b6020604051808303816000875af1158015610fdd573d6000803e3d6000fd5b505050506040513d601f19601f820116820180604052508101906110019190612f34565b611040576040517f08c379a00000000000000000000000000000000000000000000000000000000081526004016110379061303f565b60405180910390fd5b5b7f63ab63b6dade522b278971b21a2e05cf82c74fd32a9d8ceab8ada745d636fce087878a8d888a6003015460405161107e9695949392919061305f565b60405180910390a1505050505061109361237a565b5050505050565b603460009054906101000a900473ffffffffffffffffffffffffffffffffffffffff1681565b6110c8612071565b3373ffffffffffffffffffffffffffffffffffffffff16603360009054906101000a900473ffffffffffffffffffffffffffffffffffffffff1673ffffffffffffffffffffffffffffffffffffffff1614611158576040517f08c379a000000000000000000000000000000000000000000000000000000000815260040161114f90612a24565b60405180910390fd5b6000603660008373ffffffffffffffffffffffffffffffffffffffff1673ffffffffffffffffffffffffffffffffffffffff168152602001908152602001600020600086815260200190815260200160002060008573ffffffffffffffffffffffffffffffffffffffff1673ffffffffffffffffffffffffffffffffffffffff168152602001908152602001600020600084815260200190815260200160002090506002600481111561120e5761120d6127c0565b5b8160020160069054906101000a900460ff166004811115611232576112316127c0565b5b14611272576040517f08c379a000000000000000000000000000000000000000000000000000000000815260040161126990612a90565b60405180910390fd5b6000603460009054906101000a900473ffffffffffffffffffffffffffffffffffffffff1673ffffffffffffffffffffffffffffffffffffffff1663805deb53876040518263ffffffff1660e01b81526004016112cf919061261d565b602060405180830381865afa1580156112ec573d6000803e3d6000fd5b505050506040513d601f19601f820116820180604052508101906113109190612ac5565b90506000806000611397856000015486600601600001548760020160049054906101000a900461ffff1688600301548863ffffffff168a60050160009054906101000a900463ffffffff16428c600201600b9054906101000a900463ffffffff1663ffffffff168d60020160009054906101000a900463ffffffff1663ffffffff166120c1565b9250925092506113b7898989898686878a6113b29190612b21565b6120f2565b7f84c7770df3f99e97002dcefec130d50fd55f9c2a9908d9ab8fd1cd54f983fbd189888585856040516113ee9594939291906130c0565b60405180910390a1505050505061140361237a565b50505050565b60355481565b60366020528360005260406000206020528260005260406000206020528160005260406000206020528060005260406000206000935093505050508060000154908060010154908060020160009054906101000a900463ffffffff16908060020160049054906101000a900461ffff16908060020160069054906101000a900460ff16908060020160079054906101000a900463ffffffff169080600201600b9054906101000a900463ffffffff16908060030154908060040154908060050160009054906101000a900463ffffffff1690806006016040518060400160405290816000820154815260200160018201548152505090508b565b611511612071565b6000603660008373ffffffffffffffffffffffffffffffffffffffff1673ffffffffffffffffffffffffffffffffffffffff168152602001908152602001600020600086815260200190815260200160002060008573ffffffffffffffffffffffffffffffffffffffff1673ffffffffffffffffffffffffffffffffffffffff16815260200190815260200160002060008481526020019081526020016000209050600060048111156115c7576115c66127c0565b5b8160020160069054906101000a900460ff1660048111156115eb576115ea6127c0565b5b1461162b576040517f08c379a000000000000000000000000000000000000000000000000000000000815260040161162290612a90565b60405180910390fd5b3373ffffffffffffffffffffffffffffffffffffffff168273ffffffffffffffffffffffffffffffffffffffff1614611699576040517f08c379a00000000000000000000000000000000000000000000000000000000081526004016116909061315f565b60405180910390fd5b4263ffffffff168160010154106116e5576040517f08c379a00000000000000000000000000000000000000000000000000000000081526004016116dc906131cb565b60405180910390fd5b8373ffffffffffffffffffffffffffffffffffffffff1663a9059cbb8383600001546040518363ffffffff1660e01b8152600401611724929190612ed3565b6020604051808303816000875af1158015611743573d6000803e3d6000fd5b505050506040513d601f19601f820116820180604052508101906117679190612f34565b6117a6576040517f08c379a000000000000000000000000000000000000000000000000000000000815260040161179d90613237565b60405180910390fd5b60048160020160066101000a81548160ff021916908360048111156117ce576117cd6127c0565b5b02179055507f75e161b3e824b114fc1a33274bd7091918dd4e639cede50b78b15a4eea956a21828487846000015460405161180c9493929190613257565b60405180910390a15061181d61237a565b50505050565b600080603660008473ffffffffffffffffffffffffffffffffffffffff1673ffffffffffffffffffffffffffffffffffffffff168152602001908152602001600020600087815260200190815260200160002060008673ffffffffffffffffffffffffffffffffffffffff1673ffffffffffffffffffffffffffffffffffffffff16815260200190815260200160002060008581526020019081526020016000209050600260048111156118da576118d96127c0565b5b8160020160069054906101000a900460ff1660048111156118fe576118fd6127c0565b5b1461193e576040517f08c379a000000000000000000000000000000000000000000000000000000000815260040161193590612a90565b60405180910390fd5b6000603460009054906101000a900473ffffffffffffffffffffffffffffffffffffffff1673ffffffffffffffffffffffffffffffffffffffff1663805deb53886040518263ffffffff1660e01b815260040161199b919061261d565b602060405180830381865afa1580156119b8573d6000803e3d6000fd5b505050506040513d601f19601f820116820180604052508101906119dc9190612ac5565b9050600080611a61846000015485600601600001548660020160049054906101000a900461ffff1687600301548763ffffffff168960050160009054906101000a900463ffffffff16428b600201600b9054906101000a900463ffffffff1663ffffffff168c60020160009054906101000a900463ffffffff1663ffffffff166120c1565b925050915060008183611a749190612b21565b90508095505050505050949350505050565b611a8e612071565b6000603460009054906101000a900473ffffffffffffffffffffffffffffffffffffffff1673ffffffffffffffffffffffffffffffffffffffff1663da5de1a287336040518363ffffffff1660e01b8152600401611aed92919061329c565b6040805180830381865afa158015611b09573d6000803e3d6000fd5b505050506040513d601f19601f82011682018060405250810190611b2d91906132fb565b50905080611b70576040517f08c379a0000000000000000000000000000000000000000000000000000000008152600401611b6790613387565b60405180910390fd5b600073ffffffffffffffffffffffffffffffffffffffff168573ffffffffffffffffffffffffffffffffffffffff161415611be0576040517f08c379a0000000000000000000000000000000000000000000000000000000008152600401611bd790613419565b60405180910390fd5b6000841415611c24576040517f08c379a0000000000000000000000000000000000000000000000000000000008152600401611c1b906134ab565b60405180910390fd5b60003390504263ffffffff168311611c71576040517f08c379a0000000000000000000000000000000000000000000000000000000008152600401611c6890613517565b60405180910390fd5b600060355490506000603660008473ffffffffffffffffffffffffffffffffffffffff1673ffffffffffffffffffffffffffffffffffffffff16815260200190815260200160002060008a815260200190815260200160002060008973ffffffffffffffffffffffffffffffffffffffff1673ffffffffffffffffffffffffffffffffffffffff16815260200190815260200160002060008381526020019081526020016000209050868160000181905550848160010181905550858160020160006101000a81548163ffffffff021916908363ffffffff160217905550603460009054906101000a900473ffffffffffffffffffffffffffffffffffffffff1673ffffffffffffffffffffffffffffffffffffffff1663f32db0ec8a6040518263ffffffff1660e01b8152600401611daa919061261d565b602060405180830381865afa158015611dc7573d6000803e3d6000fd5b505050506040513d601f19601f82011682018060405250810190611deb9190612e49565b8160020160046101000a81548161ffff021916908361ffff160217905550428160020160076101000a81548163ffffffff021916908363ffffffff16021790555060008160020160066101000a81548160ff02191690836004811115611e5457611e536127c0565b5b02179055506000603460009054906101000a900473ffffffffffffffffffffffffffffffffffffffff1673ffffffffffffffffffffffffffffffffffffffff1662a5ae218b6040518263ffffffff1660e01b8152600401611eb5919061261d565b602060405180830381865afa158015611ed2573d6000803e3d6000fd5b505050506040513d601f19601f82011682018060405250810190611ef69190612df0565b90508873ffffffffffffffffffffffffffffffffffffffff166323b872dd85838b6040518463ffffffff1660e01b8152600401611f3593929190613537565b6020604051808303816000875af1158015611f54573d6000803e3d6000fd5b505050506040513d601f19601f82011682018060405250810190611f789190612f34565b611fb7576040517f08c379a0000000000000000000000000000000000000000000000000000000008152600401611fae906135ba565b60405180910390fd5b60356000815480929190611fca906135da565b91905055508873ffffffffffffffffffffffffffffffffffffffff168a8573ffffffffffffffffffffffffffffffffffffffff167fca1a65c6e44368f649482154a26df2e509bcade5831a095555a4272599b5afc5868c60405161202f929190613623565b60405180910390a4505050505061204461237a565b5050505050565b603360009054906101000a900473ffffffffffffffffffffffffffffffffffffffff1681565b600260015414156120b7576040517f08c379a00000000000000000000000000000000000000000000000000000000081526004016120ae90613698565b60405180910390fd5b6002600181905550565b60008060006120dd8c8c8c8c8c8c63ffffffff168c8c8c6123a6565b92509250925099509950999650505050505050565b6000603660008673ffffffffffffffffffffffffffffffffffffffff1673ffffffffffffffffffffffffffffffffffffffff168152602001908152602001600020600089815260200190815260200160002060008873ffffffffffffffffffffffffffffffffffffffff1673ffffffffffffffffffffffffffffffffffffffff16815260200190815260200160002060008781526020019081526020016000209050600083856121a29190612b21565b90508281106122185782905060038260020160066101000a81548160ff021916908360048111156121d6576121d56127c0565b5b0217905550867f044e4ffaa963a008234a0fb6594c50a05f7b446bfe5b006fc943d89a21a9d3cc8260405161220b919061261d565b60405180910390a2612251565b867f5cbcbe20d8ea4a0298a26fcffbb0f0b5ad3b5d8544bf621810bea582e40b539d82604051612248919061261d565b60405180910390a25b8773ffffffffffffffffffffffffffffffffffffffff166323b872dd3388846040518463ffffffff1660e01b815260040161228e93929190613537565b6020604051808303816000875af11580156122ad573d6000803e3d6000fd5b505050506040513d601f19601f820116820180604052508101906122d19190612f34565b612310576040517f08c379a000000000000000000000000000000000000000000000000000000000815260040161230790613704565b60405180910390fd5b848260060160000160008282546123279190612b21565b92505081905550838260060160010160008282546123459190612b21565b92505081905550428260050160006101000a81548163ffffffff021916908363ffffffff160217905550505050505050505050565b60018081905550565b6000808273ffffffffffffffffffffffffffffffffffffffff163b119050919050565b60008060008a8c6123b79190612e9f565b925060006123c5848c61248f565b9050600088886123d59190612e9f565b90506301e1338081836123e89190613724565b6123f291906137ad565b92506000878961240291906137e8565b8761240d91906137e8565b905060008b82128061242a57508c85886124279190612b21565b11155b9050600081612439578d612446565b85886124459190612b21565b5b905060008d85836124579190613724565b61246191906137ad565b905061247887826124729190612e9f565b8a6124a9565b975050505050505099509950999650505050505050565b60006124a1838361ffff1660026124c2565b905092915050565b60008183106124b857816124ba565b825b905092915050565b60006124cd826124ec565b83856124d99190613724565b6124e391906137ad565b90509392505050565b600081600a6124fb91906139af565b60646125079190613724565b9050919050565b600080fd5b6000819050919050565b61252681612513565b811461253157600080fd5b50565b6000813590506125438161251d565b92915050565b600073ffffffffffffffffffffffffffffffffffffffff82169050919050565b600061257482612549565b9050919050565b61258481612569565b811461258f57600080fd5b50565b6000813590506125a18161257b565b92915050565b600080600080608085870312156125c1576125c061250e565b5b60006125cf87828801612534565b94505060206125e087828801612592565b93505060406125f187828801612534565b925050606061260287828801612592565b91505092959194509250565b61261781612513565b82525050565b6000602082019050612632600083018461260e565b92915050565b6000806040838503121561264f5761264e61250e565b5b600061265d85828601612592565b925050602061266e85828601612592565b9150509250929050565b600080600080600060a086880312156126945761269361250e565b5b60006126a288828901612534565b95505060206126b388828901612592565b94505060406126c488828901612534565b93505060606126d588828901612592565b92505060806126e688828901612592565b9150509295509295909350565b6126fc81612569565b82525050565b600060208201905061271760008301846126f3565b92915050565b600080600080608085870312156127375761273661250e565b5b600061274587828801612592565b945050602061275687828801612534565b935050604061276787828801612592565b925050606061277887828801612534565b91505092959194509250565b600063ffffffff82169050919050565b61279d81612784565b82525050565b600061ffff82169050919050565b6127ba816127a3565b82525050565b7f4e487b7100000000000000000000000000000000000000000000000000000000600052602160045260246000fd5b60058110612800576127ff6127c0565b5b50565b6000819050612811826127ef565b919050565b600061282182612803565b9050919050565b61283181612816565b82525050565b61284081612513565b82525050565b60408201600082015161285c6000850182612837565b50602082015161286f6020850182612837565b50505050565b60006101808201905061288b600083018e61260e565b612898602083018d61260e565b6128a5604083018c612794565b6128b2606083018b6127b1565b6128bf608083018a612828565b6128cc60a0830189612794565b6128d960c0830188612794565b6128e660e083018761260e565b6128f461010083018661260e565b612902610120830185612794565b612910610140830184612846565b9c9b505050505050505050505050565b61292981612784565b811461293457600080fd5b50565b60008135905061294681612920565b92915050565b600080600080600060a086880312156129685761296761250e565b5b600061297688828901612534565b955050602061298788828901612592565b945050604061299888828901612534565b93505060606129a988828901612937565b92505060806129ba88828901612534565b9150509295509295909350565b600082825260208201905092915050565b7f596f7520617265206e6f742074686520506f6f6c204f776e6572000000000000600082015250565b6000612a0e601a836129c7565b9150612a19826129d8565b602082019050919050565b60006020820190508181036000830152612a3d81612a01565b9050919050565b7f426964206d7573742062652070656e64696e6700000000000000000000000000600082015250565b6000612a7a6013836129c7565b9150612a8582612a44565b602082019050919050565b60006020820190508181036000830152612aa981612a6d565b9050919050565b600081519050612abf81612920565b92915050565b600060208284031215612adb57612ada61250e565b5b6000612ae984828501612ab0565b91505092915050565b7f4e487b7100000000000000000000000000000000000000000000000000000000600052601160045260246000fd5b6000612b2c82612513565b9150612b3783612513565b9250827fffffffffffffffffffffffffffffffffffffffffffffffffffffffffffffffff03821115612b6c57612b6b612af2565b5b828201905092915050565b6000608082019050612b8c600083018761260e565b612b99602083018661260e565b612ba6604083018561260e565b612bb3606083018461260e565b95945050505050565b7f426964206d757374206265206163636570746564000000000000000000000000600082015250565b6000612bf26014836129c7565b9150612bfd82612bbc565b602082019050919050565b60006020820190508181036000830152612c2181612be5565b9050919050565b7f496e697469616c697a61626c653a20636f6e747261637420697320616c72656160008201527f647920696e697469616c697a6564000000000000000000000000000000000000602082015250565b6000612c84602e836129c7565b9150612c8f82612c28565b604082019050919050565b60006020820190508181036000830152612cb381612c77565b9050919050565b6000819050919050565b600060ff82169050919050565b6000819050919050565b6000612cf6612cf1612cec84612cba565b612cd1565b612cc4565b9050919050565b612d0681612cdb565b82525050565b6000602082019050612d216000830184612cfd565b92915050565b612d3081612513565b82525050565b612d3f81612784565b82525050565b612d4e816127a3565b82525050565b6000608082019050612d696000830187612d27565b612d766020830186612d36565b612d836040830185612d36565b612d906060830184612d45565b95945050505050565b600081519050612da88161251d565b92915050565b600060208284031215612dc457612dc361250e565b5b6000612dd284828501612d99565b91505092915050565b600081519050612dea8161257b565b92915050565b600060208284031215612e0657612e0561250e565b5b6000612e1484828501612ddb565b91505092915050565b612e26816127a3565b8114612e3157600080fd5b50565b600081519050612e4381612e1d565b92915050565b600060208284031215612e5f57612e5e61250e565b5b6000612e6d84828501612e34565b91505092915050565b6000604082019050612e8b6000830185612d27565b612e986020830184612d45565b9392505050565b6000612eaa82612513565b9150612eb583612513565b925082821015612ec857612ec7612af2565b5b828203905092915050565b6000604082019050612ee860008301856126f3565b612ef5602083018461260e565b9392505050565b60008115159050919050565b612f1181612efc565b8114612f1c57600080fd5b50565b600081519050612f2e81612f08565b92915050565b600060208284031215612f4a57612f4961250e565b5b6000612f5884828501612f1f565b91505092915050565b7f756e61626c6520746f207472616e7366657220746f2072656365697665720000600082015250565b6000612f97601e836129c7565b9150612fa282612f61565b602082019050919050565b60006020820190508181036000830152612fc681612f8a565b9050919050565b7f556e61626c6520746f207472616e7366657220746f2041636f6e6f6d794f776e60008201527f6572000000000000000000000000000000000000000000000000000000000000602082015250565b60006130296022836129c7565b915061303482612fcd565b604082019050919050565b600060208201905081810360008301526130588161301c565b9050919050565b600060c08201905061307460008301896126f3565b61308160208301886126f3565b61308e604083018761260e565b61309b606083018661260e565b6130a8608083018561260e565b6130b560a083018461260e565b979650505050505050565b600060a0820190506130d5600083018861260e565b6130e2602083018761260e565b6130ef604083018661260e565b6130fc606083018561260e565b613109608083018461260e565b9695505050505050565b7f596f7520617265206e6f742061204c656e646572000000000000000000000000600082015250565b60006131496014836129c7565b915061315482613113565b602082019050919050565b600060208201905081810360008301526131788161313c565b9050919050565b7f596f752063616e27742057697468647261770000000000000000000000000000600082015250565b60006131b56012836129c7565b91506131c08261317f565b602082019050919050565b600060208201905081810360008301526131e4816131a8565b9050919050565b7f556e61626c6520746f207472616e7366657220746f206c656e64657200000000600082015250565b6000613221601c836129c7565b915061322c826131eb565b602082019050919050565b6000602082019050818103600083015261325081613214565b9050919050565b600060808201905061326c60008301876126f3565b613279602083018661260e565b613286604083018561260e565b613293606083018461260e565b95945050505050565b60006040820190506132b1600083018561260e565b6132be60208301846126f3565b9392505050565b6000819050919050565b6132d8816132c5565b81146132e357600080fd5b50565b6000815190506132f5816132cf565b92915050565b600080604083850312156133125761331161250e565b5b600061332085828601612f1f565b9250506020613331858286016132e6565b9150509250929050565b7f4e6f74207665726966696564206c656e64657200000000000000000000000000600082015250565b60006133716013836129c7565b915061337c8261333b565b602082019050919050565b600060208201905081810360008301526133a081613364565b9050919050565b7f796f752063616e277420646f20746869732077697468207a65726f206164647260008201527f6573730000000000000000000000000000000000000000000000000000000000602082015250565b60006134036023836129c7565b915061340e826133a7565b604082019050919050565b60006020820190508181036000830152613432816133f6565b9050919050565b7f596f752063616e277420737570706c792077697468207a65726f20616d6f756e60008201527f7400000000000000000000000000000000000000000000000000000000000000602082015250565b60006134956021836129c7565b91506134a082613439565b604082019050919050565b600060208201905081810360008301526134c481613488565b9050919050565b7f77726f6e672074696d657374616d700000000000000000000000000000000000600082015250565b6000613501600f836129c7565b915061350c826134cb565b602082019050919050565b60006020820190508181036000830152613530816134f4565b9050919050565b600060608201905061354c60008301866126f3565b61355960208301856126f3565b613566604083018461260e565b949350505050565b7f556e61626c6520746f2074616e7366657220746f20706f6f6c41646472657373600082015250565b60006135a46020836129c7565b91506135af8261356e565b602082019050919050565b600060208201905081810360008301526135d381613597565b9050919050565b60006135e582612513565b91507fffffffffffffffffffffffffffffffffffffffffffffffffffffffffffffffff82141561361857613617612af2565b5b600182019050919050565b6000604082019050613638600083018561260e565b613645602083018461260e565b9392505050565b7f5265656e7472616e637947756172643a207265656e7472616e742063616c6c00600082015250565b6000613682601f836129c7565b915061368d8261364c565b602082019050919050565b600060208201905081810360008301526136b181613675565b9050919050565b7f756e61626c6520746f207472616e7366657220746f206c656e64657200000000600082015250565b60006136ee601c836129c7565b91506136f9826136b8565b602082019050919050565b6000602082019050818103600083015261371d816136e1565b9050919050565b600061372f82612513565b915061373a83612513565b9250817fffffffffffffffffffffffffffffffffffffffffffffffffffffffffffffffff048311821515161561377357613772612af2565b5b828202905092915050565b7f4e487b7100000000000000000000000000000000000000000000000000000000600052601260045260246000fd5b60006137b882612513565b91506137c383612513565b9250826137d3576137d261377e565b5b828204905092915050565b6000819050919050565b60006137f3826137de565b91506137fe836137de565b9250827f80000000000000000000000000000000000000000000000000000000000000000182126000841215161561383957613838612af2565b5b827f7fffffffffffffffffffffffffffffffffffffffffffffffffffffffffffffff01821360008412161561387157613870612af2565b5b828203905092915050565b60008160011c9050919050565b6000808291508390505b60018511156138d3578086048111156138af576138ae612af2565b5b60018516156138be5780820291505b80810290506138cc8561387c565b9450613893565b94509492505050565b6000826138ec57600190506139a8565b816138fa57600090506139a8565b8160018114613910576002811461391a57613949565b60019150506139a8565b60ff84111561392c5761392b612af2565b5b8360020a91508482111561394357613942612af2565b5b506139a8565b5060208310610133831016604e8410600b841016171561397e5782820a90508381111561397957613978612af2565b5b6139a8565b61398b8484846001613889565b925090508184048111156139a2576139a1612af2565b5b81810290505b9392505050565b60006139ba82612513565b91506139c583612513565b92506139f27fffffffffffffffffffffffffffffffffffffffffffffffffffffffffffffffff84846138dc565b90509291505056fea26469706673582212200875556ddefed644dac4ddeb8c16621b2c55e16590103165fcbfb193595f307464736f6c634300080b0033",
  "immutableReferences": {},
  "source": "// SPDX-License-Identifier: MIT\npragma solidity >=0.4.22 <0.9.0;\n\nimport \"./Libraries/LibPool.sol\";\n\nimport \"@openzeppelin/contracts-upgradeable/proxy/utils/Initializable.sol\";\nimport \"@openzeppelin/contracts/token/ERC20/IERC20.sol\";\nimport \"@openzeppelin/contracts-upgradeable/security/ReentrancyGuardUpgradeable.sol\";\nimport \"./Libraries/LibCalculations.sol\";\nimport \"./poolRegistry.sol\";\n\ncontract FundingPool is Initializable, ReentrancyGuardUpgradeable {\n\n    address public poolOwner;\n    address public poolRegistryAddress;\n\n    function initialize(\n        address _poolOwner,\n        address _poolRegistry\n    ) external initializer {\n        poolOwner = _poolOwner;\n        poolRegistryAddress = _poolRegistry;\n    }\n\n    uint256 public bidId = 0;\n\n    event BidRepaid(uint256 indexed bidId, uint256 PaidAmount);\n    event BidRepayment(uint256 indexed bidId, uint256 PaidAmount);\n\n    event BidAccepted(\n        address lender,\n        address reciever,\n        uint256 BidId,\n        uint256 PoolId,\n        uint256 Amount,\n        uint256 paymentCycleAmount\n    );\n\n    event Withdrawn(\n        address reciever,\n        uint256 BidId,\n        uint256 PoolId,\n        uint256 Amount\n    );\n\n    event SuppliedToPool(\n        address indexed lender,\n        uint256 indexed poolId,\n        uint256 BidId,\n        address indexed ERC20Token,\n        uint256 tokenAmount\n    );\n\n    event InstallmentRepaid(\n        uint256 poolId,\n        uint256 bidId,\n        uint256 owedAmount,\n        uint256 dueAmount,\n        uint256 interest\n    );\n\n    event FullAmountRepaid(\n        uint256 poolId,\n        uint256 bidId,\n        uint256 Amount,\n        uint256 interest\n    );\n\n    struct FundDetail {\n        uint256 amount;\n        uint256 expiration; //After expiration time, if owner dose not accept bid then lender can withdraw the fund\n        uint32 maxDuration; //Bid Duration\n        uint16 interestRate;\n        BidState state;\n        uint32 bidTimestamp;\n        uint32 acceptBidTimestamp;\n        uint256 paymentCycleAmount;\n        uint256 totalRepaidPrincipal;\n        uint32 lastRepaidTimestamp;\n        RePayment Repaid;\n    }\n\n    struct RePayment {\n        uint256 amount;\n        uint256 interest;\n    }\n\n    enum BidState {\n        PENDING,\n        CANCELLED,\n        ACCEPTED,\n        PAID,\n        WITHDRAWN\n    }\n\n    // Mapping of lender address => poolId => ERC20 token => BidId => FundDetail\n    mapping(address => mapping(uint256 => mapping(address => mapping(uint256 => FundDetail))))\n        public lenderPoolFundDetails;\n\n    //Supply to pool by lenders\n    function supplyToPool(\n        uint256 _poolId,\n        address _ERC20Address,\n        uint256 _amount,\n        uint32 _maxLoanDuration,\n        uint256 _expiration\n    ) external nonReentrant {\n        (bool isVerified, ) = poolRegistry(poolRegistryAddress)\n            .lenderVerification(_poolId, msg.sender);\n\n        require(isVerified, \"Not verified lender\");\n\n        require(\n            _ERC20Address != address(0),\n            \"you can't do this with zero address\"\n        );\n\n        require(_amount != 0, \"You can't supply with zero amount\");\n\n        address lender = msg.sender;\n        require(_expiration > uint32(block.timestamp), \"wrong timestamp\");\n        uint256 _bidId = bidId;\n        FundDetail storage fundDetail = lenderPoolFundDetails[lender][_poolId][\n            _ERC20Address\n        ][_bidId];\n        fundDetail.amount = _amount;\n        fundDetail.expiration = _expiration;\n        fundDetail.maxDuration = _maxLoanDuration;\n        fundDetail.interestRate = poolRegistry(poolRegistryAddress).getPoolApr(_poolId);\n        fundDetail.bidTimestamp = uint32(block.timestamp);\n\n        fundDetail.state = BidState.PENDING;\n\n        address _poolAddress = poolRegistry(poolRegistryAddress).getPoolAddress(\n            _poolId\n        );\n\n        // Send payment to the Pool\n        require(\n            IERC20(_ERC20Address).transferFrom(lender, _poolAddress, _amount),\n            \"Unable to tansfer to poolAddress\"\n        );\n        bidId++;\n\n        emit SuppliedToPool(lender, _poolId, _bidId, _ERC20Address, _amount);\n    }\n\n    function AcceptBid(\n        uint256 _poolId,\n        address _ERC20Address,\n        uint256 _bidId,\n        address _lender,\n        address _receiver\n    ) external nonReentrant {\n        require(poolOwner == msg.sender, \"You are not the Pool Owner\");\n        FundDetail storage fundDetail = lenderPoolFundDetails[_lender][_poolId][\n            _ERC20Address\n        ][_bidId];\n        if (fundDetail.state != BidState.PENDING) {\n            revert(\"Bid must be pending\");\n        }\n        fundDetail.acceptBidTimestamp = uint32(block.timestamp);\n        uint256 amount = fundDetail.amount;\n        fundDetail.state = BidState.ACCEPTED;\n        uint32 paymentCycle = poolRegistry(poolRegistryAddress)\n            .getPaymentCycleDuration(_poolId);\n\n        fundDetail.paymentCycleAmount = LibCalculations.payment(\n            amount,\n            fundDetail.maxDuration,\n            paymentCycle,\n            fundDetail.interestRate\n        );\n\n        address AconomyOwner = poolRegistry(poolRegistryAddress)\n            .getAconomyOwner();\n\n        //Aconomy Fee\n        uint256 amountToAconomy = LibCalculations.percent(\n            fundDetail.amount,\n            poolRegistry(poolRegistryAddress).getAconomyFee()\n        );\n\n        // transfering Amount to Owner\n        require(\n            IERC20(_ERC20Address).transfer(_receiver, amount - amountToAconomy),\n            \"unable to transfer to receiver\"\n        );\n\n        // transfering Amount to Protocol Owner\n        if (amountToAconomy != 0) {\n            require(\n                IERC20(_ERC20Address).transfer(AconomyOwner, amountToAconomy),\n                \"Unable to transfer to AconomyOwner\"\n            );\n        }\n\n        emit BidAccepted(\n            _lender,\n            _receiver,\n            _bidId,\n            _poolId,\n            amount,\n            fundDetail.paymentCycleAmount\n        );\n    }\n\n    function RepayInstallment(\n        uint256 _poolId,\n        address _ERC20Address,\n        uint256 _bidId,\n        address _lender\n    ) external nonReentrant {\n        require(poolOwner == msg.sender, \"You are not the Pool Owner\");\n        FundDetail storage fundDetail = lenderPoolFundDetails[_lender][_poolId][\n            _ERC20Address\n        ][_bidId];\n        if (fundDetail.state != BidState.ACCEPTED) {\n            revert(\"Bid must be pending\");\n        }\n\n        uint32 paymentCycle = poolRegistry(poolRegistryAddress)\n            .getPaymentCycleDuration(_poolId);\n\n        (\n            uint256 owedAmount,\n            uint256 dueAmount,\n            uint256 interest\n        ) = LibCalculations.calculateInstallmentAmount(\n                fundDetail.amount,\n                fundDetail.Repaid.amount,\n                fundDetail.interestRate,\n                fundDetail.paymentCycleAmount,\n                paymentCycle,\n                fundDetail.lastRepaidTimestamp,\n                block.timestamp,\n                fundDetail.acceptBidTimestamp,\n                fundDetail.maxDuration\n            );\n        _repayBid(\n            _poolId,\n            _ERC20Address,\n            _bidId,\n            _lender,\n            dueAmount,\n            interest,\n            owedAmount + interest\n        );\n\n        emit InstallmentRepaid(\n            _poolId,\n            _bidId,\n            owedAmount,\n            dueAmount,\n            interest\n        );\n    }\n\n    function viewInstallmentAmount(\n        uint256 _poolId,\n        address _ERC20Address,\n        uint256 _bidId,\n        address _lender\n    ) public view returns (uint256) {\n        FundDetail storage fundDetail = lenderPoolFundDetails[_lender][_poolId][\n            _ERC20Address\n        ][_bidId];\n        if (fundDetail.state != BidState.ACCEPTED) {\n            revert(\"Bid must be accepted\");\n        }\n        uint32 paymentCycle = poolRegistry(poolRegistryAddress)\n            .getPaymentCycleDuration(_poolId);\n\n        (, uint256 dueAmount, uint256 interest) = LibCalculations\n            .calculateInstallmentAmount(\n                fundDetail.amount,\n                fundDetail.Repaid.amount,\n                fundDetail.interestRate,\n                fundDetail.paymentCycleAmount,\n                paymentCycle,\n                fundDetail.lastRepaidTimestamp,\n                block.timestamp,\n                fundDetail.acceptBidTimestamp,\n                fundDetail.maxDuration\n            );\n        uint256 paymentAmount = dueAmount + interest;\n        return paymentAmount;\n    }\n\n    function viewFullRepayAmount(\n        uint256 _poolId,\n        address _ERC20Address,\n        uint256 _bidId,\n        address _lender\n    ) public view returns (uint256) {\n        FundDetail storage fundDetail = lenderPoolFundDetails[_lender][_poolId][\n            _ERC20Address\n        ][_bidId];\n        if (fundDetail.state != BidState.ACCEPTED) {\n            revert(\"Bid must be pending\");\n        }\n        uint32 paymentCycle = poolRegistry(poolRegistryAddress)\n            .getPaymentCycleDuration(_poolId);\n\n        (uint256 owedAmount, , uint256 interest) = LibCalculations\n            .calculateInstallmentAmount(\n                fundDetail.amount,\n                fundDetail.Repaid.amount,\n                fundDetail.interestRate,\n                fundDetail.paymentCycleAmount,\n                paymentCycle,\n                fundDetail.lastRepaidTimestamp,\n                block.timestamp,\n                fundDetail.acceptBidTimestamp,\n                fundDetail.maxDuration\n            );\n        uint256 paymentAmount = owedAmount + interest;\n        return paymentAmount;\n    }\n\n    function RepayFullAmount(\n        uint256 _poolId,\n        address _ERC20Address,\n        uint256 _bidId,\n        address _lender\n    ) external nonReentrant {\n        require(poolOwner == msg.sender, \"You are not the Pool Owner\");\n        FundDetail storage fundDetail = lenderPoolFundDetails[_lender][_poolId][\n            _ERC20Address\n        ][_bidId];\n        if (fundDetail.state != BidState.ACCEPTED) {\n            revert(\"Bid must be pending\");\n        }\n\n        uint32 paymentCycle = poolRegistry(poolRegistryAddress)\n            .getPaymentCycleDuration(_poolId);\n\n        (uint256 owedAmount, , uint256 interest) = LibCalculations\n            .calculateInstallmentAmount(\n                fundDetail.amount,\n                fundDetail.Repaid.amount,\n                fundDetail.interestRate,\n                fundDetail.paymentCycleAmount,\n                paymentCycle,\n                fundDetail.lastRepaidTimestamp,\n                block.timestamp,\n                fundDetail.acceptBidTimestamp,\n                fundDetail.maxDuration\n            );\n        _repayBid(\n            _poolId,\n            _ERC20Address,\n            _bidId,\n            _lender,\n            owedAmount,\n            interest,\n            owedAmount + interest\n        );\n\n        emit FullAmountRepaid(_poolId, _bidId, owedAmount, interest);\n    }\n\n    function _repayBid(\n        uint256 _poolId,\n        address _ERC20Address,\n        uint256 _bidId,\n        address _lender,\n        uint256 _amount,\n        uint256 _interest,\n        uint256 _owedAmount\n    ) internal {\n        FundDetail storage fundDetail = lenderPoolFundDetails[_lender][_poolId][\n            _ERC20Address\n        ][_bidId];\n\n        uint256 paymentAmount = _amount + _interest;\n\n        // Check if we are sending a payment or amount remaining\n        if (paymentAmount >= _owedAmount) {\n            paymentAmount = _owedAmount;\n\n            fundDetail.state = BidState.PAID;\n            emit BidRepaid(_bidId, paymentAmount);\n        } else {\n            emit BidRepayment(_bidId, paymentAmount);\n        }\n        // Send payment to the lender\n        require(\n            IERC20(_ERC20Address).transferFrom(\n                msg.sender,\n                _lender,\n                paymentAmount\n            ),\n            \"unable to transfer to lender\"\n        );\n\n        fundDetail.Repaid.amount += _amount;\n        fundDetail.Repaid.interest += _interest;\n        fundDetail.lastRepaidTimestamp = uint32(block.timestamp);\n    }\n\n    function Withdraw(\n        uint256 _poolId,\n        address _ERC20Address,\n        uint256 _bidId,\n        address _lender\n    ) external nonReentrant {\n        FundDetail storage fundDetail = lenderPoolFundDetails[_lender][_poolId][\n            _ERC20Address\n        ][_bidId];\n\n        if (fundDetail.state != BidState.PENDING) {\n            revert(\"Bid must be pending\");\n        }\n\n        // Check is lender the calling the function\n        if (_lender != msg.sender) {\n            revert(\"You are not a Lender\");\n        }\n\n        require(\n            fundDetail.expiration < uint32(block.timestamp),\n            \"You can't Withdraw\"\n        );\n\n        // Transfering the amount to the lender\n        require(\n            IERC20(_ERC20Address).transfer(_lender, fundDetail.amount),\n            \"Unable to transfer to lender\"\n        );\n\n        fundDetail.state = BidState.WITHDRAWN;\n\n        emit Withdrawn(_lender, _bidId, _poolId, fundDetail.amount);\n    }\n}\n",
  "sourcePath": "/home/sheeshco/code/truffle/aconomy-contract/contracts/FundingPool.sol",
  "compiler": {
    "name": "solc",
    "version": "0.8.11+commit.d7f03943.Emscripten.clang"
  },
  "schemaVersion": "3.4.10",
  "updatedAt": "2023-03-21T07:02:45.400Z",
  "devdoc": {
    "kind": "dev",
    "methods": {},
    "version": 1
  },
  "userdoc": {
    "kind": "user",
    "methods": {},
    "version": 1
  }
}