{
  "contractName": "FundingPool",
  "abi": [
    {
      "anonymous": false,
      "inputs": [
        {
          "indexed": false,
          "internalType": "address",
          "name": "lender",
          "type": "address"
        },
        {
          "indexed": false,
          "internalType": "address",
          "name": "reciever",
          "type": "address"
        },
        {
          "indexed": false,
          "internalType": "uint256",
          "name": "BidId",
          "type": "uint256"
        },
        {
          "indexed": false,
          "internalType": "uint256",
          "name": "PoolId",
          "type": "uint256"
        },
        {
          "indexed": false,
          "internalType": "uint256",
          "name": "Amount",
          "type": "uint256"
        },
        {
          "indexed": false,
          "internalType": "uint256",
          "name": "paymentCycleAmount",
          "type": "uint256"
        }
      ],
      "name": "BidAccepted",
      "type": "event"
    },
    {
      "anonymous": false,
      "inputs": [
        {
          "indexed": true,
          "internalType": "uint256",
          "name": "bidId",
          "type": "uint256"
        },
        {
          "indexed": false,
          "internalType": "uint256",
          "name": "PaidAmount",
          "type": "uint256"
        }
      ],
      "name": "BidRepaid",
      "type": "event"
    },
    {
      "anonymous": false,
      "inputs": [
        {
          "indexed": true,
          "internalType": "uint256",
          "name": "bidId",
          "type": "uint256"
        },
        {
          "indexed": false,
          "internalType": "uint256",
          "name": "PaidAmount",
          "type": "uint256"
        }
      ],
      "name": "BidRepayment",
      "type": "event"
    },
    {
      "anonymous": false,
      "inputs": [
        {
          "indexed": false,
          "internalType": "uint256",
          "name": "poolId",
          "type": "uint256"
        },
        {
          "indexed": false,
          "internalType": "uint256",
          "name": "bidId",
          "type": "uint256"
        },
        {
          "indexed": false,
          "internalType": "uint256",
          "name": "Amount",
          "type": "uint256"
        },
        {
          "indexed": false,
          "internalType": "uint256",
          "name": "interest",
          "type": "uint256"
        }
      ],
      "name": "FullAmountRepaid",
      "type": "event"
    },
    {
      "anonymous": false,
      "inputs": [
        {
          "indexed": false,
          "internalType": "uint8",
          "name": "version",
          "type": "uint8"
        }
      ],
      "name": "Initialized",
      "type": "event"
    },
    {
      "anonymous": false,
      "inputs": [
        {
          "indexed": false,
          "internalType": "uint256",
          "name": "poolId",
          "type": "uint256"
        },
        {
          "indexed": false,
          "internalType": "uint256",
          "name": "bidId",
          "type": "uint256"
        },
        {
          "indexed": false,
          "internalType": "uint256",
          "name": "owedAmount",
          "type": "uint256"
        },
        {
          "indexed": false,
          "internalType": "uint256",
          "name": "dueAmount",
          "type": "uint256"
        },
        {
          "indexed": false,
          "internalType": "uint256",
          "name": "interest",
          "type": "uint256"
        }
      ],
      "name": "InstallmentRepaid",
      "type": "event"
    },
    {
      "anonymous": false,
      "inputs": [
        {
          "indexed": true,
          "internalType": "address",
          "name": "lender",
          "type": "address"
        },
        {
          "indexed": true,
          "internalType": "uint256",
          "name": "poolId",
          "type": "uint256"
        },
        {
          "indexed": false,
          "internalType": "uint256",
          "name": "BidId",
          "type": "uint256"
        },
        {
          "indexed": true,
          "internalType": "address",
          "name": "ERC20Token",
          "type": "address"
        },
        {
          "indexed": false,
          "internalType": "uint256",
          "name": "tokenAmount",
          "type": "uint256"
        }
      ],
      "name": "SuppliedToPool",
      "type": "event"
    },
    {
      "anonymous": false,
      "inputs": [
        {
          "indexed": false,
          "internalType": "address",
          "name": "reciever",
          "type": "address"
        },
        {
          "indexed": false,
          "internalType": "uint256",
          "name": "BidId",
          "type": "uint256"
        },
        {
          "indexed": false,
          "internalType": "uint256",
          "name": "PoolId",
          "type": "uint256"
        },
        {
          "indexed": false,
          "internalType": "uint256",
          "name": "Amount",
          "type": "uint256"
        }
      ],
      "name": "Withdrawn",
      "type": "event"
    },
    {
      "inputs": [],
      "name": "bidId",
      "outputs": [
        {
          "internalType": "uint256",
          "name": "",
          "type": "uint256"
        }
      ],
      "stateMutability": "view",
      "type": "function"
    },
    {
      "inputs": [
        {
          "internalType": "address",
          "name": "",
          "type": "address"
        },
        {
          "internalType": "uint256",
          "name": "",
          "type": "uint256"
        },
        {
          "internalType": "address",
          "name": "",
          "type": "address"
        },
        {
          "internalType": "uint256",
          "name": "",
          "type": "uint256"
        }
      ],
      "name": "lenderPoolFundDetails",
      "outputs": [
        {
          "internalType": "uint256",
          "name": "amount",
          "type": "uint256"
        },
        {
          "internalType": "uint256",
          "name": "expiration",
          "type": "uint256"
        },
        {
          "internalType": "uint32",
          "name": "maxDuration",
          "type": "uint32"
        },
        {
          "internalType": "uint16",
          "name": "interestRate",
          "type": "uint16"
        },
        {
          "internalType": "enum FundingPool.BidState",
          "name": "state",
          "type": "uint8"
        },
        {
          "internalType": "uint32",
          "name": "bidTimestamp",
          "type": "uint32"
        },
        {
          "internalType": "uint32",
          "name": "acceptBidTimestamp",
          "type": "uint32"
        },
        {
          "internalType": "uint256",
          "name": "paymentCycleAmount",
          "type": "uint256"
        },
        {
          "internalType": "uint256",
          "name": "totalRepaidPrincipal",
          "type": "uint256"
        },
        {
          "internalType": "uint32",
          "name": "lastRepaidTimestamp",
          "type": "uint32"
        },
        {
          "components": [
            {
              "internalType": "uint256",
              "name": "amount",
              "type": "uint256"
            },
            {
              "internalType": "uint256",
              "name": "interest",
              "type": "uint256"
            }
          ],
          "internalType": "struct FundingPool.RePayment",
          "name": "Repaid",
          "type": "tuple"
        }
      ],
      "stateMutability": "view",
      "type": "function"
    },
    {
      "inputs": [],
      "name": "poolOwner",
      "outputs": [
        {
          "internalType": "address",
          "name": "",
          "type": "address"
        }
      ],
      "stateMutability": "view",
      "type": "function"
    },
    {
      "inputs": [],
      "name": "poolRegistryAddress",
      "outputs": [
        {
          "internalType": "address",
          "name": "",
          "type": "address"
        }
      ],
      "stateMutability": "view",
      "type": "function"
    },
    {
      "inputs": [
        {
          "internalType": "address",
          "name": "_poolOwner",
          "type": "address"
        },
        {
          "internalType": "address",
          "name": "_poolRegistry",
          "type": "address"
        }
      ],
      "name": "initialize",
      "outputs": [],
      "stateMutability": "nonpayable",
      "type": "function"
    },
    {
      "inputs": [
        {
          "internalType": "uint256",
          "name": "_poolId",
          "type": "uint256"
        },
        {
          "internalType": "address",
          "name": "_ERC20Address",
          "type": "address"
        },
        {
          "internalType": "uint256",
          "name": "_amount",
          "type": "uint256"
        },
        {
          "internalType": "uint32",
          "name": "_maxLoanDuration",
          "type": "uint32"
        },
        {
          "internalType": "uint16",
          "name": "_interestRate",
          "type": "uint16"
        },
        {
          "internalType": "uint256",
          "name": "_expiration",
          "type": "uint256"
        }
      ],
      "name": "supplyToPool",
      "outputs": [],
      "stateMutability": "nonpayable",
      "type": "function"
    },
    {
      "inputs": [
        {
          "internalType": "uint256",
          "name": "_poolId",
          "type": "uint256"
        },
        {
          "internalType": "address",
          "name": "_ERC20Address",
          "type": "address"
        },
        {
          "internalType": "uint256",
          "name": "_bidId",
          "type": "uint256"
        },
        {
          "internalType": "address",
          "name": "_lender",
          "type": "address"
        },
        {
          "internalType": "address",
          "name": "_receiver",
          "type": "address"
        }
      ],
      "name": "AcceptBid",
      "outputs": [],
      "stateMutability": "nonpayable",
      "type": "function"
    },
    {
      "inputs": [
        {
          "internalType": "uint256",
          "name": "_poolId",
          "type": "uint256"
        },
        {
          "internalType": "address",
          "name": "_ERC20Address",
          "type": "address"
        },
        {
          "internalType": "uint256",
          "name": "_bidId",
          "type": "uint256"
        },
        {
          "internalType": "address",
          "name": "_lender",
          "type": "address"
        }
      ],
      "name": "RepayInstallment",
      "outputs": [],
      "stateMutability": "nonpayable",
      "type": "function"
    },
    {
      "inputs": [
        {
          "internalType": "uint256",
          "name": "_poolId",
          "type": "uint256"
        },
        {
          "internalType": "address",
          "name": "_ERC20Address",
          "type": "address"
        },
        {
          "internalType": "uint256",
          "name": "_bidId",
          "type": "uint256"
        },
        {
          "internalType": "address",
          "name": "_lender",
          "type": "address"
        }
      ],
      "name": "viewInstallmentAmount",
      "outputs": [
        {
          "internalType": "uint256",
          "name": "",
          "type": "uint256"
        }
      ],
      "stateMutability": "view",
      "type": "function"
    },
    {
      "inputs": [
        {
          "internalType": "uint256",
          "name": "_poolId",
          "type": "uint256"
        },
        {
          "internalType": "address",
          "name": "_ERC20Address",
          "type": "address"
        },
        {
          "internalType": "uint256",
          "name": "_bidId",
          "type": "uint256"
        },
        {
          "internalType": "address",
          "name": "_lender",
          "type": "address"
        }
      ],
      "name": "viewFullRepayAmount",
      "outputs": [
        {
          "internalType": "uint256",
          "name": "",
          "type": "uint256"
        }
      ],
      "stateMutability": "view",
      "type": "function"
    },
    {
      "inputs": [
        {
          "internalType": "uint256",
          "name": "_poolId",
          "type": "uint256"
        },
        {
          "internalType": "address",
          "name": "_ERC20Address",
          "type": "address"
        },
        {
          "internalType": "uint256",
          "name": "_bidId",
          "type": "uint256"
        },
        {
          "internalType": "address",
          "name": "_lender",
          "type": "address"
        }
      ],
      "name": "RepayFullAmount",
      "outputs": [],
      "stateMutability": "nonpayable",
      "type": "function"
    },
    {
      "inputs": [
        {
          "internalType": "uint256",
          "name": "_poolId",
          "type": "uint256"
        },
        {
          "internalType": "address",
          "name": "_ERC20Address",
          "type": "address"
        },
        {
          "internalType": "uint256",
          "name": "_bidId",
          "type": "uint256"
        },
        {
          "internalType": "address",
          "name": "_lender",
          "type": "address"
        }
      ],
      "name": "Withdraw",
      "outputs": [],
      "stateMutability": "nonpayable",
      "type": "function"
    }
  ],
  "bytecode": "0x6080604052600060355534801561001557600080fd5b506139bd806100256000396000f3fe608060405234801561001057600080fd5b50600436106100b45760003560e01c80638ac47319116100715780638ac47319146101775780639080e562146101955780639f8e66ee146101cf578063b74e6733146101eb578063bd0ea7f514610207578063cf0b227014610237576100b4565b8063297d7cb4146100b9578063465d00b1146100d5578063485cc955146101055780635645483b14610121578063598901c61461013d5780637c24977e1461015b575b600080fd5b6100d360048036038101906100ce919061250d565b610255565b005b6100ef60048036038101906100ea919061250d565b610598565b6040516100fc9190612583565b60405180910390f35b61011f600480360381019061011a919061259e565b6107fb565b005b61013b600480360381019061013691906125de565b6109b5565b005b61014561109a565b6040516101529190612668565b60405180910390f35b6101756004803603810190610170919061250d565b6110c0565b005b61017f611409565b60405161018c9190612583565b60405180910390f35b6101af60048036038101906101aa9190612683565b61140f565b6040516101c69b9a999897969594939291906127db565b60405180910390f35b6101e960048036038101906101e491906128de565b611509565b005b6102056004803603810190610200919061250d565b611a34565b005b610221600480360381019061021c919061250d565b611d4e565b60405161022e9190612583565b60405180910390f35b61023f611fb1565b60405161024c9190612668565b60405180910390f35b61025d611fd7565b3373ffffffffffffffffffffffffffffffffffffffff16603360009054906101000a900473ffffffffffffffffffffffffffffffffffffffff1673ffffffffffffffffffffffffffffffffffffffff16146102ed576040517f08c379a00000000000000000000000000000000000000000000000000000000081526004016102e4906129c8565b60405180910390fd5b6000603660008373ffffffffffffffffffffffffffffffffffffffff1673ffffffffffffffffffffffffffffffffffffffff168152602001908152602001600020600086815260200190815260200160002060008573ffffffffffffffffffffffffffffffffffffffff1673ffffffffffffffffffffffffffffffffffffffff16815260200190815260200160002060008481526020019081526020016000209050600260048111156103a3576103a2612726565b5b8160020160069054906101000a900460ff1660048111156103c7576103c6612726565b5b14610407576040517f08c379a00000000000000000000000000000000000000000000000000000000081526004016103fe90612a34565b60405180910390fd5b6000603460009054906101000a900473ffffffffffffffffffffffffffffffffffffffff1673ffffffffffffffffffffffffffffffffffffffff1663805deb53876040518263ffffffff1660e01b81526004016104649190612583565b602060405180830381865afa158015610481573d6000803e3d6000fd5b505050506040513d601f19601f820116820180604052508101906104a59190612a69565b905060008061052a846000015485600601600001548660020160049054906101000a900461ffff1687600301548763ffffffff168960050160009054906101000a900463ffffffff16428b600201600b9054906101000a900463ffffffff1663ffffffff168c60020160009054906101000a900463ffffffff1663ffffffff16612027565b925050915061054988888888868687896105449190612ac5565b612058565b7ff5a9ec8b3fd0f8ce05cf49ad0c5e37890b60cf5397c95f2d330dce6300f2cfed8887848460405161057e9493929190612b1b565b60405180910390a1505050506105926122e0565b50505050565b600080603660008473ffffffffffffffffffffffffffffffffffffffff1673ffffffffffffffffffffffffffffffffffffffff168152602001908152602001600020600087815260200190815260200160002060008673ffffffffffffffffffffffffffffffffffffffff1673ffffffffffffffffffffffffffffffffffffffff168152602001908152602001600020600085815260200190815260200160002090506002600481111561064f5761064e612726565b5b8160020160069054906101000a900460ff16600481111561067357610672612726565b5b146106b3576040517f08c379a00000000000000000000000000000000000000000000000000000000081526004016106aa90612bac565b60405180910390fd5b6000603460009054906101000a900473ffffffffffffffffffffffffffffffffffffffff1673ffffffffffffffffffffffffffffffffffffffff1663805deb53886040518263ffffffff1660e01b81526004016107109190612583565b602060405180830381865afa15801561072d573d6000803e3d6000fd5b505050506040513d601f19601f820116820180604052508101906107519190612a69565b90506000806107d6846000015485600601600001548660020160049054906101000a900461ffff1687600301548763ffffffff168960050160009054906101000a900463ffffffff16428b600201600b9054906101000a900463ffffffff1663ffffffff168c60020160009054906101000a900463ffffffff1663ffffffff16612027565b9250925050600081836107e99190612ac5565b90508095505050505050949350505050565b60008060019054906101000a900460ff1615905080801561082c5750600160008054906101000a900460ff1660ff16105b80610859575061083b306122e9565b1580156108585750600160008054906101000a900460ff1660ff16145b5b610898576040517f08c379a000000000000000000000000000000000000000000000000000000000815260040161088f90612c3e565b60405180910390fd5b60016000806101000a81548160ff021916908360ff16021790555080156108d5576001600060016101000a81548160ff0219169083151502179055505b82603360006101000a81548173ffffffffffffffffffffffffffffffffffffffff021916908373ffffffffffffffffffffffffffffffffffffffff16021790555081603460006101000a81548173ffffffffffffffffffffffffffffffffffffffff021916908373ffffffffffffffffffffffffffffffffffffffff16021790555080156109b05760008060016101000a81548160ff0219169083151502179055507f7f26b83ff96e1f2b6a682f133852f6798a09c465da95921460cefb384740249860016040516109a79190612cb0565b60405180910390a15b505050565b6109bd611fd7565b3373ffffffffffffffffffffffffffffffffffffffff16603360009054906101000a900473ffffffffffffffffffffffffffffffffffffffff1673ffffffffffffffffffffffffffffffffffffffff1614610a4d576040517f08c379a0000000000000000000000000000000000000000000000000000000008152600401610a44906129c8565b60405180910390fd5b6000603660008473ffffffffffffffffffffffffffffffffffffffff1673ffffffffffffffffffffffffffffffffffffffff168152602001908152602001600020600087815260200190815260200160002060008673ffffffffffffffffffffffffffffffffffffffff1673ffffffffffffffffffffffffffffffffffffffff1681526020019081526020016000206000858152602001908152602001600020905060006004811115610b0357610b02612726565b5b8160020160069054906101000a900460ff166004811115610b2757610b26612726565b5b14610b67576040517f08c379a0000000000000000000000000000000000000000000000000000000008152600401610b5e90612a34565b60405180910390fd5b4281600201600b6101000a81548163ffffffff021916908363ffffffff16021790555060008160000154905060028260020160066101000a81548160ff02191690836004811115610bbb57610bba612726565b5b02179055506000603460009054906101000a900473ffffffffffffffffffffffffffffffffffffffff1673ffffffffffffffffffffffffffffffffffffffff1663805deb53896040518263ffffffff1660e01b8152600401610c1d9190612583565b602060405180830381865afa158015610c3a573d6000803e3d6000fd5b505050506040513d601f19601f82011682018060405250810190610c5e9190612a69565b905073__LibCalculations_______________________632872a887838560020160009054906101000a900463ffffffff16848760020160049054906101000a900461ffff166040518563ffffffff1660e01b8152600401610cc39493929190612cf8565b602060405180830381865af4158015610ce0573d6000803e3d6000fd5b505050506040513d601f19601f82011682018060405250810190610d049190612d52565b83600301819055506000603460009054906101000a900473ffffffffffffffffffffffffffffffffffffffff1673ffffffffffffffffffffffffffffffffffffffff1663fa9fe9166040518163ffffffff1660e01b8152600401602060405180830381865afa158015610d7b573d6000803e3d6000fd5b505050506040513d601f19601f82011682018060405250810190610d9f9190612d94565b9050600073__LibCalculations_______________________633fb340038660000154603460009054906101000a900473ffffffffffffffffffffffffffffffffffffffff1673ffffffffffffffffffffffffffffffffffffffff1663911347156040518163ffffffff1660e01b8152600401602060405180830381865afa158015610e2f573d6000803e3d6000fd5b505050506040513d601f19601f82011682018060405250810190610e539190612dd6565b6040518363ffffffff1660e01b8152600401610e70929190612e03565b602060405180830381865af4158015610e8d573d6000803e3d6000fd5b505050506040513d601f19601f82011682018060405250810190610eb19190612d52565b90508873ffffffffffffffffffffffffffffffffffffffff1663a9059cbb878387610edc9190612e2c565b6040518363ffffffff1660e01b8152600401610ef9929190612e60565b6020604051808303816000875af1158015610f18573d6000803e3d6000fd5b505050506040513d601f19601f82011682018060405250810190610f3c9190612ec1565b610f7b576040517f08c379a0000000000000000000000000000000000000000000000000000000008152600401610f7290612f3a565b60405180910390fd5b60008114611041578873ffffffffffffffffffffffffffffffffffffffff1663a9059cbb83836040518363ffffffff1660e01b8152600401610fbe929190612e60565b6020604051808303816000875af1158015610fdd573d6000803e3d6000fd5b505050506040513d601f19601f820116820180604052508101906110019190612ec1565b611040576040517f08c379a000000000000000000000000000000000000000000000000000000000815260040161103790612fcc565b60405180910390fd5b5b7f63ab63b6dade522b278971b21a2e05cf82c74fd32a9d8ceab8ada745d636fce087878a8d888a6003015460405161107e96959493929190612fec565b60405180910390a150505050506110936122e0565b5050505050565b603460009054906101000a900473ffffffffffffffffffffffffffffffffffffffff1681565b6110c8611fd7565b3373ffffffffffffffffffffffffffffffffffffffff16603360009054906101000a900473ffffffffffffffffffffffffffffffffffffffff1673ffffffffffffffffffffffffffffffffffffffff1614611158576040517f08c379a000000000000000000000000000000000000000000000000000000000815260040161114f906129c8565b60405180910390fd5b6000603660008373ffffffffffffffffffffffffffffffffffffffff1673ffffffffffffffffffffffffffffffffffffffff168152602001908152602001600020600086815260200190815260200160002060008573ffffffffffffffffffffffffffffffffffffffff1673ffffffffffffffffffffffffffffffffffffffff168152602001908152602001600020600084815260200190815260200160002090506002600481111561120e5761120d612726565b5b8160020160069054906101000a900460ff16600481111561123257611231612726565b5b14611272576040517f08c379a000000000000000000000000000000000000000000000000000000000815260040161126990612a34565b60405180910390fd5b6000603460009054906101000a900473ffffffffffffffffffffffffffffffffffffffff1673ffffffffffffffffffffffffffffffffffffffff1663805deb53876040518263ffffffff1660e01b81526004016112cf9190612583565b602060405180830381865afa1580156112ec573d6000803e3d6000fd5b505050506040513d601f19601f820116820180604052508101906113109190612a69565b90506000806000611397856000015486600601600001548760020160049054906101000a900461ffff1688600301548863ffffffff168a60050160009054906101000a900463ffffffff16428c600201600b9054906101000a900463ffffffff1663ffffffff168d60020160009054906101000a900463ffffffff1663ffffffff16612027565b9250925092506113b7898989898686878a6113b29190612ac5565b612058565b7f84c7770df3f99e97002dcefec130d50fd55f9c2a9908d9ab8fd1cd54f983fbd189888585856040516113ee95949392919061304d565b60405180910390a150505050506114036122e0565b50505050565b60355481565b60366020528360005260406000206020528260005260406000206020528160005260406000206020528060005260406000206000935093505050508060000154908060010154908060020160009054906101000a900463ffffffff16908060020160049054906101000a900461ffff16908060020160069054906101000a900460ff16908060020160079054906101000a900463ffffffff169080600201600b9054906101000a900463ffffffff16908060030154908060040154908060050160009054906101000a900463ffffffff1690806006016040518060400160405290816000820154815260200160018201548152505090508b565b611511611fd7565b6000603460009054906101000a900473ffffffffffffffffffffffffffffffffffffffff1673ffffffffffffffffffffffffffffffffffffffff1663da5de1a288336040518363ffffffff1660e01b81526004016115709291906130a0565b6040805180830381865afa15801561158c573d6000803e3d6000fd5b505050506040513d601f19601f820116820180604052508101906115b091906130ff565b509050806115f3576040517f08c379a00000000000000000000000000000000000000000000000000000000081526004016115ea9061318b565b60405180910390fd5b600073ffffffffffffffffffffffffffffffffffffffff168673ffffffffffffffffffffffffffffffffffffffff161415611663576040517f08c379a000000000000000000000000000000000000000000000000000000000815260040161165a9061321d565b60405180910390fd5b60008514156116a7576040517f08c379a000000000000000000000000000000000000000000000000000000000815260040161169e906132af565b60405180910390fd5b60003390504263ffffffff1683116116f4576040517f08c379a00000000000000000000000000000000000000000000000000000000081526004016116eb9061331b565b60405180910390fd5b600060355490506000603660008473ffffffffffffffffffffffffffffffffffffffff1673ffffffffffffffffffffffffffffffffffffffff16815260200190815260200160002060008b815260200190815260200160002060008a73ffffffffffffffffffffffffffffffffffffffff1673ffffffffffffffffffffffffffffffffffffffff16815260200190815260200160002060008381526020019081526020016000209050878160000181905550848160010181905550868160020160006101000a81548163ffffffff021916908363ffffffff160217905550858160020160046101000a81548161ffff021916908361ffff160217905550428160020160076101000a81548163ffffffff021916908363ffffffff16021790555060008160020160066101000a81548160ff0219169083600481111561183c5761183b612726565b5b02179055506000603460009054906101000a900473ffffffffffffffffffffffffffffffffffffffff1673ffffffffffffffffffffffffffffffffffffffff1662a5ae218c6040518263ffffffff1660e01b815260040161189d9190612583565b602060405180830381865afa1580156118ba573d6000803e3d6000fd5b505050506040513d601f19601f820116820180604052508101906118de9190612d94565b90508973ffffffffffffffffffffffffffffffffffffffff166323b872dd85838c6040518463ffffffff1660e01b815260040161191d9392919061333b565b6020604051808303816000875af115801561193c573d6000803e3d6000fd5b505050506040513d601f19601f820116820180604052508101906119609190612ec1565b61199f576040517f08c379a0000000000000000000000000000000000000000000000000000000008152600401611996906133be565b60405180910390fd5b603560008154809291906119b2906133de565b91905055508973ffffffffffffffffffffffffffffffffffffffff168b8573ffffffffffffffffffffffffffffffffffffffff167fca1a65c6e44368f649482154a26df2e509bcade5831a095555a4272599b5afc5868d604051611a17929190613427565b60405180910390a45050505050611a2c6122e0565b505050505050565b611a3c611fd7565b6000603660008373ffffffffffffffffffffffffffffffffffffffff1673ffffffffffffffffffffffffffffffffffffffff168152602001908152602001600020600086815260200190815260200160002060008573ffffffffffffffffffffffffffffffffffffffff1673ffffffffffffffffffffffffffffffffffffffff1681526020019081526020016000206000848152602001908152602001600020905060006004811115611af257611af1612726565b5b8160020160069054906101000a900460ff166004811115611b1657611b15612726565b5b14611b56576040517f08c379a0000000000000000000000000000000000000000000000000000000008152600401611b4d90612a34565b60405180910390fd5b3373ffffffffffffffffffffffffffffffffffffffff168273ffffffffffffffffffffffffffffffffffffffff1614611bc4576040517f08c379a0000000000000000000000000000000000000000000000000000000008152600401611bbb9061349c565b60405180910390fd5b4263ffffffff16816001015410611c10576040517f08c379a0000000000000000000000000000000000000000000000000000000008152600401611c0790613508565b60405180910390fd5b8373ffffffffffffffffffffffffffffffffffffffff1663a9059cbb8383600001546040518363ffffffff1660e01b8152600401611c4f929190612e60565b6020604051808303816000875af1158015611c6e573d6000803e3d6000fd5b505050506040513d601f19601f82011682018060405250810190611c929190612ec1565b611cd1576040517f08c379a0000000000000000000000000000000000000000000000000000000008152600401611cc890613574565b60405180910390fd5b60048160020160066101000a81548160ff02191690836004811115611cf957611cf8612726565b5b02179055507f75e161b3e824b114fc1a33274bd7091918dd4e639cede50b78b15a4eea956a218284878460000154604051611d379493929190613594565b60405180910390a150611d486122e0565b50505050565b600080603660008473ffffffffffffffffffffffffffffffffffffffff1673ffffffffffffffffffffffffffffffffffffffff168152602001908152602001600020600087815260200190815260200160002060008673ffffffffffffffffffffffffffffffffffffffff1673ffffffffffffffffffffffffffffffffffffffff1681526020019081526020016000206000858152602001908152602001600020905060026004811115611e0557611e04612726565b5b8160020160069054906101000a900460ff166004811115611e2957611e28612726565b5b14611e69576040517f08c379a0000000000000000000000000000000000000000000000000000000008152600401611e6090612a34565b60405180910390fd5b6000603460009054906101000a900473ffffffffffffffffffffffffffffffffffffffff1673ffffffffffffffffffffffffffffffffffffffff1663805deb53886040518263ffffffff1660e01b8152600401611ec69190612583565b602060405180830381865afa158015611ee3573d6000803e3d6000fd5b505050506040513d601f19601f82011682018060405250810190611f079190612a69565b9050600080611f8c846000015485600601600001548660020160049054906101000a900461ffff1687600301548763ffffffff168960050160009054906101000a900463ffffffff16428b600201600b9054906101000a900463ffffffff1663ffffffff168c60020160009054906101000a900463ffffffff1663ffffffff16612027565b925050915060008183611f9f9190612ac5565b90508095505050505050949350505050565b603360009054906101000a900473ffffffffffffffffffffffffffffffffffffffff1681565b6002600154141561201d576040517f08c379a000000000000000000000000000000000000000000000000000000000815260040161201490613625565b60405180910390fd5b6002600181905550565b60008060006120438c8c8c8c8c8c63ffffffff168c8c8c61230c565b92509250925099509950999650505050505050565b6000603660008673ffffffffffffffffffffffffffffffffffffffff1673ffffffffffffffffffffffffffffffffffffffff168152602001908152602001600020600089815260200190815260200160002060008873ffffffffffffffffffffffffffffffffffffffff1673ffffffffffffffffffffffffffffffffffffffff16815260200190815260200160002060008781526020019081526020016000209050600083856121089190612ac5565b905082811061217e5782905060038260020160066101000a81548160ff0219169083600481111561213c5761213b612726565b5b0217905550867f044e4ffaa963a008234a0fb6594c50a05f7b446bfe5b006fc943d89a21a9d3cc826040516121719190612583565b60405180910390a26121b7565b867f5cbcbe20d8ea4a0298a26fcffbb0f0b5ad3b5d8544bf621810bea582e40b539d826040516121ae9190612583565b60405180910390a25b8773ffffffffffffffffffffffffffffffffffffffff166323b872dd3388846040518463ffffffff1660e01b81526004016121f49392919061333b565b6020604051808303816000875af1158015612213573d6000803e3d6000fd5b505050506040513d601f19601f820116820180604052508101906122379190612ec1565b612276576040517f08c379a000000000000000000000000000000000000000000000000000000000815260040161226d90613691565b60405180910390fd5b8482600601600001600082825461228d9190612ac5565b92505081905550838260060160010160008282546122ab9190612ac5565b92505081905550428260050160006101000a81548163ffffffff021916908363ffffffff160217905550505050505050505050565b60018081905550565b6000808273ffffffffffffffffffffffffffffffffffffffff163b119050919050565b60008060008a8c61231d9190612e2c565b9250600061232b848c6123f5565b90506000888861233b9190612e2c565b90506301e13380818361234e91906136b1565b612358919061373a565b9250600087896123689190613775565b876123739190613775565b905060008b82128061239057508c858861238d9190612ac5565b11155b905060008161239f578d6123ac565b85886123ab9190612ac5565b5b905060008d85836123bd91906136b1565b6123c7919061373a565b90506123de87826123d89190612e2c565b8a61240f565b975050505050505099509950999650505050505050565b6000612407838361ffff166002612428565b905092915050565b600081831061241e5781612420565b825b905092915050565b600061243382612452565b838561243f91906136b1565b612449919061373a565b90509392505050565b600081600a612461919061393c565b606461246d91906136b1565b9050919050565b600080fd5b6000819050919050565b61248c81612479565b811461249757600080fd5b50565b6000813590506124a981612483565b92915050565b600073ffffffffffffffffffffffffffffffffffffffff82169050919050565b60006124da826124af565b9050919050565b6124ea816124cf565b81146124f557600080fd5b50565b600081359050612507816124e1565b92915050565b6000806000806080858703121561252757612526612474565b5b60006125358782880161249a565b9450506020612546878288016124f8565b93505060406125578782880161249a565b9250506060612568878288016124f8565b91505092959194509250565b61257d81612479565b82525050565b60006020820190506125986000830184612574565b92915050565b600080604083850312156125b5576125b4612474565b5b60006125c3858286016124f8565b92505060206125d4858286016124f8565b9150509250929050565b600080600080600060a086880312156125fa576125f9612474565b5b60006126088882890161249a565b9550506020612619888289016124f8565b945050604061262a8882890161249a565b935050606061263b888289016124f8565b925050608061264c888289016124f8565b9150509295509295909350565b612662816124cf565b82525050565b600060208201905061267d6000830184612659565b92915050565b6000806000806080858703121561269d5761269c612474565b5b60006126ab878288016124f8565b94505060206126bc8782880161249a565b93505060406126cd878288016124f8565b92505060606126de8782880161249a565b91505092959194509250565b600063ffffffff82169050919050565b612703816126ea565b82525050565b600061ffff82169050919050565b61272081612709565b82525050565b7f4e487b7100000000000000000000000000000000000000000000000000000000600052602160045260246000fd5b6005811061276657612765612726565b5b50565b600081905061277782612755565b919050565b600061278782612769565b9050919050565b6127978161277c565b82525050565b6127a681612479565b82525050565b6040820160008201516127c2600085018261279d565b5060208201516127d5602085018261279d565b50505050565b6000610180820190506127f1600083018e612574565b6127fe602083018d612574565b61280b604083018c6126fa565b612818606083018b612717565b612825608083018a61278e565b61283260a08301896126fa565b61283f60c08301886126fa565b61284c60e0830187612574565b61285a610100830186612574565b6128686101208301856126fa565b6128766101408301846127ac565b9c9b505050505050505050505050565b61288f816126ea565b811461289a57600080fd5b50565b6000813590506128ac81612886565b92915050565b6128bb81612709565b81146128c657600080fd5b50565b6000813590506128d8816128b2565b92915050565b60008060008060008060c087890312156128fb576128fa612474565b5b600061290989828a0161249a565b965050602061291a89828a016124f8565b955050604061292b89828a0161249a565b945050606061293c89828a0161289d565b935050608061294d89828a016128c9565b92505060a061295e89828a0161249a565b9150509295509295509295565b600082825260208201905092915050565b7f596f7520617265206e6f742074686520506f6f6c204f776e6572000000000000600082015250565b60006129b2601a8361296b565b91506129bd8261297c565b602082019050919050565b600060208201905081810360008301526129e1816129a5565b9050919050565b7f426964206d7573742062652070656e64696e6700000000000000000000000000600082015250565b6000612a1e60138361296b565b9150612a29826129e8565b602082019050919050565b60006020820190508181036000830152612a4d81612a11565b9050919050565b600081519050612a6381612886565b92915050565b600060208284031215612a7f57612a7e612474565b5b6000612a8d84828501612a54565b91505092915050565b7f4e487b7100000000000000000000000000000000000000000000000000000000600052601160045260246000fd5b6000612ad082612479565b9150612adb83612479565b9250827fffffffffffffffffffffffffffffffffffffffffffffffffffffffffffffffff03821115612b1057612b0f612a96565b5b828201905092915050565b6000608082019050612b306000830187612574565b612b3d6020830186612574565b612b4a6040830185612574565b612b576060830184612574565b95945050505050565b7f426964206d757374206265206163636570746564000000000000000000000000600082015250565b6000612b9660148361296b565b9150612ba182612b60565b602082019050919050565b60006020820190508181036000830152612bc581612b89565b9050919050565b7f496e697469616c697a61626c653a20636f6e747261637420697320616c72656160008201527f647920696e697469616c697a6564000000000000000000000000000000000000602082015250565b6000612c28602e8361296b565b9150612c3382612bcc565b604082019050919050565b60006020820190508181036000830152612c5781612c1b565b9050919050565b6000819050919050565b600060ff82169050919050565b6000819050919050565b6000612c9a612c95612c9084612c5e565b612c75565b612c68565b9050919050565b612caa81612c7f565b82525050565b6000602082019050612cc56000830184612ca1565b92915050565b612cd481612479565b82525050565b612ce3816126ea565b82525050565b612cf281612709565b82525050565b6000608082019050612d0d6000830187612ccb565b612d1a6020830186612cda565b612d276040830185612cda565b612d346060830184612ce9565b95945050505050565b600081519050612d4c81612483565b92915050565b600060208284031215612d6857612d67612474565b5b6000612d7684828501612d3d565b91505092915050565b600081519050612d8e816124e1565b92915050565b600060208284031215612daa57612da9612474565b5b6000612db884828501612d7f565b91505092915050565b600081519050612dd0816128b2565b92915050565b600060208284031215612dec57612deb612474565b5b6000612dfa84828501612dc1565b91505092915050565b6000604082019050612e186000830185612ccb565b612e256020830184612ce9565b9392505050565b6000612e3782612479565b9150612e4283612479565b925082821015612e5557612e54612a96565b5b828203905092915050565b6000604082019050612e756000830185612659565b612e826020830184612574565b9392505050565b60008115159050919050565b612e9e81612e89565b8114612ea957600080fd5b50565b600081519050612ebb81612e95565b92915050565b600060208284031215612ed757612ed6612474565b5b6000612ee584828501612eac565b91505092915050565b7f756e61626c6520746f207472616e7366657220746f2072656365697665720000600082015250565b6000612f24601e8361296b565b9150612f2f82612eee565b602082019050919050565b60006020820190508181036000830152612f5381612f17565b9050919050565b7f556e61626c6520746f207472616e7366657220746f2041636f6e6f6d794f776e60008201527f6572000000000000000000000000000000000000000000000000000000000000602082015250565b6000612fb660228361296b565b9150612fc182612f5a565b604082019050919050565b60006020820190508181036000830152612fe581612fa9565b9050919050565b600060c0820190506130016000830189612659565b61300e6020830188612659565b61301b6040830187612574565b6130286060830186612574565b6130356080830185612574565b61304260a0830184612574565b979650505050505050565b600060a0820190506130626000830188612574565b61306f6020830187612574565b61307c6040830186612574565b6130896060830185612574565b6130966080830184612574565b9695505050505050565b60006040820190506130b56000830185612574565b6130c26020830184612659565b9392505050565b6000819050919050565b6130dc816130c9565b81146130e757600080fd5b50565b6000815190506130f9816130d3565b92915050565b6000806040838503121561311657613115612474565b5b600061312485828601612eac565b9250506020613135858286016130ea565b9150509250929050565b7f4e6f74207665726966696564206c656e64657200000000000000000000000000600082015250565b600061317560138361296b565b91506131808261313f565b602082019050919050565b600060208201905081810360008301526131a481613168565b9050919050565b7f796f752063616e277420646f20746869732077697468207a65726f206164647260008201527f6573730000000000000000000000000000000000000000000000000000000000602082015250565b600061320760238361296b565b9150613212826131ab565b604082019050919050565b60006020820190508181036000830152613236816131fa565b9050919050565b7f596f752063616e277420737570706c792077697468207a65726f20616d6f756e60008201527f7400000000000000000000000000000000000000000000000000000000000000602082015250565b600061329960218361296b565b91506132a48261323d565b604082019050919050565b600060208201905081810360008301526132c88161328c565b9050919050565b7f77726f6e672074696d657374616d700000000000000000000000000000000000600082015250565b6000613305600f8361296b565b9150613310826132cf565b602082019050919050565b60006020820190508181036000830152613334816132f8565b9050919050565b60006060820190506133506000830186612659565b61335d6020830185612659565b61336a6040830184612574565b949350505050565b7f556e61626c6520746f2074616e7366657220746f20706f6f6c41646472657373600082015250565b60006133a860208361296b565b91506133b382613372565b602082019050919050565b600060208201905081810360008301526133d78161339b565b9050919050565b60006133e982612479565b91507fffffffffffffffffffffffffffffffffffffffffffffffffffffffffffffffff82141561341c5761341b612a96565b5b600182019050919050565b600060408201905061343c6000830185612574565b6134496020830184612574565b9392505050565b7f596f7520617265206e6f742061204c656e646572000000000000000000000000600082015250565b600061348660148361296b565b915061349182613450565b602082019050919050565b600060208201905081810360008301526134b581613479565b9050919050565b7f596f752063616e27742057697468647261770000000000000000000000000000600082015250565b60006134f260128361296b565b91506134fd826134bc565b602082019050919050565b60006020820190508181036000830152613521816134e5565b9050919050565b7f556e61626c6520746f207472616e7366657220746f206c656e64657200000000600082015250565b600061355e601c8361296b565b915061356982613528565b602082019050919050565b6000602082019050818103600083015261358d81613551565b9050919050565b60006080820190506135a96000830187612659565b6135b66020830186612574565b6135c36040830185612574565b6135d06060830184612574565b95945050505050565b7f5265656e7472616e637947756172643a207265656e7472616e742063616c6c00600082015250565b600061360f601f8361296b565b915061361a826135d9565b602082019050919050565b6000602082019050818103600083015261363e81613602565b9050919050565b7f756e61626c6520746f207472616e7366657220746f206c656e64657200000000600082015250565b600061367b601c8361296b565b915061368682613645565b602082019050919050565b600060208201905081810360008301526136aa8161366e565b9050919050565b60006136bc82612479565b91506136c783612479565b9250817fffffffffffffffffffffffffffffffffffffffffffffffffffffffffffffffff0483118215151615613700576136ff612a96565b5b828202905092915050565b7f4e487b7100000000000000000000000000000000000000000000000000000000600052601260045260246000fd5b600061374582612479565b915061375083612479565b9250826137605761375f61370b565b5b828204905092915050565b6000819050919050565b60006137808261376b565b915061378b8361376b565b9250827f8000000000000000000000000000000000000000000000000000000000000000018212600084121516156137c6576137c5612a96565b5b827f7fffffffffffffffffffffffffffffffffffffffffffffffffffffffffffffff0182136000841216156137fe576137fd612a96565b5b828203905092915050565b60008160011c9050919050565b6000808291508390505b60018511156138605780860481111561383c5761383b612a96565b5b600185161561384b5780820291505b808102905061385985613809565b9450613820565b94509492505050565b6000826138795760019050613935565b816138875760009050613935565b816001811461389d57600281146138a7576138d6565b6001915050613935565b60ff8411156138b9576138b8612a96565b5b8360020a9150848211156138d0576138cf612a96565b5b50613935565b5060208310610133831016604e8410600b841016171561390b5782820a90508381111561390657613905612a96565b5b613935565b6139188484846001613816565b9250905081840481111561392f5761392e612a96565b5b81810290505b9392505050565b600061394782612479565b915061395283612479565b925061397f7fffffffffffffffffffffffffffffffffffffffffffffffffffffffffffffffff8484613869565b90509291505056fea264697066735822122077263e8289fcac86eb59cc0c9bad1c4faa730d46bd0a72a6cce588503807ec2c64736f6c634300080b0033",
  "immutableReferences": {},
  "source": "// SPDX-License-Identifier: MIT\npragma solidity >=0.4.22 <0.9.0;\n\nimport \"./Libraries/LibPool.sol\";\n\nimport \"@openzeppelin/contracts-upgradeable/proxy/utils/Initializable.sol\";\nimport \"@openzeppelin/contracts/token/ERC20/IERC20.sol\";\nimport \"@openzeppelin/contracts-upgradeable/security/ReentrancyGuardUpgradeable.sol\";\nimport \"./Libraries/LibCalculations.sol\";\nimport \"./poolRegistry.sol\";\n\ncontract FundingPool is Initializable, ReentrancyGuardUpgradeable {\n\n    address public poolOwner;\n    address public poolRegistryAddress;\n\n    function initialize(\n        address _poolOwner,\n        address _poolRegistry\n    ) external initializer {\n        poolOwner = _poolOwner;\n        poolRegistryAddress = _poolRegistry;\n    }\n\n    uint256 public bidId = 0;\n\n    event BidRepaid(uint256 indexed bidId, uint256 PaidAmount);\n    event BidRepayment(uint256 indexed bidId, uint256 PaidAmount);\n\n    event BidAccepted(\n        address lender,\n        address reciever,\n        uint256 BidId,\n        uint256 PoolId,\n        uint256 Amount,\n        uint256 paymentCycleAmount\n    );\n\n    event Withdrawn(\n        address reciever,\n        uint256 BidId,\n        uint256 PoolId,\n        uint256 Amount\n    );\n\n    event SuppliedToPool(\n        address indexed lender,\n        uint256 indexed poolId,\n        uint256 BidId,\n        address indexed ERC20Token,\n        uint256 tokenAmount\n    );\n\n    event InstallmentRepaid(\n        uint256 poolId,\n        uint256 bidId,\n        uint256 owedAmount,\n        uint256 dueAmount,\n        uint256 interest\n    );\n\n    event FullAmountRepaid(\n        uint256 poolId,\n        uint256 bidId,\n        uint256 Amount,\n        uint256 interest\n    );\n\n    struct FundDetail {\n        uint256 amount;\n        uint256 expiration; //After expiration time, if owner dose not accept bid then lender can withdraw the fund\n        uint32 maxDuration; //Bid Duration\n        uint16 interestRate;\n        BidState state;\n        uint32 bidTimestamp;\n        uint32 acceptBidTimestamp;\n        uint256 paymentCycleAmount;\n        uint256 totalRepaidPrincipal;\n        uint32 lastRepaidTimestamp;\n        RePayment Repaid;\n    }\n\n    struct RePayment {\n        uint256 amount;\n        uint256 interest;\n    }\n\n    enum BidState {\n        PENDING,\n        CANCELLED,\n        ACCEPTED,\n        PAID,\n        WITHDRAWN\n    }\n\n    // Mapping of lender address => poolId => ERC20 token => BidId => FundDetail\n    mapping(address => mapping(uint256 => mapping(address => mapping(uint256 => FundDetail))))\n        public lenderPoolFundDetails;\n\n    //Supply to pool by lenders\n    function supplyToPool(\n        uint256 _poolId,\n        address _ERC20Address,\n        uint256 _amount,\n        uint32 _maxLoanDuration,\n        uint16 _interestRate,\n        uint256 _expiration\n    ) external nonReentrant {\n        (bool isVerified, ) = poolRegistry(poolRegistryAddress)\n            .lenderVerification(_poolId, msg.sender);\n\n        require(isVerified, \"Not verified lender\");\n\n        require(\n            _ERC20Address != address(0),\n            \"you can't do this with zero address\"\n        );\n\n        require(_amount != 0, \"You can't supply with zero amount\");\n\n        address lender = msg.sender;\n        require(_expiration > uint32(block.timestamp), \"wrong timestamp\");\n        uint256 _bidId = bidId;\n        FundDetail storage fundDetail = lenderPoolFundDetails[lender][_poolId][\n            _ERC20Address\n        ][_bidId];\n        fundDetail.amount = _amount;\n        fundDetail.expiration = _expiration;\n        fundDetail.maxDuration = _maxLoanDuration;\n        fundDetail.interestRate = _interestRate;\n        fundDetail.bidTimestamp = uint32(block.timestamp);\n\n        fundDetail.state = BidState.PENDING;\n\n        address _poolAddress = poolRegistry(poolRegistryAddress).getPoolAddress(\n            _poolId\n        );\n\n        // Send payment to the Pool\n        require(\n            IERC20(_ERC20Address).transferFrom(lender, _poolAddress, _amount),\n            \"Unable to tansfer to poolAddress\"\n        );\n        bidId++;\n\n        emit SuppliedToPool(lender, _poolId, _bidId, _ERC20Address, _amount);\n    }\n\n    function AcceptBid(\n        uint256 _poolId,\n        address _ERC20Address,\n        uint256 _bidId,\n        address _lender,\n        address _receiver\n    ) external nonReentrant {\n        require(poolOwner == msg.sender, \"You are not the Pool Owner\");\n        FundDetail storage fundDetail = lenderPoolFundDetails[_lender][_poolId][\n            _ERC20Address\n        ][_bidId];\n        if (fundDetail.state != BidState.PENDING) {\n            revert(\"Bid must be pending\");\n        }\n        fundDetail.acceptBidTimestamp = uint32(block.timestamp);\n        uint256 amount = fundDetail.amount;\n        fundDetail.state = BidState.ACCEPTED;\n        uint32 paymentCycle = poolRegistry(poolRegistryAddress)\n            .getPaymentCycleDuration(_poolId);\n\n        fundDetail.paymentCycleAmount = LibCalculations.payment(\n            amount,\n            fundDetail.maxDuration,\n            paymentCycle,\n            fundDetail.interestRate\n        );\n\n        address AconomyOwner = poolRegistry(poolRegistryAddress)\n            .getAconomyOwner();\n\n        //Aconomy Fee\n        uint256 amountToAconomy = LibCalculations.percent(\n            fundDetail.amount,\n            poolRegistry(poolRegistryAddress).getAconomyFee()\n        );\n\n        // transfering Amount to Owner\n        require(\n            IERC20(_ERC20Address).transfer(_receiver, amount - amountToAconomy),\n            \"unable to transfer to receiver\"\n        );\n\n        // transfering Amount to Protocol Owner\n        if (amountToAconomy != 0) {\n            require(\n                IERC20(_ERC20Address).transfer(AconomyOwner, amountToAconomy),\n                \"Unable to transfer to AconomyOwner\"\n            );\n        }\n\n        emit BidAccepted(\n            _lender,\n            _receiver,\n            _bidId,\n            _poolId,\n            amount,\n            fundDetail.paymentCycleAmount\n        );\n    }\n\n    function RepayInstallment(\n        uint256 _poolId,\n        address _ERC20Address,\n        uint256 _bidId,\n        address _lender\n    ) external nonReentrant {\n        require(poolOwner == msg.sender, \"You are not the Pool Owner\");\n        FundDetail storage fundDetail = lenderPoolFundDetails[_lender][_poolId][\n            _ERC20Address\n        ][_bidId];\n        if (fundDetail.state != BidState.ACCEPTED) {\n            revert(\"Bid must be pending\");\n        }\n\n        uint32 paymentCycle = poolRegistry(poolRegistryAddress)\n            .getPaymentCycleDuration(_poolId);\n\n        (\n            uint256 owedAmount,\n            uint256 dueAmount,\n            uint256 interest\n        ) = LibCalculations.calculateInstallmentAmount(\n                fundDetail.amount,\n                fundDetail.Repaid.amount,\n                fundDetail.interestRate,\n                fundDetail.paymentCycleAmount,\n                paymentCycle,\n                fundDetail.lastRepaidTimestamp,\n                block.timestamp,\n                fundDetail.acceptBidTimestamp,\n                fundDetail.maxDuration\n            );\n        _repayBid(\n            _poolId,\n            _ERC20Address,\n            _bidId,\n            _lender,\n            dueAmount,\n            interest,\n            owedAmount + interest\n        );\n\n        emit InstallmentRepaid(\n            _poolId,\n            _bidId,\n            owedAmount,\n            dueAmount,\n            interest\n        );\n    }\n\n    function viewInstallmentAmount(\n        uint256 _poolId,\n        address _ERC20Address,\n        uint256 _bidId,\n        address _lender\n    ) public view returns (uint256) {\n        FundDetail storage fundDetail = lenderPoolFundDetails[_lender][_poolId][\n            _ERC20Address\n        ][_bidId];\n        if (fundDetail.state != BidState.ACCEPTED) {\n            revert(\"Bid must be accepted\");\n        }\n        uint32 paymentCycle = poolRegistry(poolRegistryAddress)\n            .getPaymentCycleDuration(_poolId);\n\n        (, uint256 dueAmount, uint256 interest) = LibCalculations\n            .calculateInstallmentAmount(\n                fundDetail.amount,\n                fundDetail.Repaid.amount,\n                fundDetail.interestRate,\n                fundDetail.paymentCycleAmount,\n                paymentCycle,\n                fundDetail.lastRepaidTimestamp,\n                block.timestamp,\n                fundDetail.acceptBidTimestamp,\n                fundDetail.maxDuration\n            );\n        uint256 paymentAmount = dueAmount + interest;\n        return paymentAmount;\n    }\n\n    function viewFullRepayAmount(\n        uint256 _poolId,\n        address _ERC20Address,\n        uint256 _bidId,\n        address _lender\n    ) public view returns (uint256) {\n        FundDetail storage fundDetail = lenderPoolFundDetails[_lender][_poolId][\n            _ERC20Address\n        ][_bidId];\n        if (fundDetail.state != BidState.ACCEPTED) {\n            revert(\"Bid must be pending\");\n        }\n        uint32 paymentCycle = poolRegistry(poolRegistryAddress)\n            .getPaymentCycleDuration(_poolId);\n\n        (uint256 owedAmount, , uint256 interest) = LibCalculations\n            .calculateInstallmentAmount(\n                fundDetail.amount,\n                fundDetail.Repaid.amount,\n                fundDetail.interestRate,\n                fundDetail.paymentCycleAmount,\n                paymentCycle,\n                fundDetail.lastRepaidTimestamp,\n                block.timestamp,\n                fundDetail.acceptBidTimestamp,\n                fundDetail.maxDuration\n            );\n        uint256 paymentAmount = owedAmount + interest;\n        return paymentAmount;\n    }\n\n    function RepayFullAmount(\n        uint256 _poolId,\n        address _ERC20Address,\n        uint256 _bidId,\n        address _lender\n    ) external nonReentrant {\n        require(poolOwner == msg.sender, \"You are not the Pool Owner\");\n        FundDetail storage fundDetail = lenderPoolFundDetails[_lender][_poolId][\n            _ERC20Address\n        ][_bidId];\n        if (fundDetail.state != BidState.ACCEPTED) {\n            revert(\"Bid must be pending\");\n        }\n\n        uint32 paymentCycle = poolRegistry(poolRegistryAddress)\n            .getPaymentCycleDuration(_poolId);\n\n        (uint256 owedAmount, , uint256 interest) = LibCalculations\n            .calculateInstallmentAmount(\n                fundDetail.amount,\n                fundDetail.Repaid.amount,\n                fundDetail.interestRate,\n                fundDetail.paymentCycleAmount,\n                paymentCycle,\n                fundDetail.lastRepaidTimestamp,\n                block.timestamp,\n                fundDetail.acceptBidTimestamp,\n                fundDetail.maxDuration\n            );\n        _repayBid(\n            _poolId,\n            _ERC20Address,\n            _bidId,\n            _lender,\n            owedAmount,\n            interest,\n            owedAmount + interest\n        );\n\n        emit FullAmountRepaid(_poolId, _bidId, owedAmount, interest);\n    }\n\n    function _repayBid(\n        uint256 _poolId,\n        address _ERC20Address,\n        uint256 _bidId,\n        address _lender,\n        uint256 _amount,\n        uint256 _interest,\n        uint256 _owedAmount\n    ) internal {\n        FundDetail storage fundDetail = lenderPoolFundDetails[_lender][_poolId][\n            _ERC20Address\n        ][_bidId];\n\n        uint256 paymentAmount = _amount + _interest;\n\n        // Check if we are sending a payment or amount remaining\n        if (paymentAmount >= _owedAmount) {\n            paymentAmount = _owedAmount;\n\n            fundDetail.state = BidState.PAID;\n            emit BidRepaid(_bidId, paymentAmount);\n        } else {\n            emit BidRepayment(_bidId, paymentAmount);\n        }\n        // Send payment to the lender\n        require(\n            IERC20(_ERC20Address).transferFrom(\n                msg.sender,\n                _lender,\n                paymentAmount\n            ),\n            \"unable to transfer to lender\"\n        );\n\n        fundDetail.Repaid.amount += _amount;\n        fundDetail.Repaid.interest += _interest;\n        fundDetail.lastRepaidTimestamp = uint32(block.timestamp);\n    }\n\n    function Withdraw(\n        uint256 _poolId,\n        address _ERC20Address,\n        uint256 _bidId,\n        address _lender\n    ) external nonReentrant {\n        FundDetail storage fundDetail = lenderPoolFundDetails[_lender][_poolId][\n            _ERC20Address\n        ][_bidId];\n\n        if (fundDetail.state != BidState.PENDING) {\n            revert(\"Bid must be pending\");\n        }\n\n        // Check is lender the calling the function\n        if (_lender != msg.sender) {\n            revert(\"You are not a Lender\");\n        }\n\n        require(\n            fundDetail.expiration < uint32(block.timestamp),\n            \"You can't Withdraw\"\n        );\n\n        // Transfering the amount to the lender\n        require(\n            IERC20(_ERC20Address).transfer(_lender, fundDetail.amount),\n            \"Unable to transfer to lender\"\n        );\n\n        fundDetail.state = BidState.WITHDRAWN;\n\n        emit Withdrawn(_lender, _bidId, _poolId, fundDetail.amount);\n    }\n}\n",
  "sourcePath": "/home/sheeshco/code/truffle/aconomy-contract/contracts/FundingPool.sol",
  "compiler": {
    "name": "solc",
    "version": "0.8.11+commit.d7f03943.Emscripten.clang"
  },
  "schemaVersion": "3.4.10",
  "updatedAt": "2023-03-17T06:00:03.372Z",
  "devdoc": {
    "kind": "dev",
    "methods": {},
    "version": 1
  },
  "userdoc": {
    "kind": "user",
    "methods": {},
    "version": 1
  }
}