{
  "contractName": "LibCalculations",
  "abi": [
    {
      "inputs": [
        {
          "internalType": "uint256",
          "name": "self",
          "type": "uint256"
        },
        {
          "internalType": "uint16",
          "name": "percentage",
          "type": "uint16"
        }
      ],
      "name": "percent",
      "outputs": [
        {
          "internalType": "uint256",
          "name": "",
          "type": "uint256"
        }
      ],
      "stateMutability": "pure",
      "type": "function"
    },
    {
      "inputs": [
        {
          "internalType": "uint256",
          "name": "principal",
          "type": "uint256"
        },
        {
          "internalType": "uint32",
          "name": "loanDuration",
          "type": "uint32"
        },
        {
          "internalType": "uint32",
          "name": "cycleDuration",
          "type": "uint32"
        },
        {
          "internalType": "uint16",
          "name": "apr",
          "type": "uint16"
        }
      ],
      "name": "payment",
      "outputs": [
        {
          "internalType": "uint256",
          "name": "",
          "type": "uint256"
        }
      ],
      "stateMutability": "pure",
      "type": "function"
    }
  ],
  "bytecode": "0x610b6c610053600b82828239805160001a607314610046577f4e487b7100000000000000000000000000000000000000000000000000000000600052600060045260246000fd5b30600052607381538281f3fe73000000000000000000000000000000000000000030146080604052600436106100405760003560e01c80632872a887146100455780633fb3400314610075575b600080fd5b61005f600480360381019061005a9190610697565b6100a5565b60405161006c919061070d565b60405180910390f35b61008f600480360381019061008a9190610728565b610203565b60405161009c919061070d565b60405180910390f35b60008263ffffffff168463ffffffff1610156100f6576040517f08c379a00000000000000000000000000000000000000000000000000000000081526004016100ed906107c5565b60405180910390fd5b60008261ffff1614156101235761011c858463ffffffff168663ffffffff16600161021d565b90506101fb565b600061013b8563ffffffff168563ffffffff16610293565b905060006101476102d0565b905060006101826301da9c006101748863ffffffff16610166896102e0565b61031c90919063ffffffff16565b61037990919063ffffffff16565b905060006101a48483856101969190610814565b6103d390919063ffffffff16565b905060006101cd826101bf858d61031c90919063ffffffff16565b61031c90919063ffffffff16565b9050600084836101dd919061086a565b90506101f2818361037990919063ffffffff16565b96505050505050505b949350505050565b6000610215838361ffff1660026103f3565b905092915050565b60008061022b86868661041d565b9050600160028111156102415761024061089e565b5b8360028111156102545761025361089e565b5b14801561027257506000848061026d5761026c6108cd565b5b868809115b15610287576001816102849190610814565b90505b80915050949350505050565b60008083146102c5576001826001856102ac919061086a565b6102b691906108fc565b6102c09190610814565b6102c8565b60005b905092915050565b6000670de0b6b3a7640000905090565b6000610315612710610307670de0b6b3a76400008561ffff166104f990919063ffffffff16565b61050f90919063ffffffff16565b9050919050565b6000610371670de0b6b3a764000061036361034085876104f990919063ffffffff16565b6002670de0b6b3a764000061035591906108fc565b61052590919063ffffffff16565b61050f90919063ffffffff16565b905092915050565b60008060028361038991906108fc565b90506103ca836103bc6103ad670de0b6b3a7640000886104f990919063ffffffff16565b8461052590919063ffffffff16565b61050f90919063ffffffff16565b91505092915050565b60006103eb8383670de0b6b3a764000061031c61053b565b905092915050565b60006103fe826105c4565b838561040a919061092d565b61041491906108fc565b90509392505050565b6000806000801985870985870292508281108382030391505060008114156104595783828161044f5761044e6108cd565b5b04925050506104f2565b80841161046557600080fd5b60008486880990508281118203915080830392506000600186190186169050808604955080840493506001818260000304019050808302841793506000600287600302189050808702600203810290508087026002038102905080870260020381029050808702600203810290508087026002038102905080870260020381029050808502955050505050505b9392505050565b60008183610507919061092d565b905092915050565b6000818361051d91906108fc565b905092915050565b600081836105339190610814565b905092915050565b60008060028561054b9190610987565b14156105575782610559565b845b905060028461056891906108fc565b93505b600084146105bc5761058185868463ffffffff16565b945060006002856105929190610987565b146105a8576105a581868463ffffffff16565b90505b6002846105b591906108fc565b935061056b565b949350505050565b600081600a6105d39190610aeb565b60646105df919061092d565b9050919050565b600080fd5b6000819050919050565b6105fe816105eb565b811461060957600080fd5b50565b60008135905061061b816105f5565b92915050565b600063ffffffff82169050919050565b61063a81610621565b811461064557600080fd5b50565b60008135905061065781610631565b92915050565b600061ffff82169050919050565b6106748161065d565b811461067f57600080fd5b50565b6000813590506106918161066b565b92915050565b600080600080608085870312156106b1576106b06105e6565b5b60006106bf8782880161060c565b94505060206106d087828801610648565b93505060406106e187828801610648565b92505060606106f287828801610682565b91505092959194509250565b610707816105eb565b82525050565b600060208201905061072260008301846106fe565b92915050565b6000806040838503121561073f5761073e6105e6565b5b600061074d8582860161060c565b925050602061075e85828601610682565b9150509250929050565b600082825260208201905092915050565b7f6379636c65203c206475726174696f6e00000000000000000000000000000000600082015250565b60006107af601083610768565b91506107ba82610779565b602082019050919050565b600060208201905081810360008301526107de816107a2565b9050919050565b7f4e487b7100000000000000000000000000000000000000000000000000000000600052601160045260246000fd5b600061081f826105eb565b915061082a836105eb565b9250827fffffffffffffffffffffffffffffffffffffffffffffffffffffffffffffffff0382111561085f5761085e6107e5565b5b828201905092915050565b6000610875826105eb565b9150610880836105eb565b925082821015610893576108926107e5565b5b828203905092915050565b7f4e487b7100000000000000000000000000000000000000000000000000000000600052602160045260246000fd5b7f4e487b7100000000000000000000000000000000000000000000000000000000600052601260045260246000fd5b6000610907826105eb565b9150610912836105eb565b925082610922576109216108cd565b5b828204905092915050565b6000610938826105eb565b9150610943836105eb565b9250817fffffffffffffffffffffffffffffffffffffffffffffffffffffffffffffffff048311821515161561097c5761097b6107e5565b5b828202905092915050565b6000610992826105eb565b915061099d836105eb565b9250826109ad576109ac6108cd565b5b828206905092915050565b60008160011c9050919050565b6000808291508390505b6001851115610a0f578086048111156109eb576109ea6107e5565b5b60018516156109fa5780820291505b8081029050610a08856109b8565b94506109cf565b94509492505050565b600082610a285760019050610ae4565b81610a365760009050610ae4565b8160018114610a4c5760028114610a5657610a85565b6001915050610ae4565b60ff841115610a6857610a676107e5565b5b8360020a915084821115610a7f57610a7e6107e5565b5b50610ae4565b5060208310610133831016604e8410600b8410161715610aba5782820a905083811115610ab557610ab46107e5565b5b610ae4565b610ac784848460016109c5565b92509050818404811115610ade57610add6107e5565b5b81810290505b9392505050565b6000610af6826105eb565b9150610b01836105eb565b9250610b2e7fffffffffffffffffffffffffffffffffffffffffffffffffffffffffffffffff8484610a18565b90509291505056fea2646970667358221220c00b33a2eafa73fd33dea415c68b999dd2e4eb5319a5e6071c2cf709ec89eaa564736f6c634300080b0033",
  "immutableReferences": {},
  "source": "// SPDX-License-Identifier: MIT\npragma solidity >=0.4.22 <0.9.0;\n\nimport {SafeCast} from \"@openzeppelin/contracts/utils/math/SafeCast.sol\";\nimport \"@openzeppelin/contracts/utils/math/SafeCast.sol\";\nimport \"@openzeppelin/contracts/utils/math/SafeMath.sol\";\nimport \"@openzeppelin/contracts/utils/math/Math.sol\";\nimport \"./WadRayMath.sol\";\nimport \"../poolAddress.sol\";\n\nlibrary LibCalculations {\n    using WadRayMath for uint256;\n\n    uint256 internal constant WAD = 1e18;\n\n    function percentFactor(uint256 decimals) internal pure returns (uint256) {\n        return 100 * (10**decimals);\n    }\n\n    /**\n     * Returns a percentage value of a number.\n     self The number to get a percentage of.\n     percentage The percentage value to calculate with 2 decimal places (10000 = 100%).\n     */\n    function percent(uint256 self, uint16 percentage)\n        public\n        pure\n        returns (uint256)\n    {\n        return percent(self, percentage, 2);\n    }\n\n    /**\n     * Returns a percentage value of a number.\n     self The number to get a percentage of.\n     percentage The percentage value to calculate with.\n     decimals The number of decimals the percentage value is in.\n     */\n    function percent(\n        uint256 self,\n        uint256 percentage,\n        uint256 decimals\n    ) internal pure returns (uint256) {\n        return (self * percentage) / percentFactor(decimals);\n    }\n\n    function payment(\n        uint256 principal,\n        uint32 loanDuration,\n        uint32 cycleDuration,\n        uint16 apr\n    ) public pure returns (uint256) {\n        require(\n            loanDuration >= cycleDuration,\n            \"cycle < duration\"\n        );\n        if (apr == 0)\n            return\n                Math.mulDiv(\n                    principal,\n                    cycleDuration,\n                    loanDuration,\n                    Math.Rounding.Up\n                );\n\n        // Number of payment cycles for the duration of the loan\n        uint256 n = Math.ceilDiv(loanDuration, cycleDuration);\n\n        uint256 one = WadRayMath.wad();\n        uint256 r = WadRayMath.pctToWad(apr).wadMul(cycleDuration).wadDiv(\n            360 days\n        );\n        uint256 exp = (one + r).wadPow(n);\n        uint256 numerator = principal.wadMul(r).wadMul(exp);\n        uint256 denominator = exp - one;\n\n        return numerator.wadDiv(denominator);\n    }\n\n    function lastRepaidTimestamp(poolAddress.Loan storage _loan)\n        internal\n        view\n        returns (uint32)\n    {\n        return\n            _loan.loanDetails.lastRepaidTimestamp == 0\n                ? _loan.loanDetails.acceptedTimestamp\n                : _loan.loanDetails.lastRepaidTimestamp;\n    }\n\n    function calculateInstallmentAmount(\n        uint256 amount,\n        uint256 leftAmount,\n        uint16 interestRate,\n        uint256 paymentCycleAmount,\n        uint256 paymentCycle,\n        uint32 _lastRepaidTimestamp,\n        uint256 timestamp,\n        uint256 acceptBidTimestamp,\n        uint256 maxDuration\n    )\n        internal\n        pure\n        returns (\n            uint256 owedPrincipal_,\n            uint256 duePrincipal_,\n            uint256 interest_\n        )\n    {\n        return\n            calculateOwedAmount(\n                amount,\n                leftAmount,\n                interestRate,\n                paymentCycleAmount,\n                paymentCycle,\n                _lastRepaidTimestamp,\n                timestamp,\n                acceptBidTimestamp,\n                maxDuration\n            );\n    }\n\n    function owedAmount(poolAddress.Loan storage _loan, uint256 _timestamp)\n        internal\n        view\n        returns (\n            uint256 owedPrincipal_,\n            uint256 duePrincipal_,\n            uint256 interest_\n        )\n    {\n        // Total Amount left to pay\n        return\n            calculateOwedAmount(\n                _loan.loanDetails.principal,\n                _loan.loanDetails.totalRepaid.principal,\n                _loan.terms.APR,\n                _loan.terms.paymentCycleAmount,\n                _loan.terms.paymentCycle,\n                lastRepaidTimestamp(_loan),\n                _timestamp,\n                _loan.loanDetails.acceptedTimestamp,\n                _loan.loanDetails.loanDuration\n            );\n    }\n\n    function calculateOwedAmount(\n        uint256 principal,\n        uint256 totalRepaidPrincipal,\n        uint16 _interestRate,\n        uint256 _paymentCycleAmount,\n        uint256 _paymentCycle,\n        uint256 _lastRepaidTimestamp,\n        uint256 _timestamp,\n        uint256 _startTimestamp,\n        uint256 _loanDuration\n    )\n        internal\n        pure\n        returns (\n            uint256 owedPrincipal_,\n            uint256 duePrincipal_,\n            uint256 interest_\n        )\n    {\n        owedPrincipal_ = principal - totalRepaidPrincipal;\n\n        uint256 interestInAYear = percent(owedPrincipal_, _interestRate);\n        uint256 owedTime = _timestamp - uint256(_lastRepaidTimestamp);\n        interest_ = (interestInAYear * owedTime) / 360 days;\n\n        // Cast to int265 to avoid underflow errors (negative means loan duration has passed)\n        int256 durationLeftOnLoan = int256(uint256(_loanDuration)) -\n            (int256(_timestamp) - int256(uint256(_startTimestamp)));\n        bool isLastPaymentCycle = durationLeftOnLoan < int256(uint256(_paymentCycle)) || // Check if current payment cycle is within or beyond the last one\n            owedPrincipal_ + interest_ <= _paymentCycleAmount; // Check if what is left to pay is less than the payment cycle amount\n\n        // Max payable amount in a cycle\n        // NOTE: the last cycle could have less than the calculated payment amount\n        uint256 maxCycleOwed = isLastPaymentCycle\n            ? owedPrincipal_ + interest_\n            : _paymentCycleAmount;\n\n        // Calculate accrued amount due since last repayment\n        uint256 Amount = (maxCycleOwed * owedTime) / _paymentCycle;\n        duePrincipal_ = Math.min(Amount - interest_, owedPrincipal_);\n    }\n}",
  "sourcePath": "/home/sheeshco/code/truffle/aconomy-contract/contracts/Libraries/LibCalculations.sol",
  "compiler": {
    "name": "solc",
    "version": "0.8.11+commit.d7f03943.Emscripten.clang"
  },
  "schemaVersion": "3.4.10",
  "updatedAt": "2023-03-22T06:48:23.810Z",
  "devdoc": {
    "kind": "dev",
    "methods": {},
    "version": 1
  },
  "userdoc": {
    "kind": "user",
    "methods": {
      "percent(uint256,uint16)": {
        "notice": "Returns a percentage value of a number. self The number to get a percentage of. percentage The percentage value to calculate with 2 decimal places (10000 = 100%)."
      }
    },
    "version": 1
  }
}