{
  "contractName": "NFTlendingBorrowing",
  "abi": [
    {
      "inputs": [
        {
          "internalType": "address",
          "name": "_aconomyFee",
          "type": "address"
        }
      ],
      "stateMutability": "nonpayable",
      "type": "constructor"
    },
    {
      "anonymous": false,
      "inputs": [
        {
          "indexed": false,
          "internalType": "uint256",
          "name": "NFTid",
          "type": "uint256"
        },
        {
          "indexed": false,
          "internalType": "uint256",
          "name": "BidId",
          "type": "uint256"
        },
        {
          "indexed": false,
          "internalType": "uint256",
          "name": "Amount",
          "type": "uint256"
        },
        {
          "indexed": false,
          "internalType": "uint256",
          "name": "ProtocolAmount",
          "type": "uint256"
        }
      ],
      "name": "AcceptedBid",
      "type": "event"
    },
    {
      "anonymous": false,
      "inputs": [
        {
          "indexed": false,
          "internalType": "uint256",
          "name": "BidId",
          "type": "uint256"
        },
        {
          "indexed": false,
          "internalType": "uint256",
          "name": "NFTid",
          "type": "uint256"
        }
      ],
      "name": "AppliedBid",
      "type": "event"
    },
    {
      "anonymous": false,
      "inputs": [
        {
          "indexed": false,
          "internalType": "uint256",
          "name": "NFTid",
          "type": "uint256"
        },
        {
          "indexed": false,
          "internalType": "uint32",
          "name": "Duration",
          "type": "uint32"
        }
      ],
      "name": "DurationSet",
      "type": "event"
    },
    {
      "anonymous": false,
      "inputs": [
        {
          "indexed": false,
          "internalType": "uint256",
          "name": "NFTid",
          "type": "uint256"
        },
        {
          "indexed": false,
          "internalType": "uint256",
          "name": "expectedAmount",
          "type": "uint256"
        }
      ],
      "name": "ExpectedAmountSet",
      "type": "event"
    },
    {
      "anonymous": false,
      "inputs": [
        {
          "indexed": false,
          "internalType": "uint256",
          "name": "NFTId",
          "type": "uint256"
        }
      ],
      "name": "NFTRemoved",
      "type": "event"
    },
    {
      "anonymous": false,
      "inputs": [
        {
          "indexed": false,
          "internalType": "uint256",
          "name": "NFTid",
          "type": "uint256"
        },
        {
          "indexed": false,
          "internalType": "uint256",
          "name": "TokenId",
          "type": "uint256"
        },
        {
          "indexed": false,
          "internalType": "address",
          "name": "ContractAddress",
          "type": "address"
        }
      ],
      "name": "NFTlisted",
      "type": "event"
    },
    {
      "anonymous": false,
      "inputs": [
        {
          "indexed": false,
          "internalType": "uint256",
          "name": "NFTid",
          "type": "uint256"
        },
        {
          "indexed": false,
          "internalType": "uint16",
          "name": "Percent",
          "type": "uint16"
        }
      ],
      "name": "PercentSet",
      "type": "event"
    },
    {
      "anonymous": false,
      "inputs": [
        {
          "indexed": false,
          "internalType": "uint256",
          "name": "NFTid",
          "type": "uint256"
        },
        {
          "indexed": false,
          "internalType": "uint256",
          "name": "BidId",
          "type": "uint256"
        },
        {
          "indexed": false,
          "internalType": "uint256",
          "name": "Amount",
          "type": "uint256"
        }
      ],
      "name": "Withdrawn",
      "type": "event"
    },
    {
      "anonymous": false,
      "inputs": [
        {
          "indexed": false,
          "internalType": "uint256",
          "name": "NFTid",
          "type": "uint256"
        },
        {
          "indexed": false,
          "internalType": "uint256",
          "name": "BidId",
          "type": "uint256"
        },
        {
          "indexed": false,
          "internalType": "uint256",
          "name": "Amount",
          "type": "uint256"
        }
      ],
      "name": "repaid",
      "type": "event"
    },
    {
      "inputs": [
        {
          "internalType": "uint256",
          "name": "",
          "type": "uint256"
        },
        {
          "internalType": "uint256",
          "name": "",
          "type": "uint256"
        }
      ],
      "name": "Bids",
      "outputs": [
        {
          "internalType": "uint256",
          "name": "bidId",
          "type": "uint256"
        },
        {
          "internalType": "uint16",
          "name": "percent",
          "type": "uint16"
        },
        {
          "internalType": "uint32",
          "name": "duration",
          "type": "uint32"
        },
        {
          "internalType": "uint256",
          "name": "expiration",
          "type": "uint256"
        },
        {
          "internalType": "address",
          "name": "bidderAddress",
          "type": "address"
        },
        {
          "internalType": "address",
          "name": "ERC20Address",
          "type": "address"
        },
        {
          "internalType": "uint256",
          "name": "Amount",
          "type": "uint256"
        },
        {
          "internalType": "bool",
          "name": "withdrawn",
          "type": "bool"
        },
        {
          "internalType": "bool",
          "name": "bidAccepted",
          "type": "bool"
        }
      ],
      "stateMutability": "view",
      "type": "function"
    },
    {
      "inputs": [
        {
          "internalType": "uint256",
          "name": "",
          "type": "uint256"
        }
      ],
      "name": "NFTdetails",
      "outputs": [
        {
          "internalType": "uint256",
          "name": "NFTtokenId",
          "type": "uint256"
        },
        {
          "internalType": "address",
          "name": "tokenIdOwner",
          "type": "address"
        },
        {
          "internalType": "address",
          "name": "contractAddress",
          "type": "address"
        },
        {
          "internalType": "uint32",
          "name": "duration",
          "type": "uint32"
        },
        {
          "internalType": "uint256",
          "name": "expectedAmount",
          "type": "uint256"
        },
        {
          "internalType": "uint16",
          "name": "percent",
          "type": "uint16"
        },
        {
          "internalType": "bool",
          "name": "listed",
          "type": "bool"
        },
        {
          "internalType": "bool",
          "name": "bidAccepted",
          "type": "bool"
        },
        {
          "internalType": "bool",
          "name": "repaid",
          "type": "bool"
        }
      ],
      "stateMutability": "view",
      "type": "function"
    },
    {
      "inputs": [],
      "name": "NFTid",
      "outputs": [
        {
          "internalType": "uint256",
          "name": "",
          "type": "uint256"
        }
      ],
      "stateMutability": "view",
      "type": "function"
    },
    {
      "inputs": [
        {
          "internalType": "address",
          "name": "",
          "type": "address"
        },
        {
          "internalType": "address",
          "name": "",
          "type": "address"
        },
        {
          "internalType": "uint256",
          "name": "",
          "type": "uint256"
        },
        {
          "internalType": "bytes",
          "name": "",
          "type": "bytes"
        }
      ],
      "name": "onERC721Received",
      "outputs": [
        {
          "internalType": "bytes4",
          "name": "",
          "type": "bytes4"
        }
      ],
      "stateMutability": "nonpayable",
      "type": "function"
    },
    {
      "inputs": [
        {
          "internalType": "uint256",
          "name": "_tokenId",
          "type": "uint256"
        },
        {
          "internalType": "address",
          "name": "_contractAddress",
          "type": "address"
        },
        {
          "internalType": "uint16",
          "name": "_percent",
          "type": "uint16"
        },
        {
          "internalType": "uint32",
          "name": "_duration",
          "type": "uint32"
        },
        {
          "internalType": "uint256",
          "name": "_expectedAmount",
          "type": "uint256"
        }
      ],
      "name": "listNFTforBorrowing",
      "outputs": [
        {
          "internalType": "uint256",
          "name": "_NFTid",
          "type": "uint256"
        }
      ],
      "stateMutability": "nonpayable",
      "type": "function"
    },
    {
      "inputs": [
        {
          "internalType": "uint256",
          "name": "_NFTid",
          "type": "uint256"
        },
        {
          "internalType": "uint16",
          "name": "_percent",
          "type": "uint16"
        }
      ],
      "name": "setPercent",
      "outputs": [],
      "stateMutability": "nonpayable",
      "type": "function"
    },
    {
      "inputs": [
        {
          "internalType": "uint256",
          "name": "_NFTid",
          "type": "uint256"
        },
        {
          "internalType": "uint32",
          "name": "_duration",
          "type": "uint32"
        }
      ],
      "name": "setDurationTime",
      "outputs": [],
      "stateMutability": "nonpayable",
      "type": "function"
    },
    {
      "inputs": [
        {
          "internalType": "uint256",
          "name": "_NFTid",
          "type": "uint256"
        },
        {
          "internalType": "uint256",
          "name": "_expectedAmount",
          "type": "uint256"
        }
      ],
      "name": "setExpectedAmount",
      "outputs": [],
      "stateMutability": "nonpayable",
      "type": "function"
    },
    {
      "inputs": [
        {
          "internalType": "uint256",
          "name": "_NFTid",
          "type": "uint256"
        },
        {
          "internalType": "uint256",
          "name": "_bidAmount",
          "type": "uint256"
        },
        {
          "internalType": "address",
          "name": "_ERC20Address",
          "type": "address"
        },
        {
          "internalType": "uint16",
          "name": "_percent",
          "type": "uint16"
        },
        {
          "internalType": "uint32",
          "name": "_duration",
          "type": "uint32"
        },
        {
          "internalType": "uint256",
          "name": "_expiration",
          "type": "uint256"
        }
      ],
      "name": "Bid",
      "outputs": [],
      "stateMutability": "nonpayable",
      "type": "function"
    },
    {
      "inputs": [
        {
          "internalType": "uint256",
          "name": "_NFTid",
          "type": "uint256"
        },
        {
          "internalType": "uint256",
          "name": "_bidId",
          "type": "uint256"
        }
      ],
      "name": "AcceptBid",
      "outputs": [],
      "stateMutability": "nonpayable",
      "type": "function"
    },
    {
      "inputs": [
        {
          "internalType": "uint256",
          "name": "_NFTid",
          "type": "uint256"
        },
        {
          "internalType": "uint256",
          "name": "_bidId",
          "type": "uint256"
        }
      ],
      "name": "Repay",
      "outputs": [],
      "stateMutability": "nonpayable",
      "type": "function"
    },
    {
      "inputs": [
        {
          "internalType": "uint256",
          "name": "_NFTid",
          "type": "uint256"
        },
        {
          "internalType": "uint256",
          "name": "_bidId",
          "type": "uint256"
        }
      ],
      "name": "withdraw",
      "outputs": [],
      "stateMutability": "nonpayable",
      "type": "function"
    },
    {
      "inputs": [
        {
          "internalType": "uint256",
          "name": "_NFTid",
          "type": "uint256"
        }
      ],
      "name": "removeNFTfromList",
      "outputs": [],
      "stateMutability": "nonpayable",
      "type": "function"
    }
  ],
  "bytecode": "0x60806040523480156200001157600080fd5b50604051620039e9380380620039e98339818101604052810190620000379190620000f1565b600160008190555080600260006101000a81548173ffffffffffffffffffffffffffffffffffffffff021916908373ffffffffffffffffffffffffffffffffffffffff1602179055505062000123565b600080fd5b600073ffffffffffffffffffffffffffffffffffffffff82169050919050565b6000620000b9826200008c565b9050919050565b620000cb81620000ac565b8114620000d757600080fd5b50565b600081519050620000eb81620000c0565b92915050565b6000602082840312156200010a576200010962000087565b5b60006200011a84828501620000da565b91505092915050565b6138b680620001336000396000f3fe608060405234801561001057600080fd5b50600436106100cf5760003560e01c8063552544cb1161008c578063a7f323da11610066578063a7f323da14610214578063ac6224ae1461024c578063e1617b2914610268578063e37fc17a14610286576100cf565b8063552544cb146101c05780637e7e45b1146101dc5780638fe3c5b9146101f8576100cf565b806302ef3725146100d45780630de864ac146100f0578063150b7a0214610120578063236169b01461015057806331c173e214610188578063441a3e70146101a4575b600080fd5b6100ee60048036038101906100e99190612476565b6102a2565b005b61010a60048036038101906101059190612550565b6103ea565b60405161011791906125da565b60405180910390f35b61013a6004803603810190610135919061273b565b61079a565b60405161014791906127f9565b60405180910390f35b61016a60048036038101906101659190612814565b6107ae565b60405161017f99989796959493929190612889565b60405180910390f35b6101a2600480360381019061019d9190612916565b610881565b005b6101be60048036038101906101b99190612916565b6110a6565b005b6101da60048036038101906101d59190612916565b611434565b005b6101f660048036038101906101f19190612956565b61197d565b005b610212600480360381019061020d9190612996565b611acf565b005b61022e60048036038101906102299190612916565b611f94565b60405161024399989796959493929190612a23565b60405180910390f35b61026660048036038101906102619190612916565b612077565b005b610270612193565b60405161027d91906125da565b60405180910390f35b6102a0600480360381019061029b9190612814565b612199565b005b813373ffffffffffffffffffffffffffffffffffffffff166003600083815260200190815260200160002060010160009054906101000a900473ffffffffffffffffffffffffffffffffffffffff1673ffffffffffffffffffffffffffffffffffffffff1614610347576040517f08c379a000000000000000000000000000000000000000000000000000000000815260040161033e90612b0d565b60405180910390fd5b6003600084815260200190815260200160002060040160009054906101000a900461ffff1661ffff168261ffff16146103e557816003600085815260200190815260200160002060040160006101000a81548161ffff021916908361ffff1602179055507ffd8e2575e33cc5cabe9a522f5bab3c33a5b606c0331275c917eefd77287bfe8783836040516103dc929190612b2d565b60405180910390a15b505050565b600084868173ffffffffffffffffffffffffffffffffffffffff16636352211e826040518263ffffffff1660e01b815260040161042791906125da565b602060405180830381865afa158015610444573d6000803e3d6000fd5b505050506040513d601f19601f820116820180604052508101906104689190612b6b565b73ffffffffffffffffffffffffffffffffffffffff163373ffffffffffffffffffffffffffffffffffffffff16146104d5576040517f08c379a00000000000000000000000000000000000000000000000000000000081526004016104cc90612be4565b60405180910390fd5b6104dd612398565b600073ffffffffffffffffffffffffffffffffffffffff168773ffffffffffffffffffffffffffffffffffffffff16141561054d576040517f08c379a000000000000000000000000000000000000000000000000000000000815260040161054490612c76565b60405180910390fd5b60016000815461055c90612cc5565b919050819055925060006040518061012001604052808a81526020013373ffffffffffffffffffffffffffffffffffffffff1681526020018973ffffffffffffffffffffffffffffffffffffffff1681526020018763ffffffff1681526020018681526020018861ffff16815260200160011515815260200160001515815260200160001515815250905080600360008681526020019081526020016000206000820151816000015560208201518160010160006101000a81548173ffffffffffffffffffffffffffffffffffffffff021916908373ffffffffffffffffffffffffffffffffffffffff16021790555060408201518160020160006101000a81548173ffffffffffffffffffffffffffffffffffffffff021916908373ffffffffffffffffffffffffffffffffffffffff16021790555060608201518160020160146101000a81548163ffffffff021916908363ffffffff1602179055506080820151816003015560a08201518160040160006101000a81548161ffff021916908361ffff16021790555060c08201518160040160026101000a81548160ff02191690831515021790555060e08201518160040160036101000a81548160ff0219169083151502179055506101008201518160040160046101000a81548160ff0219169083151502179055509050507ff7ba9a1a831f7e899b8bc38b926105e3fa359e7ebca14013b74dc9b855210058848a8a60405161077e93929190612d0e565b60405180910390a15061078f6123e8565b505095945050505050565b600063150b7a0260e01b9050949350505050565b60036020528060005260406000206000915090508060000154908060010160009054906101000a900473ffffffffffffffffffffffffffffffffffffffff16908060020160009054906101000a900473ffffffffffffffffffffffffffffffffffffffff16908060020160149054906101000a900463ffffffff16908060030154908060040160009054906101000a900461ffff16908060040160029054906101000a900460ff16908060040160039054906101000a900460ff16908060040160049054906101000a900460ff16905089565b610889612398565b6004600083815260200190815260200160002081815481106108ae576108ad612d45565b5b906000526020600020906007020160060160009054906101000a900460ff161561090d576040517f08c379a000000000000000000000000000000000000000000000000000000000815260040161090490612dc0565b60405180910390fd5b6003600083815260200190815260200160002060040160029054906101000a900460ff16610970576040517f08c379a000000000000000000000000000000000000000000000000000000000815260040161096790612e2c565b60405180910390fd5b60046000838152602001908152602001600020818154811061099557610994612d45565b5b906000526020600020906007020160060160019054906101000a900460ff16156109f4576040517f08c379a00000000000000000000000000000000000000000000000000000000081526004016109eb90612e98565b60405180910390fd5b3373ffffffffffffffffffffffffffffffffffffffff166003600084815260200190815260200160002060010160009054906101000a900473ffffffffffffffffffffffffffffffffffffffff1673ffffffffffffffffffffffffffffffffffffffff1614610a98576040517f08c379a0000000000000000000000000000000000000000000000000000000008152600401610a8f90612f04565b60405180910390fd5b60016003600084815260200190815260200160002060040160036101000a81548160ff0219169083151502179055506001600460008481526020019081526020016000208281548110610aee57610aed612d45565b5b906000526020600020906007020160060160016101000a81548160ff0219169083151502179055506000600260009054906101000a900473ffffffffffffffffffffffffffffffffffffffff1673ffffffffffffffffffffffffffffffffffffffff16634dd9ccb16040518163ffffffff1660e01b8152600401602060405180830381865afa158015610b85573d6000803e3d6000fd5b505050506040513d601f19601f82011682018060405250810190610ba99190612b6b565b9050600073__LibCalculations_______________________633fb34003600460008781526020019081526020016000208581548110610bec57610beb612d45565b5b906000526020600020906007020160050154600260009054906101000a900473ffffffffffffffffffffffffffffffffffffffff1673ffffffffffffffffffffffffffffffffffffffff1663b0e21e8a6040518163ffffffff1660e01b8152600401602060405180830381865afa158015610c6b573d6000803e3d6000fd5b505050506040513d601f19601f82011682018060405250810190610c8f9190612f39565b6040518363ffffffff1660e01b8152600401610cac929190612f84565b602060405180830381865af4158015610cc9573d6000803e3d6000fd5b505050506040513d601f19601f82011682018060405250810190610ced9190612fc2565b9050600460008581526020019081526020016000208381548110610d1457610d13612d45565b5b906000526020600020906007020160040160009054906101000a900473ffffffffffffffffffffffffffffffffffffffff1673ffffffffffffffffffffffffffffffffffffffff1663a9059cbb3383600460008981526020019081526020016000208781548110610d8857610d87612d45565b5b906000526020600020906007020160050154610da49190612fef565b6040518363ffffffff1660e01b8152600401610dc1929190613023565b6020604051808303816000875af1158015610de0573d6000803e3d6000fd5b505050506040513d601f19601f82011682018060405250810190610e049190613078565b610e43576040517f08c379a0000000000000000000000000000000000000000000000000000000008152600401610e3a906130f1565b60405180910390fd5b60008114610f5f57600460008581526020019081526020016000208381548110610e7057610e6f612d45565b5b906000526020600020906007020160040160009054906101000a900473ffffffffffffffffffffffffffffffffffffffff1673ffffffffffffffffffffffffffffffffffffffff1663a9059cbb83836040518363ffffffff1660e01b8152600401610edc929190613023565b6020604051808303816000875af1158015610efb573d6000803e3d6000fd5b505050506040513d601f19601f82011682018060405250810190610f1f9190613078565b610f5e576040517f08c379a0000000000000000000000000000000000000000000000000000000008152600401610f5590613183565b60405180910390fd5b5b6003600085815260200190815260200160002060020160009054906101000a900473ffffffffffffffffffffffffffffffffffffffff1673ffffffffffffffffffffffffffffffffffffffff166342842e0e333060036000898152602001908152602001600020600001546040518463ffffffff1660e01b8152600401610fe8939291906131a3565b600060405180830381600087803b15801561100257600080fd5b505af1158015611016573d6000803e3d6000fd5b505050507ff3dcb1470788b6fc611aa31a4b8290ab1bd5e74bf635a268a8a8c76b960b2e0484848360046000898152602001908152602001600020878154811061106357611062612d45565b5b90600052602060002090600702016005015461107f9190612fef565b8460405161109094939291906131da565b60405180910390a150506110a26123e8565b5050565b6110ae612398565b6004600083815260200190815260200160002081815481106110d3576110d2612d45565b5b906000526020600020906007020160060160019054906101000a900460ff1615611132576040517f08c379a00000000000000000000000000000000000000000000000000000000081526004016111299061326b565b60405180910390fd5b3373ffffffffffffffffffffffffffffffffffffffff1660046000848152602001908152602001600020828154811061116e5761116d612d45565b5b906000526020600020906007020160030160009054906101000a900473ffffffffffffffffffffffffffffffffffffffff1673ffffffffffffffffffffffffffffffffffffffff16146111f6576040517f08c379a00000000000000000000000000000000000000000000000000000000081526004016111ed906132d7565b60405180910390fd5b60046000838152602001908152602001600020818154811061121b5761121a612d45565b5b906000526020600020906007020160020154421161126e576040517f08c379a000000000000000000000000000000000000000000000000000000000815260040161126590613369565b60405180910390fd5b60046000838152602001908152602001600020818154811061129357611292612d45565b5b906000526020600020906007020160040160009054906101000a900473ffffffffffffffffffffffffffffffffffffffff1673ffffffffffffffffffffffffffffffffffffffff1663a9059cbb3360046000868152602001908152602001600020848154811061130657611305612d45565b5b9060005260206000209060070201600501546040518363ffffffff1660e01b8152600401611335929190613023565b6020604051808303816000875af1158015611354573d6000803e3d6000fd5b505050506040513d601f19601f820116820180604052508101906113789190613078565b6113b7576040517f08c379a00000000000000000000000000000000000000000000000000000000081526004016113ae906133fb565b60405180910390fd5b7fabd2ab552bc04cdbfa4a54107fa44ac8c9cb06f6d21da11933ac05a653be19e982826004600086815260200190815260200160002084815481106113ff576113fe612d45565b5b9060005260206000209060070201600501546040516114209392919061341b565b60405180910390a16114306123e8565b5050565b61143c612398565b6003600083815260200190815260200160002060040160039054906101000a900460ff1661149f576040517f08c379a00000000000000000000000000000000000000000000000000000000081526004016114969061349e565b60405180910390fd5b6003600083815260200190815260200160002060040160029054906101000a900460ff16611502576040517f08c379a00000000000000000000000000000000000000000000000000000000081526004016114f990612e2c565b60405180910390fd5b6003600083815260200190815260200160002060040160049054906101000a900460ff1615611566576040517f08c379a000000000000000000000000000000000000000000000000000000000815260040161155d9061350a565b60405180910390fd5b600073__LibCalculations_______________________633fb340036004600086815260200190815260200160002084815481106115a7576115a6612d45565b5b9060005260206000209060070201600501546004600087815260200190815260200160002085815481106115de576115dd612d45565b5b906000526020600020906007020160010160009054906101000a900461ffff166040518363ffffffff1660e01b815260040161161b929190612f84565b602060405180830381865af4158015611638573d6000803e3d6000fd5b505050506040513d601f19601f8201168201806040525081019061165c9190612fc2565b905060046000848152602001908152602001600020828154811061168357611682612d45565b5b906000526020600020906007020160040160009054906101000a900473ffffffffffffffffffffffffffffffffffffffff1673ffffffffffffffffffffffffffffffffffffffff166323b872dd336004600087815260200190815260200160002085815481106116f6576116f5612d45565b5b906000526020600020906007020160030160009054906101000a900473ffffffffffffffffffffffffffffffffffffffff168460046000898152602001908152602001600020878154811061174e5761174d612d45565b5b90600052602060002090600702016005015461176a919061352a565b6040518463ffffffff1660e01b8152600401611788939291906131a3565b6020604051808303816000875af11580156117a7573d6000803e3d6000fd5b505050506040513d601f19601f820116820180604052508101906117cb9190613078565b61180a576040517f08c379a0000000000000000000000000000000000000000000000000000000008152600401611801906135f2565b60405180910390fd5b60016003600085815260200190815260200160002060040160046101000a81548160ff0219169083151502179055506003600084815260200190815260200160002060020160009054906101000a900473ffffffffffffffffffffffffffffffffffffffff1673ffffffffffffffffffffffffffffffffffffffff166342842e0e303360036000888152602001908152602001600020600001546040518463ffffffff1660e01b81526004016118c2939291906131a3565b600060405180830381600087803b1580156118dc57600080fd5b505af11580156118f0573d6000803e3d6000fd5b505050507f91a214dd31764aed3c074372e042b1fb2178af7bdee126d40419260825b5c83383838360046000888152602001908152602001600020868154811061193d5761193c612d45565b5b906000526020600020906007020160050154611959919061352a565b6040516119689392919061341b565b60405180910390a1506119796123e8565b5050565b813373ffffffffffffffffffffffffffffffffffffffff166003600083815260200190815260200160002060010160009054906101000a900473ffffffffffffffffffffffffffffffffffffffff1673ffffffffffffffffffffffffffffffffffffffff1614611a22576040517f08c379a0000000000000000000000000000000000000000000000000000000008152600401611a1990612b0d565b60405180910390fd5b6003600084815260200190815260200160002060020160149054906101000a900463ffffffff1663ffffffff168263ffffffff1614611aca57816003600085815260200190815260200160002060020160146101000a81548163ffffffff021916908363ffffffff1602179055507f54952112e3597233437f179f606c73f4e5d2cfa67bd8b930c88a88611fda2c8b8383604051611ac1929190613612565b60405180910390a15b505050565b611ad7612398565b600073ffffffffffffffffffffffffffffffffffffffff168473ffffffffffffffffffffffffffffffffffffffff161415611b47576040517f08c379a0000000000000000000000000000000000000000000000000000000008152600401611b3e90612c76565b60405180910390fd5b6000851415611b8b576040517f08c379a0000000000000000000000000000000000000000000000000000000008152600401611b8290613687565b60405180910390fd5b6003600087815260200190815260200160002060040160039054906101000a900460ff1615611bef576040517f08c379a0000000000000000000000000000000000000000000000000000000008152600401611be690612e98565b60405180910390fd5b6003600087815260200190815260200160002060040160029054906101000a900460ff16611c52576040517f08c379a0000000000000000000000000000000000000000000000000000000008152600401611c49906136f3565b60405180910390fd5b6000604051806101200160405280600460008a81526020019081526020016000208054905081526020018561ffff1681526020018463ffffffff1681526020014284611c9e919061352a565b81526020013373ffffffffffffffffffffffffffffffffffffffff1681526020018673ffffffffffffffffffffffffffffffffffffffff1681526020018781526020016000151581526020016000151581525090508473ffffffffffffffffffffffffffffffffffffffff166323b872dd3330896040518463ffffffff1660e01b8152600401611d30939291906131a3565b6020604051808303816000875af1158015611d4f573d6000803e3d6000fd5b505050506040513d601f19601f82011682018060405250810190611d739190613078565b611db2576040517f08c379a0000000000000000000000000000000000000000000000000000000008152600401611da99061375f565b60405180910390fd5b600460008881526020019081526020016000208190806001815401808255809150506001900390600052602060002090600702016000909190919091506000820151816000015560208201518160010160006101000a81548161ffff021916908361ffff16021790555060408201518160010160026101000a81548163ffffffff021916908363ffffffff1602179055506060820151816002015560808201518160030160006101000a81548173ffffffffffffffffffffffffffffffffffffffff021916908373ffffffffffffffffffffffffffffffffffffffff16021790555060a08201518160040160006101000a81548173ffffffffffffffffffffffffffffffffffffffff021916908373ffffffffffffffffffffffffffffffffffffffff16021790555060c0820151816005015560e08201518160060160006101000a81548160ff0219169083151502179055506101008201518160060160016101000a81548160ff02191690831515021790555050507faa4f7100501db6f3d6d6e511c2302a2f2816fabf38f82ec03252a20b0e306fea6001600460008a815260200190815260200160002080549050611f6c9190612fef565b88604051611f7b92919061377f565b60405180910390a150611f8c6123e8565b505050505050565b60046020528160005260406000208181548110611fb057600080fd5b9060005260206000209060070201600091509150508060000154908060010160009054906101000a900461ffff16908060010160029054906101000a900463ffffffff16908060020154908060030160009054906101000a900473ffffffffffffffffffffffffffffffffffffffff16908060040160009054906101000a900473ffffffffffffffffffffffffffffffffffffffff16908060050154908060060160009054906101000a900460ff16908060060160019054906101000a900460ff16905089565b813373ffffffffffffffffffffffffffffffffffffffff166003600083815260200190815260200160002060010160009054906101000a900473ffffffffffffffffffffffffffffffffffffffff1673ffffffffffffffffffffffffffffffffffffffff161461211c576040517f08c379a000000000000000000000000000000000000000000000000000000000815260040161211390612b0d565b60405180910390fd5b6003600084815260200190815260200160002060030154821461218e578160036000858152602001908152602001600020600301819055507f287071c6a27a1aee9081f9ac1bc3e0b3812edb3d552ab050ed378ca59457db60838360405161218592919061377f565b60405180910390a15b505050565b60015481565b6003600082815260200190815260200160002060020160009054906101000a900473ffffffffffffffffffffffffffffffffffffffff1673ffffffffffffffffffffffffffffffffffffffff16636352211e60036000848152602001908152602001600020600001546040518263ffffffff1660e01b815260040161221e91906125da565b602060405180830381865afa15801561223b573d6000803e3d6000fd5b505050506040513d601f19601f8201168201806040525081019061225f9190612b6b565b73ffffffffffffffffffffffffffffffffffffffff163373ffffffffffffffffffffffffffffffffffffffff16146122cc576040517f08c379a00000000000000000000000000000000000000000000000000000000081526004016122c390612be4565b60405180910390fd5b6003600082815260200190815260200160002060040160029054906101000a900460ff1661232f576040517f08c379a0000000000000000000000000000000000000000000000000000000008152600401612326906137f4565b60405180910390fd5b60006003600083815260200190815260200160002060040160026101000a81548160ff0219169083151502179055507f5b8046420884c4698df446ee47bb3971db3b7f1f959ff4f04a70b32b287328418160405161238d91906125da565b60405180910390a150565b600260005414156123de576040517f08c379a00000000000000000000000000000000000000000000000000000000081526004016123d590613860565b60405180910390fd5b6002600081905550565b6001600081905550565b6000604051905090565b600080fd5b600080fd5b6000819050919050565b61241981612406565b811461242457600080fd5b50565b60008135905061243681612410565b92915050565b600061ffff82169050919050565b6124538161243c565b811461245e57600080fd5b50565b6000813590506124708161244a565b92915050565b6000806040838503121561248d5761248c6123fc565b5b600061249b85828601612427565b92505060206124ac85828601612461565b9150509250929050565b600073ffffffffffffffffffffffffffffffffffffffff82169050919050565b60006124e1826124b6565b9050919050565b6124f1816124d6565b81146124fc57600080fd5b50565b60008135905061250e816124e8565b92915050565b600063ffffffff82169050919050565b61252d81612514565b811461253857600080fd5b50565b60008135905061254a81612524565b92915050565b600080600080600060a0868803121561256c5761256b6123fc565b5b600061257a88828901612427565b955050602061258b888289016124ff565b945050604061259c88828901612461565b93505060606125ad8882890161253b565b92505060806125be88828901612427565b9150509295509295909350565b6125d481612406565b82525050565b60006020820190506125ef60008301846125cb565b92915050565b600080fd5b600080fd5b6000601f19601f8301169050919050565b7f4e487b7100000000000000000000000000000000000000000000000000000000600052604160045260246000fd5b612648826125ff565b810181811067ffffffffffffffff8211171561266757612666612610565b5b80604052505050565b600061267a6123f2565b9050612686828261263f565b919050565b600067ffffffffffffffff8211156126a6576126a5612610565b5b6126af826125ff565b9050602081019050919050565b82818337600083830152505050565b60006126de6126d98461268b565b612670565b9050828152602081018484840111156126fa576126f96125fa565b5b6127058482856126bc565b509392505050565b600082601f830112612722576127216125f5565b5b81356127328482602086016126cb565b91505092915050565b60008060008060808587031215612755576127546123fc565b5b6000612763878288016124ff565b9450506020612774878288016124ff565b935050604061278587828801612427565b925050606085013567ffffffffffffffff8111156127a6576127a5612401565b5b6127b28782880161270d565b91505092959194509250565b60007fffffffff0000000000000000000000000000000000000000000000000000000082169050919050565b6127f3816127be565b82525050565b600060208201905061280e60008301846127ea565b92915050565b60006020828403121561282a576128296123fc565b5b600061283884828501612427565b91505092915050565b61284a816124d6565b82525050565b61285981612514565b82525050565b6128688161243c565b82525050565b60008115159050919050565b6128838161286e565b82525050565b60006101208201905061289f600083018c6125cb565b6128ac602083018b612841565b6128b9604083018a612841565b6128c66060830189612850565b6128d360808301886125cb565b6128e060a083018761285f565b6128ed60c083018661287a565b6128fa60e083018561287a565b61290861010083018461287a565b9a9950505050505050505050565b6000806040838503121561292d5761292c6123fc565b5b600061293b85828601612427565b925050602061294c85828601612427565b9150509250929050565b6000806040838503121561296d5761296c6123fc565b5b600061297b85828601612427565b925050602061298c8582860161253b565b9150509250929050565b60008060008060008060c087890312156129b3576129b26123fc565b5b60006129c189828a01612427565b96505060206129d289828a01612427565b95505060406129e389828a016124ff565b94505060606129f489828a01612461565b9350506080612a0589828a0161253b565b92505060a0612a1689828a01612427565b9150509295509295509295565b600061012082019050612a39600083018c6125cb565b612a46602083018b61285f565b612a53604083018a612850565b612a6060608301896125cb565b612a6d6080830188612841565b612a7a60a0830187612841565b612a8760c08301866125cb565b612a9460e083018561287a565b612aa261010083018461287a565b9a9950505050505050505050565b600082825260208201905092915050565b7f4e6f7420746865206f776e657200000000000000000000000000000000000000600082015250565b6000612af7600d83612ab0565b9150612b0282612ac1565b602082019050919050565b60006020820190508181036000830152612b2681612aea565b9050919050565b6000604082019050612b4260008301856125cb565b612b4f602083018461285f565b9392505050565b600081519050612b65816124e8565b92915050565b600060208284031215612b8157612b806123fc565b5b6000612b8f84828501612b56565b91505092915050565b7f4f6e6c7920746f6b656e206f776e65722063616e206578656375746500000000600082015250565b6000612bce601c83612ab0565b9150612bd982612b98565b602082019050919050565b60006020820190508181036000830152612bfd81612bc1565b9050919050565b7f796f752063616e277420646f20746869732077697468207a65726f206164647260008201527f6573730000000000000000000000000000000000000000000000000000000000602082015250565b6000612c60602383612ab0565b9150612c6b82612c04565b604082019050919050565b60006020820190508181036000830152612c8f81612c53565b9050919050565b7f4e487b7100000000000000000000000000000000000000000000000000000000600052601160045260246000fd5b6000612cd082612406565b91507fffffffffffffffffffffffffffffffffffffffffffffffffffffffffffffffff821415612d0357612d02612c96565b5b600182019050919050565b6000606082019050612d2360008301866125cb565b612d3060208301856125cb565b612d3d6040830184612841565b949350505050565b7f4e487b7100000000000000000000000000000000000000000000000000000000600052603260045260246000fd5b7f416c72656164792077697468647261776e000000000000000000000000000000600082015250565b6000612daa601183612ab0565b9150612db582612d74565b602082019050919050565b60006020820190508181036000830152612dd981612d9d565b9050919050565b7f49742773206e6f74206c697374656420666f7220426f72726f77696e67000000600082015250565b6000612e16601d83612ab0565b9150612e2182612de0565b602082019050919050565b60006020820190508181036000830152612e4581612e09565b9050919050565b7f42696420416c7265616479204163636570746564000000000000000000000000600082015250565b6000612e82601483612ab0565b9150612e8d82612e4c565b602082019050919050565b60006020820190508181036000830152612eb181612e75565b9050919050565b7f596f752063616e27742041636365707420546869732042696400000000000000600082015250565b6000612eee601983612ab0565b9150612ef982612eb8565b602082019050919050565b60006020820190508181036000830152612f1d81612ee1565b9050919050565b600081519050612f338161244a565b92915050565b600060208284031215612f4f57612f4e6123fc565b5b6000612f5d84828501612f24565b91505092915050565b612f6f81612406565b82525050565b612f7e8161243c565b82525050565b6000604082019050612f996000830185612f66565b612fa66020830184612f75565b9392505050565b600081519050612fbc81612410565b92915050565b600060208284031215612fd857612fd76123fc565b5b6000612fe684828501612fad565b91505092915050565b6000612ffa82612406565b915061300583612406565b92508282101561301857613017612c96565b5b828203905092915050565b60006040820190506130386000830185612841565b61304560208301846125cb565b9392505050565b6130558161286e565b811461306057600080fd5b50565b6000815190506130728161304c565b92915050565b60006020828403121561308e5761308d6123fc565b5b600061309c84828501613063565b91505092915050565b7f756e61626c6520746f207472616e7366657220746f2072656365697665720000600082015250565b60006130db601e83612ab0565b91506130e6826130a5565b602082019050919050565b6000602082019050818103600083015261310a816130ce565b9050919050565b7f556e61626c6520746f207472616e7366657220746f2041636f6e6f6d794f776e60008201527f6572000000000000000000000000000000000000000000000000000000000000602082015250565b600061316d602283612ab0565b915061317882613111565b604082019050919050565b6000602082019050818103600083015261319c81613160565b9050919050565b60006060820190506131b86000830186612841565b6131c56020830185612841565b6131d260408301846125cb565b949350505050565b60006080820190506131ef60008301876125cb565b6131fc60208301866125cb565b61320960408301856125cb565b61321660608301846125cb565b95945050505050565b7f596f75722042696420686173206265656e204163636570746564000000000000600082015250565b6000613255601a83612ab0565b91506132608261321f565b602082019050919050565b6000602082019050818103600083015261328481613248565b9050919050565b7f596f752063616e27742077697468647261772074686973204269640000000000600082015250565b60006132c1601b83612ab0565b91506132cc8261328b565b602082019050919050565b600060208201905081810360008301526132f0816132b4565b9050919050565b7f43616e277420776974686472617720426964206265666f72652065787069726160008201527f74696f6e00000000000000000000000000000000000000000000000000000000602082015250565b6000613353602483612ab0565b915061335e826132f7565b604082019050919050565b6000602082019050818103600083015261338281613346565b9050919050565b7f756e61626c6520746f207472616e7366657220746f204269646465722041646460008201527f7265737300000000000000000000000000000000000000000000000000000000602082015250565b60006133e5602483612ab0565b91506133f082613389565b604082019050919050565b60006020820190508181036000830152613414816133d8565b9050919050565b600060608201905061343060008301866125cb565b61343d60208301856125cb565b61344a60408301846125cb565b949350505050565b7f426964204e6f7420416363657074656420796574000000000000000000000000600082015250565b6000613488601483612ab0565b915061349382613452565b602082019050919050565b600060208201905081810360008301526134b78161347b565b9050919050565b7f416c726561647920526570616964000000000000000000000000000000000000600082015250565b60006134f4600e83612ab0565b91506134ff826134be565b602082019050919050565b60006020820190508181036000830152613523816134e7565b9050919050565b600061353582612406565b915061354083612406565b9250827fffffffffffffffffffffffffffffffffffffffffffffffffffffffffffffffff0382111561357557613574612c96565b5b828201905092915050565b7f756e61626c6520746f207472616e7366657220746f206269646465722041646460008201527f7265737300000000000000000000000000000000000000000000000000000000602082015250565b60006135dc602483612ab0565b91506135e782613580565b604082019050919050565b6000602082019050818103600083015261360b816135cf565b9050919050565b600060408201905061362760008301856125cb565b6136346020830184612850565b9392505050565b7f596f752063616e2774206269642077697468207a65726f20416d6f756e740000600082015250565b6000613671601e83612ab0565b915061367c8261363b565b602082019050919050565b600060208201905081810360008301526136a081613664565b9050919050565b7f596f752063616e277420426964206f6e2074686973204e465400000000000000600082015250565b60006136dd601983612ab0565b91506136e8826136a7565b602082019050919050565b6000602082019050818103600083015261370c816136d0565b9050919050565b7f556e61626c6520746f2074616e7366657220596f757220455243323000000000600082015250565b6000613749601c83612ab0565b915061375482613713565b602082019050919050565b600060208201905081810360008301526137788161373c565b9050919050565b600060408201905061379460008301856125cb565b6137a160208301846125cb565b9392505050565b7f4974277320616972656164792072656d6f766564000000000000000000000000600082015250565b60006137de601483612ab0565b91506137e9826137a8565b602082019050919050565b6000602082019050818103600083015261380d816137d1565b9050919050565b7f5265656e7472616e637947756172643a207265656e7472616e742063616c6c00600082015250565b600061384a601f83612ab0565b915061385582613814565b602082019050919050565b600060208201905081810360008301526138798161383d565b905091905056fea26469706673582212208ec2bd8a11b0acddc75fa9a6379b1507115f84729a19b8f17564ffdca5a608fd64736f6c634300080b0033",
  "immutableReferences": {},
  "source": "// SPDX-License-Identifier: MIT\npragma solidity >=0.4.22 <0.9.0;\n\nimport \"@openzeppelin/contracts/token/ERC20/IERC20.sol\";\nimport \"@openzeppelin/contracts/token/ERC721/utils/ERC721Holder.sol\";\nimport \"@openzeppelin/contracts/token/ERC721/ERC721.sol\";\nimport \"@openzeppelin/contracts/access/Ownable.sol\";\nimport \"@openzeppelin/contracts/security/ReentrancyGuard.sol\";\nimport \"@openzeppelin/contracts/utils/Counters.sol\";\n\nimport \"./AconomyFee.sol\";\nimport \"./Libraries/LibCalculations.sol\";\n\ncontract NFTlendingBorrowing is ERC721Holder, ReentrancyGuard {\n    using Counters for Counters.Counter;\n    uint256 public NFTid;\n    address AconomyFeeAddress;\n    struct NFTdetail {\n        uint256 NFTtokenId;\n        address tokenIdOwner;\n        address contractAddress;\n        uint32 duration;\n        uint256 expectedAmount;\n        uint16 percent;\n        bool listed;\n        bool bidAccepted;\n        bool repaid;\n    }\n\n    struct BidDetail {\n        uint256 bidId;\n        uint16 percent;\n        uint32 duration;\n        uint256 expiration;\n        address bidderAddress;\n        address ERC20Address;\n        uint256 Amount;\n        bool withdrawn;\n        bool bidAccepted;\n    }\n\n    // NFTid => NFTdetail\n    mapping(uint256 => NFTdetail) public NFTdetails;\n\n    // NFTid => Bid[]\n    mapping(uint256 => BidDetail[]) public Bids;\n\n    // Events\n    event AppliedBid(uint256 BidId, uint256 NFTid);\n    event PercentSet(uint256 NFTid, uint16 Percent);\n    event DurationSet(uint256 NFTid, uint32 Duration);\n    event ExpectedAmountSet(uint256 NFTid, uint256 expectedAmount);\n    event NFTlisted(uint256 NFTid, uint256 TokenId, address ContractAddress);\n    event repaid(uint256 NFTid, uint256 BidId, uint256 Amount);\n    event Withdrawn(uint256 NFTid, uint256 BidId, uint256 Amount);\n    event NFTRemoved(uint256 NFTId);\n    event AcceptedBid(\n        uint256 NFTid,\n        uint256 BidId,\n        uint256 Amount,\n        uint256 ProtocolAmount\n    );\n\n    constructor(address _aconomyFee) {\n        AconomyFeeAddress = _aconomyFee;\n    }\n\n    modifier onlyOwnerOfToken(address _contractAddress, uint256 _tokenId) {\n        require(\n            msg.sender == ERC721(_contractAddress).ownerOf(_tokenId),\n            \"Only token owner can execute\"\n        );\n        _;\n    }\n\n    modifier NFTOwner(uint256 _NFTid) {\n        require(NFTdetails[_NFTid].tokenIdOwner == msg.sender, \"Not the owner\");\n        _;\n    }\n\n    // list Your NFT for Borrowing by NFT owner\n    function listNFTforBorrowing(\n        uint256 _tokenId,\n        address _contractAddress,\n        uint16 _percent,\n        uint32 _duration,\n        uint256 _expectedAmount\n    )\n        external\n        onlyOwnerOfToken(_contractAddress, _tokenId)\n        nonReentrant\n        returns (uint256 _NFTid)\n    {\n        require(\n            _contractAddress != address(0),\n            \"you can't do this with zero address\"\n        );\n\n        _NFTid = ++NFTid;\n\n        NFTdetail memory details = NFTdetail(\n            _tokenId,\n            msg.sender,\n            _contractAddress,\n            _duration,\n            _expectedAmount,\n            _percent,\n            true,\n            false,\n            false\n        );\n\n        NFTdetails[_NFTid] = details;\n\n        emit NFTlisted(_NFTid, _tokenId, _contractAddress);\n    }\n\n    function setPercent(uint256 _NFTid, uint16 _percent)\n        public\n        NFTOwner(_NFTid)\n    {\n        if (_percent != NFTdetails[_NFTid].percent) {\n            NFTdetails[_NFTid].percent = _percent;\n\n            emit PercentSet(_NFTid, _percent);\n        }\n    }\n\n    function setDurationTime(uint256 _NFTid, uint32 _duration)\n        public\n        NFTOwner(_NFTid)\n    {\n        if (_duration != NFTdetails[_NFTid].duration) {\n            NFTdetails[_NFTid].duration = _duration;\n\n            emit DurationSet(_NFTid, _duration);\n        }\n    }\n\n    function setExpectedAmount(uint256 _NFTid, uint256 _expectedAmount)\n        public\n        NFTOwner(_NFTid)\n    {\n        if (_expectedAmount != NFTdetails[_NFTid].expectedAmount) {\n            NFTdetails[_NFTid].expectedAmount = _expectedAmount;\n\n            emit ExpectedAmountSet(_NFTid, _expectedAmount);\n        }\n    }\n\n    // Bid on a NFT by users\n    function Bid(\n        uint256 _NFTid,\n        uint256 _bidAmount,\n        address _ERC20Address,\n        uint16 _percent,\n        uint32 _duration,\n        uint256 _expiration\n    ) external nonReentrant {\n        require(\n            _ERC20Address != address(0),\n            \"you can't do this with zero address\"\n        );\n        require(_bidAmount != 0, \"You can't bid with zero Amount\");\n        require(!NFTdetails[_NFTid].bidAccepted, \"Bid Already Accepted\");\n        require(NFTdetails[_NFTid].listed, \"You can't Bid on this NFT\");\n        BidDetail memory bidDetail = BidDetail(\n            Bids[_NFTid].length,\n            _percent,\n            _duration,\n            _expiration + block.timestamp,\n            msg.sender,\n            _ERC20Address,\n            _bidAmount,\n            false,\n            false\n        );\n        require(\n            IERC20(_ERC20Address).transferFrom(\n                msg.sender,\n                address(this),\n                _bidAmount\n            ),\n            \"Unable to tansfer Your ERC20\"\n        );\n        Bids[_NFTid].push(bidDetail);\n        emit AppliedBid(Bids[_NFTid].length - 1, _NFTid);\n    }\n\n    // Accept Bid by NFT owner\n    function AcceptBid(uint256 _NFTid, uint256 _bidId) external nonReentrant {\n        require(!Bids[_NFTid][_bidId].withdrawn, \"Already withdrawn\");\n        require(NFTdetails[_NFTid].listed, \"It's not listed for Borrowing\");\n        require(!Bids[_NFTid][_bidId].bidAccepted, \"Bid Already Accepted\");\n        require(\n            NFTdetails[_NFTid].tokenIdOwner == msg.sender,\n            \"You can't Accept This Bid\"\n        );\n\n        NFTdetails[_NFTid].bidAccepted = true;\n        Bids[_NFTid][_bidId].bidAccepted = true;\n\n        address AconomyOwner = AconomyFee(AconomyFeeAddress)\n            .getAconomyOwnerAddress();\n\n        //Calculating Aconomy Fee\n        uint256 amountToAconomy = LibCalculations.percent(\n            Bids[_NFTid][_bidId].Amount,\n            AconomyFee(AconomyFeeAddress).protocolFee()\n        );\n\n        // transfering Amount to NFT Owner\n        require(\n            IERC20(Bids[_NFTid][_bidId].ERC20Address).transfer(\n                msg.sender,\n                Bids[_NFTid][_bidId].Amount - amountToAconomy\n            ),\n            \"unable to transfer to receiver\"\n        );\n\n        // transfering Amount to Protocol Owner\n        if (amountToAconomy != 0) {\n            require(\n                IERC20(Bids[_NFTid][_bidId].ERC20Address).transfer(\n                    AconomyOwner,\n                    amountToAconomy\n                ),\n                \"Unable to transfer to AconomyOwner\"\n            );\n        }\n\n        //needs approval on frontend\n        // transferring NFT to this address\n        ERC721(NFTdetails[_NFTid].contractAddress).safeTransferFrom(\n            msg.sender,\n            address(this),\n            NFTdetails[_NFTid].NFTtokenId\n        );\n\n        emit AcceptedBid(\n            _NFTid,\n            _bidId,\n            Bids[_NFTid][_bidId].Amount - amountToAconomy,\n            amountToAconomy\n        );\n    }\n\n    // Repay Amount including percentage to Bidder\n    function Repay(uint256 _NFTid, uint256 _bidId) external nonReentrant {\n        require(NFTdetails[_NFTid].bidAccepted, \"Bid Not Accepted yet\");\n        require(NFTdetails[_NFTid].listed, \"It's not listed for Borrowing\");\n        require(!NFTdetails[_NFTid].repaid, \"Already Repaid\");\n\n        // Calculate percentage Amount\n        uint256 percentageAmount = LibCalculations.percent(\n            Bids[_NFTid][_bidId].Amount,\n            Bids[_NFTid][_bidId].percent\n        );\n\n        // transfering Amount to Bidder\n        require(\n            IERC20(Bids[_NFTid][_bidId].ERC20Address).transferFrom(\n                msg.sender,\n                Bids[_NFTid][_bidId].bidderAddress,\n                Bids[_NFTid][_bidId].Amount + percentageAmount\n            ),\n            \"unable to transfer to bidder Address\"\n        );\n\n        NFTdetails[_NFTid].repaid = true;\n\n        // transferring NFT to this address\n        ERC721(NFTdetails[_NFTid].contractAddress).safeTransferFrom(\n            address(this),\n            msg.sender,\n            NFTdetails[_NFTid].NFTtokenId\n        );\n        emit repaid(\n            _NFTid,\n            _bidId,\n            Bids[_NFTid][_bidId].Amount + percentageAmount\n        );\n    }\n\n    function withdraw(uint256 _NFTid, uint256 _bidId) external nonReentrant {\n        require(\n            !Bids[_NFTid][_bidId].bidAccepted,\n            \"Your Bid has been Accepted\"\n        );\n        require(\n            Bids[_NFTid][_bidId].bidderAddress == msg.sender,\n            \"You can't withdraw this Bid\"\n        );\n        require(\n            block.timestamp > Bids[_NFTid][_bidId].expiration,\n            \"Can't withdraw Bid before expiration\"\n        );\n        require(\n            IERC20(Bids[_NFTid][_bidId].ERC20Address).transfer(\n                msg.sender,\n                Bids[_NFTid][_bidId].Amount\n            ),\n            \"unable to transfer to Bidder Address\"\n        );\n\n        emit Withdrawn(_NFTid, _bidId, Bids[_NFTid][_bidId].Amount);\n    }\n\n    function removeNFTfromList(uint256 _NFTid) external {\n        require(\n            msg.sender ==\n                ERC721(NFTdetails[_NFTid].contractAddress).ownerOf(\n                    NFTdetails[_NFTid].NFTtokenId\n                ),\n            \"Only token owner can execute\"\n        );\n        if (!NFTdetails[_NFTid].listed) {\n            revert(\"It's aiready removed\");\n        }\n\n        NFTdetails[_NFTid].listed = false;\n\n        emit NFTRemoved(_NFTid);\n    }\n}\n",
  "sourcePath": "/home/sheeshco/code/truffle/aconomy-contract/contracts/NFTlendingBorrowing.sol",
  "compiler": {
    "name": "solc",
    "version": "0.8.11+commit.d7f03943.Emscripten.clang"
  },
  "schemaVersion": "3.4.10",
  "updatedAt": "2023-03-20T09:10:39.809Z",
  "devdoc": {
    "kind": "dev",
    "methods": {
      "onERC721Received(address,address,uint256,bytes)": {
        "details": "See {IERC721Receiver-onERC721Received}. Always returns `IERC721Receiver.onERC721Received.selector`."
      }
    },
    "version": 1
  },
  "userdoc": {
    "kind": "user",
    "methods": {},
    "version": 1
  }
}