{
  "contractName": "NFTlendingBorrowing",
  "abi": [
    {
      "inputs": [],
      "stateMutability": "nonpayable",
      "type": "constructor"
    },
    {
      "anonymous": false,
      "inputs": [
        {
          "indexed": false,
          "internalType": "uint256",
          "name": "NFTid",
          "type": "uint256"
        },
        {
          "indexed": false,
          "internalType": "uint256",
          "name": "BidId",
          "type": "uint256"
        },
        {
          "indexed": false,
          "internalType": "uint256",
          "name": "Amount",
          "type": "uint256"
        },
        {
          "indexed": false,
          "internalType": "uint256",
          "name": "ProtocolAmount",
          "type": "uint256"
        }
      ],
      "name": "AcceptedBid",
      "type": "event"
    },
    {
      "anonymous": false,
      "inputs": [
        {
          "indexed": false,
          "internalType": "address",
          "name": "previousAdmin",
          "type": "address"
        },
        {
          "indexed": false,
          "internalType": "address",
          "name": "newAdmin",
          "type": "address"
        }
      ],
      "name": "AdminChanged",
      "type": "event"
    },
    {
      "anonymous": false,
      "inputs": [
        {
          "indexed": false,
          "internalType": "uint256",
          "name": "BidId",
          "type": "uint256"
        },
        {
          "indexed": false,
          "internalType": "uint256",
          "name": "NFTid",
          "type": "uint256"
        }
      ],
      "name": "AppliedBid",
      "type": "event"
    },
    {
      "anonymous": false,
      "inputs": [
        {
          "indexed": true,
          "internalType": "address",
          "name": "beacon",
          "type": "address"
        }
      ],
      "name": "BeaconUpgraded",
      "type": "event"
    },
    {
      "anonymous": false,
      "inputs": [
        {
          "indexed": false,
          "internalType": "uint256",
          "name": "NFTid",
          "type": "uint256"
        },
        {
          "indexed": false,
          "internalType": "uint256",
          "name": "BidId",
          "type": "uint256"
        },
        {
          "indexed": false,
          "internalType": "address",
          "name": "recieverAddress",
          "type": "address"
        },
        {
          "indexed": false,
          "internalType": "uint256",
          "name": "Amount",
          "type": "uint256"
        }
      ],
      "name": "BidRejected",
      "type": "event"
    },
    {
      "anonymous": false,
      "inputs": [
        {
          "indexed": false,
          "internalType": "uint256",
          "name": "NFTid",
          "type": "uint256"
        },
        {
          "indexed": false,
          "internalType": "uint32",
          "name": "Duration",
          "type": "uint32"
        }
      ],
      "name": "DurationSet",
      "type": "event"
    },
    {
      "anonymous": false,
      "inputs": [
        {
          "indexed": false,
          "internalType": "uint256",
          "name": "NFTid",
          "type": "uint256"
        },
        {
          "indexed": false,
          "internalType": "uint256",
          "name": "expectedAmount",
          "type": "uint256"
        }
      ],
      "name": "ExpectedAmountSet",
      "type": "event"
    },
    {
      "anonymous": false,
      "inputs": [
        {
          "indexed": false,
          "internalType": "uint8",
          "name": "version",
          "type": "uint8"
        }
      ],
      "name": "Initialized",
      "type": "event"
    },
    {
      "anonymous": false,
      "inputs": [
        {
          "indexed": false,
          "internalType": "uint256",
          "name": "NFTId",
          "type": "uint256"
        }
      ],
      "name": "NFTRemoved",
      "type": "event"
    },
    {
      "anonymous": false,
      "inputs": [
        {
          "indexed": false,
          "internalType": "uint256",
          "name": "NFTid",
          "type": "uint256"
        },
        {
          "indexed": false,
          "internalType": "uint256",
          "name": "TokenId",
          "type": "uint256"
        },
        {
          "indexed": false,
          "internalType": "address",
          "name": "ContractAddress",
          "type": "address"
        }
      ],
      "name": "NFTlisted",
      "type": "event"
    },
    {
      "anonymous": false,
      "inputs": [
        {
          "indexed": true,
          "internalType": "address",
          "name": "previousOwner",
          "type": "address"
        },
        {
          "indexed": true,
          "internalType": "address",
          "name": "newOwner",
          "type": "address"
        }
      ],
      "name": "OwnershipTransferred",
      "type": "event"
    },
    {
      "anonymous": false,
      "inputs": [
        {
          "indexed": false,
          "internalType": "address",
          "name": "account",
          "type": "address"
        }
      ],
      "name": "Paused",
      "type": "event"
    },
    {
      "anonymous": false,
      "inputs": [
        {
          "indexed": false,
          "internalType": "uint256",
          "name": "NFTid",
          "type": "uint256"
        },
        {
          "indexed": false,
          "internalType": "uint16",
          "name": "Percent",
          "type": "uint16"
        }
      ],
      "name": "PercentSet",
      "type": "event"
    },
    {
      "anonymous": false,
      "inputs": [
        {
          "indexed": false,
          "internalType": "address",
          "name": "account",
          "type": "address"
        }
      ],
      "name": "Unpaused",
      "type": "event"
    },
    {
      "anonymous": false,
      "inputs": [
        {
          "indexed": true,
          "internalType": "address",
          "name": "implementation",
          "type": "address"
        }
      ],
      "name": "Upgraded",
      "type": "event"
    },
    {
      "anonymous": false,
      "inputs": [
        {
          "indexed": false,
          "internalType": "uint256",
          "name": "NFTid",
          "type": "uint256"
        },
        {
          "indexed": false,
          "internalType": "uint256",
          "name": "BidId",
          "type": "uint256"
        },
        {
          "indexed": false,
          "internalType": "uint256",
          "name": "Amount",
          "type": "uint256"
        }
      ],
      "name": "Withdrawn",
      "type": "event"
    },
    {
      "anonymous": false,
      "inputs": [
        {
          "indexed": false,
          "internalType": "uint256",
          "name": "NFTid",
          "type": "uint256"
        },
        {
          "indexed": false,
          "internalType": "uint256",
          "name": "BidId",
          "type": "uint256"
        },
        {
          "indexed": false,
          "internalType": "uint256",
          "name": "Amount",
          "type": "uint256"
        }
      ],
      "name": "repaid",
      "type": "event"
    },
    {
      "inputs": [
        {
          "internalType": "uint256",
          "name": "",
          "type": "uint256"
        },
        {
          "internalType": "uint256",
          "name": "",
          "type": "uint256"
        }
      ],
      "name": "Bids",
      "outputs": [
        {
          "internalType": "uint256",
          "name": "bidId",
          "type": "uint256"
        },
        {
          "internalType": "uint16",
          "name": "percent",
          "type": "uint16"
        },
        {
          "internalType": "uint32",
          "name": "duration",
          "type": "uint32"
        },
        {
          "internalType": "uint256",
          "name": "expiration",
          "type": "uint256"
        },
        {
          "internalType": "address",
          "name": "bidderAddress",
          "type": "address"
        },
        {
          "internalType": "address",
          "name": "ERC20Address",
          "type": "address"
        },
        {
          "internalType": "uint256",
          "name": "Amount",
          "type": "uint256"
        },
        {
          "internalType": "uint256",
          "name": "acceptedTimestamp",
          "type": "uint256"
        },
        {
          "internalType": "uint16",
          "name": "protocolFee",
          "type": "uint16"
        },
        {
          "internalType": "bool",
          "name": "withdrawn",
          "type": "bool"
        },
        {
          "internalType": "bool",
          "name": "bidAccepted",
          "type": "bool"
        }
      ],
      "stateMutability": "view",
      "type": "function"
    },
    {
      "inputs": [
        {
          "internalType": "uint256",
          "name": "",
          "type": "uint256"
        }
      ],
      "name": "NFTdetails",
      "outputs": [
        {
          "internalType": "uint256",
          "name": "NFTtokenId",
          "type": "uint256"
        },
        {
          "internalType": "address",
          "name": "tokenIdOwner",
          "type": "address"
        },
        {
          "internalType": "address",
          "name": "contractAddress",
          "type": "address"
        },
        {
          "internalType": "uint32",
          "name": "duration",
          "type": "uint32"
        },
        {
          "internalType": "uint256",
          "name": "expiration",
          "type": "uint256"
        },
        {
          "internalType": "uint256",
          "name": "expectedAmount",
          "type": "uint256"
        },
        {
          "internalType": "uint16",
          "name": "percent",
          "type": "uint16"
        },
        {
          "internalType": "bool",
          "name": "listed",
          "type": "bool"
        },
        {
          "internalType": "bool",
          "name": "bidAccepted",
          "type": "bool"
        },
        {
          "internalType": "bool",
          "name": "repaid",
          "type": "bool"
        }
      ],
      "stateMutability": "view",
      "type": "function"
    },
    {
      "inputs": [],
      "name": "NFTid",
      "outputs": [
        {
          "internalType": "uint256",
          "name": "",
          "type": "uint256"
        }
      ],
      "stateMutability": "view",
      "type": "function"
    },
    {
      "inputs": [
        {
          "internalType": "address",
          "name": "",
          "type": "address"
        },
        {
          "internalType": "address",
          "name": "",
          "type": "address"
        },
        {
          "internalType": "uint256",
          "name": "",
          "type": "uint256"
        },
        {
          "internalType": "bytes",
          "name": "",
          "type": "bytes"
        }
      ],
      "name": "onERC721Received",
      "outputs": [
        {
          "internalType": "bytes4",
          "name": "",
          "type": "bytes4"
        }
      ],
      "stateMutability": "nonpayable",
      "type": "function"
    },
    {
      "inputs": [],
      "name": "owner",
      "outputs": [
        {
          "internalType": "address",
          "name": "",
          "type": "address"
        }
      ],
      "stateMutability": "view",
      "type": "function"
    },
    {
      "inputs": [],
      "name": "paused",
      "outputs": [
        {
          "internalType": "bool",
          "name": "",
          "type": "bool"
        }
      ],
      "stateMutability": "view",
      "type": "function"
    },
    {
      "inputs": [],
      "name": "proxiableUUID",
      "outputs": [
        {
          "internalType": "bytes32",
          "name": "",
          "type": "bytes32"
        }
      ],
      "stateMutability": "view",
      "type": "function"
    },
    {
      "inputs": [],
      "name": "renounceOwnership",
      "outputs": [],
      "stateMutability": "nonpayable",
      "type": "function"
    },
    {
      "inputs": [
        {
          "internalType": "address",
          "name": "newOwner",
          "type": "address"
        }
      ],
      "name": "transferOwnership",
      "outputs": [],
      "stateMutability": "nonpayable",
      "type": "function"
    },
    {
      "inputs": [
        {
          "internalType": "address",
          "name": "newImplementation",
          "type": "address"
        }
      ],
      "name": "upgradeTo",
      "outputs": [],
      "stateMutability": "nonpayable",
      "type": "function"
    },
    {
      "inputs": [
        {
          "internalType": "address",
          "name": "newImplementation",
          "type": "address"
        },
        {
          "internalType": "bytes",
          "name": "data",
          "type": "bytes"
        }
      ],
      "name": "upgradeToAndCall",
      "outputs": [],
      "stateMutability": "payable",
      "type": "function"
    },
    {
      "inputs": [
        {
          "internalType": "address",
          "name": "_aconomyFee",
          "type": "address"
        }
      ],
      "name": "initialize",
      "outputs": [],
      "stateMutability": "nonpayable",
      "type": "function"
    },
    {
      "inputs": [],
      "name": "pause",
      "outputs": [],
      "stateMutability": "nonpayable",
      "type": "function"
    },
    {
      "inputs": [],
      "name": "unpause",
      "outputs": [],
      "stateMutability": "nonpayable",
      "type": "function"
    },
    {
      "inputs": [
        {
          "internalType": "uint256",
          "name": "_tokenId",
          "type": "uint256"
        },
        {
          "internalType": "address",
          "name": "_contractAddress",
          "type": "address"
        },
        {
          "internalType": "uint16",
          "name": "_percent",
          "type": "uint16"
        },
        {
          "internalType": "uint32",
          "name": "_duration",
          "type": "uint32"
        },
        {
          "internalType": "uint256",
          "name": "_expiration",
          "type": "uint256"
        },
        {
          "internalType": "uint256",
          "name": "_expectedAmount",
          "type": "uint256"
        }
      ],
      "name": "listNFTforBorrowing",
      "outputs": [
        {
          "internalType": "uint256",
          "name": "_NFTid",
          "type": "uint256"
        }
      ],
      "stateMutability": "nonpayable",
      "type": "function"
    },
    {
      "inputs": [
        {
          "internalType": "uint256",
          "name": "_NFTid",
          "type": "uint256"
        },
        {
          "internalType": "uint16",
          "name": "_percent",
          "type": "uint16"
        }
      ],
      "name": "setPercent",
      "outputs": [],
      "stateMutability": "nonpayable",
      "type": "function"
    },
    {
      "inputs": [
        {
          "internalType": "uint256",
          "name": "_NFTid",
          "type": "uint256"
        },
        {
          "internalType": "uint32",
          "name": "_duration",
          "type": "uint32"
        }
      ],
      "name": "setDurationTime",
      "outputs": [],
      "stateMutability": "nonpayable",
      "type": "function"
    },
    {
      "inputs": [
        {
          "internalType": "uint256",
          "name": "_NFTid",
          "type": "uint256"
        },
        {
          "internalType": "uint256",
          "name": "_expectedAmount",
          "type": "uint256"
        }
      ],
      "name": "setExpectedAmount",
      "outputs": [],
      "stateMutability": "nonpayable",
      "type": "function"
    },
    {
      "inputs": [
        {
          "internalType": "uint256",
          "name": "_NFTid",
          "type": "uint256"
        },
        {
          "internalType": "uint256",
          "name": "_bidAmount",
          "type": "uint256"
        },
        {
          "internalType": "address",
          "name": "_ERC20Address",
          "type": "address"
        },
        {
          "internalType": "uint16",
          "name": "_percent",
          "type": "uint16"
        },
        {
          "internalType": "uint32",
          "name": "_duration",
          "type": "uint32"
        },
        {
          "internalType": "uint256",
          "name": "_expiration",
          "type": "uint256"
        }
      ],
      "name": "Bid",
      "outputs": [],
      "stateMutability": "nonpayable",
      "type": "function"
    },
    {
      "inputs": [
        {
          "internalType": "uint256",
          "name": "_NFTid",
          "type": "uint256"
        },
        {
          "internalType": "uint256",
          "name": "_bidId",
          "type": "uint256"
        }
      ],
      "name": "AcceptBid",
      "outputs": [],
      "stateMutability": "nonpayable",
      "type": "function"
    },
    {
      "inputs": [
        {
          "internalType": "uint256",
          "name": "_NFTid",
          "type": "uint256"
        },
        {
          "internalType": "uint256",
          "name": "_bidId",
          "type": "uint256"
        }
      ],
      "name": "rejectBid",
      "outputs": [],
      "stateMutability": "nonpayable",
      "type": "function"
    },
    {
      "inputs": [
        {
          "internalType": "uint256",
          "name": "_NFTid",
          "type": "uint256"
        },
        {
          "internalType": "uint256",
          "name": "_bidId",
          "type": "uint256"
        }
      ],
      "name": "viewRepayAmount",
      "outputs": [
        {
          "internalType": "uint256",
          "name": "",
          "type": "uint256"
        }
      ],
      "stateMutability": "view",
      "type": "function"
    },
    {
      "inputs": [
        {
          "internalType": "uint256",
          "name": "_NFTid",
          "type": "uint256"
        },
        {
          "internalType": "uint256",
          "name": "_bidId",
          "type": "uint256"
        }
      ],
      "name": "Repay",
      "outputs": [],
      "stateMutability": "nonpayable",
      "type": "function"
    },
    {
      "inputs": [
        {
          "internalType": "uint256",
          "name": "_NFTid",
          "type": "uint256"
        },
        {
          "internalType": "uint256",
          "name": "_bidId",
          "type": "uint256"
        }
      ],
      "name": "withdraw",
      "outputs": [],
      "stateMutability": "nonpayable",
      "type": "function"
    },
    {
      "inputs": [
        {
          "internalType": "uint256",
          "name": "_NFTid",
          "type": "uint256"
        }
      ],
      "name": "removeNFTfromList",
      "outputs": [],
      "stateMutability": "nonpayable",
      "type": "function"
    }
  ],
  "bytecode": "0x60a06040523073ffffffffffffffffffffffffffffffffffffffff1660809073ffffffffffffffffffffffffffffffffffffffff168152503480156200004457600080fd5b50620000556200005b60201b60201c565b62000206565b600060019054906101000a900460ff1615620000ae576040517f08c379a0000000000000000000000000000000000000000000000000000000008152600401620000a590620001a9565b60405180910390fd5b60ff801660008054906101000a900460ff1660ff161015620001205760ff6000806101000a81548160ff021916908360ff1602179055507f7f26b83ff96e1f2b6a682f133852f6798a09c465da95921460cefb384740249860ff604051620001179190620001e9565b60405180910390a15b565b600082825260208201905092915050565b7f496e697469616c697a61626c653a20636f6e747261637420697320696e69746960008201527f616c697a696e6700000000000000000000000000000000000000000000000000602082015250565b60006200019160278362000122565b91506200019e8262000133565b604082019050919050565b60006020820190508181036000830152620001c48162000182565b9050919050565b600060ff82169050919050565b620001e381620001cb565b82525050565b6000602082019050620002006000830184620001d8565b92915050565b608051615b406200023e60003960008181610b1301528181610ba201528181611149015281816111d801526112880152615b406000f3fe6080604052600436106101665760003560e01c806379baa9fd116100d1578063a79215a41161008a578063c4d66de811610064578063c4d66de814610502578063e1617b291461052b578063e37fc17a14610556578063f2fde38b1461057f57610166565b8063a79215a414610455578063a7f323da14610492578063ac6224ae146104d957610166565b806379baa9fd1461035b5780637a98cb62146103845780637e7e45b1146103c15780638456cb59146103ea5780638da5cb5b146104015780638fe3c5b91461042c57610166565b8063441a3e7011610123578063441a3e70146102805780634f1ef286146102a957806352d1902d146102c5578063552544cb146102f05780635c975abb14610319578063715018a61461034457610166565b806302ef37251461016b578063150b7a0214610194578063236169b0146101d157806331c173e2146102175780633659cfe6146102405780633f4ba83a14610269575b600080fd5b34801561017757600080fd5b50610192600480360381019061018d91906139a4565b6105a8565b005b3480156101a057600080fd5b506101bb60048036038101906101b69190613b88565b610743565b6040516101c89190613c46565b60405180910390f35b3480156101dd57600080fd5b506101f860048036038101906101f39190613c61565b610757565b60405161020e9a99989796959493929190613cf5565b60405180910390f35b34801561022357600080fd5b5061023e60048036038101906102399190613d91565b610831565b005b34801561024c57600080fd5b5061026760048036038101906102629190613dd1565b610b11565b005b34801561027557600080fd5b5061027e610c9a565b005b34801561028c57600080fd5b506102a760048036038101906102a29190613d91565b610cac565b005b6102c360048036038101906102be9190613dfe565b611147565b005b3480156102d157600080fd5b506102da611284565b6040516102e79190613e73565b60405180910390f35b3480156102fc57600080fd5b5061031760048036038101906103129190613d91565b61133d565b005b34801561032557600080fd5b5061032e611921565b60405161033b9190613e8e565b60405180910390f35b34801561035057600080fd5b50610359611938565b005b34801561036757600080fd5b50610382600480360381019061037d9190613d91565b61194c565b005b34801561039057600080fd5b506103ab60048036038101906103a69190613d91565b611ae2565b6040516103b89190613ea9565b60405180910390f35b3480156103cd57600080fd5b506103e860048036038101906103e39190613ef0565b611c90565b005b3480156103f657600080fd5b506103ff611ded565b005b34801561040d57600080fd5b50610416611dff565b6040516104239190613f30565b60405180910390f35b34801561043857600080fd5b50610453600480360381019061044e9190613f4b565b611e29565b005b34801561046157600080fd5b5061047c60048036038101906104779190613fd8565b61243f565b6040516104899190613ea9565b60405180910390f35b34801561049e57600080fd5b506104b960048036038101906104b49190613d91565b612802565b6040516104d09b9a99989796959493929190614065565b60405180910390f35b3480156104e557600080fd5b5061050060048036038101906104fb9190613d91565b612900565b005b34801561050e57600080fd5b5061052960048036038101906105249190613dd1565b612a37565b005b34801561053757600080fd5b50610540612bd0565b60405161054d9190613ea9565b60405180910390f35b34801561056257600080fd5b5061057d60048036038101906105789190613c61565b612bd7565b005b34801561058b57600080fd5b506105a660048036038101906105a19190613dd1565b612e4d565b005b6105b0612ed1565b813373ffffffffffffffffffffffffffffffffffffffff16610161600083815260200190815260200160002060010160009054906101000a900473ffffffffffffffffffffffffffffffffffffffff1673ffffffffffffffffffffffffffffffffffffffff1614610656576040517f08c379a000000000000000000000000000000000000000000000000000000000815260040161064d9061416d565b60405180910390fd5b600a8261ffff16101561069e576040517f08c379a0000000000000000000000000000000000000000000000000000000008152600401610695906141ff565b60405180910390fd5b610161600084815260200190815260200160002060050160009054906101000a900461ffff1661ffff168261ffff161461073e5781610161600085815260200190815260200160002060050160006101000a81548161ffff021916908361ffff1602179055507ffd8e2575e33cc5cabe9a522f5bab3c33a5b606c0331275c917eefd77287bfe87838360405161073592919061421f565b60405180910390a15b505050565b600063150b7a0260e01b9050949350505050565b6101616020528060005260406000206000915090508060000154908060010160009054906101000a900473ffffffffffffffffffffffffffffffffffffffff16908060020160009054906101000a900473ffffffffffffffffffffffffffffffffffffffff16908060020160149054906101000a900463ffffffff16908060030154908060040154908060050160009054906101000a900461ffff16908060050160029054906101000a900460ff16908060050160039054906101000a900460ff16908060050160049054906101000a900460ff1690508a565b610839612ed1565b610841612f1b565b600061016060009054906101000a900473ffffffffffffffffffffffffffffffffffffffff1673ffffffffffffffffffffffffffffffffffffffff16634dd9ccb16040518163ffffffff1660e01b8152600401602060405180830381865afa1580156108b1573d6000803e3d6000fd5b505050506040513d601f19601f820116820180604052508101906108d5919061425d565b9050600073__LibCalculations_______________________633fb34003610162600087815260200190815260200160002085815481106109195761091861428a565b5b906000526020600020906008020160050154610162600088815260200190815260200160002086815481106109515761095061428a565b5b906000526020600020906008020160070160009054906101000a900461ffff166040518363ffffffff1660e01b815260040161098e9291906142d7565b602060405180830381865af41580156109ab573d6000803e3d6000fd5b505050506040513d601f19601f820116820180604052508101906109cf9190614315565b905073__LibNFTLendingBorrowing________________63ac607006610161600087815260200190815260200160002061016260008881526020019081526020016000208681548110610a2557610a2461428a565b5b906000526020600020906008020184866040518563ffffffff1660e01b8152600401610a54949392919061435f565b60006040518083038186803b158015610a6c57600080fd5b505af4158015610a80573d6000803e3d6000fd5b505050507ff3dcb1470788b6fc611aa31a4b8290ab1bd5e74bf635a268a8a8c76b960b2e0484848361016260008981526020019081526020016000208781548110610ace57610acd61428a565b5b906000526020600020906008020160050154610aea91906143d3565b84604051610afb9493929190614407565b60405180910390a15050610b0d612f6b565b5050565b7f000000000000000000000000000000000000000000000000000000000000000073ffffffffffffffffffffffffffffffffffffffff163073ffffffffffffffffffffffffffffffffffffffff161415610ba0576040517f08c379a0000000000000000000000000000000000000000000000000000000008152600401610b97906144be565b60405180910390fd5b7f000000000000000000000000000000000000000000000000000000000000000073ffffffffffffffffffffffffffffffffffffffff16610bdf612f75565b73ffffffffffffffffffffffffffffffffffffffff1614610c35576040517f08c379a0000000000000000000000000000000000000000000000000000000008152600401610c2c90614550565b60405180910390fd5b610c3e81612fcc565b610c9781600067ffffffffffffffff811115610c5d57610c5c613a5d565b5b6040519080825280601f01601f191660200182016040528015610c8f5781602001600182028036833780820191505090505b506000612fd7565b50565b610ca2613145565b610caa6131c3565b565b610cb4612ed1565b610cbc612f1b565b3373ffffffffffffffffffffffffffffffffffffffff1661016260008481526020019081526020016000208281548110610cf957610cf861428a565b5b906000526020600020906008020160030160009054906101000a900473ffffffffffffffffffffffffffffffffffffffff1673ffffffffffffffffffffffffffffffffffffffff1614610d81576040517f08c379a0000000000000000000000000000000000000000000000000000000008152600401610d78906145bc565b60405180910390fd5b61016260008381526020019081526020016000208181548110610da757610da661428a565b5b906000526020600020906008020160070160029054906101000a900460ff1615610e06576040517f08c379a0000000000000000000000000000000000000000000000000000000008152600401610dfd90614628565b60405180910390fd5b61016260008381526020019081526020016000208181548110610e2c57610e2b61428a565b5b906000526020600020906008020160070160039054906101000a900460ff1615610e8b576040517f08c379a0000000000000000000000000000000000000000000000000000000008152600401610e8290614694565b60405180910390fd5b610161600083815260200190815260200160002060050160039054906101000a900460ff16610f2e5761016260008381526020019081526020016000208181548110610eda57610ed961428a565b5b9060005260206000209060080201600201544211610f2d576040517f08c379a0000000000000000000000000000000000000000000000000000000008152600401610f2490614726565b60405180910390fd5b5b600161016260008481526020019081526020016000208281548110610f5657610f5561428a565b5b906000526020600020906008020160070160026101000a81548160ff02191690831515021790555061016260008381526020019081526020016000208181548110610fa457610fa361428a565b5b906000526020600020906008020160040160009054906101000a900473ffffffffffffffffffffffffffffffffffffffff1673ffffffffffffffffffffffffffffffffffffffff1663a9059cbb33610162600086815260200190815260200160002084815481106110185761101761428a565b5b9060005260206000209060080201600501546040518363ffffffff1660e01b8152600401611047929190614746565b6020604051808303816000875af1158015611066573d6000803e3d6000fd5b505050506040513d601f19601f8201168201806040525081019061108a919061479b565b6110c9576040517f08c379a00000000000000000000000000000000000000000000000000000000081526004016110c09061483a565b60405180910390fd5b7fabd2ab552bc04cdbfa4a54107fa44ac8c9cb06f6d21da11933ac05a653be19e98282610162600086815260200190815260200160002084815481106111125761111161428a565b5b9060005260206000209060080201600501546040516111339392919061485a565b60405180910390a1611143612f6b565b5050565b7f000000000000000000000000000000000000000000000000000000000000000073ffffffffffffffffffffffffffffffffffffffff163073ffffffffffffffffffffffffffffffffffffffff1614156111d6576040517f08c379a00000000000000000000000000000000000000000000000000000000081526004016111cd906144be565b60405180910390fd5b7f000000000000000000000000000000000000000000000000000000000000000073ffffffffffffffffffffffffffffffffffffffff16611215612f75565b73ffffffffffffffffffffffffffffffffffffffff161461126b576040517f08c379a000000000000000000000000000000000000000000000000000000000815260040161126290614550565b60405180910390fd5b61127482612fcc565b61128082826001612fd7565b5050565b60007f000000000000000000000000000000000000000000000000000000000000000073ffffffffffffffffffffffffffffffffffffffff163073ffffffffffffffffffffffffffffffffffffffff1614611314576040517f08c379a000000000000000000000000000000000000000000000000000000000815260040161130b90614903565b60405180910390fd5b7f360894a13ba1a3210667c828492db98dca3e2076cc3735a920a3ca505d382bbc60001b905090565b611345612ed1565b61134d612f1b565b610161600083815260200190815260200160002060050160039054906101000a900460ff166113b1576040517f08c379a00000000000000000000000000000000000000000000000000000000081526004016113a89061496f565b60405180910390fd5b610161600083815260200190815260200160002060050160029054906101000a900460ff16611415576040517f08c379a000000000000000000000000000000000000000000000000000000000815260040161140c906149db565b60405180910390fd5b6101626000838152602001908152602001600020818154811061143b5761143a61428a565b5b906000526020600020906008020160070160039054906101000a900460ff16611499576040517f08c379a000000000000000000000000000000000000000000000000000000000815260040161149090614a47565b60405180910390fd5b610161600083815260200190815260200160002060050160049054906101000a900460ff16156114fe576040517f08c379a00000000000000000000000000000000000000000000000000000000081526004016114f590614ab3565b60405180910390fd5b60006115c9610162600085815260200190815260200160002083815481106115295761152861428a565b5b906000526020600020906008020160050154610162600086815260200190815260200160002084815481106115615761156061428a565b5b906000526020600020906008020160010160009054906101000a900461ffff16610162600087815260200190815260200160002085815481106115a7576115a661428a565b5b906000526020600020906008020160060154426115c491906143d3565b613226565b90506001610161600085815260200190815260200160002060050160046101000a81548160ff0219169083151502179055506000610161600085815260200190815260200160002060050160026101000a81548160ff021916908315150217905550610162600084815260200190815260200160002082815481106116515761165061428a565b5b906000526020600020906008020160040160009054906101000a900473ffffffffffffffffffffffffffffffffffffffff1673ffffffffffffffffffffffffffffffffffffffff166323b872dd33610162600087815260200190815260200160002085815481106116c5576116c461428a565b5b906000526020600020906008020160030160009054906101000a900473ffffffffffffffffffffffffffffffffffffffff16846101626000898152602001908152602001600020878154811061171e5761171d61428a565b5b90600052602060002090600802016005015461173a9190614ad3565b6040518463ffffffff1660e01b815260040161175893929190614b29565b6020604051808303816000875af1158015611777573d6000803e3d6000fd5b505050506040513d601f19601f8201168201806040525081019061179b919061479b565b6117da576040517f08c379a00000000000000000000000000000000000000000000000000000000081526004016117d190614bd2565b60405180910390fd5b610161600084815260200190815260200160002060020160009054906101000a900473ffffffffffffffffffffffffffffffffffffffff1673ffffffffffffffffffffffffffffffffffffffff166342842e0e30336101616000888152602001908152602001600020600001546040518463ffffffff1660e01b815260040161186593929190614b29565b600060405180830381600087803b15801561187f57600080fd5b505af1158015611893573d6000803e3d6000fd5b505050507f91a214dd31764aed3c074372e042b1fb2178af7bdee126d40419260825b5c833838383610162600088815260200190815260200160002086815481106118e1576118e061428a565b5b9060005260206000209060080201600501546118fd9190614ad3565b60405161190c9392919061485a565b60405180910390a15061191d612f6b565b5050565b6000609760009054906101000a900460ff16905090565b611940613145565b61194a6000613271565b565b611954612ed1565b61195c612f1b565b73__LibNFTLendingBorrowing________________6392dd672d6101616000858152602001908152602001600020610162600086815260200190815260200160002084815481106119b0576119af61428a565b5b90600052602060002090600802016040518363ffffffff1660e01b81526004016119db929190614bf2565b60006040518083038186803b1580156119f357600080fd5b505af4158015611a07573d6000803e3d6000fd5b505050507fcfaabf79e49f480cc0bc57471cd9623f197f621fea8ace13d5afc4cd310b5e11828261016260008681526020019081526020016000208481548110611a5457611a5361428a565b5b906000526020600020906008020160030160009054906101000a900473ffffffffffffffffffffffffffffffffffffffff1661016260008781526020019081526020016000208581548110611aac57611aab61428a565b5b906000526020600020906008020160050154604051611ace9493929190614c1b565b60405180910390a1611ade612f6b565b5050565b600061016260008481526020019081526020016000208281548110611b0a57611b0961428a565b5b906000526020600020906008020160070160039054906101000a900460ff16611b365760009050611c8a565b610161600084815260200190815260200160002060050160049054906101000a900460ff1615611b695760009050611c8a565b6000611c4161016260008681526020019081526020016000208481548110611b9457611b9361428a565b5b90600052602060002090600802016005015461016260008781526020019081526020016000208581548110611bcc57611bcb61428a565b5b906000526020600020906008020160010160009054906101000a900461ffff1661025861016260008981526020019081526020016000208781548110611c1557611c1461428a565b5b90600052602060002090600802016006015442611c3291906143d3565b611c3c9190614ad3565b613226565b90508061016260008681526020019081526020016000208481548110611c6a57611c6961428a565b5b906000526020600020906008020160050154611c869190614ad3565b9150505b92915050565b611c98612ed1565b813373ffffffffffffffffffffffffffffffffffffffff16610161600083815260200190815260200160002060010160009054906101000a900473ffffffffffffffffffffffffffffffffffffffff1673ffffffffffffffffffffffffffffffffffffffff1614611d3e576040517f08c379a0000000000000000000000000000000000000000000000000000000008152600401611d359061416d565b60405180910390fd5b610161600084815260200190815260200160002060020160149054906101000a900463ffffffff1663ffffffff168263ffffffff1614611de85781610161600085815260200190815260200160002060020160146101000a81548163ffffffff021916908363ffffffff1602179055507f54952112e3597233437f179f606c73f4e5d2cfa67bd8b930c88a88611fda2c8b8383604051611ddf929190614c60565b60405180910390a15b505050565b611df5613145565b611dfd613337565b565b6000606560009054906101000a900473ffffffffffffffffffffffffffffffffffffffff16905090565b611e31612ed1565b611e39612f1b565b600073ffffffffffffffffffffffffffffffffffffffff168473ffffffffffffffffffffffffffffffffffffffff161415611e7357600080fd5b62989680851015611eb9576040517f08c379a0000000000000000000000000000000000000000000000000000000008152600401611eb090614cd5565b60405180910390fd5b600a8361ffff161015611f01576040517f08c379a0000000000000000000000000000000000000000000000000000000008152600401611ef890614d41565b60405180910390fd5b610161600087815260200190815260200160002060050160039054906101000a900460ff1615611f66576040517f08c379a0000000000000000000000000000000000000000000000000000000008152600401611f5d90614dad565b60405180910390fd5b610161600087815260200190815260200160002060050160029054906101000a900460ff16611fca576040517f08c379a0000000000000000000000000000000000000000000000000000000008152600401611fc190614e19565b60405180910390fd5b4261016160008881526020019081526020016000206003015411612023576040517f08c379a000000000000000000000000000000000000000000000000000000000815260040161201a90614e85565b60405180910390fd5b600061016060009054906101000a900473ffffffffffffffffffffffffffffffffffffffff1673ffffffffffffffffffffffffffffffffffffffff1663e9d011cb6040518163ffffffff1660e01b8152600401602060405180830381865afa158015612093573d6000803e3d6000fd5b505050506040513d601f19601f820116820180604052508101906120b79190614eba565b9050600060405180610160016040528061016260008b81526020019081526020016000208054905081526020018661ffff1681526020018563ffffffff16815260200142856121069190614ad3565b81526020013373ffffffffffffffffffffffffffffffffffffffff1681526020018773ffffffffffffffffffffffffffffffffffffffff168152602001888152602001600081526020018361ffff16815260200160001515815260200160001515815250905061016260008981526020019081526020016000208190806001815401808255809150506001900390600052602060002090600802016000909190919091506000820151816000015560208201518160010160006101000a81548161ffff021916908361ffff16021790555060408201518160010160026101000a81548163ffffffff021916908363ffffffff1602179055506060820151816002015560808201518160030160006101000a81548173ffffffffffffffffffffffffffffffffffffffff021916908373ffffffffffffffffffffffffffffffffffffffff16021790555060a08201518160040160006101000a81548173ffffffffffffffffffffffffffffffffffffffff021916908373ffffffffffffffffffffffffffffffffffffffff16021790555060c0820151816005015560e082015181600601556101008201518160070160006101000a81548161ffff021916908361ffff1602179055506101208201518160070160026101000a81548160ff0219169083151502179055506101408201518160070160036101000a81548160ff02191690831515021790555050508573ffffffffffffffffffffffffffffffffffffffff166323b872dd33308a6040518463ffffffff1660e01b815260040161234f93929190614b29565b6020604051808303816000875af115801561236e573d6000803e3d6000fd5b505050506040513d601f19601f82011682018060405250810190612392919061479b565b6123d1576040517f08c379a00000000000000000000000000000000000000000000000000000000081526004016123c890614f33565b60405180910390fd5b7faa4f7100501db6f3d6d6e511c2302a2f2816fabf38f82ec03252a20b0e306fea600161016260008b81526020019081526020016000208054905061241691906143d3565b89604051612425929190614f53565b60405180910390a15050612437612f6b565b505050505050565b600085878173ffffffffffffffffffffffffffffffffffffffff16636352211e826040518263ffffffff1660e01b815260040161247c9190613ea9565b602060405180830381865afa158015612499573d6000803e3d6000fd5b505050506040513d601f19601f820116820180604052508101906124bd919061425d565b73ffffffffffffffffffffffffffffffffffffffff163373ffffffffffffffffffffffffffffffffffffffff161461252a576040517f08c379a000000000000000000000000000000000000000000000000000000000815260040161252190614fc8565b60405180910390fd5b612532612ed1565b61253a612f1b565b600073ffffffffffffffffffffffffffffffffffffffff168873ffffffffffffffffffffffffffffffffffffffff16141561257457600080fd5b600a8761ffff16101561258657600080fd5b6298968084101561259657600080fd5b61015f600081546125a690614fe8565b919050819055925060006040518061014001604052808b81526020013373ffffffffffffffffffffffffffffffffffffffff1681526020018a73ffffffffffffffffffffffffffffffffffffffff1681526020018863ffffffff16815260200142886126129190614ad3565b81526020018681526020018961ffff1681526020016001151581526020016000151581526020016000151581525090508061016160008681526020019081526020016000206000820151816000015560208201518160010160006101000a81548173ffffffffffffffffffffffffffffffffffffffff021916908373ffffffffffffffffffffffffffffffffffffffff16021790555060408201518160020160006101000a81548173ffffffffffffffffffffffffffffffffffffffff021916908373ffffffffffffffffffffffffffffffffffffffff16021790555060608201518160020160146101000a81548163ffffffff021916908363ffffffff1602179055506080820151816003015560a0820151816004015560c08201518160050160006101000a81548161ffff021916908361ffff16021790555060e08201518160050160026101000a81548160ff0219169083151502179055506101008201518160050160036101000a81548160ff0219169083151502179055506101208201518160050160046101000a81548160ff0219169083151502179055509050507ff7ba9a1a831f7e899b8bc38b926105e3fa359e7ebca14013b74dc9b855210058848b8b6040516127e593929190615031565b60405180910390a1506127f6612f6b565b50509695505050505050565b610162602052816000526040600020818154811061281f57600080fd5b9060005260206000209060080201600091509150508060000154908060010160009054906101000a900461ffff16908060010160029054906101000a900463ffffffff16908060020154908060030160009054906101000a900473ffffffffffffffffffffffffffffffffffffffff16908060040160009054906101000a900473ffffffffffffffffffffffffffffffffffffffff16908060050154908060060154908060070160009054906101000a900461ffff16908060070160029054906101000a900460ff16908060070160039054906101000a900460ff1690508b565b612908612ed1565b813373ffffffffffffffffffffffffffffffffffffffff16610161600083815260200190815260200160002060010160009054906101000a900473ffffffffffffffffffffffffffffffffffffffff1673ffffffffffffffffffffffffffffffffffffffff16146129ae576040517f08c379a00000000000000000000000000000000000000000000000000000000081526004016129a59061416d565b60405180910390fd5b629896808210156129be57600080fd5b6101616000848152602001908152602001600020600401548214612a3257816101616000858152602001908152602001600020600401819055507f287071c6a27a1aee9081f9ac1bc3e0b3812edb3d552ab050ed378ca59457db608383604051612a29929190614f53565b60405180910390a15b505050565b60008060019054906101000a900460ff16159050808015612a685750600160008054906101000a900460ff1660ff16105b80612a955750612a773061339a565b158015612a945750600160008054906101000a900460ff1660ff16145b5b612ad4576040517f08c379a0000000000000000000000000000000000000000000000000000000008152600401612acb906150da565b60405180910390fd5b60016000806101000a81548160ff021916908360ff1602179055508015612b11576001600060016101000a81548160ff0219169083151502179055505b612b196133bd565b612b21613416565b612b29613467565b612b316134c0565b8161016060006101000a81548173ffffffffffffffffffffffffffffffffffffffff021916908373ffffffffffffffffffffffffffffffffffffffff1602179055508015612bcc5760008060016101000a81548160ff0219169083151502179055507f7f26b83ff96e1f2b6a682f133852f6798a09c465da95921460cefb38474024986001604051612bc3919061514c565b60405180910390a15b5050565b61015f5481565b612bdf612ed1565b610161600082815260200190815260200160002060020160009054906101000a900473ffffffffffffffffffffffffffffffffffffffff1673ffffffffffffffffffffffffffffffffffffffff16636352211e6101616000848152602001908152602001600020600001546040518263ffffffff1660e01b8152600401612c669190613ea9565b602060405180830381865afa158015612c83573d6000803e3d6000fd5b505050506040513d601f19601f82011682018060405250810190612ca7919061425d565b73ffffffffffffffffffffffffffffffffffffffff163373ffffffffffffffffffffffffffffffffffffffff1614612d14576040517f08c379a0000000000000000000000000000000000000000000000000000000008152600401612d0b90614fc8565b60405180910390fd5b60001515610161600083815260200190815260200160002060050160039054906101000a900460ff16151514612d7f576040517f08c379a0000000000000000000000000000000000000000000000000000000008152600401612d76906151b3565b60405180910390fd5b610161600082815260200190815260200160002060050160029054906101000a900460ff16612de3576040517f08c379a0000000000000000000000000000000000000000000000000000000008152600401612dda9061521f565b60405180910390fd5b6000610161600083815260200190815260200160002060050160026101000a81548160ff0219169083151502179055507f5b8046420884c4698df446ee47bb3971db3b7f1f959ff4f04a70b32b2873284181604051612e429190613ea9565b60405180910390a150565b612e55613145565b600073ffffffffffffffffffffffffffffffffffffffff168173ffffffffffffffffffffffffffffffffffffffff161415612ec5576040517f08c379a0000000000000000000000000000000000000000000000000000000008152600401612ebc906152b1565b60405180910390fd5b612ece81613271565b50565b612ed9611921565b15612f19576040517f08c379a0000000000000000000000000000000000000000000000000000000008152600401612f109061531d565b60405180910390fd5b565b600260c9541415612f61576040517f08c379a0000000000000000000000000000000000000000000000000000000008152600401612f5890615389565b60405180910390fd5b600260c981905550565b600160c981905550565b6000612fa37f360894a13ba1a3210667c828492db98dca3e2076cc3735a920a3ca505d382bbc60001b613511565b60000160009054906101000a900473ffffffffffffffffffffffffffffffffffffffff16905090565b612fd4613145565b50565b6130037f4910fdfa16fed3260ed0e7147f7cc6da11a60208b5b9406d12a635614ffd914360001b61351b565b60000160009054906101000a900460ff16156130275761302283613525565b613140565b8273ffffffffffffffffffffffffffffffffffffffff166352d1902d6040518163ffffffff1660e01b8152600401602060405180830381865afa92505050801561308f57506040513d601f19601f8201168201806040525081019061308c91906153d5565b60015b6130ce576040517f08c379a00000000000000000000000000000000000000000000000000000000081526004016130c590615474565b60405180910390fd5b7f360894a13ba1a3210667c828492db98dca3e2076cc3735a920a3ca505d382bbc60001b8114613133576040517f08c379a000000000000000000000000000000000000000000000000000000000815260040161312a90615506565b60405180910390fd5b5061313f8383836135de565b5b505050565b61314d61360a565b73ffffffffffffffffffffffffffffffffffffffff1661316b611dff565b73ffffffffffffffffffffffffffffffffffffffff16146131c1576040517f08c379a00000000000000000000000000000000000000000000000000000000081526004016131b890615572565b60405180910390fd5b565b6131cb613612565b6000609760006101000a81548160ff0219169083151502179055507f5db9ee0a495bf2e6ff9c91a7834c1ba4fdd244a5e8aa4e537bd38aeae4b073aa61320f61360a565b60405161321c9190613f30565b60405180910390a1565b600080613233858561365b565b90506000610e108461324591906155c1565b905060006121c0905080828461325b91906155f2565b61326591906155c1565b93505050509392505050565b6000606560009054906101000a900473ffffffffffffffffffffffffffffffffffffffff16905081606560006101000a81548173ffffffffffffffffffffffffffffffffffffffff021916908373ffffffffffffffffffffffffffffffffffffffff1602179055508173ffffffffffffffffffffffffffffffffffffffff168173ffffffffffffffffffffffffffffffffffffffff167f8be0079c531659141344cd1fd0a4f28419497f9722a3daafe3b4186f6b6457e060405160405180910390a35050565b61333f612ed1565b6001609760006101000a81548160ff0219169083151502179055507f62e78cea01bee320cd4e420270b5ea74000d11b0c9f74754ebdbfc544b05a25861338361360a565b6040516133909190613f30565b60405180910390a1565b6000808273ffffffffffffffffffffffffffffffffffffffff163b119050919050565b600060019054906101000a900460ff1661340c576040517f08c379a0000000000000000000000000000000000000000000000000000000008152600401613403906156be565b60405180910390fd5b613414613675565b565b600060019054906101000a900460ff16613465576040517f08c379a000000000000000000000000000000000000000000000000000000000815260040161345c906156be565b60405180910390fd5b565b600060019054906101000a900460ff166134b6576040517f08c379a00000000000000000000000000000000000000000000000000000000081526004016134ad906156be565b60405180910390fd5b6134be6136ce565b565b600060019054906101000a900460ff1661350f576040517f08c379a0000000000000000000000000000000000000000000000000000000008152600401613506906156be565b60405180910390fd5b565b6000819050919050565b6000819050919050565b61352e8161339a565b61356d576040517f08c379a000000000000000000000000000000000000000000000000000000000815260040161356490615750565b60405180910390fd5b8061359a7f360894a13ba1a3210667c828492db98dca3e2076cc3735a920a3ca505d382bbc60001b613511565b60000160006101000a81548173ffffffffffffffffffffffffffffffffffffffff021916908373ffffffffffffffffffffffffffffffffffffffff16021790555050565b6135e78361372f565b6000825111806135f45750805b1561360557613603838361377e565b505b505050565b600033905090565b61361a611921565b613659576040517f08c379a0000000000000000000000000000000000000000000000000000000008152600401613650906157bc565b60405180910390fd5b565b600061366d838361ffff166002613862565b905092915050565b600060019054906101000a900460ff166136c4576040517f08c379a00000000000000000000000000000000000000000000000000000000081526004016136bb906156be565b60405180910390fd5b600160c981905550565b600060019054906101000a900460ff1661371d576040517f08c379a0000000000000000000000000000000000000000000000000000000008152600401613714906156be565b60405180910390fd5b61372d61372861360a565b613271565b565b61373881613525565b8073ffffffffffffffffffffffffffffffffffffffff167fbc7cd75a20ee27fd9adebab32041f755214dbc6bffa90cc0225b39da2e5c2d3b60405160405180910390a250565b60606137898361339a565b6137c8576040517f08c379a00000000000000000000000000000000000000000000000000000000081526004016137bf9061584e565b60405180910390fd5b6000808473ffffffffffffffffffffffffffffffffffffffff16846040516137f091906158e8565b600060405180830381855af49150503d806000811461382b576040519150601f19603f3d011682016040523d82523d6000602084013e613830565b606091505b50915091506138588282604051806060016040528060278152602001615ae46027913961388c565b9250505092915050565b600061386d826138ae565b838561387991906155f2565b61388391906155c1565b90509392505050565b6060831561389c578290506138a7565b6138a683836138d0565b5b9392505050565b600081600a6138bd9190615a32565b60646138c991906155f2565b9050919050565b6000825111156138e35781518083602001fd5b806040517f08c379a00000000000000000000000000000000000000000000000000000000081526004016139179190615ac1565b60405180910390fd5b6000604051905090565b600080fd5b600080fd5b6000819050919050565b61394781613934565b811461395257600080fd5b50565b6000813590506139648161393e565b92915050565b600061ffff82169050919050565b6139818161396a565b811461398c57600080fd5b50565b60008135905061399e81613978565b92915050565b600080604083850312156139bb576139ba61392a565b5b60006139c985828601613955565b92505060206139da8582860161398f565b9150509250929050565b600073ffffffffffffffffffffffffffffffffffffffff82169050919050565b6000613a0f826139e4565b9050919050565b613a1f81613a04565b8114613a2a57600080fd5b50565b600081359050613a3c81613a16565b92915050565b600080fd5b600080fd5b6000601f19601f8301169050919050565b7f4e487b7100000000000000000000000000000000000000000000000000000000600052604160045260246000fd5b613a9582613a4c565b810181811067ffffffffffffffff82111715613ab457613ab3613a5d565b5b80604052505050565b6000613ac7613920565b9050613ad38282613a8c565b919050565b600067ffffffffffffffff821115613af357613af2613a5d565b5b613afc82613a4c565b9050602081019050919050565b82818337600083830152505050565b6000613b2b613b2684613ad8565b613abd565b905082815260208101848484011115613b4757613b46613a47565b5b613b52848285613b09565b509392505050565b600082601f830112613b6f57613b6e613a42565b5b8135613b7f848260208601613b18565b91505092915050565b60008060008060808587031215613ba257613ba161392a565b5b6000613bb087828801613a2d565b9450506020613bc187828801613a2d565b9350506040613bd287828801613955565b925050606085013567ffffffffffffffff811115613bf357613bf261392f565b5b613bff87828801613b5a565b91505092959194509250565b60007fffffffff0000000000000000000000000000000000000000000000000000000082169050919050565b613c4081613c0b565b82525050565b6000602082019050613c5b6000830184613c37565b92915050565b600060208284031215613c7757613c7661392a565b5b6000613c8584828501613955565b91505092915050565b613c9781613934565b82525050565b613ca681613a04565b82525050565b600063ffffffff82169050919050565b613cc581613cac565b82525050565b613cd48161396a565b82525050565b60008115159050919050565b613cef81613cda565b82525050565b600061014082019050613d0b600083018d613c8e565b613d18602083018c613c9d565b613d25604083018b613c9d565b613d32606083018a613cbc565b613d3f6080830189613c8e565b613d4c60a0830188613c8e565b613d5960c0830187613ccb565b613d6660e0830186613ce6565b613d74610100830185613ce6565b613d82610120830184613ce6565b9b9a5050505050505050505050565b60008060408385031215613da857613da761392a565b5b6000613db685828601613955565b9250506020613dc785828601613955565b9150509250929050565b600060208284031215613de757613de661392a565b5b6000613df584828501613a2d565b91505092915050565b60008060408385031215613e1557613e1461392a565b5b6000613e2385828601613a2d565b925050602083013567ffffffffffffffff811115613e4457613e4361392f565b5b613e5085828601613b5a565b9150509250929050565b6000819050919050565b613e6d81613e5a565b82525050565b6000602082019050613e886000830184613e64565b92915050565b6000602082019050613ea36000830184613ce6565b92915050565b6000602082019050613ebe6000830184613c8e565b92915050565b613ecd81613cac565b8114613ed857600080fd5b50565b600081359050613eea81613ec4565b92915050565b60008060408385031215613f0757613f0661392a565b5b6000613f1585828601613955565b9250506020613f2685828601613edb565b9150509250929050565b6000602082019050613f456000830184613c9d565b92915050565b60008060008060008060c08789031215613f6857613f6761392a565b5b6000613f7689828a01613955565b9650506020613f8789828a01613955565b9550506040613f9889828a01613a2d565b9450506060613fa989828a0161398f565b9350506080613fba89828a01613edb565b92505060a0613fcb89828a01613955565b9150509295509295509295565b60008060008060008060c08789031215613ff557613ff461392a565b5b600061400389828a01613955565b965050602061401489828a01613a2d565b955050604061402589828a0161398f565b945050606061403689828a01613edb565b935050608061404789828a01613955565b92505060a061405889828a01613955565b9150509295509295509295565b60006101608201905061407b600083018e613c8e565b614088602083018d613ccb565b614095604083018c613cbc565b6140a2606083018b613c8e565b6140af608083018a613c9d565b6140bc60a0830189613c9d565b6140c960c0830188613c8e565b6140d660e0830187613c8e565b6140e4610100830186613ccb565b6140f2610120830185613ce6565b614100610140830184613ce6565b9c9b505050505050505050505050565b600082825260208201905092915050565b7f4e6f7420746865206f776e657200000000000000000000000000000000000000600082015250565b6000614157600d83614110565b915061416282614121565b602082019050919050565b600060208201905081810360008301526141868161414a565b9050919050565b7f696e7465726573742070657263656e742073686f756c6420626520677265617460008201527f6572207468616e20302e31250000000000000000000000000000000000000000602082015250565b60006141e9602c83614110565b91506141f48261418d565b604082019050919050565b60006020820190508181036000830152614218816141dc565b9050919050565b60006040820190506142346000830185613c8e565b6142416020830184613ccb565b9392505050565b60008151905061425781613a16565b92915050565b6000602082840312156142735761427261392a565b5b600061428184828501614248565b91505092915050565b7f4e487b7100000000000000000000000000000000000000000000000000000000600052603260045260246000fd5b6142c281613934565b82525050565b6142d18161396a565b82525050565b60006040820190506142ec60008301856142b9565b6142f960208301846142c8565b9392505050565b60008151905061430f8161393e565b92915050565b60006020828403121561432b5761432a61392a565b5b600061433984828501614300565b91505092915050565b8082525050565b8082525050565b61435981613a04565b82525050565b60006080820190506143746000830187614342565b6143816020830186614349565b61438e60408301856142b9565b61439b6060830184614350565b95945050505050565b7f4e487b7100000000000000000000000000000000000000000000000000000000600052601160045260246000fd5b60006143de82613934565b91506143e983613934565b9250828210156143fc576143fb6143a4565b5b828203905092915050565b600060808201905061441c6000830187613c8e565b6144296020830186613c8e565b6144366040830185613c8e565b6144436060830184613c8e565b95945050505050565b7f46756e6374696f6e206d7573742062652063616c6c6564207468726f7567682060008201527f64656c656761746563616c6c0000000000000000000000000000000000000000602082015250565b60006144a8602c83614110565b91506144b38261444c565b604082019050919050565b600060208201905081810360008301526144d78161449b565b9050919050565b7f46756e6374696f6e206d7573742062652063616c6c6564207468726f7567682060008201527f6163746976652070726f78790000000000000000000000000000000000000000602082015250565b600061453a602c83614110565b9150614545826144de565b604082019050919050565b600060208201905081810360008301526145698161452d565b9050919050565b7f596f752063616e27742077697468647261772074686973204269640000000000600082015250565b60006145a6601b83614110565b91506145b182614570565b602082019050919050565b600060208201905081810360008301526145d581614599565b9050919050565b7f416c72656164792077697468647261776e000000000000000000000000000000600082015250565b6000614612601183614110565b915061461d826145dc565b602082019050919050565b6000602082019050818103600083015261464181614605565b9050919050565b7f596f75722042696420686173206265656e204163636570746564000000000000600082015250565b600061467e601a83614110565b915061468982614648565b602082019050919050565b600060208201905081810360008301526146ad81614671565b9050919050565b7f43616e277420776974686472617720426964206265666f72652065787069726160008201527f74696f6e00000000000000000000000000000000000000000000000000000000602082015250565b6000614710602483614110565b915061471b826146b4565b604082019050919050565b6000602082019050818103600083015261473f81614703565b9050919050565b600060408201905061475b6000830185613c9d565b6147686020830184613c8e565b9392505050565b61477881613cda565b811461478357600080fd5b50565b6000815190506147958161476f565b92915050565b6000602082840312156147b1576147b061392a565b5b60006147bf84828501614786565b91505092915050565b7f756e61626c6520746f207472616e7366657220746f204269646465722041646460008201527f7265737300000000000000000000000000000000000000000000000000000000602082015250565b6000614824602483614110565b915061482f826147c8565b604082019050919050565b6000602082019050818103600083015261485381614817565b9050919050565b600060608201905061486f6000830186613c8e565b61487c6020830185613c8e565b6148896040830184613c8e565b949350505050565b7f555550535570677261646561626c653a206d757374206e6f742062652063616c60008201527f6c6564207468726f7567682064656c656761746563616c6c0000000000000000602082015250565b60006148ed603883614110565b91506148f882614891565b604082019050919050565b6000602082019050818103600083015261491c816148e0565b9050919050565b7f426964204e6f7420416363657074656420796574000000000000000000000000600082015250565b6000614959601483614110565b915061496482614923565b602082019050919050565b600060208201905081810360008301526149888161494c565b9050919050565b7f49742773206e6f74206c697374656420666f7220426f72726f77696e67000000600082015250565b60006149c5601d83614110565b91506149d08261498f565b602082019050919050565b600060208201905081810360008301526149f4816149b8565b9050919050565b7f426964206e6f7420416363657074656400000000000000000000000000000000600082015250565b6000614a31601083614110565b9150614a3c826149fb565b602082019050919050565b60006020820190508181036000830152614a6081614a24565b9050919050565b7f416c726561647920526570616964000000000000000000000000000000000000600082015250565b6000614a9d600e83614110565b9150614aa882614a67565b602082019050919050565b60006020820190508181036000830152614acc81614a90565b9050919050565b6000614ade82613934565b9150614ae983613934565b9250827fffffffffffffffffffffffffffffffffffffffffffffffffffffffffffffffff03821115614b1e57614b1d6143a4565b5b828201905092915050565b6000606082019050614b3e6000830186613c9d565b614b4b6020830185613c9d565b614b586040830184613c8e565b949350505050565b7f756e61626c6520746f207472616e7366657220746f206269646465722041646460008201527f7265737300000000000000000000000000000000000000000000000000000000602082015250565b6000614bbc602483614110565b9150614bc782614b60565b604082019050919050565b60006020820190508181036000830152614beb81614baf565b9050919050565b6000604082019050614c076000830185614342565b614c146020830184614349565b9392505050565b6000608082019050614c306000830187613c8e565b614c3d6020830186613c8e565b614c4a6040830185613c9d565b614c576060830184613c8e565b95945050505050565b6000604082019050614c756000830185613c8e565b614c826020830184613cbc565b9392505050565b7f62696420616d6f756e7420746f6f206c6f770000000000000000000000000000600082015250565b6000614cbf601283614110565b9150614cca82614c89565b602082019050919050565b60006020820190508181036000830152614cee81614cb2565b9050919050565b7f696e7465726573742070657263656e7420746f6f206c6f770000000000000000600082015250565b6000614d2b601883614110565b9150614d3682614cf5565b602082019050919050565b60006020820190508181036000830152614d5a81614d1e565b9050919050565b7f42696420416c7265616479204163636570746564000000000000000000000000600082015250565b6000614d97601483614110565b9150614da282614d61565b602082019050919050565b60006020820190508181036000830152614dc681614d8a565b9050919050565b7f596f752063616e277420426964206f6e2074686973204e465400000000000000600082015250565b6000614e03601983614110565b9150614e0e82614dcd565b602082019050919050565b60006020820190508181036000830152614e3281614df6565b9050919050565b7f4269642074696d65206f76657200000000000000000000000000000000000000600082015250565b6000614e6f600d83614110565b9150614e7a82614e39565b602082019050919050565b60006020820190508181036000830152614e9e81614e62565b9050919050565b600081519050614eb481613978565b92915050565b600060208284031215614ed057614ecf61392a565b5b6000614ede84828501614ea5565b91505092915050565b7f556e61626c6520746f2074616e7366657220596f757220455243323000000000600082015250565b6000614f1d601c83614110565b9150614f2882614ee7565b602082019050919050565b60006020820190508181036000830152614f4c81614f10565b9050919050565b6000604082019050614f686000830185613c8e565b614f756020830184613c8e565b9392505050565b7f4f6e6c7920746f6b656e206f776e65722063616e206578656375746500000000600082015250565b6000614fb2601c83614110565b9150614fbd82614f7c565b602082019050919050565b60006020820190508181036000830152614fe181614fa5565b9050919050565b6000614ff382613934565b91507fffffffffffffffffffffffffffffffffffffffffffffffffffffffffffffffff821415615026576150256143a4565b5b600182019050919050565b60006060820190506150466000830186613c8e565b6150536020830185613c8e565b6150606040830184613c9d565b949350505050565b7f496e697469616c697a61626c653a20636f6e747261637420697320616c72656160008201527f647920696e697469616c697a6564000000000000000000000000000000000000602082015250565b60006150c4602e83614110565b91506150cf82615068565b604082019050919050565b600060208201905081810360008301526150f3816150b7565b9050919050565b6000819050919050565b600060ff82169050919050565b6000819050919050565b600061513661513161512c846150fa565b615111565b615104565b9050919050565b6151468161511b565b82525050565b6000602082019050615161600083018461513d565b92915050565b7f62696420686173206265656e2061636365707465640000000000000000000000600082015250565b600061519d601583614110565b91506151a882615167565b602082019050919050565b600060208201905081810360008301526151cc81615190565b9050919050565b7f4974277320616972656164792072656d6f766564000000000000000000000000600082015250565b6000615209601483614110565b9150615214826151d3565b602082019050919050565b60006020820190508181036000830152615238816151fc565b9050919050565b7f4f776e61626c653a206e6577206f776e657220697320746865207a65726f206160008201527f6464726573730000000000000000000000000000000000000000000000000000602082015250565b600061529b602683614110565b91506152a68261523f565b604082019050919050565b600060208201905081810360008301526152ca8161528e565b9050919050565b7f5061757361626c653a2070617573656400000000000000000000000000000000600082015250565b6000615307601083614110565b9150615312826152d1565b602082019050919050565b60006020820190508181036000830152615336816152fa565b9050919050565b7f5265656e7472616e637947756172643a207265656e7472616e742063616c6c00600082015250565b6000615373601f83614110565b915061537e8261533d565b602082019050919050565b600060208201905081810360008301526153a281615366565b9050919050565b6153b281613e5a565b81146153bd57600080fd5b50565b6000815190506153cf816153a9565b92915050565b6000602082840312156153eb576153ea61392a565b5b60006153f9848285016153c0565b91505092915050565b7f45524331393637557067726164653a206e657720696d706c656d656e7461746960008201527f6f6e206973206e6f742055555053000000000000000000000000000000000000602082015250565b600061545e602e83614110565b915061546982615402565b604082019050919050565b6000602082019050818103600083015261548d81615451565b9050919050565b7f45524331393637557067726164653a20756e737570706f727465642070726f7860008201527f6961626c65555549440000000000000000000000000000000000000000000000602082015250565b60006154f0602983614110565b91506154fb82615494565b604082019050919050565b6000602082019050818103600083015261551f816154e3565b9050919050565b7f4f776e61626c653a2063616c6c6572206973206e6f7420746865206f776e6572600082015250565b600061555c602083614110565b915061556782615526565b602082019050919050565b6000602082019050818103600083015261558b8161554f565b9050919050565b7f4e487b7100000000000000000000000000000000000000000000000000000000600052601260045260246000fd5b60006155cc82613934565b91506155d783613934565b9250826155e7576155e6615592565b5b828204905092915050565b60006155fd82613934565b915061560883613934565b9250817fffffffffffffffffffffffffffffffffffffffffffffffffffffffffffffffff0483118215151615615641576156406143a4565b5b828202905092915050565b7f496e697469616c697a61626c653a20636f6e7472616374206973206e6f74206960008201527f6e697469616c697a696e67000000000000000000000000000000000000000000602082015250565b60006156a8602b83614110565b91506156b38261564c565b604082019050919050565b600060208201905081810360008301526156d78161569b565b9050919050565b7f455243313936373a206e657720696d706c656d656e746174696f6e206973206e60008201527f6f74206120636f6e747261637400000000000000000000000000000000000000602082015250565b600061573a602d83614110565b9150615745826156de565b604082019050919050565b600060208201905081810360008301526157698161572d565b9050919050565b7f5061757361626c653a206e6f7420706175736564000000000000000000000000600082015250565b60006157a6601483614110565b91506157b182615770565b602082019050919050565b600060208201905081810360008301526157d581615799565b9050919050565b7f416464726573733a2064656c65676174652063616c6c20746f206e6f6e2d636f60008201527f6e74726163740000000000000000000000000000000000000000000000000000602082015250565b6000615838602683614110565b9150615843826157dc565b604082019050919050565b600060208201905081810360008301526158678161582b565b9050919050565b600081519050919050565b600081905092915050565b60005b838110156158a2578082015181840152602081019050615887565b838111156158b1576000848401525b50505050565b60006158c28261586e565b6158cc8185615879565b93506158dc818560208601615884565b80840191505092915050565b60006158f482846158b7565b915081905092915050565b60008160011c9050919050565b6000808291508390505b600185111561595657808604811115615932576159316143a4565b5b60018516156159415780820291505b808102905061594f856158ff565b9450615916565b94509492505050565b60008261596f5760019050615a2b565b8161597d5760009050615a2b565b8160018114615993576002811461599d576159cc565b6001915050615a2b565b60ff8411156159af576159ae6143a4565b5b8360020a9150848211156159c6576159c56143a4565b5b50615a2b565b5060208310610133831016604e8410600b8410161715615a015782820a9050838111156159fc576159fb6143a4565b5b615a2b565b615a0e848484600161590c565b92509050818404811115615a2557615a246143a4565b5b81810290505b9392505050565b6000615a3d82613934565b9150615a4883613934565b9250615a757fffffffffffffffffffffffffffffffffffffffffffffffffffffffffffffffff848461595f565b905092915050565b600081519050919050565b6000615a9382615a7d565b615a9d8185614110565b9350615aad818560208601615884565b615ab681613a4c565b840191505092915050565b60006020820190508181036000830152615adb8184615a88565b90509291505056fe416464726573733a206c6f772d6c6576656c2064656c65676174652063616c6c206661696c6564a2646970667358221220eb452b3e448f3633cdf3766ff2b9e618f9ad6d322fde5aa108497648e595146364736f6c634300080b0033",
  "immutableReferences": {
    "720": [
      {
        "length": 32,
        "start": 2835
      },
      {
        "length": 32,
        "start": 2978
      },
      {
        "length": 32,
        "start": 4425
      },
      {
        "length": 32,
        "start": 4568
      },
      {
        "length": 32,
        "start": 4744
      }
    ]
  },
  "source": "// SPDX-License-Identifier: MIT\npragma solidity 0.8.11;\n\nimport \"@openzeppelin/contracts/token/ERC20/IERC20.sol\";\nimport \"@openzeppelin/contracts-upgradeable/token/ERC721/utils/ERC721HolderUpgradeable.sol\";\nimport \"@openzeppelin/contracts/token/ERC721/ERC721.sol\";\nimport \"@openzeppelin/contracts-upgradeable/security/ReentrancyGuardUpgradeable.sol\";\nimport \"@openzeppelin/contracts-upgradeable/proxy/utils/UUPSUpgradeable.sol\";\nimport \"@openzeppelin/contracts-upgradeable/security/PausableUpgradeable.sol\";\nimport \"@openzeppelin/contracts/utils/Counters.sol\";\nimport \"@openzeppelin/contracts-upgradeable/access/OwnableUpgradeable.sol\";\nimport \"./AconomyFee.sol\";\nimport \"./Libraries/LibCalculations.sol\";\nimport \"./Libraries/LibNFTLendingBorrowing.sol\";\n\ncontract NFTlendingBorrowing is\n    ERC721HolderUpgradeable,\n    OwnableUpgradeable,\n    PausableUpgradeable,\n    ReentrancyGuardUpgradeable,\n    UUPSUpgradeable\n{\n    using Counters for Counters.Counter;\n\n    //STORAGE START ---------------------------------------------------------------------------\n\n    uint256 public NFTid;\n    address AconomyFeeAddress;\n\n    /**\n     * @notice Deatils for a listed NFT.\n     * @param NFTtokenId The Id of the token.\n     * @param tokenIdOwner The owner of the nft.\n     * @param contractAddress The contract address.\n     * @param duration The expected duration.\n     * @param expectedAmount The expected amount.\n     * @param percent The expected interest percent in bps.\n     * @param listed Boolean indicating if the nft is listed.\n     * @param bidAccepted Boolean indicating if a bid has been accepted.\n     * @param repaid Boolean indicating if amount has been repaid.\n     */\n    struct NFTdetail {\n        uint256 NFTtokenId;\n        address tokenIdOwner;\n        address contractAddress;\n        uint32 duration;\n        uint256 expiration;\n        uint256 expectedAmount;\n        uint16 percent;\n        bool listed;\n        bool bidAccepted;\n        bool repaid;\n    }\n\n    /**\n     * @notice Deatils for a bid.\n     * @param bidId The Id of the bid.\n     * @param percent The interest percentage.\n     * @param duration The duration of the bid.\n     * @param expiration The duration within which bid has to be accepted.\n     * @param bidderAddress The address of the bidder.\n     * @param ERC20Address The address of the erc20 funds.\n     * @param Amount The amount of funds.\n     * @param acceptedTimestamp The unix timestamp at which bid has been accepted.\n     * @param protocolFee The protocol fee when creating a bid.\n     * @param withdrawn Boolean indicating if a bid has been withdrawn.\n     * @param bidAccepted Boolean indicating if the bid has been accepted.\n     */\n    struct BidDetail {\n        uint256 bidId;\n        uint16 percent;\n        uint32 duration;\n        uint256 expiration;\n        address bidderAddress;\n        address ERC20Address;\n        uint256 Amount;\n        uint256 acceptedTimestamp;\n        uint16 protocolFee;\n        bool withdrawn;\n        bool bidAccepted;\n    }\n\n    // NFTid => NFTdetail\n    mapping(uint256 => NFTdetail) public NFTdetails;\n\n    // NFTid => Bid[]\n    mapping(uint256 => BidDetail[]) public Bids;\n\n    //STORAGE END ----------------------------------------------------------------------------\n\n    // Events\n    event AppliedBid(uint256 BidId, uint256 NFTid);\n    event PercentSet(uint256 NFTid, uint16 Percent);\n    event DurationSet(uint256 NFTid, uint32 Duration);\n    event ExpectedAmountSet(uint256 NFTid, uint256 expectedAmount);\n    event NFTlisted(uint256 NFTid, uint256 TokenId, address ContractAddress);\n    event repaid(uint256 NFTid, uint256 BidId, uint256 Amount);\n    event Withdrawn(uint256 NFTid, uint256 BidId, uint256 Amount);\n    event NFTRemoved(uint256 NFTId);\n    event BidRejected(\n        uint256 NFTid,\n        uint256 BidId,\n        address recieverAddress,\n        uint256 Amount\n    );\n    event AcceptedBid(\n        uint256 NFTid,\n        uint256 BidId,\n        uint256 Amount,\n        uint256 ProtocolAmount\n    );\n\n    /// @custom:oz-upgrades-unsafe-allow constructor\n    constructor() {\n        _disableInitializers();\n    }\n\n    function initialize(address _aconomyFee) public initializer {\n        __ReentrancyGuard_init();\n        __ERC721Holder_init();\n        __Ownable_init();\n        __UUPSUpgradeable_init();\n        AconomyFeeAddress = _aconomyFee;\n    }\n\n    function pause() external onlyOwner {\n        _pause();\n    }\n\n    function unpause() external onlyOwner {\n        _unpause();\n    }\n\n    modifier onlyOwnerOfToken(address _contractAddress, uint256 _tokenId) {\n        require(\n            msg.sender == ERC721(_contractAddress).ownerOf(_tokenId),\n            \"Only token owner can execute\"\n        );\n        _;\n    }\n\n    modifier NFTOwner(uint256 _NFTid) {\n        require(NFTdetails[_NFTid].tokenIdOwner == msg.sender, \"Not the owner\");\n        _;\n    }\n\n    /**\n     * @notice Lists the nft for borrowing.\n     * @param _tokenId The Id of the token.\n     * @param _contractAddress The address of the token contract.\n     * @param _percent The interest percentage expected.\n     * @param _duration The duration of the loan.\n     * @param _expiration The expiration duration of the loan for the NFT.\n     * @param _expectedAmount The loan amount expected.\n     */\n    function listNFTforBorrowing(\n        uint256 _tokenId,\n        address _contractAddress,\n        uint16 _percent,\n        uint32 _duration,\n        uint256 _expiration,\n        uint256 _expectedAmount\n    )\n        external\n        onlyOwnerOfToken(_contractAddress, _tokenId)\n        whenNotPaused\n        nonReentrant\n        returns (uint256 _NFTid)\n    {\n        require(_contractAddress != address(0));\n        require(_percent >= 10);\n        require(_expectedAmount >= 10000000);\n\n        _NFTid = ++NFTid;\n\n        NFTdetail memory details = NFTdetail(\n            _tokenId,\n            msg.sender,\n            _contractAddress,\n            _duration,\n            _expiration + block.timestamp,\n            _expectedAmount,\n            _percent,\n            true,\n            false,\n            false\n        );\n\n        NFTdetails[_NFTid] = details;\n\n        emit NFTlisted(_NFTid, _tokenId, _contractAddress);\n    }\n\n    /**\n     * @notice Sets the expected percentage.\n     * @param _NFTid The Id of the NFTDetail\n     * @param _percent The interest percentage expected.\n     */\n    function setPercent(\n        uint256 _NFTid,\n        uint16 _percent\n    ) public whenNotPaused NFTOwner(_NFTid) {\n        require(_percent >= 10, \"interest percent should be greater than 0.1%\");\n        if (_percent != NFTdetails[_NFTid].percent) {\n            NFTdetails[_NFTid].percent = _percent;\n\n            emit PercentSet(_NFTid, _percent);\n        }\n    }\n\n    /**\n     * @notice Sets the expected duration.\n     * @param _NFTid The Id of the NFTDetail\n     * @param _duration The duration expected.\n     */\n    function setDurationTime(\n        uint256 _NFTid,\n        uint32 _duration\n    ) public whenNotPaused NFTOwner(_NFTid) {\n        if (_duration != NFTdetails[_NFTid].duration) {\n            NFTdetails[_NFTid].duration = _duration;\n\n            emit DurationSet(_NFTid, _duration);\n        }\n    }\n\n    /**\n     * @notice Sets the expected loan amount.\n     * @param _NFTid The Id of the NFTDetail\n     * @param _expectedAmount The expected amount.\n     */\n    function setExpectedAmount(\n        uint256 _NFTid,\n        uint256 _expectedAmount\n    ) public whenNotPaused NFTOwner(_NFTid) {\n        require(_expectedAmount >= 10000000);\n        if (_expectedAmount != NFTdetails[_NFTid].expectedAmount) {\n            NFTdetails[_NFTid].expectedAmount = _expectedAmount;\n\n            emit ExpectedAmountSet(_NFTid, _expectedAmount);\n        }\n    }\n\n    /**\n     * @notice Allows a user to bid a loan for an nft.\n     * @param _NFTid The Id of the NFTDetail.\n     * @param _bidAmount The amount being bidded.\n     * @param _ERC20Address The address of the tokens being bidded.\n     * @param _percent The interest percentage for the loan bid.\n     * @param _duration The duration of the loan bid.\n     * @param _expiration The timestamp after which the bid can be withdrawn.\n     */\n    function Bid(\n        uint256 _NFTid,\n        uint256 _bidAmount,\n        address _ERC20Address,\n        uint16 _percent,\n        uint32 _duration,\n        uint256 _expiration\n    ) external whenNotPaused nonReentrant {\n        require(_ERC20Address != address(0));\n        require(_bidAmount >= 10000000, \"bid amount too low\");\n        require(_percent >= 10, \"interest percent too low\");\n        require(!NFTdetails[_NFTid].bidAccepted, \"Bid Already Accepted\");\n        require(NFTdetails[_NFTid].listed, \"You can't Bid on this NFT\");\n        require(NFTdetails[_NFTid].expiration > block.timestamp, \"Bid time over\");\n\n        uint16 fee = AconomyFee(AconomyFeeAddress).AconomyNFTLendBorrowFee();\n\n        BidDetail memory bidDetail = BidDetail(\n            Bids[_NFTid].length,\n            _percent,\n            _duration,\n            _expiration + block.timestamp,\n            msg.sender,\n            _ERC20Address,\n            _bidAmount,\n            0,\n            fee,\n            false,\n            false\n        );\n\n        Bids[_NFTid].push(bidDetail);\n\n        require(\n            IERC20(_ERC20Address).transferFrom(\n                msg.sender,\n                address(this),\n                _bidAmount\n            ),\n            \"Unable to tansfer Your ERC20\"\n        );\n        emit AppliedBid(Bids[_NFTid].length - 1, _NFTid);\n    }\n\n    /**\n     * @notice Accepts the specified bid.\n     * @param _NFTid The Id of the NFTDetail\n     * @param _bidId The Id of the bid.\n     */\n    function AcceptBid(\n        uint256 _NFTid,\n        uint256 _bidId\n    ) external whenNotPaused nonReentrant {\n        address AconomyOwner = AconomyFee(AconomyFeeAddress)\n            .getAconomyOwnerAddress();\n\n        //Calculating Aconomy Fee\n        uint256 amountToAconomy = LibCalculations.percent(\n            Bids[_NFTid][_bidId].Amount,\n            Bids[_NFTid][_bidId].protocolFee\n        );\n\n        LibNFTLendingBorrowing.acceptBid(\n            NFTdetails[_NFTid],\n            Bids[_NFTid][_bidId],\n            amountToAconomy,\n            AconomyOwner\n        );\n\n        emit AcceptedBid(\n            _NFTid,\n            _bidId,\n            Bids[_NFTid][_bidId].Amount - amountToAconomy,\n            amountToAconomy\n        );\n    }\n\n    /**\n     * @notice Rejects the specified bid.\n     * @param _NFTid The Id of the NFTDetail\n     * @param _bidId The Id of the bid.\n     */\n    function rejectBid(\n        uint256 _NFTid,\n        uint256 _bidId\n    ) external whenNotPaused nonReentrant {\n        LibNFTLendingBorrowing.RejectBid(\n            NFTdetails[_NFTid],\n            Bids[_NFTid][_bidId]\n        );\n\n        emit BidRejected(\n            _NFTid,\n            _bidId,\n            Bids[_NFTid][_bidId].bidderAddress,\n            Bids[_NFTid][_bidId].Amount\n        );\n    }\n\n    function viewRepayAmount(\n        uint256 _NFTid,\n        uint256 _bidId\n    ) external view returns (uint256) {\n        if(!Bids[_NFTid][_bidId].bidAccepted) {\n            return 0;\n        }\n        if(NFTdetails[_NFTid].repaid) {\n            return 0;\n        }\n        uint256 percentageAmount = LibCalculations.calculateInterest(\n            Bids[_NFTid][_bidId].Amount,\n            Bids[_NFTid][_bidId].percent,\n            (block.timestamp - Bids[_NFTid][_bidId].acceptedTimestamp) +\n                10 minutes\n        );\n        return Bids[_NFTid][_bidId].Amount + percentageAmount;\n    }\n\n    /**\n     * @notice Repays the loan amount.\n     * @param _NFTid The Id of the NFTDetail\n     * @param _bidId The Id of the bid.\n     */\n    function Repay(\n        uint256 _NFTid,\n        uint256 _bidId\n    ) external whenNotPaused nonReentrant {\n        require(NFTdetails[_NFTid].bidAccepted, \"Bid Not Accepted yet\");\n        require(NFTdetails[_NFTid].listed, \"It's not listed for Borrowing\");\n        require(Bids[_NFTid][_bidId].bidAccepted, \"Bid not Accepted\");\n        require(!NFTdetails[_NFTid].repaid, \"Already Repaid\");\n\n        // Calculate percentage Amount\n        uint256 percentageAmount = LibCalculations.calculateInterest(\n            Bids[_NFTid][_bidId].Amount,\n            Bids[_NFTid][_bidId].percent,\n            block.timestamp - Bids[_NFTid][_bidId].acceptedTimestamp\n        );\n\n        NFTdetails[_NFTid].repaid = true;\n        NFTdetails[_NFTid].listed = false;\n\n        // transfering Amount to Bidder\n        require(\n            IERC20(Bids[_NFTid][_bidId].ERC20Address).transferFrom(\n                msg.sender,\n                Bids[_NFTid][_bidId].bidderAddress,\n                Bids[_NFTid][_bidId].Amount + percentageAmount\n            ),\n            \"unable to transfer to bidder Address\"\n        );\n\n        // transferring NFT to this address\n        ERC721(NFTdetails[_NFTid].contractAddress).safeTransferFrom(\n            address(this),\n            msg.sender,\n            NFTdetails[_NFTid].NFTtokenId\n        );\n        emit repaid(\n            _NFTid,\n            _bidId,\n            Bids[_NFTid][_bidId].Amount + percentageAmount\n        );\n    }\n\n    /**\n     * @notice Withdraws the bid amount after expiration.\n     * @param _NFTid The Id of the NFTDetail\n     * @param _bidId The Id of the bid.\n     */\n    function withdraw(\n        uint256 _NFTid,\n        uint256 _bidId\n    ) external whenNotPaused nonReentrant {\n        require(\n            Bids[_NFTid][_bidId].bidderAddress == msg.sender,\n            \"You can't withdraw this Bid\"\n        );\n        require(!Bids[_NFTid][_bidId].withdrawn, \"Already withdrawn\");\n        require(\n            !Bids[_NFTid][_bidId].bidAccepted,\n            \"Your Bid has been Accepted\"\n        );\n        if(!NFTdetails[_NFTid].bidAccepted) {\n            require(\n                block.timestamp > Bids[_NFTid][_bidId].expiration,\n                \"Can't withdraw Bid before expiration\"\n            );\n        }\n\n        Bids[_NFTid][_bidId].withdrawn = true;\n\n        require(\n            IERC20(Bids[_NFTid][_bidId].ERC20Address).transfer(\n                msg.sender,\n                Bids[_NFTid][_bidId].Amount\n            ),\n            \"unable to transfer to Bidder Address\"\n        );\n        emit Withdrawn(_NFTid, _bidId, Bids[_NFTid][_bidId].Amount);\n    }\n\n    /**\n     * @notice Removes the nft from listing.\n     * @param _NFTid The Id of the NFTDetail\n     */\n    function removeNFTfromList(uint256 _NFTid) external whenNotPaused {\n        require(\n            msg.sender ==\n                ERC721(NFTdetails[_NFTid].contractAddress).ownerOf(\n                    NFTdetails[_NFTid].NFTtokenId\n                ),\n            \"Only token owner can execute\"\n        );\n        require(\n            NFTdetails[_NFTid].bidAccepted == false,\n            \"bid has been accepted\"\n        );\n        if (!NFTdetails[_NFTid].listed) {\n            revert(\"It's aiready removed\");\n        }\n\n        NFTdetails[_NFTid].listed = false;\n\n        emit NFTRemoved(_NFTid);\n    }\n\n    function _authorizeUpgrade(address) internal override onlyOwner {}\n}\n",
  "sourcePath": "/media/dell/17f09f70-0626-4927-a787-2813ab7ed2c0/dell/Pandora/pooolAddress Pandora Git/aconomy-contract/contracts/NFTlendingBorrowing.sol",
  "compiler": {
    "name": "solc",
    "version": "0.8.11+commit.d7f03943.Emscripten.clang"
  },
  "schemaVersion": "3.4.10",
  "updatedAt": "2023-09-20T09:28:14.860Z",
  "networkType": "ethereum",
  "devdoc": {
    "kind": "dev",
    "methods": {
      "AcceptBid(uint256,uint256)": {
        "params": {
          "_NFTid": "The Id of the NFTDetail",
          "_bidId": "The Id of the bid."
        }
      },
      "Bid(uint256,uint256,address,uint16,uint32,uint256)": {
        "params": {
          "_ERC20Address": "The address of the tokens being bidded.",
          "_NFTid": "The Id of the NFTDetail.",
          "_bidAmount": "The amount being bidded.",
          "_duration": "The duration of the loan bid.",
          "_expiration": "The timestamp after which the bid can be withdrawn.",
          "_percent": "The interest percentage for the loan bid."
        }
      },
      "Repay(uint256,uint256)": {
        "params": {
          "_NFTid": "The Id of the NFTDetail",
          "_bidId": "The Id of the bid."
        }
      },
      "constructor": {
        "custom:oz-upgrades-unsafe-allow": "constructor"
      },
      "listNFTforBorrowing(uint256,address,uint16,uint32,uint256,uint256)": {
        "params": {
          "_contractAddress": "The address of the token contract.",
          "_duration": "The duration of the loan.",
          "_expectedAmount": "The loan amount expected.",
          "_expiration": "The expiration duration of the loan for the NFT.",
          "_percent": "The interest percentage expected.",
          "_tokenId": "The Id of the token."
        }
      },
      "onERC721Received(address,address,uint256,bytes)": {
        "details": "See {IERC721Receiver-onERC721Received}. Always returns `IERC721Receiver.onERC721Received.selector`."
      },
      "owner()": {
        "details": "Returns the address of the current owner."
      },
      "paused()": {
        "details": "Returns true if the contract is paused, and false otherwise."
      },
      "proxiableUUID()": {
        "details": "Implementation of the ERC1822 {proxiableUUID} function. This returns the storage slot used by the implementation. It is used to validate the implementation's compatibility when performing an upgrade. IMPORTANT: A proxy pointing at a proxiable contract should not be considered proxiable itself, because this risks bricking a proxy that upgrades to it, by delegating to itself until out of gas. Thus it is critical that this function revert if invoked through a proxy. This is guaranteed by the `notDelegated` modifier."
      },
      "rejectBid(uint256,uint256)": {
        "params": {
          "_NFTid": "The Id of the NFTDetail",
          "_bidId": "The Id of the bid."
        }
      },
      "removeNFTfromList(uint256)": {
        "params": {
          "_NFTid": "The Id of the NFTDetail"
        }
      },
      "renounceOwnership()": {
        "details": "Leaves the contract without owner. It will not be possible to call `onlyOwner` functions anymore. Can only be called by the current owner. NOTE: Renouncing ownership will leave the contract without an owner, thereby removing any functionality that is only available to the owner."
      },
      "setDurationTime(uint256,uint32)": {
        "params": {
          "_NFTid": "The Id of the NFTDetail",
          "_duration": "The duration expected."
        }
      },
      "setExpectedAmount(uint256,uint256)": {
        "params": {
          "_NFTid": "The Id of the NFTDetail",
          "_expectedAmount": "The expected amount."
        }
      },
      "setPercent(uint256,uint16)": {
        "params": {
          "_NFTid": "The Id of the NFTDetail",
          "_percent": "The interest percentage expected."
        }
      },
      "transferOwnership(address)": {
        "details": "Transfers ownership of the contract to a new account (`newOwner`). Can only be called by the current owner."
      },
      "upgradeTo(address)": {
        "details": "Upgrade the implementation of the proxy to `newImplementation`. Calls {_authorizeUpgrade}. Emits an {Upgraded} event."
      },
      "upgradeToAndCall(address,bytes)": {
        "details": "Upgrade the implementation of the proxy to `newImplementation`, and subsequently execute the function call encoded in `data`. Calls {_authorizeUpgrade}. Emits an {Upgraded} event."
      },
      "withdraw(uint256,uint256)": {
        "params": {
          "_NFTid": "The Id of the NFTDetail",
          "_bidId": "The Id of the bid."
        }
      }
    },
    "version": 1
  },
  "userdoc": {
    "kind": "user",
    "methods": {
      "AcceptBid(uint256,uint256)": {
        "notice": "Accepts the specified bid."
      },
      "Bid(uint256,uint256,address,uint16,uint32,uint256)": {
        "notice": "Allows a user to bid a loan for an nft."
      },
      "Repay(uint256,uint256)": {
        "notice": "Repays the loan amount."
      },
      "listNFTforBorrowing(uint256,address,uint16,uint32,uint256,uint256)": {
        "notice": "Lists the nft for borrowing."
      },
      "rejectBid(uint256,uint256)": {
        "notice": "Rejects the specified bid."
      },
      "removeNFTfromList(uint256)": {
        "notice": "Removes the nft from listing."
      },
      "setDurationTime(uint256,uint32)": {
        "notice": "Sets the expected duration."
      },
      "setExpectedAmount(uint256,uint256)": {
        "notice": "Sets the expected loan amount."
      },
      "setPercent(uint256,uint16)": {
        "notice": "Sets the expected percentage."
      },
      "withdraw(uint256,uint256)": {
        "notice": "Withdraws the bid amount after expiration."
      }
    },
    "version": 1
  }
}