{
  "contractName": "piMarket",
  "abi": [
    {
      "inputs": [
        {
          "internalType": "address",
          "name": "_feeAddress",
          "type": "address"
        }
      ],
      "stateMutability": "nonpayable",
      "type": "constructor"
    },
    {
      "anonymous": false,
      "inputs": [
        {
          "components": [
            {
              "internalType": "uint256",
              "name": "saleId",
              "type": "uint256"
            },
            {
              "internalType": "address",
              "name": "tokenContractAddress",
              "type": "address"
            },
            {
              "internalType": "uint256",
              "name": "tokenId",
              "type": "uint256"
            },
            {
              "internalType": "uint256",
              "name": "price",
              "type": "uint256"
            },
            {
              "internalType": "bool",
              "name": "directSale",
              "type": "bool"
            },
            {
              "internalType": "bool",
              "name": "bidSale",
              "type": "bool"
            },
            {
              "internalType": "bool",
              "name": "status",
              "type": "bool"
            },
            {
              "internalType": "uint256",
              "name": "bidStartTime",
              "type": "uint256"
            },
            {
              "internalType": "uint256",
              "name": "bidEndTime",
              "type": "uint256"
            },
            {
              "internalType": "address",
              "name": "currentOwner",
              "type": "address"
            }
          ],
          "indexed": false,
          "internalType": "struct piMarket.TokenMeta",
          "name": "data",
          "type": "tuple"
        },
        {
          "indexed": false,
          "internalType": "uint256",
          "name": "id",
          "type": "uint256"
        }
      ],
      "name": "TokenMetaReturn",
      "type": "event"
    },
    {
      "inputs": [
        {
          "internalType": "uint256",
          "name": "",
          "type": "uint256"
        }
      ],
      "name": "_tokenMeta",
      "outputs": [
        {
          "internalType": "uint256",
          "name": "saleId",
          "type": "uint256"
        },
        {
          "internalType": "address",
          "name": "tokenContractAddress",
          "type": "address"
        },
        {
          "internalType": "uint256",
          "name": "tokenId",
          "type": "uint256"
        },
        {
          "internalType": "uint256",
          "name": "price",
          "type": "uint256"
        },
        {
          "internalType": "bool",
          "name": "directSale",
          "type": "bool"
        },
        {
          "internalType": "bool",
          "name": "bidSale",
          "type": "bool"
        },
        {
          "internalType": "bool",
          "name": "status",
          "type": "bool"
        },
        {
          "internalType": "uint256",
          "name": "bidStartTime",
          "type": "uint256"
        },
        {
          "internalType": "uint256",
          "name": "bidEndTime",
          "type": "uint256"
        },
        {
          "internalType": "address",
          "name": "currentOwner",
          "type": "address"
        }
      ],
      "stateMutability": "view",
      "type": "function"
    },
    {
      "inputs": [
        {
          "internalType": "address",
          "name": "",
          "type": "address"
        },
        {
          "internalType": "address",
          "name": "",
          "type": "address"
        },
        {
          "internalType": "uint256",
          "name": "",
          "type": "uint256"
        },
        {
          "internalType": "bytes",
          "name": "",
          "type": "bytes"
        }
      ],
      "name": "onERC721Received",
      "outputs": [
        {
          "internalType": "bytes4",
          "name": "",
          "type": "bytes4"
        }
      ],
      "stateMutability": "nonpayable",
      "type": "function"
    },
    {
      "inputs": [
        {
          "internalType": "address",
          "name": "_piNFTAddress",
          "type": "address"
        },
        {
          "internalType": "uint256",
          "name": "_tokenId",
          "type": "uint256"
        },
        {
          "internalType": "uint256",
          "name": "_price",
          "type": "uint256"
        }
      ],
      "name": "sellNFT",
      "outputs": [],
      "stateMutability": "nonpayable",
      "type": "function"
    },
    {
      "inputs": [
        {
          "internalType": "address",
          "name": "_contractAddress",
          "type": "address"
        },
        {
          "internalType": "uint256",
          "name": "_tokenId",
          "type": "uint256"
        }
      ],
      "name": "retrieveRoyalty",
      "outputs": [
        {
          "components": [
            {
              "internalType": "address payable",
              "name": "account",
              "type": "address"
            },
            {
              "internalType": "uint96",
              "name": "value",
              "type": "uint96"
            }
          ],
          "internalType": "struct LibShare.Share[]",
          "name": "",
          "type": "tuple[]"
        }
      ],
      "stateMutability": "view",
      "type": "function"
    },
    {
      "inputs": [
        {
          "internalType": "uint256",
          "name": "_saleId",
          "type": "uint256"
        }
      ],
      "name": "BuyNFT",
      "outputs": [],
      "stateMutability": "payable",
      "type": "function"
    },
    {
      "inputs": [
        {
          "internalType": "uint256",
          "name": "_saleId",
          "type": "uint256"
        }
      ],
      "name": "cancelSale",
      "outputs": [],
      "stateMutability": "nonpayable",
      "type": "function"
    }
  ],
  "bytecode": "0x60806040523480156200001157600080fd5b506040516200221338038062002213833981810160405281019062000037919062000164565b6001600081905550600073ffffffffffffffffffffffffffffffffffffffff168173ffffffffffffffffffffffffffffffffffffffff161415620000b2576040517f08c379a0000000000000000000000000000000000000000000000000000000008152600401620000a990620001f7565b60405180910390fd5b80600260006101000a81548173ffffffffffffffffffffffffffffffffffffffff021916908373ffffffffffffffffffffffffffffffffffffffff1602179055505062000219565b600080fd5b600073ffffffffffffffffffffffffffffffffffffffff82169050919050565b60006200012c82620000ff565b9050919050565b6200013e816200011f565b81146200014a57600080fd5b50565b6000815190506200015e8162000133565b92915050565b6000602082840312156200017d576200017c620000fa565b5b60006200018d848285016200014d565b91505092915050565b600082825260208201905092915050565b7f46656520616464726573732063616e6e6f74206265207a65726f000000000000600082015250565b6000620001df601a8362000196565b9150620001ec82620001a7565b602082019050919050565b600060208201905081810360008301526200021281620001d0565b9050919050565b611fea80620002296000396000f3fe6080604052600436106100555760003560e01c8063150b7a021461005a5780638e57ff161461009757806396faba9d146100dd578063a37365e01461011a578063bd94b00514610136578063f779a1931461015f575b600080fd5b34801561006657600080fd5b50610081600480360381019061007c9190611264565b610188565b60405161008e9190611322565b60405180910390f35b3480156100a357600080fd5b506100be60048036038101906100b9919061133d565b61019c565b6040516100d49a999897969594939291906113a3565b60405180910390f35b3480156100e957600080fd5b5061010460048036038101906100ff919061143f565b610257565b60405161011191906115a5565b60405180910390f35b610134600480360381019061012f919061133d565b6102e0565b005b34801561014257600080fd5b5061015d6004803603810190610158919061133d565b61096a565b005b34801561016b57600080fd5b50610186600480360381019061018191906115c7565b610bea565b005b600063150b7a0260e01b9050949350505050565b60036020528060005260406000206000915090508060000154908060010160009054906101000a900473ffffffffffffffffffffffffffffffffffffffff16908060020154908060030154908060040160009054906101000a900460ff16908060040160019054906101000a900460ff16908060040160029054906101000a900460ff16908060050154908060060154908060070160009054906101000a900473ffffffffffffffffffffffffffffffffffffffff1690508a565b60608273ffffffffffffffffffffffffffffffffffffffff1663bb3bafd6836040518263ffffffff1660e01b8152600401610292919061161a565b600060405180830381865afa1580156102af573d6000803e3d6000fd5b505050506040513d6000823e3d601f19601f820116820180604052508101906102d891906117aa565b905092915050565b60026000541415610326576040517f08c379a000000000000000000000000000000000000000000000000000000000815260040161031d90611850565b60405180910390fd5b600260008190555060006003600083815260200190815260200160002060405180610140016040529081600082015481526020016001820160009054906101000a900473ffffffffffffffffffffffffffffffffffffffff1673ffffffffffffffffffffffffffffffffffffffff1673ffffffffffffffffffffffffffffffffffffffff16815260200160028201548152602001600382015481526020016004820160009054906101000a900460ff161515151581526020016004820160019054906101000a900460ff161515151581526020016004820160029054906101000a900460ff1615151515815260200160058201548152602001600682015481526020016007820160009054906101000a900473ffffffffffffffffffffffffffffffffffffffff1673ffffffffffffffffffffffffffffffffffffffff1673ffffffffffffffffffffffffffffffffffffffff16815250509050600061049482602001518360400151610257565b90508160c001516104da576040517f08c379a00000000000000000000000000000000000000000000000000000000081526004016104d1906118bc565b60405180910390fd5b600073ffffffffffffffffffffffffffffffffffffffff163373ffffffffffffffffffffffffffffffffffffffff1614158015610548575081610120015173ffffffffffffffffffffffffffffffffffffffff163373ffffffffffffffffffffffffffffffffffffffff1614155b610587576040517f08c379a000000000000000000000000000000000000000000000000000000000815260040161057e90611928565b60405180910390fd5b8160a001511561059657600080fd5b81606001513410156105dd576040517f08c379a00000000000000000000000000000000000000000000000000000000081526004016105d490611994565b60405180910390fd5b6105f96003600085815260200190815260200160002033610fb4565b6000349050600034905060006064346106129190611a12565b905060005b84518110156107565760006127108487848151811061063957610638611a43565b5b6020026020010151602001516bffffffffffffffffffffffff1661065d9190611a72565b6106679190611a12565b9050600086838151811061067e5761067d611a43565b5b60200260200101516000015173ffffffffffffffffffffffffffffffffffffffff16826040516106ad90611afd565b60006040518083038185875af1925050503d80600081146106ea576040519150601f19603f3d011682016040523d82523d6000602084013e6106ef565b606091505b5050905080610733576040517f08c379a000000000000000000000000000000000000000000000000000000000815260040161072a90611b5e565b60405180910390fd5b818661073f9190611b7e565b95505050808061074e90611bb2565b915050610617565b50600085610120015173ffffffffffffffffffffffffffffffffffffffff1682856107819190611b7e565b60405161078d90611afd565b60006040518083038185875af1925050503d80600081146107ca576040519150601f19603f3d011682016040523d82523d6000602084013e6107cf565b606091505b5050905080610813576040517f08c379a000000000000000000000000000000000000000000000000000000000815260040161080a90611c47565b60405180910390fd5b6000600260009054906101000a900473ffffffffffffffffffffffffffffffffffffffff1673ffffffffffffffffffffffffffffffffffffffff168360405161085b90611afd565b60006040518083038185875af1925050503d8060008114610898576040519150601f19603f3d011682016040523d82523d6000602084013e61089d565b606091505b50509050806108e1576040517f08c379a00000000000000000000000000000000000000000000000000000000081526004016108d890611cb3565b60405180910390fd5b866020015173ffffffffffffffffffffffffffffffffffffffff166342842e0e30338a604001516040518463ffffffff1660e01b815260040161092693929190611cd3565b600060405180830381600087803b15801561094057600080fd5b505af1158015610954573d6000803e3d6000fd5b5050505050505050505050600160008190555050565b600260005414156109b0576040517f08c379a00000000000000000000000000000000000000000000000000000000081526004016109a790611850565b60405180910390fd5b60026000819055506003600082815260200190815260200160002060070160009054906101000a900473ffffffffffffffffffffffffffffffffffffffff1673ffffffffffffffffffffffffffffffffffffffff163373ffffffffffffffffffffffffffffffffffffffff1614610a5c576040517f08c379a0000000000000000000000000000000000000000000000000000000008152600401610a5390611d56565b60405180910390fd5b6003600082815260200190815260200160002060040160029054906101000a900460ff16610abf576040517f08c379a0000000000000000000000000000000000000000000000000000000008152600401610ab690611dc2565b60405180910390fd5b60006003600083815260200190815260200160002060040160026101000a81548160ff0219169083151502179055506003600082815260200190815260200160002060010160009054906101000a900473ffffffffffffffffffffffffffffffffffffffff1673ffffffffffffffffffffffffffffffffffffffff166342842e0e306003600085815260200190815260200160002060070160009054906101000a900473ffffffffffffffffffffffffffffffffffffffff1660036000868152602001908152602001600020600201546040518463ffffffff1660e01b8152600401610bad93929190611cd3565b600060405180830381600087803b158015610bc757600080fd5b505af1158015610bdb573d6000803e3d6000fd5b50505050600160008190555050565b60026000541415610c30576040517f08c379a0000000000000000000000000000000000000000000000000000000008152600401610c2790611850565b60405180910390fd5b60026000819055508273ffffffffffffffffffffffffffffffffffffffff16636352211e836040518263ffffffff1660e01b8152600401610c71919061161a565b602060405180830381865afa158015610c8e573d6000803e3d6000fd5b505050506040513d601f19601f82011682018060405250810190610cb29190611df7565b73ffffffffffffffffffffffffffffffffffffffff163373ffffffffffffffffffffffffffffffffffffffff1614610d1f576040517f08c379a0000000000000000000000000000000000000000000000000000000008152600401610d1690611e70565b60405180910390fd5b610d296001611052565b8273ffffffffffffffffffffffffffffffffffffffff166342842e0e3330856040518463ffffffff1660e01b8152600401610d6693929190611cd3565b600060405180830381600087803b158015610d8057600080fd5b505af1158015610d94573d6000803e3d6000fd5b505050506000604051806101400160405280610db06001611068565b81526020018573ffffffffffffffffffffffffffffffffffffffff16815260200184815260200183815260200160011515815260200160001515815260200160011515815260200160008152602001600081526020013373ffffffffffffffffffffffffffffffffffffffff1681525090508060036000610e316001611068565b81526020019081526020016000206000820151816000015560208201518160010160006101000a81548173ffffffffffffffffffffffffffffffffffffffff021916908373ffffffffffffffffffffffffffffffffffffffff160217905550604082015181600201556060820151816003015560808201518160040160006101000a81548160ff02191690831515021790555060a08201518160040160016101000a81548160ff02191690831515021790555060c08201518160040160026101000a81548160ff02191690831515021790555060e0820151816005015561010082015181600601556101208201518160070160006101000a81548173ffffffffffffffffffffffffffffffffffffffff021916908373ffffffffffffffffffffffffffffffffffffffff1602179055509050507f2c28b1a4996f07ef4457782603fcee3454f1790eedb957cf72f54c35e12cb0b281610f906001611068565b604051610f9e929190611f89565b60405180910390a1506001600081905550505050565b808260070160006101000a81548173ffffffffffffffffffffffffffffffffffffffff021916908373ffffffffffffffffffffffffffffffffffffffff16021790555060008260040160026101000a81548160ff02191690831515021790555060008260040160006101000a81548160ff02191690831515021790555060008260040160016101000a81548160ff0219169083151502179055505050565b6001816000016000828254019250508190555050565b600081600001549050919050565b6000604051905090565b600080fd5b600080fd5b600073ffffffffffffffffffffffffffffffffffffffff82169050919050565b60006110b58261108a565b9050919050565b6110c5816110aa565b81146110d057600080fd5b50565b6000813590506110e2816110bc565b92915050565b6000819050919050565b6110fb816110e8565b811461110657600080fd5b50565b600081359050611118816110f2565b92915050565b600080fd5b600080fd5b6000601f19601f8301169050919050565b7f4e487b7100000000000000000000000000000000000000000000000000000000600052604160045260246000fd5b61117182611128565b810181811067ffffffffffffffff821117156111905761118f611139565b5b80604052505050565b60006111a3611076565b90506111af8282611168565b919050565b600067ffffffffffffffff8211156111cf576111ce611139565b5b6111d882611128565b9050602081019050919050565b82818337600083830152505050565b6000611207611202846111b4565b611199565b90508281526020810184848401111561122357611222611123565b5b61122e8482856111e5565b509392505050565b600082601f83011261124b5761124a61111e565b5b813561125b8482602086016111f4565b91505092915050565b6000806000806080858703121561127e5761127d611080565b5b600061128c878288016110d3565b945050602061129d878288016110d3565b93505060406112ae87828801611109565b925050606085013567ffffffffffffffff8111156112cf576112ce611085565b5b6112db87828801611236565b91505092959194509250565b60007fffffffff0000000000000000000000000000000000000000000000000000000082169050919050565b61131c816112e7565b82525050565b60006020820190506113376000830184611313565b92915050565b60006020828403121561135357611352611080565b5b600061136184828501611109565b91505092915050565b611373816110e8565b82525050565b611382816110aa565b82525050565b60008115159050919050565b61139d81611388565b82525050565b6000610140820190506113b9600083018d61136a565b6113c6602083018c611379565b6113d3604083018b61136a565b6113e0606083018a61136a565b6113ed6080830189611394565b6113fa60a0830188611394565b61140760c0830187611394565b61141460e083018661136a565b61142261010083018561136a565b611430610120830184611379565b9b9a5050505050505050505050565b6000806040838503121561145657611455611080565b5b6000611464858286016110d3565b925050602061147585828601611109565b9150509250929050565b600081519050919050565b600082825260208201905092915050565b6000819050602082019050919050565b60006114b68261108a565b9050919050565b6114c6816114ab565b82525050565b60006bffffffffffffffffffffffff82169050919050565b6114ed816114cc565b82525050565b60408201600082015161150960008501826114bd565b50602082015161151c60208501826114e4565b50505050565b600061152e83836114f3565b60408301905092915050565b6000602082019050919050565b60006115528261147f565b61155c818561148a565b93506115678361149b565b8060005b8381101561159857815161157f8882611522565b975061158a8361153a565b92505060018101905061156b565b5085935050505092915050565b600060208201905081810360008301526115bf8184611547565b905092915050565b6000806000606084860312156115e0576115df611080565b5b60006115ee868287016110d3565b93505060206115ff86828701611109565b925050604061161086828701611109565b9150509250925092565b600060208201905061162f600083018461136a565b92915050565b600067ffffffffffffffff8211156116505761164f611139565b5b602082029050602081019050919050565b600080fd5b600080fd5b611674816114ab565b811461167f57600080fd5b50565b6000815190506116918161166b565b92915050565b6116a0816114cc565b81146116ab57600080fd5b50565b6000815190506116bd81611697565b92915050565b6000604082840312156116d9576116d8611666565b5b6116e36040611199565b905060006116f384828501611682565b6000830152506020611707848285016116ae565b60208301525092915050565b600061172661172184611635565b611199565b9050808382526020820190506040840283018581111561174957611748611661565b5b835b81811015611772578061175e88826116c3565b84526020840193505060408101905061174b565b5050509392505050565b600082601f8301126117915761179061111e565b5b81516117a1848260208601611713565b91505092915050565b6000602082840312156117c0576117bf611080565b5b600082015167ffffffffffffffff8111156117de576117dd611085565b5b6117ea8482850161177c565b91505092915050565b600082825260208201905092915050565b7f5265656e7472616e637947756172643a207265656e7472616e742063616c6c00600082015250565b600061183a601f836117f3565b915061184582611804565b602082019050919050565b600060208201905081810360008301526118698161182d565b9050919050565b7f746f6b656e206d757374206265206f6e2073616c650000000000000000000000600082015250565b60006118a66015836117f3565b91506118b182611870565b602082019050919050565b600060208201905081810360008301526118d581611899565b9050919050565b7f696e76616c696420616464726573730000000000000000000000000000000000600082015250565b6000611912600f836117f3565b915061191d826118dc565b602082019050919050565b6000602082019050818103600083015261194181611905565b9050919050565b7f76616c7565206c657373207468616e2070726963650000000000000000000000600082015250565b600061197e6015836117f3565b915061198982611948565b602082019050919050565b600060208201905081810360008301526119ad81611971565b9050919050565b7f4e487b7100000000000000000000000000000000000000000000000000000000600052601260045260246000fd5b7f4e487b7100000000000000000000000000000000000000000000000000000000600052601160045260246000fd5b6000611a1d826110e8565b9150611a28836110e8565b925082611a3857611a376119b4565b5b828204905092915050565b7f4e487b7100000000000000000000000000000000000000000000000000000000600052603260045260246000fd5b6000611a7d826110e8565b9150611a88836110e8565b9250817fffffffffffffffffffffffffffffffffffffffffffffffffffffffffffffffff0483118215151615611ac157611ac06119e3565b5b828202905092915050565b600081905092915050565b50565b6000611ae7600083611acc565b9150611af282611ad7565b600082019050919050565b6000611b0882611ada565b9150819050919050565b7f526f79616c7479205472616e73666572206661696c6564000000000000000000600082015250565b6000611b486017836117f3565b9150611b5382611b12565b602082019050919050565b60006020820190508181036000830152611b7781611b3b565b9050919050565b6000611b89826110e8565b9150611b94836110e8565b925082821015611ba757611ba66119e3565b5b828203905092915050565b6000611bbd826110e8565b91507fffffffffffffffffffffffffffffffffffffffffffffffffffffffffffffffff821415611bf057611bef6119e3565b5b600182019050919050565b7f5472616e73666572206661696c65640000000000000000000000000000000000600082015250565b6000611c31600f836117f3565b9150611c3c82611bfb565b602082019050919050565b60006020820190508181036000830152611c6081611c24565b9050919050565b7f466565205472616e73666572206661696c656400000000000000000000000000600082015250565b6000611c9d6013836117f3565b9150611ca882611c67565b602082019050919050565b60006020820190508181036000830152611ccc81611c90565b9050919050565b6000606082019050611ce86000830186611379565b611cf56020830185611379565b611d02604083018461136a565b949350505050565b7f4f6e6c79206f776e65722063616e2063616e63656c2073616c65000000000000600082015250565b6000611d40601a836117f3565b9150611d4b82611d0a565b602082019050919050565b60006020820190508181036000830152611d6f81611d33565b9050919050565b7f546f6b656e206e6f74206f6e2073616c65000000000000000000000000000000600082015250565b6000611dac6011836117f3565b9150611db782611d76565b602082019050919050565b60006020820190508181036000830152611ddb81611d9f565b9050919050565b600081519050611df1816110bc565b92915050565b600060208284031215611e0d57611e0c611080565b5b6000611e1b84828501611de2565b91505092915050565b7f4f6e6c7920746f6b656e206f776e65722063616e20707574206f6e2073616c65600082015250565b6000611e5a6020836117f3565b9150611e6582611e24565b602082019050919050565b60006020820190508181036000830152611e8981611e4d565b9050919050565b611e99816110e8565b82525050565b611ea8816110aa565b82525050565b611eb781611388565b82525050565b61014082016000820151611ed46000850182611e90565b506020820151611ee76020850182611e9f565b506040820151611efa6040850182611e90565b506060820151611f0d6060850182611e90565b506080820151611f206080850182611eae565b5060a0820151611f3360a0850182611eae565b5060c0820151611f4660c0850182611eae565b5060e0820151611f5960e0850182611e90565b50610100820151611f6e610100850182611e90565b50610120820151611f83610120850182611e9f565b50505050565b600061016082019050611f9f6000830185611ebd565b611fad61014083018461136a565b939250505056fea2646970667358221220e8db25a446c405d4cb9ba9cbc996a4e235e2f702c80873e1bbda2331d7be117c64736f6c634300080b0033",
  "immutableReferences": {},
  "source": "// SPDX-License-Identifier: MIT\npragma solidity >=0.4.22 <0.9.0;\n\nimport \"@openzeppelin/contracts/token/ERC721/utils/ERC721Holder.sol\";\nimport \"@openzeppelin/contracts/token/ERC721/ERC721.sol\";\nimport \"@openzeppelin/contracts/access/Ownable.sol\";\nimport \"@openzeppelin/contracts/security/ReentrancyGuard.sol\";\nimport \"@openzeppelin/contracts/utils/Counters.sol\";\nimport \"./piNFT.sol\";\n\ncontract piMarket is ERC721Holder, ReentrancyGuard {\n    using Counters for Counters.Counter;\n    Counters.Counter internal _saleIdCounter;\n\n    address internal feeAddress;\n    // uint256 internal feePercent;\n\n    struct TokenMeta {\n        uint256 saleId;\n        address tokenContractAddress;\n        uint256 tokenId;\n        uint256 price;\n        bool directSale;\n        bool bidSale;\n        bool status;\n        uint256 bidStartTime;\n        uint256 bidEndTime;\n        address currentOwner;\n    }\n\n\n    mapping(uint256 => TokenMeta) public _tokenMeta;\n\n    event TokenMetaReturn(TokenMeta data, uint256 id);\n\n    constructor(address _feeAddress) {\n        require(_feeAddress != address(0), 'Fee address cannot be zero');\n        feeAddress = _feeAddress;\n        // feePercent = _feePercent;\n    }\n\n    function sellNFT(address _piNFTAddress, uint256 _tokenId, uint256 _price) external  nonReentrant {\n        require(msg.sender == ERC721(_piNFTAddress).ownerOf(_tokenId), 'Only token owner can put on sale');\n\n        _saleIdCounter.increment();\n\n        //needs approval on frontend\n        ERC721(_piNFTAddress).safeTransferFrom(\n        msg.sender,\n        address(this),\n        _tokenId\n        );\n\n        TokenMeta memory meta = TokenMeta(\n            _saleIdCounter.current(),\n            _piNFTAddress,\n            _tokenId,\n            _price,\n            true,\n            false,\n            true,\n            0,\n            0,\n            msg.sender\n        );\n\n        _tokenMeta[_saleIdCounter.current()] = meta;\n\n        emit TokenMetaReturn(meta, _saleIdCounter.current());\n    }\n\n    function retrieveRoyalty(\n        address _contractAddress,\n        uint256 _tokenId\n    ) public view returns (LibShare.Share[] memory) {\n        return piNFT(_contractAddress).getRoyalties(_tokenId);\n    }\n\n    function BuyNFT(uint256 _saleId) external payable nonReentrant {\n        TokenMeta memory meta = _tokenMeta[_saleId];\n\n        LibShare.Share[] memory royalties = retrieveRoyalty(\n            meta.tokenContractAddress,\n            meta.tokenId\n        );\n\n        require(meta.status, 'token must be on sale');\n        require(msg.sender != address(0) && msg.sender != meta.currentOwner, 'invalid address');\n        require(!meta.bidSale);\n        require(msg.value >= meta.price, 'value less than price');\n\n        transfer(_tokenMeta[_saleId], msg.sender);\n\n        uint256 sum = msg.value;\n        uint256 val = msg.value;\n        uint256 fee = msg.value / 100;\n\n        for (uint256 i = 0; i < royalties.length; i++) {\n            uint256 amount = (royalties[i].value * val) / 10000;\n            // address payable receiver = royalties[i].account;\n            (bool royalSuccess, ) = payable(royalties[i].account).call{ value: amount }(\"\");\n            require(royalSuccess, \"Royalty Transfer failed\");\n            sum = sum - amount;\n        }\n\n        (bool isSuccess, ) = payable(meta.currentOwner).call{ value: (sum - fee) }(\"\");\n        require(isSuccess, \"Transfer failed\");\n        (bool feeSuccess, ) = payable(feeAddress).call{ value: fee }(\"\");\n        require(feeSuccess, \"Fee Transfer failed\");\n        ERC721(meta.tokenContractAddress).safeTransferFrom(\n        address(this),\n        msg.sender,\n        meta.tokenId\n        );\n    }\n\n    function cancelSale(uint256 _saleId) external nonReentrant {\n    require(msg.sender == _tokenMeta[_saleId].currentOwner, 'Only owner can cancel sale');\n    require(_tokenMeta[_saleId].status, 'Token not on sale');\n\n    _tokenMeta[_saleId].status = false;\n    ERC721(_tokenMeta[_saleId].tokenContractAddress).safeTransferFrom(\n      address(this),\n      _tokenMeta[_saleId].currentOwner,\n      _tokenMeta[_saleId].tokenId\n    );\n  }\n\n    function transfer(TokenMeta storage token, address _to ) internal{\n        token.currentOwner = _to;\n        token.status = false;\n        token.directSale = false ;\n        token.bidSale = false ;\n\n    }\n}",
  "sourcePath": "/Users/parv/Desktop/Pandora/piNFTOfficial/aconomy-contract/contracts/piMarket.sol",
  "compiler": {
    "name": "solc",
    "version": "0.8.11+commit.d7f03943.Emscripten.clang"
  },
  "schemaVersion": "3.4.4",
  "updatedAt": "2022-07-04T07:29:29.810Z",
  "devdoc": {
    "kind": "dev",
    "methods": {
      "onERC721Received(address,address,uint256,bytes)": {
        "details": "See {IERC721Receiver-onERC721Received}. Always returns `IERC721Receiver.onERC721Received.selector`."
      }
    },
    "version": 1
  },
  "userdoc": {
    "kind": "user",
    "methods": {},
    "version": 1
  }
}