{
  "contractName": "piMarket",
  "abi": [
    {
      "inputs": [
        {
          "internalType": "address",
          "name": "_feeAddress",
          "type": "address"
        }
      ],
      "stateMutability": "nonpayable",
      "type": "constructor"
    },
    {
      "anonymous": false,
      "inputs": [
        {
          "indexed": false,
          "internalType": "uint256",
          "name": "price",
          "type": "uint256"
        }
      ],
      "name": "BidExecuted",
      "type": "event"
    },
    {
      "anonymous": false,
      "inputs": [
        {
          "components": [
            {
              "internalType": "uint256",
              "name": "bidId",
              "type": "uint256"
            },
            {
              "internalType": "uint256",
              "name": "saleId",
              "type": "uint256"
            },
            {
              "internalType": "address",
              "name": "sellerAddress",
              "type": "address"
            },
            {
              "internalType": "address",
              "name": "buyerAddress",
              "type": "address"
            },
            {
              "internalType": "uint256",
              "name": "price",
              "type": "uint256"
            },
            {
              "internalType": "bool",
              "name": "withdrawn",
              "type": "bool"
            }
          ],
          "indexed": false,
          "internalType": "struct piMarket.BidOrder",
          "name": "bid",
          "type": "tuple"
        }
      ],
      "name": "BidOrderReturn",
      "type": "event"
    },
    {
      "anonymous": false,
      "inputs": [
        {
          "components": [
            {
              "internalType": "uint256",
              "name": "saleId",
              "type": "uint256"
            },
            {
              "internalType": "address",
              "name": "tokenContractAddress",
              "type": "address"
            },
            {
              "internalType": "uint256",
              "name": "tokenId",
              "type": "uint256"
            },
            {
              "internalType": "uint256",
              "name": "price",
              "type": "uint256"
            },
            {
              "internalType": "bool",
              "name": "directSale",
              "type": "bool"
            },
            {
              "internalType": "bool",
              "name": "bidSale",
              "type": "bool"
            },
            {
              "internalType": "bool",
              "name": "status",
              "type": "bool"
            },
            {
              "internalType": "uint256",
              "name": "bidStartTime",
              "type": "uint256"
            },
            {
              "internalType": "uint256",
              "name": "bidEndTime",
              "type": "uint256"
            },
            {
              "internalType": "address",
              "name": "currentOwner",
              "type": "address"
            }
          ],
          "indexed": false,
          "internalType": "struct piMarket.TokenMeta",
          "name": "data",
          "type": "tuple"
        },
        {
          "indexed": false,
          "internalType": "uint256",
          "name": "id",
          "type": "uint256"
        }
      ],
      "name": "TokenMetaReturn",
      "type": "event"
    },
    {
      "inputs": [
        {
          "internalType": "uint256",
          "name": "",
          "type": "uint256"
        },
        {
          "internalType": "uint256",
          "name": "",
          "type": "uint256"
        }
      ],
      "name": "Bids",
      "outputs": [
        {
          "internalType": "uint256",
          "name": "bidId",
          "type": "uint256"
        },
        {
          "internalType": "uint256",
          "name": "saleId",
          "type": "uint256"
        },
        {
          "internalType": "address",
          "name": "sellerAddress",
          "type": "address"
        },
        {
          "internalType": "address",
          "name": "buyerAddress",
          "type": "address"
        },
        {
          "internalType": "uint256",
          "name": "price",
          "type": "uint256"
        },
        {
          "internalType": "bool",
          "name": "withdrawn",
          "type": "bool"
        }
      ],
      "stateMutability": "view",
      "type": "function"
    },
    {
      "inputs": [
        {
          "internalType": "uint256",
          "name": "",
          "type": "uint256"
        }
      ],
      "name": "_tokenMeta",
      "outputs": [
        {
          "internalType": "uint256",
          "name": "saleId",
          "type": "uint256"
        },
        {
          "internalType": "address",
          "name": "tokenContractAddress",
          "type": "address"
        },
        {
          "internalType": "uint256",
          "name": "tokenId",
          "type": "uint256"
        },
        {
          "internalType": "uint256",
          "name": "price",
          "type": "uint256"
        },
        {
          "internalType": "bool",
          "name": "directSale",
          "type": "bool"
        },
        {
          "internalType": "bool",
          "name": "bidSale",
          "type": "bool"
        },
        {
          "internalType": "bool",
          "name": "status",
          "type": "bool"
        },
        {
          "internalType": "uint256",
          "name": "bidStartTime",
          "type": "uint256"
        },
        {
          "internalType": "uint256",
          "name": "bidEndTime",
          "type": "uint256"
        },
        {
          "internalType": "address",
          "name": "currentOwner",
          "type": "address"
        }
      ],
      "stateMutability": "view",
      "type": "function"
    },
    {
      "inputs": [
        {
          "internalType": "address",
          "name": "",
          "type": "address"
        },
        {
          "internalType": "address",
          "name": "",
          "type": "address"
        },
        {
          "internalType": "uint256",
          "name": "",
          "type": "uint256"
        },
        {
          "internalType": "bytes",
          "name": "",
          "type": "bytes"
        }
      ],
      "name": "onERC721Received",
      "outputs": [
        {
          "internalType": "bytes4",
          "name": "",
          "type": "bytes4"
        }
      ],
      "stateMutability": "nonpayable",
      "type": "function"
    },
    {
      "inputs": [
        {
          "internalType": "address",
          "name": "_piNFTAddress",
          "type": "address"
        },
        {
          "internalType": "uint256",
          "name": "_tokenId",
          "type": "uint256"
        },
        {
          "internalType": "uint256",
          "name": "_price",
          "type": "uint256"
        }
      ],
      "name": "sellNFT",
      "outputs": [],
      "stateMutability": "nonpayable",
      "type": "function"
    },
    {
      "inputs": [
        {
          "internalType": "address",
          "name": "_contractAddress",
          "type": "address"
        },
        {
          "internalType": "uint256",
          "name": "_tokenId",
          "type": "uint256"
        }
      ],
      "name": "retrieveRoyalty",
      "outputs": [
        {
          "components": [
            {
              "internalType": "address payable",
              "name": "account",
              "type": "address"
            },
            {
              "internalType": "uint96",
              "name": "value",
              "type": "uint96"
            }
          ],
          "internalType": "struct LibShare.Share[]",
          "name": "",
          "type": "tuple[]"
        }
      ],
      "stateMutability": "view",
      "type": "function"
    },
    {
      "inputs": [
        {
          "internalType": "uint256",
          "name": "_saleId",
          "type": "uint256"
        }
      ],
      "name": "BuyNFT",
      "outputs": [],
      "stateMutability": "payable",
      "type": "function"
    },
    {
      "inputs": [
        {
          "internalType": "uint256",
          "name": "_saleId",
          "type": "uint256"
        }
      ],
      "name": "cancelSale",
      "outputs": [],
      "stateMutability": "nonpayable",
      "type": "function"
    },
    {
      "inputs": [
        {
          "internalType": "address",
          "name": "_piNFTAddress",
          "type": "address"
        },
        {
          "internalType": "uint256",
          "name": "_tokenId",
          "type": "uint256"
        },
        {
          "internalType": "uint256",
          "name": "_price",
          "type": "uint256"
        },
        {
          "internalType": "uint256",
          "name": "_bidTime",
          "type": "uint256"
        }
      ],
      "name": "SellNFT_byBid",
      "outputs": [],
      "stateMutability": "nonpayable",
      "type": "function"
    },
    {
      "inputs": [
        {
          "internalType": "uint256",
          "name": "_saleId",
          "type": "uint256"
        }
      ],
      "name": "Bid",
      "outputs": [],
      "stateMutability": "payable",
      "type": "function"
    },
    {
      "inputs": [
        {
          "internalType": "uint256",
          "name": "_saleId",
          "type": "uint256"
        },
        {
          "internalType": "uint256",
          "name": "_bidOrderID",
          "type": "uint256"
        }
      ],
      "name": "executeBidOrder",
      "outputs": [],
      "stateMutability": "nonpayable",
      "type": "function"
    },
    {
      "inputs": [
        {
          "internalType": "uint256",
          "name": "_saleId",
          "type": "uint256"
        },
        {
          "internalType": "uint256",
          "name": "_bidId",
          "type": "uint256"
        }
      ],
      "name": "withdrawBidMoney",
      "outputs": [],
      "stateMutability": "nonpayable",
      "type": "function"
    }
  ],
  "bytecode": "0x60806040523480156200001157600080fd5b506040516200396938038062003969833981810160405281019062000037919062000164565b6001600081905550600073ffffffffffffffffffffffffffffffffffffffff168173ffffffffffffffffffffffffffffffffffffffff161415620000b2576040517f08c379a0000000000000000000000000000000000000000000000000000000008152600401620000a990620001f7565b60405180910390fd5b80600260006101000a81548173ffffffffffffffffffffffffffffffffffffffff021916908373ffffffffffffffffffffffffffffffffffffffff1602179055505062000219565b600080fd5b600073ffffffffffffffffffffffffffffffffffffffff82169050919050565b60006200012c82620000ff565b9050919050565b6200013e816200011f565b81146200014a57600080fd5b50565b6000815190506200015e8162000133565b92915050565b6000602082840312156200017d576200017c620000fa565b5b60006200018d848285016200014d565b91505092915050565b600082825260208201905092915050565b7f46656520616464726573732063616e6e6f74206265207a65726f000000000000600082015250565b6000620001df601a8362000196565b9150620001ec82620001a7565b602082019050919050565b600060208201905081810360008301526200021281620001d0565b9050919050565b61374080620002296000396000f3fe60806040526004361061009c5760003560e01c806396faba9d1161006457806396faba9d14610192578063a37365e0146101cf578063a7f323da146101eb578063bd94b0051461022d578063f436682a14610256578063f779a1931461027f5761009c565b8063150b7a02146100a15780632bd87c4f146100de57806376cb6647146101075780637a183e84146101305780638e57ff161461014c575b600080fd5b3480156100ad57600080fd5b506100c860048036038101906100c3919061265c565b6102a8565b6040516100d5919061271a565b60405180910390f35b3480156100ea57600080fd5b5061010560048036038101906101009190612735565b6102bc565b005b34801561011357600080fd5b5061012e60048036038101906101299190612735565b610625565b005b61014a60048036038101906101459190612775565b610d31565b005b34801561015857600080fd5b50610173600480360381019061016e9190612775565b6110bc565b6040516101899a999897969594939291906127db565b60405180910390f35b34801561019e57600080fd5b506101b960048036038101906101b49190612877565b611177565b6040516101c691906129dd565b60405180910390f35b6101e960048036038101906101e49190612775565b611200565b005b3480156101f757600080fd5b50610212600480360381019061020d9190612735565b61188a565b604051610224969594939291906129ff565b60405180910390f35b34801561023957600080fd5b50610254600480360381019061024f9190612775565b611930565b005b34801561026257600080fd5b5061027d60048036038101906102789190612a60565b611bcc565b005b34801561028b57600080fd5b506102a660048036038101906102a19190612ac7565b611fde565b005b600063150b7a0260e01b9050949350505050565b60026000541415610302576040517f08c379a00000000000000000000000000000000000000000000000000000000081526004016102f990612b77565b60405180910390fd5b60026000819055506003600083815260200190815260200160002060070160009054906101000a900473ffffffffffffffffffffffffffffffffffffffff1673ffffffffffffffffffffffffffffffffffffffff163373ffffffffffffffffffffffffffffffffffffffff16141561037957600080fd5b60006004600084815260200190815260200160002082815481106103a05761039f612b97565b5b90600052602060002090600602016040518060c001604052908160008201548152602001600182015481526020016002820160009054906101000a900473ffffffffffffffffffffffffffffffffffffffff1673ffffffffffffffffffffffffffffffffffffffff1673ffffffffffffffffffffffffffffffffffffffff1681526020016003820160009054906101000a900473ffffffffffffffffffffffffffffffffffffffff1673ffffffffffffffffffffffffffffffffffffffff1673ffffffffffffffffffffffffffffffffffffffff168152602001600482015481526020016005820160009054906101000a900460ff16151515158152505090508060800151600360008581526020019081526020016000206003015414156104c757600080fd5b3373ffffffffffffffffffffffffffffffffffffffff16816060015173ffffffffffffffffffffffffffffffffffffffff161461050357600080fd5b8060a001511561051257600080fd5b60003373ffffffffffffffffffffffffffffffffffffffff16826080015160405161053c90612bf7565b60006040518083038185875af1925050503d8060008114610579576040519150601f19603f3d011682016040523d82523d6000602084013e61057e565b606091505b5050905080156105dc5760016004600086815260200190815260200160002084815481106105af576105ae612b97565b5b906000526020600020906006020160050160006101000a81548160ff021916908315150217905550610617565b6040517f08c379a000000000000000000000000000000000000000000000000000000000815260040161060e90612c58565b60405180910390fd5b505060016000819055505050565b6002600054141561066b576040517f08c379a000000000000000000000000000000000000000000000000000000000815260040161066290612b77565b60405180910390fd5b6002600081905550600060046000848152602001908152602001600020828154811061069a57610699612b97565b5b90600052602060002090600602016040518060c001604052908160008201548152602001600182015481526020016002820160009054906101000a900473ffffffffffffffffffffffffffffffffffffffff1673ffffffffffffffffffffffffffffffffffffffff1673ffffffffffffffffffffffffffffffffffffffff1681526020016003820160009054906101000a900473ffffffffffffffffffffffffffffffffffffffff1673ffffffffffffffffffffffffffffffffffffffff1673ffffffffffffffffffffffffffffffffffffffff168152602001600482015481526020016005820160009054906101000a900460ff16151515158152505090506003600084815260200190815260200160002060070160009054906101000a900473ffffffffffffffffffffffffffffffffffffffff1673ffffffffffffffffffffffffffffffffffffffff163373ffffffffffffffffffffffffffffffffffffffff161461080857600080fd5b8060a001511561081757600080fd5b6003600084815260200190815260200160002060040160029054906101000a900460ff1661084457600080fd5b600061089c6003600086815260200190815260200160002060010160009054906101000a900473ffffffffffffffffffffffffffffffffffffffff166003600087815260200190815260200160002060020154611177565b905060006003600086815260200190815260200160002060040160026101000a81548160ff02191690831515021790555081608001516003600086815260200190815260200160002060030181905550600160046000868152602001908152602001600020848154811061091357610912612b97565b5b906000526020600020906006020160050160006101000a81548160ff0219169083151502179055506003600085815260200190815260200160002060010160009054906101000a900473ffffffffffffffffffffffffffffffffffffffff1673ffffffffffffffffffffffffffffffffffffffff166342842e0e30846060015160036000898152602001908152602001600020600201546040518463ffffffff1660e01b81526004016109c893929190612c78565b600060405180830381600087803b1580156109e257600080fd5b505af11580156109f6573d6000803e3d6000fd5b50505050600082608001519050600060648460800151610a169190612d0d565b905060005b8351811015610b5e5760006127108660800151868481518110610a4157610a40612b97565b5b6020026020010151602001516bffffffffffffffffffffffff16610a659190612d3e565b610a6f9190612d0d565b90506000858381518110610a8657610a85612b97565b5b60200260200101516000015173ffffffffffffffffffffffffffffffffffffffff1682604051610ab590612bf7565b60006040518083038185875af1925050503d8060008114610af2576040519150601f19603f3d011682016040523d82523d6000602084013e610af7565b606091505b5050905080610b3b576040517f08c379a0000000000000000000000000000000000000000000000000000000008152600401610b3290612de4565b60405180910390fd5b8185610b479190612e04565b945050508080610b5690612e38565b915050610a1b565b5060003373ffffffffffffffffffffffffffffffffffffffff168284610b849190612e04565b604051610b9090612bf7565b60006040518083038185875af1925050503d8060008114610bcd576040519150601f19603f3d011682016040523d82523d6000602084013e610bd2565b606091505b5050905080610c16576040517f08c379a0000000000000000000000000000000000000000000000000000000008152600401610c0d90612ecd565b60405180910390fd5b6000600260009054906101000a900473ffffffffffffffffffffffffffffffffffffffff1673ffffffffffffffffffffffffffffffffffffffff1683604051610c5e90612bf7565b60006040518083038185875af1925050503d8060008114610c9b576040519150601f19603f3d011682016040523d82523d6000602084013e610ca0565b606091505b5050905080610ce4576040517f08c379a0000000000000000000000000000000000000000000000000000000008152600401610cdb90612f39565b60405180910390fd5b7fc1a33fc6bb7dd982480f7d209db0c9ee0afb428b5f804be0268c066863032e4c8660800151604051610d179190612f59565b60405180910390a150505050505060016000819055505050565b3373ffffffffffffffffffffffffffffffffffffffff166003600083815260200190815260200160002060070160009054906101000a900473ffffffffffffffffffffffffffffffffffffffff1673ffffffffffffffffffffffffffffffffffffffff161415610da057600080fd5b6003600082815260200190815260200160002060040160029054906101000a900460ff16610dcd57600080fd5b6003600082815260200190815260200160002060040160019054906101000a900460ff16610dfa57600080fd5b6003600082815260200190815260200160002060060154421115610e1d57600080fd5b34606460036000848152602001908152602001600020600301546005610e439190612d3e565b610e4d9190612d0d565b6003600084815260200190815260200160002060030154610e6e9190612f74565b1115610eaf576040517f08c379a0000000000000000000000000000000000000000000000000000000008152600401610ea69061303c565b60405180910390fd5b60006040518060c00160405280600460008581526020019081526020016000208054905081526020018381526020016003600085815260200190815260200160002060070160009054906101000a900473ffffffffffffffffffffffffffffffffffffffff1673ffffffffffffffffffffffffffffffffffffffff1681526020013373ffffffffffffffffffffffffffffffffffffffff16815260200134815260200160001515815250905060046000838152602001908152602001600020819080600181540180825580915050600190039060005260206000209060060201600090919091909150600082015181600001556020820151816001015560408201518160020160006101000a81548173ffffffffffffffffffffffffffffffffffffffff021916908373ffffffffffffffffffffffffffffffffffffffff16021790555060608201518160030160006101000a81548173ffffffffffffffffffffffffffffffffffffffff021916908373ffffffffffffffffffffffffffffffffffffffff1602179055506080820151816004015560a08201518160050160006101000a81548160ff02191690831515021790555050503460036000848152602001908152602001600020600301819055507f6dfa77b86c3d87864e5b10df6b47557084e5534674ca734ebe53741276ce52d1816040516110b09190613104565b60405180910390a15050565b60036020528060005260406000206000915090508060000154908060010160009054906101000a900473ffffffffffffffffffffffffffffffffffffffff16908060020154908060030154908060040160009054906101000a900460ff16908060040160019054906101000a900460ff16908060040160029054906101000a900460ff16908060050154908060060154908060070160009054906101000a900473ffffffffffffffffffffffffffffffffffffffff1690508a565b60608273ffffffffffffffffffffffffffffffffffffffff1663bb3bafd6836040518263ffffffff1660e01b81526004016111b29190612f59565b600060405180830381865afa1580156111cf573d6000803e3d6000fd5b505050506040513d6000823e3d601f19601f820116820180604052508101906111f89190613294565b905092915050565b60026000541415611246576040517f08c379a000000000000000000000000000000000000000000000000000000000815260040161123d90612b77565b60405180910390fd5b600260008190555060006003600083815260200190815260200160002060405180610140016040529081600082015481526020016001820160009054906101000a900473ffffffffffffffffffffffffffffffffffffffff1673ffffffffffffffffffffffffffffffffffffffff1673ffffffffffffffffffffffffffffffffffffffff16815260200160028201548152602001600382015481526020016004820160009054906101000a900460ff161515151581526020016004820160019054906101000a900460ff161515151581526020016004820160029054906101000a900460ff1615151515815260200160058201548152602001600682015481526020016007820160009054906101000a900473ffffffffffffffffffffffffffffffffffffffff1673ffffffffffffffffffffffffffffffffffffffff1673ffffffffffffffffffffffffffffffffffffffff1681525050905060006113b482602001518360400151611177565b90508160c001516113fa576040517f08c379a00000000000000000000000000000000000000000000000000000000081526004016113f190613329565b60405180910390fd5b600073ffffffffffffffffffffffffffffffffffffffff163373ffffffffffffffffffffffffffffffffffffffff1614158015611468575081610120015173ffffffffffffffffffffffffffffffffffffffff163373ffffffffffffffffffffffffffffffffffffffff1614155b6114a7576040517f08c379a000000000000000000000000000000000000000000000000000000000815260040161149e90613395565b60405180910390fd5b8160a00151156114b657600080fd5b81606001513410156114fd576040517f08c379a00000000000000000000000000000000000000000000000000000000081526004016114f490613401565b60405180910390fd5b61151960036000858152602001908152602001600020336123ac565b6000349050600034905060006064346115329190612d0d565b905060005b84518110156116765760006127108487848151811061155957611558612b97565b5b6020026020010151602001516bffffffffffffffffffffffff1661157d9190612d3e565b6115879190612d0d565b9050600086838151811061159e5761159d612b97565b5b60200260200101516000015173ffffffffffffffffffffffffffffffffffffffff16826040516115cd90612bf7565b60006040518083038185875af1925050503d806000811461160a576040519150601f19603f3d011682016040523d82523d6000602084013e61160f565b606091505b5050905080611653576040517f08c379a000000000000000000000000000000000000000000000000000000000815260040161164a9061346d565b60405180910390fd5b818661165f9190612e04565b95505050808061166e90612e38565b915050611537565b50600085610120015173ffffffffffffffffffffffffffffffffffffffff1682856116a19190612e04565b6040516116ad90612bf7565b60006040518083038185875af1925050503d80600081146116ea576040519150601f19603f3d011682016040523d82523d6000602084013e6116ef565b606091505b5050905080611733576040517f08c379a000000000000000000000000000000000000000000000000000000000815260040161172a90612ecd565b60405180910390fd5b6000600260009054906101000a900473ffffffffffffffffffffffffffffffffffffffff1673ffffffffffffffffffffffffffffffffffffffff168360405161177b90612bf7565b60006040518083038185875af1925050503d80600081146117b8576040519150601f19603f3d011682016040523d82523d6000602084013e6117bd565b606091505b5050905080611801576040517f08c379a00000000000000000000000000000000000000000000000000000000081526004016117f890612f39565b60405180910390fd5b866020015173ffffffffffffffffffffffffffffffffffffffff166342842e0e30338a604001516040518463ffffffff1660e01b815260040161184693929190612c78565b600060405180830381600087803b15801561186057600080fd5b505af1158015611874573d6000803e3d6000fd5b5050505050505050505050600160008190555050565b600460205281600052604060002081815481106118a657600080fd5b9060005260206000209060060201600091509150508060000154908060010154908060020160009054906101000a900473ffffffffffffffffffffffffffffffffffffffff16908060030160009054906101000a900473ffffffffffffffffffffffffffffffffffffffff16908060040154908060050160009054906101000a900460ff16905086565b60026000541415611976576040517f08c379a000000000000000000000000000000000000000000000000000000000815260040161196d90612b77565b60405180910390fd5b60026000819055506003600082815260200190815260200160002060070160009054906101000a900473ffffffffffffffffffffffffffffffffffffffff1673ffffffffffffffffffffffffffffffffffffffff163373ffffffffffffffffffffffffffffffffffffffff1614611a22576040517f08c379a0000000000000000000000000000000000000000000000000000000008152600401611a19906134d9565b60405180910390fd5b6003600082815260200190815260200160002060040160029054906101000a900460ff16611a85576040517f08c379a0000000000000000000000000000000000000000000000000000000008152600401611a7c90613545565b60405180910390fd5b6000600360008381526020019081526020016000206003018190555060006003600083815260200190815260200160002060040160026101000a81548160ff0219169083151502179055506003600082815260200190815260200160002060010160009054906101000a900473ffffffffffffffffffffffffffffffffffffffff1673ffffffffffffffffffffffffffffffffffffffff166342842e0e306003600085815260200190815260200160002060070160009054906101000a900473ffffffffffffffffffffffffffffffffffffffff1660036000868152602001908152602001600020600201546040518463ffffffff1660e01b8152600401611b8f93929190612c78565b600060405180830381600087803b158015611ba957600080fd5b505af1158015611bbd573d6000803e3d6000fd5b50505050600160008190555050565b83838173ffffffffffffffffffffffffffffffffffffffff16636352211e826040518263ffffffff1660e01b8152600401611c079190612f59565b602060405180830381865afa158015611c24573d6000803e3d6000fd5b505050506040513d601f19601f82011682018060405250810190611c48919061357a565b73ffffffffffffffffffffffffffffffffffffffff163373ffffffffffffffffffffffffffffffffffffffff1614611cb5576040517f08c379a0000000000000000000000000000000000000000000000000000000008152600401611cac906135f3565b60405180910390fd5b60026000541415611cfb576040517f08c379a0000000000000000000000000000000000000000000000000000000008152600401611cf290612b77565b60405180910390fd5b6002600081905550600073ffffffffffffffffffffffffffffffffffffffff168673ffffffffffffffffffffffffffffffffffffffff161415611d3d57600080fd5b611d47600161244a565b8573ffffffffffffffffffffffffffffffffffffffff166342842e0e3330886040518463ffffffff1660e01b8152600401611d8493929190612c78565b600060405180830381600087803b158015611d9e57600080fd5b505af1158015611db2573d6000803e3d6000fd5b505050506000604051806101400160405280611dce6001612460565b81526020018873ffffffffffffffffffffffffffffffffffffffff1681526020018781526020018681526020016000151581526020016001151581526020016001151581526020014281526020018542611e289190612f74565b81526020013373ffffffffffffffffffffffffffffffffffffffff1681525090508060036000611e586001612460565b81526020019081526020016000206000820151816000015560208201518160010160006101000a81548173ffffffffffffffffffffffffffffffffffffffff021916908373ffffffffffffffffffffffffffffffffffffffff160217905550604082015181600201556060820151816003015560808201518160040160006101000a81548160ff02191690831515021790555060a08201518160040160016101000a81548160ff02191690831515021790555060c08201518160040160026101000a81548160ff02191690831515021790555060e0820151816005015561010082015181600601556101208201518160070160006101000a81548173ffffffffffffffffffffffffffffffffffffffff021916908373ffffffffffffffffffffffffffffffffffffffff1602179055509050507f2c28b1a4996f07ef4457782603fcee3454f1790eedb957cf72f54c35e12cb0b281611fb76001612460565b604051611fc59291906136df565b60405180910390a1506001600081905550505050505050565b82828173ffffffffffffffffffffffffffffffffffffffff16636352211e826040518263ffffffff1660e01b81526004016120199190612f59565b602060405180830381865afa158015612036573d6000803e3d6000fd5b505050506040513d601f19601f8201168201806040525081019061205a919061357a565b73ffffffffffffffffffffffffffffffffffffffff163373ffffffffffffffffffffffffffffffffffffffff16146120c7576040517f08c379a00000000000000000000000000000000000000000000000000000000081526004016120be906135f3565b60405180910390fd5b6002600054141561210d576040517f08c379a000000000000000000000000000000000000000000000000000000000815260040161210490612b77565b60405180910390fd5b600260008190555061211f600161244a565b8473ffffffffffffffffffffffffffffffffffffffff166342842e0e3330876040518463ffffffff1660e01b815260040161215c93929190612c78565b600060405180830381600087803b15801561217657600080fd5b505af115801561218a573d6000803e3d6000fd5b5050505060006040518061014001604052806121a66001612460565b81526020018773ffffffffffffffffffffffffffffffffffffffff16815260200186815260200185815260200160011515815260200160001515815260200160011515815260200160008152602001600081526020013373ffffffffffffffffffffffffffffffffffffffff16815250905080600360006122276001612460565b81526020019081526020016000206000820151816000015560208201518160010160006101000a81548173ffffffffffffffffffffffffffffffffffffffff021916908373ffffffffffffffffffffffffffffffffffffffff160217905550604082015181600201556060820151816003015560808201518160040160006101000a81548160ff02191690831515021790555060a08201518160040160016101000a81548160ff02191690831515021790555060c08201518160040160026101000a81548160ff02191690831515021790555060e0820151816005015561010082015181600601556101208201518160070160006101000a81548173ffffffffffffffffffffffffffffffffffffffff021916908373ffffffffffffffffffffffffffffffffffffffff1602179055509050507f2c28b1a4996f07ef4457782603fcee3454f1790eedb957cf72f54c35e12cb0b2816123866001612460565b6040516123949291906136df565b60405180910390a15060016000819055505050505050565b808260070160006101000a81548173ffffffffffffffffffffffffffffffffffffffff021916908373ffffffffffffffffffffffffffffffffffffffff16021790555060008260040160026101000a81548160ff02191690831515021790555060008260040160006101000a81548160ff02191690831515021790555060008260040160016101000a81548160ff0219169083151502179055505050565b6001816000016000828254019250508190555050565b600081600001549050919050565b6000604051905090565b600080fd5b600080fd5b600073ffffffffffffffffffffffffffffffffffffffff82169050919050565b60006124ad82612482565b9050919050565b6124bd816124a2565b81146124c857600080fd5b50565b6000813590506124da816124b4565b92915050565b6000819050919050565b6124f3816124e0565b81146124fe57600080fd5b50565b600081359050612510816124ea565b92915050565b600080fd5b600080fd5b6000601f19601f8301169050919050565b7f4e487b7100000000000000000000000000000000000000000000000000000000600052604160045260246000fd5b61256982612520565b810181811067ffffffffffffffff8211171561258857612587612531565b5b80604052505050565b600061259b61246e565b90506125a78282612560565b919050565b600067ffffffffffffffff8211156125c7576125c6612531565b5b6125d082612520565b9050602081019050919050565b82818337600083830152505050565b60006125ff6125fa846125ac565b612591565b90508281526020810184848401111561261b5761261a61251b565b5b6126268482856125dd565b509392505050565b600082601f83011261264357612642612516565b5b81356126538482602086016125ec565b91505092915050565b6000806000806080858703121561267657612675612478565b5b6000612684878288016124cb565b9450506020612695878288016124cb565b93505060406126a687828801612501565b925050606085013567ffffffffffffffff8111156126c7576126c661247d565b5b6126d38782880161262e565b91505092959194509250565b60007fffffffff0000000000000000000000000000000000000000000000000000000082169050919050565b612714816126df565b82525050565b600060208201905061272f600083018461270b565b92915050565b6000806040838503121561274c5761274b612478565b5b600061275a85828601612501565b925050602061276b85828601612501565b9150509250929050565b60006020828403121561278b5761278a612478565b5b600061279984828501612501565b91505092915050565b6127ab816124e0565b82525050565b6127ba816124a2565b82525050565b60008115159050919050565b6127d5816127c0565b82525050565b6000610140820190506127f1600083018d6127a2565b6127fe602083018c6127b1565b61280b604083018b6127a2565b612818606083018a6127a2565b61282560808301896127cc565b61283260a08301886127cc565b61283f60c08301876127cc565b61284c60e08301866127a2565b61285a6101008301856127a2565b6128686101208301846127b1565b9b9a5050505050505050505050565b6000806040838503121561288e5761288d612478565b5b600061289c858286016124cb565b92505060206128ad85828601612501565b9150509250929050565b600081519050919050565b600082825260208201905092915050565b6000819050602082019050919050565b60006128ee82612482565b9050919050565b6128fe816128e3565b82525050565b60006bffffffffffffffffffffffff82169050919050565b61292581612904565b82525050565b60408201600082015161294160008501826128f5565b506020820151612954602085018261291c565b50505050565b6000612966838361292b565b60408301905092915050565b6000602082019050919050565b600061298a826128b7565b61299481856128c2565b935061299f836128d3565b8060005b838110156129d05781516129b7888261295a565b97506129c283612972565b9250506001810190506129a3565b5085935050505092915050565b600060208201905081810360008301526129f7818461297f565b905092915050565b600060c082019050612a1460008301896127a2565b612a2160208301886127a2565b612a2e60408301876127b1565b612a3b60608301866127b1565b612a4860808301856127a2565b612a5560a08301846127cc565b979650505050505050565b60008060008060808587031215612a7a57612a79612478565b5b6000612a88878288016124cb565b9450506020612a9987828801612501565b9350506040612aaa87828801612501565b9250506060612abb87828801612501565b91505092959194509250565b600080600060608486031215612ae057612adf612478565b5b6000612aee868287016124cb565b9350506020612aff86828701612501565b9250506040612b1086828701612501565b9150509250925092565b600082825260208201905092915050565b7f5265656e7472616e637947756172643a207265656e7472616e742063616c6c00600082015250565b6000612b61601f83612b1a565b9150612b6c82612b2b565b602082019050919050565b60006020820190508181036000830152612b9081612b54565b9050919050565b7f4e487b7100000000000000000000000000000000000000000000000000000000600052603260045260246000fd5b600081905092915050565b50565b6000612be1600083612bc6565b9150612bec82612bd1565b600082019050919050565b6000612c0282612bd4565b9150819050919050565b7f4e6f204d6f6e6579206c65667421000000000000000000000000000000000000600082015250565b6000612c42600e83612b1a565b9150612c4d82612c0c565b602082019050919050565b60006020820190508181036000830152612c7181612c35565b9050919050565b6000606082019050612c8d60008301866127b1565b612c9a60208301856127b1565b612ca760408301846127a2565b949350505050565b7f4e487b7100000000000000000000000000000000000000000000000000000000600052601260045260246000fd5b7f4e487b7100000000000000000000000000000000000000000000000000000000600052601160045260246000fd5b6000612d18826124e0565b9150612d23836124e0565b925082612d3357612d32612caf565b5b828204905092915050565b6000612d49826124e0565b9150612d54836124e0565b9250817fffffffffffffffffffffffffffffffffffffffffffffffffffffffffffffffff0483118215151615612d8d57612d8c612cde565b5b828202905092915050565b7f526f79616c7479207472616e73666572206661696c6564000000000000000000600082015250565b6000612dce601783612b1a565b9150612dd982612d98565b602082019050919050565b60006020820190508181036000830152612dfd81612dc1565b9050919050565b6000612e0f826124e0565b9150612e1a836124e0565b925082821015612e2d57612e2c612cde565b5b828203905092915050565b6000612e43826124e0565b91507fffffffffffffffffffffffffffffffffffffffffffffffffffffffffffffffff821415612e7657612e75612cde565b5b600182019050919050565b7f5472616e73666572206661696c65640000000000000000000000000000000000600082015250565b6000612eb7600f83612b1a565b9150612ec282612e81565b602082019050919050565b60006020820190508181036000830152612ee681612eaa565b9050919050565b7f466565205472616e73666572206661696c656400000000000000000000000000600082015250565b6000612f23601383612b1a565b9150612f2e82612eed565b602082019050919050565b60006020820190508181036000830152612f5281612f16565b9050919050565b6000602082019050612f6e60008301846127a2565b92915050565b6000612f7f826124e0565b9150612f8a836124e0565b9250827fffffffffffffffffffffffffffffffffffffffffffffffffffffffffffffffff03821115612fbf57612fbe612cde565b5b828201905092915050565b7f4269642073686f756c64206265206d6f7265207468616e203525206f6620637560008201527f7272656e74206269640000000000000000000000000000000000000000000000602082015250565b6000613026602983612b1a565b915061303182612fca565b604082019050919050565b6000602082019050818103600083015261305581613019565b9050919050565b613065816124e0565b82525050565b613074816124a2565b82525050565b613083816127c0565b82525050565b60c08201600082015161309f600085018261305c565b5060208201516130b2602085018261305c565b5060408201516130c5604085018261306b565b5060608201516130d8606085018261306b565b5060808201516130eb608085018261305c565b5060a08201516130fe60a085018261307a565b50505050565b600060c0820190506131196000830184613089565b92915050565b600067ffffffffffffffff82111561313a57613139612531565b5b602082029050602081019050919050565b600080fd5b600080fd5b61315e816128e3565b811461316957600080fd5b50565b60008151905061317b81613155565b92915050565b61318a81612904565b811461319557600080fd5b50565b6000815190506131a781613181565b92915050565b6000604082840312156131c3576131c2613150565b5b6131cd6040612591565b905060006131dd8482850161316c565b60008301525060206131f184828501613198565b60208301525092915050565b600061321061320b8461311f565b612591565b905080838252602082019050604084028301858111156132335761323261314b565b5b835b8181101561325c578061324888826131ad565b845260208401935050604081019050613235565b5050509392505050565b600082601f83011261327b5761327a612516565b5b815161328b8482602086016131fd565b91505092915050565b6000602082840312156132aa576132a9612478565b5b600082015167ffffffffffffffff8111156132c8576132c761247d565b5b6132d484828501613266565b91505092915050565b7f746f6b656e206d757374206265206f6e2073616c650000000000000000000000600082015250565b6000613313601583612b1a565b915061331e826132dd565b602082019050919050565b6000602082019050818103600083015261334281613306565b9050919050565b7f696e76616c696420616464726573730000000000000000000000000000000000600082015250565b600061337f600f83612b1a565b915061338a82613349565b602082019050919050565b600060208201905081810360008301526133ae81613372565b9050919050565b7f76616c7565206c657373207468616e2070726963650000000000000000000000600082015250565b60006133eb601583612b1a565b91506133f6826133b5565b602082019050919050565b6000602082019050818103600083015261341a816133de565b9050919050565b7f526f79616c7479205472616e73666572206661696c6564000000000000000000600082015250565b6000613457601783612b1a565b915061346282613421565b602082019050919050565b600060208201905081810360008301526134868161344a565b9050919050565b7f4f6e6c79206f776e65722063616e2063616e63656c2073616c65000000000000600082015250565b60006134c3601a83612b1a565b91506134ce8261348d565b602082019050919050565b600060208201905081810360008301526134f2816134b6565b9050919050565b7f546f6b656e206e6f74206f6e2073616c65000000000000000000000000000000600082015250565b600061352f601183612b1a565b915061353a826134f9565b602082019050919050565b6000602082019050818103600083015261355e81613522565b9050919050565b600081519050613574816124b4565b92915050565b6000602082840312156135905761358f612478565b5b600061359e84828501613565565b91505092915050565b7f4f6e6c7920746f6b656e206f776e65722063616e20707574206f6e2073616c65600082015250565b60006135dd602083612b1a565b91506135e8826135a7565b602082019050919050565b6000602082019050818103600083015261360c816135d0565b9050919050565b6101408201600082015161362a600085018261305c565b50602082015161363d602085018261306b565b506040820151613650604085018261305c565b506060820151613663606085018261305c565b506080820151613676608085018261307a565b5060a082015161368960a085018261307a565b5060c082015161369c60c085018261307a565b5060e08201516136af60e085018261305c565b506101008201516136c461010085018261305c565b506101208201516136d961012085018261306b565b50505050565b6000610160820190506136f56000830185613613565b6137036101408301846127a2565b939250505056fea264697066735822122046a1533e0559430aa01eaae2e25c39b3ca5a27c8ca539e70aabbf12fafe6a98d64736f6c634300080b0033",
  "immutableReferences": {},
  "source": "// SPDX-License-Identifier: MIT\npragma solidity >=0.4.22 <0.9.0;\n\nimport \"@openzeppelin/contracts/token/ERC721/utils/ERC721Holder.sol\";\nimport \"@openzeppelin/contracts/token/ERC721/ERC721.sol\";\nimport \"@openzeppelin/contracts/access/Ownable.sol\";\nimport \"@openzeppelin/contracts/security/ReentrancyGuard.sol\";\nimport \"@openzeppelin/contracts/utils/Counters.sol\";\nimport \"./piNFT.sol\";\nimport \"./utils/LibShare.sol\";\n\ncontract piMarket is ERC721Holder, ReentrancyGuard {\n    using Counters for Counters.Counter;\n    Counters.Counter internal _saleIdCounter;\n\n    address internal feeAddress;\n\n    struct TokenMeta {\n        uint256 saleId;\n        address tokenContractAddress;\n        uint256 tokenId;\n        uint256 price;\n        bool directSale;\n        bool bidSale;\n        bool status;\n        uint256 bidStartTime;\n        uint256 bidEndTime;\n        address currentOwner;\n    }\n\n    struct BidOrder {\n        uint256 bidId;\n        uint256 saleId;\n        address sellerAddress;\n        address buyerAddress;\n        uint256 price;\n        bool withdrawn;\n    }\n\n\n    mapping(uint256 => TokenMeta) public _tokenMeta;\n    mapping(uint256 => BidOrder[]) public Bids;\n\n    event TokenMetaReturn(TokenMeta data, uint256 id);\n    event BidOrderReturn(BidOrder bid);\n    event BidExecuted(uint256 price);\n\n    constructor(address _feeAddress) {\n        require(_feeAddress != address(0), 'Fee address cannot be zero');\n        feeAddress = _feeAddress;\n    }\n\n    modifier onlyOwnerOfToken(address _piNFTAddress, uint256 _tokenId) {\n        require(msg.sender == ERC721(_piNFTAddress).ownerOf(_tokenId), 'Only token owner can put on sale');\n        _;\n    }\n\n    function sellNFT(address _piNFTAddress, uint256 _tokenId, uint256 _price) external onlyOwnerOfToken(_piNFTAddress, _tokenId)  nonReentrant {\n\n        _saleIdCounter.increment();\n\n        //needs approval on frontend\n        ERC721(_piNFTAddress).safeTransferFrom(\n        msg.sender,\n        address(this),\n        _tokenId\n        );\n\n        TokenMeta memory meta = TokenMeta(\n            _saleIdCounter.current(),\n            _piNFTAddress,\n            _tokenId,\n            _price,\n            true,\n            false,\n            true,\n            0,\n            0,\n            msg.sender\n        );\n\n        _tokenMeta[_saleIdCounter.current()] = meta;\n\n        emit TokenMetaReturn(meta, _saleIdCounter.current());\n    }\n\n    function retrieveRoyalty(\n        address _contractAddress,\n        uint256 _tokenId\n    ) public view returns (LibShare.Share[] memory) {\n        return piNFT(_contractAddress).getRoyalties(_tokenId);\n    }\n\n    function BuyNFT(uint256 _saleId) external payable nonReentrant {\n        TokenMeta memory meta = _tokenMeta[_saleId];\n\n        LibShare.Share[] memory royalties = retrieveRoyalty(\n            meta.tokenContractAddress,\n            meta.tokenId\n        );\n\n        require(meta.status, 'token must be on sale');\n        require(msg.sender != address(0) && msg.sender != meta.currentOwner, 'invalid address');\n        require(!meta.bidSale);\n        require(msg.value >= meta.price, 'value less than price');\n\n        transfer(_tokenMeta[_saleId], msg.sender);\n\n        uint256 sum = msg.value;\n        uint256 val = msg.value;\n        uint256 fee = msg.value / 100;\n\n        for (uint256 i = 0; i < royalties.length; i++) {\n            uint256 amount = (royalties[i].value * val) / 10000;\n            // address payable receiver = royalties[i].account;\n            (bool royalSuccess, ) = payable(royalties[i].account).call{ value: amount }(\"\");\n            require(royalSuccess, \"Royalty Transfer failed\");\n            sum = sum - amount;\n        }\n\n        (bool isSuccess, ) = payable(meta.currentOwner).call{ value: (sum - fee) }(\"\");\n        require(isSuccess, \"Transfer failed\");\n        (bool feeSuccess, ) = payable(feeAddress).call{ value: fee }(\"\");\n        require(feeSuccess, \"Fee Transfer failed\");\n        ERC721(meta.tokenContractAddress).safeTransferFrom(\n        address(this),\n        msg.sender,\n        meta.tokenId\n        );\n    }\n\n    function cancelSale(uint256 _saleId) external nonReentrant {\n    require(msg.sender == _tokenMeta[_saleId].currentOwner, 'Only owner can cancel sale');\n    require(_tokenMeta[_saleId].status, 'Token not on sale');\n\n    _tokenMeta[_saleId].price = 0;\n    _tokenMeta[_saleId].status = false;\n    ERC721(_tokenMeta[_saleId].tokenContractAddress).safeTransferFrom(\n      address(this),\n      _tokenMeta[_saleId].currentOwner,\n      _tokenMeta[_saleId].tokenId\n    );\n  }\n\n    function SellNFT_byBid(\n    address _piNFTAddress,\n    uint256 _tokenId,\n    uint256 _price,\n    uint256 _bidTime\n  ) external onlyOwnerOfToken(_piNFTAddress, _tokenId) nonReentrant {\n    require(_piNFTAddress != address(0));\n    _saleIdCounter.increment();\n\n    //needs approval on frontend\n    ERC721(_piNFTAddress).safeTransferFrom(\n      msg.sender,\n      address(this),\n      _tokenId\n    );\n\n    TokenMeta memory meta = TokenMeta(\n      _saleIdCounter.current(),\n      _piNFTAddress,\n      _tokenId,\n      _price,\n      false,\n      true,\n      true,\n      block.timestamp,\n      block.timestamp + _bidTime,\n      msg.sender\n    );\n\n    _tokenMeta[_saleIdCounter.current()] = meta;\n\n    emit TokenMetaReturn(meta, _saleIdCounter.current());\n  }\n\n  function Bid(uint256 _saleId) external payable {\n    require(_tokenMeta[_saleId].currentOwner != msg.sender);\n    require(_tokenMeta[_saleId].status);\n    require(_tokenMeta[_saleId].bidSale);\n    require(block.timestamp <= _tokenMeta[_saleId].bidEndTime);\n    require(\n      _tokenMeta[_saleId].price + ((5 * _tokenMeta[_saleId].price) / 100) <=\n        msg.value,\n        'Bid should be more than 5% of current bid'\n    );\n    //  require(_timeOfAuction[_saleId] >= block.timestamp,\"Auction Over\");\n\n    BidOrder memory bid = BidOrder(\n      Bids[_saleId].length,\n      _saleId,\n      _tokenMeta[_saleId].currentOwner,\n      msg.sender,\n      msg.value,\n      false\n    );\n    Bids[_saleId].push(bid);\n    _tokenMeta[_saleId].price = msg.value;\n\n    emit BidOrderReturn(bid);\n\n    }\n\n    function executeBidOrder(uint256 _saleId, uint256 _bidOrderID)\n    external\n    nonReentrant\n  {\n    BidOrder memory bids = Bids[_saleId][_bidOrderID];\n    require(msg.sender == _tokenMeta[_saleId].currentOwner);\n    require(!bids.withdrawn);\n    require(_tokenMeta[_saleId].status);\n\n    LibShare.Share[] memory royalties = retrieveRoyalty(\n      _tokenMeta[_saleId].tokenContractAddress,\n      _tokenMeta[_saleId].tokenId\n    );\n\n    _tokenMeta[_saleId].status = false;\n    _tokenMeta[_saleId].price = bids.price;\n    Bids[_saleId][_bidOrderID].withdrawn = true;\n\n    ERC721(_tokenMeta[_saleId].tokenContractAddress).safeTransferFrom(\n      address(this),\n      bids.buyerAddress,\n      _tokenMeta[_saleId].tokenId\n    );\n\n    uint256 sum = bids.price;\n    uint256 fee = bids.price / 100;\n\n    for (uint256 i = 0; i < royalties.length; i++) {\n      uint256 amount = (royalties[i].value * bids.price) /\n        10000;\n      // address payable receiver = royalties[i].account;\n      (bool royalSuccess, ) = payable(royalties[i].account).call{ value: amount }(\"\");\n      require(royalSuccess, \"Royalty transfer failed\");\n      sum = sum - amount;\n    }\n\n    (bool isSuccess, ) = payable(msg.sender).call{ value: (sum - fee) }(\"\");\n    require(isSuccess, \"Transfer failed\");\n    (bool feeSuccess, ) = payable(feeAddress).call{ value: fee }(\"\");\n    require(feeSuccess, \"Fee Transfer failed\");\n\n    emit BidExecuted(bids.price);\n\n  }\n\n    function withdrawBidMoney(uint256 _saleId, uint256 _bidId)\n    external\n    nonReentrant\n  {\n    require(msg.sender != _tokenMeta[_saleId].currentOwner);\n    // BidOrder[] memory bids = Bids[_tokenId];\n    BidOrder memory bids = Bids[_saleId][_bidId];\n    require(_tokenMeta[_saleId].price != bids.price);\n    require(bids.buyerAddress == msg.sender);\n    require(!bids.withdrawn);\n    (bool success, ) = payable(msg.sender).call{\n      value: bids.price\n    }(\"\");\n    if (success) {\n      Bids[_saleId][_bidId].withdrawn = true;\n    } else {\n      revert(\"No Money left!\");\n    }\n  }\n\n    function transfer(TokenMeta storage token, address _to ) internal{\n        token.currentOwner = _to;\n        token.status = false;\n        token.directSale = false ;\n        token.bidSale = false ;\n\n    }\n}",
  "sourcePath": "/Users/parv/Desktop/Pandora/piNFTOfficial/aconomy-contract/contracts/piMarket.sol",
  "compiler": {
    "name": "solc",
    "version": "0.8.11+commit.d7f03943.Emscripten.clang"
  },
  "schemaVersion": "3.4.4",
  "updatedAt": "2022-09-01T07:13:43.442Z",
  "devdoc": {
    "kind": "dev",
    "methods": {
      "onERC721Received(address,address,uint256,bytes)": {
        "details": "See {IERC721Receiver-onERC721Received}. Always returns `IERC721Receiver.onERC721Received.selector`."
      }
    },
    "version": 1
  },
  "userdoc": {
    "kind": "user",
    "methods": {},
    "version": 1
  }
}