{
  "contractName": "piMarket",
  "abi": [
    {
      "inputs": [
        {
          "internalType": "address",
          "name": "_feeAddress",
          "type": "address"
        }
      ],
      "stateMutability": "nonpayable",
      "type": "constructor"
    },
    {
      "anonymous": false,
      "inputs": [
        {
          "indexed": false,
          "internalType": "uint256",
          "name": "saleId",
          "type": "uint256"
        },
        {
          "indexed": false,
          "internalType": "uint256",
          "name": "bidId",
          "type": "uint256"
        }
      ],
      "name": "BidCreated",
      "type": "event"
    },
    {
      "anonymous": false,
      "inputs": [
        {
          "indexed": false,
          "internalType": "uint256",
          "name": "saleId",
          "type": "uint256"
        },
        {
          "indexed": false,
          "internalType": "uint256",
          "name": "bidId",
          "type": "uint256"
        },
        {
          "indexed": false,
          "internalType": "uint256",
          "name": "price",
          "type": "uint256"
        }
      ],
      "name": "BidExecuted",
      "type": "event"
    },
    {
      "anonymous": false,
      "inputs": [
        {
          "indexed": false,
          "internalType": "uint256",
          "name": "saleId",
          "type": "uint256"
        },
        {
          "indexed": false,
          "internalType": "uint256",
          "name": "bidId",
          "type": "uint256"
        }
      ],
      "name": "BidWithdrawn",
      "type": "event"
    },
    {
      "anonymous": false,
      "inputs": [
        {
          "indexed": false,
          "internalType": "uint256",
          "name": "saleId",
          "type": "uint256"
        },
        {
          "indexed": false,
          "internalType": "address",
          "name": "buyer",
          "type": "address"
        }
      ],
      "name": "NFTBought",
      "type": "event"
    },
    {
      "anonymous": false,
      "inputs": [
        {
          "indexed": false,
          "internalType": "uint256",
          "name": "saleId",
          "type": "uint256"
        }
      ],
      "name": "SaleCancelled",
      "type": "event"
    },
    {
      "anonymous": false,
      "inputs": [
        {
          "indexed": false,
          "internalType": "uint256",
          "name": "tokenId",
          "type": "uint256"
        },
        {
          "indexed": false,
          "internalType": "address",
          "name": "tokenContract",
          "type": "address"
        },
        {
          "indexed": false,
          "internalType": "uint256",
          "name": "saleId",
          "type": "uint256"
        }
      ],
      "name": "SaleCreated",
      "type": "event"
    },
    {
      "anonymous": false,
      "inputs": [
        {
          "indexed": false,
          "internalType": "uint256",
          "name": "swapId",
          "type": "uint256"
        }
      ],
      "name": "SwapAccepted",
      "type": "event"
    },
    {
      "anonymous": false,
      "inputs": [
        {
          "indexed": false,
          "internalType": "uint256",
          "name": "swapId",
          "type": "uint256"
        }
      ],
      "name": "SwapCancelled",
      "type": "event"
    },
    {
      "anonymous": false,
      "inputs": [
        {
          "indexed": true,
          "internalType": "address",
          "name": "from",
          "type": "address"
        },
        {
          "indexed": true,
          "internalType": "address",
          "name": "to",
          "type": "address"
        },
        {
          "indexed": true,
          "internalType": "uint256",
          "name": "swapId",
          "type": "uint256"
        }
      ],
      "name": "SwapProposed",
      "type": "event"
    },
    {
      "anonymous": false,
      "inputs": [
        {
          "indexed": false,
          "internalType": "uint256",
          "name": "saleId",
          "type": "uint256"
        },
        {
          "indexed": false,
          "internalType": "uint256",
          "name": "Price",
          "type": "uint256"
        }
      ],
      "name": "updatedSalePrice",
      "type": "event"
    },
    {
      "inputs": [
        {
          "internalType": "uint256",
          "name": "",
          "type": "uint256"
        },
        {
          "internalType": "uint256",
          "name": "",
          "type": "uint256"
        }
      ],
      "name": "Bids",
      "outputs": [
        {
          "internalType": "uint256",
          "name": "bidId",
          "type": "uint256"
        },
        {
          "internalType": "uint256",
          "name": "saleId",
          "type": "uint256"
        },
        {
          "internalType": "address",
          "name": "sellerAddress",
          "type": "address"
        },
        {
          "internalType": "address",
          "name": "buyerAddress",
          "type": "address"
        },
        {
          "internalType": "uint256",
          "name": "price",
          "type": "uint256"
        },
        {
          "internalType": "bool",
          "name": "withdrawn",
          "type": "bool"
        }
      ],
      "stateMutability": "view",
      "type": "function"
    },
    {
      "inputs": [
        {
          "internalType": "uint256",
          "name": "",
          "type": "uint256"
        }
      ],
      "name": "_swaps",
      "outputs": [
        {
          "internalType": "address",
          "name": "NFTContractAddress",
          "type": "address"
        },
        {
          "internalType": "address",
          "name": "initiator",
          "type": "address"
        },
        {
          "internalType": "uint256",
          "name": "initiatorNftId",
          "type": "uint256"
        },
        {
          "internalType": "address",
          "name": "secondUser",
          "type": "address"
        },
        {
          "internalType": "uint256",
          "name": "secondUserNftId",
          "type": "uint256"
        },
        {
          "internalType": "bool",
          "name": "status",
          "type": "bool"
        }
      ],
      "stateMutability": "view",
      "type": "function"
    },
    {
      "inputs": [
        {
          "internalType": "uint256",
          "name": "",
          "type": "uint256"
        }
      ],
      "name": "_tokenMeta",
      "outputs": [
        {
          "internalType": "uint256",
          "name": "saleId",
          "type": "uint256"
        },
        {
          "internalType": "address",
          "name": "tokenContractAddress",
          "type": "address"
        },
        {
          "internalType": "uint256",
          "name": "tokenId",
          "type": "uint256"
        },
        {
          "internalType": "uint256",
          "name": "price",
          "type": "uint256"
        },
        {
          "internalType": "bool",
          "name": "directSale",
          "type": "bool"
        },
        {
          "internalType": "bool",
          "name": "bidSale",
          "type": "bool"
        },
        {
          "internalType": "bool",
          "name": "status",
          "type": "bool"
        },
        {
          "internalType": "uint256",
          "name": "bidStartTime",
          "type": "uint256"
        },
        {
          "internalType": "uint256",
          "name": "bidEndTime",
          "type": "uint256"
        },
        {
          "internalType": "address",
          "name": "currentOwner",
          "type": "address"
        }
      ],
      "stateMutability": "view",
      "type": "function"
    },
    {
      "inputs": [
        {
          "internalType": "address",
          "name": "",
          "type": "address"
        },
        {
          "internalType": "address",
          "name": "",
          "type": "address"
        },
        {
          "internalType": "uint256",
          "name": "",
          "type": "uint256"
        },
        {
          "internalType": "bytes",
          "name": "",
          "type": "bytes"
        }
      ],
      "name": "onERC721Received",
      "outputs": [
        {
          "internalType": "bytes4",
          "name": "",
          "type": "bytes4"
        }
      ],
      "stateMutability": "nonpayable",
      "type": "function"
    },
    {
      "inputs": [
        {
          "internalType": "address",
          "name": "_contractAddress",
          "type": "address"
        },
        {
          "internalType": "uint256",
          "name": "_tokenId",
          "type": "uint256"
        },
        {
          "internalType": "uint256",
          "name": "_price",
          "type": "uint256"
        }
      ],
      "name": "sellNFT",
      "outputs": [],
      "stateMutability": "nonpayable",
      "type": "function"
    },
    {
      "inputs": [
        {
          "internalType": "uint256",
          "name": "_saleId",
          "type": "uint256"
        },
        {
          "internalType": "uint256",
          "name": "_price",
          "type": "uint256"
        }
      ],
      "name": "editSalePrice",
      "outputs": [],
      "stateMutability": "nonpayable",
      "type": "function"
    },
    {
      "inputs": [
        {
          "internalType": "address",
          "name": "_contractAddress",
          "type": "address"
        },
        {
          "internalType": "uint256",
          "name": "_tokenId",
          "type": "uint256"
        }
      ],
      "name": "retrieveRoyalty",
      "outputs": [
        {
          "components": [
            {
              "internalType": "address payable",
              "name": "account",
              "type": "address"
            },
            {
              "internalType": "uint96",
              "name": "value",
              "type": "uint96"
            }
          ],
          "internalType": "struct LibShare.Share[]",
          "name": "",
          "type": "tuple[]"
        }
      ],
      "stateMutability": "view",
      "type": "function"
    },
    {
      "inputs": [
        {
          "internalType": "address",
          "name": "_collectionFactoryAddress",
          "type": "address"
        },
        {
          "internalType": "uint256",
          "name": "_collectionId",
          "type": "uint256"
        }
      ],
      "name": "getCollectionRoyalty",
      "outputs": [
        {
          "components": [
            {
              "internalType": "address payable",
              "name": "account",
              "type": "address"
            },
            {
              "internalType": "uint96",
              "name": "value",
              "type": "uint96"
            }
          ],
          "internalType": "struct LibShare.Share[]",
          "name": "",
          "type": "tuple[]"
        }
      ],
      "stateMutability": "view",
      "type": "function"
    },
    {
      "inputs": [
        {
          "internalType": "address",
          "name": "_collectionAddress",
          "type": "address"
        },
        {
          "internalType": "uint256",
          "name": "_tokenId",
          "type": "uint256"
        }
      ],
      "name": "getCollectionValidatorRoyalty",
      "outputs": [
        {
          "components": [
            {
              "internalType": "address payable",
              "name": "account",
              "type": "address"
            },
            {
              "internalType": "uint96",
              "name": "value",
              "type": "uint96"
            }
          ],
          "internalType": "struct LibShare.Share[]",
          "name": "",
          "type": "tuple[]"
        }
      ],
      "stateMutability": "view",
      "type": "function"
    },
    {
      "inputs": [
        {
          "internalType": "address",
          "name": "_contractAddress",
          "type": "address"
        },
        {
          "internalType": "uint256",
          "name": "_tokenId",
          "type": "uint256"
        }
      ],
      "name": "retrieveValidatorRoyalty",
      "outputs": [
        {
          "components": [
            {
              "internalType": "address payable",
              "name": "account",
              "type": "address"
            },
            {
              "internalType": "uint96",
              "name": "value",
              "type": "uint96"
            }
          ],
          "internalType": "struct LibShare.Share[]",
          "name": "",
          "type": "tuple[]"
        }
      ],
      "stateMutability": "view",
      "type": "function"
    },
    {
      "inputs": [
        {
          "internalType": "uint256",
          "name": "_saleId",
          "type": "uint256"
        },
        {
          "internalType": "bool",
          "name": "_fromCollection",
          "type": "bool"
        }
      ],
      "name": "BuyNFT",
      "outputs": [],
      "stateMutability": "payable",
      "type": "function"
    },
    {
      "inputs": [
        {
          "internalType": "uint256",
          "name": "_saleId",
          "type": "uint256"
        }
      ],
      "name": "cancelSale",
      "outputs": [],
      "stateMutability": "nonpayable",
      "type": "function"
    },
    {
      "inputs": [
        {
          "internalType": "address",
          "name": "_contractAddress",
          "type": "address"
        },
        {
          "internalType": "uint256",
          "name": "_tokenId",
          "type": "uint256"
        },
        {
          "internalType": "uint256",
          "name": "_price",
          "type": "uint256"
        },
        {
          "internalType": "uint256",
          "name": "_bidTime",
          "type": "uint256"
        }
      ],
      "name": "SellNFT_byBid",
      "outputs": [],
      "stateMutability": "nonpayable",
      "type": "function"
    },
    {
      "inputs": [
        {
          "internalType": "uint256",
          "name": "_saleId",
          "type": "uint256"
        }
      ],
      "name": "Bid",
      "outputs": [],
      "stateMutability": "payable",
      "type": "function"
    },
    {
      "inputs": [
        {
          "internalType": "uint256",
          "name": "_saleId",
          "type": "uint256"
        },
        {
          "internalType": "uint256",
          "name": "_bidOrderID",
          "type": "uint256"
        },
        {
          "internalType": "bool",
          "name": "_fromCollection",
          "type": "bool"
        }
      ],
      "name": "executeBidOrder",
      "outputs": [],
      "stateMutability": "nonpayable",
      "type": "function"
    },
    {
      "inputs": [
        {
          "internalType": "uint256",
          "name": "_saleId",
          "type": "uint256"
        },
        {
          "internalType": "uint256",
          "name": "_bidId",
          "type": "uint256"
        }
      ],
      "name": "withdrawBidMoney",
      "outputs": [],
      "stateMutability": "nonpayable",
      "type": "function"
    },
    {
      "inputs": [
        {
          "internalType": "address",
          "name": "contractAddress",
          "type": "address"
        },
        {
          "internalType": "uint256",
          "name": "token1",
          "type": "uint256"
        },
        {
          "internalType": "uint256",
          "name": "token2",
          "type": "uint256"
        },
        {
          "internalType": "address",
          "name": "token2Owner",
          "type": "address"
        }
      ],
      "name": "makeSwapRequest",
      "outputs": [
        {
          "internalType": "uint256",
          "name": "",
          "type": "uint256"
        }
      ],
      "stateMutability": "nonpayable",
      "type": "function"
    },
    {
      "inputs": [
        {
          "internalType": "uint256",
          "name": "_swapId",
          "type": "uint256"
        }
      ],
      "name": "cancelSwap",
      "outputs": [],
      "stateMutability": "nonpayable",
      "type": "function"
    },
    {
      "inputs": [
        {
          "internalType": "uint256",
          "name": "swapId",
          "type": "uint256"
        },
        {
          "internalType": "address",
          "name": "NFTcontractAddress",
          "type": "address"
        }
      ],
      "name": "acceptSwapRequest",
      "outputs": [],
      "stateMutability": "nonpayable",
      "type": "function"
    }
  ],
  "bytecode": "0x60806040523480156200001157600080fd5b506040516200526b3803806200526b833981810160405281019062000037919062000164565b6001600081905550600073ffffffffffffffffffffffffffffffffffffffff168173ffffffffffffffffffffffffffffffffffffffff161415620000b2576040517f08c379a0000000000000000000000000000000000000000000000000000000008152600401620000a990620001f7565b60405180910390fd5b80600360006101000a81548173ffffffffffffffffffffffffffffffffffffffff021916908373ffffffffffffffffffffffffffffffffffffffff1602179055505062000219565b600080fd5b600073ffffffffffffffffffffffffffffffffffffffff82169050919050565b60006200012c82620000ff565b9050919050565b6200013e816200011f565b81146200014a57600080fd5b50565b6000815190506200015e8162000133565b92915050565b6000602082840312156200017d576200017c620000fa565b5b60006200018d848285016200014d565b91505092915050565b600082825260208201905092915050565b7f46656520616464726573732063616e6e6f74206265207a65726f000000000000600082015250565b6000620001df601a8362000196565b9150620001ec82620001a7565b602082019050919050565b600060208201905081810360008301526200021281620001d0565b9050919050565b61504280620002296000396000f3fe6080604052600436106101145760003560e01c80638e57ff16116100a0578063bfb9639d11610064578063bfb9639d146103d7578063c073b47214610400578063ca87ad3014610442578063f436682a1461047f578063f779a193146104a857610114565b80638e57ff16146102ac57806396faba9d146102f2578063a7f323da1461032f578063b6b4e10214610371578063bd94b005146103ae57610114565b806354d6a2b7116100e757806354d6a2b7146101e55780637069d7141461020e57806375746bcd146102375780637a183e841461025357806386dc814b1461026f57610114565b8063150b7a02146101195780632bc09e77146101565780632bd87c4f1461017f5780632fc05e53146101a8575b600080fd5b34801561012557600080fd5b50610140600480360381019061013b9190613b0b565b6104d1565b60405161014d9190613bc9565b60405180910390f35b34801561016257600080fd5b5061017d60048036038101906101789190613c1c565b6104e5565b005b34801561018b57600080fd5b506101a660048036038101906101a19190613c6f565b610e0d565b005b3480156101b457600080fd5b506101cf60048036038101906101ca9190613caf565b611169565b6040516101dc9190613d25565b60405180910390f35b3480156101f157600080fd5b5061020c60048036038101906102079190613d40565b6115ca565b005b34801561021a57600080fd5b5061023560048036038101906102309190613d6d565b61183b565b005b610251600480360381019061024c9190613dad565b611b8f565b005b61026d60048036038101906102689190613d40565b612399565b005b34801561027b57600080fd5b5061029660048036038101906102919190613ded565b612748565b6040516102a39190613f53565b60405180910390f35b3480156102b857600080fd5b506102d360048036038101906102ce9190613d40565b6127d1565b6040516102e99a99989796959493929190613f93565b60405180910390f35b3480156102fe57600080fd5b5061031960048036038101906103149190613ded565b61288c565b6040516103269190613f53565b60405180910390f35b34801561033b57600080fd5b5061035660048036038101906103519190613c6f565b612915565b6040516103689695949392919061402f565b60405180910390f35b34801561037d57600080fd5b5061039860048036038101906103939190613ded565b6129bb565b6040516103a59190613f53565b60405180910390f35b3480156103ba57600080fd5b506103d560048036038101906103d09190613d40565b612a44565b005b3480156103e357600080fd5b506103fe60048036038101906103f99190613c6f565b612cd1565b005b34801561040c57600080fd5b5061042760048036038101906104229190613d40565b612ed1565b60405161043996959493929190614090565b60405180910390f35b34801561044e57600080fd5b5061046960048036038101906104649190613ded565b612f7a565b6040516104769190613f53565b60405180910390f35b34801561048b57600080fd5b506104a660048036038101906104a191906140f1565b613003565b005b3480156104b457600080fd5b506104cf60048036038101906104ca9190614158565b613407565b005b600063150b7a0260e01b9050949350505050565b6104ed613801565b6000600560008581526020019081526020016000208381548110610514576105136141ab565b5b90600052602060002090600602016040518060c001604052908160008201548152602001600182015481526020016002820160009054906101000a900473ffffffffffffffffffffffffffffffffffffffff1673ffffffffffffffffffffffffffffffffffffffff1673ffffffffffffffffffffffffffffffffffffffff1681526020016003820160009054906101000a900473ffffffffffffffffffffffffffffffffffffffff1673ffffffffffffffffffffffffffffffffffffffff1673ffffffffffffffffffffffffffffffffffffffff168152602001600482015481526020016005820160009054906101000a900460ff16151515158152505090506004600085815260200190815260200160002060070160009054906101000a900473ffffffffffffffffffffffffffffffffffffffff1673ffffffffffffffffffffffffffffffffffffffff163373ffffffffffffffffffffffffffffffffffffffff161461068257600080fd5b8060a001511561069157600080fd5b6004600085815260200190815260200160002060040160029054906101000a900460ff166106be57600080fd5b606080831561077c5761071d6004600088815260200190815260200160002060010160009054906101000a900473ffffffffffffffffffffffffffffffffffffffff1660046000898152602001908152602001600020600201546129bb565b91506107756004600088815260200190815260200160002060010160009054906101000a900473ffffffffffffffffffffffffffffffffffffffff166004600089815260200190815260200160002060020154612748565b905061082d565b6107d26004600088815260200190815260200160002060010160009054906101000a900473ffffffffffffffffffffffffffffffffffffffff16600460008981526020019081526020016000206002015461288c565b915061082a6004600088815260200190815260200160002060010160009054906101000a900473ffffffffffffffffffffffffffffffffffffffff166004600089815260200190815260200160002060020154612f7a565b90505b60006004600088815260200190815260200160002060040160026101000a81548160ff0219169083151502179055508260800151600460008881526020019081526020016000206003018190555060016005600088815260200190815260200160002086815481106108a2576108a16141ab565b5b906000526020600020906006020160050160006101000a81548160ff0219169083151502179055506004600087815260200190815260200160002060010160009054906101000a900473ffffffffffffffffffffffffffffffffffffffff1673ffffffffffffffffffffffffffffffffffffffff166342842e0e308560600151600460008b8152602001908152602001600020600201546040518463ffffffff1660e01b8152600401610957939291906141da565b600060405180830381600087803b15801561097157600080fd5b505af1158015610985573d6000803e3d6000fd5b505050506000836080015190506000606485608001516109a5919061426f565b905060005b8451811015610aed57600061271087608001518784815181106109d0576109cf6141ab565b5b6020026020010151602001516bffffffffffffffffffffffff166109f491906142a0565b6109fe919061426f565b90506000868381518110610a1557610a146141ab565b5b60200260200101516000015173ffffffffffffffffffffffffffffffffffffffff1682604051610a449061432b565b60006040518083038185875af1925050503d8060008114610a81576040519150601f19603f3d011682016040523d82523d6000602084013e610a86565b606091505b5050905080610aca576040517f08c379a0000000000000000000000000000000000000000000000000000000008152600401610ac19061439d565b60405180910390fd5b8185610ad691906143bd565b945050508080610ae5906143f1565b9150506109aa565b5060005b8351811015610c345760006127108760800151868481518110610b1757610b166141ab565b5b6020026020010151602001516bffffffffffffffffffffffff16610b3b91906142a0565b610b45919061426f565b90506000858381518110610b5c57610b5b6141ab565b5b60200260200101516000015173ffffffffffffffffffffffffffffffffffffffff1682604051610b8b9061432b565b60006040518083038185875af1925050503d8060008114610bc8576040519150601f19603f3d011682016040523d82523d6000602084013e610bcd565b606091505b5050905080610c11576040517f08c379a0000000000000000000000000000000000000000000000000000000008152600401610c089061439d565b60405180910390fd5b8185610c1d91906143bd565b945050508080610c2c906143f1565b915050610af1565b5060003373ffffffffffffffffffffffffffffffffffffffff168284610c5a91906143bd565b604051610c669061432b565b60006040518083038185875af1925050503d8060008114610ca3576040519150601f19603f3d011682016040523d82523d6000602084013e610ca8565b606091505b5050905080610cec576040517f08c379a0000000000000000000000000000000000000000000000000000000008152600401610ce390614486565b60405180910390fd5b6000600360009054906101000a900473ffffffffffffffffffffffffffffffffffffffff1673ffffffffffffffffffffffffffffffffffffffff1683604051610d349061432b565b60006040518083038185875af1925050503d8060008114610d71576040519150601f19603f3d011682016040523d82523d6000602084013e610d76565b606091505b5050905080610dba576040517f08c379a0000000000000000000000000000000000000000000000000000000008152600401610db1906144f2565b60405180910390fd5b7fe4aed1d8cb36f11a4a6ae6b1e7b718468a0f82e034de969816c5fd1b67025be28a8a8960800151604051610df193929190614512565b60405180910390a150505050505050610e08613851565b505050565b610e15613801565b6004600083815260200190815260200160002060070160009054906101000a900473ffffffffffffffffffffffffffffffffffffffff1673ffffffffffffffffffffffffffffffffffffffff163373ffffffffffffffffffffffffffffffffffffffff161415610e8457600080fd5b6000600560008481526020019081526020016000208281548110610eab57610eaa6141ab565b5b90600052602060002090600602016040518060c001604052908160008201548152602001600182015481526020016002820160009054906101000a900473ffffffffffffffffffffffffffffffffffffffff1673ffffffffffffffffffffffffffffffffffffffff1673ffffffffffffffffffffffffffffffffffffffff1681526020016003820160009054906101000a900473ffffffffffffffffffffffffffffffffffffffff1673ffffffffffffffffffffffffffffffffffffffff1673ffffffffffffffffffffffffffffffffffffffff168152602001600482015481526020016005820160009054906101000a900460ff1615151515815250509050806080015160046000858152602001908152602001600020600301541415610fd257600080fd5b3373ffffffffffffffffffffffffffffffffffffffff16816060015173ffffffffffffffffffffffffffffffffffffffff161461100e57600080fd5b8060a001511561101d57600080fd5b60003373ffffffffffffffffffffffffffffffffffffffff1682608001516040516110479061432b565b60006040518083038185875af1925050503d8060008114611084576040519150601f19603f3d011682016040523d82523d6000602084013e611089565b606091505b5050905080156110e75760016005600086815260200190815260200160002084815481106110ba576110b96141ab565b5b906000526020600020906006020160050160006101000a81548160ff021916908315150217905550611122565b6040517f08c379a000000000000000000000000000000000000000000000000000000000815260040161111990614595565b60405180910390fd5b7f6415d97b7a9df23899954c482911f3fc2cb8afff4b6b15e788859e1307de227a84846040516111539291906145b5565b60405180910390a15050611165613851565b5050565b600084848173ffffffffffffffffffffffffffffffffffffffff16636352211e826040518263ffffffff1660e01b81526004016111a69190613d25565b602060405180830381865afa1580156111c3573d6000803e3d6000fd5b505050506040513d601f19601f820116820180604052508101906111e791906145f3565b73ffffffffffffffffffffffffffffffffffffffff163373ffffffffffffffffffffffffffffffffffffffff1614611254576040517f08c379a000000000000000000000000000000000000000000000000000000000815260040161124b9061466c565b60405180910390fd5b61125c613801565b600073ffffffffffffffffffffffffffffffffffffffff168773ffffffffffffffffffffffffffffffffffffffff1614156112cc576040517f08c379a00000000000000000000000000000000000000000000000000000000081526004016112c3906146fe565b60405180910390fd5b3373ffffffffffffffffffffffffffffffffffffffff168473ffffffffffffffffffffffffffffffffffffffff16141561133b576040517f08c379a00000000000000000000000000000000000000000000000000000000081526004016113329061476a565b60405180910390fd5b6000611347600261385b565b90508773ffffffffffffffffffffffffffffffffffffffff166342842e0e33308a6040518463ffffffff1660e01b8152600401611386939291906141da565b600060405180830381600087803b1580156113a057600080fd5b505af11580156113b4573d6000803e3d6000fd5b5050505060006040518060c001604052808a73ffffffffffffffffffffffffffffffffffffffff1681526020013373ffffffffffffffffffffffffffffffffffffffff1681526020018981526020018773ffffffffffffffffffffffffffffffffffffffff168152602001888152602001600115158152509050806006600084815260200190815260200160002060008201518160000160006101000a81548173ffffffffffffffffffffffffffffffffffffffff021916908373ffffffffffffffffffffffffffffffffffffffff16021790555060208201518160010160006101000a81548173ffffffffffffffffffffffffffffffffffffffff021916908373ffffffffffffffffffffffffffffffffffffffff1602179055506040820151816002015560608201518160030160006101000a81548173ffffffffffffffffffffffffffffffffffffffff021916908373ffffffffffffffffffffffffffffffffffffffff1602179055506080820151816004015560a08201518160050160006101000a81548160ff0219169083151502179055509050506115586002613869565b818673ffffffffffffffffffffffffffffffffffffffff163373ffffffffffffffffffffffffffffffffffffffff167fffd321d9ac6e5d361fa3cfa4ee752259774415efa4ac8d50669dce82c183b8eb60405160405180910390a481945050506115c0613851565b5050949350505050565b6115d2613801565b6006600082815260200190815260200160002060010160009054906101000a900473ffffffffffffffffffffffffffffffffffffffff1673ffffffffffffffffffffffffffffffffffffffff163373ffffffffffffffffffffffffffffffffffffffff1614611676576040517f08c379a000000000000000000000000000000000000000000000000000000000815260040161166d906147d6565b60405180910390fd5b6006600082815260200190815260200160002060050160009054906101000a900460ff166116d9576040517f08c379a00000000000000000000000000000000000000000000000000000000081526004016116d090614842565b60405180910390fd5b60006006600083815260200190815260200160002060050160006101000a81548160ff0219169083151502179055506006600082815260200190815260200160002060000160009054906101000a900473ffffffffffffffffffffffffffffffffffffffff1673ffffffffffffffffffffffffffffffffffffffff166342842e0e306006600085815260200190815260200160002060010160009054906101000a900473ffffffffffffffffffffffffffffffffffffffff1660066000868152602001908152602001600020600201546040518463ffffffff1660e01b81526004016117c7939291906141da565b600060405180830381600087803b1580156117e157600080fd5b505af11580156117f5573d6000803e3d6000fd5b505050507ff6b6b4f7a13f02512c1b3aa8dcc4a07d7775a6a4becbd439efcbd37c5408e67f816040516118289190613d25565b60405180910390a1611838613851565b50565b611843613801565b6000600660008481526020019081526020016000206040518060c00160405290816000820160009054906101000a900473ffffffffffffffffffffffffffffffffffffffff1673ffffffffffffffffffffffffffffffffffffffff1673ffffffffffffffffffffffffffffffffffffffff1681526020016001820160009054906101000a900473ffffffffffffffffffffffffffffffffffffffff1673ffffffffffffffffffffffffffffffffffffffff1673ffffffffffffffffffffffffffffffffffffffff168152602001600282015481526020016003820160009054906101000a900473ffffffffffffffffffffffffffffffffffffffff1673ffffffffffffffffffffffffffffffffffffffff1673ffffffffffffffffffffffffffffffffffffffff168152602001600482015481526020016005820160009054906101000a900460ff16151515158152505090508060a001516119da576040517f08c379a00000000000000000000000000000000000000000000000000000000081526004016119d1906148ae565b60405180910390fd5b3373ffffffffffffffffffffffffffffffffffffffff16816060015173ffffffffffffffffffffffffffffffffffffffff1614611a4c576040517f08c379a0000000000000000000000000000000000000000000000000000000008152600401611a439061491a565b60405180910390fd5b806000015173ffffffffffffffffffffffffffffffffffffffff166342842e0e303384604001516040518463ffffffff1660e01b8152600401611a91939291906141da565b600060405180830381600087803b158015611aab57600080fd5b505af1158015611abf573d6000803e3d6000fd5b505050508173ffffffffffffffffffffffffffffffffffffffff166342842e0e33836020015184608001516040518463ffffffff1660e01b8152600401611b08939291906141da565b600060405180830381600087803b158015611b2257600080fd5b505af1158015611b36573d6000803e3d6000fd5b5050505060008160a00190151590811515815250507f7080e652b0056fb27597071d591828292afd96fd17bc428ff26dfcca4acc523083604051611b7a9190613d25565b60405180910390a150611b8b613851565b5050565b611b97613801565b60006004600084815260200190815260200160002060405180610140016040529081600082015481526020016001820160009054906101000a900473ffffffffffffffffffffffffffffffffffffffff1673ffffffffffffffffffffffffffffffffffffffff1673ffffffffffffffffffffffffffffffffffffffff16815260200160028201548152602001600382015481526020016004820160009054906101000a900460ff161515151581526020016004820160019054906101000a900460ff161515151581526020016004820160029054906101000a900460ff1615151515815260200160058201548152602001600682015481526020016007820160009054906101000a900473ffffffffffffffffffffffffffffffffffffffff1673ffffffffffffffffffffffffffffffffffffffff1673ffffffffffffffffffffffffffffffffffffffff168152505090506060808315611d1f57611d04836020015184604001516129bb565b9150611d1883602001518460400151612748565b9050611d48565b611d318360200151846040015161288c565b9150611d4583602001518460400151612f7a565b90505b8260c00151611d8c576040517f08c379a0000000000000000000000000000000000000000000000000000000008152600401611d8390614986565b60405180910390fd5b600073ffffffffffffffffffffffffffffffffffffffff163373ffffffffffffffffffffffffffffffffffffffff1614158015611dfa575082610120015173ffffffffffffffffffffffffffffffffffffffff163373ffffffffffffffffffffffffffffffffffffffff1614155b611e39576040517f08c379a0000000000000000000000000000000000000000000000000000000008152600401611e30906149f2565b60405180910390fd5b8260a0015115611e4857600080fd5b82606001513414611e8e576040517f08c379a0000000000000000000000000000000000000000000000000000000008152600401611e8590614a5e565b60405180910390fd5b611eaa600460008781526020019081526020016000203361387f565b600034905060003490506000606434611ec3919061426f565b905060005b855181101561200757600061271084888481518110611eea57611ee96141ab565b5b6020026020010151602001516bffffffffffffffffffffffff16611f0e91906142a0565b611f18919061426f565b90506000878381518110611f2f57611f2e6141ab565b5b60200260200101516000015173ffffffffffffffffffffffffffffffffffffffff1682604051611f5e9061432b565b60006040518083038185875af1925050503d8060008114611f9b576040519150601f19603f3d011682016040523d82523d6000602084013e611fa0565b606091505b5050905080611fe4576040517f08c379a0000000000000000000000000000000000000000000000000000000008152600401611fdb90614aca565b60405180910390fd5b8186611ff091906143bd565b955050508080611fff906143f1565b915050611ec8565b5060005b845181101561214a5760006127108487848151811061202d5761202c6141ab565b5b6020026020010151602001516bffffffffffffffffffffffff1661205191906142a0565b61205b919061426f565b90506000868381518110612072576120716141ab565b5b60200260200101516000015173ffffffffffffffffffffffffffffffffffffffff16826040516120a19061432b565b60006040518083038185875af1925050503d80600081146120de576040519150601f19603f3d011682016040523d82523d6000602084013e6120e3565b606091505b5050905080612127576040517f08c379a000000000000000000000000000000000000000000000000000000000815260040161211e90614aca565b60405180910390fd5b818661213391906143bd565b955050508080612142906143f1565b91505061200b565b50600086610120015173ffffffffffffffffffffffffffffffffffffffff16828561217591906143bd565b6040516121819061432b565b60006040518083038185875af1925050503d80600081146121be576040519150601f19603f3d011682016040523d82523d6000602084013e6121c3565b606091505b5050905080612207576040517f08c379a00000000000000000000000000000000000000000000000000000000081526004016121fe90614486565b60405180910390fd5b6000600360009054906101000a900473ffffffffffffffffffffffffffffffffffffffff1673ffffffffffffffffffffffffffffffffffffffff168360405161224f9061432b565b60006040518083038185875af1925050503d806000811461228c576040519150601f19603f3d011682016040523d82523d6000602084013e612291565b606091505b50509050806122d5576040517f08c379a00000000000000000000000000000000000000000000000000000000081526004016122cc906144f2565b60405180910390fd5b876020015173ffffffffffffffffffffffffffffffffffffffff166342842e0e30338b604001516040518463ffffffff1660e01b815260040161231a939291906141da565b600060405180830381600087803b15801561233457600080fd5b505af1158015612348573d6000803e3d6000fd5b505050507fedd9780c911d132891b0d6c68f69e6d9086a0ddc83a683a5e62b5aed36e93eb68a3360405161237d929190614aea565b60405180910390a15050505050505050612395613851565b5050565b3373ffffffffffffffffffffffffffffffffffffffff166004600083815260200190815260200160002060070160009054906101000a900473ffffffffffffffffffffffffffffffffffffffff1673ffffffffffffffffffffffffffffffffffffffff16141561240857600080fd5b6004600082815260200190815260200160002060040160029054906101000a900460ff1661243557600080fd5b6004600082815260200190815260200160002060040160019054906101000a900460ff1661246257600080fd5b600460008281526020019081526020016000206006015442111561248557600080fd5b346064600460008481526020019081526020016000206003015460056124ab91906142a0565b6124b5919061426f565b60046000848152602001908152602001600020600301546124d69190614b13565b1115612517576040517f08c379a000000000000000000000000000000000000000000000000000000000815260040161250e90614bdb565b60405180910390fd5b60006040518060c00160405280600560008581526020019081526020016000208054905081526020018381526020016004600085815260200190815260200160002060070160009054906101000a900473ffffffffffffffffffffffffffffffffffffffff1673ffffffffffffffffffffffffffffffffffffffff1681526020013373ffffffffffffffffffffffffffffffffffffffff16815260200134815260200160001515815250905060056000838152602001908152602001600020819080600181540180825580915050600190039060005260206000209060060201600090919091909150600082015181600001556020820151816001015560408201518160020160006101000a81548173ffffffffffffffffffffffffffffffffffffffff021916908373ffffffffffffffffffffffffffffffffffffffff16021790555060608201518160030160006101000a81548173ffffffffffffffffffffffffffffffffffffffff021916908373ffffffffffffffffffffffffffffffffffffffff1602179055506080820151816004015560a08201518160050160006101000a81548160ff02191690831515021790555050503460046000848152602001908152602001600020600301819055507f0c876c013f62a226c9275bd56cdf74069fcda2f8075a64fe93fb3ce0e0119b9d826001600560008681526020019081526020016000208054905061272e91906143bd565b60405161273c9291906145b5565b60405180910390a15050565b60608273ffffffffffffffffffffffffffffffffffffffff166302b42141836040518263ffffffff1660e01b81526004016127839190613d25565b600060405180830381865afa1580156127a0573d6000803e3d6000fd5b505050506040513d6000823e3d601f19601f820116820180604052508101906127c99190614d70565b905092915050565b60046020528060005260406000206000915090508060000154908060010160009054906101000a900473ffffffffffffffffffffffffffffffffffffffff16908060020154908060030154908060040160009054906101000a900460ff16908060040160019054906101000a900460ff16908060040160029054906101000a900460ff16908060050154908060060154908060070160009054906101000a900473ffffffffffffffffffffffffffffffffffffffff1690508a565b60608273ffffffffffffffffffffffffffffffffffffffff1663bb3bafd6836040518263ffffffff1660e01b81526004016128c79190613d25565b600060405180830381865afa1580156128e4573d6000803e3d6000fd5b505050506040513d6000823e3d601f19601f8201168201806040525081019061290d9190614d70565b905092915050565b6005602052816000526040600020818154811061293157600080fd5b9060005260206000209060060201600091509150508060000154908060010154908060020160009054906101000a900473ffffffffffffffffffffffffffffffffffffffff16908060030160009054906101000a900473ffffffffffffffffffffffffffffffffffffffff16908060040154908060050160009054906101000a900460ff16905086565b60608273ffffffffffffffffffffffffffffffffffffffff1663e1e9fce8836040518263ffffffff1660e01b81526004016129f69190613d25565b600060405180830381865afa158015612a13573d6000803e3d6000fd5b505050506040513d6000823e3d601f19601f82011682018060405250810190612a3c9190614d70565b905092915050565b612a4c613801565b6004600082815260200190815260200160002060070160009054906101000a900473ffffffffffffffffffffffffffffffffffffffff1673ffffffffffffffffffffffffffffffffffffffff163373ffffffffffffffffffffffffffffffffffffffff1614612af0576040517f08c379a0000000000000000000000000000000000000000000000000000000008152600401612ae7906147d6565b60405180910390fd5b6004600082815260200190815260200160002060040160029054906101000a900460ff16612b53576040517f08c379a0000000000000000000000000000000000000000000000000000000008152600401612b4a90614e05565b60405180910390fd5b6000600460008381526020019081526020016000206003018190555060006004600083815260200190815260200160002060040160026101000a81548160ff0219169083151502179055506004600082815260200190815260200160002060010160009054906101000a900473ffffffffffffffffffffffffffffffffffffffff1673ffffffffffffffffffffffffffffffffffffffff166342842e0e306004600085815260200190815260200160002060070160009054906101000a900473ffffffffffffffffffffffffffffffffffffffff1660046000868152602001908152602001600020600201546040518463ffffffff1660e01b8152600401612c5d939291906141da565b600060405180830381600087803b158015612c7757600080fd5b505af1158015612c8b573d6000803e3d6000fd5b505050507f2c56893f6f6026d19bd17b7d05c9f15c522de1ae2b1c3a825f91a73c799321f281604051612cbe9190613d25565b60405180910390a1612cce613851565b50565b6004600083815260200190815260200160002060070160009054906101000a900473ffffffffffffffffffffffffffffffffffffffff1673ffffffffffffffffffffffffffffffffffffffff163373ffffffffffffffffffffffffffffffffffffffff1614612d75576040517f08c379a0000000000000000000000000000000000000000000000000000000008152600401612d6c90614e71565b60405180910390fd5b6004600083815260200190815260200160002060040160029054906101000a900460ff16612dd8576040517f08c379a0000000000000000000000000000000000000000000000000000000008152600401612dcf90614edd565b60405180910390fd5b6004600083815260200190815260200160002060040160019054906101000a900460ff1615612e5b576000600560008481526020019081526020016000208054905014612e5a576040517f08c379a0000000000000000000000000000000000000000000000000000000008152600401612e5190614f49565b60405180910390fd5b5b60046000838152602001908152602001600020600301548114612ecd578060046000848152602001908152602001600020600301819055507f802c9b6cc49364e6496fca815b9f06991a5eac587609a151c6de2beb5c3866b58282604051612ec49291906145b5565b60405180910390a15b5050565b60066020528060005260406000206000915090508060000160009054906101000a900473ffffffffffffffffffffffffffffffffffffffff16908060010160009054906101000a900473ffffffffffffffffffffffffffffffffffffffff16908060020154908060030160009054906101000a900473ffffffffffffffffffffffffffffffffffffffff16908060040154908060050160009054906101000a900460ff16905086565b60608273ffffffffffffffffffffffffffffffffffffffff166302b42141836040518263ffffffff1660e01b8152600401612fb59190613d25565b600060405180830381865afa158015612fd2573d6000803e3d6000fd5b505050506040513d6000823e3d601f19601f82011682018060405250810190612ffb9190614d70565b905092915050565b83838173ffffffffffffffffffffffffffffffffffffffff16636352211e826040518263ffffffff1660e01b815260040161303e9190613d25565b602060405180830381865afa15801561305b573d6000803e3d6000fd5b505050506040513d601f19601f8201168201806040525081019061307f91906145f3565b73ffffffffffffffffffffffffffffffffffffffff163373ffffffffffffffffffffffffffffffffffffffff16146130ec576040517f08c379a00000000000000000000000000000000000000000000000000000000081526004016130e39061466c565b60405180910390fd5b6130f4613801565b600073ffffffffffffffffffffffffffffffffffffffff168673ffffffffffffffffffffffffffffffffffffffff161415613164576040517f08c379a000000000000000000000000000000000000000000000000000000000815260040161315b906146fe565b60405180910390fd5b61316e6001613869565b8573ffffffffffffffffffffffffffffffffffffffff166342842e0e3330886040518463ffffffff1660e01b81526004016131ab939291906141da565b600060405180830381600087803b1580156131c557600080fd5b505af11580156131d9573d6000803e3d6000fd5b5050505060006040518061014001604052806131f5600161385b565b81526020018873ffffffffffffffffffffffffffffffffffffffff168152602001878152602001868152602001600015158152602001600115158152602001600115158152602001428152602001854261324f9190614b13565b81526020013373ffffffffffffffffffffffffffffffffffffffff168152509050806004600061327f600161385b565b81526020019081526020016000206000820151816000015560208201518160010160006101000a81548173ffffffffffffffffffffffffffffffffffffffff021916908373ffffffffffffffffffffffffffffffffffffffff160217905550604082015181600201556060820151816003015560808201518160040160006101000a81548160ff02191690831515021790555060a08201518160040160016101000a81548160ff02191690831515021790555060c08201518160040160026101000a81548160ff02191690831515021790555060e0820151816005015561010082015181600601556101208201518160070160006101000a81548173ffffffffffffffffffffffffffffffffffffffff021916908373ffffffffffffffffffffffffffffffffffffffff1602179055509050507fa29262303591d48ce94646a46b652916ce782073349bb5dc261ac4c5237d939786886133df600161385b565b6040516133ee93929190614f69565b60405180910390a1506133ff613851565b505050505050565b82828173ffffffffffffffffffffffffffffffffffffffff16636352211e826040518263ffffffff1660e01b81526004016134429190613d25565b602060405180830381865afa15801561345f573d6000803e3d6000fd5b505050506040513d601f19601f8201168201806040525081019061348391906145f3565b73ffffffffffffffffffffffffffffffffffffffff163373ffffffffffffffffffffffffffffffffffffffff16146134f0576040517f08c379a00000000000000000000000000000000000000000000000000000000081526004016134e79061466c565b60405180910390fd5b6134f8613801565b6135026001613869565b600073ffffffffffffffffffffffffffffffffffffffff168573ffffffffffffffffffffffffffffffffffffffff161415613572576040517f08c379a0000000000000000000000000000000000000000000000000000000008152600401613569906146fe565b60405180910390fd5b8473ffffffffffffffffffffffffffffffffffffffff166342842e0e3330876040518463ffffffff1660e01b81526004016135af939291906141da565b600060405180830381600087803b1580156135c957600080fd5b505af11580156135dd573d6000803e3d6000fd5b5050505060006040518061014001604052806135f9600161385b565b81526020018773ffffffffffffffffffffffffffffffffffffffff16815260200186815260200185815260200160011515815260200160001515815260200160011515815260200160008152602001600081526020013373ffffffffffffffffffffffffffffffffffffffff168152509050806004600061367a600161385b565b81526020019081526020016000206000820151816000015560208201518160010160006101000a81548173ffffffffffffffffffffffffffffffffffffffff021916908373ffffffffffffffffffffffffffffffffffffffff160217905550604082015181600201556060820151816003015560808201518160040160006101000a81548160ff02191690831515021790555060a08201518160040160016101000a81548160ff02191690831515021790555060c08201518160040160026101000a81548160ff02191690831515021790555060e0820151816005015561010082015181600601556101208201518160070160006101000a81548173ffffffffffffffffffffffffffffffffffffffff021916908373ffffffffffffffffffffffffffffffffffffffff1602179055509050507fa29262303591d48ce94646a46b652916ce782073349bb5dc261ac4c5237d939785876137da600161385b565b6040516137e993929190614f69565b60405180910390a1506137fa613851565b5050505050565b60026000541415613847576040517f08c379a000000000000000000000000000000000000000000000000000000000815260040161383e90614fec565b60405180910390fd5b6002600081905550565b6001600081905550565b600081600001549050919050565b6001816000016000828254019250508190555050565b808260070160006101000a81548173ffffffffffffffffffffffffffffffffffffffff021916908373ffffffffffffffffffffffffffffffffffffffff16021790555060008260040160026101000a81548160ff02191690831515021790555060008260040160006101000a81548160ff02191690831515021790555060008260040160016101000a81548160ff0219169083151502179055505050565b6000604051905090565b600080fd5b600080fd5b600073ffffffffffffffffffffffffffffffffffffffff82169050919050565b600061395c82613931565b9050919050565b61396c81613951565b811461397757600080fd5b50565b60008135905061398981613963565b92915050565b6000819050919050565b6139a28161398f565b81146139ad57600080fd5b50565b6000813590506139bf81613999565b92915050565b600080fd5b600080fd5b6000601f19601f8301169050919050565b7f4e487b7100000000000000000000000000000000000000000000000000000000600052604160045260246000fd5b613a18826139cf565b810181811067ffffffffffffffff82111715613a3757613a366139e0565b5b80604052505050565b6000613a4a61391d565b9050613a568282613a0f565b919050565b600067ffffffffffffffff821115613a7657613a756139e0565b5b613a7f826139cf565b9050602081019050919050565b82818337600083830152505050565b6000613aae613aa984613a5b565b613a40565b905082815260208101848484011115613aca57613ac96139ca565b5b613ad5848285613a8c565b509392505050565b600082601f830112613af257613af16139c5565b5b8135613b02848260208601613a9b565b91505092915050565b60008060008060808587031215613b2557613b24613927565b5b6000613b338782880161397a565b9450506020613b448782880161397a565b9350506040613b55878288016139b0565b925050606085013567ffffffffffffffff811115613b7657613b7561392c565b5b613b8287828801613add565b91505092959194509250565b60007fffffffff0000000000000000000000000000000000000000000000000000000082169050919050565b613bc381613b8e565b82525050565b6000602082019050613bde6000830184613bba565b92915050565b60008115159050919050565b613bf981613be4565b8114613c0457600080fd5b50565b600081359050613c1681613bf0565b92915050565b600080600060608486031215613c3557613c34613927565b5b6000613c43868287016139b0565b9350506020613c54868287016139b0565b9250506040613c6586828701613c07565b9150509250925092565b60008060408385031215613c8657613c85613927565b5b6000613c94858286016139b0565b9250506020613ca5858286016139b0565b9150509250929050565b60008060008060808587031215613cc957613cc8613927565b5b6000613cd78782880161397a565b9450506020613ce8878288016139b0565b9350506040613cf9878288016139b0565b9250506060613d0a8782880161397a565b91505092959194509250565b613d1f8161398f565b82525050565b6000602082019050613d3a6000830184613d16565b92915050565b600060208284031215613d5657613d55613927565b5b6000613d64848285016139b0565b91505092915050565b60008060408385031215613d8457613d83613927565b5b6000613d92858286016139b0565b9250506020613da38582860161397a565b9150509250929050565b60008060408385031215613dc457613dc3613927565b5b6000613dd2858286016139b0565b9250506020613de385828601613c07565b9150509250929050565b60008060408385031215613e0457613e03613927565b5b6000613e128582860161397a565b9250506020613e23858286016139b0565b9150509250929050565b600081519050919050565b600082825260208201905092915050565b6000819050602082019050919050565b6000613e6482613931565b9050919050565b613e7481613e59565b82525050565b60006bffffffffffffffffffffffff82169050919050565b613e9b81613e7a565b82525050565b604082016000820151613eb76000850182613e6b565b506020820151613eca6020850182613e92565b50505050565b6000613edc8383613ea1565b60408301905092915050565b6000602082019050919050565b6000613f0082613e2d565b613f0a8185613e38565b9350613f1583613e49565b8060005b83811015613f46578151613f2d8882613ed0565b9750613f3883613ee8565b925050600181019050613f19565b5085935050505092915050565b60006020820190508181036000830152613f6d8184613ef5565b905092915050565b613f7e81613951565b82525050565b613f8d81613be4565b82525050565b600061014082019050613fa9600083018d613d16565b613fb6602083018c613f75565b613fc3604083018b613d16565b613fd0606083018a613d16565b613fdd6080830189613f84565b613fea60a0830188613f84565b613ff760c0830187613f84565b61400460e0830186613d16565b614012610100830185613d16565b614020610120830184613f75565b9b9a5050505050505050505050565b600060c0820190506140446000830189613d16565b6140516020830188613d16565b61405e6040830187613f75565b61406b6060830186613f75565b6140786080830185613d16565b61408560a0830184613f84565b979650505050505050565b600060c0820190506140a56000830189613f75565b6140b26020830188613f75565b6140bf6040830187613d16565b6140cc6060830186613f75565b6140d96080830185613d16565b6140e660a0830184613f84565b979650505050505050565b6000806000806080858703121561410b5761410a613927565b5b60006141198782880161397a565b945050602061412a878288016139b0565b935050604061413b878288016139b0565b925050606061414c878288016139b0565b91505092959194509250565b60008060006060848603121561417157614170613927565b5b600061417f8682870161397a565b9350506020614190868287016139b0565b92505060406141a1868287016139b0565b9150509250925092565b7f4e487b7100000000000000000000000000000000000000000000000000000000600052603260045260246000fd5b60006060820190506141ef6000830186613f75565b6141fc6020830185613f75565b6142096040830184613d16565b949350505050565b7f4e487b7100000000000000000000000000000000000000000000000000000000600052601260045260246000fd5b7f4e487b7100000000000000000000000000000000000000000000000000000000600052601160045260246000fd5b600061427a8261398f565b91506142858361398f565b92508261429557614294614211565b5b828204905092915050565b60006142ab8261398f565b91506142b68361398f565b9250817fffffffffffffffffffffffffffffffffffffffffffffffffffffffffffffffff04831182151516156142ef576142ee614240565b5b828202905092915050565b600081905092915050565b50565b60006143156000836142fa565b915061432082614305565b600082019050919050565b600061433682614308565b9150819050919050565b600082825260208201905092915050565b7f526f79616c7479207472616e73666572206661696c6564000000000000000000600082015250565b6000614387601783614340565b915061439282614351565b602082019050919050565b600060208201905081810360008301526143b68161437a565b9050919050565b60006143c88261398f565b91506143d38361398f565b9250828210156143e6576143e5614240565b5b828203905092915050565b60006143fc8261398f565b91507fffffffffffffffffffffffffffffffffffffffffffffffffffffffffffffffff82141561442f5761442e614240565b5b600182019050919050565b7f5472616e73666572206661696c65640000000000000000000000000000000000600082015250565b6000614470600f83614340565b915061447b8261443a565b602082019050919050565b6000602082019050818103600083015261449f81614463565b9050919050565b7f466565205472616e73666572206661696c656400000000000000000000000000600082015250565b60006144dc601383614340565b91506144e7826144a6565b602082019050919050565b6000602082019050818103600083015261450b816144cf565b9050919050565b60006060820190506145276000830186613d16565b6145346020830185613d16565b6145416040830184613d16565b949350505050565b7f4e6f204d6f6e6579206c65667421000000000000000000000000000000000000600082015250565b600061457f600e83614340565b915061458a82614549565b602082019050919050565b600060208201905081810360008301526145ae81614572565b9050919050565b60006040820190506145ca6000830185613d16565b6145d76020830184613d16565b9392505050565b6000815190506145ed81613963565b92915050565b60006020828403121561460957614608613927565b5b6000614617848285016145de565b91505092915050565b7f4f6e6c7920746f6b656e206f776e65722063616e206578656375746500000000600082015250565b6000614656601c83614340565b915061466182614620565b602082019050919050565b6000602082019050818103600083015261468581614649565b9050919050565b7f796f752063616e277420646f20746869732077697468207a65726f206164647260008201527f6573730000000000000000000000000000000000000000000000000000000000602082015250565b60006146e8602383614340565b91506146f38261468c565b604082019050919050565b60006020820190508181036000830152614717816146db565b9050919050565b7f43616e6e6f742053776170204265747765656e20596f757220546f6b656e7300600082015250565b6000614754601f83614340565b915061475f8261471e565b602082019050919050565b6000602082019050818103600083015261478381614747565b9050919050565b7f4f6e6c79206f776e65722063616e2063616e63656c2073616c65000000000000600082015250565b60006147c0601a83614340565b91506147cb8261478a565b602082019050919050565b600060208201905081810360008301526147ef816147b3565b9050919050565b7f546f6b656e206e6f74206f6e2073776170000000000000000000000000000000600082015250565b600061482c601183614340565b9150614837826147f6565b602082019050919050565b6000602082019050818103600083015261485b8161481f565b9050919050565b7f746f6b656e206d757374206265206f6e20737761700000000000000000000000600082015250565b6000614898601583614340565b91506148a382614862565b602082019050919050565b600060208201905081810360008301526148c78161488b565b9050919050565b7f4f6e6c79206f776e65722063616e206163636570742073776170000000000000600082015250565b6000614904601a83614340565b915061490f826148ce565b602082019050919050565b60006020820190508181036000830152614933816148f7565b9050919050565b7f746f6b656e206d757374206265206f6e2073616c650000000000000000000000600082015250565b6000614970601583614340565b915061497b8261493a565b602082019050919050565b6000602082019050818103600083015261499f81614963565b9050919050565b7f696e76616c696420616464726573730000000000000000000000000000000000600082015250565b60006149dc600f83614340565b91506149e7826149a6565b602082019050919050565b60006020820190508181036000830152614a0b816149cf565b9050919050565b7f76616c7565206c657373207468616e2070726963650000000000000000000000600082015250565b6000614a48601583614340565b9150614a5382614a12565b602082019050919050565b60006020820190508181036000830152614a7781614a3b565b9050919050565b7f526f79616c7479205472616e73666572206661696c6564000000000000000000600082015250565b6000614ab4601783614340565b9150614abf82614a7e565b602082019050919050565b60006020820190508181036000830152614ae381614aa7565b9050919050565b6000604082019050614aff6000830185613d16565b614b0c6020830184613f75565b9392505050565b6000614b1e8261398f565b9150614b298361398f565b9250827fffffffffffffffffffffffffffffffffffffffffffffffffffffffffffffffff03821115614b5e57614b5d614240565b5b828201905092915050565b7f4269642073686f756c64206265206d6f7265207468616e203525206f6620637560008201527f7272656e74206269640000000000000000000000000000000000000000000000602082015250565b6000614bc5602983614340565b9150614bd082614b69565b604082019050919050565b60006020820190508181036000830152614bf481614bb8565b9050919050565b600067ffffffffffffffff821115614c1657614c156139e0565b5b602082029050602081019050919050565b600080fd5b600080fd5b614c3a81613e59565b8114614c4557600080fd5b50565b600081519050614c5781614c31565b92915050565b614c6681613e7a565b8114614c7157600080fd5b50565b600081519050614c8381614c5d565b92915050565b600060408284031215614c9f57614c9e614c2c565b5b614ca96040613a40565b90506000614cb984828501614c48565b6000830152506020614ccd84828501614c74565b60208301525092915050565b6000614cec614ce784614bfb565b613a40565b90508083825260208201905060408402830185811115614d0f57614d0e614c27565b5b835b81811015614d385780614d248882614c89565b845260208401935050604081019050614d11565b5050509392505050565b600082601f830112614d5757614d566139c5565b5b8151614d67848260208601614cd9565b91505092915050565b600060208284031215614d8657614d85613927565b5b600082015167ffffffffffffffff811115614da457614da361392c565b5b614db084828501614d42565b91505092915050565b7f546f6b656e206e6f74206f6e2073616c65000000000000000000000000000000600082015250565b6000614def601183614340565b9150614dfa82614db9565b602082019050919050565b60006020820190508181036000830152614e1e81614de2565b9050919050565b7f596f7520617265206e6f7420746865206f776e65720000000000000000000000600082015250565b6000614e5b601583614340565b9150614e6682614e25565b602082019050919050565b60006020820190508181036000830152614e8a81614e4e565b9050919050565b7f596f752063616e27742065646974000000000000000000000000000000000000600082015250565b6000614ec7600e83614340565b9150614ed282614e91565b602082019050919050565b60006020820190508181036000830152614ef681614eba565b9050919050565b7f4269642068617320737461727465640000000000000000000000000000000000600082015250565b6000614f33600f83614340565b9150614f3e82614efd565b602082019050919050565b60006020820190508181036000830152614f6281614f26565b9050919050565b6000606082019050614f7e6000830186613d16565b614f8b6020830185613f75565b614f986040830184613d16565b949350505050565b7f5265656e7472616e637947756172643a207265656e7472616e742063616c6c00600082015250565b6000614fd6601f83614340565b9150614fe182614fa0565b602082019050919050565b6000602082019050818103600083015261500581614fc9565b905091905056fea2646970667358221220b283d8fa156d358365092784e0c8f5f137730c3d77dcd5097395f02ec7be75e064736f6c634300080b0033",
  "immutableReferences": {},
  "source": "// SPDX-License-Identifier: MIT\npragma solidity >=0.4.22 <0.9.0;\n\nimport \"@openzeppelin/contracts/token/ERC721/utils/ERC721Holder.sol\";\nimport \"@openzeppelin/contracts/token/ERC721/ERC721.sol\";\nimport \"@openzeppelin/contracts/access/Ownable.sol\";\nimport \"@openzeppelin/contracts/security/ReentrancyGuard.sol\";\nimport \"@openzeppelin/contracts/utils/Counters.sol\";\nimport \"./piNFT.sol\";\nimport \"./CollectionFactory.sol\";\nimport \"./CollectionMethods.sol\";\nimport \"./utils/LibShare.sol\";\n\ncontract piMarket is ERC721Holder, ReentrancyGuard {\n    using Counters for Counters.Counter;\n    Counters.Counter internal _saleIdCounter;\n    Counters.Counter private _swapIdCounter;\n\n    address internal feeAddress;\n\n    struct TokenMeta {\n        uint256 saleId;\n        address tokenContractAddress;\n        uint256 tokenId;\n        uint256 price;\n        bool directSale;\n        bool bidSale;\n        bool status;\n        uint256 bidStartTime;\n        uint256 bidEndTime;\n        address currentOwner;\n    }\n\n    struct BidOrder {\n        uint256 bidId;\n        uint256 saleId;\n        address sellerAddress;\n        address buyerAddress;\n        uint256 price;\n        bool withdrawn;\n    }\n\n    struct Swap {\n        address NFTContractAddress;\n        address initiator;\n        uint256 initiatorNftId;\n        address secondUser;\n        uint256 secondUserNftId;\n        bool status;\n    }\n\n    mapping(uint256 => TokenMeta) public _tokenMeta;\n    mapping(uint256 => BidOrder[]) public Bids;\n    mapping(uint256 => Swap) public _swaps;\n\n    event SaleCreated(uint256 tokenId, address tokenContract, uint256 saleId);\n    event NFTBought(uint256 saleId, address buyer);\n    event SaleCancelled(uint256 saleId);\n    event BidCreated(uint256 saleId, uint256 bidId);\n    event BidExecuted(uint256 saleId, uint256 bidId, uint256 price);\n    event BidWithdrawn(uint256 saleId, uint256 bidId);\n    event SwapCancelled(uint256 swapId);\n    event SwapAccepted(uint256 swapId);\n    event SwapProposed(\n        address indexed from,\n        address indexed to,\n        uint256 indexed swapId\n    );\n    event updatedSalePrice(uint256 saleId, uint256 Price);\n\n    constructor(address _feeAddress) {\n        require(_feeAddress != address(0), \"Fee address cannot be zero\");\n        feeAddress = _feeAddress;\n    }\n\n    modifier onlyOwnerOfToken(address _contractAddress, uint256 _tokenId) {\n        require(\n            msg.sender == ERC721(_contractAddress).ownerOf(_tokenId),\n            \"Only token owner can execute\"\n        );\n        _;\n    }\n\n    /*\n    @params\n    * _contractAddress if _fromCollection is true then collection contract Address and if false piNFT contract Address\n    */\n\n    function sellNFT(\n        address _contractAddress,\n        uint256 _tokenId,\n        uint256 _price\n    ) external onlyOwnerOfToken(_contractAddress, _tokenId) nonReentrant {\n        _saleIdCounter.increment();\n        require(\n            _contractAddress != address(0),\n            \"you can't do this with zero address\"\n        );\n\n        //needs approval on frontend\n        ERC721(_contractAddress).safeTransferFrom(\n            msg.sender,\n            address(this),\n            _tokenId\n        );\n\n        TokenMeta memory meta = TokenMeta(\n            _saleIdCounter.current(),\n            _contractAddress,\n            _tokenId,\n            _price,\n            true,\n            false,\n            true,\n            0,\n            0,\n            msg.sender\n        );\n\n        _tokenMeta[_saleIdCounter.current()] = meta;\n\n        emit SaleCreated(_tokenId, _contractAddress, _saleIdCounter.current());\n    }\n\n    function editSalePrice(uint256 _saleId, uint256 _price) public {\n        require(\n            msg.sender == _tokenMeta[_saleId].currentOwner,\n            \"You are not the owner\"\n        );\n        require(_tokenMeta[_saleId].status, \"You can't edit\");\n        if (_tokenMeta[_saleId].bidSale) {\n            require(Bids[_saleId].length == 0, \"Bid has started\");\n        }\n\n        if (_price != _tokenMeta[_saleId].price) {\n            _tokenMeta[_saleId].price = _price;\n\n            emit updatedSalePrice(_saleId, _price);\n        }\n    }\n\n    function retrieveRoyalty(address _contractAddress, uint256 _tokenId)\n        public\n        view\n        returns (LibShare.Share[] memory)\n    {\n        return piNFT(_contractAddress).getRoyalties(_tokenId);\n    }\n\n    // Get Collection Royalty\n    function getCollectionRoyalty(\n        address _collectionFactoryAddress,\n        uint256 _collectionId\n    ) public view returns (LibShare.Share[] memory) {\n        return\n            CollectionFactory(_collectionFactoryAddress).getCollectionRoyalties(\n                _collectionId\n            );\n    }\n\n    // Get Collection validator Royalty by collection TokenId\n    function getCollectionValidatorRoyalty(\n        address _collectionAddress,\n        uint256 _tokenId\n    ) public view returns (LibShare.Share[] memory) {\n        return\n            CollectionMethods(_collectionAddress).getValidatorRoyalties(\n                _tokenId\n            );\n    }\n\n    // Retrieve validator Royality\n    function retrieveValidatorRoyalty(\n        address _contractAddress,\n        uint256 _tokenId\n    ) public view returns (LibShare.Share[] memory) {\n        return piNFT(_contractAddress).getValidatorRoyalties(_tokenId);\n    }\n\n    function BuyNFT(uint256 _saleId, bool _fromCollection)\n        external\n        payable\n        nonReentrant\n    {\n        TokenMeta memory meta = _tokenMeta[_saleId];\n\n        LibShare.Share[] memory royalties;\n        LibShare.Share[] memory validatorRoyalties;\n        if (_fromCollection) {\n            royalties = getCollectionRoyalty(\n                meta.tokenContractAddress,\n                meta.tokenId\n            );\n            validatorRoyalties = getCollectionValidatorRoyalty(\n                meta.tokenContractAddress,\n                meta.tokenId\n            );\n        } else {\n            royalties = retrieveRoyalty(\n                meta.tokenContractAddress,\n                meta.tokenId\n            );\n            validatorRoyalties = retrieveValidatorRoyalty(\n                meta.tokenContractAddress,\n                meta.tokenId\n            );\n        }\n\n        require(meta.status, \"token must be on sale\");\n        require(\n            msg.sender != address(0) && msg.sender != meta.currentOwner,\n            \"invalid address\"\n        );\n        require(!meta.bidSale);\n        require(msg.value == meta.price, \"value less than price\");\n\n        transfer(_tokenMeta[_saleId], msg.sender);\n\n        uint256 sum = msg.value;\n        uint256 val = msg.value;\n        uint256 fee = msg.value / 100;\n\n        for (uint256 i = 0; i < royalties.length; i++) {\n            uint256 amount = (royalties[i].value * val) / 10000;\n            // address payable receiver = royalties[i].account;\n            (bool royalSuccess, ) = payable(royalties[i].account).call{\n                value: amount\n            }(\"\");\n            require(royalSuccess, \"Royalty Transfer failed\");\n            sum = sum - amount;\n        }\n\n        for (uint256 i = 0; i < validatorRoyalties.length; i++) {\n            uint256 amount = (validatorRoyalties[i].value * val) / 10000;\n            (bool royalSuccess, ) = payable(validatorRoyalties[i].account).call{\n                value: amount\n            }(\"\");\n            require(royalSuccess, \"Royalty Transfer failed\");\n            sum = sum - amount;\n        }\n\n        (bool isSuccess, ) = payable(meta.currentOwner).call{\n            value: (sum - fee)\n        }(\"\");\n        require(isSuccess, \"Transfer failed\");\n        (bool feeSuccess, ) = payable(feeAddress).call{value: fee}(\"\");\n        require(feeSuccess, \"Fee Transfer failed\");\n        ERC721(meta.tokenContractAddress).safeTransferFrom(\n            address(this),\n            msg.sender,\n            meta.tokenId\n        );\n        emit NFTBought(_saleId, msg.sender);\n    }\n\n    function cancelSale(uint256 _saleId) external nonReentrant {\n        require(\n            msg.sender == _tokenMeta[_saleId].currentOwner,\n            \"Only owner can cancel sale\"\n        );\n        require(_tokenMeta[_saleId].status, \"Token not on sale\");\n\n        _tokenMeta[_saleId].price = 0;\n        _tokenMeta[_saleId].status = false;\n        ERC721(_tokenMeta[_saleId].tokenContractAddress).safeTransferFrom(\n            address(this),\n            _tokenMeta[_saleId].currentOwner,\n            _tokenMeta[_saleId].tokenId\n        );\n        emit SaleCancelled(_saleId);\n    }\n\n    function SellNFT_byBid(\n        address _contractAddress,\n        uint256 _tokenId,\n        uint256 _price,\n        uint256 _bidTime\n    ) external onlyOwnerOfToken(_contractAddress, _tokenId) nonReentrant {\n        require(\n            _contractAddress != address(0),\n            \"you can't do this with zero address\"\n        );\n        _saleIdCounter.increment();\n\n        //needs approval on frontend\n        ERC721(_contractAddress).safeTransferFrom(\n            msg.sender,\n            address(this),\n            _tokenId\n        );\n\n        TokenMeta memory meta = TokenMeta(\n            _saleIdCounter.current(),\n            _contractAddress,\n            _tokenId,\n            _price,\n            false,\n            true,\n            true,\n            block.timestamp,\n            block.timestamp + _bidTime,\n            msg.sender\n        );\n\n        _tokenMeta[_saleIdCounter.current()] = meta;\n\n        emit SaleCreated(_tokenId, _contractAddress, _saleIdCounter.current());\n    }\n\n    function Bid(uint256 _saleId) external payable {\n        require(_tokenMeta[_saleId].currentOwner != msg.sender);\n        require(_tokenMeta[_saleId].status);\n        require(_tokenMeta[_saleId].bidSale);\n        require(block.timestamp <= _tokenMeta[_saleId].bidEndTime);\n        require(\n            _tokenMeta[_saleId].price +\n                ((5 * _tokenMeta[_saleId].price) / 100) <=\n                msg.value,\n            \"Bid should be more than 5% of current bid\"\n        );\n        //  require(_timeOfAuction[_saleId] >= block.timestamp,\"Auction Over\");\n\n        BidOrder memory bid = BidOrder(\n            Bids[_saleId].length,\n            _saleId,\n            _tokenMeta[_saleId].currentOwner,\n            msg.sender,\n            msg.value,\n            false\n        );\n        Bids[_saleId].push(bid);\n        _tokenMeta[_saleId].price = msg.value;\n\n        emit BidCreated(_saleId, Bids[_saleId].length - 1);\n    }\n\n    function executeBidOrder(\n        uint256 _saleId,\n        uint256 _bidOrderID,\n        bool _fromCollection\n    ) external nonReentrant {\n        BidOrder memory bids = Bids[_saleId][_bidOrderID];\n        require(msg.sender == _tokenMeta[_saleId].currentOwner);\n        require(!bids.withdrawn);\n        require(_tokenMeta[_saleId].status);\n\n        LibShare.Share[] memory royalties;\n        LibShare.Share[] memory validatorRoyalties;\n        if (_fromCollection) {\n            royalties = getCollectionRoyalty(\n                _tokenMeta[_saleId].tokenContractAddress,\n                _tokenMeta[_saleId].tokenId\n            );\n            validatorRoyalties = getCollectionValidatorRoyalty(\n                _tokenMeta[_saleId].tokenContractAddress,\n                _tokenMeta[_saleId].tokenId\n            );\n        } else {\n            royalties = retrieveRoyalty(\n                _tokenMeta[_saleId].tokenContractAddress,\n                _tokenMeta[_saleId].tokenId\n            );\n            validatorRoyalties = retrieveValidatorRoyalty(\n                _tokenMeta[_saleId].tokenContractAddress,\n                _tokenMeta[_saleId].tokenId\n            );\n        }\n\n        _tokenMeta[_saleId].status = false;\n        _tokenMeta[_saleId].price = bids.price;\n        Bids[_saleId][_bidOrderID].withdrawn = true;\n\n        ERC721(_tokenMeta[_saleId].tokenContractAddress).safeTransferFrom(\n            address(this),\n            bids.buyerAddress,\n            _tokenMeta[_saleId].tokenId\n        );\n\n        uint256 sum = bids.price;\n        uint256 fee = bids.price / 100;\n\n        for (uint256 i = 0; i < royalties.length; i++) {\n            uint256 amount = (royalties[i].value * bids.price) / 10000;\n            // address payable receiver = royalties[i].account;\n            (bool royalSuccess, ) = payable(royalties[i].account).call{\n                value: amount\n            }(\"\");\n            require(royalSuccess, \"Royalty transfer failed\");\n            sum = sum - amount;\n        }\n\n        for (uint256 i = 0; i < validatorRoyalties.length; i++) {\n            uint256 amount = (validatorRoyalties[i].value * bids.price) / 10000;\n            (bool royalSuccess, ) = payable(validatorRoyalties[i].account).call{\n                value: amount\n            }(\"\");\n            require(royalSuccess, \"Royalty transfer failed\");\n            sum = sum - amount;\n        }\n\n        (bool isSuccess, ) = payable(msg.sender).call{value: (sum - fee)}(\"\");\n        require(isSuccess, \"Transfer failed\");\n        (bool feeSuccess, ) = payable(feeAddress).call{value: fee}(\"\");\n        require(feeSuccess, \"Fee Transfer failed\");\n\n        emit BidExecuted(_saleId, _bidOrderID, bids.price);\n    }\n\n    function withdrawBidMoney(uint256 _saleId, uint256 _bidId)\n        external\n        nonReentrant\n    {\n        require(msg.sender != _tokenMeta[_saleId].currentOwner);\n        // BidOrder[] memory bids = Bids[_tokenId];\n        BidOrder memory bids = Bids[_saleId][_bidId];\n        require(_tokenMeta[_saleId].price != bids.price);\n        require(bids.buyerAddress == msg.sender);\n        require(!bids.withdrawn);\n        (bool success, ) = payable(msg.sender).call{value: bids.price}(\"\");\n        if (success) {\n            Bids[_saleId][_bidId].withdrawn = true;\n        } else {\n            revert(\"No Money left!\");\n        }\n\n        emit BidWithdrawn(_saleId, _bidId);\n    }\n\n    function transfer(TokenMeta storage token, address _to) internal {\n        token.currentOwner = _to;\n        token.status = false;\n        token.directSale = false;\n        token.bidSale = false;\n    }\n\n    // who will be making request, his tokenId will be token1\n    function makeSwapRequest(\n        address contractAddress,\n        uint256 token1,\n        uint256 token2,\n        address token2Owner\n    )\n        public\n        onlyOwnerOfToken(contractAddress, token1)\n        nonReentrant\n        returns (uint256)\n    {\n        require(\n            contractAddress != address(0),\n            \"you can't do this with zero address\"\n        );\n        require(token2Owner != msg.sender, \"Cannot Swap Between Your Tokens\");\n        uint256 swapsId = _swapIdCounter.current();\n        ERC721(contractAddress).safeTransferFrom(\n            msg.sender,\n            address(this),\n            token1\n        );\n\n        Swap memory swap = Swap(\n            contractAddress,\n            msg.sender,\n            token1,\n            token2Owner,\n            token2,\n            true\n        );\n\n        _swaps[swapsId] = swap;\n\n        _swapIdCounter.increment();\n\n        emit SwapProposed(msg.sender, token2Owner, swapsId);\n\n        return swapsId;\n    }\n\n    // cancle swap by initiator\n    function cancelSwap(uint256 _swapId) public nonReentrant {\n        require(\n            msg.sender == _swaps[_swapId].initiator,\n            \"Only owner can cancel sale\"\n        );\n        require(_swaps[_swapId].status, \"Token not on swap\");\n        _swaps[_swapId].status = false;\n        ERC721(_swaps[_swapId].NFTContractAddress).safeTransferFrom(\n            address(this),\n            _swaps[_swapId].initiator,\n            _swaps[_swapId].initiatorNftId\n        );\n\n        emit SwapCancelled(_swapId);\n    }\n\n    // NFTcontractAddress will be of tokenId2\n    function acceptSwapRequest(uint256 swapId, address NFTcontractAddress)\n        public\n        nonReentrant\n    {\n        Swap memory swap = _swaps[swapId];\n        require(swap.status, \"token must be on swap\");\n        require(swap.secondUser == msg.sender, \"Only owner can accept swap\");\n        ERC721(swap.NFTContractAddress).safeTransferFrom(\n            address(this),\n            msg.sender,\n            swap.initiatorNftId\n        );\n        ERC721(NFTcontractAddress).safeTransferFrom(\n            msg.sender,\n            swap.initiator,\n            swap.secondUserNftId\n        );\n        swap.status = false;\n        emit SwapAccepted(swapId);\n    }\n}\n",
  "sourcePath": "/home/sheeshco/code/truffle/aconomy-contract/contracts/piMarket.sol",
  "compiler": {
    "name": "solc",
    "version": "0.8.11+commit.d7f03943.Emscripten.clang"
  },
  "schemaVersion": "3.4.10",
  "updatedAt": "2023-03-22T06:48:23.825Z",
  "devdoc": {
    "kind": "dev",
    "methods": {
      "onERC721Received(address,address,uint256,bytes)": {
        "details": "See {IERC721Receiver-onERC721Received}. Always returns `IERC721Receiver.onERC721Received.selector`."
      }
    },
    "version": 1
  },
  "userdoc": {
    "kind": "user",
    "methods": {},
    "version": 1
  }
}