{
  "contractName": "piMarket",
  "abi": [
    {
      "anonymous": false,
      "inputs": [
        {
          "components": [
            {
              "internalType": "uint256",
              "name": "saleId",
              "type": "uint256"
            },
            {
              "internalType": "address",
              "name": "tokenContractAddress",
              "type": "address"
            },
            {
              "internalType": "uint256",
              "name": "tokenId",
              "type": "uint256"
            },
            {
              "internalType": "uint256",
              "name": "price",
              "type": "uint256"
            },
            {
              "internalType": "bool",
              "name": "status",
              "type": "bool"
            },
            {
              "internalType": "address",
              "name": "currentOwner",
              "type": "address"
            }
          ],
          "indexed": false,
          "internalType": "struct piMarket.TokenMeta",
          "name": "data",
          "type": "tuple"
        },
        {
          "indexed": false,
          "internalType": "uint256",
          "name": "id",
          "type": "uint256"
        }
      ],
      "name": "TokenMetaReturn",
      "type": "event"
    },
    {
      "inputs": [
        {
          "internalType": "uint256",
          "name": "",
          "type": "uint256"
        }
      ],
      "name": "_tokenMeta",
      "outputs": [
        {
          "internalType": "uint256",
          "name": "saleId",
          "type": "uint256"
        },
        {
          "internalType": "address",
          "name": "tokenContractAddress",
          "type": "address"
        },
        {
          "internalType": "uint256",
          "name": "tokenId",
          "type": "uint256"
        },
        {
          "internalType": "uint256",
          "name": "price",
          "type": "uint256"
        },
        {
          "internalType": "bool",
          "name": "status",
          "type": "bool"
        },
        {
          "internalType": "address",
          "name": "currentOwner",
          "type": "address"
        }
      ],
      "stateMutability": "view",
      "type": "function"
    },
    {
      "inputs": [
        {
          "internalType": "address",
          "name": "",
          "type": "address"
        },
        {
          "internalType": "address",
          "name": "",
          "type": "address"
        },
        {
          "internalType": "uint256",
          "name": "",
          "type": "uint256"
        },
        {
          "internalType": "bytes",
          "name": "",
          "type": "bytes"
        }
      ],
      "name": "onERC721Received",
      "outputs": [
        {
          "internalType": "bytes4",
          "name": "",
          "type": "bytes4"
        }
      ],
      "stateMutability": "nonpayable",
      "type": "function"
    },
    {
      "inputs": [
        {
          "internalType": "address",
          "name": "_piNFTAddress",
          "type": "address"
        },
        {
          "internalType": "uint256",
          "name": "_tokenId",
          "type": "uint256"
        },
        {
          "internalType": "uint256",
          "name": "_price",
          "type": "uint256"
        }
      ],
      "name": "sellNFT",
      "outputs": [],
      "stateMutability": "nonpayable",
      "type": "function"
    },
    {
      "inputs": [
        {
          "internalType": "uint256",
          "name": "_saleId",
          "type": "uint256"
        }
      ],
      "name": "BuyNFT",
      "outputs": [],
      "stateMutability": "payable",
      "type": "function"
    },
    {
      "inputs": [
        {
          "internalType": "uint256",
          "name": "_saleId",
          "type": "uint256"
        }
      ],
      "name": "cancelSale",
      "outputs": [],
      "stateMutability": "nonpayable",
      "type": "function"
    }
  ],
  "bytecode": "0x608060405234801561001057600080fd5b506001600081905550611543806100286000396000f3fe60806040526004361061004a5760003560e01c8063150b7a021461004f5780638e57ff161461008c578063a37365e0146100ce578063bd94b005146100ea578063f779a19314610113575b600080fd5b34801561005b57600080fd5b5061007660048036038101906100719190610dfe565b61013c565b6040516100839190610ebc565b60405180910390f35b34801561009857600080fd5b506100b360048036038101906100ae9190610ed7565b610150565b6040516100c596959493929190610f3d565b60405180910390f35b6100e860048036038101906100e39190610ed7565b6101d9565b005b3480156100f657600080fd5b50610111600480360381019061010c9190610ed7565b6105b5565b005b34801561011f57600080fd5b5061013a60048036038101906101359190610f9e565b610835565b005b600063150b7a0260e01b9050949350505050565b60026020528060005260406000206000915090508060000154908060010160009054906101000a900473ffffffffffffffffffffffffffffffffffffffff16908060020154908060030154908060040160009054906101000a900460ff16908060040160019054906101000a900473ffffffffffffffffffffffffffffffffffffffff16905086565b6002600054141561021f576040517f08c379a00000000000000000000000000000000000000000000000000000000081526004016102169061104e565b60405180910390fd5b60026000819055506000600260008381526020019081526020016000206040518060c0016040529081600082015481526020016001820160009054906101000a900473ffffffffffffffffffffffffffffffffffffffff1673ffffffffffffffffffffffffffffffffffffffff1673ffffffffffffffffffffffffffffffffffffffff16815260200160028201548152602001600382015481526020016004820160009054906101000a900460ff161515151581526020016004820160019054906101000a900473ffffffffffffffffffffffffffffffffffffffff1673ffffffffffffffffffffffffffffffffffffffff1673ffffffffffffffffffffffffffffffffffffffff168152505090508060800151610372576040517f08c379a0000000000000000000000000000000000000000000000000000000008152600401610369906110ba565b60405180910390fd5b600073ffffffffffffffffffffffffffffffffffffffff163373ffffffffffffffffffffffffffffffffffffffff16141580156103df57508060a0015173ffffffffffffffffffffffffffffffffffffffff163373ffffffffffffffffffffffffffffffffffffffff1614155b61041e576040517f08c379a000000000000000000000000000000000000000000000000000000000815260040161041590611126565b60405180910390fd5b8060600151341015610465576040517f08c379a000000000000000000000000000000000000000000000000000000000815260040161045c90611192565b60405180910390fd5b6104816002600084815260200190815260200160002033610b88565b60008160a0015173ffffffffffffffffffffffffffffffffffffffff16346040516104ab906111e3565b60006040518083038185875af1925050503d80600081146104e8576040519150601f19603f3d011682016040523d82523d6000602084013e6104ed565b606091505b5050905080610531576040517f08c379a000000000000000000000000000000000000000000000000000000000815260040161052890611244565b60405180910390fd5b816020015173ffffffffffffffffffffffffffffffffffffffff166342842e0e303385604001516040518463ffffffff1660e01b815260040161057693929190611264565b600060405180830381600087803b15801561059057600080fd5b505af11580156105a4573d6000803e3d6000fd5b505050505050600160008190555050565b600260005414156105fb576040517f08c379a00000000000000000000000000000000000000000000000000000000081526004016105f29061104e565b60405180910390fd5b60026000819055506002600082815260200190815260200160002060040160019054906101000a900473ffffffffffffffffffffffffffffffffffffffff1673ffffffffffffffffffffffffffffffffffffffff163373ffffffffffffffffffffffffffffffffffffffff16146106a7576040517f08c379a000000000000000000000000000000000000000000000000000000000815260040161069e906112e7565b60405180910390fd5b6002600082815260200190815260200160002060040160009054906101000a900460ff1661070a576040517f08c379a000000000000000000000000000000000000000000000000000000000815260040161070190611353565b60405180910390fd5b60006002600083815260200190815260200160002060040160006101000a81548160ff0219169083151502179055506002600082815260200190815260200160002060010160009054906101000a900473ffffffffffffffffffffffffffffffffffffffff1673ffffffffffffffffffffffffffffffffffffffff166342842e0e306002600085815260200190815260200160002060040160019054906101000a900473ffffffffffffffffffffffffffffffffffffffff1660026000868152602001908152602001600020600201546040518463ffffffff1660e01b81526004016107f893929190611264565b600060405180830381600087803b15801561081257600080fd5b505af1158015610826573d6000803e3d6000fd5b50505050600160008190555050565b6002600054141561087b576040517f08c379a00000000000000000000000000000000000000000000000000000000081526004016108729061104e565b60405180910390fd5b60026000819055508273ffffffffffffffffffffffffffffffffffffffff16636352211e836040518263ffffffff1660e01b81526004016108bc9190611373565b602060405180830381865afa1580156108d9573d6000803e3d6000fd5b505050506040513d601f19601f820116820180604052508101906108fd91906113a3565b73ffffffffffffffffffffffffffffffffffffffff163373ffffffffffffffffffffffffffffffffffffffff161461096a576040517f08c379a00000000000000000000000000000000000000000000000000000000081526004016109619061141c565b60405180910390fd5b6109746001610bec565b8273ffffffffffffffffffffffffffffffffffffffff166342842e0e3330856040518463ffffffff1660e01b81526004016109b193929190611264565b600060405180830381600087803b1580156109cb57600080fd5b505af11580156109df573d6000803e3d6000fd5b5050505060006040518060c001604052806109fa6001610c02565b81526020018573ffffffffffffffffffffffffffffffffffffffff1681526020018481526020018381526020016001151581526020013373ffffffffffffffffffffffffffffffffffffffff1681525090508060026000610a5b6001610c02565b81526020019081526020016000206000820151816000015560208201518160010160006101000a81548173ffffffffffffffffffffffffffffffffffffffff021916908373ffffffffffffffffffffffffffffffffffffffff160217905550604082015181600201556060820151816003015560808201518160040160006101000a81548160ff02191690831515021790555060a08201518160040160016101000a81548173ffffffffffffffffffffffffffffffffffffffff021916908373ffffffffffffffffffffffffffffffffffffffff1602179055509050507f432fa1ebab580fbd47933e28bfba51fb3193186931191cf33daa54480e33b18581610b646001610c02565b604051610b729291906114e4565b60405180910390a1506001600081905550505050565b808260040160016101000a81548173ffffffffffffffffffffffffffffffffffffffff021916908373ffffffffffffffffffffffffffffffffffffffff16021790555060008260040160006101000a81548160ff0219169083151502179055505050565b6001816000016000828254019250508190555050565b600081600001549050919050565b6000604051905090565b600080fd5b600080fd5b600073ffffffffffffffffffffffffffffffffffffffff82169050919050565b6000610c4f82610c24565b9050919050565b610c5f81610c44565b8114610c6a57600080fd5b50565b600081359050610c7c81610c56565b92915050565b6000819050919050565b610c9581610c82565b8114610ca057600080fd5b50565b600081359050610cb281610c8c565b92915050565b600080fd5b600080fd5b6000601f19601f8301169050919050565b7f4e487b7100000000000000000000000000000000000000000000000000000000600052604160045260246000fd5b610d0b82610cc2565b810181811067ffffffffffffffff82111715610d2a57610d29610cd3565b5b80604052505050565b6000610d3d610c10565b9050610d498282610d02565b919050565b600067ffffffffffffffff821115610d6957610d68610cd3565b5b610d7282610cc2565b9050602081019050919050565b82818337600083830152505050565b6000610da1610d9c84610d4e565b610d33565b905082815260208101848484011115610dbd57610dbc610cbd565b5b610dc8848285610d7f565b509392505050565b600082601f830112610de557610de4610cb8565b5b8135610df5848260208601610d8e565b91505092915050565b60008060008060808587031215610e1857610e17610c1a565b5b6000610e2687828801610c6d565b9450506020610e3787828801610c6d565b9350506040610e4887828801610ca3565b925050606085013567ffffffffffffffff811115610e6957610e68610c1f565b5b610e7587828801610dd0565b91505092959194509250565b60007fffffffff0000000000000000000000000000000000000000000000000000000082169050919050565b610eb681610e81565b82525050565b6000602082019050610ed16000830184610ead565b92915050565b600060208284031215610eed57610eec610c1a565b5b6000610efb84828501610ca3565b91505092915050565b610f0d81610c82565b82525050565b610f1c81610c44565b82525050565b60008115159050919050565b610f3781610f22565b82525050565b600060c082019050610f526000830189610f04565b610f5f6020830188610f13565b610f6c6040830187610f04565b610f796060830186610f04565b610f866080830185610f2e565b610f9360a0830184610f13565b979650505050505050565b600080600060608486031215610fb757610fb6610c1a565b5b6000610fc586828701610c6d565b9350506020610fd686828701610ca3565b9250506040610fe786828701610ca3565b9150509250925092565b600082825260208201905092915050565b7f5265656e7472616e637947756172643a207265656e7472616e742063616c6c00600082015250565b6000611038601f83610ff1565b915061104382611002565b602082019050919050565b600060208201905081810360008301526110678161102b565b9050919050565b7f746f6b656e206d757374206265206f6e2073616c650000000000000000000000600082015250565b60006110a4601583610ff1565b91506110af8261106e565b602082019050919050565b600060208201905081810360008301526110d381611097565b9050919050565b7f696e76616c696420616464726573730000000000000000000000000000000000600082015250565b6000611110600f83610ff1565b915061111b826110da565b602082019050919050565b6000602082019050818103600083015261113f81611103565b9050919050565b7f76616c7565206c657373207468616e2070726963650000000000000000000000600082015250565b600061117c601583610ff1565b915061118782611146565b602082019050919050565b600060208201905081810360008301526111ab8161116f565b9050919050565b600081905092915050565b50565b60006111cd6000836111b2565b91506111d8826111bd565b600082019050919050565b60006111ee826111c0565b9150819050919050565b7f5472616e73666572206661696c65640000000000000000000000000000000000600082015250565b600061122e600f83610ff1565b9150611239826111f8565b602082019050919050565b6000602082019050818103600083015261125d81611221565b9050919050565b60006060820190506112796000830186610f13565b6112866020830185610f13565b6112936040830184610f04565b949350505050565b7f4f6e6c79206f776e65722063616e2063616e63656c2073616c65000000000000600082015250565b60006112d1601a83610ff1565b91506112dc8261129b565b602082019050919050565b60006020820190508181036000830152611300816112c4565b9050919050565b7f546f6b656e206e6f74206f6e2073616c65000000000000000000000000000000600082015250565b600061133d601183610ff1565b915061134882611307565b602082019050919050565b6000602082019050818103600083015261136c81611330565b9050919050565b60006020820190506113886000830184610f04565b92915050565b60008151905061139d81610c56565b92915050565b6000602082840312156113b9576113b8610c1a565b5b60006113c78482850161138e565b91505092915050565b7f4f6e6c7920746f6b656e206f776e65722063616e20707574206f6e2073616c65600082015250565b6000611406602083610ff1565b9150611411826113d0565b602082019050919050565b60006020820190508181036000830152611435816113f9565b9050919050565b61144581610c82565b82525050565b61145481610c44565b82525050565b61146381610f22565b82525050565b60c08201600082015161147f600085018261143c565b506020820151611492602085018261144b565b5060408201516114a5604085018261143c565b5060608201516114b8606085018261143c565b5060808201516114cb608085018261145a565b5060a08201516114de60a085018261144b565b50505050565b600060e0820190506114f96000830185611469565b61150660c0830184610f04565b939250505056fea2646970667358221220eb283ba52126f9c2bf40e4ce164513a0101d5d20601b858d041e7c83da90a6b064736f6c634300080b0033",
  "immutableReferences": {},
  "source": "// SPDX-License-Identifier: MIT\npragma solidity >=0.4.22 <0.9.0;\n\nimport \"@openzeppelin/contracts/token/ERC721/utils/ERC721Holder.sol\";\nimport \"@openzeppelin/contracts/token/ERC721/ERC721.sol\";\nimport \"@openzeppelin/contracts/access/Ownable.sol\";\nimport \"@openzeppelin/contracts/security/ReentrancyGuard.sol\";\nimport \"@openzeppelin/contracts/utils/Counters.sol\";\n\ncontract piMarket is ERC721Holder, ReentrancyGuard {\n    using Counters for Counters.Counter;\n    Counters.Counter internal _saleIdCounter;\n\n    struct TokenMeta {\n        uint256 saleId;\n        address tokenContractAddress;\n        uint256 tokenId;\n        uint256 price;\n        // bool directSale;\n        // bool bidSale;\n        bool status;\n        // uint256 bidStartTime;\n        // uint256 bidEndTime;\n        address currentOwner;\n    }\n\n    // // Defines the share of royalties for the address\n    // struct Share {\n    //     address payable account;\n    //     uint96 value;\n    // }\n\n    mapping(uint256 => TokenMeta) public _tokenMeta;\n\n    event TokenMetaReturn(TokenMeta data, uint256 id);\n\n    function sellNFT(address _piNFTAddress, uint256 _tokenId, uint256 _price) external  nonReentrant {\n        require(msg.sender == ERC721(_piNFTAddress).ownerOf(_tokenId), 'Only token owner can put on sale');\n\n        _saleIdCounter.increment();\n\n        //needs approval on frontend\n        ERC721(_piNFTAddress).safeTransferFrom(\n        msg.sender,\n        address(this),\n        _tokenId\n        );\n\n        TokenMeta memory meta = TokenMeta(\n            _saleIdCounter.current(),\n            _piNFTAddress,\n            _tokenId,\n            _price,\n            // true,\n            // false,\n            true,\n            // 0,\n            // 0,\n            msg.sender\n        );\n\n        _tokenMeta[_saleIdCounter.current()] = meta;\n\n        emit TokenMetaReturn(meta, _saleIdCounter.current());\n    }\n\n    function BuyNFT(uint256 _saleId) external payable nonReentrant {\n        TokenMeta memory meta = _tokenMeta[_saleId];\n\n        // LibShare.Share[] memory royalties = LibRoyalty.retrieveRoyalty(\n        // meta.collectionAddress,\n        // PNDCAddress,\n        // meta.tokenId\n        // );\n\n        require(meta.status, 'token must be on sale');\n        require(msg.sender != address(0) && msg.sender != meta.currentOwner, 'invalid address');\n        // require(!meta.bidSale);\n        require(msg.value >= meta.price, 'value less than price');\n\n        transfer(_tokenMeta[_saleId], msg.sender);\n\n        // uint256 sum = msg.value;\n        // uint256 val = msg.value;\n        // uint256 fee = msg.value / 100;\n\n        // for (uint256 i = 0; i < royalties.length; i++) {\n        // uint256 amount = (royalties[i].value * val) / 10000;\n        // // address payable receiver = royalties[i].account;\n        // (bool royalSuccess, ) = payable(royalties[i].account).call{ value: amount }(\"\");\n        // require(royalSuccess, \"Transfer failed\");\n        // sum = sum - amount;\n        // }\n\n        (bool isSuccess, ) = payable(meta.currentOwner).call{ value: msg.value }(\"\");\n        require(isSuccess, \"Transfer failed\");\n        ERC721(meta.tokenContractAddress).safeTransferFrom(\n        address(this),\n        msg.sender,\n        meta.tokenId\n        );\n    }\n\n    function cancelSale(uint256 _saleId) external nonReentrant {\n    require(msg.sender == _tokenMeta[_saleId].currentOwner, 'Only owner can cancel sale');\n    require(_tokenMeta[_saleId].status, 'Token not on sale');\n\n    _tokenMeta[_saleId].status = false;\n    ERC721(_tokenMeta[_saleId].tokenContractAddress).safeTransferFrom(\n      address(this),\n      _tokenMeta[_saleId].currentOwner,\n      _tokenMeta[_saleId].tokenId\n    );\n  }\n\n    function transfer(TokenMeta storage token, address _to ) internal{\n        token.currentOwner = _to;\n        token.status = false;\n        // token.directSale = false ;\n        // token.bidSale = false ;\n\n    }\n}",
  "sourcePath": "/Users/parv/Desktop/Pandora/piNFTOfficial/aconomy-contract/contracts/piMarket.sol",
  "compiler": {
    "name": "solc",
    "version": "0.8.11+commit.d7f03943.Emscripten.clang"
  },
  "schemaVersion": "3.4.4",
  "updatedAt": "2022-06-30T14:28:35.742Z",
  "devdoc": {
    "kind": "dev",
    "methods": {
      "onERC721Received(address,address,uint256,bytes)": {
        "details": "See {IERC721Receiver-onERC721Received}. Always returns `IERC721Receiver.onERC721Received.selector`."
      }
    },
    "version": 1
  },
  "userdoc": {
    "kind": "user",
    "methods": {},
    "version": 1
  }
}