{
  "contractName": "piMarket",
  "abi": [
    {
      "inputs": [
        {
          "internalType": "address",
          "name": "_feeAddress",
          "type": "address"
        }
      ],
      "stateMutability": "nonpayable",
      "type": "constructor"
    },
    {
      "anonymous": false,
      "inputs": [
        {
          "indexed": false,
          "internalType": "uint256",
          "name": "price",
          "type": "uint256"
        }
      ],
      "name": "BidExecuted",
      "type": "event"
    },
    {
      "anonymous": false,
      "inputs": [
        {
          "components": [
            {
              "internalType": "uint256",
              "name": "bidId",
              "type": "uint256"
            },
            {
              "internalType": "uint256",
              "name": "saleId",
              "type": "uint256"
            },
            {
              "internalType": "address",
              "name": "sellerAddress",
              "type": "address"
            },
            {
              "internalType": "address",
              "name": "buyerAddress",
              "type": "address"
            },
            {
              "internalType": "uint256",
              "name": "price",
              "type": "uint256"
            },
            {
              "internalType": "bool",
              "name": "withdrawn",
              "type": "bool"
            }
          ],
          "indexed": false,
          "internalType": "struct piMarket.BidOrder",
          "name": "bid",
          "type": "tuple"
        }
      ],
      "name": "BidOrderReturn",
      "type": "event"
    },
    {
      "anonymous": false,
      "inputs": [
        {
          "indexed": true,
          "internalType": "address",
          "name": "from",
          "type": "address"
        },
        {
          "indexed": true,
          "internalType": "address",
          "name": "to",
          "type": "address"
        },
        {
          "indexed": true,
          "internalType": "uint256",
          "name": "swapId",
          "type": "uint256"
        }
      ],
      "name": "SwapProposed",
      "type": "event"
    },
    {
      "anonymous": false,
      "inputs": [
        {
          "components": [
            {
              "internalType": "uint256",
              "name": "saleId",
              "type": "uint256"
            },
            {
              "internalType": "address",
              "name": "tokenContractAddress",
              "type": "address"
            },
            {
              "internalType": "uint256",
              "name": "tokenId",
              "type": "uint256"
            },
            {
              "internalType": "uint256",
              "name": "price",
              "type": "uint256"
            },
            {
              "internalType": "bool",
              "name": "directSale",
              "type": "bool"
            },
            {
              "internalType": "bool",
              "name": "bidSale",
              "type": "bool"
            },
            {
              "internalType": "bool",
              "name": "status",
              "type": "bool"
            },
            {
              "internalType": "uint256",
              "name": "bidStartTime",
              "type": "uint256"
            },
            {
              "internalType": "uint256",
              "name": "bidEndTime",
              "type": "uint256"
            },
            {
              "internalType": "address",
              "name": "currentOwner",
              "type": "address"
            }
          ],
          "indexed": false,
          "internalType": "struct piMarket.TokenMeta",
          "name": "data",
          "type": "tuple"
        },
        {
          "indexed": false,
          "internalType": "uint256",
          "name": "id",
          "type": "uint256"
        }
      ],
      "name": "TokenMetaReturn",
      "type": "event"
    },
    {
      "inputs": [
        {
          "internalType": "uint256",
          "name": "",
          "type": "uint256"
        },
        {
          "internalType": "uint256",
          "name": "",
          "type": "uint256"
        }
      ],
      "name": "Bids",
      "outputs": [
        {
          "internalType": "uint256",
          "name": "bidId",
          "type": "uint256"
        },
        {
          "internalType": "uint256",
          "name": "saleId",
          "type": "uint256"
        },
        {
          "internalType": "address",
          "name": "sellerAddress",
          "type": "address"
        },
        {
          "internalType": "address",
          "name": "buyerAddress",
          "type": "address"
        },
        {
          "internalType": "uint256",
          "name": "price",
          "type": "uint256"
        },
        {
          "internalType": "bool",
          "name": "withdrawn",
          "type": "bool"
        }
      ],
      "stateMutability": "view",
      "type": "function"
    },
    {
      "inputs": [
        {
          "internalType": "uint256",
          "name": "",
          "type": "uint256"
        }
      ],
      "name": "_swaps",
      "outputs": [
        {
          "internalType": "address",
          "name": "NFTContractAddress",
          "type": "address"
        },
        {
          "internalType": "address",
          "name": "initiator",
          "type": "address"
        },
        {
          "internalType": "uint256",
          "name": "initiatorNftId",
          "type": "uint256"
        },
        {
          "internalType": "address",
          "name": "secondUser",
          "type": "address"
        },
        {
          "internalType": "uint256",
          "name": "secondUserNftId",
          "type": "uint256"
        },
        {
          "internalType": "bool",
          "name": "status",
          "type": "bool"
        }
      ],
      "stateMutability": "view",
      "type": "function"
    },
    {
      "inputs": [
        {
          "internalType": "uint256",
          "name": "",
          "type": "uint256"
        }
      ],
      "name": "_tokenMeta",
      "outputs": [
        {
          "internalType": "uint256",
          "name": "saleId",
          "type": "uint256"
        },
        {
          "internalType": "address",
          "name": "tokenContractAddress",
          "type": "address"
        },
        {
          "internalType": "uint256",
          "name": "tokenId",
          "type": "uint256"
        },
        {
          "internalType": "uint256",
          "name": "price",
          "type": "uint256"
        },
        {
          "internalType": "bool",
          "name": "directSale",
          "type": "bool"
        },
        {
          "internalType": "bool",
          "name": "bidSale",
          "type": "bool"
        },
        {
          "internalType": "bool",
          "name": "status",
          "type": "bool"
        },
        {
          "internalType": "uint256",
          "name": "bidStartTime",
          "type": "uint256"
        },
        {
          "internalType": "uint256",
          "name": "bidEndTime",
          "type": "uint256"
        },
        {
          "internalType": "address",
          "name": "currentOwner",
          "type": "address"
        }
      ],
      "stateMutability": "view",
      "type": "function"
    },
    {
      "inputs": [
        {
          "internalType": "address",
          "name": "",
          "type": "address"
        },
        {
          "internalType": "address",
          "name": "",
          "type": "address"
        },
        {
          "internalType": "uint256",
          "name": "",
          "type": "uint256"
        },
        {
          "internalType": "bytes",
          "name": "",
          "type": "bytes"
        }
      ],
      "name": "onERC721Received",
      "outputs": [
        {
          "internalType": "bytes4",
          "name": "",
          "type": "bytes4"
        }
      ],
      "stateMutability": "nonpayable",
      "type": "function"
    },
    {
      "inputs": [
        {
          "internalType": "address",
          "name": "_piNFTAddress",
          "type": "address"
        },
        {
          "internalType": "uint256",
          "name": "_tokenId",
          "type": "uint256"
        },
        {
          "internalType": "uint256",
          "name": "_price",
          "type": "uint256"
        }
      ],
      "name": "sellNFT",
      "outputs": [],
      "stateMutability": "nonpayable",
      "type": "function"
    },
    {
      "inputs": [
        {
          "internalType": "address",
          "name": "_contractAddress",
          "type": "address"
        },
        {
          "internalType": "uint256",
          "name": "_tokenId",
          "type": "uint256"
        }
      ],
      "name": "retrieveRoyalty",
      "outputs": [
        {
          "components": [
            {
              "internalType": "address payable",
              "name": "account",
              "type": "address"
            },
            {
              "internalType": "uint96",
              "name": "value",
              "type": "uint96"
            }
          ],
          "internalType": "struct LibShare.Share[]",
          "name": "",
          "type": "tuple[]"
        }
      ],
      "stateMutability": "view",
      "type": "function"
    },
    {
      "inputs": [
        {
          "internalType": "uint256",
          "name": "_saleId",
          "type": "uint256"
        }
      ],
      "name": "BuyNFT",
      "outputs": [],
      "stateMutability": "payable",
      "type": "function"
    },
    {
      "inputs": [
        {
          "internalType": "uint256",
          "name": "_saleId",
          "type": "uint256"
        }
      ],
      "name": "cancelSale",
      "outputs": [],
      "stateMutability": "nonpayable",
      "type": "function"
    },
    {
      "inputs": [
        {
          "internalType": "address",
          "name": "_piNFTAddress",
          "type": "address"
        },
        {
          "internalType": "uint256",
          "name": "_tokenId",
          "type": "uint256"
        },
        {
          "internalType": "uint256",
          "name": "_price",
          "type": "uint256"
        },
        {
          "internalType": "uint256",
          "name": "_bidTime",
          "type": "uint256"
        }
      ],
      "name": "SellNFT_byBid",
      "outputs": [],
      "stateMutability": "nonpayable",
      "type": "function"
    },
    {
      "inputs": [
        {
          "internalType": "uint256",
          "name": "_saleId",
          "type": "uint256"
        }
      ],
      "name": "Bid",
      "outputs": [],
      "stateMutability": "payable",
      "type": "function"
    },
    {
      "inputs": [
        {
          "internalType": "uint256",
          "name": "_saleId",
          "type": "uint256"
        },
        {
          "internalType": "uint256",
          "name": "_bidOrderID",
          "type": "uint256"
        }
      ],
      "name": "executeBidOrder",
      "outputs": [],
      "stateMutability": "nonpayable",
      "type": "function"
    },
    {
      "inputs": [
        {
          "internalType": "uint256",
          "name": "_saleId",
          "type": "uint256"
        },
        {
          "internalType": "uint256",
          "name": "_bidId",
          "type": "uint256"
        }
      ],
      "name": "withdrawBidMoney",
      "outputs": [],
      "stateMutability": "nonpayable",
      "type": "function"
    },
    {
      "inputs": [
        {
          "internalType": "address",
          "name": "piNFTAddress",
          "type": "address"
        },
        {
          "internalType": "uint256",
          "name": "token1",
          "type": "uint256"
        },
        {
          "internalType": "uint256",
          "name": "token2",
          "type": "uint256"
        }
      ],
      "name": "swapTokens",
      "outputs": [
        {
          "internalType": "uint256",
          "name": "",
          "type": "uint256"
        }
      ],
      "stateMutability": "nonpayable",
      "type": "function"
    },
    {
      "inputs": [
        {
          "internalType": "uint256",
          "name": "_swapId",
          "type": "uint256"
        }
      ],
      "name": "cancelSwap",
      "outputs": [],
      "stateMutability": "nonpayable",
      "type": "function"
    },
    {
      "inputs": [
        {
          "internalType": "uint256",
          "name": "swapId",
          "type": "uint256"
        }
      ],
      "name": "acceptSwap",
      "outputs": [],
      "stateMutability": "nonpayable",
      "type": "function"
    },
    {
      "inputs": [
        {
          "internalType": "uint256",
          "name": "swapId",
          "type": "uint256"
        }
      ],
      "name": "rejectSwap",
      "outputs": [],
      "stateMutability": "nonpayable",
      "type": "function"
    }
  ],
  "bytecode": "0x60806040523480156200001157600080fd5b506040516200487a3803806200487a833981810160405281019062000037919062000164565b6001600081905550600073ffffffffffffffffffffffffffffffffffffffff168173ffffffffffffffffffffffffffffffffffffffff161415620000b2576040517f08c379a0000000000000000000000000000000000000000000000000000000008152600401620000a990620001f7565b60405180910390fd5b80600360006101000a81548173ffffffffffffffffffffffffffffffffffffffff021916908373ffffffffffffffffffffffffffffffffffffffff1602179055505062000219565b600080fd5b600073ffffffffffffffffffffffffffffffffffffffff82169050919050565b60006200012c82620000ff565b9050919050565b6200013e816200011f565b81146200014a57600080fd5b50565b6000815190506200015e8162000133565b92915050565b6000602082840312156200017d576200017c620000fa565b5b60006200018d848285016200014d565b91505092915050565b600082825260208201905092915050565b7f46656520616464726573732063616e6e6f74206265207a65726f000000000000600082015250565b6000620001df601a8362000196565b9150620001ec82620001a7565b602082019050919050565b600060208201905081810360008301526200021281620001d0565b9050919050565b61465180620002296000396000f3fe6080604052600436106100f35760003560e01c806396faba9d1161008a578063c073b47211610059578063c073b4721461033c578063d04bc3f21461037e578063f436682a146103a7578063f779a193146103d0576100f3565b806396faba9d14610278578063a37365e0146102b5578063a7f323da146102d1578063bd94b00514610313576100f3565b806376cb6647116100c657806376cb6647146101b05780637a183e84146101d95780638e57ff16146101f557806396b195b61461023b576100f3565b8063150b7a02146100f85780631bf33004146101355780632bd87c4f1461015e57806354d6a2b714610187575b600080fd5b34801561010457600080fd5b5061011f600480360381019061011a919061335c565b6103f9565b60405161012c919061341a565b60405180910390f35b34801561014157600080fd5b5061015c60048036038101906101579190613435565b61040d565b005b34801561016a57600080fd5b5061018560048036038101906101809190613462565b61071d565b005b34801561019357600080fd5b506101ae60048036038101906101a99190613435565b610a40565b005b3480156101bc57600080fd5b506101d760048036038101906101d29190613462565b610c6a565b005b6101f360048036038101906101ee9190613435565b611330565b005b34801561020157600080fd5b5061021c60048036038101906102179190613435565b6116bb565b6040516102329a999897969594939291906134db565b60405180910390f35b34801561024757600080fd5b50610262600480360381019061025d9190613577565b611776565b60405161026f91906135ca565b60405180910390f35b34801561028457600080fd5b5061029f600480360381019061029a91906135e5565b611bd5565b6040516102ac919061374b565b60405180910390f35b6102cf60048036038101906102ca9190613435565b611c5e565b005b3480156102dd57600080fd5b506102f860048036038101906102f39190613462565b6122a2565b60405161030a9695949392919061376d565b60405180910390f35b34801561031f57600080fd5b5061033a60048036038101906103359190613435565b612348565b005b34801561034857600080fd5b50610363600480360381019061035e9190613435565b61259e565b604051610375969594939291906137ce565b60405180910390f35b34801561038a57600080fd5b506103a560048036038101906103a09190613435565b612647565b005b3480156103b357600080fd5b506103ce60048036038101906103c9919061382f565b6128fe565b005b3480156103dc57600080fd5b506103f760048036038101906103f29190613577565b612cca565b005b600063150b7a0260e01b9050949350505050565b6000600660008381526020019081526020016000206040518060c00160405290816000820160009054906101000a900473ffffffffffffffffffffffffffffffffffffffff1673ffffffffffffffffffffffffffffffffffffffff1673ffffffffffffffffffffffffffffffffffffffff1681526020016001820160009054906101000a900473ffffffffffffffffffffffffffffffffffffffff1673ffffffffffffffffffffffffffffffffffffffff1673ffffffffffffffffffffffffffffffffffffffff168152602001600282015481526020016003820160009054906101000a900473ffffffffffffffffffffffffffffffffffffffff1673ffffffffffffffffffffffffffffffffffffffff1673ffffffffffffffffffffffffffffffffffffffff168152602001600482015481526020016005820160009054906101000a900460ff16151515158152505090508060a001516105a4576040517f08c379a000000000000000000000000000000000000000000000000000000000815260040161059b906138f3565b60405180910390fd5b3373ffffffffffffffffffffffffffffffffffffffff16816060015173ffffffffffffffffffffffffffffffffffffffff1614610616576040517f08c379a000000000000000000000000000000000000000000000000000000000815260040161060d9061395f565b60405180910390fd5b60008160a0019015159081151581525050806000015173ffffffffffffffffffffffffffffffffffffffff166342842e0e303384604001516040518463ffffffff1660e01b815260040161066c9392919061397f565b600060405180830381600087803b15801561068657600080fd5b505af115801561069a573d6000803e3d6000fd5b50505050806000015173ffffffffffffffffffffffffffffffffffffffff166342842e0e33836020015184608001516040518463ffffffff1660e01b81526004016106e79392919061397f565b600060405180830381600087803b15801561070157600080fd5b505af1158015610715573d6000803e3d6000fd5b505050505050565b610725613052565b6004600083815260200190815260200160002060070160009054906101000a900473ffffffffffffffffffffffffffffffffffffffff1673ffffffffffffffffffffffffffffffffffffffff163373ffffffffffffffffffffffffffffffffffffffff16141561079457600080fd5b60006005600084815260200190815260200160002082815481106107bb576107ba6139b6565b5b90600052602060002090600602016040518060c001604052908160008201548152602001600182015481526020016002820160009054906101000a900473ffffffffffffffffffffffffffffffffffffffff1673ffffffffffffffffffffffffffffffffffffffff1673ffffffffffffffffffffffffffffffffffffffff1681526020016003820160009054906101000a900473ffffffffffffffffffffffffffffffffffffffff1673ffffffffffffffffffffffffffffffffffffffff1673ffffffffffffffffffffffffffffffffffffffff168152602001600482015481526020016005820160009054906101000a900460ff16151515158152505090508060800151600460008581526020019081526020016000206003015414156108e257600080fd5b3373ffffffffffffffffffffffffffffffffffffffff16816060015173ffffffffffffffffffffffffffffffffffffffff161461091e57600080fd5b8060a001511561092d57600080fd5b60003373ffffffffffffffffffffffffffffffffffffffff16826080015160405161095790613a16565b60006040518083038185875af1925050503d8060008114610994576040519150601f19603f3d011682016040523d82523d6000602084013e610999565b606091505b5050905080156109f75760016005600086815260200190815260200160002084815481106109ca576109c96139b6565b5b906000526020600020906006020160050160006101000a81548160ff021916908315150217905550610a32565b6040517f08c379a0000000000000000000000000000000000000000000000000000000008152600401610a2990613a77565b60405180910390fd5b5050610a3c6130a2565b5050565b6006600082815260200190815260200160002060010160009054906101000a900473ffffffffffffffffffffffffffffffffffffffff1673ffffffffffffffffffffffffffffffffffffffff163373ffffffffffffffffffffffffffffffffffffffff1614610ae4576040517f08c379a0000000000000000000000000000000000000000000000000000000008152600401610adb90613ae3565b60405180910390fd5b6006600082815260200190815260200160002060050160009054906101000a900460ff16610b47576040517f08c379a0000000000000000000000000000000000000000000000000000000008152600401610b3e90613b4f565b60405180910390fd5b60006006600083815260200190815260200160002060050160006101000a81548160ff0219169083151502179055506006600082815260200190815260200160002060000160009054906101000a900473ffffffffffffffffffffffffffffffffffffffff1673ffffffffffffffffffffffffffffffffffffffff166342842e0e306006600085815260200190815260200160002060010160009054906101000a900473ffffffffffffffffffffffffffffffffffffffff1660066000868152602001908152602001600020600201546040518463ffffffff1660e01b8152600401610c359392919061397f565b600060405180830381600087803b158015610c4f57600080fd5b505af1158015610c63573d6000803e3d6000fd5b5050505050565b610c72613052565b6000600560008481526020019081526020016000208281548110610c9957610c986139b6565b5b90600052602060002090600602016040518060c001604052908160008201548152602001600182015481526020016002820160009054906101000a900473ffffffffffffffffffffffffffffffffffffffff1673ffffffffffffffffffffffffffffffffffffffff1673ffffffffffffffffffffffffffffffffffffffff1681526020016003820160009054906101000a900473ffffffffffffffffffffffffffffffffffffffff1673ffffffffffffffffffffffffffffffffffffffff1673ffffffffffffffffffffffffffffffffffffffff168152602001600482015481526020016005820160009054906101000a900460ff16151515158152505090506004600084815260200190815260200160002060070160009054906101000a900473ffffffffffffffffffffffffffffffffffffffff1673ffffffffffffffffffffffffffffffffffffffff163373ffffffffffffffffffffffffffffffffffffffff1614610e0757600080fd5b8060a0015115610e1657600080fd5b6004600084815260200190815260200160002060040160029054906101000a900460ff16610e4357600080fd5b6000610e9b6004600086815260200190815260200160002060010160009054906101000a900473ffffffffffffffffffffffffffffffffffffffff166004600087815260200190815260200160002060020154611bd5565b905060006004600086815260200190815260200160002060040160026101000a81548160ff021916908315150217905550816080015160046000868152602001908152602001600020600301819055506001600560008681526020019081526020016000208481548110610f1257610f116139b6565b5b906000526020600020906006020160050160006101000a81548160ff0219169083151502179055506004600085815260200190815260200160002060010160009054906101000a900473ffffffffffffffffffffffffffffffffffffffff1673ffffffffffffffffffffffffffffffffffffffff166342842e0e30846060015160046000898152602001908152602001600020600201546040518463ffffffff1660e01b8152600401610fc79392919061397f565b600060405180830381600087803b158015610fe157600080fd5b505af1158015610ff5573d6000803e3d6000fd5b505050506000826080015190506000606484608001516110159190613bcd565b905060005b835181101561115d57600061271086608001518684815181106110405761103f6139b6565b5b6020026020010151602001516bffffffffffffffffffffffff166110649190613bfe565b61106e9190613bcd565b90506000858381518110611085576110846139b6565b5b60200260200101516000015173ffffffffffffffffffffffffffffffffffffffff16826040516110b490613a16565b60006040518083038185875af1925050503d80600081146110f1576040519150601f19603f3d011682016040523d82523d6000602084013e6110f6565b606091505b505090508061113a576040517f08c379a000000000000000000000000000000000000000000000000000000000815260040161113190613ca4565b60405180910390fd5b81856111469190613cc4565b94505050808061115590613cf8565b91505061101a565b5060003373ffffffffffffffffffffffffffffffffffffffff1682846111839190613cc4565b60405161118f90613a16565b60006040518083038185875af1925050503d80600081146111cc576040519150601f19603f3d011682016040523d82523d6000602084013e6111d1565b606091505b5050905080611215576040517f08c379a000000000000000000000000000000000000000000000000000000000815260040161120c90613d8d565b60405180910390fd5b6000600360009054906101000a900473ffffffffffffffffffffffffffffffffffffffff1673ffffffffffffffffffffffffffffffffffffffff168360405161125d90613a16565b60006040518083038185875af1925050503d806000811461129a576040519150601f19603f3d011682016040523d82523d6000602084013e61129f565b606091505b50509050806112e3576040517f08c379a00000000000000000000000000000000000000000000000000000000081526004016112da90613df9565b60405180910390fd5b7fc1a33fc6bb7dd982480f7d209db0c9ee0afb428b5f804be0268c066863032e4c866080015160405161131691906135ca565b60405180910390a150505050505061132c6130a2565b5050565b3373ffffffffffffffffffffffffffffffffffffffff166004600083815260200190815260200160002060070160009054906101000a900473ffffffffffffffffffffffffffffffffffffffff1673ffffffffffffffffffffffffffffffffffffffff16141561139f57600080fd5b6004600082815260200190815260200160002060040160029054906101000a900460ff166113cc57600080fd5b6004600082815260200190815260200160002060040160019054906101000a900460ff166113f957600080fd5b600460008281526020019081526020016000206006015442111561141c57600080fd5b346064600460008481526020019081526020016000206003015460056114429190613bfe565b61144c9190613bcd565b600460008481526020019081526020016000206003015461146d9190613e19565b11156114ae576040517f08c379a00000000000000000000000000000000000000000000000000000000081526004016114a590613ee1565b60405180910390fd5b60006040518060c00160405280600560008581526020019081526020016000208054905081526020018381526020016004600085815260200190815260200160002060070160009054906101000a900473ffffffffffffffffffffffffffffffffffffffff1673ffffffffffffffffffffffffffffffffffffffff1681526020013373ffffffffffffffffffffffffffffffffffffffff16815260200134815260200160001515815250905060056000838152602001908152602001600020819080600181540180825580915050600190039060005260206000209060060201600090919091909150600082015181600001556020820151816001015560408201518160020160006101000a81548173ffffffffffffffffffffffffffffffffffffffff021916908373ffffffffffffffffffffffffffffffffffffffff16021790555060608201518160030160006101000a81548173ffffffffffffffffffffffffffffffffffffffff021916908373ffffffffffffffffffffffffffffffffffffffff1602179055506080820151816004015560a08201518160050160006101000a81548160ff02191690831515021790555050503460046000848152602001908152602001600020600301819055507f6dfa77b86c3d87864e5b10df6b47557084e5534674ca734ebe53741276ce52d1816040516116af9190613fa9565b60405180910390a15050565b60046020528060005260406000206000915090508060000154908060010160009054906101000a900473ffffffffffffffffffffffffffffffffffffffff16908060020154908060030154908060040160009054906101000a900460ff16908060040160019054906101000a900460ff16908060040160029054906101000a900460ff16908060050154908060060154908060070160009054906101000a900473ffffffffffffffffffffffffffffffffffffffff1690508a565b600083838173ffffffffffffffffffffffffffffffffffffffff16636352211e826040518263ffffffff1660e01b81526004016117b391906135ca565b602060405180830381865afa1580156117d0573d6000803e3d6000fd5b505050506040513d601f19601f820116820180604052508101906117f49190613fd9565b73ffffffffffffffffffffffffffffffffffffffff163373ffffffffffffffffffffffffffffffffffffffff1614611861576040517f08c379a000000000000000000000000000000000000000000000000000000000815260040161185890614052565b60405180910390fd5b60008673ffffffffffffffffffffffffffffffffffffffff16636352211e866040518263ffffffff1660e01b815260040161189c91906135ca565b602060405180830381865afa1580156118b9573d6000803e3d6000fd5b505050506040513d601f19601f820116820180604052508101906118dd9190613fd9565b90503373ffffffffffffffffffffffffffffffffffffffff168173ffffffffffffffffffffffffffffffffffffffff16141561194e576040517f08c379a0000000000000000000000000000000000000000000000000000000008152600401611945906140be565b60405180910390fd5b600061195a60026130ac565b90508773ffffffffffffffffffffffffffffffffffffffff166342842e0e33308a6040518463ffffffff1660e01b81526004016119999392919061397f565b600060405180830381600087803b1580156119b357600080fd5b505af11580156119c7573d6000803e3d6000fd5b5050505060006040518060c001604052808a73ffffffffffffffffffffffffffffffffffffffff1681526020013373ffffffffffffffffffffffffffffffffffffffff1681526020018981526020018473ffffffffffffffffffffffffffffffffffffffff168152602001888152602001600115158152509050806006600084815260200190815260200160002060008201518160000160006101000a81548173ffffffffffffffffffffffffffffffffffffffff021916908373ffffffffffffffffffffffffffffffffffffffff16021790555060208201518160010160006101000a81548173ffffffffffffffffffffffffffffffffffffffff021916908373ffffffffffffffffffffffffffffffffffffffff1602179055506040820151816002015560608201518160030160006101000a81548173ffffffffffffffffffffffffffffffffffffffff021916908373ffffffffffffffffffffffffffffffffffffffff1602179055506080820151816004015560a08201518160050160006101000a81548160ff021916908315150217905550905050611b6b60026130ba565b818373ffffffffffffffffffffffffffffffffffffffff163373ffffffffffffffffffffffffffffffffffffffff167fffd321d9ac6e5d361fa3cfa4ee752259774415efa4ac8d50669dce82c183b8eb60405160405180910390a481955050505050509392505050565b60608273ffffffffffffffffffffffffffffffffffffffff1663bb3bafd6836040518263ffffffff1660e01b8152600401611c1091906135ca565b600060405180830381865afa158015611c2d573d6000803e3d6000fd5b505050506040513d6000823e3d601f19601f82011682018060405250810190611c569190614253565b905092915050565b611c66613052565b60006004600083815260200190815260200160002060405180610140016040529081600082015481526020016001820160009054906101000a900473ffffffffffffffffffffffffffffffffffffffff1673ffffffffffffffffffffffffffffffffffffffff1673ffffffffffffffffffffffffffffffffffffffff16815260200160028201548152602001600382015481526020016004820160009054906101000a900460ff161515151581526020016004820160019054906101000a900460ff161515151581526020016004820160029054906101000a900460ff1615151515815260200160058201548152602001600682015481526020016007820160009054906101000a900473ffffffffffffffffffffffffffffffffffffffff1673ffffffffffffffffffffffffffffffffffffffff1673ffffffffffffffffffffffffffffffffffffffff168152505090506000611dcc82602001518360400151611bd5565b90508160c00151611e12576040517f08c379a0000000000000000000000000000000000000000000000000000000008152600401611e09906142e8565b60405180910390fd5b600073ffffffffffffffffffffffffffffffffffffffff163373ffffffffffffffffffffffffffffffffffffffff1614158015611e80575081610120015173ffffffffffffffffffffffffffffffffffffffff163373ffffffffffffffffffffffffffffffffffffffff1614155b611ebf576040517f08c379a0000000000000000000000000000000000000000000000000000000008152600401611eb690614354565b60405180910390fd5b8160a0015115611ece57600080fd5b8160600151341015611f15576040517f08c379a0000000000000000000000000000000000000000000000000000000008152600401611f0c906143c0565b60405180910390fd5b611f3160046000858152602001908152602001600020336130d0565b600034905060003490506000606434611f4a9190613bcd565b905060005b845181101561208e57600061271084878481518110611f7157611f706139b6565b5b6020026020010151602001516bffffffffffffffffffffffff16611f959190613bfe565b611f9f9190613bcd565b90506000868381518110611fb657611fb56139b6565b5b60200260200101516000015173ffffffffffffffffffffffffffffffffffffffff1682604051611fe590613a16565b60006040518083038185875af1925050503d8060008114612022576040519150601f19603f3d011682016040523d82523d6000602084013e612027565b606091505b505090508061206b576040517f08c379a00000000000000000000000000000000000000000000000000000000081526004016120629061442c565b60405180910390fd5b81866120779190613cc4565b95505050808061208690613cf8565b915050611f4f565b50600085610120015173ffffffffffffffffffffffffffffffffffffffff1682856120b99190613cc4565b6040516120c590613a16565b60006040518083038185875af1925050503d8060008114612102576040519150601f19603f3d011682016040523d82523d6000602084013e612107565b606091505b505090508061214b576040517f08c379a000000000000000000000000000000000000000000000000000000000815260040161214290613d8d565b60405180910390fd5b6000600360009054906101000a900473ffffffffffffffffffffffffffffffffffffffff1673ffffffffffffffffffffffffffffffffffffffff168360405161219390613a16565b60006040518083038185875af1925050503d80600081146121d0576040519150601f19603f3d011682016040523d82523d6000602084013e6121d5565b606091505b5050905080612219576040517f08c379a000000000000000000000000000000000000000000000000000000000815260040161221090613df9565b60405180910390fd5b866020015173ffffffffffffffffffffffffffffffffffffffff166342842e0e30338a604001516040518463ffffffff1660e01b815260040161225e9392919061397f565b600060405180830381600087803b15801561227857600080fd5b505af115801561228c573d6000803e3d6000fd5b505050505050505050505061229f6130a2565b50565b600560205281600052604060002081815481106122be57600080fd5b9060005260206000209060060201600091509150508060000154908060010154908060020160009054906101000a900473ffffffffffffffffffffffffffffffffffffffff16908060030160009054906101000a900473ffffffffffffffffffffffffffffffffffffffff16908060040154908060050160009054906101000a900460ff16905086565b612350613052565b6004600082815260200190815260200160002060070160009054906101000a900473ffffffffffffffffffffffffffffffffffffffff1673ffffffffffffffffffffffffffffffffffffffff163373ffffffffffffffffffffffffffffffffffffffff16146123f4576040517f08c379a00000000000000000000000000000000000000000000000000000000081526004016123eb90613ae3565b60405180910390fd5b6004600082815260200190815260200160002060040160029054906101000a900460ff16612457576040517f08c379a000000000000000000000000000000000000000000000000000000000815260040161244e90614498565b60405180910390fd5b6000600460008381526020019081526020016000206003018190555060006004600083815260200190815260200160002060040160026101000a81548160ff0219169083151502179055506004600082815260200190815260200160002060010160009054906101000a900473ffffffffffffffffffffffffffffffffffffffff1673ffffffffffffffffffffffffffffffffffffffff166342842e0e306004600085815260200190815260200160002060070160009054906101000a900473ffffffffffffffffffffffffffffffffffffffff1660046000868152602001908152602001600020600201546040518463ffffffff1660e01b81526004016125619392919061397f565b600060405180830381600087803b15801561257b57600080fd5b505af115801561258f573d6000803e3d6000fd5b5050505061259b6130a2565b50565b60066020528060005260406000206000915090508060000160009054906101000a900473ffffffffffffffffffffffffffffffffffffffff16908060010160009054906101000a900473ffffffffffffffffffffffffffffffffffffffff16908060020154908060030160009054906101000a900473ffffffffffffffffffffffffffffffffffffffff16908060040154908060050160009054906101000a900460ff16905086565b6000600660008381526020019081526020016000206040518060c00160405290816000820160009054906101000a900473ffffffffffffffffffffffffffffffffffffffff1673ffffffffffffffffffffffffffffffffffffffff1673ffffffffffffffffffffffffffffffffffffffff1681526020016001820160009054906101000a900473ffffffffffffffffffffffffffffffffffffffff1673ffffffffffffffffffffffffffffffffffffffff1673ffffffffffffffffffffffffffffffffffffffff168152602001600282015481526020016003820160009054906101000a900473ffffffffffffffffffffffffffffffffffffffff1673ffffffffffffffffffffffffffffffffffffffff1673ffffffffffffffffffffffffffffffffffffffff168152602001600482015481526020016005820160009054906101000a900460ff16151515158152505090508060a001516127de576040517f08c379a00000000000000000000000000000000000000000000000000000000081526004016127d5906138f3565b60405180910390fd5b3373ffffffffffffffffffffffffffffffffffffffff16816060015173ffffffffffffffffffffffffffffffffffffffff1614612850576040517f08c379a00000000000000000000000000000000000000000000000000000000081526004016128479061395f565b60405180910390fd5b60006006600084815260200190815260200160002060050160006101000a81548160ff021916908315150217905550806000015173ffffffffffffffffffffffffffffffffffffffff166342842e0e30836020015184604001516040518463ffffffff1660e01b81526004016128c89392919061397f565b600060405180830381600087803b1580156128e257600080fd5b505af11580156128f6573d6000803e3d6000fd5b505050505050565b83838173ffffffffffffffffffffffffffffffffffffffff16636352211e826040518263ffffffff1660e01b815260040161293991906135ca565b602060405180830381865afa158015612956573d6000803e3d6000fd5b505050506040513d601f19601f8201168201806040525081019061297a9190613fd9565b73ffffffffffffffffffffffffffffffffffffffff163373ffffffffffffffffffffffffffffffffffffffff16146129e7576040517f08c379a00000000000000000000000000000000000000000000000000000000081526004016129de90614052565b60405180910390fd5b6129ef613052565b600073ffffffffffffffffffffffffffffffffffffffff168673ffffffffffffffffffffffffffffffffffffffff161415612a2957600080fd5b612a3360016130ba565b8573ffffffffffffffffffffffffffffffffffffffff166342842e0e3330886040518463ffffffff1660e01b8152600401612a709392919061397f565b600060405180830381600087803b158015612a8a57600080fd5b505af1158015612a9e573d6000803e3d6000fd5b505050506000604051806101400160405280612aba60016130ac565b81526020018873ffffffffffffffffffffffffffffffffffffffff1681526020018781526020018681526020016000151581526020016001151581526020016001151581526020014281526020018542612b149190613e19565b81526020013373ffffffffffffffffffffffffffffffffffffffff1681525090508060046000612b4460016130ac565b81526020019081526020016000206000820151816000015560208201518160010160006101000a81548173ffffffffffffffffffffffffffffffffffffffff021916908373ffffffffffffffffffffffffffffffffffffffff160217905550604082015181600201556060820151816003015560808201518160040160006101000a81548160ff02191690831515021790555060a08201518160040160016101000a81548160ff02191690831515021790555060c08201518160040160026101000a81548160ff02191690831515021790555060e0820151816005015561010082015181600601556101208201518160070160006101000a81548173ffffffffffffffffffffffffffffffffffffffff021916908373ffffffffffffffffffffffffffffffffffffffff1602179055509050507f2c28b1a4996f07ef4457782603fcee3454f1790eedb957cf72f54c35e12cb0b281612ca360016130ac565b604051612cb1929190614584565b60405180910390a150612cc26130a2565b505050505050565b82828173ffffffffffffffffffffffffffffffffffffffff16636352211e826040518263ffffffff1660e01b8152600401612d0591906135ca565b602060405180830381865afa158015612d22573d6000803e3d6000fd5b505050506040513d601f19601f82011682018060405250810190612d469190613fd9565b73ffffffffffffffffffffffffffffffffffffffff163373ffffffffffffffffffffffffffffffffffffffff1614612db3576040517f08c379a0000000000000000000000000000000000000000000000000000000008152600401612daa90614052565b60405180910390fd5b612dbb613052565b612dc560016130ba565b8473ffffffffffffffffffffffffffffffffffffffff166342842e0e3330876040518463ffffffff1660e01b8152600401612e029392919061397f565b600060405180830381600087803b158015612e1c57600080fd5b505af1158015612e30573d6000803e3d6000fd5b505050506000604051806101400160405280612e4c60016130ac565b81526020018773ffffffffffffffffffffffffffffffffffffffff16815260200186815260200185815260200160011515815260200160001515815260200160011515815260200160008152602001600081526020013373ffffffffffffffffffffffffffffffffffffffff1681525090508060046000612ecd60016130ac565b81526020019081526020016000206000820151816000015560208201518160010160006101000a81548173ffffffffffffffffffffffffffffffffffffffff021916908373ffffffffffffffffffffffffffffffffffffffff160217905550604082015181600201556060820151816003015560808201518160040160006101000a81548160ff02191690831515021790555060a08201518160040160016101000a81548160ff02191690831515021790555060c08201518160040160026101000a81548160ff02191690831515021790555060e0820151816005015561010082015181600601556101208201518160070160006101000a81548173ffffffffffffffffffffffffffffffffffffffff021916908373ffffffffffffffffffffffffffffffffffffffff1602179055509050507f2c28b1a4996f07ef4457782603fcee3454f1790eedb957cf72f54c35e12cb0b28161302c60016130ac565b60405161303a929190614584565b60405180910390a15061304b6130a2565b5050505050565b60026000541415613098576040517f08c379a000000000000000000000000000000000000000000000000000000000815260040161308f906145fb565b60405180910390fd5b6002600081905550565b6001600081905550565b600081600001549050919050565b6001816000016000828254019250508190555050565b808260070160006101000a81548173ffffffffffffffffffffffffffffffffffffffff021916908373ffffffffffffffffffffffffffffffffffffffff16021790555060008260040160026101000a81548160ff02191690831515021790555060008260040160006101000a81548160ff02191690831515021790555060008260040160016101000a81548160ff0219169083151502179055505050565b6000604051905090565b600080fd5b600080fd5b600073ffffffffffffffffffffffffffffffffffffffff82169050919050565b60006131ad82613182565b9050919050565b6131bd816131a2565b81146131c857600080fd5b50565b6000813590506131da816131b4565b92915050565b6000819050919050565b6131f3816131e0565b81146131fe57600080fd5b50565b600081359050613210816131ea565b92915050565b600080fd5b600080fd5b6000601f19601f8301169050919050565b7f4e487b7100000000000000000000000000000000000000000000000000000000600052604160045260246000fd5b61326982613220565b810181811067ffffffffffffffff8211171561328857613287613231565b5b80604052505050565b600061329b61316e565b90506132a78282613260565b919050565b600067ffffffffffffffff8211156132c7576132c6613231565b5b6132d082613220565b9050602081019050919050565b82818337600083830152505050565b60006132ff6132fa846132ac565b613291565b90508281526020810184848401111561331b5761331a61321b565b5b6133268482856132dd565b509392505050565b600082601f83011261334357613342613216565b5b81356133538482602086016132ec565b91505092915050565b6000806000806080858703121561337657613375613178565b5b6000613384878288016131cb565b9450506020613395878288016131cb565b93505060406133a687828801613201565b925050606085013567ffffffffffffffff8111156133c7576133c661317d565b5b6133d38782880161332e565b91505092959194509250565b60007fffffffff0000000000000000000000000000000000000000000000000000000082169050919050565b613414816133df565b82525050565b600060208201905061342f600083018461340b565b92915050565b60006020828403121561344b5761344a613178565b5b600061345984828501613201565b91505092915050565b6000806040838503121561347957613478613178565b5b600061348785828601613201565b925050602061349885828601613201565b9150509250929050565b6134ab816131e0565b82525050565b6134ba816131a2565b82525050565b60008115159050919050565b6134d5816134c0565b82525050565b6000610140820190506134f1600083018d6134a2565b6134fe602083018c6134b1565b61350b604083018b6134a2565b613518606083018a6134a2565b61352560808301896134cc565b61353260a08301886134cc565b61353f60c08301876134cc565b61354c60e08301866134a2565b61355a6101008301856134a2565b6135686101208301846134b1565b9b9a5050505050505050505050565b6000806000606084860312156135905761358f613178565b5b600061359e868287016131cb565b93505060206135af86828701613201565b92505060406135c086828701613201565b9150509250925092565b60006020820190506135df60008301846134a2565b92915050565b600080604083850312156135fc576135fb613178565b5b600061360a858286016131cb565b925050602061361b85828601613201565b9150509250929050565b600081519050919050565b600082825260208201905092915050565b6000819050602082019050919050565b600061365c82613182565b9050919050565b61366c81613651565b82525050565b60006bffffffffffffffffffffffff82169050919050565b61369381613672565b82525050565b6040820160008201516136af6000850182613663565b5060208201516136c2602085018261368a565b50505050565b60006136d48383613699565b60408301905092915050565b6000602082019050919050565b60006136f882613625565b6137028185613630565b935061370d83613641565b8060005b8381101561373e57815161372588826136c8565b9750613730836136e0565b925050600181019050613711565b5085935050505092915050565b6000602082019050818103600083015261376581846136ed565b905092915050565b600060c08201905061378260008301896134a2565b61378f60208301886134a2565b61379c60408301876134b1565b6137a960608301866134b1565b6137b660808301856134a2565b6137c360a08301846134cc565b979650505050505050565b600060c0820190506137e360008301896134b1565b6137f060208301886134b1565b6137fd60408301876134a2565b61380a60608301866134b1565b61381760808301856134a2565b61382460a08301846134cc565b979650505050505050565b6000806000806080858703121561384957613848613178565b5b6000613857878288016131cb565b945050602061386887828801613201565b935050604061387987828801613201565b925050606061388a87828801613201565b91505092959194509250565b600082825260208201905092915050565b7f746f6b656e206d757374206265206f6e20737761700000000000000000000000600082015250565b60006138dd601583613896565b91506138e8826138a7565b602082019050919050565b6000602082019050818103600083015261390c816138d0565b9050919050565b7f4f6e6c79206f776e65722063616e206163636570742073776170000000000000600082015250565b6000613949601a83613896565b915061395482613913565b602082019050919050565b600060208201905081810360008301526139788161393c565b9050919050565b600060608201905061399460008301866134b1565b6139a160208301856134b1565b6139ae60408301846134a2565b949350505050565b7f4e487b7100000000000000000000000000000000000000000000000000000000600052603260045260246000fd5b600081905092915050565b50565b6000613a006000836139e5565b9150613a0b826139f0565b600082019050919050565b6000613a21826139f3565b9150819050919050565b7f4e6f204d6f6e6579206c65667421000000000000000000000000000000000000600082015250565b6000613a61600e83613896565b9150613a6c82613a2b565b602082019050919050565b60006020820190508181036000830152613a9081613a54565b9050919050565b7f4f6e6c79206f776e65722063616e2063616e63656c2073616c65000000000000600082015250565b6000613acd601a83613896565b9150613ad882613a97565b602082019050919050565b60006020820190508181036000830152613afc81613ac0565b9050919050565b7f546f6b656e206e6f74206f6e2073776170000000000000000000000000000000600082015250565b6000613b39601183613896565b9150613b4482613b03565b602082019050919050565b60006020820190508181036000830152613b6881613b2c565b9050919050565b7f4e487b7100000000000000000000000000000000000000000000000000000000600052601260045260246000fd5b7f4e487b7100000000000000000000000000000000000000000000000000000000600052601160045260246000fd5b6000613bd8826131e0565b9150613be3836131e0565b925082613bf357613bf2613b6f565b5b828204905092915050565b6000613c09826131e0565b9150613c14836131e0565b9250817fffffffffffffffffffffffffffffffffffffffffffffffffffffffffffffffff0483118215151615613c4d57613c4c613b9e565b5b828202905092915050565b7f526f79616c7479207472616e73666572206661696c6564000000000000000000600082015250565b6000613c8e601783613896565b9150613c9982613c58565b602082019050919050565b60006020820190508181036000830152613cbd81613c81565b9050919050565b6000613ccf826131e0565b9150613cda836131e0565b925082821015613ced57613cec613b9e565b5b828203905092915050565b6000613d03826131e0565b91507fffffffffffffffffffffffffffffffffffffffffffffffffffffffffffffffff821415613d3657613d35613b9e565b5b600182019050919050565b7f5472616e73666572206661696c65640000000000000000000000000000000000600082015250565b6000613d77600f83613896565b9150613d8282613d41565b602082019050919050565b60006020820190508181036000830152613da681613d6a565b9050919050565b7f466565205472616e73666572206661696c656400000000000000000000000000600082015250565b6000613de3601383613896565b9150613dee82613dad565b602082019050919050565b60006020820190508181036000830152613e1281613dd6565b9050919050565b6000613e24826131e0565b9150613e2f836131e0565b9250827fffffffffffffffffffffffffffffffffffffffffffffffffffffffffffffffff03821115613e6457613e63613b9e565b5b828201905092915050565b7f4269642073686f756c64206265206d6f7265207468616e203525206f6620637560008201527f7272656e74206269640000000000000000000000000000000000000000000000602082015250565b6000613ecb602983613896565b9150613ed682613e6f565b604082019050919050565b60006020820190508181036000830152613efa81613ebe565b9050919050565b613f0a816131e0565b82525050565b613f19816131a2565b82525050565b613f28816134c0565b82525050565b60c082016000820151613f446000850182613f01565b506020820151613f576020850182613f01565b506040820151613f6a6040850182613f10565b506060820151613f7d6060850182613f10565b506080820151613f906080850182613f01565b5060a0820151613fa360a0850182613f1f565b50505050565b600060c082019050613fbe6000830184613f2e565b92915050565b600081519050613fd3816131b4565b92915050565b600060208284031215613fef57613fee613178565b5b6000613ffd84828501613fc4565b91505092915050565b7f4f6e6c7920746f6b656e206f776e65722063616e206578656375746500000000600082015250565b600061403c601c83613896565b915061404782614006565b602082019050919050565b6000602082019050818103600083015261406b8161402f565b9050919050565b7f43616e6e6f742053776170204265747765656e20596f757220546f6b656e7300600082015250565b60006140a8601f83613896565b91506140b382614072565b602082019050919050565b600060208201905081810360008301526140d78161409b565b9050919050565b600067ffffffffffffffff8211156140f9576140f8613231565b5b602082029050602081019050919050565b600080fd5b600080fd5b61411d81613651565b811461412857600080fd5b50565b60008151905061413a81614114565b92915050565b61414981613672565b811461415457600080fd5b50565b60008151905061416681614140565b92915050565b6000604082840312156141825761418161410f565b5b61418c6040613291565b9050600061419c8482850161412b565b60008301525060206141b084828501614157565b60208301525092915050565b60006141cf6141ca846140de565b613291565b905080838252602082019050604084028301858111156141f2576141f161410a565b5b835b8181101561421b5780614207888261416c565b8452602084019350506040810190506141f4565b5050509392505050565b600082601f83011261423a57614239613216565b5b815161424a8482602086016141bc565b91505092915050565b60006020828403121561426957614268613178565b5b600082015167ffffffffffffffff8111156142875761428661317d565b5b61429384828501614225565b91505092915050565b7f746f6b656e206d757374206265206f6e2073616c650000000000000000000000600082015250565b60006142d2601583613896565b91506142dd8261429c565b602082019050919050565b60006020820190508181036000830152614301816142c5565b9050919050565b7f696e76616c696420616464726573730000000000000000000000000000000000600082015250565b600061433e600f83613896565b915061434982614308565b602082019050919050565b6000602082019050818103600083015261436d81614331565b9050919050565b7f76616c7565206c657373207468616e2070726963650000000000000000000000600082015250565b60006143aa601583613896565b91506143b582614374565b602082019050919050565b600060208201905081810360008301526143d98161439d565b9050919050565b7f526f79616c7479205472616e73666572206661696c6564000000000000000000600082015250565b6000614416601783613896565b9150614421826143e0565b602082019050919050565b6000602082019050818103600083015261444581614409565b9050919050565b7f546f6b656e206e6f74206f6e2073616c65000000000000000000000000000000600082015250565b6000614482601183613896565b915061448d8261444c565b602082019050919050565b600060208201905081810360008301526144b181614475565b9050919050565b610140820160008201516144cf6000850182613f01565b5060208201516144e26020850182613f10565b5060408201516144f56040850182613f01565b5060608201516145086060850182613f01565b50608082015161451b6080850182613f1f565b5060a082015161452e60a0850182613f1f565b5060c082015161454160c0850182613f1f565b5060e082015161455460e0850182613f01565b50610100820151614569610100850182613f01565b5061012082015161457e610120850182613f10565b50505050565b60006101608201905061459a60008301856144b8565b6145a86101408301846134a2565b9392505050565b7f5265656e7472616e637947756172643a207265656e7472616e742063616c6c00600082015250565b60006145e5601f83613896565b91506145f0826145af565b602082019050919050565b60006020820190508181036000830152614614816145d8565b905091905056fea2646970667358221220d4e32c727d2699691564a6a060d0461f8a2791c71128735bed06ddc2a19e8f1764736f6c634300080b0033",
  "immutableReferences": {},
  "source": "// SPDX-License-Identifier: MIT\npragma solidity >=0.4.22 <0.9.0;\n\nimport \"@openzeppelin/contracts/token/ERC721/utils/ERC721Holder.sol\";\nimport \"@openzeppelin/contracts/token/ERC721/ERC721.sol\";\nimport \"@openzeppelin/contracts/access/Ownable.sol\";\nimport \"@openzeppelin/contracts/security/ReentrancyGuard.sol\";\nimport \"@openzeppelin/contracts/utils/Counters.sol\";\nimport \"./piNFT.sol\";\nimport \"./utils/LibShare.sol\";\n\ncontract piMarket is ERC721Holder, ReentrancyGuard {\n    using Counters for Counters.Counter;\n    Counters.Counter internal _saleIdCounter;\n    Counters.Counter private _swapIdCounter;\n\n    address internal feeAddress;\n\n    struct TokenMeta {\n        uint256 saleId;\n        address tokenContractAddress;\n        uint256 tokenId;\n        uint256 price;\n        bool directSale;\n        bool bidSale;\n        bool status;\n        uint256 bidStartTime;\n        uint256 bidEndTime;\n        address currentOwner;\n    }\n\n    struct BidOrder {\n        uint256 bidId;\n        uint256 saleId;\n        address sellerAddress;\n        address buyerAddress;\n        uint256 price;\n        bool withdrawn;\n    }\n\n    struct Swap {\n        address NFTContractAddress;\n        address initiator;\n        uint256 initiatorNftId;\n        address secondUser;\n        uint256 secondUserNftId;\n        bool status;\n    }\n\n\n    mapping(uint256 => TokenMeta) public _tokenMeta;\n    mapping(uint256 => BidOrder[]) public Bids;\n    mapping (uint256 => Swap) public _swaps;\n\n    event TokenMetaReturn(TokenMeta data, uint256 id);\n    event BidOrderReturn(BidOrder bid);\n    event BidExecuted(uint256 price);\n    event SwapProposed(\n        address indexed from,\n        address indexed to,\n        uint256 indexed swapId\n    );\n\n    constructor(address _feeAddress) {\n        require(_feeAddress != address(0), 'Fee address cannot be zero');\n        feeAddress = _feeAddress;\n    }\n\n    modifier onlyOwnerOfToken(address _piNFTAddress, uint256 _tokenId) {\n        require(msg.sender == ERC721(_piNFTAddress).ownerOf(_tokenId), 'Only token owner can execute');\n        _;\n    }\n\n    function sellNFT(address _piNFTAddress, uint256 _tokenId, uint256 _price) external onlyOwnerOfToken(_piNFTAddress, _tokenId)  nonReentrant {\n\n        _saleIdCounter.increment();\n\n        //needs approval on frontend\n        ERC721(_piNFTAddress).safeTransferFrom(\n        msg.sender,\n        address(this),\n        _tokenId\n        );\n\n        TokenMeta memory meta = TokenMeta(\n            _saleIdCounter.current(),\n            _piNFTAddress,\n            _tokenId,\n            _price,\n            true,\n            false,\n            true,\n            0,\n            0,\n            msg.sender\n        );\n\n        _tokenMeta[_saleIdCounter.current()] = meta;\n\n        emit TokenMetaReturn(meta, _saleIdCounter.current());\n    }\n\n    function retrieveRoyalty(\n        address _contractAddress,\n        uint256 _tokenId\n    ) public view returns (LibShare.Share[] memory) {\n        return piNFT(_contractAddress).getRoyalties(_tokenId);\n    }\n\n    function BuyNFT(uint256 _saleId) external payable nonReentrant {\n        TokenMeta memory meta = _tokenMeta[_saleId];\n\n        LibShare.Share[] memory royalties = retrieveRoyalty(\n            meta.tokenContractAddress,\n            meta.tokenId\n        );\n\n        require(meta.status, 'token must be on sale');\n        require(msg.sender != address(0) && msg.sender != meta.currentOwner, 'invalid address');\n        require(!meta.bidSale);\n        require(msg.value >= meta.price, 'value less than price');\n\n        transfer(_tokenMeta[_saleId], msg.sender);\n\n        uint256 sum = msg.value;\n        uint256 val = msg.value;\n        uint256 fee = msg.value / 100;\n\n        for (uint256 i = 0; i < royalties.length; i++) {\n            uint256 amount = (royalties[i].value * val) / 10000;\n            // address payable receiver = royalties[i].account;\n            (bool royalSuccess, ) = payable(royalties[i].account).call{ value: amount }(\"\");\n            require(royalSuccess, \"Royalty Transfer failed\");\n            sum = sum - amount;\n        }\n\n        (bool isSuccess, ) = payable(meta.currentOwner).call{ value: (sum - fee) }(\"\");\n        require(isSuccess, \"Transfer failed\");\n        (bool feeSuccess, ) = payable(feeAddress).call{ value: fee }(\"\");\n        require(feeSuccess, \"Fee Transfer failed\");\n        ERC721(meta.tokenContractAddress).safeTransferFrom(\n        address(this),\n        msg.sender,\n        meta.tokenId\n        );\n    }\n\n    function cancelSale(uint256 _saleId) external nonReentrant {\n    require(msg.sender == _tokenMeta[_saleId].currentOwner, 'Only owner can cancel sale');\n    require(_tokenMeta[_saleId].status, 'Token not on sale');\n\n    _tokenMeta[_saleId].price = 0;\n    _tokenMeta[_saleId].status = false;\n    ERC721(_tokenMeta[_saleId].tokenContractAddress).safeTransferFrom(\n      address(this),\n      _tokenMeta[_saleId].currentOwner,\n      _tokenMeta[_saleId].tokenId\n    );\n  }\n\n    function SellNFT_byBid(\n    address _piNFTAddress,\n    uint256 _tokenId,\n    uint256 _price,\n    uint256 _bidTime\n  ) external onlyOwnerOfToken(_piNFTAddress, _tokenId) nonReentrant {\n    require(_piNFTAddress != address(0));\n    _saleIdCounter.increment();\n\n    //needs approval on frontend\n    ERC721(_piNFTAddress).safeTransferFrom(\n      msg.sender,\n      address(this),\n      _tokenId\n    );\n\n    TokenMeta memory meta = TokenMeta(\n      _saleIdCounter.current(),\n      _piNFTAddress,\n      _tokenId,\n      _price,\n      false,\n      true,\n      true,\n      block.timestamp,\n      block.timestamp + _bidTime,\n      msg.sender\n    );\n\n    _tokenMeta[_saleIdCounter.current()] = meta;\n\n    emit TokenMetaReturn(meta, _saleIdCounter.current());\n  }\n\n  function Bid(uint256 _saleId) external payable {\n    require(_tokenMeta[_saleId].currentOwner != msg.sender);\n    require(_tokenMeta[_saleId].status);\n    require(_tokenMeta[_saleId].bidSale);\n    require(block.timestamp <= _tokenMeta[_saleId].bidEndTime);\n    require(\n      _tokenMeta[_saleId].price + ((5 * _tokenMeta[_saleId].price) / 100) <=\n        msg.value,\n        'Bid should be more than 5% of current bid'\n    );\n    //  require(_timeOfAuction[_saleId] >= block.timestamp,\"Auction Over\");\n\n    BidOrder memory bid = BidOrder(\n      Bids[_saleId].length,\n      _saleId,\n      _tokenMeta[_saleId].currentOwner,\n      msg.sender,\n      msg.value,\n      false\n    );\n    Bids[_saleId].push(bid);\n    _tokenMeta[_saleId].price = msg.value;\n\n    emit BidOrderReturn(bid);\n\n    }\n\n    function executeBidOrder(uint256 _saleId, uint256 _bidOrderID)\n    external\n    nonReentrant\n  {\n    BidOrder memory bids = Bids[_saleId][_bidOrderID];\n    require(msg.sender == _tokenMeta[_saleId].currentOwner);\n    require(!bids.withdrawn);\n    require(_tokenMeta[_saleId].status);\n\n    LibShare.Share[] memory royalties = retrieveRoyalty(\n      _tokenMeta[_saleId].tokenContractAddress,\n      _tokenMeta[_saleId].tokenId\n    );\n\n    _tokenMeta[_saleId].status = false;\n    _tokenMeta[_saleId].price = bids.price;\n    Bids[_saleId][_bidOrderID].withdrawn = true;\n\n    ERC721(_tokenMeta[_saleId].tokenContractAddress).safeTransferFrom(\n      address(this),\n      bids.buyerAddress,\n      _tokenMeta[_saleId].tokenId\n    );\n\n    uint256 sum = bids.price;\n    uint256 fee = bids.price / 100;\n\n    for (uint256 i = 0; i < royalties.length; i++) {\n      uint256 amount = (royalties[i].value * bids.price) /\n        10000;\n      // address payable receiver = royalties[i].account;\n      (bool royalSuccess, ) = payable(royalties[i].account).call{ value: amount }(\"\");\n      require(royalSuccess, \"Royalty transfer failed\");\n      sum = sum - amount;\n    }\n\n    (bool isSuccess, ) = payable(msg.sender).call{ value: (sum - fee) }(\"\");\n    require(isSuccess, \"Transfer failed\");\n    (bool feeSuccess, ) = payable(feeAddress).call{ value: fee }(\"\");\n    require(feeSuccess, \"Fee Transfer failed\");\n\n    emit BidExecuted(bids.price);\n\n  }\n\n    function withdrawBidMoney(uint256 _saleId, uint256 _bidId)\n    external\n    nonReentrant\n  {\n    require(msg.sender != _tokenMeta[_saleId].currentOwner);\n    // BidOrder[] memory bids = Bids[_tokenId];\n    BidOrder memory bids = Bids[_saleId][_bidId];\n    require(_tokenMeta[_saleId].price != bids.price);\n    require(bids.buyerAddress == msg.sender);\n    require(!bids.withdrawn);\n    (bool success, ) = payable(msg.sender).call{\n      value: bids.price\n    }(\"\");\n    if (success) {\n      Bids[_saleId][_bidId].withdrawn = true;\n    } else {\n      revert(\"No Money left!\");\n    }\n  }\n\n    function transfer(TokenMeta storage token, address _to ) internal{\n        token.currentOwner = _to;\n        token.status = false;\n        token.directSale = false ;\n        token.bidSale = false ;\n\n    }\n\n    function swapTokens(address piNFTAddress, uint256 token1, uint256 token2) public onlyOwnerOfToken(piNFTAddress, token1) returns(uint256) {\n        address token2Owner = ERC721((piNFTAddress)).ownerOf(token2);\n        require(token2Owner != msg.sender, \"Cannot Swap Between Your Tokens\");\n        uint256 swapsId = _swapIdCounter.current();\n\n        ERC721(piNFTAddress).safeTransferFrom(msg.sender, address(this), token1);\n\n        Swap memory swap = Swap(\n            piNFTAddress,\n            msg.sender,\n            token1,\n            token2Owner,\n            token2,\n            true\n        );\n\n        _swaps[swapsId] = swap;\n\n        _swapIdCounter.increment();\n\n        emit SwapProposed(\n            msg.sender,\n            token2Owner,\n            swapsId\n        );\n\n        return swapsId;\n    }\n\n    function cancelSwap(uint256 _swapId) public {\n      require(msg.sender == _swaps[_swapId].initiator, 'Only owner can cancel sale');\n      require(_swaps[_swapId].status, 'Token not on swap');\n      _swaps[_swapId].status = false;\n      ERC721(_swaps[_swapId].NFTContractAddress).safeTransferFrom(\n        address(this),\n        _swaps[_swapId].initiator,\n        _swaps[_swapId].initiatorNftId\n      );\n    }\n\n    function acceptSwap(uint256 swapId) public{\n        Swap memory swap = _swaps[swapId];\n        require(swap.status, \"token must be on swap\");\n        require(swap.secondUser == msg.sender, \"Only owner can accept swap\");\n        swap.status = false;\n        ERC721(swap.NFTContractAddress).safeTransferFrom(\n            address(this),\n            msg.sender,\n            swap.initiatorNftId\n        );\n        ERC721(swap.NFTContractAddress).safeTransferFrom(\n            msg.sender,\n            swap.initiator,\n            swap.secondUserNftId\n        );\n        \n    }\n\n    function rejectSwap(uint256 swapId) public{\n      Swap memory swap = _swaps[swapId];\n      require(swap.status, \"token must be on swap\");\n      require(swap.secondUser == msg.sender, \"Only owner can accept swap\");\n      _swaps[swapId].status = false;\n      ERC721(swap.NFTContractAddress).safeTransferFrom(\n            address(this),\n            swap.initiator,\n            swap.initiatorNftId\n        );\n    }\n}",
  "sourcePath": "/Users/sanskarkhare/Desktop/Pandora/aconomy-contract/contracts/piMarket.sol",
  "compiler": {
    "name": "solc",
    "version": "0.8.11+commit.d7f03943.Emscripten.clang"
  },
  "schemaVersion": "3.4.4",
  "updatedAt": "2023-02-03T05:37:07.302Z",
  "devdoc": {
    "kind": "dev",
    "methods": {
      "onERC721Received(address,address,uint256,bytes)": {
        "details": "See {IERC721Receiver-onERC721Received}. Always returns `IERC721Receiver.onERC721Received.selector`."
      }
    },
    "version": 1
  },
  "userdoc": {
    "kind": "user",
    "methods": {},
    "version": 1
  }
}