{
  "contractName": "piMarket",
  "abi": [
    {
      "inputs": [
        {
          "internalType": "address",
          "name": "_feeAddress",
          "type": "address"
        }
      ],
      "stateMutability": "nonpayable",
      "type": "constructor"
    },
    {
      "anonymous": false,
      "inputs": [
        {
          "indexed": false,
          "internalType": "uint256",
          "name": "saleId",
          "type": "uint256"
        },
        {
          "indexed": false,
          "internalType": "uint256",
          "name": "bidId",
          "type": "uint256"
        }
      ],
      "name": "BidCreated",
      "type": "event"
    },
    {
      "anonymous": false,
      "inputs": [
        {
          "indexed": false,
          "internalType": "uint256",
          "name": "saleId",
          "type": "uint256"
        },
        {
          "indexed": false,
          "internalType": "uint256",
          "name": "bidId",
          "type": "uint256"
        },
        {
          "indexed": false,
          "internalType": "uint256",
          "name": "price",
          "type": "uint256"
        }
      ],
      "name": "BidExecuted",
      "type": "event"
    },
    {
      "anonymous": false,
      "inputs": [
        {
          "indexed": false,
          "internalType": "uint256",
          "name": "saleId",
          "type": "uint256"
        },
        {
          "indexed": false,
          "internalType": "uint256",
          "name": "bidId",
          "type": "uint256"
        }
      ],
      "name": "BidWithdrawn",
      "type": "event"
    },
    {
      "anonymous": false,
      "inputs": [
        {
          "indexed": false,
          "internalType": "uint256",
          "name": "saleId",
          "type": "uint256"
        },
        {
          "indexed": false,
          "internalType": "address",
          "name": "buyer",
          "type": "address"
        }
      ],
      "name": "NFTBought",
      "type": "event"
    },
    {
      "anonymous": false,
      "inputs": [
        {
          "indexed": false,
          "internalType": "uint256",
          "name": "saleId",
          "type": "uint256"
        }
      ],
      "name": "SaleCancelled",
      "type": "event"
    },
    {
      "anonymous": false,
      "inputs": [
        {
          "indexed": false,
          "internalType": "uint256",
          "name": "tokenId",
          "type": "uint256"
        },
        {
          "indexed": false,
          "internalType": "address",
          "name": "tokenContract",
          "type": "address"
        },
        {
          "indexed": false,
          "internalType": "uint256",
          "name": "saleId",
          "type": "uint256"
        }
      ],
      "name": "SaleCreated",
      "type": "event"
    },
    {
      "anonymous": false,
      "inputs": [
        {
          "indexed": false,
          "internalType": "uint256",
          "name": "swapId",
          "type": "uint256"
        }
      ],
      "name": "SwapAccepted",
      "type": "event"
    },
    {
      "anonymous": false,
      "inputs": [
        {
          "indexed": false,
          "internalType": "uint256",
          "name": "swapId",
          "type": "uint256"
        }
      ],
      "name": "SwapCancelled",
      "type": "event"
    },
    {
      "anonymous": false,
      "inputs": [
        {
          "indexed": true,
          "internalType": "address",
          "name": "from",
          "type": "address"
        },
        {
          "indexed": true,
          "internalType": "address",
          "name": "to",
          "type": "address"
        },
        {
          "indexed": true,
          "internalType": "uint256",
          "name": "swapId",
          "type": "uint256"
        }
      ],
      "name": "SwapProposed",
      "type": "event"
    },
    {
      "anonymous": false,
      "inputs": [
        {
          "indexed": false,
          "internalType": "uint256",
          "name": "swapId",
          "type": "uint256"
        }
      ],
      "name": "SwapRejected",
      "type": "event"
    },
    {
      "anonymous": false,
      "inputs": [
        {
          "indexed": false,
          "internalType": "uint256",
          "name": "saleId",
          "type": "uint256"
        },
        {
          "indexed": false,
          "internalType": "uint256",
          "name": "Price",
          "type": "uint256"
        }
      ],
      "name": "updatedSalePrice",
      "type": "event"
    },
    {
      "inputs": [
        {
          "internalType": "uint256",
          "name": "",
          "type": "uint256"
        },
        {
          "internalType": "uint256",
          "name": "",
          "type": "uint256"
        }
      ],
      "name": "Bids",
      "outputs": [
        {
          "internalType": "uint256",
          "name": "bidId",
          "type": "uint256"
        },
        {
          "internalType": "uint256",
          "name": "saleId",
          "type": "uint256"
        },
        {
          "internalType": "address",
          "name": "sellerAddress",
          "type": "address"
        },
        {
          "internalType": "address",
          "name": "buyerAddress",
          "type": "address"
        },
        {
          "internalType": "uint256",
          "name": "price",
          "type": "uint256"
        },
        {
          "internalType": "bool",
          "name": "withdrawn",
          "type": "bool"
        }
      ],
      "stateMutability": "view",
      "type": "function"
    },
    {
      "inputs": [
        {
          "internalType": "uint256",
          "name": "",
          "type": "uint256"
        }
      ],
      "name": "_swaps",
      "outputs": [
        {
          "internalType": "address",
          "name": "NFTContractAddress",
          "type": "address"
        },
        {
          "internalType": "address",
          "name": "initiator",
          "type": "address"
        },
        {
          "internalType": "uint256",
          "name": "initiatorNftId",
          "type": "uint256"
        },
        {
          "internalType": "address",
          "name": "secondUser",
          "type": "address"
        },
        {
          "internalType": "uint256",
          "name": "secondUserNftId",
          "type": "uint256"
        },
        {
          "internalType": "bool",
          "name": "status",
          "type": "bool"
        }
      ],
      "stateMutability": "view",
      "type": "function"
    },
    {
      "inputs": [
        {
          "internalType": "uint256",
          "name": "",
          "type": "uint256"
        }
      ],
      "name": "_tokenMeta",
      "outputs": [
        {
          "internalType": "uint256",
          "name": "saleId",
          "type": "uint256"
        },
        {
          "internalType": "address",
          "name": "tokenContractAddress",
          "type": "address"
        },
        {
          "internalType": "uint256",
          "name": "tokenId",
          "type": "uint256"
        },
        {
          "internalType": "uint256",
          "name": "price",
          "type": "uint256"
        },
        {
          "internalType": "bool",
          "name": "directSale",
          "type": "bool"
        },
        {
          "internalType": "bool",
          "name": "bidSale",
          "type": "bool"
        },
        {
          "internalType": "bool",
          "name": "status",
          "type": "bool"
        },
        {
          "internalType": "uint256",
          "name": "bidStartTime",
          "type": "uint256"
        },
        {
          "internalType": "uint256",
          "name": "bidEndTime",
          "type": "uint256"
        },
        {
          "internalType": "address",
          "name": "currentOwner",
          "type": "address"
        }
      ],
      "stateMutability": "view",
      "type": "function"
    },
    {
      "inputs": [
        {
          "internalType": "address",
          "name": "",
          "type": "address"
        },
        {
          "internalType": "address",
          "name": "",
          "type": "address"
        },
        {
          "internalType": "uint256",
          "name": "",
          "type": "uint256"
        },
        {
          "internalType": "bytes",
          "name": "",
          "type": "bytes"
        }
      ],
      "name": "onERC721Received",
      "outputs": [
        {
          "internalType": "bytes4",
          "name": "",
          "type": "bytes4"
        }
      ],
      "stateMutability": "nonpayable",
      "type": "function"
    },
    {
      "inputs": [
        {
          "internalType": "address",
          "name": "_contractAddress",
          "type": "address"
        },
        {
          "internalType": "uint256",
          "name": "_tokenId",
          "type": "uint256"
        },
        {
          "internalType": "uint256",
          "name": "_price",
          "type": "uint256"
        }
      ],
      "name": "sellNFT",
      "outputs": [],
      "stateMutability": "nonpayable",
      "type": "function"
    },
    {
      "inputs": [
        {
          "internalType": "uint256",
          "name": "_saleId",
          "type": "uint256"
        },
        {
          "internalType": "uint256",
          "name": "_price",
          "type": "uint256"
        }
      ],
      "name": "editSalePrice",
      "outputs": [],
      "stateMutability": "nonpayable",
      "type": "function"
    },
    {
      "inputs": [
        {
          "internalType": "address",
          "name": "_contractAddress",
          "type": "address"
        },
        {
          "internalType": "uint256",
          "name": "_tokenId",
          "type": "uint256"
        }
      ],
      "name": "retrieveRoyalty",
      "outputs": [
        {
          "components": [
            {
              "internalType": "address payable",
              "name": "account",
              "type": "address"
            },
            {
              "internalType": "uint96",
              "name": "value",
              "type": "uint96"
            }
          ],
          "internalType": "struct LibShare.Share[]",
          "name": "",
          "type": "tuple[]"
        }
      ],
      "stateMutability": "view",
      "type": "function"
    },
    {
      "inputs": [
        {
          "internalType": "address",
          "name": "_collectionFactoryAddress",
          "type": "address"
        },
        {
          "internalType": "uint256",
          "name": "_collectionId",
          "type": "uint256"
        }
      ],
      "name": "getCollectionRoyalty",
      "outputs": [
        {
          "components": [
            {
              "internalType": "address payable",
              "name": "account",
              "type": "address"
            },
            {
              "internalType": "uint96",
              "name": "value",
              "type": "uint96"
            }
          ],
          "internalType": "struct LibShare.Share[]",
          "name": "",
          "type": "tuple[]"
        }
      ],
      "stateMutability": "view",
      "type": "function"
    },
    {
      "inputs": [
        {
          "internalType": "address",
          "name": "_collectionAddress",
          "type": "address"
        },
        {
          "internalType": "uint256",
          "name": "_tokenId",
          "type": "uint256"
        }
      ],
      "name": "getCollectionValidatorRoyalty",
      "outputs": [
        {
          "components": [
            {
              "internalType": "address payable",
              "name": "account",
              "type": "address"
            },
            {
              "internalType": "uint96",
              "name": "value",
              "type": "uint96"
            }
          ],
          "internalType": "struct LibShare.Share[]",
          "name": "",
          "type": "tuple[]"
        }
      ],
      "stateMutability": "view",
      "type": "function"
    },
    {
      "inputs": [
        {
          "internalType": "address",
          "name": "_contractAddress",
          "type": "address"
        },
        {
          "internalType": "uint256",
          "name": "_tokenId",
          "type": "uint256"
        }
      ],
      "name": "retrieveValidatorRoyalty",
      "outputs": [
        {
          "components": [
            {
              "internalType": "address payable",
              "name": "account",
              "type": "address"
            },
            {
              "internalType": "uint96",
              "name": "value",
              "type": "uint96"
            }
          ],
          "internalType": "struct LibShare.Share[]",
          "name": "",
          "type": "tuple[]"
        }
      ],
      "stateMutability": "view",
      "type": "function"
    },
    {
      "inputs": [
        {
          "internalType": "uint256",
          "name": "_saleId",
          "type": "uint256"
        },
        {
          "internalType": "bool",
          "name": "_fromCollection",
          "type": "bool"
        }
      ],
      "name": "BuyNFT",
      "outputs": [],
      "stateMutability": "payable",
      "type": "function"
    },
    {
      "inputs": [
        {
          "internalType": "uint256",
          "name": "_saleId",
          "type": "uint256"
        }
      ],
      "name": "cancelSale",
      "outputs": [],
      "stateMutability": "nonpayable",
      "type": "function"
    },
    {
      "inputs": [
        {
          "internalType": "address",
          "name": "_contractAddress",
          "type": "address"
        },
        {
          "internalType": "uint256",
          "name": "_tokenId",
          "type": "uint256"
        },
        {
          "internalType": "uint256",
          "name": "_price",
          "type": "uint256"
        },
        {
          "internalType": "uint256",
          "name": "_bidTime",
          "type": "uint256"
        }
      ],
      "name": "SellNFT_byBid",
      "outputs": [],
      "stateMutability": "nonpayable",
      "type": "function"
    },
    {
      "inputs": [
        {
          "internalType": "uint256",
          "name": "_saleId",
          "type": "uint256"
        }
      ],
      "name": "Bid",
      "outputs": [],
      "stateMutability": "payable",
      "type": "function"
    },
    {
      "inputs": [
        {
          "internalType": "uint256",
          "name": "_saleId",
          "type": "uint256"
        },
        {
          "internalType": "uint256",
          "name": "_bidOrderID",
          "type": "uint256"
        },
        {
          "internalType": "bool",
          "name": "_fromCollection",
          "type": "bool"
        }
      ],
      "name": "executeBidOrder",
      "outputs": [],
      "stateMutability": "nonpayable",
      "type": "function"
    },
    {
      "inputs": [
        {
          "internalType": "uint256",
          "name": "_saleId",
          "type": "uint256"
        },
        {
          "internalType": "uint256",
          "name": "_bidId",
          "type": "uint256"
        }
      ],
      "name": "withdrawBidMoney",
      "outputs": [],
      "stateMutability": "nonpayable",
      "type": "function"
    },
    {
      "inputs": [
        {
          "internalType": "address",
          "name": "contractAddress",
          "type": "address"
        },
        {
          "internalType": "uint256",
          "name": "token1",
          "type": "uint256"
        },
        {
          "internalType": "uint256",
          "name": "token2",
          "type": "uint256"
        }
      ],
      "name": "swapTokens",
      "outputs": [
        {
          "internalType": "uint256",
          "name": "",
          "type": "uint256"
        }
      ],
      "stateMutability": "nonpayable",
      "type": "function"
    },
    {
      "inputs": [
        {
          "internalType": "uint256",
          "name": "_swapId",
          "type": "uint256"
        }
      ],
      "name": "cancelSwap",
      "outputs": [],
      "stateMutability": "nonpayable",
      "type": "function"
    },
    {
      "inputs": [
        {
          "internalType": "uint256",
          "name": "swapId",
          "type": "uint256"
        }
      ],
      "name": "acceptSwap",
      "outputs": [],
      "stateMutability": "nonpayable",
      "type": "function"
    },
    {
      "inputs": [
        {
          "internalType": "uint256",
          "name": "swapId",
          "type": "uint256"
        }
      ],
      "name": "rejectSwap",
      "outputs": [],
      "stateMutability": "nonpayable",
      "type": "function"
    }
  ],
  "bytecode": "0x60806040523480156200001157600080fd5b506040516200555e3803806200555e833981810160405281019062000037919062000164565b6001600081905550600073ffffffffffffffffffffffffffffffffffffffff168173ffffffffffffffffffffffffffffffffffffffff161415620000b2576040517f08c379a0000000000000000000000000000000000000000000000000000000008152600401620000a990620001f7565b60405180910390fd5b80600360006101000a81548173ffffffffffffffffffffffffffffffffffffffff021916908373ffffffffffffffffffffffffffffffffffffffff1602179055505062000219565b600080fd5b600073ffffffffffffffffffffffffffffffffffffffff82169050919050565b60006200012c82620000ff565b9050919050565b6200013e816200011f565b81146200014a57600080fd5b50565b6000815190506200015e8162000133565b92915050565b6000602082840312156200017d576200017c620000fa565b5b60006200018d848285016200014d565b91505092915050565b600082825260208201905092915050565b7f46656520616464726573732063616e6e6f74206265207a65726f000000000000600082015250565b6000620001df601a8362000196565b9150620001ec82620001a7565b602082019050919050565b600060208201905081810360008301526200021281620001d0565b9050919050565b61533580620002296000396000f3fe60806040526004361061011f5760003560e01c806396faba9d116100a0578063c073b47211610064578063c073b4721461040b578063ca87ad301461044d578063d04bc3f21461048a578063f436682a146104b3578063f779a193146104dc5761011f565b806396faba9d146102fd578063a7f323da1461033a578063b6b4e1021461037c578063bd94b005146103b9578063bfb9639d146103e25761011f565b806375746bcd116100e757806375746bcd146102055780637a183e841461022157806386dc814b1461023d5780638e57ff161461027a57806396b195b6146102c05761011f565b8063150b7a02146101245780631bf33004146101615780632bc09e771461018a5780632bd87c4f146101b357806354d6a2b7146101dc575b600080fd5b34801561013057600080fd5b5061014b60048036038101906101469190613ea5565b610505565b6040516101589190613f63565b60405180910390f35b34801561016d57600080fd5b5061018860048036038101906101839190613f7e565b610519565b005b34801561019657600080fd5b506101b160048036038101906101ac9190613fe3565b610870565b005b3480156101bf57600080fd5b506101da60048036038101906101d59190614036565b611198565b005b3480156101e857600080fd5b5061020360048036038101906101fe9190613f7e565b6114f4565b005b61021f600480360381019061021a9190614076565b611765565b005b61023b60048036038101906102369190613f7e565b611f6f565b005b34801561024957600080fd5b50610264600480360381019061025f91906140b6565b61231e565b604051610271919061421c565b60405180910390f35b34801561028657600080fd5b506102a1600480360381019061029c9190613f7e565b6123a7565b6040516102b79a9998979695949392919061426b565b60405180910390f35b3480156102cc57600080fd5b506102e760048036038101906102e29190614307565b612462565b6040516102f4919061435a565b60405180910390f35b34801561030957600080fd5b50610324600480360381019061031f91906140b6565b612941565b604051610331919061421c565b60405180910390f35b34801561034657600080fd5b50610361600480360381019061035c9190614036565b6129ca565b60405161037396959493929190614375565b60405180910390f35b34801561038857600080fd5b506103a3600480360381019061039e91906140b6565b612a70565b6040516103b0919061421c565b60405180910390f35b3480156103c557600080fd5b506103e060048036038101906103db9190613f7e565b612af9565b005b3480156103ee57600080fd5b5061040960048036038101906104049190614036565b612d86565b005b34801561041757600080fd5b50610432600480360381019061042d9190613f7e565b612f6d565b604051610444969594939291906143d6565b60405180910390f35b34801561045957600080fd5b50610474600480360381019061046f91906140b6565b613016565b604051610481919061421c565b60405180910390f35b34801561049657600080fd5b506104b160048036038101906104ac9190613f7e565b61309f565b005b3480156104bf57600080fd5b506104da60048036038101906104d59190614437565b61339d565b005b3480156104e857600080fd5b5061050360048036038101906104fe9190614307565b6137a1565b005b600063150b7a0260e01b9050949350505050565b610521613b9b565b6000600660008381526020019081526020016000206040518060c00160405290816000820160009054906101000a900473ffffffffffffffffffffffffffffffffffffffff1673ffffffffffffffffffffffffffffffffffffffff1673ffffffffffffffffffffffffffffffffffffffff1681526020016001820160009054906101000a900473ffffffffffffffffffffffffffffffffffffffff1673ffffffffffffffffffffffffffffffffffffffff1673ffffffffffffffffffffffffffffffffffffffff168152602001600282015481526020016003820160009054906101000a900473ffffffffffffffffffffffffffffffffffffffff1673ffffffffffffffffffffffffffffffffffffffff1673ffffffffffffffffffffffffffffffffffffffff168152602001600482015481526020016005820160009054906101000a900460ff16151515158152505090508060a001516106b8576040517f08c379a00000000000000000000000000000000000000000000000000000000081526004016106af906144fb565b60405180910390fd5b3373ffffffffffffffffffffffffffffffffffffffff16816060015173ffffffffffffffffffffffffffffffffffffffff161461072a576040517f08c379a000000000000000000000000000000000000000000000000000000000815260040161072190614567565b60405180910390fd5b60008160a0019015159081151581525050806000015173ffffffffffffffffffffffffffffffffffffffff166342842e0e303384604001516040518463ffffffff1660e01b815260040161078093929190614587565b600060405180830381600087803b15801561079a57600080fd5b505af11580156107ae573d6000803e3d6000fd5b50505050806000015173ffffffffffffffffffffffffffffffffffffffff166342842e0e33836020015184608001516040518463ffffffff1660e01b81526004016107fb93929190614587565b600060405180830381600087803b15801561081557600080fd5b505af1158015610829573d6000803e3d6000fd5b505050507f7080e652b0056fb27597071d591828292afd96fd17bc428ff26dfcca4acc52308260405161085c919061435a565b60405180910390a15061086d613beb565b50565b610878613b9b565b600060056000858152602001908152602001600020838154811061089f5761089e6145be565b5b90600052602060002090600602016040518060c001604052908160008201548152602001600182015481526020016002820160009054906101000a900473ffffffffffffffffffffffffffffffffffffffff1673ffffffffffffffffffffffffffffffffffffffff1673ffffffffffffffffffffffffffffffffffffffff1681526020016003820160009054906101000a900473ffffffffffffffffffffffffffffffffffffffff1673ffffffffffffffffffffffffffffffffffffffff1673ffffffffffffffffffffffffffffffffffffffff168152602001600482015481526020016005820160009054906101000a900460ff16151515158152505090506004600085815260200190815260200160002060070160009054906101000a900473ffffffffffffffffffffffffffffffffffffffff1673ffffffffffffffffffffffffffffffffffffffff163373ffffffffffffffffffffffffffffffffffffffff1614610a0d57600080fd5b8060a0015115610a1c57600080fd5b6004600085815260200190815260200160002060040160029054906101000a900460ff16610a4957600080fd5b6060808315610b0757610aa86004600088815260200190815260200160002060010160009054906101000a900473ffffffffffffffffffffffffffffffffffffffff166004600089815260200190815260200160002060020154612a70565b9150610b006004600088815260200190815260200160002060010160009054906101000a900473ffffffffffffffffffffffffffffffffffffffff16600460008981526020019081526020016000206002015461231e565b9050610bb8565b610b5d6004600088815260200190815260200160002060010160009054906101000a900473ffffffffffffffffffffffffffffffffffffffff166004600089815260200190815260200160002060020154612941565b9150610bb56004600088815260200190815260200160002060010160009054906101000a900473ffffffffffffffffffffffffffffffffffffffff166004600089815260200190815260200160002060020154613016565b90505b60006004600088815260200190815260200160002060040160026101000a81548160ff021916908315150217905550826080015160046000888152602001908152602001600020600301819055506001600560008881526020019081526020016000208681548110610c2d57610c2c6145be565b5b906000526020600020906006020160050160006101000a81548160ff0219169083151502179055506004600087815260200190815260200160002060010160009054906101000a900473ffffffffffffffffffffffffffffffffffffffff1673ffffffffffffffffffffffffffffffffffffffff166342842e0e308560600151600460008b8152602001908152602001600020600201546040518463ffffffff1660e01b8152600401610ce293929190614587565b600060405180830381600087803b158015610cfc57600080fd5b505af1158015610d10573d6000803e3d6000fd5b50505050600083608001519050600060648560800151610d30919061464b565b905060005b8451811015610e785760006127108760800151878481518110610d5b57610d5a6145be565b5b6020026020010151602001516bffffffffffffffffffffffff16610d7f919061467c565b610d89919061464b565b90506000868381518110610da057610d9f6145be565b5b60200260200101516000015173ffffffffffffffffffffffffffffffffffffffff1682604051610dcf90614707565b60006040518083038185875af1925050503d8060008114610e0c576040519150601f19603f3d011682016040523d82523d6000602084013e610e11565b606091505b5050905080610e55576040517f08c379a0000000000000000000000000000000000000000000000000000000008152600401610e4c90614768565b60405180910390fd5b8185610e619190614788565b945050508080610e70906147bc565b915050610d35565b5060005b8351811015610fbf5760006127108760800151868481518110610ea257610ea16145be565b5b6020026020010151602001516bffffffffffffffffffffffff16610ec6919061467c565b610ed0919061464b565b90506000858381518110610ee757610ee66145be565b5b60200260200101516000015173ffffffffffffffffffffffffffffffffffffffff1682604051610f1690614707565b60006040518083038185875af1925050503d8060008114610f53576040519150601f19603f3d011682016040523d82523d6000602084013e610f58565b606091505b5050905080610f9c576040517f08c379a0000000000000000000000000000000000000000000000000000000008152600401610f9390614768565b60405180910390fd5b8185610fa89190614788565b945050508080610fb7906147bc565b915050610e7c565b5060003373ffffffffffffffffffffffffffffffffffffffff168284610fe59190614788565b604051610ff190614707565b60006040518083038185875af1925050503d806000811461102e576040519150601f19603f3d011682016040523d82523d6000602084013e611033565b606091505b5050905080611077576040517f08c379a000000000000000000000000000000000000000000000000000000000815260040161106e90614851565b60405180910390fd5b6000600360009054906101000a900473ffffffffffffffffffffffffffffffffffffffff1673ffffffffffffffffffffffffffffffffffffffff16836040516110bf90614707565b60006040518083038185875af1925050503d80600081146110fc576040519150601f19603f3d011682016040523d82523d6000602084013e611101565b606091505b5050905080611145576040517f08c379a000000000000000000000000000000000000000000000000000000000815260040161113c906148bd565b60405180910390fd5b7fe4aed1d8cb36f11a4a6ae6b1e7b718468a0f82e034de969816c5fd1b67025be28a8a896080015160405161117c939291906148dd565b60405180910390a150505050505050611193613beb565b505050565b6111a0613b9b565b6004600083815260200190815260200160002060070160009054906101000a900473ffffffffffffffffffffffffffffffffffffffff1673ffffffffffffffffffffffffffffffffffffffff163373ffffffffffffffffffffffffffffffffffffffff16141561120f57600080fd5b6000600560008481526020019081526020016000208281548110611236576112356145be565b5b90600052602060002090600602016040518060c001604052908160008201548152602001600182015481526020016002820160009054906101000a900473ffffffffffffffffffffffffffffffffffffffff1673ffffffffffffffffffffffffffffffffffffffff1673ffffffffffffffffffffffffffffffffffffffff1681526020016003820160009054906101000a900473ffffffffffffffffffffffffffffffffffffffff1673ffffffffffffffffffffffffffffffffffffffff1673ffffffffffffffffffffffffffffffffffffffff168152602001600482015481526020016005820160009054906101000a900460ff161515151581525050905080608001516004600085815260200190815260200160002060030154141561135d57600080fd5b3373ffffffffffffffffffffffffffffffffffffffff16816060015173ffffffffffffffffffffffffffffffffffffffff161461139957600080fd5b8060a00151156113a857600080fd5b60003373ffffffffffffffffffffffffffffffffffffffff1682608001516040516113d290614707565b60006040518083038185875af1925050503d806000811461140f576040519150601f19603f3d011682016040523d82523d6000602084013e611414565b606091505b505090508015611472576001600560008681526020019081526020016000208481548110611445576114446145be565b5b906000526020600020906006020160050160006101000a81548160ff0219169083151502179055506114ad565b6040517f08c379a00000000000000000000000000000000000000000000000000000000081526004016114a490614960565b60405180910390fd5b7f6415d97b7a9df23899954c482911f3fc2cb8afff4b6b15e788859e1307de227a84846040516114de929190614980565b60405180910390a150506114f0613beb565b5050565b6114fc613b9b565b6006600082815260200190815260200160002060010160009054906101000a900473ffffffffffffffffffffffffffffffffffffffff1673ffffffffffffffffffffffffffffffffffffffff163373ffffffffffffffffffffffffffffffffffffffff16146115a0576040517f08c379a0000000000000000000000000000000000000000000000000000000008152600401611597906149f5565b60405180910390fd5b6006600082815260200190815260200160002060050160009054906101000a900460ff16611603576040517f08c379a00000000000000000000000000000000000000000000000000000000081526004016115fa90614a61565b60405180910390fd5b60006006600083815260200190815260200160002060050160006101000a81548160ff0219169083151502179055506006600082815260200190815260200160002060000160009054906101000a900473ffffffffffffffffffffffffffffffffffffffff1673ffffffffffffffffffffffffffffffffffffffff166342842e0e306006600085815260200190815260200160002060010160009054906101000a900473ffffffffffffffffffffffffffffffffffffffff1660066000868152602001908152602001600020600201546040518463ffffffff1660e01b81526004016116f193929190614587565b600060405180830381600087803b15801561170b57600080fd5b505af115801561171f573d6000803e3d6000fd5b505050507ff6b6b4f7a13f02512c1b3aa8dcc4a07d7775a6a4becbd439efcbd37c5408e67f81604051611752919061435a565b60405180910390a1611762613beb565b50565b61176d613b9b565b60006004600084815260200190815260200160002060405180610140016040529081600082015481526020016001820160009054906101000a900473ffffffffffffffffffffffffffffffffffffffff1673ffffffffffffffffffffffffffffffffffffffff1673ffffffffffffffffffffffffffffffffffffffff16815260200160028201548152602001600382015481526020016004820160009054906101000a900460ff161515151581526020016004820160019054906101000a900460ff161515151581526020016004820160029054906101000a900460ff1615151515815260200160058201548152602001600682015481526020016007820160009054906101000a900473ffffffffffffffffffffffffffffffffffffffff1673ffffffffffffffffffffffffffffffffffffffff1673ffffffffffffffffffffffffffffffffffffffff1681525050905060608083156118f5576118da83602001518460400151612a70565b91506118ee8360200151846040015161231e565b905061191e565b61190783602001518460400151612941565b915061191b83602001518460400151613016565b90505b8260c00151611962576040517f08c379a000000000000000000000000000000000000000000000000000000000815260040161195990614acd565b60405180910390fd5b600073ffffffffffffffffffffffffffffffffffffffff163373ffffffffffffffffffffffffffffffffffffffff16141580156119d0575082610120015173ffffffffffffffffffffffffffffffffffffffff163373ffffffffffffffffffffffffffffffffffffffff1614155b611a0f576040517f08c379a0000000000000000000000000000000000000000000000000000000008152600401611a0690614b39565b60405180910390fd5b8260a0015115611a1e57600080fd5b82606001513414611a64576040517f08c379a0000000000000000000000000000000000000000000000000000000008152600401611a5b90614ba5565b60405180910390fd5b611a806004600087815260200190815260200160002033613bf5565b600034905060003490506000606434611a99919061464b565b905060005b8551811015611bdd57600061271084888481518110611ac057611abf6145be565b5b6020026020010151602001516bffffffffffffffffffffffff16611ae4919061467c565b611aee919061464b565b90506000878381518110611b0557611b046145be565b5b60200260200101516000015173ffffffffffffffffffffffffffffffffffffffff1682604051611b3490614707565b60006040518083038185875af1925050503d8060008114611b71576040519150601f19603f3d011682016040523d82523d6000602084013e611b76565b606091505b5050905080611bba576040517f08c379a0000000000000000000000000000000000000000000000000000000008152600401611bb190614c11565b60405180910390fd5b8186611bc69190614788565b955050508080611bd5906147bc565b915050611a9e565b5060005b8451811015611d2057600061271084878481518110611c0357611c026145be565b5b6020026020010151602001516bffffffffffffffffffffffff16611c27919061467c565b611c31919061464b565b90506000868381518110611c4857611c476145be565b5b60200260200101516000015173ffffffffffffffffffffffffffffffffffffffff1682604051611c7790614707565b60006040518083038185875af1925050503d8060008114611cb4576040519150601f19603f3d011682016040523d82523d6000602084013e611cb9565b606091505b5050905080611cfd576040517f08c379a0000000000000000000000000000000000000000000000000000000008152600401611cf490614c11565b60405180910390fd5b8186611d099190614788565b955050508080611d18906147bc565b915050611be1565b50600086610120015173ffffffffffffffffffffffffffffffffffffffff168285611d4b9190614788565b604051611d5790614707565b60006040518083038185875af1925050503d8060008114611d94576040519150601f19603f3d011682016040523d82523d6000602084013e611d99565b606091505b5050905080611ddd576040517f08c379a0000000000000000000000000000000000000000000000000000000008152600401611dd490614851565b60405180910390fd5b6000600360009054906101000a900473ffffffffffffffffffffffffffffffffffffffff1673ffffffffffffffffffffffffffffffffffffffff1683604051611e2590614707565b60006040518083038185875af1925050503d8060008114611e62576040519150601f19603f3d011682016040523d82523d6000602084013e611e67565b606091505b5050905080611eab576040517f08c379a0000000000000000000000000000000000000000000000000000000008152600401611ea2906148bd565b60405180910390fd5b876020015173ffffffffffffffffffffffffffffffffffffffff166342842e0e30338b604001516040518463ffffffff1660e01b8152600401611ef093929190614587565b600060405180830381600087803b158015611f0a57600080fd5b505af1158015611f1e573d6000803e3d6000fd5b505050507fedd9780c911d132891b0d6c68f69e6d9086a0ddc83a683a5e62b5aed36e93eb68a33604051611f53929190614c31565b60405180910390a15050505050505050611f6b613beb565b5050565b3373ffffffffffffffffffffffffffffffffffffffff166004600083815260200190815260200160002060070160009054906101000a900473ffffffffffffffffffffffffffffffffffffffff1673ffffffffffffffffffffffffffffffffffffffff161415611fde57600080fd5b6004600082815260200190815260200160002060040160029054906101000a900460ff1661200b57600080fd5b6004600082815260200190815260200160002060040160019054906101000a900460ff1661203857600080fd5b600460008281526020019081526020016000206006015442111561205b57600080fd5b34606460046000848152602001908152602001600020600301546005612081919061467c565b61208b919061464b565b60046000848152602001908152602001600020600301546120ac9190614c5a565b11156120ed576040517f08c379a00000000000000000000000000000000000000000000000000000000081526004016120e490614d22565b60405180910390fd5b60006040518060c00160405280600560008581526020019081526020016000208054905081526020018381526020016004600085815260200190815260200160002060070160009054906101000a900473ffffffffffffffffffffffffffffffffffffffff1673ffffffffffffffffffffffffffffffffffffffff1681526020013373ffffffffffffffffffffffffffffffffffffffff16815260200134815260200160001515815250905060056000838152602001908152602001600020819080600181540180825580915050600190039060005260206000209060060201600090919091909150600082015181600001556020820151816001015560408201518160020160006101000a81548173ffffffffffffffffffffffffffffffffffffffff021916908373ffffffffffffffffffffffffffffffffffffffff16021790555060608201518160030160006101000a81548173ffffffffffffffffffffffffffffffffffffffff021916908373ffffffffffffffffffffffffffffffffffffffff1602179055506080820151816004015560a08201518160050160006101000a81548160ff02191690831515021790555050503460046000848152602001908152602001600020600301819055507f0c876c013f62a226c9275bd56cdf74069fcda2f8075a64fe93fb3ce0e0119b9d82600160056000868152602001908152602001600020805490506123049190614788565b604051612312929190614980565b60405180910390a15050565b60608273ffffffffffffffffffffffffffffffffffffffff166302b42141836040518263ffffffff1660e01b8152600401612359919061435a565b600060405180830381865afa158015612376573d6000803e3d6000fd5b505050506040513d6000823e3d601f19601f8201168201806040525081019061239f9190614eb7565b905092915050565b60046020528060005260406000206000915090508060000154908060010160009054906101000a900473ffffffffffffffffffffffffffffffffffffffff16908060020154908060030154908060040160009054906101000a900460ff16908060040160019054906101000a900460ff16908060040160029054906101000a900460ff16908060050154908060060154908060070160009054906101000a900473ffffffffffffffffffffffffffffffffffffffff1690508a565b600083838173ffffffffffffffffffffffffffffffffffffffff16636352211e826040518263ffffffff1660e01b815260040161249f919061435a565b602060405180830381865afa1580156124bc573d6000803e3d6000fd5b505050506040513d601f19601f820116820180604052508101906124e09190614f15565b73ffffffffffffffffffffffffffffffffffffffff163373ffffffffffffffffffffffffffffffffffffffff161461254d576040517f08c379a000000000000000000000000000000000000000000000000000000000815260040161254490614f8e565b60405180910390fd5b612555613b9b565b600073ffffffffffffffffffffffffffffffffffffffff168673ffffffffffffffffffffffffffffffffffffffff1614156125c5576040517f08c379a00000000000000000000000000000000000000000000000000000000081526004016125bc90615020565b60405180910390fd5b60008673ffffffffffffffffffffffffffffffffffffffff16636352211e866040518263ffffffff1660e01b8152600401612600919061435a565b602060405180830381865afa15801561261d573d6000803e3d6000fd5b505050506040513d601f19601f820116820180604052508101906126419190614f15565b90503373ffffffffffffffffffffffffffffffffffffffff168173ffffffffffffffffffffffffffffffffffffffff1614156126b2576040517f08c379a00000000000000000000000000000000000000000000000000000000081526004016126a99061508c565b60405180910390fd5b60006126be6002613c93565b90508773ffffffffffffffffffffffffffffffffffffffff166342842e0e33308a6040518463ffffffff1660e01b81526004016126fd93929190614587565b600060405180830381600087803b15801561271757600080fd5b505af115801561272b573d6000803e3d6000fd5b5050505060006040518060c001604052808a73ffffffffffffffffffffffffffffffffffffffff1681526020013373ffffffffffffffffffffffffffffffffffffffff1681526020018981526020018473ffffffffffffffffffffffffffffffffffffffff168152602001888152602001600115158152509050806006600084815260200190815260200160002060008201518160000160006101000a81548173ffffffffffffffffffffffffffffffffffffffff021916908373ffffffffffffffffffffffffffffffffffffffff16021790555060208201518160010160006101000a81548173ffffffffffffffffffffffffffffffffffffffff021916908373ffffffffffffffffffffffffffffffffffffffff1602179055506040820151816002015560608201518160030160006101000a81548173ffffffffffffffffffffffffffffffffffffffff021916908373ffffffffffffffffffffffffffffffffffffffff1602179055506080820151816004015560a08201518160050160006101000a81548160ff0219169083151502179055509050506128cf6002613ca1565b818373ffffffffffffffffffffffffffffffffffffffff163373ffffffffffffffffffffffffffffffffffffffff167fffd321d9ac6e5d361fa3cfa4ee752259774415efa4ac8d50669dce82c183b8eb60405160405180910390a4819550505050612938613beb565b50509392505050565b60608273ffffffffffffffffffffffffffffffffffffffff1663bb3bafd6836040518263ffffffff1660e01b815260040161297c919061435a565b600060405180830381865afa158015612999573d6000803e3d6000fd5b505050506040513d6000823e3d601f19601f820116820180604052508101906129c29190614eb7565b905092915050565b600560205281600052604060002081815481106129e657600080fd5b9060005260206000209060060201600091509150508060000154908060010154908060020160009054906101000a900473ffffffffffffffffffffffffffffffffffffffff16908060030160009054906101000a900473ffffffffffffffffffffffffffffffffffffffff16908060040154908060050160009054906101000a900460ff16905086565b60608273ffffffffffffffffffffffffffffffffffffffff1663e1e9fce8836040518263ffffffff1660e01b8152600401612aab919061435a565b600060405180830381865afa158015612ac8573d6000803e3d6000fd5b505050506040513d6000823e3d601f19601f82011682018060405250810190612af19190614eb7565b905092915050565b612b01613b9b565b6004600082815260200190815260200160002060070160009054906101000a900473ffffffffffffffffffffffffffffffffffffffff1673ffffffffffffffffffffffffffffffffffffffff163373ffffffffffffffffffffffffffffffffffffffff1614612ba5576040517f08c379a0000000000000000000000000000000000000000000000000000000008152600401612b9c906149f5565b60405180910390fd5b6004600082815260200190815260200160002060040160029054906101000a900460ff16612c08576040517f08c379a0000000000000000000000000000000000000000000000000000000008152600401612bff906150f8565b60405180910390fd5b6000600460008381526020019081526020016000206003018190555060006004600083815260200190815260200160002060040160026101000a81548160ff0219169083151502179055506004600082815260200190815260200160002060010160009054906101000a900473ffffffffffffffffffffffffffffffffffffffff1673ffffffffffffffffffffffffffffffffffffffff166342842e0e306004600085815260200190815260200160002060070160009054906101000a900473ffffffffffffffffffffffffffffffffffffffff1660046000868152602001908152602001600020600201546040518463ffffffff1660e01b8152600401612d1293929190614587565b600060405180830381600087803b158015612d2c57600080fd5b505af1158015612d40573d6000803e3d6000fd5b505050507f2c56893f6f6026d19bd17b7d05c9f15c522de1ae2b1c3a825f91a73c799321f281604051612d73919061435a565b60405180910390a1612d83613beb565b50565b6004600083815260200190815260200160002060070160009054906101000a900473ffffffffffffffffffffffffffffffffffffffff1673ffffffffffffffffffffffffffffffffffffffff163373ffffffffffffffffffffffffffffffffffffffff1614612e2a576040517f08c379a0000000000000000000000000000000000000000000000000000000008152600401612e2190615164565b60405180910390fd5b600015156004600084815260200190815260200160002060040160019054906101000a900460ff16151514612e94576040517f08c379a0000000000000000000000000000000000000000000000000000000008152600401612e8b906151d0565b60405180910390fd5b6004600083815260200190815260200160002060040160029054906101000a900460ff16612ef7576040517f08c379a0000000000000000000000000000000000000000000000000000000008152600401612eee9061523c565b60405180910390fd5b60046000838152602001908152602001600020600301548114612f69578060046000848152602001908152602001600020600301819055507f802c9b6cc49364e6496fca815b9f06991a5eac587609a151c6de2beb5c3866b58282604051612f60929190614980565b60405180910390a15b5050565b60066020528060005260406000206000915090508060000160009054906101000a900473ffffffffffffffffffffffffffffffffffffffff16908060010160009054906101000a900473ffffffffffffffffffffffffffffffffffffffff16908060020154908060030160009054906101000a900473ffffffffffffffffffffffffffffffffffffffff16908060040154908060050160009054906101000a900460ff16905086565b60608273ffffffffffffffffffffffffffffffffffffffff166302b42141836040518263ffffffff1660e01b8152600401613051919061435a565b600060405180830381865afa15801561306e573d6000803e3d6000fd5b505050506040513d6000823e3d601f19601f820116820180604052508101906130979190614eb7565b905092915050565b6130a7613b9b565b6000600660008381526020019081526020016000206040518060c00160405290816000820160009054906101000a900473ffffffffffffffffffffffffffffffffffffffff1673ffffffffffffffffffffffffffffffffffffffff1673ffffffffffffffffffffffffffffffffffffffff1681526020016001820160009054906101000a900473ffffffffffffffffffffffffffffffffffffffff1673ffffffffffffffffffffffffffffffffffffffff1673ffffffffffffffffffffffffffffffffffffffff168152602001600282015481526020016003820160009054906101000a900473ffffffffffffffffffffffffffffffffffffffff1673ffffffffffffffffffffffffffffffffffffffff1673ffffffffffffffffffffffffffffffffffffffff168152602001600482015481526020016005820160009054906101000a900460ff16151515158152505090508060a0015161323e576040517f08c379a0000000000000000000000000000000000000000000000000000000008152600401613235906144fb565b60405180910390fd5b3373ffffffffffffffffffffffffffffffffffffffff16816060015173ffffffffffffffffffffffffffffffffffffffff16146132b0576040517f08c379a00000000000000000000000000000000000000000000000000000000081526004016132a790614567565b60405180910390fd5b60006006600084815260200190815260200160002060050160006101000a81548160ff021916908315150217905550806000015173ffffffffffffffffffffffffffffffffffffffff166342842e0e30836020015184604001516040518463ffffffff1660e01b815260040161332893929190614587565b600060405180830381600087803b15801561334257600080fd5b505af1158015613356573d6000803e3d6000fd5b505050507fea6e6330ad12e6d5443efaa8b19fcd6675df4ab8460ab65d99d5357e6a9697ae82604051613389919061435a565b60405180910390a15061339a613beb565b50565b83838173ffffffffffffffffffffffffffffffffffffffff16636352211e826040518263ffffffff1660e01b81526004016133d8919061435a565b602060405180830381865afa1580156133f5573d6000803e3d6000fd5b505050506040513d601f19601f820116820180604052508101906134199190614f15565b73ffffffffffffffffffffffffffffffffffffffff163373ffffffffffffffffffffffffffffffffffffffff1614613486576040517f08c379a000000000000000000000000000000000000000000000000000000000815260040161347d90614f8e565b60405180910390fd5b61348e613b9b565b600073ffffffffffffffffffffffffffffffffffffffff168673ffffffffffffffffffffffffffffffffffffffff1614156134fe576040517f08c379a00000000000000000000000000000000000000000000000000000000081526004016134f590615020565b60405180910390fd5b6135086001613ca1565b8573ffffffffffffffffffffffffffffffffffffffff166342842e0e3330886040518463ffffffff1660e01b815260040161354593929190614587565b600060405180830381600087803b15801561355f57600080fd5b505af1158015613573573d6000803e3d6000fd5b50505050600060405180610140016040528061358f6001613c93565b81526020018873ffffffffffffffffffffffffffffffffffffffff16815260200187815260200186815260200160001515815260200160011515815260200160011515815260200142815260200185426135e99190614c5a565b81526020013373ffffffffffffffffffffffffffffffffffffffff16815250905080600460006136196001613c93565b81526020019081526020016000206000820151816000015560208201518160010160006101000a81548173ffffffffffffffffffffffffffffffffffffffff021916908373ffffffffffffffffffffffffffffffffffffffff160217905550604082015181600201556060820151816003015560808201518160040160006101000a81548160ff02191690831515021790555060a08201518160040160016101000a81548160ff02191690831515021790555060c08201518160040160026101000a81548160ff02191690831515021790555060e0820151816005015561010082015181600601556101208201518160070160006101000a81548173ffffffffffffffffffffffffffffffffffffffff021916908373ffffffffffffffffffffffffffffffffffffffff1602179055509050507fa29262303591d48ce94646a46b652916ce782073349bb5dc261ac4c5237d939786886137796001613c93565b6040516137889392919061525c565b60405180910390a150613799613beb565b505050505050565b82828173ffffffffffffffffffffffffffffffffffffffff16636352211e826040518263ffffffff1660e01b81526004016137dc919061435a565b602060405180830381865afa1580156137f9573d6000803e3d6000fd5b505050506040513d601f19601f8201168201806040525081019061381d9190614f15565b73ffffffffffffffffffffffffffffffffffffffff163373ffffffffffffffffffffffffffffffffffffffff161461388a576040517f08c379a000000000000000000000000000000000000000000000000000000000815260040161388190614f8e565b60405180910390fd5b613892613b9b565b61389c6001613ca1565b600073ffffffffffffffffffffffffffffffffffffffff168573ffffffffffffffffffffffffffffffffffffffff16141561390c576040517f08c379a000000000000000000000000000000000000000000000000000000000815260040161390390615020565b60405180910390fd5b8473ffffffffffffffffffffffffffffffffffffffff166342842e0e3330876040518463ffffffff1660e01b815260040161394993929190614587565b600060405180830381600087803b15801561396357600080fd5b505af1158015613977573d6000803e3d6000fd5b5050505060006040518061014001604052806139936001613c93565b81526020018773ffffffffffffffffffffffffffffffffffffffff16815260200186815260200185815260200160011515815260200160001515815260200160011515815260200160008152602001600081526020013373ffffffffffffffffffffffffffffffffffffffff1681525090508060046000613a146001613c93565b81526020019081526020016000206000820151816000015560208201518160010160006101000a81548173ffffffffffffffffffffffffffffffffffffffff021916908373ffffffffffffffffffffffffffffffffffffffff160217905550604082015181600201556060820151816003015560808201518160040160006101000a81548160ff02191690831515021790555060a08201518160040160016101000a81548160ff02191690831515021790555060c08201518160040160026101000a81548160ff02191690831515021790555060e0820151816005015561010082015181600601556101208201518160070160006101000a81548173ffffffffffffffffffffffffffffffffffffffff021916908373ffffffffffffffffffffffffffffffffffffffff1602179055509050507fa29262303591d48ce94646a46b652916ce782073349bb5dc261ac4c5237d93978587613b746001613c93565b604051613b839392919061525c565b60405180910390a150613b94613beb565b5050505050565b60026000541415613be1576040517f08c379a0000000000000000000000000000000000000000000000000000000008152600401613bd8906152df565b60405180910390fd5b6002600081905550565b6001600081905550565b808260070160006101000a81548173ffffffffffffffffffffffffffffffffffffffff021916908373ffffffffffffffffffffffffffffffffffffffff16021790555060008260040160026101000a81548160ff02191690831515021790555060008260040160006101000a81548160ff02191690831515021790555060008260040160016101000a81548160ff0219169083151502179055505050565b600081600001549050919050565b6001816000016000828254019250508190555050565b6000604051905090565b600080fd5b600080fd5b600073ffffffffffffffffffffffffffffffffffffffff82169050919050565b6000613cf682613ccb565b9050919050565b613d0681613ceb565b8114613d1157600080fd5b50565b600081359050613d2381613cfd565b92915050565b6000819050919050565b613d3c81613d29565b8114613d4757600080fd5b50565b600081359050613d5981613d33565b92915050565b600080fd5b600080fd5b6000601f19601f8301169050919050565b7f4e487b7100000000000000000000000000000000000000000000000000000000600052604160045260246000fd5b613db282613d69565b810181811067ffffffffffffffff82111715613dd157613dd0613d7a565b5b80604052505050565b6000613de4613cb7565b9050613df08282613da9565b919050565b600067ffffffffffffffff821115613e1057613e0f613d7a565b5b613e1982613d69565b9050602081019050919050565b82818337600083830152505050565b6000613e48613e4384613df5565b613dda565b905082815260208101848484011115613e6457613e63613d64565b5b613e6f848285613e26565b509392505050565b600082601f830112613e8c57613e8b613d5f565b5b8135613e9c848260208601613e35565b91505092915050565b60008060008060808587031215613ebf57613ebe613cc1565b5b6000613ecd87828801613d14565b9450506020613ede87828801613d14565b9350506040613eef87828801613d4a565b925050606085013567ffffffffffffffff811115613f1057613f0f613cc6565b5b613f1c87828801613e77565b91505092959194509250565b60007fffffffff0000000000000000000000000000000000000000000000000000000082169050919050565b613f5d81613f28565b82525050565b6000602082019050613f786000830184613f54565b92915050565b600060208284031215613f9457613f93613cc1565b5b6000613fa284828501613d4a565b91505092915050565b60008115159050919050565b613fc081613fab565b8114613fcb57600080fd5b50565b600081359050613fdd81613fb7565b92915050565b600080600060608486031215613ffc57613ffb613cc1565b5b600061400a86828701613d4a565b935050602061401b86828701613d4a565b925050604061402c86828701613fce565b9150509250925092565b6000806040838503121561404d5761404c613cc1565b5b600061405b85828601613d4a565b925050602061406c85828601613d4a565b9150509250929050565b6000806040838503121561408d5761408c613cc1565b5b600061409b85828601613d4a565b92505060206140ac85828601613fce565b9150509250929050565b600080604083850312156140cd576140cc613cc1565b5b60006140db85828601613d14565b92505060206140ec85828601613d4a565b9150509250929050565b600081519050919050565b600082825260208201905092915050565b6000819050602082019050919050565b600061412d82613ccb565b9050919050565b61413d81614122565b82525050565b60006bffffffffffffffffffffffff82169050919050565b61416481614143565b82525050565b6040820160008201516141806000850182614134565b506020820151614193602085018261415b565b50505050565b60006141a5838361416a565b60408301905092915050565b6000602082019050919050565b60006141c9826140f6565b6141d38185614101565b93506141de83614112565b8060005b8381101561420f5781516141f68882614199565b9750614201836141b1565b9250506001810190506141e2565b5085935050505092915050565b6000602082019050818103600083015261423681846141be565b905092915050565b61424781613d29565b82525050565b61425681613ceb565b82525050565b61426581613fab565b82525050565b600061014082019050614281600083018d61423e565b61428e602083018c61424d565b61429b604083018b61423e565b6142a8606083018a61423e565b6142b5608083018961425c565b6142c260a083018861425c565b6142cf60c083018761425c565b6142dc60e083018661423e565b6142ea61010083018561423e565b6142f861012083018461424d565b9b9a5050505050505050505050565b6000806000606084860312156143205761431f613cc1565b5b600061432e86828701613d14565b935050602061433f86828701613d4a565b925050604061435086828701613d4a565b9150509250925092565b600060208201905061436f600083018461423e565b92915050565b600060c08201905061438a600083018961423e565b614397602083018861423e565b6143a4604083018761424d565b6143b1606083018661424d565b6143be608083018561423e565b6143cb60a083018461425c565b979650505050505050565b600060c0820190506143eb600083018961424d565b6143f8602083018861424d565b614405604083018761423e565b614412606083018661424d565b61441f608083018561423e565b61442c60a083018461425c565b979650505050505050565b6000806000806080858703121561445157614450613cc1565b5b600061445f87828801613d14565b945050602061447087828801613d4a565b935050604061448187828801613d4a565b925050606061449287828801613d4a565b91505092959194509250565b600082825260208201905092915050565b7f746f6b656e206d757374206265206f6e20737761700000000000000000000000600082015250565b60006144e560158361449e565b91506144f0826144af565b602082019050919050565b60006020820190508181036000830152614514816144d8565b9050919050565b7f4f6e6c79206f776e65722063616e206163636570742073776170000000000000600082015250565b6000614551601a8361449e565b915061455c8261451b565b602082019050919050565b6000602082019050818103600083015261458081614544565b9050919050565b600060608201905061459c600083018661424d565b6145a9602083018561424d565b6145b6604083018461423e565b949350505050565b7f4e487b7100000000000000000000000000000000000000000000000000000000600052603260045260246000fd5b7f4e487b7100000000000000000000000000000000000000000000000000000000600052601260045260246000fd5b7f4e487b7100000000000000000000000000000000000000000000000000000000600052601160045260246000fd5b600061465682613d29565b915061466183613d29565b925082614671576146706145ed565b5b828204905092915050565b600061468782613d29565b915061469283613d29565b9250817fffffffffffffffffffffffffffffffffffffffffffffffffffffffffffffffff04831182151516156146cb576146ca61461c565b5b828202905092915050565b600081905092915050565b50565b60006146f16000836146d6565b91506146fc826146e1565b600082019050919050565b6000614712826146e4565b9150819050919050565b7f526f79616c7479207472616e73666572206661696c6564000000000000000000600082015250565b600061475260178361449e565b915061475d8261471c565b602082019050919050565b6000602082019050818103600083015261478181614745565b9050919050565b600061479382613d29565b915061479e83613d29565b9250828210156147b1576147b061461c565b5b828203905092915050565b60006147c782613d29565b91507fffffffffffffffffffffffffffffffffffffffffffffffffffffffffffffffff8214156147fa576147f961461c565b5b600182019050919050565b7f5472616e73666572206661696c65640000000000000000000000000000000000600082015250565b600061483b600f8361449e565b915061484682614805565b602082019050919050565b6000602082019050818103600083015261486a8161482e565b9050919050565b7f466565205472616e73666572206661696c656400000000000000000000000000600082015250565b60006148a760138361449e565b91506148b282614871565b602082019050919050565b600060208201905081810360008301526148d68161489a565b9050919050565b60006060820190506148f2600083018661423e565b6148ff602083018561423e565b61490c604083018461423e565b949350505050565b7f4e6f204d6f6e6579206c65667421000000000000000000000000000000000000600082015250565b600061494a600e8361449e565b915061495582614914565b602082019050919050565b600060208201905081810360008301526149798161493d565b9050919050565b6000604082019050614995600083018561423e565b6149a2602083018461423e565b9392505050565b7f4f6e6c79206f776e65722063616e2063616e63656c2073616c65000000000000600082015250565b60006149df601a8361449e565b91506149ea826149a9565b602082019050919050565b60006020820190508181036000830152614a0e816149d2565b9050919050565b7f546f6b656e206e6f74206f6e2073776170000000000000000000000000000000600082015250565b6000614a4b60118361449e565b9150614a5682614a15565b602082019050919050565b60006020820190508181036000830152614a7a81614a3e565b9050919050565b7f746f6b656e206d757374206265206f6e2073616c650000000000000000000000600082015250565b6000614ab760158361449e565b9150614ac282614a81565b602082019050919050565b60006020820190508181036000830152614ae681614aaa565b9050919050565b7f696e76616c696420616464726573730000000000000000000000000000000000600082015250565b6000614b23600f8361449e565b9150614b2e82614aed565b602082019050919050565b60006020820190508181036000830152614b5281614b16565b9050919050565b7f76616c7565206c657373207468616e2070726963650000000000000000000000600082015250565b6000614b8f60158361449e565b9150614b9a82614b59565b602082019050919050565b60006020820190508181036000830152614bbe81614b82565b9050919050565b7f526f79616c7479205472616e73666572206661696c6564000000000000000000600082015250565b6000614bfb60178361449e565b9150614c0682614bc5565b602082019050919050565b60006020820190508181036000830152614c2a81614bee565b9050919050565b6000604082019050614c46600083018561423e565b614c53602083018461424d565b9392505050565b6000614c6582613d29565b9150614c7083613d29565b9250827fffffffffffffffffffffffffffffffffffffffffffffffffffffffffffffffff03821115614ca557614ca461461c565b5b828201905092915050565b7f4269642073686f756c64206265206d6f7265207468616e203525206f6620637560008201527f7272656e74206269640000000000000000000000000000000000000000000000602082015250565b6000614d0c60298361449e565b9150614d1782614cb0565b604082019050919050565b60006020820190508181036000830152614d3b81614cff565b9050919050565b600067ffffffffffffffff821115614d5d57614d5c613d7a565b5b602082029050602081019050919050565b600080fd5b600080fd5b614d8181614122565b8114614d8c57600080fd5b50565b600081519050614d9e81614d78565b92915050565b614dad81614143565b8114614db857600080fd5b50565b600081519050614dca81614da4565b92915050565b600060408284031215614de657614de5614d73565b5b614df06040613dda565b90506000614e0084828501614d8f565b6000830152506020614e1484828501614dbb565b60208301525092915050565b6000614e33614e2e84614d42565b613dda565b90508083825260208201905060408402830185811115614e5657614e55614d6e565b5b835b81811015614e7f5780614e6b8882614dd0565b845260208401935050604081019050614e58565b5050509392505050565b600082601f830112614e9e57614e9d613d5f565b5b8151614eae848260208601614e20565b91505092915050565b600060208284031215614ecd57614ecc613cc1565b5b600082015167ffffffffffffffff811115614eeb57614eea613cc6565b5b614ef784828501614e89565b91505092915050565b600081519050614f0f81613cfd565b92915050565b600060208284031215614f2b57614f2a613cc1565b5b6000614f3984828501614f00565b91505092915050565b7f4f6e6c7920746f6b656e206f776e65722063616e206578656375746500000000600082015250565b6000614f78601c8361449e565b9150614f8382614f42565b602082019050919050565b60006020820190508181036000830152614fa781614f6b565b9050919050565b7f796f752063616e277420646f20746869732077697468207a65726f206164647260008201527f6573730000000000000000000000000000000000000000000000000000000000602082015250565b600061500a60238361449e565b915061501582614fae565b604082019050919050565b6000602082019050818103600083015261503981614ffd565b9050919050565b7f43616e6e6f742053776170204265747765656e20596f757220546f6b656e7300600082015250565b6000615076601f8361449e565b915061508182615040565b602082019050919050565b600060208201905081810360008301526150a581615069565b9050919050565b7f546f6b656e206e6f74206f6e2073616c65000000000000000000000000000000600082015250565b60006150e260118361449e565b91506150ed826150ac565b602082019050919050565b60006020820190508181036000830152615111816150d5565b9050919050565b7f596f7520617265206e6f7420746865206f776e65720000000000000000000000600082015250565b600061514e60158361449e565b915061515982615118565b602082019050919050565b6000602082019050818103600083015261517d81615141565b9050919050565b7f73616c65206973206f6e20426964000000000000000000000000000000000000600082015250565b60006151ba600e8361449e565b91506151c582615184565b602082019050919050565b600060208201905081810360008301526151e9816151ad565b9050919050565b7f596f752063616e27742065646974000000000000000000000000000000000000600082015250565b6000615226600e8361449e565b9150615231826151f0565b602082019050919050565b6000602082019050818103600083015261525581615219565b9050919050565b6000606082019050615271600083018661423e565b61527e602083018561424d565b61528b604083018461423e565b949350505050565b7f5265656e7472616e637947756172643a207265656e7472616e742063616c6c00600082015250565b60006152c9601f8361449e565b91506152d482615293565b602082019050919050565b600060208201905081810360008301526152f8816152bc565b905091905056fea26469706673582212207c5a2d05a3d8499e23c86ed31b1f26630622c191539c4a2d975da8d0088e53f164736f6c634300080b0033",
  "immutableReferences": {},
  "source": "// SPDX-License-Identifier: MIT\npragma solidity >=0.4.22 <0.9.0;\n\nimport \"@openzeppelin/contracts/token/ERC721/utils/ERC721Holder.sol\";\nimport \"@openzeppelin/contracts/token/ERC721/ERC721.sol\";\nimport \"@openzeppelin/contracts/access/Ownable.sol\";\nimport \"@openzeppelin/contracts/security/ReentrancyGuard.sol\";\nimport \"@openzeppelin/contracts/utils/Counters.sol\";\nimport \"./piNFT.sol\";\nimport \"./CollectionFactory.sol\";\nimport \"./CollectionMethods.sol\";\nimport \"./utils/LibShare.sol\";\n\ncontract piMarket is ERC721Holder, ReentrancyGuard {\n    using Counters for Counters.Counter;\n    Counters.Counter internal _saleIdCounter;\n    Counters.Counter private _swapIdCounter;\n\n    address internal feeAddress;\n\n    struct TokenMeta {\n        uint256 saleId;\n        address tokenContractAddress;\n        uint256 tokenId;\n        uint256 price;\n        bool directSale;\n        bool bidSale;\n        bool status;\n        uint256 bidStartTime;\n        uint256 bidEndTime;\n        address currentOwner;\n    }\n\n    struct BidOrder {\n        uint256 bidId;\n        uint256 saleId;\n        address sellerAddress;\n        address buyerAddress;\n        uint256 price;\n        bool withdrawn;\n    }\n\n    struct Swap {\n        address NFTContractAddress;\n        address initiator;\n        uint256 initiatorNftId;\n        address secondUser;\n        uint256 secondUserNftId;\n        bool status;\n    }\n\n    mapping(uint256 => TokenMeta) public _tokenMeta;\n    mapping(uint256 => BidOrder[]) public Bids;\n    mapping(uint256 => Swap) public _swaps;\n\n    event SaleCreated(uint256 tokenId, address tokenContract, uint256 saleId);\n    event NFTBought(uint256 saleId, address buyer);\n    event SaleCancelled(uint256 saleId);\n    event BidCreated(uint256 saleId, uint256 bidId);\n    event BidExecuted(uint256 saleId, uint256 bidId, uint256 price);\n    event BidWithdrawn(uint256 saleId, uint256 bidId);\n    event SwapCancelled(uint256 swapId);\n    event SwapAccepted(uint256 swapId);\n    event SwapRejected(uint256 swapId);\n    event SwapProposed(\n        address indexed from,\n        address indexed to,\n        uint256 indexed swapId\n    );\n    event updatedSalePrice(uint256 saleId, uint256 Price);\n\n    constructor(address _feeAddress) {\n        require(_feeAddress != address(0), \"Fee address cannot be zero\");\n        feeAddress = _feeAddress;\n    }\n\n    modifier onlyOwnerOfToken(address _contractAddress, uint256 _tokenId) {\n        require(\n            msg.sender == ERC721(_contractAddress).ownerOf(_tokenId),\n            \"Only token owner can execute\"\n        );\n        _;\n    }\n\n    /*\n    @params\n    * _contractAddress if _fromCollection is true then collection contract Address and if false piNFT contract Address\n    */\n\n    function sellNFT(\n        address _contractAddress,\n        uint256 _tokenId,\n        uint256 _price\n    ) external onlyOwnerOfToken(_contractAddress, _tokenId) nonReentrant {\n        _saleIdCounter.increment();\n        require(\n            _contractAddress != address(0),\n            \"you can't do this with zero address\"\n        );\n\n        //needs approval on frontend\n        ERC721(_contractAddress).safeTransferFrom(\n            msg.sender,\n            address(this),\n            _tokenId\n        );\n\n        TokenMeta memory meta = TokenMeta(\n            _saleIdCounter.current(),\n            _contractAddress,\n            _tokenId,\n            _price,\n            true,\n            false,\n            true,\n            0,\n            0,\n            msg.sender\n        );\n\n        _tokenMeta[_saleIdCounter.current()] = meta;\n\n        emit SaleCreated(_tokenId, _contractAddress, _saleIdCounter.current());\n    }\n\n    function editSalePrice(uint256 _saleId, uint256 _price) public {\n        require(\n            msg.sender == _tokenMeta[_saleId].currentOwner,\n            \"You are not the owner\"\n        );\n        require(_tokenMeta[_saleId].bidSale == false, \"sale is on Bid\");\n        require(_tokenMeta[_saleId].status, \"You can't edit\");\n\n        if (_price != _tokenMeta[_saleId].price) {\n            _tokenMeta[_saleId].price = _price;\n\n            emit updatedSalePrice(_saleId, _price);\n        }\n    }\n\n    function retrieveRoyalty(\n        address _contractAddress,\n        uint256 _tokenId\n    ) public view returns (LibShare.Share[] memory) {\n        return piNFT(_contractAddress).getRoyalties(_tokenId);\n    }\n\n    // Get Collection Royalty\n    function getCollectionRoyalty(\n        address _collectionFactoryAddress,\n        uint256 _collectionId\n    ) public view returns (LibShare.Share[] memory) {\n        return\n            CollectionFactory(_collectionFactoryAddress).getCollectionRoyalties(\n                _collectionId\n            );\n    }\n\n    // Get Collection validator Royalty by collection TokenId\n    function getCollectionValidatorRoyalty(\n        address _collectionAddress,\n        uint256 _tokenId\n    ) public view returns (LibShare.Share[] memory) {\n        return\n            CollectionMethods(_collectionAddress).getValidatorRoyalties(\n                _tokenId\n            );\n    }\n\n    // Retrieve validator Royality\n    function retrieveValidatorRoyalty(\n        address _contractAddress,\n        uint256 _tokenId\n    ) public view returns (LibShare.Share[] memory) {\n        return piNFT(_contractAddress).getValidatorRoyalties(_tokenId);\n    }\n\n    function BuyNFT(\n        uint256 _saleId,\n        bool _fromCollection\n    ) external payable nonReentrant {\n        TokenMeta memory meta = _tokenMeta[_saleId];\n\n        LibShare.Share[] memory royalties;\n        LibShare.Share[] memory validatorRoyalties;\n        if (_fromCollection) {\n            royalties = getCollectionRoyalty(\n                meta.tokenContractAddress,\n                meta.tokenId\n            );\n            validatorRoyalties = getCollectionValidatorRoyalty(\n                meta.tokenContractAddress,\n                meta.tokenId\n            );\n        } else {\n            royalties = retrieveRoyalty(\n                meta.tokenContractAddress,\n                meta.tokenId\n            );\n            validatorRoyalties = retrieveValidatorRoyalty(\n                meta.tokenContractAddress,\n                meta.tokenId\n            );\n        }\n\n        require(meta.status, \"token must be on sale\");\n        require(\n            msg.sender != address(0) && msg.sender != meta.currentOwner,\n            \"invalid address\"\n        );\n        require(!meta.bidSale);\n        require(msg.value == meta.price, \"value less than price\");\n\n        transfer(_tokenMeta[_saleId], msg.sender);\n\n        uint256 sum = msg.value;\n        uint256 val = msg.value;\n        uint256 fee = msg.value / 100;\n\n        for (uint256 i = 0; i < royalties.length; i++) {\n            uint256 amount = (royalties[i].value * val) / 10000;\n            // address payable receiver = royalties[i].account;\n            (bool royalSuccess, ) = payable(royalties[i].account).call{\n                value: amount\n            }(\"\");\n            require(royalSuccess, \"Royalty Transfer failed\");\n            sum = sum - amount;\n        }\n\n        for (uint256 i = 0; i < validatorRoyalties.length; i++) {\n            uint256 amount = (validatorRoyalties[i].value * val) / 10000;\n            (bool royalSuccess, ) = payable(validatorRoyalties[i].account).call{\n                value: amount\n            }(\"\");\n            require(royalSuccess, \"Royalty Transfer failed\");\n            sum = sum - amount;\n        }\n\n        (bool isSuccess, ) = payable(meta.currentOwner).call{\n            value: (sum - fee)\n        }(\"\");\n        require(isSuccess, \"Transfer failed\");\n        (bool feeSuccess, ) = payable(feeAddress).call{value: fee}(\"\");\n        require(feeSuccess, \"Fee Transfer failed\");\n        ERC721(meta.tokenContractAddress).safeTransferFrom(\n            address(this),\n            msg.sender,\n            meta.tokenId\n        );\n        emit NFTBought(_saleId, msg.sender);\n    }\n\n    function cancelSale(uint256 _saleId) external nonReentrant {\n        require(\n            msg.sender == _tokenMeta[_saleId].currentOwner,\n            \"Only owner can cancel sale\"\n        );\n        require(_tokenMeta[_saleId].status, \"Token not on sale\");\n\n        _tokenMeta[_saleId].price = 0;\n        _tokenMeta[_saleId].status = false;\n        ERC721(_tokenMeta[_saleId].tokenContractAddress).safeTransferFrom(\n            address(this),\n            _tokenMeta[_saleId].currentOwner,\n            _tokenMeta[_saleId].tokenId\n        );\n        emit SaleCancelled(_saleId);\n    }\n\n    function SellNFT_byBid(\n        address _contractAddress,\n        uint256 _tokenId,\n        uint256 _price,\n        uint256 _bidTime\n    ) external onlyOwnerOfToken(_contractAddress, _tokenId) nonReentrant {\n        require(\n            _contractAddress != address(0),\n            \"you can't do this with zero address\"\n        );\n        _saleIdCounter.increment();\n\n        //needs approval on frontend\n        ERC721(_contractAddress).safeTransferFrom(\n            msg.sender,\n            address(this),\n            _tokenId\n        );\n\n        TokenMeta memory meta = TokenMeta(\n            _saleIdCounter.current(),\n            _contractAddress,\n            _tokenId,\n            _price,\n            false,\n            true,\n            true,\n            block.timestamp,\n            block.timestamp + _bidTime,\n            msg.sender\n        );\n\n        _tokenMeta[_saleIdCounter.current()] = meta;\n\n        emit SaleCreated(_tokenId, _contractAddress, _saleIdCounter.current());\n    }\n\n    function Bid(uint256 _saleId) external payable {\n        require(_tokenMeta[_saleId].currentOwner != msg.sender);\n        require(_tokenMeta[_saleId].status);\n        require(_tokenMeta[_saleId].bidSale);\n        require(block.timestamp <= _tokenMeta[_saleId].bidEndTime);\n        require(\n            _tokenMeta[_saleId].price +\n                ((5 * _tokenMeta[_saleId].price) / 100) <=\n                msg.value,\n            \"Bid should be more than 5% of current bid\"\n        );\n        //  require(_timeOfAuction[_saleId] >= block.timestamp,\"Auction Over\");\n\n        BidOrder memory bid = BidOrder(\n            Bids[_saleId].length,\n            _saleId,\n            _tokenMeta[_saleId].currentOwner,\n            msg.sender,\n            msg.value,\n            false\n        );\n        Bids[_saleId].push(bid);\n        _tokenMeta[_saleId].price = msg.value;\n\n        emit BidCreated(_saleId, Bids[_saleId].length - 1);\n    }\n\n    function executeBidOrder(\n        uint256 _saleId,\n        uint256 _bidOrderID,\n        bool _fromCollection\n    ) external nonReentrant {\n        BidOrder memory bids = Bids[_saleId][_bidOrderID];\n        require(msg.sender == _tokenMeta[_saleId].currentOwner);\n        require(!bids.withdrawn);\n        require(_tokenMeta[_saleId].status);\n\n        LibShare.Share[] memory royalties;\n        LibShare.Share[] memory validatorRoyalties;\n        if (_fromCollection) {\n            royalties = getCollectionRoyalty(\n                _tokenMeta[_saleId].tokenContractAddress,\n                _tokenMeta[_saleId].tokenId\n            );\n            validatorRoyalties = getCollectionValidatorRoyalty(\n                _tokenMeta[_saleId].tokenContractAddress,\n                _tokenMeta[_saleId].tokenId\n            );\n        } else {\n            royalties = retrieveRoyalty(\n                _tokenMeta[_saleId].tokenContractAddress,\n                _tokenMeta[_saleId].tokenId\n            );\n            validatorRoyalties = retrieveValidatorRoyalty(\n                _tokenMeta[_saleId].tokenContractAddress,\n                _tokenMeta[_saleId].tokenId\n            );\n        }\n\n        _tokenMeta[_saleId].status = false;\n        _tokenMeta[_saleId].price = bids.price;\n        Bids[_saleId][_bidOrderID].withdrawn = true;\n\n        ERC721(_tokenMeta[_saleId].tokenContractAddress).safeTransferFrom(\n            address(this),\n            bids.buyerAddress,\n            _tokenMeta[_saleId].tokenId\n        );\n\n        uint256 sum = bids.price;\n        uint256 fee = bids.price / 100;\n\n        for (uint256 i = 0; i < royalties.length; i++) {\n            uint256 amount = (royalties[i].value * bids.price) / 10000;\n            // address payable receiver = royalties[i].account;\n            (bool royalSuccess, ) = payable(royalties[i].account).call{\n                value: amount\n            }(\"\");\n            require(royalSuccess, \"Royalty transfer failed\");\n            sum = sum - amount;\n        }\n\n        for (uint256 i = 0; i < validatorRoyalties.length; i++) {\n            uint256 amount = (validatorRoyalties[i].value * bids.price) / 10000;\n            (bool royalSuccess, ) = payable(validatorRoyalties[i].account).call{\n                value: amount\n            }(\"\");\n            require(royalSuccess, \"Royalty transfer failed\");\n            sum = sum - amount;\n        }\n\n        (bool isSuccess, ) = payable(msg.sender).call{value: (sum - fee)}(\"\");\n        require(isSuccess, \"Transfer failed\");\n        (bool feeSuccess, ) = payable(feeAddress).call{value: fee}(\"\");\n        require(feeSuccess, \"Fee Transfer failed\");\n\n        emit BidExecuted(_saleId, _bidOrderID, bids.price);\n    }\n\n    function withdrawBidMoney(\n        uint256 _saleId,\n        uint256 _bidId\n    ) external nonReentrant {\n        require(msg.sender != _tokenMeta[_saleId].currentOwner);\n        // BidOrder[] memory bids = Bids[_tokenId];\n        BidOrder memory bids = Bids[_saleId][_bidId];\n        require(_tokenMeta[_saleId].price != bids.price);\n        require(bids.buyerAddress == msg.sender);\n        require(!bids.withdrawn);\n        (bool success, ) = payable(msg.sender).call{value: bids.price}(\"\");\n        if (success) {\n            Bids[_saleId][_bidId].withdrawn = true;\n        } else {\n            revert(\"No Money left!\");\n        }\n\n        emit BidWithdrawn(_saleId, _bidId);\n    }\n\n    function transfer(TokenMeta storage token, address _to) internal {\n        token.currentOwner = _to;\n        token.status = false;\n        token.directSale = false;\n        token.bidSale = false;\n    }\n\n    function swapTokens(\n        address contractAddress,\n        uint256 token1,\n        uint256 token2\n    )\n        public\n        onlyOwnerOfToken(contractAddress, token1)\n        nonReentrant\n        returns (uint256)\n    {\n        require(\n            contractAddress != address(0),\n            \"you can't do this with zero address\"\n        );\n        address token2Owner = ERC721((contractAddress)).ownerOf(token2);\n        require(token2Owner != msg.sender, \"Cannot Swap Between Your Tokens\");\n        uint256 swapsId = _swapIdCounter.current();\n\n        ERC721(contractAddress).safeTransferFrom(\n            msg.sender,\n            address(this),\n            token1\n        );\n\n        Swap memory swap = Swap(\n            contractAddress,\n            msg.sender,\n            token1,\n            token2Owner,\n            token2,\n            true\n        );\n\n        _swaps[swapsId] = swap;\n\n        _swapIdCounter.increment();\n\n        emit SwapProposed(msg.sender, token2Owner, swapsId);\n\n        return swapsId;\n    }\n\n    function cancelSwap(uint256 _swapId) public nonReentrant {\n        require(\n            msg.sender == _swaps[_swapId].initiator,\n            \"Only owner can cancel sale\"\n        );\n        require(_swaps[_swapId].status, \"Token not on swap\");\n        _swaps[_swapId].status = false;\n        ERC721(_swaps[_swapId].NFTContractAddress).safeTransferFrom(\n            address(this),\n            _swaps[_swapId].initiator,\n            _swaps[_swapId].initiatorNftId\n        );\n\n        emit SwapCancelled(_swapId);\n    }\n\n    function acceptSwap(uint256 swapId) public nonReentrant {\n        Swap memory swap = _swaps[swapId];\n        require(swap.status, \"token must be on swap\");\n        require(swap.secondUser == msg.sender, \"Only owner can accept swap\");\n        swap.status = false;\n        ERC721(swap.NFTContractAddress).safeTransferFrom(\n            address(this),\n            msg.sender,\n            swap.initiatorNftId\n        );\n        ERC721(swap.NFTContractAddress).safeTransferFrom(\n            msg.sender,\n            swap.initiator,\n            swap.secondUserNftId\n        );\n\n        emit SwapAccepted(swapId);\n    }\n\n    function rejectSwap(uint256 swapId) public nonReentrant {\n        Swap memory swap = _swaps[swapId];\n        require(swap.status, \"token must be on swap\");\n        require(swap.secondUser == msg.sender, \"Only owner can accept swap\");\n        _swaps[swapId].status = false;\n        ERC721(swap.NFTContractAddress).safeTransferFrom(\n            address(this),\n            swap.initiator,\n            swap.initiatorNftId\n        );\n\n        emit SwapRejected(swapId);\n    }\n}\n",
  "sourcePath": "/home/sheeshco/code/truffle/aconomy-contract/contracts/piMarket.sol",
  "compiler": {
    "name": "solc",
    "version": "0.8.11+commit.d7f03943.Emscripten.clang"
  },
  "schemaVersion": "3.4.10",
  "updatedAt": "2023-03-21T07:02:45.423Z",
  "devdoc": {
    "kind": "dev",
    "methods": {
      "onERC721Received(address,address,uint256,bytes)": {
        "details": "See {IERC721Receiver-onERC721Received}. Always returns `IERC721Receiver.onERC721Received.selector`."
      }
    },
    "version": 1
  },
  "userdoc": {
    "kind": "user",
    "methods": {},
    "version": 1
  }
}