{
  "contractName": "piNFTMethods",
  "abi": [
    {
      "inputs": [],
      "stateMutability": "nonpayable",
      "type": "constructor"
    },
    {
      "anonymous": false,
      "inputs": [
        {
          "indexed": false,
          "internalType": "address",
          "name": "previousAdmin",
          "type": "address"
        },
        {
          "indexed": false,
          "internalType": "address",
          "name": "newAdmin",
          "type": "address"
        }
      ],
      "name": "AdminChanged",
      "type": "event"
    },
    {
      "anonymous": false,
      "inputs": [
        {
          "indexed": true,
          "internalType": "address",
          "name": "beacon",
          "type": "address"
        }
      ],
      "name": "BeaconUpgraded",
      "type": "event"
    },
    {
      "anonymous": false,
      "inputs": [
        {
          "indexed": false,
          "internalType": "address",
          "name": "collectionAddress",
          "type": "address"
        },
        {
          "indexed": true,
          "internalType": "address",
          "name": "from",
          "type": "address"
        },
        {
          "indexed": true,
          "internalType": "uint256",
          "name": "tokenId",
          "type": "uint256"
        },
        {
          "indexed": true,
          "internalType": "address",
          "name": "erc20Contract",
          "type": "address"
        },
        {
          "indexed": false,
          "internalType": "uint256",
          "name": "value",
          "type": "uint256"
        }
      ],
      "name": "ERC20Added",
      "type": "event"
    },
    {
      "anonymous": false,
      "inputs": [
        {
          "indexed": false,
          "internalType": "address",
          "name": "collectionAddress",
          "type": "address"
        },
        {
          "indexed": true,
          "internalType": "uint256",
          "name": "tokenId",
          "type": "uint256"
        },
        {
          "indexed": true,
          "internalType": "address",
          "name": "to",
          "type": "address"
        },
        {
          "indexed": true,
          "internalType": "address",
          "name": "erc20Contract",
          "type": "address"
        },
        {
          "indexed": false,
          "internalType": "uint256",
          "name": "value",
          "type": "uint256"
        }
      ],
      "name": "ERC20Transferred",
      "type": "event"
    },
    {
      "anonymous": false,
      "inputs": [
        {
          "indexed": false,
          "internalType": "uint8",
          "name": "version",
          "type": "uint8"
        }
      ],
      "name": "Initialized",
      "type": "event"
    },
    {
      "anonymous": false,
      "inputs": [
        {
          "indexed": true,
          "internalType": "address",
          "name": "previousOwner",
          "type": "address"
        },
        {
          "indexed": true,
          "internalType": "address",
          "name": "newOwner",
          "type": "address"
        }
      ],
      "name": "OwnershipTransferred",
      "type": "event"
    },
    {
      "anonymous": false,
      "inputs": [
        {
          "indexed": false,
          "internalType": "address",
          "name": "account",
          "type": "address"
        }
      ],
      "name": "Paused",
      "type": "event"
    },
    {
      "anonymous": false,
      "inputs": [
        {
          "indexed": false,
          "internalType": "address",
          "name": "collectionAddress",
          "type": "address"
        },
        {
          "indexed": false,
          "internalType": "uint256",
          "name": "tokenId",
          "type": "uint256"
        },
        {
          "indexed": false,
          "internalType": "address",
          "name": "nftReciever",
          "type": "address"
        },
        {
          "indexed": false,
          "internalType": "address",
          "name": "erc20Receiver",
          "type": "address"
        },
        {
          "indexed": false,
          "internalType": "address",
          "name": "erc20Contract",
          "type": "address"
        },
        {
          "indexed": false,
          "internalType": "uint256",
          "name": "value",
          "type": "uint256"
        }
      ],
      "name": "PiNFTBurnt",
      "type": "event"
    },
    {
      "anonymous": false,
      "inputs": [
        {
          "indexed": false,
          "internalType": "address",
          "name": "collectionAddress",
          "type": "address"
        },
        {
          "indexed": false,
          "internalType": "uint256",
          "name": "tokenId",
          "type": "uint256"
        },
        {
          "indexed": false,
          "internalType": "address",
          "name": "nftReciever",
          "type": "address"
        },
        {
          "indexed": false,
          "internalType": "address",
          "name": "validatorAddress",
          "type": "address"
        },
        {
          "indexed": false,
          "internalType": "address",
          "name": "erc20Contract",
          "type": "address"
        },
        {
          "indexed": false,
          "internalType": "uint256",
          "name": "value",
          "type": "uint256"
        }
      ],
      "name": "PiNFTRedeemed",
      "type": "event"
    },
    {
      "anonymous": false,
      "inputs": [
        {
          "indexed": false,
          "internalType": "address",
          "name": "account",
          "type": "address"
        }
      ],
      "name": "Unpaused",
      "type": "event"
    },
    {
      "anonymous": false,
      "inputs": [
        {
          "indexed": true,
          "internalType": "address",
          "name": "implementation",
          "type": "address"
        }
      ],
      "name": "Upgraded",
      "type": "event"
    },
    {
      "anonymous": false,
      "inputs": [
        {
          "indexed": false,
          "internalType": "address",
          "name": "collectionAddress",
          "type": "address"
        },
        {
          "indexed": false,
          "internalType": "uint256",
          "name": "tokenId",
          "type": "uint256"
        },
        {
          "indexed": false,
          "internalType": "address",
          "name": "validator",
          "type": "address"
        }
      ],
      "name": "ValidatorAdded",
      "type": "event"
    },
    {
      "anonymous": false,
      "inputs": [
        {
          "indexed": false,
          "internalType": "address",
          "name": "collectionAddress",
          "type": "address"
        },
        {
          "indexed": false,
          "internalType": "address",
          "name": "repayer",
          "type": "address"
        },
        {
          "indexed": false,
          "internalType": "uint256",
          "name": "tokenId",
          "type": "uint256"
        },
        {
          "indexed": false,
          "internalType": "address",
          "name": "erc20Contract",
          "type": "address"
        },
        {
          "indexed": false,
          "internalType": "uint256",
          "name": "amount",
          "type": "uint256"
        }
      ],
      "name": "ValidatorFundsRepayed",
      "type": "event"
    },
    {
      "anonymous": false,
      "inputs": [
        {
          "indexed": false,
          "internalType": "address",
          "name": "collectionAddress",
          "type": "address"
        },
        {
          "indexed": false,
          "internalType": "address",
          "name": "withdrawer",
          "type": "address"
        },
        {
          "indexed": false,
          "internalType": "uint256",
          "name": "tokenId",
          "type": "uint256"
        },
        {
          "indexed": false,
          "internalType": "address",
          "name": "erc20Contract",
          "type": "address"
        },
        {
          "indexed": false,
          "internalType": "uint256",
          "name": "amount",
          "type": "uint256"
        }
      ],
      "name": "ValidatorFundsWithdrawn",
      "type": "event"
    },
    {
      "inputs": [
        {
          "internalType": "address",
          "name": "",
          "type": "address"
        },
        {
          "internalType": "uint256",
          "name": "",
          "type": "uint256"
        }
      ],
      "name": "NFTowner",
      "outputs": [
        {
          "internalType": "address",
          "name": "",
          "type": "address"
        }
      ],
      "stateMutability": "view",
      "type": "function"
    },
    {
      "inputs": [
        {
          "internalType": "address",
          "name": "_tf",
          "type": "address"
        }
      ],
      "name": "addTrustedForwarder",
      "outputs": [],
      "stateMutability": "nonpayable",
      "type": "function"
    },
    {
      "inputs": [
        {
          "internalType": "address",
          "name": "",
          "type": "address"
        },
        {
          "internalType": "uint256",
          "name": "",
          "type": "uint256"
        }
      ],
      "name": "approvedValidator",
      "outputs": [
        {
          "internalType": "address",
          "name": "",
          "type": "address"
        }
      ],
      "stateMutability": "view",
      "type": "function"
    },
    {
      "inputs": [
        {
          "internalType": "address",
          "name": "",
          "type": "address"
        },
        {
          "internalType": "uint256",
          "name": "",
          "type": "uint256"
        },
        {
          "internalType": "uint256",
          "name": "",
          "type": "uint256"
        }
      ],
      "name": "erc20Contracts",
      "outputs": [
        {
          "internalType": "address",
          "name": "",
          "type": "address"
        }
      ],
      "stateMutability": "view",
      "type": "function"
    },
    {
      "inputs": [
        {
          "internalType": "address",
          "name": "forwarder",
          "type": "address"
        }
      ],
      "name": "isTrustedForwarder",
      "outputs": [
        {
          "internalType": "bool",
          "name": "",
          "type": "bool"
        }
      ],
      "stateMutability": "view",
      "type": "function"
    },
    {
      "inputs": [],
      "name": "owner",
      "outputs": [
        {
          "internalType": "address",
          "name": "",
          "type": "address"
        }
      ],
      "stateMutability": "view",
      "type": "function"
    },
    {
      "inputs": [],
      "name": "paused",
      "outputs": [
        {
          "internalType": "bool",
          "name": "",
          "type": "bool"
        }
      ],
      "stateMutability": "view",
      "type": "function"
    },
    {
      "inputs": [],
      "name": "piMarketAddress",
      "outputs": [
        {
          "internalType": "address",
          "name": "",
          "type": "address"
        }
      ],
      "stateMutability": "view",
      "type": "function"
    },
    {
      "inputs": [],
      "name": "proxiableUUID",
      "outputs": [
        {
          "internalType": "bytes32",
          "name": "",
          "type": "bytes32"
        }
      ],
      "stateMutability": "view",
      "type": "function"
    },
    {
      "inputs": [
        {
          "internalType": "address",
          "name": "_tf",
          "type": "address"
        }
      ],
      "name": "removeTrustedForwarder",
      "outputs": [],
      "stateMutability": "nonpayable",
      "type": "function"
    },
    {
      "inputs": [],
      "name": "renounceOwnership",
      "outputs": [],
      "stateMutability": "nonpayable",
      "type": "function"
    },
    {
      "inputs": [
        {
          "internalType": "address",
          "name": "newOwner",
          "type": "address"
        }
      ],
      "name": "transferOwnership",
      "outputs": [],
      "stateMutability": "nonpayable",
      "type": "function"
    },
    {
      "inputs": [
        {
          "internalType": "address",
          "name": "",
          "type": "address"
        }
      ],
      "name": "trustedForwarders",
      "outputs": [
        {
          "internalType": "bool",
          "name": "",
          "type": "bool"
        }
      ],
      "stateMutability": "view",
      "type": "function"
    },
    {
      "inputs": [
        {
          "internalType": "address",
          "name": "newImplementation",
          "type": "address"
        }
      ],
      "name": "upgradeTo",
      "outputs": [],
      "stateMutability": "nonpayable",
      "type": "function"
    },
    {
      "inputs": [
        {
          "internalType": "address",
          "name": "newImplementation",
          "type": "address"
        },
        {
          "internalType": "bytes",
          "name": "data",
          "type": "bytes"
        }
      ],
      "name": "upgradeToAndCall",
      "outputs": [],
      "stateMutability": "payable",
      "type": "function"
    },
    {
      "inputs": [
        {
          "internalType": "address",
          "name": "",
          "type": "address"
        },
        {
          "internalType": "uint256",
          "name": "",
          "type": "uint256"
        }
      ],
      "name": "validatorCommissions",
      "outputs": [
        {
          "components": [
            {
              "internalType": "address payable",
              "name": "account",
              "type": "address"
            },
            {
              "internalType": "uint96",
              "name": "value",
              "type": "uint96"
            }
          ],
          "internalType": "struct LibShare.Share",
          "name": "commission",
          "type": "tuple"
        },
        {
          "internalType": "bool",
          "name": "isValid",
          "type": "bool"
        }
      ],
      "stateMutability": "view",
      "type": "function"
    },
    {
      "inputs": [
        {
          "internalType": "address",
          "name": "trustedForwarder",
          "type": "address"
        }
      ],
      "name": "initialize",
      "outputs": [],
      "stateMutability": "nonpayable",
      "type": "function"
    },
    {
      "inputs": [
        {
          "internalType": "address",
          "name": "_piMarket",
          "type": "address"
        }
      ],
      "name": "setPiMarket",
      "outputs": [],
      "stateMutability": "nonpayable",
      "type": "function"
    },
    {
      "inputs": [],
      "name": "pause",
      "outputs": [],
      "stateMutability": "nonpayable",
      "type": "function"
    },
    {
      "inputs": [],
      "name": "unpause",
      "outputs": [],
      "stateMutability": "nonpayable",
      "type": "function"
    },
    {
      "inputs": [
        {
          "internalType": "address",
          "name": "_collectionAddress",
          "type": "address"
        },
        {
          "internalType": "uint256",
          "name": "_tokenId",
          "type": "uint256"
        },
        {
          "internalType": "address",
          "name": "_validator",
          "type": "address"
        }
      ],
      "name": "addValidator",
      "outputs": [],
      "stateMutability": "nonpayable",
      "type": "function"
    },
    {
      "inputs": [
        {
          "internalType": "address",
          "name": "_collectionAddress",
          "type": "address"
        },
        {
          "internalType": "uint256",
          "name": "_tokenId",
          "type": "uint256"
        },
        {
          "internalType": "address",
          "name": "_validator",
          "type": "address"
        }
      ],
      "name": "lazyAddValidator",
      "outputs": [],
      "stateMutability": "nonpayable",
      "type": "function"
    },
    {
      "inputs": [
        {
          "internalType": "address",
          "name": "_collectionAddress",
          "type": "address"
        },
        {
          "internalType": "uint256",
          "name": "_tokenId",
          "type": "uint256"
        },
        {
          "internalType": "address",
          "name": "_erc20Contract",
          "type": "address"
        },
        {
          "internalType": "uint256",
          "name": "_value",
          "type": "uint256"
        },
        {
          "internalType": "uint96",
          "name": "_commission",
          "type": "uint96"
        },
        {
          "components": [
            {
              "internalType": "address payable",
              "name": "account",
              "type": "address"
            },
            {
              "internalType": "uint96",
              "name": "value",
              "type": "uint96"
            }
          ],
          "internalType": "struct LibShare.Share[]",
          "name": "royalties",
          "type": "tuple[]"
        }
      ],
      "name": "addERC20",
      "outputs": [],
      "stateMutability": "nonpayable",
      "type": "function"
    },
    {
      "inputs": [
        {
          "internalType": "address",
          "name": "_collectionAddress",
          "type": "address"
        },
        {
          "internalType": "uint256",
          "name": "_tokenId",
          "type": "uint256"
        },
        {
          "internalType": "address",
          "name": "_nftReceiver",
          "type": "address"
        },
        {
          "internalType": "address",
          "name": "_erc20Receiver",
          "type": "address"
        },
        {
          "internalType": "address",
          "name": "_erc20Contract",
          "type": "address"
        },
        {
          "internalType": "bool",
          "name": "burnNFT",
          "type": "bool"
        }
      ],
      "name": "redeemOrBurnPiNFT",
      "outputs": [],
      "stateMutability": "nonpayable",
      "type": "function"
    },
    {
      "inputs": [
        {
          "internalType": "address",
          "name": "_collectionAddress",
          "type": "address"
        },
        {
          "internalType": "uint256",
          "name": "_tokenId",
          "type": "uint256"
        },
        {
          "internalType": "address",
          "name": "_erc20Address",
          "type": "address"
        }
      ],
      "name": "viewBalance",
      "outputs": [
        {
          "internalType": "uint256",
          "name": "",
          "type": "uint256"
        }
      ],
      "stateMutability": "view",
      "type": "function"
    },
    {
      "inputs": [
        {
          "internalType": "address",
          "name": "_collectionAddress",
          "type": "address"
        },
        {
          "internalType": "uint256",
          "name": "_tokenId",
          "type": "uint256"
        },
        {
          "internalType": "address",
          "name": "_erc20Contract",
          "type": "address"
        },
        {
          "internalType": "uint256",
          "name": "_amount",
          "type": "uint256"
        }
      ],
      "name": "withdraw",
      "outputs": [],
      "stateMutability": "nonpayable",
      "type": "function"
    },
    {
      "inputs": [
        {
          "internalType": "address",
          "name": "_collectionAddress",
          "type": "address"
        },
        {
          "internalType": "uint256",
          "name": "_tokenId",
          "type": "uint256"
        }
      ],
      "name": "viewWithdrawnAmount",
      "outputs": [
        {
          "internalType": "uint256",
          "name": "",
          "type": "uint256"
        }
      ],
      "stateMutability": "view",
      "type": "function"
    },
    {
      "inputs": [
        {
          "internalType": "address",
          "name": "_collectionAddress",
          "type": "address"
        },
        {
          "internalType": "uint256",
          "name": "_tokenId",
          "type": "uint256"
        },
        {
          "internalType": "address",
          "name": "_erc20Contract",
          "type": "address"
        },
        {
          "internalType": "uint256",
          "name": "_amount",
          "type": "uint256"
        }
      ],
      "name": "Repay",
      "outputs": [],
      "stateMutability": "nonpayable",
      "type": "function"
    },
    {
      "inputs": [
        {
          "internalType": "address",
          "name": "_collection",
          "type": "address"
        },
        {
          "internalType": "uint256",
          "name": "_tokenId",
          "type": "uint256"
        }
      ],
      "name": "paidCommission",
      "outputs": [],
      "stateMutability": "nonpayable",
      "type": "function"
    },
    {
      "inputs": [
        {
          "internalType": "address",
          "name": "",
          "type": "address"
        },
        {
          "internalType": "address",
          "name": "",
          "type": "address"
        },
        {
          "internalType": "uint256",
          "name": "",
          "type": "uint256"
        },
        {
          "internalType": "bytes",
          "name": "",
          "type": "bytes"
        }
      ],
      "name": "onERC721Received",
      "outputs": [
        {
          "internalType": "bytes4",
          "name": "",
          "type": "bytes4"
        }
      ],
      "stateMutability": "nonpayable",
      "type": "function"
    }
  ],
  "bytecode": "0x60a06040523073ffffffffffffffffffffffffffffffffffffffff1660809073ffffffffffffffffffffffffffffffffffffffff168152503480156200004457600080fd5b50620000556200005b60201b60201c565b62000206565b600060019054906101000a900460ff1615620000ae576040517f08c379a0000000000000000000000000000000000000000000000000000000008152600401620000a590620001a9565b60405180910390fd5b60ff801660008054906101000a900460ff1660ff161015620001205760ff6000806101000a81548160ff021916908360ff1602179055507f7f26b83ff96e1f2b6a682f133852f6798a09c465da95921460cefb384740249860ff604051620001179190620001e9565b60405180910390a15b565b600082825260208201905092915050565b7f496e697469616c697a61626c653a20636f6e747261637420697320696e69746960008201527f616c697a696e6700000000000000000000000000000000000000000000000000602082015250565b60006200019160278362000122565b91506200019e8262000133565b604082019050919050565b60006020820190508181036000830152620001c48162000182565b9050919050565b600060ff82169050919050565b620001e381620001cb565b82525050565b6000602082019050620002006000830184620001d8565b92915050565b608051615f826200023e600039600081816109e301528181610a72015281816111f60152818161128501526113350152615f826000f3fe6080604052600436106101cd5760003560e01c80636f9e5d47116100f7578063b3b86a5411610095578063e45fff0211610064578063e45fff0214610676578063f2fde38b1461069f578063f351781b146106c8578063f6d96cbb146106f1576101cd565b8063b3b86a54146105a9578063c4d66de8146105e7578063cb660fef14610610578063d7aefa451461064d576101cd565b80638456cb59116100d15780638456cb59146104ed5780638da5cb5b146105045780638f3881d01461052f578063a7aed6051461056c576101cd565b80636f9e5d471461045c578063715018a61461049957806373808791146104b0576101cd565b80633f4ba83a1161016f57806354776bb91161013e57806354776bb91461038e578063572b6c05146103cb5780635c975abb1461040857806361746b9214610433576101cd565b80633f4ba83a146103075780634b2084e31461031e5780634f1ef2861461034757806352d1902d14610363576101cd565b80632f93713a116101ab5780632f93713a146102615780633659cfe61461028a57806337065d69146102b35780633751d89c146102de576101cd565b8063150b7a02146101d257806326d006681461020f5780632a3778fa14610238575b600080fd5b3480156101de57600080fd5b506101f960048036038101906101f491906148ed565b61071a565b60405161020691906149ab565b60405180910390f35b34801561021b57600080fd5b50610236600480360381019061023191906149c6565b61072e565b005b34801561024457600080fd5b5061025f600480360381019061025a91906149f3565b610791565b005b34801561026d57600080fd5b50610288600480360381019061028391906149c6565b610994565b005b34801561029657600080fd5b506102b160048036038101906102ac91906149c6565b6109e1565b005b3480156102bf57600080fd5b506102c8610b6a565b6040516102d59190614a55565b60405180910390f35b3480156102ea57600080fd5b50610305600480360381019061030091906149c6565b610b91565b005b34801561031357600080fd5b5061031c610bf4565b005b34801561032a57600080fd5b5061034560048036038101906103409190614a70565b610c06565b005b610361600480360381019061035c9190614ad7565b6111f4565b005b34801561036f57600080fd5b50610378611331565b6040516103859190614b4c565b60405180910390f35b34801561039a57600080fd5b506103b560048036038101906103b091906149c6565b6113ea565b6040516103c29190614b82565b60405180910390f35b3480156103d757600080fd5b506103f260048036038101906103ed91906149c6565b61140a565b6040516103ff9190614b82565b60405180910390f35b34801561041457600080fd5b5061041d611460565b60405161042a9190614b82565b60405180910390f35b34801561043f57600080fd5b5061045a600480360381019061045591906149f3565b611477565b005b34801561046857600080fd5b50610483600480360381019061047e91906149f3565b611661565b6040516104909190614bac565b60405180910390f35b3480156104a557600080fd5b506104ae6116fb565b005b3480156104bc57600080fd5b506104d760048036038101906104d29190614bc7565b61170f565b6040516104e49190614a55565b60405180910390f35b3480156104f957600080fd5b50610502611752565b005b34801561051057600080fd5b50610519611764565b6040516105269190614a55565b60405180910390f35b34801561053b57600080fd5b5061055660048036038101906105519190614c07565b61178e565b6040516105639190614a55565b60405180910390f35b34801561057857600080fd5b50610593600480360381019061058e9190614bc7565b6117ea565b6040516105a09190614a55565b60405180910390f35b3480156105b557600080fd5b506105d060048036038101906105cb9190614bc7565b61182d565b6040516105de929190614cd1565b60405180910390f35b3480156105f357600080fd5b5061060e600480360381019061060991906149c6565b61190a565b005b34801561061c57600080fd5b5061063760048036038101906106329190614bc7565b611a5a565b6040516106449190614bac565b60405180910390f35b34801561065957600080fd5b50610674600480360381019061066f9190614a70565b611ab6565b005b34801561068257600080fd5b5061069d60048036038101906106989190614bc7565b611f13565b005b3480156106ab57600080fd5b506106c660048036038101906106c191906149c6565b611fdf565b005b3480156106d457600080fd5b506106ef60048036038101906106ea9190614e6f565b612063565b005b3480156106fd57600080fd5b5061071860048036038101906107139190614f44565b6128c9565b005b600063150b7a0260e01b9050949350505050565b610736613255565b6001609760008373ffffffffffffffffffffffffffffffffffffffff1673ffffffffffffffffffffffffffffffffffffffff16815260200190815260200160002060006101000a81548160ff02191690831515021790555050565b6107996132d3565b6107a23361140a565b6107ab57600080fd5b6107b361331d565b73ffffffffffffffffffffffffffffffffffffffff168373ffffffffffffffffffffffffffffffffffffffff16636352211e846040518263ffffffff1660e01b81526004016108029190614bac565b602060405180830381865afa15801561081f573d6000803e3d6000fd5b505050506040513d601f19601f820116820180604052508101906108439190614fe6565b73ffffffffffffffffffffffffffffffffffffffff161461086357600080fd5b600061013060008573ffffffffffffffffffffffffffffffffffffffff1673ffffffffffffffffffffffffffffffffffffffff168152602001908152602001600020600084815260200190815260200160002080549050146108c457600080fd5b8061013460008573ffffffffffffffffffffffffffffffffffffffff1673ffffffffffffffffffffffffffffffffffffffff168152602001908152602001600020600084815260200190815260200160002060006101000a81548173ffffffffffffffffffffffffffffffffffffffff021916908373ffffffffffffffffffffffffffffffffffffffff1602179055507f3eed3aea14f6a90316a7cbf29c4b43e75e9c7244df171497b2dfc68a56322fc983838360405161098793929190615013565b60405180910390a1505050565b61099c613255565b8061012e60006101000a81548173ffffffffffffffffffffffffffffffffffffffff021916908373ffffffffffffffffffffffffffffffffffffffff16021790555050565b7f000000000000000000000000000000000000000000000000000000000000000073ffffffffffffffffffffffffffffffffffffffff163073ffffffffffffffffffffffffffffffffffffffff161415610a70576040517f08c379a0000000000000000000000000000000000000000000000000000000008152600401610a67906150cd565b60405180910390fd5b7f000000000000000000000000000000000000000000000000000000000000000073ffffffffffffffffffffffffffffffffffffffff16610aaf61334f565b73ffffffffffffffffffffffffffffffffffffffff1614610b05576040517f08c379a0000000000000000000000000000000000000000000000000000000008152600401610afc9061515f565b60405180910390fd5b610b0e816133a6565b610b6781600067ffffffffffffffff811115610b2d57610b2c6147c2565b5b6040519080825280601f01601f191660200182016040528015610b5f5781602001600182028036833780820191505090505b5060006133b1565b50565b61012e60009054906101000a900473ffffffffffffffffffffffffffffffffffffffff1681565b610b99613255565b6000609760008373ffffffffffffffffffffffffffffffffffffffff1673ffffffffffffffffffffffffffffffffffffffff16815260200190815260200160002060006101000a81548160ff02191690831515021790555050565b610bfc613255565b610c0461351f565b565b610c0e613582565b610c166132d3565b600061013360008673ffffffffffffffffffffffffffffffffffffffff1673ffffffffffffffffffffffffffffffffffffffff1681526020019081526020016000206000858152602001908152602001600020541415610db2578373ffffffffffffffffffffffffffffffffffffffff16636352211e846040518263ffffffff1660e01b8152600401610ca99190614bac565b602060405180830381865afa158015610cc6573d6000803e3d6000fd5b505050506040513d601f19601f82011682018060405250810190610cea9190614fe6565b73ffffffffffffffffffffffffffffffffffffffff163373ffffffffffffffffffffffffffffffffffffffff1614610d2157600080fd5b3361013260008673ffffffffffffffffffffffffffffffffffffffff1673ffffffffffffffffffffffffffffffffffffffff168152602001908152602001600020600085815260200190815260200160002060006101000a81548173ffffffffffffffffffffffffffffffffffffffff021916908373ffffffffffffffffffffffffffffffffffffffff1602179055505b3373ffffffffffffffffffffffffffffffffffffffff1661013260008673ffffffffffffffffffffffffffffffffffffffff1673ffffffffffffffffffffffffffffffffffffffff168152602001908152602001600020600085815260200190815260200160002060009054906101000a900473ffffffffffffffffffffffffffffffffffffffff1673ffffffffffffffffffffffffffffffffffffffff1614610e5b57600080fd5b600061012f60008673ffffffffffffffffffffffffffffffffffffffff1673ffffffffffffffffffffffffffffffffffffffff168152602001908152602001600020600085815260200190815260200160002060008473ffffffffffffffffffffffffffffffffffffffff1673ffffffffffffffffffffffffffffffffffffffff168152602001908152602001600020541415610ef757600080fd5b61012f60008573ffffffffffffffffffffffffffffffffffffffff1673ffffffffffffffffffffffffffffffffffffffff168152602001908152602001600020600084815260200190815260200160002060008373ffffffffffffffffffffffffffffffffffffffff1673ffffffffffffffffffffffffffffffffffffffff168152602001908152602001600020548161013360008773ffffffffffffffffffffffffffffffffffffffff1673ffffffffffffffffffffffffffffffffffffffff168152602001908152602001600020600086815260200190815260200160002054610fe391906151ae565b1115610fee57600080fd5b8173ffffffffffffffffffffffffffffffffffffffff1663a9059cbb33836040518363ffffffff1660e01b8152600401611029929190615204565b6020604051808303816000875af1158015611048573d6000803e3d6000fd5b505050506040513d601f19601f8201168201806040525081019061106c9190615242565b61107557600080fd5b600061013360008673ffffffffffffffffffffffffffffffffffffffff1673ffffffffffffffffffffffffffffffffffffffff168152602001908152602001600020600085815260200190815260200160002054141561113f578373ffffffffffffffffffffffffffffffffffffffff166342842e0e3330866040518463ffffffff1660e01b815260040161110c9392919061526f565b600060405180830381600087803b15801561112657600080fd5b505af115801561113a573d6000803e3d6000fd5b505050505b8061013360008673ffffffffffffffffffffffffffffffffffffffff1673ffffffffffffffffffffffffffffffffffffffff168152602001908152602001600020600085815260200190815260200160002060008282546111a091906151ae565b925050819055507f73c883fdfdf5d69e7c4f4be4510c458c7382dc064873b6632087dd9719c4dbbd84338585856040516111de9594939291906152a6565b60405180910390a16111ee6135d2565b50505050565b7f000000000000000000000000000000000000000000000000000000000000000073ffffffffffffffffffffffffffffffffffffffff163073ffffffffffffffffffffffffffffffffffffffff161415611283576040517f08c379a000000000000000000000000000000000000000000000000000000000815260040161127a906150cd565b60405180910390fd5b7f000000000000000000000000000000000000000000000000000000000000000073ffffffffffffffffffffffffffffffffffffffff166112c261334f565b73ffffffffffffffffffffffffffffffffffffffff1614611318576040517f08c379a000000000000000000000000000000000000000000000000000000000815260040161130f9061515f565b60405180910390fd5b611321826133a6565b61132d828260016133b1565b5050565b60007f000000000000000000000000000000000000000000000000000000000000000073ffffffffffffffffffffffffffffffffffffffff163073ffffffffffffffffffffffffffffffffffffffff16146113c1576040517f08c379a00000000000000000000000000000000000000000000000000000000081526004016113b89061536b565b60405180910390fd5b7f360894a13ba1a3210667c828492db98dca3e2076cc3735a920a3ca505d382bbc60001b905090565b60976020528060005260406000206000915054906101000a900460ff1681565b6000609760008373ffffffffffffffffffffffffffffffffffffffff1673ffffffffffffffffffffffffffffffffffffffff16815260200190815260200160002060009054906101000a900460ff169050919050565b6000609860009054906101000a900460ff16905090565b61147f6132d3565b3373ffffffffffffffffffffffffffffffffffffffff168373ffffffffffffffffffffffffffffffffffffffff16636352211e846040518263ffffffff1660e01b81526004016114cf9190614bac565b602060405180830381865afa1580156114ec573d6000803e3d6000fd5b505050506040513d601f19601f820116820180604052508101906115109190614fe6565b73ffffffffffffffffffffffffffffffffffffffff161461153057600080fd5b600061013060008573ffffffffffffffffffffffffffffffffffffffff1673ffffffffffffffffffffffffffffffffffffffff1681526020019081526020016000206000848152602001908152602001600020805490501461159157600080fd5b8061013460008573ffffffffffffffffffffffffffffffffffffffff1673ffffffffffffffffffffffffffffffffffffffff168152602001908152602001600020600084815260200190815260200160002060006101000a81548173ffffffffffffffffffffffffffffffffffffffff021916908373ffffffffffffffffffffffffffffffffffffffff1602179055507f3eed3aea14f6a90316a7cbf29c4b43e75e9c7244df171497b2dfc68a56322fc983838360405161165493929190615013565b60405180910390a1505050565b600061012f60008573ffffffffffffffffffffffffffffffffffffffff1673ffffffffffffffffffffffffffffffffffffffff168152602001908152602001600020600084815260200190815260200160002060008373ffffffffffffffffffffffffffffffffffffffff1673ffffffffffffffffffffffffffffffffffffffff1681526020019081526020016000205490509392505050565b611703613255565b61170d60006135db565b565b6101346020528160005260406000206020528060005260406000206000915091509054906101000a900473ffffffffffffffffffffffffffffffffffffffff1681565b61175a613255565b6117626136a1565b565b6000606560009054906101000a900473ffffffffffffffffffffffffffffffffffffffff16905090565b61013060205282600052604060002060205281600052604060002081815481106117b757600080fd5b90600052602060002001600092509250509054906101000a900473ffffffffffffffffffffffffffffffffffffffff1681565b6101326020528160005260406000206020528060005260406000206000915091509054906101000a900473ffffffffffffffffffffffffffffffffffffffff1681565b61013560205281600052604060002060205280600052604060002060009150915050806000016040518060400160405290816000820160009054906101000a900473ffffffffffffffffffffffffffffffffffffffff1673ffffffffffffffffffffffffffffffffffffffff1673ffffffffffffffffffffffffffffffffffffffff1681526020016000820160149054906101000a90046bffffffffffffffffffffffff166bffffffffffffffffffffffff166bffffffffffffffffffffffff1681525050908060010160009054906101000a900460ff16905082565b60008060019054906101000a900460ff1615905080801561193b5750600160008054906101000a900460ff1660ff16105b80611968575061194a30613704565b1580156119675750600160008054906101000a900460ff1660ff16145b5b6119a7576040517f08c379a000000000000000000000000000000000000000000000000000000000815260040161199e906153fd565b60405180910390fd5b60016000806101000a81548160ff021916908360ff16021790555080156119e4576001600060016101000a81548160ff0219169083151502179055505b6119ec613727565b6119f4613780565b6119fd826137d1565b8015611a565760008060016101000a81548160ff0219169083151502179055507f7f26b83ff96e1f2b6a682f133852f6798a09c465da95921460cefb38474024986001604051611a4d919061546f565b60405180910390a15b5050565b600061013360008473ffffffffffffffffffffffffffffffffffffffff1673ffffffffffffffffffffffffffffffffffffffff168152602001908152602001600020600083815260200190815260200160002054905092915050565b611abe613582565b611ac66132d3565b3373ffffffffffffffffffffffffffffffffffffffff1661013260008673ffffffffffffffffffffffffffffffffffffffff1673ffffffffffffffffffffffffffffffffffffffff168152602001908152602001600020600085815260200190815260200160002060009054906101000a900473ffffffffffffffffffffffffffffffffffffffff1673ffffffffffffffffffffffffffffffffffffffff1614611ba5576040517f08c379a0000000000000000000000000000000000000000000000000000000008152600401611b9c906154d6565b60405180910390fd5b600061012f60008673ffffffffffffffffffffffffffffffffffffffff1673ffffffffffffffffffffffffffffffffffffffff168152602001908152602001600020600085815260200190815260200160002060008473ffffffffffffffffffffffffffffffffffffffff1673ffffffffffffffffffffffffffffffffffffffff168152602001908152602001600020541415611c77576040517f08c379a0000000000000000000000000000000000000000000000000000000008152600401611c6e90615542565b60405180910390fd5b61013360008573ffffffffffffffffffffffffffffffffffffffff1673ffffffffffffffffffffffffffffffffffffffff168152602001908152602001600020600084815260200190815260200160002054811115611d0b576040517f08c379a0000000000000000000000000000000000000000000000000000000008152600401611d02906155ae565b60405180910390fd5b8061013360008673ffffffffffffffffffffffffffffffffffffffff1673ffffffffffffffffffffffffffffffffffffffff16815260200190815260200160002060008581526020019081526020016000206000828254611d6c91906155ce565b925050819055508173ffffffffffffffffffffffffffffffffffffffff166323b872dd3330846040518463ffffffff1660e01b8152600401611db09392919061526f565b6020604051808303816000875af1158015611dcf573d6000803e3d6000fd5b505050506040513d601f19601f82011682018060405250810190611df39190615242565b611dfc57600080fd5b600061013360008673ffffffffffffffffffffffffffffffffffffffff1673ffffffffffffffffffffffffffffffffffffffff1681526020019081526020016000206000858152602001908152602001600020541415611ec6578373ffffffffffffffffffffffffffffffffffffffff166342842e0e3033866040518463ffffffff1660e01b8152600401611e939392919061526f565b600060405180830381600087803b158015611ead57600080fd5b505af1158015611ec1573d6000803e3d6000fd5b505050505b7f65e3a8ea984712007ee6990eb3643dc4fb17ee9bcd6ee1e3cae38f3a18ed3c4f8433858585604051611efd9594939291906152a6565b60405180910390a1611f0d6135d2565b50505050565b61012e60009054906101000a900473ffffffffffffffffffffffffffffffffffffffff1673ffffffffffffffffffffffffffffffffffffffff163373ffffffffffffffffffffffffffffffffffffffff1614611f6e57600080fd5b600061013560008473ffffffffffffffffffffffffffffffffffffffff1673ffffffffffffffffffffffffffffffffffffffff168152602001908152602001600020600083815260200190815260200160002060010160006101000a81548160ff0219169083151502179055505050565b611fe7613255565b600073ffffffffffffffffffffffffffffffffffffffff168173ffffffffffffffffffffffffffffffffffffffff161415612057576040517f08c379a000000000000000000000000000000000000000000000000000000000815260040161204e90615674565b60405180910390fd5b612060816135db565b50565b61206b6132d3565b612073613582565b8573ffffffffffffffffffffffffffffffffffffffff16634f558e79866040518263ffffffff1660e01b81526004016120ac9190614bac565b602060405180830381865afa1580156120c9573d6000803e3d6000fd5b505050506040513d601f19601f820116820180604052508101906120ed9190615242565b6120f657600080fd5b600073ffffffffffffffffffffffffffffffffffffffff1661013460008873ffffffffffffffffffffffffffffffffffffffff1673ffffffffffffffffffffffffffffffffffffffff168152602001908152602001600020600087815260200190815260200160002060009054906101000a900473ffffffffffffffffffffffffffffffffffffffff1673ffffffffffffffffffffffffffffffffffffffff1614156121a157600080fd5b61013460008773ffffffffffffffffffffffffffffffffffffffff1673ffffffffffffffffffffffffffffffffffffffff168152602001908152602001600020600086815260200190815260200160002060009054906101000a900473ffffffffffffffffffffffffffffffffffffffff1673ffffffffffffffffffffffffffffffffffffffff163373ffffffffffffffffffffffffffffffffffffffff161461224a57600080fd5b600073ffffffffffffffffffffffffffffffffffffffff168473ffffffffffffffffffffffffffffffffffffffff16141561228457600080fd5b600083141561229257600080fd5b600161013060008873ffffffffffffffffffffffffffffffffffffffff1673ffffffffffffffffffffffffffffffffffffffff1681526020019081526020016000206000878152602001908152602001600020805490501061251a5761013060008773ffffffffffffffffffffffffffffffffffffffff1673ffffffffffffffffffffffffffffffffffffffff168152602001908152602001600020600086815260200190815260200160002060008154811061235257612351615694565b5b9060005260206000200160009054906101000a900473ffffffffffffffffffffffffffffffffffffffff1673ffffffffffffffffffffffffffffffffffffffff168473ffffffffffffffffffffffffffffffffffffffff16146123ea576040517f08c379a00000000000000000000000000000000000000000000000000000000081526004016123e19061570f565b60405180910390fd5b73__LibShare______________________________6387ebb9b561013560008973ffffffffffffffffffffffffffffffffffffffff1673ffffffffffffffffffffffffffffffffffffffff1681526020019081526020016000206000888152602001908152602001600020600001846040518363ffffffff1660e01b8152600401612476929190615745565b60006040518083038186803b15801561248e57600080fd5b505af41580156124a2573d6000803e3d6000fd5b505050508573ffffffffffffffffffffffffffffffffffffffff166345913fe98684846040518463ffffffff1660e01b81526004016124e39392919061587d565b600060405180830381600087803b1580156124fd57600080fd5b505af1158015612511573d6000803e3d6000fd5b505050506126b3565b73__LibShare______________________________6387ebb9b561013560008973ffffffffffffffffffffffffffffffffffffffff1673ffffffffffffffffffffffffffffffffffffffff1681526020019081526020016000206000888152602001908152602001600020600001846040518363ffffffff1660e01b81526004016125a6929190615745565b60006040518083038186803b1580156125be57600080fd5b505af41580156125d2573d6000803e3d6000fd5b50505050600161013560008873ffffffffffffffffffffffffffffffffffffffff1673ffffffffffffffffffffffffffffffffffffffff168152602001908152602001600020600087815260200190815260200160002060010160006101000a81548160ff0219169083151502179055508573ffffffffffffffffffffffffffffffffffffffff166345913fe98684846040518463ffffffff1660e01b81526004016126809392919061587d565b600060405180830381600087803b15801561269a57600080fd5b505af11580156126ae573d6000803e3d6000fd5b505050505b8573ffffffffffffffffffffffffffffffffffffffff16636352211e866040518263ffffffff1660e01b81526004016126ec9190614bac565b602060405180830381865afa158015612709573d6000803e3d6000fd5b505050506040513d601f19601f8201168201806040525081019061272d9190614fe6565b61013260008873ffffffffffffffffffffffffffffffffffffffff1673ffffffffffffffffffffffffffffffffffffffff168152602001908152602001600020600087815260200190815260200160002060006101000a81548173ffffffffffffffffffffffffffffffffffffffff021916908373ffffffffffffffffffffffffffffffffffffffff1602179055506127c886868686613883565b8373ffffffffffffffffffffffffffffffffffffffff166323b872dd3330866040518463ffffffff1660e01b81526004016128059392919061526f565b6020604051808303816000875af1158015612824573d6000803e3d6000fd5b505050506040513d601f19601f820116820180604052508101906128489190615242565b61285157600080fd5b8373ffffffffffffffffffffffffffffffffffffffff16853373ffffffffffffffffffffffffffffffffffffffff167f71280272823871467a2e10f64663a78301e17444e32f7f90421791d9c678391689876040516128b1929190615204565b60405180910390a46128c16135d2565b505050505050565b6128d1613582565b6128d96132d3565b3373ffffffffffffffffffffffffffffffffffffffff168673ffffffffffffffffffffffffffffffffffffffff16636352211e876040518263ffffffff1660e01b81526004016129299190614bac565b602060405180830381865afa158015612946573d6000803e3d6000fd5b505050506040513d601f19601f8201168201806040525081019061296a9190614fe6565b73ffffffffffffffffffffffffffffffffffffffff161461298a57600080fd5b600073ffffffffffffffffffffffffffffffffffffffff1661013460008873ffffffffffffffffffffffffffffffffffffffff1673ffffffffffffffffffffffffffffffffffffffff168152602001908152602001600020600087815260200190815260200160002060009054906101000a900473ffffffffffffffffffffffffffffffffffffffff1673ffffffffffffffffffffffffffffffffffffffff161415612a3557600080fd5b600073ffffffffffffffffffffffffffffffffffffffff168273ffffffffffffffffffffffffffffffffffffffff161415612a6f57600080fd5b600061012f60008873ffffffffffffffffffffffffffffffffffffffff1673ffffffffffffffffffffffffffffffffffffffff168152602001908152602001600020600087815260200190815260200160002060008473ffffffffffffffffffffffffffffffffffffffff1673ffffffffffffffffffffffffffffffffffffffff168152602001908152602001600020541415612b0b57600080fd5b600061012f60008873ffffffffffffffffffffffffffffffffffffffff1673ffffffffffffffffffffffffffffffffffffffff168152602001908152602001600020600087815260200190815260200160002060008473ffffffffffffffffffffffffffffffffffffffff1673ffffffffffffffffffffffffffffffffffffffff1681526020019081526020016000205490508115612dbb57600073ffffffffffffffffffffffffffffffffffffffff168473ffffffffffffffffffffffffffffffffffffffff161415612bde57600080fd5b600073ffffffffffffffffffffffffffffffffffffffff168573ffffffffffffffffffffffffffffffffffffffff1614612c1757600080fd5b612c248787868685613c27565b8673ffffffffffffffffffffffffffffffffffffffff166342842e0e3361013460008b73ffffffffffffffffffffffffffffffffffffffff1673ffffffffffffffffffffffffffffffffffffffff16815260200190815260200160002060008a815260200190815260200160002060009054906101000a900473ffffffffffffffffffffffffffffffffffffffff16896040518463ffffffff1660e01b8152600401612cd29392919061526f565b600060405180830381600087803b158015612cec57600080fd5b505af1158015612d00573d6000803e3d6000fd5b505050507f45e958c3661bb3f53bfbaf4a904e21e10f1bb18f6df761239e0ac87ce5efd288878761013460008b73ffffffffffffffffffffffffffffffffffffffff1673ffffffffffffffffffffffffffffffffffffffff16815260200190815260200160002060008a815260200190815260200160002060009054906101000a900473ffffffffffffffffffffffffffffffffffffffff16878786604051612dae969594939291906158bb565b60405180910390a1613002565b600073ffffffffffffffffffffffffffffffffffffffff168573ffffffffffffffffffffffffffffffffffffffff161415612df557600080fd5b600073ffffffffffffffffffffffffffffffffffffffff168473ffffffffffffffffffffffffffffffffffffffff1614612e2e57600080fd5b612eac878761013460008b73ffffffffffffffffffffffffffffffffffffffff1673ffffffffffffffffffffffffffffffffffffffff16815260200190815260200160002060008a815260200190815260200160002060009054906101000a900473ffffffffffffffffffffffffffffffffffffffff168685613c27565b8473ffffffffffffffffffffffffffffffffffffffff163373ffffffffffffffffffffffffffffffffffffffff1614612f4f578673ffffffffffffffffffffffffffffffffffffffff166342842e0e3387896040518463ffffffff1660e01b8152600401612f1c9392919061526f565b600060405180830381600087803b158015612f3657600080fd5b505af1158015612f4a573d6000803e3d6000fd5b505050505b7f12273593f8809177c36cba6cdff357efa2e5004bb97165cf8bea37b8d8ababac87878761013460008c73ffffffffffffffffffffffffffffffffffffffff1673ffffffffffffffffffffffffffffffffffffffff16815260200190815260200160002060008b815260200190815260200160002060009054906101000a900473ffffffffffffffffffffffffffffffffffffffff168786604051612ff9969594939291906158bb565b60405180910390a15b600061013460008973ffffffffffffffffffffffffffffffffffffffff1673ffffffffffffffffffffffffffffffffffffffff168152602001908152602001600020600088815260200190815260200160002060006101000a81548173ffffffffffffffffffffffffffffffffffffffff021916908373ffffffffffffffffffffffffffffffffffffffff160217905550600061013260008973ffffffffffffffffffffffffffffffffffffffff1673ffffffffffffffffffffffffffffffffffffffff168152602001908152602001600020600088815260200190815260200160002060006101000a81548173ffffffffffffffffffffffffffffffffffffffff021916908373ffffffffffffffffffffffffffffffffffffffff16021790555061013560008873ffffffffffffffffffffffffffffffffffffffff1673ffffffffffffffffffffffffffffffffffffffff16815260200190815260200160002060008781526020019081526020016000206000808201600080820160006101000a81549073ffffffffffffffffffffffffffffffffffffffff02191690556000820160146101000a8154906bffffffffffffffffffffffff021916905550506001820160006101000a81549060ff021916905550508673ffffffffffffffffffffffffffffffffffffffff1663391601dc876040518263ffffffff1660e01b81526004016132129190614bac565b600060405180830381600087803b15801561322c57600080fd5b505af1158015613240573d6000803e3d6000fd5b505050505061324d6135d2565b505050505050565b61325d613d63565b73ffffffffffffffffffffffffffffffffffffffff1661327b611764565b73ffffffffffffffffffffffffffffffffffffffff16146132d1576040517f08c379a00000000000000000000000000000000000000000000000000000000081526004016132c890615968565b60405180910390fd5b565b6132db611460565b1561331b576040517f08c379a0000000000000000000000000000000000000000000000000000000008152600401613312906159d4565b60405180910390fd5b565b60006133283361140a565b1561333c57601436033560601c905061334b565b613344613d72565b905061334c565b5b90565b600061337d7f360894a13ba1a3210667c828492db98dca3e2076cc3735a920a3ca505d382bbc60001b613d7a565b60000160009054906101000a900473ffffffffffffffffffffffffffffffffffffffff16905090565b6133ae613255565b50565b6133dd7f4910fdfa16fed3260ed0e7147f7cc6da11a60208b5b9406d12a635614ffd914360001b613d84565b60000160009054906101000a900460ff1615613401576133fc83613d8e565b61351a565b8273ffffffffffffffffffffffffffffffffffffffff166352d1902d6040518163ffffffff1660e01b8152600401602060405180830381865afa92505050801561346957506040513d601f19601f820116820180604052508101906134669190615a20565b60015b6134a8576040517f08c379a000000000000000000000000000000000000000000000000000000000815260040161349f90615abf565b60405180910390fd5b7f360894a13ba1a3210667c828492db98dca3e2076cc3735a920a3ca505d382bbc60001b811461350d576040517f08c379a000000000000000000000000000000000000000000000000000000000815260040161350490615b51565b60405180910390fd5b50613519838383613e47565b5b505050565b613527613e73565b6000609860006101000a81548160ff0219169083151502179055507f5db9ee0a495bf2e6ff9c91a7834c1ba4fdd244a5e8aa4e537bd38aeae4b073aa61356b613d63565b6040516135789190614a55565b60405180910390a1565b600260015414156135c8576040517f08c379a00000000000000000000000000000000000000000000000000000000081526004016135bf90615bbd565b60405180910390fd5b6002600181905550565b60018081905550565b6000606560009054906101000a900473ffffffffffffffffffffffffffffffffffffffff16905081606560006101000a81548173ffffffffffffffffffffffffffffffffffffffff021916908373ffffffffffffffffffffffffffffffffffffffff1602179055508173ffffffffffffffffffffffffffffffffffffffff168173ffffffffffffffffffffffffffffffffffffffff167f8be0079c531659141344cd1fd0a4f28419497f9722a3daafe3b4186f6b6457e060405160405180910390a35050565b6136a96132d3565b6001609860006101000a81548160ff0219169083151502179055507f62e78cea01bee320cd4e420270b5ea74000d11b0c9f74754ebdbfc544b05a2586136ed613d63565b6040516136fa9190614a55565b60405180910390a1565b6000808273ffffffffffffffffffffffffffffffffffffffff163b119050919050565b600060019054906101000a900460ff16613776576040517f08c379a000000000000000000000000000000000000000000000000000000000815260040161376d90615c4f565b60405180910390fd5b61377e613ebc565b565b600060019054906101000a900460ff166137cf576040517f08c379a00000000000000000000000000000000000000000000000000000000081526004016137c690615c4f565b60405180910390fd5b565b600060019054906101000a900460ff16613820576040517f08c379a000000000000000000000000000000000000000000000000000000000815260040161381790615c4f565b60405180910390fd5b6001609760008373ffffffffffffffffffffffffffffffffffffffff1673ffffffffffffffffffffffffffffffffffffffff16815260200190815260200160002060006101000a81548160ff021916908315150217905550613880613f14565b50565b600073ffffffffffffffffffffffffffffffffffffffff168473ffffffffffffffffffffffffffffffffffffffff16636352211e856040518263ffffffff1660e01b81526004016138d49190614bac565b602060405180830381865afa1580156138f1573d6000803e3d6000fd5b505050506040513d601f19601f820116820180604052508101906139159190614fe6565b73ffffffffffffffffffffffffffffffffffffffff16141561393657600080fd5b600081141561394457613c21565b600061012f60008673ffffffffffffffffffffffffffffffffffffffff1673ffffffffffffffffffffffffffffffffffffffff168152602001908152602001600020600085815260200190815260200160002060008473ffffffffffffffffffffffffffffffffffffffff1673ffffffffffffffffffffffffffffffffffffffff1681526020019081526020016000205490506000811415613b7a5761013060008673ffffffffffffffffffffffffffffffffffffffff1673ffffffffffffffffffffffffffffffffffffffff16815260200190815260200160002060008581526020019081526020016000208054905061013160008773ffffffffffffffffffffffffffffffffffffffff1673ffffffffffffffffffffffffffffffffffffffff168152602001908152602001600020600086815260200190815260200160002060008573ffffffffffffffffffffffffffffffffffffffff1673ffffffffffffffffffffffffffffffffffffffff1681526020019081526020016000208190555061013060008673ffffffffffffffffffffffffffffffffffffffff1673ffffffffffffffffffffffffffffffffffffffff1681526020019081526020016000206000858152602001908152602001600020839080600181540180825580915050600190039060005260206000200160009091909190916101000a81548173ffffffffffffffffffffffffffffffffffffffff021916908373ffffffffffffffffffffffffffffffffffffffff1602179055505b8161012f60008773ffffffffffffffffffffffffffffffffffffffff1673ffffffffffffffffffffffffffffffffffffffff168152602001908152602001600020600086815260200190815260200160002060008573ffffffffffffffffffffffffffffffffffffffff1673ffffffffffffffffffffffffffffffffffffffff1681526020019081526020016000206000828254613c1891906151ae565b92505081905550505b50505050565b600073ffffffffffffffffffffffffffffffffffffffff168373ffffffffffffffffffffffffffffffffffffffff161415613c6157600080fd5b613c6d85858484613f6d565b8173ffffffffffffffffffffffffffffffffffffffff1663a9059cbb84836040518363ffffffff1660e01b8152600401613ca8929190615204565b6020604051808303816000875af1158015613cc7573d6000803e3d6000fd5b505050506040513d601f19601f82011682018060405250810190613ceb9190615242565b613cf457600080fd5b8173ffffffffffffffffffffffffffffffffffffffff168373ffffffffffffffffffffffffffffffffffffffff16857f3fa358a37201b8671cd66be80045d25c32c3aee0d29cb25ca819991740f6621c8885604051613d54929190615204565b60405180910390a45050505050565b6000613d6d61331d565b905090565b600033905090565b6000819050919050565b6000819050919050565b613d9781613704565b613dd6576040517f08c379a0000000000000000000000000000000000000000000000000000000008152600401613dcd90615ce1565b60405180910390fd5b80613e037f360894a13ba1a3210667c828492db98dca3e2076cc3735a920a3ca505d382bbc60001b613d7a565b60000160006101000a81548173ffffffffffffffffffffffffffffffffffffffff021916908373ffffffffffffffffffffffffffffffffffffffff16021790555050565b613e50836144f9565b600082511180613e5d5750805b15613e6e57613e6c8383614548565b505b505050565b613e7b611460565b613eba576040517f08c379a0000000000000000000000000000000000000000000000000000000008152600401613eb190615d4d565b60405180910390fd5b565b600060019054906101000a900460ff16613f0b576040517f08c379a0000000000000000000000000000000000000000000000000000000008152600401613f0290615c4f565b60405180910390fd5b60018081905550565b600060019054906101000a900460ff16613f63576040517f08c379a0000000000000000000000000000000000000000000000000000000008152600401613f5a90615c4f565b60405180910390fd5b613f6b61462c565b565b6000811415613f7b576144f3565b600061012f60008673ffffffffffffffffffffffffffffffffffffffff1673ffffffffffffffffffffffffffffffffffffffff168152602001908152602001600020600085815260200190815260200160002060008473ffffffffffffffffffffffffffffffffffffffff1673ffffffffffffffffffffffffffffffffffffffff1681526020019081526020016000205490508181101561401b57600080fd5b6000828261402991906155ce565b90508061012f60008873ffffffffffffffffffffffffffffffffffffffff1673ffffffffffffffffffffffffffffffffffffffff168152602001908152602001600020600087815260200190815260200160002060008673ffffffffffffffffffffffffffffffffffffffff1673ffffffffffffffffffffffffffffffffffffffff1681526020019081526020016000208190555060008114156144f0576000600161013060008973ffffffffffffffffffffffffffffffffffffffff1673ffffffffffffffffffffffffffffffffffffffff16815260200190815260200160002060008881526020019081526020016000208054905061412a91906155ce565b9050600061013060008973ffffffffffffffffffffffffffffffffffffffff1673ffffffffffffffffffffffffffffffffffffffff1681526020019081526020016000206000888152602001908152602001600020828154811061419157614190615694565b5b9060005260206000200160009054906101000a900473ffffffffffffffffffffffffffffffffffffffff1690508073ffffffffffffffffffffffffffffffffffffffff168673ffffffffffffffffffffffffffffffffffffffff16146143c557600061013160008a73ffffffffffffffffffffffffffffffffffffffff1673ffffffffffffffffffffffffffffffffffffffff168152602001908152602001600020600089815260200190815260200160002060008873ffffffffffffffffffffffffffffffffffffffff1673ffffffffffffffffffffffffffffffffffffffff1681526020019081526020016000205490508161013060008b73ffffffffffffffffffffffffffffffffffffffff1673ffffffffffffffffffffffffffffffffffffffff16815260200190815260200160002060008a815260200190815260200160002082815481106142e8576142e7615694565b5b9060005260206000200160006101000a81548173ffffffffffffffffffffffffffffffffffffffff021916908373ffffffffffffffffffffffffffffffffffffffff1602179055508061013160008b73ffffffffffffffffffffffffffffffffffffffff1673ffffffffffffffffffffffffffffffffffffffff16815260200190815260200160002060008a815260200190815260200160002060008473ffffffffffffffffffffffffffffffffffffffff1673ffffffffffffffffffffffffffffffffffffffff16815260200190815260200160002081905550505b61013160008973ffffffffffffffffffffffffffffffffffffffff1673ffffffffffffffffffffffffffffffffffffffff168152602001908152602001600020600088815260200190815260200160002060008773ffffffffffffffffffffffffffffffffffffffff1673ffffffffffffffffffffffffffffffffffffffff1681526020019081526020016000206000905561013060008973ffffffffffffffffffffffffffffffffffffffff1673ffffffffffffffffffffffffffffffffffffffff16815260200190815260200160002060008881526020019081526020016000208054806144b8576144b7615d6d565b5b6001900381819060005260206000200160006101000a81549073ffffffffffffffffffffffffffffffffffffffff0219169055905550505b50505b50505050565b61450281613d8e565b8073ffffffffffffffffffffffffffffffffffffffff167fbc7cd75a20ee27fd9adebab32041f755214dbc6bffa90cc0225b39da2e5c2d3b60405160405180910390a250565b606061455383613704565b614592576040517f08c379a000000000000000000000000000000000000000000000000000000000815260040161458990615e0e565b60405180910390fd5b6000808473ffffffffffffffffffffffffffffffffffffffff16846040516145ba9190615ea8565b600060405180830381855af49150503d80600081146145f5576040519150601f19603f3d011682016040523d82523d6000602084013e6145fa565b606091505b50915091506146228282604051806060016040528060278152602001615f266027913961468d565b9250505092915050565b600060019054906101000a900460ff1661467b576040517f08c379a000000000000000000000000000000000000000000000000000000000815260040161467290615c4f565b60405180910390fd5b61468b614686613d63565b6135db565b565b6060831561469d578290506146a8565b6146a783836146af565b5b9392505050565b6000825111156146c25781518083602001fd5b806040517f08c379a00000000000000000000000000000000000000000000000000000000081526004016146f69190615f03565b60405180910390fd5b6000604051905090565b600080fd5b600080fd5b600073ffffffffffffffffffffffffffffffffffffffff82169050919050565b600061473e82614713565b9050919050565b61474e81614733565b811461475957600080fd5b50565b60008135905061476b81614745565b92915050565b6000819050919050565b61478481614771565b811461478f57600080fd5b50565b6000813590506147a18161477b565b92915050565b600080fd5b600080fd5b6000601f19601f8301169050919050565b7f4e487b7100000000000000000000000000000000000000000000000000000000600052604160045260246000fd5b6147fa826147b1565b810181811067ffffffffffffffff82111715614819576148186147c2565b5b80604052505050565b600061482c6146ff565b905061483882826147f1565b919050565b600067ffffffffffffffff821115614858576148576147c2565b5b614861826147b1565b9050602081019050919050565b82818337600083830152505050565b600061489061488b8461483d565b614822565b9050828152602081018484840111156148ac576148ab6147ac565b5b6148b784828561486e565b509392505050565b600082601f8301126148d4576148d36147a7565b5b81356148e484826020860161487d565b91505092915050565b6000806000806080858703121561490757614906614709565b5b60006149158782880161475c565b94505060206149268782880161475c565b935050604061493787828801614792565b925050606085013567ffffffffffffffff8111156149585761495761470e565b5b614964878288016148bf565b91505092959194509250565b60007fffffffff0000000000000000000000000000000000000000000000000000000082169050919050565b6149a581614970565b82525050565b60006020820190506149c0600083018461499c565b92915050565b6000602082840312156149dc576149db614709565b5b60006149ea8482850161475c565b91505092915050565b600080600060608486031215614a0c57614a0b614709565b5b6000614a1a8682870161475c565b9350506020614a2b86828701614792565b9250506040614a3c8682870161475c565b9150509250925092565b614a4f81614733565b82525050565b6000602082019050614a6a6000830184614a46565b92915050565b60008060008060808587031215614a8a57614a89614709565b5b6000614a988782880161475c565b9450506020614aa987828801614792565b9350506040614aba8782880161475c565b9250506060614acb87828801614792565b91505092959194509250565b60008060408385031215614aee57614aed614709565b5b6000614afc8582860161475c565b925050602083013567ffffffffffffffff811115614b1d57614b1c61470e565b5b614b29858286016148bf565b9150509250929050565b6000819050919050565b614b4681614b33565b82525050565b6000602082019050614b616000830184614b3d565b92915050565b60008115159050919050565b614b7c81614b67565b82525050565b6000602082019050614b976000830184614b73565b92915050565b614ba681614771565b82525050565b6000602082019050614bc16000830184614b9d565b92915050565b60008060408385031215614bde57614bdd614709565b5b6000614bec8582860161475c565b9250506020614bfd85828601614792565b9150509250929050565b600080600060608486031215614c2057614c1f614709565b5b6000614c2e8682870161475c565b9350506020614c3f86828701614792565b9250506040614c5086828701614792565b9150509250925092565b6000614c6582614713565b9050919050565b614c7581614c5a565b82525050565b60006bffffffffffffffffffffffff82169050919050565b614c9c81614c7b565b82525050565b604082016000820151614cb86000850182614c6c565b506020820151614ccb6020850182614c93565b50505050565b6000606082019050614ce66000830185614ca2565b614cf36040830184614b73565b9392505050565b614d0381614c7b565b8114614d0e57600080fd5b50565b600081359050614d2081614cfa565b92915050565b600067ffffffffffffffff821115614d4157614d406147c2565b5b602082029050602081019050919050565b600080fd5b600080fd5b614d6581614c5a565b8114614d7057600080fd5b50565b600081359050614d8281614d5c565b92915050565b600060408284031215614d9e57614d9d614d57565b5b614da86040614822565b90506000614db884828501614d73565b6000830152506020614dcc84828501614d11565b60208301525092915050565b6000614deb614de684614d26565b614822565b90508083825260208201905060408402830185811115614e0e57614e0d614d52565b5b835b81811015614e375780614e238882614d88565b845260208401935050604081019050614e10565b5050509392505050565b600082601f830112614e5657614e556147a7565b5b8135614e66848260208601614dd8565b91505092915050565b60008060008060008060c08789031215614e8c57614e8b614709565b5b6000614e9a89828a0161475c565b9650506020614eab89828a01614792565b9550506040614ebc89828a0161475c565b9450506060614ecd89828a01614792565b9350506080614ede89828a01614d11565b92505060a087013567ffffffffffffffff811115614eff57614efe61470e565b5b614f0b89828a01614e41565b9150509295509295509295565b614f2181614b67565b8114614f2c57600080fd5b50565b600081359050614f3e81614f18565b92915050565b60008060008060008060c08789031215614f6157614f60614709565b5b6000614f6f89828a0161475c565b9650506020614f8089828a01614792565b9550506040614f9189828a0161475c565b9450506060614fa289828a0161475c565b9350506080614fb389828a0161475c565b92505060a0614fc489828a01614f2f565b9150509295509295509295565b600081519050614fe081614745565b92915050565b600060208284031215614ffc57614ffb614709565b5b600061500a84828501614fd1565b91505092915050565b60006060820190506150286000830186614a46565b6150356020830185614b9d565b6150426040830184614a46565b949350505050565b600082825260208201905092915050565b7f46756e6374696f6e206d7573742062652063616c6c6564207468726f7567682060008201527f64656c656761746563616c6c0000000000000000000000000000000000000000602082015250565b60006150b7602c8361504a565b91506150c28261505b565b604082019050919050565b600060208201905081810360008301526150e6816150aa565b9050919050565b7f46756e6374696f6e206d7573742062652063616c6c6564207468726f7567682060008201527f6163746976652070726f78790000000000000000000000000000000000000000602082015250565b6000615149602c8361504a565b9150615154826150ed565b604082019050919050565b600060208201905081810360008301526151788161513c565b9050919050565b7f4e487b7100000000000000000000000000000000000000000000000000000000600052601160045260246000fd5b60006151b982614771565b91506151c483614771565b9250827fffffffffffffffffffffffffffffffffffffffffffffffffffffffffffffffff038211156151f9576151f861517f565b5b828201905092915050565b60006040820190506152196000830185614a46565b6152266020830184614b9d565b9392505050565b60008151905061523c81614f18565b92915050565b60006020828403121561525857615257614709565b5b60006152668482850161522d565b91505092915050565b60006060820190506152846000830186614a46565b6152916020830185614a46565b61529e6040830184614b9d565b949350505050565b600060a0820190506152bb6000830188614a46565b6152c86020830187614a46565b6152d56040830186614b9d565b6152e26060830185614a46565b6152ef6080830184614b9d565b9695505050505050565b7f555550535570677261646561626c653a206d757374206e6f742062652063616c60008201527f6c6564207468726f7567682064656c656761746563616c6c0000000000000000602082015250565b600061535560388361504a565b9150615360826152f9565b604082019050919050565b6000602082019050818103600083015261538481615348565b9050919050565b7f496e697469616c697a61626c653a20636f6e747261637420697320616c72656160008201527f647920696e697469616c697a6564000000000000000000000000000000000000602082015250565b60006153e7602e8361504a565b91506153f28261538b565b604082019050919050565b60006020820190508181036000830152615416816153da565b9050919050565b6000819050919050565b600060ff82169050919050565b6000819050919050565b600061545961545461544f8461541d565b615434565b615427565b9050919050565b6154698161543e565b82525050565b60006020820190506154846000830184615460565b92915050565b7f6e6f74206f776e65720000000000000000000000000000000000000000000000600082015250565b60006154c060098361504a565b91506154cb8261548a565b602082019050919050565b600060208201905081810360008301526154ef816154b3565b9050919050565b7f42616c616e636573207265706169640000000000000000000000000000000000600082015250565b600061552c600f8361504a565b9150615537826154f6565b602082019050919050565b6000602082019050818103600083015261555b8161551f565b9050919050565b7f496e76616c69642072657061796d656e7420616d6f756e740000000000000000600082015250565b600061559860188361504a565b91506155a382615562565b602082019050919050565b600060208201905081810360008301526155c78161558b565b9050919050565b60006155d982614771565b91506155e483614771565b9250828210156155f7576155f661517f565b5b828203905092915050565b7f4f776e61626c653a206e6577206f776e657220697320746865207a65726f206160008201527f6464726573730000000000000000000000000000000000000000000000000000602082015250565b600061565e60268361504a565b915061566982615602565b604082019050919050565b6000602082019050818103600083015261568d81615651565b9050919050565b7f4e487b7100000000000000000000000000000000000000000000000000000000600052603260045260246000fd5b7f696e76616c696400000000000000000000000000000000000000000000000000600082015250565b60006156f960078361504a565b9150615704826156c3565b602082019050919050565b60006020820190508181036000830152615728816156ec565b9050919050565b8082525050565b61573f81614c7b565b82525050565b600060408201905061575a600083018561572f565b6157676020830184615736565b9392505050565b600061578961578461577f84614c7b565b615434565b614771565b9050919050565b6157998161576e565b82525050565b600081519050919050565b600082825260208201905092915050565b6000819050602082019050919050565b6040820160008201516157e16000850182614c6c565b5060208201516157f46020850182614c93565b50505050565b600061580683836157cb565b60408301905092915050565b6000602082019050919050565b600061582a8261579f565b61583481856157aa565b935061583f836157bb565b8060005b8381101561587057815161585788826157fa565b975061586283615812565b925050600181019050615843565b5085935050505092915050565b60006060820190506158926000830186614b9d565b61589f6020830185615790565b81810360408301526158b1818461581f565b9050949350505050565b600060c0820190506158d06000830189614a46565b6158dd6020830188614b9d565b6158ea6040830187614a46565b6158f76060830186614a46565b6159046080830185614a46565b61591160a0830184614b9d565b979650505050505050565b7f4f776e61626c653a2063616c6c6572206973206e6f7420746865206f776e6572600082015250565b600061595260208361504a565b915061595d8261591c565b602082019050919050565b6000602082019050818103600083015261598181615945565b9050919050565b7f5061757361626c653a2070617573656400000000000000000000000000000000600082015250565b60006159be60108361504a565b91506159c982615988565b602082019050919050565b600060208201905081810360008301526159ed816159b1565b9050919050565b6159fd81614b33565b8114615a0857600080fd5b50565b600081519050615a1a816159f4565b92915050565b600060208284031215615a3657615a35614709565b5b6000615a4484828501615a0b565b91505092915050565b7f45524331393637557067726164653a206e657720696d706c656d656e7461746960008201527f6f6e206973206e6f742055555053000000000000000000000000000000000000602082015250565b6000615aa9602e8361504a565b9150615ab482615a4d565b604082019050919050565b60006020820190508181036000830152615ad881615a9c565b9050919050565b7f45524331393637557067726164653a20756e737570706f727465642070726f7860008201527f6961626c65555549440000000000000000000000000000000000000000000000602082015250565b6000615b3b60298361504a565b9150615b4682615adf565b604082019050919050565b60006020820190508181036000830152615b6a81615b2e565b9050919050565b7f5265656e7472616e637947756172643a207265656e7472616e742063616c6c00600082015250565b6000615ba7601f8361504a565b9150615bb282615b71565b602082019050919050565b60006020820190508181036000830152615bd681615b9a565b9050919050565b7f496e697469616c697a61626c653a20636f6e7472616374206973206e6f74206960008201527f6e697469616c697a696e67000000000000000000000000000000000000000000602082015250565b6000615c39602b8361504a565b9150615c4482615bdd565b604082019050919050565b60006020820190508181036000830152615c6881615c2c565b9050919050565b7f455243313936373a206e657720696d706c656d656e746174696f6e206973206e60008201527f6f74206120636f6e747261637400000000000000000000000000000000000000602082015250565b6000615ccb602d8361504a565b9150615cd682615c6f565b604082019050919050565b60006020820190508181036000830152615cfa81615cbe565b9050919050565b7f5061757361626c653a206e6f7420706175736564000000000000000000000000600082015250565b6000615d3760148361504a565b9150615d4282615d01565b602082019050919050565b60006020820190508181036000830152615d6681615d2a565b9050919050565b7f4e487b7100000000000000000000000000000000000000000000000000000000600052603160045260246000fd5b7f416464726573733a2064656c65676174652063616c6c20746f206e6f6e2d636f60008201527f6e74726163740000000000000000000000000000000000000000000000000000602082015250565b6000615df860268361504a565b9150615e0382615d9c565b604082019050919050565b60006020820190508181036000830152615e2781615deb565b9050919050565b600081519050919050565b600081905092915050565b60005b83811015615e62578082015181840152602081019050615e47565b83811115615e71576000848401525b50505050565b6000615e8282615e2e565b615e8c8185615e39565b9350615e9c818560208601615e44565b80840191505092915050565b6000615eb48284615e77565b915081905092915050565b600081519050919050565b6000615ed582615ebf565b615edf818561504a565b9350615eef818560208601615e44565b615ef8816147b1565b840191505092915050565b60006020820190508181036000830152615f1d8184615eca565b90509291505056fe416464726573733a206c6f772d6c6576656c2064656c65676174652063616c6c206661696c6564a26469706673582212201184c76de3fd9dcd1bd1e7abe3af3e62c262a401501fc6fa854d73ad9517641b64736f6c634300080b0033",
  "immutableReferences": {
    "720": [
      {
        "length": 32,
        "start": 2531
      },
      {
        "length": 32,
        "start": 2674
      },
      {
        "length": 32,
        "start": 4598
      },
      {
        "length": 32,
        "start": 4741
      },
      {
        "length": 32,
        "start": 4917
      }
    ]
  },
  "source": "// SPDX-License-Identifier: MIT\npragma solidity 0.8.11;\n\nimport \"@openzeppelin/contracts-upgradeable/token/ERC721/IERC721Upgradeable.sol\";\nimport \"@openzeppelin/contracts-upgradeable/token/ERC20/IERC20Upgradeable.sol\";\nimport \"@openzeppelin/contracts-upgradeable/security/ReentrancyGuardUpgradeable.sol\";\nimport \"@openzeppelin/contracts-upgradeable/token/ERC721/IERC721ReceiverUpgradeable.sol\";\nimport \"@openzeppelin/contracts-upgradeable/proxy/utils/UUPSUpgradeable.sol\";\nimport \"@openzeppelin/contracts-upgradeable/security/PausableUpgradeable.sol\";\nimport \"./utils/LibShare.sol\";\nimport \"./piNFT.sol\";\nimport \"./CollectionMethods.sol\";\nimport \"./AconomyERC2771Context.sol\";\n\ncontract piNFTMethods is\n    ReentrancyGuardUpgradeable,\n    AconomyERC2771Context,\n    PausableUpgradeable,\n    IERC721ReceiverUpgradeable,\n    UUPSUpgradeable\n{\n    //STORAGE START ----------------------------------------------------------------------\n    address public piMarketAddress;\n\n    // collectionAddress => tokenId => (token contract => balance)\n    mapping(address => mapping(uint256 => mapping(address => uint256)))\n        internal erc20Balances;\n\n    // collectionAddress => tokenId => token contract\n    mapping(address => mapping(uint256 => address[])) public erc20Contracts;\n\n    // collectionAddress => tokenId => (token contract => token contract index)\n    mapping(address => mapping(uint256 => mapping(address => uint256))) erc20ContractIndex;\n\n    // collectionAddress => TokenId => Owner Address\n    mapping(address => mapping(uint256 => address)) public NFTowner;\n\n    // collectionAddress => TokenId => Amount\n    mapping(address => mapping(uint256 => uint256)) withdrawnAmount;\n\n    // collectionAddress => TokenId => validator\n    mapping(address => mapping(uint256 => address)) public approvedValidator;\n\n    // collection Address => tokenId => commission\n    mapping (address => mapping(uint256 => Commission)) public validatorCommissions;\n\n     struct Commission {\n        LibShare.Share commission;\n        bool isValid;\n    }\n    //STORAGE END -------------------------------------------------------------------------\n\n    event ERC20Added(\n        address collectionAddress,\n        address indexed from,\n        uint256 indexed tokenId,\n        address indexed erc20Contract,\n        uint256 value\n    );\n    event ERC20Transferred(\n        address collectionAddress,\n        uint256 indexed tokenId,\n        address indexed to,\n        address indexed erc20Contract,\n        uint256 value\n    );\n\n    event PiNFTRedeemed(\n        address collectionAddress,\n        uint256 tokenId,\n        address nftReciever,\n        address validatorAddress,\n        address erc20Contract,\n        uint256 value\n    );\n\n    event PiNFTBurnt(\n        address collectionAddress,\n        uint256 tokenId,\n        address nftReciever,\n        address erc20Receiver,\n        address erc20Contract,\n        uint256 value\n    );\n\n    event ValidatorFundsWithdrawn(\n        address collectionAddress,\n        address withdrawer,\n        uint256 tokenId,\n        address erc20Contract,\n        uint256 amount\n    );\n\n    event ValidatorFundsRepayed(\n        address collectionAddress,\n        address repayer,\n        uint256 tokenId,\n        address erc20Contract,\n        uint256 amount\n    );\n\n    event ValidatorAdded(\n        address collectionAddress,\n        uint256 tokenId,\n        address validator\n    );\n\n    /// @custom:oz-upgrades-unsafe-allow constructor\n    constructor() {\n        _disableInitializers();\n    }\n\n    function initialize(address trustedForwarder) public initializer {\n        __ReentrancyGuard_init();\n        __UUPSUpgradeable_init();\n        AconomyERC2771Context_init(trustedForwarder);\n    }\n\n    function setPiMarket(address _piMarket) external onlyOwner {\n        piMarketAddress = _piMarket;\n    }\n\n    function _msgSender()\n        internal\n        view\n        virtual\n        override(AconomyERC2771Context, ContextUpgradeable)\n        returns (address sender)\n    {\n        return AconomyERC2771Context._msgSender();\n    }\n\n    function _msgData()\n        internal\n        view\n        virtual\n        override(AconomyERC2771Context, ContextUpgradeable)\n        returns (bytes calldata)\n    {\n        return AconomyERC2771Context._msgData();\n    }\n\n    function pause() external onlyOwner {\n        _pause();\n    }\n\n    function unpause() external onlyOwner {\n        _unpause();\n    }\n\n    function addValidator(\n        address _collectionAddress,\n        uint256 _tokenId,\n        address _validator\n    ) external whenNotPaused {\n        require(\n            IERC721Upgradeable(_collectionAddress).ownerOf(_tokenId) ==\n                msg.sender\n        );\n        require(erc20Contracts[_collectionAddress][_tokenId].length == 0);\n        approvedValidator[_collectionAddress][_tokenId] = _validator;\n        emit ValidatorAdded(_collectionAddress, _tokenId, _validator);\n    }\n\n    function lazyAddValidator(\n        address _collectionAddress,\n        uint256 _tokenId,\n        address _validator\n    ) external whenNotPaused {\n        require(isTrustedForwarder(msg.sender));\n        require(\n            IERC721Upgradeable(_collectionAddress).ownerOf(_tokenId) ==\n                AconomyERC2771Context._msgSender()\n        );\n        require(erc20Contracts[_collectionAddress][_tokenId].length == 0);\n        approvedValidator[_collectionAddress][_tokenId] = _validator;\n        emit ValidatorAdded(_collectionAddress, _tokenId, _validator);\n    }\n\n    // this function requires approval of tokens by _erc20Contract\n    /**\n     * @notice Allows the validator to deposit funds to validate the piNFT.\n     * @param _collectionAddress The address of the collection.\n     * @param _tokenId The ID of the token.\n     * @param _erc20Contract The address of the funds being deposited.\n     * @param _value The amount of funds being deposited.\n     * @param royalties The validator royalties.\n     */\n    function addERC20(\n        address _collectionAddress,\n        uint256 _tokenId,\n        address _erc20Contract,\n        uint256 _value,\n        uint96 _commission,\n        LibShare.Share[] memory royalties\n    ) public whenNotPaused nonReentrant{\n        require(piNFT(_collectionAddress).exists(_tokenId));\n        require(approvedValidator[_collectionAddress][_tokenId] != address(0));\n        require(msg.sender == approvedValidator[_collectionAddress][_tokenId]);\n        require(_erc20Contract != address(0));\n        require(_value != 0);\n        if (erc20Contracts[_collectionAddress][_tokenId].length >= 1) {\n            require(\n                _erc20Contract ==\n                    erc20Contracts[_collectionAddress][_tokenId][0],\n                \"invalid\"\n            );\n            LibShare.setCommission(validatorCommissions[_collectionAddress][_tokenId].commission, _commission);\n            piNFT(_collectionAddress).setRoyaltiesForValidator(\n                _tokenId,\n                _commission,\n                royalties\n            );\n        } else {\n            LibShare.setCommission(validatorCommissions[_collectionAddress][_tokenId].commission, _commission);\n            validatorCommissions[_collectionAddress][_tokenId].isValid = true;\n            piNFT(_collectionAddress).setRoyaltiesForValidator(\n                _tokenId,\n                _commission,\n                royalties\n            );\n        }\n        NFTowner[_collectionAddress][_tokenId] = IERC721Upgradeable(\n            _collectionAddress\n        ).ownerOf(_tokenId);\n        updateERC20(_collectionAddress, _tokenId, _erc20Contract, _value);\n        require(\n            IERC20Upgradeable(_erc20Contract).transferFrom(\n                msg.sender,\n                address(this),\n                _value\n            )\n        );\n        emit ERC20Added(\n            _collectionAddress,\n            msg.sender,\n            _tokenId,\n            _erc20Contract,\n            _value\n        );\n    }\n\n    /**\n     * @notice Updates the ERC20 mappings.\n     * @param _collectionAddress The address of the collection.\n     * @param _tokenId The Id of the token.\n     * @param _erc20Contract The address of the erc20 funds being transferred.\n     * @param _value The amount of funds being transferred.\n     */\n    function updateERC20(\n        address _collectionAddress,\n        uint256 _tokenId,\n        address _erc20Contract,\n        uint256 _value\n    ) private {\n        require(\n            IERC721Upgradeable(_collectionAddress).ownerOf(_tokenId) !=\n                address(0)\n        );\n        if (_value == 0) {\n            return;\n        }\n        uint256 erc20Balance = erc20Balances[_collectionAddress][_tokenId][\n            _erc20Contract\n        ];\n        if (erc20Balance == 0) {\n            erc20ContractIndex[_collectionAddress][_tokenId][\n                _erc20Contract\n            ] = erc20Contracts[_collectionAddress][_tokenId].length;\n            erc20Contracts[_collectionAddress][_tokenId].push(_erc20Contract);\n        }\n        erc20Balances[_collectionAddress][_tokenId][_erc20Contract] += _value;\n    }\n\n    /**\n     * @notice Transfers ERC20 to a specified account.\n     * @param _collectionAddress The address of the collection.\n     * @param _tokenId The Id of the token.\n     * @param _to The address to transfer the funds to.\n     * @param _erc20Contract The address of the funds being transferred.\n     * @param _value The amount of funds being transferred.\n     */\n    function _transferERC20(\n        address _collectionAddress,\n        uint256 _tokenId,\n        address _to,\n        address _erc20Contract,\n        uint256 _value\n    ) private {\n        require(_to != address(0));\n        removeERC20(_collectionAddress, _tokenId, _erc20Contract, _value);\n        require(IERC20Upgradeable(_erc20Contract).transfer(_to, _value));\n        emit ERC20Transferred(\n            _collectionAddress,\n            _tokenId,\n            _to,\n            _erc20Contract,\n            _value\n        );\n    }\n\n    /**\n     * @notice Updates the ERC20 mappings when removing funds.\n     * @param _collectionAddress The address of the collection.\n     * @param _tokenId The Id of the token.\n     * @param _erc20Contract The address of the funds being removed.\n     * @param _value The amount of funds being removed.\n     */\n    function removeERC20(\n        address _collectionAddress,\n        uint256 _tokenId,\n        address _erc20Contract,\n        uint256 _value\n    ) private {\n        if (_value == 0) {\n            return;\n        }\n        uint256 erc20Balance = erc20Balances[_collectionAddress][_tokenId][\n            _erc20Contract\n        ];\n        require(erc20Balance >= _value);\n        uint256 newERC20Balance = erc20Balance - _value;\n        erc20Balances[_collectionAddress][_tokenId][\n            _erc20Contract\n        ] = newERC20Balance;\n        if (newERC20Balance == 0) {\n            uint256 lastContractIndex = erc20Contracts[_collectionAddress][\n                _tokenId\n            ].length - 1;\n            address lastContract = erc20Contracts[_collectionAddress][_tokenId][\n                lastContractIndex\n            ];\n            if (_erc20Contract != lastContract) {\n                uint256 contractIndex = erc20ContractIndex[_collectionAddress][\n                    _tokenId\n                ][_erc20Contract];\n                erc20Contracts[_collectionAddress][_tokenId][\n                    contractIndex\n                ] = lastContract;\n                erc20ContractIndex[_collectionAddress][_tokenId][\n                    lastContract\n                ] = contractIndex;\n            }\n            delete erc20ContractIndex[_collectionAddress][_tokenId][\n                _erc20Contract\n            ];\n            erc20Contracts[_collectionAddress][_tokenId].pop();\n        }\n    }\n\n    /**\n     * @notice Allows the nft owner to redeem or burn the piNFT.\n     * @param _collectionAddress The address of the collection.\n     * @param _tokenId The Id of the token.\n     * @param _nftReceiver The receiver of the nft after the function call.\n     * @param _erc20Receiver The receiver of the validator funds after the function call.\n     * @param _erc20Contract The address of the deposited validator funds.\n     * @param burnNFT Boolean to determine redeeming or burning.\n     */\n    function redeemOrBurnPiNFT(\n        address _collectionAddress,\n        uint256 _tokenId,\n        address _nftReceiver,\n        address _erc20Receiver,\n        address _erc20Contract,\n        bool burnNFT\n    ) external nonReentrant whenNotPaused {\n        require(\n            IERC721Upgradeable(_collectionAddress).ownerOf(_tokenId) ==\n                msg.sender\n        );\n        require(approvedValidator[_collectionAddress][_tokenId] != address(0));\n        require(_erc20Contract != address(0));\n        require(\n            erc20Balances[_collectionAddress][_tokenId][_erc20Contract] != 0\n        );\n        uint256 _value = erc20Balances[_collectionAddress][_tokenId][\n            _erc20Contract\n        ];\n        if (burnNFT) {\n            require(_erc20Receiver != address(0));\n            require(_nftReceiver == address(0));\n            _transferERC20(\n                _collectionAddress,\n                _tokenId,\n                _erc20Receiver,\n                _erc20Contract,\n                _value\n            );\n            IERC721Upgradeable(_collectionAddress).safeTransferFrom(\n                msg.sender,\n                approvedValidator[_collectionAddress][_tokenId],\n                _tokenId\n            );\n\n            emit PiNFTBurnt(\n                _collectionAddress,\n                _tokenId,\n                approvedValidator[_collectionAddress][_tokenId],\n                _erc20Receiver,\n                _erc20Contract,\n                _value\n            );\n        } else {\n            require(_nftReceiver != address(0));\n            require(_erc20Receiver == address(0));\n            _transferERC20(\n                _collectionAddress,\n                _tokenId,\n                approvedValidator[_collectionAddress][_tokenId],\n                _erc20Contract,\n                _value\n            );\n            if (msg.sender != _nftReceiver) {\n                IERC721Upgradeable(_collectionAddress).safeTransferFrom(\n                    msg.sender,\n                    _nftReceiver,\n                    _tokenId\n                );\n            }\n\n            emit PiNFTRedeemed(\n                _collectionAddress,\n                _tokenId,\n                _nftReceiver,\n                approvedValidator[_collectionAddress][_tokenId],\n                _erc20Contract,\n                _value\n            );\n        }\n        approvedValidator[_collectionAddress][_tokenId] = address(0);\n        NFTowner[_collectionAddress][_tokenId] = address(0);\n        delete validatorCommissions[_collectionAddress][_tokenId];\n        piNFT(_collectionAddress).deleteValidatorRoyalties(_tokenId);\n    }\n\n    /**\n     * @notice Returns the specified ERC20 balance of the token.\n     * @dev Returned value is type uint256.\n     * @param _collectionAddress The address of the collection.\n     * @param _tokenId The Id of the token.\n     * @param _erc20Address The address of the funds to be fetched.\n     * @return ERC20 balance of the token.\n     */\n    function viewBalance(\n        address _collectionAddress,\n        uint256 _tokenId,\n        address _erc20Address\n    ) public view returns (uint256) {\n        return erc20Balances[_collectionAddress][_tokenId][_erc20Address];\n    }\n\n    /**\n     * @notice Allows the nft owner to lock the piNFT in the contract and withdraw validator funds.\n     * @param _collectionAddress The address of the collection.\n     * @param _tokenId The Id of the token.\n     * @param _erc20Contract The address of the funds being withdrawn.\n     * @param _amount The amount of funds being withdrawn.\n     */\n    function withdraw(\n        address _collectionAddress,\n        uint256 _tokenId,\n        address _erc20Contract,\n        uint256 _amount\n    ) external nonReentrant whenNotPaused {\n        if (withdrawnAmount[_collectionAddress][_tokenId] == 0) {\n            require(\n                msg.sender ==\n                    IERC721Upgradeable(_collectionAddress).ownerOf(_tokenId)\n            );\n            NFTowner[_collectionAddress][_tokenId] = msg.sender;\n        }\n        require(NFTowner[_collectionAddress][_tokenId] == msg.sender);\n        require(\n            erc20Balances[_collectionAddress][_tokenId][_erc20Contract] != 0\n        );\n        require(\n            withdrawnAmount[_collectionAddress][_tokenId] + _amount <=\n                erc20Balances[_collectionAddress][_tokenId][_erc20Contract]\n        );\n        require(\n            IERC20Upgradeable(_erc20Contract).transfer(msg.sender, _amount)\n        );\n\n        //needs approval on frontend\n        // transferring NFT to this address\n        if (withdrawnAmount[_collectionAddress][_tokenId] == 0) {\n            IERC721Upgradeable(_collectionAddress).safeTransferFrom(\n                msg.sender,\n                address(this),\n                _tokenId\n            );\n        }\n\n        withdrawnAmount[_collectionAddress][_tokenId] += _amount;\n        emit ValidatorFundsWithdrawn(\n            _collectionAddress,\n            msg.sender,\n            _tokenId,\n            _erc20Contract,\n            _amount\n        );\n    }\n\n    /**\n     * @notice Fetches the withdrawn amount for a token.\n     * @dev Returns a uint256.\n     * @param _collectionAddress The address of the collection.\n     * @param _tokenId The id of the token.\n     * @return A uint256 of withdrawn amount.\n     */\n    function viewWithdrawnAmount(\n        address _collectionAddress,\n        uint256 _tokenId\n    ) public view returns (uint256) {\n        return withdrawnAmount[_collectionAddress][_tokenId];\n    }\n\n    /**\n     * @notice Repays the withdrawn validator funds and transfers back token on full repayment.\n     * @param _collectionAddress The address of the collection.\n     * @param _tokenId The Id of the token.\n     * @param _erc20Contract The address of the funds to be repaid.\n     * @param _amount The amount to be repaid.\n     */\n    function Repay(\n        address _collectionAddress,\n        uint256 _tokenId,\n        address _erc20Contract,\n        uint256 _amount\n    ) external nonReentrant whenNotPaused {\n        require(\n            NFTowner[_collectionAddress][_tokenId] == msg.sender,\n            \"not owner\"\n        );\n        require(\n            erc20Balances[_collectionAddress][_tokenId][_erc20Contract] != 0,\n            \"Balances repaid\"\n        );\n        require(\n            _amount <= withdrawnAmount[_collectionAddress][_tokenId],\n            \"Invalid repayment amount\"\n        );\n\n        withdrawnAmount[_collectionAddress][_tokenId] -= _amount;\n\n        // Send payment to the Pool\n        require(\n            IERC20Upgradeable(_erc20Contract).transferFrom(\n                msg.sender,\n                address(this),\n                _amount\n            )\n        );\n\n        if (withdrawnAmount[_collectionAddress][_tokenId] == 0) {\n            IERC721Upgradeable(_collectionAddress).safeTransferFrom(\n                address(this),\n                msg.sender,\n                _tokenId\n            );\n        }\n        emit ValidatorFundsRepayed(\n            _collectionAddress,\n            msg.sender,\n            _tokenId,\n            _erc20Contract,\n            _amount\n        );\n    }\n\n    function paidCommission(address _collection, uint256 _tokenId) external {\n        require(msg.sender == piMarketAddress);\n        validatorCommissions[_collection][_tokenId].isValid = false;\n    }\n\n    function onERC721Received(\n        address,\n        address,\n        uint256,\n        bytes memory\n    ) public virtual override returns (bytes4) {\n        return this.onERC721Received.selector;\n    }\n\n    function _authorizeUpgrade(address) internal override onlyOwner {}\n}\n",
  "sourcePath": "/media/dell/17f09f70-0626-4927-a787-2813ab7ed2c0/dell/Pandora/pooolAddress Pandora Git/aconomy-contract/contracts/piNFTMethods.sol",
  "compiler": {
    "name": "solc",
    "version": "0.8.11+commit.d7f03943.Emscripten.clang"
  },
  "schemaVersion": "3.4.10",
  "updatedAt": "2023-09-20T09:28:19.187Z",
  "networkType": "ethereum",
  "devdoc": {
    "kind": "dev",
    "methods": {
      "Repay(address,uint256,address,uint256)": {
        "params": {
          "_amount": "The amount to be repaid.",
          "_collectionAddress": "The address of the collection.",
          "_erc20Contract": "The address of the funds to be repaid.",
          "_tokenId": "The Id of the token."
        }
      },
      "addERC20(address,uint256,address,uint256,uint96,(address,uint96)[])": {
        "params": {
          "_collectionAddress": "The address of the collection.",
          "_erc20Contract": "The address of the funds being deposited.",
          "_tokenId": "The ID of the token.",
          "_value": "The amount of funds being deposited.",
          "royalties": "The validator royalties."
        }
      },
      "constructor": {
        "custom:oz-upgrades-unsafe-allow": "constructor"
      },
      "owner()": {
        "details": "Returns the address of the current owner."
      },
      "paused()": {
        "details": "Returns true if the contract is paused, and false otherwise."
      },
      "proxiableUUID()": {
        "details": "Implementation of the ERC1822 {proxiableUUID} function. This returns the storage slot used by the implementation. It is used to validate the implementation's compatibility when performing an upgrade. IMPORTANT: A proxy pointing at a proxiable contract should not be considered proxiable itself, because this risks bricking a proxy that upgrades to it, by delegating to itself until out of gas. Thus it is critical that this function revert if invoked through a proxy. This is guaranteed by the `notDelegated` modifier."
      },
      "redeemOrBurnPiNFT(address,uint256,address,address,address,bool)": {
        "params": {
          "_collectionAddress": "The address of the collection.",
          "_erc20Contract": "The address of the deposited validator funds.",
          "_erc20Receiver": "The receiver of the validator funds after the function call.",
          "_nftReceiver": "The receiver of the nft after the function call.",
          "_tokenId": "The Id of the token.",
          "burnNFT": "Boolean to determine redeeming or burning."
        }
      },
      "renounceOwnership()": {
        "details": "Leaves the contract without owner. It will not be possible to call `onlyOwner` functions anymore. Can only be called by the current owner. NOTE: Renouncing ownership will leave the contract without an owner, thereby removing any functionality that is only available to the owner."
      },
      "transferOwnership(address)": {
        "details": "Transfers ownership of the contract to a new account (`newOwner`). Can only be called by the current owner."
      },
      "upgradeTo(address)": {
        "details": "Upgrade the implementation of the proxy to `newImplementation`. Calls {_authorizeUpgrade}. Emits an {Upgraded} event."
      },
      "upgradeToAndCall(address,bytes)": {
        "details": "Upgrade the implementation of the proxy to `newImplementation`, and subsequently execute the function call encoded in `data`. Calls {_authorizeUpgrade}. Emits an {Upgraded} event."
      },
      "viewBalance(address,uint256,address)": {
        "details": "Returned value is type uint256.",
        "params": {
          "_collectionAddress": "The address of the collection.",
          "_erc20Address": "The address of the funds to be fetched.",
          "_tokenId": "The Id of the token."
        },
        "returns": {
          "_0": "ERC20 balance of the token."
        }
      },
      "viewWithdrawnAmount(address,uint256)": {
        "details": "Returns a uint256.",
        "params": {
          "_collectionAddress": "The address of the collection.",
          "_tokenId": "The id of the token."
        },
        "returns": {
          "_0": "A uint256 of withdrawn amount."
        }
      },
      "withdraw(address,uint256,address,uint256)": {
        "params": {
          "_amount": "The amount of funds being withdrawn.",
          "_collectionAddress": "The address of the collection.",
          "_erc20Contract": "The address of the funds being withdrawn.",
          "_tokenId": "The Id of the token."
        }
      }
    },
    "version": 1
  },
  "userdoc": {
    "kind": "user",
    "methods": {
      "Repay(address,uint256,address,uint256)": {
        "notice": "Repays the withdrawn validator funds and transfers back token on full repayment."
      },
      "addERC20(address,uint256,address,uint256,uint96,(address,uint96)[])": {
        "notice": "Allows the validator to deposit funds to validate the piNFT."
      },
      "redeemOrBurnPiNFT(address,uint256,address,address,address,bool)": {
        "notice": "Allows the nft owner to redeem or burn the piNFT."
      },
      "viewBalance(address,uint256,address)": {
        "notice": "Returns the specified ERC20 balance of the token."
      },
      "viewWithdrawnAmount(address,uint256)": {
        "notice": "Fetches the withdrawn amount for a token."
      },
      "withdraw(address,uint256,address,uint256)": {
        "notice": "Allows the nft owner to lock the piNFT in the contract and withdraw validator funds."
      }
    },
    "version": 1
  }
}