{
  "contractName": "piNFT",
  "abi": [
    {
      "inputs": [
        {
          "internalType": "string",
          "name": "_name",
          "type": "string"
        },
        {
          "internalType": "string",
          "name": "_symbol",
          "type": "string"
        }
      ],
      "stateMutability": "nonpayable",
      "type": "constructor"
    },
    {
      "anonymous": false,
      "inputs": [
        {
          "indexed": true,
          "internalType": "address",
          "name": "owner",
          "type": "address"
        },
        {
          "indexed": true,
          "internalType": "address",
          "name": "approved",
          "type": "address"
        },
        {
          "indexed": true,
          "internalType": "uint256",
          "name": "tokenId",
          "type": "uint256"
        }
      ],
      "name": "Approval",
      "type": "event"
    },
    {
      "anonymous": false,
      "inputs": [
        {
          "indexed": true,
          "internalType": "address",
          "name": "owner",
          "type": "address"
        },
        {
          "indexed": true,
          "internalType": "address",
          "name": "operator",
          "type": "address"
        },
        {
          "indexed": false,
          "internalType": "bool",
          "name": "approved",
          "type": "bool"
        }
      ],
      "name": "ApprovalForAll",
      "type": "event"
    },
    {
      "anonymous": false,
      "inputs": [
        {
          "indexed": true,
          "internalType": "address",
          "name": "_from",
          "type": "address"
        },
        {
          "indexed": true,
          "internalType": "uint256",
          "name": "_tokenId",
          "type": "uint256"
        },
        {
          "indexed": true,
          "internalType": "address",
          "name": "_erc20Contract",
          "type": "address"
        },
        {
          "indexed": false,
          "internalType": "uint256",
          "name": "_value",
          "type": "uint256"
        }
      ],
      "name": "ReceivedERC20",
      "type": "event"
    },
    {
      "anonymous": false,
      "inputs": [
        {
          "indexed": true,
          "internalType": "address",
          "name": "from",
          "type": "address"
        },
        {
          "indexed": true,
          "internalType": "address",
          "name": "to",
          "type": "address"
        },
        {
          "indexed": true,
          "internalType": "uint256",
          "name": "tokenId",
          "type": "uint256"
        }
      ],
      "name": "Transfer",
      "type": "event"
    },
    {
      "anonymous": false,
      "inputs": [
        {
          "indexed": true,
          "internalType": "uint256",
          "name": "_tokenId",
          "type": "uint256"
        },
        {
          "indexed": true,
          "internalType": "address",
          "name": "_to",
          "type": "address"
        },
        {
          "indexed": true,
          "internalType": "address",
          "name": "_erc20Contract",
          "type": "address"
        },
        {
          "indexed": false,
          "internalType": "uint256",
          "name": "_value",
          "type": "uint256"
        }
      ],
      "name": "TransferERC20",
      "type": "event"
    },
    {
      "inputs": [
        {
          "internalType": "address",
          "name": "to",
          "type": "address"
        },
        {
          "internalType": "uint256",
          "name": "tokenId",
          "type": "uint256"
        }
      ],
      "name": "approve",
      "outputs": [],
      "stateMutability": "nonpayable",
      "type": "function"
    },
    {
      "inputs": [
        {
          "internalType": "address",
          "name": "owner",
          "type": "address"
        }
      ],
      "name": "balanceOf",
      "outputs": [
        {
          "internalType": "uint256",
          "name": "",
          "type": "uint256"
        }
      ],
      "stateMutability": "view",
      "type": "function"
    },
    {
      "inputs": [
        {
          "internalType": "uint256",
          "name": "tokenId",
          "type": "uint256"
        }
      ],
      "name": "getApproved",
      "outputs": [
        {
          "internalType": "address",
          "name": "",
          "type": "address"
        }
      ],
      "stateMutability": "view",
      "type": "function"
    },
    {
      "inputs": [
        {
          "internalType": "address",
          "name": "owner",
          "type": "address"
        },
        {
          "internalType": "address",
          "name": "operator",
          "type": "address"
        }
      ],
      "name": "isApprovedForAll",
      "outputs": [
        {
          "internalType": "bool",
          "name": "",
          "type": "bool"
        }
      ],
      "stateMutability": "view",
      "type": "function"
    },
    {
      "inputs": [],
      "name": "name",
      "outputs": [
        {
          "internalType": "string",
          "name": "",
          "type": "string"
        }
      ],
      "stateMutability": "view",
      "type": "function"
    },
    {
      "inputs": [
        {
          "internalType": "uint256",
          "name": "tokenId",
          "type": "uint256"
        }
      ],
      "name": "ownerOf",
      "outputs": [
        {
          "internalType": "address",
          "name": "",
          "type": "address"
        }
      ],
      "stateMutability": "view",
      "type": "function"
    },
    {
      "inputs": [
        {
          "internalType": "address",
          "name": "from",
          "type": "address"
        },
        {
          "internalType": "address",
          "name": "to",
          "type": "address"
        },
        {
          "internalType": "uint256",
          "name": "tokenId",
          "type": "uint256"
        }
      ],
      "name": "safeTransferFrom",
      "outputs": [],
      "stateMutability": "nonpayable",
      "type": "function"
    },
    {
      "inputs": [
        {
          "internalType": "address",
          "name": "from",
          "type": "address"
        },
        {
          "internalType": "address",
          "name": "to",
          "type": "address"
        },
        {
          "internalType": "uint256",
          "name": "tokenId",
          "type": "uint256"
        },
        {
          "internalType": "bytes",
          "name": "_data",
          "type": "bytes"
        }
      ],
      "name": "safeTransferFrom",
      "outputs": [],
      "stateMutability": "nonpayable",
      "type": "function"
    },
    {
      "inputs": [
        {
          "internalType": "address",
          "name": "operator",
          "type": "address"
        },
        {
          "internalType": "bool",
          "name": "approved",
          "type": "bool"
        }
      ],
      "name": "setApprovalForAll",
      "outputs": [],
      "stateMutability": "nonpayable",
      "type": "function"
    },
    {
      "inputs": [
        {
          "internalType": "bytes4",
          "name": "interfaceId",
          "type": "bytes4"
        }
      ],
      "name": "supportsInterface",
      "outputs": [
        {
          "internalType": "bool",
          "name": "",
          "type": "bool"
        }
      ],
      "stateMutability": "view",
      "type": "function"
    },
    {
      "inputs": [],
      "name": "symbol",
      "outputs": [
        {
          "internalType": "string",
          "name": "",
          "type": "string"
        }
      ],
      "stateMutability": "view",
      "type": "function"
    },
    {
      "inputs": [
        {
          "internalType": "uint256",
          "name": "tokenId",
          "type": "uint256"
        }
      ],
      "name": "tokenURI",
      "outputs": [
        {
          "internalType": "string",
          "name": "",
          "type": "string"
        }
      ],
      "stateMutability": "view",
      "type": "function"
    },
    {
      "inputs": [
        {
          "internalType": "address",
          "name": "from",
          "type": "address"
        },
        {
          "internalType": "address",
          "name": "to",
          "type": "address"
        },
        {
          "internalType": "uint256",
          "name": "tokenId",
          "type": "uint256"
        }
      ],
      "name": "transferFrom",
      "outputs": [],
      "stateMutability": "nonpayable",
      "type": "function"
    },
    {
      "inputs": [
        {
          "internalType": "address",
          "name": "_to",
          "type": "address"
        },
        {
          "internalType": "string",
          "name": "_uri",
          "type": "string"
        }
      ],
      "name": "mintNFT",
      "outputs": [
        {
          "internalType": "uint256",
          "name": "",
          "type": "uint256"
        }
      ],
      "stateMutability": "nonpayable",
      "type": "function"
    },
    {
      "inputs": [
        {
          "internalType": "address",
          "name": "_from",
          "type": "address"
        },
        {
          "internalType": "uint256",
          "name": "_tokenId",
          "type": "uint256"
        },
        {
          "internalType": "address",
          "name": "_erc20Contract",
          "type": "address"
        },
        {
          "internalType": "uint256",
          "name": "_value",
          "type": "uint256"
        }
      ],
      "name": "addERC20",
      "outputs": [],
      "stateMutability": "nonpayable",
      "type": "function"
    },
    {
      "inputs": [
        {
          "internalType": "uint256",
          "name": "_tokenId",
          "type": "uint256"
        },
        {
          "internalType": "address",
          "name": "_to",
          "type": "address"
        },
        {
          "internalType": "address",
          "name": "_erc20Contract",
          "type": "address"
        },
        {
          "internalType": "uint256",
          "name": "_value",
          "type": "uint256"
        }
      ],
      "name": "transferERC20",
      "outputs": [],
      "stateMutability": "nonpayable",
      "type": "function"
    },
    {
      "inputs": [
        {
          "internalType": "uint256",
          "name": "_tokenId",
          "type": "uint256"
        },
        {
          "internalType": "address",
          "name": "_erc20Address",
          "type": "address"
        }
      ],
      "name": "viewBalance",
      "outputs": [
        {
          "internalType": "uint256",
          "name": "",
          "type": "uint256"
        }
      ],
      "stateMutability": "view",
      "type": "function"
    }
  ],
  "bytecode": "0x60806040523480156200001157600080fd5b5060405162003dae38038062003dae8339818101604052810190620000379190620002c2565b818181600090805190602001906200005192919062000075565b5080600190805190602001906200006a92919062000075565b5050505050620003ac565b828054620000839062000376565b90600052602060002090601f016020900481019282620000a75760008555620000f3565b82601f10620000c257805160ff1916838001178555620000f3565b82800160010185558215620000f3579182015b82811115620000f2578251825591602001919060010190620000d5565b5b50905062000102919062000106565b5090565b5b808211156200012157600081600090555060010162000107565b5090565b6000604051905090565b600080fd5b600080fd5b600080fd5b600080fd5b6000601f19601f8301169050919050565b7f4e487b7100000000000000000000000000000000000000000000000000000000600052604160045260246000fd5b6200018e8262000143565b810181811067ffffffffffffffff82111715620001b057620001af62000154565b5b80604052505050565b6000620001c562000125565b9050620001d3828262000183565b919050565b600067ffffffffffffffff821115620001f657620001f562000154565b5b620002018262000143565b9050602081019050919050565b60005b838110156200022e57808201518184015260208101905062000211565b838111156200023e576000848401525b50505050565b60006200025b6200025584620001d8565b620001b9565b9050828152602081018484840111156200027a57620002796200013e565b5b620002878482856200020e565b509392505050565b600082601f830112620002a757620002a662000139565b5b8151620002b984826020860162000244565b91505092915050565b60008060408385031215620002dc57620002db6200012f565b5b600083015167ffffffffffffffff811115620002fd57620002fc62000134565b5b6200030b858286016200028f565b925050602083015167ffffffffffffffff8111156200032f576200032e62000134565b5b6200033d858286016200028f565b9150509250929050565b7f4e487b7100000000000000000000000000000000000000000000000000000000600052602260045260246000fd5b600060028204905060018216806200038f57607f821691505b60208210811415620003a657620003a562000347565b5b50919050565b6139f280620003bc6000396000f3fe608060405234801561001057600080fd5b506004361061010b5760003560e01c806370a08231116100a2578063b88d4fde11610071578063b88d4fde146102b4578063c87b56dd146102d0578063d51f299d14610300578063e985e9c514610330578063eacabe14146103605761010b565b806370a082311461022e578063830ef41b1461025e57806395d89b411461027a578063a22cb465146102985761010b565b806323b872dd116100de57806323b872dd146101aa5780632b32c03b146101c657806342842e0e146101e25780636352211e146101fe5761010b565b806301ffc9a71461011057806306fdde0314610140578063081812fc1461015e578063095ea7b31461018e575b600080fd5b61012a6004803603810190610125919061239f565b610390565b60405161013791906123e7565b60405180910390f35b610148610472565b604051610155919061249b565b60405180910390f35b610178600480360381019061017391906124f3565b610504565b6040516101859190612561565b60405180910390f35b6101a860048036038101906101a391906125a8565b610589565b005b6101c460048036038101906101bf91906125e8565b6106a1565b005b6101e060048036038101906101db919061263b565b610701565b005b6101fc60048036038101906101f791906125e8565b610840565b005b610218600480360381019061021391906124f3565b610860565b6040516102259190612561565b60405180910390f35b610248600480360381019061024391906126a2565b610912565b60405161025591906126de565b60405180910390f35b610278600480360381019061027391906126f9565b6109ca565b005b610282610b7e565b60405161028f919061249b565b60405180910390f35b6102b260048036038101906102ad919061278c565b610c10565b005b6102ce60048036038101906102c99190612901565b610c26565b005b6102ea60048036038101906102e591906124f3565b610c88565b6040516102f7919061249b565b60405180910390f35b61031a60048036038101906103159190612984565b610dda565b60405161032791906126de565b60405180910390f35b61034a600480360381019061034591906129c4565b610e35565b60405161035791906123e7565b60405180910390f35b61037a60048036038101906103759190612aa5565b610ec9565b60405161038791906126de565b60405180910390f35b60007f80ac58cd000000000000000000000000000000000000000000000000000000007bffffffffffffffffffffffffffffffffffffffffffffffffffffffff1916827bffffffffffffffffffffffffffffffffffffffffffffffffffffffff1916148061045b57507f5b5e139f000000000000000000000000000000000000000000000000000000007bffffffffffffffffffffffffffffffffffffffffffffffffffffffff1916827bffffffffffffffffffffffffffffffffffffffffffffffffffffffff1916145b8061046b575061046a82610f00565b5b9050919050565b60606000805461048190612b30565b80601f01602080910402602001604051908101604052809291908181526020018280546104ad90612b30565b80156104fa5780601f106104cf576101008083540402835291602001916104fa565b820191906000526020600020905b8154815290600101906020018083116104dd57829003601f168201915b5050505050905090565b600061050f82610f6a565b61054e576040517f08c379a000000000000000000000000000000000000000000000000000000000815260040161054590612bd4565b60405180910390fd5b6004600083815260200190815260200160002060009054906101000a900473ffffffffffffffffffffffffffffffffffffffff169050919050565b600061059482610860565b90508073ffffffffffffffffffffffffffffffffffffffff168373ffffffffffffffffffffffffffffffffffffffff161415610605576040517f08c379a00000000000000000000000000000000000000000000000000000000081526004016105fc90612c66565b60405180910390fd5b8073ffffffffffffffffffffffffffffffffffffffff16610624610fd6565b73ffffffffffffffffffffffffffffffffffffffff16148061065357506106528161064d610fd6565b610e35565b5b610692576040517f08c379a000000000000000000000000000000000000000000000000000000000815260040161068990612cf8565b60405180910390fd5b61069c8383610fde565b505050565b6106b26106ac610fd6565b82611097565b6106f1576040517f08c379a00000000000000000000000000000000000000000000000000000000081526004016106e890612d8a565b60405180910390fd5b6106fc838383611175565b505050565b3373ffffffffffffffffffffffffffffffffffffffff168473ffffffffffffffffffffffffffffffffffffffff161461076f576040517f08c379a000000000000000000000000000000000000000000000000000000000815260040161076690612df6565b60405180910390fd5b61077b848484846113dc565b8173ffffffffffffffffffffffffffffffffffffffff166323b872dd8530846040518463ffffffff1660e01b81526004016107b893929190612e16565b6020604051808303816000875af11580156107d7573d6000803e3d6000fd5b505050506040513d601f19601f820116820180604052508101906107fb9190612e62565b61083a576040517f08c379a000000000000000000000000000000000000000000000000000000000815260040161083190612edb565b60405180910390fd5b50505050565b61085b83838360405180602001604052806000815250610c26565b505050565b6000806002600084815260200190815260200160002060009054906101000a900473ffffffffffffffffffffffffffffffffffffffff169050600073ffffffffffffffffffffffffffffffffffffffff168173ffffffffffffffffffffffffffffffffffffffff161415610909576040517f08c379a000000000000000000000000000000000000000000000000000000000815260040161090090612f6d565b60405180910390fd5b80915050919050565b60008073ffffffffffffffffffffffffffffffffffffffff168273ffffffffffffffffffffffffffffffffffffffff161415610983576040517f08c379a000000000000000000000000000000000000000000000000000000000815260040161097a90612fff565b60405180910390fd5b600360008373ffffffffffffffffffffffffffffffffffffffff1673ffffffffffffffffffffffffffffffffffffffff168152602001908152602001600020549050919050565b600073ffffffffffffffffffffffffffffffffffffffff168373ffffffffffffffffffffffffffffffffffffffff161415610a0457600080fd5b6000610a0f85610860565b90503373ffffffffffffffffffffffffffffffffffffffff168173ffffffffffffffffffffffffffffffffffffffff1614610a4957600080fd5b610a54858484611675565b8273ffffffffffffffffffffffffffffffffffffffff1663a9059cbb85846040518363ffffffff1660e01b8152600401610a8f92919061301f565b6020604051808303816000875af1158015610aae573d6000803e3d6000fd5b505050506040513d601f19601f82011682018060405250810190610ad29190612e62565b610b11576040517f08c379a0000000000000000000000000000000000000000000000000000000008152600401610b0890612edb565b60405180910390fd5b8273ffffffffffffffffffffffffffffffffffffffff168473ffffffffffffffffffffffffffffffffffffffff16867fa8352277873fc0d2b233b8127433da351a4164fa701ed6ff79655694222932c485604051610b6f91906126de565b60405180910390a45050505050565b606060018054610b8d90612b30565b80601f0160208091040260200160405190810160405280929190818152602001828054610bb990612b30565b8015610c065780601f10610bdb57610100808354040283529160200191610c06565b820191906000526020600020905b815481529060010190602001808311610be957829003601f168201915b5050505050905090565b610c22610c1b610fd6565b8383611a08565b5050565b610c37610c31610fd6565b83611097565b610c76576040517f08c379a0000000000000000000000000000000000000000000000000000000008152600401610c6d90612d8a565b60405180910390fd5b610c8284848484611b75565b50505050565b6060610c9382610f6a565b610cd2576040517f08c379a0000000000000000000000000000000000000000000000000000000008152600401610cc9906130ba565b60405180910390fd5b6000600660008481526020019081526020016000208054610cf290612b30565b80601f0160208091040260200160405190810160405280929190818152602001828054610d1e90612b30565b8015610d6b5780601f10610d4057610100808354040283529160200191610d6b565b820191906000526020600020905b815481529060010190602001808311610d4e57829003601f168201915b505050505090506000610d7c611bd1565b9050600081511415610d92578192505050610dd5565b600082511115610dc7578082604051602001610daf929190613116565b60405160208183030381529060405292505050610dd5565b610dd084611be8565b925050505b919050565b60006008600084815260200190815260200160002060008373ffffffffffffffffffffffffffffffffffffffff1673ffffffffffffffffffffffffffffffffffffffff16815260200190815260200160002054905092915050565b6000600560008473ffffffffffffffffffffffffffffffffffffffff1673ffffffffffffffffffffffffffffffffffffffff16815260200190815260200160002060008373ffffffffffffffffffffffffffffffffffffffff1673ffffffffffffffffffffffffffffffffffffffff16815260200190815260200160002060009054906101000a900460ff16905092915050565b600080610ed66007611c8f565b9050610ee28482611c9d565b610eec8184611cbb565b610ef66007611d2f565b8091505092915050565b60007f01ffc9a7000000000000000000000000000000000000000000000000000000007bffffffffffffffffffffffffffffffffffffffffffffffffffffffff1916827bffffffffffffffffffffffffffffffffffffffffffffffffffffffff1916149050919050565b60008073ffffffffffffffffffffffffffffffffffffffff166002600084815260200190815260200160002060009054906101000a900473ffffffffffffffffffffffffffffffffffffffff1673ffffffffffffffffffffffffffffffffffffffff1614159050919050565b600033905090565b816004600083815260200190815260200160002060006101000a81548173ffffffffffffffffffffffffffffffffffffffff021916908373ffffffffffffffffffffffffffffffffffffffff160217905550808273ffffffffffffffffffffffffffffffffffffffff1661105183610860565b73ffffffffffffffffffffffffffffffffffffffff167f8c5be1e5ebec7d5bd14f71427d1e84f3dd0314c0f7b2291e5b200ac8c7c3b92560405160405180910390a45050565b60006110a282610f6a565b6110e1576040517f08c379a00000000000000000000000000000000000000000000000000000000081526004016110d8906131ac565b60405180910390fd5b60006110ec83610860565b90508073ffffffffffffffffffffffffffffffffffffffff168473ffffffffffffffffffffffffffffffffffffffff16148061112e575061112d8185610e35565b5b8061116c57508373ffffffffffffffffffffffffffffffffffffffff1661115484610504565b73ffffffffffffffffffffffffffffffffffffffff16145b91505092915050565b8273ffffffffffffffffffffffffffffffffffffffff1661119582610860565b73ffffffffffffffffffffffffffffffffffffffff16146111eb576040517f08c379a00000000000000000000000000000000000000000000000000000000081526004016111e29061323e565b60405180910390fd5b600073ffffffffffffffffffffffffffffffffffffffff168273ffffffffffffffffffffffffffffffffffffffff16141561125b576040517f08c379a0000000000000000000000000000000000000000000000000000000008152600401611252906132d0565b60405180910390fd5b611266838383611d45565b611271600082610fde565b6001600360008573ffffffffffffffffffffffffffffffffffffffff1673ffffffffffffffffffffffffffffffffffffffff16815260200190815260200160002060008282546112c1919061331f565b925050819055506001600360008473ffffffffffffffffffffffffffffffffffffffff1673ffffffffffffffffffffffffffffffffffffffff16815260200190815260200160002060008282546113189190613353565b92505081905550816002600083815260200190815260200160002060006101000a81548173ffffffffffffffffffffffffffffffffffffffff021916908373ffffffffffffffffffffffffffffffffffffffff160217905550808273ffffffffffffffffffffffffffffffffffffffff168473ffffffffffffffffffffffffffffffffffffffff167fddf252ad1be2c89b69c2b068fc378daa952ba7f163c4a11628f55a4df523b3ef60405160405180910390a46113d7838383611d4a565b505050565b600073ffffffffffffffffffffffffffffffffffffffff166113fd84610860565b73ffffffffffffffffffffffffffffffffffffffff161415611454576040517f08c379a000000000000000000000000000000000000000000000000000000000815260040161144b906133f5565b60405180910390fd5b60008114156114625761166f565b60006008600085815260200190815260200160002060008473ffffffffffffffffffffffffffffffffffffffff1673ffffffffffffffffffffffffffffffffffffffff16815260200190815260200160002054905060008114156115a0576009600085815260200190815260200160002080549050600a600086815260200190815260200160002060008573ffffffffffffffffffffffffffffffffffffffff1673ffffffffffffffffffffffffffffffffffffffff1681526020019081526020016000208190555060096000858152602001908152602001600020839080600181540180825580915050600190039060005260206000200160009091909190916101000a81548173ffffffffffffffffffffffffffffffffffffffff021916908373ffffffffffffffffffffffffffffffffffffffff1602179055505b816008600086815260200190815260200160002060008573ffffffffffffffffffffffffffffffffffffffff1673ffffffffffffffffffffffffffffffffffffffff16815260200190815260200160002060008282546116009190613353565b925050819055508273ffffffffffffffffffffffffffffffffffffffff16848673ffffffffffffffffffffffffffffffffffffffff167f684ce28ace37552c6bfb98b7cceda8ed55327078eafb5dfb31218e08563827638560405161166591906126de565b60405180910390a4505b50505050565b600081141561168357611a03565b60006008600085815260200190815260200160002060008473ffffffffffffffffffffffffffffffffffffffff1673ffffffffffffffffffffffffffffffffffffffff1681526020019081526020016000205490508181101561171b576040517f08c379a000000000000000000000000000000000000000000000000000000000815260040161171290613487565b60405180910390fd5b60008282611729919061331f565b9050806008600087815260200190815260200160002060008673ffffffffffffffffffffffffffffffffffffffff1673ffffffffffffffffffffffffffffffffffffffff168152602001908152602001600020819055506000811415611a00576000600160096000888152602001908152602001600020805490506117ae919061331f565b905060006009600088815260200190815260200160002082815481106117d7576117d66134a7565b5b9060005260206000200160009054906101000a900473ffffffffffffffffffffffffffffffffffffffff1690508073ffffffffffffffffffffffffffffffffffffffff168673ffffffffffffffffffffffffffffffffffffffff1614611951576000600a600089815260200190815260200160002060008873ffffffffffffffffffffffffffffffffffffffff1673ffffffffffffffffffffffffffffffffffffffff16815260200190815260200160002054905081600960008a815260200190815260200160002082815481106118b2576118b16134a7565b5b9060005260206000200160006101000a81548173ffffffffffffffffffffffffffffffffffffffff021916908373ffffffffffffffffffffffffffffffffffffffff16021790555080600a60008a815260200190815260200160002060008473ffffffffffffffffffffffffffffffffffffffff1673ffffffffffffffffffffffffffffffffffffffff16815260200190815260200160002081905550505b600a600088815260200190815260200160002060008773ffffffffffffffffffffffffffffffffffffffff1673ffffffffffffffffffffffffffffffffffffffff16815260200190815260200160002060009055600960008881526020019081526020016000208054806119c8576119c76134d6565b5b6001900381819060005260206000200160006101000a81549073ffffffffffffffffffffffffffffffffffffffff0219169055905550505b50505b505050565b8173ffffffffffffffffffffffffffffffffffffffff168373ffffffffffffffffffffffffffffffffffffffff161415611a77576040517f08c379a0000000000000000000000000000000000000000000000000000000008152600401611a6e90613551565b60405180910390fd5b80600560008573ffffffffffffffffffffffffffffffffffffffff1673ffffffffffffffffffffffffffffffffffffffff16815260200190815260200160002060008473ffffffffffffffffffffffffffffffffffffffff1673ffffffffffffffffffffffffffffffffffffffff16815260200190815260200160002060006101000a81548160ff0219169083151502179055508173ffffffffffffffffffffffffffffffffffffffff168373ffffffffffffffffffffffffffffffffffffffff167f17307eab39ab6107e8899845ad3d59bd9653f200f220920489ca2b5937696c3183604051611b6891906123e7565b60405180910390a3505050565b611b80848484611175565b611b8c84848484611d4f565b611bcb576040517f08c379a0000000000000000000000000000000000000000000000000000000008152600401611bc2906135e3565b60405180910390fd5b50505050565b606060405180602001604052806000815250905090565b6060611bf382610f6a565b611c32576040517f08c379a0000000000000000000000000000000000000000000000000000000008152600401611c2990613675565b60405180910390fd5b6000611c3c611bd1565b90506000815111611c5c5760405180602001604052806000815250611c87565b80611c6684611ed7565b604051602001611c77929190613116565b6040516020818303038152906040525b915050919050565b600081600001549050919050565b611cb7828260405180602001604052806000815250612038565b5050565b611cc482610f6a565b611d03576040517f08c379a0000000000000000000000000000000000000000000000000000000008152600401611cfa90613707565b60405180910390fd5b80600660008481526020019081526020016000209080519060200190611d2a929190612290565b505050565b6001816000016000828254019250508190555050565b505050565b505050565b6000611d708473ffffffffffffffffffffffffffffffffffffffff16612093565b15611eca578373ffffffffffffffffffffffffffffffffffffffff1663150b7a02611d99610fd6565b8786866040518563ffffffff1660e01b8152600401611dbb949392919061377c565b6020604051808303816000875af1925050508015611df757506040513d601f19601f82011682018060405250810190611df491906137dd565b60015b611e7a573d8060008114611e27576040519150601f19603f3d011682016040523d82523d6000602084013e611e2c565b606091505b50600081511415611e72576040517f08c379a0000000000000000000000000000000000000000000000000000000008152600401611e69906135e3565b60405180910390fd5b805181602001fd5b63150b7a0260e01b7bffffffffffffffffffffffffffffffffffffffffffffffffffffffff1916817bffffffffffffffffffffffffffffffffffffffffffffffffffffffff191614915050611ecf565b600190505b949350505050565b60606000821415611f1f576040518060400160405280600181526020017f30000000000000000000000000000000000000000000000000000000000000008152509050612033565b600082905060005b60008214611f51578080611f3a9061380a565b915050600a82611f4a9190613882565b9150611f27565b60008167ffffffffffffffff811115611f6d57611f6c6127d6565b5b6040519080825280601f01601f191660200182016040528015611f9f5781602001600182028036833780820191505090505b5090505b6000851461202c57600182611fb8919061331f565b9150600a85611fc791906138b3565b6030611fd39190613353565b60f81b818381518110611fe957611fe86134a7565b5b60200101907effffffffffffffffffffffffffffffffffffffffffffffffffffffffffffff1916908160001a905350600a856120259190613882565b9450611fa3565b8093505050505b919050565b61204283836120b6565b61204f6000848484611d4f565b61208e576040517f08c379a0000000000000000000000000000000000000000000000000000000008152600401612085906135e3565b60405180910390fd5b505050565b6000808273ffffffffffffffffffffffffffffffffffffffff163b119050919050565b600073ffffffffffffffffffffffffffffffffffffffff168273ffffffffffffffffffffffffffffffffffffffff161415612126576040517f08c379a000000000000000000000000000000000000000000000000000000000815260040161211d90613930565b60405180910390fd5b61212f81610f6a565b1561216f576040517f08c379a00000000000000000000000000000000000000000000000000000000081526004016121669061399c565b60405180910390fd5b61217b60008383611d45565b6001600360008473ffffffffffffffffffffffffffffffffffffffff1673ffffffffffffffffffffffffffffffffffffffff16815260200190815260200160002060008282546121cb9190613353565b92505081905550816002600083815260200190815260200160002060006101000a81548173ffffffffffffffffffffffffffffffffffffffff021916908373ffffffffffffffffffffffffffffffffffffffff160217905550808273ffffffffffffffffffffffffffffffffffffffff16600073ffffffffffffffffffffffffffffffffffffffff167fddf252ad1be2c89b69c2b068fc378daa952ba7f163c4a11628f55a4df523b3ef60405160405180910390a461228c60008383611d4a565b5050565b82805461229c90612b30565b90600052602060002090601f0160209004810192826122be5760008555612305565b82601f106122d757805160ff1916838001178555612305565b82800160010185558215612305579182015b828111156123045782518255916020019190600101906122e9565b5b5090506123129190612316565b5090565b5b8082111561232f576000816000905550600101612317565b5090565b6000604051905090565b600080fd5b600080fd5b60007fffffffff0000000000000000000000000000000000000000000000000000000082169050919050565b61237c81612347565b811461238757600080fd5b50565b60008135905061239981612373565b92915050565b6000602082840312156123b5576123b461233d565b5b60006123c38482850161238a565b91505092915050565b60008115159050919050565b6123e1816123cc565b82525050565b60006020820190506123fc60008301846123d8565b92915050565b600081519050919050565b600082825260208201905092915050565b60005b8381101561243c578082015181840152602081019050612421565b8381111561244b576000848401525b50505050565b6000601f19601f8301169050919050565b600061246d82612402565b612477818561240d565b935061248781856020860161241e565b61249081612451565b840191505092915050565b600060208201905081810360008301526124b58184612462565b905092915050565b6000819050919050565b6124d0816124bd565b81146124db57600080fd5b50565b6000813590506124ed816124c7565b92915050565b6000602082840312156125095761250861233d565b5b6000612517848285016124de565b91505092915050565b600073ffffffffffffffffffffffffffffffffffffffff82169050919050565b600061254b82612520565b9050919050565b61255b81612540565b82525050565b60006020820190506125766000830184612552565b92915050565b61258581612540565b811461259057600080fd5b50565b6000813590506125a28161257c565b92915050565b600080604083850312156125bf576125be61233d565b5b60006125cd85828601612593565b92505060206125de858286016124de565b9150509250929050565b6000806000606084860312156126015761260061233d565b5b600061260f86828701612593565b935050602061262086828701612593565b9250506040612631868287016124de565b9150509250925092565b600080600080608085870312156126555761265461233d565b5b600061266387828801612593565b9450506020612674878288016124de565b935050604061268587828801612593565b9250506060612696878288016124de565b91505092959194509250565b6000602082840312156126b8576126b761233d565b5b60006126c684828501612593565b91505092915050565b6126d8816124bd565b82525050565b60006020820190506126f360008301846126cf565b92915050565b600080600080608085870312156127135761271261233d565b5b6000612721878288016124de565b945050602061273287828801612593565b935050604061274387828801612593565b9250506060612754878288016124de565b91505092959194509250565b612769816123cc565b811461277457600080fd5b50565b60008135905061278681612760565b92915050565b600080604083850312156127a3576127a261233d565b5b60006127b185828601612593565b92505060206127c285828601612777565b9150509250929050565b600080fd5b600080fd5b7f4e487b7100000000000000000000000000000000000000000000000000000000600052604160045260246000fd5b61280e82612451565b810181811067ffffffffffffffff8211171561282d5761282c6127d6565b5b80604052505050565b6000612840612333565b905061284c8282612805565b919050565b600067ffffffffffffffff82111561286c5761286b6127d6565b5b61287582612451565b9050602081019050919050565b82818337600083830152505050565b60006128a461289f84612851565b612836565b9050828152602081018484840111156128c0576128bf6127d1565b5b6128cb848285612882565b509392505050565b600082601f8301126128e8576128e76127cc565b5b81356128f8848260208601612891565b91505092915050565b6000806000806080858703121561291b5761291a61233d565b5b600061292987828801612593565b945050602061293a87828801612593565b935050604061294b878288016124de565b925050606085013567ffffffffffffffff81111561296c5761296b612342565b5b612978878288016128d3565b91505092959194509250565b6000806040838503121561299b5761299a61233d565b5b60006129a9858286016124de565b92505060206129ba85828601612593565b9150509250929050565b600080604083850312156129db576129da61233d565b5b60006129e985828601612593565b92505060206129fa85828601612593565b9150509250929050565b600067ffffffffffffffff821115612a1f57612a1e6127d6565b5b612a2882612451565b9050602081019050919050565b6000612a48612a4384612a04565b612836565b905082815260208101848484011115612a6457612a636127d1565b5b612a6f848285612882565b509392505050565b600082601f830112612a8c57612a8b6127cc565b5b8135612a9c848260208601612a35565b91505092915050565b60008060408385031215612abc57612abb61233d565b5b6000612aca85828601612593565b925050602083013567ffffffffffffffff811115612aeb57612aea612342565b5b612af785828601612a77565b9150509250929050565b7f4e487b7100000000000000000000000000000000000000000000000000000000600052602260045260246000fd5b60006002820490506001821680612b4857607f821691505b60208210811415612b5c57612b5b612b01565b5b50919050565b7f4552433732313a20617070726f76656420717565727920666f72206e6f6e657860008201527f697374656e7420746f6b656e0000000000000000000000000000000000000000602082015250565b6000612bbe602c8361240d565b9150612bc982612b62565b604082019050919050565b60006020820190508181036000830152612bed81612bb1565b9050919050565b7f4552433732313a20617070726f76616c20746f2063757272656e74206f776e6560008201527f7200000000000000000000000000000000000000000000000000000000000000602082015250565b6000612c5060218361240d565b9150612c5b82612bf4565b604082019050919050565b60006020820190508181036000830152612c7f81612c43565b9050919050565b7f4552433732313a20617070726f76652063616c6c6572206973206e6f74206f7760008201527f6e6572206e6f7220617070726f76656420666f7220616c6c0000000000000000602082015250565b6000612ce260388361240d565b9150612ced82612c86565b604082019050919050565b60006020820190508181036000830152612d1181612cd5565b9050919050565b7f4552433732313a207472616e736665722063616c6c6572206973206e6f74206f60008201527f776e6572206e6f7220617070726f766564000000000000000000000000000000602082015250565b6000612d7460318361240d565b9150612d7f82612d18565b604082019050919050565b60006020820190508181036000830152612da381612d67565b9050919050565b7f6e6f7420616c6c6f77656420746f206164642045524332300000000000000000600082015250565b6000612de060188361240d565b9150612deb82612daa565b602082019050919050565b60006020820190508181036000830152612e0f81612dd3565b9050919050565b6000606082019050612e2b6000830186612552565b612e386020830185612552565b612e4560408301846126cf565b949350505050565b600081519050612e5c81612760565b92915050565b600060208284031215612e7857612e7761233d565b5b6000612e8684828501612e4d565b91505092915050565b7f4552433230207472616e73666572206661696c65642e00000000000000000000600082015250565b6000612ec560168361240d565b9150612ed082612e8f565b602082019050919050565b60006020820190508181036000830152612ef481612eb8565b9050919050565b7f4552433732313a206f776e657220717565727920666f72206e6f6e657869737460008201527f656e7420746f6b656e0000000000000000000000000000000000000000000000602082015250565b6000612f5760298361240d565b9150612f6282612efb565b604082019050919050565b60006020820190508181036000830152612f8681612f4a565b9050919050565b7f4552433732313a2062616c616e636520717565727920666f7220746865207a6560008201527f726f206164647265737300000000000000000000000000000000000000000000602082015250565b6000612fe9602a8361240d565b9150612ff482612f8d565b604082019050919050565b6000602082019050818103600083015261301881612fdc565b9050919050565b60006040820190506130346000830185612552565b61304160208301846126cf565b9392505050565b7f45524337323155524953746f726167653a2055524920717565727920666f722060008201527f6e6f6e6578697374656e7420746f6b656e000000000000000000000000000000602082015250565b60006130a460318361240d565b91506130af82613048565b604082019050919050565b600060208201905081810360008301526130d381613097565b9050919050565b600081905092915050565b60006130f082612402565b6130fa81856130da565b935061310a81856020860161241e565b80840191505092915050565b600061312282856130e5565b915061312e82846130e5565b91508190509392505050565b7f4552433732313a206f70657261746f7220717565727920666f72206e6f6e657860008201527f697374656e7420746f6b656e0000000000000000000000000000000000000000602082015250565b6000613196602c8361240d565b91506131a18261313a565b604082019050919050565b600060208201905081810360008301526131c581613189565b9050919050565b7f4552433732313a207472616e736665722066726f6d20696e636f72726563742060008201527f6f776e6572000000000000000000000000000000000000000000000000000000602082015250565b600061322860258361240d565b9150613233826131cc565b604082019050919050565b600060208201905081810360008301526132578161321b565b9050919050565b7f4552433732313a207472616e7366657220746f20746865207a65726f2061646460008201527f7265737300000000000000000000000000000000000000000000000000000000602082015250565b60006132ba60248361240d565b91506132c58261325e565b604082019050919050565b600060208201905081810360008301526132e9816132ad565b9050919050565b7f4e487b7100000000000000000000000000000000000000000000000000000000600052601160045260246000fd5b600061332a826124bd565b9150613335836124bd565b925082821015613348576133476132f0565b5b828203905092915050565b600061335e826124bd565b9150613369836124bd565b9250827fffffffffffffffffffffffffffffffffffffffffffffffffffffffffffffffff0382111561339e5761339d6132f0565b5b828201905092915050565b7f5f746f6b656e496420646f6573206e6f742065786973742e0000000000000000600082015250565b60006133df60188361240d565b91506133ea826133a9565b602082019050919050565b6000602082019050818103600083015261340e816133d2565b9050919050565b7f4e6f7420656e6f75676820746f6b656e20617661696c61626c6520746f20747260008201527f616e736665722e00000000000000000000000000000000000000000000000000602082015250565b600061347160278361240d565b915061347c82613415565b604082019050919050565b600060208201905081810360008301526134a081613464565b9050919050565b7f4e487b7100000000000000000000000000000000000000000000000000000000600052603260045260246000fd5b7f4e487b7100000000000000000000000000000000000000000000000000000000600052603160045260246000fd5b7f4552433732313a20617070726f766520746f2063616c6c657200000000000000600082015250565b600061353b60198361240d565b915061354682613505565b602082019050919050565b6000602082019050818103600083015261356a8161352e565b9050919050565b7f4552433732313a207472616e7366657220746f206e6f6e20455243373231526560008201527f63656976657220696d706c656d656e7465720000000000000000000000000000602082015250565b60006135cd60328361240d565b91506135d882613571565b604082019050919050565b600060208201905081810360008301526135fc816135c0565b9050919050565b7f4552433732314d657461646174613a2055524920717565727920666f72206e6f60008201527f6e6578697374656e7420746f6b656e0000000000000000000000000000000000602082015250565b600061365f602f8361240d565b915061366a82613603565b604082019050919050565b6000602082019050818103600083015261368e81613652565b9050919050565b7f45524337323155524953746f726167653a2055524920736574206f66206e6f6e60008201527f6578697374656e7420746f6b656e000000000000000000000000000000000000602082015250565b60006136f1602e8361240d565b91506136fc82613695565b604082019050919050565b60006020820190508181036000830152613720816136e4565b9050919050565b600081519050919050565b600082825260208201905092915050565b600061374e82613727565b6137588185613732565b935061376881856020860161241e565b61377181612451565b840191505092915050565b60006080820190506137916000830187612552565b61379e6020830186612552565b6137ab60408301856126cf565b81810360608301526137bd8184613743565b905095945050505050565b6000815190506137d781612373565b92915050565b6000602082840312156137f3576137f261233d565b5b6000613801848285016137c8565b91505092915050565b6000613815826124bd565b91507fffffffffffffffffffffffffffffffffffffffffffffffffffffffffffffffff821415613848576138476132f0565b5b600182019050919050565b7f4e487b7100000000000000000000000000000000000000000000000000000000600052601260045260246000fd5b600061388d826124bd565b9150613898836124bd565b9250826138a8576138a7613853565b5b828204905092915050565b60006138be826124bd565b91506138c9836124bd565b9250826138d9576138d8613853565b5b828206905092915050565b7f4552433732313a206d696e7420746f20746865207a65726f2061646472657373600082015250565b600061391a60208361240d565b9150613925826138e4565b602082019050919050565b600060208201905081810360008301526139498161390d565b9050919050565b7f4552433732313a20746f6b656e20616c7265616479206d696e74656400000000600082015250565b6000613986601c8361240d565b915061399182613950565b602082019050919050565b600060208201905081810360008301526139b581613979565b905091905056fea264697066735822122085f99a003273308c9717fc8f4945384e73f8d8a3511f08a79d5271e7a89a4acf64736f6c634300080b0033",
  "immutableReferences": {},
  "source": "// SPDX-License-Identifier: MIT\npragma solidity >=0.4.22 <0.9.0;\n\nimport \"@openzeppelin/contracts/token/ERC20/IERC20.sol\";\nimport \"@openzeppelin/contracts/token/ERC721/extensions/ERC721URIStorage.sol\";\nimport \"@openzeppelin/contracts/utils/Counters.sol\";\n\ncontract piNFT is ERC721URIStorage{\n\n    using Counters for Counters.Counter;\n    Counters.Counter private _tokenIdCounter;\n\n    // tokenId => (token contract => balance)\n    mapping(uint256 => mapping(address => uint256)) erc20Balances;\n\n    // tokenId => token contract\n    mapping(uint256 => address[]) erc20Contracts;\n\n    // tokenId => (token contract => token contract index)\n    mapping(uint256 => mapping(address => uint256)) erc20ContractIndex;\n\n    event ReceivedERC20(address indexed _from, uint256 indexed _tokenId, address indexed _erc20Contract, uint256 _value);\n    event TransferERC20(uint256 indexed _tokenId, address indexed _to, address indexed _erc20Contract, uint256 _value);\n\n    constructor(string memory _name, string memory _symbol) ERC721(_name, _symbol) {}\n    \n    // mints an ERC721 token to _to with _uri as token uri\n    function mintNFT(address _to, string memory _uri) public returns (uint256) {\n        uint256 tokenId_ = _tokenIdCounter.current();\n        _safeMint(_to, tokenId_);\n        _setTokenURI(tokenId_, _uri);\n        _tokenIdCounter.increment();\n        return tokenId_;\n    }\n\n    // this function requires approval of tokens by _erc20Contract\n    // adds ERC20 tokens to the token with _tokenId(basically trasnfer ERC20 to this contract)\n    function addERC20(address _from, uint256 _tokenId, address _erc20Contract, uint256 _value) public {\n        require(_from == msg.sender, \"not allowed to add ERC20\");\n        erc20Received(_from, _tokenId, _erc20Contract, _value);\n        require(IERC20(_erc20Contract).transferFrom(_from, address(this), _value), \"ERC20 transfer failed.\");\n    }\n\n    // update the mappings for a token on recieving ERC20 tokens\n    function erc20Received(address _from, uint256 _tokenId, address _erc20Contract, uint256 _value) private {\n        require(ERC721.ownerOf(_tokenId) != address(0), \"_tokenId does not exist.\");\n        if (_value == 0) {\n            return;\n        }\n        uint256 erc20Balance = erc20Balances[_tokenId][_erc20Contract];\n        if (erc20Balance == 0) {\n            erc20ContractIndex[_tokenId][_erc20Contract] = erc20Contracts[_tokenId].length;\n            erc20Contracts[_tokenId].push(_erc20Contract);\n        }\n        erc20Balances[_tokenId][_erc20Contract] += _value;\n        emit ReceivedERC20(_from, _tokenId, _erc20Contract, _value);\n    }\n\n    // transfers the ERC 20 tokens from _tokenId(this contract) to _to address\n    function transferERC20(uint256 _tokenId, address _to, address _erc20Contract, uint256 _value) external {\n        require(_to != address(0));\n        address rootOwner = ERC721.ownerOf(_tokenId);\n        require(rootOwner == msg.sender);\n        removeERC20(_tokenId, _erc20Contract, _value);\n        require(IERC20(_erc20Contract).transfer(_to, _value), \"ERC20 transfer failed.\");\n        emit TransferERC20(_tokenId, _to, _erc20Contract, _value);\n    }\n\n    // update the mappings for a token when ERC20 tokens gets removed\n    function removeERC20(uint256 _tokenId, address _erc20Contract, uint256 _value) private {\n        if (_value == 0) {\n            return;\n        }\n        uint256 erc20Balance = erc20Balances[_tokenId][_erc20Contract];\n        require(erc20Balance >= _value, \"Not enough token available to transfer.\");\n        uint256 newERC20Balance = erc20Balance - _value;\n        erc20Balances[_tokenId][_erc20Contract] = newERC20Balance;\n        if (newERC20Balance == 0) {\n            uint256 lastContractIndex = erc20Contracts[_tokenId].length - 1;\n            address lastContract = erc20Contracts[_tokenId][lastContractIndex];\n            if (_erc20Contract != lastContract) {\n                uint256 contractIndex = erc20ContractIndex[_tokenId][_erc20Contract];\n                erc20Contracts[_tokenId][contractIndex] = lastContract;\n                erc20ContractIndex[_tokenId][lastContract] = contractIndex;\n            }\n            delete erc20ContractIndex[_tokenId][_erc20Contract];\n            erc20Contracts[_tokenId].pop();\n\n        }\n    }\n\n    // view ERC 20 token balance of a token\n    function viewBalance(uint256 _tokenId, address _erc20Address) public view returns (uint256) {\n        return erc20Balances[_tokenId][_erc20Address];\n    }\n\n}",
  "sourcePath": "/Users/parv/Desktop/Pandora/piNFTOfficial/aconomy-contract/contracts/piNFT.sol",
  "compiler": {
    "name": "solc",
    "version": "0.8.11+commit.d7f03943.Emscripten.clang"
  },
  "schemaVersion": "3.4.4",
  "updatedAt": "2022-06-30T14:28:35.755Z",
  "devdoc": {
    "kind": "dev",
    "methods": {
      "approve(address,uint256)": {
        "details": "See {IERC721-approve}."
      },
      "balanceOf(address)": {
        "details": "See {IERC721-balanceOf}."
      },
      "getApproved(uint256)": {
        "details": "See {IERC721-getApproved}."
      },
      "isApprovedForAll(address,address)": {
        "details": "See {IERC721-isApprovedForAll}."
      },
      "name()": {
        "details": "See {IERC721Metadata-name}."
      },
      "ownerOf(uint256)": {
        "details": "See {IERC721-ownerOf}."
      },
      "safeTransferFrom(address,address,uint256)": {
        "details": "See {IERC721-safeTransferFrom}."
      },
      "safeTransferFrom(address,address,uint256,bytes)": {
        "details": "See {IERC721-safeTransferFrom}."
      },
      "setApprovalForAll(address,bool)": {
        "details": "See {IERC721-setApprovalForAll}."
      },
      "supportsInterface(bytes4)": {
        "details": "See {IERC165-supportsInterface}."
      },
      "symbol()": {
        "details": "See {IERC721Metadata-symbol}."
      },
      "tokenURI(uint256)": {
        "details": "See {IERC721Metadata-tokenURI}."
      },
      "transferFrom(address,address,uint256)": {
        "details": "See {IERC721-transferFrom}."
      }
    },
    "version": 1
  },
  "userdoc": {
    "kind": "user",
    "methods": {},
    "version": 1
  }
}