{
  "contractName": "piNFT",
  "abi": [
    {
      "inputs": [
        {
          "internalType": "string",
          "name": "_name",
          "type": "string"
        },
        {
          "internalType": "string",
          "name": "_symbol",
          "type": "string"
        }
      ],
      "stateMutability": "nonpayable",
      "type": "constructor"
    },
    {
      "anonymous": false,
      "inputs": [
        {
          "indexed": true,
          "internalType": "address",
          "name": "owner",
          "type": "address"
        },
        {
          "indexed": true,
          "internalType": "address",
          "name": "approved",
          "type": "address"
        },
        {
          "indexed": true,
          "internalType": "uint256",
          "name": "tokenId",
          "type": "uint256"
        }
      ],
      "name": "Approval",
      "type": "event"
    },
    {
      "anonymous": false,
      "inputs": [
        {
          "indexed": true,
          "internalType": "address",
          "name": "owner",
          "type": "address"
        },
        {
          "indexed": true,
          "internalType": "address",
          "name": "operator",
          "type": "address"
        },
        {
          "indexed": false,
          "internalType": "bool",
          "name": "approved",
          "type": "bool"
        }
      ],
      "name": "ApprovalForAll",
      "type": "event"
    },
    {
      "anonymous": false,
      "inputs": [
        {
          "indexed": true,
          "internalType": "address",
          "name": "_from",
          "type": "address"
        },
        {
          "indexed": true,
          "internalType": "uint256",
          "name": "_tokenId",
          "type": "uint256"
        },
        {
          "indexed": true,
          "internalType": "address",
          "name": "_erc20Contract",
          "type": "address"
        },
        {
          "indexed": false,
          "internalType": "uint256",
          "name": "_value",
          "type": "uint256"
        }
      ],
      "name": "ReceivedERC20",
      "type": "event"
    },
    {
      "anonymous": false,
      "inputs": [
        {
          "indexed": true,
          "internalType": "address",
          "name": "from",
          "type": "address"
        },
        {
          "indexed": true,
          "internalType": "address",
          "name": "to",
          "type": "address"
        },
        {
          "indexed": true,
          "internalType": "uint256",
          "name": "tokenId",
          "type": "uint256"
        }
      ],
      "name": "Transfer",
      "type": "event"
    },
    {
      "anonymous": false,
      "inputs": [
        {
          "indexed": true,
          "internalType": "uint256",
          "name": "_tokenId",
          "type": "uint256"
        },
        {
          "indexed": true,
          "internalType": "address",
          "name": "_to",
          "type": "address"
        },
        {
          "indexed": true,
          "internalType": "address",
          "name": "_erc20Contract",
          "type": "address"
        },
        {
          "indexed": false,
          "internalType": "uint256",
          "name": "_value",
          "type": "uint256"
        }
      ],
      "name": "TransferERC20",
      "type": "event"
    },
    {
      "inputs": [
        {
          "internalType": "address",
          "name": "to",
          "type": "address"
        },
        {
          "internalType": "uint256",
          "name": "tokenId",
          "type": "uint256"
        }
      ],
      "name": "approve",
      "outputs": [],
      "stateMutability": "nonpayable",
      "type": "function"
    },
    {
      "inputs": [
        {
          "internalType": "address",
          "name": "owner",
          "type": "address"
        }
      ],
      "name": "balanceOf",
      "outputs": [
        {
          "internalType": "uint256",
          "name": "",
          "type": "uint256"
        }
      ],
      "stateMutability": "view",
      "type": "function"
    },
    {
      "inputs": [
        {
          "internalType": "uint256",
          "name": "tokenId",
          "type": "uint256"
        }
      ],
      "name": "getApproved",
      "outputs": [
        {
          "internalType": "address",
          "name": "",
          "type": "address"
        }
      ],
      "stateMutability": "view",
      "type": "function"
    },
    {
      "inputs": [
        {
          "internalType": "address",
          "name": "owner",
          "type": "address"
        },
        {
          "internalType": "address",
          "name": "operator",
          "type": "address"
        }
      ],
      "name": "isApprovedForAll",
      "outputs": [
        {
          "internalType": "bool",
          "name": "",
          "type": "bool"
        }
      ],
      "stateMutability": "view",
      "type": "function"
    },
    {
      "inputs": [],
      "name": "name",
      "outputs": [
        {
          "internalType": "string",
          "name": "",
          "type": "string"
        }
      ],
      "stateMutability": "view",
      "type": "function"
    },
    {
      "inputs": [
        {
          "internalType": "uint256",
          "name": "tokenId",
          "type": "uint256"
        }
      ],
      "name": "ownerOf",
      "outputs": [
        {
          "internalType": "address",
          "name": "",
          "type": "address"
        }
      ],
      "stateMutability": "view",
      "type": "function"
    },
    {
      "inputs": [
        {
          "internalType": "address",
          "name": "from",
          "type": "address"
        },
        {
          "internalType": "address",
          "name": "to",
          "type": "address"
        },
        {
          "internalType": "uint256",
          "name": "tokenId",
          "type": "uint256"
        }
      ],
      "name": "safeTransferFrom",
      "outputs": [],
      "stateMutability": "nonpayable",
      "type": "function"
    },
    {
      "inputs": [
        {
          "internalType": "address",
          "name": "from",
          "type": "address"
        },
        {
          "internalType": "address",
          "name": "to",
          "type": "address"
        },
        {
          "internalType": "uint256",
          "name": "tokenId",
          "type": "uint256"
        },
        {
          "internalType": "bytes",
          "name": "_data",
          "type": "bytes"
        }
      ],
      "name": "safeTransferFrom",
      "outputs": [],
      "stateMutability": "nonpayable",
      "type": "function"
    },
    {
      "inputs": [
        {
          "internalType": "address",
          "name": "operator",
          "type": "address"
        },
        {
          "internalType": "bool",
          "name": "approved",
          "type": "bool"
        }
      ],
      "name": "setApprovalForAll",
      "outputs": [],
      "stateMutability": "nonpayable",
      "type": "function"
    },
    {
      "inputs": [
        {
          "internalType": "bytes4",
          "name": "interfaceId",
          "type": "bytes4"
        }
      ],
      "name": "supportsInterface",
      "outputs": [
        {
          "internalType": "bool",
          "name": "",
          "type": "bool"
        }
      ],
      "stateMutability": "view",
      "type": "function"
    },
    {
      "inputs": [],
      "name": "symbol",
      "outputs": [
        {
          "internalType": "string",
          "name": "",
          "type": "string"
        }
      ],
      "stateMutability": "view",
      "type": "function"
    },
    {
      "inputs": [
        {
          "internalType": "uint256",
          "name": "tokenId",
          "type": "uint256"
        }
      ],
      "name": "tokenURI",
      "outputs": [
        {
          "internalType": "string",
          "name": "",
          "type": "string"
        }
      ],
      "stateMutability": "view",
      "type": "function"
    },
    {
      "inputs": [
        {
          "internalType": "address",
          "name": "from",
          "type": "address"
        },
        {
          "internalType": "address",
          "name": "to",
          "type": "address"
        },
        {
          "internalType": "uint256",
          "name": "tokenId",
          "type": "uint256"
        }
      ],
      "name": "transferFrom",
      "outputs": [],
      "stateMutability": "nonpayable",
      "type": "function"
    },
    {
      "inputs": [
        {
          "internalType": "address",
          "name": "_to",
          "type": "address"
        },
        {
          "internalType": "string",
          "name": "_uri",
          "type": "string"
        }
      ],
      "name": "mintNFT",
      "outputs": [
        {
          "internalType": "uint256",
          "name": "",
          "type": "uint256"
        }
      ],
      "stateMutability": "nonpayable",
      "type": "function"
    },
    {
      "inputs": [
        {
          "internalType": "address",
          "name": "_from",
          "type": "address"
        },
        {
          "internalType": "uint256",
          "name": "_tokenId",
          "type": "uint256"
        },
        {
          "internalType": "address",
          "name": "_erc20Contract",
          "type": "address"
        },
        {
          "internalType": "uint256",
          "name": "_value",
          "type": "uint256"
        }
      ],
      "name": "getERC20",
      "outputs": [],
      "stateMutability": "nonpayable",
      "type": "function"
    },
    {
      "inputs": [
        {
          "internalType": "uint256",
          "name": "_tokenId",
          "type": "uint256"
        },
        {
          "internalType": "address",
          "name": "_to",
          "type": "address"
        },
        {
          "internalType": "address",
          "name": "_erc20Contract",
          "type": "address"
        },
        {
          "internalType": "uint256",
          "name": "_value",
          "type": "uint256"
        }
      ],
      "name": "transferERC20",
      "outputs": [],
      "stateMutability": "nonpayable",
      "type": "function"
    }
  ],
  "bytecode": "0x60806040523480156200001157600080fd5b5060405162003cd838038062003cd88339818101604052810190620000379190620002c2565b818181600090805190602001906200005192919062000075565b5080600190805190602001906200006a92919062000075565b5050505050620003ac565b828054620000839062000376565b90600052602060002090601f016020900481019282620000a75760008555620000f3565b82601f10620000c257805160ff1916838001178555620000f3565b82800160010185558215620000f3579182015b82811115620000f2578251825591602001919060010190620000d5565b5b50905062000102919062000106565b5090565b5b808211156200012157600081600090555060010162000107565b5090565b6000604051905090565b600080fd5b600080fd5b600080fd5b600080fd5b6000601f19601f8301169050919050565b7f4e487b7100000000000000000000000000000000000000000000000000000000600052604160045260246000fd5b6200018e8262000143565b810181811067ffffffffffffffff82111715620001b057620001af62000154565b5b80604052505050565b6000620001c562000125565b9050620001d3828262000183565b919050565b600067ffffffffffffffff821115620001f657620001f562000154565b5b620002018262000143565b9050602081019050919050565b60005b838110156200022e57808201518184015260208101905062000211565b838111156200023e576000848401525b50505050565b60006200025b6200025584620001d8565b620001b9565b9050828152602081018484840111156200027a57620002796200013e565b5b620002878482856200020e565b509392505050565b600082601f830112620002a757620002a662000139565b5b8151620002b984826020860162000244565b91505092915050565b60008060408385031215620002dc57620002db6200012f565b5b600083015167ffffffffffffffff811115620002fd57620002fc62000134565b5b6200030b858286016200028f565b925050602083015167ffffffffffffffff8111156200032f576200032e62000134565b5b6200033d858286016200028f565b9150509250929050565b7f4e487b7100000000000000000000000000000000000000000000000000000000600052602260045260246000fd5b600060028204905060018216806200038f57607f821691505b60208210811415620003a657620003a562000347565b5b50919050565b61391c80620003bc6000396000f3fe608060405234801561001057600080fd5b50600436106101005760003560e01c806370a0823111610097578063b88d4fde11610066578063b88d4fde146102a9578063c87b56dd146102c5578063e985e9c5146102f5578063eacabe141461032557610100565b806370a0823114610223578063830ef41b1461025357806395d89b411461026f578063a22cb4651461028d57610100565b8063095ea7b3116100d3578063095ea7b31461019f57806323b872dd146101bb57806342842e0e146101d75780636352211e146101f357610100565b806301ffc9a71461010557806306fdde031461013557806307cff6f214610153578063081812fc1461016f575b600080fd5b61011f600480360381019061011a9190612309565b610355565b60405161012c9190612351565b60405180910390f35b61013d610437565b60405161014a9190612405565b60405180910390f35b61016d600480360381019061016891906124bb565b6104c9565b005b61018960048036038101906101849190612522565b610608565b604051610196919061255e565b60405180910390f35b6101b960048036038101906101b49190612579565b61068d565b005b6101d560048036038101906101d091906125b9565b6107a5565b005b6101f160048036038101906101ec91906125b9565b610805565b005b61020d60048036038101906102089190612522565b610825565b60405161021a919061255e565b60405180910390f35b61023d6004803603810190610238919061260c565b6108d7565b60405161024a9190612648565b60405180910390f35b61026d60048036038101906102689190612663565b61098f565b005b610277610b43565b6040516102849190612405565b60405180910390f35b6102a760048036038101906102a291906126f6565b610bd5565b005b6102c360048036038101906102be919061286b565b610beb565b005b6102df60048036038101906102da9190612522565b610c4d565b6040516102ec9190612405565b60405180910390f35b61030f600480360381019061030a91906128ee565b610d9f565b60405161031c9190612351565b60405180910390f35b61033f600480360381019061033a91906129cf565b610e33565b60405161034c9190612648565b60405180910390f35b60007f80ac58cd000000000000000000000000000000000000000000000000000000007bffffffffffffffffffffffffffffffffffffffffffffffffffffffff1916827bffffffffffffffffffffffffffffffffffffffffffffffffffffffff1916148061042057507f5b5e139f000000000000000000000000000000000000000000000000000000007bffffffffffffffffffffffffffffffffffffffffffffffffffffffff1916827bffffffffffffffffffffffffffffffffffffffffffffffffffffffff1916145b80610430575061042f82610e6a565b5b9050919050565b60606000805461044690612a5a565b80601f016020809104026020016040519081016040528092919081815260200182805461047290612a5a565b80156104bf5780601f10610494576101008083540402835291602001916104bf565b820191906000526020600020905b8154815290600101906020018083116104a257829003601f168201915b5050505050905090565b3373ffffffffffffffffffffffffffffffffffffffff168473ffffffffffffffffffffffffffffffffffffffff1614610537576040517f08c379a000000000000000000000000000000000000000000000000000000000815260040161052e90612ad8565b60405180910390fd5b61054384848484610ed4565b8173ffffffffffffffffffffffffffffffffffffffff166323b872dd8530846040518463ffffffff1660e01b815260040161058093929190612af8565b6020604051808303816000875af115801561059f573d6000803e3d6000fd5b505050506040513d601f19601f820116820180604052508101906105c39190612b44565b610602576040517f08c379a00000000000000000000000000000000000000000000000000000000081526004016105f990612bbd565b60405180910390fd5b50505050565b60006106138261116d565b610652576040517f08c379a000000000000000000000000000000000000000000000000000000000815260040161064990612c4f565b60405180910390fd5b6004600083815260200190815260200160002060009054906101000a900473ffffffffffffffffffffffffffffffffffffffff169050919050565b600061069882610825565b90508073ffffffffffffffffffffffffffffffffffffffff168373ffffffffffffffffffffffffffffffffffffffff161415610709576040517f08c379a000000000000000000000000000000000000000000000000000000000815260040161070090612ce1565b60405180910390fd5b8073ffffffffffffffffffffffffffffffffffffffff166107286111d9565b73ffffffffffffffffffffffffffffffffffffffff1614806107575750610756816107516111d9565b610d9f565b5b610796576040517f08c379a000000000000000000000000000000000000000000000000000000000815260040161078d90612d73565b60405180910390fd5b6107a083836111e1565b505050565b6107b66107b06111d9565b8261129a565b6107f5576040517f08c379a00000000000000000000000000000000000000000000000000000000081526004016107ec90612e05565b60405180910390fd5b610800838383611378565b505050565b61082083838360405180602001604052806000815250610beb565b505050565b6000806002600084815260200190815260200160002060009054906101000a900473ffffffffffffffffffffffffffffffffffffffff169050600073ffffffffffffffffffffffffffffffffffffffff168173ffffffffffffffffffffffffffffffffffffffff1614156108ce576040517f08c379a00000000000000000000000000000000000000000000000000000000081526004016108c590612e97565b60405180910390fd5b80915050919050565b60008073ffffffffffffffffffffffffffffffffffffffff168273ffffffffffffffffffffffffffffffffffffffff161415610948576040517f08c379a000000000000000000000000000000000000000000000000000000000815260040161093f90612f29565b60405180910390fd5b600360008373ffffffffffffffffffffffffffffffffffffffff1673ffffffffffffffffffffffffffffffffffffffff168152602001908152602001600020549050919050565b600073ffffffffffffffffffffffffffffffffffffffff168373ffffffffffffffffffffffffffffffffffffffff1614156109c957600080fd5b60006109d485610825565b90503373ffffffffffffffffffffffffffffffffffffffff168173ffffffffffffffffffffffffffffffffffffffff1614610a0e57600080fd5b610a198584846115df565b8273ffffffffffffffffffffffffffffffffffffffff1663a9059cbb85846040518363ffffffff1660e01b8152600401610a54929190612f49565b6020604051808303816000875af1158015610a73573d6000803e3d6000fd5b505050506040513d601f19601f82011682018060405250810190610a979190612b44565b610ad6576040517f08c379a0000000000000000000000000000000000000000000000000000000008152600401610acd90612bbd565b60405180910390fd5b8273ffffffffffffffffffffffffffffffffffffffff168473ffffffffffffffffffffffffffffffffffffffff16867fa8352277873fc0d2b233b8127433da351a4164fa701ed6ff79655694222932c485604051610b349190612648565b60405180910390a45050505050565b606060018054610b5290612a5a565b80601f0160208091040260200160405190810160405280929190818152602001828054610b7e90612a5a565b8015610bcb5780601f10610ba057610100808354040283529160200191610bcb565b820191906000526020600020905b815481529060010190602001808311610bae57829003601f168201915b5050505050905090565b610be7610be06111d9565b8383611972565b5050565b610bfc610bf66111d9565b8361129a565b610c3b576040517f08c379a0000000000000000000000000000000000000000000000000000000008152600401610c3290612e05565b60405180910390fd5b610c4784848484611adf565b50505050565b6060610c588261116d565b610c97576040517f08c379a0000000000000000000000000000000000000000000000000000000008152600401610c8e90612fe4565b60405180910390fd5b6000600660008481526020019081526020016000208054610cb790612a5a565b80601f0160208091040260200160405190810160405280929190818152602001828054610ce390612a5a565b8015610d305780601f10610d0557610100808354040283529160200191610d30565b820191906000526020600020905b815481529060010190602001808311610d1357829003601f168201915b505050505090506000610d41611b3b565b9050600081511415610d57578192505050610d9a565b600082511115610d8c578082604051602001610d74929190613040565b60405160208183030381529060405292505050610d9a565b610d9584611b52565b925050505b919050565b6000600560008473ffffffffffffffffffffffffffffffffffffffff1673ffffffffffffffffffffffffffffffffffffffff16815260200190815260200160002060008373ffffffffffffffffffffffffffffffffffffffff1673ffffffffffffffffffffffffffffffffffffffff16815260200190815260200160002060009054906101000a900460ff16905092915050565b600080610e406007611bf9565b9050610e4c8482611c07565b610e568184611c25565b610e606007611c99565b8091505092915050565b60007f01ffc9a7000000000000000000000000000000000000000000000000000000007bffffffffffffffffffffffffffffffffffffffffffffffffffffffff1916827bffffffffffffffffffffffffffffffffffffffffffffffffffffffff1916149050919050565b600073ffffffffffffffffffffffffffffffffffffffff16610ef584610825565b73ffffffffffffffffffffffffffffffffffffffff161415610f4c576040517f08c379a0000000000000000000000000000000000000000000000000000000008152600401610f43906130b0565b60405180910390fd5b6000811415610f5a57611167565b60006008600085815260200190815260200160002060008473ffffffffffffffffffffffffffffffffffffffff1673ffffffffffffffffffffffffffffffffffffffff1681526020019081526020016000205490506000811415611098576009600085815260200190815260200160002080549050600a600086815260200190815260200160002060008573ffffffffffffffffffffffffffffffffffffffff1673ffffffffffffffffffffffffffffffffffffffff1681526020019081526020016000208190555060096000858152602001908152602001600020839080600181540180825580915050600190039060005260206000200160009091909190916101000a81548173ffffffffffffffffffffffffffffffffffffffff021916908373ffffffffffffffffffffffffffffffffffffffff1602179055505b816008600086815260200190815260200160002060008573ffffffffffffffffffffffffffffffffffffffff1673ffffffffffffffffffffffffffffffffffffffff16815260200190815260200160002060008282546110f891906130ff565b925050819055508273ffffffffffffffffffffffffffffffffffffffff16848673ffffffffffffffffffffffffffffffffffffffff167f684ce28ace37552c6bfb98b7cceda8ed55327078eafb5dfb31218e08563827638560405161115d9190612648565b60405180910390a4505b50505050565b60008073ffffffffffffffffffffffffffffffffffffffff166002600084815260200190815260200160002060009054906101000a900473ffffffffffffffffffffffffffffffffffffffff1673ffffffffffffffffffffffffffffffffffffffff1614159050919050565b600033905090565b816004600083815260200190815260200160002060006101000a81548173ffffffffffffffffffffffffffffffffffffffff021916908373ffffffffffffffffffffffffffffffffffffffff160217905550808273ffffffffffffffffffffffffffffffffffffffff1661125483610825565b73ffffffffffffffffffffffffffffffffffffffff167f8c5be1e5ebec7d5bd14f71427d1e84f3dd0314c0f7b2291e5b200ac8c7c3b92560405160405180910390a45050565b60006112a58261116d565b6112e4576040517f08c379a00000000000000000000000000000000000000000000000000000000081526004016112db906131c7565b60405180910390fd5b60006112ef83610825565b90508073ffffffffffffffffffffffffffffffffffffffff168473ffffffffffffffffffffffffffffffffffffffff16148061133157506113308185610d9f565b5b8061136f57508373ffffffffffffffffffffffffffffffffffffffff1661135784610608565b73ffffffffffffffffffffffffffffffffffffffff16145b91505092915050565b8273ffffffffffffffffffffffffffffffffffffffff1661139882610825565b73ffffffffffffffffffffffffffffffffffffffff16146113ee576040517f08c379a00000000000000000000000000000000000000000000000000000000081526004016113e590613259565b60405180910390fd5b600073ffffffffffffffffffffffffffffffffffffffff168273ffffffffffffffffffffffffffffffffffffffff16141561145e576040517f08c379a0000000000000000000000000000000000000000000000000000000008152600401611455906132eb565b60405180910390fd5b611469838383611caf565b6114746000826111e1565b6001600360008573ffffffffffffffffffffffffffffffffffffffff1673ffffffffffffffffffffffffffffffffffffffff16815260200190815260200160002060008282546114c4919061330b565b925050819055506001600360008473ffffffffffffffffffffffffffffffffffffffff1673ffffffffffffffffffffffffffffffffffffffff168152602001908152602001600020600082825461151b91906130ff565b92505081905550816002600083815260200190815260200160002060006101000a81548173ffffffffffffffffffffffffffffffffffffffff021916908373ffffffffffffffffffffffffffffffffffffffff160217905550808273ffffffffffffffffffffffffffffffffffffffff168473ffffffffffffffffffffffffffffffffffffffff167fddf252ad1be2c89b69c2b068fc378daa952ba7f163c4a11628f55a4df523b3ef60405160405180910390a46115da838383611cb4565b505050565b60008114156115ed5761196d565b60006008600085815260200190815260200160002060008473ffffffffffffffffffffffffffffffffffffffff1673ffffffffffffffffffffffffffffffffffffffff16815260200190815260200160002054905081811015611685576040517f08c379a000000000000000000000000000000000000000000000000000000000815260040161167c906133b1565b60405180910390fd5b60008282611693919061330b565b9050806008600087815260200190815260200160002060008673ffffffffffffffffffffffffffffffffffffffff1673ffffffffffffffffffffffffffffffffffffffff16815260200190815260200160002081905550600081141561196a57600060016009600088815260200190815260200160002080549050611718919061330b565b90506000600960008881526020019081526020016000208281548110611741576117406133d1565b5b9060005260206000200160009054906101000a900473ffffffffffffffffffffffffffffffffffffffff1690508073ffffffffffffffffffffffffffffffffffffffff168673ffffffffffffffffffffffffffffffffffffffff16146118bb576000600a600089815260200190815260200160002060008873ffffffffffffffffffffffffffffffffffffffff1673ffffffffffffffffffffffffffffffffffffffff16815260200190815260200160002054905081600960008a8152602001908152602001600020828154811061181c5761181b6133d1565b5b9060005260206000200160006101000a81548173ffffffffffffffffffffffffffffffffffffffff021916908373ffffffffffffffffffffffffffffffffffffffff16021790555080600a60008a815260200190815260200160002060008473ffffffffffffffffffffffffffffffffffffffff1673ffffffffffffffffffffffffffffffffffffffff16815260200190815260200160002081905550505b600a600088815260200190815260200160002060008773ffffffffffffffffffffffffffffffffffffffff1673ffffffffffffffffffffffffffffffffffffffff168152602001908152602001600020600090556009600088815260200190815260200160002080548061193257611931613400565b5b6001900381819060005260206000200160006101000a81549073ffffffffffffffffffffffffffffffffffffffff0219169055905550505b50505b505050565b8173ffffffffffffffffffffffffffffffffffffffff168373ffffffffffffffffffffffffffffffffffffffff1614156119e1576040517f08c379a00000000000000000000000000000000000000000000000000000000081526004016119d89061347b565b60405180910390fd5b80600560008573ffffffffffffffffffffffffffffffffffffffff1673ffffffffffffffffffffffffffffffffffffffff16815260200190815260200160002060008473ffffffffffffffffffffffffffffffffffffffff1673ffffffffffffffffffffffffffffffffffffffff16815260200190815260200160002060006101000a81548160ff0219169083151502179055508173ffffffffffffffffffffffffffffffffffffffff168373ffffffffffffffffffffffffffffffffffffffff167f17307eab39ab6107e8899845ad3d59bd9653f200f220920489ca2b5937696c3183604051611ad29190612351565b60405180910390a3505050565b611aea848484611378565b611af684848484611cb9565b611b35576040517f08c379a0000000000000000000000000000000000000000000000000000000008152600401611b2c9061350d565b60405180910390fd5b50505050565b606060405180602001604052806000815250905090565b6060611b5d8261116d565b611b9c576040517f08c379a0000000000000000000000000000000000000000000000000000000008152600401611b939061359f565b60405180910390fd5b6000611ba6611b3b565b90506000815111611bc65760405180602001604052806000815250611bf1565b80611bd084611e41565b604051602001611be1929190613040565b6040516020818303038152906040525b915050919050565b600081600001549050919050565b611c21828260405180602001604052806000815250611fa2565b5050565b611c2e8261116d565b611c6d576040517f08c379a0000000000000000000000000000000000000000000000000000000008152600401611c6490613631565b60405180910390fd5b80600660008481526020019081526020016000209080519060200190611c949291906121fa565b505050565b6001816000016000828254019250508190555050565b505050565b505050565b6000611cda8473ffffffffffffffffffffffffffffffffffffffff16611ffd565b15611e34578373ffffffffffffffffffffffffffffffffffffffff1663150b7a02611d036111d9565b8786866040518563ffffffff1660e01b8152600401611d2594939291906136a6565b6020604051808303816000875af1925050508015611d6157506040513d601f19601f82011682018060405250810190611d5e9190613707565b60015b611de4573d8060008114611d91576040519150601f19603f3d011682016040523d82523d6000602084013e611d96565b606091505b50600081511415611ddc576040517f08c379a0000000000000000000000000000000000000000000000000000000008152600401611dd39061350d565b60405180910390fd5b805181602001fd5b63150b7a0260e01b7bffffffffffffffffffffffffffffffffffffffffffffffffffffffff1916817bffffffffffffffffffffffffffffffffffffffffffffffffffffffff191614915050611e39565b600190505b949350505050565b60606000821415611e89576040518060400160405280600181526020017f30000000000000000000000000000000000000000000000000000000000000008152509050611f9d565b600082905060005b60008214611ebb578080611ea490613734565b915050600a82611eb491906137ac565b9150611e91565b60008167ffffffffffffffff811115611ed757611ed6612740565b5b6040519080825280601f01601f191660200182016040528015611f095781602001600182028036833780820191505090505b5090505b60008514611f9657600182611f22919061330b565b9150600a85611f3191906137dd565b6030611f3d91906130ff565b60f81b818381518110611f5357611f526133d1565b5b60200101907effffffffffffffffffffffffffffffffffffffffffffffffffffffffffffff1916908160001a905350600a85611f8f91906137ac565b9450611f0d565b8093505050505b919050565b611fac8383612020565b611fb96000848484611cb9565b611ff8576040517f08c379a0000000000000000000000000000000000000000000000000000000008152600401611fef9061350d565b60405180910390fd5b505050565b6000808273ffffffffffffffffffffffffffffffffffffffff163b119050919050565b600073ffffffffffffffffffffffffffffffffffffffff168273ffffffffffffffffffffffffffffffffffffffff161415612090576040517f08c379a00000000000000000000000000000000000000000000000000000000081526004016120879061385a565b60405180910390fd5b6120998161116d565b156120d9576040517f08c379a00000000000000000000000000000000000000000000000000000000081526004016120d0906138c6565b60405180910390fd5b6120e560008383611caf565b6001600360008473ffffffffffffffffffffffffffffffffffffffff1673ffffffffffffffffffffffffffffffffffffffff168152602001908152602001600020600082825461213591906130ff565b92505081905550816002600083815260200190815260200160002060006101000a81548173ffffffffffffffffffffffffffffffffffffffff021916908373ffffffffffffffffffffffffffffffffffffffff160217905550808273ffffffffffffffffffffffffffffffffffffffff16600073ffffffffffffffffffffffffffffffffffffffff167fddf252ad1be2c89b69c2b068fc378daa952ba7f163c4a11628f55a4df523b3ef60405160405180910390a46121f660008383611cb4565b5050565b82805461220690612a5a565b90600052602060002090601f016020900481019282612228576000855561226f565b82601f1061224157805160ff191683800117855561226f565b8280016001018555821561226f579182015b8281111561226e578251825591602001919060010190612253565b5b50905061227c9190612280565b5090565b5b80821115612299576000816000905550600101612281565b5090565b6000604051905090565b600080fd5b600080fd5b60007fffffffff0000000000000000000000000000000000000000000000000000000082169050919050565b6122e6816122b1565b81146122f157600080fd5b50565b600081359050612303816122dd565b92915050565b60006020828403121561231f5761231e6122a7565b5b600061232d848285016122f4565b91505092915050565b60008115159050919050565b61234b81612336565b82525050565b60006020820190506123666000830184612342565b92915050565b600081519050919050565b600082825260208201905092915050565b60005b838110156123a657808201518184015260208101905061238b565b838111156123b5576000848401525b50505050565b6000601f19601f8301169050919050565b60006123d78261236c565b6123e18185612377565b93506123f1818560208601612388565b6123fa816123bb565b840191505092915050565b6000602082019050818103600083015261241f81846123cc565b905092915050565b600073ffffffffffffffffffffffffffffffffffffffff82169050919050565b600061245282612427565b9050919050565b61246281612447565b811461246d57600080fd5b50565b60008135905061247f81612459565b92915050565b6000819050919050565b61249881612485565b81146124a357600080fd5b50565b6000813590506124b58161248f565b92915050565b600080600080608085870312156124d5576124d46122a7565b5b60006124e387828801612470565b94505060206124f4878288016124a6565b935050604061250587828801612470565b9250506060612516878288016124a6565b91505092959194509250565b600060208284031215612538576125376122a7565b5b6000612546848285016124a6565b91505092915050565b61255881612447565b82525050565b6000602082019050612573600083018461254f565b92915050565b600080604083850312156125905761258f6122a7565b5b600061259e85828601612470565b92505060206125af858286016124a6565b9150509250929050565b6000806000606084860312156125d2576125d16122a7565b5b60006125e086828701612470565b93505060206125f186828701612470565b9250506040612602868287016124a6565b9150509250925092565b600060208284031215612622576126216122a7565b5b600061263084828501612470565b91505092915050565b61264281612485565b82525050565b600060208201905061265d6000830184612639565b92915050565b6000806000806080858703121561267d5761267c6122a7565b5b600061268b878288016124a6565b945050602061269c87828801612470565b93505060406126ad87828801612470565b92505060606126be878288016124a6565b91505092959194509250565b6126d381612336565b81146126de57600080fd5b50565b6000813590506126f0816126ca565b92915050565b6000806040838503121561270d5761270c6122a7565b5b600061271b85828601612470565b925050602061272c858286016126e1565b9150509250929050565b600080fd5b600080fd5b7f4e487b7100000000000000000000000000000000000000000000000000000000600052604160045260246000fd5b612778826123bb565b810181811067ffffffffffffffff8211171561279757612796612740565b5b80604052505050565b60006127aa61229d565b90506127b6828261276f565b919050565b600067ffffffffffffffff8211156127d6576127d5612740565b5b6127df826123bb565b9050602081019050919050565b82818337600083830152505050565b600061280e612809846127bb565b6127a0565b90508281526020810184848401111561282a5761282961273b565b5b6128358482856127ec565b509392505050565b600082601f83011261285257612851612736565b5b81356128628482602086016127fb565b91505092915050565b60008060008060808587031215612885576128846122a7565b5b600061289387828801612470565b94505060206128a487828801612470565b93505060406128b5878288016124a6565b925050606085013567ffffffffffffffff8111156128d6576128d56122ac565b5b6128e28782880161283d565b91505092959194509250565b60008060408385031215612905576129046122a7565b5b600061291385828601612470565b925050602061292485828601612470565b9150509250929050565b600067ffffffffffffffff82111561294957612948612740565b5b612952826123bb565b9050602081019050919050565b600061297261296d8461292e565b6127a0565b90508281526020810184848401111561298e5761298d61273b565b5b6129998482856127ec565b509392505050565b600082601f8301126129b6576129b5612736565b5b81356129c684826020860161295f565b91505092915050565b600080604083850312156129e6576129e56122a7565b5b60006129f485828601612470565b925050602083013567ffffffffffffffff811115612a1557612a146122ac565b5b612a21858286016129a1565b9150509250929050565b7f4e487b7100000000000000000000000000000000000000000000000000000000600052602260045260246000fd5b60006002820490506001821680612a7257607f821691505b60208210811415612a8657612a85612a2b565b5b50919050565b7f6e6f7420616c6c6f77656420746f206765744552433230000000000000000000600082015250565b6000612ac2601783612377565b9150612acd82612a8c565b602082019050919050565b60006020820190508181036000830152612af181612ab5565b9050919050565b6000606082019050612b0d600083018661254f565b612b1a602083018561254f565b612b276040830184612639565b949350505050565b600081519050612b3e816126ca565b92915050565b600060208284031215612b5a57612b596122a7565b5b6000612b6884828501612b2f565b91505092915050565b7f4552433230207472616e73666572206661696c65642e00000000000000000000600082015250565b6000612ba7601683612377565b9150612bb282612b71565b602082019050919050565b60006020820190508181036000830152612bd681612b9a565b9050919050565b7f4552433732313a20617070726f76656420717565727920666f72206e6f6e657860008201527f697374656e7420746f6b656e0000000000000000000000000000000000000000602082015250565b6000612c39602c83612377565b9150612c4482612bdd565b604082019050919050565b60006020820190508181036000830152612c6881612c2c565b9050919050565b7f4552433732313a20617070726f76616c20746f2063757272656e74206f776e6560008201527f7200000000000000000000000000000000000000000000000000000000000000602082015250565b6000612ccb602183612377565b9150612cd682612c6f565b604082019050919050565b60006020820190508181036000830152612cfa81612cbe565b9050919050565b7f4552433732313a20617070726f76652063616c6c6572206973206e6f74206f7760008201527f6e6572206e6f7220617070726f76656420666f7220616c6c0000000000000000602082015250565b6000612d5d603883612377565b9150612d6882612d01565b604082019050919050565b60006020820190508181036000830152612d8c81612d50565b9050919050565b7f4552433732313a207472616e736665722063616c6c6572206973206e6f74206f60008201527f776e6572206e6f7220617070726f766564000000000000000000000000000000602082015250565b6000612def603183612377565b9150612dfa82612d93565b604082019050919050565b60006020820190508181036000830152612e1e81612de2565b9050919050565b7f4552433732313a206f776e657220717565727920666f72206e6f6e657869737460008201527f656e7420746f6b656e0000000000000000000000000000000000000000000000602082015250565b6000612e81602983612377565b9150612e8c82612e25565b604082019050919050565b60006020820190508181036000830152612eb081612e74565b9050919050565b7f4552433732313a2062616c616e636520717565727920666f7220746865207a6560008201527f726f206164647265737300000000000000000000000000000000000000000000602082015250565b6000612f13602a83612377565b9150612f1e82612eb7565b604082019050919050565b60006020820190508181036000830152612f4281612f06565b9050919050565b6000604082019050612f5e600083018561254f565b612f6b6020830184612639565b9392505050565b7f45524337323155524953746f726167653a2055524920717565727920666f722060008201527f6e6f6e6578697374656e7420746f6b656e000000000000000000000000000000602082015250565b6000612fce603183612377565b9150612fd982612f72565b604082019050919050565b60006020820190508181036000830152612ffd81612fc1565b9050919050565b600081905092915050565b600061301a8261236c565b6130248185613004565b9350613034818560208601612388565b80840191505092915050565b600061304c828561300f565b9150613058828461300f565b91508190509392505050565b7f5f746f6b656e496420646f6573206e6f742065786973742e0000000000000000600082015250565b600061309a601883612377565b91506130a582613064565b602082019050919050565b600060208201905081810360008301526130c98161308d565b9050919050565b7f4e487b7100000000000000000000000000000000000000000000000000000000600052601160045260246000fd5b600061310a82612485565b915061311583612485565b9250827fffffffffffffffffffffffffffffffffffffffffffffffffffffffffffffffff0382111561314a576131496130d0565b5b828201905092915050565b7f4552433732313a206f70657261746f7220717565727920666f72206e6f6e657860008201527f697374656e7420746f6b656e0000000000000000000000000000000000000000602082015250565b60006131b1602c83612377565b91506131bc82613155565b604082019050919050565b600060208201905081810360008301526131e0816131a4565b9050919050565b7f4552433732313a207472616e736665722066726f6d20696e636f72726563742060008201527f6f776e6572000000000000000000000000000000000000000000000000000000602082015250565b6000613243602583612377565b915061324e826131e7565b604082019050919050565b6000602082019050818103600083015261327281613236565b9050919050565b7f4552433732313a207472616e7366657220746f20746865207a65726f2061646460008201527f7265737300000000000000000000000000000000000000000000000000000000602082015250565b60006132d5602483612377565b91506132e082613279565b604082019050919050565b60006020820190508181036000830152613304816132c8565b9050919050565b600061331682612485565b915061332183612485565b925082821015613334576133336130d0565b5b828203905092915050565b7f4e6f7420656e6f75676820746f6b656e20617661696c61626c6520746f20747260008201527f616e736665722e00000000000000000000000000000000000000000000000000602082015250565b600061339b602783612377565b91506133a68261333f565b604082019050919050565b600060208201905081810360008301526133ca8161338e565b9050919050565b7f4e487b7100000000000000000000000000000000000000000000000000000000600052603260045260246000fd5b7f4e487b7100000000000000000000000000000000000000000000000000000000600052603160045260246000fd5b7f4552433732313a20617070726f766520746f2063616c6c657200000000000000600082015250565b6000613465601983612377565b91506134708261342f565b602082019050919050565b6000602082019050818103600083015261349481613458565b9050919050565b7f4552433732313a207472616e7366657220746f206e6f6e20455243373231526560008201527f63656976657220696d706c656d656e7465720000000000000000000000000000602082015250565b60006134f7603283612377565b91506135028261349b565b604082019050919050565b60006020820190508181036000830152613526816134ea565b9050919050565b7f4552433732314d657461646174613a2055524920717565727920666f72206e6f60008201527f6e6578697374656e7420746f6b656e0000000000000000000000000000000000602082015250565b6000613589602f83612377565b91506135948261352d565b604082019050919050565b600060208201905081810360008301526135b88161357c565b9050919050565b7f45524337323155524953746f726167653a2055524920736574206f66206e6f6e60008201527f6578697374656e7420746f6b656e000000000000000000000000000000000000602082015250565b600061361b602e83612377565b9150613626826135bf565b604082019050919050565b6000602082019050818103600083015261364a8161360e565b9050919050565b600081519050919050565b600082825260208201905092915050565b600061367882613651565b613682818561365c565b9350613692818560208601612388565b61369b816123bb565b840191505092915050565b60006080820190506136bb600083018761254f565b6136c8602083018661254f565b6136d56040830185612639565b81810360608301526136e7818461366d565b905095945050505050565b600081519050613701816122dd565b92915050565b60006020828403121561371d5761371c6122a7565b5b600061372b848285016136f2565b91505092915050565b600061373f82612485565b91507fffffffffffffffffffffffffffffffffffffffffffffffffffffffffffffffff821415613772576137716130d0565b5b600182019050919050565b7f4e487b7100000000000000000000000000000000000000000000000000000000600052601260045260246000fd5b60006137b782612485565b91506137c283612485565b9250826137d2576137d161377d565b5b828204905092915050565b60006137e882612485565b91506137f383612485565b9250826138035761380261377d565b5b828206905092915050565b7f4552433732313a206d696e7420746f20746865207a65726f2061646472657373600082015250565b6000613844602083612377565b915061384f8261380e565b602082019050919050565b6000602082019050818103600083015261387381613837565b9050919050565b7f4552433732313a20746f6b656e20616c7265616479206d696e74656400000000600082015250565b60006138b0601c83612377565b91506138bb8261387a565b602082019050919050565b600060208201905081810360008301526138df816138a3565b905091905056fea264697066735822122089ae4896078181d09f84c8fd9bddaf600c38610dab56408e6af094e89dde2e5564736f6c634300080b0033",
  "immutableReferences": {},
  "source": "// SPDX-License-Identifier: MIT\npragma solidity >=0.4.22 <0.9.0;\n\nimport \"./IERC20.sol\";\nimport \"@openzeppelin/contracts/token/ERC721/extensions/ERC721URIStorage.sol\";\nimport \"@openzeppelin/contracts/utils/Counters.sol\";\n\ncontract piNFT is ERC721URIStorage{\n\n    using Counters for Counters.Counter;\n    Counters.Counter private _tokenIdCounter;\n\n    // tokenId => (token contract => balance)\n    mapping(uint256 => mapping(address => uint256)) erc20Balances;\n\n    // tokenId => token contract\n    mapping(uint256 => address[]) erc20Contracts;\n\n    // tokenId => (token contract => token contract index)\n    mapping(uint256 => mapping(address => uint256)) erc20ContractIndex;\n\n    constructor(string memory _name, string memory _symbol) ERC721(_name, _symbol) {}\n\n    event ReceivedERC20(address indexed _from, uint256 indexed _tokenId, address indexed _erc20Contract, uint256 _value);\n    event TransferERC20(uint256 indexed _tokenId, address indexed _to, address indexed _erc20Contract, uint256 _value);\n\n    function mintNFT(address _to, string memory _uri) public returns (uint256) {\n        uint256 tokenId_ = _tokenIdCounter.current();\n        _safeMint(_to, tokenId_);\n        _setTokenURI(tokenId_, _uri);\n        _tokenIdCounter.increment();\n        return tokenId_;\n    }\n\n    // this function requires approval of tokens by _erc20Contract\n    function getERC20(address _from, uint256 _tokenId, address _erc20Contract, uint256 _value) public {\n        require(_from == msg.sender, \"not allowed to getERC20\");\n        erc20Received(_from, _tokenId, _erc20Contract, _value);\n        require(IERC20(_erc20Contract).transferFrom(_from, address(this), _value), \"ERC20 transfer failed.\");\n    }\n\n    function erc20Received(address _from, uint256 _tokenId, address _erc20Contract, uint256 _value) private {\n        require(ERC721.ownerOf(_tokenId) != address(0), \"_tokenId does not exist.\");\n        if (_value == 0) {\n            return;\n        }\n        uint256 erc20Balance = erc20Balances[_tokenId][_erc20Contract];\n        if (erc20Balance == 0) {\n            erc20ContractIndex[_tokenId][_erc20Contract] = erc20Contracts[_tokenId].length;\n            erc20Contracts[_tokenId].push(_erc20Contract);\n        }\n        erc20Balances[_tokenId][_erc20Contract] += _value;\n        emit ReceivedERC20(_from, _tokenId, _erc20Contract, _value);\n    }\n\n    function transferERC20(uint256 _tokenId, address _to, address _erc20Contract, uint256 _value) external {\n        require(_to != address(0));\n        address rootOwner = ERC721.ownerOf(_tokenId);\n        require(rootOwner == msg.sender);\n        removeERC20(_tokenId, _erc20Contract, _value);\n        require(IERC20(_erc20Contract).transfer(_to, _value), \"ERC20 transfer failed.\");\n        emit TransferERC20(_tokenId, _to, _erc20Contract, _value);\n    }\n\n    function removeERC20(uint256 _tokenId, address _erc20Contract, uint256 _value) private {\n        if (_value == 0) {\n            return;\n        }\n        uint256 erc20Balance = erc20Balances[_tokenId][_erc20Contract];\n        require(erc20Balance >= _value, \"Not enough token available to transfer.\");\n        uint256 newERC20Balance = erc20Balance - _value;\n        erc20Balances[_tokenId][_erc20Contract] = newERC20Balance;\n        if (newERC20Balance == 0) {\n            uint256 lastContractIndex = erc20Contracts[_tokenId].length - 1;\n            address lastContract = erc20Contracts[_tokenId][lastContractIndex];\n            if (_erc20Contract != lastContract) {\n                uint256 contractIndex = erc20ContractIndex[_tokenId][_erc20Contract];\n                erc20Contracts[_tokenId][contractIndex] = lastContract;\n                erc20ContractIndex[_tokenId][lastContract] = contractIndex;\n            }\n            delete erc20ContractIndex[_tokenId][_erc20Contract];\n            erc20Contracts[_tokenId].pop();\n\n        }\n    }\n\n\n\n    // function viewChildNFT(uint256 _piId) public view returns (uint256) {\n    //     return piIdToChildTokenId[_piId];\n    // }\n}",
  "sourcePath": "/Users/parv/Desktop/Pandora/piNFTOfficial/aconomy-contract/contracts/piNFT.sol",
  "compiler": {
    "name": "solc",
    "version": "0.8.11+commit.d7f03943.Emscripten.clang"
  },
  "schemaVersion": "3.4.4",
  "updatedAt": "2022-06-27T09:11:31.594Z",
  "devdoc": {
    "kind": "dev",
    "methods": {
      "approve(address,uint256)": {
        "details": "See {IERC721-approve}."
      },
      "balanceOf(address)": {
        "details": "See {IERC721-balanceOf}."
      },
      "getApproved(uint256)": {
        "details": "See {IERC721-getApproved}."
      },
      "isApprovedForAll(address,address)": {
        "details": "See {IERC721-isApprovedForAll}."
      },
      "name()": {
        "details": "See {IERC721Metadata-name}."
      },
      "ownerOf(uint256)": {
        "details": "See {IERC721-ownerOf}."
      },
      "safeTransferFrom(address,address,uint256)": {
        "details": "See {IERC721-safeTransferFrom}."
      },
      "safeTransferFrom(address,address,uint256,bytes)": {
        "details": "See {IERC721-safeTransferFrom}."
      },
      "setApprovalForAll(address,bool)": {
        "details": "See {IERC721-setApprovalForAll}."
      },
      "supportsInterface(bytes4)": {
        "details": "See {IERC165-supportsInterface}."
      },
      "symbol()": {
        "details": "See {IERC721Metadata-symbol}."
      },
      "tokenURI(uint256)": {
        "details": "See {IERC721Metadata-tokenURI}."
      },
      "transferFrom(address,address,uint256)": {
        "details": "See {IERC721-transferFrom}."
      }
    },
    "version": 1
  },
  "userdoc": {
    "kind": "user",
    "methods": {},
    "version": 1
  }
}