{
  "contractName": "piNFT",
  "abi": [
    {
      "inputs": [
        {
          "internalType": "string",
          "name": "_name",
          "type": "string"
        },
        {
          "internalType": "string",
          "name": "_symbol",
          "type": "string"
        }
      ],
      "stateMutability": "nonpayable",
      "type": "constructor"
    },
    {
      "anonymous": false,
      "inputs": [
        {
          "indexed": true,
          "internalType": "address",
          "name": "owner",
          "type": "address"
        },
        {
          "indexed": true,
          "internalType": "address",
          "name": "approved",
          "type": "address"
        },
        {
          "indexed": true,
          "internalType": "uint256",
          "name": "tokenId",
          "type": "uint256"
        }
      ],
      "name": "Approval",
      "type": "event"
    },
    {
      "anonymous": false,
      "inputs": [
        {
          "indexed": true,
          "internalType": "address",
          "name": "owner",
          "type": "address"
        },
        {
          "indexed": true,
          "internalType": "address",
          "name": "operator",
          "type": "address"
        },
        {
          "indexed": false,
          "internalType": "bool",
          "name": "approved",
          "type": "bool"
        }
      ],
      "name": "ApprovalForAll",
      "type": "event"
    },
    {
      "anonymous": false,
      "inputs": [
        {
          "indexed": true,
          "internalType": "address",
          "name": "_from",
          "type": "address"
        },
        {
          "indexed": true,
          "internalType": "uint256",
          "name": "_tokenId",
          "type": "uint256"
        },
        {
          "indexed": true,
          "internalType": "address",
          "name": "_erc20Contract",
          "type": "address"
        },
        {
          "indexed": false,
          "internalType": "uint256",
          "name": "_value",
          "type": "uint256"
        }
      ],
      "name": "ReceivedERC20",
      "type": "event"
    },
    {
      "anonymous": false,
      "inputs": [
        {
          "indexed": true,
          "internalType": "uint256",
          "name": "tokenId",
          "type": "uint256"
        },
        {
          "components": [
            {
              "internalType": "address payable",
              "name": "account",
              "type": "address"
            },
            {
              "internalType": "uint96",
              "name": "value",
              "type": "uint96"
            }
          ],
          "indexed": true,
          "internalType": "struct LibShare.Share[]",
          "name": "royalties",
          "type": "tuple[]"
        }
      ],
      "name": "RoyaltiesSetForTokenId",
      "type": "event"
    },
    {
      "anonymous": false,
      "inputs": [
        {
          "indexed": true,
          "internalType": "address",
          "name": "from",
          "type": "address"
        },
        {
          "indexed": true,
          "internalType": "address",
          "name": "to",
          "type": "address"
        },
        {
          "indexed": true,
          "internalType": "uint256",
          "name": "tokenId",
          "type": "uint256"
        }
      ],
      "name": "Transfer",
      "type": "event"
    },
    {
      "anonymous": false,
      "inputs": [
        {
          "indexed": true,
          "internalType": "uint256",
          "name": "_tokenId",
          "type": "uint256"
        },
        {
          "indexed": true,
          "internalType": "address",
          "name": "_to",
          "type": "address"
        },
        {
          "indexed": true,
          "internalType": "address",
          "name": "_erc20Contract",
          "type": "address"
        },
        {
          "indexed": false,
          "internalType": "uint256",
          "name": "_value",
          "type": "uint256"
        }
      ],
      "name": "TransferERC20",
      "type": "event"
    },
    {
      "inputs": [
        {
          "internalType": "address",
          "name": "to",
          "type": "address"
        },
        {
          "internalType": "uint256",
          "name": "tokenId",
          "type": "uint256"
        }
      ],
      "name": "approve",
      "outputs": [],
      "stateMutability": "nonpayable",
      "type": "function"
    },
    {
      "inputs": [
        {
          "internalType": "address",
          "name": "owner",
          "type": "address"
        }
      ],
      "name": "balanceOf",
      "outputs": [
        {
          "internalType": "uint256",
          "name": "",
          "type": "uint256"
        }
      ],
      "stateMutability": "view",
      "type": "function"
    },
    {
      "inputs": [
        {
          "internalType": "uint256",
          "name": "tokenId",
          "type": "uint256"
        }
      ],
      "name": "getApproved",
      "outputs": [
        {
          "internalType": "address",
          "name": "",
          "type": "address"
        }
      ],
      "stateMutability": "view",
      "type": "function"
    },
    {
      "inputs": [
        {
          "internalType": "address",
          "name": "owner",
          "type": "address"
        },
        {
          "internalType": "address",
          "name": "operator",
          "type": "address"
        }
      ],
      "name": "isApprovedForAll",
      "outputs": [
        {
          "internalType": "bool",
          "name": "",
          "type": "bool"
        }
      ],
      "stateMutability": "view",
      "type": "function"
    },
    {
      "inputs": [],
      "name": "name",
      "outputs": [
        {
          "internalType": "string",
          "name": "",
          "type": "string"
        }
      ],
      "stateMutability": "view",
      "type": "function"
    },
    {
      "inputs": [
        {
          "internalType": "uint256",
          "name": "tokenId",
          "type": "uint256"
        }
      ],
      "name": "ownerOf",
      "outputs": [
        {
          "internalType": "address",
          "name": "",
          "type": "address"
        }
      ],
      "stateMutability": "view",
      "type": "function"
    },
    {
      "inputs": [
        {
          "internalType": "uint256",
          "name": "",
          "type": "uint256"
        },
        {
          "internalType": "uint256",
          "name": "",
          "type": "uint256"
        }
      ],
      "name": "royaltiesByTokenId",
      "outputs": [
        {
          "internalType": "address payable",
          "name": "account",
          "type": "address"
        },
        {
          "internalType": "uint96",
          "name": "value",
          "type": "uint96"
        }
      ],
      "stateMutability": "view",
      "type": "function"
    },
    {
      "inputs": [
        {
          "internalType": "address",
          "name": "from",
          "type": "address"
        },
        {
          "internalType": "address",
          "name": "to",
          "type": "address"
        },
        {
          "internalType": "uint256",
          "name": "tokenId",
          "type": "uint256"
        }
      ],
      "name": "safeTransferFrom",
      "outputs": [],
      "stateMutability": "nonpayable",
      "type": "function"
    },
    {
      "inputs": [
        {
          "internalType": "address",
          "name": "from",
          "type": "address"
        },
        {
          "internalType": "address",
          "name": "to",
          "type": "address"
        },
        {
          "internalType": "uint256",
          "name": "tokenId",
          "type": "uint256"
        },
        {
          "internalType": "bytes",
          "name": "data",
          "type": "bytes"
        }
      ],
      "name": "safeTransferFrom",
      "outputs": [],
      "stateMutability": "nonpayable",
      "type": "function"
    },
    {
      "inputs": [
        {
          "internalType": "address",
          "name": "operator",
          "type": "address"
        },
        {
          "internalType": "bool",
          "name": "approved",
          "type": "bool"
        }
      ],
      "name": "setApprovalForAll",
      "outputs": [],
      "stateMutability": "nonpayable",
      "type": "function"
    },
    {
      "inputs": [
        {
          "internalType": "bytes4",
          "name": "interfaceId",
          "type": "bytes4"
        }
      ],
      "name": "supportsInterface",
      "outputs": [
        {
          "internalType": "bool",
          "name": "",
          "type": "bool"
        }
      ],
      "stateMutability": "view",
      "type": "function"
    },
    {
      "inputs": [],
      "name": "symbol",
      "outputs": [
        {
          "internalType": "string",
          "name": "",
          "type": "string"
        }
      ],
      "stateMutability": "view",
      "type": "function"
    },
    {
      "inputs": [
        {
          "internalType": "uint256",
          "name": "tokenId",
          "type": "uint256"
        }
      ],
      "name": "tokenURI",
      "outputs": [
        {
          "internalType": "string",
          "name": "",
          "type": "string"
        }
      ],
      "stateMutability": "view",
      "type": "function"
    },
    {
      "inputs": [
        {
          "internalType": "address",
          "name": "from",
          "type": "address"
        },
        {
          "internalType": "address",
          "name": "to",
          "type": "address"
        },
        {
          "internalType": "uint256",
          "name": "tokenId",
          "type": "uint256"
        }
      ],
      "name": "transferFrom",
      "outputs": [],
      "stateMutability": "nonpayable",
      "type": "function"
    },
    {
      "inputs": [
        {
          "internalType": "address",
          "name": "_to",
          "type": "address"
        },
        {
          "internalType": "string",
          "name": "_uri",
          "type": "string"
        },
        {
          "components": [
            {
              "internalType": "address payable",
              "name": "account",
              "type": "address"
            },
            {
              "internalType": "uint96",
              "name": "value",
              "type": "uint96"
            }
          ],
          "internalType": "struct LibShare.Share[]",
          "name": "royalties",
          "type": "tuple[]"
        }
      ],
      "name": "mintNFT",
      "outputs": [
        {
          "internalType": "uint256",
          "name": "",
          "type": "uint256"
        }
      ],
      "stateMutability": "nonpayable",
      "type": "function"
    },
    {
      "inputs": [
        {
          "internalType": "uint256",
          "name": "_tokenId",
          "type": "uint256"
        }
      ],
      "name": "getRoyalties",
      "outputs": [
        {
          "components": [
            {
              "internalType": "address payable",
              "name": "account",
              "type": "address"
            },
            {
              "internalType": "uint96",
              "name": "value",
              "type": "uint96"
            }
          ],
          "internalType": "struct LibShare.Share[]",
          "name": "",
          "type": "tuple[]"
        }
      ],
      "stateMutability": "view",
      "type": "function"
    },
    {
      "inputs": [
        {
          "internalType": "address",
          "name": "_from",
          "type": "address"
        },
        {
          "internalType": "uint256",
          "name": "_tokenId",
          "type": "uint256"
        },
        {
          "internalType": "address",
          "name": "_erc20Contract",
          "type": "address"
        },
        {
          "internalType": "uint256",
          "name": "_value",
          "type": "uint256"
        }
      ],
      "name": "addERC20",
      "outputs": [],
      "stateMutability": "nonpayable",
      "type": "function"
    },
    {
      "inputs": [
        {
          "internalType": "uint256",
          "name": "_tokenId",
          "type": "uint256"
        },
        {
          "internalType": "address",
          "name": "_nftReciever",
          "type": "address"
        },
        {
          "internalType": "address",
          "name": "_validatorAddress",
          "type": "address"
        },
        {
          "internalType": "address",
          "name": "_erc20Contract",
          "type": "address"
        },
        {
          "internalType": "uint256",
          "name": "_value",
          "type": "uint256"
        }
      ],
      "name": "redeemPiNFT",
      "outputs": [],
      "stateMutability": "nonpayable",
      "type": "function"
    },
    {
      "inputs": [
        {
          "internalType": "uint256",
          "name": "_tokenId",
          "type": "uint256"
        },
        {
          "internalType": "address",
          "name": "_nftReciever",
          "type": "address"
        },
        {
          "internalType": "address",
          "name": "_erc20Reciever",
          "type": "address"
        },
        {
          "internalType": "address",
          "name": "_erc20Contract",
          "type": "address"
        },
        {
          "internalType": "uint256",
          "name": "_value",
          "type": "uint256"
        }
      ],
      "name": "burnPiNFT",
      "outputs": [],
      "stateMutability": "nonpayable",
      "type": "function"
    },
    {
      "inputs": [
        {
          "internalType": "uint256",
          "name": "_tokenId",
          "type": "uint256"
        },
        {
          "internalType": "address",
          "name": "_erc20Address",
          "type": "address"
        }
      ],
      "name": "viewBalance",
      "outputs": [
        {
          "internalType": "uint256",
          "name": "",
          "type": "uint256"
        }
      ],
      "stateMutability": "view",
      "type": "function"
    }
  ],
  "bytecode": "0x60806040523480156200001157600080fd5b5060405162004ad738038062004ad78339818101604052810190620000379190620002c2565b818181600090805190602001906200005192919062000075565b5080600190805190602001906200006a92919062000075565b5050505050620003ac565b828054620000839062000376565b90600052602060002090601f016020900481019282620000a75760008555620000f3565b82601f10620000c257805160ff1916838001178555620000f3565b82800160010185558215620000f3579182015b82811115620000f2578251825591602001919060010190620000d5565b5b50905062000102919062000106565b5090565b5b808211156200012157600081600090555060010162000107565b5090565b6000604051905090565b600080fd5b600080fd5b600080fd5b600080fd5b6000601f19601f8301169050919050565b7f4e487b7100000000000000000000000000000000000000000000000000000000600052604160045260246000fd5b6200018e8262000143565b810181811067ffffffffffffffff82111715620001b057620001af62000154565b5b80604052505050565b6000620001c562000125565b9050620001d3828262000183565b919050565b600067ffffffffffffffff821115620001f657620001f562000154565b5b620002018262000143565b9050602081019050919050565b60005b838110156200022e57808201518184015260208101905062000211565b838111156200023e576000848401525b50505050565b60006200025b6200025584620001d8565b620001b9565b9050828152602081018484840111156200027a57620002796200013e565b5b620002878482856200020e565b509392505050565b600082601f830112620002a757620002a662000139565b5b8151620002b984826020860162000244565b91505092915050565b60008060408385031215620002dc57620002db6200012f565b5b600083015167ffffffffffffffff811115620002fd57620002fc62000134565b5b6200030b858286016200028f565b925050602083015167ffffffffffffffff8111156200032f576200032e62000134565b5b6200033d858286016200028f565b9150509250929050565b7f4e487b7100000000000000000000000000000000000000000000000000000000600052602260045260246000fd5b600060028204905060018216806200038f57607f821691505b60208210811415620003a657620003a562000347565b5b50919050565b61471b80620003bc6000396000f3fe608060405234801561001057600080fd5b506004361061012c5760003560e01c8063726bb4cb116100ad578063c87b56dd11610071578063c87b56dd1461033d578063d51f299d1461036d578063e985e9c51461039d578063ee53b6a9146103cd578063fb2ef4a3146103fd5761012c565b8063726bb4cb1461029b57806395d89b41146102b7578063a22cb465146102d5578063b88d4fde146102f1578063bb3bafd61461030d5761012c565b806323b872dd116100f457806323b872dd146101e75780632b32c03b1461020357806342842e0e1461021f5780636352211e1461023b57806370a082311461026b5761012c565b806301ffc9a71461013157806306fdde0314610161578063081812fc1461017f578063095ea7b3146101af57806309d4470c146101cb575b600080fd5b61014b60048036038101906101469190612b16565b61042e565b6040516101589190612b5e565b60405180910390f35b610169610510565b6040516101769190612c12565b60405180910390f35b61019960048036038101906101949190612c6a565b6105a2565b6040516101a69190612cd8565b60405180910390f35b6101c960048036038101906101c49190612d1f565b6105e8565b005b6101e560048036038101906101e09190612d5f565b610700565b005b61020160048036038101906101fc9190612dda565b610806565b005b61021d60048036038101906102189190612e2d565b610866565b005b61023960048036038101906102349190612dda565b6109a5565b005b61025560048036038101906102509190612c6a565b6109c5565b6040516102629190612cd8565b60405180910390f35b61028560048036038101906102809190612e94565b610a77565b6040516102929190612ed0565b60405180910390f35b6102b560048036038101906102b09190612d5f565b610b2f565b005b6102bf610c35565b6040516102cc9190612c12565b60405180910390f35b6102ef60048036038101906102ea9190612f17565b610cc7565b005b61030b6004803603810190610306919061308c565b610cdd565b005b61032760048036038101906103229190612c6a565b610d3f565b6040516103349190613235565b60405180910390f35b61035760048036038101906103529190612c6a565b610e41565b6040516103649190612c12565b60405180910390f35b61038760048036038101906103829190613257565b610f54565b6040516103949190612ed0565b60405180910390f35b6103b760048036038101906103b29190613297565b610faf565b6040516103c49190612b5e565b60405180910390f35b6103e760048036038101906103e291906134ed565b611043565b6040516103f49190612ed0565b60405180910390f35b61041760048036038101906104129190613578565b611085565b6040516104259291906135d6565b60405180910390f35b60007f80ac58cd000000000000000000000000000000000000000000000000000000007bffffffffffffffffffffffffffffffffffffffffffffffffffffffff1916827bffffffffffffffffffffffffffffffffffffffffffffffffffffffff191614806104f957507f5b5e139f000000000000000000000000000000000000000000000000000000007bffffffffffffffffffffffffffffffffffffffffffffffffffffffff1916827bffffffffffffffffffffffffffffffffffffffffffffffffffffffff1916145b806105095750610508826110fa565b5b9050919050565b60606000805461051f9061362e565b80601f016020809104026020016040519081016040528092919081815260200182805461054b9061362e565b80156105985780601f1061056d57610100808354040283529160200191610598565b820191906000526020600020905b81548152906001019060200180831161057b57829003601f168201915b5050505050905090565b60006105ad82611164565b6004600083815260200190815260200160002060009054906101000a900473ffffffffffffffffffffffffffffffffffffffff169050919050565b60006105f3826109c5565b90508073ffffffffffffffffffffffffffffffffffffffff168373ffffffffffffffffffffffffffffffffffffffff161415610664576040517f08c379a000000000000000000000000000000000000000000000000000000000815260040161065b906136d2565b60405180910390fd5b8073ffffffffffffffffffffffffffffffffffffffff166106836111af565b73ffffffffffffffffffffffffffffffffffffffff1614806106b257506106b1816106ac6111af565b610faf565b5b6106f1576040517f08c379a00000000000000000000000000000000000000000000000000000000081526004016106e890613764565b60405180910390fd5b6106fb83836111b7565b505050565b8461070a816109c5565b73ffffffffffffffffffffffffffffffffffffffff163373ffffffffffffffffffffffffffffffffffffffff1614610777576040517f08c379a000000000000000000000000000000000000000000000000000000000815260040161076e906137d0565b60405180910390fd5b600073ffffffffffffffffffffffffffffffffffffffff168573ffffffffffffffffffffffffffffffffffffffff1614156107e7576040517f08c379a00000000000000000000000000000000000000000000000000000000081526004016107de9061383c565b60405180910390fd5b6107f386858585611270565b6107fe3386886109a5565b505050505050565b6108176108116111af565b82611490565b610856576040517f08c379a000000000000000000000000000000000000000000000000000000000815260040161084d906138ce565b60405180910390fd5b610861838383611525565b505050565b3373ffffffffffffffffffffffffffffffffffffffff168473ffffffffffffffffffffffffffffffffffffffff16146108d4576040517f08c379a00000000000000000000000000000000000000000000000000000000081526004016108cb9061393a565b60405180910390fd5b6108e08484848461178c565b8173ffffffffffffffffffffffffffffffffffffffff166323b872dd8530846040518463ffffffff1660e01b815260040161091d9392919061395a565b6020604051808303816000875af115801561093c573d6000803e3d6000fd5b505050506040513d601f19601f8201168201806040525081019061096091906139a6565b61099f576040517f08c379a000000000000000000000000000000000000000000000000000000000815260040161099690613a1f565b60405180910390fd5b50505050565b6109c083838360405180602001604052806000815250610cdd565b505050565b6000806002600084815260200190815260200160002060009054906101000a900473ffffffffffffffffffffffffffffffffffffffff169050600073ffffffffffffffffffffffffffffffffffffffff168173ffffffffffffffffffffffffffffffffffffffff161415610a6e576040517f08c379a0000000000000000000000000000000000000000000000000000000008152600401610a6590613a8b565b60405180910390fd5b80915050919050565b60008073ffffffffffffffffffffffffffffffffffffffff168273ffffffffffffffffffffffffffffffffffffffff161415610ae8576040517f08c379a0000000000000000000000000000000000000000000000000000000008152600401610adf90613b1d565b60405180910390fd5b600360008373ffffffffffffffffffffffffffffffffffffffff1673ffffffffffffffffffffffffffffffffffffffff168152602001908152602001600020549050919050565b84610b39816109c5565b73ffffffffffffffffffffffffffffffffffffffff163373ffffffffffffffffffffffffffffffffffffffff1614610ba6576040517f08c379a0000000000000000000000000000000000000000000000000000000008152600401610b9d906137d0565b60405180910390fd5b600073ffffffffffffffffffffffffffffffffffffffff168573ffffffffffffffffffffffffffffffffffffffff161415610c16576040517f08c379a0000000000000000000000000000000000000000000000000000000008152600401610c0d9061383c565b60405180910390fd5b610c2286858585611270565b610c2d3386886109a5565b505050505050565b606060018054610c449061362e565b80601f0160208091040260200160405190810160405280929190818152602001828054610c709061362e565b8015610cbd5780601f10610c9257610100808354040283529160200191610cbd565b820191906000526020600020905b815481529060010190602001808311610ca057829003601f168201915b5050505050905090565b610cd9610cd26111af565b8383611a25565b5050565b610cee610ce86111af565b83611490565b610d2d576040517f08c379a0000000000000000000000000000000000000000000000000000000008152600401610d24906138ce565b60405180910390fd5b610d3984848484611b92565b50505050565b6060600a6000838152602001908152602001600020805480602002602001604051908101604052809291908181526020016000905b82821015610e36578382906000526020600020016040518060400160405290816000820160009054906101000a900473ffffffffffffffffffffffffffffffffffffffff1673ffffffffffffffffffffffffffffffffffffffff1673ffffffffffffffffffffffffffffffffffffffff1681526020016000820160149054906101000a90046bffffffffffffffffffffffff166bffffffffffffffffffffffff166bffffffffffffffffffffffff168152505081526020019060010190610d74565b505050509050919050565b6060610e4c82611164565b6000600660008481526020019081526020016000208054610e6c9061362e565b80601f0160208091040260200160405190810160405280929190818152602001828054610e989061362e565b8015610ee55780601f10610eba57610100808354040283529160200191610ee5565b820191906000526020600020905b815481529060010190602001808311610ec857829003601f168201915b505050505090506000610ef6611bee565b9050600081511415610f0c578192505050610f4f565b600082511115610f41578082604051602001610f29929190613b79565b60405160208183030381529060405292505050610f4f565b610f4a84611c05565b925050505b919050565b60006008600084815260200190815260200160002060008373ffffffffffffffffffffffffffffffffffffffff1673ffffffffffffffffffffffffffffffffffffffff16815260200190815260200160002054905092915050565b6000600560008473ffffffffffffffffffffffffffffffffffffffff1673ffffffffffffffffffffffffffffffffffffffff16815260200190815260200160002060008373ffffffffffffffffffffffffffffffffffffffff1673ffffffffffffffffffffffffffffffffffffffff16815260200190815260200160002060009054906101000a900460ff16905092915050565b6000806110506007611c6d565b905061105c8184611c7b565b6110668582611f97565b6110708185611fb5565b61107a6007612029565b809150509392505050565b600a60205281600052604060002081815481106110a157600080fd5b90600052602060002001600091509150508060000160009054906101000a900473ffffffffffffffffffffffffffffffffffffffff16908060000160149054906101000a90046bffffffffffffffffffffffff16905082565b60007f01ffc9a7000000000000000000000000000000000000000000000000000000007bffffffffffffffffffffffffffffffffffffffffffffffffffffffff1916827bffffffffffffffffffffffffffffffffffffffffffffffffffffffff1916149050919050565b61116d8161203f565b6111ac576040517f08c379a00000000000000000000000000000000000000000000000000000000081526004016111a390613a8b565b60405180910390fd5b50565b600033905090565b816004600083815260200190815260200160002060006101000a81548173ffffffffffffffffffffffffffffffffffffffff021916908373ffffffffffffffffffffffffffffffffffffffff160217905550808273ffffffffffffffffffffffffffffffffffffffff1661122a836109c5565b73ffffffffffffffffffffffffffffffffffffffff167f8c5be1e5ebec7d5bd14f71427d1e84f3dd0314c0f7b2291e5b200ac8c7c3b92560405160405180910390a45050565b600073ffffffffffffffffffffffffffffffffffffffff168373ffffffffffffffffffffffffffffffffffffffff1614156112e0576040517f08c379a00000000000000000000000000000000000000000000000000000000081526004016112d790613be9565b60405180910390fd5b60006112eb856109c5565b90503373ffffffffffffffffffffffffffffffffffffffff168173ffffffffffffffffffffffffffffffffffffffff161461135b576040517f08c379a000000000000000000000000000000000000000000000000000000000815260040161135290613c55565b60405180910390fd5b6113668584846120ab565b8273ffffffffffffffffffffffffffffffffffffffff1663a9059cbb85846040518363ffffffff1660e01b81526004016113a1929190613c75565b6020604051808303816000875af11580156113c0573d6000803e3d6000fd5b505050506040513d601f19601f820116820180604052508101906113e491906139a6565b611423576040517f08c379a000000000000000000000000000000000000000000000000000000000815260040161141a90613a1f565b60405180910390fd5b8273ffffffffffffffffffffffffffffffffffffffff168473ffffffffffffffffffffffffffffffffffffffff16867fa8352277873fc0d2b233b8127433da351a4164fa701ed6ff79655694222932c4856040516114819190612ed0565b60405180910390a45050505050565b60008061149c836109c5565b90508073ffffffffffffffffffffffffffffffffffffffff168473ffffffffffffffffffffffffffffffffffffffff1614806114de57506114dd8185610faf565b5b8061151c57508373ffffffffffffffffffffffffffffffffffffffff16611504846105a2565b73ffffffffffffffffffffffffffffffffffffffff16145b91505092915050565b8273ffffffffffffffffffffffffffffffffffffffff16611545826109c5565b73ffffffffffffffffffffffffffffffffffffffff161461159b576040517f08c379a000000000000000000000000000000000000000000000000000000000815260040161159290613d10565b60405180910390fd5b600073ffffffffffffffffffffffffffffffffffffffff168273ffffffffffffffffffffffffffffffffffffffff16141561160b576040517f08c379a000000000000000000000000000000000000000000000000000000000815260040161160290613da2565b60405180910390fd5b61161683838361243e565b6116216000826111b7565b6001600360008573ffffffffffffffffffffffffffffffffffffffff1673ffffffffffffffffffffffffffffffffffffffff16815260200190815260200160002060008282546116719190613df1565b925050819055506001600360008473ffffffffffffffffffffffffffffffffffffffff1673ffffffffffffffffffffffffffffffffffffffff16815260200190815260200160002060008282546116c89190613e25565b92505081905550816002600083815260200190815260200160002060006101000a81548173ffffffffffffffffffffffffffffffffffffffff021916908373ffffffffffffffffffffffffffffffffffffffff160217905550808273ffffffffffffffffffffffffffffffffffffffff168473ffffffffffffffffffffffffffffffffffffffff167fddf252ad1be2c89b69c2b068fc378daa952ba7f163c4a11628f55a4df523b3ef60405160405180910390a4611787838383612443565b505050565b600073ffffffffffffffffffffffffffffffffffffffff166117ad846109c5565b73ffffffffffffffffffffffffffffffffffffffff161415611804576040517f08c379a00000000000000000000000000000000000000000000000000000000081526004016117fb90613ec7565b60405180910390fd5b600081141561181257611a1f565b60006008600085815260200190815260200160002060008473ffffffffffffffffffffffffffffffffffffffff1673ffffffffffffffffffffffffffffffffffffffff1681526020019081526020016000205490506000811415611950576009600085815260200190815260200160002080549050600b600086815260200190815260200160002060008573ffffffffffffffffffffffffffffffffffffffff1673ffffffffffffffffffffffffffffffffffffffff1681526020019081526020016000208190555060096000858152602001908152602001600020839080600181540180825580915050600190039060005260206000200160009091909190916101000a81548173ffffffffffffffffffffffffffffffffffffffff021916908373ffffffffffffffffffffffffffffffffffffffff1602179055505b816008600086815260200190815260200160002060008573ffffffffffffffffffffffffffffffffffffffff1673ffffffffffffffffffffffffffffffffffffffff16815260200190815260200160002060008282546119b09190613e25565b925050819055508273ffffffffffffffffffffffffffffffffffffffff16848673ffffffffffffffffffffffffffffffffffffffff167f684ce28ace37552c6bfb98b7cceda8ed55327078eafb5dfb31218e085638276385604051611a159190612ed0565b60405180910390a4505b50505050565b8173ffffffffffffffffffffffffffffffffffffffff168373ffffffffffffffffffffffffffffffffffffffff161415611a94576040517f08c379a0000000000000000000000000000000000000000000000000000000008152600401611a8b90613f33565b60405180910390fd5b80600560008573ffffffffffffffffffffffffffffffffffffffff1673ffffffffffffffffffffffffffffffffffffffff16815260200190815260200160002060008473ffffffffffffffffffffffffffffffffffffffff1673ffffffffffffffffffffffffffffffffffffffff16815260200190815260200160002060006101000a81548160ff0219169083151502179055508173ffffffffffffffffffffffffffffffffffffffff168373ffffffffffffffffffffffffffffffffffffffff167f17307eab39ab6107e8899845ad3d59bd9653f200f220920489ca2b5937696c3183604051611b859190612b5e565b60405180910390a3505050565b611b9d848484611525565b611ba984848484612448565b611be8576040517f08c379a0000000000000000000000000000000000000000000000000000000008152600401611bdf90613fc5565b60405180910390fd5b50505050565b606060405180602001604052806000815250905090565b6060611c1082611164565b6000611c1a611bee565b90506000815111611c3a5760405180602001604052806000815250611c65565b80611c44846125d0565b604051602001611c55929190613b79565b6040516020818303038152906040525b915050919050565b600081600001549050919050565b600a81511115611cc0576040517f08c379a0000000000000000000000000000000000000000000000000000000008152600401611cb790614031565b60405180910390fd5b600a60008381526020019081526020016000206000611cdf9190612989565b6000805b8251811015611f0a57600073ffffffffffffffffffffffffffffffffffffffff16838281518110611d1757611d16614051565b5b60200260200101516000015173ffffffffffffffffffffffffffffffffffffffff161415611d7a576040517f08c379a0000000000000000000000000000000000000000000000000000000008152600401611d71906140f2565b60405180910390fd5b6000838281518110611d8f57611d8e614051565b5b6020026020010151602001516bffffffffffffffffffffffff161415611dea576040517f08c379a0000000000000000000000000000000000000000000000000000000008152600401611de19061415e565b60405180910390fd5b600a6000858152602001908152602001600020838281518110611e1057611e0f614051565b5b60200260200101519080600181540180825580915050600190039060005260206000200160009091909190915060008201518160000160006101000a81548173ffffffffffffffffffffffffffffffffffffffff021916908373ffffffffffffffffffffffffffffffffffffffff16021790555060208201518160000160146101000a8154816bffffffffffffffffffffffff02191690836bffffffffffffffffffffffff1602179055505050828181518110611ed057611ecf614051565b5b6020026020010151602001516bffffffffffffffffffffffff1682611ef59190613e25565b91508080611f029061417e565b915050611ce3565b506127108110611f4f576040517f08c379a0000000000000000000000000000000000000000000000000000000008152600401611f4690614213565b60405180910390fd5b81604051611f5d919061432f565b6040518091039020837fe23425cf56a81561c420f592eb54f21107c562f26c8c78c4a20d26920d244e6660405160405180910390a3505050565b611fb1828260405180602001604052806000815250612731565b5050565b611fbe8261203f565b611ffd576040517f08c379a0000000000000000000000000000000000000000000000000000000008152600401611ff4906143b8565b60405180910390fd5b806006600084815260200190815260200160002090805190602001906120249291906129aa565b505050565b6001816000016000828254019250508190555050565b60008073ffffffffffffffffffffffffffffffffffffffff166002600084815260200190815260200160002060009054906101000a900473ffffffffffffffffffffffffffffffffffffffff1673ffffffffffffffffffffffffffffffffffffffff1614159050919050565b60008114156120b957612439565b60006008600085815260200190815260200160002060008473ffffffffffffffffffffffffffffffffffffffff1673ffffffffffffffffffffffffffffffffffffffff16815260200190815260200160002054905081811015612151576040517f08c379a00000000000000000000000000000000000000000000000000000000081526004016121489061444a565b60405180910390fd5b6000828261215f9190613df1565b9050806008600087815260200190815260200160002060008673ffffffffffffffffffffffffffffffffffffffff1673ffffffffffffffffffffffffffffffffffffffff168152602001908152602001600020819055506000811415612436576000600160096000888152602001908152602001600020805490506121e49190613df1565b9050600060096000888152602001908152602001600020828154811061220d5761220c614051565b5b9060005260206000200160009054906101000a900473ffffffffffffffffffffffffffffffffffffffff1690508073ffffffffffffffffffffffffffffffffffffffff168673ffffffffffffffffffffffffffffffffffffffff1614612387576000600b600089815260200190815260200160002060008873ffffffffffffffffffffffffffffffffffffffff1673ffffffffffffffffffffffffffffffffffffffff16815260200190815260200160002054905081600960008a815260200190815260200160002082815481106122e8576122e7614051565b5b9060005260206000200160006101000a81548173ffffffffffffffffffffffffffffffffffffffff021916908373ffffffffffffffffffffffffffffffffffffffff16021790555080600b60008a815260200190815260200160002060008473ffffffffffffffffffffffffffffffffffffffff1673ffffffffffffffffffffffffffffffffffffffff16815260200190815260200160002081905550505b600b600088815260200190815260200160002060008773ffffffffffffffffffffffffffffffffffffffff1673ffffffffffffffffffffffffffffffffffffffff16815260200190815260200160002060009055600960008881526020019081526020016000208054806123fe576123fd61446a565b5b6001900381819060005260206000200160006101000a81549073ffffffffffffffffffffffffffffffffffffffff0219169055905550505b50505b505050565b505050565b505050565b60006124698473ffffffffffffffffffffffffffffffffffffffff1661278c565b156125c3578373ffffffffffffffffffffffffffffffffffffffff1663150b7a026124926111af565b8786866040518563ffffffff1660e01b81526004016124b494939291906144ee565b6020604051808303816000875af19250505080156124f057506040513d601f19601f820116820180604052508101906124ed919061454f565b60015b612573573d8060008114612520576040519150601f19603f3d011682016040523d82523d6000602084013e612525565b606091505b5060008151141561256b576040517f08c379a000000000000000000000000000000000000000000000000000000000815260040161256290613fc5565b60405180910390fd5b805181602001fd5b63150b7a0260e01b7bffffffffffffffffffffffffffffffffffffffffffffffffffffffff1916817bffffffffffffffffffffffffffffffffffffffffffffffffffffffff1916149150506125c8565b600190505b949350505050565b60606000821415612618576040518060400160405280600181526020017f3000000000000000000000000000000000000000000000000000000000000000815250905061272c565b600082905060005b6000821461264a5780806126339061417e565b915050600a8261264391906145ab565b9150612620565b60008167ffffffffffffffff81111561266657612665612f61565b5b6040519080825280601f01601f1916602001820160405280156126985781602001600182028036833780820191505090505b5090505b60008514612725576001826126b19190613df1565b9150600a856126c091906145dc565b60306126cc9190613e25565b60f81b8183815181106126e2576126e1614051565b5b60200101907effffffffffffffffffffffffffffffffffffffffffffffffffffffffffffff1916908160001a905350600a8561271e91906145ab565b945061269c565b8093505050505b919050565b61273b83836127af565b6127486000848484612448565b612787576040517f08c379a000000000000000000000000000000000000000000000000000000000815260040161277e90613fc5565b60405180910390fd5b505050565b6000808273ffffffffffffffffffffffffffffffffffffffff163b119050919050565b600073ffffffffffffffffffffffffffffffffffffffff168273ffffffffffffffffffffffffffffffffffffffff16141561281f576040517f08c379a000000000000000000000000000000000000000000000000000000000815260040161281690614659565b60405180910390fd5b6128288161203f565b15612868576040517f08c379a000000000000000000000000000000000000000000000000000000000815260040161285f906146c5565b60405180910390fd5b6128746000838361243e565b6001600360008473ffffffffffffffffffffffffffffffffffffffff1673ffffffffffffffffffffffffffffffffffffffff16815260200190815260200160002060008282546128c49190613e25565b92505081905550816002600083815260200190815260200160002060006101000a81548173ffffffffffffffffffffffffffffffffffffffff021916908373ffffffffffffffffffffffffffffffffffffffff160217905550808273ffffffffffffffffffffffffffffffffffffffff16600073ffffffffffffffffffffffffffffffffffffffff167fddf252ad1be2c89b69c2b068fc378daa952ba7f163c4a11628f55a4df523b3ef60405160405180910390a461298560008383612443565b5050565b50805460008255906000526020600020908101906129a79190612a30565b50565b8280546129b69061362e565b90600052602060002090601f0160209004810192826129d85760008555612a1f565b82601f106129f157805160ff1916838001178555612a1f565b82800160010185558215612a1f579182015b82811115612a1e578251825591602001919060010190612a03565b5b509050612a2c9190612a8d565b5090565b5b80821115612a8957600080820160006101000a81549073ffffffffffffffffffffffffffffffffffffffff02191690556000820160146101000a8154906bffffffffffffffffffffffff021916905550600101612a31565b5090565b5b80821115612aa6576000816000905550600101612a8e565b5090565b6000604051905090565b600080fd5b600080fd5b60007fffffffff0000000000000000000000000000000000000000000000000000000082169050919050565b612af381612abe565b8114612afe57600080fd5b50565b600081359050612b1081612aea565b92915050565b600060208284031215612b2c57612b2b612ab4565b5b6000612b3a84828501612b01565b91505092915050565b60008115159050919050565b612b5881612b43565b82525050565b6000602082019050612b736000830184612b4f565b92915050565b600081519050919050565b600082825260208201905092915050565b60005b83811015612bb3578082015181840152602081019050612b98565b83811115612bc2576000848401525b50505050565b6000601f19601f8301169050919050565b6000612be482612b79565b612bee8185612b84565b9350612bfe818560208601612b95565b612c0781612bc8565b840191505092915050565b60006020820190508181036000830152612c2c8184612bd9565b905092915050565b6000819050919050565b612c4781612c34565b8114612c5257600080fd5b50565b600081359050612c6481612c3e565b92915050565b600060208284031215612c8057612c7f612ab4565b5b6000612c8e84828501612c55565b91505092915050565b600073ffffffffffffffffffffffffffffffffffffffff82169050919050565b6000612cc282612c97565b9050919050565b612cd281612cb7565b82525050565b6000602082019050612ced6000830184612cc9565b92915050565b612cfc81612cb7565b8114612d0757600080fd5b50565b600081359050612d1981612cf3565b92915050565b60008060408385031215612d3657612d35612ab4565b5b6000612d4485828601612d0a565b9250506020612d5585828601612c55565b9150509250929050565b600080600080600060a08688031215612d7b57612d7a612ab4565b5b6000612d8988828901612c55565b9550506020612d9a88828901612d0a565b9450506040612dab88828901612d0a565b9350506060612dbc88828901612d0a565b9250506080612dcd88828901612c55565b9150509295509295909350565b600080600060608486031215612df357612df2612ab4565b5b6000612e0186828701612d0a565b9350506020612e1286828701612d0a565b9250506040612e2386828701612c55565b9150509250925092565b60008060008060808587031215612e4757612e46612ab4565b5b6000612e5587828801612d0a565b9450506020612e6687828801612c55565b9350506040612e7787828801612d0a565b9250506060612e8887828801612c55565b91505092959194509250565b600060208284031215612eaa57612ea9612ab4565b5b6000612eb884828501612d0a565b91505092915050565b612eca81612c34565b82525050565b6000602082019050612ee56000830184612ec1565b92915050565b612ef481612b43565b8114612eff57600080fd5b50565b600081359050612f1181612eeb565b92915050565b60008060408385031215612f2e57612f2d612ab4565b5b6000612f3c85828601612d0a565b9250506020612f4d85828601612f02565b9150509250929050565b600080fd5b600080fd5b7f4e487b7100000000000000000000000000000000000000000000000000000000600052604160045260246000fd5b612f9982612bc8565b810181811067ffffffffffffffff82111715612fb857612fb7612f61565b5b80604052505050565b6000612fcb612aaa565b9050612fd78282612f90565b919050565b600067ffffffffffffffff821115612ff757612ff6612f61565b5b61300082612bc8565b9050602081019050919050565b82818337600083830152505050565b600061302f61302a84612fdc565b612fc1565b90508281526020810184848401111561304b5761304a612f5c565b5b61305684828561300d565b509392505050565b600082601f83011261307357613072612f57565b5b813561308384826020860161301c565b91505092915050565b600080600080608085870312156130a6576130a5612ab4565b5b60006130b487828801612d0a565b94505060206130c587828801612d0a565b93505060406130d687828801612c55565b925050606085013567ffffffffffffffff8111156130f7576130f6612ab9565b5b6131038782880161305e565b91505092959194509250565b600081519050919050565b600082825260208201905092915050565b6000819050602082019050919050565b600061314682612c97565b9050919050565b6131568161313b565b82525050565b60006bffffffffffffffffffffffff82169050919050565b61317d8161315c565b82525050565b604082016000820151613199600085018261314d565b5060208201516131ac6020850182613174565b50505050565b60006131be8383613183565b60408301905092915050565b6000602082019050919050565b60006131e28261310f565b6131ec818561311a565b93506131f78361312b565b8060005b8381101561322857815161320f88826131b2565b975061321a836131ca565b9250506001810190506131fb565b5085935050505092915050565b6000602082019050818103600083015261324f81846131d7565b905092915050565b6000806040838503121561326e5761326d612ab4565b5b600061327c85828601612c55565b925050602061328d85828601612d0a565b9150509250929050565b600080604083850312156132ae576132ad612ab4565b5b60006132bc85828601612d0a565b92505060206132cd85828601612d0a565b9150509250929050565b600067ffffffffffffffff8211156132f2576132f1612f61565b5b6132fb82612bc8565b9050602081019050919050565b600061331b613316846132d7565b612fc1565b90508281526020810184848401111561333757613336612f5c565b5b61334284828561300d565b509392505050565b600082601f83011261335f5761335e612f57565b5b813561336f848260208601613308565b91505092915050565b600067ffffffffffffffff82111561339357613392612f61565b5b602082029050602081019050919050565b600080fd5b600080fd5b6133b78161313b565b81146133c257600080fd5b50565b6000813590506133d4816133ae565b92915050565b6133e38161315c565b81146133ee57600080fd5b50565b600081359050613400816133da565b92915050565b60006040828403121561341c5761341b6133a9565b5b6134266040612fc1565b90506000613436848285016133c5565b600083015250602061344a848285016133f1565b60208301525092915050565b600061346961346484613378565b612fc1565b9050808382526020820190506040840283018581111561348c5761348b6133a4565b5b835b818110156134b557806134a18882613406565b84526020840193505060408101905061348e565b5050509392505050565b600082601f8301126134d4576134d3612f57565b5b81356134e4848260208601613456565b91505092915050565b60008060006060848603121561350657613505612ab4565b5b600061351486828701612d0a565b935050602084013567ffffffffffffffff81111561353557613534612ab9565b5b6135418682870161334a565b925050604084013567ffffffffffffffff81111561356257613561612ab9565b5b61356e868287016134bf565b9150509250925092565b6000806040838503121561358f5761358e612ab4565b5b600061359d85828601612c55565b92505060206135ae85828601612c55565b9150509250929050565b6135c18161313b565b82525050565b6135d08161315c565b82525050565b60006040820190506135eb60008301856135b8565b6135f860208301846135c7565b9392505050565b7f4e487b7100000000000000000000000000000000000000000000000000000000600052602260045260246000fd5b6000600282049050600182168061364657607f821691505b6020821081141561365a576136596135ff565b5b50919050565b7f4552433732313a20617070726f76616c20746f2063757272656e74206f776e6560008201527f7200000000000000000000000000000000000000000000000000000000000000602082015250565b60006136bc602183612b84565b91506136c782613660565b604082019050919050565b600060208201905081810360008301526136eb816136af565b9050919050565b7f4552433732313a20617070726f76652063616c6c6572206973206e6f7420746f60008201527f6b656e206f776e6572206e6f7220617070726f76656420666f7220616c6c0000602082015250565b600061374e603e83612b84565b9150613759826136f2565b604082019050919050565b6000602082019050818103600083015261377d81613741565b9050919050565b7f4f6e6c7920746f6b656e206f776e65722063616e206578656375746500000000600082015250565b60006137ba601c83612b84565b91506137c582613784565b602082019050919050565b600060208201905081810360008301526137e9816137ad565b9050919050565b7f63616e6e6f74207472616e7366657220746f207a65726f206164647265737300600082015250565b6000613826601f83612b84565b9150613831826137f0565b602082019050919050565b6000602082019050818103600083015261385581613819565b9050919050565b7f4552433732313a2063616c6c6572206973206e6f7420746f6b656e206f776e6560008201527f72206e6f7220617070726f766564000000000000000000000000000000000000602082015250565b60006138b8602e83612b84565b91506138c38261385c565b604082019050919050565b600060208201905081810360008301526138e7816138ab565b9050919050565b7f6e6f7420616c6c6f77656420746f206164642045524332300000000000000000600082015250565b6000613924601883612b84565b915061392f826138ee565b602082019050919050565b6000602082019050818103600083015261395381613917565b9050919050565b600060608201905061396f6000830186612cc9565b61397c6020830185612cc9565b6139896040830184612ec1565b949350505050565b6000815190506139a081612eeb565b92915050565b6000602082840312156139bc576139bb612ab4565b5b60006139ca84828501613991565b91505092915050565b7f4552433230207472616e73666572206661696c65642e00000000000000000000600082015250565b6000613a09601683612b84565b9150613a14826139d3565b602082019050919050565b60006020820190508181036000830152613a38816139fc565b9050919050565b7f4552433732313a20696e76616c696420746f6b656e2049440000000000000000600082015250565b6000613a75601883612b84565b9150613a8082613a3f565b602082019050919050565b60006020820190508181036000830152613aa481613a68565b9050919050565b7f4552433732313a2061646472657373207a65726f206973206e6f74206120766160008201527f6c6964206f776e65720000000000000000000000000000000000000000000000602082015250565b6000613b07602983612b84565b9150613b1282613aab565b604082019050919050565b60006020820190508181036000830152613b3681613afa565b9050919050565b600081905092915050565b6000613b5382612b79565b613b5d8185613b3d565b9350613b6d818560208601612b95565b80840191505092915050565b6000613b858285613b48565b9150613b918284613b48565b91508190509392505050565b7f63616e6e6f742073656e6420746f207a65726f20616464726573730000000000600082015250565b6000613bd3601b83612b84565b9150613bde82613b9d565b602082019050919050565b60006020820190508181036000830152613c0281613bc6565b9050919050565b7f6f6e6c79206f776e65722063616e207472616e73666572000000000000000000600082015250565b6000613c3f601783612b84565b9150613c4a82613c09565b602082019050919050565b60006020820190508181036000830152613c6e81613c32565b9050919050565b6000604082019050613c8a6000830185612cc9565b613c976020830184612ec1565b9392505050565b7f4552433732313a207472616e736665722066726f6d20696e636f72726563742060008201527f6f776e6572000000000000000000000000000000000000000000000000000000602082015250565b6000613cfa602583612b84565b9150613d0582613c9e565b604082019050919050565b60006020820190508181036000830152613d2981613ced565b9050919050565b7f4552433732313a207472616e7366657220746f20746865207a65726f2061646460008201527f7265737300000000000000000000000000000000000000000000000000000000602082015250565b6000613d8c602483612b84565b9150613d9782613d30565b604082019050919050565b60006020820190508181036000830152613dbb81613d7f565b9050919050565b7f4e487b7100000000000000000000000000000000000000000000000000000000600052601160045260246000fd5b6000613dfc82612c34565b9150613e0783612c34565b925082821015613e1a57613e19613dc2565b5b828203905092915050565b6000613e3082612c34565b9150613e3b83612c34565b9250827fffffffffffffffffffffffffffffffffffffffffffffffffffffffffffffffff03821115613e7057613e6f613dc2565b5b828201905092915050565b7f5f746f6b656e496420646f6573206e6f742065786973742e0000000000000000600082015250565b6000613eb1601883612b84565b9150613ebc82613e7b565b602082019050919050565b60006020820190508181036000830152613ee081613ea4565b9050919050565b7f4552433732313a20617070726f766520746f2063616c6c657200000000000000600082015250565b6000613f1d601983612b84565b9150613f2882613ee7565b602082019050919050565b60006020820190508181036000830152613f4c81613f10565b9050919050565b7f4552433732313a207472616e7366657220746f206e6f6e20455243373231526560008201527f63656976657220696d706c656d656e7465720000000000000000000000000000602082015250565b6000613faf603283612b84565b9150613fba82613f53565b604082019050919050565b60006020820190508181036000830152613fde81613fa2565b9050919050565b7f41746d6f737420313020726f79616c746965732063616e206265206164646564600082015250565b600061401b602083612b84565b915061402682613fe5565b602082019050919050565b6000602082019050818103600083015261404a8161400e565b9050919050565b7f4e487b7100000000000000000000000000000000000000000000000000000000600052603260045260246000fd5b7f526f79616c747920726563697069656e742073686f756c64206265207072657360008201527f656e740000000000000000000000000000000000000000000000000000000000602082015250565b60006140dc602383612b84565b91506140e782614080565b604082019050919050565b6000602082019050818103600083015261410b816140cf565b9050919050565b7f526f79616c74792076616c75652073686f756c64206265203e20300000000000600082015250565b6000614148601b83612b84565b915061415382614112565b602082019050919050565b600060208201905081810360008301526141778161413b565b9050919050565b600061418982612c34565b91507fffffffffffffffffffffffffffffffffffffffffffffffffffffffffffffffff8214156141bc576141bb613dc2565b5b600182019050919050565b7f53756d206f6620526f79616c74696573203e2031303025000000000000000000600082015250565b60006141fd601783612b84565b9150614208826141c7565b602082019050919050565b6000602082019050818103600083015261422c816141f0565b9050919050565b600081905092915050565b6142478161313b565b82525050565b6000614259838361423e565b60208301905092915050565b61426e8161315c565b82525050565b60006142808383614265565b60208301905092915050565b60008201600082015161429f848261424d565b93505060208201516142b18482614274565b935050505050565b60006142c5838361428c565b60408301905092915050565b60006142dc8261310f565b6142e68185614233565b93506142f18361312b565b8060005b8381101561432257815161430988826142b9565b9750614314836131ca565b9250506001810190506142f5565b5085935050505092915050565b600061433b82846142d1565b915081905092915050565b7f45524337323155524953746f726167653a2055524920736574206f66206e6f6e60008201527f6578697374656e7420746f6b656e000000000000000000000000000000000000602082015250565b60006143a2602e83612b84565b91506143ad82614346565b604082019050919050565b600060208201905081810360008301526143d181614395565b9050919050565b7f4e6f7420656e6f75676820746f6b656e20617661696c61626c6520746f20747260008201527f616e736665722e00000000000000000000000000000000000000000000000000602082015250565b6000614434602783612b84565b915061443f826143d8565b604082019050919050565b6000602082019050818103600083015261446381614427565b9050919050565b7f4e487b7100000000000000000000000000000000000000000000000000000000600052603160045260246000fd5b600081519050919050565b600082825260208201905092915050565b60006144c082614499565b6144ca81856144a4565b93506144da818560208601612b95565b6144e381612bc8565b840191505092915050565b60006080820190506145036000830187612cc9565b6145106020830186612cc9565b61451d6040830185612ec1565b818103606083015261452f81846144b5565b905095945050505050565b60008151905061454981612aea565b92915050565b60006020828403121561456557614564612ab4565b5b60006145738482850161453a565b91505092915050565b7f4e487b7100000000000000000000000000000000000000000000000000000000600052601260045260246000fd5b60006145b682612c34565b91506145c183612c34565b9250826145d1576145d061457c565b5b828204905092915050565b60006145e782612c34565b91506145f283612c34565b9250826146025761460161457c565b5b828206905092915050565b7f4552433732313a206d696e7420746f20746865207a65726f2061646472657373600082015250565b6000614643602083612b84565b915061464e8261460d565b602082019050919050565b6000602082019050818103600083015261467281614636565b9050919050565b7f4552433732313a20746f6b656e20616c7265616479206d696e74656400000000600082015250565b60006146af601c83612b84565b91506146ba82614679565b602082019050919050565b600060208201905081810360008301526146de816146a2565b905091905056fea264697066735822122056fdbf27e2e1c455a4899ab56e37766d6dcc40cbb4117c9295b8efdeea8d8f6c64736f6c634300080b0033",
  "immutableReferences": {},
  "source": "// SPDX-License-Identifier: MIT\npragma solidity >=0.4.22 <0.9.0;\n\nimport \"@openzeppelin/contracts/token/ERC20/IERC20.sol\";\nimport \"@openzeppelin/contracts/token/ERC721/extensions/ERC721URIStorage.sol\";\nimport \"@openzeppelin/contracts/utils/Counters.sol\";\nimport \"./utils/LibShare.sol\";\n\ncontract piNFT is ERC721URIStorage{\n\n    using Counters for Counters.Counter;\n    Counters.Counter private _tokenIdCounter;\n\n    // tokenId => (token contract => balance)\n    mapping(uint256 => mapping(address => uint256)) erc20Balances;\n\n    // tokenId => token contract\n    mapping(uint256 => address[]) erc20Contracts;\n\n    // tokenId => royalties\n    mapping(uint256 => LibShare.Share[]) public royaltiesByTokenId;\n\n    // tokenId => (token contract => token contract index)\n    mapping(uint256 => mapping(address => uint256)) erc20ContractIndex;\n\n    event ReceivedERC20(address indexed _from, uint256 indexed _tokenId, address indexed _erc20Contract, uint256 _value);\n    event TransferERC20(uint256 indexed _tokenId, address indexed _to, address indexed _erc20Contract, uint256 _value);\n    event RoyaltiesSetForTokenId(uint256 indexed tokenId, LibShare.Share[] indexed royalties);\n\n    constructor(string memory _name, string memory _symbol) ERC721(_name, _symbol) {}\n\n    modifier onlyOwnerOfToken(uint256 _tokenId) {\n        require(msg.sender == ERC721.ownerOf(_tokenId), 'Only token owner can execute');\n        _;\n    }\n    \n    // mints an ERC721 token to _to with _uri as token uri\n    function mintNFT(address _to, string memory _uri, LibShare.Share[] memory royalties) public returns (uint256) {\n        uint256 tokenId_ = _tokenIdCounter.current();\n        _setRoyaltiesByTokenId(tokenId_, royalties);\n        _safeMint(_to, tokenId_);\n        _setTokenURI(tokenId_, _uri);\n        _tokenIdCounter.increment();\n        return tokenId_;\n    }\n\n    function _setRoyaltiesByTokenId(\n        uint256 _tokenId,\n        LibShare.Share[] memory royalties\n    ) internal {\n        require(royalties.length <= 10, 'Atmost 10 royalties can be added');\n        delete royaltiesByTokenId[_tokenId];\n        uint256 sumRoyalties = 0;\n        for (uint256 i = 0; i < royalties.length; i++) {\n            require(\n                royalties[i].account != address(0x0),\n                \"Royalty recipient should be present\"\n            );\n            require(royalties[i].value != 0, \"Royalty value should be > 0\");\n            royaltiesByTokenId[_tokenId].push(royalties[i]);\n            sumRoyalties += royalties[i].value;\n        }\n        require(sumRoyalties < 10000, \"Sum of Royalties > 100%\");\n\n        emit RoyaltiesSetForTokenId(_tokenId, royalties);\n    }\n\n    function getRoyalties(uint256 _tokenId)\n        external\n        view\n        returns (LibShare.Share[] memory)\n    {\n        return royaltiesByTokenId[_tokenId];\n    }\n\n    // this function requires approval of tokens by _erc20Contract\n    // adds ERC20 tokens to the token with _tokenId(basically trasnfer ERC20 to this contract)\n    function addERC20(address _from, uint256 _tokenId, address _erc20Contract, uint256 _value) public {\n        require(_from == msg.sender, \"not allowed to add ERC20\");\n        erc20Received(_from, _tokenId, _erc20Contract, _value);\n        require(IERC20(_erc20Contract).transferFrom(_from, address(this), _value), \"ERC20 transfer failed.\");\n    }\n\n    // update the mappings for a token on recieving ERC20 tokens\n    function erc20Received(address _from, uint256 _tokenId, address _erc20Contract, uint256 _value) private {\n        require(ERC721.ownerOf(_tokenId) != address(0), \"_tokenId does not exist.\");\n        if (_value == 0) {\n            return;\n        }\n        uint256 erc20Balance = erc20Balances[_tokenId][_erc20Contract];\n        if (erc20Balance == 0) {\n            erc20ContractIndex[_tokenId][_erc20Contract] = erc20Contracts[_tokenId].length;\n            erc20Contracts[_tokenId].push(_erc20Contract);\n        }\n        erc20Balances[_tokenId][_erc20Contract] += _value;\n        emit ReceivedERC20(_from, _tokenId, _erc20Contract, _value);\n    }\n\n    function redeemPiNFT(uint256 _tokenId, address _nftReciever, address _validatorAddress, address _erc20Contract, uint256 _value) external onlyOwnerOfToken(_tokenId){\n        require(_nftReciever != address(0), 'cannot transfer to zero address');\n        _transferERC20(_tokenId, _validatorAddress, _erc20Contract, _value);\n        ERC721.safeTransferFrom(msg.sender, _nftReciever, _tokenId);\n    }\n\n    function burnPiNFT(uint256 _tokenId, address _nftReciever, address _erc20Reciever, address _erc20Contract, uint256 _value) external onlyOwnerOfToken(_tokenId){\n        require(_nftReciever != address(0), 'cannot transfer to zero address');\n        _transferERC20(_tokenId, _erc20Reciever, _erc20Contract, _value);\n        ERC721.safeTransferFrom(msg.sender, _nftReciever, _tokenId);\n    }\n\n    // transfers the ERC 20 tokens from _tokenId(this contract) to _to address\n    function _transferERC20(uint256 _tokenId, address _to, address _erc20Contract, uint256 _value) private {\n        require(_to != address(0), 'cannot send to zero address');\n        address rootOwner = ERC721.ownerOf(_tokenId);\n        require(rootOwner == msg.sender, 'only owner can transfer');\n        removeERC20(_tokenId, _erc20Contract, _value);\n        require(IERC20(_erc20Contract).transfer(_to, _value), \"ERC20 transfer failed.\");\n        emit TransferERC20(_tokenId, _to, _erc20Contract, _value);\n    }\n\n    // update the mappings for a token when ERC20 tokens gets removed\n    function removeERC20(uint256 _tokenId, address _erc20Contract, uint256 _value) private {\n        if (_value == 0) {\n            return;\n        }\n        uint256 erc20Balance = erc20Balances[_tokenId][_erc20Contract];\n        require(erc20Balance >= _value, \"Not enough token available to transfer.\");\n        uint256 newERC20Balance = erc20Balance - _value;\n        erc20Balances[_tokenId][_erc20Contract] = newERC20Balance;\n        if (newERC20Balance == 0) {\n            uint256 lastContractIndex = erc20Contracts[_tokenId].length - 1;\n            address lastContract = erc20Contracts[_tokenId][lastContractIndex];\n            if (_erc20Contract != lastContract) {\n                uint256 contractIndex = erc20ContractIndex[_tokenId][_erc20Contract];\n                erc20Contracts[_tokenId][contractIndex] = lastContract;\n                erc20ContractIndex[_tokenId][lastContract] = contractIndex;\n            }\n            delete erc20ContractIndex[_tokenId][_erc20Contract];\n            erc20Contracts[_tokenId].pop();\n\n        }\n    }\n\n    // view ERC 20 token balance of a token\n    function viewBalance(uint256 _tokenId, address _erc20Address) public view returns (uint256) {\n        return erc20Balances[_tokenId][_erc20Address];\n    }\n\n}",
  "sourcePath": "/Users/sanskarkhare/Desktop/Pandora/aconomy-contract/contracts/piNFT.sol",
  "compiler": {
    "name": "solc",
    "version": "0.8.11+commit.d7f03943.Emscripten.clang"
  },
  "schemaVersion": "3.4.4",
  "updatedAt": "2022-10-20T10:46:47.684Z",
  "devdoc": {
    "kind": "dev",
    "methods": {
      "approve(address,uint256)": {
        "details": "See {IERC721-approve}."
      },
      "balanceOf(address)": {
        "details": "See {IERC721-balanceOf}."
      },
      "getApproved(uint256)": {
        "details": "See {IERC721-getApproved}."
      },
      "isApprovedForAll(address,address)": {
        "details": "See {IERC721-isApprovedForAll}."
      },
      "name()": {
        "details": "See {IERC721Metadata-name}."
      },
      "ownerOf(uint256)": {
        "details": "See {IERC721-ownerOf}."
      },
      "safeTransferFrom(address,address,uint256)": {
        "details": "See {IERC721-safeTransferFrom}."
      },
      "safeTransferFrom(address,address,uint256,bytes)": {
        "details": "See {IERC721-safeTransferFrom}."
      },
      "setApprovalForAll(address,bool)": {
        "details": "See {IERC721-setApprovalForAll}."
      },
      "supportsInterface(bytes4)": {
        "details": "See {IERC165-supportsInterface}."
      },
      "symbol()": {
        "details": "See {IERC721Metadata-symbol}."
      },
      "tokenURI(uint256)": {
        "details": "See {IERC721Metadata-tokenURI}."
      },
      "transferFrom(address,address,uint256)": {
        "details": "See {IERC721-transferFrom}."
      }
    },
    "version": 1
  },
  "userdoc": {
    "kind": "user",
    "methods": {},
    "version": 1
  }
}