{
  "contractName": "piNFT",
  "abi": [
    {
      "inputs": [
        {
          "internalType": "string",
          "name": "_name",
          "type": "string"
        },
        {
          "internalType": "string",
          "name": "_symbol",
          "type": "string"
        }
      ],
      "stateMutability": "nonpayable",
      "type": "constructor"
    },
    {
      "anonymous": false,
      "inputs": [
        {
          "indexed": true,
          "internalType": "address",
          "name": "owner",
          "type": "address"
        },
        {
          "indexed": true,
          "internalType": "address",
          "name": "approved",
          "type": "address"
        },
        {
          "indexed": true,
          "internalType": "uint256",
          "name": "tokenId",
          "type": "uint256"
        }
      ],
      "name": "Approval",
      "type": "event"
    },
    {
      "anonymous": false,
      "inputs": [
        {
          "indexed": true,
          "internalType": "address",
          "name": "owner",
          "type": "address"
        },
        {
          "indexed": true,
          "internalType": "address",
          "name": "operator",
          "type": "address"
        },
        {
          "indexed": false,
          "internalType": "bool",
          "name": "approved",
          "type": "bool"
        }
      ],
      "name": "ApprovalForAll",
      "type": "event"
    },
    {
      "anonymous": false,
      "inputs": [
        {
          "indexed": true,
          "internalType": "address",
          "name": "_from",
          "type": "address"
        },
        {
          "indexed": true,
          "internalType": "uint256",
          "name": "_tokenId",
          "type": "uint256"
        },
        {
          "indexed": true,
          "internalType": "address",
          "name": "_erc20Contract",
          "type": "address"
        },
        {
          "indexed": false,
          "internalType": "uint256",
          "name": "_value",
          "type": "uint256"
        }
      ],
      "name": "ReceivedERC20",
      "type": "event"
    },
    {
      "anonymous": false,
      "inputs": [
        {
          "indexed": true,
          "internalType": "uint256",
          "name": "tokenId",
          "type": "uint256"
        },
        {
          "components": [
            {
              "internalType": "address payable",
              "name": "account",
              "type": "address"
            },
            {
              "internalType": "uint96",
              "name": "value",
              "type": "uint96"
            }
          ],
          "indexed": true,
          "internalType": "struct LibShare.Share[]",
          "name": "royalties",
          "type": "tuple[]"
        }
      ],
      "name": "RoyaltiesSetForTokenId",
      "type": "event"
    },
    {
      "anonymous": false,
      "inputs": [
        {
          "indexed": true,
          "internalType": "address",
          "name": "from",
          "type": "address"
        },
        {
          "indexed": true,
          "internalType": "address",
          "name": "to",
          "type": "address"
        },
        {
          "indexed": true,
          "internalType": "uint256",
          "name": "tokenId",
          "type": "uint256"
        }
      ],
      "name": "Transfer",
      "type": "event"
    },
    {
      "anonymous": false,
      "inputs": [
        {
          "indexed": true,
          "internalType": "uint256",
          "name": "_tokenId",
          "type": "uint256"
        },
        {
          "indexed": true,
          "internalType": "address",
          "name": "_to",
          "type": "address"
        },
        {
          "indexed": true,
          "internalType": "address",
          "name": "_erc20Contract",
          "type": "address"
        },
        {
          "indexed": false,
          "internalType": "uint256",
          "name": "_value",
          "type": "uint256"
        }
      ],
      "name": "TransferERC20",
      "type": "event"
    },
    {
      "inputs": [
        {
          "internalType": "address",
          "name": "to",
          "type": "address"
        },
        {
          "internalType": "uint256",
          "name": "tokenId",
          "type": "uint256"
        }
      ],
      "name": "approve",
      "outputs": [],
      "stateMutability": "nonpayable",
      "type": "function"
    },
    {
      "inputs": [
        {
          "internalType": "address",
          "name": "owner",
          "type": "address"
        }
      ],
      "name": "balanceOf",
      "outputs": [
        {
          "internalType": "uint256",
          "name": "",
          "type": "uint256"
        }
      ],
      "stateMutability": "view",
      "type": "function"
    },
    {
      "inputs": [
        {
          "internalType": "uint256",
          "name": "tokenId",
          "type": "uint256"
        }
      ],
      "name": "getApproved",
      "outputs": [
        {
          "internalType": "address",
          "name": "",
          "type": "address"
        }
      ],
      "stateMutability": "view",
      "type": "function"
    },
    {
      "inputs": [
        {
          "internalType": "address",
          "name": "owner",
          "type": "address"
        },
        {
          "internalType": "address",
          "name": "operator",
          "type": "address"
        }
      ],
      "name": "isApprovedForAll",
      "outputs": [
        {
          "internalType": "bool",
          "name": "",
          "type": "bool"
        }
      ],
      "stateMutability": "view",
      "type": "function"
    },
    {
      "inputs": [],
      "name": "name",
      "outputs": [
        {
          "internalType": "string",
          "name": "",
          "type": "string"
        }
      ],
      "stateMutability": "view",
      "type": "function"
    },
    {
      "inputs": [
        {
          "internalType": "uint256",
          "name": "tokenId",
          "type": "uint256"
        }
      ],
      "name": "ownerOf",
      "outputs": [
        {
          "internalType": "address",
          "name": "",
          "type": "address"
        }
      ],
      "stateMutability": "view",
      "type": "function"
    },
    {
      "inputs": [
        {
          "internalType": "uint256",
          "name": "",
          "type": "uint256"
        },
        {
          "internalType": "uint256",
          "name": "",
          "type": "uint256"
        }
      ],
      "name": "royaltiesByTokenId",
      "outputs": [
        {
          "internalType": "address payable",
          "name": "account",
          "type": "address"
        },
        {
          "internalType": "uint96",
          "name": "value",
          "type": "uint96"
        }
      ],
      "stateMutability": "view",
      "type": "function"
    },
    {
      "inputs": [
        {
          "internalType": "address",
          "name": "from",
          "type": "address"
        },
        {
          "internalType": "address",
          "name": "to",
          "type": "address"
        },
        {
          "internalType": "uint256",
          "name": "tokenId",
          "type": "uint256"
        }
      ],
      "name": "safeTransferFrom",
      "outputs": [],
      "stateMutability": "nonpayable",
      "type": "function"
    },
    {
      "inputs": [
        {
          "internalType": "address",
          "name": "from",
          "type": "address"
        },
        {
          "internalType": "address",
          "name": "to",
          "type": "address"
        },
        {
          "internalType": "uint256",
          "name": "tokenId",
          "type": "uint256"
        },
        {
          "internalType": "bytes",
          "name": "data",
          "type": "bytes"
        }
      ],
      "name": "safeTransferFrom",
      "outputs": [],
      "stateMutability": "nonpayable",
      "type": "function"
    },
    {
      "inputs": [
        {
          "internalType": "address",
          "name": "operator",
          "type": "address"
        },
        {
          "internalType": "bool",
          "name": "approved",
          "type": "bool"
        }
      ],
      "name": "setApprovalForAll",
      "outputs": [],
      "stateMutability": "nonpayable",
      "type": "function"
    },
    {
      "inputs": [
        {
          "internalType": "bytes4",
          "name": "interfaceId",
          "type": "bytes4"
        }
      ],
      "name": "supportsInterface",
      "outputs": [
        {
          "internalType": "bool",
          "name": "",
          "type": "bool"
        }
      ],
      "stateMutability": "view",
      "type": "function"
    },
    {
      "inputs": [],
      "name": "symbol",
      "outputs": [
        {
          "internalType": "string",
          "name": "",
          "type": "string"
        }
      ],
      "stateMutability": "view",
      "type": "function"
    },
    {
      "inputs": [
        {
          "internalType": "uint256",
          "name": "tokenId",
          "type": "uint256"
        }
      ],
      "name": "tokenURI",
      "outputs": [
        {
          "internalType": "string",
          "name": "",
          "type": "string"
        }
      ],
      "stateMutability": "view",
      "type": "function"
    },
    {
      "inputs": [
        {
          "internalType": "address",
          "name": "from",
          "type": "address"
        },
        {
          "internalType": "address",
          "name": "to",
          "type": "address"
        },
        {
          "internalType": "uint256",
          "name": "tokenId",
          "type": "uint256"
        }
      ],
      "name": "transferFrom",
      "outputs": [],
      "stateMutability": "nonpayable",
      "type": "function"
    },
    {
      "inputs": [
        {
          "internalType": "address",
          "name": "_to",
          "type": "address"
        },
        {
          "internalType": "string",
          "name": "_uri",
          "type": "string"
        },
        {
          "components": [
            {
              "internalType": "address payable",
              "name": "account",
              "type": "address"
            },
            {
              "internalType": "uint96",
              "name": "value",
              "type": "uint96"
            }
          ],
          "internalType": "struct LibShare.Share[]",
          "name": "royalties",
          "type": "tuple[]"
        }
      ],
      "name": "mintNFT",
      "outputs": [
        {
          "internalType": "uint256",
          "name": "",
          "type": "uint256"
        }
      ],
      "stateMutability": "nonpayable",
      "type": "function"
    },
    {
      "inputs": [
        {
          "internalType": "uint256",
          "name": "_tokenId",
          "type": "uint256"
        }
      ],
      "name": "getRoyalties",
      "outputs": [
        {
          "components": [
            {
              "internalType": "address payable",
              "name": "account",
              "type": "address"
            },
            {
              "internalType": "uint96",
              "name": "value",
              "type": "uint96"
            }
          ],
          "internalType": "struct LibShare.Share[]",
          "name": "",
          "type": "tuple[]"
        }
      ],
      "stateMutability": "view",
      "type": "function"
    },
    {
      "inputs": [
        {
          "internalType": "address",
          "name": "_from",
          "type": "address"
        },
        {
          "internalType": "uint256",
          "name": "_tokenId",
          "type": "uint256"
        },
        {
          "internalType": "address",
          "name": "_erc20Contract",
          "type": "address"
        },
        {
          "internalType": "uint256",
          "name": "_value",
          "type": "uint256"
        }
      ],
      "name": "addERC20",
      "outputs": [],
      "stateMutability": "nonpayable",
      "type": "function"
    },
    {
      "inputs": [
        {
          "internalType": "uint256",
          "name": "_tokenId",
          "type": "uint256"
        },
        {
          "internalType": "address",
          "name": "_nftReciever",
          "type": "address"
        },
        {
          "internalType": "address",
          "name": "_validatorAddress",
          "type": "address"
        },
        {
          "internalType": "address",
          "name": "_erc20Contract",
          "type": "address"
        },
        {
          "internalType": "uint256",
          "name": "_value",
          "type": "uint256"
        }
      ],
      "name": "redeemPiNFT",
      "outputs": [],
      "stateMutability": "nonpayable",
      "type": "function"
    },
    {
      "inputs": [
        {
          "internalType": "uint256",
          "name": "_tokenId",
          "type": "uint256"
        },
        {
          "internalType": "address",
          "name": "_nftReciever",
          "type": "address"
        },
        {
          "internalType": "address",
          "name": "_erc20Reciever",
          "type": "address"
        },
        {
          "internalType": "address",
          "name": "_erc20Contract",
          "type": "address"
        },
        {
          "internalType": "uint256",
          "name": "_value",
          "type": "uint256"
        }
      ],
      "name": "burnPiNFT",
      "outputs": [],
      "stateMutability": "nonpayable",
      "type": "function"
    },
    {
      "inputs": [
        {
          "internalType": "uint256",
          "name": "_tokenId",
          "type": "uint256"
        },
        {
          "internalType": "address",
          "name": "_erc20Address",
          "type": "address"
        }
      ],
      "name": "viewBalance",
      "outputs": [
        {
          "internalType": "uint256",
          "name": "",
          "type": "uint256"
        }
      ],
      "stateMutability": "view",
      "type": "function"
    }
  ],
  "bytecode": "0x60806040523480156200001157600080fd5b5060405162004d1f38038062004d1f8339818101604052810190620000379190620002c2565b818181600090805190602001906200005192919062000075565b5080600190805190602001906200006a92919062000075565b5050505050620003ac565b828054620000839062000376565b90600052602060002090601f016020900481019282620000a75760008555620000f3565b82601f10620000c257805160ff1916838001178555620000f3565b82800160010185558215620000f3579182015b82811115620000f2578251825591602001919060010190620000d5565b5b50905062000102919062000106565b5090565b5b808211156200012157600081600090555060010162000107565b5090565b6000604051905090565b600080fd5b600080fd5b600080fd5b600080fd5b6000601f19601f8301169050919050565b7f4e487b7100000000000000000000000000000000000000000000000000000000600052604160045260246000fd5b6200018e8262000143565b810181811067ffffffffffffffff82111715620001b057620001af62000154565b5b80604052505050565b6000620001c562000125565b9050620001d3828262000183565b919050565b600067ffffffffffffffff821115620001f657620001f562000154565b5b620002018262000143565b9050602081019050919050565b60005b838110156200022e57808201518184015260208101905062000211565b838111156200023e576000848401525b50505050565b60006200025b6200025584620001d8565b620001b9565b9050828152602081018484840111156200027a57620002796200013e565b5b620002878482856200020e565b509392505050565b600082601f830112620002a757620002a662000139565b5b8151620002b984826020860162000244565b91505092915050565b60008060408385031215620002dc57620002db6200012f565b5b600083015167ffffffffffffffff811115620002fd57620002fc62000134565b5b6200030b858286016200028f565b925050602083015167ffffffffffffffff8111156200032f576200032e62000134565b5b6200033d858286016200028f565b9150509250929050565b7f4e487b7100000000000000000000000000000000000000000000000000000000600052602260045260246000fd5b600060028204905060018216806200038f57607f821691505b60208210811415620003a657620003a562000347565b5b50919050565b61496380620003bc6000396000f3fe608060405234801561001057600080fd5b506004361061012c5760003560e01c8063726bb4cb116100ad578063c87b56dd11610071578063c87b56dd1461033d578063d51f299d1461036d578063e985e9c51461039d578063ee53b6a9146103cd578063fb2ef4a3146103fd5761012c565b8063726bb4cb1461029b57806395d89b41146102b7578063a22cb465146102d5578063b88d4fde146102f1578063bb3bafd61461030d5761012c565b806323b872dd116100f457806323b872dd146101e75780632b32c03b1461020357806342842e0e1461021f5780636352211e1461023b57806370a082311461026b5761012c565b806301ffc9a71461013157806306fdde0314610161578063081812fc1461017f578063095ea7b3146101af57806309d4470c146101cb575b600080fd5b61014b60048036038101906101469190612dc0565b61042e565b6040516101589190612e08565b60405180910390f35b610169610510565b6040516101769190612ebc565b60405180910390f35b61019960048036038101906101949190612f14565b6105a2565b6040516101a69190612f82565b60405180910390f35b6101c960048036038101906101c49190612fc9565b6105e8565b005b6101e560048036038101906101e09190613009565b610700565b005b61020160048036038101906101fc9190613084565b610806565b005b61021d600480360381019061021891906130d7565b610866565b005b61023960048036038101906102349190613084565b6109a5565b005b61025560048036038101906102509190612f14565b6109c5565b6040516102629190612f82565b60405180910390f35b6102856004803603810190610280919061313e565b610a4c565b604051610292919061317a565b60405180910390f35b6102b560048036038101906102b09190613009565b610b04565b005b6102bf610c0a565b6040516102cc9190612ebc565b60405180910390f35b6102ef60048036038101906102ea91906131c1565b610c9c565b005b61030b60048036038101906103069190613336565b610cb2565b005b61032760048036038101906103229190612f14565b610d14565b60405161033491906134df565b60405180910390f35b61035760048036038101906103529190612f14565b610e16565b6040516103649190612ebc565b60405180910390f35b61038760048036038101906103829190613501565b610f29565b604051610394919061317a565b60405180910390f35b6103b760048036038101906103b29190613541565b610f84565b6040516103c49190612e08565b60405180910390f35b6103e760048036038101906103e29190613797565b611018565b6040516103f4919061317a565b60405180910390f35b61041760048036038101906104129190613822565b61105a565b604051610425929190613880565b60405180910390f35b60007f80ac58cd000000000000000000000000000000000000000000000000000000007bffffffffffffffffffffffffffffffffffffffffffffffffffffffff1916827bffffffffffffffffffffffffffffffffffffffffffffffffffffffff191614806104f957507f5b5e139f000000000000000000000000000000000000000000000000000000007bffffffffffffffffffffffffffffffffffffffffffffffffffffffff1916827bffffffffffffffffffffffffffffffffffffffffffffffffffffffff1916145b806105095750610508826110cf565b5b9050919050565b60606000805461051f906138d8565b80601f016020809104026020016040519081016040528092919081815260200182805461054b906138d8565b80156105985780601f1061056d57610100808354040283529160200191610598565b820191906000526020600020905b81548152906001019060200180831161057b57829003601f168201915b5050505050905090565b60006105ad82611139565b6004600083815260200190815260200160002060009054906101000a900473ffffffffffffffffffffffffffffffffffffffff169050919050565b60006105f3826109c5565b90508073ffffffffffffffffffffffffffffffffffffffff168373ffffffffffffffffffffffffffffffffffffffff161415610664576040517f08c379a000000000000000000000000000000000000000000000000000000000815260040161065b9061397c565b60405180910390fd5b8073ffffffffffffffffffffffffffffffffffffffff16610683611184565b73ffffffffffffffffffffffffffffffffffffffff1614806106b257506106b1816106ac611184565b610f84565b5b6106f1576040517f08c379a00000000000000000000000000000000000000000000000000000000081526004016106e890613a0e565b60405180910390fd5b6106fb838361118c565b505050565b8461070a816109c5565b73ffffffffffffffffffffffffffffffffffffffff163373ffffffffffffffffffffffffffffffffffffffff1614610777576040517f08c379a000000000000000000000000000000000000000000000000000000000815260040161076e90613a7a565b60405180910390fd5b600073ffffffffffffffffffffffffffffffffffffffff168573ffffffffffffffffffffffffffffffffffffffff1614156107e7576040517f08c379a00000000000000000000000000000000000000000000000000000000081526004016107de90613ae6565b60405180910390fd5b6107f386858585611245565b6107fe3386886109a5565b505050505050565b610817610811611184565b82611465565b610856576040517f08c379a000000000000000000000000000000000000000000000000000000000815260040161084d90613b78565b60405180910390fd5b6108618383836114fa565b505050565b3373ffffffffffffffffffffffffffffffffffffffff168473ffffffffffffffffffffffffffffffffffffffff16146108d4576040517f08c379a00000000000000000000000000000000000000000000000000000000081526004016108cb90613be4565b60405180910390fd5b6108e0848484846117f4565b8173ffffffffffffffffffffffffffffffffffffffff166323b872dd8530846040518463ffffffff1660e01b815260040161091d93929190613c04565b6020604051808303816000875af115801561093c573d6000803e3d6000fd5b505050506040513d601f19601f820116820180604052508101906109609190613c50565b61099f576040517f08c379a000000000000000000000000000000000000000000000000000000000815260040161099690613cc9565b60405180910390fd5b50505050565b6109c083838360405180602001604052806000815250610cb2565b505050565b6000806109d183611a8d565b9050600073ffffffffffffffffffffffffffffffffffffffff168173ffffffffffffffffffffffffffffffffffffffff161415610a43576040517f08c379a0000000000000000000000000000000000000000000000000000000008152600401610a3a90613d35565b60405180910390fd5b80915050919050565b60008073ffffffffffffffffffffffffffffffffffffffff168273ffffffffffffffffffffffffffffffffffffffff161415610abd576040517f08c379a0000000000000000000000000000000000000000000000000000000008152600401610ab490613dc7565b60405180910390fd5b600360008373ffffffffffffffffffffffffffffffffffffffff1673ffffffffffffffffffffffffffffffffffffffff168152602001908152602001600020549050919050565b84610b0e816109c5565b73ffffffffffffffffffffffffffffffffffffffff163373ffffffffffffffffffffffffffffffffffffffff1614610b7b576040517f08c379a0000000000000000000000000000000000000000000000000000000008152600401610b7290613a7a565b60405180910390fd5b600073ffffffffffffffffffffffffffffffffffffffff168573ffffffffffffffffffffffffffffffffffffffff161415610beb576040517f08c379a0000000000000000000000000000000000000000000000000000000008152600401610be290613ae6565b60405180910390fd5b610bf786858585611245565b610c023386886109a5565b505050505050565b606060018054610c19906138d8565b80601f0160208091040260200160405190810160405280929190818152602001828054610c45906138d8565b8015610c925780601f10610c6757610100808354040283529160200191610c92565b820191906000526020600020905b815481529060010190602001808311610c7557829003601f168201915b5050505050905090565b610cae610ca7611184565b8383611aca565b5050565b610cc3610cbd611184565b83611465565b610d02576040517f08c379a0000000000000000000000000000000000000000000000000000000008152600401610cf990613b78565b60405180910390fd5b610d0e84848484611c37565b50505050565b6060600a6000838152602001908152602001600020805480602002602001604051908101604052809291908181526020016000905b82821015610e0b578382906000526020600020016040518060400160405290816000820160009054906101000a900473ffffffffffffffffffffffffffffffffffffffff1673ffffffffffffffffffffffffffffffffffffffff1673ffffffffffffffffffffffffffffffffffffffff1681526020016000820160149054906101000a90046bffffffffffffffffffffffff166bffffffffffffffffffffffff166bffffffffffffffffffffffff168152505081526020019060010190610d49565b505050509050919050565b6060610e2182611139565b6000600660008481526020019081526020016000208054610e41906138d8565b80601f0160208091040260200160405190810160405280929190818152602001828054610e6d906138d8565b8015610eba5780601f10610e8f57610100808354040283529160200191610eba565b820191906000526020600020905b815481529060010190602001808311610e9d57829003601f168201915b505050505090506000610ecb611c93565b9050600081511415610ee1578192505050610f24565b600082511115610f16578082604051602001610efe929190613e23565b60405160208183030381529060405292505050610f24565b610f1f84611caa565b925050505b919050565b60006008600084815260200190815260200160002060008373ffffffffffffffffffffffffffffffffffffffff1673ffffffffffffffffffffffffffffffffffffffff16815260200190815260200160002054905092915050565b6000600560008473ffffffffffffffffffffffffffffffffffffffff1673ffffffffffffffffffffffffffffffffffffffff16815260200190815260200160002060008373ffffffffffffffffffffffffffffffffffffffff1673ffffffffffffffffffffffffffffffffffffffff16815260200190815260200160002060009054906101000a900460ff16905092915050565b6000806110256007611d12565b90506110318184611d20565b61103b858261203c565b611045818561205a565b61104f60076120ce565b809150509392505050565b600a602052816000526040600020818154811061107657600080fd5b90600052602060002001600091509150508060000160009054906101000a900473ffffffffffffffffffffffffffffffffffffffff16908060000160149054906101000a90046bffffffffffffffffffffffff16905082565b60007f01ffc9a7000000000000000000000000000000000000000000000000000000007bffffffffffffffffffffffffffffffffffffffffffffffffffffffff1916827bffffffffffffffffffffffffffffffffffffffffffffffffffffffff1916149050919050565b611142816120e4565b611181576040517f08c379a000000000000000000000000000000000000000000000000000000000815260040161117890613d35565b60405180910390fd5b50565b600033905090565b816004600083815260200190815260200160002060006101000a81548173ffffffffffffffffffffffffffffffffffffffff021916908373ffffffffffffffffffffffffffffffffffffffff160217905550808273ffffffffffffffffffffffffffffffffffffffff166111ff836109c5565b73ffffffffffffffffffffffffffffffffffffffff167f8c5be1e5ebec7d5bd14f71427d1e84f3dd0314c0f7b2291e5b200ac8c7c3b92560405160405180910390a45050565b600073ffffffffffffffffffffffffffffffffffffffff168373ffffffffffffffffffffffffffffffffffffffff1614156112b5576040517f08c379a00000000000000000000000000000000000000000000000000000000081526004016112ac90613e93565b60405180910390fd5b60006112c0856109c5565b90503373ffffffffffffffffffffffffffffffffffffffff168173ffffffffffffffffffffffffffffffffffffffff1614611330576040517f08c379a000000000000000000000000000000000000000000000000000000000815260040161132790613eff565b60405180910390fd5b61133b858484612125565b8273ffffffffffffffffffffffffffffffffffffffff1663a9059cbb85846040518363ffffffff1660e01b8152600401611376929190613f1f565b6020604051808303816000875af1158015611395573d6000803e3d6000fd5b505050506040513d601f19601f820116820180604052508101906113b99190613c50565b6113f8576040517f08c379a00000000000000000000000000000000000000000000000000000000081526004016113ef90613cc9565b60405180910390fd5b8273ffffffffffffffffffffffffffffffffffffffff168473ffffffffffffffffffffffffffffffffffffffff16867fa8352277873fc0d2b233b8127433da351a4164fa701ed6ff79655694222932c485604051611456919061317a565b60405180910390a45050505050565b600080611471836109c5565b90508073ffffffffffffffffffffffffffffffffffffffff168473ffffffffffffffffffffffffffffffffffffffff1614806114b357506114b28185610f84565b5b806114f157508373ffffffffffffffffffffffffffffffffffffffff166114d9846105a2565b73ffffffffffffffffffffffffffffffffffffffff16145b91505092915050565b8273ffffffffffffffffffffffffffffffffffffffff1661151a826109c5565b73ffffffffffffffffffffffffffffffffffffffff1614611570576040517f08c379a000000000000000000000000000000000000000000000000000000000815260040161156790613fba565b60405180910390fd5b600073ffffffffffffffffffffffffffffffffffffffff168273ffffffffffffffffffffffffffffffffffffffff1614156115e0576040517f08c379a00000000000000000000000000000000000000000000000000000000081526004016115d79061404c565b60405180910390fd5b6115ed83838360016124b8565b8273ffffffffffffffffffffffffffffffffffffffff1661160d826109c5565b73ffffffffffffffffffffffffffffffffffffffff1614611663576040517f08c379a000000000000000000000000000000000000000000000000000000000815260040161165a90613fba565b60405180910390fd5b6004600082815260200190815260200160002060006101000a81549073ffffffffffffffffffffffffffffffffffffffff02191690556001600360008573ffffffffffffffffffffffffffffffffffffffff1673ffffffffffffffffffffffffffffffffffffffff168152602001908152602001600020600082825403925050819055506001600360008473ffffffffffffffffffffffffffffffffffffffff1673ffffffffffffffffffffffffffffffffffffffff16815260200190815260200160002060008282540192505081905550816002600083815260200190815260200160002060006101000a81548173ffffffffffffffffffffffffffffffffffffffff021916908373ffffffffffffffffffffffffffffffffffffffff160217905550808273ffffffffffffffffffffffffffffffffffffffff168473ffffffffffffffffffffffffffffffffffffffff167fddf252ad1be2c89b69c2b068fc378daa952ba7f163c4a11628f55a4df523b3ef60405160405180910390a46117ef83838360016125de565b505050565b600073ffffffffffffffffffffffffffffffffffffffff16611815846109c5565b73ffffffffffffffffffffffffffffffffffffffff16141561186c576040517f08c379a0000000000000000000000000000000000000000000000000000000008152600401611863906140b8565b60405180910390fd5b600081141561187a57611a87565b60006008600085815260200190815260200160002060008473ffffffffffffffffffffffffffffffffffffffff1673ffffffffffffffffffffffffffffffffffffffff16815260200190815260200160002054905060008114156119b8576009600085815260200190815260200160002080549050600b600086815260200190815260200160002060008573ffffffffffffffffffffffffffffffffffffffff1673ffffffffffffffffffffffffffffffffffffffff1681526020019081526020016000208190555060096000858152602001908152602001600020839080600181540180825580915050600190039060005260206000200160009091909190916101000a81548173ffffffffffffffffffffffffffffffffffffffff021916908373ffffffffffffffffffffffffffffffffffffffff1602179055505b816008600086815260200190815260200160002060008573ffffffffffffffffffffffffffffffffffffffff1673ffffffffffffffffffffffffffffffffffffffff1681526020019081526020016000206000828254611a189190614107565b925050819055508273ffffffffffffffffffffffffffffffffffffffff16848673ffffffffffffffffffffffffffffffffffffffff167f684ce28ace37552c6bfb98b7cceda8ed55327078eafb5dfb31218e085638276385604051611a7d919061317a565b60405180910390a4505b50505050565b60006002600083815260200190815260200160002060009054906101000a900473ffffffffffffffffffffffffffffffffffffffff169050919050565b8173ffffffffffffffffffffffffffffffffffffffff168373ffffffffffffffffffffffffffffffffffffffff161415611b39576040517f08c379a0000000000000000000000000000000000000000000000000000000008152600401611b30906141a9565b60405180910390fd5b80600560008573ffffffffffffffffffffffffffffffffffffffff1673ffffffffffffffffffffffffffffffffffffffff16815260200190815260200160002060008473ffffffffffffffffffffffffffffffffffffffff1673ffffffffffffffffffffffffffffffffffffffff16815260200190815260200160002060006101000a81548160ff0219169083151502179055508173ffffffffffffffffffffffffffffffffffffffff168373ffffffffffffffffffffffffffffffffffffffff167f17307eab39ab6107e8899845ad3d59bd9653f200f220920489ca2b5937696c3183604051611c2a9190612e08565b60405180910390a3505050565b611c428484846114fa565b611c4e848484846125e4565b611c8d576040517f08c379a0000000000000000000000000000000000000000000000000000000008152600401611c849061423b565b60405180910390fd5b50505050565b606060405180602001604052806000815250905090565b6060611cb582611139565b6000611cbf611c93565b90506000815111611cdf5760405180602001604052806000815250611d0a565b80611ce98461276c565b604051602001611cfa929190613e23565b6040516020818303038152906040525b915050919050565b600081600001549050919050565b600a81511115611d65576040517f08c379a0000000000000000000000000000000000000000000000000000000008152600401611d5c906142a7565b60405180910390fd5b600a60008381526020019081526020016000206000611d849190612c33565b6000805b8251811015611faf57600073ffffffffffffffffffffffffffffffffffffffff16838281518110611dbc57611dbb6142c7565b5b60200260200101516000015173ffffffffffffffffffffffffffffffffffffffff161415611e1f576040517f08c379a0000000000000000000000000000000000000000000000000000000008152600401611e1690614368565b60405180910390fd5b6000838281518110611e3457611e336142c7565b5b6020026020010151602001516bffffffffffffffffffffffff161415611e8f576040517f08c379a0000000000000000000000000000000000000000000000000000000008152600401611e86906143d4565b60405180910390fd5b600a6000858152602001908152602001600020838281518110611eb557611eb46142c7565b5b60200260200101519080600181540180825580915050600190039060005260206000200160009091909190915060008201518160000160006101000a81548173ffffffffffffffffffffffffffffffffffffffff021916908373ffffffffffffffffffffffffffffffffffffffff16021790555060208201518160000160146101000a8154816bffffffffffffffffffffffff02191690836bffffffffffffffffffffffff1602179055505050828181518110611f7557611f746142c7565b5b6020026020010151602001516bffffffffffffffffffffffff1682611f9a9190614107565b91508080611fa7906143f4565b915050611d88565b506127108110611ff4576040517f08c379a0000000000000000000000000000000000000000000000000000000008152600401611feb90614489565b60405180910390fd5b8160405161200291906145a5565b6040518091039020837fe23425cf56a81561c420f592eb54f21107c562f26c8c78c4a20d26920d244e6660405160405180910390a3505050565b612056828260405180602001604052806000815250612844565b5050565b612063826120e4565b6120a2576040517f08c379a00000000000000000000000000000000000000000000000000000000081526004016120999061462e565b60405180910390fd5b806006600084815260200190815260200160002090805190602001906120c9929190612c54565b505050565b6001816000016000828254019250508190555050565b60008073ffffffffffffffffffffffffffffffffffffffff1661210683611a8d565b73ffffffffffffffffffffffffffffffffffffffff1614159050919050565b6000811415612133576124b3565b60006008600085815260200190815260200160002060008473ffffffffffffffffffffffffffffffffffffffff1673ffffffffffffffffffffffffffffffffffffffff168152602001908152602001600020549050818110156121cb576040517f08c379a00000000000000000000000000000000000000000000000000000000081526004016121c2906146c0565b60405180910390fd5b600082826121d991906146e0565b9050806008600087815260200190815260200160002060008673ffffffffffffffffffffffffffffffffffffffff1673ffffffffffffffffffffffffffffffffffffffff1681526020019081526020016000208190555060008114156124b05760006001600960008881526020019081526020016000208054905061225e91906146e0565b90506000600960008881526020019081526020016000208281548110612287576122866142c7565b5b9060005260206000200160009054906101000a900473ffffffffffffffffffffffffffffffffffffffff1690508073ffffffffffffffffffffffffffffffffffffffff168673ffffffffffffffffffffffffffffffffffffffff1614612401576000600b600089815260200190815260200160002060008873ffffffffffffffffffffffffffffffffffffffff1673ffffffffffffffffffffffffffffffffffffffff16815260200190815260200160002054905081600960008a81526020019081526020016000208281548110612362576123616142c7565b5b9060005260206000200160006101000a81548173ffffffffffffffffffffffffffffffffffffffff021916908373ffffffffffffffffffffffffffffffffffffffff16021790555080600b60008a815260200190815260200160002060008473ffffffffffffffffffffffffffffffffffffffff1673ffffffffffffffffffffffffffffffffffffffff16815260200190815260200160002081905550505b600b600088815260200190815260200160002060008773ffffffffffffffffffffffffffffffffffffffff1673ffffffffffffffffffffffffffffffffffffffff168152602001908152602001600020600090556009600088815260200190815260200160002080548061247857612477614714565b5b6001900381819060005260206000200160006101000a81549073ffffffffffffffffffffffffffffffffffffffff0219169055905550505b50505b505050565b60018111156125d857600073ffffffffffffffffffffffffffffffffffffffff168473ffffffffffffffffffffffffffffffffffffffff161461254c5780600360008673ffffffffffffffffffffffffffffffffffffffff1673ffffffffffffffffffffffffffffffffffffffff168152602001908152602001600020600082825461254491906146e0565b925050819055505b600073ffffffffffffffffffffffffffffffffffffffff168373ffffffffffffffffffffffffffffffffffffffff16146125d75780600360008573ffffffffffffffffffffffffffffffffffffffff1673ffffffffffffffffffffffffffffffffffffffff16815260200190815260200160002060008282546125cf9190614107565b925050819055505b5b50505050565b50505050565b60006126058473ffffffffffffffffffffffffffffffffffffffff1661289f565b1561275f578373ffffffffffffffffffffffffffffffffffffffff1663150b7a0261262e611184565b8786866040518563ffffffff1660e01b81526004016126509493929190614798565b6020604051808303816000875af192505050801561268c57506040513d601f19601f8201168201806040525081019061268991906147f9565b60015b61270f573d80600081146126bc576040519150601f19603f3d011682016040523d82523d6000602084013e6126c1565b606091505b50600081511415612707576040517f08c379a00000000000000000000000000000000000000000000000000000000081526004016126fe9061423b565b60405180910390fd5b805181602001fd5b63150b7a0260e01b7bffffffffffffffffffffffffffffffffffffffffffffffffffffffff1916817bffffffffffffffffffffffffffffffffffffffffffffffffffffffff191614915050612764565b600190505b949350505050565b60606000600161277b846128c2565b01905060008167ffffffffffffffff81111561279a5761279961320b565b5b6040519080825280601f01601f1916602001820160405280156127cc5781602001600182028036833780820191505090505b509050600082602001820190505b600115612839578080600190039150507f3031323334353637383961626364656600000000000000000000000000000000600a86061a8153600a858161282357612822614826565b5b049450600085141561283457612839565b6127da565b819350505050919050565b61284e8383612a15565b61285b60008484846125e4565b61289a576040517f08c379a00000000000000000000000000000000000000000000000000000000081526004016128919061423b565b60405180910390fd5b505050565b6000808273ffffffffffffffffffffffffffffffffffffffff163b119050919050565b600080600090507a184f03e93ff9f4daa797ed6e38ed64bf6a1f0100000000000000008310612920577a184f03e93ff9f4daa797ed6e38ed64bf6a1f010000000000000000838161291657612915614826565b5b0492506040810190505b6d04ee2d6d415b85acef8100000000831061295d576d04ee2d6d415b85acef8100000000838161295357612952614826565b5b0492506020810190505b662386f26fc10000831061298c57662386f26fc10000838161298257612981614826565b5b0492506010810190505b6305f5e10083106129b5576305f5e10083816129ab576129aa614826565b5b0492506008810190505b61271083106129da5761271083816129d0576129cf614826565b5b0492506004810190505b606483106129fd57606483816129f3576129f2614826565b5b0492506002810190505b600a8310612a0c576001810190505b80915050919050565b600073ffffffffffffffffffffffffffffffffffffffff168273ffffffffffffffffffffffffffffffffffffffff161415612a85576040517f08c379a0000000000000000000000000000000000000000000000000000000008152600401612a7c906148a1565b60405180910390fd5b612a8e816120e4565b15612ace576040517f08c379a0000000000000000000000000000000000000000000000000000000008152600401612ac59061490d565b60405180910390fd5b612adc6000838360016124b8565b612ae5816120e4565b15612b25576040517f08c379a0000000000000000000000000000000000000000000000000000000008152600401612b1c9061490d565b60405180910390fd5b6001600360008473ffffffffffffffffffffffffffffffffffffffff1673ffffffffffffffffffffffffffffffffffffffff16815260200190815260200160002060008282540192505081905550816002600083815260200190815260200160002060006101000a81548173ffffffffffffffffffffffffffffffffffffffff021916908373ffffffffffffffffffffffffffffffffffffffff160217905550808273ffffffffffffffffffffffffffffffffffffffff16600073ffffffffffffffffffffffffffffffffffffffff167fddf252ad1be2c89b69c2b068fc378daa952ba7f163c4a11628f55a4df523b3ef60405160405180910390a4612c2f6000838360016125de565b5050565b5080546000825590600052602060002090810190612c519190612cda565b50565b828054612c60906138d8565b90600052602060002090601f016020900481019282612c825760008555612cc9565b82601f10612c9b57805160ff1916838001178555612cc9565b82800160010185558215612cc9579182015b82811115612cc8578251825591602001919060010190612cad565b5b509050612cd69190612d37565b5090565b5b80821115612d3357600080820160006101000a81549073ffffffffffffffffffffffffffffffffffffffff02191690556000820160146101000a8154906bffffffffffffffffffffffff021916905550600101612cdb565b5090565b5b80821115612d50576000816000905550600101612d38565b5090565b6000604051905090565b600080fd5b600080fd5b60007fffffffff0000000000000000000000000000000000000000000000000000000082169050919050565b612d9d81612d68565b8114612da857600080fd5b50565b600081359050612dba81612d94565b92915050565b600060208284031215612dd657612dd5612d5e565b5b6000612de484828501612dab565b91505092915050565b60008115159050919050565b612e0281612ded565b82525050565b6000602082019050612e1d6000830184612df9565b92915050565b600081519050919050565b600082825260208201905092915050565b60005b83811015612e5d578082015181840152602081019050612e42565b83811115612e6c576000848401525b50505050565b6000601f19601f8301169050919050565b6000612e8e82612e23565b612e988185612e2e565b9350612ea8818560208601612e3f565b612eb181612e72565b840191505092915050565b60006020820190508181036000830152612ed68184612e83565b905092915050565b6000819050919050565b612ef181612ede565b8114612efc57600080fd5b50565b600081359050612f0e81612ee8565b92915050565b600060208284031215612f2a57612f29612d5e565b5b6000612f3884828501612eff565b91505092915050565b600073ffffffffffffffffffffffffffffffffffffffff82169050919050565b6000612f6c82612f41565b9050919050565b612f7c81612f61565b82525050565b6000602082019050612f976000830184612f73565b92915050565b612fa681612f61565b8114612fb157600080fd5b50565b600081359050612fc381612f9d565b92915050565b60008060408385031215612fe057612fdf612d5e565b5b6000612fee85828601612fb4565b9250506020612fff85828601612eff565b9150509250929050565b600080600080600060a0868803121561302557613024612d5e565b5b600061303388828901612eff565b955050602061304488828901612fb4565b945050604061305588828901612fb4565b935050606061306688828901612fb4565b925050608061307788828901612eff565b9150509295509295909350565b60008060006060848603121561309d5761309c612d5e565b5b60006130ab86828701612fb4565b93505060206130bc86828701612fb4565b92505060406130cd86828701612eff565b9150509250925092565b600080600080608085870312156130f1576130f0612d5e565b5b60006130ff87828801612fb4565b945050602061311087828801612eff565b935050604061312187828801612fb4565b925050606061313287828801612eff565b91505092959194509250565b60006020828403121561315457613153612d5e565b5b600061316284828501612fb4565b91505092915050565b61317481612ede565b82525050565b600060208201905061318f600083018461316b565b92915050565b61319e81612ded565b81146131a957600080fd5b50565b6000813590506131bb81613195565b92915050565b600080604083850312156131d8576131d7612d5e565b5b60006131e685828601612fb4565b92505060206131f7858286016131ac565b9150509250929050565b600080fd5b600080fd5b7f4e487b7100000000000000000000000000000000000000000000000000000000600052604160045260246000fd5b61324382612e72565b810181811067ffffffffffffffff821117156132625761326161320b565b5b80604052505050565b6000613275612d54565b9050613281828261323a565b919050565b600067ffffffffffffffff8211156132a1576132a061320b565b5b6132aa82612e72565b9050602081019050919050565b82818337600083830152505050565b60006132d96132d484613286565b61326b565b9050828152602081018484840111156132f5576132f4613206565b5b6133008482856132b7565b509392505050565b600082601f83011261331d5761331c613201565b5b813561332d8482602086016132c6565b91505092915050565b600080600080608085870312156133505761334f612d5e565b5b600061335e87828801612fb4565b945050602061336f87828801612fb4565b935050604061338087828801612eff565b925050606085013567ffffffffffffffff8111156133a1576133a0612d63565b5b6133ad87828801613308565b91505092959194509250565b600081519050919050565b600082825260208201905092915050565b6000819050602082019050919050565b60006133f082612f41565b9050919050565b613400816133e5565b82525050565b60006bffffffffffffffffffffffff82169050919050565b61342781613406565b82525050565b60408201600082015161344360008501826133f7565b506020820151613456602085018261341e565b50505050565b6000613468838361342d565b60408301905092915050565b6000602082019050919050565b600061348c826133b9565b61349681856133c4565b93506134a1836133d5565b8060005b838110156134d25781516134b9888261345c565b97506134c483613474565b9250506001810190506134a5565b5085935050505092915050565b600060208201905081810360008301526134f98184613481565b905092915050565b6000806040838503121561351857613517612d5e565b5b600061352685828601612eff565b925050602061353785828601612fb4565b9150509250929050565b6000806040838503121561355857613557612d5e565b5b600061356685828601612fb4565b925050602061357785828601612fb4565b9150509250929050565b600067ffffffffffffffff82111561359c5761359b61320b565b5b6135a582612e72565b9050602081019050919050565b60006135c56135c084613581565b61326b565b9050828152602081018484840111156135e1576135e0613206565b5b6135ec8482856132b7565b509392505050565b600082601f83011261360957613608613201565b5b81356136198482602086016135b2565b91505092915050565b600067ffffffffffffffff82111561363d5761363c61320b565b5b602082029050602081019050919050565b600080fd5b600080fd5b613661816133e5565b811461366c57600080fd5b50565b60008135905061367e81613658565b92915050565b61368d81613406565b811461369857600080fd5b50565b6000813590506136aa81613684565b92915050565b6000604082840312156136c6576136c5613653565b5b6136d0604061326b565b905060006136e08482850161366f565b60008301525060206136f48482850161369b565b60208301525092915050565b600061371361370e84613622565b61326b565b905080838252602082019050604084028301858111156137365761373561364e565b5b835b8181101561375f578061374b88826136b0565b845260208401935050604081019050613738565b5050509392505050565b600082601f83011261377e5761377d613201565b5b813561378e848260208601613700565b91505092915050565b6000806000606084860312156137b0576137af612d5e565b5b60006137be86828701612fb4565b935050602084013567ffffffffffffffff8111156137df576137de612d63565b5b6137eb868287016135f4565b925050604084013567ffffffffffffffff81111561380c5761380b612d63565b5b61381886828701613769565b9150509250925092565b6000806040838503121561383957613838612d5e565b5b600061384785828601612eff565b925050602061385885828601612eff565b9150509250929050565b61386b816133e5565b82525050565b61387a81613406565b82525050565b60006040820190506138956000830185613862565b6138a26020830184613871565b9392505050565b7f4e487b7100000000000000000000000000000000000000000000000000000000600052602260045260246000fd5b600060028204905060018216806138f057607f821691505b60208210811415613904576139036138a9565b5b50919050565b7f4552433732313a20617070726f76616c20746f2063757272656e74206f776e6560008201527f7200000000000000000000000000000000000000000000000000000000000000602082015250565b6000613966602183612e2e565b91506139718261390a565b604082019050919050565b6000602082019050818103600083015261399581613959565b9050919050565b7f4552433732313a20617070726f76652063616c6c6572206973206e6f7420746f60008201527f6b656e206f776e6572206f7220617070726f76656420666f7220616c6c000000602082015250565b60006139f8603d83612e2e565b9150613a038261399c565b604082019050919050565b60006020820190508181036000830152613a27816139eb565b9050919050565b7f4f6e6c7920746f6b656e206f776e65722063616e206578656375746500000000600082015250565b6000613a64601c83612e2e565b9150613a6f82613a2e565b602082019050919050565b60006020820190508181036000830152613a9381613a57565b9050919050565b7f63616e6e6f74207472616e7366657220746f207a65726f206164647265737300600082015250565b6000613ad0601f83612e2e565b9150613adb82613a9a565b602082019050919050565b60006020820190508181036000830152613aff81613ac3565b9050919050565b7f4552433732313a2063616c6c6572206973206e6f7420746f6b656e206f776e6560008201527f72206f7220617070726f76656400000000000000000000000000000000000000602082015250565b6000613b62602d83612e2e565b9150613b6d82613b06565b604082019050919050565b60006020820190508181036000830152613b9181613b55565b9050919050565b7f6e6f7420616c6c6f77656420746f206164642045524332300000000000000000600082015250565b6000613bce601883612e2e565b9150613bd982613b98565b602082019050919050565b60006020820190508181036000830152613bfd81613bc1565b9050919050565b6000606082019050613c196000830186612f73565b613c266020830185612f73565b613c33604083018461316b565b949350505050565b600081519050613c4a81613195565b92915050565b600060208284031215613c6657613c65612d5e565b5b6000613c7484828501613c3b565b91505092915050565b7f4552433230207472616e73666572206661696c65642e00000000000000000000600082015250565b6000613cb3601683612e2e565b9150613cbe82613c7d565b602082019050919050565b60006020820190508181036000830152613ce281613ca6565b9050919050565b7f4552433732313a20696e76616c696420746f6b656e2049440000000000000000600082015250565b6000613d1f601883612e2e565b9150613d2a82613ce9565b602082019050919050565b60006020820190508181036000830152613d4e81613d12565b9050919050565b7f4552433732313a2061646472657373207a65726f206973206e6f74206120766160008201527f6c6964206f776e65720000000000000000000000000000000000000000000000602082015250565b6000613db1602983612e2e565b9150613dbc82613d55565b604082019050919050565b60006020820190508181036000830152613de081613da4565b9050919050565b600081905092915050565b6000613dfd82612e23565b613e078185613de7565b9350613e17818560208601612e3f565b80840191505092915050565b6000613e2f8285613df2565b9150613e3b8284613df2565b91508190509392505050565b7f63616e6e6f742073656e6420746f207a65726f20616464726573730000000000600082015250565b6000613e7d601b83612e2e565b9150613e8882613e47565b602082019050919050565b60006020820190508181036000830152613eac81613e70565b9050919050565b7f6f6e6c79206f776e65722063616e207472616e73666572000000000000000000600082015250565b6000613ee9601783612e2e565b9150613ef482613eb3565b602082019050919050565b60006020820190508181036000830152613f1881613edc565b9050919050565b6000604082019050613f346000830185612f73565b613f41602083018461316b565b9392505050565b7f4552433732313a207472616e736665722066726f6d20696e636f72726563742060008201527f6f776e6572000000000000000000000000000000000000000000000000000000602082015250565b6000613fa4602583612e2e565b9150613faf82613f48565b604082019050919050565b60006020820190508181036000830152613fd381613f97565b9050919050565b7f4552433732313a207472616e7366657220746f20746865207a65726f2061646460008201527f7265737300000000000000000000000000000000000000000000000000000000602082015250565b6000614036602483612e2e565b915061404182613fda565b604082019050919050565b6000602082019050818103600083015261406581614029565b9050919050565b7f5f746f6b656e496420646f6573206e6f742065786973742e0000000000000000600082015250565b60006140a2601883612e2e565b91506140ad8261406c565b602082019050919050565b600060208201905081810360008301526140d181614095565b9050919050565b7f4e487b7100000000000000000000000000000000000000000000000000000000600052601160045260246000fd5b600061411282612ede565b915061411d83612ede565b9250827fffffffffffffffffffffffffffffffffffffffffffffffffffffffffffffffff03821115614152576141516140d8565b5b828201905092915050565b7f4552433732313a20617070726f766520746f2063616c6c657200000000000000600082015250565b6000614193601983612e2e565b915061419e8261415d565b602082019050919050565b600060208201905081810360008301526141c281614186565b9050919050565b7f4552433732313a207472616e7366657220746f206e6f6e20455243373231526560008201527f63656976657220696d706c656d656e7465720000000000000000000000000000602082015250565b6000614225603283612e2e565b9150614230826141c9565b604082019050919050565b6000602082019050818103600083015261425481614218565b9050919050565b7f41746d6f737420313020726f79616c746965732063616e206265206164646564600082015250565b6000614291602083612e2e565b915061429c8261425b565b602082019050919050565b600060208201905081810360008301526142c081614284565b9050919050565b7f4e487b7100000000000000000000000000000000000000000000000000000000600052603260045260246000fd5b7f526f79616c747920726563697069656e742073686f756c64206265207072657360008201527f656e740000000000000000000000000000000000000000000000000000000000602082015250565b6000614352602383612e2e565b915061435d826142f6565b604082019050919050565b6000602082019050818103600083015261438181614345565b9050919050565b7f526f79616c74792076616c75652073686f756c64206265203e20300000000000600082015250565b60006143be601b83612e2e565b91506143c982614388565b602082019050919050565b600060208201905081810360008301526143ed816143b1565b9050919050565b60006143ff82612ede565b91507fffffffffffffffffffffffffffffffffffffffffffffffffffffffffffffffff821415614432576144316140d8565b5b600182019050919050565b7f53756d206f6620526f79616c74696573203e2031303025000000000000000000600082015250565b6000614473601783612e2e565b915061447e8261443d565b602082019050919050565b600060208201905081810360008301526144a281614466565b9050919050565b600081905092915050565b6144bd816133e5565b82525050565b60006144cf83836144b4565b60208301905092915050565b6144e481613406565b82525050565b60006144f683836144db565b60208301905092915050565b60008201600082015161451584826144c3565b935050602082015161452784826144ea565b935050505050565b600061453b8383614502565b60408301905092915050565b6000614552826133b9565b61455c81856144a9565b9350614567836133d5565b8060005b8381101561459857815161457f888261452f565b975061458a83613474565b92505060018101905061456b565b5085935050505092915050565b60006145b18284614547565b915081905092915050565b7f45524337323155524953746f726167653a2055524920736574206f66206e6f6e60008201527f6578697374656e7420746f6b656e000000000000000000000000000000000000602082015250565b6000614618602e83612e2e565b9150614623826145bc565b604082019050919050565b600060208201905081810360008301526146478161460b565b9050919050565b7f4e6f7420656e6f75676820746f6b656e20617661696c61626c6520746f20747260008201527f616e736665722e00000000000000000000000000000000000000000000000000602082015250565b60006146aa602783612e2e565b91506146b58261464e565b604082019050919050565b600060208201905081810360008301526146d98161469d565b9050919050565b60006146eb82612ede565b91506146f683612ede565b925082821015614709576147086140d8565b5b828203905092915050565b7f4e487b7100000000000000000000000000000000000000000000000000000000600052603160045260246000fd5b600081519050919050565b600082825260208201905092915050565b600061476a82614743565b614774818561474e565b9350614784818560208601612e3f565b61478d81612e72565b840191505092915050565b60006080820190506147ad6000830187612f73565b6147ba6020830186612f73565b6147c7604083018561316b565b81810360608301526147d9818461475f565b905095945050505050565b6000815190506147f381612d94565b92915050565b60006020828403121561480f5761480e612d5e565b5b600061481d848285016147e4565b91505092915050565b7f4e487b7100000000000000000000000000000000000000000000000000000000600052601260045260246000fd5b7f4552433732313a206d696e7420746f20746865207a65726f2061646472657373600082015250565b600061488b602083612e2e565b915061489682614855565b602082019050919050565b600060208201905081810360008301526148ba8161487e565b9050919050565b7f4552433732313a20746f6b656e20616c7265616479206d696e74656400000000600082015250565b60006148f7601c83612e2e565b9150614902826148c1565b602082019050919050565b60006020820190508181036000830152614926816148ea565b905091905056fea26469706673582212200189743545c709131e61e5bece472b705f9b0da8228a0aad60d413c50bd8439364736f6c634300080b0033",
  "immutableReferences": {},
  "source": "// SPDX-License-Identifier: MIT\npragma solidity >=0.4.22 <0.9.0;\n\nimport \"@openzeppelin/contracts/token/ERC20/IERC20.sol\";\nimport \"@openzeppelin/contracts/token/ERC721/extensions/ERC721URIStorage.sol\";\nimport \"@openzeppelin/contracts/utils/Counters.sol\";\nimport \"./utils/LibShare.sol\";\nimport \"./Libraries/LibPool.sol\";\n\ncontract piNFT is ERC721URIStorage {\n    using Counters for Counters.Counter;\n    Counters.Counter private _tokenIdCounter;\n\n    // tokenId => (token contract => balance)\n    mapping(uint256 => mapping(address => uint256)) erc20Balances;\n\n    // tokenId => token contract\n    mapping(uint256 => address[]) erc20Contracts;\n\n    // tokenId => royalties\n    mapping(uint256 => LibShare.Share[]) public royaltiesByTokenId;\n\n    // tokenId => (token contract => token contract index)\n    mapping(uint256 => mapping(address => uint256)) erc20ContractIndex;\n\n    event ReceivedERC20(\n        address indexed _from,\n        uint256 indexed _tokenId,\n        address indexed _erc20Contract,\n        uint256 _value\n    );\n    event TransferERC20(\n        uint256 indexed _tokenId,\n        address indexed _to,\n        address indexed _erc20Contract,\n        uint256 _value\n    );\n    event RoyaltiesSetForTokenId(\n        uint256 indexed tokenId,\n        LibShare.Share[] indexed royalties\n    );\n\n    constructor(string memory _name, string memory _symbol)\n        ERC721(_name, _symbol)\n    {}\n\n    modifier onlyOwnerOfToken(uint256 _tokenId) {\n        require(\n            msg.sender == ERC721.ownerOf(_tokenId),\n            \"Only token owner can execute\"\n        );\n        _;\n    }\n\n    // mints an ERC721 token to _to with _uri as token uri\n    function mintNFT(\n        address _to,\n        string memory _uri,\n        LibShare.Share[] memory royalties\n    ) public returns (uint256) {\n        uint256 tokenId_ = _tokenIdCounter.current();\n        _setRoyaltiesByTokenId(tokenId_, royalties);\n        _safeMint(_to, tokenId_);\n        _setTokenURI(tokenId_, _uri);\n        _tokenIdCounter.increment();\n        return tokenId_;\n    }\n\n    function _setRoyaltiesByTokenId(\n        uint256 _tokenId,\n        LibShare.Share[] memory royalties\n    ) internal {\n        require(royalties.length <= 10, \"Atmost 10 royalties can be added\");\n        delete royaltiesByTokenId[_tokenId];\n        uint256 sumRoyalties = 0;\n        for (uint256 i = 0; i < royalties.length; i++) {\n            require(\n                royalties[i].account != address(0x0),\n                \"Royalty recipient should be present\"\n            );\n            require(royalties[i].value != 0, \"Royalty value should be > 0\");\n            royaltiesByTokenId[_tokenId].push(royalties[i]);\n            sumRoyalties += royalties[i].value;\n        }\n        require(sumRoyalties < 10000, \"Sum of Royalties > 100%\");\n\n        emit RoyaltiesSetForTokenId(_tokenId, royalties);\n    }\n\n    function getRoyalties(uint256 _tokenId)\n        external\n        view\n        returns (LibShare.Share[] memory)\n    {\n        return royaltiesByTokenId[_tokenId];\n    }\n\n    // this function requires approval of tokens by _erc20Contract\n    // adds ERC20 tokens to the token with _tokenId(basically trasnfer ERC20 to this contract)\n    function addERC20(\n        address _from,\n        uint256 _tokenId,\n        address _erc20Contract,\n        uint256 _value\n    ) public {\n        require(_from == msg.sender, \"not allowed to add ERC20\");\n        erc20Received(_from, _tokenId, _erc20Contract, _value);\n        require(\n            IERC20(_erc20Contract).transferFrom(_from, address(this), _value),\n            \"ERC20 transfer failed.\"\n        );\n    }\n\n    // update the mappings for a token on recieving ERC20 tokens\n    function erc20Received(\n        address _from,\n        uint256 _tokenId,\n        address _erc20Contract,\n        uint256 _value\n    ) private {\n        require(\n            ERC721.ownerOf(_tokenId) != address(0),\n            \"_tokenId does not exist.\"\n        );\n        if (_value == 0) {\n            return;\n        }\n        uint256 erc20Balance = erc20Balances[_tokenId][_erc20Contract];\n        if (erc20Balance == 0) {\n            erc20ContractIndex[_tokenId][_erc20Contract] = erc20Contracts[\n                _tokenId\n            ].length;\n            erc20Contracts[_tokenId].push(_erc20Contract);\n        }\n        erc20Balances[_tokenId][_erc20Contract] += _value;\n        emit ReceivedERC20(_from, _tokenId, _erc20Contract, _value);\n    }\n\n    function redeemPiNFT(\n        uint256 _tokenId,\n        address _nftReciever,\n        address _validatorAddress,\n        address _erc20Contract,\n        uint256 _value\n    ) external onlyOwnerOfToken(_tokenId) {\n        require(_nftReciever != address(0), \"cannot transfer to zero address\");\n        _transferERC20(_tokenId, _validatorAddress, _erc20Contract, _value);\n        ERC721.safeTransferFrom(msg.sender, _nftReciever, _tokenId);\n    }\n\n    function burnPiNFT(\n        uint256 _tokenId,\n        address _nftReciever,\n        address _erc20Reciever,\n        address _erc20Contract,\n        uint256 _value\n    ) external onlyOwnerOfToken(_tokenId) {\n        require(_nftReciever != address(0), \"cannot transfer to zero address\");\n        _transferERC20(_tokenId, _erc20Reciever, _erc20Contract, _value);\n        ERC721.safeTransferFrom(msg.sender, _nftReciever, _tokenId);\n    }\n\n    // transfers the ERC 20 tokens from _tokenId(this contract) to _to address\n    function _transferERC20(\n        uint256 _tokenId,\n        address _to,\n        address _erc20Contract,\n        uint256 _value\n    ) private {\n        require(_to != address(0), \"cannot send to zero address\");\n        address rootOwner = ERC721.ownerOf(_tokenId);\n        require(rootOwner == msg.sender, \"only owner can transfer\");\n        removeERC20(_tokenId, _erc20Contract, _value);\n        require(\n            IERC20(_erc20Contract).transfer(_to, _value),\n            \"ERC20 transfer failed.\"\n        );\n        emit TransferERC20(_tokenId, _to, _erc20Contract, _value);\n    }\n\n    // update the mappings for a token when ERC20 tokens gets removed\n    function removeERC20(\n        uint256 _tokenId,\n        address _erc20Contract,\n        uint256 _value\n    ) private {\n        if (_value == 0) {\n            return;\n        }\n        uint256 erc20Balance = erc20Balances[_tokenId][_erc20Contract];\n        require(\n            erc20Balance >= _value,\n            \"Not enough token available to transfer.\"\n        );\n        uint256 newERC20Balance = erc20Balance - _value;\n        erc20Balances[_tokenId][_erc20Contract] = newERC20Balance;\n        if (newERC20Balance == 0) {\n            uint256 lastContractIndex = erc20Contracts[_tokenId].length - 1;\n            address lastContract = erc20Contracts[_tokenId][lastContractIndex];\n            if (_erc20Contract != lastContract) {\n                uint256 contractIndex = erc20ContractIndex[_tokenId][\n                    _erc20Contract\n                ];\n                erc20Contracts[_tokenId][contractIndex] = lastContract;\n                erc20ContractIndex[_tokenId][lastContract] = contractIndex;\n            }\n            delete erc20ContractIndex[_tokenId][_erc20Contract];\n            erc20Contracts[_tokenId].pop();\n        }\n    }\n\n    // view ERC 20 token balance of a token\n    function viewBalance(uint256 _tokenId, address _erc20Address)\n        public\n        view\n        returns (uint256)\n    {\n        return erc20Balances[_tokenId][_erc20Address];\n    }\n}\n",
  "sourcePath": "/Users/sanskarkhare/Desktop/Pandora/aconomy-pool-v1/contracts/piNFT.sol",
  "compiler": {
    "name": "solc",
    "version": "0.8.11+commit.d7f03943.Emscripten.clang"
  },
  "schemaVersion": "3.4.4",
  "updatedAt": "2023-01-25T11:52:49.262Z",
  "devdoc": {
    "kind": "dev",
    "methods": {
      "approve(address,uint256)": {
        "details": "See {IERC721-approve}."
      },
      "balanceOf(address)": {
        "details": "See {IERC721-balanceOf}."
      },
      "getApproved(uint256)": {
        "details": "See {IERC721-getApproved}."
      },
      "isApprovedForAll(address,address)": {
        "details": "See {IERC721-isApprovedForAll}."
      },
      "name()": {
        "details": "See {IERC721Metadata-name}."
      },
      "ownerOf(uint256)": {
        "details": "See {IERC721-ownerOf}."
      },
      "safeTransferFrom(address,address,uint256)": {
        "details": "See {IERC721-safeTransferFrom}."
      },
      "safeTransferFrom(address,address,uint256,bytes)": {
        "details": "See {IERC721-safeTransferFrom}."
      },
      "setApprovalForAll(address,bool)": {
        "details": "See {IERC721-setApprovalForAll}."
      },
      "supportsInterface(bytes4)": {
        "details": "See {IERC165-supportsInterface}."
      },
      "symbol()": {
        "details": "See {IERC721Metadata-symbol}."
      },
      "tokenURI(uint256)": {
        "details": "See {IERC721Metadata-tokenURI}."
      },
      "transferFrom(address,address,uint256)": {
        "details": "See {IERC721-transferFrom}."
      }
    },
    "version": 1
  },
  "userdoc": {
    "kind": "user",
    "methods": {},
    "version": 1
  }
}