{
  "contractName": "piNFT",
  "abi": [
    {
      "inputs": [
        {
          "internalType": "string",
          "name": "_name",
          "type": "string"
        },
        {
          "internalType": "string",
          "name": "_symbol",
          "type": "string"
        }
      ],
      "stateMutability": "nonpayable",
      "type": "constructor"
    },
    {
      "anonymous": false,
      "inputs": [
        {
          "indexed": true,
          "internalType": "address",
          "name": "owner",
          "type": "address"
        },
        {
          "indexed": true,
          "internalType": "address",
          "name": "approved",
          "type": "address"
        },
        {
          "indexed": true,
          "internalType": "uint256",
          "name": "tokenId",
          "type": "uint256"
        }
      ],
      "name": "Approval",
      "type": "event"
    },
    {
      "anonymous": false,
      "inputs": [
        {
          "indexed": true,
          "internalType": "address",
          "name": "owner",
          "type": "address"
        },
        {
          "indexed": true,
          "internalType": "address",
          "name": "operator",
          "type": "address"
        },
        {
          "indexed": false,
          "internalType": "bool",
          "name": "approved",
          "type": "bool"
        }
      ],
      "name": "ApprovalForAll",
      "type": "event"
    },
    {
      "anonymous": false,
      "inputs": [
        {
          "indexed": true,
          "internalType": "address",
          "name": "_from",
          "type": "address"
        },
        {
          "indexed": true,
          "internalType": "uint256",
          "name": "_tokenId",
          "type": "uint256"
        },
        {
          "indexed": true,
          "internalType": "address",
          "name": "_erc20Contract",
          "type": "address"
        },
        {
          "indexed": false,
          "internalType": "uint256",
          "name": "_value",
          "type": "uint256"
        }
      ],
      "name": "ERC20Added",
      "type": "event"
    },
    {
      "anonymous": false,
      "inputs": [
        {
          "indexed": true,
          "internalType": "uint256",
          "name": "_tokenId",
          "type": "uint256"
        },
        {
          "indexed": true,
          "internalType": "address",
          "name": "_to",
          "type": "address"
        },
        {
          "indexed": true,
          "internalType": "address",
          "name": "_erc20Contract",
          "type": "address"
        },
        {
          "indexed": false,
          "internalType": "uint256",
          "name": "_value",
          "type": "uint256"
        }
      ],
      "name": "ERC20Transferred",
      "type": "event"
    },
    {
      "anonymous": false,
      "inputs": [
        {
          "indexed": false,
          "internalType": "uint256",
          "name": "tokenId",
          "type": "uint256"
        },
        {
          "indexed": false,
          "internalType": "address",
          "name": "nftReciever",
          "type": "address"
        },
        {
          "indexed": false,
          "internalType": "address",
          "name": "erc20Receiver",
          "type": "address"
        },
        {
          "indexed": false,
          "internalType": "address",
          "name": "erc20Contract",
          "type": "address"
        },
        {
          "indexed": false,
          "internalType": "uint256",
          "name": "value",
          "type": "uint256"
        }
      ],
      "name": "PiNFTBurnt",
      "type": "event"
    },
    {
      "anonymous": false,
      "inputs": [
        {
          "indexed": false,
          "internalType": "uint256",
          "name": "tokenId",
          "type": "uint256"
        },
        {
          "indexed": false,
          "internalType": "address",
          "name": "nftReciever",
          "type": "address"
        },
        {
          "indexed": false,
          "internalType": "address",
          "name": "validatorAddress",
          "type": "address"
        },
        {
          "indexed": false,
          "internalType": "address",
          "name": "erc20Contract",
          "type": "address"
        },
        {
          "indexed": false,
          "internalType": "uint256",
          "name": "value",
          "type": "uint256"
        }
      ],
      "name": "PiNFTRedeemed",
      "type": "event"
    },
    {
      "anonymous": false,
      "inputs": [
        {
          "indexed": true,
          "internalType": "uint256",
          "name": "tokenId",
          "type": "uint256"
        },
        {
          "components": [
            {
              "internalType": "address payable",
              "name": "account",
              "type": "address"
            },
            {
              "internalType": "uint96",
              "name": "value",
              "type": "uint96"
            }
          ],
          "indexed": true,
          "internalType": "struct LibShare.Share[]",
          "name": "royalties",
          "type": "tuple[]"
        }
      ],
      "name": "RoyaltiesSetForTokenId",
      "type": "event"
    },
    {
      "anonymous": false,
      "inputs": [
        {
          "indexed": true,
          "internalType": "uint256",
          "name": "tokenId",
          "type": "uint256"
        },
        {
          "components": [
            {
              "internalType": "address payable",
              "name": "account",
              "type": "address"
            },
            {
              "internalType": "uint96",
              "name": "value",
              "type": "uint96"
            }
          ],
          "indexed": true,
          "internalType": "struct LibShare.Share[]",
          "name": "royalties",
          "type": "tuple[]"
        }
      ],
      "name": "RoyaltiesSetForValidator",
      "type": "event"
    },
    {
      "anonymous": false,
      "inputs": [
        {
          "indexed": false,
          "internalType": "uint256",
          "name": "tokenId",
          "type": "uint256"
        },
        {
          "indexed": false,
          "internalType": "address",
          "name": "to",
          "type": "address"
        }
      ],
      "name": "TokenMinted",
      "type": "event"
    },
    {
      "anonymous": false,
      "inputs": [
        {
          "indexed": true,
          "internalType": "address",
          "name": "from",
          "type": "address"
        },
        {
          "indexed": true,
          "internalType": "address",
          "name": "to",
          "type": "address"
        },
        {
          "indexed": true,
          "internalType": "uint256",
          "name": "tokenId",
          "type": "uint256"
        }
      ],
      "name": "Transfer",
      "type": "event"
    },
    {
      "anonymous": false,
      "inputs": [
        {
          "indexed": false,
          "internalType": "uint256",
          "name": "tokenId",
          "type": "uint256"
        },
        {
          "indexed": false,
          "internalType": "address",
          "name": "validator",
          "type": "address"
        }
      ],
      "name": "ValidatorAdded",
      "type": "event"
    },
    {
      "anonymous": false,
      "inputs": [
        {
          "indexed": false,
          "internalType": "address",
          "name": "repayer",
          "type": "address"
        },
        {
          "indexed": false,
          "internalType": "uint256",
          "name": "tokenId",
          "type": "uint256"
        },
        {
          "indexed": false,
          "internalType": "address",
          "name": "erc20Contract",
          "type": "address"
        },
        {
          "indexed": false,
          "internalType": "uint256",
          "name": "amount",
          "type": "uint256"
        }
      ],
      "name": "ValidatorFundsRepayed",
      "type": "event"
    },
    {
      "anonymous": false,
      "inputs": [
        {
          "indexed": false,
          "internalType": "address",
          "name": "withdrawer",
          "type": "address"
        },
        {
          "indexed": false,
          "internalType": "uint256",
          "name": "tokenId",
          "type": "uint256"
        },
        {
          "indexed": false,
          "internalType": "address",
          "name": "erc20Contract",
          "type": "address"
        },
        {
          "indexed": false,
          "internalType": "uint256",
          "name": "amount",
          "type": "uint256"
        }
      ],
      "name": "ValidatorFundsWithdrawn",
      "type": "event"
    },
    {
      "inputs": [
        {
          "internalType": "address",
          "name": "to",
          "type": "address"
        },
        {
          "internalType": "uint256",
          "name": "tokenId",
          "type": "uint256"
        }
      ],
      "name": "approve",
      "outputs": [],
      "stateMutability": "nonpayable",
      "type": "function"
    },
    {
      "inputs": [
        {
          "internalType": "uint256",
          "name": "",
          "type": "uint256"
        }
      ],
      "name": "approvedValidator",
      "outputs": [
        {
          "internalType": "address",
          "name": "",
          "type": "address"
        }
      ],
      "stateMutability": "view",
      "type": "function"
    },
    {
      "inputs": [
        {
          "internalType": "address",
          "name": "owner",
          "type": "address"
        }
      ],
      "name": "balanceOf",
      "outputs": [
        {
          "internalType": "uint256",
          "name": "",
          "type": "uint256"
        }
      ],
      "stateMutability": "view",
      "type": "function"
    },
    {
      "inputs": [
        {
          "internalType": "uint256",
          "name": "tokenId",
          "type": "uint256"
        }
      ],
      "name": "getApproved",
      "outputs": [
        {
          "internalType": "address",
          "name": "",
          "type": "address"
        }
      ],
      "stateMutability": "view",
      "type": "function"
    },
    {
      "inputs": [
        {
          "internalType": "address",
          "name": "owner",
          "type": "address"
        },
        {
          "internalType": "address",
          "name": "operator",
          "type": "address"
        }
      ],
      "name": "isApprovedForAll",
      "outputs": [
        {
          "internalType": "bool",
          "name": "",
          "type": "bool"
        }
      ],
      "stateMutability": "view",
      "type": "function"
    },
    {
      "inputs": [],
      "name": "name",
      "outputs": [
        {
          "internalType": "string",
          "name": "",
          "type": "string"
        }
      ],
      "stateMutability": "view",
      "type": "function"
    },
    {
      "inputs": [
        {
          "internalType": "uint256",
          "name": "tokenId",
          "type": "uint256"
        }
      ],
      "name": "ownerOf",
      "outputs": [
        {
          "internalType": "address",
          "name": "",
          "type": "address"
        }
      ],
      "stateMutability": "view",
      "type": "function"
    },
    {
      "inputs": [
        {
          "internalType": "uint256",
          "name": "",
          "type": "uint256"
        },
        {
          "internalType": "uint256",
          "name": "",
          "type": "uint256"
        }
      ],
      "name": "royaltiesByTokenId",
      "outputs": [
        {
          "internalType": "address payable",
          "name": "account",
          "type": "address"
        },
        {
          "internalType": "uint96",
          "name": "value",
          "type": "uint96"
        }
      ],
      "stateMutability": "view",
      "type": "function"
    },
    {
      "inputs": [
        {
          "internalType": "uint256",
          "name": "",
          "type": "uint256"
        },
        {
          "internalType": "uint256",
          "name": "",
          "type": "uint256"
        }
      ],
      "name": "royaltiesForValidator",
      "outputs": [
        {
          "internalType": "address payable",
          "name": "account",
          "type": "address"
        },
        {
          "internalType": "uint96",
          "name": "value",
          "type": "uint96"
        }
      ],
      "stateMutability": "view",
      "type": "function"
    },
    {
      "inputs": [
        {
          "internalType": "address",
          "name": "from",
          "type": "address"
        },
        {
          "internalType": "address",
          "name": "to",
          "type": "address"
        },
        {
          "internalType": "uint256",
          "name": "tokenId",
          "type": "uint256"
        }
      ],
      "name": "safeTransferFrom",
      "outputs": [],
      "stateMutability": "nonpayable",
      "type": "function"
    },
    {
      "inputs": [
        {
          "internalType": "address",
          "name": "from",
          "type": "address"
        },
        {
          "internalType": "address",
          "name": "to",
          "type": "address"
        },
        {
          "internalType": "uint256",
          "name": "tokenId",
          "type": "uint256"
        },
        {
          "internalType": "bytes",
          "name": "data",
          "type": "bytes"
        }
      ],
      "name": "safeTransferFrom",
      "outputs": [],
      "stateMutability": "nonpayable",
      "type": "function"
    },
    {
      "inputs": [
        {
          "internalType": "address",
          "name": "operator",
          "type": "address"
        },
        {
          "internalType": "bool",
          "name": "approved",
          "type": "bool"
        }
      ],
      "name": "setApprovalForAll",
      "outputs": [],
      "stateMutability": "nonpayable",
      "type": "function"
    },
    {
      "inputs": [
        {
          "internalType": "bytes4",
          "name": "interfaceId",
          "type": "bytes4"
        }
      ],
      "name": "supportsInterface",
      "outputs": [
        {
          "internalType": "bool",
          "name": "",
          "type": "bool"
        }
      ],
      "stateMutability": "view",
      "type": "function"
    },
    {
      "inputs": [],
      "name": "symbol",
      "outputs": [
        {
          "internalType": "string",
          "name": "",
          "type": "string"
        }
      ],
      "stateMutability": "view",
      "type": "function"
    },
    {
      "inputs": [
        {
          "internalType": "uint256",
          "name": "tokenId",
          "type": "uint256"
        }
      ],
      "name": "tokenURI",
      "outputs": [
        {
          "internalType": "string",
          "name": "",
          "type": "string"
        }
      ],
      "stateMutability": "view",
      "type": "function"
    },
    {
      "inputs": [
        {
          "internalType": "address",
          "name": "from",
          "type": "address"
        },
        {
          "internalType": "address",
          "name": "to",
          "type": "address"
        },
        {
          "internalType": "uint256",
          "name": "tokenId",
          "type": "uint256"
        }
      ],
      "name": "transferFrom",
      "outputs": [],
      "stateMutability": "nonpayable",
      "type": "function"
    },
    {
      "inputs": [
        {
          "internalType": "address",
          "name": "_to",
          "type": "address"
        },
        {
          "internalType": "string",
          "name": "_uri",
          "type": "string"
        },
        {
          "components": [
            {
              "internalType": "address payable",
              "name": "account",
              "type": "address"
            },
            {
              "internalType": "uint96",
              "name": "value",
              "type": "uint96"
            }
          ],
          "internalType": "struct LibShare.Share[]",
          "name": "royalties",
          "type": "tuple[]"
        }
      ],
      "name": "mintNFT",
      "outputs": [
        {
          "internalType": "uint256",
          "name": "",
          "type": "uint256"
        }
      ],
      "stateMutability": "nonpayable",
      "type": "function"
    },
    {
      "inputs": [
        {
          "internalType": "uint256",
          "name": "_tokenId",
          "type": "uint256"
        }
      ],
      "name": "getRoyalties",
      "outputs": [
        {
          "components": [
            {
              "internalType": "address payable",
              "name": "account",
              "type": "address"
            },
            {
              "internalType": "uint96",
              "name": "value",
              "type": "uint96"
            }
          ],
          "internalType": "struct LibShare.Share[]",
          "name": "",
          "type": "tuple[]"
        }
      ],
      "stateMutability": "view",
      "type": "function"
    },
    {
      "inputs": [
        {
          "internalType": "uint256",
          "name": "_tokenId",
          "type": "uint256"
        }
      ],
      "name": "getValidatorRoyalties",
      "outputs": [
        {
          "components": [
            {
              "internalType": "address payable",
              "name": "account",
              "type": "address"
            },
            {
              "internalType": "uint96",
              "name": "value",
              "type": "uint96"
            }
          ],
          "internalType": "struct LibShare.Share[]",
          "name": "",
          "type": "tuple[]"
        }
      ],
      "stateMutability": "view",
      "type": "function"
    },
    {
      "inputs": [
        {
          "internalType": "uint256",
          "name": "_tokenId",
          "type": "uint256"
        },
        {
          "internalType": "address",
          "name": "_validator",
          "type": "address"
        }
      ],
      "name": "addValidator",
      "outputs": [],
      "stateMutability": "nonpayable",
      "type": "function"
    },
    {
      "inputs": [
        {
          "internalType": "uint256",
          "name": "_tokenId",
          "type": "uint256"
        },
        {
          "internalType": "address",
          "name": "_erc20Contract",
          "type": "address"
        },
        {
          "internalType": "uint256",
          "name": "_value",
          "type": "uint256"
        },
        {
          "components": [
            {
              "internalType": "address payable",
              "name": "account",
              "type": "address"
            },
            {
              "internalType": "uint96",
              "name": "value",
              "type": "uint96"
            }
          ],
          "internalType": "struct LibShare.Share[]",
          "name": "royalties",
          "type": "tuple[]"
        }
      ],
      "name": "addERC20",
      "outputs": [],
      "stateMutability": "nonpayable",
      "type": "function"
    },
    {
      "inputs": [
        {
          "internalType": "uint256",
          "name": "_tokenId",
          "type": "uint256"
        },
        {
          "internalType": "address",
          "name": "_nftReciever",
          "type": "address"
        },
        {
          "internalType": "address",
          "name": "_validatorAddress",
          "type": "address"
        },
        {
          "internalType": "address",
          "name": "_erc20Contract",
          "type": "address"
        },
        {
          "internalType": "uint256",
          "name": "_value",
          "type": "uint256"
        }
      ],
      "name": "redeemPiNFT",
      "outputs": [],
      "stateMutability": "nonpayable",
      "type": "function"
    },
    {
      "inputs": [
        {
          "internalType": "uint256",
          "name": "_tokenId",
          "type": "uint256"
        },
        {
          "internalType": "address",
          "name": "_nftReciever",
          "type": "address"
        },
        {
          "internalType": "address",
          "name": "_erc20Reciever",
          "type": "address"
        },
        {
          "internalType": "address",
          "name": "_erc20Contract",
          "type": "address"
        },
        {
          "internalType": "uint256",
          "name": "_value",
          "type": "uint256"
        }
      ],
      "name": "burnPiNFT",
      "outputs": [],
      "stateMutability": "nonpayable",
      "type": "function"
    },
    {
      "inputs": [
        {
          "internalType": "uint256",
          "name": "_tokenId",
          "type": "uint256"
        },
        {
          "internalType": "address",
          "name": "_erc20Address",
          "type": "address"
        }
      ],
      "name": "viewBalance",
      "outputs": [
        {
          "internalType": "uint256",
          "name": "",
          "type": "uint256"
        }
      ],
      "stateMutability": "view",
      "type": "function"
    },
    {
      "inputs": [
        {
          "internalType": "uint256",
          "name": "_tokenId",
          "type": "uint256"
        },
        {
          "internalType": "address",
          "name": "_erc20Contract",
          "type": "address"
        },
        {
          "internalType": "uint256",
          "name": "_amount",
          "type": "uint256"
        }
      ],
      "name": "withdraw",
      "outputs": [],
      "stateMutability": "nonpayable",
      "type": "function"
    },
    {
      "inputs": [
        {
          "internalType": "uint256",
          "name": "_tokenId",
          "type": "uint256"
        }
      ],
      "name": "viewWithdrawnAmount",
      "outputs": [
        {
          "internalType": "uint256",
          "name": "",
          "type": "uint256"
        }
      ],
      "stateMutability": "view",
      "type": "function"
    },
    {
      "inputs": [
        {
          "internalType": "uint256",
          "name": "_tokenId",
          "type": "uint256"
        },
        {
          "internalType": "address",
          "name": "_erc20Contract",
          "type": "address"
        },
        {
          "internalType": "uint256",
          "name": "_amount",
          "type": "uint256"
        }
      ],
      "name": "Repay",
      "outputs": [],
      "stateMutability": "nonpayable",
      "type": "function"
    },
    {
      "inputs": [
        {
          "internalType": "address",
          "name": "",
          "type": "address"
        },
        {
          "internalType": "address",
          "name": "",
          "type": "address"
        },
        {
          "internalType": "uint256",
          "name": "",
          "type": "uint256"
        },
        {
          "internalType": "bytes",
          "name": "",
          "type": "bytes"
        }
      ],
      "name": "onERC721Received",
      "outputs": [
        {
          "internalType": "bytes4",
          "name": "",
          "type": "bytes4"
        }
      ],
      "stateMutability": "nonpayable",
      "type": "function"
    }
  ],
  "bytecode": "0x60806040523480156200001157600080fd5b506040516200633b3803806200633b8339818101604052810190620000379190620002ca565b81818160009080519060200190620000519291906200007d565b5080600190805190602001906200006a9291906200007d565b50505060016007819055505050620003b4565b8280546200008b906200037e565b90600052602060002090601f016020900481019282620000af5760008555620000fb565b82601f10620000ca57805160ff1916838001178555620000fb565b82800160010185558215620000fb579182015b82811115620000fa578251825591602001919060010190620000dd565b5b5090506200010a91906200010e565b5090565b5b80821115620001295760008160009055506001016200010f565b5090565b6000604051905090565b600080fd5b600080fd5b600080fd5b600080fd5b6000601f19601f8301169050919050565b7f4e487b7100000000000000000000000000000000000000000000000000000000600052604160045260246000fd5b62000196826200014b565b810181811067ffffffffffffffff82111715620001b857620001b76200015c565b5b80604052505050565b6000620001cd6200012d565b9050620001db82826200018b565b919050565b600067ffffffffffffffff821115620001fe57620001fd6200015c565b5b62000209826200014b565b9050602081019050919050565b60005b838110156200023657808201518184015260208101905062000219565b8381111562000246576000848401525b50505050565b6000620002636200025d84620001e0565b620001c1565b90508281526020810184848401111562000282576200028162000146565b5b6200028f84828562000216565b509392505050565b600082601f830112620002af57620002ae62000141565b5b8151620002c18482602086016200024c565b91505092915050565b60008060408385031215620002e457620002e362000137565b5b600083015167ffffffffffffffff8111156200030557620003046200013c565b5b620003138582860162000297565b925050602083015167ffffffffffffffff8111156200033757620003366200013c565b5b620003458582860162000297565b9150509250929050565b7f4e487b7100000000000000000000000000000000000000000000000000000000600052602260045260246000fd5b600060028204905060018216806200039757607f821691505b60208210811415620003ae57620003ad6200034f565b5b50919050565b615f7780620003c46000396000f3fe608060405234801561001057600080fd5b50600436106101c45760003560e01c806395d89b41116100f9578063c87b56dd11610097578063e63697c811610071578063e63697c81461055e578063e985e9c51461057a578063ee53b6a9146105aa578063fb2ef4a3146105da576101c4565b8063c87b56dd146104ce578063d51f299d146104fe578063da9699aa1461052e576101c4565b8063b88d4fde116100d3578063b88d4fde14610436578063b95bd3b114610452578063bb3bafd614610482578063c030da26146104b2576101c4565b806395d89b41146103e0578063a22cb465146103fe578063b439fd2c1461041a576101c4565b8063150b7a02116101665780634b561753116101405780634b561753146103485780636352211e1461036457806370a0823114610394578063726bb4cb146103c4576101c4565b8063150b7a02146102e057806323b872dd1461031057806342842e0e1461032c576101c4565b8063081812fc116101a2578063081812fc14610247578063095ea7b31461027757806309d4470c146102935780630b4f4446146102af576101c4565b806301ffc9a7146101c957806302b42141146101f957806306fdde0314610229575b600080fd5b6101e360048036038101906101de9190614234565b61060b565b6040516101f0919061427c565b60405180910390f35b610213600480360381019061020e91906142cd565b6106ed565b6040516102209190614440565b60405180910390f35b6102316107ef565b60405161023e91906144fb565b60405180910390f35b610261600480360381019061025c91906142cd565b610881565b60405161026e919061453e565b60405180910390f35b610291600480360381019061028c9190614585565b6108c7565b005b6102ad60048036038101906102a891906145c5565b6109df565b005b6102c960048036038101906102c49190614640565b610d6f565b6040516102d792919061469e565b60405180910390f35b6102fa60048036038101906102f591906147fc565b610de4565b604051610307919061488e565b60405180910390f35b61032a600480360381019061032591906148a9565b610df8565b005b610346600480360381019061034191906148a9565b610e58565b005b610362600480360381019061035d91906148fc565b610e78565b005b61037e600480360381019061037991906142cd565b610f7f565b60405161038b919061453e565b60405180910390f35b6103ae60048036038101906103a9919061493c565b611006565b6040516103bb9190614978565b60405180910390f35b6103de60048036038101906103d991906145c5565b6110be565b005b6103e8611482565b6040516103f591906144fb565b60405180910390f35b610418600480360381019061041391906149bf565b611514565b005b610434600480360381019061042f9190614b74565b61152a565b005b610450600480360381019061044b91906147fc565b6117d0565b005b61046c600480360381019061046791906142cd565b611832565b604051610479919061453e565b60405180910390f35b61049c600480360381019061049791906142cd565b611865565b6040516104a99190614440565b60405180910390f35b6104cc60048036038101906104c79190614bf7565b611967565b005b6104e860048036038101906104e391906142cd565b611c56565b6040516104f591906144fb565b60405180910390f35b610518600480360381019061051391906148fc565b611d69565b6040516105259190614978565b60405180910390f35b610548600480360381019061054391906142cd565b611dc4565b6040516105559190614978565b60405180910390f35b61057860048036038101906105739190614bf7565b611de1565b005b610594600480360381019061058f9190614c4a565b6120bc565b6040516105a1919061427c565b60405180910390f35b6105c460048036038101906105bf9190614d2b565b612150565b6040516105d19190614978565b60405180910390f35b6105f460048036038101906105ef9190614640565b61223b565b60405161060292919061469e565b60405180910390f35b60007f80ac58cd000000000000000000000000000000000000000000000000000000007bffffffffffffffffffffffffffffffffffffffffffffffffffffffff1916827bffffffffffffffffffffffffffffffffffffffffffffffffffffffff191614806106d657507f5b5e139f000000000000000000000000000000000000000000000000000000007bffffffffffffffffffffffffffffffffffffffffffffffffffffffff1916827bffffffffffffffffffffffffffffffffffffffffffffffffffffffff1916145b806106e657506106e5826122b0565b5b9050919050565b6060600c6000838152602001908152602001600020805480602002602001604051908101604052809291908181526020016000905b828210156107e4578382906000526020600020016040518060400160405290816000820160009054906101000a900473ffffffffffffffffffffffffffffffffffffffff1673ffffffffffffffffffffffffffffffffffffffff1673ffffffffffffffffffffffffffffffffffffffff1681526020016000820160149054906101000a90046bffffffffffffffffffffffff166bffffffffffffffffffffffff166bffffffffffffffffffffffff168152505081526020019060010190610722565b505050509050919050565b6060600080546107fe90614de5565b80601f016020809104026020016040519081016040528092919081815260200182805461082a90614de5565b80156108775780601f1061084c57610100808354040283529160200191610877565b820191906000526020600020905b81548152906001019060200180831161085a57829003601f168201915b5050505050905090565b600061088c8261231a565b6004600083815260200190815260200160002060009054906101000a900473ffffffffffffffffffffffffffffffffffffffff169050919050565b60006108d282610f7f565b90508073ffffffffffffffffffffffffffffffffffffffff168373ffffffffffffffffffffffffffffffffffffffff161415610943576040517f08c379a000000000000000000000000000000000000000000000000000000000815260040161093a90614e89565b60405180910390fd5b8073ffffffffffffffffffffffffffffffffffffffff16610962612365565b73ffffffffffffffffffffffffffffffffffffffff16148061099157506109908161098b612365565b6120bc565b5b6109d0576040517f08c379a00000000000000000000000000000000000000000000000000000000081526004016109c790614f1b565b60405180910390fd5b6109da838361236d565b505050565b846109e981610f7f565b73ffffffffffffffffffffffffffffffffffffffff163373ffffffffffffffffffffffffffffffffffffffff1614610a56576040517f08c379a0000000000000000000000000000000000000000000000000000000008152600401610a4d90614f87565b60405180910390fd5b610a5e612426565b6010600087815260200190815260200160002060009054906101000a900473ffffffffffffffffffffffffffffffffffffffff1673ffffffffffffffffffffffffffffffffffffffff168573ffffffffffffffffffffffffffffffffffffffff1614610ac957600080fd5b600073ffffffffffffffffffffffffffffffffffffffff168373ffffffffffffffffffffffffffffffffffffffff161415610b39576040517f08c379a0000000000000000000000000000000000000000000000000000000008152600401610b3090614ff3565b60405180910390fd5b60006009600088815260200190815260200160002060008573ffffffffffffffffffffffffffffffffffffffff1673ffffffffffffffffffffffffffffffffffffffff168152602001908152602001600020541415610b9757600080fd5b816009600088815260200190815260200160002060008573ffffffffffffffffffffffffffffffffffffffff1673ffffffffffffffffffffffffffffffffffffffff1681526020019081526020016000205414610bf357600080fd5b600073ffffffffffffffffffffffffffffffffffffffff168573ffffffffffffffffffffffffffffffffffffffff161415610c63576040517f08c379a0000000000000000000000000000000000000000000000000000000008152600401610c5a9061505f565b60405180910390fd5b60006010600088815260200190815260200160002060006101000a81548173ffffffffffffffffffffffffffffffffffffffff021916908373ffffffffffffffffffffffffffffffffffffffff1602179055506000600e600088815260200190815260200160002060006101000a81548173ffffffffffffffffffffffffffffffffffffffff021916908373ffffffffffffffffffffffffffffffffffffffff160217905550610d1586858585612476565b610d20338688610e58565b7fb74e38228fa42e9a77949ba790a29e0543f9fc8f580a6c223b6f6a824ab7de4e8686868686604051610d5795949392919061507f565b60405180910390a1610d6761261a565b505050505050565b600c6020528160005260406000208181548110610d8b57600080fd5b90600052602060002001600091509150508060000160009054906101000a900473ffffffffffffffffffffffffffffffffffffffff16908060000160149054906101000a90046bffffffffffffffffffffffff16905082565b600063150b7a0260e01b9050949350505050565b610e09610e03612365565b82612624565b610e48576040517f08c379a0000000000000000000000000000000000000000000000000000000008152600401610e3f90615144565b60405180910390fd5b610e538383836126b9565b505050565b610e73838383604051806020016040528060008152506117d0565b505050565b81610e8281610f7f565b73ffffffffffffffffffffffffffffffffffffffff163373ffffffffffffffffffffffffffffffffffffffff1614610eef576040517f08c379a0000000000000000000000000000000000000000000000000000000008152600401610ee690614f87565b60405180910390fd5b816010600085815260200190815260200160002060006101000a81548173ffffffffffffffffffffffffffffffffffffffff021916908373ffffffffffffffffffffffffffffffffffffffff1602179055507f7429a06e9412e469f0d64f9d222640b0af359f556b709e2913588c227851b88d8383604051610f72929190615164565b60405180910390a1505050565b600080610f8b836129b3565b9050600073ffffffffffffffffffffffffffffffffffffffff168173ffffffffffffffffffffffffffffffffffffffff161415610ffd576040517f08c379a0000000000000000000000000000000000000000000000000000000008152600401610ff4906151d9565b60405180910390fd5b80915050919050565b60008073ffffffffffffffffffffffffffffffffffffffff168273ffffffffffffffffffffffffffffffffffffffff161415611077576040517f08c379a000000000000000000000000000000000000000000000000000000000815260040161106e9061526b565b60405180910390fd5b600360008373ffffffffffffffffffffffffffffffffffffffff1673ffffffffffffffffffffffffffffffffffffffff168152602001908152602001600020549050919050565b846110c881610f7f565b73ffffffffffffffffffffffffffffffffffffffff163373ffffffffffffffffffffffffffffffffffffffff1614611135576040517f08c379a000000000000000000000000000000000000000000000000000000000815260040161112c90614f87565b60405180910390fd5b61113d612426565b6010600087815260200190815260200160002060009054906101000a900473ffffffffffffffffffffffffffffffffffffffff1673ffffffffffffffffffffffffffffffffffffffff168473ffffffffffffffffffffffffffffffffffffffff16146111a857600080fd5b600073ffffffffffffffffffffffffffffffffffffffff168373ffffffffffffffffffffffffffffffffffffffff161415611218576040517f08c379a000000000000000000000000000000000000000000000000000000000815260040161120f90614ff3565b60405180910390fd5b60006009600088815260200190815260200160002060008573ffffffffffffffffffffffffffffffffffffffff1673ffffffffffffffffffffffffffffffffffffffff16815260200190815260200160002054141561127657600080fd5b816009600088815260200190815260200160002060008573ffffffffffffffffffffffffffffffffffffffff1673ffffffffffffffffffffffffffffffffffffffff16815260200190815260200160002054146112d257600080fd5b600073ffffffffffffffffffffffffffffffffffffffff168573ffffffffffffffffffffffffffffffffffffffff161415611342576040517f08c379a00000000000000000000000000000000000000000000000000000000081526004016113399061505f565b60405180910390fd5b60006010600088815260200190815260200160002060006101000a81548173ffffffffffffffffffffffffffffffffffffffff021916908373ffffffffffffffffffffffffffffffffffffffff1602179055506000600e600088815260200190815260200160002060006101000a81548173ffffffffffffffffffffffffffffffffffffffff021916908373ffffffffffffffffffffffffffffffffffffffff1602179055506113f486858585612476565b8473ffffffffffffffffffffffffffffffffffffffff163373ffffffffffffffffffffffffffffffffffffffff161461143357611432338688610e58565b5b7f2058865d55d828509b5fe7c94f4db419055cb3a955b5de66eb6eaac40a6229e2868686868660405161146a95949392919061507f565b60405180910390a161147a61261a565b505050505050565b60606001805461149190614de5565b80601f01602080910402602001604051908101604052809291908181526020018280546114bd90614de5565b801561150a5780601f106114df5761010080835404028352916020019161150a565b820191906000526020600020905b8154815290600101906020018083116114ed57829003601f168201915b5050505050905090565b61152661151f612365565b83836129f0565b5050565b6010600085815260200190815260200160002060009054906101000a900473ffffffffffffffffffffffffffffffffffffffff1673ffffffffffffffffffffffffffffffffffffffff163373ffffffffffffffffffffffffffffffffffffffff161461159557600080fd5b600073ffffffffffffffffffffffffffffffffffffffff168373ffffffffffffffffffffffffffffffffffffffff161415611605576040517f08c379a00000000000000000000000000000000000000000000000000000000081526004016115fc9061505f565b60405180910390fd5b600082141561161357600080fd5b6001600a6000868152602001908152602001600020805490501061163657600080fd5b61163f84610f7f565b600e600086815260200190815260200160002060006101000a81548173ffffffffffffffffffffffffffffffffffffffff021916908373ffffffffffffffffffffffffffffffffffffffff16021790555061169b848484612b5d565b6116a58482612d8f565b8273ffffffffffffffffffffffffffffffffffffffff166323b872dd3330856040518463ffffffff1660e01b81526004016116e29392919061528b565b6020604051808303816000875af1158015611701573d6000803e3d6000fd5b505050506040513d601f19601f8201168201806040525081019061172591906152d7565b611764576040517f08c379a000000000000000000000000000000000000000000000000000000000815260040161175b90615350565b60405180910390fd5b8273ffffffffffffffffffffffffffffffffffffffff16843373ffffffffffffffffffffffffffffffffffffffff167f2d26c4b3092c22e3e65b16783ba6c105f58fd10b1bb90ef68bb36037d75f7e01856040516117c29190614978565b60405180910390a450505050565b6117e16117db612365565b83612624565b611820576040517f08c379a000000000000000000000000000000000000000000000000000000000815260040161181790615144565b60405180910390fd5b61182c848484846130ab565b50505050565b60106020528060005260406000206000915054906101000a900473ffffffffffffffffffffffffffffffffffffffff1681565b6060600b6000838152602001908152602001600020805480602002602001604051908101604052809291908181526020016000905b8282101561195c578382906000526020600020016040518060400160405290816000820160009054906101000a900473ffffffffffffffffffffffffffffffffffffffff1673ffffffffffffffffffffffffffffffffffffffff1673ffffffffffffffffffffffffffffffffffffffff1681526020016000820160149054906101000a90046bffffffffffffffffffffffff166bffffffffffffffffffffffff166bffffffffffffffffffffffff16815250508152602001906001019061189a565b505050509050919050565b61196f612426565b3373ffffffffffffffffffffffffffffffffffffffff16600e600085815260200190815260200160002060009054906101000a900473ffffffffffffffffffffffffffffffffffffffff1673ffffffffffffffffffffffffffffffffffffffff1614611a10576040517f08c379a0000000000000000000000000000000000000000000000000000000008152600401611a07906153bc565b60405180910390fd5b60006009600085815260200190815260200160002060008473ffffffffffffffffffffffffffffffffffffffff1673ffffffffffffffffffffffffffffffffffffffff168152602001908152602001600020541415611a6e57600080fd5b600f600084815260200190815260200160002054811115611a8e57600080fd5b8173ffffffffffffffffffffffffffffffffffffffff166323b872dd3330846040518463ffffffff1660e01b8152600401611acb9392919061528b565b6020604051808303816000875af1158015611aea573d6000803e3d6000fd5b505050506040513d601f19601f82011682018060405250810190611b0e91906152d7565b611b4d576040517f08c379a0000000000000000000000000000000000000000000000000000000008152600401611b4490615350565b60405180910390fd5b80600f60008581526020019081526020016000206000828254611b70919061540b565b925050819055506000600f6000858152602001908152602001600020541415611c0c573073ffffffffffffffffffffffffffffffffffffffff1663095ea7b333856040518363ffffffff1660e01b8152600401611bce92919061543f565b600060405180830381600087803b158015611be857600080fd5b505af1158015611bfc573d6000803e3d6000fd5b50505050611c0b303385610e58565b5b7fb3b7a8bfc5508739ed035396eacfec00168bfc5b0fa6bcc619ccbb42eaab61a133848484604051611c419493929190615468565b60405180910390a1611c5161261a565b505050565b6060611c618261231a565b6000600660008481526020019081526020016000208054611c8190614de5565b80601f0160208091040260200160405190810160405280929190818152602001828054611cad90614de5565b8015611cfa5780601f10611ccf57610100808354040283529160200191611cfa565b820191906000526020600020905b815481529060010190602001808311611cdd57829003601f168201915b505050505090506000611d0b613107565b9050600081511415611d21578192505050611d64565b600082511115611d56578082604051602001611d3e9291906154e9565b60405160208183030381529060405292505050611d64565b611d5f8461311e565b925050505b919050565b60006009600084815260200190815260200160002060008373ffffffffffffffffffffffffffffffffffffffff1673ffffffffffffffffffffffffffffffffffffffff16815260200190815260200160002054905092915050565b6000600f6000838152602001908152602001600020549050919050565b611de9612426565b3373ffffffffffffffffffffffffffffffffffffffff16600e600085815260200190815260200160002060009054906101000a900473ffffffffffffffffffffffffffffffffffffffff1673ffffffffffffffffffffffffffffffffffffffff1614611e8a576040517f08c379a0000000000000000000000000000000000000000000000000000000008152600401611e81906153bc565b60405180910390fd5b60006009600085815260200190815260200160002060008473ffffffffffffffffffffffffffffffffffffffff1673ffffffffffffffffffffffffffffffffffffffff168152602001908152602001600020541415611ee857600080fd5b6009600084815260200190815260200160002060008373ffffffffffffffffffffffffffffffffffffffff1673ffffffffffffffffffffffffffffffffffffffff1681526020019081526020016000205481600f600086815260200190815260200160002054611f58919061550d565b1115611f6357600080fd5b8173ffffffffffffffffffffffffffffffffffffffff1663a9059cbb33836040518363ffffffff1660e01b8152600401611f9e92919061543f565b6020604051808303816000875af1158015611fbd573d6000803e3d6000fd5b505050506040513d601f19601f82011682018060405250810190611fe191906152d7565b612020576040517f08c379a000000000000000000000000000000000000000000000000000000000815260040161201790615350565b60405180910390fd5b6000600f600085815260200190815260200160002054141561204857612047333085610e58565b5b80600f6000858152602001908152602001600020600082825461206b919061550d565b925050819055507f6462fd54117e7bef3061a028c22b78ce207900b757cc2612ca600e35060e33a2338484846040516120a79493929190615468565b60405180910390a16120b761261a565b505050565b6000600560008473ffffffffffffffffffffffffffffffffffffffff1673ffffffffffffffffffffffffffffffffffffffff16815260200190815260200160002060008373ffffffffffffffffffffffffffffffffffffffff1673ffffffffffffffffffffffffffffffffffffffff16815260200190815260200160002060009054906101000a900460ff16905092915050565b60008073ffffffffffffffffffffffffffffffffffffffff168473ffffffffffffffffffffffffffffffffffffffff1614156121c1576040517f08c379a00000000000000000000000000000000000000000000000000000000081526004016121b89061505f565b60405180910390fd5b60006121cd6008613186565b90506121d98184613194565b6121e385826134b0565b6121ed81856134ce565b6121f76008613542565b7f3a5398bda6f1f57d6c96834fa9bf02b5517bdc847d14312015a917ba421c31c98186604051612228929190615164565b60405180910390a1809150509392505050565b600b602052816000526040600020818154811061225757600080fd5b90600052602060002001600091509150508060000160009054906101000a900473ffffffffffffffffffffffffffffffffffffffff16908060000160149054906101000a90046bffffffffffffffffffffffff16905082565b60007f01ffc9a7000000000000000000000000000000000000000000000000000000007bffffffffffffffffffffffffffffffffffffffffffffffffffffffff1916827bffffffffffffffffffffffffffffffffffffffffffffffffffffffff1916149050919050565b61232381613558565b612362576040517f08c379a0000000000000000000000000000000000000000000000000000000008152600401612359906151d9565b60405180910390fd5b50565b600033905090565b816004600083815260200190815260200160002060006101000a81548173ffffffffffffffffffffffffffffffffffffffff021916908373ffffffffffffffffffffffffffffffffffffffff160217905550808273ffffffffffffffffffffffffffffffffffffffff166123e083610f7f565b73ffffffffffffffffffffffffffffffffffffffff167f8c5be1e5ebec7d5bd14f71427d1e84f3dd0314c0f7b2291e5b200ac8c7c3b92560405160405180910390a45050565b6002600754141561246c576040517f08c379a0000000000000000000000000000000000000000000000000000000008152600401612463906155af565b60405180910390fd5b6002600781905550565b600073ffffffffffffffffffffffffffffffffffffffff168373ffffffffffffffffffffffffffffffffffffffff1614156124e6576040517f08c379a00000000000000000000000000000000000000000000000000000000081526004016124dd9061505f565b60405180910390fd5b6124f1848383613599565b8173ffffffffffffffffffffffffffffffffffffffff1663a9059cbb84836040518363ffffffff1660e01b815260040161252c92919061543f565b6020604051808303816000875af115801561254b573d6000803e3d6000fd5b505050506040513d601f19601f8201168201806040525081019061256f91906152d7565b6125ae576040517f08c379a00000000000000000000000000000000000000000000000000000000081526004016125a590615350565b60405180910390fd5b8173ffffffffffffffffffffffffffffffffffffffff168373ffffffffffffffffffffffffffffffffffffffff16857f416f6e1e4e9196c181ec8150c9c6b6d1bbbddfe946258dbd8f1a62153e5776198460405161260c9190614978565b60405180910390a450505050565b6001600781905550565b60008061263083610f7f565b90508073ffffffffffffffffffffffffffffffffffffffff168473ffffffffffffffffffffffffffffffffffffffff161480612672575061267181856120bc565b5b806126b057508373ffffffffffffffffffffffffffffffffffffffff1661269884610881565b73ffffffffffffffffffffffffffffffffffffffff16145b91505092915050565b8273ffffffffffffffffffffffffffffffffffffffff166126d982610f7f565b73ffffffffffffffffffffffffffffffffffffffff161461272f576040517f08c379a000000000000000000000000000000000000000000000000000000000815260040161272690615641565b60405180910390fd5b600073ffffffffffffffffffffffffffffffffffffffff168273ffffffffffffffffffffffffffffffffffffffff16141561279f576040517f08c379a0000000000000000000000000000000000000000000000000000000008152600401612796906156d3565b60405180910390fd5b6127ac838383600161392c565b8273ffffffffffffffffffffffffffffffffffffffff166127cc82610f7f565b73ffffffffffffffffffffffffffffffffffffffff1614612822576040517f08c379a000000000000000000000000000000000000000000000000000000000815260040161281990615641565b60405180910390fd5b6004600082815260200190815260200160002060006101000a81549073ffffffffffffffffffffffffffffffffffffffff02191690556001600360008573ffffffffffffffffffffffffffffffffffffffff1673ffffffffffffffffffffffffffffffffffffffff168152602001908152602001600020600082825403925050819055506001600360008473ffffffffffffffffffffffffffffffffffffffff1673ffffffffffffffffffffffffffffffffffffffff16815260200190815260200160002060008282540192505081905550816002600083815260200190815260200160002060006101000a81548173ffffffffffffffffffffffffffffffffffffffff021916908373ffffffffffffffffffffffffffffffffffffffff160217905550808273ffffffffffffffffffffffffffffffffffffffff168473ffffffffffffffffffffffffffffffffffffffff167fddf252ad1be2c89b69c2b068fc378daa952ba7f163c4a11628f55a4df523b3ef60405160405180910390a46129ae8383836001613a52565b505050565b60006002600083815260200190815260200160002060009054906101000a900473ffffffffffffffffffffffffffffffffffffffff169050919050565b8173ffffffffffffffffffffffffffffffffffffffff168373ffffffffffffffffffffffffffffffffffffffff161415612a5f576040517f08c379a0000000000000000000000000000000000000000000000000000000008152600401612a569061573f565b60405180910390fd5b80600560008573ffffffffffffffffffffffffffffffffffffffff1673ffffffffffffffffffffffffffffffffffffffff16815260200190815260200160002060008473ffffffffffffffffffffffffffffffffffffffff1673ffffffffffffffffffffffffffffffffffffffff16815260200190815260200160002060006101000a81548160ff0219169083151502179055508173ffffffffffffffffffffffffffffffffffffffff168373ffffffffffffffffffffffffffffffffffffffff167f17307eab39ab6107e8899845ad3d59bd9653f200f220920489ca2b5937696c3183604051612b50919061427c565b60405180910390a3505050565b600073ffffffffffffffffffffffffffffffffffffffff16612b7e84610f7f565b73ffffffffffffffffffffffffffffffffffffffff161415612bd5576040517f08c379a0000000000000000000000000000000000000000000000000000000008152600401612bcc906157ab565b60405180910390fd5b6000811415612be357612d8a565b60006009600085815260200190815260200160002060008473ffffffffffffffffffffffffffffffffffffffff1673ffffffffffffffffffffffffffffffffffffffff1681526020019081526020016000205490506000811415612d2157600a600085815260200190815260200160002080549050600d600086815260200190815260200160002060008573ffffffffffffffffffffffffffffffffffffffff1673ffffffffffffffffffffffffffffffffffffffff16815260200190815260200160002081905550600a6000858152602001908152602001600020839080600181540180825580915050600190039060005260206000200160009091909190916101000a81548173ffffffffffffffffffffffffffffffffffffffff021916908373ffffffffffffffffffffffffffffffffffffffff1602179055505b816009600086815260200190815260200160002060008573ffffffffffffffffffffffffffffffffffffffff1673ffffffffffffffffffffffffffffffffffffffff1681526020019081526020016000206000828254612d81919061550d565b92505081905550505b505050565b600a81511115612dd4576040517f08c379a0000000000000000000000000000000000000000000000000000000008152600401612dcb90615817565b60405180910390fd5b600c60008381526020019081526020016000206000612df391906140a7565b6000805b825181101561301e57600073ffffffffffffffffffffffffffffffffffffffff16838281518110612e2b57612e2a615837565b5b60200260200101516000015173ffffffffffffffffffffffffffffffffffffffff161415612e8e576040517f08c379a0000000000000000000000000000000000000000000000000000000008152600401612e859061505f565b60405180910390fd5b6000838281518110612ea357612ea2615837565b5b6020026020010151602001516bffffffffffffffffffffffff161415612efe576040517f08c379a0000000000000000000000000000000000000000000000000000000008152600401612ef5906158b2565b60405180910390fd5b600c6000858152602001908152602001600020838281518110612f2457612f23615837565b5b60200260200101519080600181540180825580915050600190039060005260206000200160009091909190915060008201518160000160006101000a81548173ffffffffffffffffffffffffffffffffffffffff021916908373ffffffffffffffffffffffffffffffffffffffff16021790555060208201518160000160146101000a8154816bffffffffffffffffffffffff02191690836bffffffffffffffffffffffff1602179055505050828181518110612fe457612fe3615837565b5b6020026020010151602001516bffffffffffffffffffffffff1682613009919061550d565b91508080613016906158d2565b915050612df7565b506127108110613063576040517f08c379a000000000000000000000000000000000000000000000000000000000815260040161305a90615967565b60405180910390fd5b816040516130719190615a83565b6040518091039020837f4da18660b3a4505d8ad0b58514556847831a94cc0306b9de276aa372df45d47160405160405180910390a3505050565b6130b68484846126b9565b6130c284848484613a58565b613101576040517f08c379a00000000000000000000000000000000000000000000000000000000081526004016130f890615b0c565b60405180910390fd5b50505050565b606060405180602001604052806000815250905090565b60606131298261231a565b6000613133613107565b90506000815111613153576040518060200160405280600081525061317e565b8061315d84613be0565b60405160200161316e9291906154e9565b6040516020818303038152906040525b915050919050565b600081600001549050919050565b600a815111156131d9576040517f08c379a00000000000000000000000000000000000000000000000000000000081526004016131d090615817565b60405180910390fd5b600b600083815260200190815260200160002060006131f891906140a7565b6000805b825181101561342357600073ffffffffffffffffffffffffffffffffffffffff168382815181106132305761322f615837565b5b60200260200101516000015173ffffffffffffffffffffffffffffffffffffffff161415613293576040517f08c379a000000000000000000000000000000000000000000000000000000000815260040161328a90615b9e565b60405180910390fd5b60008382815181106132a8576132a7615837565b5b6020026020010151602001516bffffffffffffffffffffffff161415613303576040517f08c379a00000000000000000000000000000000000000000000000000000000081526004016132fa906158b2565b60405180910390fd5b600b600085815260200190815260200160002083828151811061332957613328615837565b5b60200260200101519080600181540180825580915050600190039060005260206000200160009091909190915060008201518160000160006101000a81548173ffffffffffffffffffffffffffffffffffffffff021916908373ffffffffffffffffffffffffffffffffffffffff16021790555060208201518160000160146101000a8154816bffffffffffffffffffffffff02191690836bffffffffffffffffffffffff16021790555050508281815181106133e9576133e8615837565b5b6020026020010151602001516bffffffffffffffffffffffff168261340e919061550d565b9150808061341b906158d2565b9150506131fc565b506127108110613468576040517f08c379a000000000000000000000000000000000000000000000000000000000815260040161345f90615c0a565b60405180910390fd5b816040516134769190615a83565b6040518091039020837fe23425cf56a81561c420f592eb54f21107c562f26c8c78c4a20d26920d244e6660405160405180910390a3505050565b6134ca828260405180602001604052806000815250613cb8565b5050565b6134d782613558565b613516576040517f08c379a000000000000000000000000000000000000000000000000000000000815260040161350d90615c9c565b60405180910390fd5b8060066000848152602001908152602001600020908051906020019061353d9291906140c8565b505050565b6001816000016000828254019250508190555050565b60008073ffffffffffffffffffffffffffffffffffffffff1661357a836129b3565b73ffffffffffffffffffffffffffffffffffffffff1614159050919050565b60008114156135a757613927565b60006009600085815260200190815260200160002060008473ffffffffffffffffffffffffffffffffffffffff1673ffffffffffffffffffffffffffffffffffffffff1681526020019081526020016000205490508181101561363f576040517f08c379a000000000000000000000000000000000000000000000000000000000815260040161363690615d08565b60405180910390fd5b6000828261364d919061540b565b9050806009600087815260200190815260200160002060008673ffffffffffffffffffffffffffffffffffffffff1673ffffffffffffffffffffffffffffffffffffffff1681526020019081526020016000208190555060008114156139245760006001600a6000888152602001908152602001600020805490506136d2919061540b565b90506000600a600088815260200190815260200160002082815481106136fb576136fa615837565b5b9060005260206000200160009054906101000a900473ffffffffffffffffffffffffffffffffffffffff1690508073ffffffffffffffffffffffffffffffffffffffff168673ffffffffffffffffffffffffffffffffffffffff1614613875576000600d600089815260200190815260200160002060008873ffffffffffffffffffffffffffffffffffffffff1673ffffffffffffffffffffffffffffffffffffffff16815260200190815260200160002054905081600a60008a815260200190815260200160002082815481106137d6576137d5615837565b5b9060005260206000200160006101000a81548173ffffffffffffffffffffffffffffffffffffffff021916908373ffffffffffffffffffffffffffffffffffffffff16021790555080600d60008a815260200190815260200160002060008473ffffffffffffffffffffffffffffffffffffffff1673ffffffffffffffffffffffffffffffffffffffff16815260200190815260200160002081905550505b600d600088815260200190815260200160002060008773ffffffffffffffffffffffffffffffffffffffff1673ffffffffffffffffffffffffffffffffffffffff16815260200190815260200160002060009055600a60008881526020019081526020016000208054806138ec576138eb615d28565b5b6001900381819060005260206000200160006101000a81549073ffffffffffffffffffffffffffffffffffffffff0219169055905550505b50505b505050565b6001811115613a4c57600073ffffffffffffffffffffffffffffffffffffffff168473ffffffffffffffffffffffffffffffffffffffff16146139c05780600360008673ffffffffffffffffffffffffffffffffffffffff1673ffffffffffffffffffffffffffffffffffffffff16815260200190815260200160002060008282546139b8919061540b565b925050819055505b600073ffffffffffffffffffffffffffffffffffffffff168373ffffffffffffffffffffffffffffffffffffffff1614613a4b5780600360008573ffffffffffffffffffffffffffffffffffffffff1673ffffffffffffffffffffffffffffffffffffffff1681526020019081526020016000206000828254613a43919061550d565b925050819055505b5b50505050565b50505050565b6000613a798473ffffffffffffffffffffffffffffffffffffffff16613d13565b15613bd3578373ffffffffffffffffffffffffffffffffffffffff1663150b7a02613aa2612365565b8786866040518563ffffffff1660e01b8152600401613ac49493929190615dac565b6020604051808303816000875af1925050508015613b0057506040513d601f19601f82011682018060405250810190613afd9190615e0d565b60015b613b83573d8060008114613b30576040519150601f19603f3d011682016040523d82523d6000602084013e613b35565b606091505b50600081511415613b7b576040517f08c379a0000000000000000000000000000000000000000000000000000000008152600401613b7290615b0c565b60405180910390fd5b805181602001fd5b63150b7a0260e01b7bffffffffffffffffffffffffffffffffffffffffffffffffffffffff1916817bffffffffffffffffffffffffffffffffffffffffffffffffffffffff191614915050613bd8565b600190505b949350505050565b606060006001613bef84613d36565b01905060008167ffffffffffffffff811115613c0e57613c0d6146d1565b5b6040519080825280601f01601f191660200182016040528015613c405781602001600182028036833780820191505090505b509050600082602001820190505b600115613cad578080600190039150507f3031323334353637383961626364656600000000000000000000000000000000600a86061a8153600a8581613c9757613c96615e3a565b5b0494506000851415613ca857613cad565b613c4e565b819350505050919050565b613cc28383613e89565b613ccf6000848484613a58565b613d0e576040517f08c379a0000000000000000000000000000000000000000000000000000000008152600401613d0590615b0c565b60405180910390fd5b505050565b6000808273ffffffffffffffffffffffffffffffffffffffff163b119050919050565b600080600090507a184f03e93ff9f4daa797ed6e38ed64bf6a1f0100000000000000008310613d94577a184f03e93ff9f4daa797ed6e38ed64bf6a1f0100000000000000008381613d8a57613d89615e3a565b5b0492506040810190505b6d04ee2d6d415b85acef81000000008310613dd1576d04ee2d6d415b85acef81000000008381613dc757613dc6615e3a565b5b0492506020810190505b662386f26fc100008310613e0057662386f26fc100008381613df657613df5615e3a565b5b0492506010810190505b6305f5e1008310613e29576305f5e1008381613e1f57613e1e615e3a565b5b0492506008810190505b6127108310613e4e576127108381613e4457613e43615e3a565b5b0492506004810190505b60648310613e715760648381613e6757613e66615e3a565b5b0492506002810190505b600a8310613e80576001810190505b80915050919050565b600073ffffffffffffffffffffffffffffffffffffffff168273ffffffffffffffffffffffffffffffffffffffff161415613ef9576040517f08c379a0000000000000000000000000000000000000000000000000000000008152600401613ef090615eb5565b60405180910390fd5b613f0281613558565b15613f42576040517f08c379a0000000000000000000000000000000000000000000000000000000008152600401613f3990615f21565b60405180910390fd5b613f5060008383600161392c565b613f5981613558565b15613f99576040517f08c379a0000000000000000000000000000000000000000000000000000000008152600401613f9090615f21565b60405180910390fd5b6001600360008473ffffffffffffffffffffffffffffffffffffffff1673ffffffffffffffffffffffffffffffffffffffff16815260200190815260200160002060008282540192505081905550816002600083815260200190815260200160002060006101000a81548173ffffffffffffffffffffffffffffffffffffffff021916908373ffffffffffffffffffffffffffffffffffffffff160217905550808273ffffffffffffffffffffffffffffffffffffffff16600073ffffffffffffffffffffffffffffffffffffffff167fddf252ad1be2c89b69c2b068fc378daa952ba7f163c4a11628f55a4df523b3ef60405160405180910390a46140a3600083836001613a52565b5050565b50805460008255906000526020600020908101906140c5919061414e565b50565b8280546140d490614de5565b90600052602060002090601f0160209004810192826140f6576000855561413d565b82601f1061410f57805160ff191683800117855561413d565b8280016001018555821561413d579182015b8281111561413c578251825591602001919060010190614121565b5b50905061414a91906141ab565b5090565b5b808211156141a757600080820160006101000a81549073ffffffffffffffffffffffffffffffffffffffff02191690556000820160146101000a8154906bffffffffffffffffffffffff02191690555060010161414f565b5090565b5b808211156141c45760008160009055506001016141ac565b5090565b6000604051905090565b600080fd5b600080fd5b60007fffffffff0000000000000000000000000000000000000000000000000000000082169050919050565b614211816141dc565b811461421c57600080fd5b50565b60008135905061422e81614208565b92915050565b60006020828403121561424a576142496141d2565b5b60006142588482850161421f565b91505092915050565b60008115159050919050565b61427681614261565b82525050565b6000602082019050614291600083018461426d565b92915050565b6000819050919050565b6142aa81614297565b81146142b557600080fd5b50565b6000813590506142c7816142a1565b92915050565b6000602082840312156142e3576142e26141d2565b5b60006142f1848285016142b8565b91505092915050565b600081519050919050565b600082825260208201905092915050565b6000819050602082019050919050565b600073ffffffffffffffffffffffffffffffffffffffff82169050919050565b600061435182614326565b9050919050565b61436181614346565b82525050565b60006bffffffffffffffffffffffff82169050919050565b61438881614367565b82525050565b6040820160008201516143a46000850182614358565b5060208201516143b7602085018261437f565b50505050565b60006143c9838361438e565b60408301905092915050565b6000602082019050919050565b60006143ed826142fa565b6143f78185614305565b935061440283614316565b8060005b8381101561443357815161441a88826143bd565b9750614425836143d5565b925050600181019050614406565b5085935050505092915050565b6000602082019050818103600083015261445a81846143e2565b905092915050565b600081519050919050565b600082825260208201905092915050565b60005b8381101561449c578082015181840152602081019050614481565b838111156144ab576000848401525b50505050565b6000601f19601f8301169050919050565b60006144cd82614462565b6144d7818561446d565b93506144e781856020860161447e565b6144f0816144b1565b840191505092915050565b6000602082019050818103600083015261451581846144c2565b905092915050565b600061452882614326565b9050919050565b6145388161451d565b82525050565b6000602082019050614553600083018461452f565b92915050565b6145628161451d565b811461456d57600080fd5b50565b60008135905061457f81614559565b92915050565b6000806040838503121561459c5761459b6141d2565b5b60006145aa85828601614570565b92505060206145bb858286016142b8565b9150509250929050565b600080600080600060a086880312156145e1576145e06141d2565b5b60006145ef888289016142b8565b955050602061460088828901614570565b945050604061461188828901614570565b935050606061462288828901614570565b9250506080614633888289016142b8565b9150509295509295909350565b60008060408385031215614657576146566141d2565b5b6000614665858286016142b8565b9250506020614676858286016142b8565b9150509250929050565b61468981614346565b82525050565b61469881614367565b82525050565b60006040820190506146b36000830185614680565b6146c0602083018461468f565b9392505050565b600080fd5b600080fd5b7f4e487b7100000000000000000000000000000000000000000000000000000000600052604160045260246000fd5b614709826144b1565b810181811067ffffffffffffffff82111715614728576147276146d1565b5b80604052505050565b600061473b6141c8565b90506147478282614700565b919050565b600067ffffffffffffffff821115614767576147666146d1565b5b614770826144b1565b9050602081019050919050565b82818337600083830152505050565b600061479f61479a8461474c565b614731565b9050828152602081018484840111156147bb576147ba6146cc565b5b6147c684828561477d565b509392505050565b600082601f8301126147e3576147e26146c7565b5b81356147f384826020860161478c565b91505092915050565b60008060008060808587031215614816576148156141d2565b5b600061482487828801614570565b945050602061483587828801614570565b9350506040614846878288016142b8565b925050606085013567ffffffffffffffff811115614867576148666141d7565b5b614873878288016147ce565b91505092959194509250565b614888816141dc565b82525050565b60006020820190506148a3600083018461487f565b92915050565b6000806000606084860312156148c2576148c16141d2565b5b60006148d086828701614570565b93505060206148e186828701614570565b92505060406148f2868287016142b8565b9150509250925092565b60008060408385031215614913576149126141d2565b5b6000614921858286016142b8565b925050602061493285828601614570565b9150509250929050565b600060208284031215614952576149516141d2565b5b600061496084828501614570565b91505092915050565b61497281614297565b82525050565b600060208201905061498d6000830184614969565b92915050565b61499c81614261565b81146149a757600080fd5b50565b6000813590506149b981614993565b92915050565b600080604083850312156149d6576149d56141d2565b5b60006149e485828601614570565b92505060206149f5858286016149aa565b9150509250929050565b600067ffffffffffffffff821115614a1a57614a196146d1565b5b602082029050602081019050919050565b600080fd5b600080fd5b614a3e81614346565b8114614a4957600080fd5b50565b600081359050614a5b81614a35565b92915050565b614a6a81614367565b8114614a7557600080fd5b50565b600081359050614a8781614a61565b92915050565b600060408284031215614aa357614aa2614a30565b5b614aad6040614731565b90506000614abd84828501614a4c565b6000830152506020614ad184828501614a78565b60208301525092915050565b6000614af0614aeb846149ff565b614731565b90508083825260208201905060408402830185811115614b1357614b12614a2b565b5b835b81811015614b3c5780614b288882614a8d565b845260208401935050604081019050614b15565b5050509392505050565b600082601f830112614b5b57614b5a6146c7565b5b8135614b6b848260208601614add565b91505092915050565b60008060008060808587031215614b8e57614b8d6141d2565b5b6000614b9c878288016142b8565b9450506020614bad87828801614570565b9350506040614bbe878288016142b8565b925050606085013567ffffffffffffffff811115614bdf57614bde6141d7565b5b614beb87828801614b46565b91505092959194509250565b600080600060608486031215614c1057614c0f6141d2565b5b6000614c1e868287016142b8565b9350506020614c2f86828701614570565b9250506040614c40868287016142b8565b9150509250925092565b60008060408385031215614c6157614c606141d2565b5b6000614c6f85828601614570565b9250506020614c8085828601614570565b9150509250929050565b600067ffffffffffffffff821115614ca557614ca46146d1565b5b614cae826144b1565b9050602081019050919050565b6000614cce614cc984614c8a565b614731565b905082815260208101848484011115614cea57614ce96146cc565b5b614cf584828561477d565b509392505050565b600082601f830112614d1257614d116146c7565b5b8135614d22848260208601614cbb565b91505092915050565b600080600060608486031215614d4457614d436141d2565b5b6000614d5286828701614570565b935050602084013567ffffffffffffffff811115614d7357614d726141d7565b5b614d7f86828701614cfd565b925050604084013567ffffffffffffffff811115614da057614d9f6141d7565b5b614dac86828701614b46565b9150509250925092565b7f4e487b7100000000000000000000000000000000000000000000000000000000600052602260045260246000fd5b60006002820490506001821680614dfd57607f821691505b60208210811415614e1157614e10614db6565b5b50919050565b7f4552433732313a20617070726f76616c20746f2063757272656e74206f776e6560008201527f7200000000000000000000000000000000000000000000000000000000000000602082015250565b6000614e7360218361446d565b9150614e7e82614e17565b604082019050919050565b60006020820190508181036000830152614ea281614e66565b9050919050565b7f4552433732313a20617070726f76652063616c6c6572206973206e6f7420746f60008201527f6b656e206f776e6572206f7220617070726f76656420666f7220616c6c000000602082015250565b6000614f05603d8361446d565b9150614f1082614ea9565b604082019050919050565b60006020820190508181036000830152614f3481614ef8565b9050919050565b7f4f6e6c7920746f6b656e206f776e65722063616e206578656375746500000000600082015250565b6000614f71601c8361446d565b9150614f7c82614f3b565b602082019050919050565b60006020820190508181036000830152614fa081614f64565b9050919050565b7f30206164647265737320636f6e74726163740000000000000000000000000000600082015250565b6000614fdd60128361446d565b9150614fe882614fa7565b602082019050919050565b6000602082019050818103600083015261500c81614fd0565b9050919050565b7f30206164647265737320676976656e0000000000000000000000000000000000600082015250565b6000615049600f8361446d565b915061505482615013565b602082019050919050565b600060208201905081810360008301526150788161503c565b9050919050565b600060a0820190506150946000830188614969565b6150a1602083018761452f565b6150ae604083018661452f565b6150bb606083018561452f565b6150c86080830184614969565b9695505050505050565b7f4552433732313a2063616c6c6572206973206e6f7420746f6b656e206f776e6560008201527f72206f7220617070726f76656400000000000000000000000000000000000000602082015250565b600061512e602d8361446d565b9150615139826150d2565b604082019050919050565b6000602082019050818103600083015261515d81615121565b9050919050565b60006040820190506151796000830185614969565b615186602083018461452f565b9392505050565b7f4552433732313a20696e76616c696420746f6b656e2049440000000000000000600082015250565b60006151c360188361446d565b91506151ce8261518d565b602082019050919050565b600060208201905081810360008301526151f2816151b6565b9050919050565b7f4552433732313a2061646472657373207a65726f206973206e6f74206120766160008201527f6c6964206f776e65720000000000000000000000000000000000000000000000602082015250565b600061525560298361446d565b9150615260826151f9565b604082019050919050565b6000602082019050818103600083015261528481615248565b9050919050565b60006060820190506152a0600083018661452f565b6152ad602083018561452f565b6152ba6040830184614969565b949350505050565b6000815190506152d181614993565b92915050565b6000602082840312156152ed576152ec6141d2565b5b60006152fb848285016152c2565b91505092915050565b7f7472616e73666572206661696c65640000000000000000000000000000000000600082015250565b600061533a600f8361446d565b915061534582615304565b602082019050919050565b600060208201905081810360008301526153698161532d565b9050919050565b7f6e6f74206f776e65720000000000000000000000000000000000000000000000600082015250565b60006153a660098361446d565b91506153b182615370565b602082019050919050565b600060208201905081810360008301526153d581615399565b9050919050565b7f4e487b7100000000000000000000000000000000000000000000000000000000600052601160045260246000fd5b600061541682614297565b915061542183614297565b925082821015615434576154336153dc565b5b828203905092915050565b6000604082019050615454600083018561452f565b6154616020830184614969565b9392505050565b600060808201905061547d600083018761452f565b61548a6020830186614969565b615497604083018561452f565b6154a46060830184614969565b95945050505050565b600081905092915050565b60006154c382614462565b6154cd81856154ad565b93506154dd81856020860161447e565b80840191505092915050565b60006154f582856154b8565b915061550182846154b8565b91508190509392505050565b600061551882614297565b915061552383614297565b9250827fffffffffffffffffffffffffffffffffffffffffffffffffffffffffffffffff03821115615558576155576153dc565b5b828201905092915050565b7f5265656e7472616e637947756172643a207265656e7472616e742063616c6c00600082015250565b6000615599601f8361446d565b91506155a482615563565b602082019050919050565b600060208201905081810360008301526155c88161558c565b9050919050565b7f4552433732313a207472616e736665722066726f6d20696e636f72726563742060008201527f6f776e6572000000000000000000000000000000000000000000000000000000602082015250565b600061562b60258361446d565b9150615636826155cf565b604082019050919050565b6000602082019050818103600083015261565a8161561e565b9050919050565b7f4552433732313a207472616e7366657220746f20746865207a65726f2061646460008201527f7265737300000000000000000000000000000000000000000000000000000000602082015250565b60006156bd60248361446d565b91506156c882615661565b604082019050919050565b600060208201905081810360008301526156ec816156b0565b9050919050565b7f4552433732313a20617070726f766520746f2063616c6c657200000000000000600082015250565b600061572960198361446d565b9150615734826156f3565b602082019050919050565b600060208201905081810360008301526157588161571c565b9050919050565b7f5f746f6b656e496420646f6573206e6f742065786973742e0000000000000000600082015250565b600061579560188361446d565b91506157a08261575f565b602082019050919050565b600060208201905081810360008301526157c481615788565b9050919050565b7f726f79616c74696573203e203130000000000000000000000000000000000000600082015250565b6000615801600e8361446d565b915061580c826157cb565b602082019050919050565b60006020820190508181036000830152615830816157f4565b9050919050565b7f4e487b7100000000000000000000000000000000000000000000000000000000600052603260045260246000fd5b7f726f79616c74792076616c756520300000000000000000000000000000000000600082015250565b600061589c600f8361446d565b91506158a782615866565b602082019050919050565b600060208201905081810360008301526158cb8161588f565b9050919050565b60006158dd82614297565b91507fffffffffffffffffffffffffffffffffffffffffffffffffffffffffffffffff8214156159105761590f6153dc565b5b600182019050919050565b7f526f79616c74792073756d206f766572666c6f77000000000000000000000000600082015250565b600061595160148361446d565b915061595c8261591b565b602082019050919050565b6000602082019050818103600083015261598081615944565b9050919050565b600081905092915050565b61599b81614346565b82525050565b60006159ad8383615992565b60208301905092915050565b6159c281614367565b82525050565b60006159d483836159b9565b60208301905092915050565b6000820160008201516159f384826159a1565b9350506020820151615a0584826159c8565b935050505050565b6000615a1983836159e0565b60408301905092915050565b6000615a30826142fa565b615a3a8185615987565b9350615a4583614316565b8060005b83811015615a76578151615a5d8882615a0d565b9750615a68836143d5565b925050600181019050615a49565b5085935050505092915050565b6000615a8f8284615a25565b915081905092915050565b7f4552433732313a207472616e7366657220746f206e6f6e20455243373231526560008201527f63656976657220696d706c656d656e7465720000000000000000000000000000602082015250565b6000615af660328361446d565b9150615b0182615a9a565b604082019050919050565b60006020820190508181036000830152615b2581615ae9565b9050919050565b7f526f79616c747920726563697069656e742073686f756c64206265207072657360008201527f656e740000000000000000000000000000000000000000000000000000000000602082015250565b6000615b8860238361446d565b9150615b9382615b2c565b604082019050919050565b60006020820190508181036000830152615bb781615b7b565b9050919050565b7f726f79616c74792073756d206f766572666c6f77000000000000000000000000600082015250565b6000615bf460148361446d565b9150615bff82615bbe565b602082019050919050565b60006020820190508181036000830152615c2381615be7565b9050919050565b7f45524337323155524953746f726167653a2055524920736574206f66206e6f6e60008201527f6578697374656e7420746f6b656e000000000000000000000000000000000000602082015250565b6000615c86602e8361446d565b9150615c9182615c2a565b604082019050919050565b60006020820190508181036000830152615cb581615c79565b9050919050565b7f6c6f772065726332302062616c616e6365000000000000000000000000000000600082015250565b6000615cf260118361446d565b9150615cfd82615cbc565b602082019050919050565b60006020820190508181036000830152615d2181615ce5565b9050919050565b7f4e487b7100000000000000000000000000000000000000000000000000000000600052603160045260246000fd5b600081519050919050565b600082825260208201905092915050565b6000615d7e82615d57565b615d888185615d62565b9350615d9881856020860161447e565b615da1816144b1565b840191505092915050565b6000608082019050615dc1600083018761452f565b615dce602083018661452f565b615ddb6040830185614969565b8181036060830152615ded8184615d73565b905095945050505050565b600081519050615e0781614208565b92915050565b600060208284031215615e2357615e226141d2565b5b6000615e3184828501615df8565b91505092915050565b7f4e487b7100000000000000000000000000000000000000000000000000000000600052601260045260246000fd5b7f4552433732313a206d696e7420746f20746865207a65726f2061646472657373600082015250565b6000615e9f60208361446d565b9150615eaa82615e69565b602082019050919050565b60006020820190508181036000830152615ece81615e92565b9050919050565b7f4552433732313a20746f6b656e20616c7265616479206d696e74656400000000600082015250565b6000615f0b601c8361446d565b9150615f1682615ed5565b602082019050919050565b60006020820190508181036000830152615f3a81615efe565b905091905056fea2646970667358221220b96108cb5705f1b522489aa3724b164e512bd76cadf3cac7d4e1edfc02501eee64736f6c634300080b0033",
  "immutableReferences": {},
  "source": "// SPDX-License-Identifier: MIT\npragma solidity >=0.4.22 <0.9.0;\n\nimport \"@openzeppelin/contracts/token/ERC20/IERC20.sol\";\nimport \"@openzeppelin/contracts/token/ERC721/extensions/ERC721URIStorage.sol\";\nimport \"@openzeppelin/contracts/security/ReentrancyGuard.sol\";\nimport \"@openzeppelin/contracts/utils/Counters.sol\";\nimport \"@openzeppelin/contracts/token/ERC721/IERC721Receiver.sol\";\nimport \"./utils/LibShare.sol\";\nimport \"./Libraries/LibPool.sol\";\nimport \"./Libraries/LibCollection.sol\";\n\ncontract piNFT is ERC721URIStorage, IERC721Receiver, ReentrancyGuard {\n    using Counters for Counters.Counter;\n    Counters.Counter private _tokenIdCounter;\n\n    // tokenId => (token contract => balance)\n    mapping(uint256 => mapping(address => uint256)) erc20Balances;\n\n    // tokenId => token contract\n    mapping(uint256 => address[]) erc20Contracts;\n\n    // tokenId => royalties\n    mapping(uint256 => LibShare.Share[]) public royaltiesByTokenId;\n\n    mapping(uint256 => LibShare.Share[]) public royaltiesForValidator;\n\n    // tokenId => (token contract => token contract index)\n    mapping(uint256 => mapping(address => uint256)) erc20ContractIndex;\n\n    // TokenId => Owner Address\n    mapping(uint256 => address) NFTowner;\n\n    // TokenId => Amount\n    mapping(uint256 => uint256) withdrawnAmount;\n\n    mapping(uint256 => address) public approvedValidator;\n\n    event ERC20Added(\n        address indexed _from,\n        uint256 indexed _tokenId,\n        address indexed _erc20Contract,\n        uint256 _value\n    );\n    event ERC20Transferred(\n        uint256 indexed _tokenId,\n        address indexed _to,\n        address indexed _erc20Contract,\n        uint256 _value\n    );\n    event RoyaltiesSetForTokenId(\n        uint256 indexed tokenId,\n        LibShare.Share[] indexed royalties\n    );\n\n    event RoyaltiesSetForValidator(\n        uint256 indexed tokenId,\n        LibShare.Share[] indexed royalties\n    );\n\n    event PiNFTRedeemed(\n        uint256 tokenId,\n        address nftReciever,\n        address validatorAddress,\n        address erc20Contract,\n        uint256 value\n    );\n\n    event PiNFTBurnt(\n        uint256 tokenId,\n        address nftReciever,\n        address erc20Receiver,\n        address erc20Contract,\n        uint256 value\n    );\n\n    event ValidatorFundsWithdrawn(\n        address withdrawer,\n        uint256 tokenId,\n        address erc20Contract,\n        uint256 amount\n    );\n\n    event ValidatorFundsRepayed(\n        address repayer,\n        uint256 tokenId,\n        address erc20Contract,\n        uint256 amount\n    );\n\n    event ValidatorAdded(uint256 tokenId, address validator);\n\n    event TokenMinted(uint256 tokenId, address to);\n\n    constructor(\n        string memory _name,\n        string memory _symbol\n    ) ERC721(_name, _symbol) {}\n\n    modifier onlyOwnerOfToken(uint256 _tokenId) {\n        require(\n            msg.sender == ERC721.ownerOf(_tokenId),\n            \"Only token owner can execute\"\n        );\n        _;\n    }\n\n    // mints an ERC721 token to _to with _uri as token uri\n    function mintNFT(\n        address _to,\n        string memory _uri,\n        LibShare.Share[] memory royalties\n    ) public returns (uint256) {\n        require(_to != address(0), \"0 address given\");\n        uint256 tokenId_ = _tokenIdCounter.current();\n        _setRoyaltiesByTokenId(tokenId_, royalties);\n        _safeMint(_to, tokenId_);\n        _setTokenURI(tokenId_, _uri);\n        _tokenIdCounter.increment();\n        emit TokenMinted(tokenId_, _to);\n        return tokenId_;\n    }\n\n    function _setRoyaltiesByTokenId(\n        uint256 _tokenId,\n        LibShare.Share[] memory royalties\n    ) internal {\n        require(royalties.length <= 10, \"royalties > 10\");\n        delete royaltiesByTokenId[_tokenId];\n        uint256 sumRoyalties = 0;\n        for (uint256 i = 0; i < royalties.length; i++) {\n            require(\n                royalties[i].account != address(0x0),\n                \"Royalty recipient should be present\"\n            );\n            require(royalties[i].value != 0, \"royalty value 0\");\n            royaltiesByTokenId[_tokenId].push(royalties[i]);\n            sumRoyalties += royalties[i].value;\n        }\n        require(sumRoyalties < 10000, \"royalty sum overflow\");\n\n        emit RoyaltiesSetForTokenId(_tokenId, royalties);\n    }\n\n    function getRoyalties(\n        uint256 _tokenId\n    ) external view returns (LibShare.Share[] memory) {\n        return royaltiesByTokenId[_tokenId];\n    }\n\n    function getValidatorRoyalties(\n        uint256 _tokenId\n    ) external view returns (LibShare.Share[] memory) {\n        return royaltiesForValidator[_tokenId];\n    }\n\n    function addValidator(\n        uint256 _tokenId,\n        address _validator\n    ) external onlyOwnerOfToken(_tokenId) {\n        approvedValidator[_tokenId] = _validator;\n        emit ValidatorAdded(_tokenId, _validator);\n    }\n\n    // this function requires approval of tokens by _erc20Contract\n    // adds ERC20 tokens to the token with _tokenId(basically trasnfer ERC20 to this contract)\n    function addERC20(\n        uint256 _tokenId,\n        address _erc20Contract,\n        uint256 _value,\n        LibShare.Share[] memory royalties\n    ) public {\n        require(msg.sender == approvedValidator[_tokenId]);\n        require(_erc20Contract != address(0), \"0 address given\");\n        require(_value != 0);\n        require(erc20Contracts[_tokenId].length < 1);\n        NFTowner[_tokenId] = ERC721.ownerOf(_tokenId);\n        updateERC20(_tokenId, _erc20Contract, _value);\n        setRoyaltiesForValidator(_tokenId, royalties);\n        require(\n            IERC20(_erc20Contract).transferFrom(\n                msg.sender,\n                address(this),\n                _value\n            ),\n            \"transfer failed\"\n        );\n        emit ERC20Added(msg.sender, _tokenId, _erc20Contract, _value);\n    }\n\n    // update the mappings for a token on recieving ERC20 tokens\n    function updateERC20(\n        uint256 _tokenId,\n        address _erc20Contract,\n        uint256 _value\n    ) private {\n        require(\n            ERC721.ownerOf(_tokenId) != address(0),\n            \"_tokenId does not exist.\"\n        );\n        if (_value == 0) {\n            return;\n        }\n        uint256 erc20Balance = erc20Balances[_tokenId][_erc20Contract];\n        if (erc20Balance == 0) {\n            erc20ContractIndex[_tokenId][_erc20Contract] = erc20Contracts[\n                _tokenId\n            ].length;\n            erc20Contracts[_tokenId].push(_erc20Contract);\n        }\n        erc20Balances[_tokenId][_erc20Contract] += _value;\n    }\n\n    //Set Royalties for Validator\n    function setRoyaltiesForValidator(\n        uint256 _tokenId,\n        LibShare.Share[] memory royalties\n    ) internal {\n        require(royalties.length <= 10, \"royalties > 10\");\n        delete royaltiesForValidator[_tokenId];\n        uint256 sumRoyalties = 0;\n        for (uint256 i = 0; i < royalties.length; i++) {\n            require(royalties[i].account != address(0x0), \"0 address given\");\n            require(royalties[i].value != 0, \"royalty value 0\");\n            royaltiesForValidator[_tokenId].push(royalties[i]);\n            sumRoyalties += royalties[i].value;\n        }\n        require(sumRoyalties < 10000, \"Royalty sum overflow\");\n\n        emit RoyaltiesSetForValidator(_tokenId, royalties);\n    }\n\n    function redeemPiNFT(\n        uint256 _tokenId,\n        address _nftReciever,\n        address _validatorAddress,\n        address _erc20Contract,\n        uint256 _value\n    ) external onlyOwnerOfToken(_tokenId) nonReentrant {\n        require(_validatorAddress == approvedValidator[_tokenId]);\n        require(_erc20Contract != address(0), \"0 address contract\");\n        require(erc20Balances[_tokenId][_erc20Contract] != 0);\n        require(erc20Balances[_tokenId][_erc20Contract] == _value);\n        require(_nftReciever != address(0), \"0 address given\");\n        approvedValidator[_tokenId] = address(0);\n        NFTowner[_tokenId] = address(0);\n        _transferERC20(_tokenId, _validatorAddress, _erc20Contract, _value);\n        if (msg.sender != _nftReciever) {\n            ERC721.safeTransferFrom(msg.sender, _nftReciever, _tokenId);\n        }\n        emit PiNFTRedeemed(\n            _tokenId,\n            _nftReciever,\n            _validatorAddress,\n            _erc20Contract,\n            _value\n        );\n    }\n\n    function burnPiNFT(\n        uint256 _tokenId,\n        address _nftReciever,\n        address _erc20Reciever,\n        address _erc20Contract,\n        uint256 _value\n    ) external onlyOwnerOfToken(_tokenId) nonReentrant {\n        require(_nftReciever == approvedValidator[_tokenId]);\n        require(_erc20Contract != address(0), \"0 address contract\");\n        require(erc20Balances[_tokenId][_erc20Contract] != 0);\n        require(erc20Balances[_tokenId][_erc20Contract] == _value);\n        require(_nftReciever != address(0), \"0 address given\");\n        approvedValidator[_tokenId] = address(0);\n        NFTowner[_tokenId] = address(0);\n        _transferERC20(_tokenId, _erc20Reciever, _erc20Contract, _value);\n        ERC721.safeTransferFrom(msg.sender, _nftReciever, _tokenId);\n        emit PiNFTBurnt(\n            _tokenId,\n            _nftReciever,\n            _erc20Reciever,\n            _erc20Contract,\n            _value\n        );\n    }\n\n    // transfers the ERC 20 tokens from _tokenId(this contract) to _to address\n    function _transferERC20(\n        uint256 _tokenId,\n        address _to,\n        address _erc20Contract,\n        uint256 _value\n    ) private {\n        require(_to != address(0), \"0 address given\");\n        removeERC20(_tokenId, _erc20Contract, _value);\n        require(\n            IERC20(_erc20Contract).transfer(_to, _value),\n            \"transfer failed\"\n        );\n        emit ERC20Transferred(_tokenId, _to, _erc20Contract, _value);\n    }\n\n    // update the mappings for a token when ERC20 tokens gets removed\n    function removeERC20(\n        uint256 _tokenId,\n        address _erc20Contract,\n        uint256 _value\n    ) private {\n        if (_value == 0) {\n            return;\n        }\n        uint256 erc20Balance = erc20Balances[_tokenId][_erc20Contract];\n        require(erc20Balance >= _value, \"low erc20 balance\");\n        uint256 newERC20Balance = erc20Balance - _value;\n        erc20Balances[_tokenId][_erc20Contract] = newERC20Balance;\n        if (newERC20Balance == 0) {\n            uint256 lastContractIndex = erc20Contracts[_tokenId].length - 1;\n            address lastContract = erc20Contracts[_tokenId][lastContractIndex];\n            if (_erc20Contract != lastContract) {\n                uint256 contractIndex = erc20ContractIndex[_tokenId][\n                    _erc20Contract\n                ];\n                erc20Contracts[_tokenId][contractIndex] = lastContract;\n                erc20ContractIndex[_tokenId][lastContract] = contractIndex;\n            }\n            delete erc20ContractIndex[_tokenId][_erc20Contract];\n            erc20Contracts[_tokenId].pop();\n        }\n    }\n\n    // view ERC 20 token balance of a token\n    function viewBalance(\n        uint256 _tokenId,\n        address _erc20Address\n    ) public view returns (uint256) {\n        return erc20Balances[_tokenId][_erc20Address];\n    }\n\n    function withdraw(\n        uint256 _tokenId,\n        address _erc20Contract,\n        uint256 _amount\n    ) external nonReentrant {\n        require(NFTowner[_tokenId] == msg.sender, \"not owner\");\n        require(erc20Balances[_tokenId][_erc20Contract] != 0);\n        require(\n            withdrawnAmount[_tokenId] + _amount <=\n                erc20Balances[_tokenId][_erc20Contract]\n        );\n        require(\n            IERC20(_erc20Contract).transfer(msg.sender, _amount),\n            \"transfer failed\"\n        );\n\n        //needs approval on frontend\n        // transferring NFT to this address\n        if (withdrawnAmount[_tokenId] == 0) {\n            ERC721.safeTransferFrom(msg.sender, address(this), _tokenId);\n        }\n\n        withdrawnAmount[_tokenId] += _amount;\n        emit ValidatorFundsWithdrawn(\n            msg.sender,\n            _tokenId,\n            _erc20Contract,\n            _amount\n        );\n    }\n\n    function viewWithdrawnAmount(\n        uint256 _tokenId\n    ) public view returns (uint256) {\n        return withdrawnAmount[_tokenId];\n    }\n\n    function Repay(\n        uint256 _tokenId,\n        address _erc20Contract,\n        uint256 _amount\n    ) external nonReentrant {\n        require(NFTowner[_tokenId] == msg.sender, \"not owner\");\n        require(erc20Balances[_tokenId][_erc20Contract] != 0);\n        require(_amount <= withdrawnAmount[_tokenId]);\n        // Send payment to the Pool\n        require(\n            IERC20(_erc20Contract).transferFrom(\n                msg.sender,\n                address(this),\n                _amount\n            ),\n            \"transfer failed\"\n        );\n        withdrawnAmount[_tokenId] -= _amount;\n\n        if (withdrawnAmount[_tokenId] == 0) {\n            ERC721(address(this)).approve(msg.sender, _tokenId);\n            ERC721.safeTransferFrom(address(this), msg.sender, _tokenId);\n        }\n        emit ValidatorFundsRepayed(\n            msg.sender,\n            _tokenId,\n            _erc20Contract,\n            _amount\n        );\n    }\n\n    function onERC721Received(\n        address,\n        address,\n        uint256,\n        bytes memory\n    ) public virtual override returns (bytes4) {\n        return this.onERC721Received.selector;\n    }\n}\n",
  "sourcePath": "/home/sheeshco/code/truffle/aconomy-contract/contracts/piNFT.sol",
  "compiler": {
    "name": "solc",
    "version": "0.8.11+commit.d7f03943.Emscripten.clang"
  },
  "schemaVersion": "3.4.10",
  "updatedAt": "2023-03-17T06:00:03.406Z",
  "devdoc": {
    "kind": "dev",
    "methods": {
      "approve(address,uint256)": {
        "details": "See {IERC721-approve}."
      },
      "balanceOf(address)": {
        "details": "See {IERC721-balanceOf}."
      },
      "getApproved(uint256)": {
        "details": "See {IERC721-getApproved}."
      },
      "isApprovedForAll(address,address)": {
        "details": "See {IERC721-isApprovedForAll}."
      },
      "name()": {
        "details": "See {IERC721Metadata-name}."
      },
      "ownerOf(uint256)": {
        "details": "See {IERC721-ownerOf}."
      },
      "safeTransferFrom(address,address,uint256)": {
        "details": "See {IERC721-safeTransferFrom}."
      },
      "safeTransferFrom(address,address,uint256,bytes)": {
        "details": "See {IERC721-safeTransferFrom}."
      },
      "setApprovalForAll(address,bool)": {
        "details": "See {IERC721-setApprovalForAll}."
      },
      "supportsInterface(bytes4)": {
        "details": "See {IERC165-supportsInterface}."
      },
      "symbol()": {
        "details": "See {IERC721Metadata-symbol}."
      },
      "tokenURI(uint256)": {
        "details": "See {IERC721Metadata-tokenURI}."
      },
      "transferFrom(address,address,uint256)": {
        "details": "See {IERC721-transferFrom}."
      }
    },
    "version": 1
  },
  "userdoc": {
    "kind": "user",
    "methods": {},
    "version": 1
  }
}