{
  "contractName": "piNFT",
  "abi": [
    {
      "inputs": [
        {
          "internalType": "string",
          "name": "_name",
          "type": "string"
        },
        {
          "internalType": "string",
          "name": "_symbol",
          "type": "string"
        }
      ],
      "stateMutability": "nonpayable",
      "type": "constructor"
    },
    {
      "anonymous": false,
      "inputs": [
        {
          "indexed": true,
          "internalType": "address",
          "name": "owner",
          "type": "address"
        },
        {
          "indexed": true,
          "internalType": "address",
          "name": "approved",
          "type": "address"
        },
        {
          "indexed": true,
          "internalType": "uint256",
          "name": "tokenId",
          "type": "uint256"
        }
      ],
      "name": "Approval",
      "type": "event"
    },
    {
      "anonymous": false,
      "inputs": [
        {
          "indexed": true,
          "internalType": "address",
          "name": "owner",
          "type": "address"
        },
        {
          "indexed": true,
          "internalType": "address",
          "name": "operator",
          "type": "address"
        },
        {
          "indexed": false,
          "internalType": "bool",
          "name": "approved",
          "type": "bool"
        }
      ],
      "name": "ApprovalForAll",
      "type": "event"
    },
    {
      "anonymous": false,
      "inputs": [
        {
          "indexed": true,
          "internalType": "address",
          "name": "_from",
          "type": "address"
        },
        {
          "indexed": true,
          "internalType": "uint256",
          "name": "_tokenId",
          "type": "uint256"
        },
        {
          "indexed": true,
          "internalType": "address",
          "name": "_erc20Contract",
          "type": "address"
        },
        {
          "indexed": false,
          "internalType": "uint256",
          "name": "_value",
          "type": "uint256"
        }
      ],
      "name": "ERC20Added",
      "type": "event"
    },
    {
      "anonymous": false,
      "inputs": [
        {
          "indexed": true,
          "internalType": "uint256",
          "name": "_tokenId",
          "type": "uint256"
        },
        {
          "indexed": true,
          "internalType": "address",
          "name": "_to",
          "type": "address"
        },
        {
          "indexed": true,
          "internalType": "address",
          "name": "_erc20Contract",
          "type": "address"
        },
        {
          "indexed": false,
          "internalType": "uint256",
          "name": "_value",
          "type": "uint256"
        }
      ],
      "name": "ERC20Transferred",
      "type": "event"
    },
    {
      "anonymous": false,
      "inputs": [
        {
          "indexed": false,
          "internalType": "uint256",
          "name": "tokenId",
          "type": "uint256"
        },
        {
          "indexed": false,
          "internalType": "address",
          "name": "nftReciever",
          "type": "address"
        },
        {
          "indexed": false,
          "internalType": "address",
          "name": "erc20Receiver",
          "type": "address"
        },
        {
          "indexed": false,
          "internalType": "address",
          "name": "erc20Contract",
          "type": "address"
        },
        {
          "indexed": false,
          "internalType": "uint256",
          "name": "value",
          "type": "uint256"
        }
      ],
      "name": "PiNFTBurnt",
      "type": "event"
    },
    {
      "anonymous": false,
      "inputs": [
        {
          "indexed": false,
          "internalType": "uint256",
          "name": "tokenId",
          "type": "uint256"
        },
        {
          "indexed": false,
          "internalType": "address",
          "name": "nftReciever",
          "type": "address"
        },
        {
          "indexed": false,
          "internalType": "address",
          "name": "validatorAddress",
          "type": "address"
        },
        {
          "indexed": false,
          "internalType": "address",
          "name": "erc20Contract",
          "type": "address"
        },
        {
          "indexed": false,
          "internalType": "uint256",
          "name": "value",
          "type": "uint256"
        }
      ],
      "name": "PiNFTRedeemed",
      "type": "event"
    },
    {
      "anonymous": false,
      "inputs": [
        {
          "indexed": true,
          "internalType": "uint256",
          "name": "tokenId",
          "type": "uint256"
        },
        {
          "components": [
            {
              "internalType": "address payable",
              "name": "account",
              "type": "address"
            },
            {
              "internalType": "uint96",
              "name": "value",
              "type": "uint96"
            }
          ],
          "indexed": true,
          "internalType": "struct LibShare.Share[]",
          "name": "royalties",
          "type": "tuple[]"
        }
      ],
      "name": "RoyaltiesSetForTokenId",
      "type": "event"
    },
    {
      "anonymous": false,
      "inputs": [
        {
          "indexed": true,
          "internalType": "uint256",
          "name": "tokenId",
          "type": "uint256"
        },
        {
          "components": [
            {
              "internalType": "address payable",
              "name": "account",
              "type": "address"
            },
            {
              "internalType": "uint96",
              "name": "value",
              "type": "uint96"
            }
          ],
          "indexed": true,
          "internalType": "struct LibShare.Share[]",
          "name": "royalties",
          "type": "tuple[]"
        }
      ],
      "name": "RoyaltiesSetForValidator",
      "type": "event"
    },
    {
      "anonymous": false,
      "inputs": [
        {
          "indexed": false,
          "internalType": "uint256",
          "name": "tokenId",
          "type": "uint256"
        },
        {
          "indexed": false,
          "internalType": "address",
          "name": "to",
          "type": "address"
        }
      ],
      "name": "TokenMinted",
      "type": "event"
    },
    {
      "anonymous": false,
      "inputs": [
        {
          "indexed": true,
          "internalType": "address",
          "name": "from",
          "type": "address"
        },
        {
          "indexed": true,
          "internalType": "address",
          "name": "to",
          "type": "address"
        },
        {
          "indexed": true,
          "internalType": "uint256",
          "name": "tokenId",
          "type": "uint256"
        }
      ],
      "name": "Transfer",
      "type": "event"
    },
    {
      "anonymous": false,
      "inputs": [
        {
          "indexed": false,
          "internalType": "uint256",
          "name": "tokenId",
          "type": "uint256"
        },
        {
          "indexed": false,
          "internalType": "address",
          "name": "validator",
          "type": "address"
        }
      ],
      "name": "ValidatorAdded",
      "type": "event"
    },
    {
      "anonymous": false,
      "inputs": [
        {
          "indexed": false,
          "internalType": "address",
          "name": "repayer",
          "type": "address"
        },
        {
          "indexed": false,
          "internalType": "uint256",
          "name": "tokenId",
          "type": "uint256"
        },
        {
          "indexed": false,
          "internalType": "address",
          "name": "erc20Contract",
          "type": "address"
        },
        {
          "indexed": false,
          "internalType": "uint256",
          "name": "amount",
          "type": "uint256"
        }
      ],
      "name": "ValidatorFundsRepayed",
      "type": "event"
    },
    {
      "anonymous": false,
      "inputs": [
        {
          "indexed": false,
          "internalType": "address",
          "name": "withdrawer",
          "type": "address"
        },
        {
          "indexed": false,
          "internalType": "uint256",
          "name": "tokenId",
          "type": "uint256"
        },
        {
          "indexed": false,
          "internalType": "address",
          "name": "erc20Contract",
          "type": "address"
        },
        {
          "indexed": false,
          "internalType": "uint256",
          "name": "amount",
          "type": "uint256"
        }
      ],
      "name": "ValidatorFundsWithdrawn",
      "type": "event"
    },
    {
      "inputs": [
        {
          "internalType": "address",
          "name": "to",
          "type": "address"
        },
        {
          "internalType": "uint256",
          "name": "tokenId",
          "type": "uint256"
        }
      ],
      "name": "approve",
      "outputs": [],
      "stateMutability": "nonpayable",
      "type": "function"
    },
    {
      "inputs": [
        {
          "internalType": "uint256",
          "name": "",
          "type": "uint256"
        }
      ],
      "name": "approvedValidator",
      "outputs": [
        {
          "internalType": "address",
          "name": "",
          "type": "address"
        }
      ],
      "stateMutability": "view",
      "type": "function"
    },
    {
      "inputs": [
        {
          "internalType": "address",
          "name": "owner",
          "type": "address"
        }
      ],
      "name": "balanceOf",
      "outputs": [
        {
          "internalType": "uint256",
          "name": "",
          "type": "uint256"
        }
      ],
      "stateMutability": "view",
      "type": "function"
    },
    {
      "inputs": [
        {
          "internalType": "uint256",
          "name": "tokenId",
          "type": "uint256"
        }
      ],
      "name": "getApproved",
      "outputs": [
        {
          "internalType": "address",
          "name": "",
          "type": "address"
        }
      ],
      "stateMutability": "view",
      "type": "function"
    },
    {
      "inputs": [
        {
          "internalType": "address",
          "name": "owner",
          "type": "address"
        },
        {
          "internalType": "address",
          "name": "operator",
          "type": "address"
        }
      ],
      "name": "isApprovedForAll",
      "outputs": [
        {
          "internalType": "bool",
          "name": "",
          "type": "bool"
        }
      ],
      "stateMutability": "view",
      "type": "function"
    },
    {
      "inputs": [],
      "name": "name",
      "outputs": [
        {
          "internalType": "string",
          "name": "",
          "type": "string"
        }
      ],
      "stateMutability": "view",
      "type": "function"
    },
    {
      "inputs": [
        {
          "internalType": "uint256",
          "name": "tokenId",
          "type": "uint256"
        }
      ],
      "name": "ownerOf",
      "outputs": [
        {
          "internalType": "address",
          "name": "",
          "type": "address"
        }
      ],
      "stateMutability": "view",
      "type": "function"
    },
    {
      "inputs": [
        {
          "internalType": "uint256",
          "name": "",
          "type": "uint256"
        },
        {
          "internalType": "uint256",
          "name": "",
          "type": "uint256"
        }
      ],
      "name": "royaltiesByTokenId",
      "outputs": [
        {
          "internalType": "address payable",
          "name": "account",
          "type": "address"
        },
        {
          "internalType": "uint96",
          "name": "value",
          "type": "uint96"
        }
      ],
      "stateMutability": "view",
      "type": "function"
    },
    {
      "inputs": [
        {
          "internalType": "uint256",
          "name": "",
          "type": "uint256"
        },
        {
          "internalType": "uint256",
          "name": "",
          "type": "uint256"
        }
      ],
      "name": "royaltiesForValidator",
      "outputs": [
        {
          "internalType": "address payable",
          "name": "account",
          "type": "address"
        },
        {
          "internalType": "uint96",
          "name": "value",
          "type": "uint96"
        }
      ],
      "stateMutability": "view",
      "type": "function"
    },
    {
      "inputs": [
        {
          "internalType": "address",
          "name": "from",
          "type": "address"
        },
        {
          "internalType": "address",
          "name": "to",
          "type": "address"
        },
        {
          "internalType": "uint256",
          "name": "tokenId",
          "type": "uint256"
        }
      ],
      "name": "safeTransferFrom",
      "outputs": [],
      "stateMutability": "nonpayable",
      "type": "function"
    },
    {
      "inputs": [
        {
          "internalType": "address",
          "name": "from",
          "type": "address"
        },
        {
          "internalType": "address",
          "name": "to",
          "type": "address"
        },
        {
          "internalType": "uint256",
          "name": "tokenId",
          "type": "uint256"
        },
        {
          "internalType": "bytes",
          "name": "data",
          "type": "bytes"
        }
      ],
      "name": "safeTransferFrom",
      "outputs": [],
      "stateMutability": "nonpayable",
      "type": "function"
    },
    {
      "inputs": [
        {
          "internalType": "address",
          "name": "operator",
          "type": "address"
        },
        {
          "internalType": "bool",
          "name": "approved",
          "type": "bool"
        }
      ],
      "name": "setApprovalForAll",
      "outputs": [],
      "stateMutability": "nonpayable",
      "type": "function"
    },
    {
      "inputs": [
        {
          "internalType": "bytes4",
          "name": "interfaceId",
          "type": "bytes4"
        }
      ],
      "name": "supportsInterface",
      "outputs": [
        {
          "internalType": "bool",
          "name": "",
          "type": "bool"
        }
      ],
      "stateMutability": "view",
      "type": "function"
    },
    {
      "inputs": [],
      "name": "symbol",
      "outputs": [
        {
          "internalType": "string",
          "name": "",
          "type": "string"
        }
      ],
      "stateMutability": "view",
      "type": "function"
    },
    {
      "inputs": [
        {
          "internalType": "uint256",
          "name": "tokenId",
          "type": "uint256"
        }
      ],
      "name": "tokenURI",
      "outputs": [
        {
          "internalType": "string",
          "name": "",
          "type": "string"
        }
      ],
      "stateMutability": "view",
      "type": "function"
    },
    {
      "inputs": [
        {
          "internalType": "address",
          "name": "from",
          "type": "address"
        },
        {
          "internalType": "address",
          "name": "to",
          "type": "address"
        },
        {
          "internalType": "uint256",
          "name": "tokenId",
          "type": "uint256"
        }
      ],
      "name": "transferFrom",
      "outputs": [],
      "stateMutability": "nonpayable",
      "type": "function"
    },
    {
      "inputs": [
        {
          "internalType": "address",
          "name": "_to",
          "type": "address"
        },
        {
          "internalType": "string",
          "name": "_uri",
          "type": "string"
        },
        {
          "components": [
            {
              "internalType": "address payable",
              "name": "account",
              "type": "address"
            },
            {
              "internalType": "uint96",
              "name": "value",
              "type": "uint96"
            }
          ],
          "internalType": "struct LibShare.Share[]",
          "name": "royalties",
          "type": "tuple[]"
        }
      ],
      "name": "mintNFT",
      "outputs": [
        {
          "internalType": "uint256",
          "name": "",
          "type": "uint256"
        }
      ],
      "stateMutability": "nonpayable",
      "type": "function"
    },
    {
      "inputs": [
        {
          "internalType": "uint256",
          "name": "_tokenId",
          "type": "uint256"
        }
      ],
      "name": "getRoyalties",
      "outputs": [
        {
          "components": [
            {
              "internalType": "address payable",
              "name": "account",
              "type": "address"
            },
            {
              "internalType": "uint96",
              "name": "value",
              "type": "uint96"
            }
          ],
          "internalType": "struct LibShare.Share[]",
          "name": "",
          "type": "tuple[]"
        }
      ],
      "stateMutability": "view",
      "type": "function"
    },
    {
      "inputs": [
        {
          "internalType": "uint256",
          "name": "_tokenId",
          "type": "uint256"
        }
      ],
      "name": "getValidatorRoyalties",
      "outputs": [
        {
          "components": [
            {
              "internalType": "address payable",
              "name": "account",
              "type": "address"
            },
            {
              "internalType": "uint96",
              "name": "value",
              "type": "uint96"
            }
          ],
          "internalType": "struct LibShare.Share[]",
          "name": "",
          "type": "tuple[]"
        }
      ],
      "stateMutability": "view",
      "type": "function"
    },
    {
      "inputs": [
        {
          "internalType": "uint256",
          "name": "_tokenId",
          "type": "uint256"
        },
        {
          "internalType": "address",
          "name": "_validator",
          "type": "address"
        }
      ],
      "name": "addValidator",
      "outputs": [],
      "stateMutability": "nonpayable",
      "type": "function"
    },
    {
      "inputs": [
        {
          "internalType": "uint256",
          "name": "_tokenId",
          "type": "uint256"
        },
        {
          "internalType": "address",
          "name": "_erc20Contract",
          "type": "address"
        },
        {
          "internalType": "uint256",
          "name": "_value",
          "type": "uint256"
        },
        {
          "components": [
            {
              "internalType": "address payable",
              "name": "account",
              "type": "address"
            },
            {
              "internalType": "uint96",
              "name": "value",
              "type": "uint96"
            }
          ],
          "internalType": "struct LibShare.Share[]",
          "name": "royalties",
          "type": "tuple[]"
        }
      ],
      "name": "addERC20",
      "outputs": [],
      "stateMutability": "nonpayable",
      "type": "function"
    },
    {
      "inputs": [
        {
          "internalType": "uint256",
          "name": "_tokenId",
          "type": "uint256"
        },
        {
          "internalType": "address",
          "name": "_nftReciever",
          "type": "address"
        },
        {
          "internalType": "address",
          "name": "_erc20Contract",
          "type": "address"
        },
        {
          "internalType": "uint256",
          "name": "_value",
          "type": "uint256"
        }
      ],
      "name": "redeemPiNFT",
      "outputs": [],
      "stateMutability": "nonpayable",
      "type": "function"
    },
    {
      "inputs": [
        {
          "internalType": "uint256",
          "name": "_tokenId",
          "type": "uint256"
        },
        {
          "internalType": "address",
          "name": "_nftReciever",
          "type": "address"
        },
        {
          "internalType": "address",
          "name": "_erc20Reciever",
          "type": "address"
        },
        {
          "internalType": "address",
          "name": "_erc20Contract",
          "type": "address"
        },
        {
          "internalType": "uint256",
          "name": "_value",
          "type": "uint256"
        }
      ],
      "name": "burnPiNFT",
      "outputs": [],
      "stateMutability": "nonpayable",
      "type": "function"
    },
    {
      "inputs": [
        {
          "internalType": "uint256",
          "name": "_tokenId",
          "type": "uint256"
        },
        {
          "internalType": "address",
          "name": "_erc20Address",
          "type": "address"
        }
      ],
      "name": "viewBalance",
      "outputs": [
        {
          "internalType": "uint256",
          "name": "",
          "type": "uint256"
        }
      ],
      "stateMutability": "view",
      "type": "function"
    },
    {
      "inputs": [
        {
          "internalType": "uint256",
          "name": "_tokenId",
          "type": "uint256"
        },
        {
          "internalType": "address",
          "name": "_erc20Contract",
          "type": "address"
        },
        {
          "internalType": "uint256",
          "name": "_amount",
          "type": "uint256"
        }
      ],
      "name": "withdraw",
      "outputs": [],
      "stateMutability": "nonpayable",
      "type": "function"
    },
    {
      "inputs": [
        {
          "internalType": "uint256",
          "name": "_tokenId",
          "type": "uint256"
        }
      ],
      "name": "viewWithdrawnAmount",
      "outputs": [
        {
          "internalType": "uint256",
          "name": "",
          "type": "uint256"
        }
      ],
      "stateMutability": "view",
      "type": "function"
    },
    {
      "inputs": [
        {
          "internalType": "uint256",
          "name": "_tokenId",
          "type": "uint256"
        },
        {
          "internalType": "address",
          "name": "_erc20Contract",
          "type": "address"
        },
        {
          "internalType": "uint256",
          "name": "_amount",
          "type": "uint256"
        }
      ],
      "name": "Repay",
      "outputs": [],
      "stateMutability": "nonpayable",
      "type": "function"
    },
    {
      "inputs": [
        {
          "internalType": "uint256",
          "name": "_tokenId",
          "type": "uint256"
        },
        {
          "internalType": "address",
          "name": "_to",
          "type": "address"
        }
      ],
      "name": "transferAfterFunding",
      "outputs": [],
      "stateMutability": "nonpayable",
      "type": "function"
    },
    {
      "inputs": [
        {
          "internalType": "address",
          "name": "",
          "type": "address"
        },
        {
          "internalType": "address",
          "name": "",
          "type": "address"
        },
        {
          "internalType": "uint256",
          "name": "",
          "type": "uint256"
        },
        {
          "internalType": "bytes",
          "name": "",
          "type": "bytes"
        }
      ],
      "name": "onERC721Received",
      "outputs": [
        {
          "internalType": "bytes4",
          "name": "",
          "type": "bytes4"
        }
      ],
      "stateMutability": "nonpayable",
      "type": "function"
    }
  ],
  "bytecode": "0x60806040523480156200001157600080fd5b5060405162006321380380620063218339818101604052810190620000379190620002ca565b81818160009080519060200190620000519291906200007d565b5080600190805190602001906200006a9291906200007d565b50505060016007819055505050620003b4565b8280546200008b906200037e565b90600052602060002090601f016020900481019282620000af5760008555620000fb565b82601f10620000ca57805160ff1916838001178555620000fb565b82800160010185558215620000fb579182015b82811115620000fa578251825591602001919060010190620000dd565b5b5090506200010a91906200010e565b5090565b5b80821115620001295760008160009055506001016200010f565b5090565b6000604051905090565b600080fd5b600080fd5b600080fd5b600080fd5b6000601f19601f8301169050919050565b7f4e487b7100000000000000000000000000000000000000000000000000000000600052604160045260246000fd5b62000196826200014b565b810181811067ffffffffffffffff82111715620001b857620001b76200015c565b5b80604052505050565b6000620001cd6200012d565b9050620001db82826200018b565b919050565b600067ffffffffffffffff821115620001fe57620001fd6200015c565b5b62000209826200014b565b9050602081019050919050565b60005b838110156200023657808201518184015260208101905062000219565b8381111562000246576000848401525b50505050565b6000620002636200025d84620001e0565b620001c1565b90508281526020810184848401111562000282576200028162000146565b5b6200028f84828562000216565b509392505050565b600082601f830112620002af57620002ae62000141565b5b8151620002c18482602086016200024c565b91505092915050565b60008060408385031215620002e457620002e362000137565b5b600083015167ffffffffffffffff8111156200030557620003046200013c565b5b620003138582860162000297565b925050602083015167ffffffffffffffff8111156200033757620003366200013c565b5b620003458582860162000297565b9150509250929050565b7f4e487b7100000000000000000000000000000000000000000000000000000000600052602260045260246000fd5b600060028204905060018216806200039757607f821691505b60208210811415620003ae57620003ad6200034f565b5b50919050565b615f5d80620003c46000396000f3fe608060405234801561001057600080fd5b50600436106101cf5760003560e01c80639bc8ed3411610104578063c87b56dd116100a2578063e63697c811610071578063e63697c814610585578063e985e9c5146105a1578063ee53b6a9146105d1578063fb2ef4a314610601576101cf565b8063c87b56dd146104d9578063d51f299d14610509578063d9519b1814610539578063da9699aa14610555576101cf565b8063b88d4fde116100de578063b88d4fde14610441578063b95bd3b11461045d578063bb3bafd61461048d578063c030da26146104bd576101cf565b80639bc8ed34146103ed578063a22cb46514610409578063b439fd2c14610425576101cf565b8063150b7a02116101715780634b5617531161014b5780634b561753146103535780636352211e1461036f57806370a082311461039f57806395d89b41146103cf576101cf565b8063150b7a02146102eb57806323b872dd1461031b57806342842e0e14610337576101cf565b8063081812fc116101ad578063081812fc14610252578063095ea7b31461028257806309d4470c1461029e5780630b4f4446146102ba576101cf565b806301ffc9a7146101d457806302b421411461020457806306fdde0314610234575b600080fd5b6101ee60048036038101906101e9919061421f565b610632565b6040516101fb9190614267565b60405180910390f35b61021e600480360381019061021991906142b8565b610714565b60405161022b919061442b565b60405180910390f35b61023c610816565b60405161024991906144e6565b60405180910390f35b61026c600480360381019061026791906142b8565b6108a8565b6040516102799190614529565b60405180910390f35b61029c60048036038101906102979190614570565b6108ee565b005b6102b860048036038101906102b391906145b0565b610a06565b005b6102d460048036038101906102cf919061462b565b610d2a565b6040516102e2929190614689565b60405180910390f35b610305600480360381019061030091906147e7565b610d9f565b6040516103129190614879565b60405180910390f35b61033560048036038101906103309190614894565b610db3565b005b610351600480360381019061034c9190614894565b610e13565b005b61036d600480360381019061036891906148e7565b610e33565b005b610389600480360381019061038491906142b8565b610f3a565b6040516103969190614529565b60405180910390f35b6103b960048036038101906103b49190614927565b610fc1565b6040516103c69190614963565b60405180910390f35b6103d7611079565b6040516103e491906144e6565b60405180910390f35b610407600480360381019061040291906148e7565b61110b565b005b610423600480360381019061041e91906149aa565b6111ac565b005b61043f600480360381019061043a9190614b5f565b6111c2565b005b61045b600480360381019061045691906147e7565b611468565b005b610477600480360381019061047291906142b8565b6114ca565b6040516104849190614529565b60405180910390f35b6104a760048036038101906104a291906142b8565b6114fd565b6040516104b4919061442b565b60405180910390f35b6104d760048036038101906104d29190614be2565b6115ff565b005b6104f360048036038101906104ee91906142b8565b6118b8565b60405161050091906144e6565b60405180910390f35b610523600480360381019061051e91906148e7565b6119cb565b6040516105309190614963565b60405180910390f35b610553600480360381019061054e9190614c35565b611a26565b005b61056f600480360381019061056a91906142b8565b611de5565b60405161057c9190614963565b60405180910390f35b61059f600480360381019061059a9190614be2565b611e02565b005b6105bb60048036038101906105b69190614c9c565b6120dd565b6040516105c89190614267565b60405180910390f35b6105eb60048036038101906105e69190614d7d565b612171565b6040516105f89190614963565b60405180910390f35b61061b6004803603810190610616919061462b565b61225c565b604051610629929190614689565b60405180910390f35b60007f80ac58cd000000000000000000000000000000000000000000000000000000007bffffffffffffffffffffffffffffffffffffffffffffffffffffffff1916827bffffffffffffffffffffffffffffffffffffffffffffffffffffffff191614806106fd57507f5b5e139f000000000000000000000000000000000000000000000000000000007bffffffffffffffffffffffffffffffffffffffffffffffffffffffff1916827bffffffffffffffffffffffffffffffffffffffffffffffffffffffff1916145b8061070d575061070c826122d1565b5b9050919050565b6060600c6000838152602001908152602001600020805480602002602001604051908101604052809291908181526020016000905b8282101561080b578382906000526020600020016040518060400160405290816000820160009054906101000a900473ffffffffffffffffffffffffffffffffffffffff1673ffffffffffffffffffffffffffffffffffffffff1673ffffffffffffffffffffffffffffffffffffffff1681526020016000820160149054906101000a90046bffffffffffffffffffffffff166bffffffffffffffffffffffff166bffffffffffffffffffffffff168152505081526020019060010190610749565b505050509050919050565b60606000805461082590614e37565b80601f016020809104026020016040519081016040528092919081815260200182805461085190614e37565b801561089e5780601f106108735761010080835404028352916020019161089e565b820191906000526020600020905b81548152906001019060200180831161088157829003601f168201915b5050505050905090565b60006108b38261233b565b6004600083815260200190815260200160002060009054906101000a900473ffffffffffffffffffffffffffffffffffffffff169050919050565b60006108f982610f3a565b90508073ffffffffffffffffffffffffffffffffffffffff168373ffffffffffffffffffffffffffffffffffffffff16141561096a576040517f08c379a000000000000000000000000000000000000000000000000000000000815260040161096190614edb565b60405180910390fd5b8073ffffffffffffffffffffffffffffffffffffffff16610989612386565b73ffffffffffffffffffffffffffffffffffffffff1614806109b857506109b7816109b2612386565b6120dd565b5b6109f7576040517f08c379a00000000000000000000000000000000000000000000000000000000081526004016109ee90614f6d565b60405180910390fd5b610a01838361238e565b505050565b84610a1081610f3a565b73ffffffffffffffffffffffffffffffffffffffff163373ffffffffffffffffffffffffffffffffffffffff1614610a7d576040517f08c379a0000000000000000000000000000000000000000000000000000000008152600401610a7490614fd9565b60405180910390fd5b610a85612447565b6010600087815260200190815260200160002060009054906101000a900473ffffffffffffffffffffffffffffffffffffffff1673ffffffffffffffffffffffffffffffffffffffff168573ffffffffffffffffffffffffffffffffffffffff1614610af057600080fd5b600073ffffffffffffffffffffffffffffffffffffffff168373ffffffffffffffffffffffffffffffffffffffff161415610b2a57600080fd5b60006009600088815260200190815260200160002060008573ffffffffffffffffffffffffffffffffffffffff1673ffffffffffffffffffffffffffffffffffffffff168152602001908152602001600020541415610b8857600080fd5b816009600088815260200190815260200160002060008573ffffffffffffffffffffffffffffffffffffffff1673ffffffffffffffffffffffffffffffffffffffff1681526020019081526020016000205414610be457600080fd5b600073ffffffffffffffffffffffffffffffffffffffff168573ffffffffffffffffffffffffffffffffffffffff161415610c1e57600080fd5b60006010600088815260200190815260200160002060006101000a81548173ffffffffffffffffffffffffffffffffffffffff021916908373ffffffffffffffffffffffffffffffffffffffff1602179055506000600e600088815260200190815260200160002060006101000a81548173ffffffffffffffffffffffffffffffffffffffff021916908373ffffffffffffffffffffffffffffffffffffffff160217905550610cd086858585612497565b610cdb338688610e13565b7fb74e38228fa42e9a77949ba790a29e0543f9fc8f580a6c223b6f6a824ab7de4e8686868686604051610d12959493929190614ff9565b60405180910390a1610d22612605565b505050505050565b600c6020528160005260406000208181548110610d4657600080fd5b90600052602060002001600091509150508060000160009054906101000a900473ffffffffffffffffffffffffffffffffffffffff16908060000160149054906101000a90046bffffffffffffffffffffffff16905082565b600063150b7a0260e01b9050949350505050565b610dc4610dbe612386565b8261260f565b610e03576040517f08c379a0000000000000000000000000000000000000000000000000000000008152600401610dfa906150be565b60405180910390fd5b610e0e8383836126a4565b505050565b610e2e83838360405180602001604052806000815250611468565b505050565b81610e3d81610f3a565b73ffffffffffffffffffffffffffffffffffffffff163373ffffffffffffffffffffffffffffffffffffffff1614610eaa576040517f08c379a0000000000000000000000000000000000000000000000000000000008152600401610ea190614fd9565b60405180910390fd5b816010600085815260200190815260200160002060006101000a81548173ffffffffffffffffffffffffffffffffffffffff021916908373ffffffffffffffffffffffffffffffffffffffff1602179055507f7429a06e9412e469f0d64f9d222640b0af359f556b709e2913588c227851b88d8383604051610f2d9291906150de565b60405180910390a1505050565b600080610f468361299e565b9050600073ffffffffffffffffffffffffffffffffffffffff168173ffffffffffffffffffffffffffffffffffffffff161415610fb8576040517f08c379a0000000000000000000000000000000000000000000000000000000008152600401610faf90615153565b60405180910390fd5b80915050919050565b60008073ffffffffffffffffffffffffffffffffffffffff168273ffffffffffffffffffffffffffffffffffffffff161415611032576040517f08c379a0000000000000000000000000000000000000000000000000000000008152600401611029906151e5565b60405180910390fd5b600360008373ffffffffffffffffffffffffffffffffffffffff1673ffffffffffffffffffffffffffffffffffffffff168152602001908152602001600020549050919050565b60606001805461108890614e37565b80601f01602080910402602001604051908101604052809291908181526020018280546110b490614e37565b80156111015780601f106110d657610100808354040283529160200191611101565b820191906000526020600020905b8154815290600101906020018083116110e457829003601f168201915b5050505050905090565b3373ffffffffffffffffffffffffffffffffffffffff1661112b83610f3a565b73ffffffffffffffffffffffffffffffffffffffff161461114b57600080fd5b80600e600084815260200190815260200160002060006101000a81548173ffffffffffffffffffffffffffffffffffffffff021916908373ffffffffffffffffffffffffffffffffffffffff1602179055506111a8338284610e13565b5050565b6111be6111b7612386565b83836129db565b5050565b6010600085815260200190815260200160002060009054906101000a900473ffffffffffffffffffffffffffffffffffffffff1673ffffffffffffffffffffffffffffffffffffffff163373ffffffffffffffffffffffffffffffffffffffff161461122d57600080fd5b600073ffffffffffffffffffffffffffffffffffffffff168373ffffffffffffffffffffffffffffffffffffffff16141561129d576040517f08c379a000000000000000000000000000000000000000000000000000000000815260040161129490615251565b60405180910390fd5b60008214156112ab57600080fd5b6001600a600086815260200190815260200160002080549050106112ce57600080fd5b6112d784610f3a565b600e600086815260200190815260200160002060006101000a81548173ffffffffffffffffffffffffffffffffffffffff021916908373ffffffffffffffffffffffffffffffffffffffff160217905550611333848484612b48565b61133d8482612d7a565b8273ffffffffffffffffffffffffffffffffffffffff166323b872dd3330856040518463ffffffff1660e01b815260040161137a93929190615271565b6020604051808303816000875af1158015611399573d6000803e3d6000fd5b505050506040513d601f19601f820116820180604052508101906113bd91906152bd565b6113fc576040517f08c379a00000000000000000000000000000000000000000000000000000000081526004016113f390615336565b60405180910390fd5b8273ffffffffffffffffffffffffffffffffffffffff16843373ffffffffffffffffffffffffffffffffffffffff167f2d26c4b3092c22e3e65b16783ba6c105f58fd10b1bb90ef68bb36037d75f7e018560405161145a9190614963565b60405180910390a450505050565b611479611473612386565b8361260f565b6114b8576040517f08c379a00000000000000000000000000000000000000000000000000000000081526004016114af906150be565b60405180910390fd5b6114c484848484613096565b50505050565b60106020528060005260406000206000915054906101000a900473ffffffffffffffffffffffffffffffffffffffff1681565b6060600b6000838152602001908152602001600020805480602002602001604051908101604052809291908181526020016000905b828210156115f4578382906000526020600020016040518060400160405290816000820160009054906101000a900473ffffffffffffffffffffffffffffffffffffffff1673ffffffffffffffffffffffffffffffffffffffff1673ffffffffffffffffffffffffffffffffffffffff1681526020016000820160149054906101000a90046bffffffffffffffffffffffff166bffffffffffffffffffffffff166bffffffffffffffffffffffff168152505081526020019060010190611532565b505050509050919050565b611607612447565b3373ffffffffffffffffffffffffffffffffffffffff16600e600085815260200190815260200160002060009054906101000a900473ffffffffffffffffffffffffffffffffffffffff1673ffffffffffffffffffffffffffffffffffffffff161461167257600080fd5b60006009600085815260200190815260200160002060008473ffffffffffffffffffffffffffffffffffffffff1673ffffffffffffffffffffffffffffffffffffffff1681526020019081526020016000205414156116d057600080fd5b600f6000848152602001908152602001600020548111156116f057600080fd5b8173ffffffffffffffffffffffffffffffffffffffff166323b872dd3330846040518463ffffffff1660e01b815260040161172d93929190615271565b6020604051808303816000875af115801561174c573d6000803e3d6000fd5b505050506040513d601f19601f8201168201806040525081019061177091906152bd565b6117af576040517f08c379a00000000000000000000000000000000000000000000000000000000081526004016117a690615336565b60405180910390fd5b80600f600085815260200190815260200160002060008282546117d29190615385565b925050819055506000600f600085815260200190815260200160002054141561186e573073ffffffffffffffffffffffffffffffffffffffff1663095ea7b333856040518363ffffffff1660e01b81526004016118309291906153b9565b600060405180830381600087803b15801561184a57600080fd5b505af115801561185e573d6000803e3d6000fd5b5050505061186d303385610e13565b5b7fb3b7a8bfc5508739ed035396eacfec00168bfc5b0fa6bcc619ccbb42eaab61a1338484846040516118a394939291906153e2565b60405180910390a16118b3612605565b505050565b60606118c38261233b565b60006006600084815260200190815260200160002080546118e390614e37565b80601f016020809104026020016040519081016040528092919081815260200182805461190f90614e37565b801561195c5780601f106119315761010080835404028352916020019161195c565b820191906000526020600020905b81548152906001019060200180831161193f57829003601f168201915b50505050509050600061196d6130f2565b90506000815114156119835781925050506119c6565b6000825111156119b85780826040516020016119a0929190615463565b604051602081830303815290604052925050506119c6565b6119c184613109565b925050505b919050565b60006009600084815260200190815260200160002060008373ffffffffffffffffffffffffffffffffffffffff1673ffffffffffffffffffffffffffffffffffffffff16815260200190815260200160002054905092915050565b83611a3081610f3a565b73ffffffffffffffffffffffffffffffffffffffff163373ffffffffffffffffffffffffffffffffffffffff1614611a9d576040517f08c379a0000000000000000000000000000000000000000000000000000000008152600401611a9490614fd9565b60405180910390fd5b611aa5612447565b600073ffffffffffffffffffffffffffffffffffffffff166010600087815260200190815260200160002060009054906101000a900473ffffffffffffffffffffffffffffffffffffffff1673ffffffffffffffffffffffffffffffffffffffff161415611b1257600080fd5b600073ffffffffffffffffffffffffffffffffffffffff168373ffffffffffffffffffffffffffffffffffffffff161415611b4c57600080fd5b60006009600087815260200190815260200160002060008573ffffffffffffffffffffffffffffffffffffffff1673ffffffffffffffffffffffffffffffffffffffff168152602001908152602001600020541415611baa57600080fd5b816009600087815260200190815260200160002060008573ffffffffffffffffffffffffffffffffffffffff1673ffffffffffffffffffffffffffffffffffffffff1681526020019081526020016000205414611c0657600080fd5b600073ffffffffffffffffffffffffffffffffffffffff168473ffffffffffffffffffffffffffffffffffffffff161415611c4057600080fd5b6000600e600087815260200190815260200160002060006101000a81548173ffffffffffffffffffffffffffffffffffffffff021916908373ffffffffffffffffffffffffffffffffffffffff160217905550611cd2856010600088815260200190815260200160002060009054906101000a900473ffffffffffffffffffffffffffffffffffffffff168585612497565b60006010600087815260200190815260200160002060006101000a81548173ffffffffffffffffffffffffffffffffffffffff021916908373ffffffffffffffffffffffffffffffffffffffff1602179055508373ffffffffffffffffffffffffffffffffffffffff163373ffffffffffffffffffffffffffffffffffffffff1614611d6457611d63338587610e13565b5b7f2058865d55d828509b5fe7c94f4db419055cb3a955b5de66eb6eaac40a6229e285856010600089815260200190815260200160002060009054906101000a900473ffffffffffffffffffffffffffffffffffffffff168686604051611dce959493929190614ff9565b60405180910390a1611dde612605565b5050505050565b6000600f6000838152602001908152602001600020549050919050565b611e0a612447565b3373ffffffffffffffffffffffffffffffffffffffff16600e600085815260200190815260200160002060009054906101000a900473ffffffffffffffffffffffffffffffffffffffff1673ffffffffffffffffffffffffffffffffffffffff1614611eab576040517f08c379a0000000000000000000000000000000000000000000000000000000008152600401611ea2906154d3565b60405180910390fd5b60006009600085815260200190815260200160002060008473ffffffffffffffffffffffffffffffffffffffff1673ffffffffffffffffffffffffffffffffffffffff168152602001908152602001600020541415611f0957600080fd5b6009600084815260200190815260200160002060008373ffffffffffffffffffffffffffffffffffffffff1673ffffffffffffffffffffffffffffffffffffffff1681526020019081526020016000205481600f600086815260200190815260200160002054611f7991906154f3565b1115611f8457600080fd5b8173ffffffffffffffffffffffffffffffffffffffff1663a9059cbb33836040518363ffffffff1660e01b8152600401611fbf9291906153b9565b6020604051808303816000875af1158015611fde573d6000803e3d6000fd5b505050506040513d601f19601f8201168201806040525081019061200291906152bd565b612041576040517f08c379a000000000000000000000000000000000000000000000000000000000815260040161203890615336565b60405180910390fd5b6000600f600085815260200190815260200160002054141561206957612068333085610e13565b5b80600f6000858152602001908152602001600020600082825461208c91906154f3565b925050819055507f6462fd54117e7bef3061a028c22b78ce207900b757cc2612ca600e35060e33a2338484846040516120c894939291906153e2565b60405180910390a16120d8612605565b505050565b6000600560008473ffffffffffffffffffffffffffffffffffffffff1673ffffffffffffffffffffffffffffffffffffffff16815260200190815260200160002060008373ffffffffffffffffffffffffffffffffffffffff1673ffffffffffffffffffffffffffffffffffffffff16815260200190815260200160002060009054906101000a900460ff16905092915050565b60008073ffffffffffffffffffffffffffffffffffffffff168473ffffffffffffffffffffffffffffffffffffffff1614156121e2576040517f08c379a00000000000000000000000000000000000000000000000000000000081526004016121d990615251565b60405180910390fd5b60006121ee6008613171565b90506121fa818461317f565b612204858261349b565b61220e81856134b9565b612218600861352d565b7f3a5398bda6f1f57d6c96834fa9bf02b5517bdc847d14312015a917ba421c31c981866040516122499291906150de565b60405180910390a1809150509392505050565b600b602052816000526040600020818154811061227857600080fd5b90600052602060002001600091509150508060000160009054906101000a900473ffffffffffffffffffffffffffffffffffffffff16908060000160149054906101000a90046bffffffffffffffffffffffff16905082565b60007f01ffc9a7000000000000000000000000000000000000000000000000000000007bffffffffffffffffffffffffffffffffffffffffffffffffffffffff1916827bffffffffffffffffffffffffffffffffffffffffffffffffffffffff1916149050919050565b61234481613543565b612383576040517f08c379a000000000000000000000000000000000000000000000000000000000815260040161237a90615153565b60405180910390fd5b50565b600033905090565b816004600083815260200190815260200160002060006101000a81548173ffffffffffffffffffffffffffffffffffffffff021916908373ffffffffffffffffffffffffffffffffffffffff160217905550808273ffffffffffffffffffffffffffffffffffffffff1661240183610f3a565b73ffffffffffffffffffffffffffffffffffffffff167f8c5be1e5ebec7d5bd14f71427d1e84f3dd0314c0f7b2291e5b200ac8c7c3b92560405160405180910390a45050565b6002600754141561248d576040517f08c379a000000000000000000000000000000000000000000000000000000000815260040161248490615595565b60405180910390fd5b6002600781905550565b600073ffffffffffffffffffffffffffffffffffffffff168373ffffffffffffffffffffffffffffffffffffffff1614156124d157600080fd5b6124dc848383613584565b8173ffffffffffffffffffffffffffffffffffffffff1663a9059cbb84836040518363ffffffff1660e01b81526004016125179291906153b9565b6020604051808303816000875af1158015612536573d6000803e3d6000fd5b505050506040513d601f19601f8201168201806040525081019061255a91906152bd565b612599576040517f08c379a000000000000000000000000000000000000000000000000000000000815260040161259090615336565b60405180910390fd5b8173ffffffffffffffffffffffffffffffffffffffff168373ffffffffffffffffffffffffffffffffffffffff16857f416f6e1e4e9196c181ec8150c9c6b6d1bbbddfe946258dbd8f1a62153e577619846040516125f79190614963565b60405180910390a450505050565b6001600781905550565b60008061261b83610f3a565b90508073ffffffffffffffffffffffffffffffffffffffff168473ffffffffffffffffffffffffffffffffffffffff16148061265d575061265c81856120dd565b5b8061269b57508373ffffffffffffffffffffffffffffffffffffffff16612683846108a8565b73ffffffffffffffffffffffffffffffffffffffff16145b91505092915050565b8273ffffffffffffffffffffffffffffffffffffffff166126c482610f3a565b73ffffffffffffffffffffffffffffffffffffffff161461271a576040517f08c379a000000000000000000000000000000000000000000000000000000000815260040161271190615627565b60405180910390fd5b600073ffffffffffffffffffffffffffffffffffffffff168273ffffffffffffffffffffffffffffffffffffffff16141561278a576040517f08c379a0000000000000000000000000000000000000000000000000000000008152600401612781906156b9565b60405180910390fd5b6127978383836001613917565b8273ffffffffffffffffffffffffffffffffffffffff166127b782610f3a565b73ffffffffffffffffffffffffffffffffffffffff161461280d576040517f08c379a000000000000000000000000000000000000000000000000000000000815260040161280490615627565b60405180910390fd5b6004600082815260200190815260200160002060006101000a81549073ffffffffffffffffffffffffffffffffffffffff02191690556001600360008573ffffffffffffffffffffffffffffffffffffffff1673ffffffffffffffffffffffffffffffffffffffff168152602001908152602001600020600082825403925050819055506001600360008473ffffffffffffffffffffffffffffffffffffffff1673ffffffffffffffffffffffffffffffffffffffff16815260200190815260200160002060008282540192505081905550816002600083815260200190815260200160002060006101000a81548173ffffffffffffffffffffffffffffffffffffffff021916908373ffffffffffffffffffffffffffffffffffffffff160217905550808273ffffffffffffffffffffffffffffffffffffffff168473ffffffffffffffffffffffffffffffffffffffff167fddf252ad1be2c89b69c2b068fc378daa952ba7f163c4a11628f55a4df523b3ef60405160405180910390a46129998383836001613a3d565b505050565b60006002600083815260200190815260200160002060009054906101000a900473ffffffffffffffffffffffffffffffffffffffff169050919050565b8173ffffffffffffffffffffffffffffffffffffffff168373ffffffffffffffffffffffffffffffffffffffff161415612a4a576040517f08c379a0000000000000000000000000000000000000000000000000000000008152600401612a4190615725565b60405180910390fd5b80600560008573ffffffffffffffffffffffffffffffffffffffff1673ffffffffffffffffffffffffffffffffffffffff16815260200190815260200160002060008473ffffffffffffffffffffffffffffffffffffffff1673ffffffffffffffffffffffffffffffffffffffff16815260200190815260200160002060006101000a81548160ff0219169083151502179055508173ffffffffffffffffffffffffffffffffffffffff168373ffffffffffffffffffffffffffffffffffffffff167f17307eab39ab6107e8899845ad3d59bd9653f200f220920489ca2b5937696c3183604051612b3b9190614267565b60405180910390a3505050565b600073ffffffffffffffffffffffffffffffffffffffff16612b6984610f3a565b73ffffffffffffffffffffffffffffffffffffffff161415612bc0576040517f08c379a0000000000000000000000000000000000000000000000000000000008152600401612bb790615791565b60405180910390fd5b6000811415612bce57612d75565b60006009600085815260200190815260200160002060008473ffffffffffffffffffffffffffffffffffffffff1673ffffffffffffffffffffffffffffffffffffffff1681526020019081526020016000205490506000811415612d0c57600a600085815260200190815260200160002080549050600d600086815260200190815260200160002060008573ffffffffffffffffffffffffffffffffffffffff1673ffffffffffffffffffffffffffffffffffffffff16815260200190815260200160002081905550600a6000858152602001908152602001600020839080600181540180825580915050600190039060005260206000200160009091909190916101000a81548173ffffffffffffffffffffffffffffffffffffffff021916908373ffffffffffffffffffffffffffffffffffffffff1602179055505b816009600086815260200190815260200160002060008573ffffffffffffffffffffffffffffffffffffffff1673ffffffffffffffffffffffffffffffffffffffff1681526020019081526020016000206000828254612d6c91906154f3565b92505081905550505b505050565b600a81511115612dbf576040517f08c379a0000000000000000000000000000000000000000000000000000000008152600401612db6906157fd565b60405180910390fd5b600c60008381526020019081526020016000206000612dde9190614092565b6000805b825181101561300957600073ffffffffffffffffffffffffffffffffffffffff16838281518110612e1657612e1561581d565b5b60200260200101516000015173ffffffffffffffffffffffffffffffffffffffff161415612e79576040517f08c379a0000000000000000000000000000000000000000000000000000000008152600401612e7090615251565b60405180910390fd5b6000838281518110612e8e57612e8d61581d565b5b6020026020010151602001516bffffffffffffffffffffffff161415612ee9576040517f08c379a0000000000000000000000000000000000000000000000000000000008152600401612ee090615898565b60405180910390fd5b600c6000858152602001908152602001600020838281518110612f0f57612f0e61581d565b5b60200260200101519080600181540180825580915050600190039060005260206000200160009091909190915060008201518160000160006101000a81548173ffffffffffffffffffffffffffffffffffffffff021916908373ffffffffffffffffffffffffffffffffffffffff16021790555060208201518160000160146101000a8154816bffffffffffffffffffffffff02191690836bffffffffffffffffffffffff1602179055505050828181518110612fcf57612fce61581d565b5b6020026020010151602001516bffffffffffffffffffffffff1682612ff491906154f3565b91508080613001906158b8565b915050612de2565b50612710811061304e576040517f08c379a00000000000000000000000000000000000000000000000000000000081526004016130459061594d565b60405180910390fd5b8160405161305c9190615a69565b6040518091039020837f4da18660b3a4505d8ad0b58514556847831a94cc0306b9de276aa372df45d47160405160405180910390a3505050565b6130a18484846126a4565b6130ad84848484613a43565b6130ec576040517f08c379a00000000000000000000000000000000000000000000000000000000081526004016130e390615af2565b60405180910390fd5b50505050565b606060405180602001604052806000815250905090565b60606131148261233b565b600061311e6130f2565b9050600081511161313e5760405180602001604052806000815250613169565b8061314884613bcb565b604051602001613159929190615463565b6040516020818303038152906040525b915050919050565b600081600001549050919050565b600a815111156131c4576040517f08c379a00000000000000000000000000000000000000000000000000000000081526004016131bb906157fd565b60405180910390fd5b600b600083815260200190815260200160002060006131e39190614092565b6000805b825181101561340e57600073ffffffffffffffffffffffffffffffffffffffff1683828151811061321b5761321a61581d565b5b60200260200101516000015173ffffffffffffffffffffffffffffffffffffffff16141561327e576040517f08c379a000000000000000000000000000000000000000000000000000000000815260040161327590615b84565b60405180910390fd5b60008382815181106132935761329261581d565b5b6020026020010151602001516bffffffffffffffffffffffff1614156132ee576040517f08c379a00000000000000000000000000000000000000000000000000000000081526004016132e590615898565b60405180910390fd5b600b60008581526020019081526020016000208382815181106133145761331361581d565b5b60200260200101519080600181540180825580915050600190039060005260206000200160009091909190915060008201518160000160006101000a81548173ffffffffffffffffffffffffffffffffffffffff021916908373ffffffffffffffffffffffffffffffffffffffff16021790555060208201518160000160146101000a8154816bffffffffffffffffffffffff02191690836bffffffffffffffffffffffff16021790555050508281815181106133d4576133d361581d565b5b6020026020010151602001516bffffffffffffffffffffffff16826133f991906154f3565b91508080613406906158b8565b9150506131e7565b506127108110613453576040517f08c379a000000000000000000000000000000000000000000000000000000000815260040161344a90615bf0565b60405180910390fd5b816040516134619190615a69565b6040518091039020837fe23425cf56a81561c420f592eb54f21107c562f26c8c78c4a20d26920d244e6660405160405180910390a3505050565b6134b5828260405180602001604052806000815250613ca3565b5050565b6134c282613543565b613501576040517f08c379a00000000000000000000000000000000000000000000000000000000081526004016134f890615c82565b60405180910390fd5b806006600084815260200190815260200160002090805190602001906135289291906140b3565b505050565b6001816000016000828254019250508190555050565b60008073ffffffffffffffffffffffffffffffffffffffff166135658361299e565b73ffffffffffffffffffffffffffffffffffffffff1614159050919050565b600081141561359257613912565b60006009600085815260200190815260200160002060008473ffffffffffffffffffffffffffffffffffffffff1673ffffffffffffffffffffffffffffffffffffffff1681526020019081526020016000205490508181101561362a576040517f08c379a000000000000000000000000000000000000000000000000000000000815260040161362190615cee565b60405180910390fd5b600082826136389190615385565b9050806009600087815260200190815260200160002060008673ffffffffffffffffffffffffffffffffffffffff1673ffffffffffffffffffffffffffffffffffffffff16815260200190815260200160002081905550600081141561390f5760006001600a6000888152602001908152602001600020805490506136bd9190615385565b90506000600a600088815260200190815260200160002082815481106136e6576136e561581d565b5b9060005260206000200160009054906101000a900473ffffffffffffffffffffffffffffffffffffffff1690508073ffffffffffffffffffffffffffffffffffffffff168673ffffffffffffffffffffffffffffffffffffffff1614613860576000600d600089815260200190815260200160002060008873ffffffffffffffffffffffffffffffffffffffff1673ffffffffffffffffffffffffffffffffffffffff16815260200190815260200160002054905081600a60008a815260200190815260200160002082815481106137c1576137c061581d565b5b9060005260206000200160006101000a81548173ffffffffffffffffffffffffffffffffffffffff021916908373ffffffffffffffffffffffffffffffffffffffff16021790555080600d60008a815260200190815260200160002060008473ffffffffffffffffffffffffffffffffffffffff1673ffffffffffffffffffffffffffffffffffffffff16815260200190815260200160002081905550505b600d600088815260200190815260200160002060008773ffffffffffffffffffffffffffffffffffffffff1673ffffffffffffffffffffffffffffffffffffffff16815260200190815260200160002060009055600a60008881526020019081526020016000208054806138d7576138d6615d0e565b5b6001900381819060005260206000200160006101000a81549073ffffffffffffffffffffffffffffffffffffffff0219169055905550505b50505b505050565b6001811115613a3757600073ffffffffffffffffffffffffffffffffffffffff168473ffffffffffffffffffffffffffffffffffffffff16146139ab5780600360008673ffffffffffffffffffffffffffffffffffffffff1673ffffffffffffffffffffffffffffffffffffffff16815260200190815260200160002060008282546139a39190615385565b925050819055505b600073ffffffffffffffffffffffffffffffffffffffff168373ffffffffffffffffffffffffffffffffffffffff1614613a365780600360008573ffffffffffffffffffffffffffffffffffffffff1673ffffffffffffffffffffffffffffffffffffffff1681526020019081526020016000206000828254613a2e91906154f3565b925050819055505b5b50505050565b50505050565b6000613a648473ffffffffffffffffffffffffffffffffffffffff16613cfe565b15613bbe578373ffffffffffffffffffffffffffffffffffffffff1663150b7a02613a8d612386565b8786866040518563ffffffff1660e01b8152600401613aaf9493929190615d92565b6020604051808303816000875af1925050508015613aeb57506040513d601f19601f82011682018060405250810190613ae89190615df3565b60015b613b6e573d8060008114613b1b576040519150601f19603f3d011682016040523d82523d6000602084013e613b20565b606091505b50600081511415613b66576040517f08c379a0000000000000000000000000000000000000000000000000000000008152600401613b5d90615af2565b60405180910390fd5b805181602001fd5b63150b7a0260e01b7bffffffffffffffffffffffffffffffffffffffffffffffffffffffff1916817bffffffffffffffffffffffffffffffffffffffffffffffffffffffff191614915050613bc3565b600190505b949350505050565b606060006001613bda84613d21565b01905060008167ffffffffffffffff811115613bf957613bf86146bc565b5b6040519080825280601f01601f191660200182016040528015613c2b5781602001600182028036833780820191505090505b509050600082602001820190505b600115613c98578080600190039150507f3031323334353637383961626364656600000000000000000000000000000000600a86061a8153600a8581613c8257613c81615e20565b5b0494506000851415613c9357613c98565b613c39565b819350505050919050565b613cad8383613e74565b613cba6000848484613a43565b613cf9576040517f08c379a0000000000000000000000000000000000000000000000000000000008152600401613cf090615af2565b60405180910390fd5b505050565b6000808273ffffffffffffffffffffffffffffffffffffffff163b119050919050565b600080600090507a184f03e93ff9f4daa797ed6e38ed64bf6a1f0100000000000000008310613d7f577a184f03e93ff9f4daa797ed6e38ed64bf6a1f0100000000000000008381613d7557613d74615e20565b5b0492506040810190505b6d04ee2d6d415b85acef81000000008310613dbc576d04ee2d6d415b85acef81000000008381613db257613db1615e20565b5b0492506020810190505b662386f26fc100008310613deb57662386f26fc100008381613de157613de0615e20565b5b0492506010810190505b6305f5e1008310613e14576305f5e1008381613e0a57613e09615e20565b5b0492506008810190505b6127108310613e39576127108381613e2f57613e2e615e20565b5b0492506004810190505b60648310613e5c5760648381613e5257613e51615e20565b5b0492506002810190505b600a8310613e6b576001810190505b80915050919050565b600073ffffffffffffffffffffffffffffffffffffffff168273ffffffffffffffffffffffffffffffffffffffff161415613ee4576040517f08c379a0000000000000000000000000000000000000000000000000000000008152600401613edb90615e9b565b60405180910390fd5b613eed81613543565b15613f2d576040517f08c379a0000000000000000000000000000000000000000000000000000000008152600401613f2490615f07565b60405180910390fd5b613f3b600083836001613917565b613f4481613543565b15613f84576040517f08c379a0000000000000000000000000000000000000000000000000000000008152600401613f7b90615f07565b60405180910390fd5b6001600360008473ffffffffffffffffffffffffffffffffffffffff1673ffffffffffffffffffffffffffffffffffffffff16815260200190815260200160002060008282540192505081905550816002600083815260200190815260200160002060006101000a81548173ffffffffffffffffffffffffffffffffffffffff021916908373ffffffffffffffffffffffffffffffffffffffff160217905550808273ffffffffffffffffffffffffffffffffffffffff16600073ffffffffffffffffffffffffffffffffffffffff167fddf252ad1be2c89b69c2b068fc378daa952ba7f163c4a11628f55a4df523b3ef60405160405180910390a461408e600083836001613a3d565b5050565b50805460008255906000526020600020908101906140b09190614139565b50565b8280546140bf90614e37565b90600052602060002090601f0160209004810192826140e15760008555614128565b82601f106140fa57805160ff1916838001178555614128565b82800160010185558215614128579182015b8281111561412757825182559160200191906001019061410c565b5b5090506141359190614196565b5090565b5b8082111561419257600080820160006101000a81549073ffffffffffffffffffffffffffffffffffffffff02191690556000820160146101000a8154906bffffffffffffffffffffffff02191690555060010161413a565b5090565b5b808211156141af576000816000905550600101614197565b5090565b6000604051905090565b600080fd5b600080fd5b60007fffffffff0000000000000000000000000000000000000000000000000000000082169050919050565b6141fc816141c7565b811461420757600080fd5b50565b600081359050614219816141f3565b92915050565b600060208284031215614235576142346141bd565b5b60006142438482850161420a565b91505092915050565b60008115159050919050565b6142618161424c565b82525050565b600060208201905061427c6000830184614258565b92915050565b6000819050919050565b61429581614282565b81146142a057600080fd5b50565b6000813590506142b28161428c565b92915050565b6000602082840312156142ce576142cd6141bd565b5b60006142dc848285016142a3565b91505092915050565b600081519050919050565b600082825260208201905092915050565b6000819050602082019050919050565b600073ffffffffffffffffffffffffffffffffffffffff82169050919050565b600061433c82614311565b9050919050565b61434c81614331565b82525050565b60006bffffffffffffffffffffffff82169050919050565b61437381614352565b82525050565b60408201600082015161438f6000850182614343565b5060208201516143a2602085018261436a565b50505050565b60006143b48383614379565b60408301905092915050565b6000602082019050919050565b60006143d8826142e5565b6143e281856142f0565b93506143ed83614301565b8060005b8381101561441e57815161440588826143a8565b9750614410836143c0565b9250506001810190506143f1565b5085935050505092915050565b6000602082019050818103600083015261444581846143cd565b905092915050565b600081519050919050565b600082825260208201905092915050565b60005b8381101561448757808201518184015260208101905061446c565b83811115614496576000848401525b50505050565b6000601f19601f8301169050919050565b60006144b88261444d565b6144c28185614458565b93506144d2818560208601614469565b6144db8161449c565b840191505092915050565b6000602082019050818103600083015261450081846144ad565b905092915050565b600061451382614311565b9050919050565b61452381614508565b82525050565b600060208201905061453e600083018461451a565b92915050565b61454d81614508565b811461455857600080fd5b50565b60008135905061456a81614544565b92915050565b60008060408385031215614587576145866141bd565b5b60006145958582860161455b565b92505060206145a6858286016142a3565b9150509250929050565b600080600080600060a086880312156145cc576145cb6141bd565b5b60006145da888289016142a3565b95505060206145eb8882890161455b565b94505060406145fc8882890161455b565b935050606061460d8882890161455b565b925050608061461e888289016142a3565b9150509295509295909350565b60008060408385031215614642576146416141bd565b5b6000614650858286016142a3565b9250506020614661858286016142a3565b9150509250929050565b61467481614331565b82525050565b61468381614352565b82525050565b600060408201905061469e600083018561466b565b6146ab602083018461467a565b9392505050565b600080fd5b600080fd5b7f4e487b7100000000000000000000000000000000000000000000000000000000600052604160045260246000fd5b6146f48261449c565b810181811067ffffffffffffffff82111715614713576147126146bc565b5b80604052505050565b60006147266141b3565b905061473282826146eb565b919050565b600067ffffffffffffffff821115614752576147516146bc565b5b61475b8261449c565b9050602081019050919050565b82818337600083830152505050565b600061478a61478584614737565b61471c565b9050828152602081018484840111156147a6576147a56146b7565b5b6147b1848285614768565b509392505050565b600082601f8301126147ce576147cd6146b2565b5b81356147de848260208601614777565b91505092915050565b60008060008060808587031215614801576148006141bd565b5b600061480f8782880161455b565b94505060206148208782880161455b565b9350506040614831878288016142a3565b925050606085013567ffffffffffffffff811115614852576148516141c2565b5b61485e878288016147b9565b91505092959194509250565b614873816141c7565b82525050565b600060208201905061488e600083018461486a565b92915050565b6000806000606084860312156148ad576148ac6141bd565b5b60006148bb8682870161455b565b93505060206148cc8682870161455b565b92505060406148dd868287016142a3565b9150509250925092565b600080604083850312156148fe576148fd6141bd565b5b600061490c858286016142a3565b925050602061491d8582860161455b565b9150509250929050565b60006020828403121561493d5761493c6141bd565b5b600061494b8482850161455b565b91505092915050565b61495d81614282565b82525050565b60006020820190506149786000830184614954565b92915050565b6149878161424c565b811461499257600080fd5b50565b6000813590506149a48161497e565b92915050565b600080604083850312156149c1576149c06141bd565b5b60006149cf8582860161455b565b92505060206149e085828601614995565b9150509250929050565b600067ffffffffffffffff821115614a0557614a046146bc565b5b602082029050602081019050919050565b600080fd5b600080fd5b614a2981614331565b8114614a3457600080fd5b50565b600081359050614a4681614a20565b92915050565b614a5581614352565b8114614a6057600080fd5b50565b600081359050614a7281614a4c565b92915050565b600060408284031215614a8e57614a8d614a1b565b5b614a98604061471c565b90506000614aa884828501614a37565b6000830152506020614abc84828501614a63565b60208301525092915050565b6000614adb614ad6846149ea565b61471c565b90508083825260208201905060408402830185811115614afe57614afd614a16565b5b835b81811015614b275780614b138882614a78565b845260208401935050604081019050614b00565b5050509392505050565b600082601f830112614b4657614b456146b2565b5b8135614b56848260208601614ac8565b91505092915050565b60008060008060808587031215614b7957614b786141bd565b5b6000614b87878288016142a3565b9450506020614b988782880161455b565b9350506040614ba9878288016142a3565b925050606085013567ffffffffffffffff811115614bca57614bc96141c2565b5b614bd687828801614b31565b91505092959194509250565b600080600060608486031215614bfb57614bfa6141bd565b5b6000614c09868287016142a3565b9350506020614c1a8682870161455b565b9250506040614c2b868287016142a3565b9150509250925092565b60008060008060808587031215614c4f57614c4e6141bd565b5b6000614c5d878288016142a3565b9450506020614c6e8782880161455b565b9350506040614c7f8782880161455b565b9250506060614c90878288016142a3565b91505092959194509250565b60008060408385031215614cb357614cb26141bd565b5b6000614cc18582860161455b565b9250506020614cd28582860161455b565b9150509250929050565b600067ffffffffffffffff821115614cf757614cf66146bc565b5b614d008261449c565b9050602081019050919050565b6000614d20614d1b84614cdc565b61471c565b905082815260208101848484011115614d3c57614d3b6146b7565b5b614d47848285614768565b509392505050565b600082601f830112614d6457614d636146b2565b5b8135614d74848260208601614d0d565b91505092915050565b600080600060608486031215614d9657614d956141bd565b5b6000614da48682870161455b565b935050602084013567ffffffffffffffff811115614dc557614dc46141c2565b5b614dd186828701614d4f565b925050604084013567ffffffffffffffff811115614df257614df16141c2565b5b614dfe86828701614b31565b9150509250925092565b7f4e487b7100000000000000000000000000000000000000000000000000000000600052602260045260246000fd5b60006002820490506001821680614e4f57607f821691505b60208210811415614e6357614e62614e08565b5b50919050565b7f4552433732313a20617070726f76616c20746f2063757272656e74206f776e6560008201527f7200000000000000000000000000000000000000000000000000000000000000602082015250565b6000614ec5602183614458565b9150614ed082614e69565b604082019050919050565b60006020820190508181036000830152614ef481614eb8565b9050919050565b7f4552433732313a20617070726f76652063616c6c6572206973206e6f7420746f60008201527f6b656e206f776e6572206f7220617070726f76656420666f7220616c6c000000602082015250565b6000614f57603d83614458565b9150614f6282614efb565b604082019050919050565b60006020820190508181036000830152614f8681614f4a565b9050919050565b7f4f6e6c7920746f6b656e206f776e65722063616e206578656375746500000000600082015250565b6000614fc3601c83614458565b9150614fce82614f8d565b602082019050919050565b60006020820190508181036000830152614ff281614fb6565b9050919050565b600060a08201905061500e6000830188614954565b61501b602083018761451a565b615028604083018661451a565b615035606083018561451a565b6150426080830184614954565b9695505050505050565b7f4552433732313a2063616c6c6572206973206e6f7420746f6b656e206f776e6560008201527f72206f7220617070726f76656400000000000000000000000000000000000000602082015250565b60006150a8602d83614458565b91506150b38261504c565b604082019050919050565b600060208201905081810360008301526150d78161509b565b9050919050565b60006040820190506150f36000830185614954565b615100602083018461451a565b9392505050565b7f4552433732313a20696e76616c696420746f6b656e2049440000000000000000600082015250565b600061513d601883614458565b915061514882615107565b602082019050919050565b6000602082019050818103600083015261516c81615130565b9050919050565b7f4552433732313a2061646472657373207a65726f206973206e6f74206120766160008201527f6c6964206f776e65720000000000000000000000000000000000000000000000602082015250565b60006151cf602983614458565b91506151da82615173565b604082019050919050565b600060208201905081810360008301526151fe816151c2565b9050919050565b7f30206164647265737320676976656e0000000000000000000000000000000000600082015250565b600061523b600f83614458565b915061524682615205565b602082019050919050565b6000602082019050818103600083015261526a8161522e565b9050919050565b6000606082019050615286600083018661451a565b615293602083018561451a565b6152a06040830184614954565b949350505050565b6000815190506152b78161497e565b92915050565b6000602082840312156152d3576152d26141bd565b5b60006152e1848285016152a8565b91505092915050565b7f7472616e73666572206661696c65640000000000000000000000000000000000600082015250565b6000615320600f83614458565b915061532b826152ea565b602082019050919050565b6000602082019050818103600083015261534f81615313565b9050919050565b7f4e487b7100000000000000000000000000000000000000000000000000000000600052601160045260246000fd5b600061539082614282565b915061539b83614282565b9250828210156153ae576153ad615356565b5b828203905092915050565b60006040820190506153ce600083018561451a565b6153db6020830184614954565b9392505050565b60006080820190506153f7600083018761451a565b6154046020830186614954565b615411604083018561451a565b61541e6060830184614954565b95945050505050565b600081905092915050565b600061543d8261444d565b6154478185615427565b9350615457818560208601614469565b80840191505092915050565b600061546f8285615432565b915061547b8284615432565b91508190509392505050565b7f6e6f74206f776e65720000000000000000000000000000000000000000000000600082015250565b60006154bd600983614458565b91506154c882615487565b602082019050919050565b600060208201905081810360008301526154ec816154b0565b9050919050565b60006154fe82614282565b915061550983614282565b9250827fffffffffffffffffffffffffffffffffffffffffffffffffffffffffffffffff0382111561553e5761553d615356565b5b828201905092915050565b7f5265656e7472616e637947756172643a207265656e7472616e742063616c6c00600082015250565b600061557f601f83614458565b915061558a82615549565b602082019050919050565b600060208201905081810360008301526155ae81615572565b9050919050565b7f4552433732313a207472616e736665722066726f6d20696e636f72726563742060008201527f6f776e6572000000000000000000000000000000000000000000000000000000602082015250565b6000615611602583614458565b915061561c826155b5565b604082019050919050565b6000602082019050818103600083015261564081615604565b9050919050565b7f4552433732313a207472616e7366657220746f20746865207a65726f2061646460008201527f7265737300000000000000000000000000000000000000000000000000000000602082015250565b60006156a3602483614458565b91506156ae82615647565b604082019050919050565b600060208201905081810360008301526156d281615696565b9050919050565b7f4552433732313a20617070726f766520746f2063616c6c657200000000000000600082015250565b600061570f601983614458565b915061571a826156d9565b602082019050919050565b6000602082019050818103600083015261573e81615702565b9050919050565b7f5f746f6b656e496420646f6573206e6f742065786973742e0000000000000000600082015250565b600061577b601883614458565b915061578682615745565b602082019050919050565b600060208201905081810360008301526157aa8161576e565b9050919050565b7f726f79616c74696573203e203130000000000000000000000000000000000000600082015250565b60006157e7600e83614458565b91506157f2826157b1565b602082019050919050565b60006020820190508181036000830152615816816157da565b9050919050565b7f4e487b7100000000000000000000000000000000000000000000000000000000600052603260045260246000fd5b7f726f79616c74792076616c756520300000000000000000000000000000000000600082015250565b6000615882600f83614458565b915061588d8261584c565b602082019050919050565b600060208201905081810360008301526158b181615875565b9050919050565b60006158c382614282565b91507fffffffffffffffffffffffffffffffffffffffffffffffffffffffffffffffff8214156158f6576158f5615356565b5b600182019050919050565b7f526f79616c74792073756d206f766572666c6f77000000000000000000000000600082015250565b6000615937601483614458565b915061594282615901565b602082019050919050565b600060208201905081810360008301526159668161592a565b9050919050565b600081905092915050565b61598181614331565b82525050565b60006159938383615978565b60208301905092915050565b6159a881614352565b82525050565b60006159ba838361599f565b60208301905092915050565b6000820160008201516159d98482615987565b93505060208201516159eb84826159ae565b935050505050565b60006159ff83836159c6565b60408301905092915050565b6000615a16826142e5565b615a20818561596d565b9350615a2b83614301565b8060005b83811015615a5c578151615a4388826159f3565b9750615a4e836143c0565b925050600181019050615a2f565b5085935050505092915050565b6000615a758284615a0b565b915081905092915050565b7f4552433732313a207472616e7366657220746f206e6f6e20455243373231526560008201527f63656976657220696d706c656d656e7465720000000000000000000000000000602082015250565b6000615adc603283614458565b9150615ae782615a80565b604082019050919050565b60006020820190508181036000830152615b0b81615acf565b9050919050565b7f526f79616c747920726563697069656e742073686f756c64206265207072657360008201527f656e740000000000000000000000000000000000000000000000000000000000602082015250565b6000615b6e602383614458565b9150615b7982615b12565b604082019050919050565b60006020820190508181036000830152615b9d81615b61565b9050919050565b7f726f79616c74792073756d206f766572666c6f77000000000000000000000000600082015250565b6000615bda601483614458565b9150615be582615ba4565b602082019050919050565b60006020820190508181036000830152615c0981615bcd565b9050919050565b7f45524337323155524953746f726167653a2055524920736574206f66206e6f6e60008201527f6578697374656e7420746f6b656e000000000000000000000000000000000000602082015250565b6000615c6c602e83614458565b9150615c7782615c10565b604082019050919050565b60006020820190508181036000830152615c9b81615c5f565b9050919050565b7f6c6f772062616c616e6365000000000000000000000000000000000000000000600082015250565b6000615cd8600b83614458565b9150615ce382615ca2565b602082019050919050565b60006020820190508181036000830152615d0781615ccb565b9050919050565b7f4e487b7100000000000000000000000000000000000000000000000000000000600052603160045260246000fd5b600081519050919050565b600082825260208201905092915050565b6000615d6482615d3d565b615d6e8185615d48565b9350615d7e818560208601614469565b615d878161449c565b840191505092915050565b6000608082019050615da7600083018761451a565b615db4602083018661451a565b615dc16040830185614954565b8181036060830152615dd38184615d59565b905095945050505050565b600081519050615ded816141f3565b92915050565b600060208284031215615e0957615e086141bd565b5b6000615e1784828501615dde565b91505092915050565b7f4e487b7100000000000000000000000000000000000000000000000000000000600052601260045260246000fd5b7f4552433732313a206d696e7420746f20746865207a65726f2061646472657373600082015250565b6000615e85602083614458565b9150615e9082615e4f565b602082019050919050565b60006020820190508181036000830152615eb481615e78565b9050919050565b7f4552433732313a20746f6b656e20616c7265616479206d696e74656400000000600082015250565b6000615ef1601c83614458565b9150615efc82615ebb565b602082019050919050565b60006020820190508181036000830152615f2081615ee4565b905091905056fea26469706673582212207bcf240d5e0f2516a58016db15d26abba19b3d6833b116c170d20e391895860864736f6c634300080b0033",
  "immutableReferences": {},
  "source": "// SPDX-License-Identifier: MIT\npragma solidity >=0.4.22 <0.9.0;\n\nimport \"@openzeppelin/contracts/token/ERC20/IERC20.sol\";\nimport \"@openzeppelin/contracts/token/ERC721/extensions/ERC721URIStorage.sol\";\nimport \"@openzeppelin/contracts/security/ReentrancyGuard.sol\";\nimport \"@openzeppelin/contracts/utils/Counters.sol\";\nimport \"@openzeppelin/contracts/token/ERC721/IERC721Receiver.sol\";\nimport \"./utils/LibShare.sol\";\nimport \"./Libraries/LibPool.sol\";\nimport \"./Libraries/LibCollection.sol\";\n\ncontract piNFT is ERC721URIStorage, IERC721Receiver, ReentrancyGuard {\n    using Counters for Counters.Counter;\n    Counters.Counter private _tokenIdCounter;\n\n    // tokenId => (token contract => balance)\n    mapping(uint256 => mapping(address => uint256)) erc20Balances;\n\n    // tokenId => token contract\n    mapping(uint256 => address[]) erc20Contracts;\n\n    // tokenId => royalties\n    mapping(uint256 => LibShare.Share[]) public royaltiesByTokenId;\n\n    mapping(uint256 => LibShare.Share[]) public royaltiesForValidator;\n\n    // tokenId => (token contract => token contract index)\n    mapping(uint256 => mapping(address => uint256)) erc20ContractIndex;\n\n    // TokenId => Owner Address\n    mapping(uint256 => address) NFTowner;\n\n    // TokenId => Amount\n    mapping(uint256 => uint256) withdrawnAmount;\n\n    mapping(uint256 => address) public approvedValidator;\n\n    event ERC20Added(\n        address indexed _from,\n        uint256 indexed _tokenId,\n        address indexed _erc20Contract,\n        uint256 _value\n    );\n    event ERC20Transferred(\n        uint256 indexed _tokenId,\n        address indexed _to,\n        address indexed _erc20Contract,\n        uint256 _value\n    );\n    event RoyaltiesSetForTokenId(\n        uint256 indexed tokenId,\n        LibShare.Share[] indexed royalties\n    );\n\n    event RoyaltiesSetForValidator(\n        uint256 indexed tokenId,\n        LibShare.Share[] indexed royalties\n    );\n\n    event PiNFTRedeemed(\n        uint256 tokenId,\n        address nftReciever,\n        address validatorAddress,\n        address erc20Contract,\n        uint256 value\n    );\n\n    event PiNFTBurnt(\n        uint256 tokenId,\n        address nftReciever,\n        address erc20Receiver,\n        address erc20Contract,\n        uint256 value\n    );\n\n    event ValidatorFundsWithdrawn(\n        address withdrawer,\n        uint256 tokenId,\n        address erc20Contract,\n        uint256 amount\n    );\n\n    event ValidatorFundsRepayed(\n        address repayer,\n        uint256 tokenId,\n        address erc20Contract,\n        uint256 amount\n    );\n\n    event ValidatorAdded(uint256 tokenId, address validator);\n\n    event TokenMinted(uint256 tokenId, address to);\n\n    constructor(string memory _name, string memory _symbol)\n        ERC721(_name, _symbol)\n    {}\n\n    modifier onlyOwnerOfToken(uint256 _tokenId) {\n        require(\n            msg.sender == ERC721.ownerOf(_tokenId),\n            \"Only token owner can execute\"\n        );\n        _;\n    }\n\n    // mints an ERC721 token to _to with _uri as token uri\n    function mintNFT(\n        address _to,\n        string memory _uri,\n        LibShare.Share[] memory royalties\n    ) public returns (uint256) {\n        require(_to != address(0), \"0 address given\");\n        uint256 tokenId_ = _tokenIdCounter.current();\n        _setRoyaltiesByTokenId(tokenId_, royalties);\n        _safeMint(_to, tokenId_);\n        _setTokenURI(tokenId_, _uri);\n        _tokenIdCounter.increment();\n        emit TokenMinted(tokenId_, _to);\n        return tokenId_;\n    }\n\n    function _setRoyaltiesByTokenId(\n        uint256 _tokenId,\n        LibShare.Share[] memory royalties\n    ) internal {\n        require(royalties.length <= 10, \"royalties > 10\");\n        delete royaltiesByTokenId[_tokenId];\n        uint256 sumRoyalties = 0;\n        for (uint256 i = 0; i < royalties.length; i++) {\n            require(\n                royalties[i].account != address(0x0),\n                \"Royalty recipient should be present\"\n            );\n            require(royalties[i].value != 0, \"royalty value 0\");\n            royaltiesByTokenId[_tokenId].push(royalties[i]);\n            sumRoyalties += royalties[i].value;\n        }\n        require(sumRoyalties < 10000, \"royalty sum overflow\");\n\n        emit RoyaltiesSetForTokenId(_tokenId, royalties);\n    }\n\n    function getRoyalties(uint256 _tokenId)\n        external\n        view\n        returns (LibShare.Share[] memory)\n    {\n        return royaltiesByTokenId[_tokenId];\n    }\n\n    function getValidatorRoyalties(uint256 _tokenId)\n        external\n        view\n        returns (LibShare.Share[] memory)\n    {\n        return royaltiesForValidator[_tokenId];\n    }\n\n    function addValidator(uint256 _tokenId, address _validator)\n        external\n        onlyOwnerOfToken(_tokenId)\n    {\n        approvedValidator[_tokenId] = _validator;\n        emit ValidatorAdded(_tokenId, _validator);\n    }\n\n    // this function requires approval of tokens by _erc20Contract\n    // adds ERC20 tokens to the token with _tokenId(basically trasnfer ERC20 to this contract)\n    function addERC20(\n        uint256 _tokenId,\n        address _erc20Contract,\n        uint256 _value,\n        LibShare.Share[] memory royalties\n    ) public {\n        require(msg.sender == approvedValidator[_tokenId]);\n        require(_erc20Contract != address(0), \"0 address given\");\n        require(_value != 0);\n        require(erc20Contracts[_tokenId].length < 1);\n        NFTowner[_tokenId] = ERC721.ownerOf(_tokenId);\n        updateERC20(_tokenId, _erc20Contract, _value);\n        setRoyaltiesForValidator(_tokenId, royalties);\n        require(\n            IERC20(_erc20Contract).transferFrom(\n                msg.sender,\n                address(this),\n                _value\n            ),\n            \"transfer failed\"\n        );\n        emit ERC20Added(msg.sender, _tokenId, _erc20Contract, _value);\n    }\n\n    // update the mappings for a token on recieving ERC20 tokens\n    function updateERC20(\n        uint256 _tokenId,\n        address _erc20Contract,\n        uint256 _value\n    ) private {\n        require(\n            ERC721.ownerOf(_tokenId) != address(0),\n            \"_tokenId does not exist.\"\n        );\n        if (_value == 0) {\n            return;\n        }\n        uint256 erc20Balance = erc20Balances[_tokenId][_erc20Contract];\n        if (erc20Balance == 0) {\n            erc20ContractIndex[_tokenId][_erc20Contract] = erc20Contracts[\n                _tokenId\n            ].length;\n            erc20Contracts[_tokenId].push(_erc20Contract);\n        }\n        erc20Balances[_tokenId][_erc20Contract] += _value;\n    }\n\n    //Set Royalties for Validator\n    function setRoyaltiesForValidator(\n        uint256 _tokenId,\n        LibShare.Share[] memory royalties\n    ) internal {\n        require(royalties.length <= 10, \"royalties > 10\");\n        delete royaltiesForValidator[_tokenId];\n        uint256 sumRoyalties = 0;\n        for (uint256 i = 0; i < royalties.length; i++) {\n            require(royalties[i].account != address(0x0), \"0 address given\");\n            require(royalties[i].value != 0, \"royalty value 0\");\n            royaltiesForValidator[_tokenId].push(royalties[i]);\n            sumRoyalties += royalties[i].value;\n        }\n        require(sumRoyalties < 10000, \"Royalty sum overflow\");\n\n        emit RoyaltiesSetForValidator(_tokenId, royalties);\n    }\n\n    function redeemPiNFT(\n        uint256 _tokenId,\n        address _nftReciever,\n        address _erc20Contract,\n        uint256 _value\n    ) external onlyOwnerOfToken(_tokenId) nonReentrant {\n        // require(_validatorAddress == approvedValidator[_tokenId]);\n        require(approvedValidator[_tokenId] != address(0));\n        require(_erc20Contract != address(0));\n        require(erc20Balances[_tokenId][_erc20Contract] != 0);\n        require(erc20Balances[_tokenId][_erc20Contract] == _value);\n        require(_nftReciever != address(0));\n        NFTowner[_tokenId] = address(0);\n        _transferERC20(_tokenId, approvedValidator[_tokenId], _erc20Contract, _value);\n        approvedValidator[_tokenId] = address(0);\n        if (msg.sender != _nftReciever) {\n            ERC721.safeTransferFrom(msg.sender, _nftReciever, _tokenId);\n        }\n        emit PiNFTRedeemed(\n            _tokenId,\n            _nftReciever,\n            approvedValidator[_tokenId],\n            _erc20Contract,\n            _value\n        );\n    }\n\n    function burnPiNFT(\n        uint256 _tokenId,\n        address _nftReciever,\n        address _erc20Reciever,\n        address _erc20Contract,\n        uint256 _value\n    ) external onlyOwnerOfToken(_tokenId) nonReentrant {\n        require(_nftReciever == approvedValidator[_tokenId]);\n        require(_erc20Contract != address(0));\n        require(erc20Balances[_tokenId][_erc20Contract] != 0);\n        require(erc20Balances[_tokenId][_erc20Contract] == _value);\n        require(_nftReciever != address(0));\n        approvedValidator[_tokenId] = address(0);\n        NFTowner[_tokenId] = address(0);\n        _transferERC20(_tokenId, _erc20Reciever, _erc20Contract, _value);\n        ERC721.safeTransferFrom(msg.sender, _nftReciever, _tokenId);\n        emit PiNFTBurnt(\n            _tokenId,\n            _nftReciever,\n            _erc20Reciever,\n            _erc20Contract,\n            _value\n        );\n    }\n\n    // transfers the ERC 20 tokens from _tokenId(this contract) to _to address\n    function _transferERC20(\n        uint256 _tokenId,\n        address _to,\n        address _erc20Contract,\n        uint256 _value\n    ) private {\n        require(_to != address(0));\n        removeERC20(_tokenId, _erc20Contract, _value);\n        require(\n            IERC20(_erc20Contract).transfer(_to, _value),\n            \"transfer failed\"\n        );\n        emit ERC20Transferred(_tokenId, _to, _erc20Contract, _value);\n    }\n\n    // update the mappings for a token when ERC20 tokens gets removed\n    function removeERC20(\n        uint256 _tokenId,\n        address _erc20Contract,\n        uint256 _value\n    ) private {\n        if (_value == 0) {\n            return;\n        }\n        uint256 erc20Balance = erc20Balances[_tokenId][_erc20Contract];\n        require(erc20Balance >= _value, \"low balance\");\n        uint256 newERC20Balance = erc20Balance - _value;\n        erc20Balances[_tokenId][_erc20Contract] = newERC20Balance;\n        if (newERC20Balance == 0) {\n            uint256 lastContractIndex = erc20Contracts[_tokenId].length - 1;\n            address lastContract = erc20Contracts[_tokenId][lastContractIndex];\n            if (_erc20Contract != lastContract) {\n                uint256 contractIndex = erc20ContractIndex[_tokenId][\n                    _erc20Contract\n                ];\n                erc20Contracts[_tokenId][contractIndex] = lastContract;\n                erc20ContractIndex[_tokenId][lastContract] = contractIndex;\n            }\n            delete erc20ContractIndex[_tokenId][_erc20Contract];\n            erc20Contracts[_tokenId].pop();\n        }\n    }\n\n    // view ERC 20 token balance of a token\n    function viewBalance(uint256 _tokenId, address _erc20Address)\n        public\n        view\n        returns (uint256)\n    {\n        return erc20Balances[_tokenId][_erc20Address];\n    }\n\n    function withdraw(\n        uint256 _tokenId,\n        address _erc20Contract,\n        uint256 _amount\n    ) external nonReentrant {\n        require(NFTowner[_tokenId] == msg.sender, \"not owner\");\n        require(erc20Balances[_tokenId][_erc20Contract] != 0);\n        require(\n            withdrawnAmount[_tokenId] + _amount <=\n                erc20Balances[_tokenId][_erc20Contract]\n        );\n        require(\n            IERC20(_erc20Contract).transfer(msg.sender, _amount),\n            \"transfer failed\"\n        );\n\n        //needs approval on frontend\n        // transferring NFT to this address\n        if (withdrawnAmount[_tokenId] == 0) {\n            ERC721.safeTransferFrom(msg.sender, address(this), _tokenId);\n        }\n\n        withdrawnAmount[_tokenId] += _amount;\n        emit ValidatorFundsWithdrawn(\n            msg.sender,\n            _tokenId,\n            _erc20Contract,\n            _amount\n        );\n    }\n\n    function viewWithdrawnAmount(uint256 _tokenId)\n        public\n        view\n        returns (uint256)\n    {\n        return withdrawnAmount[_tokenId];\n    }\n\n    function Repay(\n        uint256 _tokenId,\n        address _erc20Contract,\n        uint256 _amount\n    ) external nonReentrant {\n        require(NFTowner[_tokenId] == msg.sender);\n        require(erc20Balances[_tokenId][_erc20Contract] != 0);\n        require(_amount <= withdrawnAmount[_tokenId]);\n        // Send payment to the Pool\n        require(\n            IERC20(_erc20Contract).transferFrom(\n                msg.sender,\n                address(this),\n                _amount\n            ),\n            \"transfer failed\"\n        );\n        withdrawnAmount[_tokenId] -= _amount;\n\n        if (withdrawnAmount[_tokenId] == 0) {\n            ERC721(address(this)).approve(msg.sender, _tokenId);\n            ERC721.safeTransferFrom(address(this), msg.sender, _tokenId);\n        }\n        emit ValidatorFundsRepayed(\n            msg.sender,\n            _tokenId,\n            _erc20Contract,\n            _amount\n        );\n    }\n\n    function transferAfterFunding(uint256 _tokenId, address _to) external {\n        require(ERC721.ownerOf(_tokenId) == msg.sender);\n        NFTowner[_tokenId] = _to;\n        ERC721.safeTransferFrom(msg.sender, _to, _tokenId);\n    }\n\n    function onERC721Received(\n        address,\n        address,\n        uint256,\n        bytes memory\n    ) public virtual override returns (bytes4) {\n        return this.onERC721Received.selector;\n    }\n}\n",
  "sourcePath": "/media/dell/17f09f70-0626-4927-a787-2813ab7ed2c0/dell/Pandora/pooolAddress Pandora Git/aconomy-contract/contracts/piNFT.sol",
  "compiler": {
    "name": "solc",
    "version": "0.8.11+commit.d7f03943.Emscripten.clang"
  },
  "schemaVersion": "3.4.10",
  "updatedAt": "2023-03-22T05:36:14.092Z",
  "devdoc": {
    "kind": "dev",
    "methods": {
      "approve(address,uint256)": {
        "details": "See {IERC721-approve}."
      },
      "balanceOf(address)": {
        "details": "See {IERC721-balanceOf}."
      },
      "getApproved(uint256)": {
        "details": "See {IERC721-getApproved}."
      },
      "isApprovedForAll(address,address)": {
        "details": "See {IERC721-isApprovedForAll}."
      },
      "name()": {
        "details": "See {IERC721Metadata-name}."
      },
      "ownerOf(uint256)": {
        "details": "See {IERC721-ownerOf}."
      },
      "safeTransferFrom(address,address,uint256)": {
        "details": "See {IERC721-safeTransferFrom}."
      },
      "safeTransferFrom(address,address,uint256,bytes)": {
        "details": "See {IERC721-safeTransferFrom}."
      },
      "setApprovalForAll(address,bool)": {
        "details": "See {IERC721-setApprovalForAll}."
      },
      "supportsInterface(bytes4)": {
        "details": "See {IERC165-supportsInterface}."
      },
      "symbol()": {
        "details": "See {IERC721Metadata-symbol}."
      },
      "tokenURI(uint256)": {
        "details": "See {IERC721Metadata-tokenURI}."
      },
      "transferFrom(address,address,uint256)": {
        "details": "See {IERC721-transferFrom}."
      }
    },
    "version": 1
  },
  "userdoc": {
    "kind": "user",
    "methods": {},
    "version": 1
  }
}