{
  "contractName": "piNFT",
  "abi": [
    {
      "inputs": [
        {
          "internalType": "string",
          "name": "_name",
          "type": "string"
        },
        {
          "internalType": "string",
          "name": "_symbol",
          "type": "string"
        }
      ],
      "stateMutability": "nonpayable",
      "type": "constructor"
    },
    {
      "anonymous": false,
      "inputs": [
        {
          "indexed": true,
          "internalType": "address",
          "name": "owner",
          "type": "address"
        },
        {
          "indexed": true,
          "internalType": "address",
          "name": "approved",
          "type": "address"
        },
        {
          "indexed": true,
          "internalType": "uint256",
          "name": "tokenId",
          "type": "uint256"
        }
      ],
      "name": "Approval",
      "type": "event"
    },
    {
      "anonymous": false,
      "inputs": [
        {
          "indexed": true,
          "internalType": "address",
          "name": "owner",
          "type": "address"
        },
        {
          "indexed": true,
          "internalType": "address",
          "name": "operator",
          "type": "address"
        },
        {
          "indexed": false,
          "internalType": "bool",
          "name": "approved",
          "type": "bool"
        }
      ],
      "name": "ApprovalForAll",
      "type": "event"
    },
    {
      "anonymous": false,
      "inputs": [
        {
          "indexed": true,
          "internalType": "address",
          "name": "_from",
          "type": "address"
        },
        {
          "indexed": true,
          "internalType": "uint256",
          "name": "_tokenId",
          "type": "uint256"
        },
        {
          "indexed": true,
          "internalType": "address",
          "name": "_erc20Contract",
          "type": "address"
        },
        {
          "indexed": false,
          "internalType": "uint256",
          "name": "_value",
          "type": "uint256"
        }
      ],
      "name": "ReceivedERC20",
      "type": "event"
    },
    {
      "anonymous": false,
      "inputs": [
        {
          "indexed": true,
          "internalType": "uint256",
          "name": "tokenId",
          "type": "uint256"
        },
        {
          "components": [
            {
              "internalType": "address payable",
              "name": "account",
              "type": "address"
            },
            {
              "internalType": "uint96",
              "name": "value",
              "type": "uint96"
            }
          ],
          "indexed": true,
          "internalType": "struct LibShare.Share[]",
          "name": "royalties",
          "type": "tuple[]"
        }
      ],
      "name": "RoyaltiesSetForTokenId",
      "type": "event"
    },
    {
      "anonymous": false,
      "inputs": [
        {
          "indexed": true,
          "internalType": "address",
          "name": "from",
          "type": "address"
        },
        {
          "indexed": true,
          "internalType": "address",
          "name": "to",
          "type": "address"
        },
        {
          "indexed": true,
          "internalType": "uint256",
          "name": "tokenId",
          "type": "uint256"
        }
      ],
      "name": "Transfer",
      "type": "event"
    },
    {
      "anonymous": false,
      "inputs": [
        {
          "indexed": true,
          "internalType": "uint256",
          "name": "_tokenId",
          "type": "uint256"
        },
        {
          "indexed": true,
          "internalType": "address",
          "name": "_to",
          "type": "address"
        },
        {
          "indexed": true,
          "internalType": "address",
          "name": "_erc20Contract",
          "type": "address"
        },
        {
          "indexed": false,
          "internalType": "uint256",
          "name": "_value",
          "type": "uint256"
        }
      ],
      "name": "TransferERC20",
      "type": "event"
    },
    {
      "inputs": [
        {
          "internalType": "address",
          "name": "to",
          "type": "address"
        },
        {
          "internalType": "uint256",
          "name": "tokenId",
          "type": "uint256"
        }
      ],
      "name": "approve",
      "outputs": [],
      "stateMutability": "nonpayable",
      "type": "function"
    },
    {
      "inputs": [
        {
          "internalType": "address",
          "name": "owner",
          "type": "address"
        }
      ],
      "name": "balanceOf",
      "outputs": [
        {
          "internalType": "uint256",
          "name": "",
          "type": "uint256"
        }
      ],
      "stateMutability": "view",
      "type": "function"
    },
    {
      "inputs": [
        {
          "internalType": "uint256",
          "name": "tokenId",
          "type": "uint256"
        }
      ],
      "name": "getApproved",
      "outputs": [
        {
          "internalType": "address",
          "name": "",
          "type": "address"
        }
      ],
      "stateMutability": "view",
      "type": "function"
    },
    {
      "inputs": [
        {
          "internalType": "address",
          "name": "owner",
          "type": "address"
        },
        {
          "internalType": "address",
          "name": "operator",
          "type": "address"
        }
      ],
      "name": "isApprovedForAll",
      "outputs": [
        {
          "internalType": "bool",
          "name": "",
          "type": "bool"
        }
      ],
      "stateMutability": "view",
      "type": "function"
    },
    {
      "inputs": [],
      "name": "name",
      "outputs": [
        {
          "internalType": "string",
          "name": "",
          "type": "string"
        }
      ],
      "stateMutability": "view",
      "type": "function"
    },
    {
      "inputs": [
        {
          "internalType": "uint256",
          "name": "tokenId",
          "type": "uint256"
        }
      ],
      "name": "ownerOf",
      "outputs": [
        {
          "internalType": "address",
          "name": "",
          "type": "address"
        }
      ],
      "stateMutability": "view",
      "type": "function"
    },
    {
      "inputs": [
        {
          "internalType": "uint256",
          "name": "",
          "type": "uint256"
        },
        {
          "internalType": "uint256",
          "name": "",
          "type": "uint256"
        }
      ],
      "name": "royaltiesByTokenId",
      "outputs": [
        {
          "internalType": "address payable",
          "name": "account",
          "type": "address"
        },
        {
          "internalType": "uint96",
          "name": "value",
          "type": "uint96"
        }
      ],
      "stateMutability": "view",
      "type": "function"
    },
    {
      "inputs": [
        {
          "internalType": "address",
          "name": "from",
          "type": "address"
        },
        {
          "internalType": "address",
          "name": "to",
          "type": "address"
        },
        {
          "internalType": "uint256",
          "name": "tokenId",
          "type": "uint256"
        }
      ],
      "name": "safeTransferFrom",
      "outputs": [],
      "stateMutability": "nonpayable",
      "type": "function"
    },
    {
      "inputs": [
        {
          "internalType": "address",
          "name": "from",
          "type": "address"
        },
        {
          "internalType": "address",
          "name": "to",
          "type": "address"
        },
        {
          "internalType": "uint256",
          "name": "tokenId",
          "type": "uint256"
        },
        {
          "internalType": "bytes",
          "name": "_data",
          "type": "bytes"
        }
      ],
      "name": "safeTransferFrom",
      "outputs": [],
      "stateMutability": "nonpayable",
      "type": "function"
    },
    {
      "inputs": [
        {
          "internalType": "address",
          "name": "operator",
          "type": "address"
        },
        {
          "internalType": "bool",
          "name": "approved",
          "type": "bool"
        }
      ],
      "name": "setApprovalForAll",
      "outputs": [],
      "stateMutability": "nonpayable",
      "type": "function"
    },
    {
      "inputs": [
        {
          "internalType": "bytes4",
          "name": "interfaceId",
          "type": "bytes4"
        }
      ],
      "name": "supportsInterface",
      "outputs": [
        {
          "internalType": "bool",
          "name": "",
          "type": "bool"
        }
      ],
      "stateMutability": "view",
      "type": "function"
    },
    {
      "inputs": [],
      "name": "symbol",
      "outputs": [
        {
          "internalType": "string",
          "name": "",
          "type": "string"
        }
      ],
      "stateMutability": "view",
      "type": "function"
    },
    {
      "inputs": [
        {
          "internalType": "uint256",
          "name": "tokenId",
          "type": "uint256"
        }
      ],
      "name": "tokenURI",
      "outputs": [
        {
          "internalType": "string",
          "name": "",
          "type": "string"
        }
      ],
      "stateMutability": "view",
      "type": "function"
    },
    {
      "inputs": [
        {
          "internalType": "address",
          "name": "from",
          "type": "address"
        },
        {
          "internalType": "address",
          "name": "to",
          "type": "address"
        },
        {
          "internalType": "uint256",
          "name": "tokenId",
          "type": "uint256"
        }
      ],
      "name": "transferFrom",
      "outputs": [],
      "stateMutability": "nonpayable",
      "type": "function"
    },
    {
      "inputs": [
        {
          "internalType": "address",
          "name": "_to",
          "type": "address"
        },
        {
          "internalType": "string",
          "name": "_uri",
          "type": "string"
        },
        {
          "components": [
            {
              "internalType": "address payable",
              "name": "account",
              "type": "address"
            },
            {
              "internalType": "uint96",
              "name": "value",
              "type": "uint96"
            }
          ],
          "internalType": "struct LibShare.Share[]",
          "name": "royalties",
          "type": "tuple[]"
        }
      ],
      "name": "mintNFT",
      "outputs": [
        {
          "internalType": "uint256",
          "name": "",
          "type": "uint256"
        }
      ],
      "stateMutability": "nonpayable",
      "type": "function"
    },
    {
      "inputs": [
        {
          "internalType": "uint256",
          "name": "_tokenId",
          "type": "uint256"
        }
      ],
      "name": "getRoyalties",
      "outputs": [
        {
          "components": [
            {
              "internalType": "address payable",
              "name": "account",
              "type": "address"
            },
            {
              "internalType": "uint96",
              "name": "value",
              "type": "uint96"
            }
          ],
          "internalType": "struct LibShare.Share[]",
          "name": "",
          "type": "tuple[]"
        }
      ],
      "stateMutability": "view",
      "type": "function"
    },
    {
      "inputs": [
        {
          "internalType": "address",
          "name": "_from",
          "type": "address"
        },
        {
          "internalType": "uint256",
          "name": "_tokenId",
          "type": "uint256"
        },
        {
          "internalType": "address",
          "name": "_erc20Contract",
          "type": "address"
        },
        {
          "internalType": "uint256",
          "name": "_value",
          "type": "uint256"
        }
      ],
      "name": "addERC20",
      "outputs": [],
      "stateMutability": "nonpayable",
      "type": "function"
    },
    {
      "inputs": [
        {
          "internalType": "uint256",
          "name": "_tokenId",
          "type": "uint256"
        },
        {
          "internalType": "address",
          "name": "_to",
          "type": "address"
        },
        {
          "internalType": "address",
          "name": "_erc20Contract",
          "type": "address"
        },
        {
          "internalType": "uint256",
          "name": "_value",
          "type": "uint256"
        }
      ],
      "name": "transferERC20",
      "outputs": [],
      "stateMutability": "nonpayable",
      "type": "function"
    },
    {
      "inputs": [
        {
          "internalType": "uint256",
          "name": "_tokenId",
          "type": "uint256"
        },
        {
          "internalType": "address",
          "name": "_erc20Address",
          "type": "address"
        }
      ],
      "name": "viewBalance",
      "outputs": [
        {
          "internalType": "uint256",
          "name": "",
          "type": "uint256"
        }
      ],
      "stateMutability": "view",
      "type": "function"
    }
  ],
  "bytecode": "0x60806040523480156200001157600080fd5b50604051620048fb380380620048fb8339818101604052810190620000379190620002c2565b818181600090805190602001906200005192919062000075565b5080600190805190602001906200006a92919062000075565b5050505050620003ac565b828054620000839062000376565b90600052602060002090601f016020900481019282620000a75760008555620000f3565b82601f10620000c257805160ff1916838001178555620000f3565b82800160010185558215620000f3579182015b82811115620000f2578251825591602001919060010190620000d5565b5b50905062000102919062000106565b5090565b5b808211156200012157600081600090555060010162000107565b5090565b6000604051905090565b600080fd5b600080fd5b600080fd5b600080fd5b6000601f19601f8301169050919050565b7f4e487b7100000000000000000000000000000000000000000000000000000000600052604160045260246000fd5b6200018e8262000143565b810181811067ffffffffffffffff82111715620001b057620001af62000154565b5b80604052505050565b6000620001c562000125565b9050620001d3828262000183565b919050565b600067ffffffffffffffff821115620001f657620001f562000154565b5b620002018262000143565b9050602081019050919050565b60005b838110156200022e57808201518184015260208101905062000211565b838111156200023e576000848401525b50505050565b60006200025b6200025584620001d8565b620001b9565b9050828152602081018484840111156200027a57620002796200013e565b5b620002878482856200020e565b509392505050565b600082601f830112620002a757620002a662000139565b5b8151620002b984826020860162000244565b91505092915050565b60008060408385031215620002dc57620002db6200012f565b5b600083015167ffffffffffffffff811115620002fd57620002fc62000134565b5b6200030b858286016200028f565b925050602083015167ffffffffffffffff8111156200032f576200032e62000134565b5b6200033d858286016200028f565b9150509250929050565b7f4e487b7100000000000000000000000000000000000000000000000000000000600052602260045260246000fd5b600060028204905060018216806200038f57607f821691505b60208210811415620003a657620003a562000347565b5b50919050565b61453f80620003bc6000396000f3fe608060405234801561001057600080fd5b50600436106101215760003560e01c8063830ef41b116100ad578063c87b56dd11610071578063c87b56dd14610316578063d51f299d14610346578063e985e9c514610376578063ee53b6a9146103a6578063fb2ef4a3146103d657610121565b8063830ef41b1461027457806395d89b4114610290578063a22cb465146102ae578063b88d4fde146102ca578063bb3bafd6146102e657610121565b806323b872dd116100f457806323b872dd146101c05780632b32c03b146101dc57806342842e0e146101f85780636352211e1461021457806370a082311461024457610121565b806301ffc9a71461012657806306fdde0314610156578063081812fc14610174578063095ea7b3146101a4575b600080fd5b610140600480360381019061013b91906128fc565b610407565b60405161014d9190612944565b60405180910390f35b61015e6104e9565b60405161016b91906129f8565b60405180910390f35b61018e60048036038101906101899190612a50565b61057b565b60405161019b9190612abe565b60405180910390f35b6101be60048036038101906101b99190612b05565b610600565b005b6101da60048036038101906101d59190612b45565b610718565b005b6101f660048036038101906101f19190612b98565b610778565b005b610212600480360381019061020d9190612b45565b6108b7565b005b61022e60048036038101906102299190612a50565b6108d7565b60405161023b9190612abe565b60405180910390f35b61025e60048036038101906102599190612bff565b610989565b60405161026b9190612c3b565b60405180910390f35b61028e60048036038101906102899190612c56565b610a41565b005b610298610bf5565b6040516102a591906129f8565b60405180910390f35b6102c860048036038101906102c39190612ce9565b610c87565b005b6102e460048036038101906102df9190612e5e565b610c9d565b005b61030060048036038101906102fb9190612a50565b610cff565b60405161030d9190613007565b60405180910390f35b610330600480360381019061032b9190612a50565b610e01565b60405161033d91906129f8565b60405180910390f35b610360600480360381019061035b9190613029565b610f53565b60405161036d9190612c3b565b60405180910390f35b610390600480360381019061038b9190613069565b610fae565b60405161039d9190612944565b60405180910390f35b6103c060048036038101906103bb91906132bf565b611042565b6040516103cd9190612c3b565b60405180910390f35b6103f060048036038101906103eb919061334a565b611084565b6040516103fe9291906133a8565b60405180910390f35b60007f80ac58cd000000000000000000000000000000000000000000000000000000007bffffffffffffffffffffffffffffffffffffffffffffffffffffffff1916827bffffffffffffffffffffffffffffffffffffffffffffffffffffffff191614806104d257507f5b5e139f000000000000000000000000000000000000000000000000000000007bffffffffffffffffffffffffffffffffffffffffffffffffffffffff1916827bffffffffffffffffffffffffffffffffffffffffffffffffffffffff1916145b806104e257506104e1826110f9565b5b9050919050565b6060600080546104f890613400565b80601f016020809104026020016040519081016040528092919081815260200182805461052490613400565b80156105715780601f1061054657610100808354040283529160200191610571565b820191906000526020600020905b81548152906001019060200180831161055457829003601f168201915b5050505050905090565b600061058682611163565b6105c5576040517f08c379a00000000000000000000000000000000000000000000000000000000081526004016105bc906134a4565b60405180910390fd5b6004600083815260200190815260200160002060009054906101000a900473ffffffffffffffffffffffffffffffffffffffff169050919050565b600061060b826108d7565b90508073ffffffffffffffffffffffffffffffffffffffff168373ffffffffffffffffffffffffffffffffffffffff16141561067c576040517f08c379a000000000000000000000000000000000000000000000000000000000815260040161067390613536565b60405180910390fd5b8073ffffffffffffffffffffffffffffffffffffffff1661069b6111cf565b73ffffffffffffffffffffffffffffffffffffffff1614806106ca57506106c9816106c46111cf565b610fae565b5b610709576040517f08c379a0000000000000000000000000000000000000000000000000000000008152600401610700906135c8565b60405180910390fd5b61071383836111d7565b505050565b6107296107236111cf565b82611290565b610768576040517f08c379a000000000000000000000000000000000000000000000000000000000815260040161075f9061365a565b60405180910390fd5b61077383838361136e565b505050565b3373ffffffffffffffffffffffffffffffffffffffff168473ffffffffffffffffffffffffffffffffffffffff16146107e6576040517f08c379a00000000000000000000000000000000000000000000000000000000081526004016107dd906136c6565b60405180910390fd5b6107f2848484846115d5565b8173ffffffffffffffffffffffffffffffffffffffff166323b872dd8530846040518463ffffffff1660e01b815260040161082f939291906136e6565b6020604051808303816000875af115801561084e573d6000803e3d6000fd5b505050506040513d601f19601f820116820180604052508101906108729190613732565b6108b1576040517f08c379a00000000000000000000000000000000000000000000000000000000081526004016108a8906137ab565b60405180910390fd5b50505050565b6108d283838360405180602001604052806000815250610c9d565b505050565b6000806002600084815260200190815260200160002060009054906101000a900473ffffffffffffffffffffffffffffffffffffffff169050600073ffffffffffffffffffffffffffffffffffffffff168173ffffffffffffffffffffffffffffffffffffffff161415610980576040517f08c379a00000000000000000000000000000000000000000000000000000000081526004016109779061383d565b60405180910390fd5b80915050919050565b60008073ffffffffffffffffffffffffffffffffffffffff168273ffffffffffffffffffffffffffffffffffffffff1614156109fa576040517f08c379a00000000000000000000000000000000000000000000000000000000081526004016109f1906138cf565b60405180910390fd5b600360008373ffffffffffffffffffffffffffffffffffffffff1673ffffffffffffffffffffffffffffffffffffffff168152602001908152602001600020549050919050565b600073ffffffffffffffffffffffffffffffffffffffff168373ffffffffffffffffffffffffffffffffffffffff161415610a7b57600080fd5b6000610a86856108d7565b90503373ffffffffffffffffffffffffffffffffffffffff168173ffffffffffffffffffffffffffffffffffffffff1614610ac057600080fd5b610acb85848461186e565b8273ffffffffffffffffffffffffffffffffffffffff1663a9059cbb85846040518363ffffffff1660e01b8152600401610b069291906138ef565b6020604051808303816000875af1158015610b25573d6000803e3d6000fd5b505050506040513d601f19601f82011682018060405250810190610b499190613732565b610b88576040517f08c379a0000000000000000000000000000000000000000000000000000000008152600401610b7f906137ab565b60405180910390fd5b8273ffffffffffffffffffffffffffffffffffffffff168473ffffffffffffffffffffffffffffffffffffffff16867fa8352277873fc0d2b233b8127433da351a4164fa701ed6ff79655694222932c485604051610be69190612c3b565b60405180910390a45050505050565b606060018054610c0490613400565b80601f0160208091040260200160405190810160405280929190818152602001828054610c3090613400565b8015610c7d5780601f10610c5257610100808354040283529160200191610c7d565b820191906000526020600020905b815481529060010190602001808311610c6057829003601f168201915b5050505050905090565b610c99610c926111cf565b8383611c01565b5050565b610cae610ca86111cf565b83611290565b610ced576040517f08c379a0000000000000000000000000000000000000000000000000000000008152600401610ce49061365a565b60405180910390fd5b610cf984848484611d6e565b50505050565b6060600a6000838152602001908152602001600020805480602002602001604051908101604052809291908181526020016000905b82821015610df6578382906000526020600020016040518060400160405290816000820160009054906101000a900473ffffffffffffffffffffffffffffffffffffffff1673ffffffffffffffffffffffffffffffffffffffff1673ffffffffffffffffffffffffffffffffffffffff1681526020016000820160149054906101000a90046bffffffffffffffffffffffff166bffffffffffffffffffffffff166bffffffffffffffffffffffff168152505081526020019060010190610d34565b505050509050919050565b6060610e0c82611163565b610e4b576040517f08c379a0000000000000000000000000000000000000000000000000000000008152600401610e429061398a565b60405180910390fd5b6000600660008481526020019081526020016000208054610e6b90613400565b80601f0160208091040260200160405190810160405280929190818152602001828054610e9790613400565b8015610ee45780601f10610eb957610100808354040283529160200191610ee4565b820191906000526020600020905b815481529060010190602001808311610ec757829003601f168201915b505050505090506000610ef5611dca565b9050600081511415610f0b578192505050610f4e565b600082511115610f40578082604051602001610f289291906139e6565b60405160208183030381529060405292505050610f4e565b610f4984611de1565b925050505b919050565b60006008600084815260200190815260200160002060008373ffffffffffffffffffffffffffffffffffffffff1673ffffffffffffffffffffffffffffffffffffffff16815260200190815260200160002054905092915050565b6000600560008473ffffffffffffffffffffffffffffffffffffffff1673ffffffffffffffffffffffffffffffffffffffff16815260200190815260200160002060008373ffffffffffffffffffffffffffffffffffffffff1673ffffffffffffffffffffffffffffffffffffffff16815260200190815260200160002060009054906101000a900460ff16905092915050565b60008061104f6007611e88565b905061105b8184611e96565b611065858261217c565b61106f818561219a565b611079600761220e565b809150509392505050565b600a60205281600052604060002081815481106110a057600080fd5b90600052602060002001600091509150508060000160009054906101000a900473ffffffffffffffffffffffffffffffffffffffff16908060000160149054906101000a90046bffffffffffffffffffffffff16905082565b60007f01ffc9a7000000000000000000000000000000000000000000000000000000007bffffffffffffffffffffffffffffffffffffffffffffffffffffffff1916827bffffffffffffffffffffffffffffffffffffffffffffffffffffffff1916149050919050565b60008073ffffffffffffffffffffffffffffffffffffffff166002600084815260200190815260200160002060009054906101000a900473ffffffffffffffffffffffffffffffffffffffff1673ffffffffffffffffffffffffffffffffffffffff1614159050919050565b600033905090565b816004600083815260200190815260200160002060006101000a81548173ffffffffffffffffffffffffffffffffffffffff021916908373ffffffffffffffffffffffffffffffffffffffff160217905550808273ffffffffffffffffffffffffffffffffffffffff1661124a836108d7565b73ffffffffffffffffffffffffffffffffffffffff167f8c5be1e5ebec7d5bd14f71427d1e84f3dd0314c0f7b2291e5b200ac8c7c3b92560405160405180910390a45050565b600061129b82611163565b6112da576040517f08c379a00000000000000000000000000000000000000000000000000000000081526004016112d190613a7c565b60405180910390fd5b60006112e5836108d7565b90508073ffffffffffffffffffffffffffffffffffffffff168473ffffffffffffffffffffffffffffffffffffffff16148061132757506113268185610fae565b5b8061136557508373ffffffffffffffffffffffffffffffffffffffff1661134d8461057b565b73ffffffffffffffffffffffffffffffffffffffff16145b91505092915050565b8273ffffffffffffffffffffffffffffffffffffffff1661138e826108d7565b73ffffffffffffffffffffffffffffffffffffffff16146113e4576040517f08c379a00000000000000000000000000000000000000000000000000000000081526004016113db90613b0e565b60405180910390fd5b600073ffffffffffffffffffffffffffffffffffffffff168273ffffffffffffffffffffffffffffffffffffffff161415611454576040517f08c379a000000000000000000000000000000000000000000000000000000000815260040161144b90613ba0565b60405180910390fd5b61145f838383612224565b61146a6000826111d7565b6001600360008573ffffffffffffffffffffffffffffffffffffffff1673ffffffffffffffffffffffffffffffffffffffff16815260200190815260200160002060008282546114ba9190613bef565b925050819055506001600360008473ffffffffffffffffffffffffffffffffffffffff1673ffffffffffffffffffffffffffffffffffffffff16815260200190815260200160002060008282546115119190613c23565b92505081905550816002600083815260200190815260200160002060006101000a81548173ffffffffffffffffffffffffffffffffffffffff021916908373ffffffffffffffffffffffffffffffffffffffff160217905550808273ffffffffffffffffffffffffffffffffffffffff168473ffffffffffffffffffffffffffffffffffffffff167fddf252ad1be2c89b69c2b068fc378daa952ba7f163c4a11628f55a4df523b3ef60405160405180910390a46115d0838383612229565b505050565b600073ffffffffffffffffffffffffffffffffffffffff166115f6846108d7565b73ffffffffffffffffffffffffffffffffffffffff16141561164d576040517f08c379a000000000000000000000000000000000000000000000000000000000815260040161164490613cc5565b60405180910390fd5b600081141561165b57611868565b60006008600085815260200190815260200160002060008473ffffffffffffffffffffffffffffffffffffffff1673ffffffffffffffffffffffffffffffffffffffff1681526020019081526020016000205490506000811415611799576009600085815260200190815260200160002080549050600b600086815260200190815260200160002060008573ffffffffffffffffffffffffffffffffffffffff1673ffffffffffffffffffffffffffffffffffffffff1681526020019081526020016000208190555060096000858152602001908152602001600020839080600181540180825580915050600190039060005260206000200160009091909190916101000a81548173ffffffffffffffffffffffffffffffffffffffff021916908373ffffffffffffffffffffffffffffffffffffffff1602179055505b816008600086815260200190815260200160002060008573ffffffffffffffffffffffffffffffffffffffff1673ffffffffffffffffffffffffffffffffffffffff16815260200190815260200160002060008282546117f99190613c23565b925050819055508273ffffffffffffffffffffffffffffffffffffffff16848673ffffffffffffffffffffffffffffffffffffffff167f684ce28ace37552c6bfb98b7cceda8ed55327078eafb5dfb31218e08563827638560405161185e9190612c3b565b60405180910390a4505b50505050565b600081141561187c57611bfc565b60006008600085815260200190815260200160002060008473ffffffffffffffffffffffffffffffffffffffff1673ffffffffffffffffffffffffffffffffffffffff16815260200190815260200160002054905081811015611914576040517f08c379a000000000000000000000000000000000000000000000000000000000815260040161190b90613d57565b60405180910390fd5b600082826119229190613bef565b9050806008600087815260200190815260200160002060008673ffffffffffffffffffffffffffffffffffffffff1673ffffffffffffffffffffffffffffffffffffffff168152602001908152602001600020819055506000811415611bf9576000600160096000888152602001908152602001600020805490506119a79190613bef565b905060006009600088815260200190815260200160002082815481106119d0576119cf613d77565b5b9060005260206000200160009054906101000a900473ffffffffffffffffffffffffffffffffffffffff1690508073ffffffffffffffffffffffffffffffffffffffff168673ffffffffffffffffffffffffffffffffffffffff1614611b4a576000600b600089815260200190815260200160002060008873ffffffffffffffffffffffffffffffffffffffff1673ffffffffffffffffffffffffffffffffffffffff16815260200190815260200160002054905081600960008a81526020019081526020016000208281548110611aab57611aaa613d77565b5b9060005260206000200160006101000a81548173ffffffffffffffffffffffffffffffffffffffff021916908373ffffffffffffffffffffffffffffffffffffffff16021790555080600b60008a815260200190815260200160002060008473ffffffffffffffffffffffffffffffffffffffff1673ffffffffffffffffffffffffffffffffffffffff16815260200190815260200160002081905550505b600b600088815260200190815260200160002060008773ffffffffffffffffffffffffffffffffffffffff1673ffffffffffffffffffffffffffffffffffffffff1681526020019081526020016000206000905560096000888152602001908152602001600020805480611bc157611bc0613da6565b5b6001900381819060005260206000200160006101000a81549073ffffffffffffffffffffffffffffffffffffffff0219169055905550505b50505b505050565b8173ffffffffffffffffffffffffffffffffffffffff168373ffffffffffffffffffffffffffffffffffffffff161415611c70576040517f08c379a0000000000000000000000000000000000000000000000000000000008152600401611c6790613e21565b60405180910390fd5b80600560008573ffffffffffffffffffffffffffffffffffffffff1673ffffffffffffffffffffffffffffffffffffffff16815260200190815260200160002060008473ffffffffffffffffffffffffffffffffffffffff1673ffffffffffffffffffffffffffffffffffffffff16815260200190815260200160002060006101000a81548160ff0219169083151502179055508173ffffffffffffffffffffffffffffffffffffffff168373ffffffffffffffffffffffffffffffffffffffff167f17307eab39ab6107e8899845ad3d59bd9653f200f220920489ca2b5937696c3183604051611d619190612944565b60405180910390a3505050565b611d7984848461136e565b611d858484848461222e565b611dc4576040517f08c379a0000000000000000000000000000000000000000000000000000000008152600401611dbb90613eb3565b60405180910390fd5b50505050565b606060405180602001604052806000815250905090565b6060611dec82611163565b611e2b576040517f08c379a0000000000000000000000000000000000000000000000000000000008152600401611e2290613f45565b60405180910390fd5b6000611e35611dca565b90506000815111611e555760405180602001604052806000815250611e80565b80611e5f846123b6565b604051602001611e709291906139e6565b6040516020818303038152906040525b915050919050565b600081600001549050919050565b600a81511115611ea557600080fd5b600a60008381526020019081526020016000206000611ec4919061276f565b6000805b82518110156120ef57600073ffffffffffffffffffffffffffffffffffffffff16838281518110611efc57611efb613d77565b5b60200260200101516000015173ffffffffffffffffffffffffffffffffffffffff161415611f5f576040517f08c379a0000000000000000000000000000000000000000000000000000000008152600401611f5690613fd7565b60405180910390fd5b6000838281518110611f7457611f73613d77565b5b6020026020010151602001516bffffffffffffffffffffffff161415611fcf576040517f08c379a0000000000000000000000000000000000000000000000000000000008152600401611fc690614043565b60405180910390fd5b600a6000858152602001908152602001600020838281518110611ff557611ff4613d77565b5b60200260200101519080600181540180825580915050600190039060005260206000200160009091909190915060008201518160000160006101000a81548173ffffffffffffffffffffffffffffffffffffffff021916908373ffffffffffffffffffffffffffffffffffffffff16021790555060208201518160000160146101000a8154816bffffffffffffffffffffffff02191690836bffffffffffffffffffffffff16021790555050508281815181106120b5576120b4613d77565b5b6020026020010151602001516bffffffffffffffffffffffff16826120da9190613c23565b915080806120e790614063565b915050611ec8565b506127108110612134576040517f08c379a000000000000000000000000000000000000000000000000000000000815260040161212b906140f8565b60405180910390fd5b816040516121429190614214565b6040518091039020837fe23425cf56a81561c420f592eb54f21107c562f26c8c78c4a20d26920d244e6660405160405180910390a3505050565b612196828260405180602001604052806000815250612517565b5050565b6121a382611163565b6121e2576040517f08c379a00000000000000000000000000000000000000000000000000000000081526004016121d99061429d565b60405180910390fd5b80600660008481526020019081526020016000209080519060200190612209929190612790565b505050565b6001816000016000828254019250508190555050565b505050565b505050565b600061224f8473ffffffffffffffffffffffffffffffffffffffff16612572565b156123a9578373ffffffffffffffffffffffffffffffffffffffff1663150b7a026122786111cf565b8786866040518563ffffffff1660e01b815260040161229a9493929190614312565b6020604051808303816000875af19250505080156122d657506040513d601f19601f820116820180604052508101906122d39190614373565b60015b612359573d8060008114612306576040519150601f19603f3d011682016040523d82523d6000602084013e61230b565b606091505b50600081511415612351576040517f08c379a000000000000000000000000000000000000000000000000000000000815260040161234890613eb3565b60405180910390fd5b805181602001fd5b63150b7a0260e01b7bffffffffffffffffffffffffffffffffffffffffffffffffffffffff1916817bffffffffffffffffffffffffffffffffffffffffffffffffffffffff1916149150506123ae565b600190505b949350505050565b606060008214156123fe576040518060400160405280600181526020017f30000000000000000000000000000000000000000000000000000000000000008152509050612512565b600082905060005b6000821461243057808061241990614063565b915050600a8261242991906143cf565b9150612406565b60008167ffffffffffffffff81111561244c5761244b612d33565b5b6040519080825280601f01601f19166020018201604052801561247e5781602001600182028036833780820191505090505b5090505b6000851461250b576001826124979190613bef565b9150600a856124a69190614400565b60306124b29190613c23565b60f81b8183815181106124c8576124c7613d77565b5b60200101907effffffffffffffffffffffffffffffffffffffffffffffffffffffffffffff1916908160001a905350600a8561250491906143cf565b9450612482565b8093505050505b919050565b6125218383612595565b61252e600084848461222e565b61256d576040517f08c379a000000000000000000000000000000000000000000000000000000000815260040161256490613eb3565b60405180910390fd5b505050565b6000808273ffffffffffffffffffffffffffffffffffffffff163b119050919050565b600073ffffffffffffffffffffffffffffffffffffffff168273ffffffffffffffffffffffffffffffffffffffff161415612605576040517f08c379a00000000000000000000000000000000000000000000000000000000081526004016125fc9061447d565b60405180910390fd5b61260e81611163565b1561264e576040517f08c379a0000000000000000000000000000000000000000000000000000000008152600401612645906144e9565b60405180910390fd5b61265a60008383612224565b6001600360008473ffffffffffffffffffffffffffffffffffffffff1673ffffffffffffffffffffffffffffffffffffffff16815260200190815260200160002060008282546126aa9190613c23565b92505081905550816002600083815260200190815260200160002060006101000a81548173ffffffffffffffffffffffffffffffffffffffff021916908373ffffffffffffffffffffffffffffffffffffffff160217905550808273ffffffffffffffffffffffffffffffffffffffff16600073ffffffffffffffffffffffffffffffffffffffff167fddf252ad1be2c89b69c2b068fc378daa952ba7f163c4a11628f55a4df523b3ef60405160405180910390a461276b60008383612229565b5050565b508054600082559060005260206000209081019061278d9190612816565b50565b82805461279c90613400565b90600052602060002090601f0160209004810192826127be5760008555612805565b82601f106127d757805160ff1916838001178555612805565b82800160010185558215612805579182015b828111156128045782518255916020019190600101906127e9565b5b5090506128129190612873565b5090565b5b8082111561286f57600080820160006101000a81549073ffffffffffffffffffffffffffffffffffffffff02191690556000820160146101000a8154906bffffffffffffffffffffffff021916905550600101612817565b5090565b5b8082111561288c576000816000905550600101612874565b5090565b6000604051905090565b600080fd5b600080fd5b60007fffffffff0000000000000000000000000000000000000000000000000000000082169050919050565b6128d9816128a4565b81146128e457600080fd5b50565b6000813590506128f6816128d0565b92915050565b6000602082840312156129125761291161289a565b5b6000612920848285016128e7565b91505092915050565b60008115159050919050565b61293e81612929565b82525050565b60006020820190506129596000830184612935565b92915050565b600081519050919050565b600082825260208201905092915050565b60005b8381101561299957808201518184015260208101905061297e565b838111156129a8576000848401525b50505050565b6000601f19601f8301169050919050565b60006129ca8261295f565b6129d4818561296a565b93506129e481856020860161297b565b6129ed816129ae565b840191505092915050565b60006020820190508181036000830152612a1281846129bf565b905092915050565b6000819050919050565b612a2d81612a1a565b8114612a3857600080fd5b50565b600081359050612a4a81612a24565b92915050565b600060208284031215612a6657612a6561289a565b5b6000612a7484828501612a3b565b91505092915050565b600073ffffffffffffffffffffffffffffffffffffffff82169050919050565b6000612aa882612a7d565b9050919050565b612ab881612a9d565b82525050565b6000602082019050612ad36000830184612aaf565b92915050565b612ae281612a9d565b8114612aed57600080fd5b50565b600081359050612aff81612ad9565b92915050565b60008060408385031215612b1c57612b1b61289a565b5b6000612b2a85828601612af0565b9250506020612b3b85828601612a3b565b9150509250929050565b600080600060608486031215612b5e57612b5d61289a565b5b6000612b6c86828701612af0565b9350506020612b7d86828701612af0565b9250506040612b8e86828701612a3b565b9150509250925092565b60008060008060808587031215612bb257612bb161289a565b5b6000612bc087828801612af0565b9450506020612bd187828801612a3b565b9350506040612be287828801612af0565b9250506060612bf387828801612a3b565b91505092959194509250565b600060208284031215612c1557612c1461289a565b5b6000612c2384828501612af0565b91505092915050565b612c3581612a1a565b82525050565b6000602082019050612c506000830184612c2c565b92915050565b60008060008060808587031215612c7057612c6f61289a565b5b6000612c7e87828801612a3b565b9450506020612c8f87828801612af0565b9350506040612ca087828801612af0565b9250506060612cb187828801612a3b565b91505092959194509250565b612cc681612929565b8114612cd157600080fd5b50565b600081359050612ce381612cbd565b92915050565b60008060408385031215612d0057612cff61289a565b5b6000612d0e85828601612af0565b9250506020612d1f85828601612cd4565b9150509250929050565b600080fd5b600080fd5b7f4e487b7100000000000000000000000000000000000000000000000000000000600052604160045260246000fd5b612d6b826129ae565b810181811067ffffffffffffffff82111715612d8a57612d89612d33565b5b80604052505050565b6000612d9d612890565b9050612da98282612d62565b919050565b600067ffffffffffffffff821115612dc957612dc8612d33565b5b612dd2826129ae565b9050602081019050919050565b82818337600083830152505050565b6000612e01612dfc84612dae565b612d93565b905082815260208101848484011115612e1d57612e1c612d2e565b5b612e28848285612ddf565b509392505050565b600082601f830112612e4557612e44612d29565b5b8135612e55848260208601612dee565b91505092915050565b60008060008060808587031215612e7857612e7761289a565b5b6000612e8687828801612af0565b9450506020612e9787828801612af0565b9350506040612ea887828801612a3b565b925050606085013567ffffffffffffffff811115612ec957612ec861289f565b5b612ed587828801612e30565b91505092959194509250565b600081519050919050565b600082825260208201905092915050565b6000819050602082019050919050565b6000612f1882612a7d565b9050919050565b612f2881612f0d565b82525050565b60006bffffffffffffffffffffffff82169050919050565b612f4f81612f2e565b82525050565b604082016000820151612f6b6000850182612f1f565b506020820151612f7e6020850182612f46565b50505050565b6000612f908383612f55565b60408301905092915050565b6000602082019050919050565b6000612fb482612ee1565b612fbe8185612eec565b9350612fc983612efd565b8060005b83811015612ffa578151612fe18882612f84565b9750612fec83612f9c565b925050600181019050612fcd565b5085935050505092915050565b600060208201905081810360008301526130218184612fa9565b905092915050565b600080604083850312156130405761303f61289a565b5b600061304e85828601612a3b565b925050602061305f85828601612af0565b9150509250929050565b600080604083850312156130805761307f61289a565b5b600061308e85828601612af0565b925050602061309f85828601612af0565b9150509250929050565b600067ffffffffffffffff8211156130c4576130c3612d33565b5b6130cd826129ae565b9050602081019050919050565b60006130ed6130e8846130a9565b612d93565b90508281526020810184848401111561310957613108612d2e565b5b613114848285612ddf565b509392505050565b600082601f83011261313157613130612d29565b5b81356131418482602086016130da565b91505092915050565b600067ffffffffffffffff82111561316557613164612d33565b5b602082029050602081019050919050565b600080fd5b600080fd5b61318981612f0d565b811461319457600080fd5b50565b6000813590506131a681613180565b92915050565b6131b581612f2e565b81146131c057600080fd5b50565b6000813590506131d2816131ac565b92915050565b6000604082840312156131ee576131ed61317b565b5b6131f86040612d93565b9050600061320884828501613197565b600083015250602061321c848285016131c3565b60208301525092915050565b600061323b6132368461314a565b612d93565b9050808382526020820190506040840283018581111561325e5761325d613176565b5b835b81811015613287578061327388826131d8565b845260208401935050604081019050613260565b5050509392505050565b600082601f8301126132a6576132a5612d29565b5b81356132b6848260208601613228565b91505092915050565b6000806000606084860312156132d8576132d761289a565b5b60006132e686828701612af0565b935050602084013567ffffffffffffffff8111156133075761330661289f565b5b6133138682870161311c565b925050604084013567ffffffffffffffff8111156133345761333361289f565b5b61334086828701613291565b9150509250925092565b600080604083850312156133615761336061289a565b5b600061336f85828601612a3b565b925050602061338085828601612a3b565b9150509250929050565b61339381612f0d565b82525050565b6133a281612f2e565b82525050565b60006040820190506133bd600083018561338a565b6133ca6020830184613399565b9392505050565b7f4e487b7100000000000000000000000000000000000000000000000000000000600052602260045260246000fd5b6000600282049050600182168061341857607f821691505b6020821081141561342c5761342b6133d1565b5b50919050565b7f4552433732313a20617070726f76656420717565727920666f72206e6f6e657860008201527f697374656e7420746f6b656e0000000000000000000000000000000000000000602082015250565b600061348e602c8361296a565b915061349982613432565b604082019050919050565b600060208201905081810360008301526134bd81613481565b9050919050565b7f4552433732313a20617070726f76616c20746f2063757272656e74206f776e6560008201527f7200000000000000000000000000000000000000000000000000000000000000602082015250565b600061352060218361296a565b915061352b826134c4565b604082019050919050565b6000602082019050818103600083015261354f81613513565b9050919050565b7f4552433732313a20617070726f76652063616c6c6572206973206e6f74206f7760008201527f6e6572206e6f7220617070726f76656420666f7220616c6c0000000000000000602082015250565b60006135b260388361296a565b91506135bd82613556565b604082019050919050565b600060208201905081810360008301526135e1816135a5565b9050919050565b7f4552433732313a207472616e736665722063616c6c6572206973206e6f74206f60008201527f776e6572206e6f7220617070726f766564000000000000000000000000000000602082015250565b600061364460318361296a565b915061364f826135e8565b604082019050919050565b6000602082019050818103600083015261367381613637565b9050919050565b7f6e6f7420616c6c6f77656420746f206164642045524332300000000000000000600082015250565b60006136b060188361296a565b91506136bb8261367a565b602082019050919050565b600060208201905081810360008301526136df816136a3565b9050919050565b60006060820190506136fb6000830186612aaf565b6137086020830185612aaf565b6137156040830184612c2c565b949350505050565b60008151905061372c81612cbd565b92915050565b6000602082840312156137485761374761289a565b5b60006137568482850161371d565b91505092915050565b7f4552433230207472616e73666572206661696c65642e00000000000000000000600082015250565b600061379560168361296a565b91506137a08261375f565b602082019050919050565b600060208201905081810360008301526137c481613788565b9050919050565b7f4552433732313a206f776e657220717565727920666f72206e6f6e657869737460008201527f656e7420746f6b656e0000000000000000000000000000000000000000000000602082015250565b600061382760298361296a565b9150613832826137cb565b604082019050919050565b600060208201905081810360008301526138568161381a565b9050919050565b7f4552433732313a2062616c616e636520717565727920666f7220746865207a6560008201527f726f206164647265737300000000000000000000000000000000000000000000602082015250565b60006138b9602a8361296a565b91506138c48261385d565b604082019050919050565b600060208201905081810360008301526138e8816138ac565b9050919050565b60006040820190506139046000830185612aaf565b6139116020830184612c2c565b9392505050565b7f45524337323155524953746f726167653a2055524920717565727920666f722060008201527f6e6f6e6578697374656e7420746f6b656e000000000000000000000000000000602082015250565b600061397460318361296a565b915061397f82613918565b604082019050919050565b600060208201905081810360008301526139a381613967565b9050919050565b600081905092915050565b60006139c08261295f565b6139ca81856139aa565b93506139da81856020860161297b565b80840191505092915050565b60006139f282856139b5565b91506139fe82846139b5565b91508190509392505050565b7f4552433732313a206f70657261746f7220717565727920666f72206e6f6e657860008201527f697374656e7420746f6b656e0000000000000000000000000000000000000000602082015250565b6000613a66602c8361296a565b9150613a7182613a0a565b604082019050919050565b60006020820190508181036000830152613a9581613a59565b9050919050565b7f4552433732313a207472616e736665722066726f6d20696e636f72726563742060008201527f6f776e6572000000000000000000000000000000000000000000000000000000602082015250565b6000613af860258361296a565b9150613b0382613a9c565b604082019050919050565b60006020820190508181036000830152613b2781613aeb565b9050919050565b7f4552433732313a207472616e7366657220746f20746865207a65726f2061646460008201527f7265737300000000000000000000000000000000000000000000000000000000602082015250565b6000613b8a60248361296a565b9150613b9582613b2e565b604082019050919050565b60006020820190508181036000830152613bb981613b7d565b9050919050565b7f4e487b7100000000000000000000000000000000000000000000000000000000600052601160045260246000fd5b6000613bfa82612a1a565b9150613c0583612a1a565b925082821015613c1857613c17613bc0565b5b828203905092915050565b6000613c2e82612a1a565b9150613c3983612a1a565b9250827fffffffffffffffffffffffffffffffffffffffffffffffffffffffffffffffff03821115613c6e57613c6d613bc0565b5b828201905092915050565b7f5f746f6b656e496420646f6573206e6f742065786973742e0000000000000000600082015250565b6000613caf60188361296a565b9150613cba82613c79565b602082019050919050565b60006020820190508181036000830152613cde81613ca2565b9050919050565b7f4e6f7420656e6f75676820746f6b656e20617661696c61626c6520746f20747260008201527f616e736665722e00000000000000000000000000000000000000000000000000602082015250565b6000613d4160278361296a565b9150613d4c82613ce5565b604082019050919050565b60006020820190508181036000830152613d7081613d34565b9050919050565b7f4e487b7100000000000000000000000000000000000000000000000000000000600052603260045260246000fd5b7f4e487b7100000000000000000000000000000000000000000000000000000000600052603160045260246000fd5b7f4552433732313a20617070726f766520746f2063616c6c657200000000000000600082015250565b6000613e0b60198361296a565b9150613e1682613dd5565b602082019050919050565b60006020820190508181036000830152613e3a81613dfe565b9050919050565b7f4552433732313a207472616e7366657220746f206e6f6e20455243373231526560008201527f63656976657220696d706c656d656e7465720000000000000000000000000000602082015250565b6000613e9d60328361296a565b9150613ea882613e41565b604082019050919050565b60006020820190508181036000830152613ecc81613e90565b9050919050565b7f4552433732314d657461646174613a2055524920717565727920666f72206e6f60008201527f6e6578697374656e7420746f6b656e0000000000000000000000000000000000602082015250565b6000613f2f602f8361296a565b9150613f3a82613ed3565b604082019050919050565b60006020820190508181036000830152613f5e81613f22565b9050919050565b7f526f79616c747920726563697069656e742073686f756c64206265207072657360008201527f656e740000000000000000000000000000000000000000000000000000000000602082015250565b6000613fc160238361296a565b9150613fcc82613f65565b604082019050919050565b60006020820190508181036000830152613ff081613fb4565b9050919050565b7f526f79616c74792076616c75652073686f756c64206265203e20300000000000600082015250565b600061402d601b8361296a565b915061403882613ff7565b602082019050919050565b6000602082019050818103600083015261405c81614020565b9050919050565b600061406e82612a1a565b91507fffffffffffffffffffffffffffffffffffffffffffffffffffffffffffffffff8214156140a1576140a0613bc0565b5b600182019050919050565b7f53756d206f6620526f79616c74696573203e2031303025000000000000000000600082015250565b60006140e260178361296a565b91506140ed826140ac565b602082019050919050565b60006020820190508181036000830152614111816140d5565b9050919050565b600081905092915050565b61412c81612f0d565b82525050565b600061413e8383614123565b60208301905092915050565b61415381612f2e565b82525050565b6000614165838361414a565b60208301905092915050565b6000820160008201516141848482614132565b93505060208201516141968482614159565b935050505050565b60006141aa8383614171565b60408301905092915050565b60006141c182612ee1565b6141cb8185614118565b93506141d683612efd565b8060005b838110156142075781516141ee888261419e565b97506141f983612f9c565b9250506001810190506141da565b5085935050505092915050565b600061422082846141b6565b915081905092915050565b7f45524337323155524953746f726167653a2055524920736574206f66206e6f6e60008201527f6578697374656e7420746f6b656e000000000000000000000000000000000000602082015250565b6000614287602e8361296a565b91506142928261422b565b604082019050919050565b600060208201905081810360008301526142b68161427a565b9050919050565b600081519050919050565b600082825260208201905092915050565b60006142e4826142bd565b6142ee81856142c8565b93506142fe81856020860161297b565b614307816129ae565b840191505092915050565b60006080820190506143276000830187612aaf565b6143346020830186612aaf565b6143416040830185612c2c565b818103606083015261435381846142d9565b905095945050505050565b60008151905061436d816128d0565b92915050565b6000602082840312156143895761438861289a565b5b60006143978482850161435e565b91505092915050565b7f4e487b7100000000000000000000000000000000000000000000000000000000600052601260045260246000fd5b60006143da82612a1a565b91506143e583612a1a565b9250826143f5576143f46143a0565b5b828204905092915050565b600061440b82612a1a565b915061441683612a1a565b925082614426576144256143a0565b5b828206905092915050565b7f4552433732313a206d696e7420746f20746865207a65726f2061646472657373600082015250565b600061446760208361296a565b915061447282614431565b602082019050919050565b600060208201905081810360008301526144968161445a565b9050919050565b7f4552433732313a20746f6b656e20616c7265616479206d696e74656400000000600082015250565b60006144d3601c8361296a565b91506144de8261449d565b602082019050919050565b60006020820190508181036000830152614502816144c6565b905091905056fea2646970667358221220a51671751fe19466ec93bb373ab5db78503f6638aa2d69a46a31c0c333a3067b64736f6c634300080b0033",
  "immutableReferences": {},
  "source": "// SPDX-License-Identifier: MIT\npragma solidity >=0.4.22 <0.9.0;\n\nimport \"@openzeppelin/contracts/token/ERC20/IERC20.sol\";\nimport \"@openzeppelin/contracts/token/ERC721/extensions/ERC721URIStorage.sol\";\nimport \"@openzeppelin/contracts/utils/Counters.sol\";\nimport \"./utils/LibShare.sol\";\n\ncontract piNFT is ERC721URIStorage{\n\n    using Counters for Counters.Counter;\n    Counters.Counter private _tokenIdCounter;\n\n    // tokenId => (token contract => balance)\n    mapping(uint256 => mapping(address => uint256)) erc20Balances;\n\n    // tokenId => token contract\n    mapping(uint256 => address[]) erc20Contracts;\n\n    // tokenId => royalties\n    mapping(uint256 => LibShare.Share[]) public royaltiesByTokenId;\n\n    // tokenId => (token contract => token contract index)\n    mapping(uint256 => mapping(address => uint256)) erc20ContractIndex;\n\n    event ReceivedERC20(address indexed _from, uint256 indexed _tokenId, address indexed _erc20Contract, uint256 _value);\n    event TransferERC20(uint256 indexed _tokenId, address indexed _to, address indexed _erc20Contract, uint256 _value);\n    event RoyaltiesSetForTokenId(uint256 indexed tokenId, LibShare.Share[] indexed royalties);\n\n    constructor(string memory _name, string memory _symbol) ERC721(_name, _symbol) {}\n    \n    // mints an ERC721 token to _to with _uri as token uri\n    function mintNFT(address _to, string memory _uri, LibShare.Share[] memory royalties) public returns (uint256) {\n        uint256 tokenId_ = _tokenIdCounter.current();\n        _setRoyaltiesByTokenId(tokenId_, royalties);\n        _safeMint(_to, tokenId_);\n        _setTokenURI(tokenId_, _uri);\n        _tokenIdCounter.increment();\n        return tokenId_;\n    }\n\n    function _setRoyaltiesByTokenId(\n        uint256 _tokenId,\n        LibShare.Share[] memory royalties\n    ) internal {\n        require(royalties.length <= 10);\n        delete royaltiesByTokenId[_tokenId];\n        uint256 sumRoyalties = 0;\n        for (uint256 i = 0; i < royalties.length; i++) {\n            require(\n                royalties[i].account != address(0x0),\n                \"Royalty recipient should be present\"\n            );\n            require(royalties[i].value != 0, \"Royalty value should be > 0\");\n            royaltiesByTokenId[_tokenId].push(royalties[i]);\n            sumRoyalties += royalties[i].value;\n        }\n        require(sumRoyalties < 10000, \"Sum of Royalties > 100%\");\n\n        emit RoyaltiesSetForTokenId(_tokenId, royalties);\n    }\n\n    function getRoyalties(uint256 _tokenId)\n        external\n        view\n        returns (LibShare.Share[] memory)\n    {\n        return royaltiesByTokenId[_tokenId];\n    }\n\n    // this function requires approval of tokens by _erc20Contract\n    // adds ERC20 tokens to the token with _tokenId(basically trasnfer ERC20 to this contract)\n    function addERC20(address _from, uint256 _tokenId, address _erc20Contract, uint256 _value) public {\n        require(_from == msg.sender, \"not allowed to add ERC20\");\n        erc20Received(_from, _tokenId, _erc20Contract, _value);\n        require(IERC20(_erc20Contract).transferFrom(_from, address(this), _value), \"ERC20 transfer failed.\");\n    }\n\n    // update the mappings for a token on recieving ERC20 tokens\n    function erc20Received(address _from, uint256 _tokenId, address _erc20Contract, uint256 _value) private {\n        require(ERC721.ownerOf(_tokenId) != address(0), \"_tokenId does not exist.\");\n        if (_value == 0) {\n            return;\n        }\n        uint256 erc20Balance = erc20Balances[_tokenId][_erc20Contract];\n        if (erc20Balance == 0) {\n            erc20ContractIndex[_tokenId][_erc20Contract] = erc20Contracts[_tokenId].length;\n            erc20Contracts[_tokenId].push(_erc20Contract);\n        }\n        erc20Balances[_tokenId][_erc20Contract] += _value;\n        emit ReceivedERC20(_from, _tokenId, _erc20Contract, _value);\n    }\n\n    // transfers the ERC 20 tokens from _tokenId(this contract) to _to address\n    function transferERC20(uint256 _tokenId, address _to, address _erc20Contract, uint256 _value) external {\n        require(_to != address(0));\n        address rootOwner = ERC721.ownerOf(_tokenId);\n        require(rootOwner == msg.sender);\n        removeERC20(_tokenId, _erc20Contract, _value);\n        require(IERC20(_erc20Contract).transfer(_to, _value), \"ERC20 transfer failed.\");\n        emit TransferERC20(_tokenId, _to, _erc20Contract, _value);\n    }\n\n    // update the mappings for a token when ERC20 tokens gets removed\n    function removeERC20(uint256 _tokenId, address _erc20Contract, uint256 _value) private {\n        if (_value == 0) {\n            return;\n        }\n        uint256 erc20Balance = erc20Balances[_tokenId][_erc20Contract];\n        require(erc20Balance >= _value, \"Not enough token available to transfer.\");\n        uint256 newERC20Balance = erc20Balance - _value;\n        erc20Balances[_tokenId][_erc20Contract] = newERC20Balance;\n        if (newERC20Balance == 0) {\n            uint256 lastContractIndex = erc20Contracts[_tokenId].length - 1;\n            address lastContract = erc20Contracts[_tokenId][lastContractIndex];\n            if (_erc20Contract != lastContract) {\n                uint256 contractIndex = erc20ContractIndex[_tokenId][_erc20Contract];\n                erc20Contracts[_tokenId][contractIndex] = lastContract;\n                erc20ContractIndex[_tokenId][lastContract] = contractIndex;\n            }\n            delete erc20ContractIndex[_tokenId][_erc20Contract];\n            erc20Contracts[_tokenId].pop();\n\n        }\n    }\n\n    // view ERC 20 token balance of a token\n    function viewBalance(uint256 _tokenId, address _erc20Address) public view returns (uint256) {\n        return erc20Balances[_tokenId][_erc20Address];\n    }\n\n}",
  "sourcePath": "/Users/parv/Desktop/Pandora/piNFTOfficial/aconomy-contract/contracts/piNFT.sol",
  "compiler": {
    "name": "solc",
    "version": "0.8.11+commit.d7f03943.Emscripten.clang"
  },
  "schemaVersion": "3.4.4",
  "updatedAt": "2022-07-05T06:55:16.056Z",
  "devdoc": {
    "kind": "dev",
    "methods": {
      "approve(address,uint256)": {
        "details": "See {IERC721-approve}."
      },
      "balanceOf(address)": {
        "details": "See {IERC721-balanceOf}."
      },
      "getApproved(uint256)": {
        "details": "See {IERC721-getApproved}."
      },
      "isApprovedForAll(address,address)": {
        "details": "See {IERC721-isApprovedForAll}."
      },
      "name()": {
        "details": "See {IERC721Metadata-name}."
      },
      "ownerOf(uint256)": {
        "details": "See {IERC721-ownerOf}."
      },
      "safeTransferFrom(address,address,uint256)": {
        "details": "See {IERC721-safeTransferFrom}."
      },
      "safeTransferFrom(address,address,uint256,bytes)": {
        "details": "See {IERC721-safeTransferFrom}."
      },
      "setApprovalForAll(address,bool)": {
        "details": "See {IERC721-setApprovalForAll}."
      },
      "supportsInterface(bytes4)": {
        "details": "See {IERC165-supportsInterface}."
      },
      "symbol()": {
        "details": "See {IERC721Metadata-symbol}."
      },
      "tokenURI(uint256)": {
        "details": "See {IERC721Metadata-tokenURI}."
      },
      "transferFrom(address,address,uint256)": {
        "details": "See {IERC721-transferFrom}."
      }
    },
    "version": 1
  },
  "userdoc": {
    "kind": "user",
    "methods": {},
    "version": 1
  }
}