{
  "contractName": "poolRegistry",
  "abi": [
    {
      "inputs": [
        {
          "internalType": "contract AttestationServices",
          "name": "_attestationServices",
          "type": "address"
        }
      ],
      "stateMutability": "nonpayable",
      "type": "constructor"
    },
    {
      "anonymous": false,
      "inputs": [
        {
          "indexed": false,
          "internalType": "uint256",
          "name": "poolId",
          "type": "uint256"
        },
        {
          "indexed": false,
          "internalType": "address",
          "name": "borrower",
          "type": "address"
        }
      ],
      "name": "BorrowerAttestation",
      "type": "event"
    },
    {
      "anonymous": false,
      "inputs": [
        {
          "indexed": false,
          "internalType": "uint256",
          "name": "poolId",
          "type": "uint256"
        },
        {
          "indexed": false,
          "internalType": "address",
          "name": "lender",
          "type": "address"
        }
      ],
      "name": "LenderAttestation",
      "type": "event"
    },
    {
      "anonymous": false,
      "inputs": [
        {
          "indexed": false,
          "internalType": "uint256",
          "name": "poolId",
          "type": "uint256"
        },
        {
          "indexed": false,
          "internalType": "uint32",
          "name": "duration",
          "type": "uint32"
        }
      ],
      "name": "SetPaymentCycleDuration",
      "type": "event"
    },
    {
      "anonymous": false,
      "inputs": [
        {
          "indexed": false,
          "internalType": "uint256",
          "name": "poolId",
          "type": "uint256"
        },
        {
          "indexed": false,
          "internalType": "uint32",
          "name": "duration",
          "type": "uint32"
        }
      ],
      "name": "SetPaymentDefaultDuration",
      "type": "event"
    },
    {
      "anonymous": false,
      "inputs": [
        {
          "indexed": false,
          "internalType": "uint256",
          "name": "poolId",
          "type": "uint256"
        },
        {
          "indexed": false,
          "internalType": "uint16",
          "name": "feePct",
          "type": "uint16"
        }
      ],
      "name": "SetPoolFee",
      "type": "event"
    },
    {
      "anonymous": false,
      "inputs": [
        {
          "indexed": false,
          "internalType": "uint256",
          "name": "poolId",
          "type": "uint256"
        },
        {
          "indexed": false,
          "internalType": "string",
          "name": "uri",
          "type": "string"
        }
      ],
      "name": "SetPoolURI",
      "type": "event"
    },
    {
      "anonymous": false,
      "inputs": [
        {
          "indexed": false,
          "internalType": "uint256",
          "name": "poolId",
          "type": "uint256"
        },
        {
          "indexed": false,
          "internalType": "uint32",
          "name": "duration",
          "type": "uint32"
        }
      ],
      "name": "SetloanExpirationTime",
      "type": "event"
    },
    {
      "anonymous": false,
      "inputs": [
        {
          "indexed": true,
          "internalType": "address",
          "name": "owner",
          "type": "address"
        },
        {
          "indexed": false,
          "internalType": "address",
          "name": "poolAddress",
          "type": "address"
        },
        {
          "indexed": false,
          "internalType": "uint256",
          "name": "poolId",
          "type": "uint256"
        }
      ],
      "name": "poolCreated",
      "type": "event"
    },
    {
      "inputs": [],
      "name": "attestationService",
      "outputs": [
        {
          "internalType": "contract AttestationServices",
          "name": "",
          "type": "address"
        }
      ],
      "stateMutability": "view",
      "type": "function"
    },
    {
      "inputs": [],
      "name": "borrowerAttestationSchemaId",
      "outputs": [
        {
          "internalType": "bytes32",
          "name": "",
          "type": "bytes32"
        }
      ],
      "stateMutability": "view",
      "type": "function"
    },
    {
      "inputs": [],
      "name": "lenderAttestationSchemaId",
      "outputs": [
        {
          "internalType": "bytes32",
          "name": "",
          "type": "bytes32"
        }
      ],
      "stateMutability": "view",
      "type": "function"
    },
    {
      "inputs": [],
      "name": "poolCount",
      "outputs": [
        {
          "internalType": "uint256",
          "name": "",
          "type": "uint256"
        }
      ],
      "stateMutability": "view",
      "type": "function"
    },
    {
      "inputs": [
        {
          "internalType": "string",
          "name": "_word",
          "type": "string"
        },
        {
          "internalType": "bytes32",
          "name": "ans",
          "type": "bytes32"
        }
      ],
      "name": "guess",
      "outputs": [
        {
          "internalType": "bool",
          "name": "",
          "type": "bool"
        }
      ],
      "stateMutability": "view",
      "type": "function"
    },
    {
      "inputs": [
        {
          "internalType": "address",
          "name": "_initialOwner",
          "type": "address"
        },
        {
          "internalType": "uint32",
          "name": "_paymentCycleDuration",
          "type": "uint32"
        },
        {
          "internalType": "uint32",
          "name": "_paymentDefaultDuration",
          "type": "uint32"
        },
        {
          "internalType": "uint32",
          "name": "_loanExpirationTime",
          "type": "uint32"
        },
        {
          "internalType": "uint16",
          "name": "_poolFeePercent",
          "type": "uint16"
        },
        {
          "internalType": "bool",
          "name": "_requireLenderAttestation",
          "type": "bool"
        },
        {
          "internalType": "bool",
          "name": "_requireBorrowerAttestation",
          "type": "bool"
        },
        {
          "internalType": "string",
          "name": "_uri",
          "type": "string"
        }
      ],
      "name": "createPool",
      "outputs": [],
      "stateMutability": "nonpayable",
      "type": "function"
    },
    {
      "inputs": [
        {
          "internalType": "uint256",
          "name": "_poolId",
          "type": "uint256"
        },
        {
          "internalType": "string",
          "name": "_uri",
          "type": "string"
        }
      ],
      "name": "setPoolURI",
      "outputs": [],
      "stateMutability": "nonpayable",
      "type": "function"
    },
    {
      "inputs": [
        {
          "internalType": "uint256",
          "name": "_poolId",
          "type": "uint256"
        },
        {
          "internalType": "uint32",
          "name": "_duration",
          "type": "uint32"
        }
      ],
      "name": "setPaymentCycleDuration",
      "outputs": [],
      "stateMutability": "nonpayable",
      "type": "function"
    },
    {
      "inputs": [
        {
          "internalType": "uint256",
          "name": "_poolId",
          "type": "uint256"
        },
        {
          "internalType": "uint32",
          "name": "_duration",
          "type": "uint32"
        }
      ],
      "name": "setPaymentDefaultDuration",
      "outputs": [],
      "stateMutability": "nonpayable",
      "type": "function"
    },
    {
      "inputs": [
        {
          "internalType": "uint256",
          "name": "_poolId",
          "type": "uint256"
        },
        {
          "internalType": "uint16",
          "name": "_newPercent",
          "type": "uint16"
        }
      ],
      "name": "setPoolFeePercent",
      "outputs": [],
      "stateMutability": "nonpayable",
      "type": "function"
    },
    {
      "inputs": [
        {
          "internalType": "uint256",
          "name": "_poolId",
          "type": "uint256"
        },
        {
          "internalType": "uint32",
          "name": "_duration",
          "type": "uint32"
        }
      ],
      "name": "setloanExpirationTime",
      "outputs": [],
      "stateMutability": "nonpayable",
      "type": "function"
    },
    {
      "inputs": [
        {
          "internalType": "uint256",
          "name": "_poolId",
          "type": "uint256"
        },
        {
          "internalType": "address",
          "name": "_lenderAddress",
          "type": "address"
        },
        {
          "internalType": "uint256",
          "name": "_expirationTime",
          "type": "uint256"
        }
      ],
      "name": "addLender",
      "outputs": [],
      "stateMutability": "nonpayable",
      "type": "function"
    },
    {
      "inputs": [
        {
          "internalType": "uint256",
          "name": "_poolId",
          "type": "uint256"
        },
        {
          "internalType": "address",
          "name": "_borrowerAddress",
          "type": "address"
        },
        {
          "internalType": "uint256",
          "name": "_expirationTime",
          "type": "uint256"
        }
      ],
      "name": "addBorrower",
      "outputs": [],
      "stateMutability": "nonpayable",
      "type": "function"
    },
    {
      "inputs": [
        {
          "internalType": "uint256",
          "name": "_poolId",
          "type": "uint256"
        }
      ],
      "name": "getPoolFee",
      "outputs": [
        {
          "internalType": "uint16",
          "name": "fee",
          "type": "uint16"
        }
      ],
      "stateMutability": "view",
      "type": "function"
    },
    {
      "inputs": [
        {
          "internalType": "uint256",
          "name": "_poolId",
          "type": "uint256"
        },
        {
          "internalType": "address",
          "name": "_borrowerAddress",
          "type": "address"
        }
      ],
      "name": "borrowerVarification",
      "outputs": [
        {
          "internalType": "bool",
          "name": "isVerified_",
          "type": "bool"
        },
        {
          "internalType": "bytes32",
          "name": "uuid_",
          "type": "bytes32"
        }
      ],
      "stateMutability": "view",
      "type": "function"
    },
    {
      "inputs": [
        {
          "internalType": "uint256",
          "name": "_poolId",
          "type": "uint256"
        },
        {
          "internalType": "address",
          "name": "_lenderAddress",
          "type": "address"
        }
      ],
      "name": "lenderVarification",
      "outputs": [
        {
          "internalType": "bool",
          "name": "isVerified_",
          "type": "bool"
        },
        {
          "internalType": "bytes32",
          "name": "uuid_",
          "type": "bytes32"
        }
      ],
      "stateMutability": "view",
      "type": "function"
    },
    {
      "inputs": [
        {
          "internalType": "uint256",
          "name": "_poolId",
          "type": "uint256"
        }
      ],
      "name": "ClosedPool",
      "outputs": [
        {
          "internalType": "bool",
          "name": "",
          "type": "bool"
        }
      ],
      "stateMutability": "view",
      "type": "function"
    },
    {
      "inputs": [
        {
          "internalType": "uint256",
          "name": "_poolId",
          "type": "uint256"
        }
      ],
      "name": "getPaymentCycleDuration",
      "outputs": [
        {
          "internalType": "uint32",
          "name": "",
          "type": "uint32"
        }
      ],
      "stateMutability": "view",
      "type": "function"
    },
    {
      "inputs": [
        {
          "internalType": "uint256",
          "name": "_poolId",
          "type": "uint256"
        }
      ],
      "name": "getPaymentDefaultDuration",
      "outputs": [
        {
          "internalType": "uint32",
          "name": "",
          "type": "uint32"
        }
      ],
      "stateMutability": "view",
      "type": "function"
    },
    {
      "inputs": [
        {
          "internalType": "uint256",
          "name": "poolId",
          "type": "uint256"
        }
      ],
      "name": "getloanExpirationTime",
      "outputs": [
        {
          "internalType": "uint32",
          "name": "",
          "type": "uint32"
        }
      ],
      "stateMutability": "view",
      "type": "function"
    },
    {
      "inputs": [
        {
          "internalType": "uint256",
          "name": "_poolId",
          "type": "uint256"
        }
      ],
      "name": "getPoolAddress",
      "outputs": [
        {
          "internalType": "address",
          "name": "",
          "type": "address"
        }
      ],
      "stateMutability": "view",
      "type": "function"
    },
    {
      "inputs": [
        {
          "internalType": "uint256",
          "name": "_poolId",
          "type": "uint256"
        }
      ],
      "name": "getPoolOwner",
      "outputs": [
        {
          "internalType": "address",
          "name": "",
          "type": "address"
        }
      ],
      "stateMutability": "view",
      "type": "function"
    }
  ],
  "bytecode": "0x60806040523480156200001157600080fd5b5060405162002bf738038062002bf78339818101604052810190620000379190620002e8565b806000806101000a81548173ffffffffffffffffffffffffffffffffffffffff021916908373ffffffffffffffffffffffffffffffffffffffff1602179055508073ffffffffffffffffffffffffffffffffffffffff166381fa6cd36040518163ffffffff1660e01b8152600401602060405180830381865afa158015620000c3573d6000803e3d6000fd5b505050506040513d601f19601f82011682018060405250810190620000e991906200035f565b73ffffffffffffffffffffffffffffffffffffffff166382fbdc9c6040518163ffffffff1660e01b8152600401620001219062000418565b6020604051808303816000875af115801562000141573d6000803e3d6000fd5b505050506040513d601f19601f8201168201806040525081019062000167919062000475565b6001819055508073ffffffffffffffffffffffffffffffffffffffff166381fa6cd36040518163ffffffff1660e01b8152600401602060405180830381865afa158015620001b9573d6000803e3d6000fd5b505050506040513d601f19601f82011682018060405250810190620001df91906200035f565b73ffffffffffffffffffffffffffffffffffffffff166382fbdc9c6040518163ffffffff1660e01b815260040162000217906200051d565b6020604051808303816000875af115801562000237573d6000803e3d6000fd5b505050506040513d601f19601f820116820180604052508101906200025d919062000475565b600281905550506200053f565b600080fd5b600073ffffffffffffffffffffffffffffffffffffffff82169050919050565b60006200029c826200026f565b9050919050565b6000620002b0826200028f565b9050919050565b620002c281620002a3565b8114620002ce57600080fd5b50565b600081519050620002e281620002b7565b92915050565b6000602082840312156200030157620003006200026a565b5b60006200031184828501620002d1565b91505092915050565b600062000327826200028f565b9050919050565b62000339816200031a565b81146200034557600080fd5b50565b60008151905062000359816200032e565b92915050565b6000602082840312156200037857620003776200026a565b5b6000620003888482850162000348565b91505092915050565b600082825260208201905092915050565b7f2875696e7432353620706f6f6c49642c2061646472657373206c656e6465724160008201527f6464726573732900000000000000000000000000000000000000000000000000602082015250565b60006200040060278362000391565b91506200040d82620003a2565b604082019050919050565b600060208201905081810360008301526200043381620003f1565b9050919050565b6000819050919050565b6200044f816200043a565b81146200045b57600080fd5b50565b6000815190506200046f8162000444565b92915050565b6000602082840312156200048e576200048d6200026a565b5b60006200049e848285016200045e565b91505092915050565b7f2875696e7432353620706f6f6c49642c206164647265737320626f72726f776560008201527f7241646472657373290000000000000000000000000000000000000000000000602082015250565b60006200050560298362000391565b91506200051282620004a7565b604082019050919050565b600060208201905081810360008301526200053881620004f6565b9050919050565b6126a8806200054f6000396000f3fe608060405234801561001057600080fd5b50600436106101415760003560e01c8063918d59ea116100b8578063d404b9571161007c578063d404b957146103d6578063e18bdb83146103f2578063ecd6ce6e1461040e578063f2e734ba1461042a578063f525cb6814610446578063f8795c031461046457610141565b8063918d59ea146102f8578063a8380df114610329578063c28ba8eb14610359578063c381ff3e14610389578063cf653920146103a557610141565b80633c0db7881161010a5780633c0db78814610210578063519b20721461022e578063635f1e4d1461024a578063679700d91461027a5780636e34b4e414610298578063805deb53146102c857610141565b8062a5ae211461014657806311bed5bb146101765780631a5d3a2a146101a65780632cd04700146101d65780632f1be8f9146101f4575b600080fd5b610160600480360381019061015b9190611781565b610480565b60405161016d91906117ef565b60405180910390f35b610190600480360381019061018b9190611781565b6104c0565b60405161019d9190611829565b60405180910390f35b6101c060048036038101906101bb91906119c0565b6104f0565b6040516101cd9190611a37565b60405180910390f35b6101de610523565b6040516101eb9190611ab1565b60405180910390f35b61020e60048036038101906102099190611af8565b610547565b005b610218610699565b6040516102259190611b47565b60405180910390f35b61024860048036038101906102439190611c54565b61069f565b005b610264600480360381019061025f9190611781565b6106bc565b6040516102719190611d39565b60405180910390f35b6102826106ea565b60405161028f9190611b47565b60405180910390f35b6102b260048036038101906102ad9190611781565b6106f0565b6040516102bf91906117ef565b60405180910390f35b6102e260048036038101906102dd9190611781565b610730565b6040516102ef9190611829565b60405180910390f35b610312600480360381019061030d9190611d54565b610760565b604051610320929190611d94565b60405180910390f35b610343600480360381019061033e9190611781565b6107c7565b6040516103509190611a37565b60405180910390f35b610373600480360381019061036e9190611781565b6107f1565b6040516103809190611829565b60405180910390f35b6103a3600480360381019061039e9190611dbd565b610821565b005b6103bf60048036038101906103ba9190611d54565b610833565b6040516103cd929190611d94565b60405180910390f35b6103f060048036038101906103eb9190611e10565b61089a565b005b61040c60048036038101906104079190611af8565b610a11565b005b61042860048036038101906104239190611af8565b610b63565b005b610444600480360381019061043f9190611dbd565b610cb5565b005b61044e610cc7565b60405161045b9190611e7f565b60405180910390f35b61047e60048036038101906104799190611e9a565b610ccd565b005b60006004600083815260200190815260200160002060000160009054906101000a900473ffffffffffffffffffffffffffffffffffffffff169050919050565b60006004600083815260200190815260200160002060070160049054906101000a900463ffffffff169050919050565b600081836040516020016105049190611f54565b6040516020818303038152906040528051906020012014905092915050565b60008054906101000a900473ffffffffffffffffffffffffffffffffffffffff1681565b813373ffffffffffffffffffffffffffffffffffffffff166004600083815260200190815260200160002060010160009054906101000a900473ffffffffffffffffffffffffffffffffffffffff1673ffffffffffffffffffffffffffffffffffffffff16146105ec576040517f08c379a00000000000000000000000000000000000000000000000000000000081526004016105e390611fc8565b60405180910390fd5b6004600084815260200190815260200160002060070160049054906101000a900463ffffffff1663ffffffff168263ffffffff161461069457816004600085815260200190815260200160002060070160046101000a81548163ffffffff021916908363ffffffff1602179055507f3e49e2efeacab7e8344acd4e7940449bf62039aa3734c34fa6d3525654be8101838360405161068b929190611fe8565b60405180910390a15b505050565b60015481565b6106b0898989898989898989610e6f565b50505050505050505050565b60006004600083815260200190815260200160002060030160009054906101000a900461ffff169050919050565b60025481565b60006004600083815260200190815260200160002060010160009054906101000a900473ffffffffffffffffffffffffffffffffffffffff169050919050565b60006004600083815260200190815260200160002060070160009054906101000a900463ffffffff169050919050565b6000806107bc8360046000878152602001908152602001600020600701600c9054906101000a900460ff1660046000888152602001908152602001600020600a0160046000898152602001908152602001600020600801611122565b915091509250929050565b60006005600083815260200190815260200160002060009054906101000a900460ff169050919050565b60006004600083815260200190815260200160002060070160089054906101000a900463ffffffff169050919050565b61082e8383836000611274565b505050565b60008061088f836004600087815260200190815260200160002060030160029054906101000a900460ff166004600088815260200190815260200160002060060160046000898152602001908152602001600020600401611122565b915091509250929050565b823373ffffffffffffffffffffffffffffffffffffffff166004600083815260200190815260200160002060010160009054906101000a900473ffffffffffffffffffffffffffffffffffffffff1673ffffffffffffffffffffffffffffffffffffffff161461093f576040517f08c379a000000000000000000000000000000000000000000000000000000000815260040161093690611fc8565b60405180910390fd5b600460008581526020019081526020016000206002016040516020016109659190612106565b60405160208183030381529060405280519060200120838360405160200161098e929190612142565b6040516020818303038152906040528051906020012014610a0b5782826004600087815260200190815260200160002060020191906109ce929190611694565b507faea0b816063c817d82c498925319d9f08eb53332cf08ca227ea12c38a5714624848484604051610a0293929190612188565b60405180910390a15b50505050565b813373ffffffffffffffffffffffffffffffffffffffff166004600083815260200190815260200160002060010160009054906101000a900473ffffffffffffffffffffffffffffffffffffffff1673ffffffffffffffffffffffffffffffffffffffff1614610ab6576040517f08c379a0000000000000000000000000000000000000000000000000000000008152600401610aad90611fc8565b60405180910390fd5b6004600084815260200190815260200160002060070160089054906101000a900463ffffffff1663ffffffff168263ffffffff1614610b5e57816004600085815260200190815260200160002060070160086101000a81548163ffffffff021916908363ffffffff1602179055507f8f28307b0f89abbef9b86fdb13ddc77894d04547390687daf215b2f1f63a0baa8383604051610b55929190611fe8565b60405180910390a15b505050565b813373ffffffffffffffffffffffffffffffffffffffff166004600083815260200190815260200160002060010160009054906101000a900473ffffffffffffffffffffffffffffffffffffffff1673ffffffffffffffffffffffffffffffffffffffff1614610c08576040517f08c379a0000000000000000000000000000000000000000000000000000000008152600401610bff90611fc8565b60405180910390fd5b6004600084815260200190815260200160002060070160009054906101000a900463ffffffff1663ffffffff168263ffffffff1614610cb057816004600085815260200190815260200160002060070160006101000a81548163ffffffff021916908363ffffffff1602179055507fa04499c227e7a6de804e5a57e4b38990792373bd8d73b6c13ab76e40600748438383604051610ca7929190611fe8565b60405180910390a15b505050565b610cc28383836001611274565b505050565b60065481565b813373ffffffffffffffffffffffffffffffffffffffff166004600083815260200190815260200160002060010160009054906101000a900473ffffffffffffffffffffffffffffffffffffffff1673ffffffffffffffffffffffffffffffffffffffff1614610d72576040517f08c379a0000000000000000000000000000000000000000000000000000000008152600401610d6990611fc8565b60405180910390fd5b60008261ffff1610158015610d8d57506127108261ffff1611155b610dcc576040517f08c379a0000000000000000000000000000000000000000000000000000000008152600401610dc390612206565b60405180910390fd5b6004600084815260200190815260200160002060030160009054906101000a900461ffff1661ffff168261ffff1614610e6a57816004600085815260200190815260200160002060030160006101000a81548161ffff021916908361ffff1602179055507f24a1eddd3a54f274769832c6e6e16de4e3298679bac8b22e22820be8ef635b598383604051610e61929190612226565b60405180910390a15b505050565b60008073ffffffffffffffffffffffffffffffffffffffff168a73ffffffffffffffffffffffffffffffffffffffff161415610ee0576040517f08c379a0000000000000000000000000000000000000000000000000000000008152600401610ed79061229b565b60405180910390fd5b600660008154610eef906122ea565b9190508190559050600073__LibPool_______________________________633508a72533308d8d8c6040518663ffffffff1660e01b8152600401610f389594939291906123a4565b602060405180830381865af4158015610f55573d6000803e3d6000fd5b505050506040513d601f19601f82011682018060405250810190610f79919061240c565b9050806004600084815260200190815260200160002060000160006101000a81548173ffffffffffffffffffffffffffffffffffffffff021916908373ffffffffffffffffffffffffffffffffffffffff1602179055508a6004600084815260200190815260200160002060010160006101000a81548173ffffffffffffffffffffffffffffffffffffffff021916908373ffffffffffffffffffffffffffffffffffffffff16021790555061103082858561089a565b61103a828b610b63565b611044828a610547565b61104e8288610ccd565b6110588289610a11565b851561108e5760016004600084815260200190815260200160002060030160026101000a81548160ff0219169083151502179055505b84156110c457600160046000848152602001908152602001600020600701600c6101000a81548160ff0219169083151502179055505b8a73ffffffffffffffffffffffffffffffffffffffff167f407eac4ec3d5da6bb83c52c3817e2b7e46268bb1e945cc2494b7c01e06d2beae828460405161110c929190612439565b60405180910390a2509998505050505050505050565b60008084156112665761113e868461141b90919063ffffffff16565b801561121e575060008054906101000a900473ffffffffffffffffffffffffffffffffffffffff1673ffffffffffffffffffffffffffffffffffffffff1663e56d679b8560008973ffffffffffffffffffffffffffffffffffffffff1673ffffffffffffffffffffffffffffffffffffffff168152602001908152602001600020546040518263ffffffff1660e01b81526004016111dc9190611b47565b602060405180830381865afa1580156111f9573d6000803e3d6000fd5b505050506040513d601f19601f8201168201806040525081019061121d9190612477565b5b91508360008773ffffffffffffffffffffffffffffffffffffffff1673ffffffffffffffffffffffffffffffffffffffff16815260200190815260200160002054905061126b565b600191505b94509492505050565b8061128157600254611285565b6001545b806003819055506004600086815260200190815260200160002060010160009054906101000a900473ffffffffffffffffffffffffffffffffffffffff1673ffffffffffffffffffffffffffffffffffffffff163373ffffffffffffffffffffffffffffffffffffffff1614611330576040517f08c379a0000000000000000000000000000000000000000000000000000000008152600401611327906124f0565b60405180910390fd5b60008060009054906101000a900473ffffffffffffffffffffffffffffffffffffffff1673ffffffffffffffffffffffffffffffffffffffff166309a954cd866003548760008b8b604051602001611389929190612510565b6040516020818303038152906040526040518663ffffffff1660e01b81526004016113b89594939291906125d6565b6020604051808303816000875af11580156113d7573d6000803e3d6000fd5b505050506040513d601f19601f820116820180604052508101906113fb9190612645565b90506114098686838661144b565b506000801b6003819055505050505050565b6000611443836000018373ffffffffffffffffffffffffffffffffffffffff1660001b6115d1565b905092915050565b801561151057816004600086815260200190815260200160002060060160008573ffffffffffffffffffffffffffffffffffffffff1673ffffffffffffffffffffffffffffffffffffffff168152602001908152602001600020819055506114d183600460008781526020019081526020016000206004016115f490919063ffffffff16565b507f75675690de0899b0b869d83b44b2d926ac594426b2a0286c478ecdf815cbd33e8484604051611503929190612510565b60405180910390a16115cb565b8160046000868152602001908152602001600020600a0160008573ffffffffffffffffffffffffffffffffffffffff1673ffffffffffffffffffffffffffffffffffffffff1681526020019081526020016000208190555061159083600460008781526020019081526020016000206008016115f490919063ffffffff16565b507f0c2cfc7e7a16ebee66e77fb314f4bfdb5505e33e77d41c0c60604efc70fd926b84846040516115c2929190612510565b60405180910390a15b50505050565b600080836001016000848152602001908152602001600020541415905092915050565b600061161c836000018373ffffffffffffffffffffffffffffffffffffffff1660001b611624565b905092915050565b600061163083836115d1565b61168957826000018290806001815401808255809150506001900390600052602060002001600090919091909150558260000180549050836001016000848152602001908152602001600020819055506001905061168e565b600090505b92915050565b8280546116a090612040565b90600052602060002090601f0160209004810192826116c25760008555611709565b82601f106116db57803560ff1916838001178555611709565b82800160010185558215611709579182015b828111156117085782358255916020019190600101906116ed565b5b509050611716919061171a565b5090565b5b8082111561173357600081600090555060010161171b565b5090565b6000604051905090565b600080fd5b600080fd5b6000819050919050565b61175e8161174b565b811461176957600080fd5b50565b60008135905061177b81611755565b92915050565b60006020828403121561179757611796611741565b5b60006117a58482850161176c565b91505092915050565b600073ffffffffffffffffffffffffffffffffffffffff82169050919050565b60006117d9826117ae565b9050919050565b6117e9816117ce565b82525050565b600060208201905061180460008301846117e0565b92915050565b600063ffffffff82169050919050565b6118238161180a565b82525050565b600060208201905061183e600083018461181a565b92915050565b600080fd5b600080fd5b6000601f19601f8301169050919050565b7f4e487b7100000000000000000000000000000000000000000000000000000000600052604160045260246000fd5b6118978261184e565b810181811067ffffffffffffffff821117156118b6576118b561185f565b5b80604052505050565b60006118c9611737565b90506118d5828261188e565b919050565b600067ffffffffffffffff8211156118f5576118f461185f565b5b6118fe8261184e565b9050602081019050919050565b82818337600083830152505050565b600061192d611928846118da565b6118bf565b90508281526020810184848401111561194957611948611849565b5b61195484828561190b565b509392505050565b600082601f83011261197157611970611844565b5b813561198184826020860161191a565b91505092915050565b6000819050919050565b61199d8161198a565b81146119a857600080fd5b50565b6000813590506119ba81611994565b92915050565b600080604083850312156119d7576119d6611741565b5b600083013567ffffffffffffffff8111156119f5576119f4611746565b5b611a018582860161195c565b9250506020611a12858286016119ab565b9150509250929050565b60008115159050919050565b611a3181611a1c565b82525050565b6000602082019050611a4c6000830184611a28565b92915050565b6000819050919050565b6000611a77611a72611a6d846117ae565b611a52565b6117ae565b9050919050565b6000611a8982611a5c565b9050919050565b6000611a9b82611a7e565b9050919050565b611aab81611a90565b82525050565b6000602082019050611ac66000830184611aa2565b92915050565b611ad58161180a565b8114611ae057600080fd5b50565b600081359050611af281611acc565b92915050565b60008060408385031215611b0f57611b0e611741565b5b6000611b1d8582860161176c565b9250506020611b2e85828601611ae3565b9150509250929050565b611b418161198a565b82525050565b6000602082019050611b5c6000830184611b38565b92915050565b611b6b816117ce565b8114611b7657600080fd5b50565b600081359050611b8881611b62565b92915050565b600061ffff82169050919050565b611ba581611b8e565b8114611bb057600080fd5b50565b600081359050611bc281611b9c565b92915050565b611bd181611a1c565b8114611bdc57600080fd5b50565b600081359050611bee81611bc8565b92915050565b600080fd5b600080fd5b60008083601f840112611c1457611c13611844565b5b8235905067ffffffffffffffff811115611c3157611c30611bf4565b5b602083019150836001820283011115611c4d57611c4c611bf9565b5b9250929050565b60008060008060008060008060006101008a8c031215611c7757611c76611741565b5b6000611c858c828d01611b79565b9950506020611c968c828d01611ae3565b9850506040611ca78c828d01611ae3565b9750506060611cb88c828d01611ae3565b9650506080611cc98c828d01611bb3565b95505060a0611cda8c828d01611bdf565b94505060c0611ceb8c828d01611bdf565b93505060e08a013567ffffffffffffffff811115611d0c57611d0b611746565b5b611d188c828d01611bfe565b92509250509295985092959850929598565b611d3381611b8e565b82525050565b6000602082019050611d4e6000830184611d2a565b92915050565b60008060408385031215611d6b57611d6a611741565b5b6000611d798582860161176c565b9250506020611d8a85828601611b79565b9150509250929050565b6000604082019050611da96000830185611a28565b611db66020830184611b38565b9392505050565b600080600060608486031215611dd657611dd5611741565b5b6000611de48682870161176c565b9350506020611df586828701611b79565b9250506040611e068682870161176c565b9150509250925092565b600080600060408486031215611e2957611e28611741565b5b6000611e378682870161176c565b935050602084013567ffffffffffffffff811115611e5857611e57611746565b5b611e6486828701611bfe565b92509250509250925092565b611e798161174b565b82525050565b6000602082019050611e946000830184611e70565b92915050565b60008060408385031215611eb157611eb0611741565b5b6000611ebf8582860161176c565b9250506020611ed085828601611bb3565b9150509250929050565b600081519050919050565b600081905092915050565b60005b83811015611f0e578082015181840152602081019050611ef3565b83811115611f1d576000848401525b50505050565b6000611f2e82611eda565b611f388185611ee5565b9350611f48818560208601611ef0565b80840191505092915050565b6000611f608284611f23565b915081905092915050565b600082825260208201905092915050565b7f4e6f7420746865206f776e657200000000000000000000000000000000000000600082015250565b6000611fb2600d83611f6b565b9150611fbd82611f7c565b602082019050919050565b60006020820190508181036000830152611fe181611fa5565b9050919050565b6000604082019050611ffd6000830185611e70565b61200a602083018461181a565b9392505050565b7f4e487b7100000000000000000000000000000000000000000000000000000000600052602260045260246000fd5b6000600282049050600182168061205857607f821691505b6020821081141561206c5761206b612011565b5b50919050565b60008190508160005260206000209050919050565b6000815461209481612040565b61209e8186611ee5565b945060018216600081146120b957600181146120ca576120fd565b60ff198316865281860193506120fd565b6120d385612072565b60005b838110156120f5578154818901526001820191506020810190506120d6565b838801955050505b50505092915050565b60006121128284612087565b915081905092915050565b60006121298385611ee5565b935061213683858461190b565b82840190509392505050565b600061214f82848661211d565b91508190509392505050565b60006121678385611f6b565b935061217483858461190b565b61217d8361184e565b840190509392505050565b600060408201905061219d6000830186611e70565b81810360208301526121b081848661215b565b9050949350505050565b7f696e76616c69642070657263656e740000000000000000000000000000000000600082015250565b60006121f0600f83611f6b565b91506121fb826121ba565b602082019050919050565b6000602082019050818103600083015261221f816121e3565b9050919050565b600060408201905061223b6000830185611e70565b6122486020830184611d2a565b9392505050565b7f496e76616c6964206f776e657220616464726573730000000000000000000000600082015250565b6000612285601583611f6b565b91506122908261224f565b602082019050919050565b600060208201905081810360008301526122b481612278565b9050919050565b7f4e487b7100000000000000000000000000000000000000000000000000000000600052601160045260246000fd5b60006122f58261174b565b91507fffffffffffffffffffffffffffffffffffffffffffffffffffffffffffffffff821415612328576123276122bb565b5b600182019050919050565b61233c816117ce565b82525050565b600061235d6123586123538461180a565b611a52565b61174b565b9050919050565b61236d81612342565b82525050565b600061238e61238961238484611b8e565b611a52565b61174b565b9050919050565b61239e81612373565b82525050565b600060a0820190506123b96000830188612333565b6123c66020830187612333565b6123d36040830186612364565b6123e06060830185612364565b6123ed6080830184612395565b9695505050505050565b60008151905061240681611b62565b92915050565b60006020828403121561242257612421611741565b5b6000612430848285016123f7565b91505092915050565b600060408201905061244e60008301856117e0565b61245b6020830184611e70565b9392505050565b60008151905061247181611bc8565b92915050565b60006020828403121561248d5761248c611741565b5b600061249b84828501612462565b91505092915050565b7f4e6f742074686520706f6f6c206f776e65720000000000000000000000000000600082015250565b60006124da601283611f6b565b91506124e5826124a4565b602082019050919050565b60006020820190508181036000830152612509816124cd565b9050919050565b60006040820190506125256000830185611e70565b61253260208301846117e0565b9392505050565b6000819050919050565b60008160001b9050919050565b600061256b61256661256184612539565b612543565b61198a565b9050919050565b61257b81612550565b82525050565b600081519050919050565b600082825260208201905092915050565b60006125a882612581565b6125b2818561258c565b93506125c2818560208601611ef0565b6125cb8161184e565b840191505092915050565b600060a0820190506125eb60008301886117e0565b6125f86020830187611b38565b6126056040830186611e70565b6126126060830185612572565b8181036080830152612624818461259d565b90509695505050505050565b60008151905061263f81611994565b92915050565b60006020828403121561265b5761265a611741565b5b600061266984828501612630565b9150509291505056fea2646970667358221220f3f15c450f604fa1333bcdcb874348df1d9ed25d8c4d93c38016bccc2b07787b64736f6c634300080b0033",
  "immutableReferences": {},
  "source": "// SPDX-License-Identifier: MIT\npragma solidity >=0.4.22 <0.9.0;\n\nimport \"@openzeppelin/contracts/utils/Counters.sol\";\nimport \"./AconomyFee.sol\";\nimport \"./Libraries/LibPool.sol\";\nimport \"./AttestationServices.sol\";\n// 0x406AB5033423Dcb6391Ac9eEEad73294FA82Cfbc   0xDA0bab807633f07f013f94DD0E6A4F96F8742B53\n// poolAddress\": \"0xEC3c9230499a3FA960Ee28f7D2c0Ee3AD4AeBb07\" 0xc1F3Af1a7Aa87B338d19e56CDc8aF0BFC02d05D0\n// AS=0x1c91347f2A44538ce62453BEBd9Aa907C662b4bD\n// AF=0xd8b934580fcE35a11B58C6D73aDeE468a2833fa8\n// AStts=0xd9145CCE52D386f254917e481eB44e9943F39138\n// a1=0x5B38Da6a701c568545dCfcB03FcB875f56beddC4\n// a2=0xAb8483F64d9C6d1EcF9b849Ae677dD3315835cb2\n// 222222222222\nimport {EnumerableSet} from \"@openzeppelin/contracts/utils/structs/EnumerableSet.sol\";\n\ncontract poolRegistry {\n    using Counters for Counters.Counter;\n    using EnumerableSet for EnumerableSet.AddressSet;\n\n    modifier ownsPool(uint256 _poolId) {\n        require(pools[_poolId].owner == msg.sender, \"Not the owner\");\n        _;\n    }\n\n    AttestationServices public attestationService;\n    bytes32 public lenderAttestationSchemaId;\n    bytes32 public borrowerAttestationSchemaId;\n    bytes32 private _attestingSchemaId;\n\n    constructor(\n        AttestationServices _attestationServices\n    ) {\n        attestationService = _attestationServices;\n\n        lenderAttestationSchemaId = _attestationServices\n            .getASRegistry()\n            .register(\"(uint256 poolId, address lenderAddress)\");\n        borrowerAttestationSchemaId = _attestationServices\n            .getASRegistry()\n            .register(\"(uint256 poolId, address borrowerAddress)\");\n    }\n\n    modifier lenderOrBorrowerSchema(bytes32 schemaId) {\n        _attestingSchemaId = schemaId;\n        _;\n        _attestingSchemaId = bytes32(0);\n    }\n\n    function guess(string memory _word, bytes32 ans)\n        public\n        view\n        returns (bool)\n    {\n        return keccak256(abi.encodePacked(_word)) == ans;\n    }\n\n    struct poolDetail {\n        address poolAddress;\n        address owner;\n        string metadataURI;\n        uint16 poolFeePercent; // 10000 is 100%\n        bool lenderAttestationRequired;\n        EnumerableSet.AddressSet verifiedLendersForPool;\n        mapping(address => bytes32) lenderAttestationIds;\n        uint32 paymentCycleDuration; //unix time\n        uint32 paymentDefaultDuration; //unix time\n        uint32 loanExpirationTime; //unix time\n        bool borrowerAttestationRequired;\n        EnumerableSet.AddressSet verifiedBorrowersForPool;\n        mapping(address => bytes32) borrowerAttestationIds;\n    }\n\n    //poolId => poolDetail\n    mapping(uint256 => poolDetail) internal pools;\n    //poolId => close or open\n    mapping(uint256 => bool) private ClosedPools;\n\n    uint256 public poolCount;\n    event poolCreated(\n        address indexed owner,\n        address poolAddress,\n        uint256 poolId\n    );\n    event SetPoolURI(uint256 poolId, string uri);\n    event SetPaymentCycleDuration(uint256 poolId, uint32 duration);\n    event SetPaymentDefaultDuration(uint256 poolId, uint32 duration);\n    event SetPoolFee(uint256 poolId, uint16 feePct);\n    event SetloanExpirationTime(uint256 poolId, uint32 duration);\n    event LenderAttestation(uint256 poolId, address lender);\n    event BorrowerAttestation(uint256 poolId, address borrower);\n\n    //Create Pool\n    function createPool(\n        address _initialOwner,\n        uint32 _paymentCycleDuration,\n        uint32 _paymentDefaultDuration,\n        uint32 _loanExpirationTime,\n        uint16 _poolFeePercent,\n        bool _requireLenderAttestation,\n        bool _requireBorrowerAttestation,\n        string calldata _uri\n    ) external {\n        _createPool(\n            _initialOwner,\n            _paymentCycleDuration,\n            _paymentDefaultDuration,\n            _loanExpirationTime,\n            _poolFeePercent,\n            _requireLenderAttestation,\n            _requireBorrowerAttestation,\n            _uri\n        );\n    }\n\n    // Creates a new Pool.\n    function _createPool(\n        address _initialOwner,\n        uint32 _paymentCycleDuration,\n        uint32 _paymentDefaultDuration,\n        uint32 _loanExpirationTime,\n        uint16 _feePercent,\n        bool _requireLenderAttestation,\n        bool _requireBorrowerAttestation,\n        string calldata _uri\n    ) internal returns (uint256 poolId_) {\n        require(_initialOwner != address(0), \"Invalid owner address\");\n        // Increment pool ID counter\n        poolId_ = ++poolCount;\n\n        //Deploy Pool Address\n        address poolAddress = LibPool.deployPoolAddress(\n            msg.sender,\n            address(this),\n            _paymentCycleDuration,\n            _paymentDefaultDuration,\n            _feePercent\n        );\n        pools[poolId_].poolAddress = poolAddress;\n        // Set the pool owner\n        pools[poolId_].owner = _initialOwner;\n\n        setPoolURI(poolId_, _uri);\n        setPaymentCycleDuration(poolId_, _paymentCycleDuration);\n        setPaymentDefaultDuration(poolId_, _paymentDefaultDuration);\n        setPoolFeePercent(poolId_, _feePercent);\n        setloanExpirationTime(poolId_, _loanExpirationTime);\n\n        // Check if pool requires lender attestation to join\n        if (_requireLenderAttestation) {\n            pools[poolId_].lenderAttestationRequired = true;\n        }\n        // Check if pool requires borrower attestation to join\n        if (_requireBorrowerAttestation) {\n            pools[poolId_].borrowerAttestationRequired = true;\n        }\n\n        emit poolCreated(_initialOwner, poolAddress, poolId_);\n    }\n\n    function setPoolURI(uint256 _poolId, string calldata _uri)\n        public\n        ownsPool(_poolId)\n    {\n        //We do string comparison by checking the hashes of the strings against one another\n        if (\n            keccak256(abi.encodePacked(_uri)) !=\n            keccak256(abi.encodePacked(pools[_poolId].metadataURI))\n        ) {\n            pools[_poolId].metadataURI = _uri;\n\n            emit SetPoolURI(_poolId, _uri);\n        }\n    }\n\n    function setPaymentCycleDuration(uint256 _poolId, uint32 _duration)\n        public\n        ownsPool(_poolId)\n    {\n        if (_duration != pools[_poolId].paymentCycleDuration) {\n            pools[_poolId].paymentCycleDuration = _duration;\n\n            emit SetPaymentCycleDuration(_poolId, _duration);\n        }\n    }\n\n    function setPaymentDefaultDuration(uint256 _poolId, uint32 _duration)\n        public\n        ownsPool(_poolId)\n    {\n        if (_duration != pools[_poolId].paymentDefaultDuration) {\n            pools[_poolId].paymentDefaultDuration = _duration;\n\n            emit SetPaymentDefaultDuration(_poolId, _duration);\n        }\n    }\n\n    function setPoolFeePercent(uint256 _poolId, uint16 _newPercent)\n        public\n        ownsPool(_poolId)\n    {\n        require(_newPercent >= 0 && _newPercent <= 10000, \"invalid percent\");\n        if (_newPercent != pools[_poolId].poolFeePercent) {\n            pools[_poolId].poolFeePercent = _newPercent;\n            emit SetPoolFee(_poolId, _newPercent);\n        }\n    }\n\n    function setloanExpirationTime(uint256 _poolId, uint32 _duration)\n        public\n        ownsPool(_poolId)\n    {\n        if (_duration != pools[_poolId].loanExpirationTime) {\n            pools[_poolId].loanExpirationTime = _duration;\n\n            emit SetloanExpirationTime(_poolId, _duration);\n        }\n    }\n\n    function addLender(\n        uint256 _poolId,\n        address _lenderAddress,\n        uint256 _expirationTime\n    ) external {\n        _attestAddress(_poolId, _lenderAddress, _expirationTime, true);\n    }\n\n    function addBorrower(\n        uint256 _poolId,\n        address _borrowerAddress,\n        uint256 _expirationTime\n    ) external {\n        _attestAddress(_poolId, _borrowerAddress, _expirationTime, false);\n    }\n\n    function _attestAddress(\n        uint256 _poolId,\n        address _Address,\n        uint256 _expirationTime,\n        bool _isLender\n    )\n        internal\n        lenderOrBorrowerSchema(\n            _isLender ? lenderAttestationSchemaId : borrowerAttestationSchemaId\n        )\n    {\n        require(msg.sender == pools[_poolId].owner, \"Not the pool owner\");\n\n        // Submit attestation for borrower to join a pool\n        bytes32 uuid = attestationService.attest(\n            _Address,\n            _attestingSchemaId, // set by the modifier\n            _expirationTime,\n            0,\n            abi.encode(_poolId, _Address)\n        );\n\n        _attestAddressVerification(_poolId, _Address, uuid, _isLender);\n    }\n\n    function _attestAddressVerification(\n        uint256 _poolId,\n        address _Address,\n        bytes32 _uuid,\n        bool _isLender\n    ) internal {\n        if (_isLender) {\n            // Store the lender attestation ID for the pool ID\n            pools[_poolId].lenderAttestationIds[_Address] = _uuid;\n            // Add lender address to pool set\n            pools[_poolId].verifiedLendersForPool.add(_Address);\n\n            emit LenderAttestation(_poolId, _Address);\n        } else {\n            // Store the lender attestation ID for the pool ID\n            pools[_poolId].borrowerAttestationIds[_Address] = _uuid;\n            // Add lender address to pool set\n            pools[_poolId].verifiedBorrowersForPool.add(_Address);\n\n            emit BorrowerAttestation(_poolId, _Address);\n        }\n    }\n\n    function getPoolFee(uint256 _poolId) public view returns (uint16 fee) {\n        return pools[_poolId].poolFeePercent;\n    }\n\n    function borrowerVarification(uint256 _poolId, address _borrowerAddress)\n        public\n        view\n        returns (bool isVerified_, bytes32 uuid_)\n    {\n        return\n            _isAddressVerified(\n                _borrowerAddress,\n                pools[_poolId].borrowerAttestationRequired,\n                pools[_poolId].borrowerAttestationIds,\n                pools[_poolId].verifiedBorrowersForPool\n            );\n    }\n\n    function lenderVarification(uint256 _poolId, address _lenderAddress)\n        public\n        view\n        returns (bool isVerified_, bytes32 uuid_)\n    {\n        return\n            _isAddressVerified(\n                _lenderAddress,\n                pools[_poolId].lenderAttestationRequired,\n                pools[_poolId].lenderAttestationIds,\n                pools[_poolId].verifiedLendersForPool\n            );\n    }\n\n    function _isAddressVerified(\n        address _wltAddress,\n        bool _attestationRequired,\n        mapping(address => bytes32) storage _stakeholderAttestationIds,\n        EnumerableSet.AddressSet storage _verifiedStakeholderForPool\n    ) internal view returns (bool isVerified_, bytes32 uuid_) {\n        if (_attestationRequired) {\n            isVerified_ =\n                _verifiedStakeholderForPool.contains(_wltAddress) &&\n                attestationService.isAddressActive(\n                    _stakeholderAttestationIds[_wltAddress]\n                );\n            uuid_ = _stakeholderAttestationIds[_wltAddress];\n        } else {\n            isVerified_ = true;\n        }\n    }\n\n    function ClosedPool(uint256 _poolId) public view returns (bool) {\n        return ClosedPools[_poolId];\n    }\n\n    function getPaymentCycleDuration(uint256 _poolId)\n        public\n        view\n        returns (uint32)\n    {\n        return pools[_poolId].paymentCycleDuration;\n    }\n\n    function getPaymentDefaultDuration(uint256 _poolId)\n        public\n        view\n        returns (uint32)\n    {\n        return pools[_poolId].paymentDefaultDuration;\n    }\n\n    function getloanExpirationTime(uint256 poolId)\n        public\n        view\n        returns (uint32)\n    {\n        return pools[poolId].loanExpirationTime;\n    }\n\n    function getPoolAddress(uint256 _poolId) public view returns (address) {\n        return pools[_poolId].poolAddress;\n    }\n\n    function getPoolOwner(uint256 _poolId) public view returns (address) {\n        return pools[_poolId].owner;\n    }\n}\n",
  "sourcePath": "/Users/sanskarkhare/Desktop/Pandora/aconomy-contract/contracts/poolRegistry.sol",
  "compiler": {
    "name": "solc",
    "version": "0.8.11+commit.d7f03943.Emscripten.clang"
  },
  "schemaVersion": "3.4.4",
  "updatedAt": "2023-02-03T05:37:07.351Z",
  "devdoc": {
    "kind": "dev",
    "methods": {},
    "version": 1
  },
  "userdoc": {
    "kind": "user",
    "methods": {},
    "version": 1
  }
}