{
  "contractName": "poolAddress",
  "abi": [
    {
      "inputs": [
        {
          "internalType": "address",
          "name": "_poolOwner",
          "type": "address"
        },
        {
          "internalType": "address",
          "name": "_poolRegistry",
          "type": "address"
        },
        {
          "internalType": "uint256",
          "name": "_paymentCycleDuration",
          "type": "uint256"
        },
        {
          "internalType": "uint256",
          "name": "_paymentDefaultDuration",
          "type": "uint256"
        },
        {
          "internalType": "uint256",
          "name": "_feePercent",
          "type": "uint256"
        }
      ],
      "stateMutability": "nonpayable",
      "type": "constructor"
    },
    {
      "anonymous": false,
      "inputs": [
        {
          "indexed": true,
          "internalType": "uint256",
          "name": "bidId",
          "type": "uint256"
        },
        {
          "indexed": true,
          "internalType": "address",
          "name": "borrower",
          "type": "address"
        },
        {
          "indexed": false,
          "internalType": "address",
          "name": "receiver",
          "type": "address"
        }
      ],
      "name": "SubmittedLoan",
      "type": "event"
    },
    {
      "inputs": [
        {
          "internalType": "address",
          "name": "",
          "type": "address"
        },
        {
          "internalType": "uint256",
          "name": "",
          "type": "uint256"
        }
      ],
      "name": "borrowerLoans",
      "outputs": [
        {
          "internalType": "uint256",
          "name": "",
          "type": "uint256"
        }
      ],
      "stateMutability": "view",
      "type": "function"
    },
    {
      "inputs": [],
      "name": "createdAt",
      "outputs": [
        {
          "internalType": "uint256",
          "name": "",
          "type": "uint256"
        }
      ],
      "stateMutability": "view",
      "type": "function"
    },
    {
      "inputs": [],
      "name": "feePercent",
      "outputs": [
        {
          "internalType": "uint256",
          "name": "",
          "type": "uint256"
        }
      ],
      "stateMutability": "view",
      "type": "function"
    },
    {
      "inputs": [
        {
          "internalType": "uint256",
          "name": "",
          "type": "uint256"
        }
      ],
      "name": "loanDefaultDuration",
      "outputs": [
        {
          "internalType": "uint32",
          "name": "",
          "type": "uint32"
        }
      ],
      "stateMutability": "view",
      "type": "function"
    },
    {
      "inputs": [
        {
          "internalType": "uint256",
          "name": "",
          "type": "uint256"
        }
      ],
      "name": "loanExpirationTime",
      "outputs": [
        {
          "internalType": "uint32",
          "name": "",
          "type": "uint32"
        }
      ],
      "stateMutability": "view",
      "type": "function"
    },
    {
      "inputs": [],
      "name": "loanId",
      "outputs": [
        {
          "internalType": "uint256",
          "name": "",
          "type": "uint256"
        }
      ],
      "stateMutability": "view",
      "type": "function"
    },
    {
      "inputs": [
        {
          "internalType": "uint256",
          "name": "",
          "type": "uint256"
        }
      ],
      "name": "loans",
      "outputs": [
        {
          "internalType": "address",
          "name": "borrower",
          "type": "address"
        },
        {
          "internalType": "address",
          "name": "receiver",
          "type": "address"
        },
        {
          "internalType": "address",
          "name": "lender",
          "type": "address"
        },
        {
          "internalType": "uint256",
          "name": "poolId",
          "type": "uint256"
        },
        {
          "internalType": "bytes32",
          "name": "_metadataURI",
          "type": "bytes32"
        },
        {
          "components": [
            {
              "internalType": "contract ERC20",
              "name": "lendingToken",
              "type": "address"
            },
            {
              "internalType": "uint256",
              "name": "principal",
              "type": "uint256"
            },
            {
              "components": [
                {
                  "internalType": "uint256",
                  "name": "principal",
                  "type": "uint256"
                },
                {
                  "internalType": "uint256",
                  "name": "interest",
                  "type": "uint256"
                }
              ],
              "internalType": "struct poolStorage.Payment",
              "name": "totalRepaid",
              "type": "tuple"
            },
            {
              "internalType": "uint32",
              "name": "timestamp",
              "type": "uint32"
            },
            {
              "internalType": "uint32",
              "name": "acceptedTimestamp",
              "type": "uint32"
            },
            {
              "internalType": "uint32",
              "name": "lastRepaidTimestamp",
              "type": "uint32"
            },
            {
              "internalType": "uint32",
              "name": "loanDuration",
              "type": "uint32"
            }
          ],
          "internalType": "struct poolStorage.LoanDetails",
          "name": "loanDetails",
          "type": "tuple"
        },
        {
          "components": [
            {
              "internalType": "uint256",
              "name": "paymentCycleAmount",
              "type": "uint256"
            },
            {
              "internalType": "uint32",
              "name": "paymentCycle",
              "type": "uint32"
            },
            {
              "internalType": "uint16",
              "name": "APR",
              "type": "uint16"
            }
          ],
          "internalType": "struct poolStorage.Terms",
          "name": "terms",
          "type": "tuple"
        },
        {
          "internalType": "enum poolStorage.LoanState",
          "name": "state",
          "type": "uint8"
        }
      ],
      "stateMutability": "view",
      "type": "function"
    },
    {
      "inputs": [],
      "name": "paymentCycleDuration",
      "outputs": [
        {
          "internalType": "uint256",
          "name": "",
          "type": "uint256"
        }
      ],
      "stateMutability": "view",
      "type": "function"
    },
    {
      "inputs": [],
      "name": "paymentDefaultDuration",
      "outputs": [
        {
          "internalType": "uint256",
          "name": "",
          "type": "uint256"
        }
      ],
      "stateMutability": "view",
      "type": "function"
    },
    {
      "inputs": [],
      "name": "poolOwner",
      "outputs": [
        {
          "internalType": "address",
          "name": "",
          "type": "address"
        }
      ],
      "stateMutability": "view",
      "type": "function"
    },
    {
      "inputs": [
        {
          "internalType": "address",
          "name": "_lendingToken",
          "type": "address"
        },
        {
          "internalType": "uint256",
          "name": "_poolId",
          "type": "uint256"
        },
        {
          "internalType": "uint256",
          "name": "_principal",
          "type": "uint256"
        },
        {
          "internalType": "uint32",
          "name": "_duration",
          "type": "uint32"
        },
        {
          "internalType": "uint16",
          "name": "_APR",
          "type": "uint16"
        },
        {
          "internalType": "address",
          "name": "_receiver",
          "type": "address"
        }
      ],
      "name": "loanRequest",
      "outputs": [
        {
          "internalType": "uint256",
          "name": "loanId_",
          "type": "uint256"
        }
      ],
      "stateMutability": "nonpayable",
      "type": "function"
    }
  ],
  "bytecode": "0x6080604052600080553480156200001557600080fd5b5060405162001b8138038062001b8183398181016040528101906200003b919062000189565b84600660006101000a81548173ffffffffffffffffffffffffffffffffffffffff021916908373ffffffffffffffffffffffffffffffffffffffff16021790555083600560006101000a81548173ffffffffffffffffffffffffffffffffffffffff021916908373ffffffffffffffffffffffffffffffffffffffff16021790555082600781905550816008819055508060098190555042600a81905550505050505062000211565b600080fd5b600073ffffffffffffffffffffffffffffffffffffffff82169050919050565b60006200011682620000e9565b9050919050565b620001288162000109565b81146200013457600080fd5b50565b60008151905062000148816200011d565b92915050565b6000819050919050565b62000163816200014e565b81146200016f57600080fd5b50565b600081519050620001838162000158565b92915050565b600080600080600060a08688031215620001a857620001a7620000e4565b5b6000620001b88882890162000137565b9550506020620001cb8882890162000137565b9450506040620001de8882890162000172565b9350506060620001f18882890162000172565b9250506080620002048882890162000172565b9150509295509295909350565b61196080620002216000396000f3fe608060405234801561001057600080fd5b50600436106100a95760003560e01c80638cda4571116100715780638cda457114610168578063c95669a514610198578063cf09e0d0146101b6578063cf0b2270146101d4578063e1ec3c68146101f2578063e3ed190214610229576100a9565b8063217f6ebe146100ae5780633a31f337146100cc57806360c661e6146100fc578063623b0db71461012c5780637fd6f15c1461014a575b600080fd5b6100b6610259565b6040516100c39190610fdd565b60405180910390f35b6100e660048036038101906100e19190611029565b61025f565b6040516100f39190611075565b60405180910390f35b61011660048036038101906101119190611154565b610282565b6040516101239190610fdd565b60405180910390f35b610134610a0d565b6040516101419190610fdd565b60405180910390f35b610152610a13565b60405161015f9190610fdd565b60405180910390f35b610182600480360381019061017d9190611029565b610a19565b60405161018f9190611075565b60405180910390f35b6101a0610a3c565b6040516101ad9190610fdd565b60405180910390f35b6101be610a42565b6040516101cb9190610fdd565b60405180910390f35b6101dc610a48565b6040516101e991906111f0565b60405180910390f35b61020c60048036038101906102079190611029565b610a6e565b604051610220989796959493929190611427565b60405180910390f35b610243600480360381019061023e91906114a7565b610ca7565b6040516102509190610fdd565b60405180910390f35b60075481565b60046020528060005260406000206000915054906101000a900463ffffffff1681565b600080600560009054906101000a900473ffffffffffffffffffffffffffffffffffffffff1673ffffffffffffffffffffffffffffffffffffffff1663918d59ea88336040518363ffffffff1660e01b81526004016102e29291906114e7565b6040805180830381865afa1580156102fe573d6000803e3d6000fd5b505050506040513d601f19601f820116820180604052508101906103229190611574565b50905080610365576040517f08c379a000000000000000000000000000000000000000000000000000000000815260040161035c90611611565b60405180910390fd5b600560009054906101000a900473ffffffffffffffffffffffffffffffffffffffff1673ffffffffffffffffffffffffffffffffffffffff1663a8380df1886040518263ffffffff1660e01b81526004016103c09190610fdd565b602060405180830381865afa1580156103dd573d6000803e3d6000fd5b505050506040513d601f19601f820116820180604052508101906104019190611631565b15610441576040517f08c379a0000000000000000000000000000000000000000000000000000000008152600401610438906116aa565b60405180910390fd5b6000549150600060016000805481526020019081526020016000209050338160000160006101000a81548173ffffffffffffffffffffffffffffffffffffffff021916908373ffffffffffffffffffffffffffffffffffffffff160217905550600073ffffffffffffffffffffffffffffffffffffffff168473ffffffffffffffffffffffffffffffffffffffff161415610500578060000160009054906101000a900473ffffffffffffffffffffffffffffffffffffffff16610502565b835b8160010160006101000a81548173ffffffffffffffffffffffffffffffffffffffff021916908373ffffffffffffffffffffffffffffffffffffffff160217905550878160030181905550888160050160000160006101000a81548173ffffffffffffffffffffffffffffffffffffffff021916908373ffffffffffffffffffffffffffffffffffffffff1602179055508681600501600101819055508581600501600401600c6101000a81548163ffffffff021916908363ffffffff160217905550428160050160040160006101000a81548163ffffffff021916908363ffffffff160217905550600560009054906101000a900473ffffffffffffffffffffffffffffffffffffffff1673ffffffffffffffffffffffffffffffffffffffff1663805deb53896040518263ffffffff1660e01b81526004016106469190610fdd565b602060405180830381865afa158015610663573d6000803e3d6000fd5b505050506040513d601f19601f8201168201806040525081019061068791906116df565b81600a0160010160006101000a81548163ffffffff021916908363ffffffff1602179055508481600a0160010160046101000a81548161ffff021916908361ffff160217905550600560009054906101000a900473ffffffffffffffffffffffffffffffffffffffff1673ffffffffffffffffffffffffffffffffffffffff166311bed5bb896040518263ffffffff1660e01b81526004016107299190610fdd565b602060405180830381865afa158015610746573d6000803e3d6000fd5b505050506040513d601f19601f8201168201806040525081019061076a91906116df565b600360008054815260200190815260200160002060006101000a81548163ffffffff021916908363ffffffff160217905550600560009054906101000a900473ffffffffffffffffffffffffffffffffffffffff1673ffffffffffffffffffffffffffffffffffffffff1663082fc54d896040518263ffffffff1660e01b81526004016107f79190610fdd565b602060405180830381865afa158015610814573d6000803e3d6000fd5b505050506040513d601f19601f8201168201806040525081019061083891906116df565b600460008054815260200190815260200160002060006101000a81548163ffffffff021916908363ffffffff16021790555061088d878783600a0160010160009054906101000a900463ffffffff1688610cd8565b81600a0160000181905550600181600c0160006101000a81548160ff021916908360058111156108c0576108bf6113b0565b5b02179055508060000160009054906101000a900473ffffffffffffffffffffffffffffffffffffffff1673ffffffffffffffffffffffffffffffffffffffff166000547fd7e82ef4c5b856bbc43a0941bbceafcc66650e6fbb31107f56318efea6528ffe8360010160009054906101000a900473ffffffffffffffffffffffffffffffffffffffff1660405161095691906111f0565b60405180910390a3600260008260000160009054906101000a900473ffffffffffffffffffffffffffffffffffffffff1673ffffffffffffffffffffffffffffffffffffffff1673ffffffffffffffffffffffffffffffffffffffff16815260200190815260200160002060005490806001815401808255809150506001900390600052602060002001600090919091909150556000808154809291906109fc9061173b565b919050555050509695505050505050565b60085481565b60095481565b60036020528060005260406000206000915054906101000a900463ffffffff1681565b60005481565b600a5481565b600660009054906101000a900473ffffffffffffffffffffffffffffffffffffffff1681565b60016020528060005260406000206000915090508060000160009054906101000a900473ffffffffffffffffffffffffffffffffffffffff16908060010160009054906101000a900473ffffffffffffffffffffffffffffffffffffffff16908060020160009054906101000a900473ffffffffffffffffffffffffffffffffffffffff1690806003015490806004015490806005016040518060e00160405290816000820160009054906101000a900473ffffffffffffffffffffffffffffffffffffffff1673ffffffffffffffffffffffffffffffffffffffff1673ffffffffffffffffffffffffffffffffffffffff16815260200160018201548152602001600282016040518060400160405290816000820154815260200160018201548152505081526020016004820160009054906101000a900463ffffffff1663ffffffff1663ffffffff1681526020016004820160049054906101000a900463ffffffff1663ffffffff1663ffffffff1681526020016004820160089054906101000a900463ffffffff1663ffffffff1663ffffffff16815260200160048201600c9054906101000a900463ffffffff1663ffffffff1663ffffffff16815250509080600a01604051806060016040529081600082015481526020016001820160009054906101000a900463ffffffff1663ffffffff1663ffffffff1681526020016001820160049054906101000a900461ffff1661ffff1661ffff16815250509080600c0160009054906101000a900460ff16905088565b60026020528160005260406000208181548110610cc357600080fd5b90600052602060002001600091509150505481565b6000808385610ce791906117b3565b63ffffffff16905060008361ffff161415610d10578086610d0891906117e4565b915050610dce565b6000610d1a610dd6565b90506000610d556301e13380610d478863ffffffff16610d3989610de6565b610e2290919063ffffffff16565b610e7f90919063ffffffff16565b90506000610d77848385610d699190611815565b610ed990919063ffffffff16565b90506000610da082610d92858d610e2290919063ffffffff16565b610e2290919063ffffffff16565b905060008483610db0919061186b565b9050610dc58183610e7f90919063ffffffff16565b96505050505050505b949350505050565b6000670de0b6b3a7640000905090565b6000610e1b612710610e0d670de0b6b3a76400008561ffff16610ef990919063ffffffff16565b610f0f90919063ffffffff16565b9050919050565b6000610e77670de0b6b3a7640000610e69610e468587610ef990919063ffffffff16565b6002670de0b6b3a7640000610e5b91906117e4565b610f2590919063ffffffff16565b610f0f90919063ffffffff16565b905092915050565b600080600283610e8f91906117e4565b9050610ed083610ec2610eb3670de0b6b3a764000088610ef990919063ffffffff16565b84610f2590919063ffffffff16565b610f0f90919063ffffffff16565b91505092915050565b6000610ef18383670de0b6b3a7640000610e22610f3b565b905092915050565b60008183610f07919061189f565b905092915050565b60008183610f1d91906117e4565b905092915050565b60008183610f339190611815565b905092915050565b600080600285610f4b91906118f9565b1415610f575782610f59565b845b9050600284610f6891906117e4565b93505b60008414610fbc57610f8185868463ffffffff16565b94506000600285610f9291906118f9565b14610fa857610fa581868463ffffffff16565b90505b600284610fb591906117e4565b9350610f6b565b949350505050565b6000819050919050565b610fd781610fc4565b82525050565b6000602082019050610ff26000830184610fce565b92915050565b600080fd5b61100681610fc4565b811461101157600080fd5b50565b60008135905061102381610ffd565b92915050565b60006020828403121561103f5761103e610ff8565b5b600061104d84828501611014565b91505092915050565b600063ffffffff82169050919050565b61106f81611056565b82525050565b600060208201905061108a6000830184611066565b92915050565b600073ffffffffffffffffffffffffffffffffffffffff82169050919050565b60006110bb82611090565b9050919050565b6110cb816110b0565b81146110d657600080fd5b50565b6000813590506110e8816110c2565b92915050565b6110f781611056565b811461110257600080fd5b50565b600081359050611114816110ee565b92915050565b600061ffff82169050919050565b6111318161111a565b811461113c57600080fd5b50565b60008135905061114e81611128565b92915050565b60008060008060008060c0878903121561117157611170610ff8565b5b600061117f89828a016110d9565b965050602061119089828a01611014565b95505060406111a189828a01611014565b94505060606111b289828a01611105565b93505060806111c389828a0161113f565b92505060a06111d489828a016110d9565b9150509295509295509295565b6111ea816110b0565b82525050565b600060208201905061120560008301846111e1565b92915050565b6000819050919050565b61121e8161120b565b82525050565b6000819050919050565b600061124961124461123f84611090565b611224565b611090565b9050919050565b600061125b8261122e565b9050919050565b600061126d82611250565b9050919050565b61127d81611262565b82525050565b61128c81610fc4565b82525050565b6040820160008201516112a86000850182611283565b5060208201516112bb6020850182611283565b50505050565b6112ca81611056565b82525050565b610100820160008201516112e76000850182611274565b5060208201516112fa6020850182611283565b50604082015161130d6040850182611292565b50606082015161132060808501826112c1565b50608082015161133360a08501826112c1565b5060a082015161134660c08501826112c1565b5060c082015161135960e08501826112c1565b50505050565b6113688161111a565b82525050565b6060820160008201516113846000850182611283565b50602082015161139760208501826112c1565b5060408201516113aa604085018261135f565b50505050565b7f4e487b7100000000000000000000000000000000000000000000000000000000600052602160045260246000fd5b600681106113f0576113ef6113b0565b5b50565b6000819050611401826113df565b919050565b6000611411826113f3565b9050919050565b61142181611406565b82525050565b60006102208201905061143d600083018b6111e1565b61144a602083018a6111e1565b61145760408301896111e1565b6114646060830188610fce565b6114716080830187611215565b61147e60a08301866112d0565b61148c6101a083018561136e565b61149a610200830184611418565b9998505050505050505050565b600080604083850312156114be576114bd610ff8565b5b60006114cc858286016110d9565b92505060206114dd85828601611014565b9150509250929050565b60006040820190506114fc6000830185610fce565b61150960208301846111e1565b9392505050565b60008115159050919050565b61152581611510565b811461153057600080fd5b50565b6000815190506115428161151c565b92915050565b6115518161120b565b811461155c57600080fd5b50565b60008151905061156e81611548565b92915050565b6000806040838503121561158b5761158a610ff8565b5b600061159985828601611533565b92505060206115aa8582860161155f565b9150509250929050565b600082825260208201905092915050565b7f4e6f7420766572696669656420626f72726f7765720000000000000000000000600082015250565b60006115fb6015836115b4565b9150611606826115c5565b602082019050919050565b6000602082019050818103600083015261162a816115ee565b9050919050565b60006020828403121561164757611646610ff8565b5b600061165584828501611533565b91505092915050565b7f506f6f6c20697320636c6f736564000000000000000000000000000000000000600082015250565b6000611694600e836115b4565b915061169f8261165e565b602082019050919050565b600060208201905081810360008301526116c381611687565b9050919050565b6000815190506116d9816110ee565b92915050565b6000602082840312156116f5576116f4610ff8565b5b6000611703848285016116ca565b91505092915050565b7f4e487b7100000000000000000000000000000000000000000000000000000000600052601160045260246000fd5b600061174682610fc4565b91507fffffffffffffffffffffffffffffffffffffffffffffffffffffffffffffffff8214156117795761177861170c565b5b600182019050919050565b7f4e487b7100000000000000000000000000000000000000000000000000000000600052601260045260246000fd5b60006117be82611056565b91506117c983611056565b9250826117d9576117d8611784565b5b828204905092915050565b60006117ef82610fc4565b91506117fa83610fc4565b92508261180a57611809611784565b5b828204905092915050565b600061182082610fc4565b915061182b83610fc4565b9250827fffffffffffffffffffffffffffffffffffffffffffffffffffffffffffffffff038211156118605761185f61170c565b5b828201905092915050565b600061187682610fc4565b915061188183610fc4565b9250828210156118945761189361170c565b5b828203905092915050565b60006118aa82610fc4565b91506118b583610fc4565b9250817fffffffffffffffffffffffffffffffffffffffffffffffffffffffffffffffff04831182151516156118ee576118ed61170c565b5b828202905092915050565b600061190482610fc4565b915061190f83610fc4565b92508261191f5761191e611784565b5b82820690509291505056fea26469706673582212208026d01ccbf51e185c6df010f89a968d0e87271b58d3c88daa7dd3ee2a03da3164736f6c634300080b0033",
  "immutableReferences": {},
  "source": "// SPDX-License-Identifier: MIT\npragma solidity >=0.8.0 <0.9.0;\n\nimport \"@openzeppelin/contracts/token/ERC20/IERC20.sol\";\n// import \"@openzeppelin/contracts-upgradeable/security/PausableUpgradeable.sol\";\nimport {SafeMath} from \"@openzeppelin/contracts/utils/math/SafeMath.sol\";\nimport \"./poolRegistry.sol\";\nimport \"./poolStorage.sol\";\nimport \"./Libraries/LibCalculations.sol\";\n\ncontract poolAddress is poolStorage {\n    address poolRegistryAddress;\n    address public poolOwner;\n    uint256 public paymentCycleDuration;\n    uint256 public paymentDefaultDuration;\n    // uint256 public bidExpirationTime;\n    uint256 public feePercent;\n    uint256 public createdAt;\n\n    using SafeMath for uint256;\n\n    constructor(\n        address _poolOwner,\n        address _poolRegistry,\n        uint256 _paymentCycleDuration,\n        uint256 _paymentDefaultDuration,\n        uint256 _feePercent\n    ) {\n        poolOwner = _poolOwner;\n        poolRegistryAddress = _poolRegistry;\n        paymentCycleDuration = _paymentCycleDuration;\n        paymentDefaultDuration = _paymentDefaultDuration;\n        feePercent = _feePercent;\n        createdAt = block.timestamp;\n    }\n\n    event SubmittedLoan(\n        uint256 indexed bidId,\n        address indexed borrower,\n        address receiver\n    );\n\n    function loanRequest(\n        address _lendingToken,\n        uint256 _poolId,\n        uint256 _principal,\n        uint32 _duration,\n        uint16 _APR,\n        address _receiver\n    ) public returns (uint256 loanId_) {\n        (bool isVerified, ) = poolRegistry(poolRegistryAddress)\n            .borrowerVarification(_poolId, msg.sender);\n        require(isVerified, \"Not verified borrower\");\n        require(\n            !poolRegistry(poolRegistryAddress).ClosedPool(_poolId),\n            \"Pool is closed\"\n        );\n\n        loanId_ = loanId;\n\n        // Create and store our loan into the mapping\n        Loan storage loan = loans[loanId];\n        loan.borrower = msg.sender;\n        loan.receiver = _receiver != address(0) ? _receiver : loan.borrower;\n        loan.poolId = _poolId;\n        loan.loanDetails.lendingToken = ERC20(_lendingToken);\n        loan.loanDetails.principal = _principal;\n        loan.loanDetails.loanDuration = _duration;\n        loan.loanDetails.timestamp = uint32(block.timestamp);\n\n        loan.terms.paymentCycle = poolRegistry(poolRegistryAddress)\n            .getPaymentCycleDuration(_poolId);\n\n        loan.terms.APR = _APR;\n\n        loanDefaultDuration[loanId] = poolRegistry(poolRegistryAddress)\n            .getPaymentDefaultDuration(_poolId);\n\n        loanExpirationTime[loanId] = poolRegistry(poolRegistryAddress)\n            .getBidExpirationTime(_poolId);\n\n        loan.terms.paymentCycleAmount = LibCalculations.payment(\n            _principal,\n            _duration,\n            loan.terms.paymentCycle,\n            _APR\n        );\n        loan.state = LoanState.PENDING;\n\n        emit SubmittedLoan(loanId, loan.borrower, loan.receiver);\n\n        // Store bid inside borrower loans mapping\n        borrowerLoans[loan.borrower].push(loanId);\n\n        // Increment loan id counter\n        loanId++;\n    }\n}\n",
  "sourcePath": "/Users/sanskarkhare/Desktop/Pandora/aconomy-pool-v1/contracts/poolAddress.sol",
  "compiler": {
    "name": "solc",
    "version": "0.8.11+commit.d7f03943.Emscripten.clang"
  },
  "schemaVersion": "3.4.4",
  "updatedAt": "2023-01-25T11:52:49.291Z",
  "devdoc": {
    "kind": "dev",
    "methods": {},
    "version": 1
  },
  "userdoc": {
    "kind": "user",
    "methods": {},
    "version": 1
  }
}