{
  "contractName": "poolAddress",
  "abi": [
    {
      "inputs": [],
      "stateMutability": "nonpayable",
      "type": "constructor"
    },
    {
      "anonymous": false,
      "inputs": [
        {
          "indexed": true,
          "internalType": "uint256",
          "name": "loanId",
          "type": "uint256"
        },
        {
          "indexed": true,
          "internalType": "string",
          "name": "feeType",
          "type": "string"
        },
        {
          "indexed": true,
          "internalType": "uint256",
          "name": "amount",
          "type": "uint256"
        }
      ],
      "name": "AcceptedLoanDetail",
      "type": "event"
    },
    {
      "anonymous": false,
      "inputs": [
        {
          "indexed": false,
          "internalType": "address",
          "name": "previousAdmin",
          "type": "address"
        },
        {
          "indexed": false,
          "internalType": "address",
          "name": "newAdmin",
          "type": "address"
        }
      ],
      "name": "AdminChanged",
      "type": "event"
    },
    {
      "anonymous": false,
      "inputs": [
        {
          "indexed": true,
          "internalType": "address",
          "name": "beacon",
          "type": "address"
        }
      ],
      "name": "BeaconUpgraded",
      "type": "event"
    },
    {
      "anonymous": false,
      "inputs": [
        {
          "indexed": false,
          "internalType": "uint8",
          "name": "version",
          "type": "uint8"
        }
      ],
      "name": "Initialized",
      "type": "event"
    },
    {
      "anonymous": false,
      "inputs": [
        {
          "indexed": true,
          "internalType": "uint256",
          "name": "loanId",
          "type": "uint256"
        },
        {
          "indexed": false,
          "internalType": "uint256",
          "name": "Amount",
          "type": "uint256"
        }
      ],
      "name": "LoanRepaid",
      "type": "event"
    },
    {
      "anonymous": false,
      "inputs": [
        {
          "indexed": true,
          "internalType": "uint256",
          "name": "loanId",
          "type": "uint256"
        },
        {
          "indexed": false,
          "internalType": "uint256",
          "name": "Amount",
          "type": "uint256"
        }
      ],
      "name": "LoanRepayment",
      "type": "event"
    },
    {
      "anonymous": false,
      "inputs": [
        {
          "indexed": true,
          "internalType": "address",
          "name": "previousOwner",
          "type": "address"
        },
        {
          "indexed": true,
          "internalType": "address",
          "name": "newOwner",
          "type": "address"
        }
      ],
      "name": "OwnershipTransferred",
      "type": "event"
    },
    {
      "anonymous": false,
      "inputs": [
        {
          "indexed": false,
          "internalType": "address",
          "name": "account",
          "type": "address"
        }
      ],
      "name": "Paused",
      "type": "event"
    },
    {
      "anonymous": false,
      "inputs": [
        {
          "indexed": true,
          "internalType": "uint256",
          "name": "loanId",
          "type": "uint256"
        },
        {
          "indexed": true,
          "internalType": "address",
          "name": "borrower",
          "type": "address"
        },
        {
          "indexed": false,
          "internalType": "address",
          "name": "receiver",
          "type": "address"
        },
        {
          "indexed": false,
          "internalType": "uint256",
          "name": "paymentCycleAmount",
          "type": "uint256"
        }
      ],
      "name": "SubmittedLoan",
      "type": "event"
    },
    {
      "anonymous": false,
      "inputs": [
        {
          "indexed": false,
          "internalType": "address",
          "name": "account",
          "type": "address"
        }
      ],
      "name": "Unpaused",
      "type": "event"
    },
    {
      "anonymous": false,
      "inputs": [
        {
          "indexed": true,
          "internalType": "address",
          "name": "implementation",
          "type": "address"
        }
      ],
      "name": "Upgraded",
      "type": "event"
    },
    {
      "anonymous": false,
      "inputs": [
        {
          "indexed": true,
          "internalType": "uint256",
          "name": "loanId",
          "type": "uint256"
        },
        {
          "indexed": true,
          "internalType": "address",
          "name": "lender",
          "type": "address"
        }
      ],
      "name": "loanAccepted",
      "type": "event"
    },
    {
      "anonymous": false,
      "inputs": [
        {
          "indexed": false,
          "internalType": "uint256",
          "name": "owedPrincipal",
          "type": "uint256"
        },
        {
          "indexed": false,
          "internalType": "uint256",
          "name": "duePrincipal",
          "type": "uint256"
        },
        {
          "indexed": false,
          "internalType": "uint256",
          "name": "interest",
          "type": "uint256"
        }
      ],
      "name": "repaidAmounts",
      "type": "event"
    },
    {
      "inputs": [],
      "name": "AconomyFeeAddress",
      "outputs": [
        {
          "internalType": "address",
          "name": "",
          "type": "address"
        }
      ],
      "stateMutability": "view",
      "type": "function"
    },
    {
      "inputs": [
        {
          "internalType": "address",
          "name": "",
          "type": "address"
        },
        {
          "internalType": "uint256",
          "name": "",
          "type": "uint256"
        }
      ],
      "name": "borrowerLoans",
      "outputs": [
        {
          "internalType": "uint256",
          "name": "",
          "type": "uint256"
        }
      ],
      "stateMutability": "view",
      "type": "function"
    },
    {
      "inputs": [
        {
          "internalType": "address",
          "name": "",
          "type": "address"
        },
        {
          "internalType": "address",
          "name": "",
          "type": "address"
        }
      ],
      "name": "lenderLendAmount",
      "outputs": [
        {
          "internalType": "uint256",
          "name": "",
          "type": "uint256"
        }
      ],
      "stateMutability": "view",
      "type": "function"
    },
    {
      "inputs": [
        {
          "internalType": "uint256",
          "name": "",
          "type": "uint256"
        }
      ],
      "name": "loanDefaultDuration",
      "outputs": [
        {
          "internalType": "uint32",
          "name": "",
          "type": "uint32"
        }
      ],
      "stateMutability": "view",
      "type": "function"
    },
    {
      "inputs": [
        {
          "internalType": "uint256",
          "name": "",
          "type": "uint256"
        }
      ],
      "name": "loanExpirationDuration",
      "outputs": [
        {
          "internalType": "uint32",
          "name": "",
          "type": "uint32"
        }
      ],
      "stateMutability": "view",
      "type": "function"
    },
    {
      "inputs": [],
      "name": "loanId",
      "outputs": [
        {
          "internalType": "uint256",
          "name": "",
          "type": "uint256"
        }
      ],
      "stateMutability": "view",
      "type": "function"
    },
    {
      "inputs": [
        {
          "internalType": "uint256",
          "name": "",
          "type": "uint256"
        }
      ],
      "name": "loans",
      "outputs": [
        {
          "internalType": "address",
          "name": "borrower",
          "type": "address"
        },
        {
          "internalType": "address",
          "name": "receiver",
          "type": "address"
        },
        {
          "internalType": "address",
          "name": "lender",
          "type": "address"
        },
        {
          "internalType": "uint256",
          "name": "poolId",
          "type": "uint256"
        },
        {
          "components": [
            {
              "internalType": "contract ERC20",
              "name": "lendingToken",
              "type": "address"
            },
            {
              "internalType": "uint256",
              "name": "principal",
              "type": "uint256"
            },
            {
              "components": [
                {
                  "internalType": "uint256",
                  "name": "principal",
                  "type": "uint256"
                },
                {
                  "internalType": "uint256",
                  "name": "interest",
                  "type": "uint256"
                }
              ],
              "internalType": "struct poolStorage.Payment",
              "name": "totalRepaid",
              "type": "tuple"
            },
            {
              "internalType": "uint32",
              "name": "timestamp",
              "type": "uint32"
            },
            {
              "internalType": "uint32",
              "name": "acceptedTimestamp",
              "type": "uint32"
            },
            {
              "internalType": "uint32",
              "name": "lastRepaidTimestamp",
              "type": "uint32"
            },
            {
              "internalType": "uint32",
              "name": "loanDuration",
              "type": "uint32"
            },
            {
              "internalType": "uint16",
              "name": "protocolFee",
              "type": "uint16"
            }
          ],
          "internalType": "struct poolStorage.LoanDetails",
          "name": "loanDetails",
          "type": "tuple"
        },
        {
          "components": [
            {
              "internalType": "uint256",
              "name": "paymentCycleAmount",
              "type": "uint256"
            },
            {
              "internalType": "uint256",
              "name": "monthlyCycleInterest",
              "type": "uint256"
            },
            {
              "internalType": "uint32",
              "name": "paymentCycle",
              "type": "uint32"
            },
            {
              "internalType": "uint16",
              "name": "APR",
              "type": "uint16"
            },
            {
              "internalType": "uint32",
              "name": "installments",
              "type": "uint32"
            },
            {
              "internalType": "uint32",
              "name": "installmentsPaid",
              "type": "uint32"
            }
          ],
          "internalType": "struct poolStorage.Terms",
          "name": "terms",
          "type": "tuple"
        },
        {
          "internalType": "enum poolStorage.LoanState",
          "name": "state",
          "type": "uint8"
        }
      ],
      "stateMutability": "view",
      "type": "function"
    },
    {
      "inputs": [],
      "name": "owner",
      "outputs": [
        {
          "internalType": "address",
          "name": "",
          "type": "address"
        }
      ],
      "stateMutability": "view",
      "type": "function"
    },
    {
      "inputs": [],
      "name": "paused",
      "outputs": [
        {
          "internalType": "bool",
          "name": "",
          "type": "bool"
        }
      ],
      "stateMutability": "view",
      "type": "function"
    },
    {
      "inputs": [
        {
          "internalType": "uint256",
          "name": "",
          "type": "uint256"
        }
      ],
      "name": "poolLoans",
      "outputs": [
        {
          "internalType": "uint256",
          "name": "",
          "type": "uint256"
        }
      ],
      "stateMutability": "view",
      "type": "function"
    },
    {
      "inputs": [],
      "name": "poolRegistryAddress",
      "outputs": [
        {
          "internalType": "address",
          "name": "",
          "type": "address"
        }
      ],
      "stateMutability": "view",
      "type": "function"
    },
    {
      "inputs": [],
      "name": "proxiableUUID",
      "outputs": [
        {
          "internalType": "bytes32",
          "name": "",
          "type": "bytes32"
        }
      ],
      "stateMutability": "view",
      "type": "function"
    },
    {
      "inputs": [],
      "name": "renounceOwnership",
      "outputs": [],
      "stateMutability": "nonpayable",
      "type": "function"
    },
    {
      "inputs": [
        {
          "internalType": "address",
          "name": "",
          "type": "address"
        }
      ],
      "name": "totalERC20Amount",
      "outputs": [
        {
          "internalType": "uint256",
          "name": "",
          "type": "uint256"
        }
      ],
      "stateMutability": "view",
      "type": "function"
    },
    {
      "inputs": [
        {
          "internalType": "address",
          "name": "newOwner",
          "type": "address"
        }
      ],
      "name": "transferOwnership",
      "outputs": [],
      "stateMutability": "nonpayable",
      "type": "function"
    },
    {
      "inputs": [
        {
          "internalType": "address",
          "name": "newImplementation",
          "type": "address"
        }
      ],
      "name": "upgradeTo",
      "outputs": [],
      "stateMutability": "nonpayable",
      "type": "function"
    },
    {
      "inputs": [
        {
          "internalType": "address",
          "name": "newImplementation",
          "type": "address"
        },
        {
          "internalType": "bytes",
          "name": "data",
          "type": "bytes"
        }
      ],
      "name": "upgradeToAndCall",
      "outputs": [],
      "stateMutability": "payable",
      "type": "function"
    },
    {
      "inputs": [
        {
          "internalType": "address",
          "name": "_poolRegistry",
          "type": "address"
        },
        {
          "internalType": "address",
          "name": "_AconomyFeeAddress",
          "type": "address"
        }
      ],
      "name": "initialize",
      "outputs": [],
      "stateMutability": "nonpayable",
      "type": "function"
    },
    {
      "inputs": [],
      "name": "pause",
      "outputs": [],
      "stateMutability": "nonpayable",
      "type": "function"
    },
    {
      "inputs": [],
      "name": "unpause",
      "outputs": [],
      "stateMutability": "nonpayable",
      "type": "function"
    },
    {
      "inputs": [
        {
          "internalType": "address",
          "name": "_lendingToken",
          "type": "address"
        },
        {
          "internalType": "uint256",
          "name": "_poolId",
          "type": "uint256"
        },
        {
          "internalType": "uint256",
          "name": "_principal",
          "type": "uint256"
        },
        {
          "internalType": "uint32",
          "name": "_duration",
          "type": "uint32"
        },
        {
          "internalType": "uint32",
          "name": "_expirationDuration",
          "type": "uint32"
        },
        {
          "internalType": "uint16",
          "name": "_APR",
          "type": "uint16"
        },
        {
          "internalType": "address",
          "name": "_receiver",
          "type": "address"
        }
      ],
      "name": "loanRequest",
      "outputs": [
        {
          "internalType": "uint256",
          "name": "loanId_",
          "type": "uint256"
        }
      ],
      "stateMutability": "nonpayable",
      "type": "function"
    },
    {
      "inputs": [
        {
          "internalType": "uint256",
          "name": "_loanId",
          "type": "uint256"
        }
      ],
      "name": "AcceptLoan",
      "outputs": [
        {
          "internalType": "uint256",
          "name": "amountToAconomy",
          "type": "uint256"
        },
        {
          "internalType": "uint256",
          "name": "amountToPool",
          "type": "uint256"
        },
        {
          "internalType": "uint256",
          "name": "amountToBorrower",
          "type": "uint256"
        }
      ],
      "stateMutability": "nonpayable",
      "type": "function"
    },
    {
      "inputs": [
        {
          "internalType": "uint256",
          "name": "_loanId",
          "type": "uint256"
        }
      ],
      "name": "isLoanExpired",
      "outputs": [
        {
          "internalType": "bool",
          "name": "",
          "type": "bool"
        }
      ],
      "stateMutability": "view",
      "type": "function"
    },
    {
      "inputs": [
        {
          "internalType": "uint256",
          "name": "_loanId",
          "type": "uint256"
        }
      ],
      "name": "isLoanDefaulted",
      "outputs": [
        {
          "internalType": "bool",
          "name": "",
          "type": "bool"
        }
      ],
      "stateMutability": "view",
      "type": "function"
    },
    {
      "inputs": [
        {
          "internalType": "uint256",
          "name": "_loanId",
          "type": "uint256"
        }
      ],
      "name": "lastRepaidTimestamp",
      "outputs": [
        {
          "internalType": "uint32",
          "name": "",
          "type": "uint32"
        }
      ],
      "stateMutability": "view",
      "type": "function"
    },
    {
      "inputs": [
        {
          "internalType": "uint256",
          "name": "_loanId",
          "type": "uint256"
        }
      ],
      "name": "isPaymentLate",
      "outputs": [
        {
          "internalType": "bool",
          "name": "",
          "type": "bool"
        }
      ],
      "stateMutability": "view",
      "type": "function"
    },
    {
      "inputs": [
        {
          "internalType": "uint256",
          "name": "_loanId",
          "type": "uint256"
        }
      ],
      "name": "calculateNextDueDate",
      "outputs": [
        {
          "internalType": "uint32",
          "name": "dueDate_",
          "type": "uint32"
        }
      ],
      "stateMutability": "view",
      "type": "function"
    },
    {
      "inputs": [
        {
          "internalType": "uint256",
          "name": "_loanId",
          "type": "uint256"
        }
      ],
      "name": "viewInstallmentAmount",
      "outputs": [
        {
          "internalType": "uint256",
          "name": "",
          "type": "uint256"
        }
      ],
      "stateMutability": "view",
      "type": "function"
    },
    {
      "inputs": [
        {
          "internalType": "uint256",
          "name": "_loanId",
          "type": "uint256"
        }
      ],
      "name": "repayMonthlyInstallment",
      "outputs": [],
      "stateMutability": "nonpayable",
      "type": "function"
    },
    {
      "inputs": [
        {
          "internalType": "uint256",
          "name": "_loanId",
          "type": "uint256"
        }
      ],
      "name": "viewFullRepayAmount",
      "outputs": [
        {
          "internalType": "uint256",
          "name": "",
          "type": "uint256"
        }
      ],
      "stateMutability": "view",
      "type": "function"
    },
    {
      "inputs": [
        {
          "internalType": "uint256",
          "name": "_loanId",
          "type": "uint256"
        }
      ],
      "name": "repayFullLoan",
      "outputs": [],
      "stateMutability": "nonpayable",
      "type": "function"
    }
  ],
  "bytecode": "0x60a06040523073ffffffffffffffffffffffffffffffffffffffff1660809073ffffffffffffffffffffffffffffffffffffffff168152503480156200004457600080fd5b50620000556200005b60201b60201c565b62000206565b600060019054906101000a900460ff1615620000ae576040517f08c379a0000000000000000000000000000000000000000000000000000000008152600401620000a590620001a9565b60405180910390fd5b60ff801660008054906101000a900460ff1660ff161015620001205760ff6000806101000a81548160ff021916908360ff1602179055507f7f26b83ff96e1f2b6a682f133852f6798a09c465da95921460cefb384740249860ff604051620001179190620001e9565b60405180910390a15b565b600082825260208201905092915050565b7f496e697469616c697a61626c653a20636f6e747261637420697320696e69746960008201527f616c697a696e6700000000000000000000000000000000000000000000000000602082015250565b60006200019160278362000122565b91506200019e8262000133565b604082019050919050565b60006020820190508181036000830152620001c48162000182565b9050919050565b600060ff82169050919050565b620001e381620001cb565b82525050565b6000602082019050620002006000830184620001d8565b92915050565b608051615c9e6200023e60003960008181610b3201528181610bc101528181610ebf01528181610f4e0152610ffe0152615c9e6000f3fe6080604052600436106101d85760003560e01c8063715018a611610102578063c95669a511610095578063e766a88f11610064578063e766a88f14610703578063e8cbab0914610742578063f2fde38b1461077f578063fee870e9146107a8576101d8565b8063c95669a51461062d578063dadf422e14610658578063e1ec3c6814610683578063e3ed1902146106c6576101d8565b80639d630c0c116100d15780639d630c0c1461054d578063a48fa21214610576578063a51e2bad146105b3578063bde74f8d146105f0576101d8565b8063715018a6146104b75780638456cb59146104ce5780638cda4571146104e55780638da5cb5b14610522576101d8565b80633f4ba83a1161017a578063561e794611610149578063561e7946146103e7578063598901c6146104245780635c975abb1461044f578063706a43c31461047a576101d8565b80633f4ba83a14610360578063485cc955146103775780634f1ef286146103a057806352d1902d146103bc576101d8565b80631c5c1fc7116101b65780631c5c1fc71461029457806330f2670c146102bd5780633659cfe6146102fa578063376e498814610323576101d8565b806302117df3146101dd578063093f56171461021a5780631061822314610257575b600080fd5b3480156101e957600080fd5b5061020460048036038101906101ff9190613ea7565b6107e5565b6040516102119190613ee3565b60405180910390f35b34801561022657600080fd5b50610241600480360381019061023c9190613ea7565b6108da565b60405161024e9190613f19565b60405180910390f35b34801561026357600080fd5b5061027e60048036038101906102799190613ea7565b610961565b60405161028b9190613f19565b60405180910390f35b3480156102a057600080fd5b506102bb60048036038101906102b69190613ea7565b610a59565b005b3480156102c957600080fd5b506102e460048036038101906102df9190613f92565b610b18565b6040516102f19190613ee3565b60405180910390f35b34801561030657600080fd5b50610321600480360381019061031c9190613f92565b610b30565b005b34801561032f57600080fd5b5061034a60048036038101906103459190613ea7565b610cb9565b6040516103579190613ee3565b60405180910390f35b34801561036c57600080fd5b50610375610cd1565b005b34801561038357600080fd5b5061039e60048036038101906103999190613fbf565b610ce3565b005b6103ba60048036038101906103b59190614145565b610ebd565b005b3480156103c857600080fd5b506103d1610ffa565b6040516103de91906141ba565b60405180910390f35b3480156103f357600080fd5b5061040e60048036038101906104099190613ea7565b6110b3565b60405161041b9190613ee3565b60405180910390f35b34801561043057600080fd5b506104396111ff565b60405161044691906141e4565b60405180910390f35b34801561045b57600080fd5b50610464611225565b6040516104719190613f19565b60405180910390f35b34801561048657600080fd5b506104a1600480360381019061049c9190613ea7565b61123c565b6040516104ae919061421e565b60405180910390f35b3480156104c357600080fd5b506104cc61140e565b005b3480156104da57600080fd5b506104e3611422565b005b3480156104f157600080fd5b5061050c60048036038101906105079190613ea7565b611434565b604051610519919061421e565b60405180910390f35b34801561052e57600080fd5b50610537611457565b60405161054491906141e4565b60405180910390f35b34801561055957600080fd5b50610574600480360381019061056f9190613ea7565b611481565b005b34801561058257600080fd5b5061059d60048036038101906105989190613ea7565b61185b565b6040516105aa919061421e565b60405180910390f35b3480156105bf57600080fd5b506105da60048036038101906105d59190613ea7565b61187e565b6040516105e7919061421e565b60405180910390f35b3480156105fc57600080fd5b506106176004803603810190610612919061429f565b6118a2565b6040516106249190613ee3565b60405180910390f35b34801561063957600080fd5b50610642612226565b60405161064f9190613ee3565b60405180910390f35b34801561066457600080fd5b5061066d61222c565b60405161067a91906141e4565b60405180910390f35b34801561068f57600080fd5b506106aa60048036038101906106a59190613ea7565b612252565b6040516106bd9796959493929190614591565b60405180910390f35b3480156106d257600080fd5b506106ed60048036038101906106e89190614603565b6124fc565b6040516106fa9190613ee3565b60405180910390f35b34801561070f57600080fd5b5061072a60048036038101906107259190613ea7565b61252d565b60405161073993929190614643565b60405180910390f35b34801561074e57600080fd5b5061076960048036038101906107649190613ea7565b61295d565b6040516107769190613f19565b60405180910390f35b34801561078b57600080fd5b506107a660048036038101906107a19190613f92565b612a71565b005b3480156107b457600080fd5b506107cf60048036038101906107ca9190613fbf565b612af5565b6040516107dc9190613ee3565b60405180910390f35b6000806000610813600260008681526020019081526020016000206102584261080e91906146a9565b612b1a565b92505091506000818361082691906146a9565b90506002600381111561083c5761083b61451a565b5b60026000878152602001908152602001600020600c0160009054906101000a900460ff1660038111156108725761087161451a565b5b1415806108c5575060038081111561088d5761088c61451a565b5b60026000878152602001908152602001600020600c0160009054906101000a900460ff1660038111156108c3576108c261451a565b5b145b156108cf57600090505b809350505050919050565b6000600260038111156108f0576108ef61451a565b5b60026000848152602001908152602001600020600c0160009054906101000a900460ff1660038111156109265761092561451a565b5b14610934576000905061095c565b62093a806109418361123c565b61094b91906146ff565b63ffffffff164263ffffffff161190505b919050565b6000806002600084815260200190815260200160002090506000600381111561098d5761098c61451a565b5b81600c0160009054906101000a900460ff1660038111156109b1576109b061451a565b5b146109c0576000915050610a54565b60006008600085815260200190815260200160002060009054906101000a900463ffffffff1663ffffffff1614156109fc576000915050610a54565b6008600084815260200190815260200160002060009054906101000a900463ffffffff168160040160040160009054906101000a900463ffffffff16610a4291906146ff565b63ffffffff164263ffffffff16119150505b919050565b610a61612bcf565b610a69612c1f565b60026003811115610a7d57610a7c61451a565b5b60026000838152602001908152602001600020600c0160009054906101000a900460ff166003811115610ab357610ab261451a565b5b14610abd57600080fd5b600080610adc6002600085815260200190815260200160002042612b1a565b9250509150610b0b836040518060400160405280858152602001848152508385610b0691906146a9565b612c69565b5050610b15612f14565b50565b60056020528060005260406000206000915090505481565b7f000000000000000000000000000000000000000000000000000000000000000073ffffffffffffffffffffffffffffffffffffffff163073ffffffffffffffffffffffffffffffffffffffff161415610bbf576040517f08c379a0000000000000000000000000000000000000000000000000000000008152600401610bb6906147bc565b60405180910390fd5b7f000000000000000000000000000000000000000000000000000000000000000073ffffffffffffffffffffffffffffffffffffffff16610bfe612f1e565b73ffffffffffffffffffffffffffffffffffffffff1614610c54576040517f08c379a0000000000000000000000000000000000000000000000000000000008152600401610c4b9061484e565b60405180910390fd5b610c5d81612f75565b610cb681600067ffffffffffffffff811115610c7c57610c7b61401a565b5b6040519080825280601f01601f191660200182016040528015610cae5781602001600182028036833780820191505090505b506000612f80565b50565b60036020528060005260406000206000915090505481565b610cd96130ee565b610ce161316c565b565b60008060019054906101000a900460ff16159050808015610d145750600160008054906101000a900460ff1660ff16105b80610d415750610d23306131cf565b158015610d405750600160008054906101000a900460ff1660ff16145b5b610d80576040517f08c379a0000000000000000000000000000000000000000000000000000000008152600401610d77906148e0565b60405180910390fd5b60016000806101000a81548160ff021916908360ff1602179055508015610dbd576001600060016101000a81548160ff0219169083151502179055505b610dc56131f2565b610dcd61324b565b610dd56132a4565b82600a60006101000a81548173ffffffffffffffffffffffffffffffffffffffff021916908373ffffffffffffffffffffffffffffffffffffffff16021790555081600b60006101000a81548173ffffffffffffffffffffffffffffffffffffffff021916908373ffffffffffffffffffffffffffffffffffffffff16021790555060006001819055508015610eb85760008060016101000a81548160ff0219169083151502179055507f7f26b83ff96e1f2b6a682f133852f6798a09c465da95921460cefb38474024986001604051610eaf9190614948565b60405180910390a15b505050565b7f000000000000000000000000000000000000000000000000000000000000000073ffffffffffffffffffffffffffffffffffffffff163073ffffffffffffffffffffffffffffffffffffffff161415610f4c576040517f08c379a0000000000000000000000000000000000000000000000000000000008152600401610f43906147bc565b60405180910390fd5b7f000000000000000000000000000000000000000000000000000000000000000073ffffffffffffffffffffffffffffffffffffffff16610f8b612f1e565b73ffffffffffffffffffffffffffffffffffffffff1614610fe1576040517f08c379a0000000000000000000000000000000000000000000000000000000008152600401610fd89061484e565b60405180910390fd5b610fea82612f75565b610ff682826001612f80565b5050565b60007f000000000000000000000000000000000000000000000000000000000000000073ffffffffffffffffffffffffffffffffffffffff163073ffffffffffffffffffffffffffffffffffffffff161461108a576040517f08c379a0000000000000000000000000000000000000000000000000000000008152600401611081906149d5565b60405180910390fd5b7f360894a13ba1a3210667c828492db98dca3e2076cc3735a920a3ca505d382bbc60001b905090565b6000806110bf8361187e565b905060006111026002600086815260200190815260200160002060040160040160049054906101000a900463ffffffff1663ffffffff168363ffffffff166132f5565b9050600061113f6002600087815260200190815260200160002060040160040160049054906101000a900463ffffffff1663ffffffff16426132f5565b90506002600086815260200190815260200160002060090160020160069054906101000a900463ffffffff1663ffffffff16600160026000888152602001908152602001600020600901600201600a9054906101000a900463ffffffff166111a791906146ff565b63ffffffff1614156111c6576111bc856107e5565b93505050506111fa565b818111156111f257600260008681526020019081526020016000206009016000015493505050506111fa565b600093505050505b919050565b600a60009054906101000a900473ffffffffffffffffffffffffffffffffffffffff1681565b6000607060009054906101000a900460ff16905090565b600080600260008481526020019081526020016000209050600260038111156112685761126761451a565b5b60026000858152602001908152602001600020600c0160009054906101000a900460ff16600381111561129e5761129d61451a565b5b146112a95750611409565b8060090160020160009054906101000a900463ffffffff168160040160040160049054906101000a900463ffffffff166112e391906146ff565b915060008160040160040160049054906101000a900463ffffffff166113088561187e565b61131291906149f5565b905060008163ffffffff16111561137c5760008260090160020160009054906101000a900463ffffffff16826113489190614a58565b90508260090160020160009054906101000a900463ffffffff168161136d9190614a89565b8461137891906146ff565b9350505b81600401600401600c9054906101000a900463ffffffff168260040160040160049054906101000a900463ffffffff166113b691906146ff565b63ffffffff168363ffffffff1611156114065781600401600401600c9054906101000a900463ffffffff168260040160040160049054906101000a900463ffffffff1661140391906146ff565b92505b50505b919050565b6114166130ee565b6114206000613388565b565b61142a6130ee565b61143261344e565b565b60076020528060005260406000206000915054906101000a900463ffffffff1681565b600060a260009054906101000a900473ffffffffffffffffffffffffffffffffffffffff16905090565b611489612c1f565b611491612bcf565b620f42406002600083815260200190815260200160002060090160020160069054906101000a900463ffffffff1663ffffffff1660026000848152602001908152602001600020600401600101546114e99190614ac7565b101561152a576040517f08c379a000000000000000000000000000000000000000000000000000000000815260040161152190614b44565b60405180910390fd5b6002600381111561153e5761153d61451a565b5b60026000838152602001908152602001600020600c0160009054906101000a900460ff1660038111156115745761157361451a565b5b1461157e57600080fd5b6002600082815260200190815260200160002060090160020160069054906101000a900463ffffffff1663ffffffff16600160026000848152602001908152602001600020600901600201600a9054906101000a900463ffffffff166115e491906146ff565b63ffffffff1611156115f557600080fd5b6115fe8161123c565b63ffffffff16421161160f57600080fd5b6002600082815260200190815260200160002060090160020160069054906101000a900463ffffffff1663ffffffff16600160026000848152602001908152602001600020600901600201600a9054906101000a900463ffffffff1661167591906146ff565b63ffffffff16141561168f5761168a816134b1565b611850565b600060026000838152602001908152602001600020600901600101549050600060026000848152602001908152602001600020600901600001549050600082826116d99190614b64565b90506000806116fa6002600088815260200190815260200160002042612b1a565b925050915060026000878152602001908152602001600020600901600201600a81819054906101000a900463ffffffff168092919061173890614b98565b91906101000a81548163ffffffff021916908363ffffffff1602179055505061178186604051806040016040528086815260200188815250838561177c91906146a9565b612c69565b6002600087815260200190815260200160002060090160020160009054906101000a900463ffffffff1660026000888152602001908152602001600020600901600201600a9054906101000a900463ffffffff166117df9190614a89565b6002600088815260200190815260200160002060040160040160049054906101000a900463ffffffff1661181391906146ff565b6002600088815260200190815260200160002060040160040160086101000a81548163ffffffff021916908363ffffffff16021790555050505050505b611858612f14565b50565b60086020528060005260406000206000915054906101000a900463ffffffff1681565b600061189b60026000848152602001908152602001600020613558565b9050919050565b60006118ac612c1f565b600073ffffffffffffffffffffffffffffffffffffffff168873ffffffffffffffffffffffffffffffffffffffff1614156118e657600080fd5b600073ffffffffffffffffffffffffffffffffffffffff168273ffffffffffffffffffffffffffffffffffffffff16141561192057600080fd5b6000600a60009054906101000a900473ffffffffffffffffffffffffffffffffffffffff1673ffffffffffffffffffffffffffffffffffffffff1663302de10f89336040518363ffffffff1660e01b815260040161197f929190614bc5565b6040805180830381865afa15801561199b573d6000803e3d6000fd5b505050506040513d601f19601f820116820180604052508101906119bf9190614c46565b509050806119cc57600080fd5b600a60009054906101000a900473ffffffffffffffffffffffffffffffffffffffff1673ffffffffffffffffffffffffffffffffffffffff1663a8380df1896040518263ffffffff1660e01b8152600401611a279190613ee3565b602060405180830381865afa158015611a44573d6000803e3d6000fd5b505050506040513d601f19601f82011682018060405250810190611a689190614c86565b15611a7257600080fd5b600062278d0087611a839190614cb3565b63ffffffff1614611a9357600080fd5b60648461ffff161015611aa557600080fd5b620f4240871015611aeb576040517f08c379a0000000000000000000000000000000000000000000000000000000008152600401611ae290614b44565b60405180910390fd5b60008563ffffffff1611611afe57600080fd5b600154915081600360008a8152602001908152602001600020819055506000600b60009054906101000a900473ffffffffffffffffffffffffffffffffffffffff1673ffffffffffffffffffffffffffffffffffffffff1663fa31eb496040518163ffffffff1660e01b8152600401602060405180830381865afa158015611b8a573d6000803e3d6000fd5b505050506040513d601f19601f82011682018060405250810190611bae9190614cf9565b905060006002600060015481526020019081526020016000209050338160000160006101000a81548173ffffffffffffffffffffffffffffffffffffffff021916908373ffffffffffffffffffffffffffffffffffffffff160217905550600073ffffffffffffffffffffffffffffffffffffffff168573ffffffffffffffffffffffffffffffffffffffff161415611c6b578060000160009054906101000a900473ffffffffffffffffffffffffffffffffffffffff16611c6d565b845b8160010160006101000a81548173ffffffffffffffffffffffffffffffffffffffff021916908373ffffffffffffffffffffffffffffffffffffffff1602179055508981600301819055508a8160040160000160006101000a81548173ffffffffffffffffffffffffffffffffffffffff021916908373ffffffffffffffffffffffffffffffffffffffff1602179055508881600401600101819055508781600401600401600c6101000a81548163ffffffff021916908363ffffffff160217905550428160040160040160006101000a81548163ffffffff021916908363ffffffff160217905550818160040160040160106101000a81548161ffff021916908361ffff16021790555062278d0088611d879190614a58565b8160090160020160066101000a81548163ffffffff021916908363ffffffff160217905550600081600901600201600a6101000a81548163ffffffff021916908363ffffffff160217905550600a60009054906101000a900473ffffffffffffffffffffffffffffffffffffffff1673ffffffffffffffffffffffffffffffffffffffff1663805deb538b6040518263ffffffff1660e01b8152600401611e2e9190613ee3565b602060405180830381865afa158015611e4b573d6000803e3d6000fd5b505050506040513d601f19601f82011682018060405250810190611e6f9190614d3b565b8160090160020160006101000a81548163ffffffff021916908363ffffffff160217905550858160090160020160046101000a81548161ffff021916908361ffff160217905550600a60009054906101000a900473ffffffffffffffffffffffffffffffffffffffff1673ffffffffffffffffffffffffffffffffffffffff166311bed5bb8b6040518263ffffffff1660e01b8152600401611f119190613ee3565b602060405180830381865afa158015611f2e573d6000803e3d6000fd5b505050506040513d601f19601f82011682018060405250810190611f529190614d3b565b60076000600154815260200190815260200160002060006101000a81548163ffffffff021916908363ffffffff1602179055508660086000600154815260200190815260200160002060006101000a81548163ffffffff021916908363ffffffff16021790555073__LibCalculations_______________________632872a8878a8a8460090160020160009054906101000a900463ffffffff168a6040518563ffffffff1660e01b815260040161200d9493929190614d95565b602060405180830381865af415801561202a573d6000803e3d6000fd5b505050506040513d601f19601f8201168201806040525081019061204e9190614def565b816009016000018190555060008160090160020160069054906101000a900463ffffffff1663ffffffff168a6120849190614ac7565b90508082600901600001546120999190614b64565b8260090160010181905550600082600c0160006101000a81548160ff021916908360038111156120cc576120cb61451a565b5b02179055508160000160009054906101000a900473ffffffffffffffffffffffffffffffffffffffff1673ffffffffffffffffffffffffffffffffffffffff166001547f20669ac1da79ef826aa0f4e5e5b00ae0f2ed6e7c6eceb274c6fb43976204217e8460010160009054906101000a900473ffffffffffffffffffffffffffffffffffffffff16856009016000015460405161216b929190614e1c565b60405180910390a3600660008360000160009054906101000a900473ffffffffffffffffffffffffffffffffffffffff1673ffffffffffffffffffffffffffffffffffffffff1673ffffffffffffffffffffffffffffffffffffffff16815260200190815260200160002060015490806001815401808255809150506001900390600052602060002001600090919091909150556001600081548092919061221290614e45565b919050555050505050979650505050505050565b60015481565b600b60009054906101000a900473ffffffffffffffffffffffffffffffffffffffff1681565b60026020528060005260406000206000915090508060000160009054906101000a900473ffffffffffffffffffffffffffffffffffffffff16908060010160009054906101000a900473ffffffffffffffffffffffffffffffffffffffff16908060020160009054906101000a900473ffffffffffffffffffffffffffffffffffffffff169080600301549080600401604051806101000160405290816000820160009054906101000a900473ffffffffffffffffffffffffffffffffffffffff1673ffffffffffffffffffffffffffffffffffffffff1673ffffffffffffffffffffffffffffffffffffffff16815260200160018201548152602001600282016040518060400160405290816000820154815260200160018201548152505081526020016004820160009054906101000a900463ffffffff1663ffffffff1663ffffffff1681526020016004820160049054906101000a900463ffffffff1663ffffffff1663ffffffff1681526020016004820160089054906101000a900463ffffffff1663ffffffff1663ffffffff16815260200160048201600c9054906101000a900463ffffffff1663ffffffff1663ffffffff1681526020016004820160109054906101000a900461ffff1661ffff1661ffff168152505090806009016040518060c001604052908160008201548152602001600182015481526020016002820160009054906101000a900463ffffffff1663ffffffff1663ffffffff1681526020016002820160049054906101000a900461ffff1661ffff1661ffff1681526020016002820160069054906101000a900463ffffffff1663ffffffff1663ffffffff16815260200160028201600a9054906101000a900463ffffffff1663ffffffff1663ffffffff16815250509080600c0160009054906101000a900460ff16905087565b6006602052816000526040600020818154811061251857600080fd5b90600052602060002001600091509150505481565b600080600061253a612c1f565b612542612bcf565b600060026000868152602001908152602001600020905061256285610961565b1561256c57600080fd5b73__LibPoolAddress________________________63bc331f0982600a60009054906101000a900473ffffffffffffffffffffffffffffffffffffffff16600b60009054906101000a900473ffffffffffffffffffffffffffffffffffffffff166040518463ffffffff1660e01b81526004016125eb93929190614ea4565b606060405180830381865af4158015612608573d6000803e3d6000fd5b505050506040513d601f19601f8201168201806040525081019061262c9190614edb565b8094508195508296505050508060040160010154600960008360040160000160009054906101000a900473ffffffffffffffffffffffffffffffffffffffff1673ffffffffffffffffffffffffffffffffffffffff1673ffffffffffffffffffffffffffffffffffffffff16815260200190815260200160002060008360020160009054906101000a900473ffffffffffffffffffffffffffffffffffffffff1673ffffffffffffffffffffffffffffffffffffffff1673ffffffffffffffffffffffffffffffffffffffff168152602001908152602001600020600082825461271691906146a9565b925050819055508060040160010154600560008360040160000160009054906101000a900473ffffffffffffffffffffffffffffffffffffffff1673ffffffffffffffffffffffffffffffffffffffff1673ffffffffffffffffffffffffffffffffffffffff168152602001908152602001600020600082825461279a91906146a9565b9250508190555061281685600460008460000160009054906101000a900473ffffffffffffffffffffffffffffffffffffffff1673ffffffffffffffffffffffffffffffffffffffff1673ffffffffffffffffffffffffffffffffffffffff1681526020019081526020016000206135bb90919063ffffffff16565b61281f57600080fd5b8060020160009054906101000a900473ffffffffffffffffffffffffffffffffffffffff1673ffffffffffffffffffffffffffffffffffffffff16857fc175daba6d0afff1f048fc218620bf5012c03afa26af397bacbf30f7341d343060405160405180910390a38360405161289490614f85565b6040518091039020867f9d2e18d1e551e6728496dd39a969d9fe809fe60c0c8c9cabfda8be718e5387cf60405160405180910390a4826040516128d690614fe6565b6040518091039020867f9d2e18d1e551e6728496dd39a969d9fe809fe60c0c8c9cabfda8be718e5387cf60405160405180910390a48160405161291890615047565b6040518091039020867f9d2e18d1e551e6728496dd39a969d9fe809fe60c0c8c9cabfda8be718e5387cf60405160405180910390a450612956612f14565b9193909250565b600080600260008481526020019081526020016000209050600260038111156129895761298861451a565b5b81600c0160009054906101000a900460ff1660038111156129ad576129ac61451a565b5b146129bc576000915050612a6c565b60006007600085815260200190815260200160002060009054906101000a900463ffffffff1663ffffffff1614156129f8576000915050612a6c565b6007600084815260200190815260200160002060009054906101000a900463ffffffff1660030b81600401600401600c9054906101000a900463ffffffff168260040160040160049054906101000a900463ffffffff16612a5991906146ff565b42612a649190615069565b60030b139150505b919050565b612a796130ee565b600073ffffffffffffffffffffffffffffffffffffffff168173ffffffffffffffffffffffffffffffffffffffff161415612ae9576040517f08c379a0000000000000000000000000000000000000000000000000000000008152600401612ae090615153565b60405180910390fd5b612af281613388565b50565b6009602052816000526040600020602052806000526040600020600091509150505481565b6000806000612bc2856004016001015486600401600201600001548760090160020160049054906101000a900461ffff1688600901600001548960090160020160009054906101000a900463ffffffff1663ffffffff16612b7a8b613558565b63ffffffff168a8c60040160040160049054906101000a900463ffffffff1663ffffffff168d600401600401600c9054906101000a900463ffffffff1663ffffffff166135d5565b9250925092509250925092565b6002600c541415612c15576040517f08c379a0000000000000000000000000000000000000000000000000000000008152600401612c0c906151bf565b60405180910390fd5b6002600c81905550565b612c27611225565b15612c67576040517f08c379a0000000000000000000000000000000000000000000000000000000008152600401612c5e9061522b565b60405180910390fd5b565b6000600260008581526020019081526020016000209050600083602001518460000151612c9691906146a9565b9050828110612d8a57829050600382600c0160006101000a81548160ff02191690836003811115612cca57612cc961451a565b5b0217905550612d4485600460008560000160009054906101000a900473ffffffffffffffffffffffffffffffffffffffff1673ffffffffffffffffffffffffffffffffffffffff1673ffffffffffffffffffffffffffffffffffffffff1681526020019081526020016000206136d590919063ffffffff16565b612d4d57600080fd5b847f040cee90ee4799897c30ca04e5feb6fa43dbba9b6d084b4b257cdafd84ba013e82604051612d7d9190613ee3565b60405180910390a2612dc3565b847f74eb6e59df678ce3b4afd511fde3df47cbedd7c742096db39757074577499a9c82604051612dba9190613ee3565b60405180910390a25b8360000151826004016002016000016000828254612de191906146a9565b925050819055508360200151826004016002016001016000828254612e0691906146a9565b92505081905550428260040160040160086101000a81548163ffffffff021916908363ffffffff16021790555060008260040160000160009054906101000a900473ffffffffffffffffffffffffffffffffffffffff1673ffffffffffffffffffffffffffffffffffffffff166323b872dd338560020160009054906101000a900473ffffffffffffffffffffffffffffffffffffffff16856040518463ffffffff1660e01b8152600401612ebd9392919061524b565b6020604051808303816000875af1158015612edc573d6000803e3d6000fd5b505050506040513d601f19601f82011682018060405250810190612f009190614c86565b905080612f0c57600080fd5b505050505050565b6001600c81905550565b6000612f4c7f360894a13ba1a3210667c828492db98dca3e2076cc3735a920a3ca505d382bbc60001b6136ef565b60000160009054906101000a900473ffffffffffffffffffffffffffffffffffffffff16905090565b612f7d6130ee565b50565b612fac7f4910fdfa16fed3260ed0e7147f7cc6da11a60208b5b9406d12a635614ffd914360001b6136f9565b60000160009054906101000a900460ff1615612fd057612fcb83613703565b6130e9565b8273ffffffffffffffffffffffffffffffffffffffff166352d1902d6040518163ffffffff1660e01b8152600401602060405180830381865afa92505050801561303857506040513d601f19601f820116820180604052508101906130359190615282565b60015b613077576040517f08c379a000000000000000000000000000000000000000000000000000000000815260040161306e90615321565b60405180910390fd5b7f360894a13ba1a3210667c828492db98dca3e2076cc3735a920a3ca505d382bbc60001b81146130dc576040517f08c379a00000000000000000000000000000000000000000000000000000000081526004016130d3906153b3565b60405180910390fd5b506130e88383836137bc565b5b505050565b6130f66137e8565b73ffffffffffffffffffffffffffffffffffffffff16613114611457565b73ffffffffffffffffffffffffffffffffffffffff161461316a576040517f08c379a00000000000000000000000000000000000000000000000000000000081526004016131619061541f565b60405180910390fd5b565b6131746137f0565b6000607060006101000a81548160ff0219169083151502179055507f5db9ee0a495bf2e6ff9c91a7834c1ba4fdd244a5e8aa4e537bd38aeae4b073aa6131b86137e8565b6040516131c591906141e4565b60405180910390a1565b6000808273ffffffffffffffffffffffffffffffffffffffff163b119050919050565b600060019054906101000a900460ff16613241576040517f08c379a0000000000000000000000000000000000000000000000000000000008152600401613238906154b1565b60405180910390fd5b613249613839565b565b600060019054906101000a900460ff1661329a576040517f08c379a0000000000000000000000000000000000000000000000000000000008152600401613291906154b1565b60405180910390fd5b6132a2613892565b565b600060019054906101000a900460ff166132f3576040517f08c379a00000000000000000000000000000000000000000000000000000000081526004016132ea906154b1565b60405180910390fd5b565b60008183111561330457600080fd5b60008061331e62015180866133199190614ac7565b6138f3565b509150915060008061333d62015180876133389190614ac7565b6138f3565b509150915082600c8561335091906154d1565b82600c8561335e91906154d1565b61336891906146a9565b6133729190614b64565b61337c9190614b64565b94505050505092915050565b600060a260009054906101000a900473ffffffffffffffffffffffffffffffffffffffff1690508160a260006101000a81548173ffffffffffffffffffffffffffffffffffffffff021916908373ffffffffffffffffffffffffffffffffffffffff1602179055508173ffffffffffffffffffffffffffffffffffffffff168173ffffffffffffffffffffffffffffffffffffffff167f8be0079c531659141344cd1fd0a4f28419497f9722a3daafe3b4186f6b6457e060405160405180910390a35050565b613456612c1f565b6001607060006101000a81548160ff0219169083151502179055507f62e78cea01bee320cd4e420270b5ea74000d11b0c9f74754ebdbfc544b05a25861349a6137e8565b6040516134a791906141e4565b60405180910390a1565b600260038111156134c5576134c461451a565b5b60026000838152602001908152602001600020600c0160009054906101000a900460ff1660038111156134fb576134fa61451a565b5b1461350557600080fd5b6000806135246002600085815260200190815260200160002042612b1a565b925050915061355383604051806040016040528085815260200184815250838561354e91906146a9565b612c69565b505050565b6000808260040160040160089054906101000a900463ffffffff1663ffffffff161461359b578160040160040160089054906101000a900463ffffffff166135b4565b8160040160040160049054906101000a900463ffffffff165b9050919050565b60006135cd836000018360001b613a92565b905092915050565b60008060008a8c6135e69190614b64565b925060006135f4848c613b02565b9050600088886136049190614b64565b90506000610e10826136169190614ac7565b905060006121c0905080828561362c91906154d1565b6136369190614ac7565b94506000898b6136469190615535565b896136519190615535565b905060008d82128061366e57508e878a61366b91906146a9565b11155b905060008161367d578f61368a565b878a61368991906146a9565b5b905060008f878361369b91906154d1565b6136a59190614ac7565b90506136bc89826136b69190614b64565b8c613b1c565b9950505050505050505099509950999650505050505050565b60006136e7836000018360001b613b35565b905092915050565b6000819050919050565b6000819050919050565b61370c816131cf565b61374b576040517f08c379a00000000000000000000000000000000000000000000000000000000081526004016137429061563b565b60405180910390fd5b806137787f360894a13ba1a3210667c828492db98dca3e2076cc3735a920a3ca505d382bbc60001b6136ef565b60000160006101000a81548173ffffffffffffffffffffffffffffffffffffffff021916908373ffffffffffffffffffffffffffffffffffffffff16021790555050565b6137c583613c49565b6000825111806137d25750805b156137e3576137e18383613c98565b505b505050565b600033905090565b6137f8611225565b613837576040517f08c379a000000000000000000000000000000000000000000000000000000000815260040161382e906156a7565b60405180910390fd5b565b600060019054906101000a900460ff16613888576040517f08c379a000000000000000000000000000000000000000000000000000000000815260040161387f906154b1565b60405180910390fd5b6001600c81905550565b600060019054906101000a900460ff166138e1576040517f08c379a00000000000000000000000000000000000000000000000000000000081526004016138d8906154b1565b60405180910390fd5b6138f16138ec6137e8565b613388565b565b600080600080849050600062253d8c62010bd98361391191906156c7565b61391b91906156c7565b9050600062023ab1826004613930919061575b565b61393a9190615872565b9050600460038262023ab161394f919061575b565b61395991906156c7565b6139639190615872565b8261396e9190615535565b9150600062164b0960018461398391906156c7565b610fa0613990919061575b565b61399a9190615872565b9050601f6004826105b56139ae919061575b565b6139b89190615872565b846139c39190615535565b6139cd91906156c7565b9250600061098f8460506139e1919061575b565b6139eb9190615872565b9050600060508261098f6139ff919061575b565b613a099190615872565b85613a149190615535565b9050600b82613a239190615872565b945084600c613a32919061575b565b600283613a3f91906156c7565b613a499190615535565b91508483603186613a5a9190615535565b6064613a66919061575b565b613a7091906156c7565b613a7a91906156c7565b92508298508197508096505050505050509193909250565b6000613a9e8383613d7c565b613af7578260000182908060018154018082558091505060019003906000526020600020016000909190919091505582600001805490508360010160008481526020019081526020016000208190555060019050613afc565b600090505b92915050565b6000613b14838361ffff166002613d9f565b905092915050565b6000818310613b2b5781613b2d565b825b905092915050565b60008083600101600084815260200190815260200160002054905060008114613c3d576000600182613b679190614b64565b9050600060018660000180549050613b7f9190614b64565b9050818114613bee576000866000018281548110613ba057613b9f6158dc565b5b9060005260206000200154905080876000018481548110613bc457613bc36158dc565b5b90600052602060002001819055508387600101600083815260200190815260200160002081905550505b85600001805480613c0257613c0161590b565b5b600190038181906000526020600020016000905590558560010160008681526020019081526020016000206000905560019350505050613c43565b60009150505b92915050565b613c5281613703565b8073ffffffffffffffffffffffffffffffffffffffff167fbc7cd75a20ee27fd9adebab32041f755214dbc6bffa90cc0225b39da2e5c2d3b60405160405180910390a250565b6060613ca3836131cf565b613ce2576040517f08c379a0000000000000000000000000000000000000000000000000000000008152600401613cd9906159ac565b60405180910390fd5b6000808473ffffffffffffffffffffffffffffffffffffffff1684604051613d0a9190615a46565b600060405180830381855af49150503d8060008114613d45576040519150601f19603f3d011682016040523d82523d6000602084013e613d4a565b606091505b5091509150613d728282604051806060016040528060278152602001615c4260279139613dc9565b9250505092915050565b600080836001016000848152602001908152602001600020541415905092915050565b6000613daa82613deb565b8385613db691906154d1565b613dc09190614ac7565b90509392505050565b60608315613dd957829050613de4565b613de38383613e0d565b5b9392505050565b600081600a613dfa9190615b90565b6064613e0691906154d1565b9050919050565b600082511115613e205781518083602001fd5b806040517f08c379a0000000000000000000000000000000000000000000000000000000008152600401613e549190615c1f565b60405180910390fd5b6000604051905090565b600080fd5b600080fd5b6000819050919050565b613e8481613e71565b8114613e8f57600080fd5b50565b600081359050613ea181613e7b565b92915050565b600060208284031215613ebd57613ebc613e67565b5b6000613ecb84828501613e92565b91505092915050565b613edd81613e71565b82525050565b6000602082019050613ef86000830184613ed4565b92915050565b60008115159050919050565b613f1381613efe565b82525050565b6000602082019050613f2e6000830184613f0a565b92915050565b600073ffffffffffffffffffffffffffffffffffffffff82169050919050565b6000613f5f82613f34565b9050919050565b613f6f81613f54565b8114613f7a57600080fd5b50565b600081359050613f8c81613f66565b92915050565b600060208284031215613fa857613fa7613e67565b5b6000613fb684828501613f7d565b91505092915050565b60008060408385031215613fd657613fd5613e67565b5b6000613fe485828601613f7d565b9250506020613ff585828601613f7d565b9150509250929050565b600080fd5b600080fd5b6000601f19601f8301169050919050565b7f4e487b7100000000000000000000000000000000000000000000000000000000600052604160045260246000fd5b61405282614009565b810181811067ffffffffffffffff821117156140715761407061401a565b5b80604052505050565b6000614084613e5d565b90506140908282614049565b919050565b600067ffffffffffffffff8211156140b0576140af61401a565b5b6140b982614009565b9050602081019050919050565b82818337600083830152505050565b60006140e86140e384614095565b61407a565b90508281526020810184848401111561410457614103614004565b5b61410f8482856140c6565b509392505050565b600082601f83011261412c5761412b613fff565b5b813561413c8482602086016140d5565b91505092915050565b6000806040838503121561415c5761415b613e67565b5b600061416a85828601613f7d565b925050602083013567ffffffffffffffff81111561418b5761418a613e6c565b5b61419785828601614117565b9150509250929050565b6000819050919050565b6141b4816141a1565b82525050565b60006020820190506141cf60008301846141ab565b92915050565b6141de81613f54565b82525050565b60006020820190506141f960008301846141d5565b92915050565b600063ffffffff82169050919050565b614218816141ff565b82525050565b6000602082019050614233600083018461420f565b92915050565b614242816141ff565b811461424d57600080fd5b50565b60008135905061425f81614239565b92915050565b600061ffff82169050919050565b61427c81614265565b811461428757600080fd5b50565b60008135905061429981614273565b92915050565b600080600080600080600060e0888a0312156142be576142bd613e67565b5b60006142cc8a828b01613f7d565b97505060206142dd8a828b01613e92565b96505060406142ee8a828b01613e92565b95505060606142ff8a828b01614250565b94505060806143108a828b01614250565b93505060a06143218a828b0161428a565b92505060c06143328a828b01613f7d565b91505092959891949750929550565b6000819050919050565b600061436661436161435c84613f34565b614341565b613f34565b9050919050565b60006143788261434b565b9050919050565b600061438a8261436d565b9050919050565b61439a8161437f565b82525050565b6143a981613e71565b82525050565b6040820160008201516143c560008501826143a0565b5060208201516143d860208501826143a0565b50505050565b6143e7816141ff565b82525050565b6143f681614265565b82525050565b610120820160008201516144136000850182614391565b50602082015161442660208501826143a0565b50604082015161443960408501826143af565b50606082015161444c60808501826143de565b50608082015161445f60a08501826143de565b5060a082015161447260c08501826143de565b5060c082015161448560e08501826143de565b5060e08201516144996101008501826143ed565b50505050565b60c0820160008201516144b560008501826143a0565b5060208201516144c860208501826143a0565b5060408201516144db60408501826143de565b5060608201516144ee60608501826143ed565b50608082015161450160808501826143de565b5060a082015161451460a08501826143de565b50505050565b7f4e487b7100000000000000000000000000000000000000000000000000000000600052602160045260246000fd5b6004811061455a5761455961451a565b5b50565b600081905061456b82614549565b919050565b600061457b8261455d565b9050919050565b61458b81614570565b82525050565b6000610280820190506145a7600083018a6141d5565b6145b460208301896141d5565b6145c160408301886141d5565b6145ce6060830187613ed4565b6145db60808301866143fc565b6145e96101a083018561449f565b6145f7610260830184614582565b98975050505050505050565b6000806040838503121561461a57614619613e67565b5b600061462885828601613f7d565b925050602061463985828601613e92565b9150509250929050565b60006060820190506146586000830186613ed4565b6146656020830185613ed4565b6146726040830184613ed4565b949350505050565b7f4e487b7100000000000000000000000000000000000000000000000000000000600052601160045260246000fd5b60006146b482613e71565b91506146bf83613e71565b9250827fffffffffffffffffffffffffffffffffffffffffffffffffffffffffffffffff038211156146f4576146f361467a565b5b828201905092915050565b600061470a826141ff565b9150614715836141ff565b92508263ffffffff0382111561472e5761472d61467a565b5b828201905092915050565b600082825260208201905092915050565b7f46756e6374696f6e206d7573742062652063616c6c6564207468726f7567682060008201527f64656c656761746563616c6c0000000000000000000000000000000000000000602082015250565b60006147a6602c83614739565b91506147b18261474a565b604082019050919050565b600060208201905081810360008301526147d581614799565b9050919050565b7f46756e6374696f6e206d7573742062652063616c6c6564207468726f7567682060008201527f6163746976652070726f78790000000000000000000000000000000000000000602082015250565b6000614838602c83614739565b9150614843826147dc565b604082019050919050565b600060208201905081810360008301526148678161482b565b9050919050565b7f496e697469616c697a61626c653a20636f6e747261637420697320616c72656160008201527f647920696e697469616c697a6564000000000000000000000000000000000000602082015250565b60006148ca602e83614739565b91506148d58261486e565b604082019050919050565b600060208201905081810360008301526148f9816148bd565b9050919050565b6000819050919050565b600060ff82169050919050565b600061493261492d61492884614900565b614341565b61490a565b9050919050565b61494281614917565b82525050565b600060208201905061495d6000830184614939565b92915050565b7f555550535570677261646561626c653a206d757374206e6f742062652063616c60008201527f6c6564207468726f7567682064656c656761746563616c6c0000000000000000602082015250565b60006149bf603883614739565b91506149ca82614963565b604082019050919050565b600060208201905081810360008301526149ee816149b2565b9050919050565b6000614a00826141ff565b9150614a0b836141ff565b925082821015614a1e57614a1d61467a565b5b828203905092915050565b7f4e487b7100000000000000000000000000000000000000000000000000000000600052601260045260246000fd5b6000614a63826141ff565b9150614a6e836141ff565b925082614a7e57614a7d614a29565b5b828204905092915050565b6000614a94826141ff565b9150614a9f836141ff565b92508163ffffffff0483118215151615614abc57614abb61467a565b5b828202905092915050565b6000614ad282613e71565b9150614add83613e71565b925082614aed57614aec614a29565b5b828204905092915050565b7f6c6f770000000000000000000000000000000000000000000000000000000000600082015250565b6000614b2e600383614739565b9150614b3982614af8565b602082019050919050565b60006020820190508181036000830152614b5d81614b21565b9050919050565b6000614b6f82613e71565b9150614b7a83613e71565b925082821015614b8d57614b8c61467a565b5b828203905092915050565b6000614ba3826141ff565b915063ffffffff821415614bba57614bb961467a565b5b600182019050919050565b6000604082019050614bda6000830185613ed4565b614be760208301846141d5565b9392505050565b614bf781613efe565b8114614c0257600080fd5b50565b600081519050614c1481614bee565b92915050565b614c23816141a1565b8114614c2e57600080fd5b50565b600081519050614c4081614c1a565b92915050565b60008060408385031215614c5d57614c5c613e67565b5b6000614c6b85828601614c05565b9250506020614c7c85828601614c31565b9150509250929050565b600060208284031215614c9c57614c9b613e67565b5b6000614caa84828501614c05565b91505092915050565b6000614cbe826141ff565b9150614cc9836141ff565b925082614cd957614cd8614a29565b5b828206905092915050565b600081519050614cf381614273565b92915050565b600060208284031215614d0f57614d0e613e67565b5b6000614d1d84828501614ce4565b91505092915050565b600081519050614d3581614239565b92915050565b600060208284031215614d5157614d50613e67565b5b6000614d5f84828501614d26565b91505092915050565b614d7181613e71565b82525050565b614d80816141ff565b82525050565b614d8f81614265565b82525050565b6000608082019050614daa6000830187614d68565b614db76020830186614d77565b614dc46040830185614d77565b614dd16060830184614d86565b95945050505050565b600081519050614de981613e7b565b92915050565b600060208284031215614e0557614e04613e67565b5b6000614e1384828501614dda565b91505092915050565b6000604082019050614e3160008301856141d5565b614e3e6020830184613ed4565b9392505050565b6000614e5082613e71565b91507fffffffffffffffffffffffffffffffffffffffffffffffffffffffffffffffff821415614e8357614e8261467a565b5b600182019050919050565b8082525050565b614e9e81613f54565b82525050565b6000606082019050614eb96000830186614e8e565b614ec66020830185614e95565b614ed36040830184614e95565b949350505050565b600080600060608486031215614ef457614ef3613e67565b5b6000614f0286828701614dda565b9350506020614f1386828701614dda565b9250506040614f2486828701614dda565b9150509250925092565b600081905092915050565b7f70726f746f636f6c000000000000000000000000000000000000000000000000600082015250565b6000614f6f600883614f2e565b9150614f7a82614f39565b600882019050919050565b6000614f9082614f62565b9150819050919050565b7f506f6f6c00000000000000000000000000000000000000000000000000000000600082015250565b6000614fd0600483614f2e565b9150614fdb82614f9a565b600482019050919050565b6000614ff182614fc3565b9150819050919050565b7f426f72726f776572000000000000000000000000000000000000000000000000600082015250565b6000615031600883614f2e565b915061503c82614ffb565b600882019050919050565b600061505282615024565b9150819050919050565b60008160030b9050919050565b60006150748261505c565b915061507f8361505c565b9250827fffffffffffffffffffffffffffffffffffffffffffffffffffffffff80000000018212600084121516156150ba576150b961467a565b5b82637fffffff0182136000841216156150d6576150d561467a565b5b828203905092915050565b7f4f776e61626c653a206e6577206f776e657220697320746865207a65726f206160008201527f6464726573730000000000000000000000000000000000000000000000000000602082015250565b600061513d602683614739565b9150615148826150e1565b604082019050919050565b6000602082019050818103600083015261516c81615130565b9050919050565b7f5265656e7472616e637947756172643a207265656e7472616e742063616c6c00600082015250565b60006151a9601f83614739565b91506151b482615173565b602082019050919050565b600060208201905081810360008301526151d88161519c565b9050919050565b7f5061757361626c653a2070617573656400000000000000000000000000000000600082015250565b6000615215601083614739565b9150615220826151df565b602082019050919050565b6000602082019050818103600083015261524481615208565b9050919050565b600060608201905061526060008301866141d5565b61526d60208301856141d5565b61527a6040830184613ed4565b949350505050565b60006020828403121561529857615297613e67565b5b60006152a684828501614c31565b91505092915050565b7f45524331393637557067726164653a206e657720696d706c656d656e7461746960008201527f6f6e206973206e6f742055555053000000000000000000000000000000000000602082015250565b600061530b602e83614739565b9150615316826152af565b604082019050919050565b6000602082019050818103600083015261533a816152fe565b9050919050565b7f45524331393637557067726164653a20756e737570706f727465642070726f7860008201527f6961626c65555549440000000000000000000000000000000000000000000000602082015250565b600061539d602983614739565b91506153a882615341565b604082019050919050565b600060208201905081810360008301526153cc81615390565b9050919050565b7f4f776e61626c653a2063616c6c6572206973206e6f7420746865206f776e6572600082015250565b6000615409602083614739565b9150615414826153d3565b602082019050919050565b60006020820190508181036000830152615438816153fc565b9050919050565b7f496e697469616c697a61626c653a20636f6e7472616374206973206e6f74206960008201527f6e697469616c697a696e67000000000000000000000000000000000000000000602082015250565b600061549b602b83614739565b91506154a68261543f565b604082019050919050565b600060208201905081810360008301526154ca8161548e565b9050919050565b60006154dc82613e71565b91506154e783613e71565b9250817fffffffffffffffffffffffffffffffffffffffffffffffffffffffffffffffff04831182151516156155205761551f61467a565b5b828202905092915050565b6000819050919050565b60006155408261552b565b915061554b8361552b565b9250827f8000000000000000000000000000000000000000000000000000000000000000018212600084121516156155865761558561467a565b5b827f7fffffffffffffffffffffffffffffffffffffffffffffffffffffffffffffff0182136000841216156155be576155bd61467a565b5b828203905092915050565b7f455243313936373a206e657720696d706c656d656e746174696f6e206973206e60008201527f6f74206120636f6e747261637400000000000000000000000000000000000000602082015250565b6000615625602d83614739565b9150615630826155c9565b604082019050919050565b6000602082019050818103600083015261565481615618565b9050919050565b7f5061757361626c653a206e6f7420706175736564000000000000000000000000600082015250565b6000615691601483614739565b915061569c8261565b565b602082019050919050565b600060208201905081810360008301526156c081615684565b9050919050565b60006156d28261552b565b91506156dd8361552b565b9250817f7fffffffffffffffffffffffffffffffffffffffffffffffffffffffffffffff038313600083121516156157185761571761467a565b5b817f80000000000000000000000000000000000000000000000000000000000000000383126000831216156157505761574f61467a565b5b828201905092915050565b60006157668261552b565b91506157718361552b565b9250827f7fffffffffffffffffffffffffffffffffffffffffffffffffffffffffffffff04821160008413600084131616156157b0576157af61467a565b5b817f800000000000000000000000000000000000000000000000000000000000000005831260008412600084131616156157ed576157ec61467a565b5b827f8000000000000000000000000000000000000000000000000000000000000000058212600084136000841216161561582a5761582961467a565b5b827f7fffffffffffffffffffffffffffffffffffffffffffffffffffffffffffffff05821260008412600084121616156158675761586661467a565b5b828202905092915050565b600061587d8261552b565b91506158888361552b565b92508261589857615897614a29565b5b600160000383147f8000000000000000000000000000000000000000000000000000000000000000831416156158d1576158d061467a565b5b828205905092915050565b7f4e487b7100000000000000000000000000000000000000000000000000000000600052603260045260246000fd5b7f4e487b7100000000000000000000000000000000000000000000000000000000600052603160045260246000fd5b7f416464726573733a2064656c65676174652063616c6c20746f206e6f6e2d636f60008201527f6e74726163740000000000000000000000000000000000000000000000000000602082015250565b6000615996602683614739565b91506159a18261593a565b604082019050919050565b600060208201905081810360008301526159c581615989565b9050919050565b600081519050919050565b600081905092915050565b60005b83811015615a005780820151818401526020810190506159e5565b83811115615a0f576000848401525b50505050565b6000615a20826159cc565b615a2a81856159d7565b9350615a3a8185602086016159e2565b80840191505092915050565b6000615a528284615a15565b915081905092915050565b60008160011c9050919050565b6000808291508390505b6001851115615ab457808604811115615a9057615a8f61467a565b5b6001851615615a9f5780820291505b8081029050615aad85615a5d565b9450615a74565b94509492505050565b600082615acd5760019050615b89565b81615adb5760009050615b89565b8160018114615af15760028114615afb57615b2a565b6001915050615b89565b60ff841115615b0d57615b0c61467a565b5b8360020a915084821115615b2457615b2361467a565b5b50615b89565b5060208310610133831016604e8410600b8410161715615b5f5782820a905083811115615b5a57615b5961467a565b5b615b89565b615b6c8484846001615a6a565b92509050818404811115615b8357615b8261467a565b5b81810290505b9392505050565b6000615b9b82613e71565b9150615ba683613e71565b9250615bd37fffffffffffffffffffffffffffffffffffffffffffffffffffffffffffffffff8484615abd565b905092915050565b600081519050919050565b6000615bf182615bdb565b615bfb8185614739565b9350615c0b8185602086016159e2565b615c1481614009565b840191505092915050565b60006020820190508181036000830152615c398184615be6565b90509291505056fe416464726573733a206c6f772d6c6576656c2064656c65676174652063616c6c206661696c6564a264697066735822122079364b0d46427b7b7d6fda8602d1a5b23e143c9e5af4442c38d1878c7b1bf15264736f6c634300080b0033",
  "immutableReferences": {
    "720": [
      {
        "length": 32,
        "start": 2866
      },
      {
        "length": 32,
        "start": 3009
      },
      {
        "length": 32,
        "start": 3775
      },
      {
        "length": 32,
        "start": 3918
      },
      {
        "length": 32,
        "start": 4094
      }
    ]
  },
  "source": "// SPDX-License-Identifier: MIT\npragma solidity 0.8.11;\n\nimport \"@openzeppelin/contracts/token/ERC20/IERC20.sol\";\nimport \"@openzeppelin/contracts/utils/Counters.sol\";\nimport {SafeMath} from \"@openzeppelin/contracts/utils/math/SafeMath.sol\";\nimport {EnumerableSet} from \"@openzeppelin/contracts/utils/structs/EnumerableSet.sol\";\nimport \"@openzeppelin/contracts-upgradeable/security/ReentrancyGuardUpgradeable.sol\";\nimport \"@openzeppelin/contracts-upgradeable/security/PausableUpgradeable.sol\";\nimport \"@openzeppelin/contracts-upgradeable/proxy/utils/UUPSUpgradeable.sol\";\nimport \"@openzeppelin/contracts-upgradeable/access/OwnableUpgradeable.sol\";\nimport \"./poolRegistry.sol\";\nimport \"./poolStorage.sol\";\nimport \"./AconomyFee.sol\";\nimport \"./Libraries/LibCalculations.sol\";\nimport \"./Libraries/LibPoolAddress.sol\";\nimport {BokkyPooBahsDateTimeLibrary as BPBDTL} from \"./Libraries/DateTimeLib.sol\";\n\ncontract poolAddress is\n    poolStorage,\n    ReentrancyGuardUpgradeable,\n    PausableUpgradeable,\n    OwnableUpgradeable,\n    UUPSUpgradeable\n{\n    using SafeMath for uint256;\n    using EnumerableSet for EnumerableSet.UintSet;\n\n    /// @custom:oz-upgrades-unsafe-allow constructor\n    constructor() {\n        _disableInitializers();\n    }\n\n    function initialize(\n        address _poolRegistry,\n        address _AconomyFeeAddress\n    ) public initializer {\n        __ReentrancyGuard_init();\n        __Ownable_init();\n        __UUPSUpgradeable_init();\n        poolRegistryAddress = _poolRegistry;\n        AconomyFeeAddress = _AconomyFeeAddress;\n        loanId = 0;\n    }\n\n    function pause() external onlyOwner {\n        _pause();\n    }\n\n    function unpause() external onlyOwner {\n        _unpause();\n    }\n\n    event loanAccepted(uint256 indexed loanId, address indexed lender);\n\n    event repaidAmounts(\n        uint256 owedPrincipal,\n        uint256 duePrincipal,\n        uint256 interest\n    );\n    event AcceptedLoanDetail(\n        uint256 indexed loanId,\n        string indexed feeType,\n        uint256 indexed amount\n    );\n\n    event LoanRepaid(uint256 indexed loanId, uint256 Amount);\n    event LoanRepayment(uint256 indexed loanId, uint256 Amount);\n\n    event SubmittedLoan(\n        uint256 indexed loanId,\n        address indexed borrower,\n        address receiver,\n        uint256 paymentCycleAmount\n    );\n\n    /**\n     * @notice Lets a borrower request for a loan.\n     * @dev Returned value is type uint256.\n     * @param _lendingToken The address of the token being requested.\n     * @param _poolId The Id of the pool.\n     * @param _principal The principal amount being requested.\n     * @param _duration The duration of the loan.\n     * @param _expirationDuration The time in which the loan has to be accepted before it expires.\n     * @param _APR The annual interest percentage in bps.\n     * @param _receiver The receiver of the funds.\n     * @return loanId_ Id of the loan.\n     */\n    function loanRequest(\n        address _lendingToken,\n        uint256 _poolId,\n        uint256 _principal,\n        uint32 _duration,\n        uint32 _expirationDuration,\n        uint16 _APR,\n        address _receiver\n    ) public whenNotPaused returns (uint256 loanId_) {\n        require(_lendingToken != address(0));\n        require(_receiver != address(0));\n        (bool isVerified, ) = poolRegistry(poolRegistryAddress)\n            .borrowerVerification(_poolId, msg.sender);\n        require(isVerified);\n        require(!poolRegistry(poolRegistryAddress).ClosedPool(_poolId));\n        require(_duration % 30 days == 0);\n        require(_APR >= 100);\n        require(_principal >= 1000000, \"low\");\n        require(_expirationDuration > 0);\n\n        loanId_ = loanId;\n\n        poolLoans[_poolId] = loanId_;\n\n        uint16 fee = AconomyFee(AconomyFeeAddress).AconomyPoolFee();\n\n        // Create and store our loan into the mapping\n        Loan storage loan = loans[loanId];\n        loan.borrower = msg.sender;\n        loan.receiver = _receiver != address(0) ? _receiver : loan.borrower;\n        loan.poolId = _poolId;\n        loan.loanDetails.lendingToken = ERC20(_lendingToken);\n        loan.loanDetails.principal = _principal;\n        loan.loanDetails.loanDuration = _duration;\n        loan.loanDetails.timestamp = uint32(block.timestamp);\n        loan.loanDetails.protocolFee = fee;\n        loan.terms.installments = _duration / 30 days;\n        loan.terms.installmentsPaid = 0;\n\n        loan.terms.paymentCycle = poolRegistry(poolRegistryAddress)\n            .getPaymentCycleDuration(_poolId);\n\n        loan.terms.APR = _APR;\n\n        loanDefaultDuration[loanId] = poolRegistry(poolRegistryAddress)\n            .getPaymentDefaultDuration(_poolId);\n\n        loanExpirationDuration[loanId] = _expirationDuration;\n\n        loan.terms.paymentCycleAmount = LibCalculations.payment(\n            _principal,\n            _duration,\n            loan.terms.paymentCycle,\n            _APR\n        );\n\n        uint256 monthlyPrincipal = _principal / loan.terms.installments;\n\n        loan.terms.monthlyCycleInterest =\n            loan.terms.paymentCycleAmount -\n            monthlyPrincipal;\n\n        loan.state = LoanState.PENDING;\n\n        emit SubmittedLoan(\n            loanId,\n            loan.borrower,\n            loan.receiver,\n            loan.terms.paymentCycleAmount\n        );\n\n        // Store loan inside borrower loans mapping\n        borrowerLoans[loan.borrower].push(loanId);\n\n        // Increment loan id\n        loanId++;\n    }\n\n    /**\n     * @notice Accepts the loan request.\n     * @param _loanId The Id of the loan.\n     */\n    function AcceptLoan(\n        uint256 _loanId\n    )\n        external\n        whenNotPaused\n        nonReentrant\n        returns (\n            uint256 amountToAconomy,\n            uint256 amountToPool,\n            uint256 amountToBorrower\n        )\n    {\n        Loan storage loan = loans[_loanId];\n        require(!isLoanExpired(_loanId));\n\n        (amountToAconomy, amountToPool, amountToBorrower) = LibPoolAddress\n            .acceptLoan(loan, poolRegistryAddress, AconomyFeeAddress);\n\n        // Record Amount filled by lenders\n        lenderLendAmount[address(loan.loanDetails.lendingToken)][\n            loan.lender\n        ] += loan.loanDetails.principal;\n        totalERC20Amount[address(loan.loanDetails.lendingToken)] += loan\n            .loanDetails\n            .principal;\n\n        // Store Borrower's active loan\n        require(borrowerActiveLoans[loan.borrower].add(_loanId));\n\n        emit loanAccepted(_loanId, loan.lender);\n\n        emit AcceptedLoanDetail(_loanId, \"protocol\", amountToAconomy);\n        emit AcceptedLoanDetail(_loanId, \"Pool\", amountToPool);\n        emit AcceptedLoanDetail(_loanId, \"Borrower\", amountToBorrower);\n    }\n\n    /**\n     * @notice Checks if the loan has expired.\n     * @dev Return type is of boolean.\n     * @param _loanId The Id of the loan.\n     * @return boolean indicating if the loan is expired.\n     */\n    function isLoanExpired(uint256 _loanId) public view returns (bool) {\n        Loan storage loan = loans[_loanId];\n\n        if (loan.state != LoanState.PENDING) return false;\n        if (loanExpirationDuration[_loanId] == 0) return false;\n\n        return (uint32(block.timestamp) >\n            loan.loanDetails.timestamp + loanExpirationDuration[_loanId]);\n    }\n\n    /**\n     * @notice Checks if the loan has defaulted.\n     * @dev Return type is of boolean.\n     * @param _loanId The Id of the loan.\n     * @return boolean indicating if the loan is defaulted.\n     */\n    function isLoanDefaulted(uint256 _loanId) public view returns (bool) {\n        Loan storage loan = loans[_loanId];\n\n        // Make sure loan cannot be liquidated if it is not active\n        if (loan.state != LoanState.ACCEPTED) return false;\n\n        if (loanDefaultDuration[_loanId] == 0) return false;\n\n        return ((int32(uint32(block.timestamp)) -\n            int32(\n                loan.loanDetails.acceptedTimestamp +\n                    loan.loanDetails.loanDuration\n            )) > int32(loanDefaultDuration[_loanId]));\n    }\n\n    /**\n     * @notice Returns the last repaid timestamp of the loan.\n     * @dev Return type is of uint32.\n     * @param _loanId The Id of the loan.\n     * @return timestamp in uint32.\n     */\n    function lastRepaidTimestamp(uint256 _loanId) public view returns (uint32) {\n        return LibCalculations.lastRepaidTimestamp(loans[_loanId]);\n    }\n\n    /**\n     * @notice Checks if the loan repayment is late.\n     * @dev Return type is of boolean.\n     * @param _loanId The Id of the loan.\n     * @return boolean indicating if the loan repayment is late.\n     */\n    function isPaymentLate(uint256 _loanId) public view returns (bool) {\n        if (loans[_loanId].state != LoanState.ACCEPTED) return false;\n        return uint32(block.timestamp) > calculateNextDueDate(_loanId) + 7 days;\n    }\n\n    /**\n     * @notice Calculates the next repayment due date.\n     * @dev Return type is of uint32.\n     * @param _loanId The Id of the loan.\n     * @return dueDate_ The timestamp of the next payment due date.\n     */\n    function calculateNextDueDate(\n        uint256 _loanId\n    ) public view returns (uint32 dueDate_) {\n        Loan storage loan = loans[_loanId];\n        if (loans[_loanId].state != LoanState.ACCEPTED) return dueDate_;\n\n        // Start with the original due date being 1 payment cycle since loan was accepted\n        dueDate_ = loan.loanDetails.acceptedTimestamp + loan.terms.paymentCycle;\n\n        // Calculate the cycle number the last repayment was made\n        uint32 delta = lastRepaidTimestamp(_loanId) -\n            loan.loanDetails.acceptedTimestamp;\n        if (delta > 0) {\n            uint32 repaymentCycle = (delta / loan.terms.paymentCycle);\n            dueDate_ += (repaymentCycle * loan.terms.paymentCycle);\n        }\n\n        //if we are in the last payment cycle, the next due date is the end of loan duration\n        if (\n            dueDate_ >\n            loan.loanDetails.acceptedTimestamp + loan.loanDetails.loanDuration\n        ) {\n            dueDate_ =\n                loan.loanDetails.acceptedTimestamp +\n                loan.loanDetails.loanDuration;\n        }\n    }\n\n    /**\n     * @notice Returns the installment amount to be paid at the called timestamp.\n     * @dev Return type is of uint256.\n     * @param _loanId The Id of the loan.\n     * @return uint256 of the installment amount to be paid.\n     */\n    function viewInstallmentAmount(\n        uint256 _loanId\n    ) external view returns (uint256) {\n        uint32 LastRepaidTimestamp = lastRepaidTimestamp(_loanId);\n        uint256 lastPaymentCycle = BPBDTL.diffMonths(\n            loans[_loanId].loanDetails.acceptedTimestamp,\n            LastRepaidTimestamp\n        );\n        uint256 monthsSinceStart = BPBDTL.diffMonths(\n            loans[_loanId].loanDetails.acceptedTimestamp,\n            block.timestamp\n        );\n\n        if (\n            loans[_loanId].terms.installmentsPaid + 1 ==\n            loans[_loanId].terms.installments\n        ) {\n            return viewFullRepayAmount(_loanId);\n        }\n\n        if (monthsSinceStart > lastPaymentCycle) {\n            return loans[_loanId].terms.paymentCycleAmount;\n        } else {\n            return 0;\n        }\n    }\n\n    /**\n     * @notice Repays the monthly installment.\n     * @param _loanId The Id of the loan.\n     */\n    function repayMonthlyInstallment(\n        uint256 _loanId\n    ) external whenNotPaused nonReentrant {\n        require(loans[_loanId].loanDetails.principal / uint256(loans[_loanId].terms.installments) >= 1000000, \"low\");\n        require(loans[_loanId].state == LoanState.ACCEPTED);\n        require(\n            loans[_loanId].terms.installmentsPaid + 1 <=\n                loans[_loanId].terms.installments\n        );\n        require(block.timestamp > calculateNextDueDate(_loanId));\n\n        if (\n            loans[_loanId].terms.installmentsPaid + 1 ==\n            loans[_loanId].terms.installments\n        ) {\n            _repayFullLoan(_loanId);\n        } else {\n            uint256 monthlyInterest = loans[_loanId].terms.monthlyCycleInterest;\n            uint256 monthlyDue = loans[_loanId].terms.paymentCycleAmount;\n            uint256 due = monthlyDue - monthlyInterest;\n\n            (uint256 owedAmount, , uint256 interest) = LibCalculations\n                .owedAmount(loans[_loanId], block.timestamp);\n            loans[_loanId].terms.installmentsPaid++;\n\n            _repayLoan(\n                _loanId,\n                Payment({principal: due, interest: monthlyInterest}),\n                owedAmount + interest\n            );\n            loans[_loanId].loanDetails.lastRepaidTimestamp =\n                loans[_loanId].loanDetails.acceptedTimestamp +\n                (loans[_loanId].terms.installmentsPaid *\n                    loans[_loanId].terms.paymentCycle);\n        }\n    }\n\n    /**\n     * @notice Returns the full amount to be paid at the called timestamp.\n     * @dev Return type is of uint256.\n     * @param _loanId The Id of the loan.\n     * @return uint256 of the full amount to be paid.\n     */\n    function viewFullRepayAmount(\n        uint256 _loanId\n    ) public view returns (uint256) {\n        (uint256 owedAmount, , uint256 interest) = LibCalculations.owedAmount(\n            loans[_loanId],\n            block.timestamp + 10 minutes\n        );\n\n        uint256 paymentAmount = owedAmount + interest;\n        if (\n            loans[_loanId].state != LoanState.ACCEPTED ||\n            loans[_loanId].state == LoanState.PAID\n        ) {\n            paymentAmount = 0;\n        }\n        return paymentAmount;\n    }\n\n    /**\n     * @notice Repays the full amount to be paid at the called timestamp.\n     * @param _loanId The Id of the loan.\n     */\n    function _repayFullLoan(uint256 _loanId) private {\n        require(loans[_loanId].state == LoanState.ACCEPTED);\n        (uint256 owedPrincipal, , uint256 interest) = LibCalculations\n            .owedAmount(loans[_loanId], block.timestamp);\n        _repayLoan(\n            _loanId,\n            Payment({principal: owedPrincipal, interest: interest}),\n            owedPrincipal + interest\n        );\n    }\n\n    /**\n     * @notice Repays the full amount to be paid at the called timestamp.\n     * @param _loanId The Id of the loan.\n     */\n    function repayFullLoan(\n        uint256 _loanId\n    ) external nonReentrant whenNotPaused {\n        require(loans[_loanId].state == LoanState.ACCEPTED);\n        (uint256 owedPrincipal, , uint256 interest) = LibCalculations\n            .owedAmount(loans[_loanId], block.timestamp);\n        _repayLoan(\n            _loanId,\n            Payment({principal: owedPrincipal, interest: interest}),\n            owedPrincipal + interest\n        );\n    }\n\n    /**\n     * @notice Repays the specified amount.\n     * @param _loanId The Id of the loan.\n     * @param _payment The amount being paid split into principal and interest.\n     * @param _owedAmount The total amount owed at the called timestamp.\n     */\n    function _repayLoan(\n        uint256 _loanId,\n        Payment memory _payment,\n        uint256 _owedAmount\n    ) internal {\n        Loan storage loan = loans[_loanId];\n        uint256 paymentAmount = _payment.principal + _payment.interest;\n\n        // Check if we are sending a payment or amount remaining\n        if (paymentAmount >= _owedAmount) {\n            paymentAmount = _owedAmount;\n            loan.state = LoanState.PAID;\n\n            // Remove borrower's active loan\n            require(borrowerActiveLoans[loan.borrower].remove(_loanId));\n\n            emit LoanRepaid(_loanId, paymentAmount);\n        } else {\n            emit LoanRepayment(_loanId, paymentAmount);\n        }\n\n        loan.loanDetails.totalRepaid.principal += _payment.principal;\n        loan.loanDetails.totalRepaid.interest += _payment.interest;\n        loan.loanDetails.lastRepaidTimestamp = uint32(block.timestamp);\n\n        // Send payment to the lender\n        bool isSuccess = IERC20(loan.loanDetails.lendingToken).transferFrom(\n            msg.sender,\n            loan.lender,\n            paymentAmount\n        );\n\n        require(isSuccess);\n    }\n\n    function _authorizeUpgrade(address) internal override onlyOwner {}\n}\n",
  "sourcePath": "/media/dell/17f09f70-0626-4927-a787-2813ab7ed2c0/dell/Pandora/pooolAddress Pandora Git/aconomy-contract/contracts/poolAddress.sol",
  "compiler": {
    "name": "solc",
    "version": "0.8.11+commit.d7f03943.Emscripten.clang"
  },
  "schemaVersion": "3.4.10",
  "updatedAt": "2023-09-20T09:28:14.842Z",
  "networkType": "ethereum",
  "devdoc": {
    "kind": "dev",
    "methods": {
      "AcceptLoan(uint256)": {
        "params": {
          "_loanId": "The Id of the loan."
        }
      },
      "calculateNextDueDate(uint256)": {
        "details": "Return type is of uint32.",
        "params": {
          "_loanId": "The Id of the loan."
        },
        "returns": {
          "dueDate_": "The timestamp of the next payment due date."
        }
      },
      "constructor": {
        "custom:oz-upgrades-unsafe-allow": "constructor"
      },
      "isLoanDefaulted(uint256)": {
        "details": "Return type is of boolean.",
        "params": {
          "_loanId": "The Id of the loan."
        },
        "returns": {
          "_0": "boolean indicating if the loan is defaulted."
        }
      },
      "isLoanExpired(uint256)": {
        "details": "Return type is of boolean.",
        "params": {
          "_loanId": "The Id of the loan."
        },
        "returns": {
          "_0": "boolean indicating if the loan is expired."
        }
      },
      "isPaymentLate(uint256)": {
        "details": "Return type is of boolean.",
        "params": {
          "_loanId": "The Id of the loan."
        },
        "returns": {
          "_0": "boolean indicating if the loan repayment is late."
        }
      },
      "lastRepaidTimestamp(uint256)": {
        "details": "Return type is of uint32.",
        "params": {
          "_loanId": "The Id of the loan."
        },
        "returns": {
          "_0": "timestamp in uint32."
        }
      },
      "loanRequest(address,uint256,uint256,uint32,uint32,uint16,address)": {
        "details": "Returned value is type uint256.",
        "params": {
          "_APR": "The annual interest percentage in bps.",
          "_duration": "The duration of the loan.",
          "_expirationDuration": "The time in which the loan has to be accepted before it expires.",
          "_lendingToken": "The address of the token being requested.",
          "_poolId": "The Id of the pool.",
          "_principal": "The principal amount being requested.",
          "_receiver": "The receiver of the funds."
        },
        "returns": {
          "loanId_": "Id of the loan."
        }
      },
      "owner()": {
        "details": "Returns the address of the current owner."
      },
      "paused()": {
        "details": "Returns true if the contract is paused, and false otherwise."
      },
      "proxiableUUID()": {
        "details": "Implementation of the ERC1822 {proxiableUUID} function. This returns the storage slot used by the implementation. It is used to validate the implementation's compatibility when performing an upgrade. IMPORTANT: A proxy pointing at a proxiable contract should not be considered proxiable itself, because this risks bricking a proxy that upgrades to it, by delegating to itself until out of gas. Thus it is critical that this function revert if invoked through a proxy. This is guaranteed by the `notDelegated` modifier."
      },
      "renounceOwnership()": {
        "details": "Leaves the contract without owner. It will not be possible to call `onlyOwner` functions anymore. Can only be called by the current owner. NOTE: Renouncing ownership will leave the contract without an owner, thereby removing any functionality that is only available to the owner."
      },
      "repayFullLoan(uint256)": {
        "params": {
          "_loanId": "The Id of the loan."
        }
      },
      "repayMonthlyInstallment(uint256)": {
        "params": {
          "_loanId": "The Id of the loan."
        }
      },
      "transferOwnership(address)": {
        "details": "Transfers ownership of the contract to a new account (`newOwner`). Can only be called by the current owner."
      },
      "upgradeTo(address)": {
        "details": "Upgrade the implementation of the proxy to `newImplementation`. Calls {_authorizeUpgrade}. Emits an {Upgraded} event."
      },
      "upgradeToAndCall(address,bytes)": {
        "details": "Upgrade the implementation of the proxy to `newImplementation`, and subsequently execute the function call encoded in `data`. Calls {_authorizeUpgrade}. Emits an {Upgraded} event."
      },
      "viewFullRepayAmount(uint256)": {
        "details": "Return type is of uint256.",
        "params": {
          "_loanId": "The Id of the loan."
        },
        "returns": {
          "_0": "uint256 of the full amount to be paid."
        }
      },
      "viewInstallmentAmount(uint256)": {
        "details": "Return type is of uint256.",
        "params": {
          "_loanId": "The Id of the loan."
        },
        "returns": {
          "_0": "uint256 of the installment amount to be paid."
        }
      }
    },
    "version": 1
  },
  "userdoc": {
    "kind": "user",
    "methods": {
      "AcceptLoan(uint256)": {
        "notice": "Accepts the loan request."
      },
      "calculateNextDueDate(uint256)": {
        "notice": "Calculates the next repayment due date."
      },
      "isLoanDefaulted(uint256)": {
        "notice": "Checks if the loan has defaulted."
      },
      "isLoanExpired(uint256)": {
        "notice": "Checks if the loan has expired."
      },
      "isPaymentLate(uint256)": {
        "notice": "Checks if the loan repayment is late."
      },
      "lastRepaidTimestamp(uint256)": {
        "notice": "Returns the last repaid timestamp of the loan."
      },
      "loanRequest(address,uint256,uint256,uint32,uint32,uint16,address)": {
        "notice": "Lets a borrower request for a loan."
      },
      "repayFullLoan(uint256)": {
        "notice": "Repays the full amount to be paid at the called timestamp."
      },
      "repayMonthlyInstallment(uint256)": {
        "notice": "Repays the monthly installment."
      },
      "viewFullRepayAmount(uint256)": {
        "notice": "Returns the full amount to be paid at the called timestamp."
      },
      "viewInstallmentAmount(uint256)": {
        "notice": "Returns the installment amount to be paid at the called timestamp."
      }
    },
    "version": 1
  }
}