{
  "contractName": "poolAddress",
  "abi": [
    {
      "inputs": [
        {
          "internalType": "address",
          "name": "_poolRegistry",
          "type": "address"
        },
        {
          "internalType": "address",
          "name": "_AconomyFeeAddress",
          "type": "address"
        }
      ],
      "stateMutability": "nonpayable",
      "type": "constructor"
    },
    {
      "anonymous": false,
      "inputs": [
        {
          "indexed": true,
          "internalType": "uint256",
          "name": "loanId",
          "type": "uint256"
        },
        {
          "indexed": true,
          "internalType": "string",
          "name": "feeType",
          "type": "string"
        },
        {
          "indexed": true,
          "internalType": "uint256",
          "name": "amount",
          "type": "uint256"
        }
      ],
      "name": "AcceptedLoanDetail",
      "type": "event"
    },
    {
      "anonymous": false,
      "inputs": [
        {
          "indexed": true,
          "internalType": "uint256",
          "name": "loanId",
          "type": "uint256"
        },
        {
          "indexed": false,
          "internalType": "uint256",
          "name": "Amount",
          "type": "uint256"
        }
      ],
      "name": "LoanRepaid",
      "type": "event"
    },
    {
      "anonymous": false,
      "inputs": [
        {
          "indexed": true,
          "internalType": "uint256",
          "name": "loanId",
          "type": "uint256"
        },
        {
          "indexed": false,
          "internalType": "uint256",
          "name": "Amount",
          "type": "uint256"
        }
      ],
      "name": "LoanRepayment",
      "type": "event"
    },
    {
      "anonymous": false,
      "inputs": [
        {
          "indexed": true,
          "internalType": "uint256",
          "name": "loanId",
          "type": "uint256"
        },
        {
          "indexed": true,
          "internalType": "address",
          "name": "borrower",
          "type": "address"
        },
        {
          "indexed": false,
          "internalType": "address",
          "name": "receiver",
          "type": "address"
        },
        {
          "indexed": false,
          "internalType": "uint256",
          "name": "paymentCycleAmount",
          "type": "uint256"
        }
      ],
      "name": "SubmittedLoan",
      "type": "event"
    },
    {
      "anonymous": false,
      "inputs": [
        {
          "indexed": true,
          "internalType": "uint256",
          "name": "loanId",
          "type": "uint256"
        },
        {
          "indexed": true,
          "internalType": "address",
          "name": "lender",
          "type": "address"
        }
      ],
      "name": "loanAccepted",
      "type": "event"
    },
    {
      "anonymous": false,
      "inputs": [
        {
          "indexed": false,
          "internalType": "uint256",
          "name": "owedPrincipal",
          "type": "uint256"
        },
        {
          "indexed": false,
          "internalType": "uint256",
          "name": "duePrincipal",
          "type": "uint256"
        },
        {
          "indexed": false,
          "internalType": "uint256",
          "name": "interest",
          "type": "uint256"
        }
      ],
      "name": "repaidAmounts",
      "type": "event"
    },
    {
      "inputs": [
        {
          "internalType": "address",
          "name": "",
          "type": "address"
        },
        {
          "internalType": "uint256",
          "name": "",
          "type": "uint256"
        }
      ],
      "name": "borrowerLoans",
      "outputs": [
        {
          "internalType": "uint256",
          "name": "",
          "type": "uint256"
        }
      ],
      "stateMutability": "view",
      "type": "function"
    },
    {
      "inputs": [
        {
          "internalType": "address",
          "name": "",
          "type": "address"
        },
        {
          "internalType": "address",
          "name": "",
          "type": "address"
        }
      ],
      "name": "lenderLendAmount",
      "outputs": [
        {
          "internalType": "uint256",
          "name": "",
          "type": "uint256"
        }
      ],
      "stateMutability": "view",
      "type": "function"
    },
    {
      "inputs": [
        {
          "internalType": "uint256",
          "name": "",
          "type": "uint256"
        }
      ],
      "name": "loanDefaultDuration",
      "outputs": [
        {
          "internalType": "uint32",
          "name": "",
          "type": "uint32"
        }
      ],
      "stateMutability": "view",
      "type": "function"
    },
    {
      "inputs": [
        {
          "internalType": "uint256",
          "name": "",
          "type": "uint256"
        }
      ],
      "name": "loanExpirationTime",
      "outputs": [
        {
          "internalType": "uint32",
          "name": "",
          "type": "uint32"
        }
      ],
      "stateMutability": "view",
      "type": "function"
    },
    {
      "inputs": [],
      "name": "loanId",
      "outputs": [
        {
          "internalType": "uint256",
          "name": "",
          "type": "uint256"
        }
      ],
      "stateMutability": "view",
      "type": "function"
    },
    {
      "inputs": [
        {
          "internalType": "uint256",
          "name": "",
          "type": "uint256"
        }
      ],
      "name": "loans",
      "outputs": [
        {
          "internalType": "address",
          "name": "borrower",
          "type": "address"
        },
        {
          "internalType": "address",
          "name": "receiver",
          "type": "address"
        },
        {
          "internalType": "address",
          "name": "lender",
          "type": "address"
        },
        {
          "internalType": "uint256",
          "name": "poolId",
          "type": "uint256"
        },
        {
          "components": [
            {
              "internalType": "contract ERC20",
              "name": "lendingToken",
              "type": "address"
            },
            {
              "internalType": "uint256",
              "name": "principal",
              "type": "uint256"
            },
            {
              "components": [
                {
                  "internalType": "uint256",
                  "name": "principal",
                  "type": "uint256"
                },
                {
                  "internalType": "uint256",
                  "name": "interest",
                  "type": "uint256"
                }
              ],
              "internalType": "struct poolStorage.Payment",
              "name": "totalRepaid",
              "type": "tuple"
            },
            {
              "internalType": "uint32",
              "name": "timestamp",
              "type": "uint32"
            },
            {
              "internalType": "uint32",
              "name": "acceptedTimestamp",
              "type": "uint32"
            },
            {
              "internalType": "uint32",
              "name": "lastRepaidTimestamp",
              "type": "uint32"
            },
            {
              "internalType": "uint32",
              "name": "loanDuration",
              "type": "uint32"
            }
          ],
          "internalType": "struct poolStorage.LoanDetails",
          "name": "loanDetails",
          "type": "tuple"
        },
        {
          "components": [
            {
              "internalType": "uint256",
              "name": "paymentCycleAmount",
              "type": "uint256"
            },
            {
              "internalType": "uint32",
              "name": "paymentCycle",
              "type": "uint32"
            },
            {
              "internalType": "uint16",
              "name": "APR",
              "type": "uint16"
            }
          ],
          "internalType": "struct poolStorage.Terms",
          "name": "terms",
          "type": "tuple"
        },
        {
          "internalType": "enum poolStorage.LoanState",
          "name": "state",
          "type": "uint8"
        }
      ],
      "stateMutability": "view",
      "type": "function"
    },
    {
      "inputs": [
        {
          "internalType": "uint256",
          "name": "",
          "type": "uint256"
        }
      ],
      "name": "poolLoans",
      "outputs": [
        {
          "internalType": "uint256",
          "name": "",
          "type": "uint256"
        }
      ],
      "stateMutability": "view",
      "type": "function"
    },
    {
      "inputs": [
        {
          "internalType": "address",
          "name": "",
          "type": "address"
        }
      ],
      "name": "totalERC20Amount",
      "outputs": [
        {
          "internalType": "uint256",
          "name": "",
          "type": "uint256"
        }
      ],
      "stateMutability": "view",
      "type": "function"
    },
    {
      "inputs": [
        {
          "internalType": "address",
          "name": "_lendingToken",
          "type": "address"
        },
        {
          "internalType": "uint256",
          "name": "_poolId",
          "type": "uint256"
        },
        {
          "internalType": "uint256",
          "name": "_principal",
          "type": "uint256"
        },
        {
          "internalType": "uint32",
          "name": "_duration",
          "type": "uint32"
        },
        {
          "internalType": "uint16",
          "name": "_APR",
          "type": "uint16"
        },
        {
          "internalType": "address",
          "name": "_receiver",
          "type": "address"
        }
      ],
      "name": "loanRequest",
      "outputs": [
        {
          "internalType": "uint256",
          "name": "loanId_",
          "type": "uint256"
        }
      ],
      "stateMutability": "nonpayable",
      "type": "function"
    },
    {
      "inputs": [
        {
          "internalType": "uint256",
          "name": "_loanId",
          "type": "uint256"
        }
      ],
      "name": "AcceptLoan",
      "outputs": [
        {
          "internalType": "uint256",
          "name": "amountToAconomy",
          "type": "uint256"
        },
        {
          "internalType": "uint256",
          "name": "amountToPool",
          "type": "uint256"
        },
        {
          "internalType": "uint256",
          "name": "amountToBorrower",
          "type": "uint256"
        }
      ],
      "stateMutability": "nonpayable",
      "type": "function"
    },
    {
      "inputs": [
        {
          "internalType": "uint256",
          "name": "_loanId",
          "type": "uint256"
        }
      ],
      "name": "isLoanExpired",
      "outputs": [
        {
          "internalType": "bool",
          "name": "",
          "type": "bool"
        }
      ],
      "stateMutability": "view",
      "type": "function"
    },
    {
      "inputs": [
        {
          "internalType": "uint256",
          "name": "_loanId",
          "type": "uint256"
        }
      ],
      "name": "isLoanDefaulted",
      "outputs": [
        {
          "internalType": "bool",
          "name": "",
          "type": "bool"
        }
      ],
      "stateMutability": "view",
      "type": "function"
    },
    {
      "inputs": [
        {
          "internalType": "uint256",
          "name": "_loanId",
          "type": "uint256"
        }
      ],
      "name": "lastRepaidTimestamp",
      "outputs": [
        {
          "internalType": "uint32",
          "name": "",
          "type": "uint32"
        }
      ],
      "stateMutability": "view",
      "type": "function"
    },
    {
      "inputs": [
        {
          "internalType": "uint256",
          "name": "_loanId",
          "type": "uint256"
        }
      ],
      "name": "isPaymentLate",
      "outputs": [
        {
          "internalType": "bool",
          "name": "",
          "type": "bool"
        }
      ],
      "stateMutability": "view",
      "type": "function"
    },
    {
      "inputs": [
        {
          "internalType": "uint256",
          "name": "_loanId",
          "type": "uint256"
        }
      ],
      "name": "calculateNextDueDate",
      "outputs": [
        {
          "internalType": "uint32",
          "name": "dueDate_",
          "type": "uint32"
        }
      ],
      "stateMutability": "view",
      "type": "function"
    },
    {
      "inputs": [
        {
          "internalType": "uint256",
          "name": "_loanId",
          "type": "uint256"
        }
      ],
      "name": "repayYourLoan",
      "outputs": [],
      "stateMutability": "nonpayable",
      "type": "function"
    },
    {
      "inputs": [
        {
          "internalType": "uint256",
          "name": "_loanId",
          "type": "uint256"
        }
      ],
      "name": "viewInstallmentAmount",
      "outputs": [
        {
          "internalType": "uint256",
          "name": "",
          "type": "uint256"
        }
      ],
      "stateMutability": "view",
      "type": "function"
    },
    {
      "inputs": [
        {
          "internalType": "uint256",
          "name": "_loanId",
          "type": "uint256"
        }
      ],
      "name": "viewFullRepayAmount",
      "outputs": [
        {
          "internalType": "uint256",
          "name": "",
          "type": "uint256"
        }
      ],
      "stateMutability": "view",
      "type": "function"
    },
    {
      "inputs": [
        {
          "internalType": "uint256",
          "name": "_loanId",
          "type": "uint256"
        }
      ],
      "name": "repayFullLoan",
      "outputs": [],
      "stateMutability": "nonpayable",
      "type": "function"
    }
  ],
  "bytecode": "0x6080604052600080553480156200001557600080fd5b506040516200465d3803806200465d83398181016040528101906200003b919062000137565b600160098190555081600a60006101000a81548173ffffffffffffffffffffffffffffffffffffffff021916908373ffffffffffffffffffffffffffffffffffffffff16021790555080600b60006101000a81548173ffffffffffffffffffffffffffffffffffffffff021916908373ffffffffffffffffffffffffffffffffffffffff16021790555050506200017e565b600080fd5b600073ffffffffffffffffffffffffffffffffffffffff82169050919050565b6000620000ff82620000d2565b9050919050565b6200011181620000f2565b81146200011d57600080fd5b50565b600081519050620001318162000106565b92915050565b60008060408385031215620001515762000150620000cd565b5b6000620001618582860162000120565b9250506020620001748582860162000120565b9150509250929050565b6144cf806200018e6000396000f3fe608060405234801561001057600080fd5b50600436106101215760003560e01c806360c661e6116100ad578063e1ec3c6811610071578063e1ec3c681461038c578063e3ed1902146103c2578063e766a88f146103f2578063e8cbab0914610424578063fee870e91461045457610121565b806360c661e6146102ae578063706a43c3146102de5780638cda45711461030e578063a51e2bad1461033e578063c95669a51461036e57610121565b80631e042d1f116100f45780631e042d1f146101d257806330f2670c146101ee578063376e49881461021e5780633a31f3371461024e578063561e79461461027e57610121565b806302117df314610126578063093f56171461015657806310618223146101865780631c5c1fc7146101b6575b600080fd5b610140600480360381019061013b9190612e94565b610484565b60405161014d9190612ed0565b60405180910390f35b610170600480360381019061016b9190612e94565b61056c565b60405161017d9190612f06565b60405180910390f35b6101a0600480360381019061019b9190612e94565b6105e5565b6040516101ad9190612f06565b60405180910390f35b6101d060048036038101906101cb9190612e94565b6106dd565b005b6101ec60048036038101906101e79190612e94565b6107ca565b005b61020860048036038101906102039190612f7f565b6108f6565b6040516102159190612ed0565b60405180910390f35b61023860048036038101906102339190612e94565b61090e565b6040516102459190612ed0565b60405180910390f35b61026860048036038101906102639190612e94565b610926565b6040516102759190612fcb565b60405180910390f35b61029860048036038101906102939190612e94565b610949565b6040516102a59190612ed0565b60405180910390f35b6102c860048036038101906102c3919061304c565b610a31565b6040516102d59190612ed0565b60405180910390f35b6102f860048036038101906102f39190612e94565b61132f565b6040516103059190612fcb565b60405180910390f35b61032860048036038101906103239190612e94565b61150d565b6040516103359190612fcb565b60405180910390f35b61035860048036038101906103539190612e94565b611530565b6040516103659190612fcb565b60405180910390f35b610376611554565b6040516103839190612ed0565b60405180910390f35b6103a660048036038101906103a19190612e94565b61155a565b6040516103b997969594939291906132eb565b60405180910390f35b6103dc60048036038101906103d7919061335d565b61178d565b6040516103e99190612ed0565b60405180910390f35b61040c60048036038101906104079190612e94565b6117be565b60405161041b9392919061339d565b60405180910390f35b61043e60048036038101906104399190612e94565b61257f565b60405161044b9190612f06565b60405180910390f35b61046e600480360381019061046991906133d4565b612668565b60405161047b9190612ed0565b60405180910390f35b60008060006104a5600160008681526020019081526020016000204261268d565b9250509150600081836104b89190613443565b9050600260038111156104ce576104cd613274565b5b60016000878152602001908152602001600020600b0160009054906101000a900460ff16600381111561050457610503613274565b5b141580610557575060038081111561051f5761051e613274565b5b60016000878152602001908152602001600020600b0160009054906101000a900460ff16600381111561055557610554613274565b5b145b1561056157600090505b809350505050919050565b60006002600381111561058257610581613274565b5b60016000848152602001908152602001600020600b0160009054906101000a900460ff1660038111156105b8576105b7613274565b5b146105c657600090506105e0565b6105cf8261132f565b63ffffffff164263ffffffff161190505b919050565b6000806001600084815260200190815260200160002090506000600381111561061157610610613274565b5b81600b0160009054906101000a900460ff16600381111561063557610634613274565b5b146106445760009150506106d8565b60006007600085815260200190815260200160002060009054906101000a900463ffffffff1663ffffffff1614156106805760009150506106d8565b6007600084815260200190815260200160002060009054906101000a900463ffffffff168160040160040160009054906101000a900463ffffffff166106c69190613499565b63ffffffff164263ffffffff16119150505b919050565b6106e5612742565b600260038111156106f9576106f8613274565b5b60016000838152602001908152602001600020600b0160009054906101000a900460ff16600381111561072f5761072e613274565b5b1461076f576040517f08c379a000000000000000000000000000000000000000000000000000000000815260040161076690613530565b60405180910390fd5b60008061078e600160008581526020019081526020016000204261268d565b92505091506107bd8360405180604001604052808581526020018481525083856107b89190613443565b612792565b50506107c7612aa9565b50565b6107d2612742565b600260038111156107e6576107e5613274565b5b60016000838152602001908152602001600020600b0160009054906101000a900460ff16600381111561081c5761081b613274565b5b1461085c576040517f08c379a000000000000000000000000000000000000000000000000000000000815260040161085390613530565b60405180910390fd5b600080600061087d600160008681526020019081526020016000204261268d565b9250925092506108ad8460405180604001604052808581526020018481525083866108a89190613443565b612792565b7f193d98b28f4db3258b9a6bc3f7270c0ea85e0a520b3dc0daad9acc7136703d0f8383836040516108e09392919061339d565b60405180910390a15050506108f3612aa9565b50565b60046020528060005260406000206000915090505481565b60026020528060005260406000206000915090505481565b60076020528060005260406000206000915054906101000a900463ffffffff1681565b600080600061096a600160008681526020019081526020016000204261268d565b92509250506000818361097d9190613443565b90506002600381111561099357610992613274565b5b60016000878152602001908152602001600020600b0160009054906101000a900460ff1660038111156109c9576109c8613274565b5b141580610a1c57506003808111156109e4576109e3613274565b5b60016000878152602001908152602001600020600b0160009054906101000a900460ff166003811115610a1a57610a19613274565b5b145b15610a2657600090505b809350505050919050565b60008073ffffffffffffffffffffffffffffffffffffffff168773ffffffffffffffffffffffffffffffffffffffff161415610aa2576040517f08c379a0000000000000000000000000000000000000000000000000000000008152600401610a99906135c2565b60405180910390fd5b600073ffffffffffffffffffffffffffffffffffffffff168273ffffffffffffffffffffffffffffffffffffffff161415610b12576040517f08c379a0000000000000000000000000000000000000000000000000000000008152600401610b0990613654565b60405180910390fd5b6000600a60009054906101000a900473ffffffffffffffffffffffffffffffffffffffff1673ffffffffffffffffffffffffffffffffffffffff1663302de10f88336040518363ffffffff1660e01b8152600401610b71929190613674565b6040805180830381865afa158015610b8d573d6000803e3d6000fd5b505050506040513d601f19601f82011682018060405250810190610bb191906136ff565b50905080610bf4576040517f08c379a0000000000000000000000000000000000000000000000000000000008152600401610beb9061378b565b60405180910390fd5b600a60009054906101000a900473ffffffffffffffffffffffffffffffffffffffff1673ffffffffffffffffffffffffffffffffffffffff1663a8380df1886040518263ffffffff1660e01b8152600401610c4f9190612ed0565b602060405180830381865afa158015610c6c573d6000803e3d6000fd5b505050506040513d601f19601f82011682018060405250810190610c9091906137ab565b15610cd0576040517f08c379a0000000000000000000000000000000000000000000000000000000008152600401610cc790613824565b60405180910390fd5b6000549150816002600089815260200190815260200160002081905550600060016000805481526020019081526020016000209050338160000160006101000a81548173ffffffffffffffffffffffffffffffffffffffff021916908373ffffffffffffffffffffffffffffffffffffffff160217905550600073ffffffffffffffffffffffffffffffffffffffff168473ffffffffffffffffffffffffffffffffffffffff161415610da7578060000160009054906101000a900473ffffffffffffffffffffffffffffffffffffffff16610da9565b835b8160010160006101000a81548173ffffffffffffffffffffffffffffffffffffffff021916908373ffffffffffffffffffffffffffffffffffffffff160217905550878160030181905550888160040160000160006101000a81548173ffffffffffffffffffffffffffffffffffffffff021916908373ffffffffffffffffffffffffffffffffffffffff1602179055508681600401600101819055508581600401600401600c6101000a81548163ffffffff021916908363ffffffff160217905550428160040160040160006101000a81548163ffffffff021916908363ffffffff160217905550600a60009054906101000a900473ffffffffffffffffffffffffffffffffffffffff1673ffffffffffffffffffffffffffffffffffffffff1663805deb53896040518263ffffffff1660e01b8152600401610eed9190612ed0565b602060405180830381865afa158015610f0a573d6000803e3d6000fd5b505050506040513d601f19601f82011682018060405250810190610f2e9190613859565b8160090160010160006101000a81548163ffffffff021916908363ffffffff160217905550848160090160010160046101000a81548161ffff021916908361ffff160217905550600a60009054906101000a900473ffffffffffffffffffffffffffffffffffffffff1673ffffffffffffffffffffffffffffffffffffffff166311bed5bb896040518263ffffffff1660e01b8152600401610fd09190612ed0565b602060405180830381865afa158015610fed573d6000803e3d6000fd5b505050506040513d601f19601f820116820180604052508101906110119190613859565b600660008054815260200190815260200160002060006101000a81548163ffffffff021916908363ffffffff160217905550600a60009054906101000a900473ffffffffffffffffffffffffffffffffffffffff1673ffffffffffffffffffffffffffffffffffffffff1663c28ba8eb896040518263ffffffff1660e01b815260040161109e9190612ed0565b602060405180830381865afa1580156110bb573d6000803e3d6000fd5b505050506040513d601f19601f820116820180604052508101906110df9190613859565b600760008054815260200190815260200160002060006101000a81548163ffffffff021916908363ffffffff16021790555073__LibCalculations_______________________632872a88788888460090160010160009054906101000a900463ffffffff16896040518563ffffffff1660e01b815260040161116594939291906138b3565b602060405180830381865af4158015611182573d6000803e3d6000fd5b505050506040513d601f19601f820116820180604052508101906111a6919061390d565b8160090160000181905550600081600b0160006101000a81548160ff021916908360038111156111d9576111d8613274565b5b02179055508060000160009054906101000a900473ffffffffffffffffffffffffffffffffffffffff1673ffffffffffffffffffffffffffffffffffffffff166000547f20669ac1da79ef826aa0f4e5e5b00ae0f2ed6e7c6eceb274c6fb43976204217e8360010160009054906101000a900473ffffffffffffffffffffffffffffffffffffffff16846009016000015460405161127892919061393a565b60405180910390a3600560008260000160009054906101000a900473ffffffffffffffffffffffffffffffffffffffff1673ffffffffffffffffffffffffffffffffffffffff1673ffffffffffffffffffffffffffffffffffffffff168152602001908152602001600020600054908060018154018082558091505060019003906000526020600020016000909190919091505560008081548092919061131e90613963565b919050555050509695505050505050565b6000806001600084815260200190815260200160002090506002600381111561135b5761135a613274565b5b60016000858152602001908152602001600020600b0160009054906101000a900460ff16600381111561139157611390613274565b5b1461139c5750611508565b8060090160010160009054906101000a900463ffffffff168160040160040160049054906101000a900463ffffffff166113d69190613499565b915060008160040160040160049054906101000a900463ffffffff166113fb85611530565b61140591906139ac565b905060008163ffffffff16111561147b5760008260090160010160009054906101000a900463ffffffff168261143b9190613a0f565b60016114479190613499565b90508260090160010160009054906101000a900463ffffffff168161146c9190613a40565b846114779190613499565b9350505b81600401600401600c9054906101000a900463ffffffff168260040160040160049054906101000a900463ffffffff166114b59190613499565b63ffffffff168363ffffffff1611156115055781600401600401600c9054906101000a900463ffffffff168260040160040160049054906101000a900463ffffffff166115029190613499565b92505b50505b919050565b60066020528060005260406000206000915054906101000a900463ffffffff1681565b600061154d60016000848152602001908152602001600020612ab3565b9050919050565b60005481565b60016020528060005260406000206000915090508060000160009054906101000a900473ffffffffffffffffffffffffffffffffffffffff16908060010160009054906101000a900473ffffffffffffffffffffffffffffffffffffffff16908060020160009054906101000a900473ffffffffffffffffffffffffffffffffffffffff1690806003015490806004016040518060e00160405290816000820160009054906101000a900473ffffffffffffffffffffffffffffffffffffffff1673ffffffffffffffffffffffffffffffffffffffff1673ffffffffffffffffffffffffffffffffffffffff16815260200160018201548152602001600282016040518060400160405290816000820154815260200160018201548152505081526020016004820160009054906101000a900463ffffffff1663ffffffff1663ffffffff1681526020016004820160049054906101000a900463ffffffff1663ffffffff1663ffffffff1681526020016004820160089054906101000a900463ffffffff1663ffffffff1663ffffffff16815260200160048201600c9054906101000a900463ffffffff1663ffffffff1663ffffffff16815250509080600901604051806060016040529081600082015481526020016001820160009054906101000a900463ffffffff1663ffffffff1663ffffffff1681526020016001820160049054906101000a900461ffff1661ffff1661ffff16815250509080600b0160009054906101000a900460ff16905087565b600560205281600052604060002081815481106117a957600080fd5b90600052602060002001600091509150505481565b600080600083600060038111156117d8576117d7613274565b5b60016000838152602001908152602001600020600b0160009054906101000a900460ff16600381111561180e5761180d613274565b5b1461184e576040517f08c379a000000000000000000000000000000000000000000000000000000000815260040161184590613aca565b60405180910390fd5b611856612742565b60006001600087815260200190815260200160002090506000600a60009054906101000a900473ffffffffffffffffffffffffffffffffffffffff1673ffffffffffffffffffffffffffffffffffffffff1663da5de1a28360030154336040518363ffffffff1660e01b81526004016118d0929190613674565b6040805180830381865afa1580156118ec573d6000803e3d6000fd5b505050506040513d601f19601f8201168201806040525081019061191091906136ff565b50905080611953576040517f08c379a000000000000000000000000000000000000000000000000000000000815260040161194a90613b36565b60405180910390fd5b600a60009054906101000a900473ffffffffffffffffffffffffffffffffffffffff1673ffffffffffffffffffffffffffffffffffffffff1663a8380df183600301546040518263ffffffff1660e01b81526004016119b29190612ed0565b602060405180830381865afa1580156119cf573d6000803e3d6000fd5b505050506040513d601f19601f820116820180604052508101906119f391906137ab565b15611a33576040517f08c379a0000000000000000000000000000000000000000000000000000000008152600401611a2a90613824565b60405180910390fd5b611a3c876105e5565b15611a7c576040517f08c379a0000000000000000000000000000000000000000000000000000000008152600401611a7390613ba2565b60405180910390fd5b428260040160040160046101000a81548163ffffffff021916908363ffffffff160217905550428260040160040160086101000a81548163ffffffff021916908363ffffffff160217905550600282600b0160006101000a81548160ff02191690836003811115611af057611aef613274565b5b0217905550338260020160006101000a81548173ffffffffffffffffffffffffffffffffffffffff021916908373ffffffffffffffffffffffffffffffffffffffff16021790555073__LibCalculations_______________________633fb340038360040160010154600b60009054906101000a900473ffffffffffffffffffffffffffffffffffffffff1673ffffffffffffffffffffffffffffffffffffffff1663b0e21e8a6040518163ffffffff1660e01b8152600401602060405180830381865afa158015611bc7573d6000803e3d6000fd5b505050506040513d601f19601f82011682018060405250810190611beb9190613bd7565b6040518363ffffffff1660e01b8152600401611c08929190613c04565b602060405180830381865af4158015611c25573d6000803e3d6000fd5b505050506040513d601f19601f82011682018060405250810190611c49919061390d565b955073__LibCalculations_______________________633fb340038360040160010154600a60009054906101000a900473ffffffffffffffffffffffffffffffffffffffff1673ffffffffffffffffffffffffffffffffffffffff1663635f1e4d86600301546040518263ffffffff1660e01b8152600401611ccc9190612ed0565b602060405180830381865afa158015611ce9573d6000803e3d6000fd5b505050506040513d601f19601f82011682018060405250810190611d0d9190613bd7565b6040518363ffffffff1660e01b8152600401611d2a929190613c04565b602060405180830381865af4158015611d47573d6000803e3d6000fd5b505050506040513d601f19601f82011682018060405250810190611d6b919061390d565b945084868360040160010154611d819190613c2d565b611d8b9190613c2d565b935060008614611f365760008260040160000160009054906101000a900473ffffffffffffffffffffffffffffffffffffffff1673ffffffffffffffffffffffffffffffffffffffff166323b872dd8460020160009054906101000a900473ffffffffffffffffffffffffffffffffffffffff16600b60009054906101000a900473ffffffffffffffffffffffffffffffffffffffff1673ffffffffffffffffffffffffffffffffffffffff16634dd9ccb16040518163ffffffff1660e01b8152600401602060405180830381865afa158015611e6c573d6000803e3d6000fd5b505050506040513d601f19601f82011682018060405250810190611e909190613c76565b8a6040518463ffffffff1660e01b8152600401611eaf93929190613ca3565b6020604051808303816000875af1158015611ece573d6000803e3d6000fd5b505050506040513d601f19601f82011682018060405250810190611ef291906137ab565b905080611f34576040517f08c379a0000000000000000000000000000000000000000000000000000000008152600401611f2b90613d4c565b60405180910390fd5b505b600085146120ee5760008260040160000160009054906101000a900473ffffffffffffffffffffffffffffffffffffffff1673ffffffffffffffffffffffffffffffffffffffff166323b872dd8460020160009054906101000a900473ffffffffffffffffffffffffffffffffffffffff16600a60009054906101000a900473ffffffffffffffffffffffffffffffffffffffff1673ffffffffffffffffffffffffffffffffffffffff16636e34b4e487600301546040518263ffffffff1660e01b81526004016120079190612ed0565b602060405180830381865afa158015612024573d6000803e3d6000fd5b505050506040513d601f19601f820116820180604052508101906120489190613c76565b896040518463ffffffff1660e01b815260040161206793929190613ca3565b6020604051808303816000875af1158015612086573d6000803e3d6000fd5b505050506040513d601f19601f820116820180604052508101906120aa91906137ab565b9050806120ec576040517f08c379a00000000000000000000000000000000000000000000000000000000081526004016120e390613dde565b60405180910390fd5b505b60008260040160000160009054906101000a900473ffffffffffffffffffffffffffffffffffffffff1673ffffffffffffffffffffffffffffffffffffffff166323b872dd8460020160009054906101000a900473ffffffffffffffffffffffffffffffffffffffff168560000160009054906101000a900473ffffffffffffffffffffffffffffffffffffffff16886040518463ffffffff1660e01b815260040161219c93929190613ca3565b6020604051808303816000875af11580156121bb573d6000803e3d6000fd5b505050506040513d601f19601f820116820180604052508101906121df91906137ab565b905080612221576040517f08c379a000000000000000000000000000000000000000000000000000000000815260040161221890613e4a565b60405180910390fd5b8260040160010154600860008560040160000160009054906101000a900473ffffffffffffffffffffffffffffffffffffffff1673ffffffffffffffffffffffffffffffffffffffff1673ffffffffffffffffffffffffffffffffffffffff16815260200190815260200160002060008560020160009054906101000a900473ffffffffffffffffffffffffffffffffffffffff1673ffffffffffffffffffffffffffffffffffffffff1673ffffffffffffffffffffffffffffffffffffffff16815260200190815260200160002060008282546122ff9190613443565b925050819055508260040160010154600460008560040160000160009054906101000a900473ffffffffffffffffffffffffffffffffffffffff1673ffffffffffffffffffffffffffffffffffffffff1673ffffffffffffffffffffffffffffffffffffffff16815260200190815260200160002060008282546123839190613443565b925050819055506123ff88600360008660000160009054906101000a900473ffffffffffffffffffffffffffffffffffffffff1673ffffffffffffffffffffffffffffffffffffffff1673ffffffffffffffffffffffffffffffffffffffff168152602001908152602001600020612b1690919063ffffffff16565b61243e576040517f08c379a000000000000000000000000000000000000000000000000000000000815260040161243590613edc565b60405180910390fd5b8260020160009054906101000a900473ffffffffffffffffffffffffffffffffffffffff1673ffffffffffffffffffffffffffffffffffffffff16887fc175daba6d0afff1f048fc218620bf5012c03afa26af397bacbf30f7341d343060405160405180910390a3866040516124b390613f53565b6040518091039020897f9d2e18d1e551e6728496dd39a969d9fe809fe60c0c8c9cabfda8be718e5387cf60405160405180910390a4856040516124f590613fb4565b6040518091039020897f9d2e18d1e551e6728496dd39a969d9fe809fe60c0c8c9cabfda8be718e5387cf60405160405180910390a48460405161253790614015565b6040518091039020897f9d2e18d1e551e6728496dd39a969d9fe809fe60c0c8c9cabfda8be718e5387cf60405160405180910390a4505050612577612aa9565b509193909250565b600080600160008481526020019081526020016000209050600260038111156125ab576125aa613274565b5b81600b0160009054906101000a900460ff1660038111156125cf576125ce613274565b5b146125de576000915050612663565b60006006600085815260200190815260200160002060009054906101000a900463ffffffff1663ffffffff16141561261a576000915050612663565b6006600084815260200190815260200160002060009054906101000a900463ffffffff1663ffffffff1661264d84611530565b4261265891906139ac565b63ffffffff16119150505b919050565b6008602052816000526040600020602052806000526040600020600091509150505481565b6000806000612735856004016001015486600401600201600001548760090160010160049054906101000a900461ffff1688600901600001548960090160010160009054906101000a900463ffffffff1663ffffffff166126ed8b612ab3565b63ffffffff168a8c60040160040160049054906101000a900463ffffffff1663ffffffff168d600401600401600c9054906101000a900463ffffffff1663ffffffff16612b30565b9250925092509250925092565b60026009541415612788576040517f08c379a000000000000000000000000000000000000000000000000000000000815260040161277f90614076565b60405180910390fd5b6002600981905550565b60006001600085815260200190815260200160002090506000836020015184600001516127bf9190613443565b90508281106128e957829050600382600b0160006101000a81548160ff021916908360038111156127f3576127f2613274565b5b021790555061286d85600360008560000160009054906101000a900473ffffffffffffffffffffffffffffffffffffffff1673ffffffffffffffffffffffffffffffffffffffff1673ffffffffffffffffffffffffffffffffffffffff168152602001908152602001600020612c1990919063ffffffff16565b6128ac576040517f08c379a00000000000000000000000000000000000000000000000000000000081526004016128a390614108565b60405180910390fd5b847f040cee90ee4799897c30ca04e5feb6fa43dbba9b6d084b4b257cdafd84ba013e826040516128dc9190612ed0565b60405180910390a2612922565b847f74eb6e59df678ce3b4afd511fde3df47cbedd7c742096db39757074577499a9c826040516129199190612ed0565b60405180910390a25b60008260040160000160009054906101000a900473ffffffffffffffffffffffffffffffffffffffff1673ffffffffffffffffffffffffffffffffffffffff166323b872dd338560020160009054906101000a900473ffffffffffffffffffffffffffffffffffffffff16856040518463ffffffff1660e01b81526004016129ac93929190613ca3565b6020604051808303816000875af11580156129cb573d6000803e3d6000fd5b505050506040513d601f19601f820116820180604052508101906129ef91906137ab565b905080612a31576040517f08c379a0000000000000000000000000000000000000000000000000000000008152600401612a2890614174565b60405180910390fd5b8460000151836004016002016000016000828254612a4f9190613443565b925050819055508460200151836004016002016001016000828254612a749190613443565b92505081905550428360040160040160086101000a81548163ffffffff021916908363ffffffff160217905550505050505050565b6001600981905550565b6000808260040160040160089054906101000a900463ffffffff1663ffffffff1614612af6578160040160040160089054906101000a900463ffffffff16612b0f565b8160040160040160049054906101000a900463ffffffff165b9050919050565b6000612b28836000018360001b612c33565b905092915050565b60008060008a8c612b419190613c2d565b92506000612b4f848c612ca3565b905060008888612b5f9190613c2d565b90506301e133808183612b729190614194565b612b7c91906141ee565b925060008789612b8c9190614229565b87612b979190614229565b905060008b821280612bb457508c8588612bb19190613443565b11155b9050600081612bc3578d612bd0565b8588612bcf9190613443565b5b905060008d8583612be19190614194565b612beb91906141ee565b9050612c028782612bfc9190613c2d565b8a612cbd565b975050505050505099509950999650505050505050565b6000612c2b836000018360001b612cd6565b905092915050565b6000612c3f8383612dea565b612c98578260000182908060018154018082558091505060019003906000526020600020016000909190919091505582600001805490508360010160008481526020019081526020016000208190555060019050612c9d565b600090505b92915050565b6000612cb5838361ffff166002612e0d565b905092915050565b6000818310612ccc5781612cce565b825b905092915050565b60008083600101600084815260200190815260200160002054905060008114612dde576000600182612d089190613c2d565b9050600060018660000180549050612d209190613c2d565b9050818114612d8f576000866000018281548110612d4157612d406142bd565b5b9060005260206000200154905080876000018481548110612d6557612d646142bd565b5b90600052602060002001819055508387600101600083815260200190815260200160002081905550505b85600001805480612da357612da26142ec565b5b600190038181906000526020600020016000905590558560010160008681526020019081526020016000206000905560019350505050612de4565b60009150505b92915050565b600080836001016000848152602001908152602001600020541415905092915050565b6000612e1882612e37565b8385612e249190614194565b612e2e91906141ee565b90509392505050565b600081600a612e46919061444e565b6064612e529190614194565b9050919050565b600080fd5b6000819050919050565b612e7181612e5e565b8114612e7c57600080fd5b50565b600081359050612e8e81612e68565b92915050565b600060208284031215612eaa57612ea9612e59565b5b6000612eb884828501612e7f565b91505092915050565b612eca81612e5e565b82525050565b6000602082019050612ee56000830184612ec1565b92915050565b60008115159050919050565b612f0081612eeb565b82525050565b6000602082019050612f1b6000830184612ef7565b92915050565b600073ffffffffffffffffffffffffffffffffffffffff82169050919050565b6000612f4c82612f21565b9050919050565b612f5c81612f41565b8114612f6757600080fd5b50565b600081359050612f7981612f53565b92915050565b600060208284031215612f9557612f94612e59565b5b6000612fa384828501612f6a565b91505092915050565b600063ffffffff82169050919050565b612fc581612fac565b82525050565b6000602082019050612fe06000830184612fbc565b92915050565b612fef81612fac565b8114612ffa57600080fd5b50565b60008135905061300c81612fe6565b92915050565b600061ffff82169050919050565b61302981613012565b811461303457600080fd5b50565b60008135905061304681613020565b92915050565b60008060008060008060c0878903121561306957613068612e59565b5b600061307789828a01612f6a565b965050602061308889828a01612e7f565b955050604061309989828a01612e7f565b94505060606130aa89828a01612ffd565b93505060806130bb89828a01613037565b92505060a06130cc89828a01612f6a565b9150509295509295509295565b6130e281612f41565b82525050565b6000819050919050565b600061310d61310861310384612f21565b6130e8565b612f21565b9050919050565b600061311f826130f2565b9050919050565b600061313182613114565b9050919050565b61314181613126565b82525050565b61315081612e5e565b82525050565b60408201600082015161316c6000850182613147565b50602082015161317f6020850182613147565b50505050565b61318e81612fac565b82525050565b610100820160008201516131ab6000850182613138565b5060208201516131be6020850182613147565b5060408201516131d16040850182613156565b5060608201516131e46080850182613185565b5060808201516131f760a0850182613185565b5060a082015161320a60c0850182613185565b5060c082015161321d60e0850182613185565b50505050565b61322c81613012565b82525050565b6060820160008201516132486000850182613147565b50602082015161325b6020850182613185565b50604082015161326e6040850182613223565b50505050565b7f4e487b7100000000000000000000000000000000000000000000000000000000600052602160045260246000fd5b600481106132b4576132b3613274565b5b50565b60008190506132c5826132a3565b919050565b60006132d5826132b7565b9050919050565b6132e5816132ca565b82525050565b600061020082019050613301600083018a6130d9565b61330e60208301896130d9565b61331b60408301886130d9565b6133286060830187612ec1565b6133356080830186613194565b613343610180830185613232565b6133516101e08301846132dc565b98975050505050505050565b6000806040838503121561337457613373612e59565b5b600061338285828601612f6a565b925050602061339385828601612e7f565b9150509250929050565b60006060820190506133b26000830186612ec1565b6133bf6020830185612ec1565b6133cc6040830184612ec1565b949350505050565b600080604083850312156133eb576133ea612e59565b5b60006133f985828601612f6a565b925050602061340a85828601612f6a565b9150509250929050565b7f4e487b7100000000000000000000000000000000000000000000000000000000600052601160045260246000fd5b600061344e82612e5e565b915061345983612e5e565b9250827fffffffffffffffffffffffffffffffffffffffffffffffffffffffffffffffff0382111561348e5761348d613414565b5b828201905092915050565b60006134a482612fac565b91506134af83612fac565b92508263ffffffff038211156134c8576134c7613414565b5b828201905092915050565b600082825260208201905092915050565b7f4c6f616e206d7573742062652061636365707465640000000000000000000000600082015250565b600061351a6015836134d3565b9150613525826134e4565b602082019050919050565b600060208201905081810360008301526135498161350d565b9050919050565b7f796f752063616e277420646f20746869732077697468207a65726f206164647260008201527f6573730000000000000000000000000000000000000000000000000000000000602082015250565b60006135ac6023836134d3565b91506135b782613550565b604082019050919050565b600060208201905081810360008301526135db8161359f565b9050919050565b7f796f752063616e277420736574207a65726f206164647265737320617320726560008201527f6365697665720000000000000000000000000000000000000000000000000000602082015250565b600061363e6026836134d3565b9150613649826135e2565b604082019050919050565b6000602082019050818103600083015261366d81613631565b9050919050565b60006040820190506136896000830185612ec1565b61369660208301846130d9565b9392505050565b6136a681612eeb565b81146136b157600080fd5b50565b6000815190506136c38161369d565b92915050565b6000819050919050565b6136dc816136c9565b81146136e757600080fd5b50565b6000815190506136f9816136d3565b92915050565b6000806040838503121561371657613715612e59565b5b6000613724858286016136b4565b9250506020613735858286016136ea565b9150509250929050565b7f4e6f7420766572696669656420626f72726f7765720000000000000000000000600082015250565b60006137756015836134d3565b91506137808261373f565b602082019050919050565b600060208201905081810360008301526137a481613768565b9050919050565b6000602082840312156137c1576137c0612e59565b5b60006137cf848285016136b4565b91505092915050565b7f506f6f6c20697320636c6f736564000000000000000000000000000000000000600082015250565b600061380e600e836134d3565b9150613819826137d8565b602082019050919050565b6000602082019050818103600083015261383d81613801565b9050919050565b60008151905061385381612fe6565b92915050565b60006020828403121561386f5761386e612e59565b5b600061387d84828501613844565b91505092915050565b61388f81612e5e565b82525050565b61389e81612fac565b82525050565b6138ad81613012565b82525050565b60006080820190506138c86000830187613886565b6138d56020830186613895565b6138e26040830185613895565b6138ef60608301846138a4565b95945050505050565b60008151905061390781612e68565b92915050565b60006020828403121561392357613922612e59565b5b6000613931848285016138f8565b91505092915050565b600060408201905061394f60008301856130d9565b61395c6020830184612ec1565b9392505050565b600061396e82612e5e565b91507fffffffffffffffffffffffffffffffffffffffffffffffffffffffffffffffff8214156139a1576139a0613414565b5b600182019050919050565b60006139b782612fac565b91506139c283612fac565b9250828210156139d5576139d4613414565b5b828203905092915050565b7f4e487b7100000000000000000000000000000000000000000000000000000000600052601260045260246000fd5b6000613a1a82612fac565b9150613a2583612fac565b925082613a3557613a346139e0565b5b828204905092915050565b6000613a4b82612fac565b9150613a5683612fac565b92508163ffffffff0483118215151615613a7357613a72613414565b5b828202905092915050565b7f4c6f616e206d7573742062652070656e64696e67000000000000000000000000600082015250565b6000613ab46014836134d3565b9150613abf82613a7e565b602082019050919050565b60006020820190508181036000830152613ae381613aa7565b9050919050565b7f4e6f74207665726966696564206c656e64657200000000000000000000000000600082015250565b6000613b206013836134d3565b9150613b2b82613aea565b602082019050919050565b60006020820190508181036000830152613b4f81613b13565b9050919050565b7f4c6f616e20686173206578706972656400000000000000000000000000000000600082015250565b6000613b8c6010836134d3565b9150613b9782613b56565b602082019050919050565b60006020820190508181036000830152613bbb81613b7f565b9050919050565b600081519050613bd181613020565b92915050565b600060208284031215613bed57613bec612e59565b5b6000613bfb84828501613bc2565b91505092915050565b6000604082019050613c196000830185613886565b613c2660208301846138a4565b9392505050565b6000613c3882612e5e565b9150613c4383612e5e565b925082821015613c5657613c55613414565b5b828203905092915050565b600081519050613c7081612f53565b92915050565b600060208284031215613c8c57613c8b612e59565b5b6000613c9a84828501613c61565b91505092915050565b6000606082019050613cb860008301866130d9565b613cc560208301856130d9565b613cd26040830184612ec1565b949350505050565b7f4e6f742061626c6520746f2074616e7366657220746f2061636f6e6f6d79206660008201527f6565206164647265737300000000000000000000000000000000000000000000602082015250565b6000613d36602a836134d3565b9150613d4182613cda565b604082019050919050565b60006020820190508181036000830152613d6581613d29565b9050919050565b7f4e6f742061626c6520746f2074616e7366657220746f20706f6f6c206f776e6560008201527f7200000000000000000000000000000000000000000000000000000000000000602082015250565b6000613dc86021836134d3565b9150613dd382613d6c565b604082019050919050565b60006020820190508181036000830152613df781613dbb565b9050919050565b7f4e6f742061626c6520746f2074616e7366657220746f20626f72726f77657200600082015250565b6000613e34601f836134d3565b9150613e3f82613dfe565b602082019050919050565b60006020820190508181036000830152613e6381613e27565b9050919050565b7f616363657074206c6f616e206661696c65642c2061646420746f20626f72727760008201527f65726163746976656c6f616e7300000000000000000000000000000000000000602082015250565b6000613ec6602d836134d3565b9150613ed182613e6a565b604082019050919050565b60006020820190508181036000830152613ef581613eb9565b9050919050565b600081905092915050565b7f70726f746f636f6c000000000000000000000000000000000000000000000000600082015250565b6000613f3d600883613efc565b9150613f4882613f07565b600882019050919050565b6000613f5e82613f30565b9150819050919050565b7f506f6f6c00000000000000000000000000000000000000000000000000000000600082015250565b6000613f9e600483613efc565b9150613fa982613f68565b600482019050919050565b6000613fbf82613f91565b9150819050919050565b7f426f72726f776572000000000000000000000000000000000000000000000000600082015250565b6000613fff600883613efc565b915061400a82613fc9565b600882019050919050565b600061402082613ff2565b9150819050919050565b7f5265656e7472616e637947756172643a207265656e7472616e742063616c6c00600082015250565b6000614060601f836134d3565b915061406b8261402a565b602082019050919050565b6000602082019050818103600083015261408f81614053565b9050919050565b7f6e6f742061626c6520746f2072657061792c2072656d6f7665206c6f616e496460008201527f206661696c656400000000000000000000000000000000000000000000000000602082015250565b60006140f26027836134d3565b91506140fd82614096565b604082019050919050565b60006020820190508181036000830152614121816140e5565b9050919050565b7f756e61626c6520746f207472616e7366657220746f206c656e64657200000000600082015250565b600061415e601c836134d3565b915061416982614128565b602082019050919050565b6000602082019050818103600083015261418d81614151565b9050919050565b600061419f82612e5e565b91506141aa83612e5e565b9250817fffffffffffffffffffffffffffffffffffffffffffffffffffffffffffffffff04831182151516156141e3576141e2613414565b5b828202905092915050565b60006141f982612e5e565b915061420483612e5e565b925082614214576142136139e0565b5b828204905092915050565b6000819050919050565b60006142348261421f565b915061423f8361421f565b9250827f80000000000000000000000000000000000000000000000000000000000000000182126000841215161561427a57614279613414565b5b827f7fffffffffffffffffffffffffffffffffffffffffffffffffffffffffffffff0182136000841216156142b2576142b1613414565b5b828203905092915050565b7f4e487b7100000000000000000000000000000000000000000000000000000000600052603260045260246000fd5b7f4e487b7100000000000000000000000000000000000000000000000000000000600052603160045260246000fd5b60008160011c9050919050565b6000808291508390505b60018511156143725780860481111561434e5761434d613414565b5b600185161561435d5780820291505b808102905061436b8561431b565b9450614332565b94509492505050565b60008261438b5760019050614447565b816143995760009050614447565b81600181146143af57600281146143b9576143e8565b6001915050614447565b60ff8411156143cb576143ca613414565b5b8360020a9150848211156143e2576143e1613414565b5b50614447565b5060208310610133831016604e8410600b841016171561441d5782820a90508381111561441857614417613414565b5b614447565b61442a8484846001614328565b9250905081840481111561444157614440613414565b5b81810290505b9392505050565b600061445982612e5e565b915061446483612e5e565b92506144917fffffffffffffffffffffffffffffffffffffffffffffffffffffffffffffffff848461437b565b90509291505056fea2646970667358221220d9ff63596ccc163eb8500c1138965acaa0bea7fe8800dfbf1f4b5e5fe8b4e5cb64736f6c634300080b0033",
  "immutableReferences": {},
  "source": "// SPDX-License-Identifier: MIT\npragma solidity >=0.4.22 <0.9.0;\n\nimport \"@openzeppelin/contracts/token/ERC20/IERC20.sol\";\nimport \"@openzeppelin/contracts/utils/Counters.sol\";\nimport {SafeMath} from \"@openzeppelin/contracts/utils/math/SafeMath.sol\";\nimport {EnumerableSet} from \"@openzeppelin/contracts/utils/structs/EnumerableSet.sol\";\nimport \"@openzeppelin/contracts/token/ERC721/extensions/ERC721URIStorage.sol\";\nimport \"@openzeppelin/contracts/security/ReentrancyGuard.sol\";\nimport \"./poolRegistry.sol\";\nimport \"./poolStorage.sol\";\nimport \"./AconomyFee.sol\";\nimport \"./Libraries/LibCalculations.sol\";\n\nimport \"@openzeppelin/contracts/utils/Address.sol\";\nimport \"@openzeppelin/contracts/utils/math/Math.sol\";\nimport \"@openzeppelin/contracts/token/ERC20/utils/SafeERC20.sol\";\n\ncontract poolAddress is poolStorage, ReentrancyGuard {\n    address poolRegistryAddress;\n    address AconomyFeeAddress;\n\n    using SafeMath for uint256;\n    using EnumerableSet for EnumerableSet.UintSet;\n\n    constructor(address _poolRegistry, address _AconomyFeeAddress) {\n        poolRegistryAddress = _poolRegistry;\n        AconomyFeeAddress = _AconomyFeeAddress;\n    }\n\n    modifier pendingLoan(uint256 _loanId) {\n        if (loans[_loanId].state != LoanState.PENDING) {\n            revert(\"Loan must be pending\");\n        }\n        _;\n    }\n\n    modifier onlyPoolOwner(uint256 poolId) {\n        require(\n            msg.sender == poolRegistry(poolRegistryAddress).getPoolOwner(poolId)\n        );\n        _;\n    }\n\n    event loanAccepted(uint256 indexed loanId, address indexed lender);\n\n    event repaidAmounts(\n        uint256 owedPrincipal,\n        uint256 duePrincipal,\n        uint256 interest\n    );\n    event AcceptedLoanDetail(\n        uint256 indexed loanId,\n        string indexed feeType,\n        uint256 indexed amount\n    );\n\n    event LoanRepaid(uint256 indexed loanId, uint256 Amount);\n    event LoanRepayment(uint256 indexed loanId, uint256 Amount);\n\n    event SubmittedLoan(\n        uint256 indexed loanId,\n        address indexed borrower,\n        address receiver,\n        uint256 paymentCycleAmount\n    );\n\n    function loanRequest(\n        address _lendingToken,\n        uint256 _poolId,\n        uint256 _principal,\n        uint32 _duration,\n        uint16 _APR,\n        address _receiver\n    ) public returns (uint256 loanId_) {\n        require(\n            _lendingToken != address(0),\n            \"you can't do this with zero address\"\n        );\n        require(\n            _receiver != address(0),\n            \"you can't set zero address as receiver\"\n        );\n        (bool isVerified, ) = poolRegistry(poolRegistryAddress)\n            .borrowerVerification(_poolId, msg.sender);\n        require(isVerified, \"Not verified borrower\");\n        require(\n            !poolRegistry(poolRegistryAddress).ClosedPool(_poolId),\n            \"Pool is closed\"\n        );\n\n        loanId_ = loanId;\n\n        poolLoans[_poolId] = loanId_;\n\n        // Create and store our loan into the mapping\n        Loan storage loan = loans[loanId];\n        loan.borrower = msg.sender;\n        loan.receiver = _receiver != address(0) ? _receiver : loan.borrower;\n        loan.poolId = _poolId;\n        loan.loanDetails.lendingToken = ERC20(_lendingToken);\n        loan.loanDetails.principal = _principal;\n        loan.loanDetails.loanDuration = _duration;\n        loan.loanDetails.timestamp = uint32(block.timestamp);\n\n        loan.terms.paymentCycle = poolRegistry(poolRegistryAddress)\n            .getPaymentCycleDuration(_poolId);\n\n        loan.terms.APR = _APR;\n\n        loanDefaultDuration[loanId] = poolRegistry(poolRegistryAddress)\n            .getPaymentDefaultDuration(_poolId);\n\n        loanExpirationTime[loanId] = poolRegistry(poolRegistryAddress)\n            .getloanExpirationTime(_poolId);\n\n        loan.terms.paymentCycleAmount = LibCalculations.payment(\n            _principal,\n            _duration,\n            loan.terms.paymentCycle,\n            _APR\n        );\n\n        loan.state = LoanState.PENDING;\n\n        emit SubmittedLoan(\n            loanId,\n            loan.borrower,\n            loan.receiver,\n            loan.terms.paymentCycleAmount\n        );\n\n        // Store loan inside borrower loans mapping\n        borrowerLoans[loan.borrower].push(loanId);\n\n        // Increment loan id\n        loanId++;\n    }\n\n    function AcceptLoan(\n        uint256 _loanId\n    )\n        external\n        pendingLoan(_loanId)\n        nonReentrant\n        returns (\n            uint256 amountToAconomy,\n            uint256 amountToPool,\n            uint256 amountToBorrower\n        )\n    {\n        Loan storage loan = loans[_loanId];\n\n        (bool isVerified, ) = poolRegistry(poolRegistryAddress)\n            .lenderVerification(loan.poolId, msg.sender);\n\n        require(isVerified, \"Not verified lender\");\n        require(\n            !poolRegistry(poolRegistryAddress).ClosedPool(loan.poolId),\n            \"Pool is closed\"\n        );\n        require(!isLoanExpired(_loanId), \"Loan has expired\");\n\n        loan.loanDetails.acceptedTimestamp = uint32(block.timestamp);\n        loan.loanDetails.lastRepaidTimestamp = uint32(block.timestamp);\n\n        loan.state = LoanState.ACCEPTED;\n\n        loan.lender = msg.sender;\n\n        //Aconomy Fee\n        amountToAconomy = LibCalculations.percent(\n            loan.loanDetails.principal,\n            AconomyFee(AconomyFeeAddress).protocolFee()\n        );\n\n        //Pool Fee\n        amountToPool = LibCalculations.percent(\n            loan.loanDetails.principal,\n            poolRegistry(poolRegistryAddress).getPoolFee(loan.poolId)\n        );\n\n        //Amount to Borrower\n        amountToBorrower =\n            loan.loanDetails.principal -\n            amountToAconomy -\n            amountToPool;\n\n        //Transfer Aconomy Fee\n        if (amountToAconomy != 0) {\n            bool isSuccess = IERC20(loan.loanDetails.lendingToken).transferFrom(\n                loan.lender,\n                AconomyFee(AconomyFeeAddress).getAconomyOwnerAddress(),\n                amountToAconomy\n            );\n            require(isSuccess, \"Not able to tansfer to aconomy fee address\");\n        }\n\n        //Transfer to Pool Owner\n        if (amountToPool != 0) {\n            bool isSuccess2 = IERC20(loan.loanDetails.lendingToken)\n                .transferFrom(\n                    loan.lender,\n                    poolRegistry(poolRegistryAddress).getPoolOwner(loan.poolId),\n                    amountToPool\n                );\n            require(isSuccess2, \"Not able to tansfer to pool owner\");\n        }\n\n        //transfer funds to borrower\n        bool isSuccess3 = IERC20(loan.loanDetails.lendingToken).transferFrom(\n            loan.lender,\n            loan.borrower,\n            amountToBorrower\n        );\n\n        require(isSuccess3, \"Not able to tansfer to borrower\");\n\n        // Record Amount filled by lenders\n        lenderLendAmount[address(loan.loanDetails.lendingToken)][\n            loan.lender\n        ] += loan.loanDetails.principal;\n        totalERC20Amount[address(loan.loanDetails.lendingToken)] += loan\n            .loanDetails\n            .principal;\n\n        // Store Borrower's active loan\n        require(\n            borrowerActiveLoans[loan.borrower].add(_loanId),\n            \"accept loan failed, add to borrweractiveloans\"\n        );\n\n        emit loanAccepted(_loanId, loan.lender);\n\n        emit AcceptedLoanDetail(_loanId, \"protocol\", amountToAconomy);\n        emit AcceptedLoanDetail(_loanId, \"Pool\", amountToPool);\n        emit AcceptedLoanDetail(_loanId, \"Borrower\", amountToBorrower);\n    }\n\n    function isLoanExpired(uint256 _loanId) public view returns (bool) {\n        Loan storage loan = loans[_loanId];\n\n        if (loan.state != LoanState.PENDING) return false;\n        if (loanExpirationTime[_loanId] == 0) return false;\n\n        return (uint32(block.timestamp) >\n            loan.loanDetails.timestamp + loanExpirationTime[_loanId]);\n    }\n\n    function isLoanDefaulted(uint256 _loanId) public view returns (bool) {\n        Loan storage loan = loans[_loanId];\n\n        // Make sure loan cannot be liquidated if it is not active\n        if (loan.state != LoanState.ACCEPTED) return false;\n\n        if (loanDefaultDuration[_loanId] == 0) return false;\n\n        return (uint32(block.timestamp) - lastRepaidTimestamp(_loanId) >\n            loanDefaultDuration[_loanId]);\n    }\n\n    function lastRepaidTimestamp(uint256 _loanId) public view returns (uint32) {\n        return LibCalculations.lastRepaidTimestamp(loans[_loanId]);\n    }\n\n    function isPaymentLate(uint256 _loanId) public view returns (bool) {\n        if (loans[_loanId].state != LoanState.ACCEPTED) return false;\n        return uint32(block.timestamp) > calculateNextDueDate(_loanId);\n    }\n\n    function calculateNextDueDate(\n        uint256 _loanId\n    ) public view returns (uint32 dueDate_) {\n        Loan storage loan = loans[_loanId];\n        if (loans[_loanId].state != LoanState.ACCEPTED) return dueDate_;\n\n        // Start with the original due date being 1 payment cycle since loan was accepted\n        dueDate_ = loan.loanDetails.acceptedTimestamp + loan.terms.paymentCycle;\n\n        // Calculate the cycle number the last repayment was made\n        uint32 delta = lastRepaidTimestamp(_loanId) -\n            loan.loanDetails.acceptedTimestamp;\n        if (delta > 0) {\n            uint32 repaymentCycle = 1 + (delta / loan.terms.paymentCycle);\n            dueDate_ += (repaymentCycle * loan.terms.paymentCycle);\n        }\n\n        //if we are in the last payment cycle, the next due date is the end of loan duration\n        if (\n            dueDate_ >\n            loan.loanDetails.acceptedTimestamp + loan.loanDetails.loanDuration\n        ) {\n            dueDate_ =\n                loan.loanDetails.acceptedTimestamp +\n                loan.loanDetails.loanDuration;\n        }\n    }\n\n    function repayYourLoan(uint256 _loanId) external nonReentrant {\n        if (loans[_loanId].state != LoanState.ACCEPTED) {\n            revert(\"Loan must be accepted\");\n        }\n        (\n            uint256 owedAmount,\n            uint256 dueAmount,\n            uint256 interest\n        ) = LibCalculations.owedAmount(loans[_loanId], block.timestamp);\n        _repayLoan(\n            _loanId,\n            Payment({principal: dueAmount, interest: interest}),\n            owedAmount + interest\n        );\n        emit repaidAmounts(owedAmount, dueAmount, interest);\n    }\n\n    function viewInstallmentAmount(\n        uint256 _loanId\n    ) public view returns (uint256) {\n        (, uint256 dueAmount, uint256 interest) = LibCalculations.owedAmount(\n            loans[_loanId],\n            block.timestamp\n        );\n\n        uint256 paymentAmount = dueAmount + interest;\n        if (\n            loans[_loanId].state != LoanState.ACCEPTED ||\n            loans[_loanId].state == LoanState.PAID\n        ) {\n            paymentAmount = 0;\n        }\n        return paymentAmount;\n    }\n\n    function viewFullRepayAmount(\n        uint256 _loanId\n    ) public view returns (uint256) {\n        (uint256 owedAmount, , uint256 interest) = LibCalculations.owedAmount(\n            loans[_loanId],\n            block.timestamp\n        );\n\n        uint256 paymentAmount = owedAmount + interest;\n        if (\n            loans[_loanId].state != LoanState.ACCEPTED ||\n            loans[_loanId].state == LoanState.PAID\n        ) {\n            paymentAmount = 0;\n        }\n        return paymentAmount;\n    }\n\n    function repayFullLoan(uint256 _loanId) external nonReentrant {\n        if (loans[_loanId].state != LoanState.ACCEPTED) {\n            revert(\"Loan must be accepted\");\n        }\n        (uint256 owedPrincipal, , uint256 interest) = LibCalculations\n            .owedAmount(loans[_loanId], block.timestamp);\n        _repayLoan(\n            _loanId,\n            Payment({principal: owedPrincipal, interest: interest}),\n            owedPrincipal + interest\n        );\n    }\n\n    function _repayLoan(\n        uint256 _loanId,\n        Payment memory _payment,\n        uint256 _owedAmount\n    ) internal {\n        Loan storage loan = loans[_loanId];\n        uint256 paymentAmount = _payment.principal + _payment.interest;\n\n        // Check if we are sending a payment or amount remaining\n        if (paymentAmount >= _owedAmount) {\n            paymentAmount = _owedAmount;\n            loan.state = LoanState.PAID;\n\n            // Remove borrower's active loan\n            require(\n                borrowerActiveLoans[loan.borrower].remove(_loanId),\n                \"not able to repay, remove loanId failed\"\n            );\n\n            emit LoanRepaid(_loanId, paymentAmount);\n        } else {\n            emit LoanRepayment(_loanId, paymentAmount);\n        }\n        // Send payment to the lender\n        bool isSuccess = IERC20(loan.loanDetails.lendingToken).transferFrom(\n            msg.sender,\n            loan.lender,\n            paymentAmount\n        );\n\n        require(isSuccess, \"unable to transfer to lender\");\n\n        loan.loanDetails.totalRepaid.principal += _payment.principal;\n        loan.loanDetails.totalRepaid.interest += _payment.interest;\n        loan.loanDetails.lastRepaidTimestamp = uint32(block.timestamp);\n    }\n}\n",
  "sourcePath": "/media/dell/17f09f70-0626-4927-a787-2813ab7ed2c0/dell/Pandora/pooolAddress Pandora Git/aconomy-contract/contracts/poolAddress.sol",
  "compiler": {
    "name": "solc",
    "version": "0.8.11+commit.d7f03943.Emscripten.clang"
  },
  "schemaVersion": "3.4.10",
  "updatedAt": "2023-03-22T05:36:14.128Z",
  "devdoc": {
    "kind": "dev",
    "methods": {},
    "version": 1
  },
  "userdoc": {
    "kind": "user",
    "methods": {},
    "version": 1
  }
}