{
  "contractName": "poolRegistry",
  "abi": [
    {
      "inputs": [
        {
          "internalType": "contract AttestationServices",
          "name": "_attestationServices",
          "type": "address"
        }
      ],
      "stateMutability": "nonpayable",
      "type": "constructor"
    },
    {
      "anonymous": false,
      "inputs": [
        {
          "indexed": false,
          "internalType": "uint256",
          "name": "poolId",
          "type": "uint256"
        },
        {
          "indexed": false,
          "internalType": "address",
          "name": "borrower",
          "type": "address"
        }
      ],
      "name": "BorrowerAttestation",
      "type": "event"
    },
    {
      "anonymous": false,
      "inputs": [
        {
          "indexed": false,
          "internalType": "uint256",
          "name": "poolId",
          "type": "uint256"
        },
        {
          "indexed": false,
          "internalType": "address",
          "name": "lender",
          "type": "address"
        }
      ],
      "name": "LenderAttestation",
      "type": "event"
    },
    {
      "anonymous": false,
      "inputs": [
        {
          "indexed": false,
          "internalType": "uint256",
          "name": "poolId",
          "type": "uint256"
        },
        {
          "indexed": false,
          "internalType": "uint32",
          "name": "duration",
          "type": "uint32"
        }
      ],
      "name": "SetBidExpirationTime",
      "type": "event"
    },
    {
      "anonymous": false,
      "inputs": [
        {
          "indexed": false,
          "internalType": "uint256",
          "name": "poolId",
          "type": "uint256"
        },
        {
          "indexed": false,
          "internalType": "uint32",
          "name": "duration",
          "type": "uint32"
        }
      ],
      "name": "SetPaymentCycleDuration",
      "type": "event"
    },
    {
      "anonymous": false,
      "inputs": [
        {
          "indexed": false,
          "internalType": "uint256",
          "name": "poolId",
          "type": "uint256"
        },
        {
          "indexed": false,
          "internalType": "uint32",
          "name": "duration",
          "type": "uint32"
        }
      ],
      "name": "SetPaymentDefaultDuration",
      "type": "event"
    },
    {
      "anonymous": false,
      "inputs": [
        {
          "indexed": false,
          "internalType": "uint256",
          "name": "poolId",
          "type": "uint256"
        },
        {
          "indexed": false,
          "internalType": "uint16",
          "name": "feePct",
          "type": "uint16"
        }
      ],
      "name": "SetPoolFee",
      "type": "event"
    },
    {
      "anonymous": false,
      "inputs": [
        {
          "indexed": false,
          "internalType": "uint256",
          "name": "poolId",
          "type": "uint256"
        },
        {
          "indexed": false,
          "internalType": "string",
          "name": "uri",
          "type": "string"
        }
      ],
      "name": "SetPoolURI",
      "type": "event"
    },
    {
      "anonymous": false,
      "inputs": [
        {
          "indexed": true,
          "internalType": "address",
          "name": "owner",
          "type": "address"
        },
        {
          "indexed": false,
          "internalType": "address",
          "name": "poolAddress",
          "type": "address"
        },
        {
          "indexed": false,
          "internalType": "uint256",
          "name": "poolId",
          "type": "uint256"
        }
      ],
      "name": "poolCreated",
      "type": "event"
    },
    {
      "inputs": [],
      "name": "attestationService",
      "outputs": [
        {
          "internalType": "contract AttestationServices",
          "name": "",
          "type": "address"
        }
      ],
      "stateMutability": "view",
      "type": "function",
      "constant": true
    },
    {
      "inputs": [],
      "name": "borrowerAttestationSchemaId",
      "outputs": [
        {
          "internalType": "bytes32",
          "name": "",
          "type": "bytes32"
        }
      ],
      "stateMutability": "view",
      "type": "function",
      "constant": true
    },
    {
      "inputs": [],
      "name": "lenderAttestationSchemaId",
      "outputs": [
        {
          "internalType": "bytes32",
          "name": "",
          "type": "bytes32"
        }
      ],
      "stateMutability": "view",
      "type": "function",
      "constant": true
    },
    {
      "inputs": [],
      "name": "poolCount",
      "outputs": [
        {
          "internalType": "uint256",
          "name": "",
          "type": "uint256"
        }
      ],
      "stateMutability": "view",
      "type": "function",
      "constant": true
    },
    {
      "inputs": [
        {
          "internalType": "string",
          "name": "_word",
          "type": "string"
        },
        {
          "internalType": "bytes32",
          "name": "ans",
          "type": "bytes32"
        }
      ],
      "name": "guess",
      "outputs": [
        {
          "internalType": "bool",
          "name": "",
          "type": "bool"
        }
      ],
      "stateMutability": "view",
      "type": "function",
      "constant": true
    },
    {
      "inputs": [
        {
          "internalType": "address",
          "name": "_initialOwner",
          "type": "address"
        },
        {
          "internalType": "uint32",
          "name": "_paymentCycleDuration",
          "type": "uint32"
        },
        {
          "internalType": "uint32",
          "name": "_paymentDefaultDuration",
          "type": "uint32"
        },
        {
          "internalType": "uint32",
          "name": "_bidExpirationTime",
          "type": "uint32"
        },
        {
          "internalType": "uint16",
          "name": "_feePercent",
          "type": "uint16"
        },
        {
          "internalType": "bool",
          "name": "_requireLenderAttestation",
          "type": "bool"
        },
        {
          "internalType": "bool",
          "name": "_requireBorrowerAttestation",
          "type": "bool"
        },
        {
          "internalType": "string",
          "name": "_uri",
          "type": "string"
        }
      ],
      "name": "createMarket",
      "outputs": [],
      "stateMutability": "nonpayable",
      "type": "function"
    },
    {
      "inputs": [
        {
          "internalType": "uint256",
          "name": "_poolId",
          "type": "uint256"
        },
        {
          "internalType": "string",
          "name": "_uri",
          "type": "string"
        }
      ],
      "name": "setPoolURI",
      "outputs": [],
      "stateMutability": "nonpayable",
      "type": "function"
    },
    {
      "inputs": [
        {
          "internalType": "uint256",
          "name": "_poolId",
          "type": "uint256"
        },
        {
          "internalType": "uint32",
          "name": "_duration",
          "type": "uint32"
        }
      ],
      "name": "setPaymentCycleDuration",
      "outputs": [],
      "stateMutability": "nonpayable",
      "type": "function"
    },
    {
      "inputs": [
        {
          "internalType": "uint256",
          "name": "_poolId",
          "type": "uint256"
        },
        {
          "internalType": "uint32",
          "name": "_duration",
          "type": "uint32"
        }
      ],
      "name": "setPaymentDefaultDuration",
      "outputs": [],
      "stateMutability": "nonpayable",
      "type": "function"
    },
    {
      "inputs": [
        {
          "internalType": "uint256",
          "name": "_poolId",
          "type": "uint256"
        },
        {
          "internalType": "uint16",
          "name": "_newPercent",
          "type": "uint16"
        }
      ],
      "name": "setPoolFeePercent",
      "outputs": [],
      "stateMutability": "nonpayable",
      "type": "function"
    },
    {
      "inputs": [
        {
          "internalType": "uint256",
          "name": "_poolId",
          "type": "uint256"
        },
        {
          "internalType": "uint32",
          "name": "_duration",
          "type": "uint32"
        }
      ],
      "name": "setBidExpirationTime",
      "outputs": [],
      "stateMutability": "nonpayable",
      "type": "function"
    },
    {
      "inputs": [
        {
          "internalType": "uint256",
          "name": "_poolId",
          "type": "uint256"
        },
        {
          "internalType": "address",
          "name": "_lenderAddress",
          "type": "address"
        },
        {
          "internalType": "uint256",
          "name": "_expirationTime",
          "type": "uint256"
        }
      ],
      "name": "addLender",
      "outputs": [],
      "stateMutability": "nonpayable",
      "type": "function"
    },
    {
      "inputs": [
        {
          "internalType": "uint256",
          "name": "_poolId",
          "type": "uint256"
        },
        {
          "internalType": "address",
          "name": "_borrowerAddress",
          "type": "address"
        },
        {
          "internalType": "uint256",
          "name": "_expirationTime",
          "type": "uint256"
        }
      ],
      "name": "addBorrower",
      "outputs": [],
      "stateMutability": "nonpayable",
      "type": "function"
    },
    {
      "inputs": [
        {
          "internalType": "uint256",
          "name": "_poolId",
          "type": "uint256"
        },
        {
          "internalType": "address",
          "name": "_borrowerAddress",
          "type": "address"
        }
      ],
      "name": "borrowerVarification",
      "outputs": [
        {
          "internalType": "bool",
          "name": "isVerified_",
          "type": "bool"
        },
        {
          "internalType": "bytes32",
          "name": "uuid_",
          "type": "bytes32"
        }
      ],
      "stateMutability": "view",
      "type": "function",
      "constant": true
    },
    {
      "inputs": [
        {
          "internalType": "uint256",
          "name": "_poolId",
          "type": "uint256"
        }
      ],
      "name": "ClosedPool",
      "outputs": [
        {
          "internalType": "bool",
          "name": "",
          "type": "bool"
        }
      ],
      "stateMutability": "view",
      "type": "function",
      "constant": true
    },
    {
      "inputs": [
        {
          "internalType": "uint256",
          "name": "_poolId",
          "type": "uint256"
        }
      ],
      "name": "getPaymentCycleDuration",
      "outputs": [
        {
          "internalType": "uint32",
          "name": "",
          "type": "uint32"
        }
      ],
      "stateMutability": "view",
      "type": "function",
      "constant": true
    },
    {
      "inputs": [
        {
          "internalType": "uint256",
          "name": "_poolId",
          "type": "uint256"
        }
      ],
      "name": "getPaymentDefaultDuration",
      "outputs": [
        {
          "internalType": "uint32",
          "name": "",
          "type": "uint32"
        }
      ],
      "stateMutability": "view",
      "type": "function",
      "constant": true
    },
    {
      "inputs": [
        {
          "internalType": "uint256",
          "name": "poolId",
          "type": "uint256"
        }
      ],
      "name": "getBidExpirationTime",
      "outputs": [
        {
          "internalType": "uint32",
          "name": "",
          "type": "uint32"
        }
      ],
      "stateMutability": "view",
      "type": "function",
      "constant": true
    }
  ],
  "bytecode": "0x60806040523480156200001157600080fd5b50604051620029c0380380620029c08339818101604052810190620000379190620002e8565b806000806101000a81548173ffffffffffffffffffffffffffffffffffffffff021916908373ffffffffffffffffffffffffffffffffffffffff1602179055508073ffffffffffffffffffffffffffffffffffffffff166381fa6cd36040518163ffffffff1660e01b8152600401602060405180830381865afa158015620000c3573d6000803e3d6000fd5b505050506040513d601f19601f82011682018060405250810190620000e991906200035f565b73ffffffffffffffffffffffffffffffffffffffff166382fbdc9c6040518163ffffffff1660e01b8152600401620001219062000418565b6020604051808303816000875af115801562000141573d6000803e3d6000fd5b505050506040513d601f19601f8201168201806040525081019062000167919062000475565b6001819055508073ffffffffffffffffffffffffffffffffffffffff166381fa6cd36040518163ffffffff1660e01b8152600401602060405180830381865afa158015620001b9573d6000803e3d6000fd5b505050506040513d601f19601f82011682018060405250810190620001df91906200035f565b73ffffffffffffffffffffffffffffffffffffffff166382fbdc9c6040518163ffffffff1660e01b815260040162000217906200051d565b6020604051808303816000875af115801562000237573d6000803e3d6000fd5b505050506040513d601f19601f820116820180604052508101906200025d919062000475565b600281905550506200053f565b600080fd5b600073ffffffffffffffffffffffffffffffffffffffff82169050919050565b60006200029c826200026f565b9050919050565b6000620002b0826200028f565b9050919050565b620002c281620002a3565b8114620002ce57600080fd5b50565b600081519050620002e281620002b7565b92915050565b6000602082840312156200030157620003006200026a565b5b60006200031184828501620002d1565b91505092915050565b600062000327826200028f565b9050919050565b62000339816200031a565b81146200034557600080fd5b50565b60008151905062000359816200032e565b92915050565b6000602082840312156200037857620003776200026a565b5b6000620003888482850162000348565b91505092915050565b600082825260208201905092915050565b7f2875696e7432353620706f6f6c49642c2061646472657373206c656e6465724160008201527f6464726573732900000000000000000000000000000000000000000000000000602082015250565b60006200040060278362000391565b91506200040d82620003a2565b604082019050919050565b600060208201905081810360008301526200043381620003f1565b9050919050565b6000819050919050565b6200044f816200043a565b81146200045b57600080fd5b50565b6000815190506200046f8162000444565b92915050565b6000602082840312156200048e576200048d6200026a565b5b60006200049e848285016200045e565b91505092915050565b7f2875696e7432353620706f6f6c49642c206164647265737320626f72726f776560008201527f7241646472657373290000000000000000000000000000000000000000000000602082015250565b60006200050560298362000391565b91506200051282620004a7565b604082019050919050565b600060208201905081810360008301526200053881620004f6565b9050919050565b612471806200054f6000396000f3fe608060405234801561001057600080fd5b50600436106101165760003560e01c8063a8380df1116100a2578063ecd6ce6e11610071578063ecd6ce6e14610306578063f2e734ba14610322578063f525cb681461033e578063f8795c031461035c578063f9fa93451461037857610116565b8063a8380df114610282578063bd536e6e146102b2578063c381ff3e146102ce578063d404b957146102ea57610116565b80632f1be8f9116100e95780632f1be8f9146101c95780633c0db788146101e5578063679700d914610203578063805deb5314610221578063918d59ea1461025157610116565b8063082fc54d1461011b57806311bed5bb1461014b5780631a5d3a2a1461017b5780632cd04700146101ab575b600080fd5b61013560048036038101906101309190611580565b610394565b60405161014291906115cc565b60405180910390f35b61016560048036038101906101609190611580565b6103c4565b60405161017291906115cc565b60405180910390f35b61019560048036038101906101909190611763565b6103f4565b6040516101a291906117da565b60405180910390f35b6101b3610427565b6040516101c09190611874565b60405180910390f35b6101e360048036038101906101de91906118bb565b61044b565b005b6101ed61059d565b6040516101fa919061190a565b60405180910390f35b61020b6105a3565b604051610218919061190a565b60405180910390f35b61023b60048036038101906102369190611580565b6105a9565b60405161024891906115cc565b60405180910390f35b61026b60048036038101906102669190611963565b6105d9565b6040516102799291906119a3565b60405180910390f35b61029c60048036038101906102979190611580565b610640565b6040516102a991906117da565b60405180910390f35b6102cc60048036038101906102c791906118bb565b61066a565b005b6102e860048036038101906102e391906119cc565b6107bc565b005b61030460048036038101906102ff9190611a7f565b6107ce565b005b610320600480360381019061031b91906118bb565b610945565b005b61033c600480360381019061033791906119cc565b610a97565b005b610346610aa9565b6040516103539190611aee565b60405180910390f35b61037660048036038101906103719190611b43565b610aaf565b005b610392600480360381019061038d9190611baf565b610c51565b005b60006004600083815260200190815260200160002060070160089054906101000a900463ffffffff169050919050565b60006004600083815260200190815260200160002060070160049054906101000a900463ffffffff169050919050565b600081836040516020016104089190611cff565b6040516020818303038152906040528051906020012014905092915050565b60008054906101000a900473ffffffffffffffffffffffffffffffffffffffff1681565b813373ffffffffffffffffffffffffffffffffffffffff166004600083815260200190815260200160002060010160009054906101000a900473ffffffffffffffffffffffffffffffffffffffff1673ffffffffffffffffffffffffffffffffffffffff16146104f0576040517f08c379a00000000000000000000000000000000000000000000000000000000081526004016104e790611d73565b60405180910390fd5b6004600084815260200190815260200160002060070160049054906101000a900463ffffffff1663ffffffff168263ffffffff161461059857816004600085815260200190815260200160002060070160046101000a81548163ffffffff021916908363ffffffff1602179055507f3e49e2efeacab7e8344acd4e7940449bf62039aa3734c34fa6d3525654be8101838360405161058f929190611d93565b60405180910390a15b505050565b60015481565b60025481565b60006004600083815260200190815260200160002060070160009054906101000a900463ffffffff169050919050565b6000806106358360046000878152602001908152602001600020600701600c9054906101000a900460ff1660046000888152602001908152602001600020600a0160046000898152602001908152602001600020600801610c6e565b915091509250929050565b60006005600083815260200190815260200160002060009054906101000a900460ff169050919050565b813373ffffffffffffffffffffffffffffffffffffffff166004600083815260200190815260200160002060010160009054906101000a900473ffffffffffffffffffffffffffffffffffffffff1673ffffffffffffffffffffffffffffffffffffffff161461070f576040517f08c379a000000000000000000000000000000000000000000000000000000000815260040161070690611d73565b60405180910390fd5b6004600084815260200190815260200160002060070160089054906101000a900463ffffffff1663ffffffff168263ffffffff16146107b757816004600085815260200190815260200160002060070160086101000a81548163ffffffff021916908363ffffffff1602179055507ff0275a50e761f3b1635fa59ce199b1f2268b3fcb7fbdfb18c21aa3d2d78aa7b783836040516107ae929190611d93565b60405180910390a15b505050565b6107c98383836000610dc0565b505050565b823373ffffffffffffffffffffffffffffffffffffffff166004600083815260200190815260200160002060010160009054906101000a900473ffffffffffffffffffffffffffffffffffffffff1673ffffffffffffffffffffffffffffffffffffffff1614610873576040517f08c379a000000000000000000000000000000000000000000000000000000000815260040161086a90611d73565b60405180910390fd5b600460008581526020019081526020016000206002016040516020016108999190611eb1565b6040516020818303038152906040528051906020012083836040516020016108c2929190611eed565b604051602081830303815290604052805190602001201461093f578282600460008781526020019081526020016000206002019190610902929190611493565b507faea0b816063c817d82c498925319d9f08eb53332cf08ca227ea12c38a571462484848460405161093693929190611f33565b60405180910390a15b50505050565b813373ffffffffffffffffffffffffffffffffffffffff166004600083815260200190815260200160002060010160009054906101000a900473ffffffffffffffffffffffffffffffffffffffff1673ffffffffffffffffffffffffffffffffffffffff16146109ea576040517f08c379a00000000000000000000000000000000000000000000000000000000081526004016109e190611d73565b60405180910390fd5b6004600084815260200190815260200160002060070160009054906101000a900463ffffffff1663ffffffff168263ffffffff1614610a9257816004600085815260200190815260200160002060070160006101000a81548163ffffffff021916908363ffffffff1602179055507fa04499c227e7a6de804e5a57e4b38990792373bd8d73b6c13ab76e40600748438383604051610a89929190611d93565b60405180910390a15b505050565b610aa48383836001610dc0565b505050565b60065481565b813373ffffffffffffffffffffffffffffffffffffffff166004600083815260200190815260200160002060010160009054906101000a900473ffffffffffffffffffffffffffffffffffffffff1673ffffffffffffffffffffffffffffffffffffffff1614610b54576040517f08c379a0000000000000000000000000000000000000000000000000000000008152600401610b4b90611d73565b60405180910390fd5b60008261ffff1610158015610b6f57506127108261ffff1611155b610bae576040517f08c379a0000000000000000000000000000000000000000000000000000000008152600401610ba590611fb1565b60405180910390fd5b6004600084815260200190815260200160002060030160009054906101000a900461ffff1661ffff168261ffff1614610c4c57816004600085815260200190815260200160002060030160006101000a81548161ffff021916908361ffff1602179055507f24a1eddd3a54f274769832c6e6e16de4e3298679bac8b22e22820be8ef635b598383604051610c43929190611fe0565b60405180910390a15b505050565b610c62898989898989898989610f67565b50505050505050505050565b6000808415610db257610c8a868461121a90919063ffffffff16565b8015610d6a575060008054906101000a900473ffffffffffffffffffffffffffffffffffffffff1673ffffffffffffffffffffffffffffffffffffffff1663e56d679b8560008973ffffffffffffffffffffffffffffffffffffffff1673ffffffffffffffffffffffffffffffffffffffff168152602001908152602001600020546040518263ffffffff1660e01b8152600401610d28919061190a565b602060405180830381865afa158015610d45573d6000803e3d6000fd5b505050506040513d601f19601f82011682018060405250810190610d69919061201e565b5b91508360008773ffffffffffffffffffffffffffffffffffffffff1673ffffffffffffffffffffffffffffffffffffffff168152602001908152602001600020549050610db7565b600191505b94509492505050565b80610dcd57600254610dd1565b6001545b806003819055506004600086815260200190815260200160002060010160009054906101000a900473ffffffffffffffffffffffffffffffffffffffff1673ffffffffffffffffffffffffffffffffffffffff163373ffffffffffffffffffffffffffffffffffffffff1614610e7c576040517f08c379a0000000000000000000000000000000000000000000000000000000008152600401610e7390612097565b60405180910390fd5b60008060009054906101000a900473ffffffffffffffffffffffffffffffffffffffff1673ffffffffffffffffffffffffffffffffffffffff166309a954cd866003548760008b8b604051602001610ed59291906120c6565b6040516020818303038152906040526040518663ffffffff1660e01b8152600401610f0495949392919061218c565b6020604051808303816000875af1158015610f23573d6000803e3d6000fd5b505050506040513d601f19601f82011682018060405250810190610f4791906121fb565b9050610f558686838661124a565b506000801b6003819055505050505050565b60008073ffffffffffffffffffffffffffffffffffffffff168a73ffffffffffffffffffffffffffffffffffffffff161415610fd8576040517f08c379a0000000000000000000000000000000000000000000000000000000008152600401610fcf90612274565b60405180910390fd5b600660008154610fe7906122c3565b9190508190559050600073__LibPool_______________________________633508a72533308d8d8c6040518663ffffffff1660e01b815260040161103095949392919061237d565b602060405180830381865af415801561104d573d6000803e3d6000fd5b505050506040513d601f19601f8201168201806040525081019061107191906123e5565b9050806004600084815260200190815260200160002060000160006101000a81548173ffffffffffffffffffffffffffffffffffffffff021916908373ffffffffffffffffffffffffffffffffffffffff1602179055508a6004600084815260200190815260200160002060010160006101000a81548173ffffffffffffffffffffffffffffffffffffffff021916908373ffffffffffffffffffffffffffffffffffffffff1602179055506111288285856107ce565b611132828b610945565b61113c828a61044b565b6111468288610aaf565b611150828961066a565b85156111865760016004600084815260200190815260200160002060030160026101000a81548160ff0219169083151502179055505b84156111bc57600160046000848152602001908152602001600020600701600c6101000a81548160ff0219169083151502179055505b8a73ffffffffffffffffffffffffffffffffffffffff167f407eac4ec3d5da6bb83c52c3817e2b7e46268bb1e945cc2494b7c01e06d2beae8284604051611204929190612412565b60405180910390a2509998505050505050505050565b6000611242836000018373ffffffffffffffffffffffffffffffffffffffff1660001b6113d0565b905092915050565b801561130f57816004600086815260200190815260200160002060060160008573ffffffffffffffffffffffffffffffffffffffff1673ffffffffffffffffffffffffffffffffffffffff168152602001908152602001600020819055506112d083600460008781526020019081526020016000206004016113f390919063ffffffff16565b507f75675690de0899b0b869d83b44b2d926ac594426b2a0286c478ecdf815cbd33e84846040516113029291906120c6565b60405180910390a16113ca565b8160046000868152602001908152602001600020600a0160008573ffffffffffffffffffffffffffffffffffffffff1673ffffffffffffffffffffffffffffffffffffffff1681526020019081526020016000208190555061138f83600460008781526020019081526020016000206008016113f390919063ffffffff16565b507f0c2cfc7e7a16ebee66e77fb314f4bfdb5505e33e77d41c0c60604efc70fd926b84846040516113c19291906120c6565b60405180910390a15b50505050565b600080836001016000848152602001908152602001600020541415905092915050565b600061141b836000018373ffffffffffffffffffffffffffffffffffffffff1660001b611423565b905092915050565b600061142f83836113d0565b61148857826000018290806001815401808255809150506001900390600052602060002001600090919091909150558260000180549050836001016000848152602001908152602001600020819055506001905061148d565b600090505b92915050565b82805461149f90611deb565b90600052602060002090601f0160209004810192826114c15760008555611508565b82601f106114da57803560ff1916838001178555611508565b82800160010185558215611508579182015b828111156115075782358255916020019190600101906114ec565b5b5090506115159190611519565b5090565b5b8082111561153257600081600090555060010161151a565b5090565b6000604051905090565b600080fd5b600080fd5b6000819050919050565b61155d8161154a565b811461156857600080fd5b50565b60008135905061157a81611554565b92915050565b60006020828403121561159657611595611540565b5b60006115a48482850161156b565b91505092915050565b600063ffffffff82169050919050565b6115c6816115ad565b82525050565b60006020820190506115e160008301846115bd565b92915050565b600080fd5b600080fd5b6000601f19601f8301169050919050565b7f4e487b7100000000000000000000000000000000000000000000000000000000600052604160045260246000fd5b61163a826115f1565b810181811067ffffffffffffffff8211171561165957611658611602565b5b80604052505050565b600061166c611536565b90506116788282611631565b919050565b600067ffffffffffffffff82111561169857611697611602565b5b6116a1826115f1565b9050602081019050919050565b82818337600083830152505050565b60006116d06116cb8461167d565b611662565b9050828152602081018484840111156116ec576116eb6115ec565b5b6116f78482856116ae565b509392505050565b600082601f830112611714576117136115e7565b5b81356117248482602086016116bd565b91505092915050565b6000819050919050565b6117408161172d565b811461174b57600080fd5b50565b60008135905061175d81611737565b92915050565b6000806040838503121561177a57611779611540565b5b600083013567ffffffffffffffff81111561179857611797611545565b5b6117a4858286016116ff565b92505060206117b58582860161174e565b9150509250929050565b60008115159050919050565b6117d4816117bf565b82525050565b60006020820190506117ef60008301846117cb565b92915050565b600073ffffffffffffffffffffffffffffffffffffffff82169050919050565b6000819050919050565b600061183a611835611830846117f5565b611815565b6117f5565b9050919050565b600061184c8261181f565b9050919050565b600061185e82611841565b9050919050565b61186e81611853565b82525050565b60006020820190506118896000830184611865565b92915050565b611898816115ad565b81146118a357600080fd5b50565b6000813590506118b58161188f565b92915050565b600080604083850312156118d2576118d1611540565b5b60006118e08582860161156b565b92505060206118f1858286016118a6565b9150509250929050565b6119048161172d565b82525050565b600060208201905061191f60008301846118fb565b92915050565b6000611930826117f5565b9050919050565b61194081611925565b811461194b57600080fd5b50565b60008135905061195d81611937565b92915050565b6000806040838503121561197a57611979611540565b5b60006119888582860161156b565b92505060206119998582860161194e565b9150509250929050565b60006040820190506119b860008301856117cb565b6119c560208301846118fb565b9392505050565b6000806000606084860312156119e5576119e4611540565b5b60006119f38682870161156b565b9350506020611a048682870161194e565b9250506040611a158682870161156b565b9150509250925092565b600080fd5b600080fd5b60008083601f840112611a3f57611a3e6115e7565b5b8235905067ffffffffffffffff811115611a5c57611a5b611a1f565b5b602083019150836001820283011115611a7857611a77611a24565b5b9250929050565b600080600060408486031215611a9857611a97611540565b5b6000611aa68682870161156b565b935050602084013567ffffffffffffffff811115611ac757611ac6611545565b5b611ad386828701611a29565b92509250509250925092565b611ae88161154a565b82525050565b6000602082019050611b036000830184611adf565b92915050565b600061ffff82169050919050565b611b2081611b09565b8114611b2b57600080fd5b50565b600081359050611b3d81611b17565b92915050565b60008060408385031215611b5a57611b59611540565b5b6000611b688582860161156b565b9250506020611b7985828601611b2e565b9150509250929050565b611b8c816117bf565b8114611b9757600080fd5b50565b600081359050611ba981611b83565b92915050565b60008060008060008060008060006101008a8c031215611bd257611bd1611540565b5b6000611be08c828d0161194e565b9950506020611bf18c828d016118a6565b9850506040611c028c828d016118a6565b9750506060611c138c828d016118a6565b9650506080611c248c828d01611b2e565b95505060a0611c358c828d01611b9a565b94505060c0611c468c828d01611b9a565b93505060e08a013567ffffffffffffffff811115611c6757611c66611545565b5b611c738c828d01611a29565b92509250509295985092959850929598565b600081519050919050565b600081905092915050565b60005b83811015611cb9578082015181840152602081019050611c9e565b83811115611cc8576000848401525b50505050565b6000611cd982611c85565b611ce38185611c90565b9350611cf3818560208601611c9b565b80840191505092915050565b6000611d0b8284611cce565b915081905092915050565b600082825260208201905092915050565b7f4e6f7420746865206f776e657200000000000000000000000000000000000000600082015250565b6000611d5d600d83611d16565b9150611d6882611d27565b602082019050919050565b60006020820190508181036000830152611d8c81611d50565b9050919050565b6000604082019050611da86000830185611adf565b611db560208301846115bd565b9392505050565b7f4e487b7100000000000000000000000000000000000000000000000000000000600052602260045260246000fd5b60006002820490506001821680611e0357607f821691505b60208210811415611e1757611e16611dbc565b5b50919050565b60008190508160005260206000209050919050565b60008154611e3f81611deb565b611e498186611c90565b94506001821660008114611e645760018114611e7557611ea8565b60ff19831686528186019350611ea8565b611e7e85611e1d565b60005b83811015611ea057815481890152600182019150602081019050611e81565b838801955050505b50505092915050565b6000611ebd8284611e32565b915081905092915050565b6000611ed48385611c90565b9350611ee18385846116ae565b82840190509392505050565b6000611efa828486611ec8565b91508190509392505050565b6000611f128385611d16565b9350611f1f8385846116ae565b611f28836115f1565b840190509392505050565b6000604082019050611f486000830186611adf565b8181036020830152611f5b818486611f06565b9050949350505050565b7f696e76616c69642070657263656e740000000000000000000000000000000000600082015250565b6000611f9b600f83611d16565b9150611fa682611f65565b602082019050919050565b60006020820190508181036000830152611fca81611f8e565b9050919050565b611fda81611b09565b82525050565b6000604082019050611ff56000830185611adf565b6120026020830184611fd1565b9392505050565b60008151905061201881611b83565b92915050565b60006020828403121561203457612033611540565b5b600061204284828501612009565b91505092915050565b7f4e6f7420746865206d61726b6574206f776e6572000000000000000000000000600082015250565b6000612081601483611d16565b915061208c8261204b565b602082019050919050565b600060208201905081810360008301526120b081612074565b9050919050565b6120c081611925565b82525050565b60006040820190506120db6000830185611adf565b6120e860208301846120b7565b9392505050565b6000819050919050565b60008160001b9050919050565b600061212161211c612117846120ef565b6120f9565b61172d565b9050919050565b61213181612106565b82525050565b600081519050919050565b600082825260208201905092915050565b600061215e82612137565b6121688185612142565b9350612178818560208601611c9b565b612181816115f1565b840191505092915050565b600060a0820190506121a160008301886120b7565b6121ae60208301876118fb565b6121bb6040830186611adf565b6121c86060830185612128565b81810360808301526121da8184612153565b90509695505050505050565b6000815190506121f581611737565b92915050565b60006020828403121561221157612210611540565b5b600061221f848285016121e6565b91505092915050565b7f496e76616c6964206f776e657220616464726573730000000000000000000000600082015250565b600061225e601583611d16565b915061226982612228565b602082019050919050565b6000602082019050818103600083015261228d81612251565b9050919050565b7f4e487b7100000000000000000000000000000000000000000000000000000000600052601160045260246000fd5b60006122ce8261154a565b91507fffffffffffffffffffffffffffffffffffffffffffffffffffffffffffffffff82141561230157612300612294565b5b600182019050919050565b61231581611925565b82525050565b600061233661233161232c846115ad565b611815565b61154a565b9050919050565b6123468161231b565b82525050565b600061236761236261235d84611b09565b611815565b61154a565b9050919050565b6123778161234c565b82525050565b600060a082019050612392600083018861230c565b61239f602083018761230c565b6123ac604083018661233d565b6123b9606083018561233d565b6123c6608083018461236e565b9695505050505050565b6000815190506123df81611937565b92915050565b6000602082840312156123fb576123fa611540565b5b6000612409848285016123d0565b91505092915050565b600060408201905061242760008301856120b7565b6124346020830184611adf565b939250505056fea2646970667358221220af73b47888846d8bfc29912d79959cc593598c0e402ad40ae6b2416a7ca8353564736f6c634300080b0033",
  "immutableReferences": {},
  "source": "// SPDX-License-Identifier: MIT\npragma solidity >=0.4.22 <0.9.0;\n\n// import \"@openzeppelin/contracts/token/ERC20/IERC20.sol\";\n// import \"@openzeppelin/contracts/token/ERC721/extensions/ERC721URIStorage.sol\";\nimport \"@openzeppelin/contracts/utils/Counters.sol\";\n// import \"./utils/LibShare.sol\";\nimport \"./Libraries/LibPool.sol\";\nimport \"./AttestationServices.sol\";\n// import \"@openzeppelin/contracts/proxy/utils/Initializable.sol\";\n// 0x6515629B35208A10F3ea1142a005DF14e37FDfe5\n// poolAddress\": \"0x9F89ACA814775181f7468a28ae63eEf36aE0fCD7\"\n// Libraries\nimport {EnumerableSet} from \"@openzeppelin/contracts/utils/structs/EnumerableSet.sol\";\n\ncontract poolRegistry {\n    using Counters for Counters.Counter;\n    using EnumerableSet for EnumerableSet.AddressSet;\n\n    modifier ownsPool(uint256 _poolId) {\n        require(pools[_poolId].owner == msg.sender, \"Not the owner\");\n        _;\n    }\n\n    AttestationServices public attestationService;\n    bytes32 public lenderAttestationSchemaId;\n    bytes32 public borrowerAttestationSchemaId;\n    bytes32 private _attestingSchemaId;\n\n     constructor(AttestationServices _attestationServices)  {\n        attestationService = _attestationServices;\n\n        lenderAttestationSchemaId = _attestationServices\n            .getASRegistry()\n            .register(\"(uint256 poolId, address lenderAddress)\");\n        borrowerAttestationSchemaId = _attestationServices\n            .getASRegistry()\n            .register(\"(uint256 poolId, address borrowerAddress)\");\n    }\n\n    modifier lenderOrBorrowerSchema(bytes32 schemaId) {\n        _attestingSchemaId = schemaId;\n        _;\n        _attestingSchemaId = bytes32(0);\n    }\n\n    function guess(string memory _word, bytes32 ans)\n        public\n        view\n        returns (bool)\n    {\n        return keccak256(abi.encodePacked(_word)) == ans;\n    }\n\n    struct poolDetail {\n        address poolAddress;\n        address owner;\n        string metadataURI;\n        uint16 poolFeePercent; // 10000 is 100%\n        bool lenderAttestationRequired;\n        EnumerableSet.AddressSet verifiedLendersForPool;\n        mapping(address => bytes32) lenderAttestationIds;\n        uint32 paymentCycleDuration; //unix time\n        uint32 paymentDefaultDuration; //unix time\n        uint32 bidExpirationTime; //unix time\n        bool borrowerAttestationRequired;\n        EnumerableSet.AddressSet verifiedBorrowersForPool;\n        mapping(address => bytes32) borrowerAttestationIds;\n        address feeRecipient;\n    }\n\n    mapping(uint256 => poolDetail) internal pools;\n    mapping(uint256 => bool) private ClosedPools;\n\n    uint256 public poolCount;\n    event poolCreated(\n        address indexed owner,\n        address poolAddress,\n        uint256 poolId\n    );\n    event SetPoolURI(uint256 poolId, string uri);\n    event SetPaymentCycleDuration(uint256 poolId, uint32 duration);\n    event SetPaymentDefaultDuration(uint256 poolId, uint32 duration);\n    event SetPoolFee(uint256 poolId, uint16 feePct);\n    event SetBidExpirationTime(uint256 poolId, uint32 duration);\n    event LenderAttestation(uint256 poolId, address lender);\n    event BorrowerAttestation(uint256 poolId, address borrower);\n\n    //Create Pool\n    function createMarket(\n        address _initialOwner,\n        uint32 _paymentCycleDuration,\n        uint32 _paymentDefaultDuration,\n        uint32 _bidExpirationTime,\n        uint16 _feePercent,\n        bool _requireLenderAttestation,\n        bool _requireBorrowerAttestation,\n        string calldata _uri\n    ) external {\n        _createMarket(\n            _initialOwner,\n            _paymentCycleDuration,\n            _paymentDefaultDuration,\n            _bidExpirationTime,\n            _feePercent,\n            _requireLenderAttestation,\n            _requireBorrowerAttestation,\n            _uri\n        );\n    }\n\n    // Creates a new Pool.\n    function _createMarket(\n        address _initialOwner,\n        uint32 _paymentCycleDuration,\n        uint32 _paymentDefaultDuration,\n        uint32 _bidExpirationTime,\n        uint16 _feePercent,\n        bool _requireLenderAttestation,\n        bool _requireBorrowerAttestation,\n        string calldata _uri\n    ) internal returns (uint256 poolId_) {\n        require(_initialOwner != address(0), \"Invalid owner address\");\n        // Increment pool ID counter\n        poolId_ = ++poolCount;\n\n        //Deploy Pool Address\n        address poolAddress = LibPool.deployPoolAddress(\n            msg.sender,\n            address(this),\n            _paymentCycleDuration,\n            _paymentDefaultDuration,\n            _feePercent\n        );\n        pools[poolId_].poolAddress = poolAddress;\n        // Set the pool owner\n        pools[poolId_].owner = _initialOwner;\n\n        setPoolURI(poolId_, _uri);\n        setPaymentCycleDuration(poolId_, _paymentCycleDuration);\n        setPaymentDefaultDuration(poolId_, _paymentDefaultDuration);\n        setPoolFeePercent(poolId_, _feePercent);\n        setBidExpirationTime(poolId_, _bidExpirationTime);\n\n        // Check if pool requires lender attestation to join\n        if (_requireLenderAttestation) {\n            pools[poolId_].lenderAttestationRequired = true;\n        }\n        // Check if pool requires borrower attestation to join\n        if (_requireBorrowerAttestation) {\n            pools[poolId_].borrowerAttestationRequired = true;\n        }\n\n        emit poolCreated(_initialOwner, poolAddress, poolId_);\n    }\n\n    function setPoolURI(uint256 _poolId, string calldata _uri)\n        public\n        ownsPool(_poolId)\n    {\n        //We do string comparison by checking the hashes of the strings against one another\n        if (\n            keccak256(abi.encodePacked(_uri)) !=\n            keccak256(abi.encodePacked(pools[_poolId].metadataURI))\n        ) {\n            pools[_poolId].metadataURI = _uri;\n\n            emit SetPoolURI(_poolId, _uri);\n        }\n    }\n\n    function setPaymentCycleDuration(uint256 _poolId, uint32 _duration)\n        public\n        ownsPool(_poolId)\n    {\n        if (_duration != pools[_poolId].paymentCycleDuration) {\n            pools[_poolId].paymentCycleDuration = _duration;\n\n            emit SetPaymentCycleDuration(_poolId, _duration);\n        }\n    }\n\n    function setPaymentDefaultDuration(uint256 _poolId, uint32 _duration)\n        public\n        ownsPool(_poolId)\n    {\n        if (_duration != pools[_poolId].paymentDefaultDuration) {\n            pools[_poolId].paymentDefaultDuration = _duration;\n\n            emit SetPaymentDefaultDuration(_poolId, _duration);\n        }\n    }\n\n    function setPoolFeePercent(uint256 _poolId, uint16 _newPercent)\n        public\n        ownsPool(_poolId)\n    {\n        require(_newPercent >= 0 && _newPercent <= 10000, \"invalid percent\");\n        if (_newPercent != pools[_poolId].poolFeePercent) {\n            pools[_poolId].poolFeePercent = _newPercent;\n            emit SetPoolFee(_poolId, _newPercent);\n        }\n    }\n\n    function setBidExpirationTime(uint256 _poolId, uint32 _duration)\n        public\n        ownsPool(_poolId)\n    {\n        if (_duration != pools[_poolId].bidExpirationTime) {\n            pools[_poolId].bidExpirationTime = _duration;\n\n            emit SetBidExpirationTime(_poolId, _duration);\n        }\n    }\n\n    function addLender(\n        uint256 _poolId,\n        address _lenderAddress,\n        uint256 _expirationTime\n    ) external {\n        _attestAddress(_poolId, _lenderAddress, _expirationTime, true);\n    }\n\n    function addBorrower(\n        uint256 _poolId,\n        address _borrowerAddress,\n        uint256 _expirationTime\n    ) external {\n        _attestAddress(_poolId, _borrowerAddress, _expirationTime, false);\n    }\n\n    function _attestAddress(\n        uint256 _poolId,\n        address _Address,\n        uint256 _expirationTime,\n        bool _isLender\n    )\n        internal\n        lenderOrBorrowerSchema(\n            _isLender ? lenderAttestationSchemaId : borrowerAttestationSchemaId\n        )\n    {\n        require(msg.sender == pools[_poolId].owner, \"Not the market owner\");\n\n        // Submit attestation for borrower to join a market\n        bytes32 uuid = attestationService.attest(\n            _Address,\n            _attestingSchemaId, // set by the modifier\n            _expirationTime,\n            0,\n            abi.encode(_poolId, _Address)\n        );\n\n        _attestAddressVerification(_poolId, _Address, uuid, _isLender);\n    }\n\n    function _attestAddressVerification(\n        uint256 _poolId,\n        address _Address,\n        bytes32 _uuid,\n        bool _isLender\n    ) internal {\n        if (_isLender) {\n            // Store the lender attestation ID for the market ID\n            pools[_poolId].lenderAttestationIds[_Address] = _uuid;\n            // Add lender address to market set\n            pools[_poolId].verifiedLendersForPool.add(_Address);\n\n            emit LenderAttestation(_poolId, _Address);\n        } else {\n            // Store the lender attestation ID for the pool ID\n            pools[_poolId].borrowerAttestationIds[_Address] = _uuid;\n            // Add lender address to pool set\n            pools[_poolId].verifiedBorrowersForPool.add(_Address);\n\n            emit BorrowerAttestation(_poolId, _Address);\n        }\n    }\n\n    function borrowerVarification(uint256 _poolId, address _borrowerAddress)\n        public\n        view\n        returns (bool isVerified_, bytes32 uuid_)\n    {\n        return\n            _isBorrowerVerified(\n                _borrowerAddress,\n                pools[_poolId].borrowerAttestationRequired,\n                pools[_poolId].borrowerAttestationIds,\n                pools[_poolId].verifiedBorrowersForPool\n            );\n    }\n\n    function _isBorrowerVerified(\n        address _borrowerAddress,\n        bool _attestationRequired,\n        mapping(address => bytes32) storage _stakeholderAttestationIds,\n        EnumerableSet.AddressSet storage _verifiedStakeholderForPool\n    ) internal view returns (bool isVerified_, bytes32 uuid_) {\n        if (_attestationRequired) {\n            isVerified_ =\n                _verifiedStakeholderForPool.contains(_borrowerAddress) &&\n                attestationService.isAddressActive(\n                    _stakeholderAttestationIds[_borrowerAddress]\n                );\n            uuid_ = _stakeholderAttestationIds[_borrowerAddress];\n        } else {\n            isVerified_ = true;\n        }\n    }\n\n    function ClosedPool(uint256 _poolId) public view returns (bool) {\n        return ClosedPools[_poolId];\n    }\n\n    function getPaymentCycleDuration(uint256 _poolId)\n        public\n        view\n        returns (uint32)\n    {\n        return pools[_poolId].paymentCycleDuration;\n    }\n\n    function getPaymentDefaultDuration(uint256 _poolId)\n        public\n        view\n        returns (uint32)\n    {\n        return pools[_poolId].paymentDefaultDuration;\n    }\n\n    function getBidExpirationTime(uint256 poolId) public view returns (uint32) {\n        return pools[poolId].bidExpirationTime;\n    }\n}\n",
  "sourcePath": "/Users/sanskarkhare/Desktop/Pandora/aconomy-pool-v1/contracts/poolRegistry.sol",
  "compiler": {
    "name": "solc",
    "version": "0.8.11+commit.d7f03943.Emscripten.clang"
  },
  "schemaVersion": "3.4.4",
  "updatedAt": "2023-01-25T11:57:05.702Z",
  "networkType": "ethereum",
  "devdoc": {
    "kind": "dev",
    "methods": {},
    "version": 1
  },
  "userdoc": {
    "kind": "user",
    "methods": {},
    "version": 1
  }
}