{
  "contractName": "poolRegistry",
  "abi": [
    {
      "inputs": [
        {
          "internalType": "contract AttestationServices",
          "name": "_attestationServices",
          "type": "address"
        },
        {
          "internalType": "address",
          "name": "_AconomyFeeAddress",
          "type": "address"
        }
      ],
      "stateMutability": "nonpayable",
      "type": "constructor"
    },
    {
      "anonymous": false,
      "inputs": [
        {
          "indexed": false,
          "internalType": "uint256",
          "name": "poolId",
          "type": "uint256"
        },
        {
          "indexed": false,
          "internalType": "address",
          "name": "borrower",
          "type": "address"
        }
      ],
      "name": "BorrowerAttestation",
      "type": "event"
    },
    {
      "anonymous": false,
      "inputs": [
        {
          "indexed": false,
          "internalType": "uint256",
          "name": "poolId",
          "type": "uint256"
        },
        {
          "indexed": false,
          "internalType": "address",
          "name": "lender",
          "type": "address"
        }
      ],
      "name": "LenderAttestation",
      "type": "event"
    },
    {
      "anonymous": false,
      "inputs": [
        {
          "indexed": false,
          "internalType": "uint256",
          "name": "poolId",
          "type": "uint256"
        },
        {
          "indexed": false,
          "internalType": "uint32",
          "name": "duration",
          "type": "uint32"
        }
      ],
      "name": "SetPaymentCycleDuration",
      "type": "event"
    },
    {
      "anonymous": false,
      "inputs": [
        {
          "indexed": false,
          "internalType": "uint256",
          "name": "poolId",
          "type": "uint256"
        },
        {
          "indexed": false,
          "internalType": "uint32",
          "name": "duration",
          "type": "uint32"
        }
      ],
      "name": "SetPaymentDefaultDuration",
      "type": "event"
    },
    {
      "anonymous": false,
      "inputs": [
        {
          "indexed": false,
          "internalType": "uint256",
          "name": "poolId",
          "type": "uint256"
        },
        {
          "indexed": false,
          "internalType": "uint16",
          "name": "feePct",
          "type": "uint16"
        }
      ],
      "name": "SetPoolFee",
      "type": "event"
    },
    {
      "anonymous": false,
      "inputs": [
        {
          "indexed": false,
          "internalType": "uint256",
          "name": "poolId",
          "type": "uint256"
        },
        {
          "indexed": false,
          "internalType": "string",
          "name": "uri",
          "type": "string"
        }
      ],
      "name": "SetPoolURI",
      "type": "event"
    },
    {
      "anonymous": false,
      "inputs": [
        {
          "indexed": false,
          "internalType": "uint256",
          "name": "poolId",
          "type": "uint256"
        },
        {
          "indexed": false,
          "internalType": "uint32",
          "name": "duration",
          "type": "uint32"
        }
      ],
      "name": "SetloanExpirationTime",
      "type": "event"
    },
    {
      "anonymous": false,
      "inputs": [
        {
          "indexed": true,
          "internalType": "address",
          "name": "owner",
          "type": "address"
        },
        {
          "indexed": false,
          "internalType": "address",
          "name": "poolAddress",
          "type": "address"
        },
        {
          "indexed": false,
          "internalType": "uint256",
          "name": "poolId",
          "type": "uint256"
        }
      ],
      "name": "poolCreated",
      "type": "event"
    },
    {
      "inputs": [],
      "name": "attestationService",
      "outputs": [
        {
          "internalType": "contract AttestationServices",
          "name": "",
          "type": "address"
        }
      ],
      "stateMutability": "view",
      "type": "function",
      "constant": true
    },
    {
      "inputs": [],
      "name": "borrowerAttestationSchemaId",
      "outputs": [
        {
          "internalType": "bytes32",
          "name": "",
          "type": "bytes32"
        }
      ],
      "stateMutability": "view",
      "type": "function",
      "constant": true
    },
    {
      "inputs": [],
      "name": "lenderAttestationSchemaId",
      "outputs": [
        {
          "internalType": "bytes32",
          "name": "",
          "type": "bytes32"
        }
      ],
      "stateMutability": "view",
      "type": "function",
      "constant": true
    },
    {
      "inputs": [],
      "name": "poolCount",
      "outputs": [
        {
          "internalType": "uint256",
          "name": "",
          "type": "uint256"
        }
      ],
      "stateMutability": "view",
      "type": "function",
      "constant": true
    },
    {
      "inputs": [
        {
          "internalType": "string",
          "name": "_word",
          "type": "string"
        },
        {
          "internalType": "bytes32",
          "name": "ans",
          "type": "bytes32"
        }
      ],
      "name": "guess",
      "outputs": [
        {
          "internalType": "bool",
          "name": "",
          "type": "bool"
        }
      ],
      "stateMutability": "view",
      "type": "function",
      "constant": true
    },
    {
      "inputs": [
        {
          "internalType": "address",
          "name": "_initialOwner",
          "type": "address"
        },
        {
          "internalType": "uint32",
          "name": "_paymentCycleDuration",
          "type": "uint32"
        },
        {
          "internalType": "uint32",
          "name": "_paymentDefaultDuration",
          "type": "uint32"
        },
        {
          "internalType": "uint32",
          "name": "_loanExpirationTime",
          "type": "uint32"
        },
        {
          "internalType": "uint16",
          "name": "_poolFeePercent",
          "type": "uint16"
        },
        {
          "internalType": "bool",
          "name": "_requireLenderAttestation",
          "type": "bool"
        },
        {
          "internalType": "bool",
          "name": "_requireBorrowerAttestation",
          "type": "bool"
        },
        {
          "internalType": "string",
          "name": "_uri",
          "type": "string"
        }
      ],
      "name": "createPool",
      "outputs": [],
      "stateMutability": "nonpayable",
      "type": "function"
    },
    {
      "inputs": [
        {
          "internalType": "uint256",
          "name": "_poolId",
          "type": "uint256"
        },
        {
          "internalType": "string",
          "name": "_uri",
          "type": "string"
        }
      ],
      "name": "setPoolURI",
      "outputs": [],
      "stateMutability": "nonpayable",
      "type": "function"
    },
    {
      "inputs": [
        {
          "internalType": "uint256",
          "name": "_poolId",
          "type": "uint256"
        },
        {
          "internalType": "uint32",
          "name": "_duration",
          "type": "uint32"
        }
      ],
      "name": "setPaymentCycleDuration",
      "outputs": [],
      "stateMutability": "nonpayable",
      "type": "function"
    },
    {
      "inputs": [
        {
          "internalType": "uint256",
          "name": "_poolId",
          "type": "uint256"
        },
        {
          "internalType": "uint32",
          "name": "_duration",
          "type": "uint32"
        }
      ],
      "name": "setPaymentDefaultDuration",
      "outputs": [],
      "stateMutability": "nonpayable",
      "type": "function"
    },
    {
      "inputs": [
        {
          "internalType": "uint256",
          "name": "_poolId",
          "type": "uint256"
        },
        {
          "internalType": "uint16",
          "name": "_newPercent",
          "type": "uint16"
        }
      ],
      "name": "setPoolFeePercent",
      "outputs": [],
      "stateMutability": "nonpayable",
      "type": "function"
    },
    {
      "inputs": [
        {
          "internalType": "uint256",
          "name": "_poolId",
          "type": "uint256"
        },
        {
          "internalType": "uint32",
          "name": "_duration",
          "type": "uint32"
        }
      ],
      "name": "setloanExpirationTime",
      "outputs": [],
      "stateMutability": "nonpayable",
      "type": "function"
    },
    {
      "inputs": [
        {
          "internalType": "uint256",
          "name": "_poolId",
          "type": "uint256"
        },
        {
          "internalType": "address",
          "name": "_lenderAddress",
          "type": "address"
        },
        {
          "internalType": "uint256",
          "name": "_expirationTime",
          "type": "uint256"
        }
      ],
      "name": "addLender",
      "outputs": [],
      "stateMutability": "nonpayable",
      "type": "function"
    },
    {
      "inputs": [
        {
          "internalType": "uint256",
          "name": "_poolId",
          "type": "uint256"
        },
        {
          "internalType": "address",
          "name": "_borrowerAddress",
          "type": "address"
        },
        {
          "internalType": "uint256",
          "name": "_expirationTime",
          "type": "uint256"
        }
      ],
      "name": "addBorrower",
      "outputs": [],
      "stateMutability": "nonpayable",
      "type": "function"
    },
    {
      "inputs": [
        {
          "internalType": "uint256",
          "name": "_poolId",
          "type": "uint256"
        }
      ],
      "name": "getPoolFee",
      "outputs": [
        {
          "internalType": "uint16",
          "name": "fee",
          "type": "uint16"
        }
      ],
      "stateMutability": "view",
      "type": "function",
      "constant": true
    },
    {
      "inputs": [
        {
          "internalType": "uint256",
          "name": "_poolId",
          "type": "uint256"
        },
        {
          "internalType": "address",
          "name": "_borrowerAddress",
          "type": "address"
        }
      ],
      "name": "borrowerVarification",
      "outputs": [
        {
          "internalType": "bool",
          "name": "isVerified_",
          "type": "bool"
        },
        {
          "internalType": "bytes32",
          "name": "uuid_",
          "type": "bytes32"
        }
      ],
      "stateMutability": "view",
      "type": "function",
      "constant": true
    },
    {
      "inputs": [
        {
          "internalType": "uint256",
          "name": "_poolId",
          "type": "uint256"
        },
        {
          "internalType": "address",
          "name": "_lenderAddress",
          "type": "address"
        }
      ],
      "name": "lenderVarification",
      "outputs": [
        {
          "internalType": "bool",
          "name": "isVerified_",
          "type": "bool"
        },
        {
          "internalType": "bytes32",
          "name": "uuid_",
          "type": "bytes32"
        }
      ],
      "stateMutability": "view",
      "type": "function",
      "constant": true
    },
    {
      "inputs": [
        {
          "internalType": "uint256",
          "name": "_poolId",
          "type": "uint256"
        }
      ],
      "name": "ClosedPool",
      "outputs": [
        {
          "internalType": "bool",
          "name": "",
          "type": "bool"
        }
      ],
      "stateMutability": "view",
      "type": "function",
      "constant": true
    },
    {
      "inputs": [
        {
          "internalType": "uint256",
          "name": "_poolId",
          "type": "uint256"
        }
      ],
      "name": "getPaymentCycleDuration",
      "outputs": [
        {
          "internalType": "uint32",
          "name": "",
          "type": "uint32"
        }
      ],
      "stateMutability": "view",
      "type": "function",
      "constant": true
    },
    {
      "inputs": [
        {
          "internalType": "uint256",
          "name": "_poolId",
          "type": "uint256"
        }
      ],
      "name": "getPaymentDefaultDuration",
      "outputs": [
        {
          "internalType": "uint32",
          "name": "",
          "type": "uint32"
        }
      ],
      "stateMutability": "view",
      "type": "function",
      "constant": true
    },
    {
      "inputs": [
        {
          "internalType": "uint256",
          "name": "poolId",
          "type": "uint256"
        }
      ],
      "name": "getloanExpirationTime",
      "outputs": [
        {
          "internalType": "uint32",
          "name": "",
          "type": "uint32"
        }
      ],
      "stateMutability": "view",
      "type": "function",
      "constant": true
    },
    {
      "inputs": [
        {
          "internalType": "uint256",
          "name": "_poolId",
          "type": "uint256"
        }
      ],
      "name": "getPoolOwner",
      "outputs": [
        {
          "internalType": "address",
          "name": "",
          "type": "address"
        }
      ],
      "stateMutability": "view",
      "type": "function",
      "constant": true
    }
  ],
  "bytecode": "0x60806040523480156200001157600080fd5b5060405162002c3a38038062002c3a83398181016040528101906200003791906200035b565b81600160006101000a81548173ffffffffffffffffffffffffffffffffffffffff021916908373ffffffffffffffffffffffffffffffffffffffff160217905550806000806101000a81548173ffffffffffffffffffffffffffffffffffffffff021916908373ffffffffffffffffffffffffffffffffffffffff1602179055508173ffffffffffffffffffffffffffffffffffffffff166381fa6cd36040518163ffffffff1660e01b8152600401602060405180830381865afa15801562000104573d6000803e3d6000fd5b505050506040513d601f19601f820116820180604052508101906200012a9190620003e7565b73ffffffffffffffffffffffffffffffffffffffff166382fbdc9c6040518163ffffffff1660e01b81526004016200016290620004a0565b6020604051808303816000875af115801562000182573d6000803e3d6000fd5b505050506040513d601f19601f82011682018060405250810190620001a89190620004fd565b6002819055508173ffffffffffffffffffffffffffffffffffffffff166381fa6cd36040518163ffffffff1660e01b8152600401602060405180830381865afa158015620001fa573d6000803e3d6000fd5b505050506040513d601f19601f82011682018060405250810190620002209190620003e7565b73ffffffffffffffffffffffffffffffffffffffff166382fbdc9c6040518163ffffffff1660e01b81526004016200025890620005a5565b6020604051808303816000875af115801562000278573d6000803e3d6000fd5b505050506040513d601f19601f820116820180604052508101906200029e9190620004fd565b6003819055505050620005c7565b600080fd5b600073ffffffffffffffffffffffffffffffffffffffff82169050919050565b6000620002de82620002b1565b9050919050565b6000620002f282620002d1565b9050919050565b6200030481620002e5565b81146200031057600080fd5b50565b6000815190506200032481620002f9565b92915050565b6200033581620002d1565b81146200034157600080fd5b50565b60008151905062000355816200032a565b92915050565b60008060408385031215620003755762000374620002ac565b5b6000620003858582860162000313565b9250506020620003988582860162000344565b9150509250929050565b6000620003af82620002d1565b9050919050565b620003c181620003a2565b8114620003cd57600080fd5b50565b600081519050620003e181620003b6565b92915050565b6000602082840312156200040057620003ff620002ac565b5b60006200041084828501620003d0565b91505092915050565b600082825260208201905092915050565b7f2875696e7432353620706f6f6c49642c2061646472657373206c656e6465724160008201527f6464726573732900000000000000000000000000000000000000000000000000602082015250565b60006200048860278362000419565b915062000495826200042a565b604082019050919050565b60006020820190508181036000830152620004bb8162000479565b9050919050565b6000819050919050565b620004d781620004c2565b8114620004e357600080fd5b50565b600081519050620004f781620004cc565b92915050565b600060208284031215620005165762000515620002ac565b5b60006200052684828501620004e6565b91505092915050565b7f2875696e7432353620706f6f6c49642c206164647265737320626f72726f776560008201527f7241646472657373290000000000000000000000000000000000000000000000602082015250565b60006200058d60298362000419565b91506200059a826200052f565b604082019050919050565b60006020820190508181036000830152620005c0816200057e565b9050919050565b61266380620005d76000396000f3fe608060405234801561001057600080fd5b50600436106101375760003560e01c8063918d59ea116100b8578063d404b9571161007c578063d404b9571461039c578063e18bdb83146103b8578063ecd6ce6e146103d4578063f2e734ba146103f0578063f525cb681461040c578063f8795c031461042a57610137565b8063918d59ea146102be578063a8380df1146102ef578063c28ba8eb1461031f578063c381ff3e1461034f578063cf6539201461036b57610137565b8063519b2072116100ff578063519b2072146101f4578063635f1e4d14610210578063679700d9146102405780636e34b4e41461025e578063805deb531461028e57610137565b806311bed5bb1461013c5780631a5d3a2a1461016c5780632cd047001461019c5780632f1be8f9146101ba5780633c0db788146101d6575b600080fd5b6101566004803603810190610151919061172e565b610446565b604051610163919061177a565b60405180910390f35b61018660048036038101906101819190611911565b610476565b6040516101939190611988565b60405180910390f35b6101a46104a9565b6040516101b19190611a22565b60405180910390f35b6101d460048036038101906101cf9190611a69565b6104cf565b005b6101de610621565b6040516101eb9190611ab8565b60405180910390f35b61020e60048036038101906102099190611bd7565b610627565b005b61022a6004803603810190610225919061172e565b610644565b6040516102379190611cbc565b60405180910390f35b610248610672565b6040516102559190611ab8565b60405180910390f35b6102786004803603810190610273919061172e565b610678565b6040516102859190611ce6565b60405180910390f35b6102a860048036038101906102a3919061172e565b6106b8565b6040516102b5919061177a565b60405180910390f35b6102d860048036038101906102d39190611d01565b6106e8565b6040516102e6929190611d41565b60405180910390f35b6103096004803603810190610304919061172e565b61074f565b6040516103169190611988565b60405180910390f35b6103396004803603810190610334919061172e565b610779565b604051610346919061177a565b60405180910390f35b61036960048036038101906103649190611d6a565b6107a9565b005b61038560048036038101906103809190611d01565b6107bb565b604051610393929190611d41565b60405180910390f35b6103b660048036038101906103b19190611dbd565b610822565b005b6103d260048036038101906103cd9190611a69565b610999565b005b6103ee60048036038101906103e99190611a69565b610aeb565b005b61040a60048036038101906104059190611d6a565b610c3d565b005b610414610c4f565b6040516104219190611e2c565b60405180910390f35b610444600480360381019061043f9190611e47565b610c55565b005b60006005600083815260200190815260200160002060070160049054906101000a900463ffffffff169050919050565b6000818360405160200161048a9190611f01565b6040516020818303038152906040528051906020012014905092915050565b600160009054906101000a900473ffffffffffffffffffffffffffffffffffffffff1681565b813373ffffffffffffffffffffffffffffffffffffffff166005600083815260200190815260200160002060010160009054906101000a900473ffffffffffffffffffffffffffffffffffffffff1673ffffffffffffffffffffffffffffffffffffffff1614610574576040517f08c379a000000000000000000000000000000000000000000000000000000000815260040161056b90611f75565b60405180910390fd5b6005600084815260200190815260200160002060070160049054906101000a900463ffffffff1663ffffffff168263ffffffff161461061c57816005600085815260200190815260200160002060070160046101000a81548163ffffffff021916908363ffffffff1602179055507f3e49e2efeacab7e8344acd4e7940449bf62039aa3734c34fa6d3525654be81018383604051610613929190611f95565b60405180910390a15b505050565b60025481565b610638898989898989898989610df7565b50505050505050505050565b60006005600083815260200190815260200160002060030160009054906101000a900461ffff169050919050565b60035481565b60006005600083815260200190815260200160002060010160009054906101000a900473ffffffffffffffffffffffffffffffffffffffff169050919050565b60006005600083815260200190815260200160002060070160009054906101000a900463ffffffff169050919050565b6000806107448360056000878152602001908152602001600020600701600c9054906101000a900460ff1660056000888152602001908152602001600020600a01600560008981526020019081526020016000206008016110cc565b915091509250929050565b60006006600083815260200190815260200160002060009054906101000a900460ff169050919050565b60006005600083815260200190815260200160002060070160089054906101000a900463ffffffff169050919050565b6107b68383836000611220565b505050565b600080610817836005600087815260200190815260200160002060030160029054906101000a900460ff1660056000888152602001908152602001600020600601600560008981526020019081526020016000206004016110cc565b915091509250929050565b823373ffffffffffffffffffffffffffffffffffffffff166005600083815260200190815260200160002060010160009054906101000a900473ffffffffffffffffffffffffffffffffffffffff1673ffffffffffffffffffffffffffffffffffffffff16146108c7576040517f08c379a00000000000000000000000000000000000000000000000000000000081526004016108be90611f75565b60405180910390fd5b600560008581526020019081526020016000206002016040516020016108ed91906120b3565b6040516020818303038152906040528051906020012083836040516020016109169291906120ef565b6040516020818303038152906040528051906020012014610993578282600560008781526020019081526020016000206002019190610956929190611641565b507faea0b816063c817d82c498925319d9f08eb53332cf08ca227ea12c38a571462484848460405161098a93929190612135565b60405180910390a15b50505050565b813373ffffffffffffffffffffffffffffffffffffffff166005600083815260200190815260200160002060010160009054906101000a900473ffffffffffffffffffffffffffffffffffffffff1673ffffffffffffffffffffffffffffffffffffffff1614610a3e576040517f08c379a0000000000000000000000000000000000000000000000000000000008152600401610a3590611f75565b60405180910390fd5b6005600084815260200190815260200160002060070160089054906101000a900463ffffffff1663ffffffff168263ffffffff1614610ae657816005600085815260200190815260200160002060070160086101000a81548163ffffffff021916908363ffffffff1602179055507f8f28307b0f89abbef9b86fdb13ddc77894d04547390687daf215b2f1f63a0baa8383604051610add929190611f95565b60405180910390a15b505050565b813373ffffffffffffffffffffffffffffffffffffffff166005600083815260200190815260200160002060010160009054906101000a900473ffffffffffffffffffffffffffffffffffffffff1673ffffffffffffffffffffffffffffffffffffffff1614610b90576040517f08c379a0000000000000000000000000000000000000000000000000000000008152600401610b8790611f75565b60405180910390fd5b6005600084815260200190815260200160002060070160009054906101000a900463ffffffff1663ffffffff168263ffffffff1614610c3857816005600085815260200190815260200160002060070160006101000a81548163ffffffff021916908363ffffffff1602179055507fa04499c227e7a6de804e5a57e4b38990792373bd8d73b6c13ab76e40600748438383604051610c2f929190611f95565b60405180910390a15b505050565b610c4a8383836001611220565b505050565b60075481565b813373ffffffffffffffffffffffffffffffffffffffff166005600083815260200190815260200160002060010160009054906101000a900473ffffffffffffffffffffffffffffffffffffffff1673ffffffffffffffffffffffffffffffffffffffff1614610cfa576040517f08c379a0000000000000000000000000000000000000000000000000000000008152600401610cf190611f75565b60405180910390fd5b60008261ffff1610158015610d1557506127108261ffff1611155b610d54576040517f08c379a0000000000000000000000000000000000000000000000000000000008152600401610d4b906121b3565b60405180910390fd5b6005600084815260200190815260200160002060030160009054906101000a900461ffff1661ffff168261ffff1614610df257816005600085815260200190815260200160002060030160006101000a81548161ffff021916908361ffff1602179055507f24a1eddd3a54f274769832c6e6e16de4e3298679bac8b22e22820be8ef635b598383604051610de99291906121d3565b60405180910390a15b505050565b60008073ffffffffffffffffffffffffffffffffffffffff168a73ffffffffffffffffffffffffffffffffffffffff161415610e68576040517f08c379a0000000000000000000000000000000000000000000000000000000008152600401610e5f90612248565b60405180910390fd5b600760008154610e7790612297565b9190508190559050600073__LibPool_______________________________63f5217b8c333060008054906101000a900473ffffffffffffffffffffffffffffffffffffffff168e8e8d6040518763ffffffff1660e01b8152600401610ee296959493929190612351565b602060405180830381865af4158015610eff573d6000803e3d6000fd5b505050506040513d601f19601f82011682018060405250810190610f2391906123c7565b9050806005600084815260200190815260200160002060000160006101000a81548173ffffffffffffffffffffffffffffffffffffffff021916908373ffffffffffffffffffffffffffffffffffffffff1602179055508a6005600084815260200190815260200160002060010160006101000a81548173ffffffffffffffffffffffffffffffffffffffff021916908373ffffffffffffffffffffffffffffffffffffffff160217905550610fda828585610822565b610fe4828b610aeb565b610fee828a6104cf565b610ff88288610c55565b6110028289610999565b85156110385760016005600084815260200190815260200160002060030160026101000a81548160ff0219169083151502179055505b841561106e57600160056000848152602001908152602001600020600701600c6101000a81548160ff0219169083151502179055505b8a73ffffffffffffffffffffffffffffffffffffffff167f407eac4ec3d5da6bb83c52c3817e2b7e46268bb1e945cc2494b7c01e06d2beae82846040516110b69291906123f4565b60405180910390a2509998505050505050505050565b6000808415611212576110e886846113c890919063ffffffff16565b80156111ca5750600160009054906101000a900473ffffffffffffffffffffffffffffffffffffffff1673ffffffffffffffffffffffffffffffffffffffff1663e56d679b8560008973ffffffffffffffffffffffffffffffffffffffff1673ffffffffffffffffffffffffffffffffffffffff168152602001908152602001600020546040518263ffffffff1660e01b81526004016111889190611ab8565b602060405180830381865afa1580156111a5573d6000803e3d6000fd5b505050506040513d601f19601f820116820180604052508101906111c99190612432565b5b91508360008773ffffffffffffffffffffffffffffffffffffffff1673ffffffffffffffffffffffffffffffffffffffff168152602001908152602001600020549050611217565b600191505b94509492505050565b8061122d57600354611231565b6002545b806004819055506005600086815260200190815260200160002060010160009054906101000a900473ffffffffffffffffffffffffffffffffffffffff1673ffffffffffffffffffffffffffffffffffffffff163373ffffffffffffffffffffffffffffffffffffffff16146112dc576040517f08c379a00000000000000000000000000000000000000000000000000000000081526004016112d3906124ab565b60405180910390fd5b6000600160009054906101000a900473ffffffffffffffffffffffffffffffffffffffff1673ffffffffffffffffffffffffffffffffffffffff166309a954cd866004548760008b8b6040516020016113369291906124cb565b6040516020818303038152906040526040518663ffffffff1660e01b8152600401611365959493929190612591565b6020604051808303816000875af1158015611384573d6000803e3d6000fd5b505050506040513d601f19601f820116820180604052508101906113a89190612600565b90506113b6868683866113f8565b506000801b6004819055505050505050565b60006113f0836000018373ffffffffffffffffffffffffffffffffffffffff1660001b61157e565b905092915050565b80156114bd57816005600086815260200190815260200160002060060160008573ffffffffffffffffffffffffffffffffffffffff1673ffffffffffffffffffffffffffffffffffffffff1681526020019081526020016000208190555061147e83600560008781526020019081526020016000206004016115a190919063ffffffff16565b507f75675690de0899b0b869d83b44b2d926ac594426b2a0286c478ecdf815cbd33e84846040516114b09291906124cb565b60405180910390a1611578565b8160056000868152602001908152602001600020600a0160008573ffffffffffffffffffffffffffffffffffffffff1673ffffffffffffffffffffffffffffffffffffffff1681526020019081526020016000208190555061153d83600560008781526020019081526020016000206008016115a190919063ffffffff16565b507f0c2cfc7e7a16ebee66e77fb314f4bfdb5505e33e77d41c0c60604efc70fd926b848460405161156f9291906124cb565b60405180910390a15b50505050565b600080836001016000848152602001908152602001600020541415905092915050565b60006115c9836000018373ffffffffffffffffffffffffffffffffffffffff1660001b6115d1565b905092915050565b60006115dd838361157e565b61163657826000018290806001815401808255809150506001900390600052602060002001600090919091909150558260000180549050836001016000848152602001908152602001600020819055506001905061163b565b600090505b92915050565b82805461164d90611fed565b90600052602060002090601f01602090048101928261166f57600085556116b6565b82601f1061168857803560ff19168380011785556116b6565b828001600101855582156116b6579182015b828111156116b557823582559160200191906001019061169a565b5b5090506116c391906116c7565b5090565b5b808211156116e05760008160009055506001016116c8565b5090565b6000604051905090565b600080fd5b600080fd5b6000819050919050565b61170b816116f8565b811461171657600080fd5b50565b60008135905061172881611702565b92915050565b600060208284031215611744576117436116ee565b5b600061175284828501611719565b91505092915050565b600063ffffffff82169050919050565b6117748161175b565b82525050565b600060208201905061178f600083018461176b565b92915050565b600080fd5b600080fd5b6000601f19601f8301169050919050565b7f4e487b7100000000000000000000000000000000000000000000000000000000600052604160045260246000fd5b6117e88261179f565b810181811067ffffffffffffffff82111715611807576118066117b0565b5b80604052505050565b600061181a6116e4565b905061182682826117df565b919050565b600067ffffffffffffffff821115611846576118456117b0565b5b61184f8261179f565b9050602081019050919050565b82818337600083830152505050565b600061187e6118798461182b565b611810565b90508281526020810184848401111561189a5761189961179a565b5b6118a584828561185c565b509392505050565b600082601f8301126118c2576118c1611795565b5b81356118d284826020860161186b565b91505092915050565b6000819050919050565b6118ee816118db565b81146118f957600080fd5b50565b60008135905061190b816118e5565b92915050565b60008060408385031215611928576119276116ee565b5b600083013567ffffffffffffffff811115611946576119456116f3565b5b611952858286016118ad565b9250506020611963858286016118fc565b9150509250929050565b60008115159050919050565b6119828161196d565b82525050565b600060208201905061199d6000830184611979565b92915050565b600073ffffffffffffffffffffffffffffffffffffffff82169050919050565b6000819050919050565b60006119e86119e36119de846119a3565b6119c3565b6119a3565b9050919050565b60006119fa826119cd565b9050919050565b6000611a0c826119ef565b9050919050565b611a1c81611a01565b82525050565b6000602082019050611a376000830184611a13565b92915050565b611a468161175b565b8114611a5157600080fd5b50565b600081359050611a6381611a3d565b92915050565b60008060408385031215611a8057611a7f6116ee565b5b6000611a8e85828601611719565b9250506020611a9f85828601611a54565b9150509250929050565b611ab2816118db565b82525050565b6000602082019050611acd6000830184611aa9565b92915050565b6000611ade826119a3565b9050919050565b611aee81611ad3565b8114611af957600080fd5b50565b600081359050611b0b81611ae5565b92915050565b600061ffff82169050919050565b611b2881611b11565b8114611b3357600080fd5b50565b600081359050611b4581611b1f565b92915050565b611b548161196d565b8114611b5f57600080fd5b50565b600081359050611b7181611b4b565b92915050565b600080fd5b600080fd5b60008083601f840112611b9757611b96611795565b5b8235905067ffffffffffffffff811115611bb457611bb3611b77565b5b602083019150836001820283011115611bd057611bcf611b7c565b5b9250929050565b60008060008060008060008060006101008a8c031215611bfa57611bf96116ee565b5b6000611c088c828d01611afc565b9950506020611c198c828d01611a54565b9850506040611c2a8c828d01611a54565b9750506060611c3b8c828d01611a54565b9650506080611c4c8c828d01611b36565b95505060a0611c5d8c828d01611b62565b94505060c0611c6e8c828d01611b62565b93505060e08a013567ffffffffffffffff811115611c8f57611c8e6116f3565b5b611c9b8c828d01611b81565b92509250509295985092959850929598565b611cb681611b11565b82525050565b6000602082019050611cd16000830184611cad565b92915050565b611ce081611ad3565b82525050565b6000602082019050611cfb6000830184611cd7565b92915050565b60008060408385031215611d1857611d176116ee565b5b6000611d2685828601611719565b9250506020611d3785828601611afc565b9150509250929050565b6000604082019050611d566000830185611979565b611d636020830184611aa9565b9392505050565b600080600060608486031215611d8357611d826116ee565b5b6000611d9186828701611719565b9350506020611da286828701611afc565b9250506040611db386828701611719565b9150509250925092565b600080600060408486031215611dd657611dd56116ee565b5b6000611de486828701611719565b935050602084013567ffffffffffffffff811115611e0557611e046116f3565b5b611e1186828701611b81565b92509250509250925092565b611e26816116f8565b82525050565b6000602082019050611e416000830184611e1d565b92915050565b60008060408385031215611e5e57611e5d6116ee565b5b6000611e6c85828601611719565b9250506020611e7d85828601611b36565b9150509250929050565b600081519050919050565b600081905092915050565b60005b83811015611ebb578082015181840152602081019050611ea0565b83811115611eca576000848401525b50505050565b6000611edb82611e87565b611ee58185611e92565b9350611ef5818560208601611e9d565b80840191505092915050565b6000611f0d8284611ed0565b915081905092915050565b600082825260208201905092915050565b7f4e6f7420746865206f776e657200000000000000000000000000000000000000600082015250565b6000611f5f600d83611f18565b9150611f6a82611f29565b602082019050919050565b60006020820190508181036000830152611f8e81611f52565b9050919050565b6000604082019050611faa6000830185611e1d565b611fb7602083018461176b565b9392505050565b7f4e487b7100000000000000000000000000000000000000000000000000000000600052602260045260246000fd5b6000600282049050600182168061200557607f821691505b6020821081141561201957612018611fbe565b5b50919050565b60008190508160005260206000209050919050565b6000815461204181611fed565b61204b8186611e92565b945060018216600081146120665760018114612077576120aa565b60ff198316865281860193506120aa565b6120808561201f565b60005b838110156120a257815481890152600182019150602081019050612083565b838801955050505b50505092915050565b60006120bf8284612034565b915081905092915050565b60006120d68385611e92565b93506120e383858461185c565b82840190509392505050565b60006120fc8284866120ca565b91508190509392505050565b60006121148385611f18565b935061212183858461185c565b61212a8361179f565b840190509392505050565b600060408201905061214a6000830186611e1d565b818103602083015261215d818486612108565b9050949350505050565b7f696e76616c69642070657263656e740000000000000000000000000000000000600082015250565b600061219d600f83611f18565b91506121a882612167565b602082019050919050565b600060208201905081810360008301526121cc81612190565b9050919050565b60006040820190506121e86000830185611e1d565b6121f56020830184611cad565b9392505050565b7f496e76616c6964206f776e657220616464726573730000000000000000000000600082015250565b6000612232601583611f18565b915061223d826121fc565b602082019050919050565b6000602082019050818103600083015261226181612225565b9050919050565b7f4e487b7100000000000000000000000000000000000000000000000000000000600052601160045260246000fd5b60006122a2826116f8565b91507fffffffffffffffffffffffffffffffffffffffffffffffffffffffffffffffff8214156122d5576122d4612268565b5b600182019050919050565b6122e981611ad3565b82525050565b600061230a6123056123008461175b565b6119c3565b6116f8565b9050919050565b61231a816122ef565b82525050565b600061233b61233661233184611b11565b6119c3565b6116f8565b9050919050565b61234b81612320565b82525050565b600060c08201905061236660008301896122e0565b61237360208301886122e0565b61238060408301876122e0565b61238d6060830186612311565b61239a6080830185612311565b6123a760a0830184612342565b979650505050505050565b6000815190506123c181611ae5565b92915050565b6000602082840312156123dd576123dc6116ee565b5b60006123eb848285016123b2565b91505092915050565b60006040820190506124096000830185611cd7565b6124166020830184611e1d565b9392505050565b60008151905061242c81611b4b565b92915050565b600060208284031215612448576124476116ee565b5b60006124568482850161241d565b91505092915050565b7f4e6f742074686520706f6f6c206f776e65720000000000000000000000000000600082015250565b6000612495601283611f18565b91506124a08261245f565b602082019050919050565b600060208201905081810360008301526124c481612488565b9050919050565b60006040820190506124e06000830185611e1d565b6124ed6020830184611cd7565b9392505050565b6000819050919050565b60008160001b9050919050565b600061252661252161251c846124f4565b6124fe565b6118db565b9050919050565b6125368161250b565b82525050565b600081519050919050565b600082825260208201905092915050565b60006125638261253c565b61256d8185612547565b935061257d818560208601611e9d565b6125868161179f565b840191505092915050565b600060a0820190506125a66000830188611cd7565b6125b36020830187611aa9565b6125c06040830186611e1d565b6125cd606083018561252d565b81810360808301526125df8184612558565b90509695505050505050565b6000815190506125fa816118e5565b92915050565b600060208284031215612616576126156116ee565b5b6000612624848285016125eb565b9150509291505056fea264697066735822122077e57a347e3524f143c348c2a0593581c24e9c3bd0cc99aefe38d7e55b99f69664736f6c634300080b0033",
  "immutableReferences": {},
  "source": "// SPDX-License-Identifier: MIT\npragma solidity >=0.4.22 <0.9.0;\n\nimport \"@openzeppelin/contracts/utils/Counters.sol\";\nimport \"./AconomyFee.sol\";\nimport \"./Libraries/LibPool.sol\";\nimport \"./AttestationServices.sol\";\n// 0xE798Ae7D315A56Cd695f74614292866324431F51   0xcD6a42782d230D7c13A74ddec5dD140e55499Df9\n// poolAddress\": \"0x3Dc21D5a4a63A46e7FBE2A6b49eaf085Ca3D5582\" 0x633dBFB62C1Bd3d5fFf4D7d94E8c2f6f5B479ca1\n// AS=0xddaAd340b0f1Ef65169Ae5E41A8b10776a75482d\n// AF=0x358AA13c52544ECCEF6B0ADD0f801012ADAD5eE3\n// a1=0x5B38Da6a701c568545dCfcB03FcB875f56beddC4\n// a2=0xAb8483F64d9C6d1EcF9b849Ae677dD3315835cb2\nimport {EnumerableSet} from \"@openzeppelin/contracts/utils/structs/EnumerableSet.sol\";\n\ncontract poolRegistry {\n    using Counters for Counters.Counter;\n    using EnumerableSet for EnumerableSet.AddressSet;\n\n    modifier ownsPool(uint256 _poolId) {\n        require(pools[_poolId].owner == msg.sender, \"Not the owner\");\n        _;\n    }\n\n    address AconomyFeeAddress;\n    AttestationServices public attestationService;\n    bytes32 public lenderAttestationSchemaId;\n    bytes32 public borrowerAttestationSchemaId;\n    bytes32 private _attestingSchemaId;\n\n    constructor(\n        AttestationServices _attestationServices,\n        address _AconomyFeeAddress\n    ) {\n        attestationService = _attestationServices;\n        AconomyFeeAddress = _AconomyFeeAddress;\n\n        lenderAttestationSchemaId = _attestationServices\n            .getASRegistry()\n            .register(\"(uint256 poolId, address lenderAddress)\");\n        borrowerAttestationSchemaId = _attestationServices\n            .getASRegistry()\n            .register(\"(uint256 poolId, address borrowerAddress)\");\n    }\n\n    modifier lenderOrBorrowerSchema(bytes32 schemaId) {\n        _attestingSchemaId = schemaId;\n        _;\n        _attestingSchemaId = bytes32(0);\n    }\n\n    function guess(string memory _word, bytes32 ans)\n        public\n        view\n        returns (bool)\n    {\n        return keccak256(abi.encodePacked(_word)) == ans;\n    }\n\n    struct poolDetail {\n        address poolAddress;\n        address owner;\n        string metadataURI;\n        uint16 poolFeePercent; // 10000 is 100%\n        bool lenderAttestationRequired;\n        EnumerableSet.AddressSet verifiedLendersForPool;\n        mapping(address => bytes32) lenderAttestationIds;\n        uint32 paymentCycleDuration; //unix time\n        uint32 paymentDefaultDuration; //unix time\n        uint32 loanExpirationTime; //unix time\n        bool borrowerAttestationRequired;\n        EnumerableSet.AddressSet verifiedBorrowersForPool;\n        mapping(address => bytes32) borrowerAttestationIds;\n    }\n\n    mapping(uint256 => poolDetail) internal pools;\n    mapping(uint256 => bool) private ClosedPools;\n\n    uint256 public poolCount;\n    event poolCreated(\n        address indexed owner,\n        address poolAddress,\n        uint256 poolId\n    );\n    event SetPoolURI(uint256 poolId, string uri);\n    event SetPaymentCycleDuration(uint256 poolId, uint32 duration);\n    event SetPaymentDefaultDuration(uint256 poolId, uint32 duration);\n    event SetPoolFee(uint256 poolId, uint16 feePct);\n    event SetloanExpirationTime(uint256 poolId, uint32 duration);\n    event LenderAttestation(uint256 poolId, address lender);\n    event BorrowerAttestation(uint256 poolId, address borrower);\n\n    //Create Pool\n    function createPool(\n        address _initialOwner,\n        uint32 _paymentCycleDuration,\n        uint32 _paymentDefaultDuration,\n        uint32 _loanExpirationTime,\n        uint16 _poolFeePercent,\n        bool _requireLenderAttestation,\n        bool _requireBorrowerAttestation,\n        string calldata _uri\n    ) external {\n        _createPool(\n            _initialOwner,\n            _paymentCycleDuration,\n            _paymentDefaultDuration,\n            _loanExpirationTime,\n            _poolFeePercent,\n            _requireLenderAttestation,\n            _requireBorrowerAttestation,\n            _uri\n        );\n    }\n\n    // Creates a new Pool.\n    function _createPool(\n        address _initialOwner,\n        uint32 _paymentCycleDuration,\n        uint32 _paymentDefaultDuration,\n        uint32 _loanExpirationTime,\n        uint16 _feePercent,\n        bool _requireLenderAttestation,\n        bool _requireBorrowerAttestation,\n        string calldata _uri\n    ) internal returns (uint256 poolId_) {\n        require(_initialOwner != address(0), \"Invalid owner address\");\n        // Increment pool ID counter\n        poolId_ = ++poolCount;\n\n        //Deploy Pool Address\n        address poolAddress = LibPool.deployPoolAddress(\n            msg.sender,\n            address(this),\n            AconomyFeeAddress,\n            _paymentCycleDuration,\n            _paymentDefaultDuration,\n            _feePercent\n        );\n        pools[poolId_].poolAddress = poolAddress;\n        // Set the pool owner\n        pools[poolId_].owner = _initialOwner;\n\n        setPoolURI(poolId_, _uri);\n        setPaymentCycleDuration(poolId_, _paymentCycleDuration);\n        setPaymentDefaultDuration(poolId_, _paymentDefaultDuration);\n        setPoolFeePercent(poolId_, _feePercent);\n        setloanExpirationTime(poolId_, _loanExpirationTime);\n\n        // Check if pool requires lender attestation to join\n        if (_requireLenderAttestation) {\n            pools[poolId_].lenderAttestationRequired = true;\n        }\n        // Check if pool requires borrower attestation to join\n        if (_requireBorrowerAttestation) {\n            pools[poolId_].borrowerAttestationRequired = true;\n        }\n\n        emit poolCreated(_initialOwner, poolAddress, poolId_);\n    }\n\n    function setPoolURI(uint256 _poolId, string calldata _uri)\n        public\n        ownsPool(_poolId)\n    {\n        //We do string comparison by checking the hashes of the strings against one another\n        if (\n            keccak256(abi.encodePacked(_uri)) !=\n            keccak256(abi.encodePacked(pools[_poolId].metadataURI))\n        ) {\n            pools[_poolId].metadataURI = _uri;\n\n            emit SetPoolURI(_poolId, _uri);\n        }\n    }\n\n    function setPaymentCycleDuration(uint256 _poolId, uint32 _duration)\n        public\n        ownsPool(_poolId)\n    {\n        if (_duration != pools[_poolId].paymentCycleDuration) {\n            pools[_poolId].paymentCycleDuration = _duration;\n\n            emit SetPaymentCycleDuration(_poolId, _duration);\n        }\n    }\n\n    function setPaymentDefaultDuration(uint256 _poolId, uint32 _duration)\n        public\n        ownsPool(_poolId)\n    {\n        if (_duration != pools[_poolId].paymentDefaultDuration) {\n            pools[_poolId].paymentDefaultDuration = _duration;\n\n            emit SetPaymentDefaultDuration(_poolId, _duration);\n        }\n    }\n\n    function setPoolFeePercent(uint256 _poolId, uint16 _newPercent)\n        public\n        ownsPool(_poolId)\n    {\n        require(_newPercent >= 0 && _newPercent <= 10000, \"invalid percent\");\n        if (_newPercent != pools[_poolId].poolFeePercent) {\n            pools[_poolId].poolFeePercent = _newPercent;\n            emit SetPoolFee(_poolId, _newPercent);\n        }\n    }\n\n    function setloanExpirationTime(uint256 _poolId, uint32 _duration)\n        public\n        ownsPool(_poolId)\n    {\n        if (_duration != pools[_poolId].loanExpirationTime) {\n            pools[_poolId].loanExpirationTime = _duration;\n\n            emit SetloanExpirationTime(_poolId, _duration);\n        }\n    }\n\n    function addLender(\n        uint256 _poolId,\n        address _lenderAddress,\n        uint256 _expirationTime\n    ) external {\n        _attestAddress(_poolId, _lenderAddress, _expirationTime, true);\n    }\n\n    function addBorrower(\n        uint256 _poolId,\n        address _borrowerAddress,\n        uint256 _expirationTime\n    ) external {\n        _attestAddress(_poolId, _borrowerAddress, _expirationTime, false);\n    }\n\n    function _attestAddress(\n        uint256 _poolId,\n        address _Address,\n        uint256 _expirationTime,\n        bool _isLender\n    )\n        internal\n        lenderOrBorrowerSchema(\n            _isLender ? lenderAttestationSchemaId : borrowerAttestationSchemaId\n        )\n    {\n        require(msg.sender == pools[_poolId].owner, \"Not the pool owner\");\n\n        // Submit attestation for borrower to join a pool\n        bytes32 uuid = attestationService.attest(\n            _Address,\n            _attestingSchemaId, // set by the modifier\n            _expirationTime,\n            0,\n            abi.encode(_poolId, _Address)\n        );\n\n        _attestAddressVerification(_poolId, _Address, uuid, _isLender);\n    }\n\n    function _attestAddressVerification(\n        uint256 _poolId,\n        address _Address,\n        bytes32 _uuid,\n        bool _isLender\n    ) internal {\n        if (_isLender) {\n            // Store the lender attestation ID for the pool ID\n            pools[_poolId].lenderAttestationIds[_Address] = _uuid;\n            // Add lender address to pool set\n            pools[_poolId].verifiedLendersForPool.add(_Address);\n\n            emit LenderAttestation(_poolId, _Address);\n        } else {\n            // Store the lender attestation ID for the pool ID\n            pools[_poolId].borrowerAttestationIds[_Address] = _uuid;\n            // Add lender address to pool set\n            pools[_poolId].verifiedBorrowersForPool.add(_Address);\n\n            emit BorrowerAttestation(_poolId, _Address);\n        }\n    }\n\n    function getPoolFee(uint256 _poolId) public view returns (uint16 fee) {\n        return pools[_poolId].poolFeePercent;\n    }\n\n    function borrowerVarification(uint256 _poolId, address _borrowerAddress)\n        public\n        view\n        returns (bool isVerified_, bytes32 uuid_)\n    {\n        return\n            _isAddressVerified(\n                _borrowerAddress,\n                pools[_poolId].borrowerAttestationRequired,\n                pools[_poolId].borrowerAttestationIds,\n                pools[_poolId].verifiedBorrowersForPool\n            );\n    }\n\n    function lenderVarification(uint256 _poolId, address _lenderAddress)\n        public\n        view\n        returns (bool isVerified_, bytes32 uuid_)\n    {\n        return\n            _isAddressVerified(\n                _lenderAddress,\n                pools[_poolId].lenderAttestationRequired,\n                pools[_poolId].lenderAttestationIds,\n                pools[_poolId].verifiedLendersForPool\n            );\n    }\n\n    function _isAddressVerified(\n        address _wltAddress,\n        bool _attestationRequired,\n        mapping(address => bytes32) storage _stakeholderAttestationIds,\n        EnumerableSet.AddressSet storage _verifiedStakeholderForPool\n    ) internal view returns (bool isVerified_, bytes32 uuid_) {\n        if (_attestationRequired) {\n            isVerified_ =\n                _verifiedStakeholderForPool.contains(_wltAddress) &&\n                attestationService.isAddressActive(\n                    _stakeholderAttestationIds[_wltAddress]\n                );\n            uuid_ = _stakeholderAttestationIds[_wltAddress];\n        } else {\n            isVerified_ = true;\n        }\n    }\n\n    function ClosedPool(uint256 _poolId) public view returns (bool) {\n        return ClosedPools[_poolId];\n    }\n\n    function getPaymentCycleDuration(uint256 _poolId)\n        public\n        view\n        returns (uint32)\n    {\n        return pools[_poolId].paymentCycleDuration;\n    }\n\n    function getPaymentDefaultDuration(uint256 _poolId)\n        public\n        view\n        returns (uint32)\n    {\n        return pools[_poolId].paymentDefaultDuration;\n    }\n\n    function getloanExpirationTime(uint256 poolId)\n        public\n        view\n        returns (uint32)\n    {\n        return pools[poolId].loanExpirationTime;\n    }\n\n    function getPoolOwner(uint256 _poolId) public view returns (address) {\n        return pools[_poolId].owner;\n    }\n}\n",
  "sourcePath": "/Users/sanskarkhare/Desktop/Pandora/aconomy-pool-v1/contracts/poolRegistry.sol",
  "compiler": {
    "name": "solc",
    "version": "0.8.11+commit.d7f03943.Emscripten.clang"
  },
  "schemaVersion": "3.4.4",
  "updatedAt": "2023-01-29T17:54:35.754Z",
  "networkType": "ethereum",
  "devdoc": {
    "kind": "dev",
    "methods": {},
    "version": 1
  },
  "userdoc": {
    "kind": "user",
    "methods": {},
    "version": 1
  }
}