{
  "contractName": "poolAddress",
  "abi": [
    {
      "inputs": [
        {
          "internalType": "address",
          "name": "_poolRegistry",
          "type": "address"
        },
        {
          "internalType": "address",
          "name": "_AconomyFeeAddress",
          "type": "address"
        },
        {
          "internalType": "address",
          "name": "_accountStatusAddress",
          "type": "address"
        }
      ],
      "stateMutability": "nonpayable",
      "type": "constructor"
    },
    {
      "anonymous": false,
      "inputs": [
        {
          "indexed": false,
          "internalType": "address",
          "name": "reciever",
          "type": "address"
        },
        {
          "indexed": false,
          "internalType": "uint256",
          "name": "BidId",
          "type": "uint256"
        },
        {
          "indexed": false,
          "internalType": "uint256",
          "name": "PoolId",
          "type": "uint256"
        },
        {
          "indexed": false,
          "internalType": "uint256",
          "name": "Amount",
          "type": "uint256"
        }
      ],
      "name": "AcceptedBid",
      "type": "event"
    },
    {
      "anonymous": false,
      "inputs": [
        {
          "indexed": true,
          "internalType": "uint256",
          "name": "loanId",
          "type": "uint256"
        },
        {
          "indexed": true,
          "internalType": "string",
          "name": "feeType",
          "type": "string"
        },
        {
          "indexed": true,
          "internalType": "uint256",
          "name": "amount",
          "type": "uint256"
        }
      ],
      "name": "AcceptedLoanDetail",
      "type": "event"
    },
    {
      "anonymous": false,
      "inputs": [
        {
          "indexed": true,
          "internalType": "uint256",
          "name": "bidId",
          "type": "uint256"
        }
      ],
      "name": "LoanRepaid",
      "type": "event"
    },
    {
      "anonymous": false,
      "inputs": [
        {
          "indexed": true,
          "internalType": "uint256",
          "name": "bidId",
          "type": "uint256"
        }
      ],
      "name": "LoanRepayment",
      "type": "event"
    },
    {
      "anonymous": false,
      "inputs": [
        {
          "indexed": true,
          "internalType": "uint256",
          "name": "loanId",
          "type": "uint256"
        },
        {
          "indexed": true,
          "internalType": "address",
          "name": "borrower",
          "type": "address"
        },
        {
          "indexed": false,
          "internalType": "address",
          "name": "receiver",
          "type": "address"
        },
        {
          "indexed": false,
          "internalType": "uint256",
          "name": "paymentCycleAmount",
          "type": "uint256"
        }
      ],
      "name": "SubmittedLoan",
      "type": "event"
    },
    {
      "anonymous": false,
      "inputs": [
        {
          "indexed": true,
          "internalType": "address",
          "name": "lender",
          "type": "address"
        },
        {
          "indexed": true,
          "internalType": "uint256",
          "name": "poolId",
          "type": "uint256"
        },
        {
          "indexed": false,
          "internalType": "uint256",
          "name": "BidId",
          "type": "uint256"
        },
        {
          "indexed": true,
          "internalType": "address",
          "name": "ERC20Token",
          "type": "address"
        },
        {
          "indexed": false,
          "internalType": "uint256",
          "name": "tokenAmount",
          "type": "uint256"
        }
      ],
      "name": "SupplyToPool",
      "type": "event"
    },
    {
      "anonymous": false,
      "inputs": [
        {
          "indexed": true,
          "internalType": "uint256",
          "name": "loanId",
          "type": "uint256"
        },
        {
          "indexed": true,
          "internalType": "address",
          "name": "lender",
          "type": "address"
        }
      ],
      "name": "loanAccepted",
      "type": "event"
    },
    {
      "anonymous": false,
      "inputs": [
        {
          "indexed": false,
          "internalType": "uint256",
          "name": "owedPrincipal",
          "type": "uint256"
        },
        {
          "indexed": false,
          "internalType": "uint256",
          "name": "duePrincipal",
          "type": "uint256"
        },
        {
          "indexed": false,
          "internalType": "uint256",
          "name": "interest",
          "type": "uint256"
        }
      ],
      "name": "repaidAmounts",
      "type": "event"
    },
    {
      "inputs": [],
      "name": "bidId",
      "outputs": [
        {
          "internalType": "uint256",
          "name": "",
          "type": "uint256"
        }
      ],
      "stateMutability": "view",
      "type": "function"
    },
    {
      "inputs": [
        {
          "internalType": "address",
          "name": "",
          "type": "address"
        },
        {
          "internalType": "uint256",
          "name": "",
          "type": "uint256"
        }
      ],
      "name": "borrowerLoans",
      "outputs": [
        {
          "internalType": "uint256",
          "name": "",
          "type": "uint256"
        }
      ],
      "stateMutability": "view",
      "type": "function"
    },
    {
      "inputs": [
        {
          "internalType": "address",
          "name": "",
          "type": "address"
        },
        {
          "internalType": "address",
          "name": "",
          "type": "address"
        }
      ],
      "name": "lenderLendAmount",
      "outputs": [
        {
          "internalType": "uint256",
          "name": "",
          "type": "uint256"
        }
      ],
      "stateMutability": "view",
      "type": "function"
    },
    {
      "inputs": [
        {
          "internalType": "address",
          "name": "",
          "type": "address"
        },
        {
          "internalType": "uint256",
          "name": "",
          "type": "uint256"
        },
        {
          "internalType": "address",
          "name": "",
          "type": "address"
        }
      ],
      "name": "lenderPoolFundDetails",
      "outputs": [
        {
          "internalType": "uint256",
          "name": "amount",
          "type": "uint256"
        },
        {
          "internalType": "uint32",
          "name": "expiration",
          "type": "uint32"
        },
        {
          "internalType": "uint32",
          "name": "maxDuration",
          "type": "uint32"
        },
        {
          "internalType": "uint16",
          "name": "interestRate",
          "type": "uint16"
        },
        {
          "internalType": "uint256",
          "name": "bidId",
          "type": "uint256"
        },
        {
          "internalType": "enum poolStorage.BidState",
          "name": "state",
          "type": "uint8"
        },
        {
          "internalType": "uint32",
          "name": "bidTimestamp",
          "type": "uint32"
        },
        {
          "internalType": "uint32",
          "name": "acceptBidTimestamp",
          "type": "uint32"
        }
      ],
      "stateMutability": "view",
      "type": "function"
    },
    {
      "inputs": [
        {
          "internalType": "uint256",
          "name": "",
          "type": "uint256"
        }
      ],
      "name": "loanDefaultDuration",
      "outputs": [
        {
          "internalType": "uint32",
          "name": "",
          "type": "uint32"
        }
      ],
      "stateMutability": "view",
      "type": "function"
    },
    {
      "inputs": [
        {
          "internalType": "uint256",
          "name": "",
          "type": "uint256"
        }
      ],
      "name": "loanExpirationTime",
      "outputs": [
        {
          "internalType": "uint32",
          "name": "",
          "type": "uint32"
        }
      ],
      "stateMutability": "view",
      "type": "function"
    },
    {
      "inputs": [],
      "name": "loanId",
      "outputs": [
        {
          "internalType": "uint256",
          "name": "",
          "type": "uint256"
        }
      ],
      "stateMutability": "view",
      "type": "function"
    },
    {
      "inputs": [
        {
          "internalType": "uint256",
          "name": "",
          "type": "uint256"
        }
      ],
      "name": "loans",
      "outputs": [
        {
          "internalType": "address",
          "name": "borrower",
          "type": "address"
        },
        {
          "internalType": "address",
          "name": "receiver",
          "type": "address"
        },
        {
          "internalType": "address",
          "name": "lender",
          "type": "address"
        },
        {
          "internalType": "uint256",
          "name": "poolId",
          "type": "uint256"
        },
        {
          "components": [
            {
              "internalType": "contract ERC20",
              "name": "lendingToken",
              "type": "address"
            },
            {
              "internalType": "uint256",
              "name": "principal",
              "type": "uint256"
            },
            {
              "components": [
                {
                  "internalType": "uint256",
                  "name": "principal",
                  "type": "uint256"
                },
                {
                  "internalType": "uint256",
                  "name": "interest",
                  "type": "uint256"
                }
              ],
              "internalType": "struct poolStorage.Payment",
              "name": "totalRepaid",
              "type": "tuple"
            },
            {
              "internalType": "uint32",
              "name": "timestamp",
              "type": "uint32"
            },
            {
              "internalType": "uint32",
              "name": "acceptedTimestamp",
              "type": "uint32"
            },
            {
              "internalType": "uint32",
              "name": "lastRepaidTimestamp",
              "type": "uint32"
            },
            {
              "internalType": "uint32",
              "name": "loanDuration",
              "type": "uint32"
            }
          ],
          "internalType": "struct poolStorage.LoanDetails",
          "name": "loanDetails",
          "type": "tuple"
        },
        {
          "components": [
            {
              "internalType": "uint256",
              "name": "paymentCycleAmount",
              "type": "uint256"
            },
            {
              "internalType": "uint32",
              "name": "paymentCycle",
              "type": "uint32"
            },
            {
              "internalType": "uint16",
              "name": "APR",
              "type": "uint16"
            }
          ],
          "internalType": "struct poolStorage.Terms",
          "name": "terms",
          "type": "tuple"
        },
        {
          "internalType": "enum poolStorage.LoanState",
          "name": "state",
          "type": "uint8"
        }
      ],
      "stateMutability": "view",
      "type": "function"
    },
    {
      "inputs": [
        {
          "internalType": "uint256",
          "name": "",
          "type": "uint256"
        }
      ],
      "name": "poolLoans",
      "outputs": [
        {
          "internalType": "uint256",
          "name": "",
          "type": "uint256"
        }
      ],
      "stateMutability": "view",
      "type": "function"
    },
    {
      "inputs": [
        {
          "internalType": "address",
          "name": "",
          "type": "address"
        }
      ],
      "name": "totalERC20Amount",
      "outputs": [
        {
          "internalType": "uint256",
          "name": "",
          "type": "uint256"
        }
      ],
      "stateMutability": "view",
      "type": "function"
    },
    {
      "inputs": [
        {
          "internalType": "address",
          "name": "_lendingToken",
          "type": "address"
        },
        {
          "internalType": "uint256",
          "name": "_poolId",
          "type": "uint256"
        },
        {
          "internalType": "uint256",
          "name": "_principal",
          "type": "uint256"
        },
        {
          "internalType": "uint32",
          "name": "_duration",
          "type": "uint32"
        },
        {
          "internalType": "uint16",
          "name": "_APR",
          "type": "uint16"
        },
        {
          "internalType": "address",
          "name": "_receiver",
          "type": "address"
        }
      ],
      "name": "loanRequest",
      "outputs": [
        {
          "internalType": "uint256",
          "name": "loanId_",
          "type": "uint256"
        }
      ],
      "stateMutability": "nonpayable",
      "type": "function"
    },
    {
      "inputs": [
        {
          "internalType": "uint256",
          "name": "_loanId",
          "type": "uint256"
        }
      ],
      "name": "AcceptLoan",
      "outputs": [
        {
          "internalType": "uint256",
          "name": "amountToAconomy",
          "type": "uint256"
        },
        {
          "internalType": "uint256",
          "name": "amountToPool",
          "type": "uint256"
        },
        {
          "internalType": "uint256",
          "name": "amountToBorrower",
          "type": "uint256"
        }
      ],
      "stateMutability": "nonpayable",
      "type": "function"
    },
    {
      "inputs": [
        {
          "internalType": "uint256",
          "name": "_loanId",
          "type": "uint256"
        }
      ],
      "name": "isLoanExpired",
      "outputs": [
        {
          "internalType": "bool",
          "name": "",
          "type": "bool"
        }
      ],
      "stateMutability": "view",
      "type": "function"
    },
    {
      "inputs": [
        {
          "internalType": "uint256",
          "name": "_loanId",
          "type": "uint256"
        }
      ],
      "name": "isLoanDefaulted",
      "outputs": [
        {
          "internalType": "bool",
          "name": "",
          "type": "bool"
        }
      ],
      "stateMutability": "view",
      "type": "function"
    },
    {
      "inputs": [
        {
          "internalType": "uint256",
          "name": "_loanId",
          "type": "uint256"
        }
      ],
      "name": "lastRepaidTimestamp",
      "outputs": [
        {
          "internalType": "uint32",
          "name": "",
          "type": "uint32"
        }
      ],
      "stateMutability": "view",
      "type": "function"
    },
    {
      "inputs": [
        {
          "internalType": "uint256",
          "name": "_loanId",
          "type": "uint256"
        }
      ],
      "name": "isPaymentLate",
      "outputs": [
        {
          "internalType": "bool",
          "name": "",
          "type": "bool"
        }
      ],
      "stateMutability": "view",
      "type": "function"
    },
    {
      "inputs": [
        {
          "internalType": "uint256",
          "name": "_loanId",
          "type": "uint256"
        }
      ],
      "name": "calculateNextDueDate",
      "outputs": [
        {
          "internalType": "uint32",
          "name": "dueDate_",
          "type": "uint32"
        }
      ],
      "stateMutability": "view",
      "type": "function"
    },
    {
      "inputs": [
        {
          "internalType": "uint256",
          "name": "_loanId",
          "type": "uint256"
        }
      ],
      "name": "repayYourLoan",
      "outputs": [],
      "stateMutability": "nonpayable",
      "type": "function"
    },
    {
      "inputs": [
        {
          "internalType": "uint256",
          "name": "_loanId",
          "type": "uint256"
        }
      ],
      "name": "repayFullLoan",
      "outputs": [],
      "stateMutability": "nonpayable",
      "type": "function"
    },
    {
      "inputs": [
        {
          "internalType": "uint256",
          "name": "_poolId",
          "type": "uint256"
        },
        {
          "internalType": "address",
          "name": "_ERC20Address",
          "type": "address"
        },
        {
          "internalType": "uint256",
          "name": "_amount",
          "type": "uint256"
        },
        {
          "internalType": "uint32",
          "name": "_maxLoanDuration",
          "type": "uint32"
        },
        {
          "internalType": "uint16",
          "name": "_interestRate",
          "type": "uint16"
        },
        {
          "internalType": "uint32",
          "name": "_expiration",
          "type": "uint32"
        }
      ],
      "name": "supplyToPool",
      "outputs": [],
      "stateMutability": "nonpayable",
      "type": "function"
    },
    {
      "inputs": [
        {
          "internalType": "uint256",
          "name": "_poolId",
          "type": "uint256"
        },
        {
          "internalType": "address",
          "name": "_ERC20Address",
          "type": "address"
        },
        {
          "internalType": "uint256",
          "name": "_bidId",
          "type": "uint256"
        },
        {
          "internalType": "address",
          "name": "_lender",
          "type": "address"
        },
        {
          "internalType": "address",
          "name": "_receiver",
          "type": "address"
        }
      ],
      "name": "AcceptBid",
      "outputs": [],
      "stateMutability": "nonpayable",
      "type": "function"
    },
    {
      "inputs": [
        {
          "internalType": "uint256",
          "name": "_poolId",
          "type": "uint256"
        },
        {
          "internalType": "address",
          "name": "_ERC20Address",
          "type": "address"
        },
        {
          "internalType": "uint256",
          "name": "_bidId",
          "type": "uint256"
        },
        {
          "internalType": "address",
          "name": "_lender",
          "type": "address"
        },
        {
          "internalType": "address",
          "name": "_receiver",
          "type": "address"
        }
      ],
      "name": "RepayInstallment",
      "outputs": [],
      "stateMutability": "nonpayable",
      "type": "function"
    }
  ],
  "bytecode": "0x6080604052600080556000600d553480156200001a57600080fd5b5060405162004d2238038062004d22833981810160405281019062000040919062000176565b82600a60006101000a81548173ffffffffffffffffffffffffffffffffffffffff021916908373ffffffffffffffffffffffffffffffffffffffff16021790555081600b60006101000a81548173ffffffffffffffffffffffffffffffffffffffff021916908373ffffffffffffffffffffffffffffffffffffffff16021790555080600c60006101000a81548173ffffffffffffffffffffffffffffffffffffffff021916908373ffffffffffffffffffffffffffffffffffffffff160217905550505050620001d2565b600080fd5b600073ffffffffffffffffffffffffffffffffffffffff82169050919050565b60006200013e8262000111565b9050919050565b620001508162000131565b81146200015c57600080fd5b50565b600081519050620001708162000145565b92915050565b6000806000606084860312156200019257620001916200010c565b5b6000620001a2868287016200015f565b9350506020620001b5868287016200015f565b9250506040620001c8868287016200015f565b9150509250925092565b614b4080620001e26000396000f3fe608060405234801561001057600080fd5b50600436106101425760003560e01c80638ac47319116100b8578063e3ed19021161007c578063e3ed1902146103d9578063e70a407914610409578063e766a88f14610440578063e8cbab0914610472578063f80052ce146104a2578063fee870e9146104be57610142565b80638ac47319146103075780638cda457114610325578063a51e2bad14610355578063c95669a514610385578063e1ec3c68146103a357610142565b806330f2670c1161010a57806330f2670c146101fb578063376e49881461022b5780633a31f3371461025b5780635645483b1461028b57806360c661e6146102a7578063706a43c3146102d757610142565b8063093f56171461014757806310618223146101775780631c5c1fc7146101a75780631e042d1f146101c35780632539b1d8146101df575b600080fd5b610161600480360381019061015c9190613622565b6104ee565b60405161016e919061366a565b60405180910390f35b610191600480360381019061018c9190613622565b610567565b60405161019e919061366a565b60405180910390f35b6101c160048036038101906101bc9190613622565b61065f565b005b6101dd60048036038101906101d89190613622565b61073c565b005b6101f960048036038101906101f49190613759565b610858565b005b610215600480360381019061021091906137e6565b610c99565b6040516102229190613822565b60405180910390f35b61024560048036038101906102409190613622565b610cb1565b6040516102529190613822565b60405180910390f35b61027560048036038101906102709190613622565b610cc9565b604051610282919061384c565b60405180910390f35b6102a560048036038101906102a09190613867565b610cec565b005b6102c160048036038101906102bc91906138e2565b611091565b6040516102ce9190613822565b60405180910390f35b6102f160048036038101906102ec9190613622565b6118af565b6040516102fe919061384c565b60405180910390f35b61030f611a8d565b60405161031c9190613822565b60405180910390f35b61033f600480360381019061033a9190613622565b611a93565b60405161034c919061384c565b60405180910390f35b61036f600480360381019061036a9190613622565b611ab6565b60405161037c919061384c565b60405180910390f35b61038d611ada565b60405161039a9190613822565b60405180910390f35b6103bd60048036038101906103b89190613622565b611ae0565b6040516103d09796959493929190613b81565b60405180910390f35b6103f360048036038101906103ee9190613bf3565b611d13565b6040516104009190613822565b60405180910390f35b610423600480360381019061041e9190613c33565b611d44565b604051610437989796959493929190613cdd565b60405180910390f35b61045a60048036038101906104559190613622565b611e01565b60405161046993929190613d5b565b60405180910390f35b61048c60048036038101906104879190613622565b612a96565b604051610499919061366a565b60405180910390f35b6104bc60048036038101906104b79190613867565b612b7f565b005b6104d860048036038101906104d39190613d92565b612c5b565b6040516104e59190613822565b60405180910390f35b60006002600381111561050457610503613b0a565b5b60016000848152602001908152602001600020600b0160009054906101000a900460ff16600381111561053a57610539613b0a565b5b146105485760009050610562565b610551826118af565b63ffffffff164263ffffffff161190505b919050565b6000806001600084815260200190815260200160002090506000600381111561059357610592613b0a565b5b81600b0160009054906101000a900460ff1660038111156105b7576105b6613b0a565b5b146105c657600091505061065a565b60006008600085815260200190815260200160002060009054906101000a900463ffffffff1663ffffffff16141561060257600091505061065a565b6008600084815260200190815260200160002060009054906101000a900463ffffffff168160040160040160009054906101000a900463ffffffff166106489190613e01565b63ffffffff164263ffffffff16119150505b919050565b6002600381111561067357610672613b0a565b5b60016000838152602001908152602001600020600b0160009054906101000a900460ff1660038111156106a9576106a8613b0a565b5b146106e9576040517f08c379a00000000000000000000000000000000000000000000000000000000081526004016106e090613e98565b60405180910390fd5b6000806107086001600085815260200190815260200160002042612c80565b92505091506107378360405180604001604052808581526020018481525083856107329190613eb8565b612d35565b505050565b600260038111156107505761074f613b0a565b5b60016000838152602001908152602001600020600b0160009054906101000a900460ff16600381111561078657610785613b0a565b5b146107c6576040517f08c379a00000000000000000000000000000000000000000000000000000000081526004016107bd90613e98565b60405180910390fd5b60008060006107e76001600086815260200190815260200160002042612c80565b9250925092506108178460405180604001604052808581526020018481525083866108129190613eb8565b612d35565b7f193d98b28f4db3258b9a6bc3f7270c0ea85e0a520b3dc0daad9acc7136703d0f83838360405161084a93929190613d5b565b60405180910390a150505050565b6000600a60009054906101000a900473ffffffffffffffffffffffffffffffffffffffff1673ffffffffffffffffffffffffffffffffffffffff1663cf65392088336040518363ffffffff1660e01b81526004016108b7929190613f0e565b6040805180830381865afa1580156108d3573d6000803e3d6000fd5b505050506040513d601f19601f820116820180604052508101906108f79190613f99565b5090508061093a576040517f08c379a000000000000000000000000000000000000000000000000000000000815260040161093190614025565b60405180910390fd5b60003390504263ffffffff168363ffffffff161161098d576040517f08c379a000000000000000000000000000000000000000000000000000000000815260040161098490614091565b60405180910390fd5b6000600d5490506000600360008473ffffffffffffffffffffffffffffffffffffffff1673ffffffffffffffffffffffffffffffffffffffff16815260200190815260200160002060008b815260200190815260200160002060008a73ffffffffffffffffffffffffffffffffffffffff1673ffffffffffffffffffffffffffffffffffffffff1681526020019081526020016000209050878160000181905550848160010160006101000a81548163ffffffff021916908363ffffffff160217905550868160010160046101000a81548163ffffffff021916908363ffffffff160217905550858160010160086101000a81548161ffff021916908361ffff160217905550818160020181905550428160030160016101000a81548163ffffffff021916908363ffffffff16021790555060008160030160006101000a81548160ff02191690836003811115610ae757610ae6613b0a565b5b02179055506000600a60009054906101000a900473ffffffffffffffffffffffffffffffffffffffff1673ffffffffffffffffffffffffffffffffffffffff1662a5ae218c6040518263ffffffff1660e01b8152600401610b489190613822565b602060405180830381865afa158015610b65573d6000803e3d6000fd5b505050506040513d601f19601f82011682018060405250810190610b8991906140c6565b90508973ffffffffffffffffffffffffffffffffffffffff166323b872dd85838c6040518463ffffffff1660e01b8152600401610bc8939291906140f3565b6020604051808303816000875af1158015610be7573d6000803e3d6000fd5b505050506040513d601f19601f82011682018060405250810190610c0b919061412a565b50600d6000815480929190610c1f90614157565b91905055508973ffffffffffffffffffffffffffffffffffffffff168b8573ffffffffffffffffffffffffffffffffffffffff167fdc518e49f7c1b433956bb608271b1e22669d38bcd1c7bba0712e96b324499bdf868d604051610c849291906141a0565b60405180910390a45050505050505050505050565b60056020528060005260406000206000915090505481565b60026020528060005260406000206000915090505481565b60086020528060005260406000206000915054906101000a900463ffffffff1681565b84600a60009054906101000a900473ffffffffffffffffffffffffffffffffffffffff1673ffffffffffffffffffffffffffffffffffffffff16636e34b4e4826040518263ffffffff1660e01b8152600401610d489190613822565b602060405180830381865afa158015610d65573d6000803e3d6000fd5b505050506040513d601f19601f82011682018060405250810190610d8991906140c6565b73ffffffffffffffffffffffffffffffffffffffff163373ffffffffffffffffffffffffffffffffffffffff1614610dc057600080fd5b6000600360008573ffffffffffffffffffffffffffffffffffffffff1673ffffffffffffffffffffffffffffffffffffffff168152602001908152602001600020600088815260200190815260200160002060008773ffffffffffffffffffffffffffffffffffffffff1673ffffffffffffffffffffffffffffffffffffffff1681526020019081526020016000209050428160030160056101000a81548163ffffffff021916908363ffffffff16021790555060008160000154905060028260030160006101000a81548160ff02191690836003811115610ea557610ea4613b0a565b5b02179055506000600a60009054906101000a900473ffffffffffffffffffffffffffffffffffffffff1673ffffffffffffffffffffffffffffffffffffffff1662a5ae218a6040518263ffffffff1660e01b8152600401610f069190613822565b602060405180830381865afa158015610f23573d6000803e3d6000fd5b505050506040513d601f19601f82011682018060405250810190610f4791906140c6565b90508773ffffffffffffffffffffffffffffffffffffffff1663095ea7b386846040518363ffffffff1660e01b8152600401610f849291906141c9565b6020604051808303816000875af1158015610fa3573d6000803e3d6000fd5b505050506040513d601f19601f82011682018060405250810190610fc7919061412a565b508773ffffffffffffffffffffffffffffffffffffffff166323b872dd8287856040518463ffffffff1660e01b8152600401611005939291906140f3565b6020604051808303816000875af1158015611024573d6000803e3d6000fd5b505050506040513d601f19601f82011682018060405250810190611048919061412a565b507f86f4d43d22b0e60c6a54e72e819cf877411230de363bb170532471532cf3802a85888b8560405161107e94939291906141f2565b60405180910390a1505050505050505050565b600080600a60009054906101000a900473ffffffffffffffffffffffffffffffffffffffff1673ffffffffffffffffffffffffffffffffffffffff1663918d59ea88336040518363ffffffff1660e01b81526004016110f1929190613f0e565b6040805180830381865afa15801561110d573d6000803e3d6000fd5b505050506040513d601f19601f820116820180604052508101906111319190613f99565b50905080611174576040517f08c379a000000000000000000000000000000000000000000000000000000000815260040161116b90614283565b60405180910390fd5b600a60009054906101000a900473ffffffffffffffffffffffffffffffffffffffff1673ffffffffffffffffffffffffffffffffffffffff1663a8380df1886040518263ffffffff1660e01b81526004016111cf9190613822565b602060405180830381865afa1580156111ec573d6000803e3d6000fd5b505050506040513d601f19601f82011682018060405250810190611210919061412a565b15611250576040517f08c379a0000000000000000000000000000000000000000000000000000000008152600401611247906142ef565b60405180910390fd5b6000549150816002600089815260200190815260200160002081905550600060016000805481526020019081526020016000209050338160000160006101000a81548173ffffffffffffffffffffffffffffffffffffffff021916908373ffffffffffffffffffffffffffffffffffffffff160217905550600073ffffffffffffffffffffffffffffffffffffffff168473ffffffffffffffffffffffffffffffffffffffff161415611327578060000160009054906101000a900473ffffffffffffffffffffffffffffffffffffffff16611329565b835b8160010160006101000a81548173ffffffffffffffffffffffffffffffffffffffff021916908373ffffffffffffffffffffffffffffffffffffffff160217905550878160030181905550888160040160000160006101000a81548173ffffffffffffffffffffffffffffffffffffffff021916908373ffffffffffffffffffffffffffffffffffffffff1602179055508681600401600101819055508581600401600401600c6101000a81548163ffffffff021916908363ffffffff160217905550428160040160040160006101000a81548163ffffffff021916908363ffffffff160217905550600a60009054906101000a900473ffffffffffffffffffffffffffffffffffffffff1673ffffffffffffffffffffffffffffffffffffffff1663805deb53896040518263ffffffff1660e01b815260040161146d9190613822565b602060405180830381865afa15801561148a573d6000803e3d6000fd5b505050506040513d601f19601f820116820180604052508101906114ae9190614324565b8160090160010160006101000a81548163ffffffff021916908363ffffffff160217905550848160090160010160046101000a81548161ffff021916908361ffff160217905550600a60009054906101000a900473ffffffffffffffffffffffffffffffffffffffff1673ffffffffffffffffffffffffffffffffffffffff166311bed5bb896040518263ffffffff1660e01b81526004016115509190613822565b602060405180830381865afa15801561156d573d6000803e3d6000fd5b505050506040513d601f19601f820116820180604052508101906115919190614324565b600760008054815260200190815260200160002060006101000a81548163ffffffff021916908363ffffffff160217905550600a60009054906101000a900473ffffffffffffffffffffffffffffffffffffffff1673ffffffffffffffffffffffffffffffffffffffff1663c28ba8eb896040518263ffffffff1660e01b815260040161161e9190613822565b602060405180830381865afa15801561163b573d6000803e3d6000fd5b505050506040513d601f19601f8201168201806040525081019061165f9190614324565b600860008054815260200190815260200160002060006101000a81548163ffffffff021916908363ffffffff16021790555073__LibCalculations_______________________632872a88788888460090160010160009054906101000a900463ffffffff16896040518563ffffffff1660e01b81526004016116e5949392919061437e565b602060405180830381865af4158015611702573d6000803e3d6000fd5b505050506040513d601f19601f8201168201806040525081019061172691906143d8565b8160090160000181905550600081600b0160006101000a81548160ff0219169083600381111561175957611758613b0a565b5b02179055508060000160009054906101000a900473ffffffffffffffffffffffffffffffffffffffff1673ffffffffffffffffffffffffffffffffffffffff166000547f20669ac1da79ef826aa0f4e5e5b00ae0f2ed6e7c6eceb274c6fb43976204217e8360010160009054906101000a900473ffffffffffffffffffffffffffffffffffffffff1684600901600001546040516117f89291906141c9565b60405180910390a3600660008260000160009054906101000a900473ffffffffffffffffffffffffffffffffffffffff1673ffffffffffffffffffffffffffffffffffffffff1673ffffffffffffffffffffffffffffffffffffffff168152602001908152602001600020600054908060018154018082558091505060019003906000526020600020016000909190919091505560008081548092919061189e90614157565b919050555050509695505050505050565b600080600160008481526020019081526020016000209050600260038111156118db576118da613b0a565b5b60016000858152602001908152602001600020600b0160009054906101000a900460ff16600381111561191157611910613b0a565b5b1461191c5750611a88565b8060090160010160009054906101000a900463ffffffff168160040160040160049054906101000a900463ffffffff166119569190613e01565b915060008160040160040160049054906101000a900463ffffffff1661197b85611ab6565b6119859190614405565b905060008163ffffffff1611156119fb5760008260090160010160009054906101000a900463ffffffff16826119bb9190614468565b60016119c79190613e01565b90508260090160010160009054906101000a900463ffffffff16816119ec9190614499565b846119f79190613e01565b9350505b81600401600401600c9054906101000a900463ffffffff168260040160040160049054906101000a900463ffffffff16611a359190613e01565b63ffffffff168363ffffffff161115611a855781600401600401600c9054906101000a900463ffffffff168260040160040160049054906101000a900463ffffffff16611a829190613e01565b92505b50505b919050565b600d5481565b60076020528060005260406000206000915054906101000a900463ffffffff1681565b6000611ad360016000848152602001908152602001600020613241565b9050919050565b60005481565b60016020528060005260406000206000915090508060000160009054906101000a900473ffffffffffffffffffffffffffffffffffffffff16908060010160009054906101000a900473ffffffffffffffffffffffffffffffffffffffff16908060020160009054906101000a900473ffffffffffffffffffffffffffffffffffffffff1690806003015490806004016040518060e00160405290816000820160009054906101000a900473ffffffffffffffffffffffffffffffffffffffff1673ffffffffffffffffffffffffffffffffffffffff1673ffffffffffffffffffffffffffffffffffffffff16815260200160018201548152602001600282016040518060400160405290816000820154815260200160018201548152505081526020016004820160009054906101000a900463ffffffff1663ffffffff1663ffffffff1681526020016004820160049054906101000a900463ffffffff1663ffffffff1663ffffffff1681526020016004820160089054906101000a900463ffffffff1663ffffffff1663ffffffff16815260200160048201600c9054906101000a900463ffffffff1663ffffffff1663ffffffff16815250509080600901604051806060016040529081600082015481526020016001820160009054906101000a900463ffffffff1663ffffffff1663ffffffff1681526020016001820160049054906101000a900461ffff1661ffff1661ffff16815250509080600b0160009054906101000a900460ff16905087565b60066020528160005260406000208181548110611d2f57600080fd5b90600052602060002001600091509150505481565b600360205282600052604060002060205281600052604060002060205280600052604060002060009250925050508060000154908060010160009054906101000a900463ffffffff16908060010160049054906101000a900463ffffffff16908060010160089054906101000a900461ffff16908060020154908060030160009054906101000a900460ff16908060030160019054906101000a900463ffffffff16908060030160059054906101000a900463ffffffff16905088565b60008060008360006003811115611e1b57611e1a613b0a565b5b60016000838152602001908152602001600020600b0160009054906101000a900460ff166003811115611e5157611e50613b0a565b5b14611e91576040517f08c379a0000000000000000000000000000000000000000000000000000000008152600401611e8890614523565b60405180910390fd5b60006001600087815260200190815260200160002090506000600a60009054906101000a900473ffffffffffffffffffffffffffffffffffffffff1673ffffffffffffffffffffffffffffffffffffffff1663cf6539208360030154336040518363ffffffff1660e01b8152600401611f0b929190613f0e565b6040805180830381865afa158015611f27573d6000803e3d6000fd5b505050506040513d601f19601f82011682018060405250810190611f4b9190613f99565b50905080611f8e576040517f08c379a0000000000000000000000000000000000000000000000000000000008152600401611f8590614025565b60405180910390fd5b600a60009054906101000a900473ffffffffffffffffffffffffffffffffffffffff1673ffffffffffffffffffffffffffffffffffffffff1663a8380df183600301546040518263ffffffff1660e01b8152600401611fed9190613822565b602060405180830381865afa15801561200a573d6000803e3d6000fd5b505050506040513d601f19601f8201168201806040525081019061202e919061412a565b1561206e576040517f08c379a0000000000000000000000000000000000000000000000000000000008152600401612065906142ef565b60405180910390fd5b61207787610567565b156120b7576040517f08c379a00000000000000000000000000000000000000000000000000000000081526004016120ae9061458f565b60405180910390fd5b428260040160040160046101000a81548163ffffffff021916908363ffffffff160217905550428260040160040160086101000a81548163ffffffff021916908363ffffffff160217905550600282600b0160006101000a81548160ff0219169083600381111561212b5761212a613b0a565b5b0217905550338260020160006101000a81548173ffffffffffffffffffffffffffffffffffffffff021916908373ffffffffffffffffffffffffffffffffffffffff16021790555073__LibCalculations_______________________633fb340038360040160010154600b60009054906101000a900473ffffffffffffffffffffffffffffffffffffffff1673ffffffffffffffffffffffffffffffffffffffff1663b0e21e8a6040518163ffffffff1660e01b8152600401602060405180830381865afa158015612202573d6000803e3d6000fd5b505050506040513d601f19601f8201168201806040525081019061222691906145c4565b6040518363ffffffff1660e01b81526004016122439291906145f1565b602060405180830381865af4158015612260573d6000803e3d6000fd5b505050506040513d601f19601f8201168201806040525081019061228491906143d8565b955073__LibCalculations_______________________633fb340038360040160010154600a60009054906101000a900473ffffffffffffffffffffffffffffffffffffffff1673ffffffffffffffffffffffffffffffffffffffff1663635f1e4d86600301546040518263ffffffff1660e01b81526004016123079190613822565b602060405180830381865afa158015612324573d6000803e3d6000fd5b505050506040513d601f19601f8201168201806040525081019061234891906145c4565b6040518363ffffffff1660e01b81526004016123659291906145f1565b602060405180830381865af4158015612382573d6000803e3d6000fd5b505050506040513d601f19601f820116820180604052508101906123a691906143d8565b9450848683600401600101546123bc919061461a565b6123c6919061461a565b93508160040160000160009054906101000a900473ffffffffffffffffffffffffffffffffffffffff1673ffffffffffffffffffffffffffffffffffffffff166323b872dd8360020160009054906101000a900473ffffffffffffffffffffffffffffffffffffffff16600b60009054906101000a900473ffffffffffffffffffffffffffffffffffffffff1673ffffffffffffffffffffffffffffffffffffffff16634dd9ccb16040518163ffffffff1660e01b8152600401602060405180830381865afa15801561249d573d6000803e3d6000fd5b505050506040513d601f19601f820116820180604052508101906124c191906140c6565b896040518463ffffffff1660e01b81526004016124e0939291906140f3565b6020604051808303816000875af11580156124ff573d6000803e3d6000fd5b505050506040513d601f19601f82011682018060405250810190612523919061412a565b508160040160000160009054906101000a900473ffffffffffffffffffffffffffffffffffffffff1673ffffffffffffffffffffffffffffffffffffffff166323b872dd8360020160009054906101000a900473ffffffffffffffffffffffffffffffffffffffff16600a60009054906101000a900473ffffffffffffffffffffffffffffffffffffffff1673ffffffffffffffffffffffffffffffffffffffff16636e34b4e486600301546040518263ffffffff1660e01b81526004016125eb9190613822565b602060405180830381865afa158015612608573d6000803e3d6000fd5b505050506040513d601f19601f8201168201806040525081019061262c91906140c6565b886040518463ffffffff1660e01b815260040161264b939291906140f3565b6020604051808303816000875af115801561266a573d6000803e3d6000fd5b505050506040513d601f19601f8201168201806040525081019061268e919061412a565b508160040160000160009054906101000a900473ffffffffffffffffffffffffffffffffffffffff1673ffffffffffffffffffffffffffffffffffffffff166323b872dd8360020160009054906101000a900473ffffffffffffffffffffffffffffffffffffffff168460000160009054906101000a900473ffffffffffffffffffffffffffffffffffffffff16876040518463ffffffff1660e01b815260040161273b939291906140f3565b6020604051808303816000875af115801561275a573d6000803e3d6000fd5b505050506040513d601f19601f8201168201806040525081019061277e919061412a565b508160040160010154600960008460040160000160009054906101000a900473ffffffffffffffffffffffffffffffffffffffff1673ffffffffffffffffffffffffffffffffffffffff1673ffffffffffffffffffffffffffffffffffffffff16815260200190815260200160002060008460020160009054906101000a900473ffffffffffffffffffffffffffffffffffffffff1673ffffffffffffffffffffffffffffffffffffffff1673ffffffffffffffffffffffffffffffffffffffff168152602001908152602001600020600082825461285d9190613eb8565b925050819055508160040160010154600560008460040160000160009054906101000a900473ffffffffffffffffffffffffffffffffffffffff1673ffffffffffffffffffffffffffffffffffffffff1673ffffffffffffffffffffffffffffffffffffffff16815260200190815260200160002060008282546128e19190613eb8565b9250508190555061295d87600460008560000160009054906101000a900473ffffffffffffffffffffffffffffffffffffffff1673ffffffffffffffffffffffffffffffffffffffff1673ffffffffffffffffffffffffffffffffffffffff1681526020019081526020016000206132a490919063ffffffff16565b508160020160009054906101000a900473ffffffffffffffffffffffffffffffffffffffff1673ffffffffffffffffffffffffffffffffffffffff16877fc175daba6d0afff1f048fc218620bf5012c03afa26af397bacbf30f7341d343060405160405180910390a3856040516129d3906146a5565b6040518091039020887f9d2e18d1e551e6728496dd39a969d9fe809fe60c0c8c9cabfda8be718e5387cf60405160405180910390a484604051612a1590614706565b6040518091039020887f9d2e18d1e551e6728496dd39a969d9fe809fe60c0c8c9cabfda8be718e5387cf60405160405180910390a483604051612a5790614767565b6040518091039020887f9d2e18d1e551e6728496dd39a969d9fe809fe60c0c8c9cabfda8be718e5387cf60405160405180910390a45050509193909250565b60008060016000848152602001908152602001600020905060026003811115612ac257612ac1613b0a565b5b81600b0160009054906101000a900460ff166003811115612ae657612ae5613b0a565b5b14612af5576000915050612b7a565b60006007600085815260200190815260200160002060009054906101000a900463ffffffff1663ffffffff161415612b31576000915050612b7a565b6007600084815260200190815260200160002060009054906101000a900463ffffffff1663ffffffff16612b6484611ab6565b42612b6f9190614405565b63ffffffff16119150505b919050565b84600a60009054906101000a900473ffffffffffffffffffffffffffffffffffffffff1673ffffffffffffffffffffffffffffffffffffffff16636e34b4e4826040518263ffffffff1660e01b8152600401612bdb9190613822565b602060405180830381865afa158015612bf8573d6000803e3d6000fd5b505050506040513d601f19601f82011682018060405250810190612c1c91906140c6565b73ffffffffffffffffffffffffffffffffffffffff163373ffffffffffffffffffffffffffffffffffffffff1614612c5357600080fd5b505050505050565b6009602052816000526040600020602052806000526040600020600091509150505481565b6000806000612d28856004016001015486600401600201600001548760090160010160049054906101000a900461ffff1688600901600001548960090160010160009054906101000a900463ffffffff1663ffffffff16612ce08b613241565b63ffffffff168a8c60040160040160049054906101000a900463ffffffff1663ffffffff168d600401600401600c9054906101000a900463ffffffff1663ffffffff166132be565b9250925092509250925092565b6000600160008581526020019081526020016000209050600083602001518460000151612d629190613eb8565b90506000826003015490506000600a60009054906101000a900473ffffffffffffffffffffffffffffffffffffffff1673ffffffffffffffffffffffffffffffffffffffff1662a5ae21836040518263ffffffff1660e01b8152600401612dc99190613822565b602060405180830381865afa158015612de6573d6000803e3d6000fd5b505050506040513d601f19601f82011682018060405250810190612e0a91906140c6565b90506000600c60009054906101000a900473ffffffffffffffffffffffffffffffffffffffff1673ffffffffffffffffffffffffffffffffffffffff16635a981b7f8660000160009054906101000a900473ffffffffffffffffffffffffffffffffffffffff168a856040518463ffffffff1660e01b8152600401612e919392919061477c565b6020604051808303816000875af1158015612eb0573d6000803e3d6000fd5b505050506040513d601f19601f82011682018060405250810190612ed491906147d8565b9050858410612fb557859350600385600b0160006101000a81548160ff02191690836003811115612f0857612f07613b0a565b5b0217905550612f8288600460008860000160009054906101000a900473ffffffffffffffffffffffffffffffffffffffff1673ffffffffffffffffffffffffffffffffffffffff1673ffffffffffffffffffffffffffffffffffffffff1681526020019081526020016000206133a790919063ffffffff16565b50877f9a7851747cd7ffb3fe0a32caf3da48b31f27cebe131267051640f8b72fc4718660405160405180910390a2612fe3565b877f68ca97895fe2d09eab47e752271728ade667e72dda27e68c20eaa191a9c2187d60405160405180910390a25b8460040160000160009054906101000a900473ffffffffffffffffffffffffffffffffffffffff1673ffffffffffffffffffffffffffffffffffffffff166323b872dd8660000160009054906101000a900473ffffffffffffffffffffffffffffffffffffffff168760020160009054906101000a900473ffffffffffffffffffffffffffffffffffffffff16876040518463ffffffff1660e01b815260040161308f939291906140f3565b6020604051808303816000875af11580156130ae573d6000803e3d6000fd5b505050506040513d601f19601f820116820180604052508101906130d2919061412a565b5086600001518560040160020160000160008282546130f19190613eb8565b9250508190555086602001518560040160020160010160008282546131169190613eb8565b92505081905550428560040160040160086101000a81548163ffffffff021916908363ffffffff1602179055506000600281111561315757613156613b0a565b5b81600281111561316a57613169613b0a565b5b1461323757600c60009054906101000a900473ffffffffffffffffffffffffffffffffffffffff1673ffffffffffffffffffffffffffffffffffffffff16635a981b7f8660000160009054906101000a900473ffffffffffffffffffffffffffffffffffffffff168a856040518463ffffffff1660e01b81526004016131f29392919061477c565b6020604051808303816000875af1158015613211573d6000803e3d6000fd5b505050506040513d601f19601f8201168201806040525081019061323591906147d8565b505b5050505050505050565b6000808260040160040160089054906101000a900463ffffffff1663ffffffff1614613284578160040160040160089054906101000a900463ffffffff1661329d565b8160040160040160049054906101000a900463ffffffff165b9050919050565b60006132b6836000018360001b6133c1565b905092915050565b60008060008a8c6132cf919061461a565b925060006132dd848c613431565b9050600088886132ed919061461a565b90506301e1338081836133009190614805565b61330a919061485f565b92506000878961331a919061489a565b87613325919061489a565b905060008b82128061334257508c858861333f9190613eb8565b11155b9050600081613351578d61335e565b858861335d9190613eb8565b5b905060008d858361336f9190614805565b613379919061485f565b9050613390878261338a919061461a565b8a61344b565b975050505050505099509950999650505050505050565b60006133b9836000018360001b613464565b905092915050565b60006133cd8383613578565b61342657826000018290806001815401808255809150506001900390600052602060002001600090919091909150558260000180549050836001016000848152602001908152602001600020819055506001905061342b565b600090505b92915050565b6000613443838361ffff16600261359b565b905092915050565b600081831061345a578161345c565b825b905092915050565b6000808360010160008481526020019081526020016000205490506000811461356c576000600182613496919061461a565b90506000600186600001805490506134ae919061461a565b905081811461351d5760008660000182815481106134cf576134ce61492e565b5b90600052602060002001549050808760000184815481106134f3576134f261492e565b5b90600052602060002001819055508387600101600083815260200190815260200160002081905550505b856000018054806135315761353061495d565b5b600190038181906000526020600020016000905590558560010160008681526020019081526020016000206000905560019350505050613572565b60009150505b92915050565b600080836001016000848152602001908152602001600020541415905092915050565b60006135a6826135c5565b83856135b29190614805565b6135bc919061485f565b90509392505050565b600081600a6135d49190614abf565b60646135e09190614805565b9050919050565b600080fd5b6000819050919050565b6135ff816135ec565b811461360a57600080fd5b50565b60008135905061361c816135f6565b92915050565b600060208284031215613638576136376135e7565b5b60006136468482850161360d565b91505092915050565b60008115159050919050565b6136648161364f565b82525050565b600060208201905061367f600083018461365b565b92915050565b600073ffffffffffffffffffffffffffffffffffffffff82169050919050565b60006136b082613685565b9050919050565b6136c0816136a5565b81146136cb57600080fd5b50565b6000813590506136dd816136b7565b92915050565b600063ffffffff82169050919050565b6136fc816136e3565b811461370757600080fd5b50565b600081359050613719816136f3565b92915050565b600061ffff82169050919050565b6137368161371f565b811461374157600080fd5b50565b6000813590506137538161372d565b92915050565b60008060008060008060c08789031215613776576137756135e7565b5b600061378489828a0161360d565b965050602061379589828a016136ce565b95505060406137a689828a0161360d565b94505060606137b789828a0161370a565b93505060806137c889828a01613744565b92505060a06137d989828a0161370a565b9150509295509295509295565b6000602082840312156137fc576137fb6135e7565b5b600061380a848285016136ce565b91505092915050565b61381c816135ec565b82525050565b60006020820190506138376000830184613813565b92915050565b613846816136e3565b82525050565b6000602082019050613861600083018461383d565b92915050565b600080600080600060a08688031215613883576138826135e7565b5b60006138918882890161360d565b95505060206138a2888289016136ce565b94505060406138b38882890161360d565b93505060606138c4888289016136ce565b92505060806138d5888289016136ce565b9150509295509295909350565b60008060008060008060c087890312156138ff576138fe6135e7565b5b600061390d89828a016136ce565b965050602061391e89828a0161360d565b955050604061392f89828a0161360d565b945050606061394089828a0161370a565b935050608061395189828a01613744565b92505060a061396289828a016136ce565b9150509295509295509295565b613978816136a5565b82525050565b6000819050919050565b60006139a361399e61399984613685565b61397e565b613685565b9050919050565b60006139b582613988565b9050919050565b60006139c7826139aa565b9050919050565b6139d7816139bc565b82525050565b6139e6816135ec565b82525050565b604082016000820151613a0260008501826139dd565b506020820151613a1560208501826139dd565b50505050565b613a24816136e3565b82525050565b61010082016000820151613a4160008501826139ce565b506020820151613a5460208501826139dd565b506040820151613a6760408501826139ec565b506060820151613a7a6080850182613a1b565b506080820151613a8d60a0850182613a1b565b5060a0820151613aa060c0850182613a1b565b5060c0820151613ab360e0850182613a1b565b50505050565b613ac28161371f565b82525050565b606082016000820151613ade60008501826139dd565b506020820151613af16020850182613a1b565b506040820151613b046040850182613ab9565b50505050565b7f4e487b7100000000000000000000000000000000000000000000000000000000600052602160045260246000fd5b60048110613b4a57613b49613b0a565b5b50565b6000819050613b5b82613b39565b919050565b6000613b6b82613b4d565b9050919050565b613b7b81613b60565b82525050565b600061020082019050613b97600083018a61396f565b613ba4602083018961396f565b613bb1604083018861396f565b613bbe6060830187613813565b613bcb6080830186613a2a565b613bd9610180830185613ac8565b613be76101e0830184613b72565b98975050505050505050565b60008060408385031215613c0a57613c096135e7565b5b6000613c18858286016136ce565b9250506020613c298582860161360d565b9150509250929050565b600080600060608486031215613c4c57613c4b6135e7565b5b6000613c5a868287016136ce565b9350506020613c6b8682870161360d565b9250506040613c7c868287016136ce565b9150509250925092565b613c8f8161371f565b82525050565b60048110613ca657613ca5613b0a565b5b50565b6000819050613cb782613c95565b919050565b6000613cc782613ca9565b9050919050565b613cd781613cbc565b82525050565b600061010082019050613cf3600083018b613813565b613d00602083018a61383d565b613d0d604083018961383d565b613d1a6060830188613c86565b613d276080830187613813565b613d3460a0830186613cce565b613d4160c083018561383d565b613d4e60e083018461383d565b9998505050505050505050565b6000606082019050613d706000830186613813565b613d7d6020830185613813565b613d8a6040830184613813565b949350505050565b60008060408385031215613da957613da86135e7565b5b6000613db7858286016136ce565b9250506020613dc8858286016136ce565b9150509250929050565b7f4e487b7100000000000000000000000000000000000000000000000000000000600052601160045260246000fd5b6000613e0c826136e3565b9150613e17836136e3565b92508263ffffffff03821115613e3057613e2f613dd2565b5b828201905092915050565b600082825260208201905092915050565b7f4c6f616e206d7573742062652061636365707465640000000000000000000000600082015250565b6000613e82601583613e3b565b9150613e8d82613e4c565b602082019050919050565b60006020820190508181036000830152613eb181613e75565b9050919050565b6000613ec3826135ec565b9150613ece836135ec565b9250827fffffffffffffffffffffffffffffffffffffffffffffffffffffffffffffffff03821115613f0357613f02613dd2565b5b828201905092915050565b6000604082019050613f236000830185613813565b613f30602083018461396f565b9392505050565b613f408161364f565b8114613f4b57600080fd5b50565b600081519050613f5d81613f37565b92915050565b6000819050919050565b613f7681613f63565b8114613f8157600080fd5b50565b600081519050613f9381613f6d565b92915050565b60008060408385031215613fb057613faf6135e7565b5b6000613fbe85828601613f4e565b9250506020613fcf85828601613f84565b9150509250929050565b7f4e6f74207665726966696564206c656e64657200000000000000000000000000600082015250565b600061400f601383613e3b565b915061401a82613fd9565b602082019050919050565b6000602082019050818103600083015261403e81614002565b9050919050565b7f77726f6e672074696d657374616d700000000000000000000000000000000000600082015250565b600061407b600f83613e3b565b915061408682614045565b602082019050919050565b600060208201905081810360008301526140aa8161406e565b9050919050565b6000815190506140c0816136b7565b92915050565b6000602082840312156140dc576140db6135e7565b5b60006140ea848285016140b1565b91505092915050565b6000606082019050614108600083018661396f565b614115602083018561396f565b6141226040830184613813565b949350505050565b6000602082840312156141405761413f6135e7565b5b600061414e84828501613f4e565b91505092915050565b6000614162826135ec565b91507fffffffffffffffffffffffffffffffffffffffffffffffffffffffffffffffff82141561419557614194613dd2565b5b600182019050919050565b60006040820190506141b56000830185613813565b6141c26020830184613813565b9392505050565b60006040820190506141de600083018561396f565b6141eb6020830184613813565b9392505050565b6000608082019050614207600083018761396f565b6142146020830186613813565b6142216040830185613813565b61422e6060830184613813565b95945050505050565b7f4e6f7420766572696669656420626f72726f7765720000000000000000000000600082015250565b600061426d601583613e3b565b915061427882614237565b602082019050919050565b6000602082019050818103600083015261429c81614260565b9050919050565b7f506f6f6c20697320636c6f736564000000000000000000000000000000000000600082015250565b60006142d9600e83613e3b565b91506142e4826142a3565b602082019050919050565b60006020820190508181036000830152614308816142cc565b9050919050565b60008151905061431e816136f3565b92915050565b60006020828403121561433a576143396135e7565b5b60006143488482850161430f565b91505092915050565b61435a816135ec565b82525050565b614369816136e3565b82525050565b6143788161371f565b82525050565b60006080820190506143936000830187614351565b6143a06020830186614360565b6143ad6040830185614360565b6143ba606083018461436f565b95945050505050565b6000815190506143d2816135f6565b92915050565b6000602082840312156143ee576143ed6135e7565b5b60006143fc848285016143c3565b91505092915050565b6000614410826136e3565b915061441b836136e3565b92508282101561442e5761442d613dd2565b5b828203905092915050565b7f4e487b7100000000000000000000000000000000000000000000000000000000600052601260045260246000fd5b6000614473826136e3565b915061447e836136e3565b92508261448e5761448d614439565b5b828204905092915050565b60006144a4826136e3565b91506144af836136e3565b92508163ffffffff04831182151516156144cc576144cb613dd2565b5b828202905092915050565b7f4c6f616e206d7573742062652070656e64696e67000000000000000000000000600082015250565b600061450d601483613e3b565b9150614518826144d7565b602082019050919050565b6000602082019050818103600083015261453c81614500565b9050919050565b7f4c6f616e20686173206578706972656400000000000000000000000000000000600082015250565b6000614579601083613e3b565b915061458482614543565b602082019050919050565b600060208201905081810360008301526145a88161456c565b9050919050565b6000815190506145be8161372d565b92915050565b6000602082840312156145da576145d96135e7565b5b60006145e8848285016145af565b91505092915050565b60006040820190506146066000830185614351565b614613602083018461436f565b9392505050565b6000614625826135ec565b9150614630836135ec565b92508282101561464357614642613dd2565b5b828203905092915050565b600081905092915050565b7f70726f746f636f6c000000000000000000000000000000000000000000000000600082015250565b600061468f60088361464e565b915061469a82614659565b600882019050919050565b60006146b082614682565b9150819050919050565b7f506f6f6c00000000000000000000000000000000000000000000000000000000600082015250565b60006146f060048361464e565b91506146fb826146ba565b600482019050919050565b6000614711826146e3565b9150819050919050565b7f426f72726f776572000000000000000000000000000000000000000000000000600082015250565b600061475160088361464e565b915061475c8261471b565b600882019050919050565b600061477282614744565b9150819050919050565b6000606082019050614791600083018661396f565b61479e6020830185613813565b6147ab604083018461396f565b949350505050565b600381106147c057600080fd5b50565b6000815190506147d2816147b3565b92915050565b6000602082840312156147ee576147ed6135e7565b5b60006147fc848285016147c3565b91505092915050565b6000614810826135ec565b915061481b836135ec565b9250817fffffffffffffffffffffffffffffffffffffffffffffffffffffffffffffffff048311821515161561485457614853613dd2565b5b828202905092915050565b600061486a826135ec565b9150614875836135ec565b92508261488557614884614439565b5b828204905092915050565b6000819050919050565b60006148a582614890565b91506148b083614890565b9250827f8000000000000000000000000000000000000000000000000000000000000000018212600084121516156148eb576148ea613dd2565b5b827f7fffffffffffffffffffffffffffffffffffffffffffffffffffffffffffffff01821360008412161561492357614922613dd2565b5b828203905092915050565b7f4e487b7100000000000000000000000000000000000000000000000000000000600052603260045260246000fd5b7f4e487b7100000000000000000000000000000000000000000000000000000000600052603160045260246000fd5b60008160011c9050919050565b6000808291508390505b60018511156149e3578086048111156149bf576149be613dd2565b5b60018516156149ce5780820291505b80810290506149dc8561498c565b94506149a3565b94509492505050565b6000826149fc5760019050614ab8565b81614a0a5760009050614ab8565b8160018114614a205760028114614a2a57614a59565b6001915050614ab8565b60ff841115614a3c57614a3b613dd2565b5b8360020a915084821115614a5357614a52613dd2565b5b50614ab8565b5060208310610133831016604e8410600b8410161715614a8e5782820a905083811115614a8957614a88613dd2565b5b614ab8565b614a9b8484846001614999565b92509050818404811115614ab257614ab1613dd2565b5b81810290505b9392505050565b6000614aca826135ec565b9150614ad5836135ec565b9250614b027fffffffffffffffffffffffffffffffffffffffffffffffffffffffffffffffff84846149ec565b90509291505056fea26469706673582212208c57b69b838a6f04ea8b11773973463b4a60f5141bdef65d884c337bbb92b82564736f6c634300080b0033",
  "immutableReferences": {},
  "source": "// SPDX-License-Identifier: MIT\npragma solidity >=0.4.22 <0.9.0;\n\nimport \"@openzeppelin/contracts/token/ERC20/IERC20.sol\";\nimport \"@openzeppelin/contracts/utils/Counters.sol\";\nimport {SafeMath} from \"@openzeppelin/contracts/utils/math/SafeMath.sol\";\nimport {EnumerableSet} from \"@openzeppelin/contracts/utils/structs/EnumerableSet.sol\";\nimport \"@openzeppelin/contracts/token/ERC721/extensions/ERC721URIStorage.sol\";\nimport \"./poolRegistry.sol\";\nimport \"./poolStorage.sol\";\nimport \"./AconomyFee.sol\";\nimport \"./accountStatus.sol\";\nimport \"./Libraries/LibCalculations.sol\";\nimport \"./interfaces/IaccountStatus.sol\";\n\nimport \"@openzeppelin/contracts/utils/Address.sol\";\nimport \"@openzeppelin/contracts/utils/math/Math.sol\";\nimport \"@openzeppelin/contracts/token/ERC20/utils/SafeERC20.sol\";\n\n// 0xe2899bddFD890e320e643044c6b95B9B0b84157A\n// poolAddress\": \"0xEC3c9230499a3FA960Ee28f7D2c0Ee3AD4AeBb07\" 0xaabBF7b98Af6E1bcC801ceB3480a97C3d686757b\n// AS=0x3328358128832A260C76A4141e19E2A943CD4B6D\n\n// a1=0x5B38Da6a701c568545dCfcB03FcB875f56beddC4\n// a2=0xAb8483F64d9C6d1EcF9b849Ae677dD3315835cb2\n// 1000000000\n// PR=0x7EF2e0048f5bAeDe046f6BF797943daF4ED8CB47\n// poolAddress\": \"0xddaAd340b0f1Ef65169Ae5E41A8b10776a75482d\" 0xD9eC9E840Bb5Df076DBbb488d01485058f421e58\n// AS=0xf8e81D47203A594245E36C48e151709F0C19fBe8\n// AF=0xd8b934580fcE35a11B58C6D73aDeE468a2833fa8\n// AStts=0xd9145CCE52D386f254917e481eB44e9943F39138\n// a1=0x5B38Da6a701c568545dCfcB03FcB875f56beddC4\n// a2=0xAb8483F64d9C6d1EcF9b849Ae677dD3315835cb2\n// 222222222222\n\ncontract poolAddress is poolStorage {\n    using Counters for Counters.Counter;\n    address poolRegistryAddress;\n    address AconomyFeeAddress;\n    address accountStatusAddress;\n    uint256 public bidId = 0;\n\n    using SafeMath for uint256;\n    using EnumerableSet for EnumerableSet.UintSet;\n\n    constructor(\n        address _poolRegistry,\n        address _AconomyFeeAddress,\n        address _accountStatusAddress\n    ) {\n        poolRegistryAddress = _poolRegistry;\n        AconomyFeeAddress = _AconomyFeeAddress;\n        accountStatusAddress = _accountStatusAddress;\n    }\n\n    modifier pendingLoan(uint256 _loanId) {\n        if (loans[_loanId].state != LoanState.PENDING) {\n            revert(\"Loan must be pending\");\n        }\n        _;\n    }\n\n    modifier onlyPoolOwner(uint256 poolId) {\n        require(\n            msg.sender == poolRegistry(poolRegistryAddress).getPoolOwner(poolId)\n        );\n        _;\n    }\n\n    event loanAccepted(uint256 indexed loanId, address indexed lender);\n\n    event AcceptedBid(\n        address reciever,\n        uint256 BidId,\n        uint256 PoolId,\n        uint256 Amount\n    );\n\n    event SupplyToPool(\n        address indexed lender,\n        uint256 indexed poolId,\n        uint256 BidId,\n        address indexed ERC20Token,\n        uint256 tokenAmount\n    );\n\n    event repaidAmounts(\n        uint256 owedPrincipal,\n        uint256 duePrincipal,\n        uint256 interest\n    );\n    event AcceptedLoanDetail(\n        uint256 indexed loanId,\n        string indexed feeType,\n        uint256 indexed amount\n    );\n\n    event LoanRepaid(uint256 indexed bidId);\n    event LoanRepayment(uint256 indexed bidId);\n\n    event SubmittedLoan(\n        uint256 indexed loanId,\n        address indexed borrower,\n        address receiver,\n        uint256 paymentCycleAmount\n    );\n\n    function loanRequest(\n        address _lendingToken,\n        uint256 _poolId,\n        uint256 _principal,\n        uint32 _duration,\n        uint16 _APR,\n        address _receiver\n    ) public returns (uint256 loanId_) {\n        (bool isVerified, ) = poolRegistry(poolRegistryAddress)\n            .borrowerVarification(_poolId, msg.sender);\n        require(isVerified, \"Not verified borrower\");\n        require(\n            !poolRegistry(poolRegistryAddress).ClosedPool(_poolId),\n            \"Pool is closed\"\n        );\n\n        loanId_ = loanId;\n\n        poolLoans[_poolId] = loanId_;\n\n        // Create and store our loan into the mapping\n        Loan storage loan = loans[loanId];\n        loan.borrower = msg.sender;\n        loan.receiver = _receiver != address(0) ? _receiver : loan.borrower;\n        loan.poolId = _poolId;\n        loan.loanDetails.lendingToken = ERC20(_lendingToken);\n        loan.loanDetails.principal = _principal;\n        loan.loanDetails.loanDuration = _duration;\n        loan.loanDetails.timestamp = uint32(block.timestamp);\n\n        loan.terms.paymentCycle = poolRegistry(poolRegistryAddress)\n            .getPaymentCycleDuration(_poolId);\n\n        loan.terms.APR = _APR;\n\n        loanDefaultDuration[loanId] = poolRegistry(poolRegistryAddress)\n            .getPaymentDefaultDuration(_poolId);\n\n        loanExpirationTime[loanId] = poolRegistry(poolRegistryAddress)\n            .getloanExpirationTime(_poolId);\n\n        loan.terms.paymentCycleAmount = LibCalculations.payment(\n            _principal,\n            _duration,\n            loan.terms.paymentCycle,\n            _APR\n        );\n\n        loan.state = LoanState.PENDING;\n\n        emit SubmittedLoan(\n            loanId,\n            loan.borrower,\n            loan.receiver,\n            loan.terms.paymentCycleAmount\n        );\n\n\n\n        // Store loan inside borrower loans mapping\n        borrowerLoans[loan.borrower].push(loanId);\n\n        // Increment loan id\n        loanId++;\n    }\n\n    function AcceptLoan(uint256 _loanId)\n        external\n        pendingLoan(_loanId)\n        returns (\n            uint256 amountToAconomy,\n            uint256 amountToPool,\n            uint256 amountToBorrower\n        )\n    {\n        Loan storage loan = loans[_loanId];\n\n        (bool isVerified, ) = poolRegistry(poolRegistryAddress)\n            .lenderVarification(loan.poolId, msg.sender);\n\n        require(isVerified, \"Not verified lender\");\n        require(\n            !poolRegistry(poolRegistryAddress).ClosedPool(loan.poolId),\n            \"Pool is closed\"\n        );\n        require(!isLoanExpired(_loanId), \"Loan has expired\");\n\n\n        loan.loanDetails.acceptedTimestamp = uint32(block.timestamp);\n        loan.loanDetails.lastRepaidTimestamp = uint32(block.timestamp);\n\n        loan.state = LoanState.ACCEPTED;\n\n        loan.lender = msg.sender;\n\n        //Aconomy Fee\n        amountToAconomy = LibCalculations.percent(\n            loan.loanDetails.principal,\n            AconomyFee(AconomyFeeAddress).protocolFee()\n        );\n\n        //Pool Fee\n        amountToPool = LibCalculations.percent(\n            loan.loanDetails.principal,\n            poolRegistry(poolRegistryAddress).getPoolFee(loan.poolId)\n        );\n\n        //Amount to Borrower\n        amountToBorrower =\n            loan.loanDetails.principal -\n            amountToAconomy -\n            amountToPool;\n\n        //Transfer Aconomy Fee\n        IERC20(loan.loanDetails.lendingToken).transferFrom(\n            loan.lender,\n            AconomyFee(AconomyFeeAddress).getAconomyOwnerAddress(),\n            amountToAconomy\n        );\n\n        //Transfer to Pool Owner\n        IERC20(loan.loanDetails.lendingToken).transferFrom(\n            loan.lender,\n            poolRegistry(poolRegistryAddress).getPoolOwner(loan.poolId),\n            amountToPool\n        );\n\n        //transfer funds to borrower\n        IERC20(loan.loanDetails.lendingToken).transferFrom(\n            loan.lender,\n            loan.borrower,\n            amountToBorrower\n        );\n\n        // Record Amount filled by lenders\n        lenderLendAmount[address(loan.loanDetails.lendingToken)][\n            loan.lender\n        ] += loan.loanDetails.principal;\n        totalERC20Amount[address(loan.loanDetails.lendingToken)] += loan\n            .loanDetails\n            .principal;\n\n        // Store Borrower's active loan\n        borrowerActiveLoans[loan.borrower].add(_loanId);\n\n        emit loanAccepted(_loanId, loan.lender);\n\n        emit AcceptedLoanDetail(_loanId, \"protocol\", amountToAconomy);\n        emit AcceptedLoanDetail(_loanId, \"Pool\", amountToPool);\n        emit AcceptedLoanDetail(_loanId, \"Borrower\", amountToBorrower);\n    }\n\n    function isLoanExpired(uint256 _loanId) public view returns (bool) {\n        Loan storage loan = loans[_loanId];\n\n        if (loan.state != LoanState.PENDING) return false;\n        if (loanExpirationTime[_loanId] == 0) return false;\n\n        return (uint32(block.timestamp) >\n            loan.loanDetails.timestamp + loanExpirationTime[_loanId]);\n    }\n\n    function isLoanDefaulted(uint256 _loanId) public view returns (bool) {\n        Loan storage loan = loans[_loanId];\n\n        // Make sure loan cannot be liquidated if it is not active\n        if (loan.state != LoanState.ACCEPTED) return false;\n\n        if (loanDefaultDuration[_loanId] == 0) return false;\n\n        return (uint32(block.timestamp) - lastRepaidTimestamp(_loanId) >\n            loanDefaultDuration[_loanId]);\n    }\n\n    function lastRepaidTimestamp(uint256 _loanId) public view returns (uint32) {\n        return LibCalculations.lastRepaidTimestamp(loans[_loanId]);\n    }\n\n    function isPaymentLate(uint256 _loanId) public view returns (bool) {\n        if (loans[_loanId].state != LoanState.ACCEPTED) return false;\n        return uint32(block.timestamp) > calculateNextDueDate(_loanId);\n    }\n\n    function calculateNextDueDate(uint256 _loanId)\n        public\n        view\n        returns (uint32 dueDate_)\n    {\n        Loan storage loan = loans[_loanId];\n        if (loans[_loanId].state != LoanState.ACCEPTED) return dueDate_;\n\n        // Start with the original due date being 1 payment cycle since loan was accepted\n        dueDate_ = loan.loanDetails.acceptedTimestamp + loan.terms.paymentCycle;\n\n        // Calculate the cycle number the last repayment was made\n        uint32 delta = lastRepaidTimestamp(_loanId) -\n            loan.loanDetails.acceptedTimestamp;\n        if (delta > 0) {\n            uint32 repaymentCycle = 1 + (delta / loan.terms.paymentCycle);\n            dueDate_ += (repaymentCycle * loan.terms.paymentCycle);\n        }\n\n        //if we are in the last payment cycle, the next due date is the end of loan duration\n        if (\n            dueDate_ >\n            loan.loanDetails.acceptedTimestamp + loan.loanDetails.loanDuration\n        ) {\n            dueDate_ =\n                loan.loanDetails.acceptedTimestamp +\n                loan.loanDetails.loanDuration;\n        }\n    }\n\n    function repayYourLoan(uint256 _loanId) external {\n        if (loans[_loanId].state != LoanState.ACCEPTED) {\n            revert(\"Loan must be accepted\");\n        }\n        (\n            uint256 owedAmount,\n            uint256 dueAmount,\n            uint256 interest\n        ) = LibCalculations.owedAmount(loans[_loanId], block.timestamp);\n        _repayLoan(\n            _loanId,\n            Payment({principal: dueAmount, interest: interest}),\n            owedAmount + interest\n        );\n        emit repaidAmounts(owedAmount, dueAmount, interest);\n    }\n\n    function repayFullLoan(uint256 _loanId) external {\n        if (loans[_loanId].state != LoanState.ACCEPTED) {\n            revert(\"Loan must be accepted\");\n        }\n        (uint256 owedPrincipal, , uint256 interest) = LibCalculations\n            .owedAmount(loans[_loanId], block.timestamp);\n        _repayLoan(\n            _loanId,\n            Payment({principal: owedPrincipal, interest: interest}),\n            owedPrincipal + interest\n        );\n    }\n\n    function _repayLoan(\n        uint256 _loanId,\n        Payment memory _payment,\n        uint256 _owedAmount\n    ) internal {\n        Loan storage loan = loans[_loanId];\n        uint256 paymentAmount = _payment.principal + _payment.interest;\n        uint256 poolId_ = loan.poolId;\n        address poolAddress_ = poolRegistry(poolRegistryAddress).getPoolAddress(\n            poolId_\n        );\n\n        StatusMark status = accountStatus(accountStatusAddress).updateStatus(\n            loan.borrower,\n            _loanId,\n            poolAddress_\n        );\n\n        // Check if we are sending a payment or amount remaining\n        if (paymentAmount >= _owedAmount) {\n            paymentAmount = _owedAmount;\n            loan.state = LoanState.PAID;\n\n            // Remove borrower's active loan\n            borrowerActiveLoans[loan.borrower].remove(_loanId);\n\n            emit LoanRepaid(_loanId);\n        } else {\n            emit LoanRepayment(_loanId);\n        }\n        // Send payment to the lender\n        IERC20(loan.loanDetails.lendingToken).transferFrom(\n            loan.borrower,\n            loan.lender,\n            paymentAmount\n        );\n\n        loan.loanDetails.totalRepaid.principal += _payment.principal;\n        loan.loanDetails.totalRepaid.interest += _payment.interest;\n        loan.loanDetails.lastRepaidTimestamp = uint32(block.timestamp);\n\n        // If the loan is paid in full and has a mark, we should update the current status\n        if (status != StatusMark.Good) {\n            accountStatus(accountStatusAddress).updateStatus(\n                loan.borrower,\n                _loanId,\n                poolAddress_\n            );\n        }\n    }\n\n    //Supply to pool by lenders\n    function supplyToPool(\n        uint256 _poolId,\n        address _ERC20Address,\n        uint256 _amount,\n        uint32 _maxLoanDuration,\n        uint16 _interestRate,\n        uint32 _expiration\n    ) external {\n        (bool isVerified, ) = poolRegistry(poolRegistryAddress)\n            .lenderVarification(_poolId, msg.sender);\n\n        require(isVerified, \"Not verified lender\");\n\n        address lender = msg.sender;\n        require(_expiration > uint32(block.timestamp), \"wrong timestamp\");\n        uint256 _bidId = bidId;\n        FundDetail storage fundDetail = lenderPoolFundDetails[lender][_poolId][\n            _ERC20Address\n        ];\n        fundDetail.amount = _amount;\n        fundDetail.expiration = _expiration;\n        fundDetail.maxDuration = _maxLoanDuration;\n        fundDetail.interestRate = _interestRate;\n        fundDetail.bidId = _bidId;\n        fundDetail.bidTimestamp = uint32(block.timestamp);\n\n        fundDetail.state = BidState.PENDING;\n\n        address _poolAddress = poolRegistry(poolRegistryAddress).getPoolAddress(\n            _poolId\n        );\n\n        // Send payment to the Pool\n        IERC20(_ERC20Address).transferFrom(lender, _poolAddress, _amount);\n        bidId++;\n\n        emit SupplyToPool(lender, _poolId, _bidId, _ERC20Address, _amount);\n    }\n\n    function AcceptBid(\n        uint256 _poolId,\n        address _ERC20Address,\n        uint256 _bidId,\n        address _lender,\n        address _receiver\n    ) external onlyPoolOwner(_poolId) {\n        FundDetail storage fundDetail = lenderPoolFundDetails[_lender][_poolId][\n            _ERC20Address\n        ];\n        fundDetail.acceptBidTimestamp = uint32(block.timestamp);\n        uint256 amount = fundDetail.amount;\n        fundDetail.state = BidState.ACCEPTED;\n        address _poolAddress = poolRegistry(poolRegistryAddress).getPoolAddress(\n            _poolId\n        );\n        IERC20(_ERC20Address).approve(_receiver, amount);\n        IERC20(_ERC20Address).transferFrom(_poolAddress, _receiver, amount);\n\n        emit AcceptedBid(_receiver, _bidId, _poolId, amount);\n    }\n\n    function RepayInstallment(\n        uint256 _poolId,\n        address _ERC20Address,\n        uint256 _bidId,\n        address _lender,\n        address _receiver\n    ) external onlyPoolOwner(_poolId) {}\n}\n",
  "sourcePath": "/Users/sanskarkhare/Desktop/Pandora/aconomy-contract/contracts/poolAddress.sol",
  "compiler": {
    "name": "solc",
    "version": "0.8.11+commit.d7f03943.Emscripten.clang"
  },
  "schemaVersion": "3.4.4",
  "updatedAt": "2023-02-03T05:37:07.333Z",
  "devdoc": {
    "kind": "dev",
    "methods": {},
    "version": 1
  },
  "userdoc": {
    "kind": "user",
    "methods": {},
    "version": 1
  }
}