{
  "contractName": "poolStorage",
  "abi": [
    {
      "anonymous": false,
      "inputs": [
        {
          "indexed": false,
          "internalType": "uint8",
          "name": "version",
          "type": "uint8"
        }
      ],
      "name": "Initialized",
      "type": "event"
    },
    {
      "inputs": [],
      "name": "AconomyFeeAddress",
      "outputs": [
        {
          "internalType": "address",
          "name": "",
          "type": "address"
        }
      ],
      "stateMutability": "view",
      "type": "function"
    },
    {
      "inputs": [
        {
          "internalType": "address",
          "name": "",
          "type": "address"
        },
        {
          "internalType": "uint256",
          "name": "",
          "type": "uint256"
        }
      ],
      "name": "borrowerLoans",
      "outputs": [
        {
          "internalType": "uint256",
          "name": "",
          "type": "uint256"
        }
      ],
      "stateMutability": "view",
      "type": "function"
    },
    {
      "inputs": [
        {
          "internalType": "address",
          "name": "",
          "type": "address"
        },
        {
          "internalType": "address",
          "name": "",
          "type": "address"
        }
      ],
      "name": "lenderLendAmount",
      "outputs": [
        {
          "internalType": "uint256",
          "name": "",
          "type": "uint256"
        }
      ],
      "stateMutability": "view",
      "type": "function"
    },
    {
      "inputs": [
        {
          "internalType": "uint256",
          "name": "",
          "type": "uint256"
        }
      ],
      "name": "loanDefaultDuration",
      "outputs": [
        {
          "internalType": "uint32",
          "name": "",
          "type": "uint32"
        }
      ],
      "stateMutability": "view",
      "type": "function"
    },
    {
      "inputs": [
        {
          "internalType": "uint256",
          "name": "",
          "type": "uint256"
        }
      ],
      "name": "loanExpirationDuration",
      "outputs": [
        {
          "internalType": "uint32",
          "name": "",
          "type": "uint32"
        }
      ],
      "stateMutability": "view",
      "type": "function"
    },
    {
      "inputs": [],
      "name": "loanId",
      "outputs": [
        {
          "internalType": "uint256",
          "name": "",
          "type": "uint256"
        }
      ],
      "stateMutability": "view",
      "type": "function"
    },
    {
      "inputs": [
        {
          "internalType": "uint256",
          "name": "",
          "type": "uint256"
        }
      ],
      "name": "loans",
      "outputs": [
        {
          "internalType": "address",
          "name": "borrower",
          "type": "address"
        },
        {
          "internalType": "address",
          "name": "receiver",
          "type": "address"
        },
        {
          "internalType": "address",
          "name": "lender",
          "type": "address"
        },
        {
          "internalType": "uint256",
          "name": "poolId",
          "type": "uint256"
        },
        {
          "components": [
            {
              "internalType": "contract ERC20",
              "name": "lendingToken",
              "type": "address"
            },
            {
              "internalType": "uint256",
              "name": "principal",
              "type": "uint256"
            },
            {
              "components": [
                {
                  "internalType": "uint256",
                  "name": "principal",
                  "type": "uint256"
                },
                {
                  "internalType": "uint256",
                  "name": "interest",
                  "type": "uint256"
                }
              ],
              "internalType": "struct poolStorage.Payment",
              "name": "totalRepaid",
              "type": "tuple"
            },
            {
              "internalType": "uint32",
              "name": "timestamp",
              "type": "uint32"
            },
            {
              "internalType": "uint32",
              "name": "acceptedTimestamp",
              "type": "uint32"
            },
            {
              "internalType": "uint32",
              "name": "lastRepaidTimestamp",
              "type": "uint32"
            },
            {
              "internalType": "uint32",
              "name": "loanDuration",
              "type": "uint32"
            },
            {
              "internalType": "uint16",
              "name": "protocolFee",
              "type": "uint16"
            }
          ],
          "internalType": "struct poolStorage.LoanDetails",
          "name": "loanDetails",
          "type": "tuple"
        },
        {
          "components": [
            {
              "internalType": "uint256",
              "name": "paymentCycleAmount",
              "type": "uint256"
            },
            {
              "internalType": "uint256",
              "name": "monthlyCycleInterest",
              "type": "uint256"
            },
            {
              "internalType": "uint32",
              "name": "paymentCycle",
              "type": "uint32"
            },
            {
              "internalType": "uint16",
              "name": "APR",
              "type": "uint16"
            },
            {
              "internalType": "uint32",
              "name": "installments",
              "type": "uint32"
            },
            {
              "internalType": "uint32",
              "name": "installmentsPaid",
              "type": "uint32"
            }
          ],
          "internalType": "struct poolStorage.Terms",
          "name": "terms",
          "type": "tuple"
        },
        {
          "internalType": "enum poolStorage.LoanState",
          "name": "state",
          "type": "uint8"
        }
      ],
      "stateMutability": "view",
      "type": "function"
    },
    {
      "inputs": [
        {
          "internalType": "uint256",
          "name": "",
          "type": "uint256"
        }
      ],
      "name": "poolLoans",
      "outputs": [
        {
          "internalType": "uint256",
          "name": "",
          "type": "uint256"
        }
      ],
      "stateMutability": "view",
      "type": "function"
    },
    {
      "inputs": [],
      "name": "poolRegistryAddress",
      "outputs": [
        {
          "internalType": "address",
          "name": "",
          "type": "address"
        }
      ],
      "stateMutability": "view",
      "type": "function"
    },
    {
      "inputs": [
        {
          "internalType": "address",
          "name": "",
          "type": "address"
        }
      ],
      "name": "totalERC20Amount",
      "outputs": [
        {
          "internalType": "uint256",
          "name": "",
          "type": "uint256"
        }
      ],
      "stateMutability": "view",
      "type": "function"
    }
  ],
  "bytecode": "0x608060405234801561001057600080fd5b50610b22806100206000396000f3fe608060405234801561001057600080fd5b506004361061009e5760003560e01c8063c95669a511610066578063c95669a514610181578063dadf422e1461019f578063e1ec3c68146101bd578063e3ed1902146101f3578063fee870e9146102235761009e565b806330f2670c146100a3578063376e4988146100d3578063598901c6146101035780638cda457114610121578063a48fa21214610151575b600080fd5b6100bd60048036038101906100b8919061067e565b610253565b6040516100ca91906106c4565b60405180910390f35b6100ed60048036038101906100e8919061070b565b61026b565b6040516100fa91906106c4565b60405180910390f35b61010b610283565b6040516101189190610747565b60405180910390f35b61013b6004803603810190610136919061070b565b6102a9565b6040516101489190610781565b60405180910390f35b61016b6004803603810190610166919061070b565b6102cc565b6040516101789190610781565b60405180910390f35b6101896102ef565b60405161019691906106c4565b60405180910390f35b6101a76102f5565b6040516101b49190610747565b60405180910390f35b6101d760048036038101906101d2919061070b565b61031b565b6040516101ea97969594939291906109fa565b60405180910390f35b61020d60048036038101906102089190610a6c565b6105c5565b60405161021a91906106c4565b60405180910390f35b61023d60048036038101906102389190610aac565b6105f6565b60405161024a91906106c4565b60405180910390f35b60056020528060005260406000206000915090505481565b60036020528060005260406000206000915090505481565b600a60009054906101000a900473ffffffffffffffffffffffffffffffffffffffff1681565b60076020528060005260406000206000915054906101000a900463ffffffff1681565b60086020528060005260406000206000915054906101000a900463ffffffff1681565b60015481565b600b60009054906101000a900473ffffffffffffffffffffffffffffffffffffffff1681565b60026020528060005260406000206000915090508060000160009054906101000a900473ffffffffffffffffffffffffffffffffffffffff16908060010160009054906101000a900473ffffffffffffffffffffffffffffffffffffffff16908060020160009054906101000a900473ffffffffffffffffffffffffffffffffffffffff169080600301549080600401604051806101000160405290816000820160009054906101000a900473ffffffffffffffffffffffffffffffffffffffff1673ffffffffffffffffffffffffffffffffffffffff1673ffffffffffffffffffffffffffffffffffffffff16815260200160018201548152602001600282016040518060400160405290816000820154815260200160018201548152505081526020016004820160009054906101000a900463ffffffff1663ffffffff1663ffffffff1681526020016004820160049054906101000a900463ffffffff1663ffffffff1663ffffffff1681526020016004820160089054906101000a900463ffffffff1663ffffffff1663ffffffff16815260200160048201600c9054906101000a900463ffffffff1663ffffffff1663ffffffff1681526020016004820160109054906101000a900461ffff1661ffff1661ffff168152505090806009016040518060c001604052908160008201548152602001600182015481526020016002820160009054906101000a900463ffffffff1663ffffffff1663ffffffff1681526020016002820160049054906101000a900461ffff1661ffff1661ffff1681526020016002820160069054906101000a900463ffffffff1663ffffffff1663ffffffff16815260200160028201600a9054906101000a900463ffffffff1663ffffffff1663ffffffff16815250509080600c0160009054906101000a900460ff16905087565b600660205281600052604060002081815481106105e157600080fd5b90600052602060002001600091509150505481565b6009602052816000526040600020602052806000526040600020600091509150505481565b600080fd5b600073ffffffffffffffffffffffffffffffffffffffff82169050919050565b600061064b82610620565b9050919050565b61065b81610640565b811461066657600080fd5b50565b60008135905061067881610652565b92915050565b6000602082840312156106945761069361061b565b5b60006106a284828501610669565b91505092915050565b6000819050919050565b6106be816106ab565b82525050565b60006020820190506106d960008301846106b5565b92915050565b6106e8816106ab565b81146106f357600080fd5b50565b600081359050610705816106df565b92915050565b6000602082840312156107215761072061061b565b5b600061072f848285016106f6565b91505092915050565b61074181610640565b82525050565b600060208201905061075c6000830184610738565b92915050565b600063ffffffff82169050919050565b61077b81610762565b82525050565b60006020820190506107966000830184610772565b92915050565b6000819050919050565b60006107c16107bc6107b784610620565b61079c565b610620565b9050919050565b60006107d3826107a6565b9050919050565b60006107e5826107c8565b9050919050565b6107f5816107da565b82525050565b610804816106ab565b82525050565b60408201600082015161082060008501826107fb565b50602082015161083360208501826107fb565b50505050565b61084281610762565b82525050565b600061ffff82169050919050565b61085f81610848565b82525050565b6101208201600082015161087c60008501826107ec565b50602082015161088f60208501826107fb565b5060408201516108a2604085018261080a565b5060608201516108b56080850182610839565b5060808201516108c860a0850182610839565b5060a08201516108db60c0850182610839565b5060c08201516108ee60e0850182610839565b5060e0820151610902610100850182610856565b50505050565b60c08201600082015161091e60008501826107fb565b50602082015161093160208501826107fb565b5060408201516109446040850182610839565b5060608201516109576060850182610856565b50608082015161096a6080850182610839565b5060a082015161097d60a0850182610839565b50505050565b7f4e487b7100000000000000000000000000000000000000000000000000000000600052602160045260246000fd5b600481106109c3576109c2610983565b5b50565b60008190506109d4826109b2565b919050565b60006109e4826109c6565b9050919050565b6109f4816109d9565b82525050565b600061028082019050610a10600083018a610738565b610a1d6020830189610738565b610a2a6040830188610738565b610a3760608301876106b5565b610a446080830186610865565b610a526101a0830185610908565b610a606102608301846109eb565b98975050505050505050565b60008060408385031215610a8357610a8261061b565b5b6000610a9185828601610669565b9250506020610aa2858286016106f6565b9150509250929050565b60008060408385031215610ac357610ac261061b565b5b6000610ad185828601610669565b9250506020610ae285828601610669565b915050925092905056fea2646970667358221220242a4000ba1866aa5f7be12fb6361338f32c9a92ea8632920c78437551864e3d64736f6c634300080b0033",
  "immutableReferences": {},
  "source": "pragma solidity 0.8.11;\n// SPDX-License-Identifier: MIT\n\nimport \"@openzeppelin/contracts/token/ERC20/ERC20.sol\";\nimport \"@openzeppelin/contracts/utils/structs/EnumerableSet.sol\";\nimport \"@openzeppelin/contracts-upgradeable/proxy/utils/Initializable.sol\";\n\ncontract poolStorage is Initializable {\n    using EnumerableSet for EnumerableSet.UintSet;\n\n    //STORAGE START -------------------------------------------------------------------------------------------\n\n    // Current number of loans.\n    uint256 public loanId;\n\n    // Mapping of loanId to loan information.\n    mapping(uint256 => Loan) public loans;\n\n    //poolId => loanId => LoanState\n    mapping(uint256 => uint256) public poolLoans;\n\n    enum LoanState {\n        PENDING,\n        CANCELLED,\n        ACCEPTED,\n        PAID\n    }\n\n    /**\n     * @notice Deatils for payment.\n     * @param principal The principal amount involved.\n     * @param interest The interest amount involved.\n     */\n    struct Payment {\n        uint256 principal;\n        uint256 interest;\n    }\n\n    /**\n     * @notice Deatils for a loan.\n     * @param lendingToken The lending token involved.\n     * @param principal The principal amount being borrowed.\n     * @param totalRepaid The total funds repaid.\n     * @param timestamp The timestamp the loan was created.\n     * @param acceptedTimestamp The timestamp the loan was accepted.\n     * @param lastRepaidTimestamp The timestamp of the last repayment.\n     * @param loanDuration The duration of the loan.\n     * @param protocolFee The fee when creating a loan.\n     */\n    struct LoanDetails {\n        ERC20 lendingToken;\n        uint256 principal;\n        Payment totalRepaid;\n        uint32 timestamp;\n        uint32 acceptedTimestamp;\n        uint32 lastRepaidTimestamp;\n        uint32 loanDuration;\n        uint16 protocolFee;\n    }\n\n    /**\n     * @notice The payment terms.\n     * @param paymentCycleAmount The amount to be paid every cycle.\n     * @param monthlyCycleInterest The interest to be paid every cycle.\n     * @param paymentCycle The duration of a payment cycle.\n     * @param APR The interest rate involved in bps.\n     * @param installments The total installments for the loan repayment.\n     * @param installmentsPaid The installments paid.\n     */\n    struct Terms {\n        uint256 paymentCycleAmount;\n        uint256 monthlyCycleInterest;\n        uint32 paymentCycle;\n        uint16 APR;\n        uint32 installments;\n        uint32 installmentsPaid;\n    }\n\n    /**\n     * @notice The base loan struct.\n     * @param borrower The borrower of the loan.\n     * @param receiver The receiver of the loan funds.\n     * @param lender The lender of the loan funds.\n     * @param poolId The Id of the pool in which the loan was created.\n     * @param loanDetails The details of the loan.\n     * @param terms The terms of the loan.\n     * @param state The state of the loan.\n     */\n    struct Loan {\n        address borrower;\n        address receiver;\n        address lender;\n        uint256 poolId;\n        LoanDetails loanDetails;\n        Terms terms;\n        LoanState state;\n    }\n\n    // Mapping of borrowers to borrower requests.\n    mapping(address => EnumerableSet.UintSet) internal borrowerActiveLoans;\n\n    // Amount filled by all lenders.\n    // Asset address => Volume amount\n    mapping(address => uint256) public totalERC20Amount;\n\n    // Mapping of borrowers to borrower requests.\n    mapping(address => uint256[]) public borrowerLoans;\n    mapping(uint256 => uint32) public loanDefaultDuration;\n    mapping(uint256 => uint32) public loanExpirationDuration;\n\n    // Mapping of amount filled by lenders.\n    // Asset address => Lender address => Lend amount\n    mapping(address => mapping(address => uint256)) public lenderLendAmount;\n\n    address public poolRegistryAddress;\n    address public AconomyFeeAddress;\n\n    //STORAGE END -----------------------------------------------------------------------------------------\n}\n",
  "sourcePath": "/media/dell/17f09f70-0626-4927-a787-2813ab7ed2c0/dell/Pandora/pooolAddress Pandora Git/aconomy-contract/contracts/poolStorage.sol",
  "compiler": {
    "name": "solc",
    "version": "0.8.11+commit.d7f03943.Emscripten.clang"
  },
  "schemaVersion": "3.4.10",
  "updatedAt": "2023-09-20T09:26:37.823Z",
  "devdoc": {
    "kind": "dev",
    "methods": {},
    "version": 1
  },
  "userdoc": {
    "kind": "user",
    "methods": {},
    "version": 1
  }
}