{
  "contractName": "poolRegistry",
  "abi": [
    {
      "inputs": [
        {
          "internalType": "contract AttestationServices",
          "name": "_attestationServices",
          "type": "address"
        },
        {
          "internalType": "address",
          "name": "_AconomyFeeAddress",
          "type": "address"
        },
        {
          "internalType": "address",
          "name": "_accountStatus",
          "type": "address"
        }
      ],
      "stateMutability": "nonpayable",
      "type": "constructor"
    },
    {
      "anonymous": false,
      "inputs": [
        {
          "indexed": false,
          "internalType": "uint256",
          "name": "poolId",
          "type": "uint256"
        },
        {
          "indexed": false,
          "internalType": "address",
          "name": "borrower",
          "type": "address"
        }
      ],
      "name": "BorrowerAttestation",
      "type": "event"
    },
    {
      "anonymous": false,
      "inputs": [
        {
          "indexed": false,
          "internalType": "uint256",
          "name": "poolId",
          "type": "uint256"
        },
        {
          "indexed": false,
          "internalType": "address",
          "name": "lender",
          "type": "address"
        }
      ],
      "name": "LenderAttestation",
      "type": "event"
    },
    {
      "anonymous": false,
      "inputs": [
        {
          "indexed": false,
          "internalType": "uint256",
          "name": "poolId",
          "type": "uint256"
        },
        {
          "indexed": false,
          "internalType": "uint32",
          "name": "duration",
          "type": "uint32"
        }
      ],
      "name": "SetPaymentCycleDuration",
      "type": "event"
    },
    {
      "anonymous": false,
      "inputs": [
        {
          "indexed": false,
          "internalType": "uint256",
          "name": "poolId",
          "type": "uint256"
        },
        {
          "indexed": false,
          "internalType": "uint32",
          "name": "duration",
          "type": "uint32"
        }
      ],
      "name": "SetPaymentDefaultDuration",
      "type": "event"
    },
    {
      "anonymous": false,
      "inputs": [
        {
          "indexed": false,
          "internalType": "uint256",
          "name": "poolId",
          "type": "uint256"
        },
        {
          "indexed": false,
          "internalType": "uint16",
          "name": "feePct",
          "type": "uint16"
        }
      ],
      "name": "SetPoolFee",
      "type": "event"
    },
    {
      "anonymous": false,
      "inputs": [
        {
          "indexed": false,
          "internalType": "uint256",
          "name": "poolId",
          "type": "uint256"
        },
        {
          "indexed": false,
          "internalType": "string",
          "name": "uri",
          "type": "string"
        }
      ],
      "name": "SetPoolURI",
      "type": "event"
    },
    {
      "anonymous": false,
      "inputs": [
        {
          "indexed": false,
          "internalType": "uint256",
          "name": "poolId",
          "type": "uint256"
        },
        {
          "indexed": false,
          "internalType": "uint32",
          "name": "duration",
          "type": "uint32"
        }
      ],
      "name": "SetloanExpirationTime",
      "type": "event"
    },
    {
      "anonymous": false,
      "inputs": [
        {
          "indexed": true,
          "internalType": "address",
          "name": "owner",
          "type": "address"
        },
        {
          "indexed": false,
          "internalType": "address",
          "name": "poolAddress",
          "type": "address"
        },
        {
          "indexed": false,
          "internalType": "uint256",
          "name": "poolId",
          "type": "uint256"
        }
      ],
      "name": "poolCreated",
      "type": "event"
    },
    {
      "inputs": [],
      "name": "attestationService",
      "outputs": [
        {
          "internalType": "contract AttestationServices",
          "name": "",
          "type": "address"
        }
      ],
      "stateMutability": "view",
      "type": "function",
      "constant": true
    },
    {
      "inputs": [],
      "name": "borrowerAttestationSchemaId",
      "outputs": [
        {
          "internalType": "bytes32",
          "name": "",
          "type": "bytes32"
        }
      ],
      "stateMutability": "view",
      "type": "function",
      "constant": true
    },
    {
      "inputs": [],
      "name": "lenderAttestationSchemaId",
      "outputs": [
        {
          "internalType": "bytes32",
          "name": "",
          "type": "bytes32"
        }
      ],
      "stateMutability": "view",
      "type": "function",
      "constant": true
    },
    {
      "inputs": [],
      "name": "poolCount",
      "outputs": [
        {
          "internalType": "uint256",
          "name": "",
          "type": "uint256"
        }
      ],
      "stateMutability": "view",
      "type": "function",
      "constant": true
    },
    {
      "inputs": [
        {
          "internalType": "string",
          "name": "_word",
          "type": "string"
        },
        {
          "internalType": "bytes32",
          "name": "ans",
          "type": "bytes32"
        }
      ],
      "name": "guess",
      "outputs": [
        {
          "internalType": "bool",
          "name": "",
          "type": "bool"
        }
      ],
      "stateMutability": "view",
      "type": "function",
      "constant": true
    },
    {
      "inputs": [
        {
          "internalType": "address",
          "name": "_initialOwner",
          "type": "address"
        },
        {
          "internalType": "uint32",
          "name": "_paymentCycleDuration",
          "type": "uint32"
        },
        {
          "internalType": "uint32",
          "name": "_paymentDefaultDuration",
          "type": "uint32"
        },
        {
          "internalType": "uint32",
          "name": "_loanExpirationTime",
          "type": "uint32"
        },
        {
          "internalType": "uint16",
          "name": "_poolFeePercent",
          "type": "uint16"
        },
        {
          "internalType": "bool",
          "name": "_requireLenderAttestation",
          "type": "bool"
        },
        {
          "internalType": "bool",
          "name": "_requireBorrowerAttestation",
          "type": "bool"
        },
        {
          "internalType": "string",
          "name": "_uri",
          "type": "string"
        }
      ],
      "name": "createPool",
      "outputs": [],
      "stateMutability": "nonpayable",
      "type": "function"
    },
    {
      "inputs": [
        {
          "internalType": "uint256",
          "name": "_poolId",
          "type": "uint256"
        },
        {
          "internalType": "string",
          "name": "_uri",
          "type": "string"
        }
      ],
      "name": "setPoolURI",
      "outputs": [],
      "stateMutability": "nonpayable",
      "type": "function"
    },
    {
      "inputs": [
        {
          "internalType": "uint256",
          "name": "_poolId",
          "type": "uint256"
        },
        {
          "internalType": "uint32",
          "name": "_duration",
          "type": "uint32"
        }
      ],
      "name": "setPaymentCycleDuration",
      "outputs": [],
      "stateMutability": "nonpayable",
      "type": "function"
    },
    {
      "inputs": [
        {
          "internalType": "uint256",
          "name": "_poolId",
          "type": "uint256"
        },
        {
          "internalType": "uint32",
          "name": "_duration",
          "type": "uint32"
        }
      ],
      "name": "setPaymentDefaultDuration",
      "outputs": [],
      "stateMutability": "nonpayable",
      "type": "function"
    },
    {
      "inputs": [
        {
          "internalType": "uint256",
          "name": "_poolId",
          "type": "uint256"
        },
        {
          "internalType": "uint16",
          "name": "_newPercent",
          "type": "uint16"
        }
      ],
      "name": "setPoolFeePercent",
      "outputs": [],
      "stateMutability": "nonpayable",
      "type": "function"
    },
    {
      "inputs": [
        {
          "internalType": "uint256",
          "name": "_poolId",
          "type": "uint256"
        },
        {
          "internalType": "uint32",
          "name": "_duration",
          "type": "uint32"
        }
      ],
      "name": "setloanExpirationTime",
      "outputs": [],
      "stateMutability": "nonpayable",
      "type": "function"
    },
    {
      "inputs": [
        {
          "internalType": "uint256",
          "name": "_poolId",
          "type": "uint256"
        },
        {
          "internalType": "address",
          "name": "_lenderAddress",
          "type": "address"
        },
        {
          "internalType": "uint256",
          "name": "_expirationTime",
          "type": "uint256"
        }
      ],
      "name": "addLender",
      "outputs": [],
      "stateMutability": "nonpayable",
      "type": "function"
    },
    {
      "inputs": [
        {
          "internalType": "uint256",
          "name": "_poolId",
          "type": "uint256"
        },
        {
          "internalType": "address",
          "name": "_borrowerAddress",
          "type": "address"
        },
        {
          "internalType": "uint256",
          "name": "_expirationTime",
          "type": "uint256"
        }
      ],
      "name": "addBorrower",
      "outputs": [],
      "stateMutability": "nonpayable",
      "type": "function"
    },
    {
      "inputs": [
        {
          "internalType": "uint256",
          "name": "_poolId",
          "type": "uint256"
        }
      ],
      "name": "getPoolFee",
      "outputs": [
        {
          "internalType": "uint16",
          "name": "fee",
          "type": "uint16"
        }
      ],
      "stateMutability": "view",
      "type": "function",
      "constant": true
    },
    {
      "inputs": [
        {
          "internalType": "uint256",
          "name": "_poolId",
          "type": "uint256"
        },
        {
          "internalType": "address",
          "name": "_borrowerAddress",
          "type": "address"
        }
      ],
      "name": "borrowerVarification",
      "outputs": [
        {
          "internalType": "bool",
          "name": "isVerified_",
          "type": "bool"
        },
        {
          "internalType": "bytes32",
          "name": "uuid_",
          "type": "bytes32"
        }
      ],
      "stateMutability": "view",
      "type": "function",
      "constant": true
    },
    {
      "inputs": [
        {
          "internalType": "uint256",
          "name": "_poolId",
          "type": "uint256"
        },
        {
          "internalType": "address",
          "name": "_lenderAddress",
          "type": "address"
        }
      ],
      "name": "lenderVarification",
      "outputs": [
        {
          "internalType": "bool",
          "name": "isVerified_",
          "type": "bool"
        },
        {
          "internalType": "bytes32",
          "name": "uuid_",
          "type": "bytes32"
        }
      ],
      "stateMutability": "view",
      "type": "function",
      "constant": true
    },
    {
      "inputs": [
        {
          "internalType": "uint256",
          "name": "_poolId",
          "type": "uint256"
        }
      ],
      "name": "ClosedPool",
      "outputs": [
        {
          "internalType": "bool",
          "name": "",
          "type": "bool"
        }
      ],
      "stateMutability": "view",
      "type": "function",
      "constant": true
    },
    {
      "inputs": [
        {
          "internalType": "uint256",
          "name": "_poolId",
          "type": "uint256"
        }
      ],
      "name": "getPaymentCycleDuration",
      "outputs": [
        {
          "internalType": "uint32",
          "name": "",
          "type": "uint32"
        }
      ],
      "stateMutability": "view",
      "type": "function",
      "constant": true
    },
    {
      "inputs": [
        {
          "internalType": "uint256",
          "name": "_poolId",
          "type": "uint256"
        }
      ],
      "name": "getPaymentDefaultDuration",
      "outputs": [
        {
          "internalType": "uint32",
          "name": "",
          "type": "uint32"
        }
      ],
      "stateMutability": "view",
      "type": "function",
      "constant": true
    },
    {
      "inputs": [
        {
          "internalType": "uint256",
          "name": "poolId",
          "type": "uint256"
        }
      ],
      "name": "getloanExpirationTime",
      "outputs": [
        {
          "internalType": "uint32",
          "name": "",
          "type": "uint32"
        }
      ],
      "stateMutability": "view",
      "type": "function",
      "constant": true
    },
    {
      "inputs": [
        {
          "internalType": "uint256",
          "name": "_poolId",
          "type": "uint256"
        }
      ],
      "name": "getPoolAddress",
      "outputs": [
        {
          "internalType": "address",
          "name": "",
          "type": "address"
        }
      ],
      "stateMutability": "view",
      "type": "function",
      "constant": true
    },
    {
      "inputs": [
        {
          "internalType": "uint256",
          "name": "_poolId",
          "type": "uint256"
        }
      ],
      "name": "getPoolOwner",
      "outputs": [
        {
          "internalType": "address",
          "name": "",
          "type": "address"
        }
      ],
      "stateMutability": "view",
      "type": "function",
      "constant": true
    }
  ],
  "bytecode": "0x60806040523480156200001157600080fd5b5060405162002d3d38038062002d3d83398181016040528101906200003791906200039d565b82600260006101000a81548173ffffffffffffffffffffffffffffffffffffffff021916908373ffffffffffffffffffffffffffffffffffffffff160217905550816000806101000a81548173ffffffffffffffffffffffffffffffffffffffff021916908373ffffffffffffffffffffffffffffffffffffffff16021790555080600160006101000a81548173ffffffffffffffffffffffffffffffffffffffff021916908373ffffffffffffffffffffffffffffffffffffffff1602179055508273ffffffffffffffffffffffffffffffffffffffff166381fa6cd36040518163ffffffff1660e01b8152600401602060405180830381865afa15801562000145573d6000803e3d6000fd5b505050506040513d601f19601f820116820180604052508101906200016b91906200043e565b73ffffffffffffffffffffffffffffffffffffffff166382fbdc9c6040518163ffffffff1660e01b8152600401620001a390620004f7565b6020604051808303816000875af1158015620001c3573d6000803e3d6000fd5b505050506040513d601f19601f82011682018060405250810190620001e9919062000554565b6003819055508273ffffffffffffffffffffffffffffffffffffffff166381fa6cd36040518163ffffffff1660e01b8152600401602060405180830381865afa1580156200023b573d6000803e3d6000fd5b505050506040513d601f19601f820116820180604052508101906200026191906200043e565b73ffffffffffffffffffffffffffffffffffffffff166382fbdc9c6040518163ffffffff1660e01b81526004016200029990620005fc565b6020604051808303816000875af1158015620002b9573d6000803e3d6000fd5b505050506040513d601f19601f82011682018060405250810190620002df919062000554565b6004819055505050506200061e565b600080fd5b600073ffffffffffffffffffffffffffffffffffffffff82169050919050565b60006200032082620002f3565b9050919050565b6000620003348262000313565b9050919050565b620003468162000327565b81146200035257600080fd5b50565b60008151905062000366816200033b565b92915050565b620003778162000313565b81146200038357600080fd5b50565b60008151905062000397816200036c565b92915050565b600080600060608486031215620003b957620003b8620002ee565b5b6000620003c98682870162000355565b9350506020620003dc8682870162000386565b9250506040620003ef8682870162000386565b9150509250925092565b6000620004068262000313565b9050919050565b6200041881620003f9565b81146200042457600080fd5b50565b60008151905062000438816200040d565b92915050565b600060208284031215620004575762000456620002ee565b5b6000620004678482850162000427565b91505092915050565b600082825260208201905092915050565b7f2875696e7432353620706f6f6c49642c2061646472657373206c656e6465724160008201527f6464726573732900000000000000000000000000000000000000000000000000602082015250565b6000620004df60278362000470565b9150620004ec8262000481565b604082019050919050565b600060208201905081810360008301526200051281620004d0565b9050919050565b6000819050919050565b6200052e8162000519565b81146200053a57600080fd5b50565b6000815190506200054e8162000523565b92915050565b6000602082840312156200056d576200056c620002ee565b5b60006200057d848285016200053d565b91505092915050565b7f2875696e7432353620706f6f6c49642c206164647265737320626f72726f776560008201527f7241646472657373290000000000000000000000000000000000000000000000602082015250565b6000620005e460298362000470565b9150620005f18262000586565b604082019050919050565b600060208201905081810360008301526200061781620005d5565b9050919050565b61270f806200062e6000396000f3fe608060405234801561001057600080fd5b50600436106101415760003560e01c8063918d59ea116100b8578063d404b9571161007c578063d404b957146103d6578063e18bdb83146103f2578063ecd6ce6e1461040e578063f2e734ba1461042a578063f525cb6814610446578063f8795c031461046457610141565b8063918d59ea146102f8578063a8380df114610329578063c28ba8eb14610359578063c381ff3e14610389578063cf653920146103a557610141565b80633c0db7881161010a5780633c0db78814610210578063519b20721461022e578063635f1e4d1461024a578063679700d91461027a5780636e34b4e414610298578063805deb53146102c857610141565b8062a5ae211461014657806311bed5bb146101765780631a5d3a2a146101a65780632cd04700146101d65780632f1be8f9146101f4575b600080fd5b610160600480360381019061015b91906117cc565b610480565b60405161016d919061183a565b60405180910390f35b610190600480360381019061018b91906117cc565b6104c0565b60405161019d9190611874565b60405180910390f35b6101c060048036038101906101bb9190611a0b565b6104f0565b6040516101cd9190611a82565b60405180910390f35b6101de610523565b6040516101eb9190611afc565b60405180910390f35b61020e60048036038101906102099190611b43565b610549565b005b61021861069b565b6040516102259190611b92565b60405180910390f35b61024860048036038101906102439190611c9f565b6106a1565b005b610264600480360381019061025f91906117cc565b6106be565b6040516102719190611d84565b60405180910390f35b6102826106ec565b60405161028f9190611b92565b60405180910390f35b6102b260048036038101906102ad91906117cc565b6106f2565b6040516102bf919061183a565b60405180910390f35b6102e260048036038101906102dd91906117cc565b610732565b6040516102ef9190611874565b60405180910390f35b610312600480360381019061030d9190611d9f565b610762565b604051610320929190611ddf565b60405180910390f35b610343600480360381019061033e91906117cc565b6107c9565b6040516103509190611a82565b60405180910390f35b610373600480360381019061036e91906117cc565b6107f3565b6040516103809190611874565b60405180910390f35b6103a3600480360381019061039e9190611e08565b610823565b005b6103bf60048036038101906103ba9190611d9f565b610835565b6040516103cd929190611ddf565b60405180910390f35b6103f060048036038101906103eb9190611e5b565b61089c565b005b61040c60048036038101906104079190611b43565b610a13565b005b61042860048036038101906104239190611b43565b610b65565b005b610444600480360381019061043f9190611e08565b610cb7565b005b61044e610cc9565b60405161045b9190611eca565b60405180910390f35b61047e60048036038101906104799190611ee5565b610ccf565b005b60006006600083815260200190815260200160002060000160009054906101000a900473ffffffffffffffffffffffffffffffffffffffff169050919050565b60006006600083815260200190815260200160002060070160049054906101000a900463ffffffff169050919050565b600081836040516020016105049190611f9f565b6040516020818303038152906040528051906020012014905092915050565b600260009054906101000a900473ffffffffffffffffffffffffffffffffffffffff1681565b813373ffffffffffffffffffffffffffffffffffffffff166006600083815260200190815260200160002060010160009054906101000a900473ffffffffffffffffffffffffffffffffffffffff1673ffffffffffffffffffffffffffffffffffffffff16146105ee576040517f08c379a00000000000000000000000000000000000000000000000000000000081526004016105e590612013565b60405180910390fd5b6006600084815260200190815260200160002060070160049054906101000a900463ffffffff1663ffffffff168263ffffffff161461069657816006600085815260200190815260200160002060070160046101000a81548163ffffffff021916908363ffffffff1602179055507f3e49e2efeacab7e8344acd4e7940449bf62039aa3734c34fa6d3525654be8101838360405161068d929190612033565b60405180910390a15b505050565b60035481565b6106b2898989898989898989610e71565b50505050505050505050565b60006006600083815260200190815260200160002060030160009054906101000a900461ffff169050919050565b60045481565b60006006600083815260200190815260200160002060010160009054906101000a900473ffffffffffffffffffffffffffffffffffffffff169050919050565b60006006600083815260200190815260200160002060070160009054906101000a900463ffffffff169050919050565b6000806107be8360066000878152602001908152602001600020600701600c9054906101000a900460ff1660066000888152602001908152602001600020600a016006600089815260200190815260200160002060080161116a565b915091509250929050565b60006007600083815260200190815260200160002060009054906101000a900460ff169050919050565b60006006600083815260200190815260200160002060070160089054906101000a900463ffffffff169050919050565b61083083838360006112be565b505050565b600080610891836006600087815260200190815260200160002060030160029054906101000a900460ff16600660008881526020019081526020016000206006016006600089815260200190815260200160002060040161116a565b915091509250929050565b823373ffffffffffffffffffffffffffffffffffffffff166006600083815260200190815260200160002060010160009054906101000a900473ffffffffffffffffffffffffffffffffffffffff1673ffffffffffffffffffffffffffffffffffffffff1614610941576040517f08c379a000000000000000000000000000000000000000000000000000000000815260040161093890612013565b60405180910390fd5b600660008581526020019081526020016000206002016040516020016109679190612151565b60405160208183030381529060405280519060200120838360405160200161099092919061218d565b6040516020818303038152906040528051906020012014610a0d5782826006600087815260200190815260200160002060020191906109d09291906116df565b507faea0b816063c817d82c498925319d9f08eb53332cf08ca227ea12c38a5714624848484604051610a04939291906121d3565b60405180910390a15b50505050565b813373ffffffffffffffffffffffffffffffffffffffff166006600083815260200190815260200160002060010160009054906101000a900473ffffffffffffffffffffffffffffffffffffffff1673ffffffffffffffffffffffffffffffffffffffff1614610ab8576040517f08c379a0000000000000000000000000000000000000000000000000000000008152600401610aaf90612013565b60405180910390fd5b6006600084815260200190815260200160002060070160089054906101000a900463ffffffff1663ffffffff168263ffffffff1614610b6057816006600085815260200190815260200160002060070160086101000a81548163ffffffff021916908363ffffffff1602179055507f8f28307b0f89abbef9b86fdb13ddc77894d04547390687daf215b2f1f63a0baa8383604051610b57929190612033565b60405180910390a15b505050565b813373ffffffffffffffffffffffffffffffffffffffff166006600083815260200190815260200160002060010160009054906101000a900473ffffffffffffffffffffffffffffffffffffffff1673ffffffffffffffffffffffffffffffffffffffff1614610c0a576040517f08c379a0000000000000000000000000000000000000000000000000000000008152600401610c0190612013565b60405180910390fd5b6006600084815260200190815260200160002060070160009054906101000a900463ffffffff1663ffffffff168263ffffffff1614610cb257816006600085815260200190815260200160002060070160006101000a81548163ffffffff021916908363ffffffff1602179055507fa04499c227e7a6de804e5a57e4b38990792373bd8d73b6c13ab76e40600748438383604051610ca9929190612033565b60405180910390a15b505050565b610cc483838360016112be565b505050565b60085481565b813373ffffffffffffffffffffffffffffffffffffffff166006600083815260200190815260200160002060010160009054906101000a900473ffffffffffffffffffffffffffffffffffffffff1673ffffffffffffffffffffffffffffffffffffffff1614610d74576040517f08c379a0000000000000000000000000000000000000000000000000000000008152600401610d6b90612013565b60405180910390fd5b60008261ffff1610158015610d8f57506127108261ffff1611155b610dce576040517f08c379a0000000000000000000000000000000000000000000000000000000008152600401610dc590612251565b60405180910390fd5b6006600084815260200190815260200160002060030160009054906101000a900461ffff1661ffff168261ffff1614610e6c57816006600085815260200190815260200160002060030160006101000a81548161ffff021916908361ffff1602179055507f24a1eddd3a54f274769832c6e6e16de4e3298679bac8b22e22820be8ef635b598383604051610e63929190612271565b60405180910390a15b505050565b60008073ffffffffffffffffffffffffffffffffffffffff168a73ffffffffffffffffffffffffffffffffffffffff161415610ee2576040517f08c379a0000000000000000000000000000000000000000000000000000000008152600401610ed9906122e6565b60405180910390fd5b600860008154610ef190612335565b9190508190559050600073__LibPool_______________________________6382d7b245333060008054906101000a900473ffffffffffffffffffffffffffffffffffffffff16600160009054906101000a900473ffffffffffffffffffffffffffffffffffffffff168f8f8e6040518863ffffffff1660e01b8152600401610f8097969594939291906123ef565b602060405180830381865af4158015610f9d573d6000803e3d6000fd5b505050506040513d601f19601f82011682018060405250810190610fc19190612473565b9050806006600084815260200190815260200160002060000160006101000a81548173ffffffffffffffffffffffffffffffffffffffff021916908373ffffffffffffffffffffffffffffffffffffffff1602179055508a6006600084815260200190815260200160002060010160006101000a81548173ffffffffffffffffffffffffffffffffffffffff021916908373ffffffffffffffffffffffffffffffffffffffff16021790555061107882858561089c565b611082828b610b65565b61108c828a610549565b6110968288610ccf565b6110a08289610a13565b85156110d65760016006600084815260200190815260200160002060030160026101000a81548160ff0219169083151502179055505b841561110c57600160066000848152602001908152602001600020600701600c6101000a81548160ff0219169083151502179055505b8a73ffffffffffffffffffffffffffffffffffffffff167f407eac4ec3d5da6bb83c52c3817e2b7e46268bb1e945cc2494b7c01e06d2beae82846040516111549291906124a0565b60405180910390a2509998505050505050505050565b60008084156112b057611186868461146690919063ffffffff16565b80156112685750600260009054906101000a900473ffffffffffffffffffffffffffffffffffffffff1673ffffffffffffffffffffffffffffffffffffffff1663e56d679b8560008973ffffffffffffffffffffffffffffffffffffffff1673ffffffffffffffffffffffffffffffffffffffff168152602001908152602001600020546040518263ffffffff1660e01b81526004016112269190611b92565b602060405180830381865afa158015611243573d6000803e3d6000fd5b505050506040513d601f19601f8201168201806040525081019061126791906124de565b5b91508360008773ffffffffffffffffffffffffffffffffffffffff1673ffffffffffffffffffffffffffffffffffffffff1681526020019081526020016000205490506112b5565b600191505b94509492505050565b806112cb576004546112cf565b6003545b806005819055506006600086815260200190815260200160002060010160009054906101000a900473ffffffffffffffffffffffffffffffffffffffff1673ffffffffffffffffffffffffffffffffffffffff163373ffffffffffffffffffffffffffffffffffffffff161461137a576040517f08c379a000000000000000000000000000000000000000000000000000000000815260040161137190612557565b60405180910390fd5b6000600260009054906101000a900473ffffffffffffffffffffffffffffffffffffffff1673ffffffffffffffffffffffffffffffffffffffff166309a954cd866005548760008b8b6040516020016113d4929190612577565b6040516020818303038152906040526040518663ffffffff1660e01b815260040161140395949392919061263d565b6020604051808303816000875af1158015611422573d6000803e3d6000fd5b505050506040513d601f19601f8201168201806040525081019061144691906126ac565b905061145486868386611496565b506000801b6005819055505050505050565b600061148e836000018373ffffffffffffffffffffffffffffffffffffffff1660001b61161c565b905092915050565b801561155b57816006600086815260200190815260200160002060060160008573ffffffffffffffffffffffffffffffffffffffff1673ffffffffffffffffffffffffffffffffffffffff1681526020019081526020016000208190555061151c836006600087815260200190815260200160002060040161163f90919063ffffffff16565b507f75675690de0899b0b869d83b44b2d926ac594426b2a0286c478ecdf815cbd33e848460405161154e929190612577565b60405180910390a1611616565b8160066000868152602001908152602001600020600a0160008573ffffffffffffffffffffffffffffffffffffffff1673ffffffffffffffffffffffffffffffffffffffff168152602001908152602001600020819055506115db836006600087815260200190815260200160002060080161163f90919063ffffffff16565b507f0c2cfc7e7a16ebee66e77fb314f4bfdb5505e33e77d41c0c60604efc70fd926b848460405161160d929190612577565b60405180910390a15b50505050565b600080836001016000848152602001908152602001600020541415905092915050565b6000611667836000018373ffffffffffffffffffffffffffffffffffffffff1660001b61166f565b905092915050565b600061167b838361161c565b6116d45782600001829080600181540180825580915050600190039060005260206000200160009091909190915055826000018054905083600101600084815260200190815260200160002081905550600190506116d9565b600090505b92915050565b8280546116eb9061208b565b90600052602060002090601f01602090048101928261170d5760008555611754565b82601f1061172657803560ff1916838001178555611754565b82800160010185558215611754579182015b82811115611753578235825591602001919060010190611738565b5b5090506117619190611765565b5090565b5b8082111561177e576000816000905550600101611766565b5090565b6000604051905090565b600080fd5b600080fd5b6000819050919050565b6117a981611796565b81146117b457600080fd5b50565b6000813590506117c6816117a0565b92915050565b6000602082840312156117e2576117e161178c565b5b60006117f0848285016117b7565b91505092915050565b600073ffffffffffffffffffffffffffffffffffffffff82169050919050565b6000611824826117f9565b9050919050565b61183481611819565b82525050565b600060208201905061184f600083018461182b565b92915050565b600063ffffffff82169050919050565b61186e81611855565b82525050565b60006020820190506118896000830184611865565b92915050565b600080fd5b600080fd5b6000601f19601f8301169050919050565b7f4e487b7100000000000000000000000000000000000000000000000000000000600052604160045260246000fd5b6118e282611899565b810181811067ffffffffffffffff82111715611901576119006118aa565b5b80604052505050565b6000611914611782565b905061192082826118d9565b919050565b600067ffffffffffffffff8211156119405761193f6118aa565b5b61194982611899565b9050602081019050919050565b82818337600083830152505050565b600061197861197384611925565b61190a565b90508281526020810184848401111561199457611993611894565b5b61199f848285611956565b509392505050565b600082601f8301126119bc576119bb61188f565b5b81356119cc848260208601611965565b91505092915050565b6000819050919050565b6119e8816119d5565b81146119f357600080fd5b50565b600081359050611a05816119df565b92915050565b60008060408385031215611a2257611a2161178c565b5b600083013567ffffffffffffffff811115611a4057611a3f611791565b5b611a4c858286016119a7565b9250506020611a5d858286016119f6565b9150509250929050565b60008115159050919050565b611a7c81611a67565b82525050565b6000602082019050611a976000830184611a73565b92915050565b6000819050919050565b6000611ac2611abd611ab8846117f9565b611a9d565b6117f9565b9050919050565b6000611ad482611aa7565b9050919050565b6000611ae682611ac9565b9050919050565b611af681611adb565b82525050565b6000602082019050611b116000830184611aed565b92915050565b611b2081611855565b8114611b2b57600080fd5b50565b600081359050611b3d81611b17565b92915050565b60008060408385031215611b5a57611b5961178c565b5b6000611b68858286016117b7565b9250506020611b7985828601611b2e565b9150509250929050565b611b8c816119d5565b82525050565b6000602082019050611ba76000830184611b83565b92915050565b611bb681611819565b8114611bc157600080fd5b50565b600081359050611bd381611bad565b92915050565b600061ffff82169050919050565b611bf081611bd9565b8114611bfb57600080fd5b50565b600081359050611c0d81611be7565b92915050565b611c1c81611a67565b8114611c2757600080fd5b50565b600081359050611c3981611c13565b92915050565b600080fd5b600080fd5b60008083601f840112611c5f57611c5e61188f565b5b8235905067ffffffffffffffff811115611c7c57611c7b611c3f565b5b602083019150836001820283011115611c9857611c97611c44565b5b9250929050565b60008060008060008060008060006101008a8c031215611cc257611cc161178c565b5b6000611cd08c828d01611bc4565b9950506020611ce18c828d01611b2e565b9850506040611cf28c828d01611b2e565b9750506060611d038c828d01611b2e565b9650506080611d148c828d01611bfe565b95505060a0611d258c828d01611c2a565b94505060c0611d368c828d01611c2a565b93505060e08a013567ffffffffffffffff811115611d5757611d56611791565b5b611d638c828d01611c49565b92509250509295985092959850929598565b611d7e81611bd9565b82525050565b6000602082019050611d996000830184611d75565b92915050565b60008060408385031215611db657611db561178c565b5b6000611dc4858286016117b7565b9250506020611dd585828601611bc4565b9150509250929050565b6000604082019050611df46000830185611a73565b611e016020830184611b83565b9392505050565b600080600060608486031215611e2157611e2061178c565b5b6000611e2f868287016117b7565b9350506020611e4086828701611bc4565b9250506040611e51868287016117b7565b9150509250925092565b600080600060408486031215611e7457611e7361178c565b5b6000611e82868287016117b7565b935050602084013567ffffffffffffffff811115611ea357611ea2611791565b5b611eaf86828701611c49565b92509250509250925092565b611ec481611796565b82525050565b6000602082019050611edf6000830184611ebb565b92915050565b60008060408385031215611efc57611efb61178c565b5b6000611f0a858286016117b7565b9250506020611f1b85828601611bfe565b9150509250929050565b600081519050919050565b600081905092915050565b60005b83811015611f59578082015181840152602081019050611f3e565b83811115611f68576000848401525b50505050565b6000611f7982611f25565b611f838185611f30565b9350611f93818560208601611f3b565b80840191505092915050565b6000611fab8284611f6e565b915081905092915050565b600082825260208201905092915050565b7f4e6f7420746865206f776e657200000000000000000000000000000000000000600082015250565b6000611ffd600d83611fb6565b915061200882611fc7565b602082019050919050565b6000602082019050818103600083015261202c81611ff0565b9050919050565b60006040820190506120486000830185611ebb565b6120556020830184611865565b9392505050565b7f4e487b7100000000000000000000000000000000000000000000000000000000600052602260045260246000fd5b600060028204905060018216806120a357607f821691505b602082108114156120b7576120b661205c565b5b50919050565b60008190508160005260206000209050919050565b600081546120df8161208b565b6120e98186611f30565b94506001821660008114612104576001811461211557612148565b60ff19831686528186019350612148565b61211e856120bd565b60005b8381101561214057815481890152600182019150602081019050612121565b838801955050505b50505092915050565b600061215d82846120d2565b915081905092915050565b60006121748385611f30565b9350612181838584611956565b82840190509392505050565b600061219a828486612168565b91508190509392505050565b60006121b28385611fb6565b93506121bf838584611956565b6121c883611899565b840190509392505050565b60006040820190506121e86000830186611ebb565b81810360208301526121fb8184866121a6565b9050949350505050565b7f696e76616c69642070657263656e740000000000000000000000000000000000600082015250565b600061223b600f83611fb6565b915061224682612205565b602082019050919050565b6000602082019050818103600083015261226a8161222e565b9050919050565b60006040820190506122866000830185611ebb565b6122936020830184611d75565b9392505050565b7f496e76616c6964206f776e657220616464726573730000000000000000000000600082015250565b60006122d0601583611fb6565b91506122db8261229a565b602082019050919050565b600060208201905081810360008301526122ff816122c3565b9050919050565b7f4e487b7100000000000000000000000000000000000000000000000000000000600052601160045260246000fd5b600061234082611796565b91507fffffffffffffffffffffffffffffffffffffffffffffffffffffffffffffffff82141561237357612372612306565b5b600182019050919050565b61238781611819565b82525050565b60006123a86123a361239e84611855565b611a9d565b611796565b9050919050565b6123b88161238d565b82525050565b60006123d96123d46123cf84611bd9565b611a9d565b611796565b9050919050565b6123e9816123be565b82525050565b600060e082019050612404600083018a61237e565b612411602083018961237e565b61241e604083018861237e565b61242b606083018761237e565b61243860808301866123af565b61244560a08301856123af565b61245260c08301846123e0565b98975050505050505050565b60008151905061246d81611bad565b92915050565b6000602082840312156124895761248861178c565b5b60006124978482850161245e565b91505092915050565b60006040820190506124b5600083018561182b565b6124c26020830184611ebb565b9392505050565b6000815190506124d881611c13565b92915050565b6000602082840312156124f4576124f361178c565b5b6000612502848285016124c9565b91505092915050565b7f4e6f742074686520706f6f6c206f776e65720000000000000000000000000000600082015250565b6000612541601283611fb6565b915061254c8261250b565b602082019050919050565b6000602082019050818103600083015261257081612534565b9050919050565b600060408201905061258c6000830185611ebb565b612599602083018461182b565b9392505050565b6000819050919050565b60008160001b9050919050565b60006125d26125cd6125c8846125a0565b6125aa565b6119d5565b9050919050565b6125e2816125b7565b82525050565b600081519050919050565b600082825260208201905092915050565b600061260f826125e8565b61261981856125f3565b9350612629818560208601611f3b565b61263281611899565b840191505092915050565b600060a082019050612652600083018861182b565b61265f6020830187611b83565b61266c6040830186611ebb565b61267960608301856125d9565b818103608083015261268b8184612604565b90509695505050505050565b6000815190506126a6816119df565b92915050565b6000602082840312156126c2576126c161178c565b5b60006126d084828501612697565b9150509291505056fea264697066735822122047170e56efc04f19927c0d72482f8c03c1cd7bc048bcb5b777e5f28593f303c764736f6c634300080b0033",
  "immutableReferences": {},
  "source": "// SPDX-License-Identifier: MIT\npragma solidity >=0.4.22 <0.9.0;\n\nimport \"@openzeppelin/contracts/utils/Counters.sol\";\nimport \"./AconomyFee.sol\";\nimport \"./Libraries/LibPool.sol\";\nimport \"./AttestationServices.sol\";\n// 0xE798Ae7D315A56Cd695f74614292866324431F51   0xcD6a42782d230D7c13A74ddec5dD140e55499Df9\n// poolAddress\": \"0x3Dc21D5a4a63A46e7FBE2A6b49eaf085Ca3D5582\" 0x6F54c9C0ea3785192deE6E93EC7540bd09001D51\n// AS=0x7EF2e0048f5bAeDe046f6BF797943daF4ED8CB47\n// AF=0xd9145CCE52D386f254917e481eB44e9943F39138\n// AStts=0xf8e81D47203A594245E36C48e151709F0C19fBe8\n// a1=0x5B38Da6a701c568545dCfcB03FcB875f56beddC4\n// a2=0xAb8483F64d9C6d1EcF9b849Ae677dD3315835cb2\nimport {EnumerableSet} from \"@openzeppelin/contracts/utils/structs/EnumerableSet.sol\";\n\ncontract poolRegistry {\n    using Counters for Counters.Counter;\n    using EnumerableSet for EnumerableSet.AddressSet;\n\n    modifier ownsPool(uint256 _poolId) {\n        require(pools[_poolId].owner == msg.sender, \"Not the owner\");\n        _;\n    }\n\n    address AconomyFeeAddress;\n    address accountStatusAddress;\n    AttestationServices public attestationService;\n    bytes32 public lenderAttestationSchemaId;\n    bytes32 public borrowerAttestationSchemaId;\n    bytes32 private _attestingSchemaId;\n\n    constructor(\n        AttestationServices _attestationServices,\n        address _AconomyFeeAddress,\n        address _accountStatus\n    ) {\n        attestationService = _attestationServices;\n        AconomyFeeAddress = _AconomyFeeAddress;\n        accountStatusAddress = _accountStatus;\n\n        lenderAttestationSchemaId = _attestationServices\n            .getASRegistry()\n            .register(\"(uint256 poolId, address lenderAddress)\");\n        borrowerAttestationSchemaId = _attestationServices\n            .getASRegistry()\n            .register(\"(uint256 poolId, address borrowerAddress)\");\n    }\n\n    modifier lenderOrBorrowerSchema(bytes32 schemaId) {\n        _attestingSchemaId = schemaId;\n        _;\n        _attestingSchemaId = bytes32(0);\n    }\n\n    function guess(string memory _word, bytes32 ans)\n        public\n        view\n        returns (bool)\n    {\n        return keccak256(abi.encodePacked(_word)) == ans;\n    }\n\n    struct poolDetail {\n        address poolAddress;\n        address owner;\n        string metadataURI;\n        uint16 poolFeePercent; // 10000 is 100%\n        bool lenderAttestationRequired;\n        EnumerableSet.AddressSet verifiedLendersForPool;\n        mapping(address => bytes32) lenderAttestationIds;\n        uint32 paymentCycleDuration; //unix time\n        uint32 paymentDefaultDuration; //unix time\n        uint32 loanExpirationTime; //unix time\n        bool borrowerAttestationRequired;\n        EnumerableSet.AddressSet verifiedBorrowersForPool;\n        mapping(address => bytes32) borrowerAttestationIds;\n    }\n\n    //poolId => poolDetail\n    mapping(uint256 => poolDetail) internal pools;\n    //poolId => close or open\n    mapping(uint256 => bool) private ClosedPools;\n\n    uint256 public poolCount;\n    event poolCreated(\n        address indexed owner,\n        address poolAddress,\n        uint256 poolId\n    );\n    event SetPoolURI(uint256 poolId, string uri);\n    event SetPaymentCycleDuration(uint256 poolId, uint32 duration);\n    event SetPaymentDefaultDuration(uint256 poolId, uint32 duration);\n    event SetPoolFee(uint256 poolId, uint16 feePct);\n    event SetloanExpirationTime(uint256 poolId, uint32 duration);\n    event LenderAttestation(uint256 poolId, address lender);\n    event BorrowerAttestation(uint256 poolId, address borrower);\n\n    //Create Pool\n    function createPool(\n        address _initialOwner,\n        uint32 _paymentCycleDuration,\n        uint32 _paymentDefaultDuration,\n        uint32 _loanExpirationTime,\n        uint16 _poolFeePercent,\n        bool _requireLenderAttestation,\n        bool _requireBorrowerAttestation,\n        string calldata _uri\n    ) external {\n        _createPool(\n            _initialOwner,\n            _paymentCycleDuration,\n            _paymentDefaultDuration,\n            _loanExpirationTime,\n            _poolFeePercent,\n            _requireLenderAttestation,\n            _requireBorrowerAttestation,\n            _uri\n        );\n    }\n\n    // Creates a new Pool.\n    function _createPool(\n        address _initialOwner,\n        uint32 _paymentCycleDuration,\n        uint32 _paymentDefaultDuration,\n        uint32 _loanExpirationTime,\n        uint16 _feePercent,\n        bool _requireLenderAttestation,\n        bool _requireBorrowerAttestation,\n        string calldata _uri\n    ) internal returns (uint256 poolId_) {\n        require(_initialOwner != address(0), \"Invalid owner address\");\n        // Increment pool ID counter\n        poolId_ = ++poolCount;\n\n        //Deploy Pool Address\n        address poolAddress = LibPool.deployPoolAddress(\n            msg.sender,\n            address(this),\n            AconomyFeeAddress,\n            accountStatusAddress,\n            _paymentCycleDuration,\n            _paymentDefaultDuration,\n            _feePercent\n        );\n        pools[poolId_].poolAddress = poolAddress;\n        // Set the pool owner\n        pools[poolId_].owner = _initialOwner;\n\n        setPoolURI(poolId_, _uri);\n        setPaymentCycleDuration(poolId_, _paymentCycleDuration);\n        setPaymentDefaultDuration(poolId_, _paymentDefaultDuration);\n        setPoolFeePercent(poolId_, _feePercent);\n        setloanExpirationTime(poolId_, _loanExpirationTime);\n\n        // Check if pool requires lender attestation to join\n        if (_requireLenderAttestation) {\n            pools[poolId_].lenderAttestationRequired = true;\n        }\n        // Check if pool requires borrower attestation to join\n        if (_requireBorrowerAttestation) {\n            pools[poolId_].borrowerAttestationRequired = true;\n        }\n\n        emit poolCreated(_initialOwner, poolAddress, poolId_);\n    }\n\n    function setPoolURI(uint256 _poolId, string calldata _uri)\n        public\n        ownsPool(_poolId)\n    {\n        //We do string comparison by checking the hashes of the strings against one another\n        if (\n            keccak256(abi.encodePacked(_uri)) !=\n            keccak256(abi.encodePacked(pools[_poolId].metadataURI))\n        ) {\n            pools[_poolId].metadataURI = _uri;\n\n            emit SetPoolURI(_poolId, _uri);\n        }\n    }\n\n    function setPaymentCycleDuration(uint256 _poolId, uint32 _duration)\n        public\n        ownsPool(_poolId)\n    {\n        if (_duration != pools[_poolId].paymentCycleDuration) {\n            pools[_poolId].paymentCycleDuration = _duration;\n\n            emit SetPaymentCycleDuration(_poolId, _duration);\n        }\n    }\n\n    function setPaymentDefaultDuration(uint256 _poolId, uint32 _duration)\n        public\n        ownsPool(_poolId)\n    {\n        if (_duration != pools[_poolId].paymentDefaultDuration) {\n            pools[_poolId].paymentDefaultDuration = _duration;\n\n            emit SetPaymentDefaultDuration(_poolId, _duration);\n        }\n    }\n\n    function setPoolFeePercent(uint256 _poolId, uint16 _newPercent)\n        public\n        ownsPool(_poolId)\n    {\n        require(_newPercent >= 0 && _newPercent <= 10000, \"invalid percent\");\n        if (_newPercent != pools[_poolId].poolFeePercent) {\n            pools[_poolId].poolFeePercent = _newPercent;\n            emit SetPoolFee(_poolId, _newPercent);\n        }\n    }\n\n    function setloanExpirationTime(uint256 _poolId, uint32 _duration)\n        public\n        ownsPool(_poolId)\n    {\n        if (_duration != pools[_poolId].loanExpirationTime) {\n            pools[_poolId].loanExpirationTime = _duration;\n\n            emit SetloanExpirationTime(_poolId, _duration);\n        }\n    }\n\n    function addLender(\n        uint256 _poolId,\n        address _lenderAddress,\n        uint256 _expirationTime\n    ) external {\n        _attestAddress(_poolId, _lenderAddress, _expirationTime, true);\n    }\n\n    function addBorrower(\n        uint256 _poolId,\n        address _borrowerAddress,\n        uint256 _expirationTime\n    ) external {\n        _attestAddress(_poolId, _borrowerAddress, _expirationTime, false);\n    }\n\n    function _attestAddress(\n        uint256 _poolId,\n        address _Address,\n        uint256 _expirationTime,\n        bool _isLender\n    )\n        internal\n        lenderOrBorrowerSchema(\n            _isLender ? lenderAttestationSchemaId : borrowerAttestationSchemaId\n        )\n    {\n        require(msg.sender == pools[_poolId].owner, \"Not the pool owner\");\n\n        // Submit attestation for borrower to join a pool\n        bytes32 uuid = attestationService.attest(\n            _Address,\n            _attestingSchemaId, // set by the modifier\n            _expirationTime,\n            0,\n            abi.encode(_poolId, _Address)\n        );\n\n        _attestAddressVerification(_poolId, _Address, uuid, _isLender);\n    }\n\n    function _attestAddressVerification(\n        uint256 _poolId,\n        address _Address,\n        bytes32 _uuid,\n        bool _isLender\n    ) internal {\n        if (_isLender) {\n            // Store the lender attestation ID for the pool ID\n            pools[_poolId].lenderAttestationIds[_Address] = _uuid;\n            // Add lender address to pool set\n            pools[_poolId].verifiedLendersForPool.add(_Address);\n\n            emit LenderAttestation(_poolId, _Address);\n        } else {\n            // Store the lender attestation ID for the pool ID\n            pools[_poolId].borrowerAttestationIds[_Address] = _uuid;\n            // Add lender address to pool set\n            pools[_poolId].verifiedBorrowersForPool.add(_Address);\n\n            emit BorrowerAttestation(_poolId, _Address);\n        }\n    }\n\n    function getPoolFee(uint256 _poolId) public view returns (uint16 fee) {\n        return pools[_poolId].poolFeePercent;\n    }\n\n    function borrowerVarification(uint256 _poolId, address _borrowerAddress)\n        public\n        view\n        returns (bool isVerified_, bytes32 uuid_)\n    {\n        return\n            _isAddressVerified(\n                _borrowerAddress,\n                pools[_poolId].borrowerAttestationRequired,\n                pools[_poolId].borrowerAttestationIds,\n                pools[_poolId].verifiedBorrowersForPool\n            );\n    }\n\n    function lenderVarification(uint256 _poolId, address _lenderAddress)\n        public\n        view\n        returns (bool isVerified_, bytes32 uuid_)\n    {\n        return\n            _isAddressVerified(\n                _lenderAddress,\n                pools[_poolId].lenderAttestationRequired,\n                pools[_poolId].lenderAttestationIds,\n                pools[_poolId].verifiedLendersForPool\n            );\n    }\n\n    function _isAddressVerified(\n        address _wltAddress,\n        bool _attestationRequired,\n        mapping(address => bytes32) storage _stakeholderAttestationIds,\n        EnumerableSet.AddressSet storage _verifiedStakeholderForPool\n    ) internal view returns (bool isVerified_, bytes32 uuid_) {\n        if (_attestationRequired) {\n            isVerified_ =\n                _verifiedStakeholderForPool.contains(_wltAddress) &&\n                attestationService.isAddressActive(\n                    _stakeholderAttestationIds[_wltAddress]\n                );\n            uuid_ = _stakeholderAttestationIds[_wltAddress];\n        } else {\n            isVerified_ = true;\n        }\n    }\n\n    function ClosedPool(uint256 _poolId) public view returns (bool) {\n        return ClosedPools[_poolId];\n    }\n\n    function getPaymentCycleDuration(uint256 _poolId)\n        public\n        view\n        returns (uint32)\n    {\n        return pools[_poolId].paymentCycleDuration;\n    }\n\n    function getPaymentDefaultDuration(uint256 _poolId)\n        public\n        view\n        returns (uint32)\n    {\n        return pools[_poolId].paymentDefaultDuration;\n    }\n\n    function getloanExpirationTime(uint256 poolId)\n        public\n        view\n        returns (uint32)\n    {\n        return pools[poolId].loanExpirationTime;\n    }\n\n    function getPoolAddress(uint256 _poolId) public view returns (address) {\n        return pools[_poolId].poolAddress;\n    }\n\n    function getPoolOwner(uint256 _poolId) public view returns (address) {\n        return pools[_poolId].owner;\n    }\n}\n",
  "sourcePath": "/Users/sanskarkhare/Desktop/Pandora/aconomy-pool-v1/contracts/poolRegistry.sol",
  "compiler": {
    "name": "solc",
    "version": "0.8.11+commit.d7f03943.Emscripten.clang"
  },
  "schemaVersion": "3.4.4",
  "updatedAt": "2023-02-01T11:06:42.266Z",
  "networkType": "ethereum",
  "devdoc": {
    "kind": "dev",
    "methods": {},
    "version": 1
  },
  "userdoc": {
    "kind": "user",
    "methods": {},
    "version": 1
  }
}