{
  "contractName": "poolRegistry",
  "abi": [
    {
      "inputs": [
        {
          "internalType": "contract AttestationServices",
          "name": "_attestationServices",
          "type": "address"
        },
        {
          "internalType": "address",
          "name": "_AconomyFee",
          "type": "address"
        },
        {
          "internalType": "address",
          "name": "_FundingPoolAddress",
          "type": "address"
        }
      ],
      "stateMutability": "nonpayable",
      "type": "constructor"
    },
    {
      "anonymous": false,
      "inputs": [
        {
          "indexed": false,
          "internalType": "uint256",
          "name": "poolId",
          "type": "uint256"
        },
        {
          "indexed": false,
          "internalType": "address",
          "name": "borrower",
          "type": "address"
        }
      ],
      "name": "BorrowerAttestation",
      "type": "event"
    },
    {
      "anonymous": false,
      "inputs": [
        {
          "indexed": false,
          "internalType": "uint256",
          "name": "poolId",
          "type": "uint256"
        },
        {
          "indexed": false,
          "internalType": "address",
          "name": "lender",
          "type": "address"
        }
      ],
      "name": "LenderAttestation",
      "type": "event"
    },
    {
      "anonymous": false,
      "inputs": [
        {
          "indexed": false,
          "internalType": "uint256",
          "name": "marketId",
          "type": "uint256"
        },
        {
          "indexed": false,
          "internalType": "uint16",
          "name": "APR",
          "type": "uint16"
        }
      ],
      "name": "SetAPR",
      "type": "event"
    },
    {
      "anonymous": false,
      "inputs": [
        {
          "indexed": false,
          "internalType": "uint256",
          "name": "poolId",
          "type": "uint256"
        },
        {
          "indexed": false,
          "internalType": "uint32",
          "name": "duration",
          "type": "uint32"
        }
      ],
      "name": "SetPaymentCycleDuration",
      "type": "event"
    },
    {
      "anonymous": false,
      "inputs": [
        {
          "indexed": false,
          "internalType": "uint256",
          "name": "poolId",
          "type": "uint256"
        },
        {
          "indexed": false,
          "internalType": "uint32",
          "name": "duration",
          "type": "uint32"
        }
      ],
      "name": "SetPaymentDefaultDuration",
      "type": "event"
    },
    {
      "anonymous": false,
      "inputs": [
        {
          "indexed": false,
          "internalType": "uint256",
          "name": "poolId",
          "type": "uint256"
        },
        {
          "indexed": false,
          "internalType": "uint16",
          "name": "feePct",
          "type": "uint16"
        }
      ],
      "name": "SetPoolFee",
      "type": "event"
    },
    {
      "anonymous": false,
      "inputs": [
        {
          "indexed": false,
          "internalType": "uint256",
          "name": "marketId",
          "type": "uint256"
        },
        {
          "indexed": false,
          "internalType": "string",
          "name": "uri",
          "type": "string"
        }
      ],
      "name": "SetPoolURI",
      "type": "event"
    },
    {
      "anonymous": false,
      "inputs": [
        {
          "indexed": false,
          "internalType": "uint256",
          "name": "poolId",
          "type": "uint256"
        },
        {
          "indexed": false,
          "internalType": "uint32",
          "name": "duration",
          "type": "uint32"
        }
      ],
      "name": "SetloanExpirationTime",
      "type": "event"
    },
    {
      "anonymous": false,
      "inputs": [
        {
          "indexed": false,
          "internalType": "uint256",
          "name": "poolId",
          "type": "uint256"
        }
      ],
      "name": "poolClosed",
      "type": "event"
    },
    {
      "anonymous": false,
      "inputs": [
        {
          "indexed": true,
          "internalType": "address",
          "name": "owner",
          "type": "address"
        },
        {
          "indexed": false,
          "internalType": "address",
          "name": "poolAddress",
          "type": "address"
        },
        {
          "indexed": false,
          "internalType": "uint256",
          "name": "poolId",
          "type": "uint256"
        }
      ],
      "name": "poolCreated",
      "type": "event"
    },
    {
      "inputs": [],
      "name": "AconomyFeeAddress",
      "outputs": [
        {
          "internalType": "address",
          "name": "",
          "type": "address"
        }
      ],
      "stateMutability": "view",
      "type": "function"
    },
    {
      "inputs": [],
      "name": "attestationService",
      "outputs": [
        {
          "internalType": "contract AttestationServices",
          "name": "",
          "type": "address"
        }
      ],
      "stateMutability": "view",
      "type": "function"
    },
    {
      "inputs": [],
      "name": "borrowerAttestationSchemaId",
      "outputs": [
        {
          "internalType": "bytes32",
          "name": "",
          "type": "bytes32"
        }
      ],
      "stateMutability": "view",
      "type": "function"
    },
    {
      "inputs": [],
      "name": "lenderAttestationSchemaId",
      "outputs": [
        {
          "internalType": "bytes32",
          "name": "",
          "type": "bytes32"
        }
      ],
      "stateMutability": "view",
      "type": "function"
    },
    {
      "inputs": [],
      "name": "poolCount",
      "outputs": [
        {
          "internalType": "uint256",
          "name": "",
          "type": "uint256"
        }
      ],
      "stateMutability": "view",
      "type": "function"
    },
    {
      "inputs": [
        {
          "internalType": "uint32",
          "name": "_paymentCycleDuration",
          "type": "uint32"
        },
        {
          "internalType": "uint32",
          "name": "_paymentDefaultDuration",
          "type": "uint32"
        },
        {
          "internalType": "uint32",
          "name": "_loanExpirationTime",
          "type": "uint32"
        },
        {
          "internalType": "uint16",
          "name": "_poolFeePercent",
          "type": "uint16"
        },
        {
          "internalType": "uint16",
          "name": "_apr",
          "type": "uint16"
        },
        {
          "internalType": "string",
          "name": "_uri",
          "type": "string"
        },
        {
          "internalType": "bool",
          "name": "_requireLenderAttestation",
          "type": "bool"
        },
        {
          "internalType": "bool",
          "name": "_requireBorrowerAttestation",
          "type": "bool"
        }
      ],
      "name": "createPool",
      "outputs": [
        {
          "internalType": "uint256",
          "name": "poolId_",
          "type": "uint256"
        }
      ],
      "stateMutability": "nonpayable",
      "type": "function"
    },
    {
      "inputs": [
        {
          "internalType": "uint256",
          "name": "_poolId",
          "type": "uint256"
        },
        {
          "internalType": "uint16",
          "name": "_apr",
          "type": "uint16"
        }
      ],
      "name": "setApr",
      "outputs": [],
      "stateMutability": "nonpayable",
      "type": "function"
    },
    {
      "inputs": [
        {
          "internalType": "uint256",
          "name": "_poolId",
          "type": "uint256"
        },
        {
          "internalType": "uint32",
          "name": "_duration",
          "type": "uint32"
        }
      ],
      "name": "setPaymentCycleDuration",
      "outputs": [],
      "stateMutability": "nonpayable",
      "type": "function"
    },
    {
      "inputs": [
        {
          "internalType": "uint256",
          "name": "_poolId",
          "type": "uint256"
        },
        {
          "internalType": "string",
          "name": "_uri",
          "type": "string"
        }
      ],
      "name": "setPoolURI",
      "outputs": [],
      "stateMutability": "nonpayable",
      "type": "function"
    },
    {
      "inputs": [
        {
          "internalType": "uint256",
          "name": "_poolId",
          "type": "uint256"
        },
        {
          "internalType": "uint32",
          "name": "_duration",
          "type": "uint32"
        }
      ],
      "name": "setPaymentDefaultDuration",
      "outputs": [],
      "stateMutability": "nonpayable",
      "type": "function"
    },
    {
      "inputs": [
        {
          "internalType": "uint256",
          "name": "_poolId",
          "type": "uint256"
        },
        {
          "internalType": "uint16",
          "name": "_newPercent",
          "type": "uint16"
        }
      ],
      "name": "setPoolFeePercent",
      "outputs": [],
      "stateMutability": "nonpayable",
      "type": "function"
    },
    {
      "inputs": [
        {
          "internalType": "uint256",
          "name": "_poolId",
          "type": "uint256"
        },
        {
          "internalType": "uint32",
          "name": "_duration",
          "type": "uint32"
        }
      ],
      "name": "setloanExpirationTime",
      "outputs": [],
      "stateMutability": "nonpayable",
      "type": "function"
    },
    {
      "inputs": [
        {
          "internalType": "uint256",
          "name": "_poolId",
          "type": "uint256"
        },
        {
          "internalType": "address",
          "name": "_lenderAddress",
          "type": "address"
        },
        {
          "internalType": "uint256",
          "name": "_expirationTime",
          "type": "uint256"
        }
      ],
      "name": "addLender",
      "outputs": [],
      "stateMutability": "nonpayable",
      "type": "function"
    },
    {
      "inputs": [
        {
          "internalType": "uint256",
          "name": "_poolId",
          "type": "uint256"
        },
        {
          "internalType": "address",
          "name": "_borrowerAddress",
          "type": "address"
        },
        {
          "internalType": "uint256",
          "name": "_expirationTime",
          "type": "uint256"
        }
      ],
      "name": "addBorrower",
      "outputs": [],
      "stateMutability": "nonpayable",
      "type": "function"
    },
    {
      "inputs": [
        {
          "internalType": "uint256",
          "name": "_poolId",
          "type": "uint256"
        }
      ],
      "name": "getPoolFee",
      "outputs": [
        {
          "internalType": "uint16",
          "name": "fee",
          "type": "uint16"
        }
      ],
      "stateMutability": "view",
      "type": "function"
    },
    {
      "inputs": [
        {
          "internalType": "uint256",
          "name": "_poolId",
          "type": "uint256"
        },
        {
          "internalType": "address",
          "name": "_borrowerAddress",
          "type": "address"
        }
      ],
      "name": "borrowerVerification",
      "outputs": [
        {
          "internalType": "bool",
          "name": "isVerified_",
          "type": "bool"
        },
        {
          "internalType": "bytes32",
          "name": "uuid_",
          "type": "bytes32"
        }
      ],
      "stateMutability": "view",
      "type": "function"
    },
    {
      "inputs": [
        {
          "internalType": "uint256",
          "name": "_poolId",
          "type": "uint256"
        },
        {
          "internalType": "address",
          "name": "_lenderAddress",
          "type": "address"
        }
      ],
      "name": "lenderVerification",
      "outputs": [
        {
          "internalType": "bool",
          "name": "isVerified_",
          "type": "bool"
        },
        {
          "internalType": "bytes32",
          "name": "uuid_",
          "type": "bytes32"
        }
      ],
      "stateMutability": "view",
      "type": "function"
    },
    {
      "inputs": [
        {
          "internalType": "uint256",
          "name": "_poolId",
          "type": "uint256"
        }
      ],
      "name": "closePool",
      "outputs": [],
      "stateMutability": "nonpayable",
      "type": "function"
    },
    {
      "inputs": [
        {
          "internalType": "uint256",
          "name": "_poolId",
          "type": "uint256"
        }
      ],
      "name": "ClosedPool",
      "outputs": [
        {
          "internalType": "bool",
          "name": "",
          "type": "bool"
        }
      ],
      "stateMutability": "view",
      "type": "function"
    },
    {
      "inputs": [
        {
          "internalType": "uint256",
          "name": "_poolId",
          "type": "uint256"
        }
      ],
      "name": "getPaymentCycleDuration",
      "outputs": [
        {
          "internalType": "uint32",
          "name": "",
          "type": "uint32"
        }
      ],
      "stateMutability": "view",
      "type": "function"
    },
    {
      "inputs": [
        {
          "internalType": "uint256",
          "name": "_poolId",
          "type": "uint256"
        }
      ],
      "name": "getPaymentDefaultDuration",
      "outputs": [
        {
          "internalType": "uint32",
          "name": "",
          "type": "uint32"
        }
      ],
      "stateMutability": "view",
      "type": "function"
    },
    {
      "inputs": [
        {
          "internalType": "uint256",
          "name": "poolId",
          "type": "uint256"
        }
      ],
      "name": "getloanExpirationTime",
      "outputs": [
        {
          "internalType": "uint32",
          "name": "",
          "type": "uint32"
        }
      ],
      "stateMutability": "view",
      "type": "function"
    },
    {
      "inputs": [
        {
          "internalType": "uint256",
          "name": "_poolId",
          "type": "uint256"
        }
      ],
      "name": "getPoolAddress",
      "outputs": [
        {
          "internalType": "address",
          "name": "",
          "type": "address"
        }
      ],
      "stateMutability": "view",
      "type": "function"
    },
    {
      "inputs": [
        {
          "internalType": "uint256",
          "name": "_poolId",
          "type": "uint256"
        }
      ],
      "name": "getPoolOwner",
      "outputs": [
        {
          "internalType": "address",
          "name": "",
          "type": "address"
        }
      ],
      "stateMutability": "view",
      "type": "function"
    },
    {
      "inputs": [
        {
          "internalType": "uint256",
          "name": "_poolId",
          "type": "uint256"
        }
      ],
      "name": "getPoolApr",
      "outputs": [
        {
          "internalType": "uint16",
          "name": "",
          "type": "uint16"
        }
      ],
      "stateMutability": "view",
      "type": "function"
    },
    {
      "inputs": [],
      "name": "getAconomyFee",
      "outputs": [
        {
          "internalType": "uint16",
          "name": "",
          "type": "uint16"
        }
      ],
      "stateMutability": "view",
      "type": "function"
    },
    {
      "inputs": [],
      "name": "getAconomyOwner",
      "outputs": [
        {
          "internalType": "address",
          "name": "",
          "type": "address"
        }
      ],
      "stateMutability": "view",
      "type": "function"
    }
  ],
  "bytecode": "0x60806040523480156200001157600080fd5b50604051620031f3380380620031f38339818101604052810190620000379190620003a6565b600160008190555080600660006101000a81548173ffffffffffffffffffffffffffffffffffffffff021916908373ffffffffffffffffffffffffffffffffffffffff16021790555082600160006101000a81548173ffffffffffffffffffffffffffffffffffffffff021916908373ffffffffffffffffffffffffffffffffffffffff16021790555081600560006101000a81548173ffffffffffffffffffffffffffffffffffffffff021916908373ffffffffffffffffffffffffffffffffffffffff1602179055508273ffffffffffffffffffffffffffffffffffffffff166381fa6cd36040518163ffffffff1660e01b8152600401602060405180830381865afa1580156200014e573d6000803e3d6000fd5b505050506040513d601f19601f8201168201806040525081019062000174919062000447565b73ffffffffffffffffffffffffffffffffffffffff166382fbdc9c6040518163ffffffff1660e01b8152600401620001ac9062000500565b6020604051808303816000875af1158015620001cc573d6000803e3d6000fd5b505050506040513d601f19601f82011682018060405250810190620001f291906200055d565b6002819055508273ffffffffffffffffffffffffffffffffffffffff166381fa6cd36040518163ffffffff1660e01b8152600401602060405180830381865afa15801562000244573d6000803e3d6000fd5b505050506040513d601f19601f820116820180604052508101906200026a919062000447565b73ffffffffffffffffffffffffffffffffffffffff166382fbdc9c6040518163ffffffff1660e01b8152600401620002a29062000605565b6020604051808303816000875af1158015620002c2573d6000803e3d6000fd5b505050506040513d601f19601f82011682018060405250810190620002e891906200055d565b60038190555050505062000627565b600080fd5b600073ffffffffffffffffffffffffffffffffffffffff82169050919050565b60006200032982620002fc565b9050919050565b60006200033d826200031c565b9050919050565b6200034f8162000330565b81146200035b57600080fd5b50565b6000815190506200036f8162000344565b92915050565b62000380816200031c565b81146200038c57600080fd5b50565b600081519050620003a08162000375565b92915050565b600080600060608486031215620003c257620003c1620002f7565b5b6000620003d2868287016200035e565b9350506020620003e5868287016200038f565b9250506040620003f8868287016200038f565b9150509250925092565b60006200040f826200031c565b9050919050565b620004218162000402565b81146200042d57600080fd5b50565b600081519050620004418162000416565b92915050565b60006020828403121562000460576200045f620002f7565b5b6000620004708482850162000430565b91505092915050565b600082825260208201905092915050565b7f2875696e7432353620706f6f6c49642c2061646472657373206c656e6465724160008201527f6464726573732900000000000000000000000000000000000000000000000000602082015250565b6000620004e860278362000479565b9150620004f5826200048a565b604082019050919050565b600060208201905081810360008301526200051b81620004d9565b9050919050565b6000819050919050565b620005378162000522565b81146200054357600080fd5b50565b60008151905062000557816200052c565b92915050565b600060208284031215620005765762000575620002f7565b5b6000620005868482850162000546565b91505092915050565b7f2875696e7432353620706f6f6c49642c206164647265737320626f72726f776560008201527f7241646472657373290000000000000000000000000000000000000000000000602082015250565b6000620005ed60298362000479565b9150620005fa826200058f565b604082019050919050565b600060208201905081810360008301526200062081620005de565b9050919050565b612bbc80620006376000396000f3fe608060405234801561001057600080fd5b50600436106101a85760003560e01c8063a8380df1116100f9578063e18bdb8311610097578063f32db0ec11610071578063f32db0ec14610505578063f525cb6814610535578063f8795c0314610553578063fa9fe9161461056f576101a8565b8063e18bdb83146104b1578063ecd6ce6e146104cd578063f2e734ba146104e9576101a8565b8063c5de5d6f116100d3578063c5de5d6f14610416578063d404b95714610446578063da5de1a214610462578063dadf422e14610493576101a8565b8063a8380df11461039a578063c28ba8eb146103ca578063c381ff3e146103fa576101a8565b806337de615f11610166578063679700d911610140578063679700d9146102fe5780636e34b4e41461031c578063805deb531461034c578063911347151461037c576101a8565b806337de615f146102945780633c0db788146102b0578063635f1e4d146102ce576101a8565b8062a5ae21146101ad57806311bed5bb146101dd5780632cd047001461020d5780632f1be8f91461022b578063302de10f1461024757806336fdf4f014610278575b600080fd5b6101c760048036038101906101c29190611e0e565b61058d565b6040516101d49190611e7c565b60405180910390f35b6101f760048036038101906101f29190611e0e565b6105cd565b6040516102049190611eb6565b60405180910390f35b6102156105fd565b6040516102229190611f30565b60405180910390f35b61024560048036038101906102409190611f77565b610623565b005b610261600480360381019061025c9190611fe3565b610775565b60405161026f929190612057565b60405180910390f35b610292600480360381019061028d91906120ba565b6107dc565b005b6102ae60048036038101906102a99190611e0e565b610924565b005b6102b8610a56565b6040516102c591906120fa565b60405180910390f35b6102e860048036038101906102e39190611e0e565b610a5c565b6040516102f59190612124565b60405180910390f35b610306610a8a565b60405161031391906120fa565b60405180910390f35b61033660048036038101906103319190611e0e565b610a90565b6040516103439190611e7c565b60405180910390f35b61036660048036038101906103619190611e0e565b610ad0565b6040516103739190611eb6565b60405180910390f35b610384610b00565b6040516103919190612124565b60405180910390f35b6103b460048036038101906103af9190611e0e565b610b98565b6040516103c1919061213f565b60405180910390f35b6103e460048036038101906103df9190611e0e565b610bc2565b6040516103f19190611eb6565b60405180910390f35b610414600480360381019061040f919061215a565b610bf2565b005b610430600480360381019061042b919061223e565b610caa565b60405161043d9190612323565b60405180910390f35b610460600480360381019061045b919061233e565b610f16565b005b61047c60048036038101906104779190611fe3565b61108d565b60405161048a929190612057565b60405180910390f35b61049b6110f4565b6040516104a89190611e7c565b60405180910390f35b6104cb60048036038101906104c69190611f77565b61111a565b005b6104e760048036038101906104e29190611f77565b61126c565b005b61050360048036038101906104fe919061215a565b6113be565b005b61051f600480360381019061051a9190611e0e565b611476565b60405161052c9190612124565b60405180910390f35b61053d6114a4565b60405161054a9190612323565b60405180910390f35b61056d600480360381019061056891906120ba565b6114aa565b005b61057761163b565b6040516105849190611e7c565b60405180910390f35b60006007600083815260200190815260200160002060000160009054906101000a900473ffffffffffffffffffffffffffffffffffffffff169050919050565b60006007600083815260200190815260200160002060070160049054906101000a900463ffffffff169050919050565b600160009054906101000a900473ffffffffffffffffffffffffffffffffffffffff1681565b813373ffffffffffffffffffffffffffffffffffffffff166007600083815260200190815260200160002060010160009054906101000a900473ffffffffffffffffffffffffffffffffffffffff1673ffffffffffffffffffffffffffffffffffffffff16146106c8576040517f08c379a00000000000000000000000000000000000000000000000000000000081526004016106bf906123fb565b60405180910390fd5b6007600084815260200190815260200160002060070160049054906101000a900463ffffffff1663ffffffff168263ffffffff161461077057816007600085815260200190815260200160002060070160046101000a81548163ffffffff021916908363ffffffff1602179055507f3e49e2efeacab7e8344acd4e7940449bf62039aa3734c34fa6d3525654be8101838360405161076792919061241b565b60405180910390a15b505050565b6000806107d18360076000878152602001908152602001600020600701600c9054906101000a900460ff1660076000888152602001908152602001600020600a01600760008981526020019081526020016000206008016116d3565b915091509250929050565b813373ffffffffffffffffffffffffffffffffffffffff166007600083815260200190815260200160002060010160009054906101000a900473ffffffffffffffffffffffffffffffffffffffff1673ffffffffffffffffffffffffffffffffffffffff1614610881576040517f08c379a0000000000000000000000000000000000000000000000000000000008152600401610878906123fb565b60405180910390fd5b6007600084815260200190815260200160002060030160009054906101000a900461ffff1661ffff168261ffff161461091f57816007600085815260200190815260200160002060030160006101000a81548161ffff021916908361ffff1602179055507f8152ec7f9ed82e09b6ee5e8ff40a31e15a21387cd3e66abe901c1c7c754513098383604051610916929190612444565b60405180910390a15b505050565b803373ffffffffffffffffffffffffffffffffffffffff166007600083815260200190815260200160002060010160009054906101000a900473ffffffffffffffffffffffffffffffffffffffff1673ffffffffffffffffffffffffffffffffffffffff16146109c9576040517f08c379a00000000000000000000000000000000000000000000000000000000081526004016109c0906123fb565b60405180910390fd5b6008600083815260200190815260200160002060009054906101000a900460ff16610a525760016008600084815260200190815260200160002060006101000a81548160ff0219169083151502179055507fe2fb6ff747c653a1ea203ce1b388244509c7948f7afcf260b8f4f88bb23b39a282604051610a499190612323565b60405180910390a15b5050565b60025481565b60006007600083815260200190815260200160002060030160029054906101000a900461ffff169050919050565b60035481565b60006007600083815260200190815260200160002060010160009054906101000a900473ffffffffffffffffffffffffffffffffffffffff169050919050565b60006007600083815260200190815260200160002060070160009054906101000a900463ffffffff169050919050565b6000600560009054906101000a900473ffffffffffffffffffffffffffffffffffffffff1673ffffffffffffffffffffffffffffffffffffffff1663b0e21e8a6040518163ffffffff1660e01b8152600401602060405180830381865afa158015610b6f573d6000803e3d6000fd5b505050506040513d601f19601f82011682018060405250810190610b939190612482565b905090565b60006008600083815260200190815260200160002060009054906101000a900460ff169050919050565b60006007600083815260200190815260200160002060070160089054906101000a900463ffffffff169050919050565b823373ffffffffffffffffffffffffffffffffffffffff166007600083815260200190815260200160002060010160009054906101000a900473ffffffffffffffffffffffffffffffffffffffff1673ffffffffffffffffffffffffffffffffffffffff1614610c97576040517f08c379a0000000000000000000000000000000000000000000000000000000008152600401610c8e906123fb565b60405180910390fd5b610ca48484846000611827565b50505050565b6000600960008154610cbb906124de565b9190508190559050600073__LibPool_______________________________63ca408e563330600660009054906101000a900473ffffffffffffffffffffffffffffffffffffffff166040518463ffffffff1660e01b8152600401610d2293929190612536565b602060405180830381865af4158015610d3f573d6000803e3d6000fd5b505050506040513d601f19601f82011682018060405250810190610d639190612582565b9050806007600084815260200190815260200160002060000160006101000a81548173ffffffffffffffffffffffffffffffffffffffff021916908373ffffffffffffffffffffffffffffffffffffffff160217905550336007600084815260200190815260200160002060010160006101000a81548173ffffffffffffffffffffffffffffffffffffffff021916908373ffffffffffffffffffffffffffffffffffffffff160217905550610e1982886107dc565b610e23828c61126c565b610e2d828b610623565b610e3782896114aa565b610e41828a61111a565b610e4c828787610f16565b8315610e825760016007600084815260200190815260200160002060030160046101000a81548160ff0219169083151502179055505b8215610eb857600160076000848152602001908152602001600020600701600c6101000a81548160ff0219169083151502179055505b3373ffffffffffffffffffffffffffffffffffffffff167f407eac4ec3d5da6bb83c52c3817e2b7e46268bb1e945cc2494b7c01e06d2beae8284604051610f009291906125af565b60405180910390a2509998505050505050505050565b823373ffffffffffffffffffffffffffffffffffffffff166007600083815260200190815260200160002060010160009054906101000a900473ffffffffffffffffffffffffffffffffffffffff1673ffffffffffffffffffffffffffffffffffffffff1614610fbb576040517f08c379a0000000000000000000000000000000000000000000000000000000008152600401610fb2906123fb565b60405180910390fd5b60076000858152602001908152602001600020600201604051602001610fe191906126d8565b60405160208183030381529060405280519060200120838360405160200161100a929190612723565b604051602081830303815290604052805190602001201461108757828260076000878152602001908152602001600020600201919061104a929190611d2b565b507faea0b816063c817d82c498925319d9f08eb53332cf08ca227ea12c38a571462484848460405161107e9392919061277a565b60405180910390a15b50505050565b6000806110e9836007600087815260200190815260200160002060030160049054906101000a900460ff1660076000888152602001908152602001600020600601600760008981526020019081526020016000206004016116d3565b915091509250929050565b600560009054906101000a900473ffffffffffffffffffffffffffffffffffffffff1681565b813373ffffffffffffffffffffffffffffffffffffffff166007600083815260200190815260200160002060010160009054906101000a900473ffffffffffffffffffffffffffffffffffffffff1673ffffffffffffffffffffffffffffffffffffffff16146111bf576040517f08c379a00000000000000000000000000000000000000000000000000000000081526004016111b6906123fb565b60405180910390fd5b6007600084815260200190815260200160002060070160089054906101000a900463ffffffff1663ffffffff168263ffffffff161461126757816007600085815260200190815260200160002060070160086101000a81548163ffffffff021916908363ffffffff1602179055507f8f28307b0f89abbef9b86fdb13ddc77894d04547390687daf215b2f1f63a0baa838360405161125e92919061241b565b60405180910390a15b505050565b813373ffffffffffffffffffffffffffffffffffffffff166007600083815260200190815260200160002060010160009054906101000a900473ffffffffffffffffffffffffffffffffffffffff1673ffffffffffffffffffffffffffffffffffffffff1614611311576040517f08c379a0000000000000000000000000000000000000000000000000000000008152600401611308906123fb565b60405180910390fd5b6007600084815260200190815260200160002060070160009054906101000a900463ffffffff1663ffffffff168263ffffffff16146113b957816007600085815260200190815260200160002060070160006101000a81548163ffffffff021916908363ffffffff1602179055507fa04499c227e7a6de804e5a57e4b38990792373bd8d73b6c13ab76e406007484383836040516113b092919061241b565b60405180910390a15b505050565b823373ffffffffffffffffffffffffffffffffffffffff166007600083815260200190815260200160002060010160009054906101000a900473ffffffffffffffffffffffffffffffffffffffff1673ffffffffffffffffffffffffffffffffffffffff1614611463576040517f08c379a000000000000000000000000000000000000000000000000000000000815260040161145a906123fb565b60405180910390fd5b6114708484846001611827565b50505050565b60006007600083815260200190815260200160002060030160009054906101000a900461ffff169050919050565b60095481565b813373ffffffffffffffffffffffffffffffffffffffff166007600083815260200190815260200160002060010160009054906101000a900473ffffffffffffffffffffffffffffffffffffffff1673ffffffffffffffffffffffffffffffffffffffff161461154f576040517f08c379a0000000000000000000000000000000000000000000000000000000008152600401611546906123fb565b60405180910390fd5b6127108261ffff161115611598576040517f08c379a000000000000000000000000000000000000000000000000000000000815260040161158f906127f8565b60405180910390fd5b6007600084815260200190815260200160002060030160029054906101000a900461ffff1661ffff168261ffff161461163657816007600085815260200190815260200160002060030160026101000a81548161ffff021916908361ffff1602179055507f24a1eddd3a54f274769832c6e6e16de4e3298679bac8b22e22820be8ef635b59838360405161162d929190612444565b60405180910390a15b505050565b6000600560009054906101000a900473ffffffffffffffffffffffffffffffffffffffff1673ffffffffffffffffffffffffffffffffffffffff16634dd9ccb16040518163ffffffff1660e01b8152600401602060405180830381865afa1580156116aa573d6000803e3d6000fd5b505050506040513d601f19601f820116820180604052508101906116ce9190612582565b905090565b6000808415611819576116ef86846119dc90919063ffffffff16565b80156117d15750600160009054906101000a900473ffffffffffffffffffffffffffffffffffffffff1673ffffffffffffffffffffffffffffffffffffffff1663e56d679b8560008973ffffffffffffffffffffffffffffffffffffffff1673ffffffffffffffffffffffffffffffffffffffff168152602001908152602001600020546040518263ffffffff1660e01b815260040161178f91906120fa565b602060405180830381865afa1580156117ac573d6000803e3d6000fd5b505050506040513d601f19601f820116820180604052508101906117d0919061282d565b5b91508360008773ffffffffffffffffffffffffffffffffffffffff1673ffffffffffffffffffffffffffffffffffffffff16815260200190815260200160002054905061181e565b600191505b94509492505050565b61182f611a0c565b8061183c57600354611840565b6002545b806004819055506007600086815260200190815260200160002060010160009054906101000a900473ffffffffffffffffffffffffffffffffffffffff1673ffffffffffffffffffffffffffffffffffffffff163373ffffffffffffffffffffffffffffffffffffffff16146118eb576040517f08c379a00000000000000000000000000000000000000000000000000000000081526004016118e2906128a6565b60405180910390fd5b6000600160009054906101000a900473ffffffffffffffffffffffffffffffffffffffff1673ffffffffffffffffffffffffffffffffffffffff16631e892bf386600454878a8a6040516020016119439291906128c6565b6040516020818303038152906040526040518563ffffffff1660e01b81526004016119719493929190612977565b6020604051808303816000875af1158015611990573d6000803e3d6000fd5b505050506040513d601f19601f820116820180604052508101906119b491906129ef565b90506119c286868386611a5c565b506000801b600481905550506119d6611c5e565b50505050565b6000611a04836000018373ffffffffffffffffffffffffffffffffffffffff1660001b611c68565b905092915050565b60026000541415611a52576040517f08c379a0000000000000000000000000000000000000000000000000000000008152600401611a4990612a68565b60405180910390fd5b6002600081905550565b8015611b5f57816007600086815260200190815260200160002060060160008573ffffffffffffffffffffffffffffffffffffffff1673ffffffffffffffffffffffffffffffffffffffff16815260200190815260200160002081905550611ae28360076000878152602001908152602001600020600401611c8b90919063ffffffff16565b611b21576040517f08c379a0000000000000000000000000000000000000000000000000000000008152600401611b1890612ad4565b60405180910390fd5b7f75675690de0899b0b869d83b44b2d926ac594426b2a0286c478ecdf815cbd33e8484604051611b529291906128c6565b60405180910390a1611c58565b8160076000868152602001908152602001600020600a0160008573ffffffffffffffffffffffffffffffffffffffff1673ffffffffffffffffffffffffffffffffffffffff16815260200190815260200160002081905550611bdf8360076000878152602001908152602001600020600801611c8b90919063ffffffff16565b611c1e576040517f08c379a0000000000000000000000000000000000000000000000000000000008152600401611c1590612b66565b60405180910390fd5b7f0c2cfc7e7a16ebee66e77fb314f4bfdb5505e33e77d41c0c60604efc70fd926b8484604051611c4f9291906128c6565b60405180910390a15b50505050565b6001600081905550565b600080836001016000848152602001908152602001600020541415905092915050565b6000611cb3836000018373ffffffffffffffffffffffffffffffffffffffff1660001b611cbb565b905092915050565b6000611cc78383611c68565b611d20578260000182908060018154018082558091505060019003906000526020600020016000909190919091505582600001805490508360010160008481526020019081526020016000208190555060019050611d25565b600090505b92915050565b828054611d3790612607565b90600052602060002090601f016020900481019282611d595760008555611da0565b82601f10611d7257803560ff1916838001178555611da0565b82800160010185558215611da0579182015b82811115611d9f578235825591602001919060010190611d84565b5b509050611dad9190611db1565b5090565b5b80821115611dca576000816000905550600101611db2565b5090565b600080fd5b600080fd5b6000819050919050565b611deb81611dd8565b8114611df657600080fd5b50565b600081359050611e0881611de2565b92915050565b600060208284031215611e2457611e23611dce565b5b6000611e3284828501611df9565b91505092915050565b600073ffffffffffffffffffffffffffffffffffffffff82169050919050565b6000611e6682611e3b565b9050919050565b611e7681611e5b565b82525050565b6000602082019050611e916000830184611e6d565b92915050565b600063ffffffff82169050919050565b611eb081611e97565b82525050565b6000602082019050611ecb6000830184611ea7565b92915050565b6000819050919050565b6000611ef6611ef1611eec84611e3b565b611ed1565b611e3b565b9050919050565b6000611f0882611edb565b9050919050565b6000611f1a82611efd565b9050919050565b611f2a81611f0f565b82525050565b6000602082019050611f456000830184611f21565b92915050565b611f5481611e97565b8114611f5f57600080fd5b50565b600081359050611f7181611f4b565b92915050565b60008060408385031215611f8e57611f8d611dce565b5b6000611f9c85828601611df9565b9250506020611fad85828601611f62565b9150509250929050565b611fc081611e5b565b8114611fcb57600080fd5b50565b600081359050611fdd81611fb7565b92915050565b60008060408385031215611ffa57611ff9611dce565b5b600061200885828601611df9565b925050602061201985828601611fce565b9150509250929050565b60008115159050919050565b61203881612023565b82525050565b6000819050919050565b6120518161203e565b82525050565b600060408201905061206c600083018561202f565b6120796020830184612048565b9392505050565b600061ffff82169050919050565b61209781612080565b81146120a257600080fd5b50565b6000813590506120b48161208e565b92915050565b600080604083850312156120d1576120d0611dce565b5b60006120df85828601611df9565b92505060206120f0858286016120a5565b9150509250929050565b600060208201905061210f6000830184612048565b92915050565b61211e81612080565b82525050565b60006020820190506121396000830184612115565b92915050565b6000602082019050612154600083018461202f565b92915050565b60008060006060848603121561217357612172611dce565b5b600061218186828701611df9565b935050602061219286828701611fce565b92505060406121a386828701611df9565b9150509250925092565b600080fd5b600080fd5b600080fd5b60008083601f8401126121d2576121d16121ad565b5b8235905067ffffffffffffffff8111156121ef576121ee6121b2565b5b60208301915083600182028301111561220b5761220a6121b7565b5b9250929050565b61221b81612023565b811461222657600080fd5b50565b60008135905061223881612212565b92915050565b60008060008060008060008060006101008a8c03121561226157612260611dce565b5b600061226f8c828d01611f62565b99505060206122808c828d01611f62565b98505060406122918c828d01611f62565b97505060606122a28c828d016120a5565b96505060806122b38c828d016120a5565b95505060a08a013567ffffffffffffffff8111156122d4576122d3611dd3565b5b6122e08c828d016121bc565b945094505060c06122f38c828d01612229565b92505060e06123048c828d01612229565b9150509295985092959850929598565b61231d81611dd8565b82525050565b60006020820190506123386000830184612314565b92915050565b60008060006040848603121561235757612356611dce565b5b600061236586828701611df9565b935050602084013567ffffffffffffffff81111561238657612385611dd3565b5b612392868287016121bc565b92509250509250925092565b600082825260208201905092915050565b7f4e6f7420746865206f776e657200000000000000000000000000000000000000600082015250565b60006123e5600d8361239e565b91506123f0826123af565b602082019050919050565b60006020820190508181036000830152612414816123d8565b9050919050565b60006040820190506124306000830185612314565b61243d6020830184611ea7565b9392505050565b60006040820190506124596000830185612314565b6124666020830184612115565b9392505050565b60008151905061247c8161208e565b92915050565b60006020828403121561249857612497611dce565b5b60006124a68482850161246d565b91505092915050565b7f4e487b7100000000000000000000000000000000000000000000000000000000600052601160045260246000fd5b60006124e982611dd8565b91507fffffffffffffffffffffffffffffffffffffffffffffffffffffffffffffffff82141561251c5761251b6124af565b5b600182019050919050565b61253081611e5b565b82525050565b600060608201905061254b6000830186612527565b6125586020830185612527565b6125656040830184612527565b949350505050565b60008151905061257c81611fb7565b92915050565b60006020828403121561259857612597611dce565b5b60006125a68482850161256d565b91505092915050565b60006040820190506125c46000830185611e6d565b6125d16020830184612314565b9392505050565b7f4e487b7100000000000000000000000000000000000000000000000000000000600052602260045260246000fd5b6000600282049050600182168061261f57607f821691505b60208210811415612633576126326125d8565b5b50919050565b600081905092915050565b60008190508160005260206000209050919050565b6000815461266681612607565b6126708186612639565b9450600182166000811461268b576001811461269c576126cf565b60ff198316865281860193506126cf565b6126a585612644565b60005b838110156126c7578154818901526001820191506020810190506126a8565b838801955050505b50505092915050565b60006126e48284612659565b915081905092915050565b82818337600083830152505050565b600061270a8385612639565b93506127178385846126ef565b82840190509392505050565b60006127308284866126fe565b91508190509392505050565b6000601f19601f8301169050919050565b6000612759838561239e565b93506127668385846126ef565b61276f8361273c565b840190509392505050565b600060408201905061278f6000830186612314565b81810360208301526127a281848661274d565b9050949350505050565b7f696e76616c69642070657263656e740000000000000000000000000000000000600082015250565b60006127e2600f8361239e565b91506127ed826127ac565b602082019050919050565b60006020820190508181036000830152612811816127d5565b9050919050565b60008151905061282781612212565b92915050565b60006020828403121561284357612842611dce565b5b600061285184828501612818565b91505092915050565b7f4e6f742074686520706f6f6c206f776e65720000000000000000000000000000600082015250565b600061289060128361239e565b915061289b8261285a565b602082019050919050565b600060208201905081810360008301526128bf81612883565b9050919050565b60006040820190506128db6000830185612314565b6128e86020830184611e6d565b9392505050565b600081519050919050565b600082825260208201905092915050565b60005b8381101561292957808201518184015260208101905061290e565b83811115612938576000848401525b50505050565b6000612949826128ef565b61295381856128fa565b935061296381856020860161290b565b61296c8161273c565b840191505092915050565b600060808201905061298c6000830187611e6d565b6129996020830186612048565b6129a66040830185612314565b81810360608301526129b8818461293e565b905095945050505050565b6129cc8161203e565b81146129d757600080fd5b50565b6000815190506129e9816129c3565b92915050565b600060208284031215612a0557612a04611dce565b5b6000612a13848285016129da565b91505092915050565b7f5265656e7472616e637947756172643a207265656e7472616e742063616c6c00600082015250565b6000612a52601f8361239e565b9150612a5d82612a1c565b602082019050919050565b60006020820190508181036000830152612a8181612a45565b9050919050565b7f616464206c656e64657220746f20706f6f6c6661696c65640000000000000000600082015250565b6000612abe60188361239e565b9150612ac982612a88565b602082019050919050565b60006020820190508181036000830152612aed81612ab1565b9050919050565b7f61646420626f72726f776572206661696c65642c207665726966696564426f7260008201527f726f77657273466f72506f6f6c2e616464206661696c65640000000000000000602082015250565b6000612b5060388361239e565b9150612b5b82612af4565b604082019050919050565b60006020820190508181036000830152612b7f81612b43565b905091905056fea264697066735822122019f2ce21d1f11a86c449538b3bf6615d689dcd21e49d5825efb2f1746e05f31f64736f6c634300080b0033",
  "immutableReferences": {},
  "source": "// SPDX-License-Identifier: MIT\npragma solidity >=0.4.22 <0.9.0;\n\nimport \"@openzeppelin/contracts/utils/Counters.sol\";\nimport \"./AconomyFee.sol\";\nimport \"./Libraries/LibPool.sol\";\nimport \"./AttestationServices.sol\";\nimport \"@openzeppelin/contracts/security/ReentrancyGuard.sol\";\n\nimport {EnumerableSet} from \"@openzeppelin/contracts/utils/structs/EnumerableSet.sol\";\n\ncontract poolRegistry is ReentrancyGuard {\n    using Counters for Counters.Counter;\n    using EnumerableSet for EnumerableSet.AddressSet;\n\n    modifier ownsPool(uint256 _poolId) {\n        require(pools[_poolId].owner == msg.sender, \"Not the owner\");\n        _;\n    }\n\n    AttestationServices public attestationService;\n    bytes32 public lenderAttestationSchemaId;\n    bytes32 public borrowerAttestationSchemaId;\n    bytes32 private _attestingSchemaId;\n    address public AconomyFeeAddress;\n    address FundingPoolAddress;\n\n    constructor(\n        AttestationServices _attestationServices,\n        address _AconomyFee,\n        address _FundingPoolAddress\n    ) {\n        FundingPoolAddress = _FundingPoolAddress;\n        attestationService = _attestationServices;\n        AconomyFeeAddress = _AconomyFee;\n\n        lenderAttestationSchemaId = _attestationServices\n            .getASRegistry()\n            .register(\"(uint256 poolId, address lenderAddress)\");\n        borrowerAttestationSchemaId = _attestationServices\n            .getASRegistry()\n            .register(\"(uint256 poolId, address borrowerAddress)\");\n    }\n\n    modifier lenderOrBorrowerSchema(bytes32 schemaId) {\n        _attestingSchemaId = schemaId;\n        _;\n        _attestingSchemaId = bytes32(0);\n    }\n\n    struct poolDetail {\n        address poolAddress;\n        address owner;\n        string URI;\n        uint16 APR;\n        uint16 poolFeePercent; // 10000 is 100%\n        bool lenderAttestationRequired;\n        EnumerableSet.AddressSet verifiedLendersForPool;\n        mapping(address => bytes32) lenderAttestationIds;\n        uint32 paymentCycleDuration;\n        uint32 paymentDefaultDuration;\n        uint32 loanExpirationTime;\n        bool borrowerAttestationRequired;\n        EnumerableSet.AddressSet verifiedBorrowersForPool;\n        mapping(address => bytes32) borrowerAttestationIds;\n    }\n\n    //poolId => poolDetail\n    mapping(uint256 => poolDetail) internal pools;\n    //poolId => close or open\n    mapping(uint256 => bool) private ClosedPools;\n\n    uint256 public poolCount;\n    event poolCreated(\n        address indexed owner,\n        address poolAddress,\n        uint256 poolId\n    );\n    event SetPaymentCycleDuration(uint256 poolId, uint32 duration);\n    event SetPaymentDefaultDuration(uint256 poolId, uint32 duration);\n    event SetPoolFee(uint256 poolId, uint16 feePct);\n    event SetloanExpirationTime(uint256 poolId, uint32 duration);\n    event LenderAttestation(uint256 poolId, address lender);\n    event BorrowerAttestation(uint256 poolId, address borrower);\n    event SetPoolURI(uint256 marketId, string uri);\n    event SetAPR(uint256 marketId, uint16 APR);\n    event poolClosed(uint256 poolId);\n\n    //Create Pool\n    function createPool(\n        uint32 _paymentCycleDuration,\n        uint32 _paymentDefaultDuration,\n        uint32 _loanExpirationTime,\n        uint16 _poolFeePercent,\n        uint16 _apr,\n        string calldata _uri,\n        bool _requireLenderAttestation,\n        bool _requireBorrowerAttestation\n    ) external returns (uint256 poolId_) {\n        // Increment pool ID counter\n        poolId_ = ++poolCount;\n\n        //Deploy Pool Address\n        address poolAddress = LibPool.deployPoolAddress(\n            msg.sender,\n            address(this),\n            FundingPoolAddress\n        );\n        pools[poolId_].poolAddress = poolAddress;\n        // Set the pool owner\n        pools[poolId_].owner = msg.sender;\n\n        setApr(poolId_, _apr);\n        setPaymentCycleDuration(poolId_, _paymentCycleDuration);\n        setPaymentDefaultDuration(poolId_, _paymentDefaultDuration);\n        setPoolFeePercent(poolId_, _poolFeePercent);\n        setloanExpirationTime(poolId_, _loanExpirationTime);\n        setPoolURI(poolId_, _uri);\n\n        // Check if pool requires lender attestation to join\n        if (_requireLenderAttestation) {\n            pools[poolId_].lenderAttestationRequired = true;\n        }\n        // Check if pool requires borrower attestation to join\n        if (_requireBorrowerAttestation) {\n            pools[poolId_].borrowerAttestationRequired = true;\n        }\n\n        emit poolCreated(msg.sender, poolAddress, poolId_);\n    }\n\n    function setApr(uint256 _poolId, uint16 _apr) public ownsPool(_poolId) {\n        if (_apr != pools[_poolId].APR) {\n            pools[_poolId].APR = _apr;\n\n            emit SetAPR(_poolId, _apr);\n        }\n    }\n\n    function setPaymentCycleDuration(uint256 _poolId, uint32 _duration)\n        public\n        ownsPool(_poolId)\n    {\n        if (_duration != pools[_poolId].paymentCycleDuration) {\n            pools[_poolId].paymentCycleDuration = _duration;\n\n            emit SetPaymentCycleDuration(_poolId, _duration);\n        }\n    }\n\n    function setPoolURI(uint256 _poolId, string calldata _uri)\n        public\n        ownsPool(_poolId)\n    {\n        if (\n            keccak256(abi.encodePacked(_uri)) !=\n            keccak256(abi.encodePacked(pools[_poolId].URI))\n        ) {\n            pools[_poolId].URI = _uri;\n\n            emit SetPoolURI(_poolId, _uri);\n        }\n    }\n\n    function setPaymentDefaultDuration(uint256 _poolId, uint32 _duration)\n        public\n        ownsPool(_poolId)\n    {\n        if (_duration != pools[_poolId].paymentDefaultDuration) {\n            pools[_poolId].paymentDefaultDuration = _duration;\n\n            emit SetPaymentDefaultDuration(_poolId, _duration);\n        }\n    }\n\n    function setPoolFeePercent(uint256 _poolId, uint16 _newPercent)\n        public\n        ownsPool(_poolId)\n    {\n        require(_newPercent <= 10000, \"invalid percent\");\n        if (_newPercent != pools[_poolId].poolFeePercent) {\n            pools[_poolId].poolFeePercent = _newPercent;\n            emit SetPoolFee(_poolId, _newPercent);\n        }\n    }\n\n    function setloanExpirationTime(uint256 _poolId, uint32 _duration)\n        public\n        ownsPool(_poolId)\n    {\n        if (_duration != pools[_poolId].loanExpirationTime) {\n            pools[_poolId].loanExpirationTime = _duration;\n\n            emit SetloanExpirationTime(_poolId, _duration);\n        }\n    }\n\n    function addLender(\n        uint256 _poolId,\n        address _lenderAddress,\n        uint256 _expirationTime\n    ) external ownsPool(_poolId) {\n        _attestAddress(_poolId, _lenderAddress, _expirationTime, true);\n    }\n\n    function addBorrower(\n        uint256 _poolId,\n        address _borrowerAddress,\n        uint256 _expirationTime\n    ) external ownsPool(_poolId) {\n        _attestAddress(_poolId, _borrowerAddress, _expirationTime, false);\n    }\n\n    function _attestAddress(\n        uint256 _poolId,\n        address _Address,\n        uint256 _expirationTime,\n        bool _isLender\n    )\n        internal\n        nonReentrant\n        lenderOrBorrowerSchema(\n            _isLender ? lenderAttestationSchemaId : borrowerAttestationSchemaId\n        )\n    {\n        require(msg.sender == pools[_poolId].owner, \"Not the pool owner\");\n\n        // Submit attestation for borrower to join a pool\n        bytes32 uuid = attestationService.attest(\n            _Address,\n            _attestingSchemaId, // set by the modifier\n            _expirationTime,\n            abi.encode(_poolId, _Address)\n        );\n\n        _attestAddressVerification(_poolId, _Address, uuid, _isLender);\n    }\n\n    function _attestAddressVerification(\n        uint256 _poolId,\n        address _Address,\n        bytes32 _uuid,\n        bool _isLender\n    ) internal {\n        if (_isLender) {\n            // Store the lender attestation ID for the pool ID\n            pools[_poolId].lenderAttestationIds[_Address] = _uuid;\n            // Add lender address to pool set\n            //    (bool isSuccess ) =  pools[_poolId].verifiedLendersForPool.add(_Address);\n            require(\n                pools[_poolId].verifiedLendersForPool.add(_Address),\n                \"add lender to poolfailed\"\n            );\n\n            emit LenderAttestation(_poolId, _Address);\n        } else {\n            // Store the lender attestation ID for the pool ID\n            pools[_poolId].borrowerAttestationIds[_Address] = _uuid;\n            // Add lender address to pool set\n            require(\n                pools[_poolId].verifiedBorrowersForPool.add(_Address),\n                \"add borrower failed, verifiedBorrowersForPool.add failed\"\n            );\n\n            emit BorrowerAttestation(_poolId, _Address);\n        }\n    }\n\n    function getPoolFee(uint256 _poolId) public view returns (uint16 fee) {\n        return pools[_poolId].poolFeePercent;\n    }\n\n    function borrowerVerification(uint256 _poolId, address _borrowerAddress)\n        public\n        view\n        returns (bool isVerified_, bytes32 uuid_)\n    {\n        return\n            _isAddressVerified(\n                _borrowerAddress,\n                pools[_poolId].borrowerAttestationRequired,\n                pools[_poolId].borrowerAttestationIds,\n                pools[_poolId].verifiedBorrowersForPool\n            );\n    }\n\n    function lenderVerification(uint256 _poolId, address _lenderAddress)\n        public\n        view\n        returns (bool isVerified_, bytes32 uuid_)\n    {\n        return\n            _isAddressVerified(\n                _lenderAddress,\n                pools[_poolId].lenderAttestationRequired,\n                pools[_poolId].lenderAttestationIds,\n                pools[_poolId].verifiedLendersForPool\n            );\n    }\n\n    function _isAddressVerified(\n        address _wltAddress,\n        bool _attestationRequired,\n        mapping(address => bytes32) storage _stakeholderAttestationIds,\n        EnumerableSet.AddressSet storage _verifiedStakeholderForPool\n    ) internal view returns (bool isVerified_, bytes32 uuid_) {\n        if (_attestationRequired) {\n            isVerified_ =\n                _verifiedStakeholderForPool.contains(_wltAddress) &&\n                attestationService.isAddressActive(\n                    _stakeholderAttestationIds[_wltAddress]\n                );\n            uuid_ = _stakeholderAttestationIds[_wltAddress];\n        } else {\n            isVerified_ = true;\n        }\n    }\n\n    function closePool(uint256 _poolId) public ownsPool(_poolId) {\n        if (!ClosedPools[_poolId]) {\n            ClosedPools[_poolId] = true;\n\n            emit poolClosed(_poolId);\n        }\n    }\n\n    function ClosedPool(uint256 _poolId) public view returns (bool) {\n        return ClosedPools[_poolId];\n    }\n\n    function getPaymentCycleDuration(uint256 _poolId)\n        public\n        view\n        returns (uint32)\n    {\n        return pools[_poolId].paymentCycleDuration;\n    }\n\n    function getPaymentDefaultDuration(uint256 _poolId)\n        public\n        view\n        returns (uint32)\n    {\n        return pools[_poolId].paymentDefaultDuration;\n    }\n\n    function getloanExpirationTime(uint256 poolId)\n        public\n        view\n        returns (uint32)\n    {\n        return pools[poolId].loanExpirationTime;\n    }\n\n    function getPoolAddress(uint256 _poolId) public view returns (address) {\n        return pools[_poolId].poolAddress;\n    }\n\n    function getPoolOwner(uint256 _poolId) public view returns (address) {\n        return pools[_poolId].owner;\n    }\n\n    function getPoolApr(uint256 _poolId) public view returns (uint16) {\n        return pools[_poolId].APR;\n    }\n\n    function getAconomyFee() public view returns (uint16) {\n        return AconomyFee(AconomyFeeAddress).protocolFee();\n    }\n\n    function getAconomyOwner() public view returns (address) {\n        return AconomyFee(AconomyFeeAddress).getAconomyOwnerAddress();\n    }\n}",
  "sourcePath": "/home/sheeshco/code/truffle/aconomy-contract/contracts/poolRegistry.sol",
  "compiler": {
    "name": "solc",
    "version": "0.8.11+commit.d7f03943.Emscripten.clang"
  },
  "schemaVersion": "3.4.10",
  "updatedAt": "2023-03-17T06:00:03.427Z",
  "devdoc": {
    "kind": "dev",
    "methods": {},
    "version": 1
  },
  "userdoc": {
    "kind": "user",
    "methods": {},
    "version": 1
  }
}