{
  "contractName": "poolAddress",
  "abi": [
    {
      "inputs": [
        {
          "internalType": "address",
          "name": "_poolOwner",
          "type": "address"
        },
        {
          "internalType": "address",
          "name": "_poolRegistry",
          "type": "address"
        },
        {
          "internalType": "address",
          "name": "_AconomyFeeAddress",
          "type": "address"
        },
        {
          "internalType": "address",
          "name": "_accountStatusAddress",
          "type": "address"
        },
        {
          "internalType": "uint256",
          "name": "_paymentCycleDuration",
          "type": "uint256"
        },
        {
          "internalType": "uint256",
          "name": "_paymentDefaultDuration",
          "type": "uint256"
        },
        {
          "internalType": "uint256",
          "name": "_feePercent",
          "type": "uint256"
        }
      ],
      "stateMutability": "nonpayable",
      "type": "constructor"
    },
    {
      "anonymous": false,
      "inputs": [
        {
          "indexed": true,
          "internalType": "uint256",
          "name": "loanId",
          "type": "uint256"
        },
        {
          "indexed": true,
          "internalType": "string",
          "name": "feeType",
          "type": "string"
        },
        {
          "indexed": true,
          "internalType": "uint256",
          "name": "amount",
          "type": "uint256"
        }
      ],
      "name": "AcceptedLoanDetail",
      "type": "event"
    },
    {
      "anonymous": false,
      "inputs": [
        {
          "indexed": true,
          "internalType": "uint256",
          "name": "bidId",
          "type": "uint256"
        }
      ],
      "name": "LoanRepaid",
      "type": "event"
    },
    {
      "anonymous": false,
      "inputs": [
        {
          "indexed": true,
          "internalType": "uint256",
          "name": "bidId",
          "type": "uint256"
        }
      ],
      "name": "LoanRepayment",
      "type": "event"
    },
    {
      "anonymous": false,
      "inputs": [
        {
          "indexed": true,
          "internalType": "uint256",
          "name": "loanId",
          "type": "uint256"
        },
        {
          "indexed": true,
          "internalType": "address",
          "name": "borrower",
          "type": "address"
        },
        {
          "indexed": false,
          "internalType": "address",
          "name": "receiver",
          "type": "address"
        },
        {
          "indexed": false,
          "internalType": "uint256",
          "name": "paymentCycleAmount",
          "type": "uint256"
        }
      ],
      "name": "SubmittedLoan",
      "type": "event"
    },
    {
      "anonymous": false,
      "inputs": [
        {
          "indexed": true,
          "internalType": "address",
          "name": "lender",
          "type": "address"
        },
        {
          "indexed": true,
          "internalType": "uint256",
          "name": "poolId",
          "type": "uint256"
        },
        {
          "indexed": true,
          "internalType": "address",
          "name": "ERC20Token",
          "type": "address"
        },
        {
          "indexed": false,
          "internalType": "uint256",
          "name": "tokenAmount",
          "type": "uint256"
        }
      ],
      "name": "SupplyToPool",
      "type": "event"
    },
    {
      "anonymous": false,
      "inputs": [
        {
          "indexed": true,
          "internalType": "uint256",
          "name": "loanId",
          "type": "uint256"
        },
        {
          "indexed": true,
          "internalType": "address",
          "name": "lender",
          "type": "address"
        }
      ],
      "name": "loanAccepted",
      "type": "event"
    },
    {
      "anonymous": false,
      "inputs": [
        {
          "indexed": false,
          "internalType": "uint256",
          "name": "owedPrincipal",
          "type": "uint256"
        },
        {
          "indexed": false,
          "internalType": "uint256",
          "name": "duePrincipal",
          "type": "uint256"
        },
        {
          "indexed": false,
          "internalType": "uint256",
          "name": "interest",
          "type": "uint256"
        }
      ],
      "name": "repaidAmounts",
      "type": "event"
    },
    {
      "inputs": [],
      "name": "bidId",
      "outputs": [
        {
          "internalType": "uint256",
          "name": "",
          "type": "uint256"
        }
      ],
      "stateMutability": "view",
      "type": "function"
    },
    {
      "inputs": [
        {
          "internalType": "address",
          "name": "",
          "type": "address"
        },
        {
          "internalType": "uint256",
          "name": "",
          "type": "uint256"
        }
      ],
      "name": "borrowerLoans",
      "outputs": [
        {
          "internalType": "uint256",
          "name": "",
          "type": "uint256"
        }
      ],
      "stateMutability": "view",
      "type": "function"
    },
    {
      "inputs": [],
      "name": "createdAt",
      "outputs": [
        {
          "internalType": "uint256",
          "name": "",
          "type": "uint256"
        }
      ],
      "stateMutability": "view",
      "type": "function"
    },
    {
      "inputs": [],
      "name": "feePercent",
      "outputs": [
        {
          "internalType": "uint256",
          "name": "",
          "type": "uint256"
        }
      ],
      "stateMutability": "view",
      "type": "function"
    },
    {
      "inputs": [
        {
          "internalType": "address",
          "name": "",
          "type": "address"
        },
        {
          "internalType": "address",
          "name": "",
          "type": "address"
        }
      ],
      "name": "lenderLendAmount",
      "outputs": [
        {
          "internalType": "uint256",
          "name": "",
          "type": "uint256"
        }
      ],
      "stateMutability": "view",
      "type": "function"
    },
    {
      "inputs": [
        {
          "internalType": "address",
          "name": "",
          "type": "address"
        },
        {
          "internalType": "uint256",
          "name": "",
          "type": "uint256"
        },
        {
          "internalType": "address",
          "name": "",
          "type": "address"
        }
      ],
      "name": "lenderPoolFundDetails",
      "outputs": [
        {
          "internalType": "uint256",
          "name": "amount",
          "type": "uint256"
        },
        {
          "internalType": "uint32",
          "name": "expiration",
          "type": "uint32"
        },
        {
          "internalType": "uint32",
          "name": "maxDuration",
          "type": "uint32"
        },
        {
          "internalType": "uint16",
          "name": "interestRate",
          "type": "uint16"
        },
        {
          "internalType": "uint256",
          "name": "bidId",
          "type": "uint256"
        }
      ],
      "stateMutability": "view",
      "type": "function"
    },
    {
      "inputs": [
        {
          "internalType": "uint256",
          "name": "",
          "type": "uint256"
        }
      ],
      "name": "loanDefaultDuration",
      "outputs": [
        {
          "internalType": "uint32",
          "name": "",
          "type": "uint32"
        }
      ],
      "stateMutability": "view",
      "type": "function"
    },
    {
      "inputs": [
        {
          "internalType": "uint256",
          "name": "",
          "type": "uint256"
        }
      ],
      "name": "loanExpirationTime",
      "outputs": [
        {
          "internalType": "uint32",
          "name": "",
          "type": "uint32"
        }
      ],
      "stateMutability": "view",
      "type": "function"
    },
    {
      "inputs": [],
      "name": "loanId",
      "outputs": [
        {
          "internalType": "uint256",
          "name": "",
          "type": "uint256"
        }
      ],
      "stateMutability": "view",
      "type": "function"
    },
    {
      "inputs": [
        {
          "internalType": "uint256",
          "name": "",
          "type": "uint256"
        }
      ],
      "name": "loans",
      "outputs": [
        {
          "internalType": "address",
          "name": "borrower",
          "type": "address"
        },
        {
          "internalType": "address",
          "name": "receiver",
          "type": "address"
        },
        {
          "internalType": "address",
          "name": "lender",
          "type": "address"
        },
        {
          "internalType": "uint256",
          "name": "poolId",
          "type": "uint256"
        },
        {
          "components": [
            {
              "internalType": "contract ERC20",
              "name": "lendingToken",
              "type": "address"
            },
            {
              "internalType": "uint256",
              "name": "principal",
              "type": "uint256"
            },
            {
              "components": [
                {
                  "internalType": "uint256",
                  "name": "principal",
                  "type": "uint256"
                },
                {
                  "internalType": "uint256",
                  "name": "interest",
                  "type": "uint256"
                }
              ],
              "internalType": "struct poolStorage.Payment",
              "name": "totalRepaid",
              "type": "tuple"
            },
            {
              "internalType": "uint32",
              "name": "timestamp",
              "type": "uint32"
            },
            {
              "internalType": "uint32",
              "name": "acceptedTimestamp",
              "type": "uint32"
            },
            {
              "internalType": "uint32",
              "name": "lastRepaidTimestamp",
              "type": "uint32"
            },
            {
              "internalType": "uint32",
              "name": "loanDuration",
              "type": "uint32"
            }
          ],
          "internalType": "struct poolStorage.LoanDetails",
          "name": "loanDetails",
          "type": "tuple"
        },
        {
          "components": [
            {
              "internalType": "uint256",
              "name": "paymentCycleAmount",
              "type": "uint256"
            },
            {
              "internalType": "uint32",
              "name": "paymentCycle",
              "type": "uint32"
            },
            {
              "internalType": "uint16",
              "name": "APR",
              "type": "uint16"
            }
          ],
          "internalType": "struct poolStorage.Terms",
          "name": "terms",
          "type": "tuple"
        },
        {
          "internalType": "enum poolStorage.LoanState",
          "name": "state",
          "type": "uint8"
        }
      ],
      "stateMutability": "view",
      "type": "function"
    },
    {
      "inputs": [],
      "name": "paymentCycleDuration",
      "outputs": [
        {
          "internalType": "uint256",
          "name": "",
          "type": "uint256"
        }
      ],
      "stateMutability": "view",
      "type": "function"
    },
    {
      "inputs": [],
      "name": "paymentDefaultDuration",
      "outputs": [
        {
          "internalType": "uint256",
          "name": "",
          "type": "uint256"
        }
      ],
      "stateMutability": "view",
      "type": "function"
    },
    {
      "inputs": [],
      "name": "poolOwner",
      "outputs": [
        {
          "internalType": "address",
          "name": "",
          "type": "address"
        }
      ],
      "stateMutability": "view",
      "type": "function"
    },
    {
      "inputs": [
        {
          "internalType": "address",
          "name": "",
          "type": "address"
        }
      ],
      "name": "totalERC20Amount",
      "outputs": [
        {
          "internalType": "uint256",
          "name": "",
          "type": "uint256"
        }
      ],
      "stateMutability": "view",
      "type": "function"
    },
    {
      "inputs": [
        {
          "internalType": "address",
          "name": "_lendingToken",
          "type": "address"
        },
        {
          "internalType": "uint256",
          "name": "_poolId",
          "type": "uint256"
        },
        {
          "internalType": "uint256",
          "name": "_principal",
          "type": "uint256"
        },
        {
          "internalType": "uint32",
          "name": "_duration",
          "type": "uint32"
        },
        {
          "internalType": "uint16",
          "name": "_APR",
          "type": "uint16"
        },
        {
          "internalType": "address",
          "name": "_receiver",
          "type": "address"
        }
      ],
      "name": "loanRequest",
      "outputs": [
        {
          "internalType": "uint256",
          "name": "loanId_",
          "type": "uint256"
        }
      ],
      "stateMutability": "nonpayable",
      "type": "function"
    },
    {
      "inputs": [
        {
          "internalType": "uint256",
          "name": "_loanId",
          "type": "uint256"
        }
      ],
      "name": "AcceptLoan",
      "outputs": [
        {
          "internalType": "uint256",
          "name": "amountToAconomy",
          "type": "uint256"
        },
        {
          "internalType": "uint256",
          "name": "amountToPool",
          "type": "uint256"
        },
        {
          "internalType": "uint256",
          "name": "amountToBorrower",
          "type": "uint256"
        }
      ],
      "stateMutability": "nonpayable",
      "type": "function"
    },
    {
      "inputs": [
        {
          "internalType": "uint256",
          "name": "_loanId",
          "type": "uint256"
        }
      ],
      "name": "isLoanExpired",
      "outputs": [
        {
          "internalType": "bool",
          "name": "",
          "type": "bool"
        }
      ],
      "stateMutability": "view",
      "type": "function"
    },
    {
      "inputs": [
        {
          "internalType": "uint256",
          "name": "_loanId",
          "type": "uint256"
        }
      ],
      "name": "isLoanDefaulted",
      "outputs": [
        {
          "internalType": "bool",
          "name": "",
          "type": "bool"
        }
      ],
      "stateMutability": "view",
      "type": "function"
    },
    {
      "inputs": [
        {
          "internalType": "uint256",
          "name": "_loanId",
          "type": "uint256"
        }
      ],
      "name": "lastRepaidTimestamp",
      "outputs": [
        {
          "internalType": "uint32",
          "name": "",
          "type": "uint32"
        }
      ],
      "stateMutability": "view",
      "type": "function"
    },
    {
      "inputs": [
        {
          "internalType": "uint256",
          "name": "_loanId",
          "type": "uint256"
        }
      ],
      "name": "isPaymentLate",
      "outputs": [
        {
          "internalType": "bool",
          "name": "",
          "type": "bool"
        }
      ],
      "stateMutability": "view",
      "type": "function"
    },
    {
      "inputs": [
        {
          "internalType": "uint256",
          "name": "_loanId",
          "type": "uint256"
        }
      ],
      "name": "calculateNextDueDate",
      "outputs": [
        {
          "internalType": "uint32",
          "name": "dueDate_",
          "type": "uint32"
        }
      ],
      "stateMutability": "view",
      "type": "function"
    },
    {
      "inputs": [
        {
          "internalType": "uint256",
          "name": "_loanId",
          "type": "uint256"
        }
      ],
      "name": "repayYourLoan",
      "outputs": [],
      "stateMutability": "nonpayable",
      "type": "function"
    },
    {
      "inputs": [
        {
          "internalType": "uint256",
          "name": "_loanId",
          "type": "uint256"
        }
      ],
      "name": "repayFullLoan",
      "outputs": [],
      "stateMutability": "nonpayable",
      "type": "function"
    },
    {
      "inputs": [
        {
          "internalType": "uint256",
          "name": "_poolId",
          "type": "uint256"
        },
        {
          "internalType": "address",
          "name": "_ERC20Address",
          "type": "address"
        },
        {
          "internalType": "uint256",
          "name": "_amount",
          "type": "uint256"
        },
        {
          "internalType": "uint32",
          "name": "_maxLoanDuration",
          "type": "uint32"
        },
        {
          "internalType": "uint16",
          "name": "_interestRate",
          "type": "uint16"
        },
        {
          "internalType": "uint32",
          "name": "_expiration",
          "type": "uint32"
        }
      ],
      "name": "supplyToPool",
      "outputs": [],
      "stateMutability": "nonpayable",
      "type": "function"
    }
  ],
  "bytecode": "0x60806040526000805560006010553480156200001a57600080fd5b50604051620046ed380380620046ed8339818101604052810190620000409190620001d1565b86600b60006101000a81548173ffffffffffffffffffffffffffffffffffffffff021916908373ffffffffffffffffffffffffffffffffffffffff16021790555085600860006101000a81548173ffffffffffffffffffffffffffffffffffffffff021916908373ffffffffffffffffffffffffffffffffffffffff16021790555084600960006101000a81548173ffffffffffffffffffffffffffffffffffffffff021916908373ffffffffffffffffffffffffffffffffffffffff16021790555082600c8190555081600d8190555080600e8190555042600f819055505050505050505062000284565b600080fd5b600073ffffffffffffffffffffffffffffffffffffffff82169050919050565b60006200015e8262000131565b9050919050565b620001708162000151565b81146200017c57600080fd5b50565b600081519050620001908162000165565b92915050565b6000819050919050565b620001ab8162000196565b8114620001b757600080fd5b50565b600081519050620001cb81620001a0565b92915050565b600080600080600080600060e0888a031215620001f357620001f26200012c565b5b6000620002038a828b016200017f565b9750506020620002168a828b016200017f565b9650506040620002298a828b016200017f565b95505060606200023c8a828b016200017f565b94505060806200024f8a828b01620001ba565b93505060a0620002628a828b01620001ba565b92505060c0620002758a828b01620001ba565b91505092959891949750929550565b61445980620002946000396000f3fe608060405234801561001057600080fd5b50600436106101585760003560e01c80638ac47319116100c3578063e1ec3c681161007c578063e1ec3c6814610403578063e3ed190214610439578063e70a407914610469578063e766a88f1461049d578063e8cbab09146104cf578063fee870e9146104ff57610158565b80638ac473191461032b5780638cda457114610349578063a51e2bad14610379578063c95669a5146103a9578063cf09e0d0146103c7578063cf0b2270146103e557610158565b806330f2670c1161011557806330f2670c1461022f5780633a31f3371461025f57806360c661e61461028f578063623b0db7146102bf578063706a43c3146102dd5780637fd6f15c1461030d57610158565b8063093f56171461015d578063106182231461018d5780631c5c1fc7146101bd5780631e042d1f146101d9578063217f6ebe146101f55780632539b1d814610213575b600080fd5b6101776004803603810190610172919061307c565b61052f565b60405161018491906130c4565b60405180910390f35b6101a760048036038101906101a2919061307c565b6105a8565b6040516101b491906130c4565b60405180910390f35b6101d760048036038101906101d2919061307c565b6106a0565b005b6101f360048036038101906101ee919061307c565b61077d565b005b6101fd610899565b60405161020a91906130ee565b60405180910390f35b61022d600480360381019061022891906131dd565b61089f565b005b6102496004803603810190610244919061326a565b610bab565b60405161025691906130ee565b60405180910390f35b6102796004803603810190610274919061307c565b610bc3565b60405161028691906132a6565b60405180910390f35b6102a960048036038101906102a491906132c1565b610be6565b6040516102b691906130ee565b60405180910390f35b6102c76113ec565b6040516102d491906130ee565b60405180910390f35b6102f760048036038101906102f2919061307c565b6113f2565b60405161030491906132a6565b60405180910390f35b6103156115d0565b60405161032291906130ee565b60405180910390f35b6103336115d6565b60405161034091906130ee565b60405180910390f35b610363600480360381019061035e919061307c565b6115dc565b60405161037091906132a6565b60405180910390f35b610393600480360381019061038e919061307c565b6115ff565b6040516103a091906132a6565b60405180910390f35b6103b1611623565b6040516103be91906130ee565b60405180910390f35b6103cf611629565b6040516103dc91906130ee565b60405180910390f35b6103ed61162f565b6040516103fa919061335d565b60405180910390f35b61041d6004803603810190610418919061307c565b611655565b604051610430979695949392919061357b565b60405180910390f35b610453600480360381019061044e91906135ed565b611888565b60405161046091906130ee565b60405180910390f35b610483600480360381019061047e919061362d565b6118b9565b60405161049495949392919061368f565b60405180910390f35b6104b760048036038101906104b2919061307c565b611937565b6040516104c6939291906136e2565b60405180910390f35b6104e960048036038101906104e4919061307c565b6125cc565b6040516104f691906130c4565b60405180910390f35b61051960048036038101906105149190613719565b6126b5565b60405161052691906130ee565b60405180910390f35b60006003600581111561054557610544613504565b5b60016000848152602001908152602001600020600b0160009054906101000a900460ff16600581111561057b5761057a613504565b5b1461058957600090506105a3565b610592826113f2565b63ffffffff164263ffffffff161190505b919050565b600080600160008481526020019081526020016000209050600160058111156105d4576105d3613504565b5b81600b0160009054906101000a900460ff1660058111156105f8576105f7613504565b5b1461060757600091505061069b565b60006006600085815260200190815260200160002060009054906101000a900463ffffffff1663ffffffff16141561064357600091505061069b565b6006600084815260200190815260200160002060009054906101000a900463ffffffff168160040160040160009054906101000a900463ffffffff166106899190613788565b63ffffffff164263ffffffff16119150505b919050565b600360058111156106b4576106b3613504565b5b60016000838152602001908152602001600020600b0160009054906101000a900460ff1660058111156106ea576106e9613504565b5b1461072a576040517f08c379a00000000000000000000000000000000000000000000000000000000081526004016107219061381f565b60405180910390fd5b60008061074960016000858152602001908152602001600020426126da565b9250509150610778836040518060400160405280858152602001848152508385610773919061383f565b61278f565b505050565b6003600581111561079157610790613504565b5b60016000838152602001908152602001600020600b0160009054906101000a900460ff1660058111156107c7576107c6613504565b5b14610807576040517f08c379a00000000000000000000000000000000000000000000000000000000081526004016107fe9061381f565b60405180910390fd5b600080600061082860016000868152602001908152602001600020426126da565b925092509250610858846040518060400160405280858152602001848152508386610853919061383f565b61278f565b7f193d98b28f4db3258b9a6bc3f7270c0ea85e0a520b3dc0daad9acc7136703d0f83838360405161088b939291906136e2565b60405180910390a150505050565b600c5481565b60003390504263ffffffff168263ffffffff16116108f2576040517f08c379a00000000000000000000000000000000000000000000000000000000081526004016108e9906138e1565b60405180910390fd5b600060105490506000601160008473ffffffffffffffffffffffffffffffffffffffff1673ffffffffffffffffffffffffffffffffffffffff16815260200190815260200160002060008a815260200190815260200160002060008973ffffffffffffffffffffffffffffffffffffffff1673ffffffffffffffffffffffffffffffffffffffff1681526020019081526020016000209050868160000181905550838160010160006101000a81548163ffffffff021916908363ffffffff160217905550858160010160046101000a81548163ffffffff021916908363ffffffff160217905550848160010160086101000a81548161ffff021916908361ffff1602179055508181600201819055506000600860009054906101000a900473ffffffffffffffffffffffffffffffffffffffff1673ffffffffffffffffffffffffffffffffffffffff1662a5ae218b6040518263ffffffff1660e01b8152600401610a5d91906130ee565b602060405180830381865afa158015610a7a573d6000803e3d6000fd5b505050506040513d601f19601f82011682018060405250810190610a9e9190613916565b90508873ffffffffffffffffffffffffffffffffffffffff166323b872dd85838b6040518463ffffffff1660e01b8152600401610add93929190613943565b6020604051808303816000875af1158015610afc573d6000803e3d6000fd5b505050506040513d601f19601f82011682018060405250810190610b2091906139a6565b5060106000815480929190610b34906139d3565b91905055508873ffffffffffffffffffffffffffffffffffffffff168a8573ffffffffffffffffffffffffffffffffffffffff167fbf99752a1ad03d0679669231a437225b40bdd479dcdae766597068d0f6031f098b604051610b9791906130ee565b60405180910390a450505050505050505050565b60036020528060005260406000206000915090505481565b60066020528060005260406000206000915054906101000a900463ffffffff1681565b600080600860009054906101000a900473ffffffffffffffffffffffffffffffffffffffff1673ffffffffffffffffffffffffffffffffffffffff1663918d59ea88336040518363ffffffff1660e01b8152600401610c46929190613a1c565b6040805180830381865afa158015610c62573d6000803e3d6000fd5b505050506040513d601f19601f82011682018060405250810190610c869190613a7b565b50905080610cc9576040517f08c379a0000000000000000000000000000000000000000000000000000000008152600401610cc090613b07565b60405180910390fd5b600860009054906101000a900473ffffffffffffffffffffffffffffffffffffffff1673ffffffffffffffffffffffffffffffffffffffff1663a8380df1886040518263ffffffff1660e01b8152600401610d2491906130ee565b602060405180830381865afa158015610d41573d6000803e3d6000fd5b505050506040513d601f19601f82011682018060405250810190610d6591906139a6565b15610da5576040517f08c379a0000000000000000000000000000000000000000000000000000000008152600401610d9c90613b73565b60405180910390fd5b6000549150600060016000805481526020019081526020016000209050338160000160006101000a81548173ffffffffffffffffffffffffffffffffffffffff021916908373ffffffffffffffffffffffffffffffffffffffff160217905550600073ffffffffffffffffffffffffffffffffffffffff168473ffffffffffffffffffffffffffffffffffffffff161415610e64578060000160009054906101000a900473ffffffffffffffffffffffffffffffffffffffff16610e66565b835b8160010160006101000a81548173ffffffffffffffffffffffffffffffffffffffff021916908373ffffffffffffffffffffffffffffffffffffffff160217905550878160030181905550888160040160000160006101000a81548173ffffffffffffffffffffffffffffffffffffffff021916908373ffffffffffffffffffffffffffffffffffffffff1602179055508681600401600101819055508581600401600401600c6101000a81548163ffffffff021916908363ffffffff160217905550428160040160040160006101000a81548163ffffffff021916908363ffffffff160217905550600860009054906101000a900473ffffffffffffffffffffffffffffffffffffffff1673ffffffffffffffffffffffffffffffffffffffff1663805deb53896040518263ffffffff1660e01b8152600401610faa91906130ee565b602060405180830381865afa158015610fc7573d6000803e3d6000fd5b505050506040513d601f19601f82011682018060405250810190610feb9190613ba8565b8160090160010160006101000a81548163ffffffff021916908363ffffffff160217905550848160090160010160046101000a81548161ffff021916908361ffff160217905550600860009054906101000a900473ffffffffffffffffffffffffffffffffffffffff1673ffffffffffffffffffffffffffffffffffffffff166311bed5bb896040518263ffffffff1660e01b815260040161108d91906130ee565b602060405180830381865afa1580156110aa573d6000803e3d6000fd5b505050506040513d601f19601f820116820180604052508101906110ce9190613ba8565b600560008054815260200190815260200160002060006101000a81548163ffffffff021916908363ffffffff160217905550600860009054906101000a900473ffffffffffffffffffffffffffffffffffffffff1673ffffffffffffffffffffffffffffffffffffffff1663c28ba8eb896040518263ffffffff1660e01b815260040161115b91906130ee565b602060405180830381865afa158015611178573d6000803e3d6000fd5b505050506040513d601f19601f8201168201806040525081019061119c9190613ba8565b600660008054815260200190815260200160002060006101000a81548163ffffffff021916908363ffffffff16021790555073__LibCalculations_______________________632872a88788888460090160010160009054906101000a900463ffffffff16896040518563ffffffff1660e01b81526004016112229493929190613c02565b602060405180830381865af415801561123f573d6000803e3d6000fd5b505050506040513d601f19601f820116820180604052508101906112639190613c5c565b8160090160000181905550600181600b0160006101000a81548160ff0219169083600581111561129657611295613504565b5b02179055508060000160009054906101000a900473ffffffffffffffffffffffffffffffffffffffff1673ffffffffffffffffffffffffffffffffffffffff166000547f20669ac1da79ef826aa0f4e5e5b00ae0f2ed6e7c6eceb274c6fb43976204217e8360010160009054906101000a900473ffffffffffffffffffffffffffffffffffffffff168460090160000154604051611335929190613c89565b60405180910390a3600460008260000160009054906101000a900473ffffffffffffffffffffffffffffffffffffffff1673ffffffffffffffffffffffffffffffffffffffff1673ffffffffffffffffffffffffffffffffffffffff16815260200190815260200160002060005490806001815401808255809150506001900390600052602060002001600090919091909150556000808154809291906113db906139d3565b919050555050509695505050505050565b600d5481565b6000806001600084815260200190815260200160002090506003600581111561141e5761141d613504565b5b60016000858152602001908152602001600020600b0160009054906101000a900460ff16600581111561145457611453613504565b5b1461145f57506115cb565b8060090160010160009054906101000a900463ffffffff168160040160040160049054906101000a900463ffffffff166114999190613788565b915060008160040160040160049054906101000a900463ffffffff166114be856115ff565b6114c89190613cb2565b905060008163ffffffff16111561153e5760008260090160010160009054906101000a900463ffffffff16826114fe9190613d15565b600161150a9190613788565b90508260090160010160009054906101000a900463ffffffff168161152f9190613d46565b8461153a9190613788565b9350505b81600401600401600c9054906101000a900463ffffffff168260040160040160049054906101000a900463ffffffff166115789190613788565b63ffffffff168363ffffffff1611156115c85781600401600401600c9054906101000a900463ffffffff168260040160040160049054906101000a900463ffffffff166115c59190613788565b92505b50505b919050565b600e5481565b60105481565b60056020528060005260406000206000915054906101000a900463ffffffff1681565b600061161c60016000848152602001908152602001600020612c9b565b9050919050565b60005481565b600f5481565b600b60009054906101000a900473ffffffffffffffffffffffffffffffffffffffff1681565b60016020528060005260406000206000915090508060000160009054906101000a900473ffffffffffffffffffffffffffffffffffffffff16908060010160009054906101000a900473ffffffffffffffffffffffffffffffffffffffff16908060020160009054906101000a900473ffffffffffffffffffffffffffffffffffffffff1690806003015490806004016040518060e00160405290816000820160009054906101000a900473ffffffffffffffffffffffffffffffffffffffff1673ffffffffffffffffffffffffffffffffffffffff1673ffffffffffffffffffffffffffffffffffffffff16815260200160018201548152602001600282016040518060400160405290816000820154815260200160018201548152505081526020016004820160009054906101000a900463ffffffff1663ffffffff1663ffffffff1681526020016004820160049054906101000a900463ffffffff1663ffffffff1663ffffffff1681526020016004820160089054906101000a900463ffffffff1663ffffffff1663ffffffff16815260200160048201600c9054906101000a900463ffffffff1663ffffffff1663ffffffff16815250509080600901604051806060016040529081600082015481526020016001820160009054906101000a900463ffffffff1663ffffffff1663ffffffff1681526020016001820160049054906101000a900461ffff1661ffff1661ffff16815250509080600b0160009054906101000a900460ff16905087565b600460205281600052604060002081815481106118a457600080fd5b90600052602060002001600091509150505481565b601160205282600052604060002060205281600052604060002060205280600052604060002060009250925050508060000154908060010160009054906101000a900463ffffffff16908060010160049054906101000a900463ffffffff16908060010160089054906101000a900461ffff16908060020154905085565b6000806000836001600581111561195157611950613504565b5b60016000838152602001908152602001600020600b0160009054906101000a900460ff16600581111561198757611986613504565b5b146119c7576040517f08c379a00000000000000000000000000000000000000000000000000000000081526004016119be90613dd0565b60405180910390fd5b60006001600087815260200190815260200160002090506000600860009054906101000a900473ffffffffffffffffffffffffffffffffffffffff1673ffffffffffffffffffffffffffffffffffffffff1663cf6539208360030154336040518363ffffffff1660e01b8152600401611a41929190613a1c565b6040805180830381865afa158015611a5d573d6000803e3d6000fd5b505050506040513d601f19601f82011682018060405250810190611a819190613a7b565b50905080611ac4576040517f08c379a0000000000000000000000000000000000000000000000000000000008152600401611abb90613e3c565b60405180910390fd5b600860009054906101000a900473ffffffffffffffffffffffffffffffffffffffff1673ffffffffffffffffffffffffffffffffffffffff1663a8380df183600301546040518263ffffffff1660e01b8152600401611b2391906130ee565b602060405180830381865afa158015611b40573d6000803e3d6000fd5b505050506040513d601f19601f82011682018060405250810190611b6491906139a6565b15611ba4576040517f08c379a0000000000000000000000000000000000000000000000000000000008152600401611b9b90613b73565b60405180910390fd5b611bad876105a8565b15611bed576040517f08c379a0000000000000000000000000000000000000000000000000000000008152600401611be490613ea8565b60405180910390fd5b428260040160040160046101000a81548163ffffffff021916908363ffffffff160217905550428260040160040160086101000a81548163ffffffff021916908363ffffffff160217905550600382600b0160006101000a81548160ff02191690836005811115611c6157611c60613504565b5b0217905550338260020160006101000a81548173ffffffffffffffffffffffffffffffffffffffff021916908373ffffffffffffffffffffffffffffffffffffffff16021790555073__LibCalculations_______________________633fb340038360040160010154600960009054906101000a900473ffffffffffffffffffffffffffffffffffffffff1673ffffffffffffffffffffffffffffffffffffffff1663b0e21e8a6040518163ffffffff1660e01b8152600401602060405180830381865afa158015611d38573d6000803e3d6000fd5b505050506040513d601f19601f82011682018060405250810190611d5c9190613edd565b6040518363ffffffff1660e01b8152600401611d79929190613f0a565b602060405180830381865af4158015611d96573d6000803e3d6000fd5b505050506040513d601f19601f82011682018060405250810190611dba9190613c5c565b955073__LibCalculations_______________________633fb340038360040160010154600860009054906101000a900473ffffffffffffffffffffffffffffffffffffffff1673ffffffffffffffffffffffffffffffffffffffff1663635f1e4d86600301546040518263ffffffff1660e01b8152600401611e3d91906130ee565b602060405180830381865afa158015611e5a573d6000803e3d6000fd5b505050506040513d601f19601f82011682018060405250810190611e7e9190613edd565b6040518363ffffffff1660e01b8152600401611e9b929190613f0a565b602060405180830381865af4158015611eb8573d6000803e3d6000fd5b505050506040513d601f19601f82011682018060405250810190611edc9190613c5c565b945084868360040160010154611ef29190613f33565b611efc9190613f33565b93508160040160000160009054906101000a900473ffffffffffffffffffffffffffffffffffffffff1673ffffffffffffffffffffffffffffffffffffffff166323b872dd8360020160009054906101000a900473ffffffffffffffffffffffffffffffffffffffff16600960009054906101000a900473ffffffffffffffffffffffffffffffffffffffff1673ffffffffffffffffffffffffffffffffffffffff16634dd9ccb16040518163ffffffff1660e01b8152600401602060405180830381865afa158015611fd3573d6000803e3d6000fd5b505050506040513d601f19601f82011682018060405250810190611ff79190613916565b896040518463ffffffff1660e01b815260040161201693929190613943565b6020604051808303816000875af1158015612035573d6000803e3d6000fd5b505050506040513d601f19601f8201168201806040525081019061205991906139a6565b508160040160000160009054906101000a900473ffffffffffffffffffffffffffffffffffffffff1673ffffffffffffffffffffffffffffffffffffffff166323b872dd8360020160009054906101000a900473ffffffffffffffffffffffffffffffffffffffff16600860009054906101000a900473ffffffffffffffffffffffffffffffffffffffff1673ffffffffffffffffffffffffffffffffffffffff16636e34b4e486600301546040518263ffffffff1660e01b815260040161212191906130ee565b602060405180830381865afa15801561213e573d6000803e3d6000fd5b505050506040513d601f19601f820116820180604052508101906121629190613916565b886040518463ffffffff1660e01b815260040161218193929190613943565b6020604051808303816000875af11580156121a0573d6000803e3d6000fd5b505050506040513d601f19601f820116820180604052508101906121c491906139a6565b508160040160000160009054906101000a900473ffffffffffffffffffffffffffffffffffffffff1673ffffffffffffffffffffffffffffffffffffffff166323b872dd8360020160009054906101000a900473ffffffffffffffffffffffffffffffffffffffff168460000160009054906101000a900473ffffffffffffffffffffffffffffffffffffffff16876040518463ffffffff1660e01b815260040161227193929190613943565b6020604051808303816000875af1158015612290573d6000803e3d6000fd5b505050506040513d601f19601f820116820180604052508101906122b491906139a6565b508160040160010154600760008460040160000160009054906101000a900473ffffffffffffffffffffffffffffffffffffffff1673ffffffffffffffffffffffffffffffffffffffff1673ffffffffffffffffffffffffffffffffffffffff16815260200190815260200160002060008460020160009054906101000a900473ffffffffffffffffffffffffffffffffffffffff1673ffffffffffffffffffffffffffffffffffffffff1673ffffffffffffffffffffffffffffffffffffffff1681526020019081526020016000206000828254612393919061383f565b925050819055508160040160010154600360008460040160000160009054906101000a900473ffffffffffffffffffffffffffffffffffffffff1673ffffffffffffffffffffffffffffffffffffffff1673ffffffffffffffffffffffffffffffffffffffff1681526020019081526020016000206000828254612417919061383f565b9250508190555061249387600260008560000160009054906101000a900473ffffffffffffffffffffffffffffffffffffffff1673ffffffffffffffffffffffffffffffffffffffff1673ffffffffffffffffffffffffffffffffffffffff168152602001908152602001600020612cfe90919063ffffffff16565b508160020160009054906101000a900473ffffffffffffffffffffffffffffffffffffffff1673ffffffffffffffffffffffffffffffffffffffff16877fc175daba6d0afff1f048fc218620bf5012c03afa26af397bacbf30f7341d343060405160405180910390a38560405161250990613fbe565b6040518091039020887f9d2e18d1e551e6728496dd39a969d9fe809fe60c0c8c9cabfda8be718e5387cf60405160405180910390a48460405161254b9061401f565b6040518091039020887f9d2e18d1e551e6728496dd39a969d9fe809fe60c0c8c9cabfda8be718e5387cf60405160405180910390a48360405161258d90614080565b6040518091039020887f9d2e18d1e551e6728496dd39a969d9fe809fe60c0c8c9cabfda8be718e5387cf60405160405180910390a45050509193909250565b600080600160008481526020019081526020016000209050600360058111156125f8576125f7613504565b5b81600b0160009054906101000a900460ff16600581111561261c5761261b613504565b5b1461262b5760009150506126b0565b60006005600085815260200190815260200160002060009054906101000a900463ffffffff1663ffffffff1614156126675760009150506126b0565b6005600084815260200190815260200160002060009054906101000a900463ffffffff1663ffffffff1661269a846115ff565b426126a59190613cb2565b63ffffffff16119150505b919050565b6007602052816000526040600020602052806000526040600020600091509150505481565b6000806000612782856004016001015486600401600201600001548760090160010160049054906101000a900461ffff1688600901600001548960090160010160009054906101000a900463ffffffff1663ffffffff1661273a8b612c9b565b63ffffffff168a8c60040160040160049054906101000a900463ffffffff1663ffffffff168d600401600401600c9054906101000a900463ffffffff1663ffffffff16612d18565b9250925092509250925092565b60006001600085815260200190815260200160002090506000836020015184600001516127bc919061383f565b90506000826003015490506000600860009054906101000a900473ffffffffffffffffffffffffffffffffffffffff1673ffffffffffffffffffffffffffffffffffffffff1662a5ae21836040518263ffffffff1660e01b815260040161282391906130ee565b602060405180830381865afa158015612840573d6000803e3d6000fd5b505050506040513d601f19601f820116820180604052508101906128649190613916565b90506000600a60009054906101000a900473ffffffffffffffffffffffffffffffffffffffff1673ffffffffffffffffffffffffffffffffffffffff16635a981b7f8660000160009054906101000a900473ffffffffffffffffffffffffffffffffffffffff168a856040518463ffffffff1660e01b81526004016128eb93929190614095565b6020604051808303816000875af115801561290a573d6000803e3d6000fd5b505050506040513d601f19601f8201168201806040525081019061292e91906140f1565b9050858410612a0f57859350600485600b0160006101000a81548160ff0219169083600581111561296257612961613504565b5b02179055506129dc88600260008860000160009054906101000a900473ffffffffffffffffffffffffffffffffffffffff1673ffffffffffffffffffffffffffffffffffffffff1673ffffffffffffffffffffffffffffffffffffffff168152602001908152602001600020612e0190919063ffffffff16565b50877f9a7851747cd7ffb3fe0a32caf3da48b31f27cebe131267051640f8b72fc4718660405160405180910390a2612a3d565b877f68ca97895fe2d09eab47e752271728ade667e72dda27e68c20eaa191a9c2187d60405160405180910390a25b8460040160000160009054906101000a900473ffffffffffffffffffffffffffffffffffffffff1673ffffffffffffffffffffffffffffffffffffffff166323b872dd8660000160009054906101000a900473ffffffffffffffffffffffffffffffffffffffff168760020160009054906101000a900473ffffffffffffffffffffffffffffffffffffffff16876040518463ffffffff1660e01b8152600401612ae993929190613943565b6020604051808303816000875af1158015612b08573d6000803e3d6000fd5b505050506040513d601f19601f82011682018060405250810190612b2c91906139a6565b508660000151856004016002016000016000828254612b4b919061383f565b925050819055508660200151856004016002016001016000828254612b70919061383f565b92505081905550428560040160040160086101000a81548163ffffffff021916908363ffffffff16021790555060006002811115612bb157612bb0613504565b5b816002811115612bc457612bc3613504565b5b14612c9157600a60009054906101000a900473ffffffffffffffffffffffffffffffffffffffff1673ffffffffffffffffffffffffffffffffffffffff16635a981b7f8660000160009054906101000a900473ffffffffffffffffffffffffffffffffffffffff168a856040518463ffffffff1660e01b8152600401612c4c93929190614095565b6020604051808303816000875af1158015612c6b573d6000803e3d6000fd5b505050506040513d601f19601f82011682018060405250810190612c8f91906140f1565b505b5050505050505050565b6000808260040160040160089054906101000a900463ffffffff1663ffffffff1614612cde578160040160040160089054906101000a900463ffffffff16612cf7565b8160040160040160049054906101000a900463ffffffff165b9050919050565b6000612d10836000018360001b612e1b565b905092915050565b60008060008a8c612d299190613f33565b92506000612d37848c612e8b565b905060008888612d479190613f33565b90506301e133808183612d5a919061411e565b612d649190614178565b925060008789612d7491906141b3565b87612d7f91906141b3565b905060008b821280612d9c57508c8588612d99919061383f565b11155b9050600081612dab578d612db8565b8588612db7919061383f565b5b905060008d8583612dc9919061411e565b612dd39190614178565b9050612dea8782612de49190613f33565b8a612ea5565b975050505050505099509950999650505050505050565b6000612e13836000018360001b612ebe565b905092915050565b6000612e278383612fd2565b612e80578260000182908060018154018082558091505060019003906000526020600020016000909190919091505582600001805490508360010160008481526020019081526020016000208190555060019050612e85565b600090505b92915050565b6000612e9d838361ffff166002612ff5565b905092915050565b6000818310612eb45781612eb6565b825b905092915050565b60008083600101600084815260200190815260200160002054905060008114612fc6576000600182612ef09190613f33565b9050600060018660000180549050612f089190613f33565b9050818114612f77576000866000018281548110612f2957612f28614247565b5b9060005260206000200154905080876000018481548110612f4d57612f4c614247565b5b90600052602060002001819055508387600101600083815260200190815260200160002081905550505b85600001805480612f8b57612f8a614276565b5b600190038181906000526020600020016000905590558560010160008681526020019081526020016000206000905560019350505050612fcc565b60009150505b92915050565b600080836001016000848152602001908152602001600020541415905092915050565b60006130008261301f565b838561300c919061411e565b6130169190614178565b90509392505050565b600081600a61302e91906143d8565b606461303a919061411e565b9050919050565b600080fd5b6000819050919050565b61305981613046565b811461306457600080fd5b50565b60008135905061307681613050565b92915050565b60006020828403121561309257613091613041565b5b60006130a084828501613067565b91505092915050565b60008115159050919050565b6130be816130a9565b82525050565b60006020820190506130d960008301846130b5565b92915050565b6130e881613046565b82525050565b600060208201905061310360008301846130df565b92915050565b600073ffffffffffffffffffffffffffffffffffffffff82169050919050565b600061313482613109565b9050919050565b61314481613129565b811461314f57600080fd5b50565b6000813590506131618161313b565b92915050565b600063ffffffff82169050919050565b61318081613167565b811461318b57600080fd5b50565b60008135905061319d81613177565b92915050565b600061ffff82169050919050565b6131ba816131a3565b81146131c557600080fd5b50565b6000813590506131d7816131b1565b92915050565b60008060008060008060c087890312156131fa576131f9613041565b5b600061320889828a01613067565b965050602061321989828a01613152565b955050604061322a89828a01613067565b945050606061323b89828a0161318e565b935050608061324c89828a016131c8565b92505060a061325d89828a0161318e565b9150509295509295509295565b6000602082840312156132805761327f613041565b5b600061328e84828501613152565b91505092915050565b6132a081613167565b82525050565b60006020820190506132bb6000830184613297565b92915050565b60008060008060008060c087890312156132de576132dd613041565b5b60006132ec89828a01613152565b96505060206132fd89828a01613067565b955050604061330e89828a01613067565b945050606061331f89828a0161318e565b935050608061333089828a016131c8565b92505060a061334189828a01613152565b9150509295509295509295565b61335781613129565b82525050565b6000602082019050613372600083018461334e565b92915050565b6000819050919050565b600061339d61339861339384613109565b613378565b613109565b9050919050565b60006133af82613382565b9050919050565b60006133c1826133a4565b9050919050565b6133d1816133b6565b82525050565b6133e081613046565b82525050565b6040820160008201516133fc60008501826133d7565b50602082015161340f60208501826133d7565b50505050565b61341e81613167565b82525050565b6101008201600082015161343b60008501826133c8565b50602082015161344e60208501826133d7565b50604082015161346160408501826133e6565b5060608201516134746080850182613415565b50608082015161348760a0850182613415565b5060a082015161349a60c0850182613415565b5060c08201516134ad60e0850182613415565b50505050565b6134bc816131a3565b82525050565b6060820160008201516134d860008501826133d7565b5060208201516134eb6020850182613415565b5060408201516134fe60408501826134b3565b50505050565b7f4e487b7100000000000000000000000000000000000000000000000000000000600052602160045260246000fd5b6006811061354457613543613504565b5b50565b600081905061355582613533565b919050565b600061356582613547565b9050919050565b6135758161355a565b82525050565b600061020082019050613591600083018a61334e565b61359e602083018961334e565b6135ab604083018861334e565b6135b860608301876130df565b6135c56080830186613424565b6135d36101808301856134c2565b6135e16101e083018461356c565b98975050505050505050565b6000806040838503121561360457613603613041565b5b600061361285828601613152565b925050602061362385828601613067565b9150509250929050565b60008060006060848603121561364657613645613041565b5b600061365486828701613152565b935050602061366586828701613067565b925050604061367686828701613152565b9150509250925092565b613689816131a3565b82525050565b600060a0820190506136a460008301886130df565b6136b16020830187613297565b6136be6040830186613297565b6136cb6060830185613680565b6136d860808301846130df565b9695505050505050565b60006060820190506136f760008301866130df565b61370460208301856130df565b61371160408301846130df565b949350505050565b600080604083850312156137305761372f613041565b5b600061373e85828601613152565b925050602061374f85828601613152565b9150509250929050565b7f4e487b7100000000000000000000000000000000000000000000000000000000600052601160045260246000fd5b600061379382613167565b915061379e83613167565b92508263ffffffff038211156137b7576137b6613759565b5b828201905092915050565b600082825260208201905092915050565b7f4c6f616e206d7573742062652061636365707465640000000000000000000000600082015250565b60006138096015836137c2565b9150613814826137d3565b602082019050919050565b60006020820190508181036000830152613838816137fc565b9050919050565b600061384a82613046565b915061385583613046565b9250827fffffffffffffffffffffffffffffffffffffffffffffffffffffffffffffffff0382111561388a57613889613759565b5b828201905092915050565b7f77726f6e672074696d657374616d700000000000000000000000000000000000600082015250565b60006138cb600f836137c2565b91506138d682613895565b602082019050919050565b600060208201905081810360008301526138fa816138be565b9050919050565b6000815190506139108161313b565b92915050565b60006020828403121561392c5761392b613041565b5b600061393a84828501613901565b91505092915050565b6000606082019050613958600083018661334e565b613965602083018561334e565b61397260408301846130df565b949350505050565b613983816130a9565b811461398e57600080fd5b50565b6000815190506139a08161397a565b92915050565b6000602082840312156139bc576139bb613041565b5b60006139ca84828501613991565b91505092915050565b60006139de82613046565b91507fffffffffffffffffffffffffffffffffffffffffffffffffffffffffffffffff821415613a1157613a10613759565b5b600182019050919050565b6000604082019050613a3160008301856130df565b613a3e602083018461334e565b9392505050565b6000819050919050565b613a5881613a45565b8114613a6357600080fd5b50565b600081519050613a7581613a4f565b92915050565b60008060408385031215613a9257613a91613041565b5b6000613aa085828601613991565b9250506020613ab185828601613a66565b9150509250929050565b7f4e6f7420766572696669656420626f72726f7765720000000000000000000000600082015250565b6000613af16015836137c2565b9150613afc82613abb565b602082019050919050565b60006020820190508181036000830152613b2081613ae4565b9050919050565b7f506f6f6c20697320636c6f736564000000000000000000000000000000000000600082015250565b6000613b5d600e836137c2565b9150613b6882613b27565b602082019050919050565b60006020820190508181036000830152613b8c81613b50565b9050919050565b600081519050613ba281613177565b92915050565b600060208284031215613bbe57613bbd613041565b5b6000613bcc84828501613b93565b91505092915050565b613bde81613046565b82525050565b613bed81613167565b82525050565b613bfc816131a3565b82525050565b6000608082019050613c176000830187613bd5565b613c246020830186613be4565b613c316040830185613be4565b613c3e6060830184613bf3565b95945050505050565b600081519050613c5681613050565b92915050565b600060208284031215613c7257613c71613041565b5b6000613c8084828501613c47565b91505092915050565b6000604082019050613c9e600083018561334e565b613cab60208301846130df565b9392505050565b6000613cbd82613167565b9150613cc883613167565b925082821015613cdb57613cda613759565b5b828203905092915050565b7f4e487b7100000000000000000000000000000000000000000000000000000000600052601260045260246000fd5b6000613d2082613167565b9150613d2b83613167565b925082613d3b57613d3a613ce6565b5b828204905092915050565b6000613d5182613167565b9150613d5c83613167565b92508163ffffffff0483118215151615613d7957613d78613759565b5b828202905092915050565b7f4c6f616e206d7573742062652070656e64696e67000000000000000000000000600082015250565b6000613dba6014836137c2565b9150613dc582613d84565b602082019050919050565b60006020820190508181036000830152613de981613dad565b9050919050565b7f4e6f74207665726966696564206c656e64657200000000000000000000000000600082015250565b6000613e266013836137c2565b9150613e3182613df0565b602082019050919050565b60006020820190508181036000830152613e5581613e19565b9050919050565b7f4c6f616e20686173206578706972656400000000000000000000000000000000600082015250565b6000613e926010836137c2565b9150613e9d82613e5c565b602082019050919050565b60006020820190508181036000830152613ec181613e85565b9050919050565b600081519050613ed7816131b1565b92915050565b600060208284031215613ef357613ef2613041565b5b6000613f0184828501613ec8565b91505092915050565b6000604082019050613f1f6000830185613bd5565b613f2c6020830184613bf3565b9392505050565b6000613f3e82613046565b9150613f4983613046565b925082821015613f5c57613f5b613759565b5b828203905092915050565b600081905092915050565b7f70726f746f636f6c000000000000000000000000000000000000000000000000600082015250565b6000613fa8600883613f67565b9150613fb382613f72565b600882019050919050565b6000613fc982613f9b565b9150819050919050565b7f506f6f6c00000000000000000000000000000000000000000000000000000000600082015250565b6000614009600483613f67565b915061401482613fd3565b600482019050919050565b600061402a82613ffc565b9150819050919050565b7f426f72726f776572000000000000000000000000000000000000000000000000600082015250565b600061406a600883613f67565b915061407582614034565b600882019050919050565b600061408b8261405d565b9150819050919050565b60006060820190506140aa600083018661334e565b6140b760208301856130df565b6140c4604083018461334e565b949350505050565b600381106140d957600080fd5b50565b6000815190506140eb816140cc565b92915050565b60006020828403121561410757614106613041565b5b6000614115848285016140dc565b91505092915050565b600061412982613046565b915061413483613046565b9250817fffffffffffffffffffffffffffffffffffffffffffffffffffffffffffffffff048311821515161561416d5761416c613759565b5b828202905092915050565b600061418382613046565b915061418e83613046565b92508261419e5761419d613ce6565b5b828204905092915050565b6000819050919050565b60006141be826141a9565b91506141c9836141a9565b9250827f80000000000000000000000000000000000000000000000000000000000000000182126000841215161561420457614203613759565b5b827f7fffffffffffffffffffffffffffffffffffffffffffffffffffffffffffffff01821360008412161561423c5761423b613759565b5b828203905092915050565b7f4e487b7100000000000000000000000000000000000000000000000000000000600052603260045260246000fd5b7f4e487b7100000000000000000000000000000000000000000000000000000000600052603160045260246000fd5b60008160011c9050919050565b6000808291508390505b60018511156142fc578086048111156142d8576142d7613759565b5b60018516156142e75780820291505b80810290506142f5856142a5565b94506142bc565b94509492505050565b60008261431557600190506143d1565b8161432357600090506143d1565b8160018114614339576002811461434357614372565b60019150506143d1565b60ff84111561435557614354613759565b5b8360020a91508482111561436c5761436b613759565b5b506143d1565b5060208310610133831016604e8410600b84101617156143a75782820a9050838111156143a2576143a1613759565b5b6143d1565b6143b484848460016142b2565b925090508184048111156143cb576143ca613759565b5b81810290505b9392505050565b60006143e382613046565b91506143ee83613046565b925061441b7fffffffffffffffffffffffffffffffffffffffffffffffffffffffffffffffff8484614305565b90509291505056fea2646970667358221220a24130343075956472198e41f3267d2bd8e575bd056e54506a51aace31564c1e64736f6c634300080b0033",
  "immutableReferences": {},
  "source": "// SPDX-License-Identifier: MIT\npragma solidity >=0.4.22 <0.9.0;\n\nimport \"@openzeppelin/contracts/token/ERC20/IERC20.sol\";\nimport {SafeMath} from \"@openzeppelin/contracts/utils/math/SafeMath.sol\";\nimport {EnumerableSet} from \"@openzeppelin/contracts/utils/structs/EnumerableSet.sol\";\nimport \"./poolRegistry.sol\";\nimport \"./poolStorage.sol\";\nimport \"./AconomyFee.sol\";\nimport \"./accountStatus.sol\";\nimport \"./Libraries/LibCalculations.sol\";\nimport \"./interfaces/IaccountStatus.sol\";\n\nimport \"@openzeppelin/contracts/utils/Address.sol\";\nimport \"@openzeppelin/contracts/utils/math/Math.sol\";\nimport \"@openzeppelin/contracts/token/ERC20/utils/SafeERC20.sol\";\n\n// a1=0x5B38Da6a701c568545dCfcB03FcB875f56beddC4\n// a2=0xAb8483F64d9C6d1EcF9b849Ae677dD3315835cb2\n\ncontract poolAddress is poolStorage {\n    address poolRegistryAddress;\n    address AconomyFeeAddress;\n    address accountStatusAddress;\n    address public poolOwner;\n    uint256 public paymentCycleDuration;\n    uint256 public paymentDefaultDuration;\n    uint256 public feePercent;\n    uint256 public createdAt;\n    uint256 public bidId = 0;\n\n    using SafeMath for uint256;\n    using EnumerableSet for EnumerableSet.UintSet;\n\n    constructor(\n        address _poolOwner,\n        address _poolRegistry,\n        address _AconomyFeeAddress,\n        address _accountStatusAddress,\n        uint256 _paymentCycleDuration,\n        uint256 _paymentDefaultDuration,\n        uint256 _feePercent\n    ) {\n        poolOwner = _poolOwner;\n        poolRegistryAddress = _poolRegistry;\n        AconomyFeeAddress = _AconomyFeeAddress;\n        paymentCycleDuration = _paymentCycleDuration;\n        paymentDefaultDuration = _paymentDefaultDuration;\n        feePercent = _feePercent;\n        createdAt = block.timestamp;\n    }\n\n    modifier pendingLoan(uint256 _loanId) {\n        if (loans[_loanId].state != LoanState.PENDING) {\n            revert(\"Loan must be pending\");\n        }\n        _;\n    }\n\n    modifier onlyPoolOwner(uint256 poolId) {\n        require(\n            msg.sender == poolRegistry(poolRegistryAddress).getPoolOwner(poolId)\n        );\n        _;\n    }\n\n    struct FundDetail {\n        uint256 amount;\n        uint32 expiration;\n        uint32 maxDuration;\n        uint16 interestRate;\n        uint256 bidId;\n    }\n\n    // Mapping of lender address => poolId => ERC20 token => FundDetail\n    mapping(address => mapping(uint256 => mapping(address => FundDetail)))\n        public lenderPoolFundDetails;\n\n    event loanAccepted(uint256 indexed loanId, address indexed lender);\n\n    event SupplyToPool(\n        address indexed lender,\n        uint256 indexed poolId,\n        address indexed ERC20Token,\n        uint256 tokenAmount\n    );\n\n    event repaidAmounts(\n        uint256 owedPrincipal,\n        uint256 duePrincipal,\n        uint256 interest\n    );\n    event AcceptedLoanDetail(\n        uint256 indexed loanId,\n        string indexed feeType,\n        uint256 indexed amount\n    );\n\n    event LoanRepaid(uint256 indexed bidId);\n    event LoanRepayment(uint256 indexed bidId);\n\n    event SubmittedLoan(\n        uint256 indexed loanId,\n        address indexed borrower,\n        address receiver,\n        uint256 paymentCycleAmount\n    );\n\n    function loanRequest(\n        address _lendingToken,\n        uint256 _poolId,\n        uint256 _principal,\n        uint32 _duration,\n        uint16 _APR,\n        address _receiver\n    ) public returns (uint256 loanId_) {\n        (bool isVerified, ) = poolRegistry(poolRegistryAddress)\n            .borrowerVarification(_poolId, msg.sender);\n        require(isVerified, \"Not verified borrower\");\n        require(\n            !poolRegistry(poolRegistryAddress).ClosedPool(_poolId),\n            \"Pool is closed\"\n        );\n\n        loanId_ = loanId;\n\n        // Create and store our loan into the mapping\n        Loan storage loan = loans[loanId];\n        loan.borrower = msg.sender;\n        loan.receiver = _receiver != address(0) ? _receiver : loan.borrower;\n        loan.poolId = _poolId;\n        loan.loanDetails.lendingToken = ERC20(_lendingToken);\n        loan.loanDetails.principal = _principal;\n        loan.loanDetails.loanDuration = _duration;\n        loan.loanDetails.timestamp = uint32(block.timestamp);\n\n        loan.terms.paymentCycle = poolRegistry(poolRegistryAddress)\n            .getPaymentCycleDuration(_poolId);\n\n        loan.terms.APR = _APR;\n\n        loanDefaultDuration[loanId] = poolRegistry(poolRegistryAddress)\n            .getPaymentDefaultDuration(_poolId);\n\n        loanExpirationTime[loanId] = poolRegistry(poolRegistryAddress)\n            .getloanExpirationTime(_poolId);\n\n        loan.terms.paymentCycleAmount = LibCalculations.payment(\n            _principal,\n            _duration,\n            loan.terms.paymentCycle,\n            _APR\n        );\n\n        loan.state = LoanState.PENDING;\n\n        emit SubmittedLoan(\n            loanId,\n            loan.borrower,\n            loan.receiver,\n            loan.terms.paymentCycleAmount\n        );\n\n        // Store loan inside borrower loans mapping\n        borrowerLoans[loan.borrower].push(loanId);\n\n        // Increment loan id\n        loanId++;\n    }\n\n    function AcceptLoan(uint256 _loanId)\n        external\n        pendingLoan(_loanId)\n        returns (\n            uint256 amountToAconomy,\n            uint256 amountToPool,\n            uint256 amountToBorrower\n        )\n    {\n        Loan storage loan = loans[_loanId];\n\n        (bool isVerified, ) = poolRegistry(poolRegistryAddress)\n            .lenderVarification(loan.poolId, msg.sender);\n\n        require(isVerified, \"Not verified lender\");\n        require(\n            !poolRegistry(poolRegistryAddress).ClosedPool(loan.poolId),\n            \"Pool is closed\"\n        );\n        require(!isLoanExpired(_loanId), \"Loan has expired\");\n\n        loan.loanDetails.acceptedTimestamp = uint32(block.timestamp);\n        loan.loanDetails.lastRepaidTimestamp = uint32(block.timestamp);\n\n        loan.state = LoanState.ACCEPTED;\n\n        loan.lender = msg.sender;\n\n        //Aconomy Fee\n        amountToAconomy = LibCalculations.percent(\n            loan.loanDetails.principal,\n            AconomyFee(AconomyFeeAddress).protocolFee()\n        );\n\n        //Pool Fee\n        amountToPool = LibCalculations.percent(\n            loan.loanDetails.principal,\n            poolRegistry(poolRegistryAddress).getPoolFee(loan.poolId)\n        );\n\n        //Amount to Borrower\n        amountToBorrower =\n            loan.loanDetails.principal -\n            amountToAconomy -\n            amountToPool;\n\n        //Transfer Aconomy Fee\n        IERC20(loan.loanDetails.lendingToken).transferFrom(\n            loan.lender,\n            AconomyFee(AconomyFeeAddress).getAconomyOwnerAddress(),\n            amountToAconomy\n        );\n\n        //Transfer to Pool Owner\n        IERC20(loan.loanDetails.lendingToken).transferFrom(\n            loan.lender,\n            poolRegistry(poolRegistryAddress).getPoolOwner(loan.poolId),\n            amountToPool\n        );\n\n        //transfer funds to borrower\n        IERC20(loan.loanDetails.lendingToken).transferFrom(\n            loan.lender,\n            loan.borrower,\n            amountToBorrower\n        );\n\n        // Record Amount filled by lenders\n        lenderLendAmount[address(loan.loanDetails.lendingToken)][\n            loan.lender\n        ] += loan.loanDetails.principal;\n        totalERC20Amount[address(loan.loanDetails.lendingToken)] += loan\n            .loanDetails\n            .principal;\n\n        // Store Borrower's active loan\n        borrowerActiveLoans[loan.borrower].add(_loanId);\n\n        emit loanAccepted(_loanId, loan.lender);\n\n        emit AcceptedLoanDetail(_loanId, \"protocol\", amountToAconomy);\n        emit AcceptedLoanDetail(_loanId, \"Pool\", amountToPool);\n        emit AcceptedLoanDetail(_loanId, \"Borrower\", amountToBorrower);\n    }\n\n    function isLoanExpired(uint256 _loanId) public view returns (bool) {\n        Loan storage loan = loans[_loanId];\n\n        if (loan.state != LoanState.PENDING) return false;\n        if (loanExpirationTime[_loanId] == 0) return false;\n\n        return (uint32(block.timestamp) >\n            loan.loanDetails.timestamp + loanExpirationTime[_loanId]);\n    }\n\n    function isLoanDefaulted(uint256 _loanId) public view returns (bool) {\n        Loan storage loan = loans[_loanId];\n\n        // Make sure loan cannot be liquidated if it is not active\n        if (loan.state != LoanState.ACCEPTED) return false;\n\n        if (loanDefaultDuration[_loanId] == 0) return false;\n\n        return (uint32(block.timestamp) - lastRepaidTimestamp(_loanId) >\n            loanDefaultDuration[_loanId]);\n    }\n\n    function lastRepaidTimestamp(uint256 _loanId) public view returns (uint32) {\n        return LibCalculations.lastRepaidTimestamp(loans[_loanId]);\n    }\n\n    function isPaymentLate(uint256 _loanId) public view returns (bool) {\n        if (loans[_loanId].state != LoanState.ACCEPTED) return false;\n        return uint32(block.timestamp) > calculateNextDueDate(_loanId);\n    }\n\n    function calculateNextDueDate(uint256 _loanId)\n        public\n        view\n        returns (uint32 dueDate_)\n    {\n        Loan storage loan = loans[_loanId];\n        if (loans[_loanId].state != LoanState.ACCEPTED) return dueDate_;\n\n        // Start with the original due date being 1 payment cycle since loan was accepted\n        dueDate_ = loan.loanDetails.acceptedTimestamp + loan.terms.paymentCycle;\n\n        // Calculate the cycle number the last repayment was made\n        uint32 delta = lastRepaidTimestamp(_loanId) -\n            loan.loanDetails.acceptedTimestamp;\n        if (delta > 0) {\n            uint32 repaymentCycle = 1 + (delta / loan.terms.paymentCycle);\n            dueDate_ += (repaymentCycle * loan.terms.paymentCycle);\n        }\n\n        //if we are in the last payment cycle, the next due date is the end of loan duration\n        if (\n            dueDate_ >\n            loan.loanDetails.acceptedTimestamp + loan.loanDetails.loanDuration\n        ) {\n            dueDate_ =\n                loan.loanDetails.acceptedTimestamp +\n                loan.loanDetails.loanDuration;\n        }\n    }\n\n    function repayYourLoan(uint256 _loanId) external {\n        if (loans[_loanId].state != LoanState.ACCEPTED) {\n            revert(\"Loan must be accepted\");\n        }\n        (\n            uint256 owedAmount,\n            uint256 dueAmount,\n            uint256 interest\n        ) = LibCalculations.owedAmount(loans[_loanId], block.timestamp);\n        _repayLoan(\n            _loanId,\n            Payment({principal: dueAmount, interest: interest}),\n            owedAmount + interest\n        );\n        emit repaidAmounts(owedAmount, dueAmount, interest);\n    }\n\n    function repayFullLoan(uint256 _loanId) external {\n        if (loans[_loanId].state != LoanState.ACCEPTED) {\n            revert(\"Loan must be accepted\");\n        }\n        (uint256 owedPrincipal, , uint256 interest) = LibCalculations\n            .owedAmount(loans[_loanId], block.timestamp);\n        _repayLoan(\n            _loanId,\n            Payment({principal: owedPrincipal, interest: interest}),\n            owedPrincipal + interest\n        );\n    }\n\n    function _repayLoan(\n        uint256 _loanId,\n        Payment memory _payment,\n        uint256 _owedAmount\n    ) internal {\n        Loan storage loan = loans[_loanId];\n        uint256 paymentAmount = _payment.principal + _payment.interest;\n        uint256 poolId_ = loan.poolId;\n        address poolAddress_ = poolRegistry(poolRegistryAddress).getPoolAddress(\n            poolId_\n        );\n\n        StatusMark status = accountStatus(accountStatusAddress).updateStatus(\n            loan.borrower,\n            _loanId,\n            poolAddress_\n        );\n\n        // Check if we are sending a payment or amount remaining\n        if (paymentAmount >= _owedAmount) {\n            paymentAmount = _owedAmount;\n            loan.state = LoanState.PAID;\n\n            // Remove borrower's active loan\n            borrowerActiveLoans[loan.borrower].remove(_loanId);\n\n            emit LoanRepaid(_loanId);\n        } else {\n            emit LoanRepayment(_loanId);\n        }\n        // Send payment to the lender\n        IERC20(loan.loanDetails.lendingToken).transferFrom(\n            loan.borrower,\n            loan.lender,\n            paymentAmount\n        );\n\n        loan.loanDetails.totalRepaid.principal += _payment.principal;\n        loan.loanDetails.totalRepaid.interest += _payment.interest;\n        loan.loanDetails.lastRepaidTimestamp = uint32(block.timestamp);\n\n        // If the loan is paid in full and has a mark, we should update the current status\n        if (status != StatusMark.Good) {\n            accountStatus(accountStatusAddress).updateStatus(\n                loan.borrower,\n                _loanId,\n                poolAddress_\n            );\n        }\n    }\n\n    //Supply to pool by lenders\n    function supplyToPool(\n        uint256 _poolId,\n        address _ERC20Address,\n        uint256 _amount,\n        uint32 _maxLoanDuration,\n        uint16 _interestRate,\n        uint32 _expiration\n    ) external {\n        address lender = msg.sender;\n        require(_expiration > uint32(block.timestamp), \"wrong timestamp\");\n        uint256 _bidId = bidId;\n        FundDetail storage fundDetail = lenderPoolFundDetails[lender][_poolId][\n            _ERC20Address\n        ];\n        fundDetail.amount = _amount;\n        fundDetail.expiration = _expiration;\n        fundDetail.maxDuration = _maxLoanDuration;\n        fundDetail.interestRate = _interestRate;\n        fundDetail.bidId = _bidId;\n\n        address _poolAddress = poolRegistry(poolRegistryAddress).getPoolAddress(\n            _poolId\n        );\n\n        // Send payment to the Pool\n        IERC20(_ERC20Address).transferFrom(lender, _poolAddress, _amount);\n        bidId++;\n\n        emit SupplyToPool(lender, _poolId, _ERC20Address, _amount);\n    }\n}\n",
  "sourcePath": "/Users/sanskarkhare/Desktop/Pandora/aconomy-pool-v1/contracts/poolAddress.sol",
  "compiler": {
    "name": "solc",
    "version": "0.8.11+commit.d7f03943.Emscripten.clang"
  },
  "schemaVersion": "3.4.4",
  "updatedAt": "2023-02-01T11:06:36.581Z",
  "devdoc": {
    "kind": "dev",
    "methods": {},
    "version": 1
  },
  "userdoc": {
    "kind": "user",
    "methods": {},
    "version": 1
  }
}