{
  "contractName": "poolAddress",
  "abi": [
    {
      "inputs": [
        {
          "internalType": "address",
          "name": "_poolOwner",
          "type": "address"
        },
        {
          "internalType": "address",
          "name": "_poolRegistry",
          "type": "address"
        },
        {
          "internalType": "address",
          "name": "_AconomyFeeAddress",
          "type": "address"
        },
        {
          "internalType": "uint256",
          "name": "_paymentCycleDuration",
          "type": "uint256"
        },
        {
          "internalType": "uint256",
          "name": "_paymentDefaultDuration",
          "type": "uint256"
        },
        {
          "internalType": "uint256",
          "name": "_feePercent",
          "type": "uint256"
        }
      ],
      "stateMutability": "nonpayable",
      "type": "constructor"
    },
    {
      "anonymous": false,
      "inputs": [
        {
          "indexed": true,
          "internalType": "uint256",
          "name": "loanId",
          "type": "uint256"
        },
        {
          "indexed": true,
          "internalType": "string",
          "name": "feeType",
          "type": "string"
        },
        {
          "indexed": true,
          "internalType": "uint256",
          "name": "amount",
          "type": "uint256"
        }
      ],
      "name": "AcceptedLoanDetail",
      "type": "event"
    },
    {
      "anonymous": false,
      "inputs": [
        {
          "indexed": true,
          "internalType": "uint256",
          "name": "loanId",
          "type": "uint256"
        },
        {
          "indexed": true,
          "internalType": "address",
          "name": "borrower",
          "type": "address"
        },
        {
          "indexed": false,
          "internalType": "address",
          "name": "receiver",
          "type": "address"
        },
        {
          "indexed": false,
          "internalType": "uint256",
          "name": "paymentCycleAmount",
          "type": "uint256"
        }
      ],
      "name": "SubmittedLoan",
      "type": "event"
    },
    {
      "anonymous": false,
      "inputs": [
        {
          "indexed": true,
          "internalType": "uint256",
          "name": "loanId",
          "type": "uint256"
        },
        {
          "indexed": true,
          "internalType": "address",
          "name": "lender",
          "type": "address"
        }
      ],
      "name": "loanAccepted",
      "type": "event"
    },
    {
      "anonymous": false,
      "inputs": [
        {
          "indexed": false,
          "internalType": "uint256",
          "name": "owedPrincipal",
          "type": "uint256"
        },
        {
          "indexed": false,
          "internalType": "uint256",
          "name": "duePrincipal",
          "type": "uint256"
        },
        {
          "indexed": false,
          "internalType": "uint256",
          "name": "interest",
          "type": "uint256"
        }
      ],
      "name": "res",
      "type": "event"
    },
    {
      "inputs": [
        {
          "internalType": "address",
          "name": "",
          "type": "address"
        },
        {
          "internalType": "uint256",
          "name": "",
          "type": "uint256"
        }
      ],
      "name": "borrowerLoans",
      "outputs": [
        {
          "internalType": "uint256",
          "name": "",
          "type": "uint256"
        }
      ],
      "stateMutability": "view",
      "type": "function"
    },
    {
      "inputs": [],
      "name": "createdAt",
      "outputs": [
        {
          "internalType": "uint256",
          "name": "",
          "type": "uint256"
        }
      ],
      "stateMutability": "view",
      "type": "function"
    },
    {
      "inputs": [],
      "name": "feePercent",
      "outputs": [
        {
          "internalType": "uint256",
          "name": "",
          "type": "uint256"
        }
      ],
      "stateMutability": "view",
      "type": "function"
    },
    {
      "inputs": [
        {
          "internalType": "address",
          "name": "",
          "type": "address"
        },
        {
          "internalType": "address",
          "name": "",
          "type": "address"
        }
      ],
      "name": "lenderLendAmount",
      "outputs": [
        {
          "internalType": "uint256",
          "name": "",
          "type": "uint256"
        }
      ],
      "stateMutability": "view",
      "type": "function"
    },
    {
      "inputs": [
        {
          "internalType": "uint256",
          "name": "",
          "type": "uint256"
        }
      ],
      "name": "loanDefaultDuration",
      "outputs": [
        {
          "internalType": "uint32",
          "name": "",
          "type": "uint32"
        }
      ],
      "stateMutability": "view",
      "type": "function"
    },
    {
      "inputs": [
        {
          "internalType": "uint256",
          "name": "",
          "type": "uint256"
        }
      ],
      "name": "loanExpirationTime",
      "outputs": [
        {
          "internalType": "uint32",
          "name": "",
          "type": "uint32"
        }
      ],
      "stateMutability": "view",
      "type": "function"
    },
    {
      "inputs": [],
      "name": "loanId",
      "outputs": [
        {
          "internalType": "uint256",
          "name": "",
          "type": "uint256"
        }
      ],
      "stateMutability": "view",
      "type": "function"
    },
    {
      "inputs": [
        {
          "internalType": "uint256",
          "name": "",
          "type": "uint256"
        }
      ],
      "name": "loans",
      "outputs": [
        {
          "internalType": "address",
          "name": "borrower",
          "type": "address"
        },
        {
          "internalType": "address",
          "name": "receiver",
          "type": "address"
        },
        {
          "internalType": "address",
          "name": "lender",
          "type": "address"
        },
        {
          "internalType": "uint256",
          "name": "poolId",
          "type": "uint256"
        },
        {
          "internalType": "bytes32",
          "name": "_metadataURI",
          "type": "bytes32"
        },
        {
          "components": [
            {
              "internalType": "contract ERC20",
              "name": "lendingToken",
              "type": "address"
            },
            {
              "internalType": "uint256",
              "name": "principal",
              "type": "uint256"
            },
            {
              "components": [
                {
                  "internalType": "uint256",
                  "name": "principal",
                  "type": "uint256"
                },
                {
                  "internalType": "uint256",
                  "name": "interest",
                  "type": "uint256"
                }
              ],
              "internalType": "struct poolStorage.Payment",
              "name": "totalRepaid",
              "type": "tuple"
            },
            {
              "internalType": "uint32",
              "name": "timestamp",
              "type": "uint32"
            },
            {
              "internalType": "uint32",
              "name": "acceptedTimestamp",
              "type": "uint32"
            },
            {
              "internalType": "uint32",
              "name": "lastRepaidTimestamp",
              "type": "uint32"
            },
            {
              "internalType": "uint32",
              "name": "loanDuration",
              "type": "uint32"
            }
          ],
          "internalType": "struct poolStorage.LoanDetails",
          "name": "loanDetails",
          "type": "tuple"
        },
        {
          "components": [
            {
              "internalType": "uint256",
              "name": "paymentCycleAmount",
              "type": "uint256"
            },
            {
              "internalType": "uint32",
              "name": "paymentCycle",
              "type": "uint32"
            },
            {
              "internalType": "uint16",
              "name": "APR",
              "type": "uint16"
            }
          ],
          "internalType": "struct poolStorage.Terms",
          "name": "terms",
          "type": "tuple"
        },
        {
          "internalType": "enum poolStorage.LoanState",
          "name": "state",
          "type": "uint8"
        }
      ],
      "stateMutability": "view",
      "type": "function"
    },
    {
      "inputs": [],
      "name": "paymentCycleDuration",
      "outputs": [
        {
          "internalType": "uint256",
          "name": "",
          "type": "uint256"
        }
      ],
      "stateMutability": "view",
      "type": "function"
    },
    {
      "inputs": [],
      "name": "paymentDefaultDuration",
      "outputs": [
        {
          "internalType": "uint256",
          "name": "",
          "type": "uint256"
        }
      ],
      "stateMutability": "view",
      "type": "function"
    },
    {
      "inputs": [],
      "name": "poolOwner",
      "outputs": [
        {
          "internalType": "address",
          "name": "",
          "type": "address"
        }
      ],
      "stateMutability": "view",
      "type": "function"
    },
    {
      "inputs": [
        {
          "internalType": "address",
          "name": "",
          "type": "address"
        }
      ],
      "name": "totalERC20Amount",
      "outputs": [
        {
          "internalType": "uint256",
          "name": "",
          "type": "uint256"
        }
      ],
      "stateMutability": "view",
      "type": "function"
    },
    {
      "inputs": [
        {
          "internalType": "address",
          "name": "_lendingToken",
          "type": "address"
        },
        {
          "internalType": "uint256",
          "name": "_poolId",
          "type": "uint256"
        },
        {
          "internalType": "uint256",
          "name": "_principal",
          "type": "uint256"
        },
        {
          "internalType": "uint32",
          "name": "_duration",
          "type": "uint32"
        },
        {
          "internalType": "uint16",
          "name": "_APR",
          "type": "uint16"
        },
        {
          "internalType": "address",
          "name": "_receiver",
          "type": "address"
        }
      ],
      "name": "loanRequest",
      "outputs": [
        {
          "internalType": "uint256",
          "name": "loanId_",
          "type": "uint256"
        }
      ],
      "stateMutability": "nonpayable",
      "type": "function"
    },
    {
      "inputs": [
        {
          "internalType": "uint256",
          "name": "_loanId",
          "type": "uint256"
        }
      ],
      "name": "AcceptLoan",
      "outputs": [
        {
          "internalType": "uint256",
          "name": "amountToAconomy",
          "type": "uint256"
        },
        {
          "internalType": "uint256",
          "name": "amountToPool",
          "type": "uint256"
        },
        {
          "internalType": "uint256",
          "name": "amountToBorrower",
          "type": "uint256"
        }
      ],
      "stateMutability": "nonpayable",
      "type": "function"
    },
    {
      "inputs": [
        {
          "internalType": "uint256",
          "name": "_loanId",
          "type": "uint256"
        }
      ],
      "name": "isLoanExpired",
      "outputs": [
        {
          "internalType": "bool",
          "name": "",
          "type": "bool"
        }
      ],
      "stateMutability": "view",
      "type": "function"
    },
    {
      "inputs": [
        {
          "internalType": "uint256",
          "name": "_loanId",
          "type": "uint256"
        }
      ],
      "name": "repayYourLoan",
      "outputs": [],
      "stateMutability": "nonpayable",
      "type": "function"
    }
  ],
  "bytecode": "0x6080604052600080553480156200001557600080fd5b5060405162002fb438038062002fb483398181016040528101906200003b9190620001cb565b85600a60006101000a81548173ffffffffffffffffffffffffffffffffffffffff021916908373ffffffffffffffffffffffffffffffffffffffff16021790555084600860006101000a81548173ffffffffffffffffffffffffffffffffffffffff021916908373ffffffffffffffffffffffffffffffffffffffff16021790555083600960006101000a81548173ffffffffffffffffffffffffffffffffffffffff021916908373ffffffffffffffffffffffffffffffffffffffff16021790555082600b8190555081600c8190555080600d8190555042600e8190555050505050505062000267565b600080fd5b600073ffffffffffffffffffffffffffffffffffffffff82169050919050565b600062000158826200012b565b9050919050565b6200016a816200014b565b81146200017657600080fd5b50565b6000815190506200018a816200015f565b92915050565b6000819050919050565b620001a58162000190565b8114620001b157600080fd5b50565b600081519050620001c5816200019a565b92915050565b60008060008060008060c08789031215620001eb57620001ea62000126565b5b6000620001fb89828a0162000179565b96505060206200020e89828a0162000179565b95505060406200022189828a0162000179565b94505060606200023489828a01620001b4565b93505060806200024789828a01620001b4565b92505060a06200025a89828a01620001b4565b9150509295509295509295565b612d3d80620002776000396000f3fe608060405234801561001057600080fd5b50600436106101005760003560e01c80638cda457111610097578063e1ec3c6811610066578063e1ec3c68146102c5578063e3ed1902146102fc578063e766a88f1461032c578063fee870e91461035e57610100565b80638cda45711461023b578063c95669a51461026b578063cf09e0d014610289578063cf0b2270146102a757610100565b80633a31f337116100d35780633a31f3371461019f57806360c661e6146101cf578063623b0db7146101ff5780637fd6f15c1461021d57610100565b806310618223146101055780631e042d1f14610135578063217f6ebe1461015157806330f2670c1461016f575b600080fd5b61011f600480360381019061011a9190611cf4565b61038e565b60405161012c9190611d3c565b60405180910390f35b61014f600480360381019061014a9190611cf4565b610486565b005b610159610577565b6040516101669190611d66565b60405180910390f35b61018960048036038101906101849190611ddf565b61057d565b6040516101969190611d66565b60405180910390f35b6101b960048036038101906101b49190611cf4565b610595565b6040516101c69190611e2b565b60405180910390f35b6101e960048036038101906101e49190611eac565b6105b8565b6040516101f69190611d66565b60405180910390f35b610207610dbe565b6040516102149190611d66565b60405180910390f35b610225610dc4565b6040516102329190611d66565b60405180910390f35b61025560048036038101906102509190611cf4565b610dca565b6040516102629190611e2b565b60405180910390f35b610273610ded565b6040516102809190611d66565b60405180910390f35b610291610df3565b60405161029e9190611d66565b60405180910390f35b6102af610df9565b6040516102bc9190611f48565b60405180910390f35b6102df60048036038101906102da9190611cf4565b610e1f565b6040516102f398979695949392919061217f565b60405180910390f35b610316600480360381019061031191906121ff565b611058565b6040516103239190611d66565b60405180910390f35b61034660048036038101906103419190611cf4565b611089565b6040516103559392919061223f565b60405180910390f35b61037860048036038101906103739190612276565b611967565b6040516103859190611d66565b60405180910390f35b600080600160008481526020019081526020016000209050600160058111156103ba576103b9612108565b5b81600c0160009054906101000a900460ff1660058111156103de576103dd612108565b5b146103ed576000915050610481565b60006006600085815260200190815260200160002060009054906101000a900463ffffffff1663ffffffff161415610429576000915050610481565b6006600084815260200190815260200160002060009054906101000a900463ffffffff168160050160040160009054906101000a900463ffffffff1661046f91906122e5565b63ffffffff164263ffffffff16119150505b919050565b6003600581111561049a57610499612108565b5b60016000838152602001908152602001600020600c0160009054906101000a900460ff1660058111156104d0576104cf612108565b5b14610510576040517f08c379a00000000000000000000000000000000000000000000000000000000081526004016105079061237c565b60405180910390fd5b6000806000610531600160008681526020019081526020016000204261198c565b9250925092507eff7848803e2fe00570c26d48c234b152021a22659b845e7e33857f406166798383836040516105699392919061223f565b60405180910390a150505050565b600b5481565b60036020528060005260406000206000915090505481565b60066020528060005260406000206000915054906101000a900463ffffffff1681565b600080600860009054906101000a900473ffffffffffffffffffffffffffffffffffffffff1673ffffffffffffffffffffffffffffffffffffffff1663918d59ea88336040518363ffffffff1660e01b815260040161061892919061239c565b6040805180830381865afa158015610634573d6000803e3d6000fd5b505050506040513d601f19601f82011682018060405250810190610658919061241d565b5090508061069b576040517f08c379a0000000000000000000000000000000000000000000000000000000008152600401610692906124a9565b60405180910390fd5b600860009054906101000a900473ffffffffffffffffffffffffffffffffffffffff1673ffffffffffffffffffffffffffffffffffffffff1663a8380df1886040518263ffffffff1660e01b81526004016106f69190611d66565b602060405180830381865afa158015610713573d6000803e3d6000fd5b505050506040513d601f19601f8201168201806040525081019061073791906124c9565b15610777576040517f08c379a000000000000000000000000000000000000000000000000000000000815260040161076e90612542565b60405180910390fd5b6000549150600060016000805481526020019081526020016000209050338160000160006101000a81548173ffffffffffffffffffffffffffffffffffffffff021916908373ffffffffffffffffffffffffffffffffffffffff160217905550600073ffffffffffffffffffffffffffffffffffffffff168473ffffffffffffffffffffffffffffffffffffffff161415610836578060000160009054906101000a900473ffffffffffffffffffffffffffffffffffffffff16610838565b835b8160010160006101000a81548173ffffffffffffffffffffffffffffffffffffffff021916908373ffffffffffffffffffffffffffffffffffffffff160217905550878160030181905550888160050160000160006101000a81548173ffffffffffffffffffffffffffffffffffffffff021916908373ffffffffffffffffffffffffffffffffffffffff1602179055508681600501600101819055508581600501600401600c6101000a81548163ffffffff021916908363ffffffff160217905550428160050160040160006101000a81548163ffffffff021916908363ffffffff160217905550600860009054906101000a900473ffffffffffffffffffffffffffffffffffffffff1673ffffffffffffffffffffffffffffffffffffffff1663805deb53896040518263ffffffff1660e01b815260040161097c9190611d66565b602060405180830381865afa158015610999573d6000803e3d6000fd5b505050506040513d601f19601f820116820180604052508101906109bd9190612577565b81600a0160010160006101000a81548163ffffffff021916908363ffffffff1602179055508481600a0160010160046101000a81548161ffff021916908361ffff160217905550600860009054906101000a900473ffffffffffffffffffffffffffffffffffffffff1673ffffffffffffffffffffffffffffffffffffffff166311bed5bb896040518263ffffffff1660e01b8152600401610a5f9190611d66565b602060405180830381865afa158015610a7c573d6000803e3d6000fd5b505050506040513d601f19601f82011682018060405250810190610aa09190612577565b600560008054815260200190815260200160002060006101000a81548163ffffffff021916908363ffffffff160217905550600860009054906101000a900473ffffffffffffffffffffffffffffffffffffffff1673ffffffffffffffffffffffffffffffffffffffff1663c28ba8eb896040518263ffffffff1660e01b8152600401610b2d9190611d66565b602060405180830381865afa158015610b4a573d6000803e3d6000fd5b505050506040513d601f19601f82011682018060405250810190610b6e9190612577565b600660008054815260200190815260200160002060006101000a81548163ffffffff021916908363ffffffff16021790555073__LibCalculations_______________________632872a887888884600a0160010160009054906101000a900463ffffffff16896040518563ffffffff1660e01b8152600401610bf494939291906125d1565b602060405180830381865af4158015610c11573d6000803e3d6000fd5b505050506040513d601f19601f82011682018060405250810190610c35919061262b565b81600a0160000181905550600181600c0160006101000a81548160ff02191690836005811115610c6857610c67612108565b5b02179055508060000160009054906101000a900473ffffffffffffffffffffffffffffffffffffffff1673ffffffffffffffffffffffffffffffffffffffff166000547f20669ac1da79ef826aa0f4e5e5b00ae0f2ed6e7c6eceb274c6fb43976204217e8360010160009054906101000a900473ffffffffffffffffffffffffffffffffffffffff1684600a0160000154604051610d07929190612658565b60405180910390a3600460008260000160009054906101000a900473ffffffffffffffffffffffffffffffffffffffff1673ffffffffffffffffffffffffffffffffffffffff1673ffffffffffffffffffffffffffffffffffffffff1681526020019081526020016000206000549080600181540180825580915050600190039060005260206000200160009091909190915055600080815480929190610dad90612681565b919050555050509695505050505050565b600c5481565b600d5481565b60056020528060005260406000206000915054906101000a900463ffffffff1681565b60005481565b600e5481565b600a60009054906101000a900473ffffffffffffffffffffffffffffffffffffffff1681565b60016020528060005260406000206000915090508060000160009054906101000a900473ffffffffffffffffffffffffffffffffffffffff16908060010160009054906101000a900473ffffffffffffffffffffffffffffffffffffffff16908060020160009054906101000a900473ffffffffffffffffffffffffffffffffffffffff1690806003015490806004015490806005016040518060e00160405290816000820160009054906101000a900473ffffffffffffffffffffffffffffffffffffffff1673ffffffffffffffffffffffffffffffffffffffff1673ffffffffffffffffffffffffffffffffffffffff16815260200160018201548152602001600282016040518060400160405290816000820154815260200160018201548152505081526020016004820160009054906101000a900463ffffffff1663ffffffff1663ffffffff1681526020016004820160049054906101000a900463ffffffff1663ffffffff1663ffffffff1681526020016004820160089054906101000a900463ffffffff1663ffffffff1663ffffffff16815260200160048201600c9054906101000a900463ffffffff1663ffffffff1663ffffffff16815250509080600a01604051806060016040529081600082015481526020016001820160009054906101000a900463ffffffff1663ffffffff1663ffffffff1681526020016001820160049054906101000a900461ffff1661ffff1661ffff16815250509080600c0160009054906101000a900460ff16905088565b6004602052816000526040600020818154811061107457600080fd5b90600052602060002001600091509150505481565b600080600083600160058111156110a3576110a2612108565b5b60016000838152602001908152602001600020600c0160009054906101000a900460ff1660058111156110d9576110d8612108565b5b14611119576040517f08c379a000000000000000000000000000000000000000000000000000000000815260040161111090612716565b60405180910390fd5b60006001600087815260200190815260200160002090506000600860009054906101000a900473ffffffffffffffffffffffffffffffffffffffff1673ffffffffffffffffffffffffffffffffffffffff1663cf6539208360030154336040518363ffffffff1660e01b815260040161119392919061239c565b6040805180830381865afa1580156111af573d6000803e3d6000fd5b505050506040513d601f19601f820116820180604052508101906111d3919061241d565b50905080611216576040517f08c379a000000000000000000000000000000000000000000000000000000000815260040161120d90612782565b60405180910390fd5b600860009054906101000a900473ffffffffffffffffffffffffffffffffffffffff1673ffffffffffffffffffffffffffffffffffffffff1663a8380df183600301546040518263ffffffff1660e01b81526004016112759190611d66565b602060405180830381865afa158015611292573d6000803e3d6000fd5b505050506040513d601f19601f820116820180604052508101906112b691906124c9565b156112f6576040517f08c379a00000000000000000000000000000000000000000000000000000000081526004016112ed90612542565b60405180910390fd5b6112ff8761038e565b1561133f576040517f08c379a0000000000000000000000000000000000000000000000000000000008152600401611336906127ee565b60405180910390fd5b428260050160040160046101000a81548163ffffffff021916908363ffffffff160217905550428260050160040160086101000a81548163ffffffff021916908363ffffffff160217905550600382600c0160006101000a81548160ff021916908360058111156113b3576113b2612108565b5b0217905550338260020160006101000a81548173ffffffffffffffffffffffffffffffffffffffff021916908373ffffffffffffffffffffffffffffffffffffffff16021790555073__LibCalculations_______________________633fb340038360050160010154600960009054906101000a900473ffffffffffffffffffffffffffffffffffffffff1673ffffffffffffffffffffffffffffffffffffffff1663b0e21e8a6040518163ffffffff1660e01b8152600401602060405180830381865afa15801561148a573d6000803e3d6000fd5b505050506040513d601f19601f820116820180604052508101906114ae9190612823565b6040518363ffffffff1660e01b81526004016114cb929190612850565b602060405180830381865af41580156114e8573d6000803e3d6000fd5b505050506040513d601f19601f8201168201806040525081019061150c919061262b565b955073__LibCalculations_______________________633fb340038360050160010154600860009054906101000a900473ffffffffffffffffffffffffffffffffffffffff1673ffffffffffffffffffffffffffffffffffffffff1663635f1e4d86600301546040518263ffffffff1660e01b815260040161158f9190611d66565b602060405180830381865afa1580156115ac573d6000803e3d6000fd5b505050506040513d601f19601f820116820180604052508101906115d09190612823565b6040518363ffffffff1660e01b81526004016115ed929190612850565b602060405180830381865af415801561160a573d6000803e3d6000fd5b505050506040513d601f19601f8201168201806040525081019061162e919061262b565b9450848683600501600101546116449190612879565b61164e9190612879565b93508160050160010154600760008460050160000160009054906101000a900473ffffffffffffffffffffffffffffffffffffffff1673ffffffffffffffffffffffffffffffffffffffff1673ffffffffffffffffffffffffffffffffffffffff16815260200190815260200160002060008460020160009054906101000a900473ffffffffffffffffffffffffffffffffffffffff1673ffffffffffffffffffffffffffffffffffffffff1673ffffffffffffffffffffffffffffffffffffffff168152602001908152602001600020600082825461172e91906128ad565b925050819055508160050160010154600360008460050160000160009054906101000a900473ffffffffffffffffffffffffffffffffffffffff1673ffffffffffffffffffffffffffffffffffffffff1673ffffffffffffffffffffffffffffffffffffffff16815260200190815260200160002060008282546117b291906128ad565b9250508190555061182e87600260008560000160009054906101000a900473ffffffffffffffffffffffffffffffffffffffff1673ffffffffffffffffffffffffffffffffffffffff1673ffffffffffffffffffffffffffffffffffffffff168152602001908152602001600020611a4190919063ffffffff16565b508160020160009054906101000a900473ffffffffffffffffffffffffffffffffffffffff1673ffffffffffffffffffffffffffffffffffffffff16877fc175daba6d0afff1f048fc218620bf5012c03afa26af397bacbf30f7341d343060405160405180910390a3856040516118a49061295a565b6040518091039020887f9d2e18d1e551e6728496dd39a969d9fe809fe60c0c8c9cabfda8be718e5387cf60405160405180910390a4846040516118e6906129bb565b6040518091039020887f9d2e18d1e551e6728496dd39a969d9fe809fe60c0c8c9cabfda8be718e5387cf60405160405180910390a48360405161192890612a1c565b6040518091039020887f9d2e18d1e551e6728496dd39a969d9fe809fe60c0c8c9cabfda8be718e5387cf60405160405180910390a45050509193909250565b6007602052816000526040600020602052806000526040600020600091509150505481565b6000806000611a348560050160010154866005016002016000015487600a0160010160049054906101000a900461ffff1688600a016000015489600a0160010160009054906101000a900463ffffffff1663ffffffff166119ec8b611a5b565b63ffffffff168a8c60050160040160049054906101000a900463ffffffff1663ffffffff168d600501600401600c9054906101000a900463ffffffff1663ffffffff16611abe565b9250925092509250925092565b6000611a53836000018360001b611ba7565b905092915050565b6000808260050160040160089054906101000a900463ffffffff1663ffffffff1614611a9e578160050160040160089054906101000a900463ffffffff16611ab7565b8160050160040160049054906101000a900463ffffffff165b9050919050565b60008060008a8c611acf9190612879565b92506000611add848c611c17565b905060008888611aed9190612879565b90506301e133808183611b009190612a31565b611b0a9190612aba565b925060008789611b1a9190612af5565b87611b259190612af5565b905060008b821280611b4257508c8588611b3f91906128ad565b11155b9050600081611b51578d611b5e565b8588611b5d91906128ad565b5b905060008d8583611b6f9190612a31565b611b799190612aba565b9050611b908782611b8a9190612879565b8a611c31565b975050505050505099509950999650505050505050565b6000611bb38383611c4a565b611c0c578260000182908060018154018082558091505060019003906000526020600020016000909190919091505582600001805490508360010160008481526020019081526020016000208190555060019050611c11565b600090505b92915050565b6000611c29838361ffff166002611c6d565b905092915050565b6000818310611c405781611c42565b825b905092915050565b600080836001016000848152602001908152602001600020541415905092915050565b6000611c7882611c97565b8385611c849190612a31565b611c8e9190612aba565b90509392505050565b600081600a611ca69190612cbc565b6064611cb29190612a31565b9050919050565b600080fd5b6000819050919050565b611cd181611cbe565b8114611cdc57600080fd5b50565b600081359050611cee81611cc8565b92915050565b600060208284031215611d0a57611d09611cb9565b5b6000611d1884828501611cdf565b91505092915050565b60008115159050919050565b611d3681611d21565b82525050565b6000602082019050611d516000830184611d2d565b92915050565b611d6081611cbe565b82525050565b6000602082019050611d7b6000830184611d57565b92915050565b600073ffffffffffffffffffffffffffffffffffffffff82169050919050565b6000611dac82611d81565b9050919050565b611dbc81611da1565b8114611dc757600080fd5b50565b600081359050611dd981611db3565b92915050565b600060208284031215611df557611df4611cb9565b5b6000611e0384828501611dca565b91505092915050565b600063ffffffff82169050919050565b611e2581611e0c565b82525050565b6000602082019050611e406000830184611e1c565b92915050565b611e4f81611e0c565b8114611e5a57600080fd5b50565b600081359050611e6c81611e46565b92915050565b600061ffff82169050919050565b611e8981611e72565b8114611e9457600080fd5b50565b600081359050611ea681611e80565b92915050565b60008060008060008060c08789031215611ec957611ec8611cb9565b5b6000611ed789828a01611dca565b9650506020611ee889828a01611cdf565b9550506040611ef989828a01611cdf565b9450506060611f0a89828a01611e5d565b9350506080611f1b89828a01611e97565b92505060a0611f2c89828a01611dca565b9150509295509295509295565b611f4281611da1565b82525050565b6000602082019050611f5d6000830184611f39565b92915050565b6000819050919050565b611f7681611f63565b82525050565b6000819050919050565b6000611fa1611f9c611f9784611d81565b611f7c565b611d81565b9050919050565b6000611fb382611f86565b9050919050565b6000611fc582611fa8565b9050919050565b611fd581611fba565b82525050565b611fe481611cbe565b82525050565b6040820160008201516120006000850182611fdb565b5060208201516120136020850182611fdb565b50505050565b61202281611e0c565b82525050565b6101008201600082015161203f6000850182611fcc565b5060208201516120526020850182611fdb565b5060408201516120656040850182611fea565b5060608201516120786080850182612019565b50608082015161208b60a0850182612019565b5060a082015161209e60c0850182612019565b5060c08201516120b160e0850182612019565b50505050565b6120c081611e72565b82525050565b6060820160008201516120dc6000850182611fdb565b5060208201516120ef6020850182612019565b50604082015161210260408501826120b7565b50505050565b7f4e487b7100000000000000000000000000000000000000000000000000000000600052602160045260246000fd5b6006811061214857612147612108565b5b50565b600081905061215982612137565b919050565b60006121698261214b565b9050919050565b6121798161215e565b82525050565b600061022082019050612195600083018b611f39565b6121a2602083018a611f39565b6121af6040830189611f39565b6121bc6060830188611d57565b6121c96080830187611f6d565b6121d660a0830186612028565b6121e46101a08301856120c6565b6121f2610200830184612170565b9998505050505050505050565b6000806040838503121561221657612215611cb9565b5b600061222485828601611dca565b925050602061223585828601611cdf565b9150509250929050565b60006060820190506122546000830186611d57565b6122616020830185611d57565b61226e6040830184611d57565b949350505050565b6000806040838503121561228d5761228c611cb9565b5b600061229b85828601611dca565b92505060206122ac85828601611dca565b9150509250929050565b7f4e487b7100000000000000000000000000000000000000000000000000000000600052601160045260246000fd5b60006122f082611e0c565b91506122fb83611e0c565b92508263ffffffff03821115612314576123136122b6565b5b828201905092915050565b600082825260208201905092915050565b7f4c6f616e206d7573742062652061636365707465640000000000000000000000600082015250565b600061236660158361231f565b915061237182612330565b602082019050919050565b6000602082019050818103600083015261239581612359565b9050919050565b60006040820190506123b16000830185611d57565b6123be6020830184611f39565b9392505050565b6123ce81611d21565b81146123d957600080fd5b50565b6000815190506123eb816123c5565b92915050565b6123fa81611f63565b811461240557600080fd5b50565b600081519050612417816123f1565b92915050565b6000806040838503121561243457612433611cb9565b5b6000612442858286016123dc565b925050602061245385828601612408565b9150509250929050565b7f4e6f7420766572696669656420626f72726f7765720000000000000000000000600082015250565b600061249360158361231f565b915061249e8261245d565b602082019050919050565b600060208201905081810360008301526124c281612486565b9050919050565b6000602082840312156124df576124de611cb9565b5b60006124ed848285016123dc565b91505092915050565b7f506f6f6c20697320636c6f736564000000000000000000000000000000000000600082015250565b600061252c600e8361231f565b9150612537826124f6565b602082019050919050565b6000602082019050818103600083015261255b8161251f565b9050919050565b60008151905061257181611e46565b92915050565b60006020828403121561258d5761258c611cb9565b5b600061259b84828501612562565b91505092915050565b6125ad81611cbe565b82525050565b6125bc81611e0c565b82525050565b6125cb81611e72565b82525050565b60006080820190506125e660008301876125a4565b6125f360208301866125b3565b61260060408301856125b3565b61260d60608301846125c2565b95945050505050565b60008151905061262581611cc8565b92915050565b60006020828403121561264157612640611cb9565b5b600061264f84828501612616565b91505092915050565b600060408201905061266d6000830185611f39565b61267a6020830184611d57565b9392505050565b600061268c82611cbe565b91507fffffffffffffffffffffffffffffffffffffffffffffffffffffffffffffffff8214156126bf576126be6122b6565b5b600182019050919050565b7f426964206d7573742062652070656e64696e6700000000000000000000000000600082015250565b600061270060138361231f565b915061270b826126ca565b602082019050919050565b6000602082019050818103600083015261272f816126f3565b9050919050565b7f4e6f74207665726966696564206c656e64657200000000000000000000000000600082015250565b600061276c60138361231f565b915061277782612736565b602082019050919050565b6000602082019050818103600083015261279b8161275f565b9050919050565b7f4c6f616e20686173206578706972656400000000000000000000000000000000600082015250565b60006127d860108361231f565b91506127e3826127a2565b602082019050919050565b60006020820190508181036000830152612807816127cb565b9050919050565b60008151905061281d81611e80565b92915050565b60006020828403121561283957612838611cb9565b5b60006128478482850161280e565b91505092915050565b600060408201905061286560008301856125a4565b61287260208301846125c2565b9392505050565b600061288482611cbe565b915061288f83611cbe565b9250828210156128a2576128a16122b6565b5b828203905092915050565b60006128b882611cbe565b91506128c383611cbe565b9250827fffffffffffffffffffffffffffffffffffffffffffffffffffffffffffffffff038211156128f8576128f76122b6565b5b828201905092915050565b600081905092915050565b7f70726f746f636f6c000000000000000000000000000000000000000000000000600082015250565b6000612944600883612903565b915061294f8261290e565b600882019050919050565b600061296582612937565b9150819050919050565b7f506f6f6c00000000000000000000000000000000000000000000000000000000600082015250565b60006129a5600483612903565b91506129b08261296f565b600482019050919050565b60006129c682612998565b9150819050919050565b7f426f72726f776572000000000000000000000000000000000000000000000000600082015250565b6000612a06600883612903565b9150612a11826129d0565b600882019050919050565b6000612a27826129f9565b9150819050919050565b6000612a3c82611cbe565b9150612a4783611cbe565b9250817fffffffffffffffffffffffffffffffffffffffffffffffffffffffffffffffff0483118215151615612a8057612a7f6122b6565b5b828202905092915050565b7f4e487b7100000000000000000000000000000000000000000000000000000000600052601260045260246000fd5b6000612ac582611cbe565b9150612ad083611cbe565b925082612ae057612adf612a8b565b5b828204905092915050565b6000819050919050565b6000612b0082612aeb565b9150612b0b83612aeb565b9250827f800000000000000000000000000000000000000000000000000000000000000001821260008412151615612b4657612b456122b6565b5b827f7fffffffffffffffffffffffffffffffffffffffffffffffffffffffffffffff018213600084121615612b7e57612b7d6122b6565b5b828203905092915050565b60008160011c9050919050565b6000808291508390505b6001851115612be057808604811115612bbc57612bbb6122b6565b5b6001851615612bcb5780820291505b8081029050612bd985612b89565b9450612ba0565b94509492505050565b600082612bf95760019050612cb5565b81612c075760009050612cb5565b8160018114612c1d5760028114612c2757612c56565b6001915050612cb5565b60ff841115612c3957612c386122b6565b5b8360020a915084821115612c5057612c4f6122b6565b5b50612cb5565b5060208310610133831016604e8410600b8410161715612c8b5782820a905083811115612c8657612c856122b6565b5b612cb5565b612c988484846001612b96565b92509050818404811115612caf57612cae6122b6565b5b81810290505b9392505050565b6000612cc782611cbe565b9150612cd283611cbe565b9250612cff7fffffffffffffffffffffffffffffffffffffffffffffffffffffffffffffffff8484612be9565b90509291505056fea26469706673582212203153c2ec37d61a1f48556f560f1e0a961f89261eb5e587b5ed1fa16c7866db2e64736f6c634300080b0033",
  "immutableReferences": {},
  "source": "// SPDX-License-Identifier: MIT\npragma solidity >=0.4.22 <0.9.0;\n\nimport \"@openzeppelin/contracts/token/ERC20/IERC20.sol\";\nimport {SafeMath} from \"@openzeppelin/contracts/utils/math/SafeMath.sol\";\nimport {EnumerableSet} from \"@openzeppelin/contracts/utils/structs/EnumerableSet.sol\";\nimport \"./poolRegistry.sol\";\nimport \"./poolStorage.sol\";\nimport \"./AconomyFee.sol\";\nimport \"./Libraries/LibCalculations.sol\";\n\nimport \"@openzeppelin/contracts/utils/Address.sol\";\nimport \"@openzeppelin/contracts/utils/math/Math.sol\";\nimport \"@openzeppelin/contracts/token/ERC20/utils/SafeERC20.sol\";\n\n// a1=0x5B38Da6a701c568545dCfcB03FcB875f56beddC4\n// a2=0xAb8483F64d9C6d1EcF9b849Ae677dD3315835cb2\n\ncontract poolAddress is poolStorage {\n    address poolRegistryAddress;\n    address AconomyFeeAddress;\n    address public poolOwner;\n    uint256 public paymentCycleDuration;\n    uint256 public paymentDefaultDuration;\n    uint256 public feePercent;\n    uint256 public createdAt;\n\n    using SafeMath for uint256;\n    using EnumerableSet for EnumerableSet.UintSet;\n\n    constructor(\n        address _poolOwner,\n        address _poolRegistry,\n        address _AconomyFeeAddress,\n        uint256 _paymentCycleDuration,\n        uint256 _paymentDefaultDuration,\n        uint256 _feePercent\n    ) {\n        poolOwner = _poolOwner;\n        poolRegistryAddress = _poolRegistry;\n        AconomyFeeAddress = _AconomyFeeAddress;\n        paymentCycleDuration = _paymentCycleDuration;\n        paymentDefaultDuration = _paymentDefaultDuration;\n        feePercent = _feePercent;\n        createdAt = block.timestamp;\n    }\n\n    modifier pendingBid(uint256 _loanId) {\n        if (loans[_loanId].state != LoanState.PENDING) {\n            revert(\"Bid must be pending\");\n        }\n        _;\n    }\n\n    event loanAccepted(uint256 indexed loanId, address indexed lender);\n    event AcceptedLoanDetail(\n        uint256 indexed loanId,\n        string indexed feeType,\n        uint256 indexed amount\n    );\n\n    event SubmittedLoan(\n        uint256 indexed loanId,\n        address indexed borrower,\n        address receiver,\n        uint256 paymentCycleAmount\n    );\n\n    function loanRequest(\n        address _lendingToken,\n        uint256 _poolId,\n        uint256 _principal,\n        uint32 _duration,\n        uint16 _APR,\n        address _receiver\n    ) public returns (uint256 loanId_) {\n        (bool isVerified, ) = poolRegistry(poolRegistryAddress)\n            .borrowerVarification(_poolId, msg.sender);\n        require(isVerified, \"Not verified borrower\");\n        require(\n            !poolRegistry(poolRegistryAddress).ClosedPool(_poolId),\n            \"Pool is closed\"\n        );\n\n        loanId_ = loanId;\n\n        // Create and store our loan into the mapping\n        Loan storage loan = loans[loanId];\n        loan.borrower = msg.sender;\n        loan.receiver = _receiver != address(0) ? _receiver : loan.borrower;\n        loan.poolId = _poolId;\n        loan.loanDetails.lendingToken = ERC20(_lendingToken);\n        loan.loanDetails.principal = _principal;\n        loan.loanDetails.loanDuration = _duration;\n        loan.loanDetails.timestamp = uint32(block.timestamp);\n\n        loan.terms.paymentCycle = poolRegistry(poolRegistryAddress)\n            .getPaymentCycleDuration(_poolId);\n\n        loan.terms.APR = _APR;\n\n        loanDefaultDuration[loanId] = poolRegistry(poolRegistryAddress)\n            .getPaymentDefaultDuration(_poolId);\n\n        loanExpirationTime[loanId] = poolRegistry(poolRegistryAddress)\n            .getloanExpirationTime(_poolId);\n\n        loan.terms.paymentCycleAmount = LibCalculations.payment(\n            _principal,\n            _duration,\n            loan.terms.paymentCycle,\n            _APR\n        );\n\n        loan.state = LoanState.PENDING;\n\n        emit SubmittedLoan(\n            loanId,\n            loan.borrower,\n            loan.receiver,\n            loan.terms.paymentCycleAmount\n        );\n\n        // Store bid inside borrower loans mapping\n        borrowerLoans[loan.borrower].push(loanId);\n\n        // Increment loan id counter\n        loanId++;\n    }\n\n    function AcceptLoan(uint256 _loanId)\n        external\n        pendingBid(_loanId)\n        returns (\n            uint256 amountToAconomy,\n            uint256 amountToPool,\n            uint256 amountToBorrower\n        )\n    {\n        Loan storage loan = loans[_loanId];\n\n        (bool isVerified, ) = poolRegistry(poolRegistryAddress)\n            .lenderVarification(loan.poolId, msg.sender);\n\n        require(isVerified, \"Not verified lender\");\n        require(\n            !poolRegistry(poolRegistryAddress).ClosedPool(loan.poolId),\n            \"Pool is closed\"\n        );\n        require(!isLoanExpired(_loanId), \"Loan has expired\");\n\n        loan.loanDetails.acceptedTimestamp = uint32(block.timestamp);\n        loan.loanDetails.lastRepaidTimestamp = uint32(block.timestamp);\n\n        loan.state = LoanState.ACCEPTED;\n\n        loan.lender = msg.sender;\n\n        //Aconomy Fee\n        amountToAconomy = LibCalculations.percent(\n            loan.loanDetails.principal,\n            AconomyFee(AconomyFeeAddress).protocolFee()\n        );\n\n        //Pool Fee\n        amountToPool = LibCalculations.percent(\n            loan.loanDetails.principal,\n            poolRegistry(poolRegistryAddress).getPoolFee(loan.poolId)\n        );\n\n        //Amount to Borrower\n        amountToBorrower =\n            loan.loanDetails.principal -\n            amountToAconomy -\n            amountToPool;\n\n        // //Transfer Aconomy Fee\n        // IERC20(loan.loanDetails.lendingToken).transferFrom(\n        //     loan.lender,\n        //     AconomyFee(AconomyFeeAddress).getAconomyOwnerAddress(),\n        //     amountToAconomy\n        // );\n\n        // //Transfer Aconomy Pool Owner\n        // IERC20(loan.loanDetails.lendingToken).transferFrom(\n        //     loan.lender,\n        //     poolRegistry(poolRegistryAddress).getPoolOwner(loan.poolId),\n        //     amountToPool\n        // );\n\n        // //transfer funds to borrower\n        // IERC20(loan.loanDetails.lendingToken).transferFrom(\n        //     loan.lender,\n        //     loan.borrower,\n        //     amountToBorrower\n        // );\n\n        // Record Amount filled by lenders\n        lenderLendAmount[address(loan.loanDetails.lendingToken)][\n            loan.lender\n        ] += loan.loanDetails.principal;\n        totalERC20Amount[address(loan.loanDetails.lendingToken)] += loan\n            .loanDetails\n            .principal;\n\n        // Store Borrower's active loan\n        borrowerActiveLoans[loan.borrower].add(_loanId);\n\n        emit loanAccepted(_loanId, loan.lender);\n\n        emit AcceptedLoanDetail(_loanId, \"protocol\", amountToAconomy);\n        emit AcceptedLoanDetail(_loanId, \"Pool\", amountToPool);\n        emit AcceptedLoanDetail(_loanId, \"Borrower\", amountToBorrower);\n    }\n\n    function isLoanExpired(uint256 _loanId) public view returns (bool) {\n        Loan storage loan = loans[_loanId];\n\n        if (loan.state != LoanState.PENDING) return false;\n        if (loanExpirationTime[_loanId] == 0) return false;\n\n        return (uint32(block.timestamp) >\n            loan.loanDetails.timestamp + loanExpirationTime[_loanId]);\n    }\n\n    event res(uint256 owedPrincipal, uint256 duePrincipal, uint256 interest);\n\n    function repayYourLoan(uint256 _loanId) external {\n        if (loans[_loanId].state != LoanState.ACCEPTED) {\n            revert(\"Loan must be accepted\");\n        }\n        (\n            uint256 owedPrincipal,\n            uint256 duePrincipal,\n            uint256 interest\n        ) = LibCalculations.owedAmount(loans[_loanId], block.timestamp);\n        emit res(owedPrincipal, duePrincipal, interest);\n    }\n}\n",
  "sourcePath": "/Users/sanskarkhare/Desktop/Pandora/aconomy-pool-v1/contracts/poolAddress.sol",
  "compiler": {
    "name": "solc",
    "version": "0.8.11+commit.d7f03943.Emscripten.clang"
  },
  "schemaVersion": "3.4.4",
  "updatedAt": "2023-01-29T17:54:31.102Z",
  "devdoc": {
    "kind": "dev",
    "methods": {},
    "version": 1
  },
  "userdoc": {
    "kind": "user",
    "methods": {},
    "version": 1
  }
}