{
  "contractName": "poolRegistry",
  "abi": [
    {
      "inputs": [],
      "stateMutability": "nonpayable",
      "type": "constructor"
    },
    {
      "anonymous": false,
      "inputs": [
        {
          "indexed": false,
          "internalType": "address",
          "name": "previousAdmin",
          "type": "address"
        },
        {
          "indexed": false,
          "internalType": "address",
          "name": "newAdmin",
          "type": "address"
        }
      ],
      "name": "AdminChanged",
      "type": "event"
    },
    {
      "anonymous": false,
      "inputs": [
        {
          "indexed": true,
          "internalType": "address",
          "name": "beacon",
          "type": "address"
        }
      ],
      "name": "BeaconUpgraded",
      "type": "event"
    },
    {
      "anonymous": false,
      "inputs": [
        {
          "indexed": false,
          "internalType": "uint256",
          "name": "poolId",
          "type": "uint256"
        },
        {
          "indexed": false,
          "internalType": "address",
          "name": "borrower",
          "type": "address"
        }
      ],
      "name": "BorrowerAttestation",
      "type": "event"
    },
    {
      "anonymous": false,
      "inputs": [
        {
          "indexed": false,
          "internalType": "uint256",
          "name": "poolId",
          "type": "uint256"
        },
        {
          "indexed": false,
          "internalType": "address",
          "name": "borrower",
          "type": "address"
        }
      ],
      "name": "BorrowerRevocation",
      "type": "event"
    },
    {
      "anonymous": false,
      "inputs": [
        {
          "indexed": false,
          "internalType": "uint8",
          "name": "version",
          "type": "uint8"
        }
      ],
      "name": "Initialized",
      "type": "event"
    },
    {
      "anonymous": false,
      "inputs": [
        {
          "indexed": false,
          "internalType": "uint256",
          "name": "poolId",
          "type": "uint256"
        },
        {
          "indexed": false,
          "internalType": "address",
          "name": "lender",
          "type": "address"
        }
      ],
      "name": "LenderAttestation",
      "type": "event"
    },
    {
      "anonymous": false,
      "inputs": [
        {
          "indexed": false,
          "internalType": "uint256",
          "name": "poolId",
          "type": "uint256"
        },
        {
          "indexed": false,
          "internalType": "address",
          "name": "lender",
          "type": "address"
        }
      ],
      "name": "LenderRevocation",
      "type": "event"
    },
    {
      "anonymous": false,
      "inputs": [
        {
          "indexed": true,
          "internalType": "address",
          "name": "previousOwner",
          "type": "address"
        },
        {
          "indexed": true,
          "internalType": "address",
          "name": "newOwner",
          "type": "address"
        }
      ],
      "name": "OwnershipTransferred",
      "type": "event"
    },
    {
      "anonymous": false,
      "inputs": [
        {
          "indexed": false,
          "internalType": "address",
          "name": "account",
          "type": "address"
        }
      ],
      "name": "Paused",
      "type": "event"
    },
    {
      "anonymous": false,
      "inputs": [
        {
          "indexed": false,
          "internalType": "uint256",
          "name": "poolId",
          "type": "uint256"
        },
        {
          "indexed": false,
          "internalType": "uint16",
          "name": "APR",
          "type": "uint16"
        }
      ],
      "name": "SetAPR",
      "type": "event"
    },
    {
      "anonymous": false,
      "inputs": [
        {
          "indexed": false,
          "internalType": "uint256",
          "name": "poolId",
          "type": "uint256"
        },
        {
          "indexed": false,
          "internalType": "uint32",
          "name": "duration",
          "type": "uint32"
        }
      ],
      "name": "SetPaymentCycleDuration",
      "type": "event"
    },
    {
      "anonymous": false,
      "inputs": [
        {
          "indexed": false,
          "internalType": "uint256",
          "name": "poolId",
          "type": "uint256"
        },
        {
          "indexed": false,
          "internalType": "uint32",
          "name": "duration",
          "type": "uint32"
        }
      ],
      "name": "SetPaymentDefaultDuration",
      "type": "event"
    },
    {
      "anonymous": false,
      "inputs": [
        {
          "indexed": false,
          "internalType": "uint256",
          "name": "poolId",
          "type": "uint256"
        },
        {
          "indexed": false,
          "internalType": "uint16",
          "name": "feePct",
          "type": "uint16"
        }
      ],
      "name": "SetPoolFee",
      "type": "event"
    },
    {
      "anonymous": false,
      "inputs": [
        {
          "indexed": false,
          "internalType": "uint256",
          "name": "poolId",
          "type": "uint256"
        },
        {
          "indexed": false,
          "internalType": "string",
          "name": "uri",
          "type": "string"
        }
      ],
      "name": "SetPoolURI",
      "type": "event"
    },
    {
      "anonymous": false,
      "inputs": [
        {
          "indexed": false,
          "internalType": "uint256",
          "name": "poolId",
          "type": "uint256"
        },
        {
          "indexed": false,
          "internalType": "uint32",
          "name": "duration",
          "type": "uint32"
        }
      ],
      "name": "SetloanExpirationTime",
      "type": "event"
    },
    {
      "anonymous": false,
      "inputs": [
        {
          "indexed": false,
          "internalType": "address",
          "name": "account",
          "type": "address"
        }
      ],
      "name": "Unpaused",
      "type": "event"
    },
    {
      "anonymous": false,
      "inputs": [
        {
          "indexed": true,
          "internalType": "address",
          "name": "implementation",
          "type": "address"
        }
      ],
      "name": "Upgraded",
      "type": "event"
    },
    {
      "anonymous": false,
      "inputs": [
        {
          "indexed": false,
          "internalType": "uint256",
          "name": "poolId",
          "type": "uint256"
        }
      ],
      "name": "poolClosed",
      "type": "event"
    },
    {
      "anonymous": false,
      "inputs": [
        {
          "indexed": true,
          "internalType": "address",
          "name": "owner",
          "type": "address"
        },
        {
          "indexed": false,
          "internalType": "address",
          "name": "poolAddress",
          "type": "address"
        },
        {
          "indexed": false,
          "internalType": "uint256",
          "name": "poolId",
          "type": "uint256"
        }
      ],
      "name": "poolCreated",
      "type": "event"
    },
    {
      "inputs": [],
      "name": "AconomyFeeAddress",
      "outputs": [
        {
          "internalType": "address",
          "name": "",
          "type": "address"
        }
      ],
      "stateMutability": "view",
      "type": "function"
    },
    {
      "inputs": [],
      "name": "FundingPoolAddress",
      "outputs": [
        {
          "internalType": "address",
          "name": "",
          "type": "address"
        }
      ],
      "stateMutability": "view",
      "type": "function"
    },
    {
      "inputs": [],
      "name": "attestationService",
      "outputs": [
        {
          "internalType": "contract AttestationServices",
          "name": "",
          "type": "address"
        }
      ],
      "stateMutability": "view",
      "type": "function"
    },
    {
      "inputs": [],
      "name": "borrowerAttestationSchemaId",
      "outputs": [
        {
          "internalType": "bytes32",
          "name": "",
          "type": "bytes32"
        }
      ],
      "stateMutability": "view",
      "type": "function"
    },
    {
      "inputs": [],
      "name": "lenderAttestationSchemaId",
      "outputs": [
        {
          "internalType": "bytes32",
          "name": "",
          "type": "bytes32"
        }
      ],
      "stateMutability": "view",
      "type": "function"
    },
    {
      "inputs": [],
      "name": "owner",
      "outputs": [
        {
          "internalType": "address",
          "name": "",
          "type": "address"
        }
      ],
      "stateMutability": "view",
      "type": "function"
    },
    {
      "inputs": [],
      "name": "paused",
      "outputs": [
        {
          "internalType": "bool",
          "name": "",
          "type": "bool"
        }
      ],
      "stateMutability": "view",
      "type": "function"
    },
    {
      "inputs": [],
      "name": "poolCount",
      "outputs": [
        {
          "internalType": "uint256",
          "name": "",
          "type": "uint256"
        }
      ],
      "stateMutability": "view",
      "type": "function"
    },
    {
      "inputs": [],
      "name": "proxiableUUID",
      "outputs": [
        {
          "internalType": "bytes32",
          "name": "",
          "type": "bytes32"
        }
      ],
      "stateMutability": "view",
      "type": "function"
    },
    {
      "inputs": [],
      "name": "renounceOwnership",
      "outputs": [],
      "stateMutability": "nonpayable",
      "type": "function"
    },
    {
      "inputs": [
        {
          "internalType": "address",
          "name": "newOwner",
          "type": "address"
        }
      ],
      "name": "transferOwnership",
      "outputs": [],
      "stateMutability": "nonpayable",
      "type": "function"
    },
    {
      "inputs": [
        {
          "internalType": "address",
          "name": "newImplementation",
          "type": "address"
        }
      ],
      "name": "upgradeTo",
      "outputs": [],
      "stateMutability": "nonpayable",
      "type": "function"
    },
    {
      "inputs": [
        {
          "internalType": "address",
          "name": "newImplementation",
          "type": "address"
        },
        {
          "internalType": "bytes",
          "name": "data",
          "type": "bytes"
        }
      ],
      "name": "upgradeToAndCall",
      "outputs": [],
      "stateMutability": "payable",
      "type": "function"
    },
    {
      "inputs": [
        {
          "internalType": "contract AttestationServices",
          "name": "_attestationServices",
          "type": "address"
        },
        {
          "internalType": "address",
          "name": "_AconomyFee",
          "type": "address"
        },
        {
          "internalType": "address",
          "name": "_FundingPoolAddress",
          "type": "address"
        }
      ],
      "name": "initialize",
      "outputs": [],
      "stateMutability": "nonpayable",
      "type": "function"
    },
    {
      "inputs": [],
      "name": "pause",
      "outputs": [],
      "stateMutability": "nonpayable",
      "type": "function"
    },
    {
      "inputs": [],
      "name": "unpause",
      "outputs": [],
      "stateMutability": "nonpayable",
      "type": "function"
    },
    {
      "inputs": [
        {
          "internalType": "address",
          "name": "newFundingPool",
          "type": "address"
        }
      ],
      "name": "changeFundingPoolImplementation",
      "outputs": [],
      "stateMutability": "nonpayable",
      "type": "function"
    },
    {
      "inputs": [
        {
          "internalType": "uint32",
          "name": "_paymentDefaultDuration",
          "type": "uint32"
        },
        {
          "internalType": "uint32",
          "name": "_loanExpirationTime",
          "type": "uint32"
        },
        {
          "internalType": "uint16",
          "name": "_poolFeePercent",
          "type": "uint16"
        },
        {
          "internalType": "uint16",
          "name": "_apr",
          "type": "uint16"
        },
        {
          "internalType": "string",
          "name": "_uri",
          "type": "string"
        },
        {
          "internalType": "bool",
          "name": "_requireLenderAttestation",
          "type": "bool"
        },
        {
          "internalType": "bool",
          "name": "_requireBorrowerAttestation",
          "type": "bool"
        }
      ],
      "name": "createPool",
      "outputs": [
        {
          "internalType": "uint256",
          "name": "poolId_",
          "type": "uint256"
        }
      ],
      "stateMutability": "nonpayable",
      "type": "function"
    },
    {
      "inputs": [
        {
          "internalType": "uint256",
          "name": "_poolId",
          "type": "uint256"
        },
        {
          "internalType": "uint16",
          "name": "_apr",
          "type": "uint16"
        }
      ],
      "name": "setApr",
      "outputs": [],
      "stateMutability": "nonpayable",
      "type": "function"
    },
    {
      "inputs": [
        {
          "internalType": "uint256",
          "name": "_poolId",
          "type": "uint256"
        },
        {
          "internalType": "string",
          "name": "_uri",
          "type": "string"
        }
      ],
      "name": "setPoolURI",
      "outputs": [],
      "stateMutability": "nonpayable",
      "type": "function"
    },
    {
      "inputs": [
        {
          "internalType": "uint256",
          "name": "_poolId",
          "type": "uint256"
        },
        {
          "internalType": "uint32",
          "name": "_duration",
          "type": "uint32"
        }
      ],
      "name": "setPaymentDefaultDuration",
      "outputs": [],
      "stateMutability": "nonpayable",
      "type": "function"
    },
    {
      "inputs": [
        {
          "internalType": "uint256",
          "name": "_poolId",
          "type": "uint256"
        },
        {
          "internalType": "uint16",
          "name": "_newPercent",
          "type": "uint16"
        }
      ],
      "name": "setPoolFeePercent",
      "outputs": [],
      "stateMutability": "nonpayable",
      "type": "function"
    },
    {
      "inputs": [
        {
          "internalType": "uint256",
          "name": "_poolId",
          "type": "uint256"
        },
        {
          "internalType": "uint32",
          "name": "_duration",
          "type": "uint32"
        }
      ],
      "name": "setloanExpirationTime",
      "outputs": [],
      "stateMutability": "nonpayable",
      "type": "function"
    },
    {
      "inputs": [
        {
          "internalType": "uint256",
          "name": "_poolId",
          "type": "uint256"
        },
        {
          "internalType": "uint32",
          "name": "_paymentDefaultDuration",
          "type": "uint32"
        },
        {
          "internalType": "uint32",
          "name": "_loanExpirationTime",
          "type": "uint32"
        },
        {
          "internalType": "uint16",
          "name": "_poolFeePercent",
          "type": "uint16"
        },
        {
          "internalType": "uint16",
          "name": "_apr",
          "type": "uint16"
        },
        {
          "internalType": "string",
          "name": "_uri",
          "type": "string"
        }
      ],
      "name": "changePoolSetting",
      "outputs": [],
      "stateMutability": "nonpayable",
      "type": "function"
    },
    {
      "inputs": [
        {
          "internalType": "uint256",
          "name": "_poolId",
          "type": "uint256"
        },
        {
          "internalType": "address",
          "name": "_lenderAddress",
          "type": "address"
        }
      ],
      "name": "addLender",
      "outputs": [],
      "stateMutability": "nonpayable",
      "type": "function"
    },
    {
      "inputs": [
        {
          "internalType": "uint256",
          "name": "_poolId",
          "type": "uint256"
        },
        {
          "internalType": "address",
          "name": "_borrowerAddress",
          "type": "address"
        }
      ],
      "name": "addBorrower",
      "outputs": [],
      "stateMutability": "nonpayable",
      "type": "function"
    },
    {
      "inputs": [
        {
          "internalType": "uint256",
          "name": "_poolId",
          "type": "uint256"
        },
        {
          "internalType": "address",
          "name": "_lenderAddress",
          "type": "address"
        }
      ],
      "name": "removeLender",
      "outputs": [],
      "stateMutability": "nonpayable",
      "type": "function"
    },
    {
      "inputs": [
        {
          "internalType": "uint256",
          "name": "_poolId",
          "type": "uint256"
        },
        {
          "internalType": "address",
          "name": "_borrowerAddress",
          "type": "address"
        }
      ],
      "name": "removeBorrower",
      "outputs": [],
      "stateMutability": "nonpayable",
      "type": "function"
    },
    {
      "inputs": [
        {
          "internalType": "uint256",
          "name": "_poolId",
          "type": "uint256"
        }
      ],
      "name": "getPoolFee",
      "outputs": [
        {
          "internalType": "uint16",
          "name": "fee",
          "type": "uint16"
        }
      ],
      "stateMutability": "view",
      "type": "function"
    },
    {
      "inputs": [
        {
          "internalType": "uint256",
          "name": "_poolId",
          "type": "uint256"
        },
        {
          "internalType": "address",
          "name": "_borrowerAddress",
          "type": "address"
        }
      ],
      "name": "borrowerVerification",
      "outputs": [
        {
          "internalType": "bool",
          "name": "isVerified_",
          "type": "bool"
        },
        {
          "internalType": "bytes32",
          "name": "uuid_",
          "type": "bytes32"
        }
      ],
      "stateMutability": "view",
      "type": "function"
    },
    {
      "inputs": [
        {
          "internalType": "uint256",
          "name": "_poolId",
          "type": "uint256"
        },
        {
          "internalType": "address",
          "name": "_lenderAddress",
          "type": "address"
        }
      ],
      "name": "lenderVerification",
      "outputs": [
        {
          "internalType": "bool",
          "name": "isVerified_",
          "type": "bool"
        },
        {
          "internalType": "bytes32",
          "name": "uuid_",
          "type": "bytes32"
        }
      ],
      "stateMutability": "view",
      "type": "function"
    },
    {
      "inputs": [
        {
          "internalType": "uint256",
          "name": "_poolId",
          "type": "uint256"
        }
      ],
      "name": "closePool",
      "outputs": [],
      "stateMutability": "nonpayable",
      "type": "function"
    },
    {
      "inputs": [
        {
          "internalType": "uint256",
          "name": "_poolId",
          "type": "uint256"
        }
      ],
      "name": "ClosedPool",
      "outputs": [
        {
          "internalType": "bool",
          "name": "",
          "type": "bool"
        }
      ],
      "stateMutability": "view",
      "type": "function"
    },
    {
      "inputs": [
        {
          "internalType": "uint256",
          "name": "_poolId",
          "type": "uint256"
        }
      ],
      "name": "getPaymentCycleDuration",
      "outputs": [
        {
          "internalType": "uint32",
          "name": "",
          "type": "uint32"
        }
      ],
      "stateMutability": "view",
      "type": "function"
    },
    {
      "inputs": [
        {
          "internalType": "uint256",
          "name": "_poolId",
          "type": "uint256"
        }
      ],
      "name": "getPaymentDefaultDuration",
      "outputs": [
        {
          "internalType": "uint32",
          "name": "",
          "type": "uint32"
        }
      ],
      "stateMutability": "view",
      "type": "function"
    },
    {
      "inputs": [
        {
          "internalType": "uint256",
          "name": "poolId",
          "type": "uint256"
        }
      ],
      "name": "getloanExpirationTime",
      "outputs": [
        {
          "internalType": "uint32",
          "name": "",
          "type": "uint32"
        }
      ],
      "stateMutability": "view",
      "type": "function"
    },
    {
      "inputs": [
        {
          "internalType": "uint256",
          "name": "_poolId",
          "type": "uint256"
        }
      ],
      "name": "getPoolAddress",
      "outputs": [
        {
          "internalType": "address",
          "name": "",
          "type": "address"
        }
      ],
      "stateMutability": "view",
      "type": "function"
    },
    {
      "inputs": [
        {
          "internalType": "uint256",
          "name": "_poolId",
          "type": "uint256"
        }
      ],
      "name": "getPoolOwner",
      "outputs": [
        {
          "internalType": "address",
          "name": "",
          "type": "address"
        }
      ],
      "stateMutability": "view",
      "type": "function"
    },
    {
      "inputs": [
        {
          "internalType": "uint256",
          "name": "_poolId",
          "type": "uint256"
        }
      ],
      "name": "getPoolApr",
      "outputs": [
        {
          "internalType": "uint16",
          "name": "",
          "type": "uint16"
        }
      ],
      "stateMutability": "view",
      "type": "function"
    },
    {
      "inputs": [
        {
          "internalType": "uint256",
          "name": "_poolId",
          "type": "uint256"
        }
      ],
      "name": "getPoolFeePercent",
      "outputs": [
        {
          "internalType": "uint16",
          "name": "",
          "type": "uint16"
        }
      ],
      "stateMutability": "view",
      "type": "function"
    },
    {
      "inputs": [],
      "name": "getAconomyFee",
      "outputs": [
        {
          "internalType": "uint16",
          "name": "",
          "type": "uint16"
        }
      ],
      "stateMutability": "view",
      "type": "function"
    },
    {
      "inputs": [],
      "name": "getAconomyOwner",
      "outputs": [
        {
          "internalType": "address",
          "name": "",
          "type": "address"
        }
      ],
      "stateMutability": "view",
      "type": "function"
    }
  ],
  "bytecode": "0x60a06040523073ffffffffffffffffffffffffffffffffffffffff1660809073ffffffffffffffffffffffffffffffffffffffff168152503480156200004457600080fd5b50620000556200005b60201b60201c565b62000206565b600060019054906101000a900460ff1615620000ae576040517f08c379a0000000000000000000000000000000000000000000000000000000008152600401620000a590620001a9565b60405180910390fd5b60ff801660008054906101000a900460ff1660ff161015620001205760ff6000806101000a81548160ff021916908360ff1602179055507f7f26b83ff96e1f2b6a682f133852f6798a09c465da95921460cefb384740249860ff604051620001179190620001e9565b60405180910390a15b565b600082825260208201905092915050565b7f496e697469616c697a61626c653a20636f6e747261637420697320696e69746960008201527f616c697a696e6700000000000000000000000000000000000000000000000000602082015250565b60006200019160278362000122565b91506200019e8262000133565b604082019050919050565b60006020820190508181036000830152620001c48162000182565b9050919050565b600060ff82169050919050565b620001e381620001cb565b82525050565b6000602082019050620002006000830184620001d8565b92915050565b6080516157a06200023e60003960008181610d8c01528181610e1b015281816112e101528181611370015261142001526157a06000f3fe6080604052600436106102505760003560e01c8063805deb5311610139578063d404b957116100b6578063f2fde38b1161007a578063f2fde38b146108c6578063f32db0ec146108ef578063f525cb681461092c578063f8795c0314610957578063f8ce320614610980578063fa9fe916146109a957610250565b8063d404b957146107e2578063da5de1a21461080b578063dadf422e14610849578063e18bdb8314610874578063e8c17e7e1461089d57610250565b8063a53c1201116100fd578063a53c1201146106ed578063a8380df114610716578063abd115ec14610753578063c0c53b8b1461077c578063c28ba8eb146107a557610250565b8063805deb53146106065780638456cb5914610643578063896fdb931461065a5780638da5cb5b1461069757806391134715146106c257610250565b80633c0db788116101d25780635c975abb116101965780635c975abb146104e2578063635f1e4d1461050d578063679700d91461054a5780636e34b4e414610575578063715018a6146105b25780637174a21e146105c957610250565b80633c0db788146104305780633f4ba83a1461045b57806348cef9da146104725780634f1ef2861461049b57806352d1902d146104b757610250565b8063302de10f11610219578063302de10f1461034e5780633475ebbb1461038c5780633659cfe6146103b557806336fdf4f0146103de57806337de615f1461040757610250565b8062a5ae211461025557806311bed5bb146102925780632c4819aa146102cf5780632cd04700146102fa5780632f1be8f914610325575b600080fd5b34801561026157600080fd5b5061027c60048036038101906102779190613c49565b6109d4565b6040516102899190613cb7565b60405180910390f35b34801561029e57600080fd5b506102b960048036038101906102b49190613c49565b610a15565b6040516102c69190613cf1565b60405180910390f35b3480156102db57600080fd5b506102e4610a46565b6040516102f19190613cb7565b60405180910390f35b34801561030657600080fd5b5061030f610a6d565b60405161031c9190613d6b565b60405180910390f35b34801561033157600080fd5b5061034c60048036038101906103479190613db2565b610a94565b005b34801561035a57600080fd5b5061037560048036038101906103709190613e1e565b610c33565b604051610383929190613e92565b60405180910390f35b34801561039857600080fd5b506103b360048036038101906103ae9190613e1e565b610c9d565b005b3480156103c157600080fd5b506103dc60048036038101906103d79190613ebb565b610d8a565b005b3480156103ea57600080fd5b5061040560048036038101906104009190613f22565b610f13565b005b34801561041357600080fd5b5061042e60048036038101906104299190613c49565b6110a6565b005b34801561043c57600080fd5b506104456111e3565b6040516104529190613f62565b60405180910390f35b34801561046757600080fd5b506104706111ea565b005b34801561047e57600080fd5b5061049960048036038101906104949190613fe2565b6111fc565b005b6104b560048036038101906104b091906141d2565b6112df565b005b3480156104c357600080fd5b506104cc61141c565b6040516104d99190613f62565b60405180910390f35b3480156104ee57600080fd5b506104f76114d5565b604051610504919061422e565b60405180910390f35b34801561051957600080fd5b50610534600480360381019061052f9190613c49565b6114ec565b6040516105419190614258565b60405180910390f35b34801561055657600080fd5b5061055f61151b565b60405161056c9190613f62565b60405180910390f35b34801561058157600080fd5b5061059c60048036038101906105979190613c49565b611522565b6040516105a99190613cb7565b60405180910390f35b3480156105be57600080fd5b506105c7611563565b005b3480156105d557600080fd5b506105f060048036038101906105eb9190613c49565b611577565b6040516105fd9190614258565b60405180910390f35b34801561061257600080fd5b5061062d60048036038101906106289190613c49565b6115a6565b60405161063a9190613cf1565b60405180910390f35b34801561064f57600080fd5b506106586115d7565b005b34801561066657600080fd5b50610681600480360381019061067c919061429f565b6115e9565b60405161068e9190614370565b60405180910390f35b3480156106a357600080fd5b506106ac6118a5565b6040516106b99190613cb7565b60405180910390f35b3480156106ce57600080fd5b506106d76118cf565b6040516106e49190614258565b60405180910390f35b3480156106f957600080fd5b50610714600480360381019061070f9190613e1e565b611968565b005b34801561072257600080fd5b5061073d60048036038101906107389190613c49565b611a55565b60405161074a919061422e565b60405180910390f35b34801561075f57600080fd5b5061077a60048036038101906107759190613ebb565b611a80565b005b34801561078857600080fd5b506107a3600480360381019061079e91906143c9565b611acd565b005b3480156107b157600080fd5b506107cc60048036038101906107c79190613c49565b611eca565b6040516107d99190613cf1565b60405180910390f35b3480156107ee57600080fd5b506108096004803603810190610804919061441c565b611efb565b005b34801561081757600080fd5b50610832600480360381019061082d9190613e1e565b612075565b604051610840929190613e92565b60405180910390f35b34801561085557600080fd5b5061085e6120df565b60405161086b9190613cb7565b60405180910390f35b34801561088057600080fd5b5061089b60048036038101906108969190613db2565b612106565b005b3480156108a957600080fd5b506108c460048036038101906108bf9190613e1e565b61226f565b005b3480156108d257600080fd5b506108ed60048036038101906108e89190613ebb565b61235c565b005b3480156108fb57600080fd5b5061091660048036038101906109119190613c49565b6123e0565b6040516109239190614258565b60405180910390f35b34801561093857600080fd5b5061094161240f565b60405161094e9190614370565b60405180910390f35b34801561096357600080fd5b5061097e60048036038101906109799190613f22565b612416565b005b34801561098c57600080fd5b506109a760048036038101906109a29190613e1e565b6125aa565b005b3480156109b557600080fd5b506109be612697565b6040516109cb9190613cb7565b60405180910390f35b6000610135600083815260200190815260200160002060000160009054906101000a900473ffffffffffffffffffffffffffffffffffffffff169050919050565b6000610135600083815260200190815260200160002060070160049054906101000a900463ffffffff169050919050565b61013260009054906101000a900473ffffffffffffffffffffffffffffffffffffffff1681565b61012d60009054906101000a900473ffffffffffffffffffffffffffffffffffffffff1681565b813373ffffffffffffffffffffffffffffffffffffffff16610135600083815260200190815260200160002060010160009054906101000a900473ffffffffffffffffffffffffffffffffffffffff1673ffffffffffffffffffffffffffffffffffffffff1614610b3a576040517f08c379a0000000000000000000000000000000000000000000000000000000008152600401610b31906144d9565b60405180910390fd5b60008263ffffffff161415610b84576040517f08c379a0000000000000000000000000000000000000000000000000000000008152600401610b7b90614545565b60405180910390fd5b610135600084815260200190815260200160002060070160049054906101000a900463ffffffff1663ffffffff168263ffffffff1614610c2e5781610135600085815260200190815260200160002060070160046101000a81548163ffffffff021916908363ffffffff1602179055507f3e49e2efeacab7e8344acd4e7940449bf62039aa3734c34fa6d3525654be81018383604051610c25929190614565565b60405180910390a15b505050565b600080610c92836101356000878152602001908152602001600020600701600c9054906101000a900460ff166101356000888152602001908152602001600020600a016101356000898152602001908152602001600020600801612730565b915091509250929050565b610ca5612885565b813373ffffffffffffffffffffffffffffffffffffffff16610135600083815260200190815260200160002060010160009054906101000a900473ffffffffffffffffffffffffffffffffffffffff1673ffffffffffffffffffffffffffffffffffffffff1614610d4b576040517f08c379a0000000000000000000000000000000000000000000000000000000008152600401610d42906144d9565b60405180910390fd5b6101356000848152602001908152602001600020600701600c9054906101000a900460ff16610d7957600080fd5b610d85838360006128cf565b505050565b7f000000000000000000000000000000000000000000000000000000000000000073ffffffffffffffffffffffffffffffffffffffff163073ffffffffffffffffffffffffffffffffffffffff161415610e19576040517f08c379a0000000000000000000000000000000000000000000000000000000008152600401610e1090614600565b60405180910390fd5b7f000000000000000000000000000000000000000000000000000000000000000073ffffffffffffffffffffffffffffffffffffffff16610e58612a17565b73ffffffffffffffffffffffffffffffffffffffff1614610eae576040517f08c379a0000000000000000000000000000000000000000000000000000000008152600401610ea590614692565b60405180910390fd5b610eb781612a6e565b610f1081600067ffffffffffffffff811115610ed657610ed56140a7565b5b6040519080825280601f01601f191660200182016040528015610f085781602001600182028036833780820191505090505b506000612a79565b50565b813373ffffffffffffffffffffffffffffffffffffffff16610135600083815260200190815260200160002060010160009054906101000a900473ffffffffffffffffffffffffffffffffffffffff1673ffffffffffffffffffffffffffffffffffffffff1614610fb9576040517f08c379a0000000000000000000000000000000000000000000000000000000008152600401610fb0906144d9565b60405180910390fd5b60648261ffff161015611001576040517f08c379a0000000000000000000000000000000000000000000000000000000008152600401610ff8906146fe565b60405180910390fd5b610135600084815260200190815260200160002060030160009054906101000a900461ffff1661ffff168261ffff16146110a15781610135600085815260200190815260200160002060030160006101000a81548161ffff021916908361ffff1602179055507f8152ec7f9ed82e09b6ee5e8ff40a31e15a21387cd3e66abe901c1c7c75451309838360405161109892919061471e565b60405180910390a15b505050565b6110ae612885565b803373ffffffffffffffffffffffffffffffffffffffff16610135600083815260200190815260200160002060010160009054906101000a900473ffffffffffffffffffffffffffffffffffffffff1673ffffffffffffffffffffffffffffffffffffffff1614611154576040517f08c379a000000000000000000000000000000000000000000000000000000000815260040161114b906144d9565b60405180910390fd5b610133600083815260200190815260200160002060009054906101000a900460ff166111df576001610133600084815260200190815260200160002060006101000a81548160ff0219169083151502179055507fe2fb6ff747c653a1ea203ce1b388244509c7948f7afcf260b8f4f88bb23b39a2826040516111d69190614370565b60405180910390a15b5050565b61012e5481565b6111f2612be7565b6111fa612c65565b565b863373ffffffffffffffffffffffffffffffffffffffff16610135600083815260200190815260200160002060010160009054906101000a900473ffffffffffffffffffffffffffffffffffffffff1673ffffffffffffffffffffffffffffffffffffffff16146112a2576040517f08c379a0000000000000000000000000000000000000000000000000000000008152600401611299906144d9565b60405180910390fd5b6112ac8885610f13565b6112b68888610a94565b6112c08886612416565b6112ca8887612106565b6112d5888484611efb565b5050505050505050565b7f000000000000000000000000000000000000000000000000000000000000000073ffffffffffffffffffffffffffffffffffffffff163073ffffffffffffffffffffffffffffffffffffffff16141561136e576040517f08c379a000000000000000000000000000000000000000000000000000000000815260040161136590614600565b60405180910390fd5b7f000000000000000000000000000000000000000000000000000000000000000073ffffffffffffffffffffffffffffffffffffffff166113ad612a17565b73ffffffffffffffffffffffffffffffffffffffff1614611403576040517f08c379a00000000000000000000000000000000000000000000000000000000081526004016113fa90614692565b60405180910390fd5b61140c82612a6e565b61141882826001612a79565b5050565b60007f000000000000000000000000000000000000000000000000000000000000000073ffffffffffffffffffffffffffffffffffffffff163073ffffffffffffffffffffffffffffffffffffffff16146114ac576040517f08c379a00000000000000000000000000000000000000000000000000000000081526004016114a3906147b9565b60405180910390fd5b7f360894a13ba1a3210667c828492db98dca3e2076cc3735a920a3ca505d382bbc60001b905090565b6000606560009054906101000a900460ff16905090565b6000610135600083815260200190815260200160002060030160029054906101000a900461ffff169050919050565b61012f5481565b6000610135600083815260200190815260200160002060010160009054906101000a900473ffffffffffffffffffffffffffffffffffffffff169050919050565b61156b612be7565b6115756000612cc8565b565b6000610135600083815260200190815260200160002060030160029054906101000a900461ffff169050919050565b6000610135600083815260200190815260200160002060070160009054906101000a900463ffffffff169050919050565b6115df612be7565b6115e7612d8e565b565b60006115f3612885565b6101346000815461160390614808565b9190508190559050600073__LibPool_______________________________63ca408e56333061013260009054906101000a900473ffffffffffffffffffffffffffffffffffffffff166040518463ffffffff1660e01b815260040161166b93929190614860565b602060405180830381865af4158015611688573d6000803e3d6000fd5b505050506040513d601f19601f820116820180604052508101906116ac91906148ac565b905080610135600084815260200190815260200160002060000160006101000a81548173ffffffffffffffffffffffffffffffffffffffff021916908373ffffffffffffffffffffffffffffffffffffffff16021790555033610135600084815260200190815260200160002060010160006101000a81548173ffffffffffffffffffffffffffffffffffffffff021916908373ffffffffffffffffffffffffffffffffffffffff1602179055506117648288610f13565b62278d00610135600084815260200190815260200160002060070160006101000a81548163ffffffff021916908363ffffffff1602179055506117a7828b610a94565b6117b18289612416565b6117bb828a612106565b6117c6828787611efb565b8315611807576001610135600084815260200190815260200160002060030160046101000a81548160ff021916908315150217905550611806823361226f565b5b82156118485760016101356000848152602001908152602001600020600701600c6101000a81548160ff0219169083151502179055506118478233611968565b5b3373ffffffffffffffffffffffffffffffffffffffff167f407eac4ec3d5da6bb83c52c3817e2b7e46268bb1e945cc2494b7c01e06d2beae82846040516118909291906148d9565b60405180910390a25098975050505050505050565b6000609760009054906101000a900473ffffffffffffffffffffffffffffffffffffffff16905090565b600061013160009054906101000a900473ffffffffffffffffffffffffffffffffffffffff1673ffffffffffffffffffffffffffffffffffffffff1663fa31eb496040518163ffffffff1660e01b8152600401602060405180830381865afa15801561193f573d6000803e3d6000fd5b505050506040513d601f19601f820116820180604052508101906119639190614917565b905090565b611970612885565b813373ffffffffffffffffffffffffffffffffffffffff16610135600083815260200190815260200160002060010160009054906101000a900473ffffffffffffffffffffffffffffffffffffffff1673ffffffffffffffffffffffffffffffffffffffff1614611a16576040517f08c379a0000000000000000000000000000000000000000000000000000000008152600401611a0d906144d9565b60405180910390fd5b6101356000848152602001908152602001600020600701600c9054906101000a900460ff16611a4457600080fd5b611a5083836000612df1565b505050565b6000610133600083815260200190815260200160002060009054906101000a900460ff169050919050565b611a88612be7565b8061013260006101000a81548173ffffffffffffffffffffffffffffffffffffffff021916908373ffffffffffffffffffffffffffffffffffffffff16021790555050565b60008060019054906101000a900460ff16159050808015611afe5750600160008054906101000a900460ff1660ff16105b80611b2b5750611b0d30612faa565b158015611b2a5750600160008054906101000a900460ff1660ff16145b5b611b6a576040517f08c379a0000000000000000000000000000000000000000000000000000000008152600401611b61906149b6565b60405180910390fd5b60016000806101000a81548160ff021916908360ff1602179055508015611ba7576001600060016101000a81548160ff0219169083151502179055505b611baf612fcd565b611bb7613026565b611bbf61307f565b611bc76130d8565b8161013260006101000a81548173ffffffffffffffffffffffffffffffffffffffff021916908373ffffffffffffffffffffffffffffffffffffffff1602179055508361012d60006101000a81548173ffffffffffffffffffffffffffffffffffffffff021916908373ffffffffffffffffffffffffffffffffffffffff1602179055508261013160006101000a81548173ffffffffffffffffffffffffffffffffffffffff021916908373ffffffffffffffffffffffffffffffffffffffff1602179055508373ffffffffffffffffffffffffffffffffffffffff166381fa6cd36040518163ffffffff1660e01b8152600401602060405180830381865afa158015611cd8573d6000803e3d6000fd5b505050506040513d601f19601f82011682018060405250810190611cfc9190614a14565b73ffffffffffffffffffffffffffffffffffffffff166382fbdc9c6040518163ffffffff1660e01b8152600401611d3290614ac4565b6020604051808303816000875af1158015611d51573d6000803e3d6000fd5b505050506040513d601f19601f82011682018060405250810190611d759190614b10565b61012e819055508373ffffffffffffffffffffffffffffffffffffffff166381fa6cd36040518163ffffffff1660e01b8152600401602060405180830381865afa158015611dc7573d6000803e3d6000fd5b505050506040513d601f19601f82011682018060405250810190611deb9190614a14565b73ffffffffffffffffffffffffffffffffffffffff166382fbdc9c6040518163ffffffff1660e01b8152600401611e2190614baf565b6020604051808303816000875af1158015611e40573d6000803e3d6000fd5b505050506040513d601f19601f82011682018060405250810190611e649190614b10565b61012f819055508015611ec45760008060016101000a81548160ff0219169083151502179055507f7f26b83ff96e1f2b6a682f133852f6798a09c465da95921460cefb38474024986001604051611ebb9190614c17565b60405180910390a15b50505050565b6000610135600083815260200190815260200160002060070160089054906101000a900463ffffffff169050919050565b823373ffffffffffffffffffffffffffffffffffffffff16610135600083815260200190815260200160002060010160009054906101000a900473ffffffffffffffffffffffffffffffffffffffff1673ffffffffffffffffffffffffffffffffffffffff1614611fa1576040517f08c379a0000000000000000000000000000000000000000000000000000000008152600401611f98906144d9565b60405180910390fd5b6101356000858152602001908152602001600020600201604051602001611fc89190614d32565b604051602081830303815290604052805190602001208383604051602001611ff1929190614d6e565b604051602081830303815290604052805190602001201461206f57828261013560008781526020019081526020016000206002019190612032929190613b5c565b507faea0b816063c817d82c498925319d9f08eb53332cf08ca227ea12c38a571462484848460405161206693929190614db4565b60405180910390a15b50505050565b6000806120d483610135600087815260200190815260200160002060030160049054906101000a900460ff1661013560008881526020019081526020016000206006016101356000898152602001908152602001600020600401612730565b915091509250929050565b61013160009054906101000a900473ffffffffffffffffffffffffffffffffffffffff1681565b813373ffffffffffffffffffffffffffffffffffffffff16610135600083815260200190815260200160002060010160009054906101000a900473ffffffffffffffffffffffffffffffffffffffff1673ffffffffffffffffffffffffffffffffffffffff16146121ac576040517f08c379a00000000000000000000000000000000000000000000000000000000081526004016121a3906144d9565b60405180910390fd5b60008263ffffffff1614156121c057600080fd5b610135600084815260200190815260200160002060070160089054906101000a900463ffffffff1663ffffffff168263ffffffff161461226a5781610135600085815260200190815260200160002060070160086101000a81548163ffffffff021916908363ffffffff1602179055507f8f28307b0f89abbef9b86fdb13ddc77894d04547390687daf215b2f1f63a0baa8383604051612261929190614565565b60405180910390a15b505050565b612277612885565b813373ffffffffffffffffffffffffffffffffffffffff16610135600083815260200190815260200160002060010160009054906101000a900473ffffffffffffffffffffffffffffffffffffffff1673ffffffffffffffffffffffffffffffffffffffff161461231d576040517f08c379a0000000000000000000000000000000000000000000000000000000008152600401612314906144d9565b60405180910390fd5b610135600084815260200190815260200160002060030160049054906101000a900460ff1661234b57600080fd5b61235783836001612df1565b505050565b612364612be7565b600073ffffffffffffffffffffffffffffffffffffffff168173ffffffffffffffffffffffffffffffffffffffff1614156123d4576040517f08c379a00000000000000000000000000000000000000000000000000000000081526004016123cb90614e58565b60405180910390fd5b6123dd81612cc8565b50565b6000610135600083815260200190815260200160002060030160009054906101000a900461ffff169050919050565b6101345481565b813373ffffffffffffffffffffffffffffffffffffffff16610135600083815260200190815260200160002060010160009054906101000a900473ffffffffffffffffffffffffffffffffffffffff1673ffffffffffffffffffffffffffffffffffffffff16146124bc576040517f08c379a00000000000000000000000000000000000000000000000000000000081526004016124b3906144d9565b60405180910390fd5b6103e88261ffff161115612505576040517f08c379a00000000000000000000000000000000000000000000000000000000081526004016124fc90614ec4565b60405180910390fd5b610135600084815260200190815260200160002060030160029054906101000a900461ffff1661ffff168261ffff16146125a55781610135600085815260200190815260200160002060030160026101000a81548161ffff021916908361ffff1602179055507f24a1eddd3a54f274769832c6e6e16de4e3298679bac8b22e22820be8ef635b59838360405161259c92919061471e565b60405180910390a15b505050565b6125b2612885565b813373ffffffffffffffffffffffffffffffffffffffff16610135600083815260200190815260200160002060010160009054906101000a900473ffffffffffffffffffffffffffffffffffffffff1673ffffffffffffffffffffffffffffffffffffffff1614612658576040517f08c379a000000000000000000000000000000000000000000000000000000000815260040161264f906144d9565b60405180910390fd5b610135600084815260200190815260200160002060030160049054906101000a900460ff1661268657600080fd5b612692838360016128cf565b505050565b600061013160009054906101000a900473ffffffffffffffffffffffffffffffffffffffff1673ffffffffffffffffffffffffffffffffffffffff16634dd9ccb16040518163ffffffff1660e01b8152600401602060405180830381865afa158015612707573d6000803e3d6000fd5b505050506040513d601f19601f8201168201806040525081019061272b91906148ac565b905090565b60008084156128775761274c868461312990919063ffffffff16565b801561282f575061012d60009054906101000a900473ffffffffffffffffffffffffffffffffffffffff1673ffffffffffffffffffffffffffffffffffffffff1663e56d679b8560008973ffffffffffffffffffffffffffffffffffffffff1673ffffffffffffffffffffffffffffffffffffffff168152602001908152602001600020546040518263ffffffff1660e01b81526004016127ed9190613f62565b602060405180830381865afa15801561280a573d6000803e3d6000fd5b505050506040513d601f19601f8201168201806040525081019061282e9190614ef9565b5b91508360008773ffffffffffffffffffffffffffffffffffffffff1673ffffffffffffffffffffffffffffffffffffffff16815260200190815260200160002054905061287c565b600191505b94509492505050565b61288d6114d5565b156128cd576040517f08c379a00000000000000000000000000000000000000000000000000000000081526004016128c490614f72565b60405180910390fd5b565b610135600084815260200190815260200160002060010160009054906101000a900473ffffffffffffffffffffffffffffffffffffffff1673ffffffffffffffffffffffffffffffffffffffff163373ffffffffffffffffffffffffffffffffffffffff1614612974576040517f08c379a000000000000000000000000000000000000000000000000000000000815260040161296b90614fde565b60405180910390fd5b6000612981848484613159565b905061012d60009054906101000a900473ffffffffffffffffffffffffffffffffffffffff1673ffffffffffffffffffffffffffffffffffffffff1663b75c7dc6826040518263ffffffff1660e01b81526004016129df9190613f62565b600060405180830381600087803b1580156129f957600080fd5b505af1158015612a0d573d6000803e3d6000fd5b5050505050505050565b6000612a457f360894a13ba1a3210667c828492db98dca3e2076cc3735a920a3ca505d382bbc60001b6132e2565b60000160009054906101000a900473ffffffffffffffffffffffffffffffffffffffff16905090565b612a76612be7565b50565b612aa57f4910fdfa16fed3260ed0e7147f7cc6da11a60208b5b9406d12a635614ffd914360001b6132ec565b60000160009054906101000a900460ff1615612ac957612ac4836132f6565b612be2565b8273ffffffffffffffffffffffffffffffffffffffff166352d1902d6040518163ffffffff1660e01b8152600401602060405180830381865afa925050508015612b3157506040513d601f19601f82011682018060405250810190612b2e9190614b10565b60015b612b70576040517f08c379a0000000000000000000000000000000000000000000000000000000008152600401612b6790615070565b60405180910390fd5b7f360894a13ba1a3210667c828492db98dca3e2076cc3735a920a3ca505d382bbc60001b8114612bd5576040517f08c379a0000000000000000000000000000000000000000000000000000000008152600401612bcc90615102565b60405180910390fd5b50612be18383836133af565b5b505050565b612bef6133db565b73ffffffffffffffffffffffffffffffffffffffff16612c0d6118a5565b73ffffffffffffffffffffffffffffffffffffffff1614612c63576040517f08c379a0000000000000000000000000000000000000000000000000000000008152600401612c5a9061516e565b60405180910390fd5b565b612c6d6133e3565b6000606560006101000a81548160ff0219169083151502179055507f5db9ee0a495bf2e6ff9c91a7834c1ba4fdd244a5e8aa4e537bd38aeae4b073aa612cb16133db565b604051612cbe9190613cb7565b60405180910390a1565b6000609760009054906101000a900473ffffffffffffffffffffffffffffffffffffffff16905081609760006101000a81548173ffffffffffffffffffffffffffffffffffffffff021916908373ffffffffffffffffffffffffffffffffffffffff1602179055508173ffffffffffffffffffffffffffffffffffffffff168173ffffffffffffffffffffffffffffffffffffffff167f8be0079c531659141344cd1fd0a4f28419497f9722a3daafe3b4186f6b6457e060405160405180910390a35050565b612d96612885565b6001606560006101000a81548160ff0219169083151502179055507f62e78cea01bee320cd4e420270b5ea74000d11b0c9f74754ebdbfc544b05a258612dda6133db565b604051612de79190613cb7565b60405180910390a1565b612df961342c565b80612e075761012f54612e0c565b61012e545b8061013081905550610135600085815260200190815260200160002060010160009054906101000a900473ffffffffffffffffffffffffffffffffffffffff1673ffffffffffffffffffffffffffffffffffffffff163373ffffffffffffffffffffffffffffffffffffffff1614612eb9576040517f08c379a0000000000000000000000000000000000000000000000000000000008152600401612eb090614fde565b60405180910390fd5b600061012d60009054906101000a900473ffffffffffffffffffffffffffffffffffffffff1673ffffffffffffffffffffffffffffffffffffffff1663702b9dee85610130548888604051602001612f1292919061518e565b6040516020818303038152906040526040518463ffffffff1660e01b8152600401612f3f9392919061522e565b6020604051808303816000875af1158015612f5e573d6000803e3d6000fd5b505050506040513d601f19601f82011682018060405250810190612f829190614b10565b9050612f908585838661347c565b506000801b6101308190555050612fa5613682565b505050565b6000808273ffffffffffffffffffffffffffffffffffffffff163b119050919050565b600060019054906101000a900460ff1661301c576040517f08c379a0000000000000000000000000000000000000000000000000000000008152600401613013906152de565b60405180910390fd5b61302461368b565b565b600060019054906101000a900460ff16613075576040517f08c379a000000000000000000000000000000000000000000000000000000000815260040161306c906152de565b60405180910390fd5b61307d6136e3565b565b600060019054906101000a900460ff166130ce576040517f08c379a00000000000000000000000000000000000000000000000000000000081526004016130c5906152de565b60405180910390fd5b6130d6613744565b565b600060019054906101000a900460ff16613127576040517f08c379a000000000000000000000000000000000000000000000000000000000815260040161311e906152de565b60405180910390fd5b565b6000613151836000018373ffffffffffffffffffffffffffffffffffffffff1660001b6137b0565b905092915050565b6000811561322057610135600085815260200190815260200160002060060160008473ffffffffffffffffffffffffffffffffffffffff1673ffffffffffffffffffffffffffffffffffffffff1681526020019081526020016000205490506131e18361013560008781526020019081526020016000206004016137d390919063ffffffff16565b507f6e7c30dc58d3daa1458c79b66ca464f5f3d8a23d9e50eb14daf1cb0923bf2900848460405161321392919061518e565b60405180910390a16132db565b6101356000858152602001908152602001600020600a0160008473ffffffffffffffffffffffffffffffffffffffff1673ffffffffffffffffffffffffffffffffffffffff1681526020019081526020016000205490506132a08361013560008781526020019081526020016000206008016137d390919063ffffffff16565b507fe76a3e8b220b622b9fc2a655ab867687a93f195809eb3639f422e60936ff7eb484846040516132d292919061518e565b60405180910390a15b9392505050565b6000819050919050565b6000819050919050565b6132ff81612faa565b61333e576040517f08c379a000000000000000000000000000000000000000000000000000000000815260040161333590615370565b60405180910390fd5b8061336b7f360894a13ba1a3210667c828492db98dca3e2076cc3735a920a3ca505d382bbc60001b6132e2565b60000160006101000a81548173ffffffffffffffffffffffffffffffffffffffff021916908373ffffffffffffffffffffffffffffffffffffffff16021790555050565b6133b883613803565b6000825111806133c55750805b156133d6576133d48383613852565b505b505050565b600033905090565b6133eb6114d5565b61342a576040517f08c379a0000000000000000000000000000000000000000000000000000000008152600401613421906153dc565b60405180910390fd5b565b60026001541415613472576040517f08c379a000000000000000000000000000000000000000000000000000000000815260040161346990615448565b60405180910390fd5b6002600181905550565b80156135815781610135600086815260200190815260200160002060060160008573ffffffffffffffffffffffffffffffffffffffff1673ffffffffffffffffffffffffffffffffffffffff1681526020019081526020016000208190555061350483610135600087815260200190815260200160002060040161393690919063ffffffff16565b613543576040517f08c379a000000000000000000000000000000000000000000000000000000000815260040161353a906154b4565b60405180910390fd5b7f75675690de0899b0b869d83b44b2d926ac594426b2a0286c478ecdf815cbd33e848460405161357492919061518e565b60405180910390a161367c565b816101356000868152602001908152602001600020600a0160008573ffffffffffffffffffffffffffffffffffffffff1673ffffffffffffffffffffffffffffffffffffffff1681526020019081526020016000208190555061360383610135600087815260200190815260200160002060080161393690919063ffffffff16565b613642576040517f08c379a000000000000000000000000000000000000000000000000000000000815260040161363990615546565b60405180910390fd5b7f0c2cfc7e7a16ebee66e77fb314f4bfdb5505e33e77d41c0c60604efc70fd926b848460405161367392919061518e565b60405180910390a15b50505050565b60018081905550565b600060019054906101000a900460ff166136da576040517f08c379a00000000000000000000000000000000000000000000000000000000081526004016136d1906152de565b60405180910390fd5b60018081905550565b600060019054906101000a900460ff16613732576040517f08c379a0000000000000000000000000000000000000000000000000000000008152600401613729906152de565b60405180910390fd5b61374261373d6133db565b612cc8565b565b600060019054906101000a900460ff16613793576040517f08c379a000000000000000000000000000000000000000000000000000000000815260040161378a906152de565b60405180910390fd5b6000606560006101000a81548160ff021916908315150217905550565b600080836001016000848152602001908152602001600020541415905092915050565b60006137fb836000018373ffffffffffffffffffffffffffffffffffffffff1660001b613966565b905092915050565b61380c816132f6565b8073ffffffffffffffffffffffffffffffffffffffff167fbc7cd75a20ee27fd9adebab32041f755214dbc6bffa90cc0225b39da2e5c2d3b60405160405180910390a250565b606061385d83612faa565b61389c576040517f08c379a0000000000000000000000000000000000000000000000000000000008152600401613893906155d8565b60405180910390fd5b6000808473ffffffffffffffffffffffffffffffffffffffff16846040516138c49190615634565b600060405180830381855af49150503d80600081146138ff576040519150601f19603f3d011682016040523d82523d6000602084013e613904565b606091505b509150915061392c828260405180606001604052806027815260200161574460279139613a7a565b9250505092915050565b600061395e836000018373ffffffffffffffffffffffffffffffffffffffff1660001b613a9c565b905092915050565b60008083600101600084815260200190815260200160002054905060008114613a6e576000600182613998919061564b565b90506000600186600001805490506139b0919061564b565b9050818114613a1f5760008660000182815481106139d1576139d061567f565b5b90600052602060002001549050808760000184815481106139f5576139f461567f565b5b90600052602060002001819055508387600101600083815260200190815260200160002081905550505b85600001805480613a3357613a326156ae565b5b600190038181906000526020600020016000905590558560010160008681526020019081526020016000206000905560019350505050613a74565b60009150505b92915050565b60608315613a8a57829050613a95565b613a948383613b0c565b5b9392505050565b6000613aa883836137b0565b613b01578260000182908060018154018082558091505060019003906000526020600020016000909190919091505582600001805490508360010160008481526020019081526020016000208190555060019050613b06565b600090505b92915050565b600082511115613b1f5781518083602001fd5b806040517f08c379a0000000000000000000000000000000000000000000000000000000008152600401613b539190615721565b60405180910390fd5b828054613b6890614c61565b90600052602060002090601f016020900481019282613b8a5760008555613bd1565b82601f10613ba357803560ff1916838001178555613bd1565b82800160010185558215613bd1579182015b82811115613bd0578235825591602001919060010190613bb5565b5b509050613bde9190613be2565b5090565b5b80821115613bfb576000816000905550600101613be3565b5090565b6000604051905090565b600080fd5b600080fd5b6000819050919050565b613c2681613c13565b8114613c3157600080fd5b50565b600081359050613c4381613c1d565b92915050565b600060208284031215613c5f57613c5e613c09565b5b6000613c6d84828501613c34565b91505092915050565b600073ffffffffffffffffffffffffffffffffffffffff82169050919050565b6000613ca182613c76565b9050919050565b613cb181613c96565b82525050565b6000602082019050613ccc6000830184613ca8565b92915050565b600063ffffffff82169050919050565b613ceb81613cd2565b82525050565b6000602082019050613d066000830184613ce2565b92915050565b6000819050919050565b6000613d31613d2c613d2784613c76565b613d0c565b613c76565b9050919050565b6000613d4382613d16565b9050919050565b6000613d5582613d38565b9050919050565b613d6581613d4a565b82525050565b6000602082019050613d806000830184613d5c565b92915050565b613d8f81613cd2565b8114613d9a57600080fd5b50565b600081359050613dac81613d86565b92915050565b60008060408385031215613dc957613dc8613c09565b5b6000613dd785828601613c34565b9250506020613de885828601613d9d565b9150509250929050565b613dfb81613c96565b8114613e0657600080fd5b50565b600081359050613e1881613df2565b92915050565b60008060408385031215613e3557613e34613c09565b5b6000613e4385828601613c34565b9250506020613e5485828601613e09565b9150509250929050565b60008115159050919050565b613e7381613e5e565b82525050565b6000819050919050565b613e8c81613e79565b82525050565b6000604082019050613ea76000830185613e6a565b613eb46020830184613e83565b9392505050565b600060208284031215613ed157613ed0613c09565b5b6000613edf84828501613e09565b91505092915050565b600061ffff82169050919050565b613eff81613ee8565b8114613f0a57600080fd5b50565b600081359050613f1c81613ef6565b92915050565b60008060408385031215613f3957613f38613c09565b5b6000613f4785828601613c34565b9250506020613f5885828601613f0d565b9150509250929050565b6000602082019050613f776000830184613e83565b92915050565b600080fd5b600080fd5b600080fd5b60008083601f840112613fa257613fa1613f7d565b5b8235905067ffffffffffffffff811115613fbf57613fbe613f82565b5b602083019150836001820283011115613fdb57613fda613f87565b5b9250929050565b600080600080600080600060c0888a03121561400157614000613c09565b5b600061400f8a828b01613c34565b97505060206140208a828b01613d9d565b96505060406140318a828b01613d9d565b95505060606140428a828b01613f0d565b94505060806140538a828b01613f0d565b93505060a088013567ffffffffffffffff81111561407457614073613c0e565b5b6140808a828b01613f8c565b925092505092959891949750929550565b600080fd5b6000601f19601f8301169050919050565b7f4e487b7100000000000000000000000000000000000000000000000000000000600052604160045260246000fd5b6140df82614096565b810181811067ffffffffffffffff821117156140fe576140fd6140a7565b5b80604052505050565b6000614111613bff565b905061411d82826140d6565b919050565b600067ffffffffffffffff82111561413d5761413c6140a7565b5b61414682614096565b9050602081019050919050565b82818337600083830152505050565b600061417561417084614122565b614107565b90508281526020810184848401111561419157614190614091565b5b61419c848285614153565b509392505050565b600082601f8301126141b9576141b8613f7d565b5b81356141c9848260208601614162565b91505092915050565b600080604083850312156141e9576141e8613c09565b5b60006141f785828601613e09565b925050602083013567ffffffffffffffff81111561421857614217613c0e565b5b614224858286016141a4565b9150509250929050565b60006020820190506142436000830184613e6a565b92915050565b61425281613ee8565b82525050565b600060208201905061426d6000830184614249565b92915050565b61427c81613e5e565b811461428757600080fd5b50565b60008135905061429981614273565b92915050565b60008060008060008060008060e0898b0312156142bf576142be613c09565b5b60006142cd8b828c01613d9d565b98505060206142de8b828c01613d9d565b97505060406142ef8b828c01613f0d565b96505060606143008b828c01613f0d565b955050608089013567ffffffffffffffff81111561432157614320613c0e565b5b61432d8b828c01613f8c565b945094505060a06143408b828c0161428a565b92505060c06143518b828c0161428a565b9150509295985092959890939650565b61436a81613c13565b82525050565b60006020820190506143856000830184614361565b92915050565b600061439682613c96565b9050919050565b6143a68161438b565b81146143b157600080fd5b50565b6000813590506143c38161439d565b92915050565b6000806000606084860312156143e2576143e1613c09565b5b60006143f0868287016143b4565b935050602061440186828701613e09565b925050604061441286828701613e09565b9150509250925092565b60008060006040848603121561443557614434613c09565b5b600061444386828701613c34565b935050602084013567ffffffffffffffff81111561446457614463613c0e565b5b61447086828701613f8c565b92509250509250925092565b600082825260208201905092915050565b7f4e6f7420746865206f776e657200000000000000000000000000000000000000600082015250565b60006144c3600d8361447c565b91506144ce8261448d565b602082019050919050565b600060208201905081810360008301526144f2816144b6565b9050919050565b7f64656661756c74206475726174696f6e2063616e6e6f74206265203000000000600082015250565b600061452f601c8361447c565b915061453a826144f9565b602082019050919050565b6000602082019050818103600083015261455e81614522565b9050919050565b600060408201905061457a6000830185614361565b6145876020830184613ce2565b9392505050565b7f46756e6374696f6e206d7573742062652063616c6c6564207468726f7567682060008201527f64656c656761746563616c6c0000000000000000000000000000000000000000602082015250565b60006145ea602c8361447c565b91506145f58261458e565b604082019050919050565b60006020820190508181036000830152614619816145dd565b9050919050565b7f46756e6374696f6e206d7573742062652063616c6c6564207468726f7567682060008201527f6163746976652070726f78790000000000000000000000000000000000000000602082015250565b600061467c602c8361447c565b915061468782614620565b604082019050919050565b600060208201905081810360008301526146ab8161466f565b9050919050565b7f676976656e2061707220746f6f206c6f77000000000000000000000000000000600082015250565b60006146e860118361447c565b91506146f3826146b2565b602082019050919050565b60006020820190508181036000830152614717816146db565b9050919050565b60006040820190506147336000830185614361565b6147406020830184614249565b9392505050565b7f555550535570677261646561626c653a206d757374206e6f742062652063616c60008201527f6c6564207468726f7567682064656c656761746563616c6c0000000000000000602082015250565b60006147a360388361447c565b91506147ae82614747565b604082019050919050565b600060208201905081810360008301526147d281614796565b9050919050565b7f4e487b7100000000000000000000000000000000000000000000000000000000600052601160045260246000fd5b600061481382613c13565b91507fffffffffffffffffffffffffffffffffffffffffffffffffffffffffffffffff821415614846576148456147d9565b5b600182019050919050565b61485a81613c96565b82525050565b60006060820190506148756000830186614851565b6148826020830185614851565b61488f6040830184614851565b949350505050565b6000815190506148a681613df2565b92915050565b6000602082840312156148c2576148c1613c09565b5b60006148d084828501614897565b91505092915050565b60006040820190506148ee6000830185613ca8565b6148fb6020830184614361565b9392505050565b60008151905061491181613ef6565b92915050565b60006020828403121561492d5761492c613c09565b5b600061493b84828501614902565b91505092915050565b7f496e697469616c697a61626c653a20636f6e747261637420697320616c72656160008201527f647920696e697469616c697a6564000000000000000000000000000000000000602082015250565b60006149a0602e8361447c565b91506149ab82614944565b604082019050919050565b600060208201905081810360008301526149cf81614993565b9050919050565b60006149e182613c96565b9050919050565b6149f1816149d6565b81146149fc57600080fd5b50565b600081519050614a0e816149e8565b92915050565b600060208284031215614a2a57614a29613c09565b5b6000614a38848285016149ff565b91505092915050565b600082825260208201905092915050565b7f2875696e7432353620706f6f6c49642c2061646472657373206c656e6465724160008201527f6464726573732900000000000000000000000000000000000000000000000000602082015250565b6000614aae602783614a41565b9150614ab982614a52565b604082019050919050565b60006020820190508181036000830152614add81614aa1565b9050919050565b614aed81613e79565b8114614af857600080fd5b50565b600081519050614b0a81614ae4565b92915050565b600060208284031215614b2657614b25613c09565b5b6000614b3484828501614afb565b91505092915050565b7f2875696e7432353620706f6f6c49642c206164647265737320626f72726f776560008201527f7241646472657373290000000000000000000000000000000000000000000000602082015250565b6000614b99602983614a41565b9150614ba482614b3d565b604082019050919050565b60006020820190508181036000830152614bc881614b8c565b9050919050565b6000819050919050565b600060ff82169050919050565b6000614c01614bfc614bf784614bcf565b613d0c565b614bd9565b9050919050565b614c1181614be6565b82525050565b6000602082019050614c2c6000830184614c08565b92915050565b7f4e487b7100000000000000000000000000000000000000000000000000000000600052602260045260246000fd5b60006002820490506001821680614c7957607f821691505b60208210811415614c8d57614c8c614c32565b5b50919050565b600081905092915050565b60008190508160005260206000209050919050565b60008154614cc081614c61565b614cca8186614c93565b94506001821660008114614ce55760018114614cf657614d29565b60ff19831686528186019350614d29565b614cff85614c9e565b60005b83811015614d2157815481890152600182019150602081019050614d02565b838801955050505b50505092915050565b6000614d3e8284614cb3565b915081905092915050565b6000614d558385614c93565b9350614d62838584614153565b82840190509392505050565b6000614d7b828486614d49565b91508190509392505050565b6000614d93838561447c565b9350614da0838584614153565b614da983614096565b840190509392505050565b6000604082019050614dc96000830186614361565b8181036020830152614ddc818486614d87565b9050949350505050565b7f4f776e61626c653a206e6577206f776e657220697320746865207a65726f206160008201527f6464726573730000000000000000000000000000000000000000000000000000602082015250565b6000614e4260268361447c565b9150614e4d82614de6565b604082019050919050565b60006020820190508181036000830152614e7181614e35565b9050919050565b7f63616e6e6f742065786365656420313025000000000000000000000000000000600082015250565b6000614eae60118361447c565b9150614eb982614e78565b602082019050919050565b60006020820190508181036000830152614edd81614ea1565b9050919050565b600081519050614ef381614273565b92915050565b600060208284031215614f0f57614f0e613c09565b5b6000614f1d84828501614ee4565b91505092915050565b7f5061757361626c653a2070617573656400000000000000000000000000000000600082015250565b6000614f5c60108361447c565b9150614f6782614f26565b602082019050919050565b60006020820190508181036000830152614f8b81614f4f565b9050919050565b7f4e6f742074686520706f6f6c206f776e65720000000000000000000000000000600082015250565b6000614fc860128361447c565b9150614fd382614f92565b602082019050919050565b60006020820190508181036000830152614ff781614fbb565b9050919050565b7f45524331393637557067726164653a206e657720696d706c656d656e7461746960008201527f6f6e206973206e6f742055555053000000000000000000000000000000000000602082015250565b600061505a602e8361447c565b915061506582614ffe565b604082019050919050565b600060208201905081810360008301526150898161504d565b9050919050565b7f45524331393637557067726164653a20756e737570706f727465642070726f7860008201527f6961626c65555549440000000000000000000000000000000000000000000000602082015250565b60006150ec60298361447c565b91506150f782615090565b604082019050919050565b6000602082019050818103600083015261511b816150df565b9050919050565b7f4f776e61626c653a2063616c6c6572206973206e6f7420746865206f776e6572600082015250565b600061515860208361447c565b915061516382615122565b602082019050919050565b600060208201905081810360008301526151878161514b565b9050919050565b60006040820190506151a36000830185614361565b6151b06020830184613ca8565b9392505050565b600081519050919050565b60005b838110156151e05780820151818401526020810190506151c5565b838111156151ef576000848401525b50505050565b6000615200826151b7565b61520a8185614a41565b935061521a8185602086016151c2565b61522381614096565b840191505092915050565b60006060820190506152436000830186613ca8565b6152506020830185613e83565b818103604083015261526281846151f5565b9050949350505050565b7f496e697469616c697a61626c653a20636f6e7472616374206973206e6f74206960008201527f6e697469616c697a696e67000000000000000000000000000000000000000000602082015250565b60006152c8602b8361447c565b91506152d38261526c565b604082019050919050565b600060208201905081810360008301526152f7816152bb565b9050919050565b7f455243313936373a206e657720696d706c656d656e746174696f6e206973206e60008201527f6f74206120636f6e747261637400000000000000000000000000000000000000602082015250565b600061535a602d8361447c565b9150615365826152fe565b604082019050919050565b600060208201905081810360008301526153898161534d565b9050919050565b7f5061757361626c653a206e6f7420706175736564000000000000000000000000600082015250565b60006153c660148361447c565b91506153d182615390565b602082019050919050565b600060208201905081810360008301526153f5816153b9565b9050919050565b7f5265656e7472616e637947756172643a207265656e7472616e742063616c6c00600082015250565b6000615432601f8361447c565b915061543d826153fc565b602082019050919050565b6000602082019050818103600083015261546181615425565b9050919050565b7f616464206c656e64657220746f20706f6f6c6661696c65640000000000000000600082015250565b600061549e60188361447c565b91506154a982615468565b602082019050919050565b600060208201905081810360008301526154cd81615491565b9050919050565b7f61646420626f72726f776572206661696c65642c207665726966696564426f7260008201527f726f77657273466f72506f6f6c2e616464206661696c65640000000000000000602082015250565b600061553060388361447c565b915061553b826154d4565b604082019050919050565b6000602082019050818103600083015261555f81615523565b9050919050565b7f416464726573733a2064656c65676174652063616c6c20746f206e6f6e2d636f60008201527f6e74726163740000000000000000000000000000000000000000000000000000602082015250565b60006155c260268361447c565b91506155cd82615566565b604082019050919050565b600060208201905081810360008301526155f1816155b5565b9050919050565b600081905092915050565b600061560e826151b7565b61561881856155f8565b93506156288185602086016151c2565b80840191505092915050565b60006156408284615603565b915081905092915050565b600061565682613c13565b915061566183613c13565b925082821015615674576156736147d9565b5b828203905092915050565b7f4e487b7100000000000000000000000000000000000000000000000000000000600052603260045260246000fd5b7f4e487b7100000000000000000000000000000000000000000000000000000000600052603160045260246000fd5b600081519050919050565b60006156f3826156dd565b6156fd818561447c565b935061570d8185602086016151c2565b61571681614096565b840191505092915050565b6000602082019050818103600083015261573b81846156e8565b90509291505056fe416464726573733a206c6f772d6c6576656c2064656c65676174652063616c6c206661696c6564a2646970667358221220e1aaa74e3803e396aa7983ac3b1d31642625fb643e7becedd1adc0fdde46574464736f6c634300080b0033",
  "immutableReferences": {
    "720": [
      {
        "length": 32,
        "start": 3468
      },
      {
        "length": 32,
        "start": 3611
      },
      {
        "length": 32,
        "start": 4833
      },
      {
        "length": 32,
        "start": 4976
      },
      {
        "length": 32,
        "start": 5152
      }
    ]
  },
  "source": "// SPDX-License-Identifier: MIT\npragma solidity 0.8.11;\n\nimport \"@openzeppelin/contracts/utils/Counters.sol\";\nimport \"./AconomyFee.sol\";\nimport \"./Libraries/LibPool.sol\";\nimport \"./AttestationServices.sol\";\nimport \"@openzeppelin/contracts-upgradeable/security/ReentrancyGuardUpgradeable.sol\";\nimport \"@openzeppelin/contracts-upgradeable/security/PausableUpgradeable.sol\";\nimport \"@openzeppelin/contracts-upgradeable/proxy/utils/UUPSUpgradeable.sol\";\nimport \"@openzeppelin/contracts-upgradeable/access/OwnableUpgradeable.sol\";\n\nimport {EnumerableSet} from \"@openzeppelin/contracts/utils/structs/EnumerableSet.sol\";\n\ncontract poolRegistry is\n    ReentrancyGuardUpgradeable,\n    PausableUpgradeable,\n    OwnableUpgradeable,\n    UUPSUpgradeable\n{\n    using Counters for Counters.Counter;\n    using EnumerableSet for EnumerableSet.AddressSet;\n\n    //STORAGE START ------------------------------------------------------------------------------------\n\n    AttestationServices public attestationService;\n    bytes32 public lenderAttestationSchemaId;\n    bytes32 public borrowerAttestationSchemaId;\n    bytes32 private _attestingSchemaId;\n    address public AconomyFeeAddress;\n    address public FundingPoolAddress;\n    //poolId => close or open\n    mapping(uint256 => bool) private ClosedPools;\n\n    uint256 public poolCount;\n\n    /**\n     * @notice Deatils for a pool.\n     * @param poolAddress The address of the pool.\n     * @param owner The owner of the pool.\n     * @param URI The pool uri.\n     * @param APR The desired apr of the pool.\n     * @param poolFeePercent The pool fees in bps.\n     * @param lenderAttestationRequired Boolean indicating the requirment of lender attestation.\n     * @param verifiedLendersForPool The verified lenders of the pool.\n     * @param lenderAttestationIds The Id's of the lender attestations.\n     * @param paymentCycleDuration The duration of a payment cycle.\n     * @param paymentDefaultDuration The duration after which the payment becomes defaulted.\n     * @param loanExpirationTime The desired time after which the loan expires.\n     * @param borrowerAttestationRequired Boolean indicating the requirment of borrower attestation.\n     * @param verifiedBorrowersForPool The verified borrowers of the pool.\n     * @param borrowerAttestationIds The Id's of the borrower attestations.\n     */\n    struct poolDetail {\n        address poolAddress;\n        address owner;\n        string URI;\n        uint16 APR;\n        uint16 poolFeePercent; // 10000 is 100%\n        bool lenderAttestationRequired;\n        EnumerableSet.AddressSet verifiedLendersForPool;\n        mapping(address => bytes32) lenderAttestationIds;\n        uint32 paymentCycleDuration;\n        uint32 paymentDefaultDuration;\n        uint32 loanExpirationTime;\n        bool borrowerAttestationRequired;\n        EnumerableSet.AddressSet verifiedBorrowersForPool;\n        mapping(address => bytes32) borrowerAttestationIds;\n    }\n    //poolId => poolDetail\n    mapping(uint256 => poolDetail) internal pools;\n\n    //STORAGE END ------------------------------------------------------------------------------------------\n\n    /// @custom:oz-upgrades-unsafe-allow constructor\n    constructor() {\n        _disableInitializers();\n    }\n\n    function initialize(\n        AttestationServices _attestationServices,\n        address _AconomyFee,\n        address _FundingPoolAddress\n    ) public initializer {\n        __ReentrancyGuard_init();\n        __Ownable_init();\n        __Pausable_init();\n        __UUPSUpgradeable_init();\n        FundingPoolAddress = _FundingPoolAddress;\n        attestationService = _attestationServices;\n        AconomyFeeAddress = _AconomyFee;\n\n        lenderAttestationSchemaId = _attestationServices\n            .getASRegistry()\n            .register(\"(uint256 poolId, address lenderAddress)\");\n        borrowerAttestationSchemaId = _attestationServices\n            .getASRegistry()\n            .register(\"(uint256 poolId, address borrowerAddress)\");\n    }\n\n    function pause() external onlyOwner {\n        _pause();\n    }\n\n    function unpause() external onlyOwner {\n        _unpause();\n    }\n\n    modifier lenderOrBorrowerSchema(bytes32 schemaId) {\n        _attestingSchemaId = schemaId;\n        _;\n        _attestingSchemaId = bytes32(0);\n    }\n\n    modifier ownsPool(uint256 _poolId) {\n        require(pools[_poolId].owner == msg.sender, \"Not the owner\");\n        _;\n    }\n\n    function changeFundingPoolImplementation(\n        address newFundingPool\n    ) external onlyOwner {\n        FundingPoolAddress = newFundingPool;\n    }\n\n    event poolCreated(\n        address indexed owner,\n        address poolAddress,\n        uint256 poolId\n    );\n    event SetPaymentCycleDuration(uint256 poolId, uint32 duration);\n    event SetPaymentDefaultDuration(uint256 poolId, uint32 duration);\n    event SetPoolFee(uint256 poolId, uint16 feePct);\n    event SetloanExpirationTime(uint256 poolId, uint32 duration);\n    event LenderAttestation(uint256 poolId, address lender);\n    event BorrowerAttestation(uint256 poolId, address borrower);\n    event LenderRevocation(uint256 poolId, address lender);\n    event BorrowerRevocation(uint256 poolId, address borrower);\n    event SetPoolURI(uint256 poolId, string uri);\n    event SetAPR(uint256 poolId, uint16 APR);\n    event poolClosed(uint256 poolId);\n\n    /**\n     * @notice Creates a new pool.\n     * @param _paymentDefaultDuration Length of time in seconds before a loan is considered in default for non-payment.\n     * @param _loanExpirationTime Length of time in seconds before pending loan expire.\n     * @param _poolFeePercent The pool fee percentage in bps.\n     * @param _apr The desired pool apr.\n     * @param _uri The pool uri.\n     * @param _requireLenderAttestation Boolean that indicates if lenders require attestation to join pool.\n     * @param _requireBorrowerAttestation Boolean that indicates if borrowers require attestation to join pool.\n     * @return poolId_ The market ID of the newly created pool.\n     */\n    function createPool(\n        uint32 _paymentDefaultDuration,\n        uint32 _loanExpirationTime,\n        uint16 _poolFeePercent,\n        uint16 _apr,\n        string calldata _uri,\n        bool _requireLenderAttestation,\n        bool _requireBorrowerAttestation\n    ) external whenNotPaused returns (uint256 poolId_) {\n        // Increment pool ID counter\n        poolId_ = ++poolCount;\n\n        //Deploy Pool Address\n        address poolAddress = LibPool.deployPoolAddress(\n            msg.sender,\n            address(this),\n            FundingPoolAddress\n        );\n        pools[poolId_].poolAddress = poolAddress;\n        // Set the pool owner\n        pools[poolId_].owner = msg.sender;\n\n        setApr(poolId_, _apr);\n        pools[poolId_].paymentCycleDuration = 30 days;\n        setPaymentDefaultDuration(poolId_, _paymentDefaultDuration);\n        setPoolFeePercent(poolId_, _poolFeePercent);\n        setloanExpirationTime(poolId_, _loanExpirationTime);\n        setPoolURI(poolId_, _uri);\n\n        // Check if pool requires lender attestation to join\n        if (_requireLenderAttestation) {\n            pools[poolId_].lenderAttestationRequired = true;\n            addLender(poolId_, msg.sender);\n        }\n        // Check if pool requires borrower attestation to join\n        if (_requireBorrowerAttestation) {\n            pools[poolId_].borrowerAttestationRequired = true;\n            addBorrower(poolId_, msg.sender);\n        }\n\n        emit poolCreated(msg.sender, poolAddress, poolId_);\n    }\n\n    /**\n     * @notice Sets the desired pool apr.\n     * @param _poolId The Id of the pool.\n     * @param _apr The apr to be set.\n     */\n    function setApr(uint256 _poolId, uint16 _apr) public ownsPool(_poolId) {\n        require(_apr >= 100, \"given apr too low\");\n        if (_apr != pools[_poolId].APR) {\n            pools[_poolId].APR = _apr;\n\n            emit SetAPR(_poolId, _apr);\n        }\n    }\n\n    /**\n     * @notice Sets the pool uri.\n     * @param _poolId The Id of the pool.\n     * @param _uri The uri to be set.\n     */\n    function setPoolURI(\n        uint256 _poolId,\n        string calldata _uri\n    ) public ownsPool(_poolId) {\n        if (\n            keccak256(abi.encodePacked(_uri)) !=\n            keccak256(abi.encodePacked(pools[_poolId].URI))\n        ) {\n            pools[_poolId].URI = _uri;\n\n            emit SetPoolURI(_poolId, _uri);\n        }\n    }\n\n    /**\n     * @notice Sets the pool payment default duration.\n     * @param _poolId The Id of the pool.\n     * @param _duration The duration to be set.\n     */\n    function setPaymentDefaultDuration(\n        uint256 _poolId,\n        uint32 _duration\n    ) public ownsPool(_poolId) {\n        require(_duration != 0, \"default duration cannot be 0\");\n        if (_duration != pools[_poolId].paymentDefaultDuration) {\n            pools[_poolId].paymentDefaultDuration = _duration;\n\n            emit SetPaymentDefaultDuration(_poolId, _duration);\n        }\n    }\n\n    /**\n     * @notice Sets the pool fee percent.\n     * @param _poolId The Id of the pool.\n     * @param _newPercent The new percent to be set.\n     */\n    function setPoolFeePercent(\n        uint256 _poolId,\n        uint16 _newPercent\n    ) public ownsPool(_poolId) {\n        require(_newPercent <= 1000, \"cannot exceed 10%\");\n        if (_newPercent != pools[_poolId].poolFeePercent) {\n            pools[_poolId].poolFeePercent = _newPercent;\n            emit SetPoolFee(_poolId, _newPercent);\n        }\n    }\n\n    /**\n     * @notice Sets the desired loan expiration time.\n     * @param _poolId The Id of the pool.\n     * @param _duration the duration for expiration.\n     */\n    function setloanExpirationTime(\n        uint256 _poolId,\n        uint32 _duration\n    ) public ownsPool(_poolId) {\n        require(_duration != 0);\n        if (_duration != pools[_poolId].loanExpirationTime) {\n            pools[_poolId].loanExpirationTime = _duration;\n\n            emit SetloanExpirationTime(_poolId, _duration);\n        }\n    }\n\n    /**\n     * @notice Change the details of existing pool.\n     * @param _poolId The Id of the existing pool.\n     * @param _paymentDefaultDuration Length of time in seconds before a loan is considered in default for non-payment.\n     * @param _loanExpirationTime Length of time in seconds before pending loan expire.\n     * @param _poolFeePercent The pool fee percentage in bps.\n     * @param _apr The desired pool apr.\n     * @param _uri The pool uri.\n     */\n    function changePoolSetting(\n        uint256 _poolId,\n        uint32 _paymentDefaultDuration,\n        uint32 _loanExpirationTime,\n        uint16 _poolFeePercent,\n        uint16 _apr,\n        string calldata _uri\n    ) public ownsPool(_poolId) {\n        setApr(_poolId, _apr);\n        setPaymentDefaultDuration(_poolId, _paymentDefaultDuration);\n        setPoolFeePercent(_poolId, _poolFeePercent);\n        setloanExpirationTime(_poolId, _loanExpirationTime);\n        setPoolURI(_poolId, _uri);\n    }\n\n    /**\n     * @notice Adds a lender to the pool.\n     * @dev Only called by the pool owner\n     * @param _poolId The Id of the pool.\n     * @param _lenderAddress The address of the lender.\n     */\n    function addLender(\n        uint256 _poolId,\n        address _lenderAddress\n    ) public whenNotPaused ownsPool(_poolId) {\n        require(pools[_poolId].lenderAttestationRequired);\n        _attestAddress(_poolId, _lenderAddress, true);\n    }\n\n    /**\n     * @notice Adds a borrower to the pool.\n     * @dev Only called by the pool owner\n     * @param _poolId The Id of the pool.\n     * @param _borrowerAddress The address of the borrower.\n     */\n    function addBorrower(\n        uint256 _poolId,\n        address _borrowerAddress\n    ) public whenNotPaused ownsPool(_poolId) {\n        require(pools[_poolId].borrowerAttestationRequired);\n        _attestAddress(_poolId, _borrowerAddress, false);\n    }\n\n    /**\n     * @notice Removes a lender from the pool.\n     * @dev Only called by the pool owner\n     * @param _poolId The Id of the pool.\n     * @param _lenderAddress The address of the lender.\n     */\n    function removeLender(\n        uint256 _poolId,\n        address _lenderAddress\n    ) external whenNotPaused ownsPool(_poolId) {\n        require(pools[_poolId].lenderAttestationRequired);\n        _revokeAddress(_poolId, _lenderAddress, true);\n    }\n\n    /**\n     * @notice Removes a borrower from the pool.\n     * @dev Only called by the pool owner\n     * @param _poolId The Id of the pool.\n     * @param _borrowerAddress The address of the borrower.\n     */\n    function removeBorrower(\n        uint256 _poolId,\n        address _borrowerAddress\n    ) external whenNotPaused ownsPool(_poolId) {\n        require(pools[_poolId].borrowerAttestationRequired);\n        _revokeAddress(_poolId, _borrowerAddress, false);\n    }\n\n    /**\n     * @notice Attests an address.\n     * @param _poolId The Id of the pool.\n     * @param _Address The address being attested.\n     * @param _isLender Boolean indicating if the address is a lender\n     */\n    function _attestAddress(\n        uint256 _poolId,\n        address _Address,\n        bool _isLender\n    )\n        internal\n        nonReentrant\n        lenderOrBorrowerSchema(\n            _isLender ? lenderAttestationSchemaId : borrowerAttestationSchemaId\n        )\n    {\n        require(msg.sender == pools[_poolId].owner, \"Not the pool owner\");\n\n        // Submit attestation for borrower to join a pool\n        bytes32 uuid = attestationService.attest(\n            _Address,\n            _attestingSchemaId, // set by the modifier\n            abi.encode(_poolId, _Address)\n        );\n\n        _attestAddressVerification(_poolId, _Address, uuid, _isLender);\n    }\n\n    /**\n     * @notice Verifies the address in poolRegistry.\n     * @param _poolId The Id of the pool.\n     * @param _Address The address being attested.\n     * @param _uuid The uuid of the attestation.\n     * @param _isLender Boolean indicating if the address is a lender\n     */\n    function _attestAddressVerification(\n        uint256 _poolId,\n        address _Address,\n        bytes32 _uuid,\n        bool _isLender\n    ) internal {\n        if (_isLender) {\n            // Store the lender attestation ID for the pool ID\n            pools[_poolId].lenderAttestationIds[_Address] = _uuid;\n            // Add lender address to pool set\n            require(\n                pools[_poolId].verifiedLendersForPool.add(_Address),\n                \"add lender to poolfailed\"\n            );\n\n            emit LenderAttestation(_poolId, _Address);\n        } else {\n            // Store the lender attestation ID for the pool ID\n            pools[_poolId].borrowerAttestationIds[_Address] = _uuid;\n            // Add lender address to pool set\n            require(\n                pools[_poolId].verifiedBorrowersForPool.add(_Address),\n                \"add borrower failed, verifiedBorrowersForPool.add failed\"\n            );\n\n            emit BorrowerAttestation(_poolId, _Address);\n        }\n    }\n\n    /**\n     * @notice Revokes an address.\n     * @param _poolId The Id of the pool.\n     * @param _address The address being revoked.\n     * @param _isLender Boolean indicating if the address is a lender\n     */\n    function _revokeAddress(\n        uint256 _poolId,\n        address _address,\n        bool _isLender\n    ) internal virtual {\n        require(msg.sender == pools[_poolId].owner, \"Not the pool owner\");\n\n        bytes32 uuid = _revokeAddressVerification(_poolId, _address, _isLender);\n\n        attestationService.revoke(uuid);\n    }\n\n    /**\n     * @notice Verifies the address being revoked in poolRegistry.\n     * @param _poolId The Id of the pool.\n     * @param _Address The address being revoked.\n     * @param _isLender Boolean indicating if the address is a lender\n     */\n    function _revokeAddressVerification(\n        uint256 _poolId,\n        address _Address,\n        bool _isLender\n    ) internal virtual returns (bytes32 uuid_) {\n        if (_isLender) {\n            uuid_ = pools[_poolId].lenderAttestationIds[_Address];\n            // Remove lender address from market set\n            pools[_poolId].verifiedLendersForPool.remove(_Address);\n\n            emit LenderRevocation(_poolId, _Address);\n        } else {\n            uuid_ = pools[_poolId].borrowerAttestationIds[_Address];\n            // Remove borrower address from market set\n            pools[_poolId].verifiedBorrowersForPool.remove(_Address);\n\n            emit BorrowerRevocation(_poolId, _Address);\n        }\n    }\n\n    function getPoolFee(uint256 _poolId) public view returns (uint16 fee) {\n        return pools[_poolId].poolFeePercent;\n    }\n\n    /**\n     * @notice Checks if the address is a verified borrower.\n     * @dev returns a boolean and byte32 uuid.\n     * @param _poolId The Id of the pool.\n     * @param _borrowerAddress The address being verified.\n     * @return isVerified_ boolean and byte32 uuid_.\n     */\n    function borrowerVerification(\n        uint256 _poolId,\n        address _borrowerAddress\n    ) public view returns (bool isVerified_, bytes32 uuid_) {\n        return\n            _isAddressVerified(\n                _borrowerAddress,\n                pools[_poolId].borrowerAttestationRequired,\n                pools[_poolId].borrowerAttestationIds,\n                pools[_poolId].verifiedBorrowersForPool\n            );\n    }\n\n    /**\n     * @notice Checks if the address is a verified lender.\n     * @dev returns a boolean and byte32 uuid.\n     * @param _poolId The Id of the pool.\n     * @param _lenderAddress The address being verified.\n     * @return isVerified_ boolean and byte32 uuid_.\n     */\n    function lenderVerification(\n        uint256 _poolId,\n        address _lenderAddress\n    ) public view returns (bool isVerified_, bytes32 uuid_) {\n        return\n            _isAddressVerified(\n                _lenderAddress,\n                pools[_poolId].lenderAttestationRequired,\n                pools[_poolId].lenderAttestationIds,\n                pools[_poolId].verifiedLendersForPool\n            );\n    }\n\n    /**\n     * @notice Checks if the address is verified.\n     * @dev returns a boolean and byte32 uuid.\n     * @param _wltAddress The address being checked.\n     * @param _attestationRequired The need for attestation for the pool.\n     * @param _stakeholderAttestationIds The uuid's of the verified pool addresses\n     * @param _verifiedStakeholderForPool The addresses of the pool\n     * @return isVerified_ boolean and byte32 uuid_.\n     */\n    function _isAddressVerified(\n        address _wltAddress,\n        bool _attestationRequired,\n        mapping(address => bytes32) storage _stakeholderAttestationIds,\n        EnumerableSet.AddressSet storage _verifiedStakeholderForPool\n    ) internal view returns (bool isVerified_, bytes32 uuid_) {\n        if (_attestationRequired) {\n            isVerified_ =\n                _verifiedStakeholderForPool.contains(_wltAddress) &&\n                attestationService.isAddressActive(\n                    _stakeholderAttestationIds[_wltAddress]\n                );\n            uuid_ = _stakeholderAttestationIds[_wltAddress];\n        } else {\n            isVerified_ = true;\n        }\n    }\n\n    /**\n     * @notice Closes the pool specified.\n     * @param _poolId The Id of the pool.\n     */\n    function closePool(uint256 _poolId) public whenNotPaused ownsPool(_poolId) {\n        if (!ClosedPools[_poolId]) {\n            ClosedPools[_poolId] = true;\n\n            emit poolClosed(_poolId);\n        }\n    }\n\n    function ClosedPool(uint256 _poolId) public view returns (bool) {\n        return ClosedPools[_poolId];\n    }\n\n    function getPaymentCycleDuration(\n        uint256 _poolId\n    ) public view returns (uint32) {\n        return pools[_poolId].paymentCycleDuration;\n    }\n\n    function getPaymentDefaultDuration(\n        uint256 _poolId\n    ) public view returns (uint32) {\n        return pools[_poolId].paymentDefaultDuration;\n    }\n\n    function getloanExpirationTime(\n        uint256 poolId\n    ) public view returns (uint32) {\n        return pools[poolId].loanExpirationTime;\n    }\n\n    function getPoolAddress(uint256 _poolId) public view returns (address) {\n        return pools[_poolId].poolAddress;\n    }\n\n    function getPoolOwner(uint256 _poolId) public view returns (address) {\n        return pools[_poolId].owner;\n    }\n\n    function getPoolApr(uint256 _poolId) public view returns (uint16) {\n        return pools[_poolId].APR;\n    }\n\n    function getPoolFeePercent(uint256 _poolId) public view returns (uint16) {\n        return pools[_poolId].poolFeePercent;\n    }\n\n    function getAconomyFee() public view returns (uint16) {\n        return AconomyFee(AconomyFeeAddress).AconomyPoolFee();\n    }\n\n    function getAconomyOwner() public view returns (address) {\n        return AconomyFee(AconomyFeeAddress).getAconomyOwnerAddress();\n    }\n\n    function _authorizeUpgrade(address) internal override onlyOwner {}\n}\n",
  "sourcePath": "/media/dell/17f09f70-0626-4927-a787-2813ab7ed2c0/dell/Pandora/pooolAddress Pandora Git/aconomy-contract/contracts/poolRegistry.sol",
  "compiler": {
    "name": "solc",
    "version": "0.8.11+commit.d7f03943.Emscripten.clang"
  },
  "schemaVersion": "3.4.10",
  "updatedAt": "2023-09-20T09:28:14.784Z",
  "networkType": "ethereum",
  "devdoc": {
    "kind": "dev",
    "methods": {
      "addBorrower(uint256,address)": {
        "details": "Only called by the pool owner",
        "params": {
          "_borrowerAddress": "The address of the borrower.",
          "_poolId": "The Id of the pool."
        }
      },
      "addLender(uint256,address)": {
        "details": "Only called by the pool owner",
        "params": {
          "_lenderAddress": "The address of the lender.",
          "_poolId": "The Id of the pool."
        }
      },
      "borrowerVerification(uint256,address)": {
        "details": "returns a boolean and byte32 uuid.",
        "params": {
          "_borrowerAddress": "The address being verified.",
          "_poolId": "The Id of the pool."
        },
        "returns": {
          "isVerified_": "boolean and byte32 uuid_."
        }
      },
      "changePoolSetting(uint256,uint32,uint32,uint16,uint16,string)": {
        "params": {
          "_apr": "The desired pool apr.",
          "_loanExpirationTime": "Length of time in seconds before pending loan expire.",
          "_paymentDefaultDuration": "Length of time in seconds before a loan is considered in default for non-payment.",
          "_poolFeePercent": "The pool fee percentage in bps.",
          "_poolId": "The Id of the existing pool.",
          "_uri": "The pool uri."
        }
      },
      "closePool(uint256)": {
        "params": {
          "_poolId": "The Id of the pool."
        }
      },
      "constructor": {
        "custom:oz-upgrades-unsafe-allow": "constructor"
      },
      "createPool(uint32,uint32,uint16,uint16,string,bool,bool)": {
        "params": {
          "_apr": "The desired pool apr.",
          "_loanExpirationTime": "Length of time in seconds before pending loan expire.",
          "_paymentDefaultDuration": "Length of time in seconds before a loan is considered in default for non-payment.",
          "_poolFeePercent": "The pool fee percentage in bps.",
          "_requireBorrowerAttestation": "Boolean that indicates if borrowers require attestation to join pool.",
          "_requireLenderAttestation": "Boolean that indicates if lenders require attestation to join pool.",
          "_uri": "The pool uri."
        },
        "returns": {
          "poolId_": "The market ID of the newly created pool."
        }
      },
      "lenderVerification(uint256,address)": {
        "details": "returns a boolean and byte32 uuid.",
        "params": {
          "_lenderAddress": "The address being verified.",
          "_poolId": "The Id of the pool."
        },
        "returns": {
          "isVerified_": "boolean and byte32 uuid_."
        }
      },
      "owner()": {
        "details": "Returns the address of the current owner."
      },
      "paused()": {
        "details": "Returns true if the contract is paused, and false otherwise."
      },
      "proxiableUUID()": {
        "details": "Implementation of the ERC1822 {proxiableUUID} function. This returns the storage slot used by the implementation. It is used to validate the implementation's compatibility when performing an upgrade. IMPORTANT: A proxy pointing at a proxiable contract should not be considered proxiable itself, because this risks bricking a proxy that upgrades to it, by delegating to itself until out of gas. Thus it is critical that this function revert if invoked through a proxy. This is guaranteed by the `notDelegated` modifier."
      },
      "removeBorrower(uint256,address)": {
        "details": "Only called by the pool owner",
        "params": {
          "_borrowerAddress": "The address of the borrower.",
          "_poolId": "The Id of the pool."
        }
      },
      "removeLender(uint256,address)": {
        "details": "Only called by the pool owner",
        "params": {
          "_lenderAddress": "The address of the lender.",
          "_poolId": "The Id of the pool."
        }
      },
      "renounceOwnership()": {
        "details": "Leaves the contract without owner. It will not be possible to call `onlyOwner` functions anymore. Can only be called by the current owner. NOTE: Renouncing ownership will leave the contract without an owner, thereby removing any functionality that is only available to the owner."
      },
      "setApr(uint256,uint16)": {
        "params": {
          "_apr": "The apr to be set.",
          "_poolId": "The Id of the pool."
        }
      },
      "setPaymentDefaultDuration(uint256,uint32)": {
        "params": {
          "_duration": "The duration to be set.",
          "_poolId": "The Id of the pool."
        }
      },
      "setPoolFeePercent(uint256,uint16)": {
        "params": {
          "_newPercent": "The new percent to be set.",
          "_poolId": "The Id of the pool."
        }
      },
      "setPoolURI(uint256,string)": {
        "params": {
          "_poolId": "The Id of the pool.",
          "_uri": "The uri to be set."
        }
      },
      "setloanExpirationTime(uint256,uint32)": {
        "params": {
          "_duration": "the duration for expiration.",
          "_poolId": "The Id of the pool."
        }
      },
      "transferOwnership(address)": {
        "details": "Transfers ownership of the contract to a new account (`newOwner`). Can only be called by the current owner."
      },
      "upgradeTo(address)": {
        "details": "Upgrade the implementation of the proxy to `newImplementation`. Calls {_authorizeUpgrade}. Emits an {Upgraded} event."
      },
      "upgradeToAndCall(address,bytes)": {
        "details": "Upgrade the implementation of the proxy to `newImplementation`, and subsequently execute the function call encoded in `data`. Calls {_authorizeUpgrade}. Emits an {Upgraded} event."
      }
    },
    "version": 1
  },
  "userdoc": {
    "kind": "user",
    "methods": {
      "addBorrower(uint256,address)": {
        "notice": "Adds a borrower to the pool."
      },
      "addLender(uint256,address)": {
        "notice": "Adds a lender to the pool."
      },
      "borrowerVerification(uint256,address)": {
        "notice": "Checks if the address is a verified borrower."
      },
      "changePoolSetting(uint256,uint32,uint32,uint16,uint16,string)": {
        "notice": "Change the details of existing pool."
      },
      "closePool(uint256)": {
        "notice": "Closes the pool specified."
      },
      "createPool(uint32,uint32,uint16,uint16,string,bool,bool)": {
        "notice": "Creates a new pool."
      },
      "lenderVerification(uint256,address)": {
        "notice": "Checks if the address is a verified lender."
      },
      "removeBorrower(uint256,address)": {
        "notice": "Removes a borrower from the pool."
      },
      "removeLender(uint256,address)": {
        "notice": "Removes a lender from the pool."
      },
      "setApr(uint256,uint16)": {
        "notice": "Sets the desired pool apr."
      },
      "setPaymentDefaultDuration(uint256,uint32)": {
        "notice": "Sets the pool payment default duration."
      },
      "setPoolFeePercent(uint256,uint16)": {
        "notice": "Sets the pool fee percent."
      },
      "setPoolURI(uint256,string)": {
        "notice": "Sets the pool uri."
      },
      "setloanExpirationTime(uint256,uint32)": {
        "notice": "Sets the desired loan expiration time."
      }
    },
    "version": 1
  }
}